{
	"_format": "sphinx-sol-ct-artifact-1",
	"merkleRoot": "0x4b695c91d82e3855e155ff4f3d0f3a3486af85b33be7b121e4ac41df8a3dd111",
	"contractName": "JB721TiersHookDeployer",
	"address": "0xF97086E4CeA8D11FCD64cb2E5dDE0Ab7588f5F01",
	"abi": [
		{
			"type": "constructor",
			"inputs": [
				{
					"name": "hook",
					"type": "address",
					"internalType": "contract JB721TiersHook"
				},
				{
					"name": "store",
					"type": "address",
					"internalType": "contract IJB721TiersHookStore"
				},
				{
					"name": "addressRegistry",
					"type": "address",
					"internalType": "contract IJBAddressRegistry"
				},
				{
					"name": "trustedForwarder",
					"type": "address",
					"internalType": "address"
				}
			],
			"stateMutability": "nonpayable"
		},
		{
			"type": "function",
			"name": "ADDRESS_REGISTRY",
			"inputs": [],
			"outputs": [
				{
					"name": "",
					"type": "address",
					"internalType": "contract IJBAddressRegistry"
				}
			],
			"stateMutability": "view"
		},
		{
			"type": "function",
			"name": "HOOK",
			"inputs": [],
			"outputs": [
				{
					"name": "",
					"type": "address",
					"internalType": "contract JB721TiersHook"
				}
			],
			"stateMutability": "view"
		},
		{
			"type": "function",
			"name": "STORE",
			"inputs": [],
			"outputs": [
				{
					"name": "",
					"type": "address",
					"internalType": "contract IJB721TiersHookStore"
				}
			],
			"stateMutability": "view"
		},
		{
			"type": "function",
			"name": "deployHookFor",
			"inputs": [
				{
					"name": "projectId",
					"type": "uint256",
					"internalType": "uint256"
				},
				{
					"name": "deployTiersHookConfig",
					"type": "tuple",
					"internalType": "struct JBDeploy721TiersHookConfig",
					"components": [
						{
							"name": "name",
							"type": "string",
							"internalType": "string"
						},
						{
							"name": "symbol",
							"type": "string",
							"internalType": "string"
						},
						{
							"name": "rulesets",
							"type": "address",
							"internalType": "contract IJBRulesets"
						},
						{
							"name": "baseUri",
							"type": "string",
							"internalType": "string"
						},
						{
							"name": "tokenUriResolver",
							"type": "address",
							"internalType": "contract IJB721TokenUriResolver"
						},
						{
							"name": "contractUri",
							"type": "string",
							"internalType": "string"
						},
						{
							"name": "tiersConfig",
							"type": "tuple",
							"internalType": "struct JB721InitTiersConfig",
							"components": [
								{
									"name": "tiers",
									"type": "tuple[]",
									"internalType": "struct JB721TierConfig[]",
									"components": [
										{
											"name": "price",
											"type": "uint104",
											"internalType": "uint104"
										},
										{
											"name": "initialSupply",
											"type": "uint32",
											"internalType": "uint32"
										},
										{
											"name": "votingUnits",
											"type": "uint32",
											"internalType": "uint32"
										},
										{
											"name": "reserveFrequency",
											"type": "uint16",
											"internalType": "uint16"
										},
										{
											"name": "reserveBeneficiary",
											"type": "address",
											"internalType": "address"
										},
										{
											"name": "encodedIPFSUri",
											"type": "bytes32",
											"internalType": "bytes32"
										},
										{
											"name": "category",
											"type": "uint24",
											"internalType": "uint24"
										},
										{
											"name": "allowOwnerMint",
											"type": "bool",
											"internalType": "bool"
										},
										{
											"name": "useReserveBeneficiaryAsDefault",
											"type": "bool",
											"internalType": "bool"
										},
										{
											"name": "transfersPausable",
											"type": "bool",
											"internalType": "bool"
										},
										{
											"name": "useVotingUnits",
											"type": "bool",
											"internalType": "bool"
										},
										{
											"name": "cannotBeRemoved",
											"type": "bool",
											"internalType": "bool"
										}
									]
								},
								{
									"name": "currency",
									"type": "uint32",
									"internalType": "uint32"
								},
								{
									"name": "decimals",
									"type": "uint8",
									"internalType": "uint8"
								},
								{
									"name": "prices",
									"type": "address",
									"internalType": "contract IJBPrices"
								}
							]
						},
						{
							"name": "reserveBeneficiary",
							"type": "address",
							"internalType": "address"
						},
						{
							"name": "flags",
							"type": "tuple",
							"internalType": "struct JB721TiersHookFlags",
							"components": [
								{
									"name": "noNewTiersWithReserves",
									"type": "bool",
									"internalType": "bool"
								},
								{
									"name": "noNewTiersWithVotes",
									"type": "bool",
									"internalType": "bool"
								},
								{
									"name": "noNewTiersWithOwnerMinting",
									"type": "bool",
									"internalType": "bool"
								},
								{
									"name": "preventOverspending",
									"type": "bool",
									"internalType": "bool"
								}
							]
						}
					]
				}
			],
			"outputs": [
				{
					"name": "newHook",
					"type": "address",
					"internalType": "contract IJB721TiersHook"
				}
			],
			"stateMutability": "nonpayable"
		},
		{
			"type": "function",
			"name": "isTrustedForwarder",
			"inputs": [
				{
					"name": "forwarder",
					"type": "address",
					"internalType": "address"
				}
			],
			"outputs": [
				{
					"name": "",
					"type": "bool",
					"internalType": "bool"
				}
			],
			"stateMutability": "view"
		},
		{
			"type": "function",
			"name": "trustedForwarder",
			"inputs": [],
			"outputs": [
				{
					"name": "",
					"type": "address",
					"internalType": "address"
				}
			],
			"stateMutability": "view"
		},
		{
			"type": "event",
			"name": "HookDeployed",
			"inputs": [
				{
					"name": "projectId",
					"type": "uint256",
					"indexed": true,
					"internalType": "uint256"
				},
				{
					"name": "newHook",
					"type": "address",
					"indexed": false,
					"internalType": "contract IJB721TiersHook"
				}
			],
			"anonymous": false
		},
		{
			"type": "error",
			"name": "ERC1167FailedCreateClone",
			"inputs": []
		}
	],
	"solcInputHash": "768efbfbe22ac68c3991114711630fa8",
	"args": [
		"0x72bC5Bd109680dbd28c8c67F7D170da749b2b69f",
		"0xB2C0Cf85FEf94012Bb4c5e0534B8A5E845BC6312",
		"0x989566Bf9fF4CffA55a98ADa7dc3E58b2a0a19c6",
		"0xB2b5841DBeF766d4b521221732F9B618fCf34A87"
	],
	"bytecode": "0x61010060405234801561001157600080fd5b50604051610e9c380380610e9c8339810160408190526100309161006b565b6001600160a01b0390811660805292831660a05290821660c0521660e0526100ca565b6001600160a01b038116811461006857600080fd5b50565b6000806000806080858703121561008157600080fd5b845161008c81610053565b602086015190945061009d81610053565b60408601519093506100ae81610053565b60608601519092506100bf81610053565b939692955090935050565b60805160a05160c05160e051610d786101246000396000818161014901526102fa01526000818160ac01526101f4015260008181610170015261019901526000818160de0152818161012001526104870152610d786000f3fe608060405234801561001057600080fd5b50600436106100725760003560e01c80637da0a877116100505780637da0a8771461011e57806389a56bbc14610144578063a54eb2421461016b57600080fd5b80632230819f14610077578063507f1465146100a7578063572b6c05146100ce575b600080fd5b61008a6100853660046108c9565b610192565b6040516001600160a01b0390911681526020015b60405180910390f35b61008a7f000000000000000000000000000000000000000000000000000000000000000081565b61010e6100dc366004610a1b565b7f00000000000000000000000000000000000000000000000000000000000000006001600160a01b0390811691161490565b604051901515815260200161009e565b7f000000000000000000000000000000000000000000000000000000000000000061008a565b61008a7f000000000000000000000000000000000000000000000000000000000000000081565b61008a7f000000000000000000000000000000000000000000000000000000000000000081565b60006101bd7f00000000000000000000000000000000000000000000000000000000000000006103f5565b9050806001600160a01b031663c07f2f9b84846000015185602001518660400151876060015188608001518960a001518a60c001517f00000000000000000000000000000000000000000000000000000000000000008c61010001516040518b63ffffffff1660e01b815260040161023e9a99989796959493929190610a85565b600060405180830381600087803b15801561025857600080fd5b505af115801561026c573d6000803e3d6000fd5b50505050806001600160a01b031663f2fde38b610287610480565b6040517fffffffff0000000000000000000000000000000000000000000000000000000060e084901b1681526001600160a01b039091166004820152602401600060405180830381600087803b1580156102e057600080fd5b505af11580156102f4573d6000803e3d6000fd5b505050507f00000000000000000000000000000000000000000000000000000000000000006001600160a01b031663b94417ab30600080815461033690610cb1565b91829055506040517fffffffff0000000000000000000000000000000000000000000000000000000060e085901b1681526001600160a01b0390921660048301526024820152604401600060405180830381600087803b15801561039957600080fd5b505af11580156103ad573d6000803e3d6000fd5b50506040516001600160a01b03841681528592507fa42f6bb68e81f4650a7966f109d861f6c3d2a477e608e30807f568bed1cebdb9915060200160405180910390a292915050565b6000763d602d80600a3d3981f3363d3d373d3d3d363d730000008260601b60e81c176000526e5af43d82803e903d91602b57fd5bf38260781b17602052603760096000f090506001600160a01b03811661047b576040517fc2f868f400000000000000000000000000000000000000000000000000000000815260040160405180910390fd5b919050565b60003660147f00000000000000000000000000000000000000000000000000000000000000006001600160a01b0316331480156104bd5750808210155b156104ed576000366104cf8385610cca565b6104da928290610ce3565b6104e391610d0d565b60601c9250505090565b339250505090565b634e487b7160e01b600052604160045260246000fd5b6040516080810167ffffffffffffffff8111828210171561052e5761052e6104f5565b60405290565b604051610180810167ffffffffffffffff8111828210171561052e5761052e6104f5565b604051610120810167ffffffffffffffff8111828210171561052e5761052e6104f5565b604051601f8201601f1916810167ffffffffffffffff811182821017156105a5576105a56104f5565b604052919050565b600082601f8301126105be57600080fd5b813567ffffffffffffffff8111156105d8576105d86104f5565b6105eb601f8201601f191660200161057c565b81815284602083860101111561060057600080fd5b816020850160208301376000918101602001919091529392505050565b6001600160a01b038116811461063257600080fd5b50565b803561047b8161061d565b80356cffffffffffffffffffffffffff8116811461047b57600080fd5b803563ffffffff8116811461047b57600080fd5b803561ffff8116811461047b57600080fd5b803562ffffff8116811461047b57600080fd5b8035801515811461047b57600080fd5b803560ff8116811461047b57600080fd5b600060808083850312156106ca57600080fd5b6106d261050b565b9150823567ffffffffffffffff808211156106ec57600080fd5b818501915085601f83011261070057600080fd5b8135602082821115610714576107146104f5565b610722818360051b0161057c565b828152818101935061018092830285018201928984111561074257600080fd5b948201945b838610156108355780868b03121561075f5760008081fd5b610767610534565b61077087610640565b815261077d84880161065d565b84820152604061078e81890161065d565b90820152606061079f888201610671565b908201526107ae878901610635565b8189015260a0878101359082015260c06107c9818901610683565b9082015260e06107da888201610696565b908201526101006107ec888201610696565b908201526101206107fe888201610696565b90820152610140610810888201610696565b90820152610160610822888201610696565b9082015285529485019493820193610747565b50865261084387820161065d565b818701525050505050610858604083016106a6565b604082015261086960608301610635565b606082015292915050565b60006080828403121561088657600080fd5b61088e61050b565b905061089982610696565b81526108a760208301610696565b60208201526108b860408301610696565b604082015261086960608301610696565b600080604083850312156108dc57600080fd5b82359150602083013567ffffffffffffffff808211156108fb57600080fd5b90840190610180828703121561091057600080fd5b610918610558565b82358281111561092757600080fd5b610933888286016105ad565b82525060208301358281111561094857600080fd5b610954888286016105ad565b60208301525061096660408401610635565b604082015260608301358281111561097d57600080fd5b610989888286016105ad565b60608301525061099b60808401610635565b608082015260a0830135828111156109b257600080fd5b6109be888286016105ad565b60a08301525060c0830135828111156109d657600080fd5b6109e2888286016106b7565b60c0830152506109f460e08401610635565b60e08201526101009150610a0a87838501610874565b828201528093505050509250929050565b600060208284031215610a2d57600080fd5b8135610a388161061d565b9392505050565b6000815180845260005b81811015610a6557602081850181015186830182015201610a49565b506000602082860101526020601f19601f83011685010191505092915050565b60006101a08c835260208181850152610aa08285018e610a3f565b91508382036040850152610ab4828d610a3f565b915060606001600160a01b03808d16606087015260808685036080880152610adc858e610a3f565b945060a0828d1660a089015260c0925087860360c0890152610afe868d610a3f565b955060e088870360e08a0152608087018c516080895281815180845260a08b0191508983019350600092505b80831015610bf657835180516cffffffffffffffffffffffffff168352808b015163ffffffff8116848d0152506040810151610b6e604085018263ffffffff169052565b508981015161ffff16838b0152878101516001600160a01b03168884015286810151878401528881015162ffffff16898401528581015115158684015261010080820151151590840152610120808201511515908401526101408082015115159084015261016090810151151590830152928901926001929092019161018090910190610b2a565b508e89015163ffffffff81168b8b0152975060408f01519850610c1e60408b018a60ff169052565b60608f01519850610c3a60608b018a6001600160a01b03169052565b6001600160a01b038e166101008d01529950610c5b98505050505050505050565b825115156101208301526020830151151561014083015260408301511515610160830152606083015115156101808301529b9a5050505050505050505050565b634e487b7160e01b600052601160045260246000fd5b600060018201610cc357610cc3610c9b565b5060010190565b81810381811115610cdd57610cdd610c9b565b92915050565b60008085851115610cf357600080fd5b83861115610d0057600080fd5b5050820193919092039150565b6bffffffffffffffffffffffff198135818116916014851015610d3a5780818660140360031b1b83161692505b50509291505056fea264697066735822122041cfe97a836749d87addfd4b1fb990443d413ca43fbc332e700e616da9f1db7e64736f6c63430008170033",
	"deployedBytecode": "0x608060405234801561001057600080fd5b50600436106100725760003560e01c80637da0a877116100505780637da0a8771461011e57806389a56bbc14610144578063a54eb2421461016b57600080fd5b80632230819f14610077578063507f1465146100a7578063572b6c05146100ce575b600080fd5b61008a6100853660046108c9565b610192565b6040516001600160a01b0390911681526020015b60405180910390f35b61008a7f000000000000000000000000b2c0cf85fef94012bb4c5e0534b8a5e845bc631281565b61010e6100dc366004610a1b565b7f000000000000000000000000b2b5841dbef766d4b521221732f9b618fcf34a876001600160a01b0390811691161490565b604051901515815260200161009e565b7f000000000000000000000000b2b5841dbef766d4b521221732f9b618fcf34a8761008a565b61008a7f000000000000000000000000989566bf9ff4cffa55a98ada7dc3e58b2a0a19c681565b61008a7f00000000000000000000000072bc5bd109680dbd28c8c67f7d170da749b2b69f81565b60006101bd7f00000000000000000000000072bc5bd109680dbd28c8c67f7d170da749b2b69f6103f5565b9050806001600160a01b031663c07f2f9b84846000015185602001518660400151876060015188608001518960a001518a60c001517f000000000000000000000000b2c0cf85fef94012bb4c5e0534b8a5e845bc63128c61010001516040518b63ffffffff1660e01b815260040161023e9a99989796959493929190610a85565b600060405180830381600087803b15801561025857600080fd5b505af115801561026c573d6000803e3d6000fd5b50505050806001600160a01b031663f2fde38b610287610480565b6040517fffffffff0000000000000000000000000000000000000000000000000000000060e084901b1681526001600160a01b039091166004820152602401600060405180830381600087803b1580156102e057600080fd5b505af11580156102f4573d6000803e3d6000fd5b505050507f000000000000000000000000989566bf9ff4cffa55a98ada7dc3e58b2a0a19c66001600160a01b031663b94417ab30600080815461033690610cb1565b91829055506040517fffffffff0000000000000000000000000000000000000000000000000000000060e085901b1681526001600160a01b0390921660048301526024820152604401600060405180830381600087803b15801561039957600080fd5b505af11580156103ad573d6000803e3d6000fd5b50506040516001600160a01b03841681528592507fa42f6bb68e81f4650a7966f109d861f6c3d2a477e608e30807f568bed1cebdb9915060200160405180910390a292915050565b6000763d602d80600a3d3981f3363d3d373d3d3d363d730000008260601b60e81c176000526e5af43d82803e903d91602b57fd5bf38260781b17602052603760096000f090506001600160a01b03811661047b576040517fc2f868f400000000000000000000000000000000000000000000000000000000815260040160405180910390fd5b919050565b60003660147f000000000000000000000000b2b5841dbef766d4b521221732f9b618fcf34a876001600160a01b0316331480156104bd5750808210155b156104ed576000366104cf8385610cca565b6104da928290610ce3565b6104e391610d0d565b60601c9250505090565b339250505090565b634e487b7160e01b600052604160045260246000fd5b6040516080810167ffffffffffffffff8111828210171561052e5761052e6104f5565b60405290565b604051610180810167ffffffffffffffff8111828210171561052e5761052e6104f5565b604051610120810167ffffffffffffffff8111828210171561052e5761052e6104f5565b604051601f8201601f1916810167ffffffffffffffff811182821017156105a5576105a56104f5565b604052919050565b600082601f8301126105be57600080fd5b813567ffffffffffffffff8111156105d8576105d86104f5565b6105eb601f8201601f191660200161057c565b81815284602083860101111561060057600080fd5b816020850160208301376000918101602001919091529392505050565b6001600160a01b038116811461063257600080fd5b50565b803561047b8161061d565b80356cffffffffffffffffffffffffff8116811461047b57600080fd5b803563ffffffff8116811461047b57600080fd5b803561ffff8116811461047b57600080fd5b803562ffffff8116811461047b57600080fd5b8035801515811461047b57600080fd5b803560ff8116811461047b57600080fd5b600060808083850312156106ca57600080fd5b6106d261050b565b9150823567ffffffffffffffff808211156106ec57600080fd5b818501915085601f83011261070057600080fd5b8135602082821115610714576107146104f5565b610722818360051b0161057c565b828152818101935061018092830285018201928984111561074257600080fd5b948201945b838610156108355780868b03121561075f5760008081fd5b610767610534565b61077087610640565b815261077d84880161065d565b84820152604061078e81890161065d565b90820152606061079f888201610671565b908201526107ae878901610635565b8189015260a0878101359082015260c06107c9818901610683565b9082015260e06107da888201610696565b908201526101006107ec888201610696565b908201526101206107fe888201610696565b90820152610140610810888201610696565b90820152610160610822888201610696565b9082015285529485019493820193610747565b50865261084387820161065d565b818701525050505050610858604083016106a6565b604082015261086960608301610635565b606082015292915050565b60006080828403121561088657600080fd5b61088e61050b565b905061089982610696565b81526108a760208301610696565b60208201526108b860408301610696565b604082015261086960608301610696565b600080604083850312156108dc57600080fd5b82359150602083013567ffffffffffffffff808211156108fb57600080fd5b90840190610180828703121561091057600080fd5b610918610558565b82358281111561092757600080fd5b610933888286016105ad565b82525060208301358281111561094857600080fd5b610954888286016105ad565b60208301525061096660408401610635565b604082015260608301358281111561097d57600080fd5b610989888286016105ad565b60608301525061099b60808401610635565b608082015260a0830135828111156109b257600080fd5b6109be888286016105ad565b60a08301525060c0830135828111156109d657600080fd5b6109e2888286016106b7565b60c0830152506109f460e08401610635565b60e08201526101009150610a0a87838501610874565b828201528093505050509250929050565b600060208284031215610a2d57600080fd5b8135610a388161061d565b9392505050565b6000815180845260005b81811015610a6557602081850181015186830182015201610a49565b506000602082860101526020601f19601f83011685010191505092915050565b60006101a08c835260208181850152610aa08285018e610a3f565b91508382036040850152610ab4828d610a3f565b915060606001600160a01b03808d16606087015260808685036080880152610adc858e610a3f565b945060a0828d1660a089015260c0925087860360c0890152610afe868d610a3f565b955060e088870360e08a0152608087018c516080895281815180845260a08b0191508983019350600092505b80831015610bf657835180516cffffffffffffffffffffffffff168352808b015163ffffffff8116848d0152506040810151610b6e604085018263ffffffff169052565b508981015161ffff16838b0152878101516001600160a01b03168884015286810151878401528881015162ffffff16898401528581015115158684015261010080820151151590840152610120808201511515908401526101408082015115159084015261016090810151151590830152928901926001929092019161018090910190610b2a565b508e89015163ffffffff81168b8b0152975060408f01519850610c1e60408b018a60ff169052565b60608f01519850610c3a60608b018a6001600160a01b03169052565b6001600160a01b038e166101008d01529950610c5b98505050505050505050565b825115156101208301526020830151151561014083015260408301511515610160830152606083015115156101808301529b9a5050505050505050505050565b634e487b7160e01b600052601160045260246000fd5b600060018201610cc357610cc3610c9b565b5060010190565b81810381811115610cdd57610cdd610c9b565b92915050565b60008085851115610cf357600080fd5b83861115610d0057600080fd5b5050820193919092039150565b6bffffffffffffffffffffffff198135818116916014851015610d3a5780818660140360031b1b83161692505b50509291505056fea264697066735822122041cfe97a836749d87addfd4b1fb990443d413ca43fbc332e700e616da9f1db7e64736f6c63430008170033",
	"devdoc": {
		"kind": "dev",
		"methods": {
			"constructor": {
				"params": {
					"addressRegistry": "A registry which stores references to contracts and their deployers.",
					"hook": "Reference copy of a hook."
				}
			},
			"deployHookFor(uint256,(string,string,address,string,address,string,((uint104,uint32,uint32,uint16,address,bytes32,uint24,bool,bool,bool,bool,bool)[],uint32,uint8,address),address,(bool,bool,bool,bool)))": {
				"params": {
					"deployTiersHookConfig": "The config to deploy the hook with, which determines its behavior.",
					"projectId": "The ID of the project to deploy the hook for."
				},
				"returns": {
					"newHook": "The address of the newly deployed hook."
				}
			},
			"isTrustedForwarder(address)": {
				"details": "Indicates whether any particular address is the trusted forwarder."
			},
			"trustedForwarder()": {
				"details": "Returns the address of the trusted forwarder."
			}
		},
		"version": 1
	},
	"userdoc": {
		"kind": "user",
		"methods": {
			"ADDRESS_REGISTRY()": {
				"notice": "A registry which stores references to contracts and their deployers."
			},
			"HOOK()": {
				"notice": "A 721 tiers hook."
			},
			"STORE()": {
				"notice": "The contract that stores and manages data for this contract's NFTs."
			},
			"deployHookFor(uint256,(string,string,address,string,address,string,((uint104,uint32,uint32,uint16,address,bytes32,uint24,bool,bool,bool,bool,bool)[],uint32,uint8,address),address,(bool,bool,bool,bool)))": {
				"notice": "Deploys a 721 tiers hook for the specified project."
			}
		},
		"version": 1
	},
	"gitCommit": "6b5b4b1b7992ce9da04af35b1fbdf1901d80bda5",
	"sourceName": "src/JB721TiersHookDeployer.sol",
	"chainId": "11155420",
	"linkReferences": {},
	"deployedLinkReferences": {},
	"history": [
		{
			"_format": "sphinx-sol-ct-artifact-1",
			"merkleRoot": "0x8b301a65089f933bbe7065207de564f31cf7fa4026a0dad20293e6755f8e2beb",
			"contractName": "JB721TiersHookDeployer",
			"address": "0xcDFA45A183fa6841eD1Ef8550FCa0a8aAb42eC34",
			"abi": [
				{
					"type": "constructor",
					"inputs": [
						{
							"name": "hook",
							"type": "address",
							"internalType": "contract JB721TiersHook"
						},
						{
							"name": "store",
							"type": "address",
							"internalType": "contract IJB721TiersHookStore"
						},
						{
							"name": "addressRegistry",
							"type": "address",
							"internalType": "contract IJBAddressRegistry"
						}
					],
					"stateMutability": "nonpayable"
				},
				{
					"type": "function",
					"name": "ADDRESS_REGISTRY",
					"inputs": [],
					"outputs": [
						{
							"name": "",
							"type": "address",
							"internalType": "contract IJBAddressRegistry"
						}
					],
					"stateMutability": "view"
				},
				{
					"type": "function",
					"name": "HOOK",
					"inputs": [],
					"outputs": [
						{
							"name": "",
							"type": "address",
							"internalType": "contract JB721TiersHook"
						}
					],
					"stateMutability": "view"
				},
				{
					"type": "function",
					"name": "STORE",
					"inputs": [],
					"outputs": [
						{
							"name": "",
							"type": "address",
							"internalType": "contract IJB721TiersHookStore"
						}
					],
					"stateMutability": "view"
				},
				{
					"type": "function",
					"name": "deployHookFor",
					"inputs": [
						{
							"name": "projectId",
							"type": "uint256",
							"internalType": "uint256"
						},
						{
							"name": "deployTiersHookConfig",
							"type": "tuple",
							"internalType": "struct JBDeploy721TiersHookConfig",
							"components": [
								{
									"name": "name",
									"type": "string",
									"internalType": "string"
								},
								{
									"name": "symbol",
									"type": "string",
									"internalType": "string"
								},
								{
									"name": "rulesets",
									"type": "address",
									"internalType": "contract IJBRulesets"
								},
								{
									"name": "baseUri",
									"type": "string",
									"internalType": "string"
								},
								{
									"name": "tokenUriResolver",
									"type": "address",
									"internalType": "contract IJB721TokenUriResolver"
								},
								{
									"name": "contractUri",
									"type": "string",
									"internalType": "string"
								},
								{
									"name": "tiersConfig",
									"type": "tuple",
									"internalType": "struct JB721InitTiersConfig",
									"components": [
										{
											"name": "tiers",
											"type": "tuple[]",
											"internalType": "struct JB721TierConfig[]",
											"components": [
												{
													"name": "price",
													"type": "uint104",
													"internalType": "uint104"
												},
												{
													"name": "initialSupply",
													"type": "uint32",
													"internalType": "uint32"
												},
												{
													"name": "votingUnits",
													"type": "uint32",
													"internalType": "uint32"
												},
												{
													"name": "reserveFrequency",
													"type": "uint16",
													"internalType": "uint16"
												},
												{
													"name": "reserveBeneficiary",
													"type": "address",
													"internalType": "address"
												},
												{
													"name": "encodedIPFSUri",
													"type": "bytes32",
													"internalType": "bytes32"
												},
												{
													"name": "category",
													"type": "uint24",
													"internalType": "uint24"
												},
												{
													"name": "allowOwnerMint",
													"type": "bool",
													"internalType": "bool"
												},
												{
													"name": "useReserveBeneficiaryAsDefault",
													"type": "bool",
													"internalType": "bool"
												},
												{
													"name": "transfersPausable",
													"type": "bool",
													"internalType": "bool"
												},
												{
													"name": "useVotingUnits",
													"type": "bool",
													"internalType": "bool"
												},
												{
													"name": "cannotBeRemoved",
													"type": "bool",
													"internalType": "bool"
												}
											]
										},
										{
											"name": "currency",
											"type": "uint32",
											"internalType": "uint32"
										},
										{
											"name": "decimals",
											"type": "uint8",
											"internalType": "uint8"
										},
										{
											"name": "prices",
											"type": "address",
											"internalType": "contract IJBPrices"
										}
									]
								},
								{
									"name": "reserveBeneficiary",
									"type": "address",
									"internalType": "address"
								},
								{
									"name": "flags",
									"type": "tuple",
									"internalType": "struct JB721TiersHookFlags",
									"components": [
										{
											"name": "noNewTiersWithReserves",
											"type": "bool",
											"internalType": "bool"
										},
										{
											"name": "noNewTiersWithVotes",
											"type": "bool",
											"internalType": "bool"
										},
										{
											"name": "noNewTiersWithOwnerMinting",
											"type": "bool",
											"internalType": "bool"
										},
										{
											"name": "preventOverspending",
											"type": "bool",
											"internalType": "bool"
										}
									]
								}
							]
						}
					],
					"outputs": [
						{
							"name": "newHook",
							"type": "address",
							"internalType": "contract IJB721TiersHook"
						}
					],
					"stateMutability": "nonpayable"
				},
				{
					"type": "event",
					"name": "HookDeployed",
					"inputs": [
						{
							"name": "projectId",
							"type": "uint256",
							"indexed": true,
							"internalType": "uint256"
						},
						{
							"name": "newHook",
							"type": "address",
							"indexed": false,
							"internalType": "contract IJB721TiersHook"
						}
					],
					"anonymous": false
				},
				{
					"type": "error",
					"name": "ERC1167FailedCreateClone",
					"inputs": []
				}
			],
			"solcInputHash": "50e43c9821602488f9eafcf5de2f252e",
			"receipt": {
				"blockHash": "0xda71e1e6ceb9eac76f813d0c519aea4dc027cf3327061b0338ef9df0243703f8",
				"blockNumber": 9198707,
				"contractAddress": null,
				"cumulativeGasUsed": "12586052",
				"from": "0xC034550B542b83BA1De312b21d1C94a9a52B1595",
				"gasPrice": "1000252",
				"gasUsed": "12255616",
				"hash": "0xc6f7262f296927794a8eedfc09954fa1dd54c564bb91410eeaca7e1ecf640b26",
				"index": 3,
				"logs": [
					{
						"address": "0xB5E96127D417b1B3ef8438496a38A143167209c7",
						"blockHash": "0xda71e1e6ceb9eac76f813d0c519aea4dc027cf3327061b0338ef9df0243703f8",
						"blockNumber": 9198707,
						"data": "0x0000000000000000000000000000000000000000000000000000000000000000",
						"index": 9,
						"topics": [
							"0x572f161235911da04685a68c06adf558fc7e4a36909dca394650e0adc19cc93d",
							"0x000000000000000000000000c034550b542b83ba1de312b21d1c94a9a52b1595",
							"0x000000000000000000000000582b73e9f9ec9fa3ff32b83cfd7e2810a63bbcdb",
							"0xe513251abe1305cb5c99f0eab0b02915b13940995f9b3fbf4748a8be87b79b0c"
						],
						"transactionHash": "0xc6f7262f296927794a8eedfc09954fa1dd54c564bb91410eeaca7e1ecf640b26",
						"transactionIndex": 3
					},
					{
						"address": "0x89BeB14760384C532b587eE00bB42EE307f17e47",
						"blockHash": "0xda71e1e6ceb9eac76f813d0c519aea4dc027cf3327061b0338ef9df0243703f8",
						"blockNumber": 9198707,
						"data": "0x",
						"index": 10,
						"topics": [
							"0x6895c13664aa4f67288b25d7a21d7aaa34916e355fb9b6fae0a139a9085becb8",
							"0x000000000000000000000000582b73e9f9ec9fa3ff32b83cfd7e2810a63bbcdb"
						],
						"transactionHash": "0xc6f7262f296927794a8eedfc09954fa1dd54c564bb91410eeaca7e1ecf640b26",
						"transactionIndex": 3
					},
					{
						"address": "0x582b73e9F9EC9fa3fF32b83CFD7E2810a63BBCdB",
						"blockHash": "0xda71e1e6ceb9eac76f813d0c519aea4dc027cf3327061b0338ef9df0243703f8",
						"blockNumber": 9198707,
						"data": "0x0000000000000000000000000000000000000000000000000000000000000001",
						"index": 11,
						"topics": [
							"0xa65fb05c5808f5f389d72edeaf719ce38f4cc55c1f69ca3cbfb31c21501caa07",
							"0x8b301a65089f933bbe7065207de564f31cf7fa4026a0dad20293e6755f8e2beb"
						],
						"transactionHash": "0xc6f7262f296927794a8eedfc09954fa1dd54c564bb91410eeaca7e1ecf640b26",
						"transactionIndex": 3
					},
					{
						"address": "0x323Dd5A5ed60468401528f220CB8ADbB9F855920",
						"blockHash": "0xda71e1e6ceb9eac76f813d0c519aea4dc027cf3327061b0338ef9df0243703f8",
						"blockNumber": 9198707,
						"data": "0x",
						"index": 12,
						"topics": [
							"0x8be0079c531659141344cd1fd0a4f28419497f9722a3daafe3b4186f6b6457e0",
							"0x0000000000000000000000000000000000000000000000000000000000000000",
							"0x0000000000000000000000004e59b44847b379578588920ca78fbf26c0b4956c"
						],
						"transactionHash": "0xc6f7262f296927794a8eedfc09954fa1dd54c564bb91410eeaca7e1ecf640b26",
						"transactionIndex": 3
					},
					{
						"address": "0x89BeB14760384C532b587eE00bB42EE307f17e47",
						"blockHash": "0xda71e1e6ceb9eac76f813d0c519aea4dc027cf3327061b0338ef9df0243703f8",
						"blockNumber": 9198707,
						"data": "0x",
						"index": 13,
						"topics": [
							"0x6895c13664aa4f67288b25d7a21d7aaa34916e355fb9b6fae0a139a9085becb8",
							"0x000000000000000000000000582b73e9f9ec9fa3ff32b83cfd7e2810a63bbcdb"
						],
						"transactionHash": "0xc6f7262f296927794a8eedfc09954fa1dd54c564bb91410eeaca7e1ecf640b26",
						"transactionIndex": 3
					},
					{
						"address": "0x582b73e9F9EC9fa3fF32b83CFD7E2810a63BBCdB",
						"blockHash": "0xda71e1e6ceb9eac76f813d0c519aea4dc027cf3327061b0338ef9df0243703f8",
						"blockNumber": 9198707,
						"data": "0x0000000000000000000000000000000000000000000000000000000000000002",
						"index": 14,
						"topics": [
							"0xa65fb05c5808f5f389d72edeaf719ce38f4cc55c1f69ca3cbfb31c21501caa07",
							"0x8b301a65089f933bbe7065207de564f31cf7fa4026a0dad20293e6755f8e2beb"
						],
						"transactionHash": "0xc6f7262f296927794a8eedfc09954fa1dd54c564bb91410eeaca7e1ecf640b26",
						"transactionIndex": 3
					},
					{
						"address": "0x89BeB14760384C532b587eE00bB42EE307f17e47",
						"blockHash": "0xda71e1e6ceb9eac76f813d0c519aea4dc027cf3327061b0338ef9df0243703f8",
						"blockNumber": 9198707,
						"data": "0x",
						"index": 15,
						"topics": [
							"0x6895c13664aa4f67288b25d7a21d7aaa34916e355fb9b6fae0a139a9085becb8",
							"0x000000000000000000000000582b73e9f9ec9fa3ff32b83cfd7e2810a63bbcdb"
						],
						"transactionHash": "0xc6f7262f296927794a8eedfc09954fa1dd54c564bb91410eeaca7e1ecf640b26",
						"transactionIndex": 3
					},
					{
						"address": "0x582b73e9F9EC9fa3fF32b83CFD7E2810a63BBCdB",
						"blockHash": "0xda71e1e6ceb9eac76f813d0c519aea4dc027cf3327061b0338ef9df0243703f8",
						"blockNumber": 9198707,
						"data": "0x0000000000000000000000000000000000000000000000000000000000000003",
						"index": 16,
						"topics": [
							"0xa65fb05c5808f5f389d72edeaf719ce38f4cc55c1f69ca3cbfb31c21501caa07",
							"0x8b301a65089f933bbe7065207de564f31cf7fa4026a0dad20293e6755f8e2beb"
						],
						"transactionHash": "0xc6f7262f296927794a8eedfc09954fa1dd54c564bb91410eeaca7e1ecf640b26",
						"transactionIndex": 3
					},
					{
						"address": "0x89BeB14760384C532b587eE00bB42EE307f17e47",
						"blockHash": "0xda71e1e6ceb9eac76f813d0c519aea4dc027cf3327061b0338ef9df0243703f8",
						"blockNumber": 9198707,
						"data": "0x",
						"index": 17,
						"topics": [
							"0x6895c13664aa4f67288b25d7a21d7aaa34916e355fb9b6fae0a139a9085becb8",
							"0x000000000000000000000000582b73e9f9ec9fa3ff32b83cfd7e2810a63bbcdb"
						],
						"transactionHash": "0xc6f7262f296927794a8eedfc09954fa1dd54c564bb91410eeaca7e1ecf640b26",
						"transactionIndex": 3
					},
					{
						"address": "0x582b73e9F9EC9fa3fF32b83CFD7E2810a63BBCdB",
						"blockHash": "0xda71e1e6ceb9eac76f813d0c519aea4dc027cf3327061b0338ef9df0243703f8",
						"blockNumber": 9198707,
						"data": "0x0000000000000000000000000000000000000000000000000000000000000004",
						"index": 18,
						"topics": [
							"0xa65fb05c5808f5f389d72edeaf719ce38f4cc55c1f69ca3cbfb31c21501caa07",
							"0x8b301a65089f933bbe7065207de564f31cf7fa4026a0dad20293e6755f8e2beb"
						],
						"transactionHash": "0xc6f7262f296927794a8eedfc09954fa1dd54c564bb91410eeaca7e1ecf640b26",
						"transactionIndex": 3
					},
					{
						"address": "0x89BeB14760384C532b587eE00bB42EE307f17e47",
						"blockHash": "0xda71e1e6ceb9eac76f813d0c519aea4dc027cf3327061b0338ef9df0243703f8",
						"blockNumber": 9198707,
						"data": "0x",
						"index": 19,
						"topics": [
							"0x6895c13664aa4f67288b25d7a21d7aaa34916e355fb9b6fae0a139a9085becb8",
							"0x000000000000000000000000582b73e9f9ec9fa3ff32b83cfd7e2810a63bbcdb"
						],
						"transactionHash": "0xc6f7262f296927794a8eedfc09954fa1dd54c564bb91410eeaca7e1ecf640b26",
						"transactionIndex": 3
					},
					{
						"address": "0x582b73e9F9EC9fa3fF32b83CFD7E2810a63BBCdB",
						"blockHash": "0xda71e1e6ceb9eac76f813d0c519aea4dc027cf3327061b0338ef9df0243703f8",
						"blockNumber": 9198707,
						"data": "0x0000000000000000000000000000000000000000000000000000000000000005",
						"index": 20,
						"topics": [
							"0xa65fb05c5808f5f389d72edeaf719ce38f4cc55c1f69ca3cbfb31c21501caa07",
							"0x8b301a65089f933bbe7065207de564f31cf7fa4026a0dad20293e6755f8e2beb"
						],
						"transactionHash": "0xc6f7262f296927794a8eedfc09954fa1dd54c564bb91410eeaca7e1ecf640b26",
						"transactionIndex": 3
					},
					{
						"address": "0x582b73e9F9EC9fa3fF32b83CFD7E2810a63BBCdB",
						"blockHash": "0xda71e1e6ceb9eac76f813d0c519aea4dc027cf3327061b0338ef9df0243703f8",
						"blockNumber": 9198707,
						"data": "0x",
						"index": 21,
						"topics": [
							"0x4383d976757d67ca920616be0b6430a681ea9d3dcce8d6d61d4603ca4a9bff63",
							"0x8b301a65089f933bbe7065207de564f31cf7fa4026a0dad20293e6755f8e2beb"
						],
						"transactionHash": "0xc6f7262f296927794a8eedfc09954fa1dd54c564bb91410eeaca7e1ecf640b26",
						"transactionIndex": 3
					}
				],
				"logsBloom": "0x00100000080010000040000000080000000080000008000000800000404000000000000000000000000000000040000100000000000000000000001020000000000000000000200000000000000000000001000000000000000000000000000000000000020000004000000000080800000000000000000008000000000000400000000000000000000100008000000000000000001400400000000000000000004000800011000000000000000000020200000008020000000000000004000010000000000000000000000008000000000000000000000000000000000020000000000000000008000000009000000280000000000000000000000008000000",
				"status": 1,
				"to": "0xB5E96127D417b1B3ef8438496a38A143167209c7"
			},
			"metadata": "{\"compiler\":{\"version\":\"0.8.23+commit.f704f362\"},\"language\":\"Solidity\",\"output\":{\"abi\":[{\"inputs\":[{\"internalType\":\"contract JB721TiersHook\",\"name\":\"hook\",\"type\":\"address\"},{\"internalType\":\"contract IJB721TiersHookStore\",\"name\":\"store\",\"type\":\"address\"},{\"internalType\":\"contract IJBAddressRegistry\",\"name\":\"addressRegistry\",\"type\":\"address\"}],\"stateMutability\":\"nonpayable\",\"type\":\"constructor\"},{\"inputs\":[],\"type\":\"error\",\"name\":\"ERC1167FailedCreateClone\"},{\"inputs\":[{\"internalType\":\"uint256\",\"name\":\"projectId\",\"type\":\"uint256\",\"indexed\":true},{\"internalType\":\"contract IJB721TiersHook\",\"name\":\"newHook\",\"type\":\"address\",\"indexed\":false}],\"type\":\"event\",\"name\":\"HookDeployed\",\"anonymous\":false},{\"inputs\":[],\"stateMutability\":\"view\",\"type\":\"function\",\"name\":\"ADDRESS_REGISTRY\",\"outputs\":[{\"internalType\":\"contract IJBAddressRegistry\",\"name\":\"\",\"type\":\"address\"}]},{\"inputs\":[],\"stateMutability\":\"view\",\"type\":\"function\",\"name\":\"HOOK\",\"outputs\":[{\"internalType\":\"contract JB721TiersHook\",\"name\":\"\",\"type\":\"address\"}]},{\"inputs\":[],\"stateMutability\":\"view\",\"type\":\"function\",\"name\":\"STORE\",\"outputs\":[{\"internalType\":\"contract IJB721TiersHookStore\",\"name\":\"\",\"type\":\"address\"}]},{\"inputs\":[{\"internalType\":\"uint256\",\"name\":\"projectId\",\"type\":\"uint256\"},{\"internalType\":\"struct JBDeploy721TiersHookConfig\",\"name\":\"deployTiersHookConfig\",\"type\":\"tuple\",\"components\":[{\"internalType\":\"string\",\"name\":\"name\",\"type\":\"string\"},{\"internalType\":\"string\",\"name\":\"symbol\",\"type\":\"string\"},{\"internalType\":\"contract IJBRulesets\",\"name\":\"rulesets\",\"type\":\"address\"},{\"internalType\":\"string\",\"name\":\"baseUri\",\"type\":\"string\"},{\"internalType\":\"contract IJB721TokenUriResolver\",\"name\":\"tokenUriResolver\",\"type\":\"address\"},{\"internalType\":\"string\",\"name\":\"contractUri\",\"type\":\"string\"},{\"internalType\":\"struct JB721InitTiersConfig\",\"name\":\"tiersConfig\",\"type\":\"tuple\",\"components\":[{\"internalType\":\"struct JB721TierConfig[]\",\"name\":\"tiers\",\"type\":\"tuple[]\",\"components\":[{\"internalType\":\"uint104\",\"name\":\"price\",\"type\":\"uint104\"},{\"internalType\":\"uint32\",\"name\":\"initialSupply\",\"type\":\"uint32\"},{\"internalType\":\"uint32\",\"name\":\"votingUnits\",\"type\":\"uint32\"},{\"internalType\":\"uint16\",\"name\":\"reserveFrequency\",\"type\":\"uint16\"},{\"internalType\":\"address\",\"name\":\"reserveBeneficiary\",\"type\":\"address\"},{\"internalType\":\"bytes32\",\"name\":\"encodedIPFSUri\",\"type\":\"bytes32\"},{\"internalType\":\"uint24\",\"name\":\"category\",\"type\":\"uint24\"},{\"internalType\":\"bool\",\"name\":\"allowOwnerMint\",\"type\":\"bool\"},{\"internalType\":\"bool\",\"name\":\"useReserveBeneficiaryAsDefault\",\"type\":\"bool\"},{\"internalType\":\"bool\",\"name\":\"transfersPausable\",\"type\":\"bool\"},{\"internalType\":\"bool\",\"name\":\"useVotingUnits\",\"type\":\"bool\"},{\"internalType\":\"bool\",\"name\":\"cannotBeRemoved\",\"type\":\"bool\"}]},{\"internalType\":\"uint32\",\"name\":\"currency\",\"type\":\"uint32\"},{\"internalType\":\"uint8\",\"name\":\"decimals\",\"type\":\"uint8\"},{\"internalType\":\"contract IJBPrices\",\"name\":\"prices\",\"type\":\"address\"}]},{\"internalType\":\"address\",\"name\":\"reserveBeneficiary\",\"type\":\"address\"},{\"internalType\":\"struct JB721TiersHookFlags\",\"name\":\"flags\",\"type\":\"tuple\",\"components\":[{\"internalType\":\"bool\",\"name\":\"noNewTiersWithReserves\",\"type\":\"bool\"},{\"internalType\":\"bool\",\"name\":\"noNewTiersWithVotes\",\"type\":\"bool\"},{\"internalType\":\"bool\",\"name\":\"noNewTiersWithOwnerMinting\",\"type\":\"bool\"},{\"internalType\":\"bool\",\"name\":\"preventOverspending\",\"type\":\"bool\"}]}]}],\"stateMutability\":\"nonpayable\",\"type\":\"function\",\"name\":\"deployHookFor\",\"outputs\":[{\"internalType\":\"contract IJB721TiersHook\",\"name\":\"newHook\",\"type\":\"address\"}]}],\"devdoc\":{\"kind\":\"dev\",\"methods\":{\"constructor\":{\"params\":{\"addressRegistry\":\"A registry which stores references to contracts and their deployers.\",\"hook\":\"Reference copy of a hook.\"}},\"deployHookFor(uint256,(string,string,address,string,address,string,((uint104,uint32,uint32,uint16,address,bytes32,uint24,bool,bool,bool,bool,bool)[],uint32,uint8,address),address,(bool,bool,bool,bool)))\":{\"params\":{\"deployTiersHookConfig\":\"The config to deploy the hook with, which determines its behavior.\",\"projectId\":\"The ID of the project to deploy the hook for.\"},\"returns\":{\"newHook\":\"The address of the newly deployed hook.\"}}},\"version\":1},\"userdoc\":{\"kind\":\"user\",\"methods\":{\"ADDRESS_REGISTRY()\":{\"notice\":\"A registry which stores references to contracts and their deployers.\"},\"HOOK()\":{\"notice\":\"A 721 tiers hook.\"},\"STORE()\":{\"notice\":\"The contract that stores and manages data for this contract's NFTs.\"},\"deployHookFor(uint256,(string,string,address,string,address,string,((uint104,uint32,uint32,uint16,address,bytes32,uint24,bool,bool,bool,bool,bool)[],uint32,uint8,address),address,(bool,bool,bool,bool)))\":{\"notice\":\"Deploys a 721 tiers hook for the specified project.\"}},\"version\":1}},\"settings\":{\"remappings\":[\"@bananapus/=node_modules/@bananapus/\",\"@chainlink/=node_modules/@chainlink/\",\"@eth-optimism/=node_modules/@eth-optimism/\",\"@gnosis.pm/=node_modules/@gnosis.pm/\",\"@openzeppelin/=node_modules/@openzeppelin/\",\"@prb/=node_modules/@prb/\",\"@sphinx-labs/contracts/=node_modules/@sphinx-labs/contracts/contracts/foundry/\",\"@uniswap/=node_modules/@uniswap/\",\"ds-test/=lib/forge-std/lib/ds-test/src/\",\"forge-std/=lib/forge-std/src/\",\"hardhat/=node_modules/hardhat/\",\"solmate/=node_modules/solmate/\",\"sphinx-forge-std/=node_modules/sphinx-forge-std/\",\"sphinx-solmate/=node_modules/sphinx-solmate/\",\"sphinx/=lib/sphinx/packages/contracts/contracts/forge-std/src/\"],\"optimizer\":{\"enabled\":true,\"runs\":1000},\"metadata\":{\"bytecodeHash\":\"ipfs\"},\"compilationTarget\":{\"src/JB721TiersHookDeployer.sol\":\"JB721TiersHookDeployer\"},\"evmVersion\":\"paris\",\"libraries\":{}},\"sources\":{\"node_modules/@bananapus/address-registry/src/interfaces/IJBAddressRegistry.sol\":{\"keccak256\":\"0x33ab082cbb870d8ff950f56db686911b39d090432bc8c09a6b3434aedcb58936\",\"urls\":[\"bzz-raw://cd98fcdc58cf9af46571656b44ff0dc5d94c9a1c6e5c8eb07b1153bfd1bc4206\",\"dweb:/ipfs/Qmcm36zeucynBTTj7q3BVLmZF9CG3X7cGKDPdo9JchVYa9\"],\"license\":\"MIT\"},\"node_modules/@bananapus/core/src/enums/JBApprovalStatus.sol\":{\"keccak256\":\"0x61c69b6bac7d24b566d87cda23a77e4ca9cdb87200b106aba8534cb9a0973e33\",\"urls\":[\"bzz-raw://6a9ca7249de76f77a8252eefe6bd1b63d47952f25a2acfa2c8db967cdff4470c\",\"dweb:/ipfs/QmaxSxptRQNj8bNy96EreENmrnRWdKmhyihBcxyWzBX5BN\"],\"license\":\"MIT\"},\"node_modules/@bananapus/core/src/interfaces/IJBControlled.sol\":{\"keccak256\":\"0x79fb8de7b3f809f1c3c7189f578b7331ec4dfe3350151d5b50240ecb3a2a907b\",\"urls\":[\"bzz-raw://45c82240dd4f0e9aec00d0d86f6b44bdda231db098ebdac17e922771b3e6f342\",\"dweb:/ipfs/QmPUvT8HZeVenrZDpP14HsZofaXPJjih8UAd35rTg3tU7E\"],\"license\":\"MIT\"},\"node_modules/@bananapus/core/src/interfaces/IJBDirectory.sol\":{\"keccak256\":\"0xd15957cc32974cde4f9f194b92574df2ad8a7aeec049d947136ce3381f9145f6\",\"urls\":[\"bzz-raw://7543e5cbde75ff777b16067016ff9ac5e995752842f03662137eb4ef3fc3c868\",\"dweb:/ipfs/QmPJZAmqNKRcj1JQ4Kc9hExbMtPPzrRB5hZ787utCfBmXg\"],\"license\":\"MIT\"},\"node_modules/@bananapus/core/src/interfaces/IJBPayHook.sol\":{\"keccak256\":\"0xe24aa2ca52f7a5f24f24ccae101cfc94d0f76705b2d23222f87c7852f8be4267\",\"urls\":[\"bzz-raw://6888140e9a7d4156fd22635654d5d08e21819af8b0356b5415f37b75083b3eb9\",\"dweb:/ipfs/QmbuwBNhar7rEbRhTJPiyo5PVsfaM5nqLow9NAkHhyvjV5\"],\"license\":\"MIT\"},\"node_modules/@bananapus/core/src/interfaces/IJBPermissioned.sol\":{\"keccak256\":\"0x5b038d4dee116584e88b230920e56d48e135053e3f7e5642eaea14a775c1dad7\",\"urls\":[\"bzz-raw://19e43102f349fd4a1da1c0943ffb8f2950007fe4bb4bb7e8f74fc142575d091b\",\"dweb:/ipfs/QmXHAt4KzDTdDZgDDefEXH2WKi7NcfkJb9R7nxW5uDqsNp\"],\"license\":\"MIT\"},\"node_modules/@bananapus/core/src/interfaces/IJBPermissions.sol\":{\"keccak256\":\"0x18870e500edf0fbadc353e273a5574701fb80466376b908c65e7cc3f11044d4d\",\"urls\":[\"bzz-raw://352a47c45853aec80e7acf0d286ade3106eb4cb456776b28a3c2f3f1091bed90\",\"dweb:/ipfs/QmQeYd3YbudYZy2hfbfht9kwhxhw4tuuLKMEYy9UY6dcSy\"],\"license\":\"MIT\"},\"node_modules/@bananapus/core/src/interfaces/IJBPriceFeed.sol\":{\"keccak256\":\"0x4bd84c0f1a5d4729ed709bcddd43f4c50ec4a165ece79780af8dce482ed07d4a\",\"urls\":[\"bzz-raw://62bac4bfb6982fb002f620c77e5c445e62d50241a5aa64a07e51d929f5a42180\",\"dweb:/ipfs/QmWgJUDreVY2BuMX38a1iUUR5kNbMwGnKG3VvurB7oZtuM\"],\"license\":\"MIT\"},\"node_modules/@bananapus/core/src/interfaces/IJBPrices.sol\":{\"keccak256\":\"0x99525f31440b955742dce84ba57de9fc1221139b5367c1f834723bef9e13e6e1\",\"urls\":[\"bzz-raw://6fa03f0cd4ad87dd7cbae7bf7f54463450874291773c8f70f2c31ef2cae62bb0\",\"dweb:/ipfs/QmSPajPV5ismteJuB6Spzm9VmhTj2iS3eVrfpJC1Zuzg8n\"],\"license\":\"MIT\"},\"node_modules/@bananapus/core/src/interfaces/IJBProjects.sol\":{\"keccak256\":\"0x85539f72c5871c53a919edc7db78931155464e9e00fccd30079b17e75820ddb9\",\"urls\":[\"bzz-raw://505466dbfbdeec77f948ce065676897a5b4a74b70bb234c1053b893c4849f3a1\",\"dweb:/ipfs/QmYBpZQub3Mv19xsRWqvzgiQSBAp4UNaKcqWQ2wwH62H95\"],\"license\":\"MIT\"},\"node_modules/@bananapus/core/src/interfaces/IJBRedeemHook.sol\":{\"keccak256\":\"0x4ea5b7ed510c9d29aca47ae3f8b41ef075dff4b9909779ec2c0e5b7bc30250c6\",\"urls\":[\"bzz-raw://770b785134ba71e3284dc7e05e44f429e7a8393423ad45cf8fe540408a5b9633\",\"dweb:/ipfs/QmRjXJxZPA1qZos7QjeCxJZ8sCfXfkyDFbzkdqzaqCD9Ds\"],\"license\":\"MIT\"},\"node_modules/@bananapus/core/src/interfaces/IJBRulesetApprovalHook.sol\":{\"keccak256\":\"0x5e9f921a6aa5d9396a12bbc0a878c3f5e8ae0a4ce8a3abe0de12e300718838d7\",\"urls\":[\"bzz-raw://6c9f0610f5bbe07554a1bdc39041be1284c20d81d930bec1eee2d374b86e03f4\",\"dweb:/ipfs/QmPH57wBoPERwDWkBCcj9c5tEUdeeLNe2kv1oFM7cTKVrd\"],\"license\":\"MIT\"},\"node_modules/@bananapus/core/src/interfaces/IJBRulesetDataHook.sol\":{\"keccak256\":\"0x3fea9fcab6f0335e67f0f052cf5d3446e9310808f88b5878d21586be00f89f85\",\"urls\":[\"bzz-raw://5506848f471d308a14523f91202d76d960f8255e227d29d34b0892ef70315cae\",\"dweb:/ipfs/QmakRKFctSZobpem1caU2zXqhiPQnaYVa7Y6NdAPAonHaU\"],\"license\":\"MIT\"},\"node_modules/@bananapus/core/src/interfaces/IJBRulesets.sol\":{\"keccak256\":\"0xda1a9aef337cf9fede3f638ffa58aea2815b87fde0f79628834aa03af9f582d7\",\"urls\":[\"bzz-raw://7941690ba6d94500474978ff0f02ecc56335eae5937759878e25cc1ac30a8ecc\",\"dweb:/ipfs/QmZFc7wof6PzfBTkVyNkjaQrQbjc36CK4uC3Ee2vgihqyK\"],\"license\":\"MIT\"},\"node_modules/@bananapus/core/src/interfaces/IJBTokenUriResolver.sol\":{\"keccak256\":\"0xfa5cb00dcd6085d1ef912d071fe73c63f9478a2cd0f9d8bddaf659b6af2d0967\",\"urls\":[\"bzz-raw://282e4e7c342d65f77cde0e9a08fcaf20ef5cf379c7a48b639842c0ffd0b2afb8\",\"dweb:/ipfs/QmbnN3PEQeZaXdPLT75V1J79kMg7KqSMru37RHrL3z8Yf2\"],\"license\":\"MIT\"},\"node_modules/@bananapus/core/src/interfaces/terminal/IJBTerminal.sol\":{\"keccak256\":\"0x36f23bc27e56fa86d100281a75f5a6ce73f39f32e6a1667ce69f902da1d005ee\",\"urls\":[\"bzz-raw://e8ffa2e264fa12444799cb5706ca577034f3f8be9ff7a2f072981de6a61d706d\",\"dweb:/ipfs/QmR6gQDymvk8JQ77J8VxpFD1Hnxga4w7LLiRvAT3m4LG6T\"],\"license\":\"MIT\"},\"node_modules/@bananapus/core/src/libraries/JBConstants.sol\":{\"keccak256\":\"0x9d3a9a953f859d8ec79a599577f8972de6da7199cc1bfa7fdad017d4d722bcb4\",\"urls\":[\"bzz-raw://f151fcb53a8d2684eff8b9e56ac790bcbcadd8199a4fd4d17c5b224b22936722\",\"dweb:/ipfs/QmdAz1ZtCE8nTiC4AxQNLfJhnY3ndGum2Lbef7seKdvTdR\"],\"license\":\"MIT\"},\"node_modules/@bananapus/core/src/libraries/JBMetadataResolver.sol\":{\"keccak256\":\"0xdbe40563934ac1618c9ba15f92d3efc47383534b5b8889bf5aae092927be9e87\",\"urls\":[\"bzz-raw://630534d226e7b1f86907f48c70b0d5593ad5682936330fe2737082e4383e8a56\",\"dweb:/ipfs/QmfTVQ6M3eVYBJRZH3693Axo7yBoR5mr2YvHHwx6nvJojZ\"],\"license\":\"MIT\"},\"node_modules/@bananapus/core/src/libraries/JBRulesetMetadataResolver.sol\":{\"keccak256\":\"0x83f25c531d9e212379b4326fd93bf658a0f6d0e839bbd67bff7b66b9b55fb670\",\"urls\":[\"bzz-raw://3eb4a41ececec705febac7b799d7224e67f12761ae3975d49dd8bddaac608ecd\",\"dweb:/ipfs/QmNgL5VccDhP5xofEcGWNKk3v4KG23wGF9vc3d4YJ5MLnv\"],\"license\":\"MIT\"},\"node_modules/@bananapus/core/src/structs/JBAccountingContext.sol\":{\"keccak256\":\"0x2907ff54d1e903cc7e0390dd88c3975884702dc2673642aacbe22b66560b56de\",\"urls\":[\"bzz-raw://a66a5381ce877b32f0e0058ceeaf843e9b6b2bc8af666c0c9f4a9d01091da004\",\"dweb:/ipfs/QmQynCetUr37dBkS1YwDS8evxuXGiqanW6THmeUxXtim8w\"],\"license\":\"MIT\"},\"node_modules/@bananapus/core/src/structs/JBAfterPayRecordedContext.sol\":{\"keccak256\":\"0xd26c3a774ff38be79064085970454fe2603a23a638c76270d5b1b3829206c3e8\",\"urls\":[\"bzz-raw://3b55dbe3bf1ef625b7ca04efab3de35406e6041d5b3d82c7265469c500e2b702\",\"dweb:/ipfs/QmUdBDo4Lt3mcsFcsXT2mqq3czFwZjQJFPLM89YA2VtD7k\"],\"license\":\"MIT\"},\"node_modules/@bananapus/core/src/structs/JBAfterRedeemRecordedContext.sol\":{\"keccak256\":\"0x521f5d23a36f0da72362cd84890cc867bd83baa8dc836ba6c5066d51dba2f163\",\"urls\":[\"bzz-raw://6cc461313286dde62d045d6288e87bae5032e035796326f5b1ed6218e58aa9da\",\"dweb:/ipfs/QmQS2AkQwf2ANQieDuaUnpJEdXChoLv4CCbZqHkfywYPSR\"],\"license\":\"MIT\"},\"node_modules/@bananapus/core/src/structs/JBBeforePayRecordedContext.sol\":{\"keccak256\":\"0x5b04e814da83c7e83ff892ab07eaad6abce6f7b85a75f8da9380e9fc3470bc81\",\"urls\":[\"bzz-raw://11c889aab993fce3e3cc2dedc15fc30dd367e7fef9b7b1bfd6a6a9f248781731\",\"dweb:/ipfs/QmVVtydCD1azeWhGLxA1hthxfLyKzMHZ1eVzCz3a3R5dLy\"],\"license\":\"MIT\"},\"node_modules/@bananapus/core/src/structs/JBBeforeRedeemRecordedContext.sol\":{\"keccak256\":\"0x73eadaf6827e82f6ccbe3a1e2b2b7fc6c59cef471f73335041b30ddcc000989d\",\"urls\":[\"bzz-raw://2f3ee84662eed565dbdaed406ef836fffaf55cccd417575578152e5085d0b1f2\",\"dweb:/ipfs/QmaJGFS7hxJsiUdKvbv5BKhSwceDEzKBnt7t5YeNWvYgMK\"],\"license\":\"MIT\"},\"node_modules/@bananapus/core/src/structs/JBPayHookSpecification.sol\":{\"keccak256\":\"0x955f0bfca97300b9e5927dc181753830ee362f83fa9ca32a90daade32aa0cfd5\",\"urls\":[\"bzz-raw://f517af1597c7c40f8d3da53f7a6684a3e162950a16559d6bf6ea3b727bb11546\",\"dweb:/ipfs/QmRWo2ZTYXmVZTzNJDYhsJNsEaHphjpUfx9eNz2cciyz86\"],\"license\":\"MIT\"},\"node_modules/@bananapus/core/src/structs/JBPermissionsData.sol\":{\"keccak256\":\"0x8f0f69a6ebf5f3704e3dfcb3712fb9d3f94ae7c1ab89bf3e37bad42a3e7a0487\",\"urls\":[\"bzz-raw://57b0c5e52843e2217082889ed47b4da3943e0da4590d5768dcebfe3edad4a6b8\",\"dweb:/ipfs/QmRz48vuWLw81kUP836rh1qzqWiJFGbksgRUA9xGEDNKTY\"],\"license\":\"MIT\"},\"node_modules/@bananapus/core/src/structs/JBRedeemHookSpecification.sol\":{\"keccak256\":\"0x673d16ee1a91bf8de3b37e57284e60451b70a9c2d748c9cdc7a151f5624af18f\",\"urls\":[\"bzz-raw://ceeb5e81effa0f076c5630c756dfcf1548d09f822b255a0a6ee01e54de8c8ae2\",\"dweb:/ipfs/QmSMoMNPRhPMnuJNvWa6S59XRfycGz9o2ApNp63bUW6TdX\"],\"license\":\"MIT\"},\"node_modules/@bananapus/core/src/structs/JBRuleset.sol\":{\"keccak256\":\"0x15b2bf3174d84846a91ccbf5a344dfb125b55ed9cf50102db8d6868844225189\",\"urls\":[\"bzz-raw://647416b025dbd941094db89cbc69f755c155bd6c87be3f322394ccc4a8e0442d\",\"dweb:/ipfs/QmTCL9xcHnxQ4t5AmCPoZvXDUPW5xhzhyyXYbkMdyg44au\"],\"license\":\"MIT\"},\"node_modules/@bananapus/core/src/structs/JBRulesetMetadata.sol\":{\"keccak256\":\"0xfea54c9f98416d2aa05309e7ff76967d6968a614850a1e33e48fde793ea8b514\",\"urls\":[\"bzz-raw://bf55386cbab90dbc1296b2b0cbfdc217a4500d67702e4a093a4c78bd127ecd5c\",\"dweb:/ipfs/QmTRq9mZrNSXu7oCZwti4JbBFrbY6A5msRqi9RbtL49NAj\"],\"license\":\"MIT\"},\"node_modules/@bananapus/core/src/structs/JBTokenAmount.sol\":{\"keccak256\":\"0x5cf0626b73a596c1e2da17c89ae039a7c0374310b060d48568d3b6c11fbe6180\",\"urls\":[\"bzz-raw://63348b50be95e2995409394a17caffc563a646f0972650a1230bf864fbd3219b\",\"dweb:/ipfs/QmZXZpS3SbFD5nWaCauf6AqbEhLURv5qsKHpThBvQgDU6u\"],\"license\":\"MIT\"},\"node_modules/@bananapus/ownable/src/JBOwnable.sol\":{\"keccak256\":\"0x236a051b43a1ae4fd1bf88951a6ec3d593915097fc51fa0660231ad9ea58cd6e\",\"urls\":[\"bzz-raw://afa6177a5387d5dd0ab151062d2c59e068ab0cd6a47042cfde7914434aaa9a42\",\"dweb:/ipfs/QmWh263zrJvL9PeCWCJ7RxXqcSfEikYvEmaWCVpPDGSzhN\"],\"license\":\"MIT\"},\"node_modules/@bananapus/ownable/src/JBOwnableOverrides.sol\":{\"keccak256\":\"0x03ce5433d26386f961f967c2bd90b60ff46216486420990bdd2ebd5977269f6a\",\"urls\":[\"bzz-raw://896648c0a51a80aab7f7aae093d59bd6401641663c01554b1613a37377fa0e60\",\"dweb:/ipfs/QmaM9TMmDPmTWTqLSo5EcmJ9rTyCHrDAFQ28cWTp95Wgo2\"],\"license\":\"MIT\"},\"node_modules/@bananapus/ownable/src/interfaces/IJBOwnable.sol\":{\"keccak256\":\"0x2c513558439d763df03e8a68c1aef698618182fd44c285405c35597d52c65ad1\",\"urls\":[\"bzz-raw://11cc25c41fccc20cca29f93dd120e67760188fd2040ef0330a093d37fbfa2f8f\",\"dweb:/ipfs/QmWpxcv41eYmsNYT3ph1nts5pC7sp3EzwJxKDGebMqEbsH\"],\"license\":\"MIT\"},\"node_modules/@bananapus/ownable/src/struct/JBOwner.sol\":{\"keccak256\":\"0x5624ba356f01f722984c1b857a106f413b12e57bae1f762a81c16ee511e3325a\",\"urls\":[\"bzz-raw://3120b5649ac8b55158df138dcac03f6850fc988cc5a24a7cb06e6581265ca284\",\"dweb:/ipfs/QmQBSLxRT9j1MEERUt8dWbSsAjianbHpM2CFwciLK7MwaP\"],\"license\":\"MIT\"},\"node_modules/@bananapus/permission-ids/src/JBPermissionIds.sol\":{\"keccak256\":\"0xcc68735b4c801e953cb7962e069933f369515e7a4a09aea5b2170a268125a898\",\"urls\":[\"bzz-raw://e51f839d96be200efeca40ca4fb1d5b6096303564cdde5cf67aecf58e2d36db3\",\"dweb:/ipfs/QmRnJ5s974eUeyvTuLUpt4TK8t5TjVmz7DyDSAKxgYTnA5\"],\"license\":\"UNLICENSED\"},\"node_modules/@openzeppelin/contracts/interfaces/IERC2981.sol\":{\"keccak256\":\"0x89b84f7b1b2d6c294cd6b9a9f661c1cfb1b9b10ca7bac5b3445850a8ce96dcf1\",\"urls\":[\"bzz-raw://44f961aefa43a50c94d8b68e749235b2cf3bd1de18bf6f2e5e1c0fd9a59e06ea\",\"dweb:/ipfs/QmNzd2bnJidavPtt2hQ1em387T6W37n3kDx8WrneCZozxV\"],\"license\":\"MIT\"},\"node_modules/@openzeppelin/contracts/interfaces/draft-IERC6093.sol\":{\"keccak256\":\"0x60c65f701957fdd6faea1acb0bb45825791d473693ed9ecb34726fdfaa849dd7\",\"urls\":[\"bzz-raw://ea290300e0efc4d901244949dc4d877fd46e6c5e43dc2b26620e8efab3ab803f\",\"dweb:/ipfs/QmcLLJppxKeJWqHxE2CUkcfhuRTgHSn8J4kijcLa5MYhSt\"],\"license\":\"MIT\"},\"node_modules/@openzeppelin/contracts/proxy/Clones.sol\":{\"keccak256\":\"0xd18408af8a91bedb3d56343eeb9b30eb852e6dea93a5e2d5c6db9ca4cb905155\",\"urls\":[\"bzz-raw://061475b7302a732dc598907790f407417551c2b13e89daa57b3698489ef5484b\",\"dweb:/ipfs/QmdX5qmk3VSniSErFuD4aVawQxUi2MuUbP7spPcHddPfcX\"],\"license\":\"MIT\"},\"node_modules/@openzeppelin/contracts/token/ERC721/IERC721.sol\":{\"keccak256\":\"0x5ef46daa3b58ef2702279d514780316efaa952915ee1aa3396f041ee2982b0b4\",\"urls\":[\"bzz-raw://2f8f2a76e23b02fc69e8cd24c3cb47da6c7af3a2d6c3a382f8ac25c6e094ade7\",\"dweb:/ipfs/QmPV4ZS4tPVv4mTCf9ejyZ1ai57EEibDRj7mN2ARDCLV5n\"],\"license\":\"MIT\"},\"node_modules/@openzeppelin/contracts/token/ERC721/IERC721Receiver.sol\":{\"keccak256\":\"0x7f7a26306c79a65fb8b3b6c757cd74660c532cd8a02e165488e30027dd34ca49\",\"urls\":[\"bzz-raw://d01e0b2b837ee2f628545e54d8715b49c7ef2befd08356c2e7f6c50dde8a1c22\",\"dweb:/ipfs/QmWBAn6y2D1xgftci97Z3qR9tQnkvwQpYwFwkTvDMvqU4i\"],\"license\":\"MIT\"},\"node_modules/@openzeppelin/contracts/token/ERC721/extensions/IERC721Metadata.sol\":{\"keccak256\":\"0x37d1aaaa5a2908a09e9dcf56a26ddf762ecf295afb5964695937344fc6802ce1\",\"urls\":[\"bzz-raw://ed0bfc1b92153c5000e50f4021367b931bbe96372ac6facec3c4961b72053d02\",\"dweb:/ipfs/Qmbwp8VDerjS5SV1quwHH1oMXxPQ93fzfLVqJ2RCqbowGE\"],\"license\":\"MIT\"},\"node_modules/@openzeppelin/contracts/utils/Context.sol\":{\"keccak256\":\"0x493033a8d1b176a037b2cc6a04dad01a5c157722049bbecf632ca876224dd4b2\",\"urls\":[\"bzz-raw://6a708e8a5bdb1011c2c381c9a5cfd8a9a956d7d0a9dc1bd8bcdaf52f76ef2f12\",\"dweb:/ipfs/Qmax9WHBnVsZP46ZxEMNRQpLQnrdE4dK8LehML1Py8FowF\"],\"license\":\"MIT\"},\"node_modules/@openzeppelin/contracts/utils/Strings.sol\":{\"keccak256\":\"0x55f102ea785d8399c0e58d1108e2d289506dde18abc6db1b7f68c1f9f9bc5792\",\"urls\":[\"bzz-raw://6e52e0a7765c943ef14e5bcf11e46e6139fa044be564881378349236bf2e3453\",\"dweb:/ipfs/QmZEeeXoFPW47amyP35gfzomF9DixqqTEPwzBakv6cZw6i\"],\"license\":\"MIT\"},\"node_modules/@openzeppelin/contracts/utils/introspection/ERC165.sol\":{\"keccak256\":\"0x9e8778b14317ba9e256c30a76fd6c32b960af621987f56069e1e819c77c6a133\",\"urls\":[\"bzz-raw://1777404f1dcd0fac188e55a288724ec3c67b45288e49cc64723e95e702b49ab8\",\"dweb:/ipfs/QmZFdC626GButBApwDUvvTnUzdinevC3B24d7yyh57XkiA\"],\"license\":\"MIT\"},\"node_modules/@openzeppelin/contracts/utils/introspection/IERC165.sol\":{\"keccak256\":\"0x4296879f55019b23e135000eb36896057e7101fb7fb859c5ef690cf14643757b\",\"urls\":[\"bzz-raw://87b3541437c8c443ccd36795e56a338ed12855eec17f8da624511b8d1a7e14df\",\"dweb:/ipfs/QmeJQCtZrQjtJLr6u7ZHWeH3pBnjtLWzvRrKViAi7UZqxL\"],\"license\":\"MIT\"},\"node_modules/@openzeppelin/contracts/utils/math/Math.sol\":{\"keccak256\":\"0x005ec64c6313f0555d59e278f9a7a5ab2db5bdc72a027f255a37c327af1ec02d\",\"urls\":[\"bzz-raw://4ece9f0b9c8daca08c76b6b5405a6446b6f73b3a15fab7ff56e296cbd4a2c875\",\"dweb:/ipfs/QmQyRpyPRL5SQuAgj6SHmbir3foX65FJjbVTTQrA2EFg6L\"],\"license\":\"MIT\"},\"node_modules/@openzeppelin/contracts/utils/math/SignedMath.sol\":{\"keccak256\":\"0x5f7e4076e175393767754387c962926577f1660dd9b810187b9002407656be72\",\"urls\":[\"bzz-raw://7d533a1c97cd43a57cd9c465f7ee8dd0e39ae93a8fb8ff8e5303a356b081cdcc\",\"dweb:/ipfs/QmVBEei6aTnvYNZp2CHYVNKyZS4q1KkjANfY39WVXZXVoT\"],\"license\":\"MIT\"},\"node_modules/@prb/math/src/Common.sol\":{\"keccak256\":\"0xaa374e2c26cc93e8c22a6953804ee05f811597ef5fa82f76824378b22944778b\",\"urls\":[\"bzz-raw://279c732e161d623cf4d8a9519ca4c42c0c2db99842d0eb2a20c10fde3fa722c9\",\"dweb:/ipfs/QmVViuUXbinQGqtG5M21SgVzKihiCbFUChd4tDhtvwRmxH\"],\"license\":\"MIT\"},\"src/JB721TiersHook.sol\":{\"keccak256\":\"0xcda125ab2de0a0f282c4f7bc28b29b924abe2751b930beb7b4805a4d6c3d34f5\",\"urls\":[\"bzz-raw://9e7781eb9f4ff1e9421ea1c0b8860ef8d28b69a7e96e74601a734eef1ac680b2\",\"dweb:/ipfs/QmQs4qzE3VAJTk6BgvvYcQ9BSzPARbYmABgkrAaNQN9NT7\"],\"license\":\"MIT\"},\"src/JB721TiersHookDeployer.sol\":{\"keccak256\":\"0xae40eaa6a0cb0629ddbf3dd2a153b3f26b403652e8cb20b81d4295838ec75711\",\"urls\":[\"bzz-raw://d02377130a2e932bf8e09532299de50c835173de7ff7e6f69786b0d401ee37f4\",\"dweb:/ipfs/QmRPQ1MNBCHCUSXqEjWYHYTWb2ozu3nSrFKENUJrXsZvbu\"],\"license\":\"MIT\"},\"src/abstract/ERC721.sol\":{\"keccak256\":\"0xc25c7c60c88684adc3f7a49621d27866866a44a3f3796e63c9fcaba75fbb2e84\",\"urls\":[\"bzz-raw://713103b7a05402264493430cfcd7d85f1a241a2eb4756af53a370fa529ea07bf\",\"dweb:/ipfs/QmSXZfxCG1N9XheS1kLCNJZ9k6ZRq4GnAMY7MKFfbKLXmz\"],\"license\":\"MIT\"},\"src/abstract/JB721Hook.sol\":{\"keccak256\":\"0x35136dd0973ef31fdfa1479392a3b29c3fca229ade4d149577d6c91e5be0022a\",\"urls\":[\"bzz-raw://ab906bde51cd3a485b4792984aab95e96bd5261d57d4298e255bc4c76099d12b\",\"dweb:/ipfs/QmXGvz8SV3eDLVSDNEEHn9hLVnrtvfKcGM7wvPj9Pj7mbs\"],\"license\":\"MIT\"},\"src/interfaces/IJB721Hook.sol\":{\"keccak256\":\"0x6cc09b57796ce71a103adb88ee851a9e2f4b5dc42cf7e153371e5c2157c4444d\",\"urls\":[\"bzz-raw://a2d0518c1f6803ab197049839de78debdd97908aa0fc7e44c6742ee209587b46\",\"dweb:/ipfs/QmXzoxr3DNH3NpwvTmRJcwKXFwUZQzCbAeTVh4NZzJedb7\"],\"license\":\"MIT\"},\"src/interfaces/IJB721TiersHook.sol\":{\"keccak256\":\"0xae662e642cb039931f0cac1a73e3c6b6833cf5edb6c5e3d4864f37cb07791684\",\"urls\":[\"bzz-raw://0942d829b0ba82ececd6de9148c6f3e85c0ecf398d23358086434e31e792b68b\",\"dweb:/ipfs/QmPdtTtoawqq2yTHBhqfs72DVHAQ3dbrjDGnQ3NmkHzLer\"],\"license\":\"MIT\"},\"src/interfaces/IJB721TiersHookDeployer.sol\":{\"keccak256\":\"0xc4c6dfd2573fe1f130bc5193da68a622959a11562010fa261ffd3a8893e08a7b\",\"urls\":[\"bzz-raw://0c34f79121f6c777bca3df6c2e87c0caa05146bec45e9ae29f41b0532d16c88e\",\"dweb:/ipfs/QmZJQVZC8uuuSssXtLnhsvisz7V2PCKs2s1Hbzo8hmZ9ZP\"],\"license\":\"MIT\"},\"src/interfaces/IJB721TiersHookStore.sol\":{\"keccak256\":\"0x8550e216c12c9cda865c1b1b0eb3f244aeaa8d465b197d4bd0dd8d4df265682e\",\"urls\":[\"bzz-raw://674a312f1eaffd7c6b21f58f8d4a628104e71220daf48a22237fa3bd035ddf21\",\"dweb:/ipfs/QmSRSW6cSwdpoGjVxDqiwJmJyCxfHWhCxZ2iaqeJcN2Ccy\"],\"license\":\"MIT\"},\"src/interfaces/IJB721TokenUriResolver.sol\":{\"keccak256\":\"0xfa599167098f4459320ec4141a98a17b2dfffbce422baa27d8b4e4530f61ece1\",\"urls\":[\"bzz-raw://8b758b161f4c7b520b2c34b4d91e585e961b8f4ca278eebb91d791f7f2f45140\",\"dweb:/ipfs/QmcD9DF7NJ9QykQpT4KPzm4bs3fkjzukdAUWwdU6Atfw85\"],\"license\":\"MIT\"},\"src/libraries/JB721TiersRulesetMetadataResolver.sol\":{\"keccak256\":\"0xe1e224860fce816c0566c4b22044eb2f5a767a09764d00482b954733bf18e51e\",\"urls\":[\"bzz-raw://043663de2a9c7e822e947e0b68833e77985d493bebcb48f86bf1b67f937417fc\",\"dweb:/ipfs/QmXVXPdpLfmT2a97gUQ5d2XSsHXhgpiTfs7w2ZtoD55uAd\"],\"license\":\"MIT\"},\"src/libraries/JBIpfsDecoder.sol\":{\"keccak256\":\"0xb93ba562ac1fc9d3829be00e61f3a90f51df5661cf0f2c819a7f1d8ba19ec171\",\"urls\":[\"bzz-raw://fc9bc948fac8897d9720ef25b13d63c60b40a18aa1897dd1c657fc278c416b4f\",\"dweb:/ipfs/QmNtiJTALZW5zfyKVy7XG5GkqGgMrfkVvU4Auu4bb9cGQc\"],\"license\":\"MIT\"},\"src/structs/JB721InitTiersConfig.sol\":{\"keccak256\":\"0xfb78486cec94189d0ecf2050dc9cfc11245b426c73a0711a85bff1359d774307\",\"urls\":[\"bzz-raw://a8fa01f6e64dd204dbde07a60851e9a5a74e439e1411139ae16b7cf67d2a2692\",\"dweb:/ipfs/QmZAnHyfpKr3xr7NWHj5sGaCEEtG8RtmHhkRUJJvNauym5\"],\"license\":\"MIT\"},\"src/structs/JB721Tier.sol\":{\"keccak256\":\"0x2e267a8af02f125465cdda9308477346ae4a94b024c3b2c2a6af0c00027944dd\",\"urls\":[\"bzz-raw://367ccea2c8fa815d498d771d4367ef1ded718a76e89644102034bfe4a3636b82\",\"dweb:/ipfs/QmYiFFa6ei9wZBSSVUHfY2Cb35zCDVXvbmLcgLj2BTiC1u\"],\"license\":\"MIT\"},\"src/structs/JB721TierConfig.sol\":{\"keccak256\":\"0x2fa9c5c8cec182b854a656d3b284e9d5306be35ad3dc4da79d65dca12b804af0\",\"urls\":[\"bzz-raw://b443a5f70195a66145ea1dade04454ce9a3ff1209e1aaecf53c8a9909b294d79\",\"dweb:/ipfs/QmUDPFZ4L6XpV3zLQUNVchUvecD4XfddKz2S46BKek5XL1\"],\"license\":\"MIT\"},\"src/structs/JB721TiersHookFlags.sol\":{\"keccak256\":\"0x283d8429f31bd58875c056515aa42abd09c95362bd929e85cfc44a0d92585766\",\"urls\":[\"bzz-raw://9a580b89fe99d9f8e930c58a4d0d63a5ff7c01c79d210af01373d066c9e72ed6\",\"dweb:/ipfs/QmdY1eSGSoTjv4KSdsG4Tm5CzJN6iqk3qTRga5ZWNbejRz\"],\"license\":\"MIT\"},\"src/structs/JB721TiersMintReservesConfig.sol\":{\"keccak256\":\"0xab3b319dc4e736586ae595de194d93dcdfeba365bc7a54cf6c37e697f6074ad9\",\"urls\":[\"bzz-raw://a84ae2cf2e8c3e39e831dbb39a67a8eb43c78a6de6bb78b1be2e1f1e80c69efe\",\"dweb:/ipfs/QmboGXEMqsYTxc4a7oft9rggNU7ShWSa9yB4HFMVmzXCHz\"],\"license\":\"MIT\"},\"src/structs/JB721TiersRulesetMetadata.sol\":{\"keccak256\":\"0x6720a6ada2a882f99afa050e40b6c925439da4339240565a0e706521b3aadc6b\",\"urls\":[\"bzz-raw://ede4a3165276d9d89eeea2dfd56f68d77dbfaedb738b30c8a0faa81c3a153b1b\",\"dweb:/ipfs/QmXa4QCb6K9MXxwNKed17VWeX9crKeMjkQnVk2xMARzh76\"],\"license\":\"MIT\"},\"src/structs/JBDeploy721TiersHookConfig.sol\":{\"keccak256\":\"0x4f0b8bbc19a405a096a16977fa1eedc0c56640ef777add89c050f989a62a6a35\",\"urls\":[\"bzz-raw://bd009c66aa748a2ce04720a6376683ce01ced3c0bd7f9534e145263aa49d95d3\",\"dweb:/ipfs/QmXyJCS1uQevdkw1Gc4UrRs8fZKtW9wPWFY9pxUWHKLo4e\"],\"license\":\"MIT\"}},\"version\":1}",
			"args": [
				"0x323Dd5A5ed60468401528f220CB8ADbB9F855920",
				"0x669e8E2D861D357434d95d4359BeF1fe4026E478",
				"0x2012f03C32098e0a045d3e44df5bAD538e23a5FF"
			],
			"bytecode": "0x60e060405234801561001057600080fd5b50604051610c91380380610c9183398101604081905261002f91610064565b6001600160a01b0392831660805290821660a0521660c0526100b1565b6001600160a01b038116811461006157600080fd5b50565b60008060006060848603121561007957600080fd5b83516100848161004c565b60208501519093506100958161004c565b60408501519092506100a68161004c565b809150509250925092565b60805160a05160c051610ba06100f16000396000818160ac01526102470152600081816085015261015701526000818160d3015260fc0152610ba06000f3fe608060405234801561001057600080fd5b506004361061004c5760003560e01c80632230819f14610051578063507f14651461008057806389a56bbc146100a7578063a54eb242146100ce575b600080fd5b61006461005f366004610795565b6100f5565b6040516001600160a01b03909116815260200160405180910390f35b6100647f000000000000000000000000000000000000000000000000000000000000000081565b6100647f000000000000000000000000000000000000000000000000000000000000000081565b6100647f000000000000000000000000000000000000000000000000000000000000000081565b60006101207f0000000000000000000000000000000000000000000000000000000000000000610342565b9050806001600160a01b031663c07f2f9b84846000015185602001518660400151876060015188608001518960a001518a60c001517f00000000000000000000000000000000000000000000000000000000000000008c61010001516040518b63ffffffff1660e01b81526004016101a19a9998979695949392919061092d565b600060405180830381600087803b1580156101bb57600080fd5b505af11580156101cf573d6000803e3d6000fd5b50506040517ff2fde38b0000000000000000000000000000000000000000000000000000000081523360048201526001600160a01b038416925063f2fde38b9150602401600060405180830381600087803b15801561022d57600080fd5b505af1158015610241573d6000803e3d6000fd5b505050507f00000000000000000000000000000000000000000000000000000000000000006001600160a01b031663b94417ab30600080815461028390610b43565b91829055506040517fffffffff0000000000000000000000000000000000000000000000000000000060e085901b1681526001600160a01b0390921660048301526024820152604401600060405180830381600087803b1580156102e657600080fd5b505af11580156102fa573d6000803e3d6000fd5b50506040516001600160a01b03841681528592507fa42f6bb68e81f4650a7966f109d861f6c3d2a477e608e30807f568bed1cebdb9915060200160405180910390a292915050565b6000763d602d80600a3d3981f3363d3d373d3d3d363d730000008260601b60e81c176000526e5af43d82803e903d91602b57fd5bf38260781b17602052603760096000f090506001600160a01b0381166103c8576040517fc2f868f400000000000000000000000000000000000000000000000000000000815260040160405180910390fd5b919050565b634e487b7160e01b600052604160045260246000fd5b6040516080810167ffffffffffffffff81118282101715610406576104066103cd565b60405290565b604051610180810167ffffffffffffffff81118282101715610406576104066103cd565b604051610120810167ffffffffffffffff81118282101715610406576104066103cd565b604051601f8201601f1916810167ffffffffffffffff8111828210171561047d5761047d6103cd565b604052919050565b600082601f83011261049657600080fd5b813567ffffffffffffffff8111156104b0576104b06103cd565b6104c3601f8201601f1916602001610454565b8181528460208386010111156104d857600080fd5b816020850160208301376000918101602001919091529392505050565b80356001600160a01b03811681146103c857600080fd5b80356cffffffffffffffffffffffffff811681146103c857600080fd5b803563ffffffff811681146103c857600080fd5b803561ffff811681146103c857600080fd5b803562ffffff811681146103c857600080fd5b803580151581146103c857600080fd5b803560ff811681146103c857600080fd5b6000608080838503121561059657600080fd5b61059e6103e3565b9150823567ffffffffffffffff808211156105b857600080fd5b818501915085601f8301126105cc57600080fd5b81356020828211156105e0576105e06103cd565b6105ee818360051b01610454565b828152818101935061018092830285018201928984111561060e57600080fd5b948201945b838610156107015780868b03121561062b5760008081fd5b61063361040c565b61063c8761050c565b8152610649848801610529565b84820152604061065a818901610529565b90820152606061066b88820161053d565b9082015261067a8789016104f5565b8189015260a0878101359082015260c061069581890161054f565b9082015260e06106a6888201610562565b908201526101006106b8888201610562565b908201526101206106ca888201610562565b908201526101406106dc888201610562565b908201526101606106ee888201610562565b9082015285529485019493820193610613565b50865261070f878201610529565b81870152505050505061072460408301610572565b6040820152610735606083016104f5565b606082015292915050565b60006080828403121561075257600080fd5b61075a6103e3565b905061076582610562565b815261077360208301610562565b602082015261078460408301610562565b604082015261073560608301610562565b600080604083850312156107a857600080fd5b82359150602083013567ffffffffffffffff808211156107c757600080fd5b9084019061018082870312156107dc57600080fd5b6107e4610430565b8235828111156107f357600080fd5b6107ff88828601610485565b82525060208301358281111561081457600080fd5b61082088828601610485565b602083015250610832604084016104f5565b604082015260608301358281111561084957600080fd5b61085588828601610485565b606083015250610867608084016104f5565b608082015260a08301358281111561087e57600080fd5b61088a88828601610485565b60a08301525060c0830135828111156108a257600080fd5b6108ae88828601610583565b60c0830152506108c060e084016104f5565b60e082015261010091506108d687838501610740565b828201528093505050509250929050565b6000815180845260005b8181101561090d576020818501810151868301820152016108f1565b506000602082860101526020601f19601f83011685010191505092915050565b60006101a08c8352602081818501526109488285018e6108e7565b9150838203604085015261095c828d6108e7565b915060606001600160a01b03808d16606087015260808685036080880152610984858e6108e7565b945060a0828d1660a089015260c0925087860360c08901526109a6868d6108e7565b955060e088870360e08a0152608087018c516080895281815180845260a08b0191508983019350600092505b80831015610a9e57835180516cffffffffffffffffffffffffff168352808b015163ffffffff8116848d0152506040810151610a16604085018263ffffffff169052565b508981015161ffff16838b0152878101516001600160a01b03168884015286810151878401528881015162ffffff168984015285810151151586840152610100808201511515908401526101208082015115159084015261014080820151151590840152610160908101511515908301529289019260019290920191610180909101906109d2565b508e89015163ffffffff81168b8b0152975060408f01519850610ac660408b018a60ff169052565b60608f01519850610ae260608b018a6001600160a01b03169052565b6001600160a01b038e166101008d01529950610b0398505050505050505050565b825115156101208301526020830151151561014083015260408301511515610160830152606083015115156101808301529b9a5050505050505050505050565b600060018201610b6357634e487b7160e01b600052601160045260246000fd5b506001019056fea2646970667358221220baefa12d0270e14d97d70c221ef2470e6cf7da7d2ed0e411660cddffdb9dcf4864736f6c63430008170033",
			"deployedBytecode": "0x608060405234801561001057600080fd5b506004361061004c5760003560e01c80632230819f14610051578063507f14651461008057806389a56bbc146100a7578063a54eb242146100ce575b600080fd5b61006461005f366004610795565b6100f5565b6040516001600160a01b03909116815260200160405180910390f35b6100647f000000000000000000000000669e8e2d861d357434d95d4359bef1fe4026e47881565b6100647f0000000000000000000000002012f03c32098e0a045d3e44df5bad538e23a5ff81565b6100647f000000000000000000000000323dd5a5ed60468401528f220cb8adbb9f85592081565b60006101207f000000000000000000000000323dd5a5ed60468401528f220cb8adbb9f855920610342565b9050806001600160a01b031663c07f2f9b84846000015185602001518660400151876060015188608001518960a001518a60c001517f000000000000000000000000669e8e2d861d357434d95d4359bef1fe4026e4788c61010001516040518b63ffffffff1660e01b81526004016101a19a9998979695949392919061092d565b600060405180830381600087803b1580156101bb57600080fd5b505af11580156101cf573d6000803e3d6000fd5b50506040517ff2fde38b0000000000000000000000000000000000000000000000000000000081523360048201526001600160a01b038416925063f2fde38b9150602401600060405180830381600087803b15801561022d57600080fd5b505af1158015610241573d6000803e3d6000fd5b505050507f0000000000000000000000002012f03c32098e0a045d3e44df5bad538e23a5ff6001600160a01b031663b94417ab30600080815461028390610b43565b91829055506040517fffffffff0000000000000000000000000000000000000000000000000000000060e085901b1681526001600160a01b0390921660048301526024820152604401600060405180830381600087803b1580156102e657600080fd5b505af11580156102fa573d6000803e3d6000fd5b50506040516001600160a01b03841681528592507fa42f6bb68e81f4650a7966f109d861f6c3d2a477e608e30807f568bed1cebdb9915060200160405180910390a292915050565b6000763d602d80600a3d3981f3363d3d373d3d3d363d730000008260601b60e81c176000526e5af43d82803e903d91602b57fd5bf38260781b17602052603760096000f090506001600160a01b0381166103c8576040517fc2f868f400000000000000000000000000000000000000000000000000000000815260040160405180910390fd5b919050565b634e487b7160e01b600052604160045260246000fd5b6040516080810167ffffffffffffffff81118282101715610406576104066103cd565b60405290565b604051610180810167ffffffffffffffff81118282101715610406576104066103cd565b604051610120810167ffffffffffffffff81118282101715610406576104066103cd565b604051601f8201601f1916810167ffffffffffffffff8111828210171561047d5761047d6103cd565b604052919050565b600082601f83011261049657600080fd5b813567ffffffffffffffff8111156104b0576104b06103cd565b6104c3601f8201601f1916602001610454565b8181528460208386010111156104d857600080fd5b816020850160208301376000918101602001919091529392505050565b80356001600160a01b03811681146103c857600080fd5b80356cffffffffffffffffffffffffff811681146103c857600080fd5b803563ffffffff811681146103c857600080fd5b803561ffff811681146103c857600080fd5b803562ffffff811681146103c857600080fd5b803580151581146103c857600080fd5b803560ff811681146103c857600080fd5b6000608080838503121561059657600080fd5b61059e6103e3565b9150823567ffffffffffffffff808211156105b857600080fd5b818501915085601f8301126105cc57600080fd5b81356020828211156105e0576105e06103cd565b6105ee818360051b01610454565b828152818101935061018092830285018201928984111561060e57600080fd5b948201945b838610156107015780868b03121561062b5760008081fd5b61063361040c565b61063c8761050c565b8152610649848801610529565b84820152604061065a818901610529565b90820152606061066b88820161053d565b9082015261067a8789016104f5565b8189015260a0878101359082015260c061069581890161054f565b9082015260e06106a6888201610562565b908201526101006106b8888201610562565b908201526101206106ca888201610562565b908201526101406106dc888201610562565b908201526101606106ee888201610562565b9082015285529485019493820193610613565b50865261070f878201610529565b81870152505050505061072460408301610572565b6040820152610735606083016104f5565b606082015292915050565b60006080828403121561075257600080fd5b61075a6103e3565b905061076582610562565b815261077360208301610562565b602082015261078460408301610562565b604082015261073560608301610562565b600080604083850312156107a857600080fd5b82359150602083013567ffffffffffffffff808211156107c757600080fd5b9084019061018082870312156107dc57600080fd5b6107e4610430565b8235828111156107f357600080fd5b6107ff88828601610485565b82525060208301358281111561081457600080fd5b61082088828601610485565b602083015250610832604084016104f5565b604082015260608301358281111561084957600080fd5b61085588828601610485565b606083015250610867608084016104f5565b608082015260a08301358281111561087e57600080fd5b61088a88828601610485565b60a08301525060c0830135828111156108a257600080fd5b6108ae88828601610583565b60c0830152506108c060e084016104f5565b60e082015261010091506108d687838501610740565b828201528093505050509250929050565b6000815180845260005b8181101561090d576020818501810151868301820152016108f1565b506000602082860101526020601f19601f83011685010191505092915050565b60006101a08c8352602081818501526109488285018e6108e7565b9150838203604085015261095c828d6108e7565b915060606001600160a01b03808d16606087015260808685036080880152610984858e6108e7565b945060a0828d1660a089015260c0925087860360c08901526109a6868d6108e7565b955060e088870360e08a0152608087018c516080895281815180845260a08b0191508983019350600092505b80831015610a9e57835180516cffffffffffffffffffffffffff168352808b015163ffffffff8116848d0152506040810151610a16604085018263ffffffff169052565b508981015161ffff16838b0152878101516001600160a01b03168884015286810151878401528881015162ffffff168984015285810151151586840152610100808201511515908401526101208082015115159084015261014080820151151590840152610160908101511515908301529289019260019290920191610180909101906109d2565b508e89015163ffffffff81168b8b0152975060408f01519850610ac660408b018a60ff169052565b60608f01519850610ae260608b018a6001600160a01b03169052565b6001600160a01b038e166101008d01529950610b0398505050505050505050565b825115156101208301526020830151151561014083015260408301511515610160830152606083015115156101808301529b9a5050505050505050505050565b600060018201610b6357634e487b7160e01b600052601160045260246000fd5b506001019056fea2646970667358221220baefa12d0270e14d97d70c221ef2470e6cf7da7d2ed0e411660cddffdb9dcf4864736f6c63430008170033",
			"devdoc": {
				"kind": "dev",
				"methods": {
					"constructor": {
						"params": {
							"addressRegistry": "A registry which stores references to contracts and their deployers.",
							"hook": "Reference copy of a hook."
						}
					},
					"deployHookFor(uint256,(string,string,address,string,address,string,((uint104,uint32,uint32,uint16,address,bytes32,uint24,bool,bool,bool,bool,bool)[],uint32,uint8,address),address,(bool,bool,bool,bool)))": {
						"params": {
							"deployTiersHookConfig": "The config to deploy the hook with, which determines its behavior.",
							"projectId": "The ID of the project to deploy the hook for."
						},
						"returns": {
							"newHook": "The address of the newly deployed hook."
						}
					}
				},
				"version": 1
			},
			"userdoc": {
				"kind": "user",
				"methods": {
					"ADDRESS_REGISTRY()": {
						"notice": "A registry which stores references to contracts and their deployers."
					},
					"HOOK()": {
						"notice": "A 721 tiers hook."
					},
					"STORE()": {
						"notice": "The contract that stores and manages data for this contract's NFTs."
					},
					"deployHookFor(uint256,(string,string,address,string,address,string,((uint104,uint32,uint32,uint16,address,bytes32,uint24,bool,bool,bool,bool,bool)[],uint32,uint8,address),address,(bool,bool,bool,bool)))": {
						"notice": "Deploys a 721 tiers hook for the specified project."
					}
				},
				"version": 1
			},
			"gitCommit": "0ffcece295a2a9ff3878fbb9496ab6688eab8049",
			"sourceName": "src/JB721TiersHookDeployer.sol",
			"chainId": "11155420",
			"linkReferences": {},
			"deployedLinkReferences": {}
		},
		{
			"_format": "sphinx-sol-ct-artifact-1",
			"merkleRoot": "0xf29a925ad7595b534a7334af3cff0f2715becdc9b501f846c233331b92b7a47a",
			"contractName": "JB721TiersHookDeployer",
			"address": "0x0f9A3E14f7fB9aC89Ce32D50a2eAdE21ffeb97F3",
			"abi": [
				{
					"type": "constructor",
					"inputs": [
						{
							"name": "hook",
							"type": "address",
							"internalType": "contract JB721TiersHook"
						},
						{
							"name": "store",
							"type": "address",
							"internalType": "contract IJB721TiersHookStore"
						},
						{
							"name": "addressRegistry",
							"type": "address",
							"internalType": "contract IJBAddressRegistry"
						},
						{
							"name": "trustedForwarder",
							"type": "address",
							"internalType": "address"
						}
					],
					"stateMutability": "nonpayable"
				},
				{
					"type": "function",
					"name": "ADDRESS_REGISTRY",
					"inputs": [],
					"outputs": [
						{
							"name": "",
							"type": "address",
							"internalType": "contract IJBAddressRegistry"
						}
					],
					"stateMutability": "view"
				},
				{
					"type": "function",
					"name": "HOOK",
					"inputs": [],
					"outputs": [
						{
							"name": "",
							"type": "address",
							"internalType": "contract JB721TiersHook"
						}
					],
					"stateMutability": "view"
				},
				{
					"type": "function",
					"name": "STORE",
					"inputs": [],
					"outputs": [
						{
							"name": "",
							"type": "address",
							"internalType": "contract IJB721TiersHookStore"
						}
					],
					"stateMutability": "view"
				},
				{
					"type": "function",
					"name": "deployHookFor",
					"inputs": [
						{
							"name": "projectId",
							"type": "uint256",
							"internalType": "uint256"
						},
						{
							"name": "deployTiersHookConfig",
							"type": "tuple",
							"internalType": "struct JBDeploy721TiersHookConfig",
							"components": [
								{
									"name": "name",
									"type": "string",
									"internalType": "string"
								},
								{
									"name": "symbol",
									"type": "string",
									"internalType": "string"
								},
								{
									"name": "rulesets",
									"type": "address",
									"internalType": "contract IJBRulesets"
								},
								{
									"name": "baseUri",
									"type": "string",
									"internalType": "string"
								},
								{
									"name": "tokenUriResolver",
									"type": "address",
									"internalType": "contract IJB721TokenUriResolver"
								},
								{
									"name": "contractUri",
									"type": "string",
									"internalType": "string"
								},
								{
									"name": "tiersConfig",
									"type": "tuple",
									"internalType": "struct JB721InitTiersConfig",
									"components": [
										{
											"name": "tiers",
											"type": "tuple[]",
											"internalType": "struct JB721TierConfig[]",
											"components": [
												{
													"name": "price",
													"type": "uint104",
													"internalType": "uint104"
												},
												{
													"name": "initialSupply",
													"type": "uint32",
													"internalType": "uint32"
												},
												{
													"name": "votingUnits",
													"type": "uint32",
													"internalType": "uint32"
												},
												{
													"name": "reserveFrequency",
													"type": "uint16",
													"internalType": "uint16"
												},
												{
													"name": "reserveBeneficiary",
													"type": "address",
													"internalType": "address"
												},
												{
													"name": "encodedIPFSUri",
													"type": "bytes32",
													"internalType": "bytes32"
												},
												{
													"name": "category",
													"type": "uint24",
													"internalType": "uint24"
												},
												{
													"name": "allowOwnerMint",
													"type": "bool",
													"internalType": "bool"
												},
												{
													"name": "useReserveBeneficiaryAsDefault",
													"type": "bool",
													"internalType": "bool"
												},
												{
													"name": "transfersPausable",
													"type": "bool",
													"internalType": "bool"
												},
												{
													"name": "useVotingUnits",
													"type": "bool",
													"internalType": "bool"
												},
												{
													"name": "cannotBeRemoved",
													"type": "bool",
													"internalType": "bool"
												}
											]
										},
										{
											"name": "currency",
											"type": "uint32",
											"internalType": "uint32"
										},
										{
											"name": "decimals",
											"type": "uint8",
											"internalType": "uint8"
										},
										{
											"name": "prices",
											"type": "address",
											"internalType": "contract IJBPrices"
										}
									]
								},
								{
									"name": "reserveBeneficiary",
									"type": "address",
									"internalType": "address"
								},
								{
									"name": "flags",
									"type": "tuple",
									"internalType": "struct JB721TiersHookFlags",
									"components": [
										{
											"name": "noNewTiersWithReserves",
											"type": "bool",
											"internalType": "bool"
										},
										{
											"name": "noNewTiersWithVotes",
											"type": "bool",
											"internalType": "bool"
										},
										{
											"name": "noNewTiersWithOwnerMinting",
											"type": "bool",
											"internalType": "bool"
										},
										{
											"name": "preventOverspending",
											"type": "bool",
											"internalType": "bool"
										}
									]
								}
							]
						}
					],
					"outputs": [
						{
							"name": "newHook",
							"type": "address",
							"internalType": "contract IJB721TiersHook"
						}
					],
					"stateMutability": "nonpayable"
				},
				{
					"type": "function",
					"name": "isTrustedForwarder",
					"inputs": [
						{
							"name": "forwarder",
							"type": "address",
							"internalType": "address"
						}
					],
					"outputs": [
						{
							"name": "",
							"type": "bool",
							"internalType": "bool"
						}
					],
					"stateMutability": "view"
				},
				{
					"type": "function",
					"name": "trustedForwarder",
					"inputs": [],
					"outputs": [
						{
							"name": "",
							"type": "address",
							"internalType": "address"
						}
					],
					"stateMutability": "view"
				},
				{
					"type": "event",
					"name": "HookDeployed",
					"inputs": [
						{
							"name": "projectId",
							"type": "uint256",
							"indexed": true,
							"internalType": "uint256"
						},
						{
							"name": "newHook",
							"type": "address",
							"indexed": false,
							"internalType": "contract IJB721TiersHook"
						}
					],
					"anonymous": false
				},
				{
					"type": "error",
					"name": "ERC1167FailedCreateClone",
					"inputs": []
				}
			],
			"solcInputHash": "9c26761b33f63d5cdb4c2cc0c065558a",
			"receipt": {
				"blockHash": "0xa57d73e7ad7d5ce0c24a3d99aac0d0d70cb28fda538eb640fbb28962bd349a2e",
				"blockNumber": 10522481,
				"contractAddress": null,
				"cumulativeGasUsed": "9007140",
				"from": "0xC034550B542b83BA1De312b21d1C94a9a52B1595",
				"gasPrice": "1000252",
				"gasUsed": "8836493",
				"hash": "0x154e9fd52abcfc74a4e43ab6c739318bfdf5cc5280eeb177f684c6f6ab9e4c4b",
				"index": 2,
				"logs": [
					{
						"address": "0xB5E96127D417b1B3ef8438496a38A143167209c7",
						"blockHash": "0xa57d73e7ad7d5ce0c24a3d99aac0d0d70cb28fda538eb640fbb28962bd349a2e",
						"blockNumber": 10522481,
						"data": "0x0000000000000000000000000000000000000000000000000000000000000000",
						"index": 3,
						"topics": [
							"0x572f161235911da04685a68c06adf558fc7e4a36909dca394650e0adc19cc93d",
							"0x000000000000000000000000c034550b542b83ba1de312b21d1c94a9a52b1595",
							"0x000000000000000000000000582b73e9f9ec9fa3ff32b83cfd7e2810a63bbcdb",
							"0x72e223b9c6a53c7d7a9f21afe5c04e48ce0eaf75a19ca90e06ea86d197b10a89"
						],
						"transactionHash": "0x154e9fd52abcfc74a4e43ab6c739318bfdf5cc5280eeb177f684c6f6ab9e4c4b",
						"transactionIndex": 2
					},
					{
						"address": "0x7c8Ef86687a0Bfa1882D2f25866Cd4EA354EeA3C",
						"blockHash": "0xa57d73e7ad7d5ce0c24a3d99aac0d0d70cb28fda538eb640fbb28962bd349a2e",
						"blockNumber": 10522481,
						"data": "0x",
						"index": 4,
						"topics": [
							"0x8be0079c531659141344cd1fd0a4f28419497f9722a3daafe3b4186f6b6457e0",
							"0x0000000000000000000000000000000000000000000000000000000000000000",
							"0x0000000000000000000000004e59b44847b379578588920ca78fbf26c0b4956c"
						],
						"transactionHash": "0x154e9fd52abcfc74a4e43ab6c739318bfdf5cc5280eeb177f684c6f6ab9e4c4b",
						"transactionIndex": 2
					},
					{
						"address": "0x89BeB14760384C532b587eE00bB42EE307f17e47",
						"blockHash": "0xa57d73e7ad7d5ce0c24a3d99aac0d0d70cb28fda538eb640fbb28962bd349a2e",
						"blockNumber": 10522481,
						"data": "0x",
						"index": 5,
						"topics": [
							"0x6895c13664aa4f67288b25d7a21d7aaa34916e355fb9b6fae0a139a9085becb8",
							"0x000000000000000000000000582b73e9f9ec9fa3ff32b83cfd7e2810a63bbcdb"
						],
						"transactionHash": "0x154e9fd52abcfc74a4e43ab6c739318bfdf5cc5280eeb177f684c6f6ab9e4c4b",
						"transactionIndex": 2
					},
					{
						"address": "0x582b73e9F9EC9fa3fF32b83CFD7E2810a63BBCdB",
						"blockHash": "0xa57d73e7ad7d5ce0c24a3d99aac0d0d70cb28fda538eb640fbb28962bd349a2e",
						"blockNumber": 10522481,
						"data": "0x0000000000000000000000000000000000000000000000000000000000000001",
						"index": 6,
						"topics": [
							"0xa65fb05c5808f5f389d72edeaf719ce38f4cc55c1f69ca3cbfb31c21501caa07",
							"0xf29a925ad7595b534a7334af3cff0f2715becdc9b501f846c233331b92b7a47a"
						],
						"transactionHash": "0x154e9fd52abcfc74a4e43ab6c739318bfdf5cc5280eeb177f684c6f6ab9e4c4b",
						"transactionIndex": 2
					},
					{
						"address": "0x89BeB14760384C532b587eE00bB42EE307f17e47",
						"blockHash": "0xa57d73e7ad7d5ce0c24a3d99aac0d0d70cb28fda538eb640fbb28962bd349a2e",
						"blockNumber": 10522481,
						"data": "0x",
						"index": 7,
						"topics": [
							"0x6895c13664aa4f67288b25d7a21d7aaa34916e355fb9b6fae0a139a9085becb8",
							"0x000000000000000000000000582b73e9f9ec9fa3ff32b83cfd7e2810a63bbcdb"
						],
						"transactionHash": "0x154e9fd52abcfc74a4e43ab6c739318bfdf5cc5280eeb177f684c6f6ab9e4c4b",
						"transactionIndex": 2
					},
					{
						"address": "0x582b73e9F9EC9fa3fF32b83CFD7E2810a63BBCdB",
						"blockHash": "0xa57d73e7ad7d5ce0c24a3d99aac0d0d70cb28fda538eb640fbb28962bd349a2e",
						"blockNumber": 10522481,
						"data": "0x0000000000000000000000000000000000000000000000000000000000000002",
						"index": 8,
						"topics": [
							"0xa65fb05c5808f5f389d72edeaf719ce38f4cc55c1f69ca3cbfb31c21501caa07",
							"0xf29a925ad7595b534a7334af3cff0f2715becdc9b501f846c233331b92b7a47a"
						],
						"transactionHash": "0x154e9fd52abcfc74a4e43ab6c739318bfdf5cc5280eeb177f684c6f6ab9e4c4b",
						"transactionIndex": 2
					},
					{
						"address": "0x89BeB14760384C532b587eE00bB42EE307f17e47",
						"blockHash": "0xa57d73e7ad7d5ce0c24a3d99aac0d0d70cb28fda538eb640fbb28962bd349a2e",
						"blockNumber": 10522481,
						"data": "0x",
						"index": 9,
						"topics": [
							"0x6895c13664aa4f67288b25d7a21d7aaa34916e355fb9b6fae0a139a9085becb8",
							"0x000000000000000000000000582b73e9f9ec9fa3ff32b83cfd7e2810a63bbcdb"
						],
						"transactionHash": "0x154e9fd52abcfc74a4e43ab6c739318bfdf5cc5280eeb177f684c6f6ab9e4c4b",
						"transactionIndex": 2
					},
					{
						"address": "0x582b73e9F9EC9fa3fF32b83CFD7E2810a63BBCdB",
						"blockHash": "0xa57d73e7ad7d5ce0c24a3d99aac0d0d70cb28fda538eb640fbb28962bd349a2e",
						"blockNumber": 10522481,
						"data": "0x0000000000000000000000000000000000000000000000000000000000000003",
						"index": 10,
						"topics": [
							"0xa65fb05c5808f5f389d72edeaf719ce38f4cc55c1f69ca3cbfb31c21501caa07",
							"0xf29a925ad7595b534a7334af3cff0f2715becdc9b501f846c233331b92b7a47a"
						],
						"transactionHash": "0x154e9fd52abcfc74a4e43ab6c739318bfdf5cc5280eeb177f684c6f6ab9e4c4b",
						"transactionIndex": 2
					},
					{
						"address": "0x582b73e9F9EC9fa3fF32b83CFD7E2810a63BBCdB",
						"blockHash": "0xa57d73e7ad7d5ce0c24a3d99aac0d0d70cb28fda538eb640fbb28962bd349a2e",
						"blockNumber": 10522481,
						"data": "0x",
						"index": 11,
						"topics": [
							"0x4383d976757d67ca920616be0b6430a681ea9d3dcce8d6d61d4603ca4a9bff63",
							"0xf29a925ad7595b534a7334af3cff0f2715becdc9b501f846c233331b92b7a47a"
						],
						"transactionHash": "0x154e9fd52abcfc74a4e43ab6c739318bfdf5cc5280eeb177f684c6f6ab9e4c4b",
						"transactionIndex": 2
					}
				],
				"logsBloom": "0x00000000080010000040000000080000000000000008000000800000004000000000200000000000000000000040000100000000400000000000001000000002000000000000200000000000000000000001000000000000000000000000000000000000020000040000000000000800000000000000000008000000000000400000000000000000000100000000000000000000001400400000000000000000004000800011000000000000000000020200000008020000000000000004200000000000000000000008000008000000000000000000000008000000020020000000000000000008000000008000000280000100000000000000000008000000",
				"status": 1,
				"to": "0xB5E96127D417b1B3ef8438496a38A143167209c7"
			},
			"metadata": "{\"compiler\":{\"version\":\"0.8.23+commit.f704f362\"},\"language\":\"Solidity\",\"output\":{\"abi\":[{\"inputs\":[{\"internalType\":\"contract JB721TiersHook\",\"name\":\"hook\",\"type\":\"address\"},{\"internalType\":\"contract IJB721TiersHookStore\",\"name\":\"store\",\"type\":\"address\"},{\"internalType\":\"contract IJBAddressRegistry\",\"name\":\"addressRegistry\",\"type\":\"address\"},{\"internalType\":\"address\",\"name\":\"trustedForwarder\",\"type\":\"address\"}],\"stateMutability\":\"nonpayable\",\"type\":\"constructor\"},{\"inputs\":[],\"type\":\"error\",\"name\":\"ERC1167FailedCreateClone\"},{\"inputs\":[{\"internalType\":\"uint256\",\"name\":\"projectId\",\"type\":\"uint256\",\"indexed\":true},{\"internalType\":\"contract IJB721TiersHook\",\"name\":\"newHook\",\"type\":\"address\",\"indexed\":false}],\"type\":\"event\",\"name\":\"HookDeployed\",\"anonymous\":false},{\"inputs\":[],\"stateMutability\":\"view\",\"type\":\"function\",\"name\":\"ADDRESS_REGISTRY\",\"outputs\":[{\"internalType\":\"contract IJBAddressRegistry\",\"name\":\"\",\"type\":\"address\"}]},{\"inputs\":[],\"stateMutability\":\"view\",\"type\":\"function\",\"name\":\"HOOK\",\"outputs\":[{\"internalType\":\"contract JB721TiersHook\",\"name\":\"\",\"type\":\"address\"}]},{\"inputs\":[],\"stateMutability\":\"view\",\"type\":\"function\",\"name\":\"STORE\",\"outputs\":[{\"internalType\":\"contract IJB721TiersHookStore\",\"name\":\"\",\"type\":\"address\"}]},{\"inputs\":[{\"internalType\":\"uint256\",\"name\":\"projectId\",\"type\":\"uint256\"},{\"internalType\":\"struct JBDeploy721TiersHookConfig\",\"name\":\"deployTiersHookConfig\",\"type\":\"tuple\",\"components\":[{\"internalType\":\"string\",\"name\":\"name\",\"type\":\"string\"},{\"internalType\":\"string\",\"name\":\"symbol\",\"type\":\"string\"},{\"internalType\":\"contract IJBRulesets\",\"name\":\"rulesets\",\"type\":\"address\"},{\"internalType\":\"string\",\"name\":\"baseUri\",\"type\":\"string\"},{\"internalType\":\"contract IJB721TokenUriResolver\",\"name\":\"tokenUriResolver\",\"type\":\"address\"},{\"internalType\":\"string\",\"name\":\"contractUri\",\"type\":\"string\"},{\"internalType\":\"struct JB721InitTiersConfig\",\"name\":\"tiersConfig\",\"type\":\"tuple\",\"components\":[{\"internalType\":\"struct JB721TierConfig[]\",\"name\":\"tiers\",\"type\":\"tuple[]\",\"components\":[{\"internalType\":\"uint104\",\"name\":\"price\",\"type\":\"uint104\"},{\"internalType\":\"uint32\",\"name\":\"initialSupply\",\"type\":\"uint32\"},{\"internalType\":\"uint32\",\"name\":\"votingUnits\",\"type\":\"uint32\"},{\"internalType\":\"uint16\",\"name\":\"reserveFrequency\",\"type\":\"uint16\"},{\"internalType\":\"address\",\"name\":\"reserveBeneficiary\",\"type\":\"address\"},{\"internalType\":\"bytes32\",\"name\":\"encodedIPFSUri\",\"type\":\"bytes32\"},{\"internalType\":\"uint24\",\"name\":\"category\",\"type\":\"uint24\"},{\"internalType\":\"bool\",\"name\":\"allowOwnerMint\",\"type\":\"bool\"},{\"internalType\":\"bool\",\"name\":\"useReserveBeneficiaryAsDefault\",\"type\":\"bool\"},{\"internalType\":\"bool\",\"name\":\"transfersPausable\",\"type\":\"bool\"},{\"internalType\":\"bool\",\"name\":\"useVotingUnits\",\"type\":\"bool\"},{\"internalType\":\"bool\",\"name\":\"cannotBeRemoved\",\"type\":\"bool\"}]},{\"internalType\":\"uint32\",\"name\":\"currency\",\"type\":\"uint32\"},{\"internalType\":\"uint8\",\"name\":\"decimals\",\"type\":\"uint8\"},{\"internalType\":\"contract IJBPrices\",\"name\":\"prices\",\"type\":\"address\"}]},{\"internalType\":\"address\",\"name\":\"reserveBeneficiary\",\"type\":\"address\"},{\"internalType\":\"struct JB721TiersHookFlags\",\"name\":\"flags\",\"type\":\"tuple\",\"components\":[{\"internalType\":\"bool\",\"name\":\"noNewTiersWithReserves\",\"type\":\"bool\"},{\"internalType\":\"bool\",\"name\":\"noNewTiersWithVotes\",\"type\":\"bool\"},{\"internalType\":\"bool\",\"name\":\"noNewTiersWithOwnerMinting\",\"type\":\"bool\"},{\"internalType\":\"bool\",\"name\":\"preventOverspending\",\"type\":\"bool\"}]}]}],\"stateMutability\":\"nonpayable\",\"type\":\"function\",\"name\":\"deployHookFor\",\"outputs\":[{\"internalType\":\"contract IJB721TiersHook\",\"name\":\"newHook\",\"type\":\"address\"}]},{\"inputs\":[{\"internalType\":\"address\",\"name\":\"forwarder\",\"type\":\"address\"}],\"stateMutability\":\"view\",\"type\":\"function\",\"name\":\"isTrustedForwarder\",\"outputs\":[{\"internalType\":\"bool\",\"name\":\"\",\"type\":\"bool\"}]},{\"inputs\":[],\"stateMutability\":\"view\",\"type\":\"function\",\"name\":\"trustedForwarder\",\"outputs\":[{\"internalType\":\"address\",\"name\":\"\",\"type\":\"address\"}]}],\"devdoc\":{\"kind\":\"dev\",\"methods\":{\"constructor\":{\"params\":{\"addressRegistry\":\"A registry which stores references to contracts and their deployers.\",\"hook\":\"Reference copy of a hook.\"}},\"deployHookFor(uint256,(string,string,address,string,address,string,((uint104,uint32,uint32,uint16,address,bytes32,uint24,bool,bool,bool,bool,bool)[],uint32,uint8,address),address,(bool,bool,bool,bool)))\":{\"params\":{\"deployTiersHookConfig\":\"The config to deploy the hook with, which determines its behavior.\",\"projectId\":\"The ID of the project to deploy the hook for.\"},\"returns\":{\"newHook\":\"The address of the newly deployed hook.\"}},\"isTrustedForwarder(address)\":{\"details\":\"Indicates whether any particular address is the trusted forwarder.\"},\"trustedForwarder()\":{\"details\":\"Returns the address of the trusted forwarder.\"}},\"version\":1},\"userdoc\":{\"kind\":\"user\",\"methods\":{\"ADDRESS_REGISTRY()\":{\"notice\":\"A registry which stores references to contracts and their deployers.\"},\"HOOK()\":{\"notice\":\"A 721 tiers hook.\"},\"STORE()\":{\"notice\":\"The contract that stores and manages data for this contract's NFTs.\"},\"deployHookFor(uint256,(string,string,address,string,address,string,((uint104,uint32,uint32,uint16,address,bytes32,uint24,bool,bool,bool,bool,bool)[],uint32,uint8,address),address,(bool,bool,bool,bool)))\":{\"notice\":\"Deploys a 721 tiers hook for the specified project.\"}},\"version\":1}},\"settings\":{\"remappings\":[\"@bananapus/=node_modules/@bananapus/\",\"@chainlink/=node_modules/@chainlink/\",\"@eth-optimism/=node_modules/@eth-optimism/\",\"@openzeppelin/=node_modules/@openzeppelin/\",\"@prb/=node_modules/@prb/\",\"@scroll-tech/=node_modules/@scroll-tech/\",\"@sphinx-labs/contracts/=node_modules/@sphinx-labs/contracts/contracts/foundry/\",\"@uniswap/=node_modules/@uniswap/\",\"ds-test/=lib/forge-std/lib/ds-test/src/\",\"forge-std/=lib/forge-std/src/\",\"hardhat/=node_modules/hardhat/\",\"solmate/=node_modules/solmate/\",\"sphinx/=lib/sphinx/packages/contracts/contracts/forge-std/src/\"],\"optimizer\":{\"enabled\":true,\"runs\":1000},\"metadata\":{\"bytecodeHash\":\"ipfs\"},\"compilationTarget\":{\"src/JB721TiersHookDeployer.sol\":\"JB721TiersHookDeployer\"},\"evmVersion\":\"paris\",\"libraries\":{}},\"sources\":{\"node_modules/@bananapus/address-registry/src/interfaces/IJBAddressRegistry.sol\":{\"keccak256\":\"0x33ab082cbb870d8ff950f56db686911b39d090432bc8c09a6b3434aedcb58936\",\"urls\":[\"bzz-raw://cd98fcdc58cf9af46571656b44ff0dc5d94c9a1c6e5c8eb07b1153bfd1bc4206\",\"dweb:/ipfs/Qmcm36zeucynBTTj7q3BVLmZF9CG3X7cGKDPdo9JchVYa9\"],\"license\":\"MIT\"},\"node_modules/@bananapus/core/src/abstract/JBPermissioned.sol\":{\"keccak256\":\"0xe08c8a7eeac9d1c7c2e0db6d5b98d1af09889300835a3d47d9f29319fecce703\",\"urls\":[\"bzz-raw://42645cf52bcc45053ef650790916faed5d0a74cecef336b217433fdd2c5c4166\",\"dweb:/ipfs/QmdMmxG1tSGucQwz4LYbVnuj7HU23YvqLH6xfrNWv5Bmus\"],\"license\":\"MIT\"},\"node_modules/@bananapus/core/src/enums/JBApprovalStatus.sol\":{\"keccak256\":\"0x61c69b6bac7d24b566d87cda23a77e4ca9cdb87200b106aba8534cb9a0973e33\",\"urls\":[\"bzz-raw://6a9ca7249de76f77a8252eefe6bd1b63d47952f25a2acfa2c8db967cdff4470c\",\"dweb:/ipfs/QmaxSxptRQNj8bNy96EreENmrnRWdKmhyihBcxyWzBX5BN\"],\"license\":\"MIT\"},\"node_modules/@bananapus/core/src/interfaces/IJBDirectory.sol\":{\"keccak256\":\"0x9cc380844aef60078ee47a61861e55a29c4a8c947efd556ebd36e6909f7b9d62\",\"urls\":[\"bzz-raw://9f5190ec8b6683d9781ee6e9eedcc91294753242748875d4a06349077e4cbaaf\",\"dweb:/ipfs/QmTQrPuXT9TCA4txwrperMeXSGvGxP8iokUK47f62F388i\"],\"license\":\"MIT\"},\"node_modules/@bananapus/core/src/interfaces/IJBPayHook.sol\":{\"keccak256\":\"0x9438866782c652c2942f4d114e35f393cd3c8b0334abce8387eed90bca35e8b2\",\"urls\":[\"bzz-raw://cfd99daf57213f92325aad7d7d16e98476d38e870470e95ba01e3ae3cdecc95d\",\"dweb:/ipfs/QmUKKAVGf7ki8BHksr99tFcRW8APveeB5tNH63ctTbbCW8\"],\"license\":\"MIT\"},\"node_modules/@bananapus/core/src/interfaces/IJBPermissioned.sol\":{\"keccak256\":\"0x5b038d4dee116584e88b230920e56d48e135053e3f7e5642eaea14a775c1dad7\",\"urls\":[\"bzz-raw://19e43102f349fd4a1da1c0943ffb8f2950007fe4bb4bb7e8f74fc142575d091b\",\"dweb:/ipfs/QmXHAt4KzDTdDZgDDefEXH2WKi7NcfkJb9R7nxW5uDqsNp\"],\"license\":\"MIT\"},\"node_modules/@bananapus/core/src/interfaces/IJBPermissions.sol\":{\"keccak256\":\"0x18870e500edf0fbadc353e273a5574701fb80466376b908c65e7cc3f11044d4d\",\"urls\":[\"bzz-raw://352a47c45853aec80e7acf0d286ade3106eb4cb456776b28a3c2f3f1091bed90\",\"dweb:/ipfs/QmQeYd3YbudYZy2hfbfht9kwhxhw4tuuLKMEYy9UY6dcSy\"],\"license\":\"MIT\"},\"node_modules/@bananapus/core/src/interfaces/IJBPriceFeed.sol\":{\"keccak256\":\"0x4bd84c0f1a5d4729ed709bcddd43f4c50ec4a165ece79780af8dce482ed07d4a\",\"urls\":[\"bzz-raw://62bac4bfb6982fb002f620c77e5c445e62d50241a5aa64a07e51d929f5a42180\",\"dweb:/ipfs/QmWgJUDreVY2BuMX38a1iUUR5kNbMwGnKG3VvurB7oZtuM\"],\"license\":\"MIT\"},\"node_modules/@bananapus/core/src/interfaces/IJBPrices.sol\":{\"keccak256\":\"0x99525f31440b955742dce84ba57de9fc1221139b5367c1f834723bef9e13e6e1\",\"urls\":[\"bzz-raw://6fa03f0cd4ad87dd7cbae7bf7f54463450874291773c8f70f2c31ef2cae62bb0\",\"dweb:/ipfs/QmSPajPV5ismteJuB6Spzm9VmhTj2iS3eVrfpJC1Zuzg8n\"],\"license\":\"MIT\"},\"node_modules/@bananapus/core/src/interfaces/IJBProjects.sol\":{\"keccak256\":\"0x735c2fb8f1fa827f054ee77f7a0ae4b312656217acb75b624d2c8fd9dc40151b\",\"urls\":[\"bzz-raw://ee7fc92299a8633a80693ae63ab494dcd125f1789487a54a39dc0e5696e5996f\",\"dweb:/ipfs/QmX7YJD4pS2XhgQb7p3JbBAXynT7YGPXcZe92BiWWRrsCL\"],\"license\":\"MIT\"},\"node_modules/@bananapus/core/src/interfaces/IJBRedeemHook.sol\":{\"keccak256\":\"0x8ab46fcd7d0e739661eb76056ad93ff99106f38420ef0b4eb97fa9f4bb71a68a\",\"urls\":[\"bzz-raw://0ef96fcb7ad26281d444d8e0c677b25114fdd63b1c172d477e030dce8ba53b62\",\"dweb:/ipfs/Qmcx1jRQuwU4pZFuLxsSsx4oMbRaDfktHrPnXextgbWc5m\"],\"license\":\"MIT\"},\"node_modules/@bananapus/core/src/interfaces/IJBRulesetApprovalHook.sol\":{\"keccak256\":\"0x592e95d159494421c6b1bcb362d0cee1df0132921697351304e9cd7af4fbd386\",\"urls\":[\"bzz-raw://5bebfd5fa67c1b6ea16fa2e76e9520e9dfe52a579f48dd94d0c2ec45f78ad178\",\"dweb:/ipfs/QmRUawEGtfYoYSHmHELGhvJoWuMsxLPKtqAXgsrb7fJboP\"],\"license\":\"MIT\"},\"node_modules/@bananapus/core/src/interfaces/IJBRulesetDataHook.sol\":{\"keccak256\":\"0x13b4b9f4b847f62442da1c1a59b399f8f201b31a28edb96aa5a8a78ad57c24d0\",\"urls\":[\"bzz-raw://4fcd00b77d0f40cf6d5ee6590b6ef4ee1f606e89ae4c4faed3710fb462108f8e\",\"dweb:/ipfs/QmeoE54DQ3eGw9EDXfN7aTMmEjubAtirahmytDijo6GSeE\"],\"license\":\"MIT\"},\"node_modules/@bananapus/core/src/interfaces/IJBRulesets.sol\":{\"keccak256\":\"0xd3f817d22ecbe24da63c552c069bf0c4fbbf3bcd5c3b5633002afd24aacf6882\",\"urls\":[\"bzz-raw://c1185aec0f6b6f0f4d93ffeeed0972ccf38420b00fe570b5e1838ed2b1f5db49\",\"dweb:/ipfs/QmWz36azGTFnjFXpFSh6BHt4nactgjtF64L3PeTqs4ZqSR\"],\"license\":\"MIT\"},\"node_modules/@bananapus/core/src/interfaces/IJBTerminal.sol\":{\"keccak256\":\"0x19dc9bf8cbdc8f13ee5da9dc3a87047eacb94a3fc19740a286c1f0bad2cc39ca\",\"urls\":[\"bzz-raw://0b05ae6fda9a85672508232fd992b8a5f5ffd8096622eeb12c8a7b3317eb3867\",\"dweb:/ipfs/QmNh9Quj37BXYGdTdcCD1Q58PchRsE5TLbEZep56qS3MpV\"],\"license\":\"MIT\"},\"node_modules/@bananapus/core/src/interfaces/IJBTokenUriResolver.sol\":{\"keccak256\":\"0xfa5cb00dcd6085d1ef912d071fe73c63f9478a2cd0f9d8bddaf659b6af2d0967\",\"urls\":[\"bzz-raw://282e4e7c342d65f77cde0e9a08fcaf20ef5cf379c7a48b639842c0ffd0b2afb8\",\"dweb:/ipfs/QmbnN3PEQeZaXdPLT75V1J79kMg7KqSMru37RHrL3z8Yf2\"],\"license\":\"MIT\"},\"node_modules/@bananapus/core/src/libraries/JBConstants.sol\":{\"keccak256\":\"0x9d3a9a953f859d8ec79a599577f8972de6da7199cc1bfa7fdad017d4d722bcb4\",\"urls\":[\"bzz-raw://f151fcb53a8d2684eff8b9e56ac790bcbcadd8199a4fd4d17c5b224b22936722\",\"dweb:/ipfs/QmdAz1ZtCE8nTiC4AxQNLfJhnY3ndGum2Lbef7seKdvTdR\"],\"license\":\"MIT\"},\"node_modules/@bananapus/core/src/libraries/JBMetadataResolver.sol\":{\"keccak256\":\"0x900731084917f812806a35dab2c7ae65a6f07506d6c953ae0cd6d993fe85560f\",\"urls\":[\"bzz-raw://2002892aef205b5192fa5c2d1cf1698ba0836bed7eaba839444cd0f93b4fb050\",\"dweb:/ipfs/QmPRGSNRdpST1xt2brhGWSDsEYD29j5QwaJ3SA518UUXWs\"],\"license\":\"MIT\"},\"node_modules/@bananapus/core/src/libraries/JBRulesetMetadataResolver.sol\":{\"keccak256\":\"0x83f25c531d9e212379b4326fd93bf658a0f6d0e839bbd67bff7b66b9b55fb670\",\"urls\":[\"bzz-raw://3eb4a41ececec705febac7b799d7224e67f12761ae3975d49dd8bddaac608ecd\",\"dweb:/ipfs/QmNgL5VccDhP5xofEcGWNKk3v4KG23wGF9vc3d4YJ5MLnv\"],\"license\":\"MIT\"},\"node_modules/@bananapus/core/src/structs/JBAccountingContext.sol\":{\"keccak256\":\"0x2907ff54d1e903cc7e0390dd88c3975884702dc2673642aacbe22b66560b56de\",\"urls\":[\"bzz-raw://a66a5381ce877b32f0e0058ceeaf843e9b6b2bc8af666c0c9f4a9d01091da004\",\"dweb:/ipfs/QmQynCetUr37dBkS1YwDS8evxuXGiqanW6THmeUxXtim8w\"],\"license\":\"MIT\"},\"node_modules/@bananapus/core/src/structs/JBAfterPayRecordedContext.sol\":{\"keccak256\":\"0xd26c3a774ff38be79064085970454fe2603a23a638c76270d5b1b3829206c3e8\",\"urls\":[\"bzz-raw://3b55dbe3bf1ef625b7ca04efab3de35406e6041d5b3d82c7265469c500e2b702\",\"dweb:/ipfs/QmUdBDo4Lt3mcsFcsXT2mqq3czFwZjQJFPLM89YA2VtD7k\"],\"license\":\"MIT\"},\"node_modules/@bananapus/core/src/structs/JBAfterRedeemRecordedContext.sol\":{\"keccak256\":\"0x521f5d23a36f0da72362cd84890cc867bd83baa8dc836ba6c5066d51dba2f163\",\"urls\":[\"bzz-raw://6cc461313286dde62d045d6288e87bae5032e035796326f5b1ed6218e58aa9da\",\"dweb:/ipfs/QmQS2AkQwf2ANQieDuaUnpJEdXChoLv4CCbZqHkfywYPSR\"],\"license\":\"MIT\"},\"node_modules/@bananapus/core/src/structs/JBBeforePayRecordedContext.sol\":{\"keccak256\":\"0x5b04e814da83c7e83ff892ab07eaad6abce6f7b85a75f8da9380e9fc3470bc81\",\"urls\":[\"bzz-raw://11c889aab993fce3e3cc2dedc15fc30dd367e7fef9b7b1bfd6a6a9f248781731\",\"dweb:/ipfs/QmVVtydCD1azeWhGLxA1hthxfLyKzMHZ1eVzCz3a3R5dLy\"],\"license\":\"MIT\"},\"node_modules/@bananapus/core/src/structs/JBBeforeRedeemRecordedContext.sol\":{\"keccak256\":\"0x73eadaf6827e82f6ccbe3a1e2b2b7fc6c59cef471f73335041b30ddcc000989d\",\"urls\":[\"bzz-raw://2f3ee84662eed565dbdaed406ef836fffaf55cccd417575578152e5085d0b1f2\",\"dweb:/ipfs/QmaJGFS7hxJsiUdKvbv5BKhSwceDEzKBnt7t5YeNWvYgMK\"],\"license\":\"MIT\"},\"node_modules/@bananapus/core/src/structs/JBPayHookSpecification.sol\":{\"keccak256\":\"0x955f0bfca97300b9e5927dc181753830ee362f83fa9ca32a90daade32aa0cfd5\",\"urls\":[\"bzz-raw://f517af1597c7c40f8d3da53f7a6684a3e162950a16559d6bf6ea3b727bb11546\",\"dweb:/ipfs/QmRWo2ZTYXmVZTzNJDYhsJNsEaHphjpUfx9eNz2cciyz86\"],\"license\":\"MIT\"},\"node_modules/@bananapus/core/src/structs/JBPermissionsData.sol\":{\"keccak256\":\"0x8f0f69a6ebf5f3704e3dfcb3712fb9d3f94ae7c1ab89bf3e37bad42a3e7a0487\",\"urls\":[\"bzz-raw://57b0c5e52843e2217082889ed47b4da3943e0da4590d5768dcebfe3edad4a6b8\",\"dweb:/ipfs/QmRz48vuWLw81kUP836rh1qzqWiJFGbksgRUA9xGEDNKTY\"],\"license\":\"MIT\"},\"node_modules/@bananapus/core/src/structs/JBRedeemHookSpecification.sol\":{\"keccak256\":\"0x673d16ee1a91bf8de3b37e57284e60451b70a9c2d748c9cdc7a151f5624af18f\",\"urls\":[\"bzz-raw://ceeb5e81effa0f076c5630c756dfcf1548d09f822b255a0a6ee01e54de8c8ae2\",\"dweb:/ipfs/QmSMoMNPRhPMnuJNvWa6S59XRfycGz9o2ApNp63bUW6TdX\"],\"license\":\"MIT\"},\"node_modules/@bananapus/core/src/structs/JBRuleset.sol\":{\"keccak256\":\"0x15b2bf3174d84846a91ccbf5a344dfb125b55ed9cf50102db8d6868844225189\",\"urls\":[\"bzz-raw://647416b025dbd941094db89cbc69f755c155bd6c87be3f322394ccc4a8e0442d\",\"dweb:/ipfs/QmTCL9xcHnxQ4t5AmCPoZvXDUPW5xhzhyyXYbkMdyg44au\"],\"license\":\"MIT\"},\"node_modules/@bananapus/core/src/structs/JBRulesetMetadata.sol\":{\"keccak256\":\"0xfea54c9f98416d2aa05309e7ff76967d6968a614850a1e33e48fde793ea8b514\",\"urls\":[\"bzz-raw://bf55386cbab90dbc1296b2b0cbfdc217a4500d67702e4a093a4c78bd127ecd5c\",\"dweb:/ipfs/QmTRq9mZrNSXu7oCZwti4JbBFrbY6A5msRqi9RbtL49NAj\"],\"license\":\"MIT\"},\"node_modules/@bananapus/core/src/structs/JBTokenAmount.sol\":{\"keccak256\":\"0x5cf0626b73a596c1e2da17c89ae039a7c0374310b060d48568d3b6c11fbe6180\",\"urls\":[\"bzz-raw://63348b50be95e2995409394a17caffc563a646f0972650a1230bf864fbd3219b\",\"dweb:/ipfs/QmZXZpS3SbFD5nWaCauf6AqbEhLURv5qsKHpThBvQgDU6u\"],\"license\":\"MIT\"},\"node_modules/@bananapus/ownable/src/JBOwnable.sol\":{\"keccak256\":\"0x5b0aec2bc7164bdb972bfb9f71660c887308cf3a72738c7469d03bf264cf0d54\",\"urls\":[\"bzz-raw://bf4f60cebc0a707004371425aa3c8751b6a84dfb4fc9bf788160ae9ac1e906f6\",\"dweb:/ipfs/QmegUfWLhKuByQTkfMkmwkEs2Tk5ZEuR56DqQw5kxFzP3d\"],\"license\":\"MIT\"},\"node_modules/@bananapus/ownable/src/JBOwnableOverrides.sol\":{\"keccak256\":\"0x70a7c55f2a0f4324b63afe61e9d0de6e54396073e431844a19936d2aaaf6d7dd\",\"urls\":[\"bzz-raw://94c55139a8e974e2a88c6f0fc7594be3044742cfc499c989051eaf6664ec7dab\",\"dweb:/ipfs/QmQPnLAootqEGzpHRdhsYGBU3cqicRYLAe6bTti2UCBHyS\"],\"license\":\"MIT\"},\"node_modules/@bananapus/ownable/src/interfaces/IJBOwnable.sol\":{\"keccak256\":\"0x2c513558439d763df03e8a68c1aef698618182fd44c285405c35597d52c65ad1\",\"urls\":[\"bzz-raw://11cc25c41fccc20cca29f93dd120e67760188fd2040ef0330a093d37fbfa2f8f\",\"dweb:/ipfs/QmWpxcv41eYmsNYT3ph1nts5pC7sp3EzwJxKDGebMqEbsH\"],\"license\":\"MIT\"},\"node_modules/@bananapus/ownable/src/struct/JBOwner.sol\":{\"keccak256\":\"0x5624ba356f01f722984c1b857a106f413b12e57bae1f762a81c16ee511e3325a\",\"urls\":[\"bzz-raw://3120b5649ac8b55158df138dcac03f6850fc988cc5a24a7cb06e6581265ca284\",\"dweb:/ipfs/QmQBSLxRT9j1MEERUt8dWbSsAjianbHpM2CFwciLK7MwaP\"],\"license\":\"MIT\"},\"node_modules/@bananapus/permission-ids/src/JBPermissionIds.sol\":{\"keccak256\":\"0xf61109f6b217a80d5e5391f548fb6f2e451f7dbee3fabfc04cf17e88722203bc\",\"urls\":[\"bzz-raw://ac776ab1cd621c22bd7973471acdfa187f3abc659ad9a3ef6ed10b6447dfcf9c\",\"dweb:/ipfs/QmYLbaHt68qcuMzkiKpe96jMjiWUq1F3u8yMhxmZ3pnnWu\"],\"license\":\"MIT\"},\"node_modules/@openzeppelin/contracts/interfaces/IERC2981.sol\":{\"keccak256\":\"0x89b84f7b1b2d6c294cd6b9a9f661c1cfb1b9b10ca7bac5b3445850a8ce96dcf1\",\"urls\":[\"bzz-raw://44f961aefa43a50c94d8b68e749235b2cf3bd1de18bf6f2e5e1c0fd9a59e06ea\",\"dweb:/ipfs/QmNzd2bnJidavPtt2hQ1em387T6W37n3kDx8WrneCZozxV\"],\"license\":\"MIT\"},\"node_modules/@openzeppelin/contracts/interfaces/draft-IERC6093.sol\":{\"keccak256\":\"0x60c65f701957fdd6faea1acb0bb45825791d473693ed9ecb34726fdfaa849dd7\",\"urls\":[\"bzz-raw://ea290300e0efc4d901244949dc4d877fd46e6c5e43dc2b26620e8efab3ab803f\",\"dweb:/ipfs/QmcLLJppxKeJWqHxE2CUkcfhuRTgHSn8J4kijcLa5MYhSt\"],\"license\":\"MIT\"},\"node_modules/@openzeppelin/contracts/metatx/ERC2771Context.sol\":{\"keccak256\":\"0x98256cf37b71a69b2f5a8a6fe975ea03590dff703102bd141a830f94e8adebf6\",\"urls\":[\"bzz-raw://6251fe1f6a1e45e6d619d150c123afc88b8646b38ee26a136efa9a6988a31d3f\",\"dweb:/ipfs/QmeXDT85wSZdP31wkz3ah3KhponCiksJLP5o2LR5e1JxcK\"],\"license\":\"MIT\"},\"node_modules/@openzeppelin/contracts/proxy/Clones.sol\":{\"keccak256\":\"0xd18408af8a91bedb3d56343eeb9b30eb852e6dea93a5e2d5c6db9ca4cb905155\",\"urls\":[\"bzz-raw://061475b7302a732dc598907790f407417551c2b13e89daa57b3698489ef5484b\",\"dweb:/ipfs/QmdX5qmk3VSniSErFuD4aVawQxUi2MuUbP7spPcHddPfcX\"],\"license\":\"MIT\"},\"node_modules/@openzeppelin/contracts/token/ERC721/IERC721.sol\":{\"keccak256\":\"0x5ef46daa3b58ef2702279d514780316efaa952915ee1aa3396f041ee2982b0b4\",\"urls\":[\"bzz-raw://2f8f2a76e23b02fc69e8cd24c3cb47da6c7af3a2d6c3a382f8ac25c6e094ade7\",\"dweb:/ipfs/QmPV4ZS4tPVv4mTCf9ejyZ1ai57EEibDRj7mN2ARDCLV5n\"],\"license\":\"MIT\"},\"node_modules/@openzeppelin/contracts/token/ERC721/IERC721Receiver.sol\":{\"keccak256\":\"0x7f7a26306c79a65fb8b3b6c757cd74660c532cd8a02e165488e30027dd34ca49\",\"urls\":[\"bzz-raw://d01e0b2b837ee2f628545e54d8715b49c7ef2befd08356c2e7f6c50dde8a1c22\",\"dweb:/ipfs/QmWBAn6y2D1xgftci97Z3qR9tQnkvwQpYwFwkTvDMvqU4i\"],\"license\":\"MIT\"},\"node_modules/@openzeppelin/contracts/token/ERC721/extensions/IERC721Metadata.sol\":{\"keccak256\":\"0x37d1aaaa5a2908a09e9dcf56a26ddf762ecf295afb5964695937344fc6802ce1\",\"urls\":[\"bzz-raw://ed0bfc1b92153c5000e50f4021367b931bbe96372ac6facec3c4961b72053d02\",\"dweb:/ipfs/Qmbwp8VDerjS5SV1quwHH1oMXxPQ93fzfLVqJ2RCqbowGE\"],\"license\":\"MIT\"},\"node_modules/@openzeppelin/contracts/utils/Context.sol\":{\"keccak256\":\"0x493033a8d1b176a037b2cc6a04dad01a5c157722049bbecf632ca876224dd4b2\",\"urls\":[\"bzz-raw://6a708e8a5bdb1011c2c381c9a5cfd8a9a956d7d0a9dc1bd8bcdaf52f76ef2f12\",\"dweb:/ipfs/Qmax9WHBnVsZP46ZxEMNRQpLQnrdE4dK8LehML1Py8FowF\"],\"license\":\"MIT\"},\"node_modules/@openzeppelin/contracts/utils/Strings.sol\":{\"keccak256\":\"0x55f102ea785d8399c0e58d1108e2d289506dde18abc6db1b7f68c1f9f9bc5792\",\"urls\":[\"bzz-raw://6e52e0a7765c943ef14e5bcf11e46e6139fa044be564881378349236bf2e3453\",\"dweb:/ipfs/QmZEeeXoFPW47amyP35gfzomF9DixqqTEPwzBakv6cZw6i\"],\"license\":\"MIT\"},\"node_modules/@openzeppelin/contracts/utils/introspection/ERC165.sol\":{\"keccak256\":\"0x9e8778b14317ba9e256c30a76fd6c32b960af621987f56069e1e819c77c6a133\",\"urls\":[\"bzz-raw://1777404f1dcd0fac188e55a288724ec3c67b45288e49cc64723e95e702b49ab8\",\"dweb:/ipfs/QmZFdC626GButBApwDUvvTnUzdinevC3B24d7yyh57XkiA\"],\"license\":\"MIT\"},\"node_modules/@openzeppelin/contracts/utils/introspection/IERC165.sol\":{\"keccak256\":\"0x4296879f55019b23e135000eb36896057e7101fb7fb859c5ef690cf14643757b\",\"urls\":[\"bzz-raw://87b3541437c8c443ccd36795e56a338ed12855eec17f8da624511b8d1a7e14df\",\"dweb:/ipfs/QmeJQCtZrQjtJLr6u7ZHWeH3pBnjtLWzvRrKViAi7UZqxL\"],\"license\":\"MIT\"},\"node_modules/@openzeppelin/contracts/utils/math/Math.sol\":{\"keccak256\":\"0x005ec64c6313f0555d59e278f9a7a5ab2db5bdc72a027f255a37c327af1ec02d\",\"urls\":[\"bzz-raw://4ece9f0b9c8daca08c76b6b5405a6446b6f73b3a15fab7ff56e296cbd4a2c875\",\"dweb:/ipfs/QmQyRpyPRL5SQuAgj6SHmbir3foX65FJjbVTTQrA2EFg6L\"],\"license\":\"MIT\"},\"node_modules/@openzeppelin/contracts/utils/math/SignedMath.sol\":{\"keccak256\":\"0x5f7e4076e175393767754387c962926577f1660dd9b810187b9002407656be72\",\"urls\":[\"bzz-raw://7d533a1c97cd43a57cd9c465f7ee8dd0e39ae93a8fb8ff8e5303a356b081cdcc\",\"dweb:/ipfs/QmVBEei6aTnvYNZp2CHYVNKyZS4q1KkjANfY39WVXZXVoT\"],\"license\":\"MIT\"},\"node_modules/@prb/math/src/Common.sol\":{\"keccak256\":\"0xaa374e2c26cc93e8c22a6953804ee05f811597ef5fa82f76824378b22944778b\",\"urls\":[\"bzz-raw://279c732e161d623cf4d8a9519ca4c42c0c2db99842d0eb2a20c10fde3fa722c9\",\"dweb:/ipfs/QmVViuUXbinQGqtG5M21SgVzKihiCbFUChd4tDhtvwRmxH\"],\"license\":\"MIT\"},\"src/JB721TiersHook.sol\":{\"keccak256\":\"0x67a1a8abc1f6a05bf0398555acb87e81d5bd1d6db06f2289149b68cdbbbd5da4\",\"urls\":[\"bzz-raw://7222228ca731a0673ddfe2ed946c4c2880975e6ec6f5a022b6e8586d21055acc\",\"dweb:/ipfs/QmeqL2WQegBWPomLjpP5EvhuwRNKqy8C39gaZyvogrY1Jy\"],\"license\":\"MIT\"},\"src/JB721TiersHookDeployer.sol\":{\"keccak256\":\"0x8cadb554ef9d6a2c7371299f433de7fc93dfa76e7c3ee5045c4a75787d240916\",\"urls\":[\"bzz-raw://cf784800d387074a03ec29fa63ca61043f863b0720ba6d29dd273f2735f5758a\",\"dweb:/ipfs/QmbJFwxuCALGNHUu4c2EKGpfnVzaVcEfb6Qymc6LjXZ8eK\"],\"license\":\"MIT\"},\"src/abstract/ERC721.sol\":{\"keccak256\":\"0xc25c7c60c88684adc3f7a49621d27866866a44a3f3796e63c9fcaba75fbb2e84\",\"urls\":[\"bzz-raw://713103b7a05402264493430cfcd7d85f1a241a2eb4756af53a370fa529ea07bf\",\"dweb:/ipfs/QmSXZfxCG1N9XheS1kLCNJZ9k6ZRq4GnAMY7MKFfbKLXmz\"],\"license\":\"MIT\"},\"src/abstract/JB721Hook.sol\":{\"keccak256\":\"0x36d2a9fa61299fda4bee81002ab4751d877765b38801270eb72aed5f47e48591\",\"urls\":[\"bzz-raw://6460d03a6d0103c21f3178883cb14d2b5b48dac8d90b415af4a6b30c192af5ac\",\"dweb:/ipfs/QmNi9akp3SZYZd87Mrvozff4ccN4KSLmWzyhAupJd4chPt\"],\"license\":\"MIT\"},\"src/interfaces/IJB721Hook.sol\":{\"keccak256\":\"0x24935445bc4c5b0fe2a10aabe549122588940842a68e79a8c39b1df9458dd7fd\",\"urls\":[\"bzz-raw://1dee273fa76d9abae116de911fdda5e3113db2a58939e62e24fba98c63fd037a\",\"dweb:/ipfs/QmT6Lih7DeRAfrLc8uC7ecaw2EAKwhaP2BZHeY5DxeeVLM\"],\"license\":\"MIT\"},\"src/interfaces/IJB721TiersHook.sol\":{\"keccak256\":\"0xbd9a8dae00a4b1a02c628bd172fe4ae496e49f7651426cef08774ffdb6125c23\",\"urls\":[\"bzz-raw://9ce4fd77d5af1f570dad6b70758f09f9599768e1ab32f6b473f6181197daa0c8\",\"dweb:/ipfs/QmWj6sCTvZ2CbfSyRuhaXADxYbwwPcR42pZokcgfjpsabg\"],\"license\":\"MIT\"},\"src/interfaces/IJB721TiersHookDeployer.sol\":{\"keccak256\":\"0xc4c6dfd2573fe1f130bc5193da68a622959a11562010fa261ffd3a8893e08a7b\",\"urls\":[\"bzz-raw://0c34f79121f6c777bca3df6c2e87c0caa05146bec45e9ae29f41b0532d16c88e\",\"dweb:/ipfs/QmZJQVZC8uuuSssXtLnhsvisz7V2PCKs2s1Hbzo8hmZ9ZP\"],\"license\":\"MIT\"},\"src/interfaces/IJB721TiersHookStore.sol\":{\"keccak256\":\"0x8550e216c12c9cda865c1b1b0eb3f244aeaa8d465b197d4bd0dd8d4df265682e\",\"urls\":[\"bzz-raw://674a312f1eaffd7c6b21f58f8d4a628104e71220daf48a22237fa3bd035ddf21\",\"dweb:/ipfs/QmSRSW6cSwdpoGjVxDqiwJmJyCxfHWhCxZ2iaqeJcN2Ccy\"],\"license\":\"MIT\"},\"src/interfaces/IJB721TokenUriResolver.sol\":{\"keccak256\":\"0xfa599167098f4459320ec4141a98a17b2dfffbce422baa27d8b4e4530f61ece1\",\"urls\":[\"bzz-raw://8b758b161f4c7b520b2c34b4d91e585e961b8f4ca278eebb91d791f7f2f45140\",\"dweb:/ipfs/QmcD9DF7NJ9QykQpT4KPzm4bs3fkjzukdAUWwdU6Atfw85\"],\"license\":\"MIT\"},\"src/libraries/JB721TiersRulesetMetadataResolver.sol\":{\"keccak256\":\"0xe1e224860fce816c0566c4b22044eb2f5a767a09764d00482b954733bf18e51e\",\"urls\":[\"bzz-raw://043663de2a9c7e822e947e0b68833e77985d493bebcb48f86bf1b67f937417fc\",\"dweb:/ipfs/QmXVXPdpLfmT2a97gUQ5d2XSsHXhgpiTfs7w2ZtoD55uAd\"],\"license\":\"MIT\"},\"src/libraries/JBIpfsDecoder.sol\":{\"keccak256\":\"0xb93ba562ac1fc9d3829be00e61f3a90f51df5661cf0f2c819a7f1d8ba19ec171\",\"urls\":[\"bzz-raw://fc9bc948fac8897d9720ef25b13d63c60b40a18aa1897dd1c657fc278c416b4f\",\"dweb:/ipfs/QmNtiJTALZW5zfyKVy7XG5GkqGgMrfkVvU4Auu4bb9cGQc\"],\"license\":\"MIT\"},\"src/structs/JB721InitTiersConfig.sol\":{\"keccak256\":\"0xfb78486cec94189d0ecf2050dc9cfc11245b426c73a0711a85bff1359d774307\",\"urls\":[\"bzz-raw://a8fa01f6e64dd204dbde07a60851e9a5a74e439e1411139ae16b7cf67d2a2692\",\"dweb:/ipfs/QmZAnHyfpKr3xr7NWHj5sGaCEEtG8RtmHhkRUJJvNauym5\"],\"license\":\"MIT\"},\"src/structs/JB721Tier.sol\":{\"keccak256\":\"0x2e267a8af02f125465cdda9308477346ae4a94b024c3b2c2a6af0c00027944dd\",\"urls\":[\"bzz-raw://367ccea2c8fa815d498d771d4367ef1ded718a76e89644102034bfe4a3636b82\",\"dweb:/ipfs/QmYiFFa6ei9wZBSSVUHfY2Cb35zCDVXvbmLcgLj2BTiC1u\"],\"license\":\"MIT\"},\"src/structs/JB721TierConfig.sol\":{\"keccak256\":\"0x2fa9c5c8cec182b854a656d3b284e9d5306be35ad3dc4da79d65dca12b804af0\",\"urls\":[\"bzz-raw://b443a5f70195a66145ea1dade04454ce9a3ff1209e1aaecf53c8a9909b294d79\",\"dweb:/ipfs/QmUDPFZ4L6XpV3zLQUNVchUvecD4XfddKz2S46BKek5XL1\"],\"license\":\"MIT\"},\"src/structs/JB721TiersHookFlags.sol\":{\"keccak256\":\"0x283d8429f31bd58875c056515aa42abd09c95362bd929e85cfc44a0d92585766\",\"urls\":[\"bzz-raw://9a580b89fe99d9f8e930c58a4d0d63a5ff7c01c79d210af01373d066c9e72ed6\",\"dweb:/ipfs/QmdY1eSGSoTjv4KSdsG4Tm5CzJN6iqk3qTRga5ZWNbejRz\"],\"license\":\"MIT\"},\"src/structs/JB721TiersMintReservesConfig.sol\":{\"keccak256\":\"0xab3b319dc4e736586ae595de194d93dcdfeba365bc7a54cf6c37e697f6074ad9\",\"urls\":[\"bzz-raw://a84ae2cf2e8c3e39e831dbb39a67a8eb43c78a6de6bb78b1be2e1f1e80c69efe\",\"dweb:/ipfs/QmboGXEMqsYTxc4a7oft9rggNU7ShWSa9yB4HFMVmzXCHz\"],\"license\":\"MIT\"},\"src/structs/JB721TiersRulesetMetadata.sol\":{\"keccak256\":\"0x6720a6ada2a882f99afa050e40b6c925439da4339240565a0e706521b3aadc6b\",\"urls\":[\"bzz-raw://ede4a3165276d9d89eeea2dfd56f68d77dbfaedb738b30c8a0faa81c3a153b1b\",\"dweb:/ipfs/QmXa4QCb6K9MXxwNKed17VWeX9crKeMjkQnVk2xMARzh76\"],\"license\":\"MIT\"},\"src/structs/JBDeploy721TiersHookConfig.sol\":{\"keccak256\":\"0x4f0b8bbc19a405a096a16977fa1eedc0c56640ef777add89c050f989a62a6a35\",\"urls\":[\"bzz-raw://bd009c66aa748a2ce04720a6376683ce01ced3c0bd7f9534e145263aa49d95d3\",\"dweb:/ipfs/QmXyJCS1uQevdkw1Gc4UrRs8fZKtW9wPWFY9pxUWHKLo4e\"],\"license\":\"MIT\"}},\"version\":1}",
			"args": [
				"0x7c8Ef86687a0Bfa1882D2f25866Cd4EA354EeA3C",
				"0xB2C0Cf85FEf94012Bb4c5e0534B8A5E845BC6312",
				"0x989566Bf9fF4CffA55a98ADa7dc3E58b2a0a19c6",
				"0xB2b5841DBeF766d4b521221732F9B618fCf34A87"
			],
			"bytecode": "0x61010060405234801561001157600080fd5b50604051610e9c380380610e9c8339810160408190526100309161006b565b6001600160a01b0390811660805292831660a05290821660c0521660e0526100ca565b6001600160a01b038116811461006857600080fd5b50565b6000806000806080858703121561008157600080fd5b845161008c81610053565b602086015190945061009d81610053565b60408601519093506100ae81610053565b60608601519092506100bf81610053565b939692955090935050565b60805160a05160c05160e051610d786101246000396000818161014901526102fa01526000818160ac01526101f4015260008181610170015261019901526000818160de0152818161012001526104870152610d786000f3fe608060405234801561001057600080fd5b50600436106100725760003560e01c80637da0a877116100505780637da0a8771461011e57806389a56bbc14610144578063a54eb2421461016b57600080fd5b80632230819f14610077578063507f1465146100a7578063572b6c05146100ce575b600080fd5b61008a6100853660046108c9565b610192565b6040516001600160a01b0390911681526020015b60405180910390f35b61008a7f000000000000000000000000000000000000000000000000000000000000000081565b61010e6100dc366004610a1b565b7f00000000000000000000000000000000000000000000000000000000000000006001600160a01b0390811691161490565b604051901515815260200161009e565b7f000000000000000000000000000000000000000000000000000000000000000061008a565b61008a7f000000000000000000000000000000000000000000000000000000000000000081565b61008a7f000000000000000000000000000000000000000000000000000000000000000081565b60006101bd7f00000000000000000000000000000000000000000000000000000000000000006103f5565b9050806001600160a01b031663c07f2f9b84846000015185602001518660400151876060015188608001518960a001518a60c001517f00000000000000000000000000000000000000000000000000000000000000008c61010001516040518b63ffffffff1660e01b815260040161023e9a99989796959493929190610a85565b600060405180830381600087803b15801561025857600080fd5b505af115801561026c573d6000803e3d6000fd5b50505050806001600160a01b031663f2fde38b610287610480565b6040517fffffffff0000000000000000000000000000000000000000000000000000000060e084901b1681526001600160a01b039091166004820152602401600060405180830381600087803b1580156102e057600080fd5b505af11580156102f4573d6000803e3d6000fd5b505050507f00000000000000000000000000000000000000000000000000000000000000006001600160a01b031663b94417ab30600080815461033690610cb1565b91829055506040517fffffffff0000000000000000000000000000000000000000000000000000000060e085901b1681526001600160a01b0390921660048301526024820152604401600060405180830381600087803b15801561039957600080fd5b505af11580156103ad573d6000803e3d6000fd5b50506040516001600160a01b03841681528592507fa42f6bb68e81f4650a7966f109d861f6c3d2a477e608e30807f568bed1cebdb9915060200160405180910390a292915050565b6000763d602d80600a3d3981f3363d3d373d3d3d363d730000008260601b60e81c176000526e5af43d82803e903d91602b57fd5bf38260781b17602052603760096000f090506001600160a01b03811661047b576040517fc2f868f400000000000000000000000000000000000000000000000000000000815260040160405180910390fd5b919050565b60003660147f00000000000000000000000000000000000000000000000000000000000000006001600160a01b0316331480156104bd5750808210155b156104ed576000366104cf8385610cca565b6104da928290610ce3565b6104e391610d0d565b60601c9250505090565b339250505090565b634e487b7160e01b600052604160045260246000fd5b6040516080810167ffffffffffffffff8111828210171561052e5761052e6104f5565b60405290565b604051610180810167ffffffffffffffff8111828210171561052e5761052e6104f5565b604051610120810167ffffffffffffffff8111828210171561052e5761052e6104f5565b604051601f8201601f1916810167ffffffffffffffff811182821017156105a5576105a56104f5565b604052919050565b600082601f8301126105be57600080fd5b813567ffffffffffffffff8111156105d8576105d86104f5565b6105eb601f8201601f191660200161057c565b81815284602083860101111561060057600080fd5b816020850160208301376000918101602001919091529392505050565b6001600160a01b038116811461063257600080fd5b50565b803561047b8161061d565b80356cffffffffffffffffffffffffff8116811461047b57600080fd5b803563ffffffff8116811461047b57600080fd5b803561ffff8116811461047b57600080fd5b803562ffffff8116811461047b57600080fd5b8035801515811461047b57600080fd5b803560ff8116811461047b57600080fd5b600060808083850312156106ca57600080fd5b6106d261050b565b9150823567ffffffffffffffff808211156106ec57600080fd5b818501915085601f83011261070057600080fd5b8135602082821115610714576107146104f5565b610722818360051b0161057c565b828152818101935061018092830285018201928984111561074257600080fd5b948201945b838610156108355780868b03121561075f5760008081fd5b610767610534565b61077087610640565b815261077d84880161065d565b84820152604061078e81890161065d565b90820152606061079f888201610671565b908201526107ae878901610635565b8189015260a0878101359082015260c06107c9818901610683565b9082015260e06107da888201610696565b908201526101006107ec888201610696565b908201526101206107fe888201610696565b90820152610140610810888201610696565b90820152610160610822888201610696565b9082015285529485019493820193610747565b50865261084387820161065d565b818701525050505050610858604083016106a6565b604082015261086960608301610635565b606082015292915050565b60006080828403121561088657600080fd5b61088e61050b565b905061089982610696565b81526108a760208301610696565b60208201526108b860408301610696565b604082015261086960608301610696565b600080604083850312156108dc57600080fd5b82359150602083013567ffffffffffffffff808211156108fb57600080fd5b90840190610180828703121561091057600080fd5b610918610558565b82358281111561092757600080fd5b610933888286016105ad565b82525060208301358281111561094857600080fd5b610954888286016105ad565b60208301525061096660408401610635565b604082015260608301358281111561097d57600080fd5b610989888286016105ad565b60608301525061099b60808401610635565b608082015260a0830135828111156109b257600080fd5b6109be888286016105ad565b60a08301525060c0830135828111156109d657600080fd5b6109e2888286016106b7565b60c0830152506109f460e08401610635565b60e08201526101009150610a0a87838501610874565b828201528093505050509250929050565b600060208284031215610a2d57600080fd5b8135610a388161061d565b9392505050565b6000815180845260005b81811015610a6557602081850181015186830182015201610a49565b506000602082860101526020601f19601f83011685010191505092915050565b60006101a08c835260208181850152610aa08285018e610a3f565b91508382036040850152610ab4828d610a3f565b915060606001600160a01b03808d16606087015260808685036080880152610adc858e610a3f565b945060a0828d1660a089015260c0925087860360c0890152610afe868d610a3f565b955060e088870360e08a0152608087018c516080895281815180845260a08b0191508983019350600092505b80831015610bf657835180516cffffffffffffffffffffffffff168352808b015163ffffffff8116848d0152506040810151610b6e604085018263ffffffff169052565b508981015161ffff16838b0152878101516001600160a01b03168884015286810151878401528881015162ffffff16898401528581015115158684015261010080820151151590840152610120808201511515908401526101408082015115159084015261016090810151151590830152928901926001929092019161018090910190610b2a565b508e89015163ffffffff81168b8b0152975060408f01519850610c1e60408b018a60ff169052565b60608f01519850610c3a60608b018a6001600160a01b03169052565b6001600160a01b038e166101008d01529950610c5b98505050505050505050565b825115156101208301526020830151151561014083015260408301511515610160830152606083015115156101808301529b9a5050505050505050505050565b634e487b7160e01b600052601160045260246000fd5b600060018201610cc357610cc3610c9b565b5060010190565b81810381811115610cdd57610cdd610c9b565b92915050565b60008085851115610cf357600080fd5b83861115610d0057600080fd5b5050820193919092039150565b6bffffffffffffffffffffffff198135818116916014851015610d3a5780818660140360031b1b83161692505b50509291505056fea2646970667358221220b49b6a89586f4de00d7db1f371f8fd9faa0b4f792d1cc60de3dd4236d54166ec64736f6c63430008170033",
			"deployedBytecode": "0x608060405234801561001057600080fd5b50600436106100725760003560e01c80637da0a877116100505780637da0a8771461011e57806389a56bbc14610144578063a54eb2421461016b57600080fd5b80632230819f14610077578063507f1465146100a7578063572b6c05146100ce575b600080fd5b61008a6100853660046108c9565b610192565b6040516001600160a01b0390911681526020015b60405180910390f35b61008a7f000000000000000000000000b2c0cf85fef94012bb4c5e0534b8a5e845bc631281565b61010e6100dc366004610a1b565b7f000000000000000000000000b2b5841dbef766d4b521221732f9b618fcf34a876001600160a01b0390811691161490565b604051901515815260200161009e565b7f000000000000000000000000b2b5841dbef766d4b521221732f9b618fcf34a8761008a565b61008a7f000000000000000000000000989566bf9ff4cffa55a98ada7dc3e58b2a0a19c681565b61008a7f0000000000000000000000007c8ef86687a0bfa1882d2f25866cd4ea354eea3c81565b60006101bd7f0000000000000000000000007c8ef86687a0bfa1882d2f25866cd4ea354eea3c6103f5565b9050806001600160a01b031663c07f2f9b84846000015185602001518660400151876060015188608001518960a001518a60c001517f000000000000000000000000b2c0cf85fef94012bb4c5e0534b8a5e845bc63128c61010001516040518b63ffffffff1660e01b815260040161023e9a99989796959493929190610a85565b600060405180830381600087803b15801561025857600080fd5b505af115801561026c573d6000803e3d6000fd5b50505050806001600160a01b031663f2fde38b610287610480565b6040517fffffffff0000000000000000000000000000000000000000000000000000000060e084901b1681526001600160a01b039091166004820152602401600060405180830381600087803b1580156102e057600080fd5b505af11580156102f4573d6000803e3d6000fd5b505050507f000000000000000000000000989566bf9ff4cffa55a98ada7dc3e58b2a0a19c66001600160a01b031663b94417ab30600080815461033690610cb1565b91829055506040517fffffffff0000000000000000000000000000000000000000000000000000000060e085901b1681526001600160a01b0390921660048301526024820152604401600060405180830381600087803b15801561039957600080fd5b505af11580156103ad573d6000803e3d6000fd5b50506040516001600160a01b03841681528592507fa42f6bb68e81f4650a7966f109d861f6c3d2a477e608e30807f568bed1cebdb9915060200160405180910390a292915050565b6000763d602d80600a3d3981f3363d3d373d3d3d363d730000008260601b60e81c176000526e5af43d82803e903d91602b57fd5bf38260781b17602052603760096000f090506001600160a01b03811661047b576040517fc2f868f400000000000000000000000000000000000000000000000000000000815260040160405180910390fd5b919050565b60003660147f000000000000000000000000b2b5841dbef766d4b521221732f9b618fcf34a876001600160a01b0316331480156104bd5750808210155b156104ed576000366104cf8385610cca565b6104da928290610ce3565b6104e391610d0d565b60601c9250505090565b339250505090565b634e487b7160e01b600052604160045260246000fd5b6040516080810167ffffffffffffffff8111828210171561052e5761052e6104f5565b60405290565b604051610180810167ffffffffffffffff8111828210171561052e5761052e6104f5565b604051610120810167ffffffffffffffff8111828210171561052e5761052e6104f5565b604051601f8201601f1916810167ffffffffffffffff811182821017156105a5576105a56104f5565b604052919050565b600082601f8301126105be57600080fd5b813567ffffffffffffffff8111156105d8576105d86104f5565b6105eb601f8201601f191660200161057c565b81815284602083860101111561060057600080fd5b816020850160208301376000918101602001919091529392505050565b6001600160a01b038116811461063257600080fd5b50565b803561047b8161061d565b80356cffffffffffffffffffffffffff8116811461047b57600080fd5b803563ffffffff8116811461047b57600080fd5b803561ffff8116811461047b57600080fd5b803562ffffff8116811461047b57600080fd5b8035801515811461047b57600080fd5b803560ff8116811461047b57600080fd5b600060808083850312156106ca57600080fd5b6106d261050b565b9150823567ffffffffffffffff808211156106ec57600080fd5b818501915085601f83011261070057600080fd5b8135602082821115610714576107146104f5565b610722818360051b0161057c565b828152818101935061018092830285018201928984111561074257600080fd5b948201945b838610156108355780868b03121561075f5760008081fd5b610767610534565b61077087610640565b815261077d84880161065d565b84820152604061078e81890161065d565b90820152606061079f888201610671565b908201526107ae878901610635565b8189015260a0878101359082015260c06107c9818901610683565b9082015260e06107da888201610696565b908201526101006107ec888201610696565b908201526101206107fe888201610696565b90820152610140610810888201610696565b90820152610160610822888201610696565b9082015285529485019493820193610747565b50865261084387820161065d565b818701525050505050610858604083016106a6565b604082015261086960608301610635565b606082015292915050565b60006080828403121561088657600080fd5b61088e61050b565b905061089982610696565b81526108a760208301610696565b60208201526108b860408301610696565b604082015261086960608301610696565b600080604083850312156108dc57600080fd5b82359150602083013567ffffffffffffffff808211156108fb57600080fd5b90840190610180828703121561091057600080fd5b610918610558565b82358281111561092757600080fd5b610933888286016105ad565b82525060208301358281111561094857600080fd5b610954888286016105ad565b60208301525061096660408401610635565b604082015260608301358281111561097d57600080fd5b610989888286016105ad565b60608301525061099b60808401610635565b608082015260a0830135828111156109b257600080fd5b6109be888286016105ad565b60a08301525060c0830135828111156109d657600080fd5b6109e2888286016106b7565b60c0830152506109f460e08401610635565b60e08201526101009150610a0a87838501610874565b828201528093505050509250929050565b600060208284031215610a2d57600080fd5b8135610a388161061d565b9392505050565b6000815180845260005b81811015610a6557602081850181015186830182015201610a49565b506000602082860101526020601f19601f83011685010191505092915050565b60006101a08c835260208181850152610aa08285018e610a3f565b91508382036040850152610ab4828d610a3f565b915060606001600160a01b03808d16606087015260808685036080880152610adc858e610a3f565b945060a0828d1660a089015260c0925087860360c0890152610afe868d610a3f565b955060e088870360e08a0152608087018c516080895281815180845260a08b0191508983019350600092505b80831015610bf657835180516cffffffffffffffffffffffffff168352808b015163ffffffff8116848d0152506040810151610b6e604085018263ffffffff169052565b508981015161ffff16838b0152878101516001600160a01b03168884015286810151878401528881015162ffffff16898401528581015115158684015261010080820151151590840152610120808201511515908401526101408082015115159084015261016090810151151590830152928901926001929092019161018090910190610b2a565b508e89015163ffffffff81168b8b0152975060408f01519850610c1e60408b018a60ff169052565b60608f01519850610c3a60608b018a6001600160a01b03169052565b6001600160a01b038e166101008d01529950610c5b98505050505050505050565b825115156101208301526020830151151561014083015260408301511515610160830152606083015115156101808301529b9a5050505050505050505050565b634e487b7160e01b600052601160045260246000fd5b600060018201610cc357610cc3610c9b565b5060010190565b81810381811115610cdd57610cdd610c9b565b92915050565b60008085851115610cf357600080fd5b83861115610d0057600080fd5b5050820193919092039150565b6bffffffffffffffffffffffff198135818116916014851015610d3a5780818660140360031b1b83161692505b50509291505056fea2646970667358221220b49b6a89586f4de00d7db1f371f8fd9faa0b4f792d1cc60de3dd4236d54166ec64736f6c63430008170033",
			"devdoc": {
				"kind": "dev",
				"methods": {
					"constructor": {
						"params": {
							"addressRegistry": "A registry which stores references to contracts and their deployers.",
							"hook": "Reference copy of a hook."
						}
					},
					"deployHookFor(uint256,(string,string,address,string,address,string,((uint104,uint32,uint32,uint16,address,bytes32,uint24,bool,bool,bool,bool,bool)[],uint32,uint8,address),address,(bool,bool,bool,bool)))": {
						"params": {
							"deployTiersHookConfig": "The config to deploy the hook with, which determines its behavior.",
							"projectId": "The ID of the project to deploy the hook for."
						},
						"returns": {
							"newHook": "The address of the newly deployed hook."
						}
					},
					"isTrustedForwarder(address)": {
						"details": "Indicates whether any particular address is the trusted forwarder."
					},
					"trustedForwarder()": {
						"details": "Returns the address of the trusted forwarder."
					}
				},
				"version": 1
			},
			"userdoc": {
				"kind": "user",
				"methods": {
					"ADDRESS_REGISTRY()": {
						"notice": "A registry which stores references to contracts and their deployers."
					},
					"HOOK()": {
						"notice": "A 721 tiers hook."
					},
					"STORE()": {
						"notice": "The contract that stores and manages data for this contract's NFTs."
					},
					"deployHookFor(uint256,(string,string,address,string,address,string,((uint104,uint32,uint32,uint16,address,bytes32,uint24,bool,bool,bool,bool,bool)[],uint32,uint8,address),address,(bool,bool,bool,bool)))": {
						"notice": "Deploys a 721 tiers hook for the specified project."
					}
				},
				"version": 1
			},
			"gitCommit": "7cd9386d18054eea5868b73e2020f354d1964621",
			"sourceName": "src/JB721TiersHookDeployer.sol",
			"chainId": "11155420",
			"linkReferences": {},
			"deployedLinkReferences": {}
		},
		{
			"_format": "sphinx-sol-ct-artifact-1",
			"merkleRoot": "0xb0a2f35b7b91c0300e1a2ec6d4a6168edf36825dd79df224704252849165ffd5",
			"contractName": "JB721TiersHookDeployer",
			"address": "0x1261006793208a11bE4d298Cd15C26616677a576",
			"abi": [
				{
					"type": "constructor",
					"inputs": [
						{
							"name": "hook",
							"type": "address",
							"internalType": "contract JB721TiersHook"
						},
						{
							"name": "store",
							"type": "address",
							"internalType": "contract IJB721TiersHookStore"
						},
						{
							"name": "addressRegistry",
							"type": "address",
							"internalType": "contract IJBAddressRegistry"
						},
						{
							"name": "trustedForwarder",
							"type": "address",
							"internalType": "address"
						}
					],
					"stateMutability": "nonpayable"
				},
				{
					"type": "function",
					"name": "ADDRESS_REGISTRY",
					"inputs": [],
					"outputs": [
						{
							"name": "",
							"type": "address",
							"internalType": "contract IJBAddressRegistry"
						}
					],
					"stateMutability": "view"
				},
				{
					"type": "function",
					"name": "HOOK",
					"inputs": [],
					"outputs": [
						{
							"name": "",
							"type": "address",
							"internalType": "contract JB721TiersHook"
						}
					],
					"stateMutability": "view"
				},
				{
					"type": "function",
					"name": "STORE",
					"inputs": [],
					"outputs": [
						{
							"name": "",
							"type": "address",
							"internalType": "contract IJB721TiersHookStore"
						}
					],
					"stateMutability": "view"
				},
				{
					"type": "function",
					"name": "deployHookFor",
					"inputs": [
						{
							"name": "projectId",
							"type": "uint256",
							"internalType": "uint256"
						},
						{
							"name": "deployTiersHookConfig",
							"type": "tuple",
							"internalType": "struct JBDeploy721TiersHookConfig",
							"components": [
								{
									"name": "name",
									"type": "string",
									"internalType": "string"
								},
								{
									"name": "symbol",
									"type": "string",
									"internalType": "string"
								},
								{
									"name": "rulesets",
									"type": "address",
									"internalType": "contract IJBRulesets"
								},
								{
									"name": "baseUri",
									"type": "string",
									"internalType": "string"
								},
								{
									"name": "tokenUriResolver",
									"type": "address",
									"internalType": "contract IJB721TokenUriResolver"
								},
								{
									"name": "contractUri",
									"type": "string",
									"internalType": "string"
								},
								{
									"name": "tiersConfig",
									"type": "tuple",
									"internalType": "struct JB721InitTiersConfig",
									"components": [
										{
											"name": "tiers",
											"type": "tuple[]",
											"internalType": "struct JB721TierConfig[]",
											"components": [
												{
													"name": "price",
													"type": "uint104",
													"internalType": "uint104"
												},
												{
													"name": "initialSupply",
													"type": "uint32",
													"internalType": "uint32"
												},
												{
													"name": "votingUnits",
													"type": "uint32",
													"internalType": "uint32"
												},
												{
													"name": "reserveFrequency",
													"type": "uint16",
													"internalType": "uint16"
												},
												{
													"name": "reserveBeneficiary",
													"type": "address",
													"internalType": "address"
												},
												{
													"name": "encodedIPFSUri",
													"type": "bytes32",
													"internalType": "bytes32"
												},
												{
													"name": "category",
													"type": "uint24",
													"internalType": "uint24"
												},
												{
													"name": "allowOwnerMint",
													"type": "bool",
													"internalType": "bool"
												},
												{
													"name": "useReserveBeneficiaryAsDefault",
													"type": "bool",
													"internalType": "bool"
												},
												{
													"name": "transfersPausable",
													"type": "bool",
													"internalType": "bool"
												},
												{
													"name": "useVotingUnits",
													"type": "bool",
													"internalType": "bool"
												},
												{
													"name": "cannotBeRemoved",
													"type": "bool",
													"internalType": "bool"
												}
											]
										},
										{
											"name": "currency",
											"type": "uint32",
											"internalType": "uint32"
										},
										{
											"name": "decimals",
											"type": "uint8",
											"internalType": "uint8"
										},
										{
											"name": "prices",
											"type": "address",
											"internalType": "contract IJBPrices"
										}
									]
								},
								{
									"name": "reserveBeneficiary",
									"type": "address",
									"internalType": "address"
								},
								{
									"name": "flags",
									"type": "tuple",
									"internalType": "struct JB721TiersHookFlags",
									"components": [
										{
											"name": "noNewTiersWithReserves",
											"type": "bool",
											"internalType": "bool"
										},
										{
											"name": "noNewTiersWithVotes",
											"type": "bool",
											"internalType": "bool"
										},
										{
											"name": "noNewTiersWithOwnerMinting",
											"type": "bool",
											"internalType": "bool"
										},
										{
											"name": "preventOverspending",
											"type": "bool",
											"internalType": "bool"
										}
									]
								}
							]
						}
					],
					"outputs": [
						{
							"name": "newHook",
							"type": "address",
							"internalType": "contract IJB721TiersHook"
						}
					],
					"stateMutability": "nonpayable"
				},
				{
					"type": "function",
					"name": "isTrustedForwarder",
					"inputs": [
						{
							"name": "forwarder",
							"type": "address",
							"internalType": "address"
						}
					],
					"outputs": [
						{
							"name": "",
							"type": "bool",
							"internalType": "bool"
						}
					],
					"stateMutability": "view"
				},
				{
					"type": "function",
					"name": "trustedForwarder",
					"inputs": [],
					"outputs": [
						{
							"name": "",
							"type": "address",
							"internalType": "address"
						}
					],
					"stateMutability": "view"
				},
				{
					"type": "event",
					"name": "HookDeployed",
					"inputs": [
						{
							"name": "projectId",
							"type": "uint256",
							"indexed": true,
							"internalType": "uint256"
						},
						{
							"name": "newHook",
							"type": "address",
							"indexed": false,
							"internalType": "contract IJB721TiersHook"
						}
					],
					"anonymous": false
				},
				{
					"type": "error",
					"name": "ERC1167FailedCreateClone",
					"inputs": []
				}
			],
			"solcInputHash": "b46b22692365eb6ea854b34070bdd22b",
			"receipt": {
				"blockHash": "0xdb13b0ae94d146e82f859acc062621a46cbb9e0f8dc6c7af1bcd468ee4976410",
				"blockNumber": 10496627,
				"contractAddress": null,
				"cumulativeGasUsed": "12618379",
				"from": "0xC034550B542b83BA1De312b21d1C94a9a52B1595",
				"gasPrice": "1000252",
				"gasUsed": "12574504",
				"hash": "0x50e9730a5cc797394a8fd8cef84165e05c2e4764c14a90a60a59ec861877f452",
				"index": 1,
				"logs": [
					{
						"address": "0xB5E96127D417b1B3ef8438496a38A143167209c7",
						"blockHash": "0xdb13b0ae94d146e82f859acc062621a46cbb9e0f8dc6c7af1bcd468ee4976410",
						"blockNumber": 10496627,
						"data": "0x0000000000000000000000000000000000000000000000000000000000000000",
						"index": 0,
						"topics": [
							"0x572f161235911da04685a68c06adf558fc7e4a36909dca394650e0adc19cc93d",
							"0x000000000000000000000000c034550b542b83ba1de312b21d1c94a9a52b1595",
							"0x000000000000000000000000582b73e9f9ec9fa3ff32b83cfd7e2810a63bbcdb",
							"0xf58b7f8642e843d430e20b6522393db9935aee574dad7dbfc7f950e27f53006a"
						],
						"transactionHash": "0x50e9730a5cc797394a8fd8cef84165e05c2e4764c14a90a60a59ec861877f452",
						"transactionIndex": 1
					},
					{
						"address": "0x89BeB14760384C532b587eE00bB42EE307f17e47",
						"blockHash": "0xdb13b0ae94d146e82f859acc062621a46cbb9e0f8dc6c7af1bcd468ee4976410",
						"blockNumber": 10496627,
						"data": "0x",
						"index": 1,
						"topics": [
							"0x6895c13664aa4f67288b25d7a21d7aaa34916e355fb9b6fae0a139a9085becb8",
							"0x000000000000000000000000582b73e9f9ec9fa3ff32b83cfd7e2810a63bbcdb"
						],
						"transactionHash": "0x50e9730a5cc797394a8fd8cef84165e05c2e4764c14a90a60a59ec861877f452",
						"transactionIndex": 1
					},
					{
						"address": "0x582b73e9F9EC9fa3fF32b83CFD7E2810a63BBCdB",
						"blockHash": "0xdb13b0ae94d146e82f859acc062621a46cbb9e0f8dc6c7af1bcd468ee4976410",
						"blockNumber": 10496627,
						"data": "0x0000000000000000000000000000000000000000000000000000000000000001",
						"index": 2,
						"topics": [
							"0xa65fb05c5808f5f389d72edeaf719ce38f4cc55c1f69ca3cbfb31c21501caa07",
							"0xb0a2f35b7b91c0300e1a2ec6d4a6168edf36825dd79df224704252849165ffd5"
						],
						"transactionHash": "0x50e9730a5cc797394a8fd8cef84165e05c2e4764c14a90a60a59ec861877f452",
						"transactionIndex": 1
					},
					{
						"address": "0xF6897B40515AE4E66aCD58aabB76ac143E833C6d",
						"blockHash": "0xdb13b0ae94d146e82f859acc062621a46cbb9e0f8dc6c7af1bcd468ee4976410",
						"blockNumber": 10496627,
						"data": "0x",
						"index": 3,
						"topics": [
							"0x8be0079c531659141344cd1fd0a4f28419497f9722a3daafe3b4186f6b6457e0",
							"0x0000000000000000000000000000000000000000000000000000000000000000",
							"0x0000000000000000000000004e59b44847b379578588920ca78fbf26c0b4956c"
						],
						"transactionHash": "0x50e9730a5cc797394a8fd8cef84165e05c2e4764c14a90a60a59ec861877f452",
						"transactionIndex": 1
					},
					{
						"address": "0x89BeB14760384C532b587eE00bB42EE307f17e47",
						"blockHash": "0xdb13b0ae94d146e82f859acc062621a46cbb9e0f8dc6c7af1bcd468ee4976410",
						"blockNumber": 10496627,
						"data": "0x",
						"index": 4,
						"topics": [
							"0x6895c13664aa4f67288b25d7a21d7aaa34916e355fb9b6fae0a139a9085becb8",
							"0x000000000000000000000000582b73e9f9ec9fa3ff32b83cfd7e2810a63bbcdb"
						],
						"transactionHash": "0x50e9730a5cc797394a8fd8cef84165e05c2e4764c14a90a60a59ec861877f452",
						"transactionIndex": 1
					},
					{
						"address": "0x582b73e9F9EC9fa3fF32b83CFD7E2810a63BBCdB",
						"blockHash": "0xdb13b0ae94d146e82f859acc062621a46cbb9e0f8dc6c7af1bcd468ee4976410",
						"blockNumber": 10496627,
						"data": "0x0000000000000000000000000000000000000000000000000000000000000002",
						"index": 5,
						"topics": [
							"0xa65fb05c5808f5f389d72edeaf719ce38f4cc55c1f69ca3cbfb31c21501caa07",
							"0xb0a2f35b7b91c0300e1a2ec6d4a6168edf36825dd79df224704252849165ffd5"
						],
						"transactionHash": "0x50e9730a5cc797394a8fd8cef84165e05c2e4764c14a90a60a59ec861877f452",
						"transactionIndex": 1
					},
					{
						"address": "0x89BeB14760384C532b587eE00bB42EE307f17e47",
						"blockHash": "0xdb13b0ae94d146e82f859acc062621a46cbb9e0f8dc6c7af1bcd468ee4976410",
						"blockNumber": 10496627,
						"data": "0x",
						"index": 6,
						"topics": [
							"0x6895c13664aa4f67288b25d7a21d7aaa34916e355fb9b6fae0a139a9085becb8",
							"0x000000000000000000000000582b73e9f9ec9fa3ff32b83cfd7e2810a63bbcdb"
						],
						"transactionHash": "0x50e9730a5cc797394a8fd8cef84165e05c2e4764c14a90a60a59ec861877f452",
						"transactionIndex": 1
					},
					{
						"address": "0x582b73e9F9EC9fa3fF32b83CFD7E2810a63BBCdB",
						"blockHash": "0xdb13b0ae94d146e82f859acc062621a46cbb9e0f8dc6c7af1bcd468ee4976410",
						"blockNumber": 10496627,
						"data": "0x0000000000000000000000000000000000000000000000000000000000000003",
						"index": 7,
						"topics": [
							"0xa65fb05c5808f5f389d72edeaf719ce38f4cc55c1f69ca3cbfb31c21501caa07",
							"0xb0a2f35b7b91c0300e1a2ec6d4a6168edf36825dd79df224704252849165ffd5"
						],
						"transactionHash": "0x50e9730a5cc797394a8fd8cef84165e05c2e4764c14a90a60a59ec861877f452",
						"transactionIndex": 1
					},
					{
						"address": "0x89BeB14760384C532b587eE00bB42EE307f17e47",
						"blockHash": "0xdb13b0ae94d146e82f859acc062621a46cbb9e0f8dc6c7af1bcd468ee4976410",
						"blockNumber": 10496627,
						"data": "0x",
						"index": 8,
						"topics": [
							"0x6895c13664aa4f67288b25d7a21d7aaa34916e355fb9b6fae0a139a9085becb8",
							"0x000000000000000000000000582b73e9f9ec9fa3ff32b83cfd7e2810a63bbcdb"
						],
						"transactionHash": "0x50e9730a5cc797394a8fd8cef84165e05c2e4764c14a90a60a59ec861877f452",
						"transactionIndex": 1
					},
					{
						"address": "0x582b73e9F9EC9fa3fF32b83CFD7E2810a63BBCdB",
						"blockHash": "0xdb13b0ae94d146e82f859acc062621a46cbb9e0f8dc6c7af1bcd468ee4976410",
						"blockNumber": 10496627,
						"data": "0x0000000000000000000000000000000000000000000000000000000000000004",
						"index": 9,
						"topics": [
							"0xa65fb05c5808f5f389d72edeaf719ce38f4cc55c1f69ca3cbfb31c21501caa07",
							"0xb0a2f35b7b91c0300e1a2ec6d4a6168edf36825dd79df224704252849165ffd5"
						],
						"transactionHash": "0x50e9730a5cc797394a8fd8cef84165e05c2e4764c14a90a60a59ec861877f452",
						"transactionIndex": 1
					},
					{
						"address": "0x89BeB14760384C532b587eE00bB42EE307f17e47",
						"blockHash": "0xdb13b0ae94d146e82f859acc062621a46cbb9e0f8dc6c7af1bcd468ee4976410",
						"blockNumber": 10496627,
						"data": "0x",
						"index": 10,
						"topics": [
							"0x6895c13664aa4f67288b25d7a21d7aaa34916e355fb9b6fae0a139a9085becb8",
							"0x000000000000000000000000582b73e9f9ec9fa3ff32b83cfd7e2810a63bbcdb"
						],
						"transactionHash": "0x50e9730a5cc797394a8fd8cef84165e05c2e4764c14a90a60a59ec861877f452",
						"transactionIndex": 1
					},
					{
						"address": "0x582b73e9F9EC9fa3fF32b83CFD7E2810a63BBCdB",
						"blockHash": "0xdb13b0ae94d146e82f859acc062621a46cbb9e0f8dc6c7af1bcd468ee4976410",
						"blockNumber": 10496627,
						"data": "0x0000000000000000000000000000000000000000000000000000000000000005",
						"index": 11,
						"topics": [
							"0xa65fb05c5808f5f389d72edeaf719ce38f4cc55c1f69ca3cbfb31c21501caa07",
							"0xb0a2f35b7b91c0300e1a2ec6d4a6168edf36825dd79df224704252849165ffd5"
						],
						"transactionHash": "0x50e9730a5cc797394a8fd8cef84165e05c2e4764c14a90a60a59ec861877f452",
						"transactionIndex": 1
					},
					{
						"address": "0x582b73e9F9EC9fa3fF32b83CFD7E2810a63BBCdB",
						"blockHash": "0xdb13b0ae94d146e82f859acc062621a46cbb9e0f8dc6c7af1bcd468ee4976410",
						"blockNumber": 10496627,
						"data": "0x",
						"index": 12,
						"topics": [
							"0x4383d976757d67ca920616be0b6430a681ea9d3dcce8d6d61d4603ca4a9bff63",
							"0xb0a2f35b7b91c0300e1a2ec6d4a6168edf36825dd79df224704252849165ffd5"
						],
						"transactionHash": "0x50e9730a5cc797394a8fd8cef84165e05c2e4764c14a90a60a59ec861877f452",
						"transactionIndex": 1
					}
				],
				"logsBloom": "0x00000000080010000040800000080000000000000008000000800000004000000000000000000000000000000040000100000000000000000000001000100000000000000000200000000000000000000001000000000000000000000000000000000000020000000000000000000800000000010000000008000000000000400000000000000000000100000000000000000000001400400000000000000000004000800011000000000000000000020200000008020000000400000004000000004000000000000000000008000000000000000000000000000000000020800000000000400008000200008000000280000000000000000000004008000000",
				"status": 1,
				"to": "0xB5E96127D417b1B3ef8438496a38A143167209c7"
			},
			"metadata": "{\"compiler\":{\"version\":\"0.8.23+commit.f704f362\"},\"language\":\"Solidity\",\"output\":{\"abi\":[{\"inputs\":[{\"internalType\":\"contract JB721TiersHook\",\"name\":\"hook\",\"type\":\"address\"},{\"internalType\":\"contract IJB721TiersHookStore\",\"name\":\"store\",\"type\":\"address\"},{\"internalType\":\"contract IJBAddressRegistry\",\"name\":\"addressRegistry\",\"type\":\"address\"},{\"internalType\":\"address\",\"name\":\"trustedForwarder\",\"type\":\"address\"}],\"stateMutability\":\"nonpayable\",\"type\":\"constructor\"},{\"inputs\":[],\"type\":\"error\",\"name\":\"ERC1167FailedCreateClone\"},{\"inputs\":[{\"internalType\":\"uint256\",\"name\":\"projectId\",\"type\":\"uint256\",\"indexed\":true},{\"internalType\":\"contract IJB721TiersHook\",\"name\":\"newHook\",\"type\":\"address\",\"indexed\":false}],\"type\":\"event\",\"name\":\"HookDeployed\",\"anonymous\":false},{\"inputs\":[],\"stateMutability\":\"view\",\"type\":\"function\",\"name\":\"ADDRESS_REGISTRY\",\"outputs\":[{\"internalType\":\"contract IJBAddressRegistry\",\"name\":\"\",\"type\":\"address\"}]},{\"inputs\":[],\"stateMutability\":\"view\",\"type\":\"function\",\"name\":\"HOOK\",\"outputs\":[{\"internalType\":\"contract JB721TiersHook\",\"name\":\"\",\"type\":\"address\"}]},{\"inputs\":[],\"stateMutability\":\"view\",\"type\":\"function\",\"name\":\"STORE\",\"outputs\":[{\"internalType\":\"contract IJB721TiersHookStore\",\"name\":\"\",\"type\":\"address\"}]},{\"inputs\":[{\"internalType\":\"uint256\",\"name\":\"projectId\",\"type\":\"uint256\"},{\"internalType\":\"struct JBDeploy721TiersHookConfig\",\"name\":\"deployTiersHookConfig\",\"type\":\"tuple\",\"components\":[{\"internalType\":\"string\",\"name\":\"name\",\"type\":\"string\"},{\"internalType\":\"string\",\"name\":\"symbol\",\"type\":\"string\"},{\"internalType\":\"contract IJBRulesets\",\"name\":\"rulesets\",\"type\":\"address\"},{\"internalType\":\"string\",\"name\":\"baseUri\",\"type\":\"string\"},{\"internalType\":\"contract IJB721TokenUriResolver\",\"name\":\"tokenUriResolver\",\"type\":\"address\"},{\"internalType\":\"string\",\"name\":\"contractUri\",\"type\":\"string\"},{\"internalType\":\"struct JB721InitTiersConfig\",\"name\":\"tiersConfig\",\"type\":\"tuple\",\"components\":[{\"internalType\":\"struct JB721TierConfig[]\",\"name\":\"tiers\",\"type\":\"tuple[]\",\"components\":[{\"internalType\":\"uint104\",\"name\":\"price\",\"type\":\"uint104\"},{\"internalType\":\"uint32\",\"name\":\"initialSupply\",\"type\":\"uint32\"},{\"internalType\":\"uint32\",\"name\":\"votingUnits\",\"type\":\"uint32\"},{\"internalType\":\"uint16\",\"name\":\"reserveFrequency\",\"type\":\"uint16\"},{\"internalType\":\"address\",\"name\":\"reserveBeneficiary\",\"type\":\"address\"},{\"internalType\":\"bytes32\",\"name\":\"encodedIPFSUri\",\"type\":\"bytes32\"},{\"internalType\":\"uint24\",\"name\":\"category\",\"type\":\"uint24\"},{\"internalType\":\"bool\",\"name\":\"allowOwnerMint\",\"type\":\"bool\"},{\"internalType\":\"bool\",\"name\":\"useReserveBeneficiaryAsDefault\",\"type\":\"bool\"},{\"internalType\":\"bool\",\"name\":\"transfersPausable\",\"type\":\"bool\"},{\"internalType\":\"bool\",\"name\":\"useVotingUnits\",\"type\":\"bool\"},{\"internalType\":\"bool\",\"name\":\"cannotBeRemoved\",\"type\":\"bool\"}]},{\"internalType\":\"uint32\",\"name\":\"currency\",\"type\":\"uint32\"},{\"internalType\":\"uint8\",\"name\":\"decimals\",\"type\":\"uint8\"},{\"internalType\":\"contract IJBPrices\",\"name\":\"prices\",\"type\":\"address\"}]},{\"internalType\":\"address\",\"name\":\"reserveBeneficiary\",\"type\":\"address\"},{\"internalType\":\"struct JB721TiersHookFlags\",\"name\":\"flags\",\"type\":\"tuple\",\"components\":[{\"internalType\":\"bool\",\"name\":\"noNewTiersWithReserves\",\"type\":\"bool\"},{\"internalType\":\"bool\",\"name\":\"noNewTiersWithVotes\",\"type\":\"bool\"},{\"internalType\":\"bool\",\"name\":\"noNewTiersWithOwnerMinting\",\"type\":\"bool\"},{\"internalType\":\"bool\",\"name\":\"preventOverspending\",\"type\":\"bool\"}]}]}],\"stateMutability\":\"nonpayable\",\"type\":\"function\",\"name\":\"deployHookFor\",\"outputs\":[{\"internalType\":\"contract IJB721TiersHook\",\"name\":\"newHook\",\"type\":\"address\"}]},{\"inputs\":[{\"internalType\":\"address\",\"name\":\"forwarder\",\"type\":\"address\"}],\"stateMutability\":\"view\",\"type\":\"function\",\"name\":\"isTrustedForwarder\",\"outputs\":[{\"internalType\":\"bool\",\"name\":\"\",\"type\":\"bool\"}]},{\"inputs\":[],\"stateMutability\":\"view\",\"type\":\"function\",\"name\":\"trustedForwarder\",\"outputs\":[{\"internalType\":\"address\",\"name\":\"\",\"type\":\"address\"}]}],\"devdoc\":{\"kind\":\"dev\",\"methods\":{\"constructor\":{\"params\":{\"addressRegistry\":\"A registry which stores references to contracts and their deployers.\",\"hook\":\"Reference copy of a hook.\"}},\"deployHookFor(uint256,(string,string,address,string,address,string,((uint104,uint32,uint32,uint16,address,bytes32,uint24,bool,bool,bool,bool,bool)[],uint32,uint8,address),address,(bool,bool,bool,bool)))\":{\"params\":{\"deployTiersHookConfig\":\"The config to deploy the hook with, which determines its behavior.\",\"projectId\":\"The ID of the project to deploy the hook for.\"},\"returns\":{\"newHook\":\"The address of the newly deployed hook.\"}},\"isTrustedForwarder(address)\":{\"details\":\"Indicates whether any particular address is the trusted forwarder.\"},\"trustedForwarder()\":{\"details\":\"Returns the address of the trusted forwarder.\"}},\"version\":1},\"userdoc\":{\"kind\":\"user\",\"methods\":{\"ADDRESS_REGISTRY()\":{\"notice\":\"A registry which stores references to contracts and their deployers.\"},\"HOOK()\":{\"notice\":\"A 721 tiers hook.\"},\"STORE()\":{\"notice\":\"The contract that stores and manages data for this contract's NFTs.\"},\"deployHookFor(uint256,(string,string,address,string,address,string,((uint104,uint32,uint32,uint16,address,bytes32,uint24,bool,bool,bool,bool,bool)[],uint32,uint8,address),address,(bool,bool,bool,bool)))\":{\"notice\":\"Deploys a 721 tiers hook for the specified project.\"}},\"version\":1}},\"settings\":{\"remappings\":[\"@bananapus/=node_modules/@bananapus/\",\"@chainlink/=node_modules/@chainlink/\",\"@eth-optimism/=node_modules/@eth-optimism/\",\"@openzeppelin/=node_modules/@openzeppelin/\",\"@prb/=node_modules/@prb/\",\"@scroll-tech/=node_modules/@scroll-tech/\",\"@sphinx-labs/contracts/=node_modules/@sphinx-labs/contracts/contracts/foundry/\",\"@uniswap/=node_modules/@uniswap/\",\"ds-test/=lib/forge-std/lib/ds-test/src/\",\"forge-std/=lib/forge-std/src/\",\"hardhat/=node_modules/hardhat/\",\"solmate/=node_modules/solmate/\",\"sphinx/=lib/sphinx/packages/contracts/contracts/forge-std/src/\"],\"optimizer\":{\"enabled\":true,\"runs\":1000},\"metadata\":{\"bytecodeHash\":\"ipfs\"},\"compilationTarget\":{\"src/JB721TiersHookDeployer.sol\":\"JB721TiersHookDeployer\"},\"evmVersion\":\"paris\",\"libraries\":{}},\"sources\":{\"node_modules/@bananapus/address-registry/src/interfaces/IJBAddressRegistry.sol\":{\"keccak256\":\"0x33ab082cbb870d8ff950f56db686911b39d090432bc8c09a6b3434aedcb58936\",\"urls\":[\"bzz-raw://cd98fcdc58cf9af46571656b44ff0dc5d94c9a1c6e5c8eb07b1153bfd1bc4206\",\"dweb:/ipfs/Qmcm36zeucynBTTj7q3BVLmZF9CG3X7cGKDPdo9JchVYa9\"],\"license\":\"MIT\"},\"node_modules/@bananapus/core/src/abstract/JBPermissioned.sol\":{\"keccak256\":\"0xe08c8a7eeac9d1c7c2e0db6d5b98d1af09889300835a3d47d9f29319fecce703\",\"urls\":[\"bzz-raw://42645cf52bcc45053ef650790916faed5d0a74cecef336b217433fdd2c5c4166\",\"dweb:/ipfs/QmdMmxG1tSGucQwz4LYbVnuj7HU23YvqLH6xfrNWv5Bmus\"],\"license\":\"MIT\"},\"node_modules/@bananapus/core/src/enums/JBApprovalStatus.sol\":{\"keccak256\":\"0x61c69b6bac7d24b566d87cda23a77e4ca9cdb87200b106aba8534cb9a0973e33\",\"urls\":[\"bzz-raw://6a9ca7249de76f77a8252eefe6bd1b63d47952f25a2acfa2c8db967cdff4470c\",\"dweb:/ipfs/QmaxSxptRQNj8bNy96EreENmrnRWdKmhyihBcxyWzBX5BN\"],\"license\":\"MIT\"},\"node_modules/@bananapus/core/src/interfaces/IJBDirectory.sol\":{\"keccak256\":\"0x9cc380844aef60078ee47a61861e55a29c4a8c947efd556ebd36e6909f7b9d62\",\"urls\":[\"bzz-raw://9f5190ec8b6683d9781ee6e9eedcc91294753242748875d4a06349077e4cbaaf\",\"dweb:/ipfs/QmTQrPuXT9TCA4txwrperMeXSGvGxP8iokUK47f62F388i\"],\"license\":\"MIT\"},\"node_modules/@bananapus/core/src/interfaces/IJBPayHook.sol\":{\"keccak256\":\"0x9438866782c652c2942f4d114e35f393cd3c8b0334abce8387eed90bca35e8b2\",\"urls\":[\"bzz-raw://cfd99daf57213f92325aad7d7d16e98476d38e870470e95ba01e3ae3cdecc95d\",\"dweb:/ipfs/QmUKKAVGf7ki8BHksr99tFcRW8APveeB5tNH63ctTbbCW8\"],\"license\":\"MIT\"},\"node_modules/@bananapus/core/src/interfaces/IJBPermissioned.sol\":{\"keccak256\":\"0x5b038d4dee116584e88b230920e56d48e135053e3f7e5642eaea14a775c1dad7\",\"urls\":[\"bzz-raw://19e43102f349fd4a1da1c0943ffb8f2950007fe4bb4bb7e8f74fc142575d091b\",\"dweb:/ipfs/QmXHAt4KzDTdDZgDDefEXH2WKi7NcfkJb9R7nxW5uDqsNp\"],\"license\":\"MIT\"},\"node_modules/@bananapus/core/src/interfaces/IJBPermissions.sol\":{\"keccak256\":\"0x18870e500edf0fbadc353e273a5574701fb80466376b908c65e7cc3f11044d4d\",\"urls\":[\"bzz-raw://352a47c45853aec80e7acf0d286ade3106eb4cb456776b28a3c2f3f1091bed90\",\"dweb:/ipfs/QmQeYd3YbudYZy2hfbfht9kwhxhw4tuuLKMEYy9UY6dcSy\"],\"license\":\"MIT\"},\"node_modules/@bananapus/core/src/interfaces/IJBPriceFeed.sol\":{\"keccak256\":\"0x4bd84c0f1a5d4729ed709bcddd43f4c50ec4a165ece79780af8dce482ed07d4a\",\"urls\":[\"bzz-raw://62bac4bfb6982fb002f620c77e5c445e62d50241a5aa64a07e51d929f5a42180\",\"dweb:/ipfs/QmWgJUDreVY2BuMX38a1iUUR5kNbMwGnKG3VvurB7oZtuM\"],\"license\":\"MIT\"},\"node_modules/@bananapus/core/src/interfaces/IJBPrices.sol\":{\"keccak256\":\"0x99525f31440b955742dce84ba57de9fc1221139b5367c1f834723bef9e13e6e1\",\"urls\":[\"bzz-raw://6fa03f0cd4ad87dd7cbae7bf7f54463450874291773c8f70f2c31ef2cae62bb0\",\"dweb:/ipfs/QmSPajPV5ismteJuB6Spzm9VmhTj2iS3eVrfpJC1Zuzg8n\"],\"license\":\"MIT\"},\"node_modules/@bananapus/core/src/interfaces/IJBProjects.sol\":{\"keccak256\":\"0x735c2fb8f1fa827f054ee77f7a0ae4b312656217acb75b624d2c8fd9dc40151b\",\"urls\":[\"bzz-raw://ee7fc92299a8633a80693ae63ab494dcd125f1789487a54a39dc0e5696e5996f\",\"dweb:/ipfs/QmX7YJD4pS2XhgQb7p3JbBAXynT7YGPXcZe92BiWWRrsCL\"],\"license\":\"MIT\"},\"node_modules/@bananapus/core/src/interfaces/IJBRedeemHook.sol\":{\"keccak256\":\"0x8ab46fcd7d0e739661eb76056ad93ff99106f38420ef0b4eb97fa9f4bb71a68a\",\"urls\":[\"bzz-raw://0ef96fcb7ad26281d444d8e0c677b25114fdd63b1c172d477e030dce8ba53b62\",\"dweb:/ipfs/Qmcx1jRQuwU4pZFuLxsSsx4oMbRaDfktHrPnXextgbWc5m\"],\"license\":\"MIT\"},\"node_modules/@bananapus/core/src/interfaces/IJBRulesetApprovalHook.sol\":{\"keccak256\":\"0x592e95d159494421c6b1bcb362d0cee1df0132921697351304e9cd7af4fbd386\",\"urls\":[\"bzz-raw://5bebfd5fa67c1b6ea16fa2e76e9520e9dfe52a579f48dd94d0c2ec45f78ad178\",\"dweb:/ipfs/QmRUawEGtfYoYSHmHELGhvJoWuMsxLPKtqAXgsrb7fJboP\"],\"license\":\"MIT\"},\"node_modules/@bananapus/core/src/interfaces/IJBRulesetDataHook.sol\":{\"keccak256\":\"0x13b4b9f4b847f62442da1c1a59b399f8f201b31a28edb96aa5a8a78ad57c24d0\",\"urls\":[\"bzz-raw://4fcd00b77d0f40cf6d5ee6590b6ef4ee1f606e89ae4c4faed3710fb462108f8e\",\"dweb:/ipfs/QmeoE54DQ3eGw9EDXfN7aTMmEjubAtirahmytDijo6GSeE\"],\"license\":\"MIT\"},\"node_modules/@bananapus/core/src/interfaces/IJBRulesets.sol\":{\"keccak256\":\"0xd3f817d22ecbe24da63c552c069bf0c4fbbf3bcd5c3b5633002afd24aacf6882\",\"urls\":[\"bzz-raw://c1185aec0f6b6f0f4d93ffeeed0972ccf38420b00fe570b5e1838ed2b1f5db49\",\"dweb:/ipfs/QmWz36azGTFnjFXpFSh6BHt4nactgjtF64L3PeTqs4ZqSR\"],\"license\":\"MIT\"},\"node_modules/@bananapus/core/src/interfaces/IJBTerminal.sol\":{\"keccak256\":\"0x19dc9bf8cbdc8f13ee5da9dc3a87047eacb94a3fc19740a286c1f0bad2cc39ca\",\"urls\":[\"bzz-raw://0b05ae6fda9a85672508232fd992b8a5f5ffd8096622eeb12c8a7b3317eb3867\",\"dweb:/ipfs/QmNh9Quj37BXYGdTdcCD1Q58PchRsE5TLbEZep56qS3MpV\"],\"license\":\"MIT\"},\"node_modules/@bananapus/core/src/interfaces/IJBTokenUriResolver.sol\":{\"keccak256\":\"0xfa5cb00dcd6085d1ef912d071fe73c63f9478a2cd0f9d8bddaf659b6af2d0967\",\"urls\":[\"bzz-raw://282e4e7c342d65f77cde0e9a08fcaf20ef5cf379c7a48b639842c0ffd0b2afb8\",\"dweb:/ipfs/QmbnN3PEQeZaXdPLT75V1J79kMg7KqSMru37RHrL3z8Yf2\"],\"license\":\"MIT\"},\"node_modules/@bananapus/core/src/libraries/JBConstants.sol\":{\"keccak256\":\"0x9d3a9a953f859d8ec79a599577f8972de6da7199cc1bfa7fdad017d4d722bcb4\",\"urls\":[\"bzz-raw://f151fcb53a8d2684eff8b9e56ac790bcbcadd8199a4fd4d17c5b224b22936722\",\"dweb:/ipfs/QmdAz1ZtCE8nTiC4AxQNLfJhnY3ndGum2Lbef7seKdvTdR\"],\"license\":\"MIT\"},\"node_modules/@bananapus/core/src/libraries/JBMetadataResolver.sol\":{\"keccak256\":\"0x900731084917f812806a35dab2c7ae65a6f07506d6c953ae0cd6d993fe85560f\",\"urls\":[\"bzz-raw://2002892aef205b5192fa5c2d1cf1698ba0836bed7eaba839444cd0f93b4fb050\",\"dweb:/ipfs/QmPRGSNRdpST1xt2brhGWSDsEYD29j5QwaJ3SA518UUXWs\"],\"license\":\"MIT\"},\"node_modules/@bananapus/core/src/libraries/JBRulesetMetadataResolver.sol\":{\"keccak256\":\"0x83f25c531d9e212379b4326fd93bf658a0f6d0e839bbd67bff7b66b9b55fb670\",\"urls\":[\"bzz-raw://3eb4a41ececec705febac7b799d7224e67f12761ae3975d49dd8bddaac608ecd\",\"dweb:/ipfs/QmNgL5VccDhP5xofEcGWNKk3v4KG23wGF9vc3d4YJ5MLnv\"],\"license\":\"MIT\"},\"node_modules/@bananapus/core/src/structs/JBAccountingContext.sol\":{\"keccak256\":\"0x2907ff54d1e903cc7e0390dd88c3975884702dc2673642aacbe22b66560b56de\",\"urls\":[\"bzz-raw://a66a5381ce877b32f0e0058ceeaf843e9b6b2bc8af666c0c9f4a9d01091da004\",\"dweb:/ipfs/QmQynCetUr37dBkS1YwDS8evxuXGiqanW6THmeUxXtim8w\"],\"license\":\"MIT\"},\"node_modules/@bananapus/core/src/structs/JBAfterPayRecordedContext.sol\":{\"keccak256\":\"0xd26c3a774ff38be79064085970454fe2603a23a638c76270d5b1b3829206c3e8\",\"urls\":[\"bzz-raw://3b55dbe3bf1ef625b7ca04efab3de35406e6041d5b3d82c7265469c500e2b702\",\"dweb:/ipfs/QmUdBDo4Lt3mcsFcsXT2mqq3czFwZjQJFPLM89YA2VtD7k\"],\"license\":\"MIT\"},\"node_modules/@bananapus/core/src/structs/JBAfterRedeemRecordedContext.sol\":{\"keccak256\":\"0x521f5d23a36f0da72362cd84890cc867bd83baa8dc836ba6c5066d51dba2f163\",\"urls\":[\"bzz-raw://6cc461313286dde62d045d6288e87bae5032e035796326f5b1ed6218e58aa9da\",\"dweb:/ipfs/QmQS2AkQwf2ANQieDuaUnpJEdXChoLv4CCbZqHkfywYPSR\"],\"license\":\"MIT\"},\"node_modules/@bananapus/core/src/structs/JBBeforePayRecordedContext.sol\":{\"keccak256\":\"0x5b04e814da83c7e83ff892ab07eaad6abce6f7b85a75f8da9380e9fc3470bc81\",\"urls\":[\"bzz-raw://11c889aab993fce3e3cc2dedc15fc30dd367e7fef9b7b1bfd6a6a9f248781731\",\"dweb:/ipfs/QmVVtydCD1azeWhGLxA1hthxfLyKzMHZ1eVzCz3a3R5dLy\"],\"license\":\"MIT\"},\"node_modules/@bananapus/core/src/structs/JBBeforeRedeemRecordedContext.sol\":{\"keccak256\":\"0x73eadaf6827e82f6ccbe3a1e2b2b7fc6c59cef471f73335041b30ddcc000989d\",\"urls\":[\"bzz-raw://2f3ee84662eed565dbdaed406ef836fffaf55cccd417575578152e5085d0b1f2\",\"dweb:/ipfs/QmaJGFS7hxJsiUdKvbv5BKhSwceDEzKBnt7t5YeNWvYgMK\"],\"license\":\"MIT\"},\"node_modules/@bananapus/core/src/structs/JBPayHookSpecification.sol\":{\"keccak256\":\"0x955f0bfca97300b9e5927dc181753830ee362f83fa9ca32a90daade32aa0cfd5\",\"urls\":[\"bzz-raw://f517af1597c7c40f8d3da53f7a6684a3e162950a16559d6bf6ea3b727bb11546\",\"dweb:/ipfs/QmRWo2ZTYXmVZTzNJDYhsJNsEaHphjpUfx9eNz2cciyz86\"],\"license\":\"MIT\"},\"node_modules/@bananapus/core/src/structs/JBPermissionsData.sol\":{\"keccak256\":\"0x8f0f69a6ebf5f3704e3dfcb3712fb9d3f94ae7c1ab89bf3e37bad42a3e7a0487\",\"urls\":[\"bzz-raw://57b0c5e52843e2217082889ed47b4da3943e0da4590d5768dcebfe3edad4a6b8\",\"dweb:/ipfs/QmRz48vuWLw81kUP836rh1qzqWiJFGbksgRUA9xGEDNKTY\"],\"license\":\"MIT\"},\"node_modules/@bananapus/core/src/structs/JBRedeemHookSpecification.sol\":{\"keccak256\":\"0x673d16ee1a91bf8de3b37e57284e60451b70a9c2d748c9cdc7a151f5624af18f\",\"urls\":[\"bzz-raw://ceeb5e81effa0f076c5630c756dfcf1548d09f822b255a0a6ee01e54de8c8ae2\",\"dweb:/ipfs/QmSMoMNPRhPMnuJNvWa6S59XRfycGz9o2ApNp63bUW6TdX\"],\"license\":\"MIT\"},\"node_modules/@bananapus/core/src/structs/JBRuleset.sol\":{\"keccak256\":\"0x15b2bf3174d84846a91ccbf5a344dfb125b55ed9cf50102db8d6868844225189\",\"urls\":[\"bzz-raw://647416b025dbd941094db89cbc69f755c155bd6c87be3f322394ccc4a8e0442d\",\"dweb:/ipfs/QmTCL9xcHnxQ4t5AmCPoZvXDUPW5xhzhyyXYbkMdyg44au\"],\"license\":\"MIT\"},\"node_modules/@bananapus/core/src/structs/JBRulesetMetadata.sol\":{\"keccak256\":\"0xfea54c9f98416d2aa05309e7ff76967d6968a614850a1e33e48fde793ea8b514\",\"urls\":[\"bzz-raw://bf55386cbab90dbc1296b2b0cbfdc217a4500d67702e4a093a4c78bd127ecd5c\",\"dweb:/ipfs/QmTRq9mZrNSXu7oCZwti4JbBFrbY6A5msRqi9RbtL49NAj\"],\"license\":\"MIT\"},\"node_modules/@bananapus/core/src/structs/JBTokenAmount.sol\":{\"keccak256\":\"0x5cf0626b73a596c1e2da17c89ae039a7c0374310b060d48568d3b6c11fbe6180\",\"urls\":[\"bzz-raw://63348b50be95e2995409394a17caffc563a646f0972650a1230bf864fbd3219b\",\"dweb:/ipfs/QmZXZpS3SbFD5nWaCauf6AqbEhLURv5qsKHpThBvQgDU6u\"],\"license\":\"MIT\"},\"node_modules/@bananapus/ownable/src/JBOwnable.sol\":{\"keccak256\":\"0x5b0aec2bc7164bdb972bfb9f71660c887308cf3a72738c7469d03bf264cf0d54\",\"urls\":[\"bzz-raw://bf4f60cebc0a707004371425aa3c8751b6a84dfb4fc9bf788160ae9ac1e906f6\",\"dweb:/ipfs/QmegUfWLhKuByQTkfMkmwkEs2Tk5ZEuR56DqQw5kxFzP3d\"],\"license\":\"MIT\"},\"node_modules/@bananapus/ownable/src/JBOwnableOverrides.sol\":{\"keccak256\":\"0x70a7c55f2a0f4324b63afe61e9d0de6e54396073e431844a19936d2aaaf6d7dd\",\"urls\":[\"bzz-raw://94c55139a8e974e2a88c6f0fc7594be3044742cfc499c989051eaf6664ec7dab\",\"dweb:/ipfs/QmQPnLAootqEGzpHRdhsYGBU3cqicRYLAe6bTti2UCBHyS\"],\"license\":\"MIT\"},\"node_modules/@bananapus/ownable/src/interfaces/IJBOwnable.sol\":{\"keccak256\":\"0x2c513558439d763df03e8a68c1aef698618182fd44c285405c35597d52c65ad1\",\"urls\":[\"bzz-raw://11cc25c41fccc20cca29f93dd120e67760188fd2040ef0330a093d37fbfa2f8f\",\"dweb:/ipfs/QmWpxcv41eYmsNYT3ph1nts5pC7sp3EzwJxKDGebMqEbsH\"],\"license\":\"MIT\"},\"node_modules/@bananapus/ownable/src/struct/JBOwner.sol\":{\"keccak256\":\"0x5624ba356f01f722984c1b857a106f413b12e57bae1f762a81c16ee511e3325a\",\"urls\":[\"bzz-raw://3120b5649ac8b55158df138dcac03f6850fc988cc5a24a7cb06e6581265ca284\",\"dweb:/ipfs/QmQBSLxRT9j1MEERUt8dWbSsAjianbHpM2CFwciLK7MwaP\"],\"license\":\"MIT\"},\"node_modules/@bananapus/permission-ids/src/JBPermissionIds.sol\":{\"keccak256\":\"0xf61109f6b217a80d5e5391f548fb6f2e451f7dbee3fabfc04cf17e88722203bc\",\"urls\":[\"bzz-raw://ac776ab1cd621c22bd7973471acdfa187f3abc659ad9a3ef6ed10b6447dfcf9c\",\"dweb:/ipfs/QmYLbaHt68qcuMzkiKpe96jMjiWUq1F3u8yMhxmZ3pnnWu\"],\"license\":\"MIT\"},\"node_modules/@openzeppelin/contracts/interfaces/IERC2981.sol\":{\"keccak256\":\"0x89b84f7b1b2d6c294cd6b9a9f661c1cfb1b9b10ca7bac5b3445850a8ce96dcf1\",\"urls\":[\"bzz-raw://44f961aefa43a50c94d8b68e749235b2cf3bd1de18bf6f2e5e1c0fd9a59e06ea\",\"dweb:/ipfs/QmNzd2bnJidavPtt2hQ1em387T6W37n3kDx8WrneCZozxV\"],\"license\":\"MIT\"},\"node_modules/@openzeppelin/contracts/interfaces/draft-IERC6093.sol\":{\"keccak256\":\"0x60c65f701957fdd6faea1acb0bb45825791d473693ed9ecb34726fdfaa849dd7\",\"urls\":[\"bzz-raw://ea290300e0efc4d901244949dc4d877fd46e6c5e43dc2b26620e8efab3ab803f\",\"dweb:/ipfs/QmcLLJppxKeJWqHxE2CUkcfhuRTgHSn8J4kijcLa5MYhSt\"],\"license\":\"MIT\"},\"node_modules/@openzeppelin/contracts/metatx/ERC2771Context.sol\":{\"keccak256\":\"0x98256cf37b71a69b2f5a8a6fe975ea03590dff703102bd141a830f94e8adebf6\",\"urls\":[\"bzz-raw://6251fe1f6a1e45e6d619d150c123afc88b8646b38ee26a136efa9a6988a31d3f\",\"dweb:/ipfs/QmeXDT85wSZdP31wkz3ah3KhponCiksJLP5o2LR5e1JxcK\"],\"license\":\"MIT\"},\"node_modules/@openzeppelin/contracts/proxy/Clones.sol\":{\"keccak256\":\"0xd18408af8a91bedb3d56343eeb9b30eb852e6dea93a5e2d5c6db9ca4cb905155\",\"urls\":[\"bzz-raw://061475b7302a732dc598907790f407417551c2b13e89daa57b3698489ef5484b\",\"dweb:/ipfs/QmdX5qmk3VSniSErFuD4aVawQxUi2MuUbP7spPcHddPfcX\"],\"license\":\"MIT\"},\"node_modules/@openzeppelin/contracts/token/ERC721/IERC721.sol\":{\"keccak256\":\"0x5ef46daa3b58ef2702279d514780316efaa952915ee1aa3396f041ee2982b0b4\",\"urls\":[\"bzz-raw://2f8f2a76e23b02fc69e8cd24c3cb47da6c7af3a2d6c3a382f8ac25c6e094ade7\",\"dweb:/ipfs/QmPV4ZS4tPVv4mTCf9ejyZ1ai57EEibDRj7mN2ARDCLV5n\"],\"license\":\"MIT\"},\"node_modules/@openzeppelin/contracts/token/ERC721/IERC721Receiver.sol\":{\"keccak256\":\"0x7f7a26306c79a65fb8b3b6c757cd74660c532cd8a02e165488e30027dd34ca49\",\"urls\":[\"bzz-raw://d01e0b2b837ee2f628545e54d8715b49c7ef2befd08356c2e7f6c50dde8a1c22\",\"dweb:/ipfs/QmWBAn6y2D1xgftci97Z3qR9tQnkvwQpYwFwkTvDMvqU4i\"],\"license\":\"MIT\"},\"node_modules/@openzeppelin/contracts/token/ERC721/extensions/IERC721Metadata.sol\":{\"keccak256\":\"0x37d1aaaa5a2908a09e9dcf56a26ddf762ecf295afb5964695937344fc6802ce1\",\"urls\":[\"bzz-raw://ed0bfc1b92153c5000e50f4021367b931bbe96372ac6facec3c4961b72053d02\",\"dweb:/ipfs/Qmbwp8VDerjS5SV1quwHH1oMXxPQ93fzfLVqJ2RCqbowGE\"],\"license\":\"MIT\"},\"node_modules/@openzeppelin/contracts/utils/Context.sol\":{\"keccak256\":\"0x493033a8d1b176a037b2cc6a04dad01a5c157722049bbecf632ca876224dd4b2\",\"urls\":[\"bzz-raw://6a708e8a5bdb1011c2c381c9a5cfd8a9a956d7d0a9dc1bd8bcdaf52f76ef2f12\",\"dweb:/ipfs/Qmax9WHBnVsZP46ZxEMNRQpLQnrdE4dK8LehML1Py8FowF\"],\"license\":\"MIT\"},\"node_modules/@openzeppelin/contracts/utils/Strings.sol\":{\"keccak256\":\"0x55f102ea785d8399c0e58d1108e2d289506dde18abc6db1b7f68c1f9f9bc5792\",\"urls\":[\"bzz-raw://6e52e0a7765c943ef14e5bcf11e46e6139fa044be564881378349236bf2e3453\",\"dweb:/ipfs/QmZEeeXoFPW47amyP35gfzomF9DixqqTEPwzBakv6cZw6i\"],\"license\":\"MIT\"},\"node_modules/@openzeppelin/contracts/utils/introspection/ERC165.sol\":{\"keccak256\":\"0x9e8778b14317ba9e256c30a76fd6c32b960af621987f56069e1e819c77c6a133\",\"urls\":[\"bzz-raw://1777404f1dcd0fac188e55a288724ec3c67b45288e49cc64723e95e702b49ab8\",\"dweb:/ipfs/QmZFdC626GButBApwDUvvTnUzdinevC3B24d7yyh57XkiA\"],\"license\":\"MIT\"},\"node_modules/@openzeppelin/contracts/utils/introspection/IERC165.sol\":{\"keccak256\":\"0x4296879f55019b23e135000eb36896057e7101fb7fb859c5ef690cf14643757b\",\"urls\":[\"bzz-raw://87b3541437c8c443ccd36795e56a338ed12855eec17f8da624511b8d1a7e14df\",\"dweb:/ipfs/QmeJQCtZrQjtJLr6u7ZHWeH3pBnjtLWzvRrKViAi7UZqxL\"],\"license\":\"MIT\"},\"node_modules/@openzeppelin/contracts/utils/math/Math.sol\":{\"keccak256\":\"0x005ec64c6313f0555d59e278f9a7a5ab2db5bdc72a027f255a37c327af1ec02d\",\"urls\":[\"bzz-raw://4ece9f0b9c8daca08c76b6b5405a6446b6f73b3a15fab7ff56e296cbd4a2c875\",\"dweb:/ipfs/QmQyRpyPRL5SQuAgj6SHmbir3foX65FJjbVTTQrA2EFg6L\"],\"license\":\"MIT\"},\"node_modules/@openzeppelin/contracts/utils/math/SignedMath.sol\":{\"keccak256\":\"0x5f7e4076e175393767754387c962926577f1660dd9b810187b9002407656be72\",\"urls\":[\"bzz-raw://7d533a1c97cd43a57cd9c465f7ee8dd0e39ae93a8fb8ff8e5303a356b081cdcc\",\"dweb:/ipfs/QmVBEei6aTnvYNZp2CHYVNKyZS4q1KkjANfY39WVXZXVoT\"],\"license\":\"MIT\"},\"node_modules/@prb/math/src/Common.sol\":{\"keccak256\":\"0xaa374e2c26cc93e8c22a6953804ee05f811597ef5fa82f76824378b22944778b\",\"urls\":[\"bzz-raw://279c732e161d623cf4d8a9519ca4c42c0c2db99842d0eb2a20c10fde3fa722c9\",\"dweb:/ipfs/QmVViuUXbinQGqtG5M21SgVzKihiCbFUChd4tDhtvwRmxH\"],\"license\":\"MIT\"},\"src/JB721TiersHook.sol\":{\"keccak256\":\"0x192829d2a185a3fd7367a00bd0eab81588024494ac0e9207567ef75e614af474\",\"urls\":[\"bzz-raw://ca09b9988fd650be0ea113d809fc2845665383ed3115dd8f60d6f640371f77a3\",\"dweb:/ipfs/QmNW2EuBU72mrf1TvDqPLc6Hz41Hv3v4PmFbRAJtkDFKx8\"],\"license\":\"MIT\"},\"src/JB721TiersHookDeployer.sol\":{\"keccak256\":\"0x8cadb554ef9d6a2c7371299f433de7fc93dfa76e7c3ee5045c4a75787d240916\",\"urls\":[\"bzz-raw://cf784800d387074a03ec29fa63ca61043f863b0720ba6d29dd273f2735f5758a\",\"dweb:/ipfs/QmbJFwxuCALGNHUu4c2EKGpfnVzaVcEfb6Qymc6LjXZ8eK\"],\"license\":\"MIT\"},\"src/abstract/ERC721.sol\":{\"keccak256\":\"0xc25c7c60c88684adc3f7a49621d27866866a44a3f3796e63c9fcaba75fbb2e84\",\"urls\":[\"bzz-raw://713103b7a05402264493430cfcd7d85f1a241a2eb4756af53a370fa529ea07bf\",\"dweb:/ipfs/QmSXZfxCG1N9XheS1kLCNJZ9k6ZRq4GnAMY7MKFfbKLXmz\"],\"license\":\"MIT\"},\"src/abstract/JB721Hook.sol\":{\"keccak256\":\"0x1b31d00bcea54b155ace08389c7c6339b84586e6e573306eb61f0e174d74e276\",\"urls\":[\"bzz-raw://61f592eec4c5845ffee791b3669985ecf6d309f36f41ddc446e794da5f237c5e\",\"dweb:/ipfs/QmcPftyc6SNczmH4CicQkZFt6drMs98Bx2ewGvcbggCV2M\"],\"license\":\"MIT\"},\"src/interfaces/IJB721Hook.sol\":{\"keccak256\":\"0xb8b6f9ec718baa9792197c8a835a57e990707be6c6420c567f9f1633218a7889\",\"urls\":[\"bzz-raw://50b2f9ce98be831380abd18dc5fbece6212da14f7a113eb96640f23d5e956545\",\"dweb:/ipfs/QmfV4sawmWR2hrqvaAPUyYEYeX92V1gy5uwU1N7YX9TcWG\"],\"license\":\"MIT\"},\"src/interfaces/IJB721TiersHook.sol\":{\"keccak256\":\"0xbd9a8dae00a4b1a02c628bd172fe4ae496e49f7651426cef08774ffdb6125c23\",\"urls\":[\"bzz-raw://9ce4fd77d5af1f570dad6b70758f09f9599768e1ab32f6b473f6181197daa0c8\",\"dweb:/ipfs/QmWj6sCTvZ2CbfSyRuhaXADxYbwwPcR42pZokcgfjpsabg\"],\"license\":\"MIT\"},\"src/interfaces/IJB721TiersHookDeployer.sol\":{\"keccak256\":\"0xc4c6dfd2573fe1f130bc5193da68a622959a11562010fa261ffd3a8893e08a7b\",\"urls\":[\"bzz-raw://0c34f79121f6c777bca3df6c2e87c0caa05146bec45e9ae29f41b0532d16c88e\",\"dweb:/ipfs/QmZJQVZC8uuuSssXtLnhsvisz7V2PCKs2s1Hbzo8hmZ9ZP\"],\"license\":\"MIT\"},\"src/interfaces/IJB721TiersHookStore.sol\":{\"keccak256\":\"0x8550e216c12c9cda865c1b1b0eb3f244aeaa8d465b197d4bd0dd8d4df265682e\",\"urls\":[\"bzz-raw://674a312f1eaffd7c6b21f58f8d4a628104e71220daf48a22237fa3bd035ddf21\",\"dweb:/ipfs/QmSRSW6cSwdpoGjVxDqiwJmJyCxfHWhCxZ2iaqeJcN2Ccy\"],\"license\":\"MIT\"},\"src/interfaces/IJB721TokenUriResolver.sol\":{\"keccak256\":\"0xfa599167098f4459320ec4141a98a17b2dfffbce422baa27d8b4e4530f61ece1\",\"urls\":[\"bzz-raw://8b758b161f4c7b520b2c34b4d91e585e961b8f4ca278eebb91d791f7f2f45140\",\"dweb:/ipfs/QmcD9DF7NJ9QykQpT4KPzm4bs3fkjzukdAUWwdU6Atfw85\"],\"license\":\"MIT\"},\"src/libraries/JB721TiersRulesetMetadataResolver.sol\":{\"keccak256\":\"0xe1e224860fce816c0566c4b22044eb2f5a767a09764d00482b954733bf18e51e\",\"urls\":[\"bzz-raw://043663de2a9c7e822e947e0b68833e77985d493bebcb48f86bf1b67f937417fc\",\"dweb:/ipfs/QmXVXPdpLfmT2a97gUQ5d2XSsHXhgpiTfs7w2ZtoD55uAd\"],\"license\":\"MIT\"},\"src/libraries/JBIpfsDecoder.sol\":{\"keccak256\":\"0xb93ba562ac1fc9d3829be00e61f3a90f51df5661cf0f2c819a7f1d8ba19ec171\",\"urls\":[\"bzz-raw://fc9bc948fac8897d9720ef25b13d63c60b40a18aa1897dd1c657fc278c416b4f\",\"dweb:/ipfs/QmNtiJTALZW5zfyKVy7XG5GkqGgMrfkVvU4Auu4bb9cGQc\"],\"license\":\"MIT\"},\"src/structs/JB721InitTiersConfig.sol\":{\"keccak256\":\"0xfb78486cec94189d0ecf2050dc9cfc11245b426c73a0711a85bff1359d774307\",\"urls\":[\"bzz-raw://a8fa01f6e64dd204dbde07a60851e9a5a74e439e1411139ae16b7cf67d2a2692\",\"dweb:/ipfs/QmZAnHyfpKr3xr7NWHj5sGaCEEtG8RtmHhkRUJJvNauym5\"],\"license\":\"MIT\"},\"src/structs/JB721Tier.sol\":{\"keccak256\":\"0x2e267a8af02f125465cdda9308477346ae4a94b024c3b2c2a6af0c00027944dd\",\"urls\":[\"bzz-raw://367ccea2c8fa815d498d771d4367ef1ded718a76e89644102034bfe4a3636b82\",\"dweb:/ipfs/QmYiFFa6ei9wZBSSVUHfY2Cb35zCDVXvbmLcgLj2BTiC1u\"],\"license\":\"MIT\"},\"src/structs/JB721TierConfig.sol\":{\"keccak256\":\"0x2fa9c5c8cec182b854a656d3b284e9d5306be35ad3dc4da79d65dca12b804af0\",\"urls\":[\"bzz-raw://b443a5f70195a66145ea1dade04454ce9a3ff1209e1aaecf53c8a9909b294d79\",\"dweb:/ipfs/QmUDPFZ4L6XpV3zLQUNVchUvecD4XfddKz2S46BKek5XL1\"],\"license\":\"MIT\"},\"src/structs/JB721TiersHookFlags.sol\":{\"keccak256\":\"0x283d8429f31bd58875c056515aa42abd09c95362bd929e85cfc44a0d92585766\",\"urls\":[\"bzz-raw://9a580b89fe99d9f8e930c58a4d0d63a5ff7c01c79d210af01373d066c9e72ed6\",\"dweb:/ipfs/QmdY1eSGSoTjv4KSdsG4Tm5CzJN6iqk3qTRga5ZWNbejRz\"],\"license\":\"MIT\"},\"src/structs/JB721TiersMintReservesConfig.sol\":{\"keccak256\":\"0xab3b319dc4e736586ae595de194d93dcdfeba365bc7a54cf6c37e697f6074ad9\",\"urls\":[\"bzz-raw://a84ae2cf2e8c3e39e831dbb39a67a8eb43c78a6de6bb78b1be2e1f1e80c69efe\",\"dweb:/ipfs/QmboGXEMqsYTxc4a7oft9rggNU7ShWSa9yB4HFMVmzXCHz\"],\"license\":\"MIT\"},\"src/structs/JB721TiersRulesetMetadata.sol\":{\"keccak256\":\"0x6720a6ada2a882f99afa050e40b6c925439da4339240565a0e706521b3aadc6b\",\"urls\":[\"bzz-raw://ede4a3165276d9d89eeea2dfd56f68d77dbfaedb738b30c8a0faa81c3a153b1b\",\"dweb:/ipfs/QmXa4QCb6K9MXxwNKed17VWeX9crKeMjkQnVk2xMARzh76\"],\"license\":\"MIT\"},\"src/structs/JBDeploy721TiersHookConfig.sol\":{\"keccak256\":\"0x4f0b8bbc19a405a096a16977fa1eedc0c56640ef777add89c050f989a62a6a35\",\"urls\":[\"bzz-raw://bd009c66aa748a2ce04720a6376683ce01ced3c0bd7f9534e145263aa49d95d3\",\"dweb:/ipfs/QmXyJCS1uQevdkw1Gc4UrRs8fZKtW9wPWFY9pxUWHKLo4e\"],\"license\":\"MIT\"}},\"version\":1}",
			"args": [
				"0xF6897B40515AE4E66aCD58aabB76ac143E833C6d",
				"0xB2C0Cf85FEf94012Bb4c5e0534B8A5E845BC6312",
				"0x989566Bf9fF4CffA55a98ADa7dc3E58b2a0a19c6",
				"0xB2b5841DBeF766d4b521221732F9B618fCf34A87"
			],
			"bytecode": "0x61010060405234801561001157600080fd5b50604051610e9c380380610e9c8339810160408190526100309161006b565b6001600160a01b0390811660805292831660a05290821660c0521660e0526100ca565b6001600160a01b038116811461006857600080fd5b50565b6000806000806080858703121561008157600080fd5b845161008c81610053565b602086015190945061009d81610053565b60408601519093506100ae81610053565b60608601519092506100bf81610053565b939692955090935050565b60805160a05160c05160e051610d786101246000396000818161014901526102fa01526000818160ac01526101f4015260008181610170015261019901526000818160de0152818161012001526104870152610d786000f3fe608060405234801561001057600080fd5b50600436106100725760003560e01c80637da0a877116100505780637da0a8771461011e57806389a56bbc14610144578063a54eb2421461016b57600080fd5b80632230819f14610077578063507f1465146100a7578063572b6c05146100ce575b600080fd5b61008a6100853660046108c9565b610192565b6040516001600160a01b0390911681526020015b60405180910390f35b61008a7f000000000000000000000000000000000000000000000000000000000000000081565b61010e6100dc366004610a1b565b7f00000000000000000000000000000000000000000000000000000000000000006001600160a01b0390811691161490565b604051901515815260200161009e565b7f000000000000000000000000000000000000000000000000000000000000000061008a565b61008a7f000000000000000000000000000000000000000000000000000000000000000081565b61008a7f000000000000000000000000000000000000000000000000000000000000000081565b60006101bd7f00000000000000000000000000000000000000000000000000000000000000006103f5565b9050806001600160a01b031663c07f2f9b84846000015185602001518660400151876060015188608001518960a001518a60c001517f00000000000000000000000000000000000000000000000000000000000000008c61010001516040518b63ffffffff1660e01b815260040161023e9a99989796959493929190610a85565b600060405180830381600087803b15801561025857600080fd5b505af115801561026c573d6000803e3d6000fd5b50505050806001600160a01b031663f2fde38b610287610480565b6040517fffffffff0000000000000000000000000000000000000000000000000000000060e084901b1681526001600160a01b039091166004820152602401600060405180830381600087803b1580156102e057600080fd5b505af11580156102f4573d6000803e3d6000fd5b505050507f00000000000000000000000000000000000000000000000000000000000000006001600160a01b031663b94417ab30600080815461033690610cb1565b91829055506040517fffffffff0000000000000000000000000000000000000000000000000000000060e085901b1681526001600160a01b0390921660048301526024820152604401600060405180830381600087803b15801561039957600080fd5b505af11580156103ad573d6000803e3d6000fd5b50506040516001600160a01b03841681528592507fa42f6bb68e81f4650a7966f109d861f6c3d2a477e608e30807f568bed1cebdb9915060200160405180910390a292915050565b6000763d602d80600a3d3981f3363d3d373d3d3d363d730000008260601b60e81c176000526e5af43d82803e903d91602b57fd5bf38260781b17602052603760096000f090506001600160a01b03811661047b576040517fc2f868f400000000000000000000000000000000000000000000000000000000815260040160405180910390fd5b919050565b60003660147f00000000000000000000000000000000000000000000000000000000000000006001600160a01b0316331480156104bd5750808210155b156104ed576000366104cf8385610cca565b6104da928290610ce3565b6104e391610d0d565b60601c9250505090565b339250505090565b634e487b7160e01b600052604160045260246000fd5b6040516080810167ffffffffffffffff8111828210171561052e5761052e6104f5565b60405290565b604051610180810167ffffffffffffffff8111828210171561052e5761052e6104f5565b604051610120810167ffffffffffffffff8111828210171561052e5761052e6104f5565b604051601f8201601f1916810167ffffffffffffffff811182821017156105a5576105a56104f5565b604052919050565b600082601f8301126105be57600080fd5b813567ffffffffffffffff8111156105d8576105d86104f5565b6105eb601f8201601f191660200161057c565b81815284602083860101111561060057600080fd5b816020850160208301376000918101602001919091529392505050565b6001600160a01b038116811461063257600080fd5b50565b803561047b8161061d565b80356cffffffffffffffffffffffffff8116811461047b57600080fd5b803563ffffffff8116811461047b57600080fd5b803561ffff8116811461047b57600080fd5b803562ffffff8116811461047b57600080fd5b8035801515811461047b57600080fd5b803560ff8116811461047b57600080fd5b600060808083850312156106ca57600080fd5b6106d261050b565b9150823567ffffffffffffffff808211156106ec57600080fd5b818501915085601f83011261070057600080fd5b8135602082821115610714576107146104f5565b610722818360051b0161057c565b828152818101935061018092830285018201928984111561074257600080fd5b948201945b838610156108355780868b03121561075f5760008081fd5b610767610534565b61077087610640565b815261077d84880161065d565b84820152604061078e81890161065d565b90820152606061079f888201610671565b908201526107ae878901610635565b8189015260a0878101359082015260c06107c9818901610683565b9082015260e06107da888201610696565b908201526101006107ec888201610696565b908201526101206107fe888201610696565b90820152610140610810888201610696565b90820152610160610822888201610696565b9082015285529485019493820193610747565b50865261084387820161065d565b818701525050505050610858604083016106a6565b604082015261086960608301610635565b606082015292915050565b60006080828403121561088657600080fd5b61088e61050b565b905061089982610696565b81526108a760208301610696565b60208201526108b860408301610696565b604082015261086960608301610696565b600080604083850312156108dc57600080fd5b82359150602083013567ffffffffffffffff808211156108fb57600080fd5b90840190610180828703121561091057600080fd5b610918610558565b82358281111561092757600080fd5b610933888286016105ad565b82525060208301358281111561094857600080fd5b610954888286016105ad565b60208301525061096660408401610635565b604082015260608301358281111561097d57600080fd5b610989888286016105ad565b60608301525061099b60808401610635565b608082015260a0830135828111156109b257600080fd5b6109be888286016105ad565b60a08301525060c0830135828111156109d657600080fd5b6109e2888286016106b7565b60c0830152506109f460e08401610635565b60e08201526101009150610a0a87838501610874565b828201528093505050509250929050565b600060208284031215610a2d57600080fd5b8135610a388161061d565b9392505050565b6000815180845260005b81811015610a6557602081850181015186830182015201610a49565b506000602082860101526020601f19601f83011685010191505092915050565b60006101a08c835260208181850152610aa08285018e610a3f565b91508382036040850152610ab4828d610a3f565b915060606001600160a01b03808d16606087015260808685036080880152610adc858e610a3f565b945060a0828d1660a089015260c0925087860360c0890152610afe868d610a3f565b955060e088870360e08a0152608087018c516080895281815180845260a08b0191508983019350600092505b80831015610bf657835180516cffffffffffffffffffffffffff168352808b015163ffffffff8116848d0152506040810151610b6e604085018263ffffffff169052565b508981015161ffff16838b0152878101516001600160a01b03168884015286810151878401528881015162ffffff16898401528581015115158684015261010080820151151590840152610120808201511515908401526101408082015115159084015261016090810151151590830152928901926001929092019161018090910190610b2a565b508e89015163ffffffff81168b8b0152975060408f01519850610c1e60408b018a60ff169052565b60608f01519850610c3a60608b018a6001600160a01b03169052565b6001600160a01b038e166101008d01529950610c5b98505050505050505050565b825115156101208301526020830151151561014083015260408301511515610160830152606083015115156101808301529b9a5050505050505050505050565b634e487b7160e01b600052601160045260246000fd5b600060018201610cc357610cc3610c9b565b5060010190565b81810381811115610cdd57610cdd610c9b565b92915050565b60008085851115610cf357600080fd5b83861115610d0057600080fd5b5050820193919092039150565b6bffffffffffffffffffffffff198135818116916014851015610d3a5780818660140360031b1b83161692505b50509291505056fea26469706673582212208142bbabac733b3898d08c47d9ced33dabf8bb78cb889ba7ae69f7e28a0c71ea64736f6c63430008170033",
			"deployedBytecode": "0x608060405234801561001057600080fd5b50600436106100725760003560e01c80637da0a877116100505780637da0a8771461011e57806389a56bbc14610144578063a54eb2421461016b57600080fd5b80632230819f14610077578063507f1465146100a7578063572b6c05146100ce575b600080fd5b61008a6100853660046108c9565b610192565b6040516001600160a01b0390911681526020015b60405180910390f35b61008a7f000000000000000000000000b2c0cf85fef94012bb4c5e0534b8a5e845bc631281565b61010e6100dc366004610a1b565b7f000000000000000000000000b2b5841dbef766d4b521221732f9b618fcf34a876001600160a01b0390811691161490565b604051901515815260200161009e565b7f000000000000000000000000b2b5841dbef766d4b521221732f9b618fcf34a8761008a565b61008a7f000000000000000000000000989566bf9ff4cffa55a98ada7dc3e58b2a0a19c681565b61008a7f000000000000000000000000f6897b40515ae4e66acd58aabb76ac143e833c6d81565b60006101bd7f000000000000000000000000f6897b40515ae4e66acd58aabb76ac143e833c6d6103f5565b9050806001600160a01b031663c07f2f9b84846000015185602001518660400151876060015188608001518960a001518a60c001517f000000000000000000000000b2c0cf85fef94012bb4c5e0534b8a5e845bc63128c61010001516040518b63ffffffff1660e01b815260040161023e9a99989796959493929190610a85565b600060405180830381600087803b15801561025857600080fd5b505af115801561026c573d6000803e3d6000fd5b50505050806001600160a01b031663f2fde38b610287610480565b6040517fffffffff0000000000000000000000000000000000000000000000000000000060e084901b1681526001600160a01b039091166004820152602401600060405180830381600087803b1580156102e057600080fd5b505af11580156102f4573d6000803e3d6000fd5b505050507f000000000000000000000000989566bf9ff4cffa55a98ada7dc3e58b2a0a19c66001600160a01b031663b94417ab30600080815461033690610cb1565b91829055506040517fffffffff0000000000000000000000000000000000000000000000000000000060e085901b1681526001600160a01b0390921660048301526024820152604401600060405180830381600087803b15801561039957600080fd5b505af11580156103ad573d6000803e3d6000fd5b50506040516001600160a01b03841681528592507fa42f6bb68e81f4650a7966f109d861f6c3d2a477e608e30807f568bed1cebdb9915060200160405180910390a292915050565b6000763d602d80600a3d3981f3363d3d373d3d3d363d730000008260601b60e81c176000526e5af43d82803e903d91602b57fd5bf38260781b17602052603760096000f090506001600160a01b03811661047b576040517fc2f868f400000000000000000000000000000000000000000000000000000000815260040160405180910390fd5b919050565b60003660147f000000000000000000000000b2b5841dbef766d4b521221732f9b618fcf34a876001600160a01b0316331480156104bd5750808210155b156104ed576000366104cf8385610cca565b6104da928290610ce3565b6104e391610d0d565b60601c9250505090565b339250505090565b634e487b7160e01b600052604160045260246000fd5b6040516080810167ffffffffffffffff8111828210171561052e5761052e6104f5565b60405290565b604051610180810167ffffffffffffffff8111828210171561052e5761052e6104f5565b604051610120810167ffffffffffffffff8111828210171561052e5761052e6104f5565b604051601f8201601f1916810167ffffffffffffffff811182821017156105a5576105a56104f5565b604052919050565b600082601f8301126105be57600080fd5b813567ffffffffffffffff8111156105d8576105d86104f5565b6105eb601f8201601f191660200161057c565b81815284602083860101111561060057600080fd5b816020850160208301376000918101602001919091529392505050565b6001600160a01b038116811461063257600080fd5b50565b803561047b8161061d565b80356cffffffffffffffffffffffffff8116811461047b57600080fd5b803563ffffffff8116811461047b57600080fd5b803561ffff8116811461047b57600080fd5b803562ffffff8116811461047b57600080fd5b8035801515811461047b57600080fd5b803560ff8116811461047b57600080fd5b600060808083850312156106ca57600080fd5b6106d261050b565b9150823567ffffffffffffffff808211156106ec57600080fd5b818501915085601f83011261070057600080fd5b8135602082821115610714576107146104f5565b610722818360051b0161057c565b828152818101935061018092830285018201928984111561074257600080fd5b948201945b838610156108355780868b03121561075f5760008081fd5b610767610534565b61077087610640565b815261077d84880161065d565b84820152604061078e81890161065d565b90820152606061079f888201610671565b908201526107ae878901610635565b8189015260a0878101359082015260c06107c9818901610683565b9082015260e06107da888201610696565b908201526101006107ec888201610696565b908201526101206107fe888201610696565b90820152610140610810888201610696565b90820152610160610822888201610696565b9082015285529485019493820193610747565b50865261084387820161065d565b818701525050505050610858604083016106a6565b604082015261086960608301610635565b606082015292915050565b60006080828403121561088657600080fd5b61088e61050b565b905061089982610696565b81526108a760208301610696565b60208201526108b860408301610696565b604082015261086960608301610696565b600080604083850312156108dc57600080fd5b82359150602083013567ffffffffffffffff808211156108fb57600080fd5b90840190610180828703121561091057600080fd5b610918610558565b82358281111561092757600080fd5b610933888286016105ad565b82525060208301358281111561094857600080fd5b610954888286016105ad565b60208301525061096660408401610635565b604082015260608301358281111561097d57600080fd5b610989888286016105ad565b60608301525061099b60808401610635565b608082015260a0830135828111156109b257600080fd5b6109be888286016105ad565b60a08301525060c0830135828111156109d657600080fd5b6109e2888286016106b7565b60c0830152506109f460e08401610635565b60e08201526101009150610a0a87838501610874565b828201528093505050509250929050565b600060208284031215610a2d57600080fd5b8135610a388161061d565b9392505050565b6000815180845260005b81811015610a6557602081850181015186830182015201610a49565b506000602082860101526020601f19601f83011685010191505092915050565b60006101a08c835260208181850152610aa08285018e610a3f565b91508382036040850152610ab4828d610a3f565b915060606001600160a01b03808d16606087015260808685036080880152610adc858e610a3f565b945060a0828d1660a089015260c0925087860360c0890152610afe868d610a3f565b955060e088870360e08a0152608087018c516080895281815180845260a08b0191508983019350600092505b80831015610bf657835180516cffffffffffffffffffffffffff168352808b015163ffffffff8116848d0152506040810151610b6e604085018263ffffffff169052565b508981015161ffff16838b0152878101516001600160a01b03168884015286810151878401528881015162ffffff16898401528581015115158684015261010080820151151590840152610120808201511515908401526101408082015115159084015261016090810151151590830152928901926001929092019161018090910190610b2a565b508e89015163ffffffff81168b8b0152975060408f01519850610c1e60408b018a60ff169052565b60608f01519850610c3a60608b018a6001600160a01b03169052565b6001600160a01b038e166101008d01529950610c5b98505050505050505050565b825115156101208301526020830151151561014083015260408301511515610160830152606083015115156101808301529b9a5050505050505050505050565b634e487b7160e01b600052601160045260246000fd5b600060018201610cc357610cc3610c9b565b5060010190565b81810381811115610cdd57610cdd610c9b565b92915050565b60008085851115610cf357600080fd5b83861115610d0057600080fd5b5050820193919092039150565b6bffffffffffffffffffffffff198135818116916014851015610d3a5780818660140360031b1b83161692505b50509291505056fea26469706673582212208142bbabac733b3898d08c47d9ced33dabf8bb78cb889ba7ae69f7e28a0c71ea64736f6c63430008170033",
			"devdoc": {
				"kind": "dev",
				"methods": {
					"constructor": {
						"params": {
							"addressRegistry": "A registry which stores references to contracts and their deployers.",
							"hook": "Reference copy of a hook."
						}
					},
					"deployHookFor(uint256,(string,string,address,string,address,string,((uint104,uint32,uint32,uint16,address,bytes32,uint24,bool,bool,bool,bool,bool)[],uint32,uint8,address),address,(bool,bool,bool,bool)))": {
						"params": {
							"deployTiersHookConfig": "The config to deploy the hook with, which determines its behavior.",
							"projectId": "The ID of the project to deploy the hook for."
						},
						"returns": {
							"newHook": "The address of the newly deployed hook."
						}
					},
					"isTrustedForwarder(address)": {
						"details": "Indicates whether any particular address is the trusted forwarder."
					},
					"trustedForwarder()": {
						"details": "Returns the address of the trusted forwarder."
					}
				},
				"version": 1
			},
			"userdoc": {
				"kind": "user",
				"methods": {
					"ADDRESS_REGISTRY()": {
						"notice": "A registry which stores references to contracts and their deployers."
					},
					"HOOK()": {
						"notice": "A 721 tiers hook."
					},
					"STORE()": {
						"notice": "The contract that stores and manages data for this contract's NFTs."
					},
					"deployHookFor(uint256,(string,string,address,string,address,string,((uint104,uint32,uint32,uint16,address,bytes32,uint24,bool,bool,bool,bool,bool)[],uint32,uint8,address),address,(bool,bool,bool,bool)))": {
						"notice": "Deploys a 721 tiers hook for the specified project."
					}
				},
				"version": 1
			},
			"gitCommit": "b0414d6aafe0003deef69de3f798c251a92b5b1f",
			"sourceName": "src/JB721TiersHookDeployer.sol",
			"chainId": "11155420",
			"linkReferences": {},
			"deployedLinkReferences": {}
		},
		{
			"_format": "sphinx-sol-ct-artifact-1",
			"merkleRoot": "0xf29a925ad7595b534a7334af3cff0f2715becdc9b501f846c233331b92b7a47a",
			"contractName": "JB721TiersHookDeployer",
			"address": "0x0f9A3E14f7fB9aC89Ce32D50a2eAdE21ffeb97F3",
			"abi": [
				{
					"type": "constructor",
					"inputs": [
						{
							"name": "hook",
							"type": "address",
							"internalType": "contract JB721TiersHook"
						},
						{
							"name": "store",
							"type": "address",
							"internalType": "contract IJB721TiersHookStore"
						},
						{
							"name": "addressRegistry",
							"type": "address",
							"internalType": "contract IJBAddressRegistry"
						},
						{
							"name": "trustedForwarder",
							"type": "address",
							"internalType": "address"
						}
					],
					"stateMutability": "nonpayable"
				},
				{
					"type": "function",
					"name": "ADDRESS_REGISTRY",
					"inputs": [],
					"outputs": [
						{
							"name": "",
							"type": "address",
							"internalType": "contract IJBAddressRegistry"
						}
					],
					"stateMutability": "view"
				},
				{
					"type": "function",
					"name": "HOOK",
					"inputs": [],
					"outputs": [
						{
							"name": "",
							"type": "address",
							"internalType": "contract JB721TiersHook"
						}
					],
					"stateMutability": "view"
				},
				{
					"type": "function",
					"name": "STORE",
					"inputs": [],
					"outputs": [
						{
							"name": "",
							"type": "address",
							"internalType": "contract IJB721TiersHookStore"
						}
					],
					"stateMutability": "view"
				},
				{
					"type": "function",
					"name": "deployHookFor",
					"inputs": [
						{
							"name": "projectId",
							"type": "uint256",
							"internalType": "uint256"
						},
						{
							"name": "deployTiersHookConfig",
							"type": "tuple",
							"internalType": "struct JBDeploy721TiersHookConfig",
							"components": [
								{
									"name": "name",
									"type": "string",
									"internalType": "string"
								},
								{
									"name": "symbol",
									"type": "string",
									"internalType": "string"
								},
								{
									"name": "rulesets",
									"type": "address",
									"internalType": "contract IJBRulesets"
								},
								{
									"name": "baseUri",
									"type": "string",
									"internalType": "string"
								},
								{
									"name": "tokenUriResolver",
									"type": "address",
									"internalType": "contract IJB721TokenUriResolver"
								},
								{
									"name": "contractUri",
									"type": "string",
									"internalType": "string"
								},
								{
									"name": "tiersConfig",
									"type": "tuple",
									"internalType": "struct JB721InitTiersConfig",
									"components": [
										{
											"name": "tiers",
											"type": "tuple[]",
											"internalType": "struct JB721TierConfig[]",
											"components": [
												{
													"name": "price",
													"type": "uint104",
													"internalType": "uint104"
												},
												{
													"name": "initialSupply",
													"type": "uint32",
													"internalType": "uint32"
												},
												{
													"name": "votingUnits",
													"type": "uint32",
													"internalType": "uint32"
												},
												{
													"name": "reserveFrequency",
													"type": "uint16",
													"internalType": "uint16"
												},
												{
													"name": "reserveBeneficiary",
													"type": "address",
													"internalType": "address"
												},
												{
													"name": "encodedIPFSUri",
													"type": "bytes32",
													"internalType": "bytes32"
												},
												{
													"name": "category",
													"type": "uint24",
													"internalType": "uint24"
												},
												{
													"name": "allowOwnerMint",
													"type": "bool",
													"internalType": "bool"
												},
												{
													"name": "useReserveBeneficiaryAsDefault",
													"type": "bool",
													"internalType": "bool"
												},
												{
													"name": "transfersPausable",
													"type": "bool",
													"internalType": "bool"
												},
												{
													"name": "useVotingUnits",
													"type": "bool",
													"internalType": "bool"
												},
												{
													"name": "cannotBeRemoved",
													"type": "bool",
													"internalType": "bool"
												}
											]
										},
										{
											"name": "currency",
											"type": "uint32",
											"internalType": "uint32"
										},
										{
											"name": "decimals",
											"type": "uint8",
											"internalType": "uint8"
										},
										{
											"name": "prices",
											"type": "address",
											"internalType": "contract IJBPrices"
										}
									]
								},
								{
									"name": "reserveBeneficiary",
									"type": "address",
									"internalType": "address"
								},
								{
									"name": "flags",
									"type": "tuple",
									"internalType": "struct JB721TiersHookFlags",
									"components": [
										{
											"name": "noNewTiersWithReserves",
											"type": "bool",
											"internalType": "bool"
										},
										{
											"name": "noNewTiersWithVotes",
											"type": "bool",
											"internalType": "bool"
										},
										{
											"name": "noNewTiersWithOwnerMinting",
											"type": "bool",
											"internalType": "bool"
										},
										{
											"name": "preventOverspending",
											"type": "bool",
											"internalType": "bool"
										}
									]
								}
							]
						}
					],
					"outputs": [
						{
							"name": "newHook",
							"type": "address",
							"internalType": "contract IJB721TiersHook"
						}
					],
					"stateMutability": "nonpayable"
				},
				{
					"type": "function",
					"name": "isTrustedForwarder",
					"inputs": [
						{
							"name": "forwarder",
							"type": "address",
							"internalType": "address"
						}
					],
					"outputs": [
						{
							"name": "",
							"type": "bool",
							"internalType": "bool"
						}
					],
					"stateMutability": "view"
				},
				{
					"type": "function",
					"name": "trustedForwarder",
					"inputs": [],
					"outputs": [
						{
							"name": "",
							"type": "address",
							"internalType": "address"
						}
					],
					"stateMutability": "view"
				},
				{
					"type": "event",
					"name": "HookDeployed",
					"inputs": [
						{
							"name": "projectId",
							"type": "uint256",
							"indexed": true,
							"internalType": "uint256"
						},
						{
							"name": "newHook",
							"type": "address",
							"indexed": false,
							"internalType": "contract IJB721TiersHook"
						}
					],
					"anonymous": false
				},
				{
					"type": "error",
					"name": "ERC1167FailedCreateClone",
					"inputs": []
				}
			],
			"solcInputHash": "9c26761b33f63d5cdb4c2cc0c065558a",
			"receipt": {
				"blockHash": "0xa57d73e7ad7d5ce0c24a3d99aac0d0d70cb28fda538eb640fbb28962bd349a2e",
				"blockNumber": 10522481,
				"contractAddress": null,
				"cumulativeGasUsed": "9007140",
				"from": "0xC034550B542b83BA1De312b21d1C94a9a52B1595",
				"gasPrice": "1000252",
				"gasUsed": "8836493",
				"hash": "0x154e9fd52abcfc74a4e43ab6c739318bfdf5cc5280eeb177f684c6f6ab9e4c4b",
				"index": 2,
				"logs": [
					{
						"address": "0xB5E96127D417b1B3ef8438496a38A143167209c7",
						"blockHash": "0xa57d73e7ad7d5ce0c24a3d99aac0d0d70cb28fda538eb640fbb28962bd349a2e",
						"blockNumber": 10522481,
						"data": "0x0000000000000000000000000000000000000000000000000000000000000000",
						"index": 3,
						"topics": [
							"0x572f161235911da04685a68c06adf558fc7e4a36909dca394650e0adc19cc93d",
							"0x000000000000000000000000c034550b542b83ba1de312b21d1c94a9a52b1595",
							"0x000000000000000000000000582b73e9f9ec9fa3ff32b83cfd7e2810a63bbcdb",
							"0x72e223b9c6a53c7d7a9f21afe5c04e48ce0eaf75a19ca90e06ea86d197b10a89"
						],
						"transactionHash": "0x154e9fd52abcfc74a4e43ab6c739318bfdf5cc5280eeb177f684c6f6ab9e4c4b",
						"transactionIndex": 2
					},
					{
						"address": "0x7c8Ef86687a0Bfa1882D2f25866Cd4EA354EeA3C",
						"blockHash": "0xa57d73e7ad7d5ce0c24a3d99aac0d0d70cb28fda538eb640fbb28962bd349a2e",
						"blockNumber": 10522481,
						"data": "0x",
						"index": 4,
						"topics": [
							"0x8be0079c531659141344cd1fd0a4f28419497f9722a3daafe3b4186f6b6457e0",
							"0x0000000000000000000000000000000000000000000000000000000000000000",
							"0x0000000000000000000000004e59b44847b379578588920ca78fbf26c0b4956c"
						],
						"transactionHash": "0x154e9fd52abcfc74a4e43ab6c739318bfdf5cc5280eeb177f684c6f6ab9e4c4b",
						"transactionIndex": 2
					},
					{
						"address": "0x89BeB14760384C532b587eE00bB42EE307f17e47",
						"blockHash": "0xa57d73e7ad7d5ce0c24a3d99aac0d0d70cb28fda538eb640fbb28962bd349a2e",
						"blockNumber": 10522481,
						"data": "0x",
						"index": 5,
						"topics": [
							"0x6895c13664aa4f67288b25d7a21d7aaa34916e355fb9b6fae0a139a9085becb8",
							"0x000000000000000000000000582b73e9f9ec9fa3ff32b83cfd7e2810a63bbcdb"
						],
						"transactionHash": "0x154e9fd52abcfc74a4e43ab6c739318bfdf5cc5280eeb177f684c6f6ab9e4c4b",
						"transactionIndex": 2
					},
					{
						"address": "0x582b73e9F9EC9fa3fF32b83CFD7E2810a63BBCdB",
						"blockHash": "0xa57d73e7ad7d5ce0c24a3d99aac0d0d70cb28fda538eb640fbb28962bd349a2e",
						"blockNumber": 10522481,
						"data": "0x0000000000000000000000000000000000000000000000000000000000000001",
						"index": 6,
						"topics": [
							"0xa65fb05c5808f5f389d72edeaf719ce38f4cc55c1f69ca3cbfb31c21501caa07",
							"0xf29a925ad7595b534a7334af3cff0f2715becdc9b501f846c233331b92b7a47a"
						],
						"transactionHash": "0x154e9fd52abcfc74a4e43ab6c739318bfdf5cc5280eeb177f684c6f6ab9e4c4b",
						"transactionIndex": 2
					},
					{
						"address": "0x89BeB14760384C532b587eE00bB42EE307f17e47",
						"blockHash": "0xa57d73e7ad7d5ce0c24a3d99aac0d0d70cb28fda538eb640fbb28962bd349a2e",
						"blockNumber": 10522481,
						"data": "0x",
						"index": 7,
						"topics": [
							"0x6895c13664aa4f67288b25d7a21d7aaa34916e355fb9b6fae0a139a9085becb8",
							"0x000000000000000000000000582b73e9f9ec9fa3ff32b83cfd7e2810a63bbcdb"
						],
						"transactionHash": "0x154e9fd52abcfc74a4e43ab6c739318bfdf5cc5280eeb177f684c6f6ab9e4c4b",
						"transactionIndex": 2
					},
					{
						"address": "0x582b73e9F9EC9fa3fF32b83CFD7E2810a63BBCdB",
						"blockHash": "0xa57d73e7ad7d5ce0c24a3d99aac0d0d70cb28fda538eb640fbb28962bd349a2e",
						"blockNumber": 10522481,
						"data": "0x0000000000000000000000000000000000000000000000000000000000000002",
						"index": 8,
						"topics": [
							"0xa65fb05c5808f5f389d72edeaf719ce38f4cc55c1f69ca3cbfb31c21501caa07",
							"0xf29a925ad7595b534a7334af3cff0f2715becdc9b501f846c233331b92b7a47a"
						],
						"transactionHash": "0x154e9fd52abcfc74a4e43ab6c739318bfdf5cc5280eeb177f684c6f6ab9e4c4b",
						"transactionIndex": 2
					},
					{
						"address": "0x89BeB14760384C532b587eE00bB42EE307f17e47",
						"blockHash": "0xa57d73e7ad7d5ce0c24a3d99aac0d0d70cb28fda538eb640fbb28962bd349a2e",
						"blockNumber": 10522481,
						"data": "0x",
						"index": 9,
						"topics": [
							"0x6895c13664aa4f67288b25d7a21d7aaa34916e355fb9b6fae0a139a9085becb8",
							"0x000000000000000000000000582b73e9f9ec9fa3ff32b83cfd7e2810a63bbcdb"
						],
						"transactionHash": "0x154e9fd52abcfc74a4e43ab6c739318bfdf5cc5280eeb177f684c6f6ab9e4c4b",
						"transactionIndex": 2
					},
					{
						"address": "0x582b73e9F9EC9fa3fF32b83CFD7E2810a63BBCdB",
						"blockHash": "0xa57d73e7ad7d5ce0c24a3d99aac0d0d70cb28fda538eb640fbb28962bd349a2e",
						"blockNumber": 10522481,
						"data": "0x0000000000000000000000000000000000000000000000000000000000000003",
						"index": 10,
						"topics": [
							"0xa65fb05c5808f5f389d72edeaf719ce38f4cc55c1f69ca3cbfb31c21501caa07",
							"0xf29a925ad7595b534a7334af3cff0f2715becdc9b501f846c233331b92b7a47a"
						],
						"transactionHash": "0x154e9fd52abcfc74a4e43ab6c739318bfdf5cc5280eeb177f684c6f6ab9e4c4b",
						"transactionIndex": 2
					},
					{
						"address": "0x582b73e9F9EC9fa3fF32b83CFD7E2810a63BBCdB",
						"blockHash": "0xa57d73e7ad7d5ce0c24a3d99aac0d0d70cb28fda538eb640fbb28962bd349a2e",
						"blockNumber": 10522481,
						"data": "0x",
						"index": 11,
						"topics": [
							"0x4383d976757d67ca920616be0b6430a681ea9d3dcce8d6d61d4603ca4a9bff63",
							"0xf29a925ad7595b534a7334af3cff0f2715becdc9b501f846c233331b92b7a47a"
						],
						"transactionHash": "0x154e9fd52abcfc74a4e43ab6c739318bfdf5cc5280eeb177f684c6f6ab9e4c4b",
						"transactionIndex": 2
					}
				],
				"logsBloom": "0x00000000080010000040000000080000000000000008000000800000004000000000200000000000000000000040000100000000400000000000001000000002000000000000200000000000000000000001000000000000000000000000000000000000020000040000000000000800000000000000000008000000000000400000000000000000000100000000000000000000001400400000000000000000004000800011000000000000000000020200000008020000000000000004200000000000000000000008000008000000000000000000000008000000020020000000000000000008000000008000000280000100000000000000000008000000",
				"status": 1,
				"to": "0xB5E96127D417b1B3ef8438496a38A143167209c7"
			},
			"metadata": "{\"compiler\":{\"version\":\"0.8.23+commit.f704f362\"},\"language\":\"Solidity\",\"output\":{\"abi\":[{\"inputs\":[{\"internalType\":\"contract JB721TiersHook\",\"name\":\"hook\",\"type\":\"address\"},{\"internalType\":\"contract IJB721TiersHookStore\",\"name\":\"store\",\"type\":\"address\"},{\"internalType\":\"contract IJBAddressRegistry\",\"name\":\"addressRegistry\",\"type\":\"address\"},{\"internalType\":\"address\",\"name\":\"trustedForwarder\",\"type\":\"address\"}],\"stateMutability\":\"nonpayable\",\"type\":\"constructor\"},{\"inputs\":[],\"type\":\"error\",\"name\":\"ERC1167FailedCreateClone\"},{\"inputs\":[{\"internalType\":\"uint256\",\"name\":\"projectId\",\"type\":\"uint256\",\"indexed\":true},{\"internalType\":\"contract IJB721TiersHook\",\"name\":\"newHook\",\"type\":\"address\",\"indexed\":false}],\"type\":\"event\",\"name\":\"HookDeployed\",\"anonymous\":false},{\"inputs\":[],\"stateMutability\":\"view\",\"type\":\"function\",\"name\":\"ADDRESS_REGISTRY\",\"outputs\":[{\"internalType\":\"contract IJBAddressRegistry\",\"name\":\"\",\"type\":\"address\"}]},{\"inputs\":[],\"stateMutability\":\"view\",\"type\":\"function\",\"name\":\"HOOK\",\"outputs\":[{\"internalType\":\"contract JB721TiersHook\",\"name\":\"\",\"type\":\"address\"}]},{\"inputs\":[],\"stateMutability\":\"view\",\"type\":\"function\",\"name\":\"STORE\",\"outputs\":[{\"internalType\":\"contract IJB721TiersHookStore\",\"name\":\"\",\"type\":\"address\"}]},{\"inputs\":[{\"internalType\":\"uint256\",\"name\":\"projectId\",\"type\":\"uint256\"},{\"internalType\":\"struct JBDeploy721TiersHookConfig\",\"name\":\"deployTiersHookConfig\",\"type\":\"tuple\",\"components\":[{\"internalType\":\"string\",\"name\":\"name\",\"type\":\"string\"},{\"internalType\":\"string\",\"name\":\"symbol\",\"type\":\"string\"},{\"internalType\":\"contract IJBRulesets\",\"name\":\"rulesets\",\"type\":\"address\"},{\"internalType\":\"string\",\"name\":\"baseUri\",\"type\":\"string\"},{\"internalType\":\"contract IJB721TokenUriResolver\",\"name\":\"tokenUriResolver\",\"type\":\"address\"},{\"internalType\":\"string\",\"name\":\"contractUri\",\"type\":\"string\"},{\"internalType\":\"struct JB721InitTiersConfig\",\"name\":\"tiersConfig\",\"type\":\"tuple\",\"components\":[{\"internalType\":\"struct JB721TierConfig[]\",\"name\":\"tiers\",\"type\":\"tuple[]\",\"components\":[{\"internalType\":\"uint104\",\"name\":\"price\",\"type\":\"uint104\"},{\"internalType\":\"uint32\",\"name\":\"initialSupply\",\"type\":\"uint32\"},{\"internalType\":\"uint32\",\"name\":\"votingUnits\",\"type\":\"uint32\"},{\"internalType\":\"uint16\",\"name\":\"reserveFrequency\",\"type\":\"uint16\"},{\"internalType\":\"address\",\"name\":\"reserveBeneficiary\",\"type\":\"address\"},{\"internalType\":\"bytes32\",\"name\":\"encodedIPFSUri\",\"type\":\"bytes32\"},{\"internalType\":\"uint24\",\"name\":\"category\",\"type\":\"uint24\"},{\"internalType\":\"bool\",\"name\":\"allowOwnerMint\",\"type\":\"bool\"},{\"internalType\":\"bool\",\"name\":\"useReserveBeneficiaryAsDefault\",\"type\":\"bool\"},{\"internalType\":\"bool\",\"name\":\"transfersPausable\",\"type\":\"bool\"},{\"internalType\":\"bool\",\"name\":\"useVotingUnits\",\"type\":\"bool\"},{\"internalType\":\"bool\",\"name\":\"cannotBeRemoved\",\"type\":\"bool\"}]},{\"internalType\":\"uint32\",\"name\":\"currency\",\"type\":\"uint32\"},{\"internalType\":\"uint8\",\"name\":\"decimals\",\"type\":\"uint8\"},{\"internalType\":\"contract IJBPrices\",\"name\":\"prices\",\"type\":\"address\"}]},{\"internalType\":\"address\",\"name\":\"reserveBeneficiary\",\"type\":\"address\"},{\"internalType\":\"struct JB721TiersHookFlags\",\"name\":\"flags\",\"type\":\"tuple\",\"components\":[{\"internalType\":\"bool\",\"name\":\"noNewTiersWithReserves\",\"type\":\"bool\"},{\"internalType\":\"bool\",\"name\":\"noNewTiersWithVotes\",\"type\":\"bool\"},{\"internalType\":\"bool\",\"name\":\"noNewTiersWithOwnerMinting\",\"type\":\"bool\"},{\"internalType\":\"bool\",\"name\":\"preventOverspending\",\"type\":\"bool\"}]}]}],\"stateMutability\":\"nonpayable\",\"type\":\"function\",\"name\":\"deployHookFor\",\"outputs\":[{\"internalType\":\"contract IJB721TiersHook\",\"name\":\"newHook\",\"type\":\"address\"}]},{\"inputs\":[{\"internalType\":\"address\",\"name\":\"forwarder\",\"type\":\"address\"}],\"stateMutability\":\"view\",\"type\":\"function\",\"name\":\"isTrustedForwarder\",\"outputs\":[{\"internalType\":\"bool\",\"name\":\"\",\"type\":\"bool\"}]},{\"inputs\":[],\"stateMutability\":\"view\",\"type\":\"function\",\"name\":\"trustedForwarder\",\"outputs\":[{\"internalType\":\"address\",\"name\":\"\",\"type\":\"address\"}]}],\"devdoc\":{\"kind\":\"dev\",\"methods\":{\"constructor\":{\"params\":{\"addressRegistry\":\"A registry which stores references to contracts and their deployers.\",\"hook\":\"Reference copy of a hook.\"}},\"deployHookFor(uint256,(string,string,address,string,address,string,((uint104,uint32,uint32,uint16,address,bytes32,uint24,bool,bool,bool,bool,bool)[],uint32,uint8,address),address,(bool,bool,bool,bool)))\":{\"params\":{\"deployTiersHookConfig\":\"The config to deploy the hook with, which determines its behavior.\",\"projectId\":\"The ID of the project to deploy the hook for.\"},\"returns\":{\"newHook\":\"The address of the newly deployed hook.\"}},\"isTrustedForwarder(address)\":{\"details\":\"Indicates whether any particular address is the trusted forwarder.\"},\"trustedForwarder()\":{\"details\":\"Returns the address of the trusted forwarder.\"}},\"version\":1},\"userdoc\":{\"kind\":\"user\",\"methods\":{\"ADDRESS_REGISTRY()\":{\"notice\":\"A registry which stores references to contracts and their deployers.\"},\"HOOK()\":{\"notice\":\"A 721 tiers hook.\"},\"STORE()\":{\"notice\":\"The contract that stores and manages data for this contract's NFTs.\"},\"deployHookFor(uint256,(string,string,address,string,address,string,((uint104,uint32,uint32,uint16,address,bytes32,uint24,bool,bool,bool,bool,bool)[],uint32,uint8,address),address,(bool,bool,bool,bool)))\":{\"notice\":\"Deploys a 721 tiers hook for the specified project.\"}},\"version\":1}},\"settings\":{\"remappings\":[\"@bananapus/=node_modules/@bananapus/\",\"@chainlink/=node_modules/@chainlink/\",\"@eth-optimism/=node_modules/@eth-optimism/\",\"@openzeppelin/=node_modules/@openzeppelin/\",\"@prb/=node_modules/@prb/\",\"@scroll-tech/=node_modules/@scroll-tech/\",\"@sphinx-labs/contracts/=node_modules/@sphinx-labs/contracts/contracts/foundry/\",\"@uniswap/=node_modules/@uniswap/\",\"ds-test/=lib/forge-std/lib/ds-test/src/\",\"forge-std/=lib/forge-std/src/\",\"hardhat/=node_modules/hardhat/\",\"solmate/=node_modules/solmate/\",\"sphinx/=lib/sphinx/packages/contracts/contracts/forge-std/src/\"],\"optimizer\":{\"enabled\":true,\"runs\":1000},\"metadata\":{\"bytecodeHash\":\"ipfs\"},\"compilationTarget\":{\"src/JB721TiersHookDeployer.sol\":\"JB721TiersHookDeployer\"},\"evmVersion\":\"paris\",\"libraries\":{}},\"sources\":{\"node_modules/@bananapus/address-registry/src/interfaces/IJBAddressRegistry.sol\":{\"keccak256\":\"0x33ab082cbb870d8ff950f56db686911b39d090432bc8c09a6b3434aedcb58936\",\"urls\":[\"bzz-raw://cd98fcdc58cf9af46571656b44ff0dc5d94c9a1c6e5c8eb07b1153bfd1bc4206\",\"dweb:/ipfs/Qmcm36zeucynBTTj7q3BVLmZF9CG3X7cGKDPdo9JchVYa9\"],\"license\":\"MIT\"},\"node_modules/@bananapus/core/src/abstract/JBPermissioned.sol\":{\"keccak256\":\"0xe08c8a7eeac9d1c7c2e0db6d5b98d1af09889300835a3d47d9f29319fecce703\",\"urls\":[\"bzz-raw://42645cf52bcc45053ef650790916faed5d0a74cecef336b217433fdd2c5c4166\",\"dweb:/ipfs/QmdMmxG1tSGucQwz4LYbVnuj7HU23YvqLH6xfrNWv5Bmus\"],\"license\":\"MIT\"},\"node_modules/@bananapus/core/src/enums/JBApprovalStatus.sol\":{\"keccak256\":\"0x61c69b6bac7d24b566d87cda23a77e4ca9cdb87200b106aba8534cb9a0973e33\",\"urls\":[\"bzz-raw://6a9ca7249de76f77a8252eefe6bd1b63d47952f25a2acfa2c8db967cdff4470c\",\"dweb:/ipfs/QmaxSxptRQNj8bNy96EreENmrnRWdKmhyihBcxyWzBX5BN\"],\"license\":\"MIT\"},\"node_modules/@bananapus/core/src/interfaces/IJBDirectory.sol\":{\"keccak256\":\"0x9cc380844aef60078ee47a61861e55a29c4a8c947efd556ebd36e6909f7b9d62\",\"urls\":[\"bzz-raw://9f5190ec8b6683d9781ee6e9eedcc91294753242748875d4a06349077e4cbaaf\",\"dweb:/ipfs/QmTQrPuXT9TCA4txwrperMeXSGvGxP8iokUK47f62F388i\"],\"license\":\"MIT\"},\"node_modules/@bananapus/core/src/interfaces/IJBPayHook.sol\":{\"keccak256\":\"0x9438866782c652c2942f4d114e35f393cd3c8b0334abce8387eed90bca35e8b2\",\"urls\":[\"bzz-raw://cfd99daf57213f92325aad7d7d16e98476d38e870470e95ba01e3ae3cdecc95d\",\"dweb:/ipfs/QmUKKAVGf7ki8BHksr99tFcRW8APveeB5tNH63ctTbbCW8\"],\"license\":\"MIT\"},\"node_modules/@bananapus/core/src/interfaces/IJBPermissioned.sol\":{\"keccak256\":\"0x5b038d4dee116584e88b230920e56d48e135053e3f7e5642eaea14a775c1dad7\",\"urls\":[\"bzz-raw://19e43102f349fd4a1da1c0943ffb8f2950007fe4bb4bb7e8f74fc142575d091b\",\"dweb:/ipfs/QmXHAt4KzDTdDZgDDefEXH2WKi7NcfkJb9R7nxW5uDqsNp\"],\"license\":\"MIT\"},\"node_modules/@bananapus/core/src/interfaces/IJBPermissions.sol\":{\"keccak256\":\"0x18870e500edf0fbadc353e273a5574701fb80466376b908c65e7cc3f11044d4d\",\"urls\":[\"bzz-raw://352a47c45853aec80e7acf0d286ade3106eb4cb456776b28a3c2f3f1091bed90\",\"dweb:/ipfs/QmQeYd3YbudYZy2hfbfht9kwhxhw4tuuLKMEYy9UY6dcSy\"],\"license\":\"MIT\"},\"node_modules/@bananapus/core/src/interfaces/IJBPriceFeed.sol\":{\"keccak256\":\"0x4bd84c0f1a5d4729ed709bcddd43f4c50ec4a165ece79780af8dce482ed07d4a\",\"urls\":[\"bzz-raw://62bac4bfb6982fb002f620c77e5c445e62d50241a5aa64a07e51d929f5a42180\",\"dweb:/ipfs/QmWgJUDreVY2BuMX38a1iUUR5kNbMwGnKG3VvurB7oZtuM\"],\"license\":\"MIT\"},\"node_modules/@bananapus/core/src/interfaces/IJBPrices.sol\":{\"keccak256\":\"0x99525f31440b955742dce84ba57de9fc1221139b5367c1f834723bef9e13e6e1\",\"urls\":[\"bzz-raw://6fa03f0cd4ad87dd7cbae7bf7f54463450874291773c8f70f2c31ef2cae62bb0\",\"dweb:/ipfs/QmSPajPV5ismteJuB6Spzm9VmhTj2iS3eVrfpJC1Zuzg8n\"],\"license\":\"MIT\"},\"node_modules/@bananapus/core/src/interfaces/IJBProjects.sol\":{\"keccak256\":\"0x735c2fb8f1fa827f054ee77f7a0ae4b312656217acb75b624d2c8fd9dc40151b\",\"urls\":[\"bzz-raw://ee7fc92299a8633a80693ae63ab494dcd125f1789487a54a39dc0e5696e5996f\",\"dweb:/ipfs/QmX7YJD4pS2XhgQb7p3JbBAXynT7YGPXcZe92BiWWRrsCL\"],\"license\":\"MIT\"},\"node_modules/@bananapus/core/src/interfaces/IJBRedeemHook.sol\":{\"keccak256\":\"0x8ab46fcd7d0e739661eb76056ad93ff99106f38420ef0b4eb97fa9f4bb71a68a\",\"urls\":[\"bzz-raw://0ef96fcb7ad26281d444d8e0c677b25114fdd63b1c172d477e030dce8ba53b62\",\"dweb:/ipfs/Qmcx1jRQuwU4pZFuLxsSsx4oMbRaDfktHrPnXextgbWc5m\"],\"license\":\"MIT\"},\"node_modules/@bananapus/core/src/interfaces/IJBRulesetApprovalHook.sol\":{\"keccak256\":\"0x592e95d159494421c6b1bcb362d0cee1df0132921697351304e9cd7af4fbd386\",\"urls\":[\"bzz-raw://5bebfd5fa67c1b6ea16fa2e76e9520e9dfe52a579f48dd94d0c2ec45f78ad178\",\"dweb:/ipfs/QmRUawEGtfYoYSHmHELGhvJoWuMsxLPKtqAXgsrb7fJboP\"],\"license\":\"MIT\"},\"node_modules/@bananapus/core/src/interfaces/IJBRulesetDataHook.sol\":{\"keccak256\":\"0x13b4b9f4b847f62442da1c1a59b399f8f201b31a28edb96aa5a8a78ad57c24d0\",\"urls\":[\"bzz-raw://4fcd00b77d0f40cf6d5ee6590b6ef4ee1f606e89ae4c4faed3710fb462108f8e\",\"dweb:/ipfs/QmeoE54DQ3eGw9EDXfN7aTMmEjubAtirahmytDijo6GSeE\"],\"license\":\"MIT\"},\"node_modules/@bananapus/core/src/interfaces/IJBRulesets.sol\":{\"keccak256\":\"0xd3f817d22ecbe24da63c552c069bf0c4fbbf3bcd5c3b5633002afd24aacf6882\",\"urls\":[\"bzz-raw://c1185aec0f6b6f0f4d93ffeeed0972ccf38420b00fe570b5e1838ed2b1f5db49\",\"dweb:/ipfs/QmWz36azGTFnjFXpFSh6BHt4nactgjtF64L3PeTqs4ZqSR\"],\"license\":\"MIT\"},\"node_modules/@bananapus/core/src/interfaces/IJBTerminal.sol\":{\"keccak256\":\"0x19dc9bf8cbdc8f13ee5da9dc3a87047eacb94a3fc19740a286c1f0bad2cc39ca\",\"urls\":[\"bzz-raw://0b05ae6fda9a85672508232fd992b8a5f5ffd8096622eeb12c8a7b3317eb3867\",\"dweb:/ipfs/QmNh9Quj37BXYGdTdcCD1Q58PchRsE5TLbEZep56qS3MpV\"],\"license\":\"MIT\"},\"node_modules/@bananapus/core/src/interfaces/IJBTokenUriResolver.sol\":{\"keccak256\":\"0xfa5cb00dcd6085d1ef912d071fe73c63f9478a2cd0f9d8bddaf659b6af2d0967\",\"urls\":[\"bzz-raw://282e4e7c342d65f77cde0e9a08fcaf20ef5cf379c7a48b639842c0ffd0b2afb8\",\"dweb:/ipfs/QmbnN3PEQeZaXdPLT75V1J79kMg7KqSMru37RHrL3z8Yf2\"],\"license\":\"MIT\"},\"node_modules/@bananapus/core/src/libraries/JBConstants.sol\":{\"keccak256\":\"0x9d3a9a953f859d8ec79a599577f8972de6da7199cc1bfa7fdad017d4d722bcb4\",\"urls\":[\"bzz-raw://f151fcb53a8d2684eff8b9e56ac790bcbcadd8199a4fd4d17c5b224b22936722\",\"dweb:/ipfs/QmdAz1ZtCE8nTiC4AxQNLfJhnY3ndGum2Lbef7seKdvTdR\"],\"license\":\"MIT\"},\"node_modules/@bananapus/core/src/libraries/JBMetadataResolver.sol\":{\"keccak256\":\"0x900731084917f812806a35dab2c7ae65a6f07506d6c953ae0cd6d993fe85560f\",\"urls\":[\"bzz-raw://2002892aef205b5192fa5c2d1cf1698ba0836bed7eaba839444cd0f93b4fb050\",\"dweb:/ipfs/QmPRGSNRdpST1xt2brhGWSDsEYD29j5QwaJ3SA518UUXWs\"],\"license\":\"MIT\"},\"node_modules/@bananapus/core/src/libraries/JBRulesetMetadataResolver.sol\":{\"keccak256\":\"0x83f25c531d9e212379b4326fd93bf658a0f6d0e839bbd67bff7b66b9b55fb670\",\"urls\":[\"bzz-raw://3eb4a41ececec705febac7b799d7224e67f12761ae3975d49dd8bddaac608ecd\",\"dweb:/ipfs/QmNgL5VccDhP5xofEcGWNKk3v4KG23wGF9vc3d4YJ5MLnv\"],\"license\":\"MIT\"},\"node_modules/@bananapus/core/src/structs/JBAccountingContext.sol\":{\"keccak256\":\"0x2907ff54d1e903cc7e0390dd88c3975884702dc2673642aacbe22b66560b56de\",\"urls\":[\"bzz-raw://a66a5381ce877b32f0e0058ceeaf843e9b6b2bc8af666c0c9f4a9d01091da004\",\"dweb:/ipfs/QmQynCetUr37dBkS1YwDS8evxuXGiqanW6THmeUxXtim8w\"],\"license\":\"MIT\"},\"node_modules/@bananapus/core/src/structs/JBAfterPayRecordedContext.sol\":{\"keccak256\":\"0xd26c3a774ff38be79064085970454fe2603a23a638c76270d5b1b3829206c3e8\",\"urls\":[\"bzz-raw://3b55dbe3bf1ef625b7ca04efab3de35406e6041d5b3d82c7265469c500e2b702\",\"dweb:/ipfs/QmUdBDo4Lt3mcsFcsXT2mqq3czFwZjQJFPLM89YA2VtD7k\"],\"license\":\"MIT\"},\"node_modules/@bananapus/core/src/structs/JBAfterRedeemRecordedContext.sol\":{\"keccak256\":\"0x521f5d23a36f0da72362cd84890cc867bd83baa8dc836ba6c5066d51dba2f163\",\"urls\":[\"bzz-raw://6cc461313286dde62d045d6288e87bae5032e035796326f5b1ed6218e58aa9da\",\"dweb:/ipfs/QmQS2AkQwf2ANQieDuaUnpJEdXChoLv4CCbZqHkfywYPSR\"],\"license\":\"MIT\"},\"node_modules/@bananapus/core/src/structs/JBBeforePayRecordedContext.sol\":{\"keccak256\":\"0x5b04e814da83c7e83ff892ab07eaad6abce6f7b85a75f8da9380e9fc3470bc81\",\"urls\":[\"bzz-raw://11c889aab993fce3e3cc2dedc15fc30dd367e7fef9b7b1bfd6a6a9f248781731\",\"dweb:/ipfs/QmVVtydCD1azeWhGLxA1hthxfLyKzMHZ1eVzCz3a3R5dLy\"],\"license\":\"MIT\"},\"node_modules/@bananapus/core/src/structs/JBBeforeRedeemRecordedContext.sol\":{\"keccak256\":\"0x73eadaf6827e82f6ccbe3a1e2b2b7fc6c59cef471f73335041b30ddcc000989d\",\"urls\":[\"bzz-raw://2f3ee84662eed565dbdaed406ef836fffaf55cccd417575578152e5085d0b1f2\",\"dweb:/ipfs/QmaJGFS7hxJsiUdKvbv5BKhSwceDEzKBnt7t5YeNWvYgMK\"],\"license\":\"MIT\"},\"node_modules/@bananapus/core/src/structs/JBPayHookSpecification.sol\":{\"keccak256\":\"0x955f0bfca97300b9e5927dc181753830ee362f83fa9ca32a90daade32aa0cfd5\",\"urls\":[\"bzz-raw://f517af1597c7c40f8d3da53f7a6684a3e162950a16559d6bf6ea3b727bb11546\",\"dweb:/ipfs/QmRWo2ZTYXmVZTzNJDYhsJNsEaHphjpUfx9eNz2cciyz86\"],\"license\":\"MIT\"},\"node_modules/@bananapus/core/src/structs/JBPermissionsData.sol\":{\"keccak256\":\"0x8f0f69a6ebf5f3704e3dfcb3712fb9d3f94ae7c1ab89bf3e37bad42a3e7a0487\",\"urls\":[\"bzz-raw://57b0c5e52843e2217082889ed47b4da3943e0da4590d5768dcebfe3edad4a6b8\",\"dweb:/ipfs/QmRz48vuWLw81kUP836rh1qzqWiJFGbksgRUA9xGEDNKTY\"],\"license\":\"MIT\"},\"node_modules/@bananapus/core/src/structs/JBRedeemHookSpecification.sol\":{\"keccak256\":\"0x673d16ee1a91bf8de3b37e57284e60451b70a9c2d748c9cdc7a151f5624af18f\",\"urls\":[\"bzz-raw://ceeb5e81effa0f076c5630c756dfcf1548d09f822b255a0a6ee01e54de8c8ae2\",\"dweb:/ipfs/QmSMoMNPRhPMnuJNvWa6S59XRfycGz9o2ApNp63bUW6TdX\"],\"license\":\"MIT\"},\"node_modules/@bananapus/core/src/structs/JBRuleset.sol\":{\"keccak256\":\"0x15b2bf3174d84846a91ccbf5a344dfb125b55ed9cf50102db8d6868844225189\",\"urls\":[\"bzz-raw://647416b025dbd941094db89cbc69f755c155bd6c87be3f322394ccc4a8e0442d\",\"dweb:/ipfs/QmTCL9xcHnxQ4t5AmCPoZvXDUPW5xhzhyyXYbkMdyg44au\"],\"license\":\"MIT\"},\"node_modules/@bananapus/core/src/structs/JBRulesetMetadata.sol\":{\"keccak256\":\"0xfea54c9f98416d2aa05309e7ff76967d6968a614850a1e33e48fde793ea8b514\",\"urls\":[\"bzz-raw://bf55386cbab90dbc1296b2b0cbfdc217a4500d67702e4a093a4c78bd127ecd5c\",\"dweb:/ipfs/QmTRq9mZrNSXu7oCZwti4JbBFrbY6A5msRqi9RbtL49NAj\"],\"license\":\"MIT\"},\"node_modules/@bananapus/core/src/structs/JBTokenAmount.sol\":{\"keccak256\":\"0x5cf0626b73a596c1e2da17c89ae039a7c0374310b060d48568d3b6c11fbe6180\",\"urls\":[\"bzz-raw://63348b50be95e2995409394a17caffc563a646f0972650a1230bf864fbd3219b\",\"dweb:/ipfs/QmZXZpS3SbFD5nWaCauf6AqbEhLURv5qsKHpThBvQgDU6u\"],\"license\":\"MIT\"},\"node_modules/@bananapus/ownable/src/JBOwnable.sol\":{\"keccak256\":\"0x5b0aec2bc7164bdb972bfb9f71660c887308cf3a72738c7469d03bf264cf0d54\",\"urls\":[\"bzz-raw://bf4f60cebc0a707004371425aa3c8751b6a84dfb4fc9bf788160ae9ac1e906f6\",\"dweb:/ipfs/QmegUfWLhKuByQTkfMkmwkEs2Tk5ZEuR56DqQw5kxFzP3d\"],\"license\":\"MIT\"},\"node_modules/@bananapus/ownable/src/JBOwnableOverrides.sol\":{\"keccak256\":\"0x70a7c55f2a0f4324b63afe61e9d0de6e54396073e431844a19936d2aaaf6d7dd\",\"urls\":[\"bzz-raw://94c55139a8e974e2a88c6f0fc7594be3044742cfc499c989051eaf6664ec7dab\",\"dweb:/ipfs/QmQPnLAootqEGzpHRdhsYGBU3cqicRYLAe6bTti2UCBHyS\"],\"license\":\"MIT\"},\"node_modules/@bananapus/ownable/src/interfaces/IJBOwnable.sol\":{\"keccak256\":\"0x2c513558439d763df03e8a68c1aef698618182fd44c285405c35597d52c65ad1\",\"urls\":[\"bzz-raw://11cc25c41fccc20cca29f93dd120e67760188fd2040ef0330a093d37fbfa2f8f\",\"dweb:/ipfs/QmWpxcv41eYmsNYT3ph1nts5pC7sp3EzwJxKDGebMqEbsH\"],\"license\":\"MIT\"},\"node_modules/@bananapus/ownable/src/struct/JBOwner.sol\":{\"keccak256\":\"0x5624ba356f01f722984c1b857a106f413b12e57bae1f762a81c16ee511e3325a\",\"urls\":[\"bzz-raw://3120b5649ac8b55158df138dcac03f6850fc988cc5a24a7cb06e6581265ca284\",\"dweb:/ipfs/QmQBSLxRT9j1MEERUt8dWbSsAjianbHpM2CFwciLK7MwaP\"],\"license\":\"MIT\"},\"node_modules/@bananapus/permission-ids/src/JBPermissionIds.sol\":{\"keccak256\":\"0xf61109f6b217a80d5e5391f548fb6f2e451f7dbee3fabfc04cf17e88722203bc\",\"urls\":[\"bzz-raw://ac776ab1cd621c22bd7973471acdfa187f3abc659ad9a3ef6ed10b6447dfcf9c\",\"dweb:/ipfs/QmYLbaHt68qcuMzkiKpe96jMjiWUq1F3u8yMhxmZ3pnnWu\"],\"license\":\"MIT\"},\"node_modules/@openzeppelin/contracts/interfaces/IERC2981.sol\":{\"keccak256\":\"0x89b84f7b1b2d6c294cd6b9a9f661c1cfb1b9b10ca7bac5b3445850a8ce96dcf1\",\"urls\":[\"bzz-raw://44f961aefa43a50c94d8b68e749235b2cf3bd1de18bf6f2e5e1c0fd9a59e06ea\",\"dweb:/ipfs/QmNzd2bnJidavPtt2hQ1em387T6W37n3kDx8WrneCZozxV\"],\"license\":\"MIT\"},\"node_modules/@openzeppelin/contracts/interfaces/draft-IERC6093.sol\":{\"keccak256\":\"0x60c65f701957fdd6faea1acb0bb45825791d473693ed9ecb34726fdfaa849dd7\",\"urls\":[\"bzz-raw://ea290300e0efc4d901244949dc4d877fd46e6c5e43dc2b26620e8efab3ab803f\",\"dweb:/ipfs/QmcLLJppxKeJWqHxE2CUkcfhuRTgHSn8J4kijcLa5MYhSt\"],\"license\":\"MIT\"},\"node_modules/@openzeppelin/contracts/metatx/ERC2771Context.sol\":{\"keccak256\":\"0x98256cf37b71a69b2f5a8a6fe975ea03590dff703102bd141a830f94e8adebf6\",\"urls\":[\"bzz-raw://6251fe1f6a1e45e6d619d150c123afc88b8646b38ee26a136efa9a6988a31d3f\",\"dweb:/ipfs/QmeXDT85wSZdP31wkz3ah3KhponCiksJLP5o2LR5e1JxcK\"],\"license\":\"MIT\"},\"node_modules/@openzeppelin/contracts/proxy/Clones.sol\":{\"keccak256\":\"0xd18408af8a91bedb3d56343eeb9b30eb852e6dea93a5e2d5c6db9ca4cb905155\",\"urls\":[\"bzz-raw://061475b7302a732dc598907790f407417551c2b13e89daa57b3698489ef5484b\",\"dweb:/ipfs/QmdX5qmk3VSniSErFuD4aVawQxUi2MuUbP7spPcHddPfcX\"],\"license\":\"MIT\"},\"node_modules/@openzeppelin/contracts/token/ERC721/IERC721.sol\":{\"keccak256\":\"0x5ef46daa3b58ef2702279d514780316efaa952915ee1aa3396f041ee2982b0b4\",\"urls\":[\"bzz-raw://2f8f2a76e23b02fc69e8cd24c3cb47da6c7af3a2d6c3a382f8ac25c6e094ade7\",\"dweb:/ipfs/QmPV4ZS4tPVv4mTCf9ejyZ1ai57EEibDRj7mN2ARDCLV5n\"],\"license\":\"MIT\"},\"node_modules/@openzeppelin/contracts/token/ERC721/IERC721Receiver.sol\":{\"keccak256\":\"0x7f7a26306c79a65fb8b3b6c757cd74660c532cd8a02e165488e30027dd34ca49\",\"urls\":[\"bzz-raw://d01e0b2b837ee2f628545e54d8715b49c7ef2befd08356c2e7f6c50dde8a1c22\",\"dweb:/ipfs/QmWBAn6y2D1xgftci97Z3qR9tQnkvwQpYwFwkTvDMvqU4i\"],\"license\":\"MIT\"},\"node_modules/@openzeppelin/contracts/token/ERC721/extensions/IERC721Metadata.sol\":{\"keccak256\":\"0x37d1aaaa5a2908a09e9dcf56a26ddf762ecf295afb5964695937344fc6802ce1\",\"urls\":[\"bzz-raw://ed0bfc1b92153c5000e50f4021367b931bbe96372ac6facec3c4961b72053d02\",\"dweb:/ipfs/Qmbwp8VDerjS5SV1quwHH1oMXxPQ93fzfLVqJ2RCqbowGE\"],\"license\":\"MIT\"},\"node_modules/@openzeppelin/contracts/utils/Context.sol\":{\"keccak256\":\"0x493033a8d1b176a037b2cc6a04dad01a5c157722049bbecf632ca876224dd4b2\",\"urls\":[\"bzz-raw://6a708e8a5bdb1011c2c381c9a5cfd8a9a956d7d0a9dc1bd8bcdaf52f76ef2f12\",\"dweb:/ipfs/Qmax9WHBnVsZP46ZxEMNRQpLQnrdE4dK8LehML1Py8FowF\"],\"license\":\"MIT\"},\"node_modules/@openzeppelin/contracts/utils/Strings.sol\":{\"keccak256\":\"0x55f102ea785d8399c0e58d1108e2d289506dde18abc6db1b7f68c1f9f9bc5792\",\"urls\":[\"bzz-raw://6e52e0a7765c943ef14e5bcf11e46e6139fa044be564881378349236bf2e3453\",\"dweb:/ipfs/QmZEeeXoFPW47amyP35gfzomF9DixqqTEPwzBakv6cZw6i\"],\"license\":\"MIT\"},\"node_modules/@openzeppelin/contracts/utils/introspection/ERC165.sol\":{\"keccak256\":\"0x9e8778b14317ba9e256c30a76fd6c32b960af621987f56069e1e819c77c6a133\",\"urls\":[\"bzz-raw://1777404f1dcd0fac188e55a288724ec3c67b45288e49cc64723e95e702b49ab8\",\"dweb:/ipfs/QmZFdC626GButBApwDUvvTnUzdinevC3B24d7yyh57XkiA\"],\"license\":\"MIT\"},\"node_modules/@openzeppelin/contracts/utils/introspection/IERC165.sol\":{\"keccak256\":\"0x4296879f55019b23e135000eb36896057e7101fb7fb859c5ef690cf14643757b\",\"urls\":[\"bzz-raw://87b3541437c8c443ccd36795e56a338ed12855eec17f8da624511b8d1a7e14df\",\"dweb:/ipfs/QmeJQCtZrQjtJLr6u7ZHWeH3pBnjtLWzvRrKViAi7UZqxL\"],\"license\":\"MIT\"},\"node_modules/@openzeppelin/contracts/utils/math/Math.sol\":{\"keccak256\":\"0x005ec64c6313f0555d59e278f9a7a5ab2db5bdc72a027f255a37c327af1ec02d\",\"urls\":[\"bzz-raw://4ece9f0b9c8daca08c76b6b5405a6446b6f73b3a15fab7ff56e296cbd4a2c875\",\"dweb:/ipfs/QmQyRpyPRL5SQuAgj6SHmbir3foX65FJjbVTTQrA2EFg6L\"],\"license\":\"MIT\"},\"node_modules/@openzeppelin/contracts/utils/math/SignedMath.sol\":{\"keccak256\":\"0x5f7e4076e175393767754387c962926577f1660dd9b810187b9002407656be72\",\"urls\":[\"bzz-raw://7d533a1c97cd43a57cd9c465f7ee8dd0e39ae93a8fb8ff8e5303a356b081cdcc\",\"dweb:/ipfs/QmVBEei6aTnvYNZp2CHYVNKyZS4q1KkjANfY39WVXZXVoT\"],\"license\":\"MIT\"},\"node_modules/@prb/math/src/Common.sol\":{\"keccak256\":\"0xaa374e2c26cc93e8c22a6953804ee05f811597ef5fa82f76824378b22944778b\",\"urls\":[\"bzz-raw://279c732e161d623cf4d8a9519ca4c42c0c2db99842d0eb2a20c10fde3fa722c9\",\"dweb:/ipfs/QmVViuUXbinQGqtG5M21SgVzKihiCbFUChd4tDhtvwRmxH\"],\"license\":\"MIT\"},\"src/JB721TiersHook.sol\":{\"keccak256\":\"0x67a1a8abc1f6a05bf0398555acb87e81d5bd1d6db06f2289149b68cdbbbd5da4\",\"urls\":[\"bzz-raw://7222228ca731a0673ddfe2ed946c4c2880975e6ec6f5a022b6e8586d21055acc\",\"dweb:/ipfs/QmeqL2WQegBWPomLjpP5EvhuwRNKqy8C39gaZyvogrY1Jy\"],\"license\":\"MIT\"},\"src/JB721TiersHookDeployer.sol\":{\"keccak256\":\"0x8cadb554ef9d6a2c7371299f433de7fc93dfa76e7c3ee5045c4a75787d240916\",\"urls\":[\"bzz-raw://cf784800d387074a03ec29fa63ca61043f863b0720ba6d29dd273f2735f5758a\",\"dweb:/ipfs/QmbJFwxuCALGNHUu4c2EKGpfnVzaVcEfb6Qymc6LjXZ8eK\"],\"license\":\"MIT\"},\"src/abstract/ERC721.sol\":{\"keccak256\":\"0xc25c7c60c88684adc3f7a49621d27866866a44a3f3796e63c9fcaba75fbb2e84\",\"urls\":[\"bzz-raw://713103b7a05402264493430cfcd7d85f1a241a2eb4756af53a370fa529ea07bf\",\"dweb:/ipfs/QmSXZfxCG1N9XheS1kLCNJZ9k6ZRq4GnAMY7MKFfbKLXmz\"],\"license\":\"MIT\"},\"src/abstract/JB721Hook.sol\":{\"keccak256\":\"0x36d2a9fa61299fda4bee81002ab4751d877765b38801270eb72aed5f47e48591\",\"urls\":[\"bzz-raw://6460d03a6d0103c21f3178883cb14d2b5b48dac8d90b415af4a6b30c192af5ac\",\"dweb:/ipfs/QmNi9akp3SZYZd87Mrvozff4ccN4KSLmWzyhAupJd4chPt\"],\"license\":\"MIT\"},\"src/interfaces/IJB721Hook.sol\":{\"keccak256\":\"0x24935445bc4c5b0fe2a10aabe549122588940842a68e79a8c39b1df9458dd7fd\",\"urls\":[\"bzz-raw://1dee273fa76d9abae116de911fdda5e3113db2a58939e62e24fba98c63fd037a\",\"dweb:/ipfs/QmT6Lih7DeRAfrLc8uC7ecaw2EAKwhaP2BZHeY5DxeeVLM\"],\"license\":\"MIT\"},\"src/interfaces/IJB721TiersHook.sol\":{\"keccak256\":\"0xbd9a8dae00a4b1a02c628bd172fe4ae496e49f7651426cef08774ffdb6125c23\",\"urls\":[\"bzz-raw://9ce4fd77d5af1f570dad6b70758f09f9599768e1ab32f6b473f6181197daa0c8\",\"dweb:/ipfs/QmWj6sCTvZ2CbfSyRuhaXADxYbwwPcR42pZokcgfjpsabg\"],\"license\":\"MIT\"},\"src/interfaces/IJB721TiersHookDeployer.sol\":{\"keccak256\":\"0xc4c6dfd2573fe1f130bc5193da68a622959a11562010fa261ffd3a8893e08a7b\",\"urls\":[\"bzz-raw://0c34f79121f6c777bca3df6c2e87c0caa05146bec45e9ae29f41b0532d16c88e\",\"dweb:/ipfs/QmZJQVZC8uuuSssXtLnhsvisz7V2PCKs2s1Hbzo8hmZ9ZP\"],\"license\":\"MIT\"},\"src/interfaces/IJB721TiersHookStore.sol\":{\"keccak256\":\"0x8550e216c12c9cda865c1b1b0eb3f244aeaa8d465b197d4bd0dd8d4df265682e\",\"urls\":[\"bzz-raw://674a312f1eaffd7c6b21f58f8d4a628104e71220daf48a22237fa3bd035ddf21\",\"dweb:/ipfs/QmSRSW6cSwdpoGjVxDqiwJmJyCxfHWhCxZ2iaqeJcN2Ccy\"],\"license\":\"MIT\"},\"src/interfaces/IJB721TokenUriResolver.sol\":{\"keccak256\":\"0xfa599167098f4459320ec4141a98a17b2dfffbce422baa27d8b4e4530f61ece1\",\"urls\":[\"bzz-raw://8b758b161f4c7b520b2c34b4d91e585e961b8f4ca278eebb91d791f7f2f45140\",\"dweb:/ipfs/QmcD9DF7NJ9QykQpT4KPzm4bs3fkjzukdAUWwdU6Atfw85\"],\"license\":\"MIT\"},\"src/libraries/JB721TiersRulesetMetadataResolver.sol\":{\"keccak256\":\"0xe1e224860fce816c0566c4b22044eb2f5a767a09764d00482b954733bf18e51e\",\"urls\":[\"bzz-raw://043663de2a9c7e822e947e0b68833e77985d493bebcb48f86bf1b67f937417fc\",\"dweb:/ipfs/QmXVXPdpLfmT2a97gUQ5d2XSsHXhgpiTfs7w2ZtoD55uAd\"],\"license\":\"MIT\"},\"src/libraries/JBIpfsDecoder.sol\":{\"keccak256\":\"0xb93ba562ac1fc9d3829be00e61f3a90f51df5661cf0f2c819a7f1d8ba19ec171\",\"urls\":[\"bzz-raw://fc9bc948fac8897d9720ef25b13d63c60b40a18aa1897dd1c657fc278c416b4f\",\"dweb:/ipfs/QmNtiJTALZW5zfyKVy7XG5GkqGgMrfkVvU4Auu4bb9cGQc\"],\"license\":\"MIT\"},\"src/structs/JB721InitTiersConfig.sol\":{\"keccak256\":\"0xfb78486cec94189d0ecf2050dc9cfc11245b426c73a0711a85bff1359d774307\",\"urls\":[\"bzz-raw://a8fa01f6e64dd204dbde07a60851e9a5a74e439e1411139ae16b7cf67d2a2692\",\"dweb:/ipfs/QmZAnHyfpKr3xr7NWHj5sGaCEEtG8RtmHhkRUJJvNauym5\"],\"license\":\"MIT\"},\"src/structs/JB721Tier.sol\":{\"keccak256\":\"0x2e267a8af02f125465cdda9308477346ae4a94b024c3b2c2a6af0c00027944dd\",\"urls\":[\"bzz-raw://367ccea2c8fa815d498d771d4367ef1ded718a76e89644102034bfe4a3636b82\",\"dweb:/ipfs/QmYiFFa6ei9wZBSSVUHfY2Cb35zCDVXvbmLcgLj2BTiC1u\"],\"license\":\"MIT\"},\"src/structs/JB721TierConfig.sol\":{\"keccak256\":\"0x2fa9c5c8cec182b854a656d3b284e9d5306be35ad3dc4da79d65dca12b804af0\",\"urls\":[\"bzz-raw://b443a5f70195a66145ea1dade04454ce9a3ff1209e1aaecf53c8a9909b294d79\",\"dweb:/ipfs/QmUDPFZ4L6XpV3zLQUNVchUvecD4XfddKz2S46BKek5XL1\"],\"license\":\"MIT\"},\"src/structs/JB721TiersHookFlags.sol\":{\"keccak256\":\"0x283d8429f31bd58875c056515aa42abd09c95362bd929e85cfc44a0d92585766\",\"urls\":[\"bzz-raw://9a580b89fe99d9f8e930c58a4d0d63a5ff7c01c79d210af01373d066c9e72ed6\",\"dweb:/ipfs/QmdY1eSGSoTjv4KSdsG4Tm5CzJN6iqk3qTRga5ZWNbejRz\"],\"license\":\"MIT\"},\"src/structs/JB721TiersMintReservesConfig.sol\":{\"keccak256\":\"0xab3b319dc4e736586ae595de194d93dcdfeba365bc7a54cf6c37e697f6074ad9\",\"urls\":[\"bzz-raw://a84ae2cf2e8c3e39e831dbb39a67a8eb43c78a6de6bb78b1be2e1f1e80c69efe\",\"dweb:/ipfs/QmboGXEMqsYTxc4a7oft9rggNU7ShWSa9yB4HFMVmzXCHz\"],\"license\":\"MIT\"},\"src/structs/JB721TiersRulesetMetadata.sol\":{\"keccak256\":\"0x6720a6ada2a882f99afa050e40b6c925439da4339240565a0e706521b3aadc6b\",\"urls\":[\"bzz-raw://ede4a3165276d9d89eeea2dfd56f68d77dbfaedb738b30c8a0faa81c3a153b1b\",\"dweb:/ipfs/QmXa4QCb6K9MXxwNKed17VWeX9crKeMjkQnVk2xMARzh76\"],\"license\":\"MIT\"},\"src/structs/JBDeploy721TiersHookConfig.sol\":{\"keccak256\":\"0x4f0b8bbc19a405a096a16977fa1eedc0c56640ef777add89c050f989a62a6a35\",\"urls\":[\"bzz-raw://bd009c66aa748a2ce04720a6376683ce01ced3c0bd7f9534e145263aa49d95d3\",\"dweb:/ipfs/QmXyJCS1uQevdkw1Gc4UrRs8fZKtW9wPWFY9pxUWHKLo4e\"],\"license\":\"MIT\"}},\"version\":1}",
			"args": [
				"0x7c8Ef86687a0Bfa1882D2f25866Cd4EA354EeA3C",
				"0xB2C0Cf85FEf94012Bb4c5e0534B8A5E845BC6312",
				"0x989566Bf9fF4CffA55a98ADa7dc3E58b2a0a19c6",
				"0xB2b5841DBeF766d4b521221732F9B618fCf34A87"
			],
			"bytecode": "0x61010060405234801561001157600080fd5b50604051610e9c380380610e9c8339810160408190526100309161006b565b6001600160a01b0390811660805292831660a05290821660c0521660e0526100ca565b6001600160a01b038116811461006857600080fd5b50565b6000806000806080858703121561008157600080fd5b845161008c81610053565b602086015190945061009d81610053565b60408601519093506100ae81610053565b60608601519092506100bf81610053565b939692955090935050565b60805160a05160c05160e051610d786101246000396000818161014901526102fa01526000818160ac01526101f4015260008181610170015261019901526000818160de0152818161012001526104870152610d786000f3fe608060405234801561001057600080fd5b50600436106100725760003560e01c80637da0a877116100505780637da0a8771461011e57806389a56bbc14610144578063a54eb2421461016b57600080fd5b80632230819f14610077578063507f1465146100a7578063572b6c05146100ce575b600080fd5b61008a6100853660046108c9565b610192565b6040516001600160a01b0390911681526020015b60405180910390f35b61008a7f000000000000000000000000000000000000000000000000000000000000000081565b61010e6100dc366004610a1b565b7f00000000000000000000000000000000000000000000000000000000000000006001600160a01b0390811691161490565b604051901515815260200161009e565b7f000000000000000000000000000000000000000000000000000000000000000061008a565b61008a7f000000000000000000000000000000000000000000000000000000000000000081565b61008a7f000000000000000000000000000000000000000000000000000000000000000081565b60006101bd7f00000000000000000000000000000000000000000000000000000000000000006103f5565b9050806001600160a01b031663c07f2f9b84846000015185602001518660400151876060015188608001518960a001518a60c001517f00000000000000000000000000000000000000000000000000000000000000008c61010001516040518b63ffffffff1660e01b815260040161023e9a99989796959493929190610a85565b600060405180830381600087803b15801561025857600080fd5b505af115801561026c573d6000803e3d6000fd5b50505050806001600160a01b031663f2fde38b610287610480565b6040517fffffffff0000000000000000000000000000000000000000000000000000000060e084901b1681526001600160a01b039091166004820152602401600060405180830381600087803b1580156102e057600080fd5b505af11580156102f4573d6000803e3d6000fd5b505050507f00000000000000000000000000000000000000000000000000000000000000006001600160a01b031663b94417ab30600080815461033690610cb1565b91829055506040517fffffffff0000000000000000000000000000000000000000000000000000000060e085901b1681526001600160a01b0390921660048301526024820152604401600060405180830381600087803b15801561039957600080fd5b505af11580156103ad573d6000803e3d6000fd5b50506040516001600160a01b03841681528592507fa42f6bb68e81f4650a7966f109d861f6c3d2a477e608e30807f568bed1cebdb9915060200160405180910390a292915050565b6000763d602d80600a3d3981f3363d3d373d3d3d363d730000008260601b60e81c176000526e5af43d82803e903d91602b57fd5bf38260781b17602052603760096000f090506001600160a01b03811661047b576040517fc2f868f400000000000000000000000000000000000000000000000000000000815260040160405180910390fd5b919050565b60003660147f00000000000000000000000000000000000000000000000000000000000000006001600160a01b0316331480156104bd5750808210155b156104ed576000366104cf8385610cca565b6104da928290610ce3565b6104e391610d0d565b60601c9250505090565b339250505090565b634e487b7160e01b600052604160045260246000fd5b6040516080810167ffffffffffffffff8111828210171561052e5761052e6104f5565b60405290565b604051610180810167ffffffffffffffff8111828210171561052e5761052e6104f5565b604051610120810167ffffffffffffffff8111828210171561052e5761052e6104f5565b604051601f8201601f1916810167ffffffffffffffff811182821017156105a5576105a56104f5565b604052919050565b600082601f8301126105be57600080fd5b813567ffffffffffffffff8111156105d8576105d86104f5565b6105eb601f8201601f191660200161057c565b81815284602083860101111561060057600080fd5b816020850160208301376000918101602001919091529392505050565b6001600160a01b038116811461063257600080fd5b50565b803561047b8161061d565b80356cffffffffffffffffffffffffff8116811461047b57600080fd5b803563ffffffff8116811461047b57600080fd5b803561ffff8116811461047b57600080fd5b803562ffffff8116811461047b57600080fd5b8035801515811461047b57600080fd5b803560ff8116811461047b57600080fd5b600060808083850312156106ca57600080fd5b6106d261050b565b9150823567ffffffffffffffff808211156106ec57600080fd5b818501915085601f83011261070057600080fd5b8135602082821115610714576107146104f5565b610722818360051b0161057c565b828152818101935061018092830285018201928984111561074257600080fd5b948201945b838610156108355780868b03121561075f5760008081fd5b610767610534565b61077087610640565b815261077d84880161065d565b84820152604061078e81890161065d565b90820152606061079f888201610671565b908201526107ae878901610635565b8189015260a0878101359082015260c06107c9818901610683565b9082015260e06107da888201610696565b908201526101006107ec888201610696565b908201526101206107fe888201610696565b90820152610140610810888201610696565b90820152610160610822888201610696565b9082015285529485019493820193610747565b50865261084387820161065d565b818701525050505050610858604083016106a6565b604082015261086960608301610635565b606082015292915050565b60006080828403121561088657600080fd5b61088e61050b565b905061089982610696565b81526108a760208301610696565b60208201526108b860408301610696565b604082015261086960608301610696565b600080604083850312156108dc57600080fd5b82359150602083013567ffffffffffffffff808211156108fb57600080fd5b90840190610180828703121561091057600080fd5b610918610558565b82358281111561092757600080fd5b610933888286016105ad565b82525060208301358281111561094857600080fd5b610954888286016105ad565b60208301525061096660408401610635565b604082015260608301358281111561097d57600080fd5b610989888286016105ad565b60608301525061099b60808401610635565b608082015260a0830135828111156109b257600080fd5b6109be888286016105ad565b60a08301525060c0830135828111156109d657600080fd5b6109e2888286016106b7565b60c0830152506109f460e08401610635565b60e08201526101009150610a0a87838501610874565b828201528093505050509250929050565b600060208284031215610a2d57600080fd5b8135610a388161061d565b9392505050565b6000815180845260005b81811015610a6557602081850181015186830182015201610a49565b506000602082860101526020601f19601f83011685010191505092915050565b60006101a08c835260208181850152610aa08285018e610a3f565b91508382036040850152610ab4828d610a3f565b915060606001600160a01b03808d16606087015260808685036080880152610adc858e610a3f565b945060a0828d1660a089015260c0925087860360c0890152610afe868d610a3f565b955060e088870360e08a0152608087018c516080895281815180845260a08b0191508983019350600092505b80831015610bf657835180516cffffffffffffffffffffffffff168352808b015163ffffffff8116848d0152506040810151610b6e604085018263ffffffff169052565b508981015161ffff16838b0152878101516001600160a01b03168884015286810151878401528881015162ffffff16898401528581015115158684015261010080820151151590840152610120808201511515908401526101408082015115159084015261016090810151151590830152928901926001929092019161018090910190610b2a565b508e89015163ffffffff81168b8b0152975060408f01519850610c1e60408b018a60ff169052565b60608f01519850610c3a60608b018a6001600160a01b03169052565b6001600160a01b038e166101008d01529950610c5b98505050505050505050565b825115156101208301526020830151151561014083015260408301511515610160830152606083015115156101808301529b9a5050505050505050505050565b634e487b7160e01b600052601160045260246000fd5b600060018201610cc357610cc3610c9b565b5060010190565b81810381811115610cdd57610cdd610c9b565b92915050565b60008085851115610cf357600080fd5b83861115610d0057600080fd5b5050820193919092039150565b6bffffffffffffffffffffffff198135818116916014851015610d3a5780818660140360031b1b83161692505b50509291505056fea2646970667358221220b49b6a89586f4de00d7db1f371f8fd9faa0b4f792d1cc60de3dd4236d54166ec64736f6c63430008170033",
			"deployedBytecode": "0x608060405234801561001057600080fd5b50600436106100725760003560e01c80637da0a877116100505780637da0a8771461011e57806389a56bbc14610144578063a54eb2421461016b57600080fd5b80632230819f14610077578063507f1465146100a7578063572b6c05146100ce575b600080fd5b61008a6100853660046108c9565b610192565b6040516001600160a01b0390911681526020015b60405180910390f35b61008a7f000000000000000000000000b2c0cf85fef94012bb4c5e0534b8a5e845bc631281565b61010e6100dc366004610a1b565b7f000000000000000000000000b2b5841dbef766d4b521221732f9b618fcf34a876001600160a01b0390811691161490565b604051901515815260200161009e565b7f000000000000000000000000b2b5841dbef766d4b521221732f9b618fcf34a8761008a565b61008a7f000000000000000000000000989566bf9ff4cffa55a98ada7dc3e58b2a0a19c681565b61008a7f0000000000000000000000007c8ef86687a0bfa1882d2f25866cd4ea354eea3c81565b60006101bd7f0000000000000000000000007c8ef86687a0bfa1882d2f25866cd4ea354eea3c6103f5565b9050806001600160a01b031663c07f2f9b84846000015185602001518660400151876060015188608001518960a001518a60c001517f000000000000000000000000b2c0cf85fef94012bb4c5e0534b8a5e845bc63128c61010001516040518b63ffffffff1660e01b815260040161023e9a99989796959493929190610a85565b600060405180830381600087803b15801561025857600080fd5b505af115801561026c573d6000803e3d6000fd5b50505050806001600160a01b031663f2fde38b610287610480565b6040517fffffffff0000000000000000000000000000000000000000000000000000000060e084901b1681526001600160a01b039091166004820152602401600060405180830381600087803b1580156102e057600080fd5b505af11580156102f4573d6000803e3d6000fd5b505050507f000000000000000000000000989566bf9ff4cffa55a98ada7dc3e58b2a0a19c66001600160a01b031663b94417ab30600080815461033690610cb1565b91829055506040517fffffffff0000000000000000000000000000000000000000000000000000000060e085901b1681526001600160a01b0390921660048301526024820152604401600060405180830381600087803b15801561039957600080fd5b505af11580156103ad573d6000803e3d6000fd5b50506040516001600160a01b03841681528592507fa42f6bb68e81f4650a7966f109d861f6c3d2a477e608e30807f568bed1cebdb9915060200160405180910390a292915050565b6000763d602d80600a3d3981f3363d3d373d3d3d363d730000008260601b60e81c176000526e5af43d82803e903d91602b57fd5bf38260781b17602052603760096000f090506001600160a01b03811661047b576040517fc2f868f400000000000000000000000000000000000000000000000000000000815260040160405180910390fd5b919050565b60003660147f000000000000000000000000b2b5841dbef766d4b521221732f9b618fcf34a876001600160a01b0316331480156104bd5750808210155b156104ed576000366104cf8385610cca565b6104da928290610ce3565b6104e391610d0d565b60601c9250505090565b339250505090565b634e487b7160e01b600052604160045260246000fd5b6040516080810167ffffffffffffffff8111828210171561052e5761052e6104f5565b60405290565b604051610180810167ffffffffffffffff8111828210171561052e5761052e6104f5565b604051610120810167ffffffffffffffff8111828210171561052e5761052e6104f5565b604051601f8201601f1916810167ffffffffffffffff811182821017156105a5576105a56104f5565b604052919050565b600082601f8301126105be57600080fd5b813567ffffffffffffffff8111156105d8576105d86104f5565b6105eb601f8201601f191660200161057c565b81815284602083860101111561060057600080fd5b816020850160208301376000918101602001919091529392505050565b6001600160a01b038116811461063257600080fd5b50565b803561047b8161061d565b80356cffffffffffffffffffffffffff8116811461047b57600080fd5b803563ffffffff8116811461047b57600080fd5b803561ffff8116811461047b57600080fd5b803562ffffff8116811461047b57600080fd5b8035801515811461047b57600080fd5b803560ff8116811461047b57600080fd5b600060808083850312156106ca57600080fd5b6106d261050b565b9150823567ffffffffffffffff808211156106ec57600080fd5b818501915085601f83011261070057600080fd5b8135602082821115610714576107146104f5565b610722818360051b0161057c565b828152818101935061018092830285018201928984111561074257600080fd5b948201945b838610156108355780868b03121561075f5760008081fd5b610767610534565b61077087610640565b815261077d84880161065d565b84820152604061078e81890161065d565b90820152606061079f888201610671565b908201526107ae878901610635565b8189015260a0878101359082015260c06107c9818901610683565b9082015260e06107da888201610696565b908201526101006107ec888201610696565b908201526101206107fe888201610696565b90820152610140610810888201610696565b90820152610160610822888201610696565b9082015285529485019493820193610747565b50865261084387820161065d565b818701525050505050610858604083016106a6565b604082015261086960608301610635565b606082015292915050565b60006080828403121561088657600080fd5b61088e61050b565b905061089982610696565b81526108a760208301610696565b60208201526108b860408301610696565b604082015261086960608301610696565b600080604083850312156108dc57600080fd5b82359150602083013567ffffffffffffffff808211156108fb57600080fd5b90840190610180828703121561091057600080fd5b610918610558565b82358281111561092757600080fd5b610933888286016105ad565b82525060208301358281111561094857600080fd5b610954888286016105ad565b60208301525061096660408401610635565b604082015260608301358281111561097d57600080fd5b610989888286016105ad565b60608301525061099b60808401610635565b608082015260a0830135828111156109b257600080fd5b6109be888286016105ad565b60a08301525060c0830135828111156109d657600080fd5b6109e2888286016106b7565b60c0830152506109f460e08401610635565b60e08201526101009150610a0a87838501610874565b828201528093505050509250929050565b600060208284031215610a2d57600080fd5b8135610a388161061d565b9392505050565b6000815180845260005b81811015610a6557602081850181015186830182015201610a49565b506000602082860101526020601f19601f83011685010191505092915050565b60006101a08c835260208181850152610aa08285018e610a3f565b91508382036040850152610ab4828d610a3f565b915060606001600160a01b03808d16606087015260808685036080880152610adc858e610a3f565b945060a0828d1660a089015260c0925087860360c0890152610afe868d610a3f565b955060e088870360e08a0152608087018c516080895281815180845260a08b0191508983019350600092505b80831015610bf657835180516cffffffffffffffffffffffffff168352808b015163ffffffff8116848d0152506040810151610b6e604085018263ffffffff169052565b508981015161ffff16838b0152878101516001600160a01b03168884015286810151878401528881015162ffffff16898401528581015115158684015261010080820151151590840152610120808201511515908401526101408082015115159084015261016090810151151590830152928901926001929092019161018090910190610b2a565b508e89015163ffffffff81168b8b0152975060408f01519850610c1e60408b018a60ff169052565b60608f01519850610c3a60608b018a6001600160a01b03169052565b6001600160a01b038e166101008d01529950610c5b98505050505050505050565b825115156101208301526020830151151561014083015260408301511515610160830152606083015115156101808301529b9a5050505050505050505050565b634e487b7160e01b600052601160045260246000fd5b600060018201610cc357610cc3610c9b565b5060010190565b81810381811115610cdd57610cdd610c9b565b92915050565b60008085851115610cf357600080fd5b83861115610d0057600080fd5b5050820193919092039150565b6bffffffffffffffffffffffff198135818116916014851015610d3a5780818660140360031b1b83161692505b50509291505056fea2646970667358221220b49b6a89586f4de00d7db1f371f8fd9faa0b4f792d1cc60de3dd4236d54166ec64736f6c63430008170033",
			"devdoc": {
				"kind": "dev",
				"methods": {
					"constructor": {
						"params": {
							"addressRegistry": "A registry which stores references to contracts and their deployers.",
							"hook": "Reference copy of a hook."
						}
					},
					"deployHookFor(uint256,(string,string,address,string,address,string,((uint104,uint32,uint32,uint16,address,bytes32,uint24,bool,bool,bool,bool,bool)[],uint32,uint8,address),address,(bool,bool,bool,bool)))": {
						"params": {
							"deployTiersHookConfig": "The config to deploy the hook with, which determines its behavior.",
							"projectId": "The ID of the project to deploy the hook for."
						},
						"returns": {
							"newHook": "The address of the newly deployed hook."
						}
					},
					"isTrustedForwarder(address)": {
						"details": "Indicates whether any particular address is the trusted forwarder."
					},
					"trustedForwarder()": {
						"details": "Returns the address of the trusted forwarder."
					}
				},
				"version": 1
			},
			"userdoc": {
				"kind": "user",
				"methods": {
					"ADDRESS_REGISTRY()": {
						"notice": "A registry which stores references to contracts and their deployers."
					},
					"HOOK()": {
						"notice": "A 721 tiers hook."
					},
					"STORE()": {
						"notice": "The contract that stores and manages data for this contract's NFTs."
					},
					"deployHookFor(uint256,(string,string,address,string,address,string,((uint104,uint32,uint32,uint16,address,bytes32,uint24,bool,bool,bool,bool,bool)[],uint32,uint8,address),address,(bool,bool,bool,bool)))": {
						"notice": "Deploys a 721 tiers hook for the specified project."
					}
				},
				"version": 1
			},
			"gitCommit": "7cd9386d18054eea5868b73e2020f354d1964621",
			"sourceName": "src/JB721TiersHookDeployer.sol",
			"chainId": "11155420",
			"linkReferences": {},
			"deployedLinkReferences": {}
		},
		{
			"_format": "sphinx-sol-ct-artifact-1",
			"merkleRoot": "0x4e729de0820df73ab4e21fd6be94272162dd7081f65565002decdd5bdf706b8e",
			"contractName": "JB721TiersHookDeployer",
			"address": "0xd3838B2875a06E61bEfc3679Ee2C8d88D61067dC",
			"abi": [
				{
					"type": "constructor",
					"inputs": [
						{
							"name": "hook",
							"type": "address",
							"internalType": "contract JB721TiersHook"
						},
						{
							"name": "store",
							"type": "address",
							"internalType": "contract IJB721TiersHookStore"
						},
						{
							"name": "addressRegistry",
							"type": "address",
							"internalType": "contract IJBAddressRegistry"
						},
						{
							"name": "trustedForwarder",
							"type": "address",
							"internalType": "address"
						}
					],
					"stateMutability": "nonpayable"
				},
				{
					"type": "function",
					"name": "ADDRESS_REGISTRY",
					"inputs": [],
					"outputs": [
						{
							"name": "",
							"type": "address",
							"internalType": "contract IJBAddressRegistry"
						}
					],
					"stateMutability": "view"
				},
				{
					"type": "function",
					"name": "HOOK",
					"inputs": [],
					"outputs": [
						{
							"name": "",
							"type": "address",
							"internalType": "contract JB721TiersHook"
						}
					],
					"stateMutability": "view"
				},
				{
					"type": "function",
					"name": "STORE",
					"inputs": [],
					"outputs": [
						{
							"name": "",
							"type": "address",
							"internalType": "contract IJB721TiersHookStore"
						}
					],
					"stateMutability": "view"
				},
				{
					"type": "function",
					"name": "deployHookFor",
					"inputs": [
						{
							"name": "projectId",
							"type": "uint256",
							"internalType": "uint256"
						},
						{
							"name": "deployTiersHookConfig",
							"type": "tuple",
							"internalType": "struct JBDeploy721TiersHookConfig",
							"components": [
								{
									"name": "name",
									"type": "string",
									"internalType": "string"
								},
								{
									"name": "symbol",
									"type": "string",
									"internalType": "string"
								},
								{
									"name": "rulesets",
									"type": "address",
									"internalType": "contract IJBRulesets"
								},
								{
									"name": "baseUri",
									"type": "string",
									"internalType": "string"
								},
								{
									"name": "tokenUriResolver",
									"type": "address",
									"internalType": "contract IJB721TokenUriResolver"
								},
								{
									"name": "contractUri",
									"type": "string",
									"internalType": "string"
								},
								{
									"name": "tiersConfig",
									"type": "tuple",
									"internalType": "struct JB721InitTiersConfig",
									"components": [
										{
											"name": "tiers",
											"type": "tuple[]",
											"internalType": "struct JB721TierConfig[]",
											"components": [
												{
													"name": "price",
													"type": "uint104",
													"internalType": "uint104"
												},
												{
													"name": "initialSupply",
													"type": "uint32",
													"internalType": "uint32"
												},
												{
													"name": "votingUnits",
													"type": "uint32",
													"internalType": "uint32"
												},
												{
													"name": "reserveFrequency",
													"type": "uint16",
													"internalType": "uint16"
												},
												{
													"name": "reserveBeneficiary",
													"type": "address",
													"internalType": "address"
												},
												{
													"name": "encodedIPFSUri",
													"type": "bytes32",
													"internalType": "bytes32"
												},
												{
													"name": "category",
													"type": "uint24",
													"internalType": "uint24"
												},
												{
													"name": "allowOwnerMint",
													"type": "bool",
													"internalType": "bool"
												},
												{
													"name": "useReserveBeneficiaryAsDefault",
													"type": "bool",
													"internalType": "bool"
												},
												{
													"name": "transfersPausable",
													"type": "bool",
													"internalType": "bool"
												},
												{
													"name": "useVotingUnits",
													"type": "bool",
													"internalType": "bool"
												},
												{
													"name": "cannotBeRemoved",
													"type": "bool",
													"internalType": "bool"
												}
											]
										},
										{
											"name": "currency",
											"type": "uint32",
											"internalType": "uint32"
										},
										{
											"name": "decimals",
											"type": "uint8",
											"internalType": "uint8"
										},
										{
											"name": "prices",
											"type": "address",
											"internalType": "contract IJBPrices"
										}
									]
								},
								{
									"name": "reserveBeneficiary",
									"type": "address",
									"internalType": "address"
								},
								{
									"name": "flags",
									"type": "tuple",
									"internalType": "struct JB721TiersHookFlags",
									"components": [
										{
											"name": "noNewTiersWithReserves",
											"type": "bool",
											"internalType": "bool"
										},
										{
											"name": "noNewTiersWithVotes",
											"type": "bool",
											"internalType": "bool"
										},
										{
											"name": "noNewTiersWithOwnerMinting",
											"type": "bool",
											"internalType": "bool"
										},
										{
											"name": "preventOverspending",
											"type": "bool",
											"internalType": "bool"
										}
									]
								}
							]
						}
					],
					"outputs": [
						{
							"name": "newHook",
							"type": "address",
							"internalType": "contract IJB721TiersHook"
						}
					],
					"stateMutability": "nonpayable"
				},
				{
					"type": "function",
					"name": "isTrustedForwarder",
					"inputs": [
						{
							"name": "forwarder",
							"type": "address",
							"internalType": "address"
						}
					],
					"outputs": [
						{
							"name": "",
							"type": "bool",
							"internalType": "bool"
						}
					],
					"stateMutability": "view"
				},
				{
					"type": "function",
					"name": "trustedForwarder",
					"inputs": [],
					"outputs": [
						{
							"name": "",
							"type": "address",
							"internalType": "address"
						}
					],
					"stateMutability": "view"
				},
				{
					"type": "event",
					"name": "HookDeployed",
					"inputs": [
						{
							"name": "projectId",
							"type": "uint256",
							"indexed": true,
							"internalType": "uint256"
						},
						{
							"name": "newHook",
							"type": "address",
							"indexed": false,
							"internalType": "contract IJB721TiersHook"
						}
					],
					"anonymous": false
				},
				{
					"type": "error",
					"name": "ERC1167FailedCreateClone",
					"inputs": []
				}
			],
			"solcInputHash": "3b832b35596f091503c2f3699465baed",
			"receipt": {
				"blockHash": "0x1d6ed4ec368730a1a7518c77c1c42bedac6ff2c6f30c2946ca23b88a72e19365",
				"blockNumber": 10968281,
				"contractAddress": null,
				"cumulativeGasUsed": "12170574",
				"from": "0xC034550B542b83BA1De312b21d1C94a9a52B1595",
				"gasPrice": "1000252",
				"gasUsed": "8838917",
				"hash": "0xbde9ddaa7868840b500791462c69d05b0dd4cf027c1a321085cd12f30b431760",
				"index": 4,
				"logs": [
					{
						"address": "0xB5E96127D417b1B3ef8438496a38A143167209c7",
						"blockHash": "0x1d6ed4ec368730a1a7518c77c1c42bedac6ff2c6f30c2946ca23b88a72e19365",
						"blockNumber": 10968281,
						"data": "0x0000000000000000000000000000000000000000000000000000000000000000",
						"index": 25,
						"topics": [
							"0x572f161235911da04685a68c06adf558fc7e4a36909dca394650e0adc19cc93d",
							"0x000000000000000000000000c034550b542b83ba1de312b21d1c94a9a52b1595",
							"0x000000000000000000000000582b73e9f9ec9fa3ff32b83cfd7e2810a63bbcdb",
							"0x725f05926d12000d53521bc1ad1f205640706ae387e368d29d7ccf945229fde3"
						],
						"transactionHash": "0xbde9ddaa7868840b500791462c69d05b0dd4cf027c1a321085cd12f30b431760",
						"transactionIndex": 4
					},
					{
						"address": "0x5978E282a25349A1ad1C7156d29CadD236921246",
						"blockHash": "0x1d6ed4ec368730a1a7518c77c1c42bedac6ff2c6f30c2946ca23b88a72e19365",
						"blockNumber": 10968281,
						"data": "0x",
						"index": 26,
						"topics": [
							"0x8be0079c531659141344cd1fd0a4f28419497f9722a3daafe3b4186f6b6457e0",
							"0x0000000000000000000000000000000000000000000000000000000000000000",
							"0x0000000000000000000000004e59b44847b379578588920ca78fbf26c0b4956c"
						],
						"transactionHash": "0xbde9ddaa7868840b500791462c69d05b0dd4cf027c1a321085cd12f30b431760",
						"transactionIndex": 4
					},
					{
						"address": "0x89BeB14760384C532b587eE00bB42EE307f17e47",
						"blockHash": "0x1d6ed4ec368730a1a7518c77c1c42bedac6ff2c6f30c2946ca23b88a72e19365",
						"blockNumber": 10968281,
						"data": "0x",
						"index": 27,
						"topics": [
							"0x6895c13664aa4f67288b25d7a21d7aaa34916e355fb9b6fae0a139a9085becb8",
							"0x000000000000000000000000582b73e9f9ec9fa3ff32b83cfd7e2810a63bbcdb"
						],
						"transactionHash": "0xbde9ddaa7868840b500791462c69d05b0dd4cf027c1a321085cd12f30b431760",
						"transactionIndex": 4
					},
					{
						"address": "0x582b73e9F9EC9fa3fF32b83CFD7E2810a63BBCdB",
						"blockHash": "0x1d6ed4ec368730a1a7518c77c1c42bedac6ff2c6f30c2946ca23b88a72e19365",
						"blockNumber": 10968281,
						"data": "0x0000000000000000000000000000000000000000000000000000000000000001",
						"index": 28,
						"topics": [
							"0xa65fb05c5808f5f389d72edeaf719ce38f4cc55c1f69ca3cbfb31c21501caa07",
							"0x4e729de0820df73ab4e21fd6be94272162dd7081f65565002decdd5bdf706b8e"
						],
						"transactionHash": "0xbde9ddaa7868840b500791462c69d05b0dd4cf027c1a321085cd12f30b431760",
						"transactionIndex": 4
					},
					{
						"address": "0x89BeB14760384C532b587eE00bB42EE307f17e47",
						"blockHash": "0x1d6ed4ec368730a1a7518c77c1c42bedac6ff2c6f30c2946ca23b88a72e19365",
						"blockNumber": 10968281,
						"data": "0x",
						"index": 29,
						"topics": [
							"0x6895c13664aa4f67288b25d7a21d7aaa34916e355fb9b6fae0a139a9085becb8",
							"0x000000000000000000000000582b73e9f9ec9fa3ff32b83cfd7e2810a63bbcdb"
						],
						"transactionHash": "0xbde9ddaa7868840b500791462c69d05b0dd4cf027c1a321085cd12f30b431760",
						"transactionIndex": 4
					},
					{
						"address": "0x582b73e9F9EC9fa3fF32b83CFD7E2810a63BBCdB",
						"blockHash": "0x1d6ed4ec368730a1a7518c77c1c42bedac6ff2c6f30c2946ca23b88a72e19365",
						"blockNumber": 10968281,
						"data": "0x0000000000000000000000000000000000000000000000000000000000000002",
						"index": 30,
						"topics": [
							"0xa65fb05c5808f5f389d72edeaf719ce38f4cc55c1f69ca3cbfb31c21501caa07",
							"0x4e729de0820df73ab4e21fd6be94272162dd7081f65565002decdd5bdf706b8e"
						],
						"transactionHash": "0xbde9ddaa7868840b500791462c69d05b0dd4cf027c1a321085cd12f30b431760",
						"transactionIndex": 4
					},
					{
						"address": "0x89BeB14760384C532b587eE00bB42EE307f17e47",
						"blockHash": "0x1d6ed4ec368730a1a7518c77c1c42bedac6ff2c6f30c2946ca23b88a72e19365",
						"blockNumber": 10968281,
						"data": "0x",
						"index": 31,
						"topics": [
							"0x6895c13664aa4f67288b25d7a21d7aaa34916e355fb9b6fae0a139a9085becb8",
							"0x000000000000000000000000582b73e9f9ec9fa3ff32b83cfd7e2810a63bbcdb"
						],
						"transactionHash": "0xbde9ddaa7868840b500791462c69d05b0dd4cf027c1a321085cd12f30b431760",
						"transactionIndex": 4
					},
					{
						"address": "0x582b73e9F9EC9fa3fF32b83CFD7E2810a63BBCdB",
						"blockHash": "0x1d6ed4ec368730a1a7518c77c1c42bedac6ff2c6f30c2946ca23b88a72e19365",
						"blockNumber": 10968281,
						"data": "0x0000000000000000000000000000000000000000000000000000000000000003",
						"index": 32,
						"topics": [
							"0xa65fb05c5808f5f389d72edeaf719ce38f4cc55c1f69ca3cbfb31c21501caa07",
							"0x4e729de0820df73ab4e21fd6be94272162dd7081f65565002decdd5bdf706b8e"
						],
						"transactionHash": "0xbde9ddaa7868840b500791462c69d05b0dd4cf027c1a321085cd12f30b431760",
						"transactionIndex": 4
					},
					{
						"address": "0x582b73e9F9EC9fa3fF32b83CFD7E2810a63BBCdB",
						"blockHash": "0x1d6ed4ec368730a1a7518c77c1c42bedac6ff2c6f30c2946ca23b88a72e19365",
						"blockNumber": 10968281,
						"data": "0x",
						"index": 33,
						"topics": [
							"0x4383d976757d67ca920616be0b6430a681ea9d3dcce8d6d61d4603ca4a9bff63",
							"0x4e729de0820df73ab4e21fd6be94272162dd7081f65565002decdd5bdf706b8e"
						],
						"transactionHash": "0xbde9ddaa7868840b500791462c69d05b0dd4cf027c1a321085cd12f30b431760",
						"transactionIndex": 4
					}
				],
				"logsBloom": "0x000000000800100000400000000a0000000000000808000000800000004000000000000000000000002000000040000100000000000000000000001000000000000000000000200000000000000100000001000000000000000000000000000000000000020000000000000000000800000040000000000008000000000000400000020000000000000100000000000000000000001400400000000000000000004000800011000000000000000000020200000008020000000000000004000000000000000000000000800008000000000004000000000000000000000020000000000000000008000200008000000280000000000000000000000008000000",
				"status": 1,
				"to": "0xB5E96127D417b1B3ef8438496a38A143167209c7"
			},
			"metadata": "{\"compiler\":{\"version\":\"0.8.23+commit.f704f362\"},\"language\":\"Solidity\",\"output\":{\"abi\":[{\"inputs\":[{\"internalType\":\"contract JB721TiersHook\",\"name\":\"hook\",\"type\":\"address\"},{\"internalType\":\"contract IJB721TiersHookStore\",\"name\":\"store\",\"type\":\"address\"},{\"internalType\":\"contract IJBAddressRegistry\",\"name\":\"addressRegistry\",\"type\":\"address\"},{\"internalType\":\"address\",\"name\":\"trustedForwarder\",\"type\":\"address\"}],\"stateMutability\":\"nonpayable\",\"type\":\"constructor\"},{\"inputs\":[],\"type\":\"error\",\"name\":\"ERC1167FailedCreateClone\"},{\"inputs\":[{\"internalType\":\"uint256\",\"name\":\"projectId\",\"type\":\"uint256\",\"indexed\":true},{\"internalType\":\"contract IJB721TiersHook\",\"name\":\"newHook\",\"type\":\"address\",\"indexed\":false}],\"type\":\"event\",\"name\":\"HookDeployed\",\"anonymous\":false},{\"inputs\":[],\"stateMutability\":\"view\",\"type\":\"function\",\"name\":\"ADDRESS_REGISTRY\",\"outputs\":[{\"internalType\":\"contract IJBAddressRegistry\",\"name\":\"\",\"type\":\"address\"}]},{\"inputs\":[],\"stateMutability\":\"view\",\"type\":\"function\",\"name\":\"HOOK\",\"outputs\":[{\"internalType\":\"contract JB721TiersHook\",\"name\":\"\",\"type\":\"address\"}]},{\"inputs\":[],\"stateMutability\":\"view\",\"type\":\"function\",\"name\":\"STORE\",\"outputs\":[{\"internalType\":\"contract IJB721TiersHookStore\",\"name\":\"\",\"type\":\"address\"}]},{\"inputs\":[{\"internalType\":\"uint256\",\"name\":\"projectId\",\"type\":\"uint256\"},{\"internalType\":\"struct JBDeploy721TiersHookConfig\",\"name\":\"deployTiersHookConfig\",\"type\":\"tuple\",\"components\":[{\"internalType\":\"string\",\"name\":\"name\",\"type\":\"string\"},{\"internalType\":\"string\",\"name\":\"symbol\",\"type\":\"string\"},{\"internalType\":\"contract IJBRulesets\",\"name\":\"rulesets\",\"type\":\"address\"},{\"internalType\":\"string\",\"name\":\"baseUri\",\"type\":\"string\"},{\"internalType\":\"contract IJB721TokenUriResolver\",\"name\":\"tokenUriResolver\",\"type\":\"address\"},{\"internalType\":\"string\",\"name\":\"contractUri\",\"type\":\"string\"},{\"internalType\":\"struct JB721InitTiersConfig\",\"name\":\"tiersConfig\",\"type\":\"tuple\",\"components\":[{\"internalType\":\"struct JB721TierConfig[]\",\"name\":\"tiers\",\"type\":\"tuple[]\",\"components\":[{\"internalType\":\"uint104\",\"name\":\"price\",\"type\":\"uint104\"},{\"internalType\":\"uint32\",\"name\":\"initialSupply\",\"type\":\"uint32\"},{\"internalType\":\"uint32\",\"name\":\"votingUnits\",\"type\":\"uint32\"},{\"internalType\":\"uint16\",\"name\":\"reserveFrequency\",\"type\":\"uint16\"},{\"internalType\":\"address\",\"name\":\"reserveBeneficiary\",\"type\":\"address\"},{\"internalType\":\"bytes32\",\"name\":\"encodedIPFSUri\",\"type\":\"bytes32\"},{\"internalType\":\"uint24\",\"name\":\"category\",\"type\":\"uint24\"},{\"internalType\":\"bool\",\"name\":\"allowOwnerMint\",\"type\":\"bool\"},{\"internalType\":\"bool\",\"name\":\"useReserveBeneficiaryAsDefault\",\"type\":\"bool\"},{\"internalType\":\"bool\",\"name\":\"transfersPausable\",\"type\":\"bool\"},{\"internalType\":\"bool\",\"name\":\"useVotingUnits\",\"type\":\"bool\"},{\"internalType\":\"bool\",\"name\":\"cannotBeRemoved\",\"type\":\"bool\"}]},{\"internalType\":\"uint32\",\"name\":\"currency\",\"type\":\"uint32\"},{\"internalType\":\"uint8\",\"name\":\"decimals\",\"type\":\"uint8\"},{\"internalType\":\"contract IJBPrices\",\"name\":\"prices\",\"type\":\"address\"}]},{\"internalType\":\"address\",\"name\":\"reserveBeneficiary\",\"type\":\"address\"},{\"internalType\":\"struct JB721TiersHookFlags\",\"name\":\"flags\",\"type\":\"tuple\",\"components\":[{\"internalType\":\"bool\",\"name\":\"noNewTiersWithReserves\",\"type\":\"bool\"},{\"internalType\":\"bool\",\"name\":\"noNewTiersWithVotes\",\"type\":\"bool\"},{\"internalType\":\"bool\",\"name\":\"noNewTiersWithOwnerMinting\",\"type\":\"bool\"},{\"internalType\":\"bool\",\"name\":\"preventOverspending\",\"type\":\"bool\"}]}]}],\"stateMutability\":\"nonpayable\",\"type\":\"function\",\"name\":\"deployHookFor\",\"outputs\":[{\"internalType\":\"contract IJB721TiersHook\",\"name\":\"newHook\",\"type\":\"address\"}]},{\"inputs\":[{\"internalType\":\"address\",\"name\":\"forwarder\",\"type\":\"address\"}],\"stateMutability\":\"view\",\"type\":\"function\",\"name\":\"isTrustedForwarder\",\"outputs\":[{\"internalType\":\"bool\",\"name\":\"\",\"type\":\"bool\"}]},{\"inputs\":[],\"stateMutability\":\"view\",\"type\":\"function\",\"name\":\"trustedForwarder\",\"outputs\":[{\"internalType\":\"address\",\"name\":\"\",\"type\":\"address\"}]}],\"devdoc\":{\"kind\":\"dev\",\"methods\":{\"constructor\":{\"params\":{\"addressRegistry\":\"A registry which stores references to contracts and their deployers.\",\"hook\":\"Reference copy of a hook.\"}},\"deployHookFor(uint256,(string,string,address,string,address,string,((uint104,uint32,uint32,uint16,address,bytes32,uint24,bool,bool,bool,bool,bool)[],uint32,uint8,address),address,(bool,bool,bool,bool)))\":{\"params\":{\"deployTiersHookConfig\":\"The config to deploy the hook with, which determines its behavior.\",\"projectId\":\"The ID of the project to deploy the hook for.\"},\"returns\":{\"newHook\":\"The address of the newly deployed hook.\"}},\"isTrustedForwarder(address)\":{\"details\":\"Indicates whether any particular address is the trusted forwarder.\"},\"trustedForwarder()\":{\"details\":\"Returns the address of the trusted forwarder.\"}},\"version\":1},\"userdoc\":{\"kind\":\"user\",\"methods\":{\"ADDRESS_REGISTRY()\":{\"notice\":\"A registry which stores references to contracts and their deployers.\"},\"HOOK()\":{\"notice\":\"A 721 tiers hook.\"},\"STORE()\":{\"notice\":\"The contract that stores and manages data for this contract's NFTs.\"},\"deployHookFor(uint256,(string,string,address,string,address,string,((uint104,uint32,uint32,uint16,address,bytes32,uint24,bool,bool,bool,bool,bool)[],uint32,uint8,address),address,(bool,bool,bool,bool)))\":{\"notice\":\"Deploys a 721 tiers hook for the specified project.\"}},\"version\":1}},\"settings\":{\"remappings\":[\"@bananapus/=node_modules/@bananapus/\",\"@chainlink/=node_modules/@chainlink/\",\"@eth-optimism/=node_modules/@eth-optimism/\",\"@openzeppelin/=node_modules/@openzeppelin/\",\"@prb/=node_modules/@prb/\",\"@scroll-tech/=node_modules/@scroll-tech/\",\"@sphinx-labs/contracts/=node_modules/@sphinx-labs/contracts/contracts/foundry/\",\"@uniswap/=node_modules/@uniswap/\",\"ds-test/=lib/forge-std/lib/ds-test/src/\",\"forge-std/=lib/forge-std/src/\",\"hardhat/=node_modules/hardhat/\",\"solmate/=node_modules/solmate/\",\"sphinx/=lib/sphinx/packages/contracts/contracts/forge-std/src/\"],\"optimizer\":{\"enabled\":true,\"runs\":1000},\"metadata\":{\"bytecodeHash\":\"ipfs\"},\"compilationTarget\":{\"src/JB721TiersHookDeployer.sol\":\"JB721TiersHookDeployer\"},\"evmVersion\":\"paris\",\"libraries\":{}},\"sources\":{\"node_modules/@bananapus/address-registry/src/interfaces/IJBAddressRegistry.sol\":{\"keccak256\":\"0x33ab082cbb870d8ff950f56db686911b39d090432bc8c09a6b3434aedcb58936\",\"urls\":[\"bzz-raw://cd98fcdc58cf9af46571656b44ff0dc5d94c9a1c6e5c8eb07b1153bfd1bc4206\",\"dweb:/ipfs/Qmcm36zeucynBTTj7q3BVLmZF9CG3X7cGKDPdo9JchVYa9\"],\"license\":\"MIT\"},\"node_modules/@bananapus/core/src/abstract/JBPermissioned.sol\":{\"keccak256\":\"0xe08c8a7eeac9d1c7c2e0db6d5b98d1af09889300835a3d47d9f29319fecce703\",\"urls\":[\"bzz-raw://42645cf52bcc45053ef650790916faed5d0a74cecef336b217433fdd2c5c4166\",\"dweb:/ipfs/QmdMmxG1tSGucQwz4LYbVnuj7HU23YvqLH6xfrNWv5Bmus\"],\"license\":\"MIT\"},\"node_modules/@bananapus/core/src/enums/JBApprovalStatus.sol\":{\"keccak256\":\"0x61c69b6bac7d24b566d87cda23a77e4ca9cdb87200b106aba8534cb9a0973e33\",\"urls\":[\"bzz-raw://6a9ca7249de76f77a8252eefe6bd1b63d47952f25a2acfa2c8db967cdff4470c\",\"dweb:/ipfs/QmaxSxptRQNj8bNy96EreENmrnRWdKmhyihBcxyWzBX5BN\"],\"license\":\"MIT\"},\"node_modules/@bananapus/core/src/interfaces/IJBDirectory.sol\":{\"keccak256\":\"0x9cc380844aef60078ee47a61861e55a29c4a8c947efd556ebd36e6909f7b9d62\",\"urls\":[\"bzz-raw://9f5190ec8b6683d9781ee6e9eedcc91294753242748875d4a06349077e4cbaaf\",\"dweb:/ipfs/QmTQrPuXT9TCA4txwrperMeXSGvGxP8iokUK47f62F388i\"],\"license\":\"MIT\"},\"node_modules/@bananapus/core/src/interfaces/IJBPayHook.sol\":{\"keccak256\":\"0x9438866782c652c2942f4d114e35f393cd3c8b0334abce8387eed90bca35e8b2\",\"urls\":[\"bzz-raw://cfd99daf57213f92325aad7d7d16e98476d38e870470e95ba01e3ae3cdecc95d\",\"dweb:/ipfs/QmUKKAVGf7ki8BHksr99tFcRW8APveeB5tNH63ctTbbCW8\"],\"license\":\"MIT\"},\"node_modules/@bananapus/core/src/interfaces/IJBPermissioned.sol\":{\"keccak256\":\"0x5b038d4dee116584e88b230920e56d48e135053e3f7e5642eaea14a775c1dad7\",\"urls\":[\"bzz-raw://19e43102f349fd4a1da1c0943ffb8f2950007fe4bb4bb7e8f74fc142575d091b\",\"dweb:/ipfs/QmXHAt4KzDTdDZgDDefEXH2WKi7NcfkJb9R7nxW5uDqsNp\"],\"license\":\"MIT\"},\"node_modules/@bananapus/core/src/interfaces/IJBPermissions.sol\":{\"keccak256\":\"0x18870e500edf0fbadc353e273a5574701fb80466376b908c65e7cc3f11044d4d\",\"urls\":[\"bzz-raw://352a47c45853aec80e7acf0d286ade3106eb4cb456776b28a3c2f3f1091bed90\",\"dweb:/ipfs/QmQeYd3YbudYZy2hfbfht9kwhxhw4tuuLKMEYy9UY6dcSy\"],\"license\":\"MIT\"},\"node_modules/@bananapus/core/src/interfaces/IJBPriceFeed.sol\":{\"keccak256\":\"0x4bd84c0f1a5d4729ed709bcddd43f4c50ec4a165ece79780af8dce482ed07d4a\",\"urls\":[\"bzz-raw://62bac4bfb6982fb002f620c77e5c445e62d50241a5aa64a07e51d929f5a42180\",\"dweb:/ipfs/QmWgJUDreVY2BuMX38a1iUUR5kNbMwGnKG3VvurB7oZtuM\"],\"license\":\"MIT\"},\"node_modules/@bananapus/core/src/interfaces/IJBPrices.sol\":{\"keccak256\":\"0x99525f31440b955742dce84ba57de9fc1221139b5367c1f834723bef9e13e6e1\",\"urls\":[\"bzz-raw://6fa03f0cd4ad87dd7cbae7bf7f54463450874291773c8f70f2c31ef2cae62bb0\",\"dweb:/ipfs/QmSPajPV5ismteJuB6Spzm9VmhTj2iS3eVrfpJC1Zuzg8n\"],\"license\":\"MIT\"},\"node_modules/@bananapus/core/src/interfaces/IJBProjects.sol\":{\"keccak256\":\"0x735c2fb8f1fa827f054ee77f7a0ae4b312656217acb75b624d2c8fd9dc40151b\",\"urls\":[\"bzz-raw://ee7fc92299a8633a80693ae63ab494dcd125f1789487a54a39dc0e5696e5996f\",\"dweb:/ipfs/QmX7YJD4pS2XhgQb7p3JbBAXynT7YGPXcZe92BiWWRrsCL\"],\"license\":\"MIT\"},\"node_modules/@bananapus/core/src/interfaces/IJBRedeemHook.sol\":{\"keccak256\":\"0x8ab46fcd7d0e739661eb76056ad93ff99106f38420ef0b4eb97fa9f4bb71a68a\",\"urls\":[\"bzz-raw://0ef96fcb7ad26281d444d8e0c677b25114fdd63b1c172d477e030dce8ba53b62\",\"dweb:/ipfs/Qmcx1jRQuwU4pZFuLxsSsx4oMbRaDfktHrPnXextgbWc5m\"],\"license\":\"MIT\"},\"node_modules/@bananapus/core/src/interfaces/IJBRulesetApprovalHook.sol\":{\"keccak256\":\"0x592e95d159494421c6b1bcb362d0cee1df0132921697351304e9cd7af4fbd386\",\"urls\":[\"bzz-raw://5bebfd5fa67c1b6ea16fa2e76e9520e9dfe52a579f48dd94d0c2ec45f78ad178\",\"dweb:/ipfs/QmRUawEGtfYoYSHmHELGhvJoWuMsxLPKtqAXgsrb7fJboP\"],\"license\":\"MIT\"},\"node_modules/@bananapus/core/src/interfaces/IJBRulesetDataHook.sol\":{\"keccak256\":\"0x13b4b9f4b847f62442da1c1a59b399f8f201b31a28edb96aa5a8a78ad57c24d0\",\"urls\":[\"bzz-raw://4fcd00b77d0f40cf6d5ee6590b6ef4ee1f606e89ae4c4faed3710fb462108f8e\",\"dweb:/ipfs/QmeoE54DQ3eGw9EDXfN7aTMmEjubAtirahmytDijo6GSeE\"],\"license\":\"MIT\"},\"node_modules/@bananapus/core/src/interfaces/IJBRulesets.sol\":{\"keccak256\":\"0xd3f817d22ecbe24da63c552c069bf0c4fbbf3bcd5c3b5633002afd24aacf6882\",\"urls\":[\"bzz-raw://c1185aec0f6b6f0f4d93ffeeed0972ccf38420b00fe570b5e1838ed2b1f5db49\",\"dweb:/ipfs/QmWz36azGTFnjFXpFSh6BHt4nactgjtF64L3PeTqs4ZqSR\"],\"license\":\"MIT\"},\"node_modules/@bananapus/core/src/interfaces/IJBTerminal.sol\":{\"keccak256\":\"0x19dc9bf8cbdc8f13ee5da9dc3a87047eacb94a3fc19740a286c1f0bad2cc39ca\",\"urls\":[\"bzz-raw://0b05ae6fda9a85672508232fd992b8a5f5ffd8096622eeb12c8a7b3317eb3867\",\"dweb:/ipfs/QmNh9Quj37BXYGdTdcCD1Q58PchRsE5TLbEZep56qS3MpV\"],\"license\":\"MIT\"},\"node_modules/@bananapus/core/src/interfaces/IJBTokenUriResolver.sol\":{\"keccak256\":\"0xfa5cb00dcd6085d1ef912d071fe73c63f9478a2cd0f9d8bddaf659b6af2d0967\",\"urls\":[\"bzz-raw://282e4e7c342d65f77cde0e9a08fcaf20ef5cf379c7a48b639842c0ffd0b2afb8\",\"dweb:/ipfs/QmbnN3PEQeZaXdPLT75V1J79kMg7KqSMru37RHrL3z8Yf2\"],\"license\":\"MIT\"},\"node_modules/@bananapus/core/src/libraries/JBConstants.sol\":{\"keccak256\":\"0x9d3a9a953f859d8ec79a599577f8972de6da7199cc1bfa7fdad017d4d722bcb4\",\"urls\":[\"bzz-raw://f151fcb53a8d2684eff8b9e56ac790bcbcadd8199a4fd4d17c5b224b22936722\",\"dweb:/ipfs/QmdAz1ZtCE8nTiC4AxQNLfJhnY3ndGum2Lbef7seKdvTdR\"],\"license\":\"MIT\"},\"node_modules/@bananapus/core/src/libraries/JBMetadataResolver.sol\":{\"keccak256\":\"0x900731084917f812806a35dab2c7ae65a6f07506d6c953ae0cd6d993fe85560f\",\"urls\":[\"bzz-raw://2002892aef205b5192fa5c2d1cf1698ba0836bed7eaba839444cd0f93b4fb050\",\"dweb:/ipfs/QmPRGSNRdpST1xt2brhGWSDsEYD29j5QwaJ3SA518UUXWs\"],\"license\":\"MIT\"},\"node_modules/@bananapus/core/src/libraries/JBRulesetMetadataResolver.sol\":{\"keccak256\":\"0x83f25c531d9e212379b4326fd93bf658a0f6d0e839bbd67bff7b66b9b55fb670\",\"urls\":[\"bzz-raw://3eb4a41ececec705febac7b799d7224e67f12761ae3975d49dd8bddaac608ecd\",\"dweb:/ipfs/QmNgL5VccDhP5xofEcGWNKk3v4KG23wGF9vc3d4YJ5MLnv\"],\"license\":\"MIT\"},\"node_modules/@bananapus/core/src/structs/JBAccountingContext.sol\":{\"keccak256\":\"0x2907ff54d1e903cc7e0390dd88c3975884702dc2673642aacbe22b66560b56de\",\"urls\":[\"bzz-raw://a66a5381ce877b32f0e0058ceeaf843e9b6b2bc8af666c0c9f4a9d01091da004\",\"dweb:/ipfs/QmQynCetUr37dBkS1YwDS8evxuXGiqanW6THmeUxXtim8w\"],\"license\":\"MIT\"},\"node_modules/@bananapus/core/src/structs/JBAfterPayRecordedContext.sol\":{\"keccak256\":\"0xd26c3a774ff38be79064085970454fe2603a23a638c76270d5b1b3829206c3e8\",\"urls\":[\"bzz-raw://3b55dbe3bf1ef625b7ca04efab3de35406e6041d5b3d82c7265469c500e2b702\",\"dweb:/ipfs/QmUdBDo4Lt3mcsFcsXT2mqq3czFwZjQJFPLM89YA2VtD7k\"],\"license\":\"MIT\"},\"node_modules/@bananapus/core/src/structs/JBAfterRedeemRecordedContext.sol\":{\"keccak256\":\"0x521f5d23a36f0da72362cd84890cc867bd83baa8dc836ba6c5066d51dba2f163\",\"urls\":[\"bzz-raw://6cc461313286dde62d045d6288e87bae5032e035796326f5b1ed6218e58aa9da\",\"dweb:/ipfs/QmQS2AkQwf2ANQieDuaUnpJEdXChoLv4CCbZqHkfywYPSR\"],\"license\":\"MIT\"},\"node_modules/@bananapus/core/src/structs/JBBeforePayRecordedContext.sol\":{\"keccak256\":\"0x5b04e814da83c7e83ff892ab07eaad6abce6f7b85a75f8da9380e9fc3470bc81\",\"urls\":[\"bzz-raw://11c889aab993fce3e3cc2dedc15fc30dd367e7fef9b7b1bfd6a6a9f248781731\",\"dweb:/ipfs/QmVVtydCD1azeWhGLxA1hthxfLyKzMHZ1eVzCz3a3R5dLy\"],\"license\":\"MIT\"},\"node_modules/@bananapus/core/src/structs/JBBeforeRedeemRecordedContext.sol\":{\"keccak256\":\"0x73eadaf6827e82f6ccbe3a1e2b2b7fc6c59cef471f73335041b30ddcc000989d\",\"urls\":[\"bzz-raw://2f3ee84662eed565dbdaed406ef836fffaf55cccd417575578152e5085d0b1f2\",\"dweb:/ipfs/QmaJGFS7hxJsiUdKvbv5BKhSwceDEzKBnt7t5YeNWvYgMK\"],\"license\":\"MIT\"},\"node_modules/@bananapus/core/src/structs/JBPayHookSpecification.sol\":{\"keccak256\":\"0x955f0bfca97300b9e5927dc181753830ee362f83fa9ca32a90daade32aa0cfd5\",\"urls\":[\"bzz-raw://f517af1597c7c40f8d3da53f7a6684a3e162950a16559d6bf6ea3b727bb11546\",\"dweb:/ipfs/QmRWo2ZTYXmVZTzNJDYhsJNsEaHphjpUfx9eNz2cciyz86\"],\"license\":\"MIT\"},\"node_modules/@bananapus/core/src/structs/JBPermissionsData.sol\":{\"keccak256\":\"0x8f0f69a6ebf5f3704e3dfcb3712fb9d3f94ae7c1ab89bf3e37bad42a3e7a0487\",\"urls\":[\"bzz-raw://57b0c5e52843e2217082889ed47b4da3943e0da4590d5768dcebfe3edad4a6b8\",\"dweb:/ipfs/QmRz48vuWLw81kUP836rh1qzqWiJFGbksgRUA9xGEDNKTY\"],\"license\":\"MIT\"},\"node_modules/@bananapus/core/src/structs/JBRedeemHookSpecification.sol\":{\"keccak256\":\"0x673d16ee1a91bf8de3b37e57284e60451b70a9c2d748c9cdc7a151f5624af18f\",\"urls\":[\"bzz-raw://ceeb5e81effa0f076c5630c756dfcf1548d09f822b255a0a6ee01e54de8c8ae2\",\"dweb:/ipfs/QmSMoMNPRhPMnuJNvWa6S59XRfycGz9o2ApNp63bUW6TdX\"],\"license\":\"MIT\"},\"node_modules/@bananapus/core/src/structs/JBRuleset.sol\":{\"keccak256\":\"0x15b2bf3174d84846a91ccbf5a344dfb125b55ed9cf50102db8d6868844225189\",\"urls\":[\"bzz-raw://647416b025dbd941094db89cbc69f755c155bd6c87be3f322394ccc4a8e0442d\",\"dweb:/ipfs/QmTCL9xcHnxQ4t5AmCPoZvXDUPW5xhzhyyXYbkMdyg44au\"],\"license\":\"MIT\"},\"node_modules/@bananapus/core/src/structs/JBRulesetMetadata.sol\":{\"keccak256\":\"0xfea54c9f98416d2aa05309e7ff76967d6968a614850a1e33e48fde793ea8b514\",\"urls\":[\"bzz-raw://bf55386cbab90dbc1296b2b0cbfdc217a4500d67702e4a093a4c78bd127ecd5c\",\"dweb:/ipfs/QmTRq9mZrNSXu7oCZwti4JbBFrbY6A5msRqi9RbtL49NAj\"],\"license\":\"MIT\"},\"node_modules/@bananapus/core/src/structs/JBTokenAmount.sol\":{\"keccak256\":\"0x5cf0626b73a596c1e2da17c89ae039a7c0374310b060d48568d3b6c11fbe6180\",\"urls\":[\"bzz-raw://63348b50be95e2995409394a17caffc563a646f0972650a1230bf864fbd3219b\",\"dweb:/ipfs/QmZXZpS3SbFD5nWaCauf6AqbEhLURv5qsKHpThBvQgDU6u\"],\"license\":\"MIT\"},\"node_modules/@bananapus/ownable/src/JBOwnable.sol\":{\"keccak256\":\"0x5b0aec2bc7164bdb972bfb9f71660c887308cf3a72738c7469d03bf264cf0d54\",\"urls\":[\"bzz-raw://bf4f60cebc0a707004371425aa3c8751b6a84dfb4fc9bf788160ae9ac1e906f6\",\"dweb:/ipfs/QmegUfWLhKuByQTkfMkmwkEs2Tk5ZEuR56DqQw5kxFzP3d\"],\"license\":\"MIT\"},\"node_modules/@bananapus/ownable/src/JBOwnableOverrides.sol\":{\"keccak256\":\"0x70a7c55f2a0f4324b63afe61e9d0de6e54396073e431844a19936d2aaaf6d7dd\",\"urls\":[\"bzz-raw://94c55139a8e974e2a88c6f0fc7594be3044742cfc499c989051eaf6664ec7dab\",\"dweb:/ipfs/QmQPnLAootqEGzpHRdhsYGBU3cqicRYLAe6bTti2UCBHyS\"],\"license\":\"MIT\"},\"node_modules/@bananapus/ownable/src/interfaces/IJBOwnable.sol\":{\"keccak256\":\"0x2c513558439d763df03e8a68c1aef698618182fd44c285405c35597d52c65ad1\",\"urls\":[\"bzz-raw://11cc25c41fccc20cca29f93dd120e67760188fd2040ef0330a093d37fbfa2f8f\",\"dweb:/ipfs/QmWpxcv41eYmsNYT3ph1nts5pC7sp3EzwJxKDGebMqEbsH\"],\"license\":\"MIT\"},\"node_modules/@bananapus/ownable/src/struct/JBOwner.sol\":{\"keccak256\":\"0x5624ba356f01f722984c1b857a106f413b12e57bae1f762a81c16ee511e3325a\",\"urls\":[\"bzz-raw://3120b5649ac8b55158df138dcac03f6850fc988cc5a24a7cb06e6581265ca284\",\"dweb:/ipfs/QmQBSLxRT9j1MEERUt8dWbSsAjianbHpM2CFwciLK7MwaP\"],\"license\":\"MIT\"},\"node_modules/@bananapus/permission-ids/src/JBPermissionIds.sol\":{\"keccak256\":\"0xf61109f6b217a80d5e5391f548fb6f2e451f7dbee3fabfc04cf17e88722203bc\",\"urls\":[\"bzz-raw://ac776ab1cd621c22bd7973471acdfa187f3abc659ad9a3ef6ed10b6447dfcf9c\",\"dweb:/ipfs/QmYLbaHt68qcuMzkiKpe96jMjiWUq1F3u8yMhxmZ3pnnWu\"],\"license\":\"MIT\"},\"node_modules/@openzeppelin/contracts/interfaces/IERC2981.sol\":{\"keccak256\":\"0x89b84f7b1b2d6c294cd6b9a9f661c1cfb1b9b10ca7bac5b3445850a8ce96dcf1\",\"urls\":[\"bzz-raw://44f961aefa43a50c94d8b68e749235b2cf3bd1de18bf6f2e5e1c0fd9a59e06ea\",\"dweb:/ipfs/QmNzd2bnJidavPtt2hQ1em387T6W37n3kDx8WrneCZozxV\"],\"license\":\"MIT\"},\"node_modules/@openzeppelin/contracts/interfaces/draft-IERC6093.sol\":{\"keccak256\":\"0x60c65f701957fdd6faea1acb0bb45825791d473693ed9ecb34726fdfaa849dd7\",\"urls\":[\"bzz-raw://ea290300e0efc4d901244949dc4d877fd46e6c5e43dc2b26620e8efab3ab803f\",\"dweb:/ipfs/QmcLLJppxKeJWqHxE2CUkcfhuRTgHSn8J4kijcLa5MYhSt\"],\"license\":\"MIT\"},\"node_modules/@openzeppelin/contracts/metatx/ERC2771Context.sol\":{\"keccak256\":\"0x98256cf37b71a69b2f5a8a6fe975ea03590dff703102bd141a830f94e8adebf6\",\"urls\":[\"bzz-raw://6251fe1f6a1e45e6d619d150c123afc88b8646b38ee26a136efa9a6988a31d3f\",\"dweb:/ipfs/QmeXDT85wSZdP31wkz3ah3KhponCiksJLP5o2LR5e1JxcK\"],\"license\":\"MIT\"},\"node_modules/@openzeppelin/contracts/proxy/Clones.sol\":{\"keccak256\":\"0xd18408af8a91bedb3d56343eeb9b30eb852e6dea93a5e2d5c6db9ca4cb905155\",\"urls\":[\"bzz-raw://061475b7302a732dc598907790f407417551c2b13e89daa57b3698489ef5484b\",\"dweb:/ipfs/QmdX5qmk3VSniSErFuD4aVawQxUi2MuUbP7spPcHddPfcX\"],\"license\":\"MIT\"},\"node_modules/@openzeppelin/contracts/token/ERC721/IERC721.sol\":{\"keccak256\":\"0x5ef46daa3b58ef2702279d514780316efaa952915ee1aa3396f041ee2982b0b4\",\"urls\":[\"bzz-raw://2f8f2a76e23b02fc69e8cd24c3cb47da6c7af3a2d6c3a382f8ac25c6e094ade7\",\"dweb:/ipfs/QmPV4ZS4tPVv4mTCf9ejyZ1ai57EEibDRj7mN2ARDCLV5n\"],\"license\":\"MIT\"},\"node_modules/@openzeppelin/contracts/token/ERC721/IERC721Receiver.sol\":{\"keccak256\":\"0x7f7a26306c79a65fb8b3b6c757cd74660c532cd8a02e165488e30027dd34ca49\",\"urls\":[\"bzz-raw://d01e0b2b837ee2f628545e54d8715b49c7ef2befd08356c2e7f6c50dde8a1c22\",\"dweb:/ipfs/QmWBAn6y2D1xgftci97Z3qR9tQnkvwQpYwFwkTvDMvqU4i\"],\"license\":\"MIT\"},\"node_modules/@openzeppelin/contracts/token/ERC721/extensions/IERC721Metadata.sol\":{\"keccak256\":\"0x37d1aaaa5a2908a09e9dcf56a26ddf762ecf295afb5964695937344fc6802ce1\",\"urls\":[\"bzz-raw://ed0bfc1b92153c5000e50f4021367b931bbe96372ac6facec3c4961b72053d02\",\"dweb:/ipfs/Qmbwp8VDerjS5SV1quwHH1oMXxPQ93fzfLVqJ2RCqbowGE\"],\"license\":\"MIT\"},\"node_modules/@openzeppelin/contracts/utils/Context.sol\":{\"keccak256\":\"0x493033a8d1b176a037b2cc6a04dad01a5c157722049bbecf632ca876224dd4b2\",\"urls\":[\"bzz-raw://6a708e8a5bdb1011c2c381c9a5cfd8a9a956d7d0a9dc1bd8bcdaf52f76ef2f12\",\"dweb:/ipfs/Qmax9WHBnVsZP46ZxEMNRQpLQnrdE4dK8LehML1Py8FowF\"],\"license\":\"MIT\"},\"node_modules/@openzeppelin/contracts/utils/Strings.sol\":{\"keccak256\":\"0x55f102ea785d8399c0e58d1108e2d289506dde18abc6db1b7f68c1f9f9bc5792\",\"urls\":[\"bzz-raw://6e52e0a7765c943ef14e5bcf11e46e6139fa044be564881378349236bf2e3453\",\"dweb:/ipfs/QmZEeeXoFPW47amyP35gfzomF9DixqqTEPwzBakv6cZw6i\"],\"license\":\"MIT\"},\"node_modules/@openzeppelin/contracts/utils/introspection/ERC165.sol\":{\"keccak256\":\"0x9e8778b14317ba9e256c30a76fd6c32b960af621987f56069e1e819c77c6a133\",\"urls\":[\"bzz-raw://1777404f1dcd0fac188e55a288724ec3c67b45288e49cc64723e95e702b49ab8\",\"dweb:/ipfs/QmZFdC626GButBApwDUvvTnUzdinevC3B24d7yyh57XkiA\"],\"license\":\"MIT\"},\"node_modules/@openzeppelin/contracts/utils/introspection/IERC165.sol\":{\"keccak256\":\"0x4296879f55019b23e135000eb36896057e7101fb7fb859c5ef690cf14643757b\",\"urls\":[\"bzz-raw://87b3541437c8c443ccd36795e56a338ed12855eec17f8da624511b8d1a7e14df\",\"dweb:/ipfs/QmeJQCtZrQjtJLr6u7ZHWeH3pBnjtLWzvRrKViAi7UZqxL\"],\"license\":\"MIT\"},\"node_modules/@openzeppelin/contracts/utils/math/Math.sol\":{\"keccak256\":\"0x005ec64c6313f0555d59e278f9a7a5ab2db5bdc72a027f255a37c327af1ec02d\",\"urls\":[\"bzz-raw://4ece9f0b9c8daca08c76b6b5405a6446b6f73b3a15fab7ff56e296cbd4a2c875\",\"dweb:/ipfs/QmQyRpyPRL5SQuAgj6SHmbir3foX65FJjbVTTQrA2EFg6L\"],\"license\":\"MIT\"},\"node_modules/@openzeppelin/contracts/utils/math/SignedMath.sol\":{\"keccak256\":\"0x5f7e4076e175393767754387c962926577f1660dd9b810187b9002407656be72\",\"urls\":[\"bzz-raw://7d533a1c97cd43a57cd9c465f7ee8dd0e39ae93a8fb8ff8e5303a356b081cdcc\",\"dweb:/ipfs/QmVBEei6aTnvYNZp2CHYVNKyZS4q1KkjANfY39WVXZXVoT\"],\"license\":\"MIT\"},\"node_modules/@prb/math/src/Common.sol\":{\"keccak256\":\"0xaa374e2c26cc93e8c22a6953804ee05f811597ef5fa82f76824378b22944778b\",\"urls\":[\"bzz-raw://279c732e161d623cf4d8a9519ca4c42c0c2db99842d0eb2a20c10fde3fa722c9\",\"dweb:/ipfs/QmVViuUXbinQGqtG5M21SgVzKihiCbFUChd4tDhtvwRmxH\"],\"license\":\"MIT\"},\"src/JB721TiersHook.sol\":{\"keccak256\":\"0x67a1a8abc1f6a05bf0398555acb87e81d5bd1d6db06f2289149b68cdbbbd5da4\",\"urls\":[\"bzz-raw://7222228ca731a0673ddfe2ed946c4c2880975e6ec6f5a022b6e8586d21055acc\",\"dweb:/ipfs/QmeqL2WQegBWPomLjpP5EvhuwRNKqy8C39gaZyvogrY1Jy\"],\"license\":\"MIT\"},\"src/JB721TiersHookDeployer.sol\":{\"keccak256\":\"0x8cadb554ef9d6a2c7371299f433de7fc93dfa76e7c3ee5045c4a75787d240916\",\"urls\":[\"bzz-raw://cf784800d387074a03ec29fa63ca61043f863b0720ba6d29dd273f2735f5758a\",\"dweb:/ipfs/QmbJFwxuCALGNHUu4c2EKGpfnVzaVcEfb6Qymc6LjXZ8eK\"],\"license\":\"MIT\"},\"src/abstract/ERC721.sol\":{\"keccak256\":\"0xc25c7c60c88684adc3f7a49621d27866866a44a3f3796e63c9fcaba75fbb2e84\",\"urls\":[\"bzz-raw://713103b7a05402264493430cfcd7d85f1a241a2eb4756af53a370fa529ea07bf\",\"dweb:/ipfs/QmSXZfxCG1N9XheS1kLCNJZ9k6ZRq4GnAMY7MKFfbKLXmz\"],\"license\":\"MIT\"},\"src/abstract/JB721Hook.sol\":{\"keccak256\":\"0x36d2a9fa61299fda4bee81002ab4751d877765b38801270eb72aed5f47e48591\",\"urls\":[\"bzz-raw://6460d03a6d0103c21f3178883cb14d2b5b48dac8d90b415af4a6b30c192af5ac\",\"dweb:/ipfs/QmNi9akp3SZYZd87Mrvozff4ccN4KSLmWzyhAupJd4chPt\"],\"license\":\"MIT\"},\"src/interfaces/IJB721Hook.sol\":{\"keccak256\":\"0x24935445bc4c5b0fe2a10aabe549122588940842a68e79a8c39b1df9458dd7fd\",\"urls\":[\"bzz-raw://1dee273fa76d9abae116de911fdda5e3113db2a58939e62e24fba98c63fd037a\",\"dweb:/ipfs/QmT6Lih7DeRAfrLc8uC7ecaw2EAKwhaP2BZHeY5DxeeVLM\"],\"license\":\"MIT\"},\"src/interfaces/IJB721TiersHook.sol\":{\"keccak256\":\"0xbd9a8dae00a4b1a02c628bd172fe4ae496e49f7651426cef08774ffdb6125c23\",\"urls\":[\"bzz-raw://9ce4fd77d5af1f570dad6b70758f09f9599768e1ab32f6b473f6181197daa0c8\",\"dweb:/ipfs/QmWj6sCTvZ2CbfSyRuhaXADxYbwwPcR42pZokcgfjpsabg\"],\"license\":\"MIT\"},\"src/interfaces/IJB721TiersHookDeployer.sol\":{\"keccak256\":\"0xc4c6dfd2573fe1f130bc5193da68a622959a11562010fa261ffd3a8893e08a7b\",\"urls\":[\"bzz-raw://0c34f79121f6c777bca3df6c2e87c0caa05146bec45e9ae29f41b0532d16c88e\",\"dweb:/ipfs/QmZJQVZC8uuuSssXtLnhsvisz7V2PCKs2s1Hbzo8hmZ9ZP\"],\"license\":\"MIT\"},\"src/interfaces/IJB721TiersHookStore.sol\":{\"keccak256\":\"0x8550e216c12c9cda865c1b1b0eb3f244aeaa8d465b197d4bd0dd8d4df265682e\",\"urls\":[\"bzz-raw://674a312f1eaffd7c6b21f58f8d4a628104e71220daf48a22237fa3bd035ddf21\",\"dweb:/ipfs/QmSRSW6cSwdpoGjVxDqiwJmJyCxfHWhCxZ2iaqeJcN2Ccy\"],\"license\":\"MIT\"},\"src/interfaces/IJB721TokenUriResolver.sol\":{\"keccak256\":\"0xfa599167098f4459320ec4141a98a17b2dfffbce422baa27d8b4e4530f61ece1\",\"urls\":[\"bzz-raw://8b758b161f4c7b520b2c34b4d91e585e961b8f4ca278eebb91d791f7f2f45140\",\"dweb:/ipfs/QmcD9DF7NJ9QykQpT4KPzm4bs3fkjzukdAUWwdU6Atfw85\"],\"license\":\"MIT\"},\"src/libraries/JB721TiersRulesetMetadataResolver.sol\":{\"keccak256\":\"0xe1e224860fce816c0566c4b22044eb2f5a767a09764d00482b954733bf18e51e\",\"urls\":[\"bzz-raw://043663de2a9c7e822e947e0b68833e77985d493bebcb48f86bf1b67f937417fc\",\"dweb:/ipfs/QmXVXPdpLfmT2a97gUQ5d2XSsHXhgpiTfs7w2ZtoD55uAd\"],\"license\":\"MIT\"},\"src/libraries/JBIpfsDecoder.sol\":{\"keccak256\":\"0xb93ba562ac1fc9d3829be00e61f3a90f51df5661cf0f2c819a7f1d8ba19ec171\",\"urls\":[\"bzz-raw://fc9bc948fac8897d9720ef25b13d63c60b40a18aa1897dd1c657fc278c416b4f\",\"dweb:/ipfs/QmNtiJTALZW5zfyKVy7XG5GkqGgMrfkVvU4Auu4bb9cGQc\"],\"license\":\"MIT\"},\"src/structs/JB721InitTiersConfig.sol\":{\"keccak256\":\"0xfb78486cec94189d0ecf2050dc9cfc11245b426c73a0711a85bff1359d774307\",\"urls\":[\"bzz-raw://a8fa01f6e64dd204dbde07a60851e9a5a74e439e1411139ae16b7cf67d2a2692\",\"dweb:/ipfs/QmZAnHyfpKr3xr7NWHj5sGaCEEtG8RtmHhkRUJJvNauym5\"],\"license\":\"MIT\"},\"src/structs/JB721Tier.sol\":{\"keccak256\":\"0x2e267a8af02f125465cdda9308477346ae4a94b024c3b2c2a6af0c00027944dd\",\"urls\":[\"bzz-raw://367ccea2c8fa815d498d771d4367ef1ded718a76e89644102034bfe4a3636b82\",\"dweb:/ipfs/QmYiFFa6ei9wZBSSVUHfY2Cb35zCDVXvbmLcgLj2BTiC1u\"],\"license\":\"MIT\"},\"src/structs/JB721TierConfig.sol\":{\"keccak256\":\"0x2fa9c5c8cec182b854a656d3b284e9d5306be35ad3dc4da79d65dca12b804af0\",\"urls\":[\"bzz-raw://b443a5f70195a66145ea1dade04454ce9a3ff1209e1aaecf53c8a9909b294d79\",\"dweb:/ipfs/QmUDPFZ4L6XpV3zLQUNVchUvecD4XfddKz2S46BKek5XL1\"],\"license\":\"MIT\"},\"src/structs/JB721TiersHookFlags.sol\":{\"keccak256\":\"0x283d8429f31bd58875c056515aa42abd09c95362bd929e85cfc44a0d92585766\",\"urls\":[\"bzz-raw://9a580b89fe99d9f8e930c58a4d0d63a5ff7c01c79d210af01373d066c9e72ed6\",\"dweb:/ipfs/QmdY1eSGSoTjv4KSdsG4Tm5CzJN6iqk3qTRga5ZWNbejRz\"],\"license\":\"MIT\"},\"src/structs/JB721TiersMintReservesConfig.sol\":{\"keccak256\":\"0xab3b319dc4e736586ae595de194d93dcdfeba365bc7a54cf6c37e697f6074ad9\",\"urls\":[\"bzz-raw://a84ae2cf2e8c3e39e831dbb39a67a8eb43c78a6de6bb78b1be2e1f1e80c69efe\",\"dweb:/ipfs/QmboGXEMqsYTxc4a7oft9rggNU7ShWSa9yB4HFMVmzXCHz\"],\"license\":\"MIT\"},\"src/structs/JB721TiersRulesetMetadata.sol\":{\"keccak256\":\"0x6720a6ada2a882f99afa050e40b6c925439da4339240565a0e706521b3aadc6b\",\"urls\":[\"bzz-raw://ede4a3165276d9d89eeea2dfd56f68d77dbfaedb738b30c8a0faa81c3a153b1b\",\"dweb:/ipfs/QmXa4QCb6K9MXxwNKed17VWeX9crKeMjkQnVk2xMARzh76\"],\"license\":\"MIT\"},\"src/structs/JBDeploy721TiersHookConfig.sol\":{\"keccak256\":\"0x4f0b8bbc19a405a096a16977fa1eedc0c56640ef777add89c050f989a62a6a35\",\"urls\":[\"bzz-raw://bd009c66aa748a2ce04720a6376683ce01ced3c0bd7f9534e145263aa49d95d3\",\"dweb:/ipfs/QmXyJCS1uQevdkw1Gc4UrRs8fZKtW9wPWFY9pxUWHKLo4e\"],\"license\":\"MIT\"}},\"version\":1}",
			"args": [
				"0x5978E282a25349A1ad1C7156d29CadD236921246",
				"0xB2C0Cf85FEf94012Bb4c5e0534B8A5E845BC6312",
				"0x989566Bf9fF4CffA55a98ADa7dc3E58b2a0a19c6",
				"0xB2b5841DBeF766d4b521221732F9B618fCf34A87"
			],
			"bytecode": "0x61010060405234801561001157600080fd5b50604051610e9c380380610e9c8339810160408190526100309161006b565b6001600160a01b0390811660805292831660a05290821660c0521660e0526100ca565b6001600160a01b038116811461006857600080fd5b50565b6000806000806080858703121561008157600080fd5b845161008c81610053565b602086015190945061009d81610053565b60408601519093506100ae81610053565b60608601519092506100bf81610053565b939692955090935050565b60805160a05160c05160e051610d786101246000396000818161014901526102fa01526000818160ac01526101f4015260008181610170015261019901526000818160de0152818161012001526104870152610d786000f3fe608060405234801561001057600080fd5b50600436106100725760003560e01c80637da0a877116100505780637da0a8771461011e57806389a56bbc14610144578063a54eb2421461016b57600080fd5b80632230819f14610077578063507f1465146100a7578063572b6c05146100ce575b600080fd5b61008a6100853660046108c9565b610192565b6040516001600160a01b0390911681526020015b60405180910390f35b61008a7f000000000000000000000000000000000000000000000000000000000000000081565b61010e6100dc366004610a1b565b7f00000000000000000000000000000000000000000000000000000000000000006001600160a01b0390811691161490565b604051901515815260200161009e565b7f000000000000000000000000000000000000000000000000000000000000000061008a565b61008a7f000000000000000000000000000000000000000000000000000000000000000081565b61008a7f000000000000000000000000000000000000000000000000000000000000000081565b60006101bd7f00000000000000000000000000000000000000000000000000000000000000006103f5565b9050806001600160a01b031663c07f2f9b84846000015185602001518660400151876060015188608001518960a001518a60c001517f00000000000000000000000000000000000000000000000000000000000000008c61010001516040518b63ffffffff1660e01b815260040161023e9a99989796959493929190610a85565b600060405180830381600087803b15801561025857600080fd5b505af115801561026c573d6000803e3d6000fd5b50505050806001600160a01b031663f2fde38b610287610480565b6040517fffffffff0000000000000000000000000000000000000000000000000000000060e084901b1681526001600160a01b039091166004820152602401600060405180830381600087803b1580156102e057600080fd5b505af11580156102f4573d6000803e3d6000fd5b505050507f00000000000000000000000000000000000000000000000000000000000000006001600160a01b031663b94417ab30600080815461033690610cb1565b91829055506040517fffffffff0000000000000000000000000000000000000000000000000000000060e085901b1681526001600160a01b0390921660048301526024820152604401600060405180830381600087803b15801561039957600080fd5b505af11580156103ad573d6000803e3d6000fd5b50506040516001600160a01b03841681528592507fa42f6bb68e81f4650a7966f109d861f6c3d2a477e608e30807f568bed1cebdb9915060200160405180910390a292915050565b6000763d602d80600a3d3981f3363d3d373d3d3d363d730000008260601b60e81c176000526e5af43d82803e903d91602b57fd5bf38260781b17602052603760096000f090506001600160a01b03811661047b576040517fc2f868f400000000000000000000000000000000000000000000000000000000815260040160405180910390fd5b919050565b60003660147f00000000000000000000000000000000000000000000000000000000000000006001600160a01b0316331480156104bd5750808210155b156104ed576000366104cf8385610cca565b6104da928290610ce3565b6104e391610d0d565b60601c9250505090565b339250505090565b634e487b7160e01b600052604160045260246000fd5b6040516080810167ffffffffffffffff8111828210171561052e5761052e6104f5565b60405290565b604051610180810167ffffffffffffffff8111828210171561052e5761052e6104f5565b604051610120810167ffffffffffffffff8111828210171561052e5761052e6104f5565b604051601f8201601f1916810167ffffffffffffffff811182821017156105a5576105a56104f5565b604052919050565b600082601f8301126105be57600080fd5b813567ffffffffffffffff8111156105d8576105d86104f5565b6105eb601f8201601f191660200161057c565b81815284602083860101111561060057600080fd5b816020850160208301376000918101602001919091529392505050565b6001600160a01b038116811461063257600080fd5b50565b803561047b8161061d565b80356cffffffffffffffffffffffffff8116811461047b57600080fd5b803563ffffffff8116811461047b57600080fd5b803561ffff8116811461047b57600080fd5b803562ffffff8116811461047b57600080fd5b8035801515811461047b57600080fd5b803560ff8116811461047b57600080fd5b600060808083850312156106ca57600080fd5b6106d261050b565b9150823567ffffffffffffffff808211156106ec57600080fd5b818501915085601f83011261070057600080fd5b8135602082821115610714576107146104f5565b610722818360051b0161057c565b828152818101935061018092830285018201928984111561074257600080fd5b948201945b838610156108355780868b03121561075f5760008081fd5b610767610534565b61077087610640565b815261077d84880161065d565b84820152604061078e81890161065d565b90820152606061079f888201610671565b908201526107ae878901610635565b8189015260a0878101359082015260c06107c9818901610683565b9082015260e06107da888201610696565b908201526101006107ec888201610696565b908201526101206107fe888201610696565b90820152610140610810888201610696565b90820152610160610822888201610696565b9082015285529485019493820193610747565b50865261084387820161065d565b818701525050505050610858604083016106a6565b604082015261086960608301610635565b606082015292915050565b60006080828403121561088657600080fd5b61088e61050b565b905061089982610696565b81526108a760208301610696565b60208201526108b860408301610696565b604082015261086960608301610696565b600080604083850312156108dc57600080fd5b82359150602083013567ffffffffffffffff808211156108fb57600080fd5b90840190610180828703121561091057600080fd5b610918610558565b82358281111561092757600080fd5b610933888286016105ad565b82525060208301358281111561094857600080fd5b610954888286016105ad565b60208301525061096660408401610635565b604082015260608301358281111561097d57600080fd5b610989888286016105ad565b60608301525061099b60808401610635565b608082015260a0830135828111156109b257600080fd5b6109be888286016105ad565b60a08301525060c0830135828111156109d657600080fd5b6109e2888286016106b7565b60c0830152506109f460e08401610635565b60e08201526101009150610a0a87838501610874565b828201528093505050509250929050565b600060208284031215610a2d57600080fd5b8135610a388161061d565b9392505050565b6000815180845260005b81811015610a6557602081850181015186830182015201610a49565b506000602082860101526020601f19601f83011685010191505092915050565b60006101a08c835260208181850152610aa08285018e610a3f565b91508382036040850152610ab4828d610a3f565b915060606001600160a01b03808d16606087015260808685036080880152610adc858e610a3f565b945060a0828d1660a089015260c0925087860360c0890152610afe868d610a3f565b955060e088870360e08a0152608087018c516080895281815180845260a08b0191508983019350600092505b80831015610bf657835180516cffffffffffffffffffffffffff168352808b015163ffffffff8116848d0152506040810151610b6e604085018263ffffffff169052565b508981015161ffff16838b0152878101516001600160a01b03168884015286810151878401528881015162ffffff16898401528581015115158684015261010080820151151590840152610120808201511515908401526101408082015115159084015261016090810151151590830152928901926001929092019161018090910190610b2a565b508e89015163ffffffff81168b8b0152975060408f01519850610c1e60408b018a60ff169052565b60608f01519850610c3a60608b018a6001600160a01b03169052565b6001600160a01b038e166101008d01529950610c5b98505050505050505050565b825115156101208301526020830151151561014083015260408301511515610160830152606083015115156101808301529b9a5050505050505050505050565b634e487b7160e01b600052601160045260246000fd5b600060018201610cc357610cc3610c9b565b5060010190565b81810381811115610cdd57610cdd610c9b565b92915050565b60008085851115610cf357600080fd5b83861115610d0057600080fd5b5050820193919092039150565b6bffffffffffffffffffffffff198135818116916014851015610d3a5780818660140360031b1b83161692505b50509291505056fea2646970667358221220b49b6a89586f4de00d7db1f371f8fd9faa0b4f792d1cc60de3dd4236d54166ec64736f6c63430008170033",
			"deployedBytecode": "0x608060405234801561001057600080fd5b50600436106100725760003560e01c80637da0a877116100505780637da0a8771461011e57806389a56bbc14610144578063a54eb2421461016b57600080fd5b80632230819f14610077578063507f1465146100a7578063572b6c05146100ce575b600080fd5b61008a6100853660046108c9565b610192565b6040516001600160a01b0390911681526020015b60405180910390f35b61008a7f000000000000000000000000b2c0cf85fef94012bb4c5e0534b8a5e845bc631281565b61010e6100dc366004610a1b565b7f000000000000000000000000b2b5841dbef766d4b521221732f9b618fcf34a876001600160a01b0390811691161490565b604051901515815260200161009e565b7f000000000000000000000000b2b5841dbef766d4b521221732f9b618fcf34a8761008a565b61008a7f000000000000000000000000989566bf9ff4cffa55a98ada7dc3e58b2a0a19c681565b61008a7f0000000000000000000000005978e282a25349a1ad1c7156d29cadd23692124681565b60006101bd7f0000000000000000000000005978e282a25349a1ad1c7156d29cadd2369212466103f5565b9050806001600160a01b031663c07f2f9b84846000015185602001518660400151876060015188608001518960a001518a60c001517f000000000000000000000000b2c0cf85fef94012bb4c5e0534b8a5e845bc63128c61010001516040518b63ffffffff1660e01b815260040161023e9a99989796959493929190610a85565b600060405180830381600087803b15801561025857600080fd5b505af115801561026c573d6000803e3d6000fd5b50505050806001600160a01b031663f2fde38b610287610480565b6040517fffffffff0000000000000000000000000000000000000000000000000000000060e084901b1681526001600160a01b039091166004820152602401600060405180830381600087803b1580156102e057600080fd5b505af11580156102f4573d6000803e3d6000fd5b505050507f000000000000000000000000989566bf9ff4cffa55a98ada7dc3e58b2a0a19c66001600160a01b031663b94417ab30600080815461033690610cb1565b91829055506040517fffffffff0000000000000000000000000000000000000000000000000000000060e085901b1681526001600160a01b0390921660048301526024820152604401600060405180830381600087803b15801561039957600080fd5b505af11580156103ad573d6000803e3d6000fd5b50506040516001600160a01b03841681528592507fa42f6bb68e81f4650a7966f109d861f6c3d2a477e608e30807f568bed1cebdb9915060200160405180910390a292915050565b6000763d602d80600a3d3981f3363d3d373d3d3d363d730000008260601b60e81c176000526e5af43d82803e903d91602b57fd5bf38260781b17602052603760096000f090506001600160a01b03811661047b576040517fc2f868f400000000000000000000000000000000000000000000000000000000815260040160405180910390fd5b919050565b60003660147f000000000000000000000000b2b5841dbef766d4b521221732f9b618fcf34a876001600160a01b0316331480156104bd5750808210155b156104ed576000366104cf8385610cca565b6104da928290610ce3565b6104e391610d0d565b60601c9250505090565b339250505090565b634e487b7160e01b600052604160045260246000fd5b6040516080810167ffffffffffffffff8111828210171561052e5761052e6104f5565b60405290565b604051610180810167ffffffffffffffff8111828210171561052e5761052e6104f5565b604051610120810167ffffffffffffffff8111828210171561052e5761052e6104f5565b604051601f8201601f1916810167ffffffffffffffff811182821017156105a5576105a56104f5565b604052919050565b600082601f8301126105be57600080fd5b813567ffffffffffffffff8111156105d8576105d86104f5565b6105eb601f8201601f191660200161057c565b81815284602083860101111561060057600080fd5b816020850160208301376000918101602001919091529392505050565b6001600160a01b038116811461063257600080fd5b50565b803561047b8161061d565b80356cffffffffffffffffffffffffff8116811461047b57600080fd5b803563ffffffff8116811461047b57600080fd5b803561ffff8116811461047b57600080fd5b803562ffffff8116811461047b57600080fd5b8035801515811461047b57600080fd5b803560ff8116811461047b57600080fd5b600060808083850312156106ca57600080fd5b6106d261050b565b9150823567ffffffffffffffff808211156106ec57600080fd5b818501915085601f83011261070057600080fd5b8135602082821115610714576107146104f5565b610722818360051b0161057c565b828152818101935061018092830285018201928984111561074257600080fd5b948201945b838610156108355780868b03121561075f5760008081fd5b610767610534565b61077087610640565b815261077d84880161065d565b84820152604061078e81890161065d565b90820152606061079f888201610671565b908201526107ae878901610635565b8189015260a0878101359082015260c06107c9818901610683565b9082015260e06107da888201610696565b908201526101006107ec888201610696565b908201526101206107fe888201610696565b90820152610140610810888201610696565b90820152610160610822888201610696565b9082015285529485019493820193610747565b50865261084387820161065d565b818701525050505050610858604083016106a6565b604082015261086960608301610635565b606082015292915050565b60006080828403121561088657600080fd5b61088e61050b565b905061089982610696565b81526108a760208301610696565b60208201526108b860408301610696565b604082015261086960608301610696565b600080604083850312156108dc57600080fd5b82359150602083013567ffffffffffffffff808211156108fb57600080fd5b90840190610180828703121561091057600080fd5b610918610558565b82358281111561092757600080fd5b610933888286016105ad565b82525060208301358281111561094857600080fd5b610954888286016105ad565b60208301525061096660408401610635565b604082015260608301358281111561097d57600080fd5b610989888286016105ad565b60608301525061099b60808401610635565b608082015260a0830135828111156109b257600080fd5b6109be888286016105ad565b60a08301525060c0830135828111156109d657600080fd5b6109e2888286016106b7565b60c0830152506109f460e08401610635565b60e08201526101009150610a0a87838501610874565b828201528093505050509250929050565b600060208284031215610a2d57600080fd5b8135610a388161061d565b9392505050565b6000815180845260005b81811015610a6557602081850181015186830182015201610a49565b506000602082860101526020601f19601f83011685010191505092915050565b60006101a08c835260208181850152610aa08285018e610a3f565b91508382036040850152610ab4828d610a3f565b915060606001600160a01b03808d16606087015260808685036080880152610adc858e610a3f565b945060a0828d1660a089015260c0925087860360c0890152610afe868d610a3f565b955060e088870360e08a0152608087018c516080895281815180845260a08b0191508983019350600092505b80831015610bf657835180516cffffffffffffffffffffffffff168352808b015163ffffffff8116848d0152506040810151610b6e604085018263ffffffff169052565b508981015161ffff16838b0152878101516001600160a01b03168884015286810151878401528881015162ffffff16898401528581015115158684015261010080820151151590840152610120808201511515908401526101408082015115159084015261016090810151151590830152928901926001929092019161018090910190610b2a565b508e89015163ffffffff81168b8b0152975060408f01519850610c1e60408b018a60ff169052565b60608f01519850610c3a60608b018a6001600160a01b03169052565b6001600160a01b038e166101008d01529950610c5b98505050505050505050565b825115156101208301526020830151151561014083015260408301511515610160830152606083015115156101808301529b9a5050505050505050505050565b634e487b7160e01b600052601160045260246000fd5b600060018201610cc357610cc3610c9b565b5060010190565b81810381811115610cdd57610cdd610c9b565b92915050565b60008085851115610cf357600080fd5b83861115610d0057600080fd5b5050820193919092039150565b6bffffffffffffffffffffffff198135818116916014851015610d3a5780818660140360031b1b83161692505b50509291505056fea2646970667358221220b49b6a89586f4de00d7db1f371f8fd9faa0b4f792d1cc60de3dd4236d54166ec64736f6c63430008170033",
			"devdoc": {
				"kind": "dev",
				"methods": {
					"constructor": {
						"params": {
							"addressRegistry": "A registry which stores references to contracts and their deployers.",
							"hook": "Reference copy of a hook."
						}
					},
					"deployHookFor(uint256,(string,string,address,string,address,string,((uint104,uint32,uint32,uint16,address,bytes32,uint24,bool,bool,bool,bool,bool)[],uint32,uint8,address),address,(bool,bool,bool,bool)))": {
						"params": {
							"deployTiersHookConfig": "The config to deploy the hook with, which determines its behavior.",
							"projectId": "The ID of the project to deploy the hook for."
						},
						"returns": {
							"newHook": "The address of the newly deployed hook."
						}
					},
					"isTrustedForwarder(address)": {
						"details": "Indicates whether any particular address is the trusted forwarder."
					},
					"trustedForwarder()": {
						"details": "Returns the address of the trusted forwarder."
					}
				},
				"version": 1
			},
			"userdoc": {
				"kind": "user",
				"methods": {
					"ADDRESS_REGISTRY()": {
						"notice": "A registry which stores references to contracts and their deployers."
					},
					"HOOK()": {
						"notice": "A 721 tiers hook."
					},
					"STORE()": {
						"notice": "The contract that stores and manages data for this contract's NFTs."
					},
					"deployHookFor(uint256,(string,string,address,string,address,string,((uint104,uint32,uint32,uint16,address,bytes32,uint24,bool,bool,bool,bool,bool)[],uint32,uint8,address),address,(bool,bool,bool,bool)))": {
						"notice": "Deploys a 721 tiers hook for the specified project."
					}
				},
				"version": 1
			},
			"gitCommit": "bbe3e586edd7f6ffc20748bc04e03363a779a864",
			"sourceName": "src/JB721TiersHookDeployer.sol",
			"chainId": "11155420",
			"linkReferences": {},
			"deployedLinkReferences": {}
		},
		{
			"_format": "sphinx-sol-ct-artifact-1",
			"merkleRoot": "0xc247d32a31720a2fd823bfaf786aac2d07f99ef9eaca44a0eb7e413dc6f4d276",
			"contractName": "JB721TiersHookDeployer",
			"address": "0xf2dEE65acD9ccA20692C19E9635274b9c9e3309A",
			"abi": [
				{
					"type": "constructor",
					"inputs": [
						{
							"name": "hook",
							"type": "address",
							"internalType": "contract JB721TiersHook"
						},
						{
							"name": "store",
							"type": "address",
							"internalType": "contract IJB721TiersHookStore"
						},
						{
							"name": "addressRegistry",
							"type": "address",
							"internalType": "contract IJBAddressRegistry"
						},
						{
							"name": "trustedForwarder",
							"type": "address",
							"internalType": "address"
						}
					],
					"stateMutability": "nonpayable"
				},
				{
					"type": "function",
					"name": "ADDRESS_REGISTRY",
					"inputs": [],
					"outputs": [
						{
							"name": "",
							"type": "address",
							"internalType": "contract IJBAddressRegistry"
						}
					],
					"stateMutability": "view"
				},
				{
					"type": "function",
					"name": "HOOK",
					"inputs": [],
					"outputs": [
						{
							"name": "",
							"type": "address",
							"internalType": "contract JB721TiersHook"
						}
					],
					"stateMutability": "view"
				},
				{
					"type": "function",
					"name": "STORE",
					"inputs": [],
					"outputs": [
						{
							"name": "",
							"type": "address",
							"internalType": "contract IJB721TiersHookStore"
						}
					],
					"stateMutability": "view"
				},
				{
					"type": "function",
					"name": "deployHookFor",
					"inputs": [
						{
							"name": "projectId",
							"type": "uint256",
							"internalType": "uint256"
						},
						{
							"name": "deployTiersHookConfig",
							"type": "tuple",
							"internalType": "struct JBDeploy721TiersHookConfig",
							"components": [
								{
									"name": "name",
									"type": "string",
									"internalType": "string"
								},
								{
									"name": "symbol",
									"type": "string",
									"internalType": "string"
								},
								{
									"name": "rulesets",
									"type": "address",
									"internalType": "contract IJBRulesets"
								},
								{
									"name": "baseUri",
									"type": "string",
									"internalType": "string"
								},
								{
									"name": "tokenUriResolver",
									"type": "address",
									"internalType": "contract IJB721TokenUriResolver"
								},
								{
									"name": "contractUri",
									"type": "string",
									"internalType": "string"
								},
								{
									"name": "tiersConfig",
									"type": "tuple",
									"internalType": "struct JB721InitTiersConfig",
									"components": [
										{
											"name": "tiers",
											"type": "tuple[]",
											"internalType": "struct JB721TierConfig[]",
											"components": [
												{
													"name": "price",
													"type": "uint104",
													"internalType": "uint104"
												},
												{
													"name": "initialSupply",
													"type": "uint32",
													"internalType": "uint32"
												},
												{
													"name": "votingUnits",
													"type": "uint32",
													"internalType": "uint32"
												},
												{
													"name": "reserveFrequency",
													"type": "uint16",
													"internalType": "uint16"
												},
												{
													"name": "reserveBeneficiary",
													"type": "address",
													"internalType": "address"
												},
												{
													"name": "encodedIPFSUri",
													"type": "bytes32",
													"internalType": "bytes32"
												},
												{
													"name": "category",
													"type": "uint24",
													"internalType": "uint24"
												},
												{
													"name": "allowOwnerMint",
													"type": "bool",
													"internalType": "bool"
												},
												{
													"name": "useReserveBeneficiaryAsDefault",
													"type": "bool",
													"internalType": "bool"
												},
												{
													"name": "transfersPausable",
													"type": "bool",
													"internalType": "bool"
												},
												{
													"name": "useVotingUnits",
													"type": "bool",
													"internalType": "bool"
												},
												{
													"name": "cannotBeRemoved",
													"type": "bool",
													"internalType": "bool"
												}
											]
										},
										{
											"name": "currency",
											"type": "uint32",
											"internalType": "uint32"
										},
										{
											"name": "decimals",
											"type": "uint8",
											"internalType": "uint8"
										},
										{
											"name": "prices",
											"type": "address",
											"internalType": "contract IJBPrices"
										}
									]
								},
								{
									"name": "reserveBeneficiary",
									"type": "address",
									"internalType": "address"
								},
								{
									"name": "flags",
									"type": "tuple",
									"internalType": "struct JB721TiersHookFlags",
									"components": [
										{
											"name": "noNewTiersWithReserves",
											"type": "bool",
											"internalType": "bool"
										},
										{
											"name": "noNewTiersWithVotes",
											"type": "bool",
											"internalType": "bool"
										},
										{
											"name": "noNewTiersWithOwnerMinting",
											"type": "bool",
											"internalType": "bool"
										},
										{
											"name": "preventOverspending",
											"type": "bool",
											"internalType": "bool"
										}
									]
								}
							]
						}
					],
					"outputs": [
						{
							"name": "newHook",
							"type": "address",
							"internalType": "contract IJB721TiersHook"
						}
					],
					"stateMutability": "nonpayable"
				},
				{
					"type": "function",
					"name": "isTrustedForwarder",
					"inputs": [
						{
							"name": "forwarder",
							"type": "address",
							"internalType": "address"
						}
					],
					"outputs": [
						{
							"name": "",
							"type": "bool",
							"internalType": "bool"
						}
					],
					"stateMutability": "view"
				},
				{
					"type": "function",
					"name": "trustedForwarder",
					"inputs": [],
					"outputs": [
						{
							"name": "",
							"type": "address",
							"internalType": "address"
						}
					],
					"stateMutability": "view"
				},
				{
					"type": "event",
					"name": "HookDeployed",
					"inputs": [
						{
							"name": "projectId",
							"type": "uint256",
							"indexed": true,
							"internalType": "uint256"
						},
						{
							"name": "newHook",
							"type": "address",
							"indexed": false,
							"internalType": "contract IJB721TiersHook"
						}
					],
					"anonymous": false
				},
				{
					"type": "error",
					"name": "ERC1167FailedCreateClone",
					"inputs": []
				}
			],
			"solcInputHash": "3a3e66177785115bee0841c9ac6b1ab2",
			"receipt": {
				"blockHash": "0x82bc05d9d8718f914f9b579b3ff83bc29c2c49b24f330c46e95ca91c836fdf04",
				"blockNumber": 11432422,
				"contractAddress": null,
				"cumulativeGasUsed": "9556593",
				"from": "0xC034550B542b83BA1De312b21d1C94a9a52B1595",
				"gasPrice": "1000280",
				"gasUsed": "8837707",
				"hash": "0x6f21d50b61ddc7e182dcf8e781e27b79889405bcf71d0398686a3b776a6fd436",
				"index": 6,
				"logs": [
					{
						"address": "0xB5E96127D417b1B3ef8438496a38A143167209c7",
						"blockHash": "0x82bc05d9d8718f914f9b579b3ff83bc29c2c49b24f330c46e95ca91c836fdf04",
						"blockNumber": 11432422,
						"data": "0x0000000000000000000000000000000000000000000000000000000000000000",
						"index": 11,
						"topics": [
							"0x572f161235911da04685a68c06adf558fc7e4a36909dca394650e0adc19cc93d",
							"0x000000000000000000000000c034550b542b83ba1de312b21d1c94a9a52b1595",
							"0x000000000000000000000000582b73e9f9ec9fa3ff32b83cfd7e2810a63bbcdb",
							"0xd09f04d194e9cf38bd540d77bcf9c3a439b9e3074eb311c5c7f02839d0155243"
						],
						"transactionHash": "0x6f21d50b61ddc7e182dcf8e781e27b79889405bcf71d0398686a3b776a6fd436",
						"transactionIndex": 6
					},
					{
						"address": "0xBF85bB430e7242987436b1c05f31Ba11E9CEE129",
						"blockHash": "0x82bc05d9d8718f914f9b579b3ff83bc29c2c49b24f330c46e95ca91c836fdf04",
						"blockNumber": 11432422,
						"data": "0x",
						"index": 12,
						"topics": [
							"0x8be0079c531659141344cd1fd0a4f28419497f9722a3daafe3b4186f6b6457e0",
							"0x0000000000000000000000000000000000000000000000000000000000000000",
							"0x0000000000000000000000004e59b44847b379578588920ca78fbf26c0b4956c"
						],
						"transactionHash": "0x6f21d50b61ddc7e182dcf8e781e27b79889405bcf71d0398686a3b776a6fd436",
						"transactionIndex": 6
					},
					{
						"address": "0x89BeB14760384C532b587eE00bB42EE307f17e47",
						"blockHash": "0x82bc05d9d8718f914f9b579b3ff83bc29c2c49b24f330c46e95ca91c836fdf04",
						"blockNumber": 11432422,
						"data": "0x",
						"index": 13,
						"topics": [
							"0x6895c13664aa4f67288b25d7a21d7aaa34916e355fb9b6fae0a139a9085becb8",
							"0x000000000000000000000000582b73e9f9ec9fa3ff32b83cfd7e2810a63bbcdb"
						],
						"transactionHash": "0x6f21d50b61ddc7e182dcf8e781e27b79889405bcf71d0398686a3b776a6fd436",
						"transactionIndex": 6
					},
					{
						"address": "0x582b73e9F9EC9fa3fF32b83CFD7E2810a63BBCdB",
						"blockHash": "0x82bc05d9d8718f914f9b579b3ff83bc29c2c49b24f330c46e95ca91c836fdf04",
						"blockNumber": 11432422,
						"data": "0x0000000000000000000000000000000000000000000000000000000000000001",
						"index": 14,
						"topics": [
							"0xa65fb05c5808f5f389d72edeaf719ce38f4cc55c1f69ca3cbfb31c21501caa07",
							"0xc247d32a31720a2fd823bfaf786aac2d07f99ef9eaca44a0eb7e413dc6f4d276"
						],
						"transactionHash": "0x6f21d50b61ddc7e182dcf8e781e27b79889405bcf71d0398686a3b776a6fd436",
						"transactionIndex": 6
					},
					{
						"address": "0x89BeB14760384C532b587eE00bB42EE307f17e47",
						"blockHash": "0x82bc05d9d8718f914f9b579b3ff83bc29c2c49b24f330c46e95ca91c836fdf04",
						"blockNumber": 11432422,
						"data": "0x",
						"index": 15,
						"topics": [
							"0x6895c13664aa4f67288b25d7a21d7aaa34916e355fb9b6fae0a139a9085becb8",
							"0x000000000000000000000000582b73e9f9ec9fa3ff32b83cfd7e2810a63bbcdb"
						],
						"transactionHash": "0x6f21d50b61ddc7e182dcf8e781e27b79889405bcf71d0398686a3b776a6fd436",
						"transactionIndex": 6
					},
					{
						"address": "0x582b73e9F9EC9fa3fF32b83CFD7E2810a63BBCdB",
						"blockHash": "0x82bc05d9d8718f914f9b579b3ff83bc29c2c49b24f330c46e95ca91c836fdf04",
						"blockNumber": 11432422,
						"data": "0x0000000000000000000000000000000000000000000000000000000000000002",
						"index": 16,
						"topics": [
							"0xa65fb05c5808f5f389d72edeaf719ce38f4cc55c1f69ca3cbfb31c21501caa07",
							"0xc247d32a31720a2fd823bfaf786aac2d07f99ef9eaca44a0eb7e413dc6f4d276"
						],
						"transactionHash": "0x6f21d50b61ddc7e182dcf8e781e27b79889405bcf71d0398686a3b776a6fd436",
						"transactionIndex": 6
					},
					{
						"address": "0x89BeB14760384C532b587eE00bB42EE307f17e47",
						"blockHash": "0x82bc05d9d8718f914f9b579b3ff83bc29c2c49b24f330c46e95ca91c836fdf04",
						"blockNumber": 11432422,
						"data": "0x",
						"index": 17,
						"topics": [
							"0x6895c13664aa4f67288b25d7a21d7aaa34916e355fb9b6fae0a139a9085becb8",
							"0x000000000000000000000000582b73e9f9ec9fa3ff32b83cfd7e2810a63bbcdb"
						],
						"transactionHash": "0x6f21d50b61ddc7e182dcf8e781e27b79889405bcf71d0398686a3b776a6fd436",
						"transactionIndex": 6
					},
					{
						"address": "0x582b73e9F9EC9fa3fF32b83CFD7E2810a63BBCdB",
						"blockHash": "0x82bc05d9d8718f914f9b579b3ff83bc29c2c49b24f330c46e95ca91c836fdf04",
						"blockNumber": 11432422,
						"data": "0x0000000000000000000000000000000000000000000000000000000000000003",
						"index": 18,
						"topics": [
							"0xa65fb05c5808f5f389d72edeaf719ce38f4cc55c1f69ca3cbfb31c21501caa07",
							"0xc247d32a31720a2fd823bfaf786aac2d07f99ef9eaca44a0eb7e413dc6f4d276"
						],
						"transactionHash": "0x6f21d50b61ddc7e182dcf8e781e27b79889405bcf71d0398686a3b776a6fd436",
						"transactionIndex": 6
					},
					{
						"address": "0x582b73e9F9EC9fa3fF32b83CFD7E2810a63BBCdB",
						"blockHash": "0x82bc05d9d8718f914f9b579b3ff83bc29c2c49b24f330c46e95ca91c836fdf04",
						"blockNumber": 11432422,
						"data": "0x",
						"index": 19,
						"topics": [
							"0x4383d976757d67ca920616be0b6430a681ea9d3dcce8d6d61d4603ca4a9bff63",
							"0xc247d32a31720a2fd823bfaf786aac2d07f99ef9eaca44a0eb7e413dc6f4d276"
						],
						"transactionHash": "0x6f21d50b61ddc7e182dcf8e781e27b79889405bcf71d0398686a3b776a6fd436",
						"transactionIndex": 6
					}
				],
				"logsBloom": "0x0000000008001000004000000008000000000000000900000080000000400000000000000000000000000000004000010000000000000000000000100000000000000000000020000000000000000000000100000000000000000000000000000200000002000000000000000000081000000000000000000800000000000040000000000000000000010000000000000000000000140040000000000000000000400080001100000000000000000002020000000802000000000000000400000000000000000000000000000c000000000000000000000000000040000820000000000000000808000200008000000280000000000000000000000008000000",
				"status": 1,
				"to": "0xB5E96127D417b1B3ef8438496a38A143167209c7"
			},
			"metadata": "{\"compiler\":{\"version\":\"0.8.23+commit.f704f362\"},\"language\":\"Solidity\",\"output\":{\"abi\":[{\"inputs\":[{\"internalType\":\"contract JB721TiersHook\",\"name\":\"hook\",\"type\":\"address\"},{\"internalType\":\"contract IJB721TiersHookStore\",\"name\":\"store\",\"type\":\"address\"},{\"internalType\":\"contract IJBAddressRegistry\",\"name\":\"addressRegistry\",\"type\":\"address\"},{\"internalType\":\"address\",\"name\":\"trustedForwarder\",\"type\":\"address\"}],\"stateMutability\":\"nonpayable\",\"type\":\"constructor\"},{\"inputs\":[],\"type\":\"error\",\"name\":\"ERC1167FailedCreateClone\"},{\"inputs\":[{\"internalType\":\"uint256\",\"name\":\"projectId\",\"type\":\"uint256\",\"indexed\":true},{\"internalType\":\"contract IJB721TiersHook\",\"name\":\"newHook\",\"type\":\"address\",\"indexed\":false}],\"type\":\"event\",\"name\":\"HookDeployed\",\"anonymous\":false},{\"inputs\":[],\"stateMutability\":\"view\",\"type\":\"function\",\"name\":\"ADDRESS_REGISTRY\",\"outputs\":[{\"internalType\":\"contract IJBAddressRegistry\",\"name\":\"\",\"type\":\"address\"}]},{\"inputs\":[],\"stateMutability\":\"view\",\"type\":\"function\",\"name\":\"HOOK\",\"outputs\":[{\"internalType\":\"contract JB721TiersHook\",\"name\":\"\",\"type\":\"address\"}]},{\"inputs\":[],\"stateMutability\":\"view\",\"type\":\"function\",\"name\":\"STORE\",\"outputs\":[{\"internalType\":\"contract IJB721TiersHookStore\",\"name\":\"\",\"type\":\"address\"}]},{\"inputs\":[{\"internalType\":\"uint256\",\"name\":\"projectId\",\"type\":\"uint256\"},{\"internalType\":\"struct JBDeploy721TiersHookConfig\",\"name\":\"deployTiersHookConfig\",\"type\":\"tuple\",\"components\":[{\"internalType\":\"string\",\"name\":\"name\",\"type\":\"string\"},{\"internalType\":\"string\",\"name\":\"symbol\",\"type\":\"string\"},{\"internalType\":\"contract IJBRulesets\",\"name\":\"rulesets\",\"type\":\"address\"},{\"internalType\":\"string\",\"name\":\"baseUri\",\"type\":\"string\"},{\"internalType\":\"contract IJB721TokenUriResolver\",\"name\":\"tokenUriResolver\",\"type\":\"address\"},{\"internalType\":\"string\",\"name\":\"contractUri\",\"type\":\"string\"},{\"internalType\":\"struct JB721InitTiersConfig\",\"name\":\"tiersConfig\",\"type\":\"tuple\",\"components\":[{\"internalType\":\"struct JB721TierConfig[]\",\"name\":\"tiers\",\"type\":\"tuple[]\",\"components\":[{\"internalType\":\"uint104\",\"name\":\"price\",\"type\":\"uint104\"},{\"internalType\":\"uint32\",\"name\":\"initialSupply\",\"type\":\"uint32\"},{\"internalType\":\"uint32\",\"name\":\"votingUnits\",\"type\":\"uint32\"},{\"internalType\":\"uint16\",\"name\":\"reserveFrequency\",\"type\":\"uint16\"},{\"internalType\":\"address\",\"name\":\"reserveBeneficiary\",\"type\":\"address\"},{\"internalType\":\"bytes32\",\"name\":\"encodedIPFSUri\",\"type\":\"bytes32\"},{\"internalType\":\"uint24\",\"name\":\"category\",\"type\":\"uint24\"},{\"internalType\":\"bool\",\"name\":\"allowOwnerMint\",\"type\":\"bool\"},{\"internalType\":\"bool\",\"name\":\"useReserveBeneficiaryAsDefault\",\"type\":\"bool\"},{\"internalType\":\"bool\",\"name\":\"transfersPausable\",\"type\":\"bool\"},{\"internalType\":\"bool\",\"name\":\"useVotingUnits\",\"type\":\"bool\"},{\"internalType\":\"bool\",\"name\":\"cannotBeRemoved\",\"type\":\"bool\"}]},{\"internalType\":\"uint32\",\"name\":\"currency\",\"type\":\"uint32\"},{\"internalType\":\"uint8\",\"name\":\"decimals\",\"type\":\"uint8\"},{\"internalType\":\"contract IJBPrices\",\"name\":\"prices\",\"type\":\"address\"}]},{\"internalType\":\"address\",\"name\":\"reserveBeneficiary\",\"type\":\"address\"},{\"internalType\":\"struct JB721TiersHookFlags\",\"name\":\"flags\",\"type\":\"tuple\",\"components\":[{\"internalType\":\"bool\",\"name\":\"noNewTiersWithReserves\",\"type\":\"bool\"},{\"internalType\":\"bool\",\"name\":\"noNewTiersWithVotes\",\"type\":\"bool\"},{\"internalType\":\"bool\",\"name\":\"noNewTiersWithOwnerMinting\",\"type\":\"bool\"},{\"internalType\":\"bool\",\"name\":\"preventOverspending\",\"type\":\"bool\"}]}]}],\"stateMutability\":\"nonpayable\",\"type\":\"function\",\"name\":\"deployHookFor\",\"outputs\":[{\"internalType\":\"contract IJB721TiersHook\",\"name\":\"newHook\",\"type\":\"address\"}]},{\"inputs\":[{\"internalType\":\"address\",\"name\":\"forwarder\",\"type\":\"address\"}],\"stateMutability\":\"view\",\"type\":\"function\",\"name\":\"isTrustedForwarder\",\"outputs\":[{\"internalType\":\"bool\",\"name\":\"\",\"type\":\"bool\"}]},{\"inputs\":[],\"stateMutability\":\"view\",\"type\":\"function\",\"name\":\"trustedForwarder\",\"outputs\":[{\"internalType\":\"address\",\"name\":\"\",\"type\":\"address\"}]}],\"devdoc\":{\"kind\":\"dev\",\"methods\":{\"constructor\":{\"params\":{\"addressRegistry\":\"A registry which stores references to contracts and their deployers.\",\"hook\":\"Reference copy of a hook.\"}},\"deployHookFor(uint256,(string,string,address,string,address,string,((uint104,uint32,uint32,uint16,address,bytes32,uint24,bool,bool,bool,bool,bool)[],uint32,uint8,address),address,(bool,bool,bool,bool)))\":{\"params\":{\"deployTiersHookConfig\":\"The config to deploy the hook with, which determines its behavior.\",\"projectId\":\"The ID of the project to deploy the hook for.\"},\"returns\":{\"newHook\":\"The address of the newly deployed hook.\"}},\"isTrustedForwarder(address)\":{\"details\":\"Indicates whether any particular address is the trusted forwarder.\"},\"trustedForwarder()\":{\"details\":\"Returns the address of the trusted forwarder.\"}},\"version\":1},\"userdoc\":{\"kind\":\"user\",\"methods\":{\"ADDRESS_REGISTRY()\":{\"notice\":\"A registry which stores references to contracts and their deployers.\"},\"HOOK()\":{\"notice\":\"A 721 tiers hook.\"},\"STORE()\":{\"notice\":\"The contract that stores and manages data for this contract's NFTs.\"},\"deployHookFor(uint256,(string,string,address,string,address,string,((uint104,uint32,uint32,uint16,address,bytes32,uint24,bool,bool,bool,bool,bool)[],uint32,uint8,address),address,(bool,bool,bool,bool)))\":{\"notice\":\"Deploys a 721 tiers hook for the specified project.\"}},\"version\":1}},\"settings\":{\"remappings\":[\"@bananapus/=node_modules/@bananapus/\",\"@chainlink/=node_modules/@chainlink/\",\"@eth-optimism/=node_modules/@eth-optimism/\",\"@openzeppelin/=node_modules/@openzeppelin/\",\"@prb/=node_modules/@prb/\",\"@scroll-tech/=node_modules/@scroll-tech/\",\"@sphinx-labs/contracts/=node_modules/@sphinx-labs/contracts/contracts/foundry/\",\"@uniswap/=node_modules/@uniswap/\",\"ds-test/=lib/forge-std/lib/ds-test/src/\",\"forge-std/=lib/forge-std/src/\",\"hardhat/=node_modules/hardhat/\",\"solmate/=node_modules/solmate/\",\"sphinx/=lib/sphinx/packages/contracts/contracts/forge-std/src/\"],\"optimizer\":{\"enabled\":true,\"runs\":1000},\"metadata\":{\"bytecodeHash\":\"ipfs\"},\"compilationTarget\":{\"src/JB721TiersHookDeployer.sol\":\"JB721TiersHookDeployer\"},\"evmVersion\":\"paris\",\"libraries\":{}},\"sources\":{\"node_modules/@bananapus/address-registry/src/interfaces/IJBAddressRegistry.sol\":{\"keccak256\":\"0x33ab082cbb870d8ff950f56db686911b39d090432bc8c09a6b3434aedcb58936\",\"urls\":[\"bzz-raw://cd98fcdc58cf9af46571656b44ff0dc5d94c9a1c6e5c8eb07b1153bfd1bc4206\",\"dweb:/ipfs/Qmcm36zeucynBTTj7q3BVLmZF9CG3X7cGKDPdo9JchVYa9\"],\"license\":\"MIT\"},\"node_modules/@bananapus/core/src/abstract/JBPermissioned.sol\":{\"keccak256\":\"0xe08c8a7eeac9d1c7c2e0db6d5b98d1af09889300835a3d47d9f29319fecce703\",\"urls\":[\"bzz-raw://42645cf52bcc45053ef650790916faed5d0a74cecef336b217433fdd2c5c4166\",\"dweb:/ipfs/QmdMmxG1tSGucQwz4LYbVnuj7HU23YvqLH6xfrNWv5Bmus\"],\"license\":\"MIT\"},\"node_modules/@bananapus/core/src/enums/JBApprovalStatus.sol\":{\"keccak256\":\"0x61c69b6bac7d24b566d87cda23a77e4ca9cdb87200b106aba8534cb9a0973e33\",\"urls\":[\"bzz-raw://6a9ca7249de76f77a8252eefe6bd1b63d47952f25a2acfa2c8db967cdff4470c\",\"dweb:/ipfs/QmaxSxptRQNj8bNy96EreENmrnRWdKmhyihBcxyWzBX5BN\"],\"license\":\"MIT\"},\"node_modules/@bananapus/core/src/interfaces/IJBDirectory.sol\":{\"keccak256\":\"0x9cc380844aef60078ee47a61861e55a29c4a8c947efd556ebd36e6909f7b9d62\",\"urls\":[\"bzz-raw://9f5190ec8b6683d9781ee6e9eedcc91294753242748875d4a06349077e4cbaaf\",\"dweb:/ipfs/QmTQrPuXT9TCA4txwrperMeXSGvGxP8iokUK47f62F388i\"],\"license\":\"MIT\"},\"node_modules/@bananapus/core/src/interfaces/IJBPayHook.sol\":{\"keccak256\":\"0x9438866782c652c2942f4d114e35f393cd3c8b0334abce8387eed90bca35e8b2\",\"urls\":[\"bzz-raw://cfd99daf57213f92325aad7d7d16e98476d38e870470e95ba01e3ae3cdecc95d\",\"dweb:/ipfs/QmUKKAVGf7ki8BHksr99tFcRW8APveeB5tNH63ctTbbCW8\"],\"license\":\"MIT\"},\"node_modules/@bananapus/core/src/interfaces/IJBPermissioned.sol\":{\"keccak256\":\"0x5b038d4dee116584e88b230920e56d48e135053e3f7e5642eaea14a775c1dad7\",\"urls\":[\"bzz-raw://19e43102f349fd4a1da1c0943ffb8f2950007fe4bb4bb7e8f74fc142575d091b\",\"dweb:/ipfs/QmXHAt4KzDTdDZgDDefEXH2WKi7NcfkJb9R7nxW5uDqsNp\"],\"license\":\"MIT\"},\"node_modules/@bananapus/core/src/interfaces/IJBPermissions.sol\":{\"keccak256\":\"0x18870e500edf0fbadc353e273a5574701fb80466376b908c65e7cc3f11044d4d\",\"urls\":[\"bzz-raw://352a47c45853aec80e7acf0d286ade3106eb4cb456776b28a3c2f3f1091bed90\",\"dweb:/ipfs/QmQeYd3YbudYZy2hfbfht9kwhxhw4tuuLKMEYy9UY6dcSy\"],\"license\":\"MIT\"},\"node_modules/@bananapus/core/src/interfaces/IJBPriceFeed.sol\":{\"keccak256\":\"0x4bd84c0f1a5d4729ed709bcddd43f4c50ec4a165ece79780af8dce482ed07d4a\",\"urls\":[\"bzz-raw://62bac4bfb6982fb002f620c77e5c445e62d50241a5aa64a07e51d929f5a42180\",\"dweb:/ipfs/QmWgJUDreVY2BuMX38a1iUUR5kNbMwGnKG3VvurB7oZtuM\"],\"license\":\"MIT\"},\"node_modules/@bananapus/core/src/interfaces/IJBPrices.sol\":{\"keccak256\":\"0x99525f31440b955742dce84ba57de9fc1221139b5367c1f834723bef9e13e6e1\",\"urls\":[\"bzz-raw://6fa03f0cd4ad87dd7cbae7bf7f54463450874291773c8f70f2c31ef2cae62bb0\",\"dweb:/ipfs/QmSPajPV5ismteJuB6Spzm9VmhTj2iS3eVrfpJC1Zuzg8n\"],\"license\":\"MIT\"},\"node_modules/@bananapus/core/src/interfaces/IJBProjects.sol\":{\"keccak256\":\"0x735c2fb8f1fa827f054ee77f7a0ae4b312656217acb75b624d2c8fd9dc40151b\",\"urls\":[\"bzz-raw://ee7fc92299a8633a80693ae63ab494dcd125f1789487a54a39dc0e5696e5996f\",\"dweb:/ipfs/QmX7YJD4pS2XhgQb7p3JbBAXynT7YGPXcZe92BiWWRrsCL\"],\"license\":\"MIT\"},\"node_modules/@bananapus/core/src/interfaces/IJBRedeemHook.sol\":{\"keccak256\":\"0x8ab46fcd7d0e739661eb76056ad93ff99106f38420ef0b4eb97fa9f4bb71a68a\",\"urls\":[\"bzz-raw://0ef96fcb7ad26281d444d8e0c677b25114fdd63b1c172d477e030dce8ba53b62\",\"dweb:/ipfs/Qmcx1jRQuwU4pZFuLxsSsx4oMbRaDfktHrPnXextgbWc5m\"],\"license\":\"MIT\"},\"node_modules/@bananapus/core/src/interfaces/IJBRulesetApprovalHook.sol\":{\"keccak256\":\"0x592e95d159494421c6b1bcb362d0cee1df0132921697351304e9cd7af4fbd386\",\"urls\":[\"bzz-raw://5bebfd5fa67c1b6ea16fa2e76e9520e9dfe52a579f48dd94d0c2ec45f78ad178\",\"dweb:/ipfs/QmRUawEGtfYoYSHmHELGhvJoWuMsxLPKtqAXgsrb7fJboP\"],\"license\":\"MIT\"},\"node_modules/@bananapus/core/src/interfaces/IJBRulesetDataHook.sol\":{\"keccak256\":\"0x13b4b9f4b847f62442da1c1a59b399f8f201b31a28edb96aa5a8a78ad57c24d0\",\"urls\":[\"bzz-raw://4fcd00b77d0f40cf6d5ee6590b6ef4ee1f606e89ae4c4faed3710fb462108f8e\",\"dweb:/ipfs/QmeoE54DQ3eGw9EDXfN7aTMmEjubAtirahmytDijo6GSeE\"],\"license\":\"MIT\"},\"node_modules/@bananapus/core/src/interfaces/IJBRulesets.sol\":{\"keccak256\":\"0xd3f817d22ecbe24da63c552c069bf0c4fbbf3bcd5c3b5633002afd24aacf6882\",\"urls\":[\"bzz-raw://c1185aec0f6b6f0f4d93ffeeed0972ccf38420b00fe570b5e1838ed2b1f5db49\",\"dweb:/ipfs/QmWz36azGTFnjFXpFSh6BHt4nactgjtF64L3PeTqs4ZqSR\"],\"license\":\"MIT\"},\"node_modules/@bananapus/core/src/interfaces/IJBTerminal.sol\":{\"keccak256\":\"0x19dc9bf8cbdc8f13ee5da9dc3a87047eacb94a3fc19740a286c1f0bad2cc39ca\",\"urls\":[\"bzz-raw://0b05ae6fda9a85672508232fd992b8a5f5ffd8096622eeb12c8a7b3317eb3867\",\"dweb:/ipfs/QmNh9Quj37BXYGdTdcCD1Q58PchRsE5TLbEZep56qS3MpV\"],\"license\":\"MIT\"},\"node_modules/@bananapus/core/src/interfaces/IJBTokenUriResolver.sol\":{\"keccak256\":\"0xfa5cb00dcd6085d1ef912d071fe73c63f9478a2cd0f9d8bddaf659b6af2d0967\",\"urls\":[\"bzz-raw://282e4e7c342d65f77cde0e9a08fcaf20ef5cf379c7a48b639842c0ffd0b2afb8\",\"dweb:/ipfs/QmbnN3PEQeZaXdPLT75V1J79kMg7KqSMru37RHrL3z8Yf2\"],\"license\":\"MIT\"},\"node_modules/@bananapus/core/src/libraries/JBConstants.sol\":{\"keccak256\":\"0x9d3a9a953f859d8ec79a599577f8972de6da7199cc1bfa7fdad017d4d722bcb4\",\"urls\":[\"bzz-raw://f151fcb53a8d2684eff8b9e56ac790bcbcadd8199a4fd4d17c5b224b22936722\",\"dweb:/ipfs/QmdAz1ZtCE8nTiC4AxQNLfJhnY3ndGum2Lbef7seKdvTdR\"],\"license\":\"MIT\"},\"node_modules/@bananapus/core/src/libraries/JBMetadataResolver.sol\":{\"keccak256\":\"0xea4318b305f26587c79aeea37e66735b74c72ebd9846e73980ea93242c717eec\",\"urls\":[\"bzz-raw://d00769ea990593a917f7be9eddc844ed47a4f92aa6bc7006b09c07291d1dc670\",\"dweb:/ipfs/QmNiptYFMPJH6QggcZnLo6ttqeKD7ksujRJRAKFYaRYjpg\"],\"license\":\"MIT\"},\"node_modules/@bananapus/core/src/libraries/JBRulesetMetadataResolver.sol\":{\"keccak256\":\"0x83f25c531d9e212379b4326fd93bf658a0f6d0e839bbd67bff7b66b9b55fb670\",\"urls\":[\"bzz-raw://3eb4a41ececec705febac7b799d7224e67f12761ae3975d49dd8bddaac608ecd\",\"dweb:/ipfs/QmNgL5VccDhP5xofEcGWNKk3v4KG23wGF9vc3d4YJ5MLnv\"],\"license\":\"MIT\"},\"node_modules/@bananapus/core/src/structs/JBAccountingContext.sol\":{\"keccak256\":\"0x2907ff54d1e903cc7e0390dd88c3975884702dc2673642aacbe22b66560b56de\",\"urls\":[\"bzz-raw://a66a5381ce877b32f0e0058ceeaf843e9b6b2bc8af666c0c9f4a9d01091da004\",\"dweb:/ipfs/QmQynCetUr37dBkS1YwDS8evxuXGiqanW6THmeUxXtim8w\"],\"license\":\"MIT\"},\"node_modules/@bananapus/core/src/structs/JBAfterPayRecordedContext.sol\":{\"keccak256\":\"0xd26c3a774ff38be79064085970454fe2603a23a638c76270d5b1b3829206c3e8\",\"urls\":[\"bzz-raw://3b55dbe3bf1ef625b7ca04efab3de35406e6041d5b3d82c7265469c500e2b702\",\"dweb:/ipfs/QmUdBDo4Lt3mcsFcsXT2mqq3czFwZjQJFPLM89YA2VtD7k\"],\"license\":\"MIT\"},\"node_modules/@bananapus/core/src/structs/JBAfterRedeemRecordedContext.sol\":{\"keccak256\":\"0x521f5d23a36f0da72362cd84890cc867bd83baa8dc836ba6c5066d51dba2f163\",\"urls\":[\"bzz-raw://6cc461313286dde62d045d6288e87bae5032e035796326f5b1ed6218e58aa9da\",\"dweb:/ipfs/QmQS2AkQwf2ANQieDuaUnpJEdXChoLv4CCbZqHkfywYPSR\"],\"license\":\"MIT\"},\"node_modules/@bananapus/core/src/structs/JBBeforePayRecordedContext.sol\":{\"keccak256\":\"0x5b04e814da83c7e83ff892ab07eaad6abce6f7b85a75f8da9380e9fc3470bc81\",\"urls\":[\"bzz-raw://11c889aab993fce3e3cc2dedc15fc30dd367e7fef9b7b1bfd6a6a9f248781731\",\"dweb:/ipfs/QmVVtydCD1azeWhGLxA1hthxfLyKzMHZ1eVzCz3a3R5dLy\"],\"license\":\"MIT\"},\"node_modules/@bananapus/core/src/structs/JBBeforeRedeemRecordedContext.sol\":{\"keccak256\":\"0x73eadaf6827e82f6ccbe3a1e2b2b7fc6c59cef471f73335041b30ddcc000989d\",\"urls\":[\"bzz-raw://2f3ee84662eed565dbdaed406ef836fffaf55cccd417575578152e5085d0b1f2\",\"dweb:/ipfs/QmaJGFS7hxJsiUdKvbv5BKhSwceDEzKBnt7t5YeNWvYgMK\"],\"license\":\"MIT\"},\"node_modules/@bananapus/core/src/structs/JBPayHookSpecification.sol\":{\"keccak256\":\"0x955f0bfca97300b9e5927dc181753830ee362f83fa9ca32a90daade32aa0cfd5\",\"urls\":[\"bzz-raw://f517af1597c7c40f8d3da53f7a6684a3e162950a16559d6bf6ea3b727bb11546\",\"dweb:/ipfs/QmRWo2ZTYXmVZTzNJDYhsJNsEaHphjpUfx9eNz2cciyz86\"],\"license\":\"MIT\"},\"node_modules/@bananapus/core/src/structs/JBPermissionsData.sol\":{\"keccak256\":\"0x8f0f69a6ebf5f3704e3dfcb3712fb9d3f94ae7c1ab89bf3e37bad42a3e7a0487\",\"urls\":[\"bzz-raw://57b0c5e52843e2217082889ed47b4da3943e0da4590d5768dcebfe3edad4a6b8\",\"dweb:/ipfs/QmRz48vuWLw81kUP836rh1qzqWiJFGbksgRUA9xGEDNKTY\"],\"license\":\"MIT\"},\"node_modules/@bananapus/core/src/structs/JBRedeemHookSpecification.sol\":{\"keccak256\":\"0x673d16ee1a91bf8de3b37e57284e60451b70a9c2d748c9cdc7a151f5624af18f\",\"urls\":[\"bzz-raw://ceeb5e81effa0f076c5630c756dfcf1548d09f822b255a0a6ee01e54de8c8ae2\",\"dweb:/ipfs/QmSMoMNPRhPMnuJNvWa6S59XRfycGz9o2ApNp63bUW6TdX\"],\"license\":\"MIT\"},\"node_modules/@bananapus/core/src/structs/JBRuleset.sol\":{\"keccak256\":\"0x15b2bf3174d84846a91ccbf5a344dfb125b55ed9cf50102db8d6868844225189\",\"urls\":[\"bzz-raw://647416b025dbd941094db89cbc69f755c155bd6c87be3f322394ccc4a8e0442d\",\"dweb:/ipfs/QmTCL9xcHnxQ4t5AmCPoZvXDUPW5xhzhyyXYbkMdyg44au\"],\"license\":\"MIT\"},\"node_modules/@bananapus/core/src/structs/JBRulesetMetadata.sol\":{\"keccak256\":\"0xfea54c9f98416d2aa05309e7ff76967d6968a614850a1e33e48fde793ea8b514\",\"urls\":[\"bzz-raw://bf55386cbab90dbc1296b2b0cbfdc217a4500d67702e4a093a4c78bd127ecd5c\",\"dweb:/ipfs/QmTRq9mZrNSXu7oCZwti4JbBFrbY6A5msRqi9RbtL49NAj\"],\"license\":\"MIT\"},\"node_modules/@bananapus/core/src/structs/JBTokenAmount.sol\":{\"keccak256\":\"0x5cf0626b73a596c1e2da17c89ae039a7c0374310b060d48568d3b6c11fbe6180\",\"urls\":[\"bzz-raw://63348b50be95e2995409394a17caffc563a646f0972650a1230bf864fbd3219b\",\"dweb:/ipfs/QmZXZpS3SbFD5nWaCauf6AqbEhLURv5qsKHpThBvQgDU6u\"],\"license\":\"MIT\"},\"node_modules/@bananapus/ownable/src/JBOwnable.sol\":{\"keccak256\":\"0x5b0aec2bc7164bdb972bfb9f71660c887308cf3a72738c7469d03bf264cf0d54\",\"urls\":[\"bzz-raw://bf4f60cebc0a707004371425aa3c8751b6a84dfb4fc9bf788160ae9ac1e906f6\",\"dweb:/ipfs/QmegUfWLhKuByQTkfMkmwkEs2Tk5ZEuR56DqQw5kxFzP3d\"],\"license\":\"MIT\"},\"node_modules/@bananapus/ownable/src/JBOwnableOverrides.sol\":{\"keccak256\":\"0x70a7c55f2a0f4324b63afe61e9d0de6e54396073e431844a19936d2aaaf6d7dd\",\"urls\":[\"bzz-raw://94c55139a8e974e2a88c6f0fc7594be3044742cfc499c989051eaf6664ec7dab\",\"dweb:/ipfs/QmQPnLAootqEGzpHRdhsYGBU3cqicRYLAe6bTti2UCBHyS\"],\"license\":\"MIT\"},\"node_modules/@bananapus/ownable/src/interfaces/IJBOwnable.sol\":{\"keccak256\":\"0x2c513558439d763df03e8a68c1aef698618182fd44c285405c35597d52c65ad1\",\"urls\":[\"bzz-raw://11cc25c41fccc20cca29f93dd120e67760188fd2040ef0330a093d37fbfa2f8f\",\"dweb:/ipfs/QmWpxcv41eYmsNYT3ph1nts5pC7sp3EzwJxKDGebMqEbsH\"],\"license\":\"MIT\"},\"node_modules/@bananapus/ownable/src/struct/JBOwner.sol\":{\"keccak256\":\"0x5624ba356f01f722984c1b857a106f413b12e57bae1f762a81c16ee511e3325a\",\"urls\":[\"bzz-raw://3120b5649ac8b55158df138dcac03f6850fc988cc5a24a7cb06e6581265ca284\",\"dweb:/ipfs/QmQBSLxRT9j1MEERUt8dWbSsAjianbHpM2CFwciLK7MwaP\"],\"license\":\"MIT\"},\"node_modules/@bananapus/permission-ids/src/JBPermissionIds.sol\":{\"keccak256\":\"0xf61109f6b217a80d5e5391f548fb6f2e451f7dbee3fabfc04cf17e88722203bc\",\"urls\":[\"bzz-raw://ac776ab1cd621c22bd7973471acdfa187f3abc659ad9a3ef6ed10b6447dfcf9c\",\"dweb:/ipfs/QmYLbaHt68qcuMzkiKpe96jMjiWUq1F3u8yMhxmZ3pnnWu\"],\"license\":\"MIT\"},\"node_modules/@openzeppelin/contracts/interfaces/IERC2981.sol\":{\"keccak256\":\"0x89b84f7b1b2d6c294cd6b9a9f661c1cfb1b9b10ca7bac5b3445850a8ce96dcf1\",\"urls\":[\"bzz-raw://44f961aefa43a50c94d8b68e749235b2cf3bd1de18bf6f2e5e1c0fd9a59e06ea\",\"dweb:/ipfs/QmNzd2bnJidavPtt2hQ1em387T6W37n3kDx8WrneCZozxV\"],\"license\":\"MIT\"},\"node_modules/@openzeppelin/contracts/interfaces/draft-IERC6093.sol\":{\"keccak256\":\"0x60c65f701957fdd6faea1acb0bb45825791d473693ed9ecb34726fdfaa849dd7\",\"urls\":[\"bzz-raw://ea290300e0efc4d901244949dc4d877fd46e6c5e43dc2b26620e8efab3ab803f\",\"dweb:/ipfs/QmcLLJppxKeJWqHxE2CUkcfhuRTgHSn8J4kijcLa5MYhSt\"],\"license\":\"MIT\"},\"node_modules/@openzeppelin/contracts/metatx/ERC2771Context.sol\":{\"keccak256\":\"0x98256cf37b71a69b2f5a8a6fe975ea03590dff703102bd141a830f94e8adebf6\",\"urls\":[\"bzz-raw://6251fe1f6a1e45e6d619d150c123afc88b8646b38ee26a136efa9a6988a31d3f\",\"dweb:/ipfs/QmeXDT85wSZdP31wkz3ah3KhponCiksJLP5o2LR5e1JxcK\"],\"license\":\"MIT\"},\"node_modules/@openzeppelin/contracts/proxy/Clones.sol\":{\"keccak256\":\"0xd18408af8a91bedb3d56343eeb9b30eb852e6dea93a5e2d5c6db9ca4cb905155\",\"urls\":[\"bzz-raw://061475b7302a732dc598907790f407417551c2b13e89daa57b3698489ef5484b\",\"dweb:/ipfs/QmdX5qmk3VSniSErFuD4aVawQxUi2MuUbP7spPcHddPfcX\"],\"license\":\"MIT\"},\"node_modules/@openzeppelin/contracts/token/ERC721/IERC721.sol\":{\"keccak256\":\"0x5ef46daa3b58ef2702279d514780316efaa952915ee1aa3396f041ee2982b0b4\",\"urls\":[\"bzz-raw://2f8f2a76e23b02fc69e8cd24c3cb47da6c7af3a2d6c3a382f8ac25c6e094ade7\",\"dweb:/ipfs/QmPV4ZS4tPVv4mTCf9ejyZ1ai57EEibDRj7mN2ARDCLV5n\"],\"license\":\"MIT\"},\"node_modules/@openzeppelin/contracts/token/ERC721/IERC721Receiver.sol\":{\"keccak256\":\"0x7f7a26306c79a65fb8b3b6c757cd74660c532cd8a02e165488e30027dd34ca49\",\"urls\":[\"bzz-raw://d01e0b2b837ee2f628545e54d8715b49c7ef2befd08356c2e7f6c50dde8a1c22\",\"dweb:/ipfs/QmWBAn6y2D1xgftci97Z3qR9tQnkvwQpYwFwkTvDMvqU4i\"],\"license\":\"MIT\"},\"node_modules/@openzeppelin/contracts/token/ERC721/extensions/IERC721Metadata.sol\":{\"keccak256\":\"0x37d1aaaa5a2908a09e9dcf56a26ddf762ecf295afb5964695937344fc6802ce1\",\"urls\":[\"bzz-raw://ed0bfc1b92153c5000e50f4021367b931bbe96372ac6facec3c4961b72053d02\",\"dweb:/ipfs/Qmbwp8VDerjS5SV1quwHH1oMXxPQ93fzfLVqJ2RCqbowGE\"],\"license\":\"MIT\"},\"node_modules/@openzeppelin/contracts/utils/Context.sol\":{\"keccak256\":\"0x493033a8d1b176a037b2cc6a04dad01a5c157722049bbecf632ca876224dd4b2\",\"urls\":[\"bzz-raw://6a708e8a5bdb1011c2c381c9a5cfd8a9a956d7d0a9dc1bd8bcdaf52f76ef2f12\",\"dweb:/ipfs/Qmax9WHBnVsZP46ZxEMNRQpLQnrdE4dK8LehML1Py8FowF\"],\"license\":\"MIT\"},\"node_modules/@openzeppelin/contracts/utils/Strings.sol\":{\"keccak256\":\"0x55f102ea785d8399c0e58d1108e2d289506dde18abc6db1b7f68c1f9f9bc5792\",\"urls\":[\"bzz-raw://6e52e0a7765c943ef14e5bcf11e46e6139fa044be564881378349236bf2e3453\",\"dweb:/ipfs/QmZEeeXoFPW47amyP35gfzomF9DixqqTEPwzBakv6cZw6i\"],\"license\":\"MIT\"},\"node_modules/@openzeppelin/contracts/utils/introspection/ERC165.sol\":{\"keccak256\":\"0x9e8778b14317ba9e256c30a76fd6c32b960af621987f56069e1e819c77c6a133\",\"urls\":[\"bzz-raw://1777404f1dcd0fac188e55a288724ec3c67b45288e49cc64723e95e702b49ab8\",\"dweb:/ipfs/QmZFdC626GButBApwDUvvTnUzdinevC3B24d7yyh57XkiA\"],\"license\":\"MIT\"},\"node_modules/@openzeppelin/contracts/utils/introspection/IERC165.sol\":{\"keccak256\":\"0x4296879f55019b23e135000eb36896057e7101fb7fb859c5ef690cf14643757b\",\"urls\":[\"bzz-raw://87b3541437c8c443ccd36795e56a338ed12855eec17f8da624511b8d1a7e14df\",\"dweb:/ipfs/QmeJQCtZrQjtJLr6u7ZHWeH3pBnjtLWzvRrKViAi7UZqxL\"],\"license\":\"MIT\"},\"node_modules/@openzeppelin/contracts/utils/math/Math.sol\":{\"keccak256\":\"0x005ec64c6313f0555d59e278f9a7a5ab2db5bdc72a027f255a37c327af1ec02d\",\"urls\":[\"bzz-raw://4ece9f0b9c8daca08c76b6b5405a6446b6f73b3a15fab7ff56e296cbd4a2c875\",\"dweb:/ipfs/QmQyRpyPRL5SQuAgj6SHmbir3foX65FJjbVTTQrA2EFg6L\"],\"license\":\"MIT\"},\"node_modules/@openzeppelin/contracts/utils/math/SignedMath.sol\":{\"keccak256\":\"0x5f7e4076e175393767754387c962926577f1660dd9b810187b9002407656be72\",\"urls\":[\"bzz-raw://7d533a1c97cd43a57cd9c465f7ee8dd0e39ae93a8fb8ff8e5303a356b081cdcc\",\"dweb:/ipfs/QmVBEei6aTnvYNZp2CHYVNKyZS4q1KkjANfY39WVXZXVoT\"],\"license\":\"MIT\"},\"node_modules/@prb/math/src/Common.sol\":{\"keccak256\":\"0xaa374e2c26cc93e8c22a6953804ee05f811597ef5fa82f76824378b22944778b\",\"urls\":[\"bzz-raw://279c732e161d623cf4d8a9519ca4c42c0c2db99842d0eb2a20c10fde3fa722c9\",\"dweb:/ipfs/QmVViuUXbinQGqtG5M21SgVzKihiCbFUChd4tDhtvwRmxH\"],\"license\":\"MIT\"},\"src/JB721TiersHook.sol\":{\"keccak256\":\"0x67a1a8abc1f6a05bf0398555acb87e81d5bd1d6db06f2289149b68cdbbbd5da4\",\"urls\":[\"bzz-raw://7222228ca731a0673ddfe2ed946c4c2880975e6ec6f5a022b6e8586d21055acc\",\"dweb:/ipfs/QmeqL2WQegBWPomLjpP5EvhuwRNKqy8C39gaZyvogrY1Jy\"],\"license\":\"MIT\"},\"src/JB721TiersHookDeployer.sol\":{\"keccak256\":\"0x8cadb554ef9d6a2c7371299f433de7fc93dfa76e7c3ee5045c4a75787d240916\",\"urls\":[\"bzz-raw://cf784800d387074a03ec29fa63ca61043f863b0720ba6d29dd273f2735f5758a\",\"dweb:/ipfs/QmbJFwxuCALGNHUu4c2EKGpfnVzaVcEfb6Qymc6LjXZ8eK\"],\"license\":\"MIT\"},\"src/abstract/ERC721.sol\":{\"keccak256\":\"0xc25c7c60c88684adc3f7a49621d27866866a44a3f3796e63c9fcaba75fbb2e84\",\"urls\":[\"bzz-raw://713103b7a05402264493430cfcd7d85f1a241a2eb4756af53a370fa529ea07bf\",\"dweb:/ipfs/QmSXZfxCG1N9XheS1kLCNJZ9k6ZRq4GnAMY7MKFfbKLXmz\"],\"license\":\"MIT\"},\"src/abstract/JB721Hook.sol\":{\"keccak256\":\"0x36d2a9fa61299fda4bee81002ab4751d877765b38801270eb72aed5f47e48591\",\"urls\":[\"bzz-raw://6460d03a6d0103c21f3178883cb14d2b5b48dac8d90b415af4a6b30c192af5ac\",\"dweb:/ipfs/QmNi9akp3SZYZd87Mrvozff4ccN4KSLmWzyhAupJd4chPt\"],\"license\":\"MIT\"},\"src/interfaces/IJB721Hook.sol\":{\"keccak256\":\"0x24935445bc4c5b0fe2a10aabe549122588940842a68e79a8c39b1df9458dd7fd\",\"urls\":[\"bzz-raw://1dee273fa76d9abae116de911fdda5e3113db2a58939e62e24fba98c63fd037a\",\"dweb:/ipfs/QmT6Lih7DeRAfrLc8uC7ecaw2EAKwhaP2BZHeY5DxeeVLM\"],\"license\":\"MIT\"},\"src/interfaces/IJB721TiersHook.sol\":{\"keccak256\":\"0xbd9a8dae00a4b1a02c628bd172fe4ae496e49f7651426cef08774ffdb6125c23\",\"urls\":[\"bzz-raw://9ce4fd77d5af1f570dad6b70758f09f9599768e1ab32f6b473f6181197daa0c8\",\"dweb:/ipfs/QmWj6sCTvZ2CbfSyRuhaXADxYbwwPcR42pZokcgfjpsabg\"],\"license\":\"MIT\"},\"src/interfaces/IJB721TiersHookDeployer.sol\":{\"keccak256\":\"0xc4c6dfd2573fe1f130bc5193da68a622959a11562010fa261ffd3a8893e08a7b\",\"urls\":[\"bzz-raw://0c34f79121f6c777bca3df6c2e87c0caa05146bec45e9ae29f41b0532d16c88e\",\"dweb:/ipfs/QmZJQVZC8uuuSssXtLnhsvisz7V2PCKs2s1Hbzo8hmZ9ZP\"],\"license\":\"MIT\"},\"src/interfaces/IJB721TiersHookStore.sol\":{\"keccak256\":\"0x8550e216c12c9cda865c1b1b0eb3f244aeaa8d465b197d4bd0dd8d4df265682e\",\"urls\":[\"bzz-raw://674a312f1eaffd7c6b21f58f8d4a628104e71220daf48a22237fa3bd035ddf21\",\"dweb:/ipfs/QmSRSW6cSwdpoGjVxDqiwJmJyCxfHWhCxZ2iaqeJcN2Ccy\"],\"license\":\"MIT\"},\"src/interfaces/IJB721TokenUriResolver.sol\":{\"keccak256\":\"0xfa599167098f4459320ec4141a98a17b2dfffbce422baa27d8b4e4530f61ece1\",\"urls\":[\"bzz-raw://8b758b161f4c7b520b2c34b4d91e585e961b8f4ca278eebb91d791f7f2f45140\",\"dweb:/ipfs/QmcD9DF7NJ9QykQpT4KPzm4bs3fkjzukdAUWwdU6Atfw85\"],\"license\":\"MIT\"},\"src/libraries/JB721TiersRulesetMetadataResolver.sol\":{\"keccak256\":\"0xe1e224860fce816c0566c4b22044eb2f5a767a09764d00482b954733bf18e51e\",\"urls\":[\"bzz-raw://043663de2a9c7e822e947e0b68833e77985d493bebcb48f86bf1b67f937417fc\",\"dweb:/ipfs/QmXVXPdpLfmT2a97gUQ5d2XSsHXhgpiTfs7w2ZtoD55uAd\"],\"license\":\"MIT\"},\"src/libraries/JBIpfsDecoder.sol\":{\"keccak256\":\"0xb93ba562ac1fc9d3829be00e61f3a90f51df5661cf0f2c819a7f1d8ba19ec171\",\"urls\":[\"bzz-raw://fc9bc948fac8897d9720ef25b13d63c60b40a18aa1897dd1c657fc278c416b4f\",\"dweb:/ipfs/QmNtiJTALZW5zfyKVy7XG5GkqGgMrfkVvU4Auu4bb9cGQc\"],\"license\":\"MIT\"},\"src/structs/JB721InitTiersConfig.sol\":{\"keccak256\":\"0xfb78486cec94189d0ecf2050dc9cfc11245b426c73a0711a85bff1359d774307\",\"urls\":[\"bzz-raw://a8fa01f6e64dd204dbde07a60851e9a5a74e439e1411139ae16b7cf67d2a2692\",\"dweb:/ipfs/QmZAnHyfpKr3xr7NWHj5sGaCEEtG8RtmHhkRUJJvNauym5\"],\"license\":\"MIT\"},\"src/structs/JB721Tier.sol\":{\"keccak256\":\"0x2e267a8af02f125465cdda9308477346ae4a94b024c3b2c2a6af0c00027944dd\",\"urls\":[\"bzz-raw://367ccea2c8fa815d498d771d4367ef1ded718a76e89644102034bfe4a3636b82\",\"dweb:/ipfs/QmYiFFa6ei9wZBSSVUHfY2Cb35zCDVXvbmLcgLj2BTiC1u\"],\"license\":\"MIT\"},\"src/structs/JB721TierConfig.sol\":{\"keccak256\":\"0x2fa9c5c8cec182b854a656d3b284e9d5306be35ad3dc4da79d65dca12b804af0\",\"urls\":[\"bzz-raw://b443a5f70195a66145ea1dade04454ce9a3ff1209e1aaecf53c8a9909b294d79\",\"dweb:/ipfs/QmUDPFZ4L6XpV3zLQUNVchUvecD4XfddKz2S46BKek5XL1\"],\"license\":\"MIT\"},\"src/structs/JB721TiersHookFlags.sol\":{\"keccak256\":\"0x283d8429f31bd58875c056515aa42abd09c95362bd929e85cfc44a0d92585766\",\"urls\":[\"bzz-raw://9a580b89fe99d9f8e930c58a4d0d63a5ff7c01c79d210af01373d066c9e72ed6\",\"dweb:/ipfs/QmdY1eSGSoTjv4KSdsG4Tm5CzJN6iqk3qTRga5ZWNbejRz\"],\"license\":\"MIT\"},\"src/structs/JB721TiersMintReservesConfig.sol\":{\"keccak256\":\"0xab3b319dc4e736586ae595de194d93dcdfeba365bc7a54cf6c37e697f6074ad9\",\"urls\":[\"bzz-raw://a84ae2cf2e8c3e39e831dbb39a67a8eb43c78a6de6bb78b1be2e1f1e80c69efe\",\"dweb:/ipfs/QmboGXEMqsYTxc4a7oft9rggNU7ShWSa9yB4HFMVmzXCHz\"],\"license\":\"MIT\"},\"src/structs/JB721TiersRulesetMetadata.sol\":{\"keccak256\":\"0x6720a6ada2a882f99afa050e40b6c925439da4339240565a0e706521b3aadc6b\",\"urls\":[\"bzz-raw://ede4a3165276d9d89eeea2dfd56f68d77dbfaedb738b30c8a0faa81c3a153b1b\",\"dweb:/ipfs/QmXa4QCb6K9MXxwNKed17VWeX9crKeMjkQnVk2xMARzh76\"],\"license\":\"MIT\"},\"src/structs/JBDeploy721TiersHookConfig.sol\":{\"keccak256\":\"0x4f0b8bbc19a405a096a16977fa1eedc0c56640ef777add89c050f989a62a6a35\",\"urls\":[\"bzz-raw://bd009c66aa748a2ce04720a6376683ce01ced3c0bd7f9534e145263aa49d95d3\",\"dweb:/ipfs/QmXyJCS1uQevdkw1Gc4UrRs8fZKtW9wPWFY9pxUWHKLo4e\"],\"license\":\"MIT\"}},\"version\":1}",
			"args": [
				"0xBF85bB430e7242987436b1c05f31Ba11E9CEE129",
				"0xB2C0Cf85FEf94012Bb4c5e0534B8A5E845BC6312",
				"0x989566Bf9fF4CffA55a98ADa7dc3E58b2a0a19c6",
				"0xB2b5841DBeF766d4b521221732F9B618fCf34A87"
			],
			"bytecode": "0x61010060405234801561001157600080fd5b50604051610e9c380380610e9c8339810160408190526100309161006b565b6001600160a01b0390811660805292831660a05290821660c0521660e0526100ca565b6001600160a01b038116811461006857600080fd5b50565b6000806000806080858703121561008157600080fd5b845161008c81610053565b602086015190945061009d81610053565b60408601519093506100ae81610053565b60608601519092506100bf81610053565b939692955090935050565b60805160a05160c05160e051610d786101246000396000818161014901526102fa01526000818160ac01526101f4015260008181610170015261019901526000818160de0152818161012001526104870152610d786000f3fe608060405234801561001057600080fd5b50600436106100725760003560e01c80637da0a877116100505780637da0a8771461011e57806389a56bbc14610144578063a54eb2421461016b57600080fd5b80632230819f14610077578063507f1465146100a7578063572b6c05146100ce575b600080fd5b61008a6100853660046108c9565b610192565b6040516001600160a01b0390911681526020015b60405180910390f35b61008a7f000000000000000000000000000000000000000000000000000000000000000081565b61010e6100dc366004610a1b565b7f00000000000000000000000000000000000000000000000000000000000000006001600160a01b0390811691161490565b604051901515815260200161009e565b7f000000000000000000000000000000000000000000000000000000000000000061008a565b61008a7f000000000000000000000000000000000000000000000000000000000000000081565b61008a7f000000000000000000000000000000000000000000000000000000000000000081565b60006101bd7f00000000000000000000000000000000000000000000000000000000000000006103f5565b9050806001600160a01b031663c07f2f9b84846000015185602001518660400151876060015188608001518960a001518a60c001517f00000000000000000000000000000000000000000000000000000000000000008c61010001516040518b63ffffffff1660e01b815260040161023e9a99989796959493929190610a85565b600060405180830381600087803b15801561025857600080fd5b505af115801561026c573d6000803e3d6000fd5b50505050806001600160a01b031663f2fde38b610287610480565b6040517fffffffff0000000000000000000000000000000000000000000000000000000060e084901b1681526001600160a01b039091166004820152602401600060405180830381600087803b1580156102e057600080fd5b505af11580156102f4573d6000803e3d6000fd5b505050507f00000000000000000000000000000000000000000000000000000000000000006001600160a01b031663b94417ab30600080815461033690610cb1565b91829055506040517fffffffff0000000000000000000000000000000000000000000000000000000060e085901b1681526001600160a01b0390921660048301526024820152604401600060405180830381600087803b15801561039957600080fd5b505af11580156103ad573d6000803e3d6000fd5b50506040516001600160a01b03841681528592507fa42f6bb68e81f4650a7966f109d861f6c3d2a477e608e30807f568bed1cebdb9915060200160405180910390a292915050565b6000763d602d80600a3d3981f3363d3d373d3d3d363d730000008260601b60e81c176000526e5af43d82803e903d91602b57fd5bf38260781b17602052603760096000f090506001600160a01b03811661047b576040517fc2f868f400000000000000000000000000000000000000000000000000000000815260040160405180910390fd5b919050565b60003660147f00000000000000000000000000000000000000000000000000000000000000006001600160a01b0316331480156104bd5750808210155b156104ed576000366104cf8385610cca565b6104da928290610ce3565b6104e391610d0d565b60601c9250505090565b339250505090565b634e487b7160e01b600052604160045260246000fd5b6040516080810167ffffffffffffffff8111828210171561052e5761052e6104f5565b60405290565b604051610180810167ffffffffffffffff8111828210171561052e5761052e6104f5565b604051610120810167ffffffffffffffff8111828210171561052e5761052e6104f5565b604051601f8201601f1916810167ffffffffffffffff811182821017156105a5576105a56104f5565b604052919050565b600082601f8301126105be57600080fd5b813567ffffffffffffffff8111156105d8576105d86104f5565b6105eb601f8201601f191660200161057c565b81815284602083860101111561060057600080fd5b816020850160208301376000918101602001919091529392505050565b6001600160a01b038116811461063257600080fd5b50565b803561047b8161061d565b80356cffffffffffffffffffffffffff8116811461047b57600080fd5b803563ffffffff8116811461047b57600080fd5b803561ffff8116811461047b57600080fd5b803562ffffff8116811461047b57600080fd5b8035801515811461047b57600080fd5b803560ff8116811461047b57600080fd5b600060808083850312156106ca57600080fd5b6106d261050b565b9150823567ffffffffffffffff808211156106ec57600080fd5b818501915085601f83011261070057600080fd5b8135602082821115610714576107146104f5565b610722818360051b0161057c565b828152818101935061018092830285018201928984111561074257600080fd5b948201945b838610156108355780868b03121561075f5760008081fd5b610767610534565b61077087610640565b815261077d84880161065d565b84820152604061078e81890161065d565b90820152606061079f888201610671565b908201526107ae878901610635565b8189015260a0878101359082015260c06107c9818901610683565b9082015260e06107da888201610696565b908201526101006107ec888201610696565b908201526101206107fe888201610696565b90820152610140610810888201610696565b90820152610160610822888201610696565b9082015285529485019493820193610747565b50865261084387820161065d565b818701525050505050610858604083016106a6565b604082015261086960608301610635565b606082015292915050565b60006080828403121561088657600080fd5b61088e61050b565b905061089982610696565b81526108a760208301610696565b60208201526108b860408301610696565b604082015261086960608301610696565b600080604083850312156108dc57600080fd5b82359150602083013567ffffffffffffffff808211156108fb57600080fd5b90840190610180828703121561091057600080fd5b610918610558565b82358281111561092757600080fd5b610933888286016105ad565b82525060208301358281111561094857600080fd5b610954888286016105ad565b60208301525061096660408401610635565b604082015260608301358281111561097d57600080fd5b610989888286016105ad565b60608301525061099b60808401610635565b608082015260a0830135828111156109b257600080fd5b6109be888286016105ad565b60a08301525060c0830135828111156109d657600080fd5b6109e2888286016106b7565b60c0830152506109f460e08401610635565b60e08201526101009150610a0a87838501610874565b828201528093505050509250929050565b600060208284031215610a2d57600080fd5b8135610a388161061d565b9392505050565b6000815180845260005b81811015610a6557602081850181015186830182015201610a49565b506000602082860101526020601f19601f83011685010191505092915050565b60006101a08c835260208181850152610aa08285018e610a3f565b91508382036040850152610ab4828d610a3f565b915060606001600160a01b03808d16606087015260808685036080880152610adc858e610a3f565b945060a0828d1660a089015260c0925087860360c0890152610afe868d610a3f565b955060e088870360e08a0152608087018c516080895281815180845260a08b0191508983019350600092505b80831015610bf657835180516cffffffffffffffffffffffffff168352808b015163ffffffff8116848d0152506040810151610b6e604085018263ffffffff169052565b508981015161ffff16838b0152878101516001600160a01b03168884015286810151878401528881015162ffffff16898401528581015115158684015261010080820151151590840152610120808201511515908401526101408082015115159084015261016090810151151590830152928901926001929092019161018090910190610b2a565b508e89015163ffffffff81168b8b0152975060408f01519850610c1e60408b018a60ff169052565b60608f01519850610c3a60608b018a6001600160a01b03169052565b6001600160a01b038e166101008d01529950610c5b98505050505050505050565b825115156101208301526020830151151561014083015260408301511515610160830152606083015115156101808301529b9a5050505050505050505050565b634e487b7160e01b600052601160045260246000fd5b600060018201610cc357610cc3610c9b565b5060010190565b81810381811115610cdd57610cdd610c9b565b92915050565b60008085851115610cf357600080fd5b83861115610d0057600080fd5b5050820193919092039150565b6bffffffffffffffffffffffff198135818116916014851015610d3a5780818660140360031b1b83161692505b50509291505056fea2646970667358221220abddaf0c8155ab7362e32ef8a3060ce8373ff877cd615fb63297f50c87f06a9064736f6c63430008170033",
			"deployedBytecode": "0x608060405234801561001057600080fd5b50600436106100725760003560e01c80637da0a877116100505780637da0a8771461011e57806389a56bbc14610144578063a54eb2421461016b57600080fd5b80632230819f14610077578063507f1465146100a7578063572b6c05146100ce575b600080fd5b61008a6100853660046108c9565b610192565b6040516001600160a01b0390911681526020015b60405180910390f35b61008a7f000000000000000000000000b2c0cf85fef94012bb4c5e0534b8a5e845bc631281565b61010e6100dc366004610a1b565b7f000000000000000000000000b2b5841dbef766d4b521221732f9b618fcf34a876001600160a01b0390811691161490565b604051901515815260200161009e565b7f000000000000000000000000b2b5841dbef766d4b521221732f9b618fcf34a8761008a565b61008a7f000000000000000000000000989566bf9ff4cffa55a98ada7dc3e58b2a0a19c681565b61008a7f000000000000000000000000bf85bb430e7242987436b1c05f31ba11e9cee12981565b60006101bd7f000000000000000000000000bf85bb430e7242987436b1c05f31ba11e9cee1296103f5565b9050806001600160a01b031663c07f2f9b84846000015185602001518660400151876060015188608001518960a001518a60c001517f000000000000000000000000b2c0cf85fef94012bb4c5e0534b8a5e845bc63128c61010001516040518b63ffffffff1660e01b815260040161023e9a99989796959493929190610a85565b600060405180830381600087803b15801561025857600080fd5b505af115801561026c573d6000803e3d6000fd5b50505050806001600160a01b031663f2fde38b610287610480565b6040517fffffffff0000000000000000000000000000000000000000000000000000000060e084901b1681526001600160a01b039091166004820152602401600060405180830381600087803b1580156102e057600080fd5b505af11580156102f4573d6000803e3d6000fd5b505050507f000000000000000000000000989566bf9ff4cffa55a98ada7dc3e58b2a0a19c66001600160a01b031663b94417ab30600080815461033690610cb1565b91829055506040517fffffffff0000000000000000000000000000000000000000000000000000000060e085901b1681526001600160a01b0390921660048301526024820152604401600060405180830381600087803b15801561039957600080fd5b505af11580156103ad573d6000803e3d6000fd5b50506040516001600160a01b03841681528592507fa42f6bb68e81f4650a7966f109d861f6c3d2a477e608e30807f568bed1cebdb9915060200160405180910390a292915050565b6000763d602d80600a3d3981f3363d3d373d3d3d363d730000008260601b60e81c176000526e5af43d82803e903d91602b57fd5bf38260781b17602052603760096000f090506001600160a01b03811661047b576040517fc2f868f400000000000000000000000000000000000000000000000000000000815260040160405180910390fd5b919050565b60003660147f000000000000000000000000b2b5841dbef766d4b521221732f9b618fcf34a876001600160a01b0316331480156104bd5750808210155b156104ed576000366104cf8385610cca565b6104da928290610ce3565b6104e391610d0d565b60601c9250505090565b339250505090565b634e487b7160e01b600052604160045260246000fd5b6040516080810167ffffffffffffffff8111828210171561052e5761052e6104f5565b60405290565b604051610180810167ffffffffffffffff8111828210171561052e5761052e6104f5565b604051610120810167ffffffffffffffff8111828210171561052e5761052e6104f5565b604051601f8201601f1916810167ffffffffffffffff811182821017156105a5576105a56104f5565b604052919050565b600082601f8301126105be57600080fd5b813567ffffffffffffffff8111156105d8576105d86104f5565b6105eb601f8201601f191660200161057c565b81815284602083860101111561060057600080fd5b816020850160208301376000918101602001919091529392505050565b6001600160a01b038116811461063257600080fd5b50565b803561047b8161061d565b80356cffffffffffffffffffffffffff8116811461047b57600080fd5b803563ffffffff8116811461047b57600080fd5b803561ffff8116811461047b57600080fd5b803562ffffff8116811461047b57600080fd5b8035801515811461047b57600080fd5b803560ff8116811461047b57600080fd5b600060808083850312156106ca57600080fd5b6106d261050b565b9150823567ffffffffffffffff808211156106ec57600080fd5b818501915085601f83011261070057600080fd5b8135602082821115610714576107146104f5565b610722818360051b0161057c565b828152818101935061018092830285018201928984111561074257600080fd5b948201945b838610156108355780868b03121561075f5760008081fd5b610767610534565b61077087610640565b815261077d84880161065d565b84820152604061078e81890161065d565b90820152606061079f888201610671565b908201526107ae878901610635565b8189015260a0878101359082015260c06107c9818901610683565b9082015260e06107da888201610696565b908201526101006107ec888201610696565b908201526101206107fe888201610696565b90820152610140610810888201610696565b90820152610160610822888201610696565b9082015285529485019493820193610747565b50865261084387820161065d565b818701525050505050610858604083016106a6565b604082015261086960608301610635565b606082015292915050565b60006080828403121561088657600080fd5b61088e61050b565b905061089982610696565b81526108a760208301610696565b60208201526108b860408301610696565b604082015261086960608301610696565b600080604083850312156108dc57600080fd5b82359150602083013567ffffffffffffffff808211156108fb57600080fd5b90840190610180828703121561091057600080fd5b610918610558565b82358281111561092757600080fd5b610933888286016105ad565b82525060208301358281111561094857600080fd5b610954888286016105ad565b60208301525061096660408401610635565b604082015260608301358281111561097d57600080fd5b610989888286016105ad565b60608301525061099b60808401610635565b608082015260a0830135828111156109b257600080fd5b6109be888286016105ad565b60a08301525060c0830135828111156109d657600080fd5b6109e2888286016106b7565b60c0830152506109f460e08401610635565b60e08201526101009150610a0a87838501610874565b828201528093505050509250929050565b600060208284031215610a2d57600080fd5b8135610a388161061d565b9392505050565b6000815180845260005b81811015610a6557602081850181015186830182015201610a49565b506000602082860101526020601f19601f83011685010191505092915050565b60006101a08c835260208181850152610aa08285018e610a3f565b91508382036040850152610ab4828d610a3f565b915060606001600160a01b03808d16606087015260808685036080880152610adc858e610a3f565b945060a0828d1660a089015260c0925087860360c0890152610afe868d610a3f565b955060e088870360e08a0152608087018c516080895281815180845260a08b0191508983019350600092505b80831015610bf657835180516cffffffffffffffffffffffffff168352808b015163ffffffff8116848d0152506040810151610b6e604085018263ffffffff169052565b508981015161ffff16838b0152878101516001600160a01b03168884015286810151878401528881015162ffffff16898401528581015115158684015261010080820151151590840152610120808201511515908401526101408082015115159084015261016090810151151590830152928901926001929092019161018090910190610b2a565b508e89015163ffffffff81168b8b0152975060408f01519850610c1e60408b018a60ff169052565b60608f01519850610c3a60608b018a6001600160a01b03169052565b6001600160a01b038e166101008d01529950610c5b98505050505050505050565b825115156101208301526020830151151561014083015260408301511515610160830152606083015115156101808301529b9a5050505050505050505050565b634e487b7160e01b600052601160045260246000fd5b600060018201610cc357610cc3610c9b565b5060010190565b81810381811115610cdd57610cdd610c9b565b92915050565b60008085851115610cf357600080fd5b83861115610d0057600080fd5b5050820193919092039150565b6bffffffffffffffffffffffff198135818116916014851015610d3a5780818660140360031b1b83161692505b50509291505056fea2646970667358221220abddaf0c8155ab7362e32ef8a3060ce8373ff877cd615fb63297f50c87f06a9064736f6c63430008170033",
			"devdoc": {
				"kind": "dev",
				"methods": {
					"constructor": {
						"params": {
							"addressRegistry": "A registry which stores references to contracts and their deployers.",
							"hook": "Reference copy of a hook."
						}
					},
					"deployHookFor(uint256,(string,string,address,string,address,string,((uint104,uint32,uint32,uint16,address,bytes32,uint24,bool,bool,bool,bool,bool)[],uint32,uint8,address),address,(bool,bool,bool,bool)))": {
						"params": {
							"deployTiersHookConfig": "The config to deploy the hook with, which determines its behavior.",
							"projectId": "The ID of the project to deploy the hook for."
						},
						"returns": {
							"newHook": "The address of the newly deployed hook."
						}
					},
					"isTrustedForwarder(address)": {
						"details": "Indicates whether any particular address is the trusted forwarder."
					},
					"trustedForwarder()": {
						"details": "Returns the address of the trusted forwarder."
					}
				},
				"version": 1
			},
			"userdoc": {
				"kind": "user",
				"methods": {
					"ADDRESS_REGISTRY()": {
						"notice": "A registry which stores references to contracts and their deployers."
					},
					"HOOK()": {
						"notice": "A 721 tiers hook."
					},
					"STORE()": {
						"notice": "The contract that stores and manages data for this contract's NFTs."
					},
					"deployHookFor(uint256,(string,string,address,string,address,string,((uint104,uint32,uint32,uint16,address,bytes32,uint24,bool,bool,bool,bool,bool)[],uint32,uint8,address),address,(bool,bool,bool,bool)))": {
						"notice": "Deploys a 721 tiers hook for the specified project."
					}
				},
				"version": 1
			},
			"gitCommit": "ff49b92d58f7750fa99683f1f53451eea89ea09e",
			"sourceName": "src/JB721TiersHookDeployer.sol",
			"chainId": "11155420",
			"linkReferences": {},
			"deployedLinkReferences": {}
		}
	]
}