{
	"_format": "sphinx-sol-ct-artifact-1",
	"merkleRoot": "0xd1a372b6f6d97825c4e0e2fc3f1c123ffe14a5aee61b42f5b132199ab75734cf",
	"contractName": "JB721TiersHookProjectDeployer",
	"address": "0x610605DB6dB5b8f720ee52ec77D52E115ba658e0",
	"abi": [
		{
			"type": "constructor",
			"inputs": [
				{
					"name": "directory",
					"type": "address",
					"internalType": "contract IJBDirectory"
				},
				{
					"name": "permissions",
					"type": "address",
					"internalType": "contract IJBPermissions"
				},
				{
					"name": "hookDeployer",
					"type": "address",
					"internalType": "contract IJB721TiersHookDeployer"
				}
			],
			"stateMutability": "nonpayable"
		},
		{
			"type": "function",
			"name": "DIRECTORY",
			"inputs": [],
			"outputs": [
				{
					"name": "",
					"type": "address",
					"internalType": "contract IJBDirectory"
				}
			],
			"stateMutability": "view"
		},
		{
			"type": "function",
			"name": "HOOK_DEPLOYER",
			"inputs": [],
			"outputs": [
				{
					"name": "",
					"type": "address",
					"internalType": "contract IJB721TiersHookDeployer"
				}
			],
			"stateMutability": "view"
		},
		{
			"type": "function",
			"name": "PERMISSIONS",
			"inputs": [],
			"outputs": [
				{
					"name": "",
					"type": "address",
					"internalType": "contract IJBPermissions"
				}
			],
			"stateMutability": "view"
		},
		{
			"type": "function",
			"name": "launchProjectFor",
			"inputs": [
				{
					"name": "owner",
					"type": "address",
					"internalType": "address"
				},
				{
					"name": "deployTiersHookConfig",
					"type": "tuple",
					"internalType": "struct JBDeploy721TiersHookConfig",
					"components": [
						{
							"name": "name",
							"type": "string",
							"internalType": "string"
						},
						{
							"name": "symbol",
							"type": "string",
							"internalType": "string"
						},
						{
							"name": "rulesets",
							"type": "address",
							"internalType": "contract IJBRulesets"
						},
						{
							"name": "baseUri",
							"type": "string",
							"internalType": "string"
						},
						{
							"name": "tokenUriResolver",
							"type": "address",
							"internalType": "contract IJB721TokenUriResolver"
						},
						{
							"name": "contractUri",
							"type": "string",
							"internalType": "string"
						},
						{
							"name": "tiersConfig",
							"type": "tuple",
							"internalType": "struct JB721InitTiersConfig",
							"components": [
								{
									"name": "tiers",
									"type": "tuple[]",
									"internalType": "struct JB721TierConfig[]",
									"components": [
										{
											"name": "price",
											"type": "uint104",
											"internalType": "uint104"
										},
										{
											"name": "initialSupply",
											"type": "uint32",
											"internalType": "uint32"
										},
										{
											"name": "votingUnits",
											"type": "uint32",
											"internalType": "uint32"
										},
										{
											"name": "reserveFrequency",
											"type": "uint16",
											"internalType": "uint16"
										},
										{
											"name": "reserveBeneficiary",
											"type": "address",
											"internalType": "address"
										},
										{
											"name": "encodedIPFSUri",
											"type": "bytes32",
											"internalType": "bytes32"
										},
										{
											"name": "category",
											"type": "uint24",
											"internalType": "uint24"
										},
										{
											"name": "allowOwnerMint",
											"type": "bool",
											"internalType": "bool"
										},
										{
											"name": "useReserveBeneficiaryAsDefault",
											"type": "bool",
											"internalType": "bool"
										},
										{
											"name": "transfersPausable",
											"type": "bool",
											"internalType": "bool"
										},
										{
											"name": "useVotingUnits",
											"type": "bool",
											"internalType": "bool"
										},
										{
											"name": "cannotBeRemoved",
											"type": "bool",
											"internalType": "bool"
										}
									]
								},
								{
									"name": "currency",
									"type": "uint32",
									"internalType": "uint32"
								},
								{
									"name": "decimals",
									"type": "uint8",
									"internalType": "uint8"
								},
								{
									"name": "prices",
									"type": "address",
									"internalType": "contract IJBPrices"
								}
							]
						},
						{
							"name": "reserveBeneficiary",
							"type": "address",
							"internalType": "address"
						},
						{
							"name": "flags",
							"type": "tuple",
							"internalType": "struct JB721TiersHookFlags",
							"components": [
								{
									"name": "noNewTiersWithReserves",
									"type": "bool",
									"internalType": "bool"
								},
								{
									"name": "noNewTiersWithVotes",
									"type": "bool",
									"internalType": "bool"
								},
								{
									"name": "noNewTiersWithOwnerMinting",
									"type": "bool",
									"internalType": "bool"
								},
								{
									"name": "preventOverspending",
									"type": "bool",
									"internalType": "bool"
								}
							]
						}
					]
				},
				{
					"name": "launchProjectConfig",
					"type": "tuple",
					"internalType": "struct JBLaunchProjectConfig",
					"components": [
						{
							"name": "projectUri",
							"type": "string",
							"internalType": "string"
						},
						{
							"name": "rulesetConfigurations",
							"type": "tuple[]",
							"internalType": "struct JBPayDataHookRulesetConfig[]",
							"components": [
								{
									"name": "mustStartAtOrAfter",
									"type": "uint256",
									"internalType": "uint256"
								},
								{
									"name": "duration",
									"type": "uint256",
									"internalType": "uint256"
								},
								{
									"name": "weight",
									"type": "uint256",
									"internalType": "uint256"
								},
								{
									"name": "decayRate",
									"type": "uint256",
									"internalType": "uint256"
								},
								{
									"name": "approvalHook",
									"type": "address",
									"internalType": "contract IJBRulesetApprovalHook"
								},
								{
									"name": "metadata",
									"type": "tuple",
									"internalType": "struct JBPayDataHookRulesetMetadata",
									"components": [
										{
											"name": "reservedRate",
											"type": "uint256",
											"internalType": "uint256"
										},
										{
											"name": "redemptionRate",
											"type": "uint256",
											"internalType": "uint256"
										},
										{
											"name": "baseCurrency",
											"type": "uint256",
											"internalType": "uint256"
										},
										{
											"name": "pausePay",
											"type": "bool",
											"internalType": "bool"
										},
										{
											"name": "pauseCreditTransfers",
											"type": "bool",
											"internalType": "bool"
										},
										{
											"name": "allowOwnerMinting",
											"type": "bool",
											"internalType": "bool"
										},
										{
											"name": "allowTerminalMigration",
											"type": "bool",
											"internalType": "bool"
										},
										{
											"name": "allowSetTerminals",
											"type": "bool",
											"internalType": "bool"
										},
										{
											"name": "allowSetController",
											"type": "bool",
											"internalType": "bool"
										},
										{
											"name": "ownerMustSendPayouts",
											"type": "bool",
											"internalType": "bool"
										},
										{
											"name": "holdFees",
											"type": "bool",
											"internalType": "bool"
										},
										{
											"name": "useTotalSurplusForRedemptions",
											"type": "bool",
											"internalType": "bool"
										},
										{
											"name": "useDataHookForRedeem",
											"type": "bool",
											"internalType": "bool"
										},
										{
											"name": "metadata",
											"type": "uint256",
											"internalType": "uint256"
										}
									]
								},
								{
									"name": "splitGroups",
									"type": "tuple[]",
									"internalType": "struct JBSplitGroup[]",
									"components": [
										{
											"name": "groupId",
											"type": "uint256",
											"internalType": "uint256"
										},
										{
											"name": "splits",
											"type": "tuple[]",
											"internalType": "struct JBSplit[]",
											"components": [
												{
													"name": "preferAddToBalance",
													"type": "bool",
													"internalType": "bool"
												},
												{
													"name": "percent",
													"type": "uint256",
													"internalType": "uint256"
												},
												{
													"name": "projectId",
													"type": "uint256",
													"internalType": "uint256"
												},
												{
													"name": "beneficiary",
													"type": "address",
													"internalType": "address payable"
												},
												{
													"name": "lockedUntil",
													"type": "uint256",
													"internalType": "uint256"
												},
												{
													"name": "hook",
													"type": "address",
													"internalType": "contract IJBSplitHook"
												}
											]
										}
									]
								},
								{
									"name": "fundAccessLimitGroups",
									"type": "tuple[]",
									"internalType": "struct JBFundAccessLimitGroup[]",
									"components": [
										{
											"name": "terminal",
											"type": "address",
											"internalType": "address"
										},
										{
											"name": "token",
											"type": "address",
											"internalType": "address"
										},
										{
											"name": "payoutLimits",
											"type": "tuple[]",
											"internalType": "struct JBCurrencyAmount[]",
											"components": [
												{
													"name": "amount",
													"type": "uint256",
													"internalType": "uint256"
												},
												{
													"name": "currency",
													"type": "uint256",
													"internalType": "uint256"
												}
											]
										},
										{
											"name": "surplusAllowances",
											"type": "tuple[]",
											"internalType": "struct JBCurrencyAmount[]",
											"components": [
												{
													"name": "amount",
													"type": "uint256",
													"internalType": "uint256"
												},
												{
													"name": "currency",
													"type": "uint256",
													"internalType": "uint256"
												}
											]
										}
									]
								}
							]
						},
						{
							"name": "terminalConfigurations",
							"type": "tuple[]",
							"internalType": "struct JBTerminalConfig[]",
							"components": [
								{
									"name": "terminal",
									"type": "address",
									"internalType": "contract IJBTerminal"
								},
								{
									"name": "tokensToAccept",
									"type": "address[]",
									"internalType": "address[]"
								}
							]
						},
						{
							"name": "memo",
							"type": "string",
							"internalType": "string"
						}
					]
				},
				{
					"name": "controller",
					"type": "address",
					"internalType": "contract IJBController"
				}
			],
			"outputs": [
				{
					"name": "projectId",
					"type": "uint256",
					"internalType": "uint256"
				}
			],
			"stateMutability": "nonpayable"
		},
		{
			"type": "function",
			"name": "launchRulesetsFor",
			"inputs": [
				{
					"name": "projectId",
					"type": "uint256",
					"internalType": "uint256"
				},
				{
					"name": "deployTiersHookConfig",
					"type": "tuple",
					"internalType": "struct JBDeploy721TiersHookConfig",
					"components": [
						{
							"name": "name",
							"type": "string",
							"internalType": "string"
						},
						{
							"name": "symbol",
							"type": "string",
							"internalType": "string"
						},
						{
							"name": "rulesets",
							"type": "address",
							"internalType": "contract IJBRulesets"
						},
						{
							"name": "baseUri",
							"type": "string",
							"internalType": "string"
						},
						{
							"name": "tokenUriResolver",
							"type": "address",
							"internalType": "contract IJB721TokenUriResolver"
						},
						{
							"name": "contractUri",
							"type": "string",
							"internalType": "string"
						},
						{
							"name": "tiersConfig",
							"type": "tuple",
							"internalType": "struct JB721InitTiersConfig",
							"components": [
								{
									"name": "tiers",
									"type": "tuple[]",
									"internalType": "struct JB721TierConfig[]",
									"components": [
										{
											"name": "price",
											"type": "uint104",
											"internalType": "uint104"
										},
										{
											"name": "initialSupply",
											"type": "uint32",
											"internalType": "uint32"
										},
										{
											"name": "votingUnits",
											"type": "uint32",
											"internalType": "uint32"
										},
										{
											"name": "reserveFrequency",
											"type": "uint16",
											"internalType": "uint16"
										},
										{
											"name": "reserveBeneficiary",
											"type": "address",
											"internalType": "address"
										},
										{
											"name": "encodedIPFSUri",
											"type": "bytes32",
											"internalType": "bytes32"
										},
										{
											"name": "category",
											"type": "uint24",
											"internalType": "uint24"
										},
										{
											"name": "allowOwnerMint",
											"type": "bool",
											"internalType": "bool"
										},
										{
											"name": "useReserveBeneficiaryAsDefault",
											"type": "bool",
											"internalType": "bool"
										},
										{
											"name": "transfersPausable",
											"type": "bool",
											"internalType": "bool"
										},
										{
											"name": "useVotingUnits",
											"type": "bool",
											"internalType": "bool"
										},
										{
											"name": "cannotBeRemoved",
											"type": "bool",
											"internalType": "bool"
										}
									]
								},
								{
									"name": "currency",
									"type": "uint32",
									"internalType": "uint32"
								},
								{
									"name": "decimals",
									"type": "uint8",
									"internalType": "uint8"
								},
								{
									"name": "prices",
									"type": "address",
									"internalType": "contract IJBPrices"
								}
							]
						},
						{
							"name": "reserveBeneficiary",
							"type": "address",
							"internalType": "address"
						},
						{
							"name": "flags",
							"type": "tuple",
							"internalType": "struct JB721TiersHookFlags",
							"components": [
								{
									"name": "noNewTiersWithReserves",
									"type": "bool",
									"internalType": "bool"
								},
								{
									"name": "noNewTiersWithVotes",
									"type": "bool",
									"internalType": "bool"
								},
								{
									"name": "noNewTiersWithOwnerMinting",
									"type": "bool",
									"internalType": "bool"
								},
								{
									"name": "preventOverspending",
									"type": "bool",
									"internalType": "bool"
								}
							]
						}
					]
				},
				{
					"name": "launchRulesetsConfig",
					"type": "tuple",
					"internalType": "struct JBLaunchRulesetsConfig",
					"components": [
						{
							"name": "projectId",
							"type": "uint256",
							"internalType": "uint256"
						},
						{
							"name": "rulesetConfigurations",
							"type": "tuple[]",
							"internalType": "struct JBPayDataHookRulesetConfig[]",
							"components": [
								{
									"name": "mustStartAtOrAfter",
									"type": "uint256",
									"internalType": "uint256"
								},
								{
									"name": "duration",
									"type": "uint256",
									"internalType": "uint256"
								},
								{
									"name": "weight",
									"type": "uint256",
									"internalType": "uint256"
								},
								{
									"name": "decayRate",
									"type": "uint256",
									"internalType": "uint256"
								},
								{
									"name": "approvalHook",
									"type": "address",
									"internalType": "contract IJBRulesetApprovalHook"
								},
								{
									"name": "metadata",
									"type": "tuple",
									"internalType": "struct JBPayDataHookRulesetMetadata",
									"components": [
										{
											"name": "reservedRate",
											"type": "uint256",
											"internalType": "uint256"
										},
										{
											"name": "redemptionRate",
											"type": "uint256",
											"internalType": "uint256"
										},
										{
											"name": "baseCurrency",
											"type": "uint256",
											"internalType": "uint256"
										},
										{
											"name": "pausePay",
											"type": "bool",
											"internalType": "bool"
										},
										{
											"name": "pauseCreditTransfers",
											"type": "bool",
											"internalType": "bool"
										},
										{
											"name": "allowOwnerMinting",
											"type": "bool",
											"internalType": "bool"
										},
										{
											"name": "allowTerminalMigration",
											"type": "bool",
											"internalType": "bool"
										},
										{
											"name": "allowSetTerminals",
											"type": "bool",
											"internalType": "bool"
										},
										{
											"name": "allowSetController",
											"type": "bool",
											"internalType": "bool"
										},
										{
											"name": "ownerMustSendPayouts",
											"type": "bool",
											"internalType": "bool"
										},
										{
											"name": "holdFees",
											"type": "bool",
											"internalType": "bool"
										},
										{
											"name": "useTotalSurplusForRedemptions",
											"type": "bool",
											"internalType": "bool"
										},
										{
											"name": "useDataHookForRedeem",
											"type": "bool",
											"internalType": "bool"
										},
										{
											"name": "metadata",
											"type": "uint256",
											"internalType": "uint256"
										}
									]
								},
								{
									"name": "splitGroups",
									"type": "tuple[]",
									"internalType": "struct JBSplitGroup[]",
									"components": [
										{
											"name": "groupId",
											"type": "uint256",
											"internalType": "uint256"
										},
										{
											"name": "splits",
											"type": "tuple[]",
											"internalType": "struct JBSplit[]",
											"components": [
												{
													"name": "preferAddToBalance",
													"type": "bool",
													"internalType": "bool"
												},
												{
													"name": "percent",
													"type": "uint256",
													"internalType": "uint256"
												},
												{
													"name": "projectId",
													"type": "uint256",
													"internalType": "uint256"
												},
												{
													"name": "beneficiary",
													"type": "address",
													"internalType": "address payable"
												},
												{
													"name": "lockedUntil",
													"type": "uint256",
													"internalType": "uint256"
												},
												{
													"name": "hook",
													"type": "address",
													"internalType": "contract IJBSplitHook"
												}
											]
										}
									]
								},
								{
									"name": "fundAccessLimitGroups",
									"type": "tuple[]",
									"internalType": "struct JBFundAccessLimitGroup[]",
									"components": [
										{
											"name": "terminal",
											"type": "address",
											"internalType": "address"
										},
										{
											"name": "token",
											"type": "address",
											"internalType": "address"
										},
										{
											"name": "payoutLimits",
											"type": "tuple[]",
											"internalType": "struct JBCurrencyAmount[]",
											"components": [
												{
													"name": "amount",
													"type": "uint256",
													"internalType": "uint256"
												},
												{
													"name": "currency",
													"type": "uint256",
													"internalType": "uint256"
												}
											]
										},
										{
											"name": "surplusAllowances",
											"type": "tuple[]",
											"internalType": "struct JBCurrencyAmount[]",
											"components": [
												{
													"name": "amount",
													"type": "uint256",
													"internalType": "uint256"
												},
												{
													"name": "currency",
													"type": "uint256",
													"internalType": "uint256"
												}
											]
										}
									]
								}
							]
						},
						{
							"name": "terminalConfigurations",
							"type": "tuple[]",
							"internalType": "struct JBTerminalConfig[]",
							"components": [
								{
									"name": "terminal",
									"type": "address",
									"internalType": "contract IJBTerminal"
								},
								{
									"name": "tokensToAccept",
									"type": "address[]",
									"internalType": "address[]"
								}
							]
						},
						{
							"name": "memo",
							"type": "string",
							"internalType": "string"
						}
					]
				},
				{
					"name": "controller",
					"type": "address",
					"internalType": "contract IJBController"
				}
			],
			"outputs": [
				{
					"name": "rulesetId",
					"type": "uint256",
					"internalType": "uint256"
				}
			],
			"stateMutability": "nonpayable"
		},
		{
			"type": "function",
			"name": "queueRulesetsOf",
			"inputs": [
				{
					"name": "projectId",
					"type": "uint256",
					"internalType": "uint256"
				},
				{
					"name": "deployTiersHookConfig",
					"type": "tuple",
					"internalType": "struct JBDeploy721TiersHookConfig",
					"components": [
						{
							"name": "name",
							"type": "string",
							"internalType": "string"
						},
						{
							"name": "symbol",
							"type": "string",
							"internalType": "string"
						},
						{
							"name": "rulesets",
							"type": "address",
							"internalType": "contract IJBRulesets"
						},
						{
							"name": "baseUri",
							"type": "string",
							"internalType": "string"
						},
						{
							"name": "tokenUriResolver",
							"type": "address",
							"internalType": "contract IJB721TokenUriResolver"
						},
						{
							"name": "contractUri",
							"type": "string",
							"internalType": "string"
						},
						{
							"name": "tiersConfig",
							"type": "tuple",
							"internalType": "struct JB721InitTiersConfig",
							"components": [
								{
									"name": "tiers",
									"type": "tuple[]",
									"internalType": "struct JB721TierConfig[]",
									"components": [
										{
											"name": "price",
											"type": "uint104",
											"internalType": "uint104"
										},
										{
											"name": "initialSupply",
											"type": "uint32",
											"internalType": "uint32"
										},
										{
											"name": "votingUnits",
											"type": "uint32",
											"internalType": "uint32"
										},
										{
											"name": "reserveFrequency",
											"type": "uint16",
											"internalType": "uint16"
										},
										{
											"name": "reserveBeneficiary",
											"type": "address",
											"internalType": "address"
										},
										{
											"name": "encodedIPFSUri",
											"type": "bytes32",
											"internalType": "bytes32"
										},
										{
											"name": "category",
											"type": "uint24",
											"internalType": "uint24"
										},
										{
											"name": "allowOwnerMint",
											"type": "bool",
											"internalType": "bool"
										},
										{
											"name": "useReserveBeneficiaryAsDefault",
											"type": "bool",
											"internalType": "bool"
										},
										{
											"name": "transfersPausable",
											"type": "bool",
											"internalType": "bool"
										},
										{
											"name": "useVotingUnits",
											"type": "bool",
											"internalType": "bool"
										},
										{
											"name": "cannotBeRemoved",
											"type": "bool",
											"internalType": "bool"
										}
									]
								},
								{
									"name": "currency",
									"type": "uint32",
									"internalType": "uint32"
								},
								{
									"name": "decimals",
									"type": "uint8",
									"internalType": "uint8"
								},
								{
									"name": "prices",
									"type": "address",
									"internalType": "contract IJBPrices"
								}
							]
						},
						{
							"name": "reserveBeneficiary",
							"type": "address",
							"internalType": "address"
						},
						{
							"name": "flags",
							"type": "tuple",
							"internalType": "struct JB721TiersHookFlags",
							"components": [
								{
									"name": "noNewTiersWithReserves",
									"type": "bool",
									"internalType": "bool"
								},
								{
									"name": "noNewTiersWithVotes",
									"type": "bool",
									"internalType": "bool"
								},
								{
									"name": "noNewTiersWithOwnerMinting",
									"type": "bool",
									"internalType": "bool"
								},
								{
									"name": "preventOverspending",
									"type": "bool",
									"internalType": "bool"
								}
							]
						}
					]
				},
				{
					"name": "queueRulesetsConfig",
					"type": "tuple",
					"internalType": "struct JBQueueRulesetsConfig",
					"components": [
						{
							"name": "projectId",
							"type": "uint256",
							"internalType": "uint256"
						},
						{
							"name": "rulesetConfigurations",
							"type": "tuple[]",
							"internalType": "struct JBPayDataHookRulesetConfig[]",
							"components": [
								{
									"name": "mustStartAtOrAfter",
									"type": "uint256",
									"internalType": "uint256"
								},
								{
									"name": "duration",
									"type": "uint256",
									"internalType": "uint256"
								},
								{
									"name": "weight",
									"type": "uint256",
									"internalType": "uint256"
								},
								{
									"name": "decayRate",
									"type": "uint256",
									"internalType": "uint256"
								},
								{
									"name": "approvalHook",
									"type": "address",
									"internalType": "contract IJBRulesetApprovalHook"
								},
								{
									"name": "metadata",
									"type": "tuple",
									"internalType": "struct JBPayDataHookRulesetMetadata",
									"components": [
										{
											"name": "reservedRate",
											"type": "uint256",
											"internalType": "uint256"
										},
										{
											"name": "redemptionRate",
											"type": "uint256",
											"internalType": "uint256"
										},
										{
											"name": "baseCurrency",
											"type": "uint256",
											"internalType": "uint256"
										},
										{
											"name": "pausePay",
											"type": "bool",
											"internalType": "bool"
										},
										{
											"name": "pauseCreditTransfers",
											"type": "bool",
											"internalType": "bool"
										},
										{
											"name": "allowOwnerMinting",
											"type": "bool",
											"internalType": "bool"
										},
										{
											"name": "allowTerminalMigration",
											"type": "bool",
											"internalType": "bool"
										},
										{
											"name": "allowSetTerminals",
											"type": "bool",
											"internalType": "bool"
										},
										{
											"name": "allowSetController",
											"type": "bool",
											"internalType": "bool"
										},
										{
											"name": "ownerMustSendPayouts",
											"type": "bool",
											"internalType": "bool"
										},
										{
											"name": "holdFees",
											"type": "bool",
											"internalType": "bool"
										},
										{
											"name": "useTotalSurplusForRedemptions",
											"type": "bool",
											"internalType": "bool"
										},
										{
											"name": "useDataHookForRedeem",
											"type": "bool",
											"internalType": "bool"
										},
										{
											"name": "metadata",
											"type": "uint256",
											"internalType": "uint256"
										}
									]
								},
								{
									"name": "splitGroups",
									"type": "tuple[]",
									"internalType": "struct JBSplitGroup[]",
									"components": [
										{
											"name": "groupId",
											"type": "uint256",
											"internalType": "uint256"
										},
										{
											"name": "splits",
											"type": "tuple[]",
											"internalType": "struct JBSplit[]",
											"components": [
												{
													"name": "preferAddToBalance",
													"type": "bool",
													"internalType": "bool"
												},
												{
													"name": "percent",
													"type": "uint256",
													"internalType": "uint256"
												},
												{
													"name": "projectId",
													"type": "uint256",
													"internalType": "uint256"
												},
												{
													"name": "beneficiary",
													"type": "address",
													"internalType": "address payable"
												},
												{
													"name": "lockedUntil",
													"type": "uint256",
													"internalType": "uint256"
												},
												{
													"name": "hook",
													"type": "address",
													"internalType": "contract IJBSplitHook"
												}
											]
										}
									]
								},
								{
									"name": "fundAccessLimitGroups",
									"type": "tuple[]",
									"internalType": "struct JBFundAccessLimitGroup[]",
									"components": [
										{
											"name": "terminal",
											"type": "address",
											"internalType": "address"
										},
										{
											"name": "token",
											"type": "address",
											"internalType": "address"
										},
										{
											"name": "payoutLimits",
											"type": "tuple[]",
											"internalType": "struct JBCurrencyAmount[]",
											"components": [
												{
													"name": "amount",
													"type": "uint256",
													"internalType": "uint256"
												},
												{
													"name": "currency",
													"type": "uint256",
													"internalType": "uint256"
												}
											]
										},
										{
											"name": "surplusAllowances",
											"type": "tuple[]",
											"internalType": "struct JBCurrencyAmount[]",
											"components": [
												{
													"name": "amount",
													"type": "uint256",
													"internalType": "uint256"
												},
												{
													"name": "currency",
													"type": "uint256",
													"internalType": "uint256"
												}
											]
										}
									]
								}
							]
						},
						{
							"name": "memo",
							"type": "string",
							"internalType": "string"
						}
					]
				},
				{
					"name": "controller",
					"type": "address",
					"internalType": "contract IJBController"
				}
			],
			"outputs": [
				{
					"name": "rulesetId",
					"type": "uint256",
					"internalType": "uint256"
				}
			],
			"stateMutability": "nonpayable"
		},
		{
			"type": "error",
			"name": "UNAUTHORIZED",
			"inputs": []
		}
	],
	"solcInputHash": "dd1347b6bdfffb0c4296571a452787bf",
	"args": [
		"0x317E962828ddBb27576f6F0cA89Adc3cd56Ed8Cc",
		"0x4475B99b2f6F06c5048fe8c3839dFe2E5d744e65",
		"0x554CE80D78f5438c73a9759D8BBb52a382138A59"
	],
	"bytecode": "0x60e06040523480156200001157600080fd5b50604051620029333803806200293383398101604081905262000034916200006b565b6001600160a01b0391821660805291811660a0521660c052620000bf565b6001600160a01b03811681146200006857600080fd5b50565b6000806000606084860312156200008157600080fd5b83516200008e8162000052565b6020850151909350620000a18162000052565b6040850151909250620000b48162000052565b809150509250925092565b60805160a05160c0516128156200011e6000396000818160f4015281816102460152818161045d01526105c701526000818160a2015281816101540152818161034d015261055101526000818161012e01526109d901526128156000f3fe608060405234801561001057600080fd5b50600436106100725760003560e01c8063abf8c5c811610050578063abf8c5c8146100ef578063adcafa2f14610116578063f434c9141461012957600080fd5b80633f839bc61461007757806388bc2ef31461009d5780638eb69a9e146100dc575b600080fd5b61008a610085366004611d59565b610150565b6040519081526020015b60405180910390f35b6100c47f000000000000000000000000000000000000000000000000000000000000000081565b6040516001600160a01b039091168152602001610094565b61008a6100ea366004611e7c565b610346565b6100c47f000000000000000000000000000000000000000000000000000000000000000081565b61008a610124366004611f05565b61054a565b6100c47f000000000000000000000000000000000000000000000000000000000000000081565b60007f00000000000000000000000000000000000000000000000000000000000000006001600160a01b031663293c49996040518163ffffffff1660e01b8152600401602060405180830381865afa1580156101b0573d6000803e3d6000fd5b505050506040513d601f19601f820116820180604052508101906101d49190611fd5565b6001600160a01b03166306661abd6040518163ffffffff1660e01b8152600401602060405180830381865afa158015610211573d6000803e3d6000fd5b505050506040513d601f19601f820116820180604052508101906102359190611ff9565b610240906001612012565b905060007f00000000000000000000000000000000000000000000000000000000000000006001600160a01b0316632230819f83876040518363ffffffff1660e01b815260040161029292919061219f565b6020604051808303816000875af11580156102b1573d6000803e3d6000fd5b505050506040513d601f19601f820116820180604052508101906102d59190611fd5565b90506102e3868583866106aa565b6040516351106b4b60e11b8152600481018390526001600160a01b0382169063a220d69690602401600060405180830381600087803b15801561032557600080fd5b505af1158015610339573d6000803e3d6000fd5b5050505050949350505050565b60006104437f00000000000000000000000000000000000000000000000000000000000000006001600160a01b031663293c49996040518163ffffffff1660e01b8152600401602060405180830381865afa1580156103a9573d6000803e3d6000fd5b505050506040513d601f19601f820116820180604052508101906103cd9190611fd5565b6001600160a01b0316636352211e876040518263ffffffff1660e01b81526004016103fa91815260200190565b602060405180830381865afa158015610417573d6000803e3d6000fd5b505050506040513d601f19601f8201168201806040525081019061043b9190611fd5565b866002610968565b604051632230819f60e01b81526000906001600160a01b037f00000000000000000000000000000000000000000000000000000000000000001690632230819f90610494908990899060040161219f565b6020604051808303816000875af11580156104b3573d6000803e3d6000fd5b505050506040513d601f19601f820116820180604052508101906104d79190611fd5565b6040516351106b4b60e11b8152600481018890529091506001600160a01b0382169063a220d69690602401600060405180830381600087803b15801561051c57600080fd5b505af1158015610530573d6000803e3d6000fd5b5050505061054086858386610a83565b9695505050505050565b60006105ad7f00000000000000000000000000000000000000000000000000000000000000006001600160a01b031663293c49996040518163ffffffff1660e01b8152600401602060405180830381865afa1580156103a9573d6000803e3d6000fd5b604051632230819f60e01b81526000906001600160a01b037f00000000000000000000000000000000000000000000000000000000000000001690632230819f906105fe908990899060040161219f565b6020604051808303816000875af115801561061d573d6000803e3d6000fd5b505050506040513d601f19601f820116820180604052508101906106419190611fd5565b6040516351106b4b60e11b8152600481018890529091506001600160a01b0382169063a220d69690602401600060405180830381600087803b15801561068657600080fd5b505af115801561069a573d6000803e3d6000fd5b5050505061054086858386610d43565b60208301515160008167ffffffffffffffff8111156106cb576106cb61113d565b60405190808252806020026020018201604052801561070457816020015b6106f1610faf565b8152602001906001900390816106e95790505b50905061070f611076565b60005b838110156108c65786602001518181518110610730576107306122d7565b602002602001015191506040518061010001604052808360000151815260200183602001518152602001836040015181526020018360600151815260200183608001516001600160a01b031681526020016040518061022001604052808560a001516000015181526020018560a001516020015181526020018560a001516040015181526020018560a0015160600151151581526020018560a0015160800151151581526020018560a0015160a00151151581526020016000151581526020018560a0015160c00151151581526020018560a0015160e00151151581526020018560a001516101000151151581526020018560a001516101200151151581526020018560a001516101400151151581526020018560a001516101600151151581526020016001151581526020018560a00151610180015115158152602001896001600160a01b031681526020018560a001516101a0015181525081526020018360c0015181526020018360e001518152508382815181106108b3576108b36122d7565b6020908102919091010152600101610712565b508551604080880151606089015191517f9e14fb800000000000000000000000000000000000000000000000000000000081526001600160a01b03881693639e14fb809361091b938d938992906004016126f1565b6020604051808303816000875af115801561093a573d6000803e3d6000fd5b505050506040513d601f19601f8201168201806040525081019061095e9190611ff9565b5050505050505050565b336001600160a01b0384168114801590610a4657506040517f348b684e0000000000000000000000000000000000000000000000000000000081526001600160a01b0382811660048301528581166024830152604482018590526064820184905260016084830181905260a48301527f0000000000000000000000000000000000000000000000000000000000000000169063348b684e9060c401602060405180830381865afa158015610a20573d6000803e3d6000fd5b505050506040513d601f19601f82011682018060405250810190610a44919061274d565b155b15610a7d576040517f075fd2b100000000000000000000000000000000000000000000000000000000815260040160405180910390fd5b50505050565b602083015151600090818167ffffffffffffffff811115610aa657610aa661113d565b604051908082528060200260200182016040528015610adf57816020015b610acc610faf565b815260200190600190039081610ac45790505b509050610aea611076565b60005b83811015610ca15787602001518181518110610b0b57610b0b6122d7565b602002602001015191506040518061010001604052808360000151815260200183602001518152602001836040015181526020018360600151815260200183608001516001600160a01b031681526020016040518061022001604052808560a001516000015181526020018560a001516020015181526020018560a001516040015181526020018560a0015160600151151581526020018560a0015160800151151581526020018560a0015160a00151151581526020016000151581526020018560a0015160c00151151581526020018560a0015160e00151151581526020018560a001516101000151151581526020018560a001516101200151151581526020018560a001516101400151151581526020018560a001516101600151151581526020016001151581526020018560a001516101800151151581526020018a6001600160a01b031681526020018560a001516101a0015181525081526020018360c0015181526020018360e00151815250838281518110610c8e57610c8e6122d7565b6020908102919091010152600101610aed565b50604080880151606089015191517f21df42e80000000000000000000000000000000000000000000000000000000081526001600160a01b038816926321df42e892610cf4928d9288929160040161276a565b6020604051808303816000875af1158015610d13573d6000803e3d6000fd5b505050506040513d601f19601f82011682018060405250810190610d379190611ff9565b98975050505050505050565b602083015151600090818167ffffffffffffffff811115610d6657610d6661113d565b604051908082528060200260200182016040528015610d9f57816020015b610d8c610faf565b815260200190600190039081610d845790505b509050610daa611076565b60005b83811015610f615787602001518181518110610dcb57610dcb6122d7565b602002602001015191506040518061010001604052808360000151815260200183602001518152602001836040015181526020018360600151815260200183608001516001600160a01b031681526020016040518061022001604052808560a001516000015181526020018560a001516020015181526020018560a001516040015181526020018560a0015160600151151581526020018560a0015160800151151581526020018560a0015160a00151151581526020016000151581526020018560a0015160c00151151581526020018560a0015160e00151151581526020018560a001516101000151151581526020018560a001516101200151151581526020018560a001516101400151151581526020018560a001516101600151151581526020016001151581526020018560a001516101800151151581526020018a6001600160a01b031681526020018560a001516101a0015181525081526020018360c0015181526020018360e00151815250838281518110610f4e57610f4e6122d7565b6020908102919091010152600101610dad565b5060408088015190517fc05120310000000000000000000000000000000000000000000000000000000081526001600160a01b0387169163c051203191610cf4918c918791906004016127b4565b6040805161010080820183526000808352602080840182905283850182905260608085018390526080808601849052865161022081018852848152928301849052958201839052810182905293840181905260a084810182905260c0850182905260e0850182905291840181905261012084018190526101408401819052610160840181905261018084018190526101a084018190526101c084018190526101e084018190526102008401529091908201905b815260200160608152602001606081525090565b604080516101008082018352600080835260208084018290528385018290526060808501839052608080860184905286516101c081018852848152928301849052958201839052810182905293840181905260a084810182905260c0850182905260e0850182905291840181905261012084018190526101408401819052610160840181905261018084018190526101a0840152909190820190611062565b6001600160a01b038116811461112a57600080fd5b50565b803561113881611115565b919050565b634e487b7160e01b600052604160045260246000fd5b6040516080810167ffffffffffffffff811182821017156111765761117661113d565b60405290565b604051610180810167ffffffffffffffff811182821017156111765761117661113d565b604051610120810167ffffffffffffffff811182821017156111765761117661113d565b6040516101c0810167ffffffffffffffff811182821017156111765761117661113d565b6040805190810167ffffffffffffffff811182821017156111765761117661113d565b60405160c0810167ffffffffffffffff811182821017156111765761117661113d565b604051610100810167ffffffffffffffff811182821017156111765761117661113d565b6040516060810167ffffffffffffffff811182821017156111765761117661113d565b604051601f8201601f1916810167ffffffffffffffff8111828210171561129e5761129e61113d565b604052919050565b600082601f8301126112b757600080fd5b813567ffffffffffffffff8111156112d1576112d161113d565b6112e4601f8201601f1916602001611275565b8181528460208386010111156112f957600080fd5b816020850160208301376000918101602001919091529392505050565b600067ffffffffffffffff8211156113305761133061113d565b5060051b60200190565b80356cffffffffffffffffffffffffff8116811461113857600080fd5b803563ffffffff8116811461113857600080fd5b803561ffff8116811461113857600080fd5b803562ffffff8116811461113857600080fd5b801515811461112a57600080fd5b803561113881611390565b803560ff8116811461113857600080fd5b600060808083850312156113cd57600080fd5b6113d5611153565b9150823567ffffffffffffffff8111156113ee57600080fd5b8301601f810185136113ff57600080fd5b8035602061141461140f83611316565b611275565b828152610180928302840182019282820191908985111561143457600080fd5b948301945b848610156115275780868b0312156114515760008081fd5b61145961117c565b6114628761133a565b815261146f858801611357565b858201526040611480818901611357565b90820152606061149188820161136b565b908201526114a087890161112d565b8189015260a0878101359082015260c06114bb81890161137d565b9082015260e06114cc88820161139e565b908201526101006114de88820161139e565b908201526101206114f088820161139e565b9082015261014061150288820161139e565b9082015261016061151488820161139e565b9082015283529485019491830191611439565b50865250611536868201611357565b818601525050505061154a604083016113a9565b604082015261155b6060830161112d565b606082015292915050565b60006080828403121561157857600080fd5b611580611153565b9050813561158d81611390565b8152602082013561159d81611390565b602082015260408201356115b081611390565b6040820152606082013561155b81611390565b600061018082840312156115d657600080fd5b6115de6111a0565b9050813567ffffffffffffffff808211156115f857600080fd5b611604858386016112a6565b8352602084013591508082111561161a57600080fd5b611626858386016112a6565b60208401526116376040850161112d565b6040840152606084013591508082111561165057600080fd5b61165c858386016112a6565b606084015261166d6080850161112d565b608084015260a084013591508082111561168657600080fd5b611692858386016112a6565b60a084015260c08401359150808211156116ab57600080fd5b506116b8848285016113ba565b60c0830152506116ca60e0830161112d565b60e08201526101006116de84828501611566565b9082015292915050565b60006101c082840312156116fb57600080fd5b6117036111c4565b90508135815260208201356020820152604082013560408201526117296060830161139e565b606082015261173a6080830161139e565b608082015261174b60a0830161139e565b60a082015261175c60c0830161139e565b60c082015261176d60e0830161139e565b60e082015261010061178081840161139e565b9082015261012061179283820161139e565b908201526101406117a483820161139e565b908201526101606117b683820161139e565b908201526101806117c883820161139e565b81830152506101a080830135818301525092915050565b600082601f8301126117f057600080fd5b8135602061180061140f83611316565b82815260059290921b8401810191818101908684111561181f57600080fd5b8286015b8481101561195957803567ffffffffffffffff8082111561184357600080fd5b908801906040828b03601f190181131561185c57600080fd5b6118646111e8565b878401358152818401358381111561187b57600080fd5b8085019450508b603f85011261189057600080fd5b8784013592506118a261140f84611316565b83815260c09093028401820192888101908d8511156118c057600080fd5b948301945b848610156119445760c0868f0312156118dd57600080fd5b6118e561120b565b86356118f081611390565b8152868b01358b8201528487013585820152606087013561191081611115565b60608201526080878101359082015260a087013561192d81611115565b60a0820152825260c09590950194908901906118c5565b828a0152508652505050918301918301611823565b509695505050505050565b600082601f83011261197557600080fd5b8135602061198561140f83611316565b82815260069290921b840181019181810190868411156119a457600080fd5b8286015b8481101561195957604081890312156119c15760008081fd5b6119c96111e8565b8135815284820135858201528352918301916040016119a8565b600082601f8301126119f457600080fd5b81356020611a0461140f83611316565b82815260059290921b84018101918181019086841115611a2357600080fd5b8286015b8481101561195957803567ffffffffffffffff80821115611a485760008081fd5b908801906080828b03601f1901811315611a625760008081fd5b611a6a611153565b87840135611a7781611115565b8152604084810135611a8881611115565b828a015260608581013585811115611aa05760008081fd5b611aae8f8c838a0101611964565b8484015250928501359284841115611ac857600091508182fd5b611ad68e8b86890101611964565b90830152508652505050918301918301611a27565b600082601f830112611afc57600080fd5b81356020611b0c61140f83611316565b82815260059290921b84018101918181019086841115611b2b57600080fd5b8286015b8481101561195957803567ffffffffffffffff80821115611b505760008081fd5b908801906102a0828b03601f1901811315611b6b5760008081fd5b611b7361122e565b87840135815260408085013589830152606080860135828401526080915081860135818401525060a0611ba781870161112d565b8284015260c09150611bbb8e8388016116e8565b9083015261028085013584811115611bd35760008081fd5b611be18e8b838901016117df565b82840152505081840135915082821115611bfb5760008081fd5b611c098c89848701016119e3565b60e08201528652505050918301918301611b2f565b600082601f830112611c2f57600080fd5b81356020611c3f61140f83611316565b828152600592831b8501820192828201919087851115611c5e57600080fd5b8387015b85811015611d4c57803567ffffffffffffffff80821115611c835760008081fd5b908901906040828c03601f1901811315611c9d5760008081fd5b611ca56111e8565b88840135611cb281611115565b81528382013583811115611cc65760008081fd5b8085019450508c603f850112611cde57600092508283fd5b888401359250611cf061140f84611316565b83815292861b8401820192898101908e851115611d0d5760008081fd5b948301945b84861015611d375785359350611d2784611115565b838252948a0194908a0190611d12565b828b0152508752505050928401928401611c62565b5090979650505050505050565b60008060008060808587031215611d6f57600080fd5b8435611d7a81611115565b9350602085013567ffffffffffffffff80821115611d9757600080fd5b611da3888389016115c3565b94506040870135915080821115611db957600080fd5b9086019060808289031215611dcd57600080fd5b611dd5611153565b823582811115611de457600080fd5b611df08a8286016112a6565b825250602083013582811115611e0557600080fd5b611e118a828601611aeb565b602083015250604083013582811115611e2957600080fd5b611e358a828601611c1e565b604083015250606083013582811115611e4d57600080fd5b611e598a8286016112a6565b606083015250809450505050611e716060860161112d565b905092959194509250565b60008060008060808587031215611e9257600080fd5b84359350602085013567ffffffffffffffff80821115611eb157600080fd5b611ebd888389016115c3565b94506040870135915080821115611ed357600080fd5b9086019060808289031215611ee757600080fd5b611eef611153565b82358152602083013582811115611e0557600080fd5b60008060008060808587031215611f1b57600080fd5b84359350602085013567ffffffffffffffff80821115611f3a57600080fd5b611f46888389016115c3565b94506040870135915080821115611f5c57600080fd5b9086019060608289031215611f7057600080fd5b611f78611252565b82358152602083013582811115611f8e57600080fd5b611f9a8a828601611aeb565b602083015250604083013582811115611fb257600080fd5b611fbe8a8286016112a6565b6040830152509350611e719150506060860161112d565b600060208284031215611fe757600080fd5b8151611ff281611115565b9392505050565b60006020828403121561200b57600080fd5b5051919050565b8082018082111561203357634e487b7160e01b600052601160045260246000fd5b92915050565b6000815180845260005b8181101561205f57602081850181015186830182015201612043565b506000602082860101526020601f19601f83011685010191505092915050565b80516080808452815184820181905260009260a0916020918201918388019190865b8281101561216457845180516cffffffffffffffffffffffffff1685528281015163ffffffff908116848701526040808301519091169086015260608082015161ffff1690860152878101516001600160a01b031688860152868101518786015260c08082015162ffffff169086015260e0808201511515908601526101008082015115159086015261012080820151151590860152610140808201511515908601526101609081015115159085015293810193610180909301926001016120a1565b508781015163ffffffff16908901525060408087015160ff16908801526060808701516001600160a01b038116918901919091529350610540565b828152604060208201526000825161018060408401526121c36101c0840182612039565b90506020840151603f19808584030160608601526121e18383612039565b9250604086015191506121ff60808601836001600160a01b03169052565b60608601519150808584030160a086015261221a8383612039565b92506080860151915061223860c08601836001600160a01b03169052565b60a08601519150808584030160e08601526122538383612039565b925060c08601519150610100818685030181870152612272848461207f565b935060e087015192506122916101208701846001600160a01b03169052565b860151805115156101408701526020810151151561016087015260408101511515610180870152606081015115156101a087015291506122ce9050565b50949350505050565b634e487b7160e01b600052603260045260246000fd5b8051825260208101516020830152604081015160408301526060810151612318606084018215159052565b50608081015161232c608084018215159052565b5060a081015161234060a084018215159052565b5060c081015161235460c084018215159052565b5060e081015161236860e084018215159052565b5061010081810151151590830152610120808201511515908301526101408082015115159083015261016080820151151590830152610180808201511515908301526101a0808201511515908301526101c0808201511515908301526101e0808201516001600160a01b03169083015261020090810151910152565b600082825180855260208086019550808260051b8401018186016000805b858110156124aa57868403601f19018a52825180518552850151604086860181905281518187018190529187019160609081880190865b818110156124935785518051151584528b8101518c8501528581015186850152848101516001600160a01b03908116868601526080808301519086015260a0918201511690840152948a019460c090920191600101612439565b50509c88019c965050509285019250600101612402565b509198975050505050505050565b60008151808452602080850194506020840160005b838110156124f45781518051885283015183880152604090960195908201906001016124cd565b509495945050505050565b600082825180855260208086019550808260051b84010181860160005b84811015611d4c57601f19868403018952815160806001600160a01b0380835116865280878401511687870152506040808301518282880152612561838801826124b8565b925050506060808301519250858203818701525061257f81836124b8565b9a86019a945050509083019060010161251c565b600082825180855260208086019550808260051b84010181860160005b84811015611d4c57858303601f19018952815180518452848101518585015260408082015190850152606080820151908501526080808201516001600160a01b03169085015260a080820151610300919061260d828801826122ed565b505060c0820151816102c0870152612627828701826123e4565b91505060e082015191508481036102e086015261264481836124ff565b9a86019a94505050908301906001016125b0565b600082825180855260208086019550808260051b8401018186016000805b858110156124aa57868403601f19018a52825180516001600160a01b03908116865290860151604087870181905281519087018190529087019160608701918591905b808310156126db578451821684529389019392890192600192909201916126b9565b5050509a86019a94505091840191600101612676565b6001600160a01b038616815260a06020820152600061271360a0830187612039565b82810360408401526127258187612593565b905082810360608401526127398186612658565b90508281036080840152610d378185612039565b60006020828403121561275f57600080fd5b8151611ff281611390565b8481526080602082015260006127836080830186612593565b82810360408401526127958186612658565b905082810360608401526127a98185612039565b979650505050505050565b8381526060602082015260006127cd6060830185612593565b8281036040840152610540818561203956fea26469706673582212201d1dc8a7560e4d0a8c637649995be54ee410bf6a1d3d6657fb32d929b3a7cc8d64736f6c63430008170033",
	"deployedBytecode": "0x608060405234801561001057600080fd5b50600436106100725760003560e01c8063abf8c5c811610050578063abf8c5c8146100ef578063adcafa2f14610116578063f434c9141461012957600080fd5b80633f839bc61461007757806388bc2ef31461009d5780638eb69a9e146100dc575b600080fd5b61008a610085366004611d59565b610150565b6040519081526020015b60405180910390f35b6100c47f000000000000000000000000317e962828ddbb27576f6f0ca89adc3cd56ed8cc81565b6040516001600160a01b039091168152602001610094565b61008a6100ea366004611e7c565b610346565b6100c47f000000000000000000000000554ce80d78f5438c73a9759d8bbb52a382138a5981565b61008a610124366004611f05565b61054a565b6100c47f0000000000000000000000004475b99b2f6f06c5048fe8c3839dfe2e5d744e6581565b60007f000000000000000000000000317e962828ddbb27576f6f0ca89adc3cd56ed8cc6001600160a01b031663293c49996040518163ffffffff1660e01b8152600401602060405180830381865afa1580156101b0573d6000803e3d6000fd5b505050506040513d601f19601f820116820180604052508101906101d49190611fd5565b6001600160a01b03166306661abd6040518163ffffffff1660e01b8152600401602060405180830381865afa158015610211573d6000803e3d6000fd5b505050506040513d601f19601f820116820180604052508101906102359190611ff9565b610240906001612012565b905060007f000000000000000000000000554ce80d78f5438c73a9759d8bbb52a382138a596001600160a01b0316632230819f83876040518363ffffffff1660e01b815260040161029292919061219f565b6020604051808303816000875af11580156102b1573d6000803e3d6000fd5b505050506040513d601f19601f820116820180604052508101906102d59190611fd5565b90506102e3868583866106aa565b6040516351106b4b60e11b8152600481018390526001600160a01b0382169063a220d69690602401600060405180830381600087803b15801561032557600080fd5b505af1158015610339573d6000803e3d6000fd5b5050505050949350505050565b60006104437f000000000000000000000000317e962828ddbb27576f6f0ca89adc3cd56ed8cc6001600160a01b031663293c49996040518163ffffffff1660e01b8152600401602060405180830381865afa1580156103a9573d6000803e3d6000fd5b505050506040513d601f19601f820116820180604052508101906103cd9190611fd5565b6001600160a01b0316636352211e876040518263ffffffff1660e01b81526004016103fa91815260200190565b602060405180830381865afa158015610417573d6000803e3d6000fd5b505050506040513d601f19601f8201168201806040525081019061043b9190611fd5565b866002610968565b604051632230819f60e01b81526000906001600160a01b037f000000000000000000000000554ce80d78f5438c73a9759d8bbb52a382138a591690632230819f90610494908990899060040161219f565b6020604051808303816000875af11580156104b3573d6000803e3d6000fd5b505050506040513d601f19601f820116820180604052508101906104d79190611fd5565b6040516351106b4b60e11b8152600481018890529091506001600160a01b0382169063a220d69690602401600060405180830381600087803b15801561051c57600080fd5b505af1158015610530573d6000803e3d6000fd5b5050505061054086858386610a83565b9695505050505050565b60006105ad7f000000000000000000000000317e962828ddbb27576f6f0ca89adc3cd56ed8cc6001600160a01b031663293c49996040518163ffffffff1660e01b8152600401602060405180830381865afa1580156103a9573d6000803e3d6000fd5b604051632230819f60e01b81526000906001600160a01b037f000000000000000000000000554ce80d78f5438c73a9759d8bbb52a382138a591690632230819f906105fe908990899060040161219f565b6020604051808303816000875af115801561061d573d6000803e3d6000fd5b505050506040513d601f19601f820116820180604052508101906106419190611fd5565b6040516351106b4b60e11b8152600481018890529091506001600160a01b0382169063a220d69690602401600060405180830381600087803b15801561068657600080fd5b505af115801561069a573d6000803e3d6000fd5b5050505061054086858386610d43565b60208301515160008167ffffffffffffffff8111156106cb576106cb61113d565b60405190808252806020026020018201604052801561070457816020015b6106f1610faf565b8152602001906001900390816106e95790505b50905061070f611076565b60005b838110156108c65786602001518181518110610730576107306122d7565b602002602001015191506040518061010001604052808360000151815260200183602001518152602001836040015181526020018360600151815260200183608001516001600160a01b031681526020016040518061022001604052808560a001516000015181526020018560a001516020015181526020018560a001516040015181526020018560a0015160600151151581526020018560a0015160800151151581526020018560a0015160a00151151581526020016000151581526020018560a0015160c00151151581526020018560a0015160e00151151581526020018560a001516101000151151581526020018560a001516101200151151581526020018560a001516101400151151581526020018560a001516101600151151581526020016001151581526020018560a00151610180015115158152602001896001600160a01b031681526020018560a001516101a0015181525081526020018360c0015181526020018360e001518152508382815181106108b3576108b36122d7565b6020908102919091010152600101610712565b508551604080880151606089015191517f9e14fb800000000000000000000000000000000000000000000000000000000081526001600160a01b03881693639e14fb809361091b938d938992906004016126f1565b6020604051808303816000875af115801561093a573d6000803e3d6000fd5b505050506040513d601f19601f8201168201806040525081019061095e9190611ff9565b5050505050505050565b336001600160a01b0384168114801590610a4657506040517f348b684e0000000000000000000000000000000000000000000000000000000081526001600160a01b0382811660048301528581166024830152604482018590526064820184905260016084830181905260a48301527f0000000000000000000000004475b99b2f6f06c5048fe8c3839dfe2e5d744e65169063348b684e9060c401602060405180830381865afa158015610a20573d6000803e3d6000fd5b505050506040513d601f19601f82011682018060405250810190610a44919061274d565b155b15610a7d576040517f075fd2b100000000000000000000000000000000000000000000000000000000815260040160405180910390fd5b50505050565b602083015151600090818167ffffffffffffffff811115610aa657610aa661113d565b604051908082528060200260200182016040528015610adf57816020015b610acc610faf565b815260200190600190039081610ac45790505b509050610aea611076565b60005b83811015610ca15787602001518181518110610b0b57610b0b6122d7565b602002602001015191506040518061010001604052808360000151815260200183602001518152602001836040015181526020018360600151815260200183608001516001600160a01b031681526020016040518061022001604052808560a001516000015181526020018560a001516020015181526020018560a001516040015181526020018560a0015160600151151581526020018560a0015160800151151581526020018560a0015160a00151151581526020016000151581526020018560a0015160c00151151581526020018560a0015160e00151151581526020018560a001516101000151151581526020018560a001516101200151151581526020018560a001516101400151151581526020018560a001516101600151151581526020016001151581526020018560a001516101800151151581526020018a6001600160a01b031681526020018560a001516101a0015181525081526020018360c0015181526020018360e00151815250838281518110610c8e57610c8e6122d7565b6020908102919091010152600101610aed565b50604080880151606089015191517f21df42e80000000000000000000000000000000000000000000000000000000081526001600160a01b038816926321df42e892610cf4928d9288929160040161276a565b6020604051808303816000875af1158015610d13573d6000803e3d6000fd5b505050506040513d601f19601f82011682018060405250810190610d379190611ff9565b98975050505050505050565b602083015151600090818167ffffffffffffffff811115610d6657610d6661113d565b604051908082528060200260200182016040528015610d9f57816020015b610d8c610faf565b815260200190600190039081610d845790505b509050610daa611076565b60005b83811015610f615787602001518181518110610dcb57610dcb6122d7565b602002602001015191506040518061010001604052808360000151815260200183602001518152602001836040015181526020018360600151815260200183608001516001600160a01b031681526020016040518061022001604052808560a001516000015181526020018560a001516020015181526020018560a001516040015181526020018560a0015160600151151581526020018560a0015160800151151581526020018560a0015160a00151151581526020016000151581526020018560a0015160c00151151581526020018560a0015160e00151151581526020018560a001516101000151151581526020018560a001516101200151151581526020018560a001516101400151151581526020018560a001516101600151151581526020016001151581526020018560a001516101800151151581526020018a6001600160a01b031681526020018560a001516101a0015181525081526020018360c0015181526020018360e00151815250838281518110610f4e57610f4e6122d7565b6020908102919091010152600101610dad565b5060408088015190517fc05120310000000000000000000000000000000000000000000000000000000081526001600160a01b0387169163c051203191610cf4918c918791906004016127b4565b6040805161010080820183526000808352602080840182905283850182905260608085018390526080808601849052865161022081018852848152928301849052958201839052810182905293840181905260a084810182905260c0850182905260e0850182905291840181905261012084018190526101408401819052610160840181905261018084018190526101a084018190526101c084018190526101e084018190526102008401529091908201905b815260200160608152602001606081525090565b604080516101008082018352600080835260208084018290528385018290526060808501839052608080860184905286516101c081018852848152928301849052958201839052810182905293840181905260a084810182905260c0850182905260e0850182905291840181905261012084018190526101408401819052610160840181905261018084018190526101a0840152909190820190611062565b6001600160a01b038116811461112a57600080fd5b50565b803561113881611115565b919050565b634e487b7160e01b600052604160045260246000fd5b6040516080810167ffffffffffffffff811182821017156111765761117661113d565b60405290565b604051610180810167ffffffffffffffff811182821017156111765761117661113d565b604051610120810167ffffffffffffffff811182821017156111765761117661113d565b6040516101c0810167ffffffffffffffff811182821017156111765761117661113d565b6040805190810167ffffffffffffffff811182821017156111765761117661113d565b60405160c0810167ffffffffffffffff811182821017156111765761117661113d565b604051610100810167ffffffffffffffff811182821017156111765761117661113d565b6040516060810167ffffffffffffffff811182821017156111765761117661113d565b604051601f8201601f1916810167ffffffffffffffff8111828210171561129e5761129e61113d565b604052919050565b600082601f8301126112b757600080fd5b813567ffffffffffffffff8111156112d1576112d161113d565b6112e4601f8201601f1916602001611275565b8181528460208386010111156112f957600080fd5b816020850160208301376000918101602001919091529392505050565b600067ffffffffffffffff8211156113305761133061113d565b5060051b60200190565b80356cffffffffffffffffffffffffff8116811461113857600080fd5b803563ffffffff8116811461113857600080fd5b803561ffff8116811461113857600080fd5b803562ffffff8116811461113857600080fd5b801515811461112a57600080fd5b803561113881611390565b803560ff8116811461113857600080fd5b600060808083850312156113cd57600080fd5b6113d5611153565b9150823567ffffffffffffffff8111156113ee57600080fd5b8301601f810185136113ff57600080fd5b8035602061141461140f83611316565b611275565b828152610180928302840182019282820191908985111561143457600080fd5b948301945b848610156115275780868b0312156114515760008081fd5b61145961117c565b6114628761133a565b815261146f858801611357565b858201526040611480818901611357565b90820152606061149188820161136b565b908201526114a087890161112d565b8189015260a0878101359082015260c06114bb81890161137d565b9082015260e06114cc88820161139e565b908201526101006114de88820161139e565b908201526101206114f088820161139e565b9082015261014061150288820161139e565b9082015261016061151488820161139e565b9082015283529485019491830191611439565b50865250611536868201611357565b818601525050505061154a604083016113a9565b604082015261155b6060830161112d565b606082015292915050565b60006080828403121561157857600080fd5b611580611153565b9050813561158d81611390565b8152602082013561159d81611390565b602082015260408201356115b081611390565b6040820152606082013561155b81611390565b600061018082840312156115d657600080fd5b6115de6111a0565b9050813567ffffffffffffffff808211156115f857600080fd5b611604858386016112a6565b8352602084013591508082111561161a57600080fd5b611626858386016112a6565b60208401526116376040850161112d565b6040840152606084013591508082111561165057600080fd5b61165c858386016112a6565b606084015261166d6080850161112d565b608084015260a084013591508082111561168657600080fd5b611692858386016112a6565b60a084015260c08401359150808211156116ab57600080fd5b506116b8848285016113ba565b60c0830152506116ca60e0830161112d565b60e08201526101006116de84828501611566565b9082015292915050565b60006101c082840312156116fb57600080fd5b6117036111c4565b90508135815260208201356020820152604082013560408201526117296060830161139e565b606082015261173a6080830161139e565b608082015261174b60a0830161139e565b60a082015261175c60c0830161139e565b60c082015261176d60e0830161139e565b60e082015261010061178081840161139e565b9082015261012061179283820161139e565b908201526101406117a483820161139e565b908201526101606117b683820161139e565b908201526101806117c883820161139e565b81830152506101a080830135818301525092915050565b600082601f8301126117f057600080fd5b8135602061180061140f83611316565b82815260059290921b8401810191818101908684111561181f57600080fd5b8286015b8481101561195957803567ffffffffffffffff8082111561184357600080fd5b908801906040828b03601f190181131561185c57600080fd5b6118646111e8565b878401358152818401358381111561187b57600080fd5b8085019450508b603f85011261189057600080fd5b8784013592506118a261140f84611316565b83815260c09093028401820192888101908d8511156118c057600080fd5b948301945b848610156119445760c0868f0312156118dd57600080fd5b6118e561120b565b86356118f081611390565b8152868b01358b8201528487013585820152606087013561191081611115565b60608201526080878101359082015260a087013561192d81611115565b60a0820152825260c09590950194908901906118c5565b828a0152508652505050918301918301611823565b509695505050505050565b600082601f83011261197557600080fd5b8135602061198561140f83611316565b82815260069290921b840181019181810190868411156119a457600080fd5b8286015b8481101561195957604081890312156119c15760008081fd5b6119c96111e8565b8135815284820135858201528352918301916040016119a8565b600082601f8301126119f457600080fd5b81356020611a0461140f83611316565b82815260059290921b84018101918181019086841115611a2357600080fd5b8286015b8481101561195957803567ffffffffffffffff80821115611a485760008081fd5b908801906080828b03601f1901811315611a625760008081fd5b611a6a611153565b87840135611a7781611115565b8152604084810135611a8881611115565b828a015260608581013585811115611aa05760008081fd5b611aae8f8c838a0101611964565b8484015250928501359284841115611ac857600091508182fd5b611ad68e8b86890101611964565b90830152508652505050918301918301611a27565b600082601f830112611afc57600080fd5b81356020611b0c61140f83611316565b82815260059290921b84018101918181019086841115611b2b57600080fd5b8286015b8481101561195957803567ffffffffffffffff80821115611b505760008081fd5b908801906102a0828b03601f1901811315611b6b5760008081fd5b611b7361122e565b87840135815260408085013589830152606080860135828401526080915081860135818401525060a0611ba781870161112d565b8284015260c09150611bbb8e8388016116e8565b9083015261028085013584811115611bd35760008081fd5b611be18e8b838901016117df565b82840152505081840135915082821115611bfb5760008081fd5b611c098c89848701016119e3565b60e08201528652505050918301918301611b2f565b600082601f830112611c2f57600080fd5b81356020611c3f61140f83611316565b828152600592831b8501820192828201919087851115611c5e57600080fd5b8387015b85811015611d4c57803567ffffffffffffffff80821115611c835760008081fd5b908901906040828c03601f1901811315611c9d5760008081fd5b611ca56111e8565b88840135611cb281611115565b81528382013583811115611cc65760008081fd5b8085019450508c603f850112611cde57600092508283fd5b888401359250611cf061140f84611316565b83815292861b8401820192898101908e851115611d0d5760008081fd5b948301945b84861015611d375785359350611d2784611115565b838252948a0194908a0190611d12565b828b0152508752505050928401928401611c62565b5090979650505050505050565b60008060008060808587031215611d6f57600080fd5b8435611d7a81611115565b9350602085013567ffffffffffffffff80821115611d9757600080fd5b611da3888389016115c3565b94506040870135915080821115611db957600080fd5b9086019060808289031215611dcd57600080fd5b611dd5611153565b823582811115611de457600080fd5b611df08a8286016112a6565b825250602083013582811115611e0557600080fd5b611e118a828601611aeb565b602083015250604083013582811115611e2957600080fd5b611e358a828601611c1e565b604083015250606083013582811115611e4d57600080fd5b611e598a8286016112a6565b606083015250809450505050611e716060860161112d565b905092959194509250565b60008060008060808587031215611e9257600080fd5b84359350602085013567ffffffffffffffff80821115611eb157600080fd5b611ebd888389016115c3565b94506040870135915080821115611ed357600080fd5b9086019060808289031215611ee757600080fd5b611eef611153565b82358152602083013582811115611e0557600080fd5b60008060008060808587031215611f1b57600080fd5b84359350602085013567ffffffffffffffff80821115611f3a57600080fd5b611f46888389016115c3565b94506040870135915080821115611f5c57600080fd5b9086019060608289031215611f7057600080fd5b611f78611252565b82358152602083013582811115611f8e57600080fd5b611f9a8a828601611aeb565b602083015250604083013582811115611fb257600080fd5b611fbe8a8286016112a6565b6040830152509350611e719150506060860161112d565b600060208284031215611fe757600080fd5b8151611ff281611115565b9392505050565b60006020828403121561200b57600080fd5b5051919050565b8082018082111561203357634e487b7160e01b600052601160045260246000fd5b92915050565b6000815180845260005b8181101561205f57602081850181015186830182015201612043565b506000602082860101526020601f19601f83011685010191505092915050565b80516080808452815184820181905260009260a0916020918201918388019190865b8281101561216457845180516cffffffffffffffffffffffffff1685528281015163ffffffff908116848701526040808301519091169086015260608082015161ffff1690860152878101516001600160a01b031688860152868101518786015260c08082015162ffffff169086015260e0808201511515908601526101008082015115159086015261012080820151151590860152610140808201511515908601526101609081015115159085015293810193610180909301926001016120a1565b508781015163ffffffff16908901525060408087015160ff16908801526060808701516001600160a01b038116918901919091529350610540565b828152604060208201526000825161018060408401526121c36101c0840182612039565b90506020840151603f19808584030160608601526121e18383612039565b9250604086015191506121ff60808601836001600160a01b03169052565b60608601519150808584030160a086015261221a8383612039565b92506080860151915061223860c08601836001600160a01b03169052565b60a08601519150808584030160e08601526122538383612039565b925060c08601519150610100818685030181870152612272848461207f565b935060e087015192506122916101208701846001600160a01b03169052565b860151805115156101408701526020810151151561016087015260408101511515610180870152606081015115156101a087015291506122ce9050565b50949350505050565b634e487b7160e01b600052603260045260246000fd5b8051825260208101516020830152604081015160408301526060810151612318606084018215159052565b50608081015161232c608084018215159052565b5060a081015161234060a084018215159052565b5060c081015161235460c084018215159052565b5060e081015161236860e084018215159052565b5061010081810151151590830152610120808201511515908301526101408082015115159083015261016080820151151590830152610180808201511515908301526101a0808201511515908301526101c0808201511515908301526101e0808201516001600160a01b03169083015261020090810151910152565b600082825180855260208086019550808260051b8401018186016000805b858110156124aa57868403601f19018a52825180518552850151604086860181905281518187018190529187019160609081880190865b818110156124935785518051151584528b8101518c8501528581015186850152848101516001600160a01b03908116868601526080808301519086015260a0918201511690840152948a019460c090920191600101612439565b50509c88019c965050509285019250600101612402565b509198975050505050505050565b60008151808452602080850194506020840160005b838110156124f45781518051885283015183880152604090960195908201906001016124cd565b509495945050505050565b600082825180855260208086019550808260051b84010181860160005b84811015611d4c57601f19868403018952815160806001600160a01b0380835116865280878401511687870152506040808301518282880152612561838801826124b8565b925050506060808301519250858203818701525061257f81836124b8565b9a86019a945050509083019060010161251c565b600082825180855260208086019550808260051b84010181860160005b84811015611d4c57858303601f19018952815180518452848101518585015260408082015190850152606080820151908501526080808201516001600160a01b03169085015260a080820151610300919061260d828801826122ed565b505060c0820151816102c0870152612627828701826123e4565b91505060e082015191508481036102e086015261264481836124ff565b9a86019a94505050908301906001016125b0565b600082825180855260208086019550808260051b8401018186016000805b858110156124aa57868403601f19018a52825180516001600160a01b03908116865290860151604087870181905281519087018190529087019160608701918591905b808310156126db578451821684529389019392890192600192909201916126b9565b5050509a86019a94505091840191600101612676565b6001600160a01b038616815260a06020820152600061271360a0830187612039565b82810360408401526127258187612593565b905082810360608401526127398186612658565b90508281036080840152610d378185612039565b60006020828403121561275f57600080fd5b8151611ff281611390565b8481526080602082015260006127836080830186612593565b82810360408401526127958186612658565b905082810360608401526127a98185612039565b979650505050505050565b8381526060602082015260006127cd6060830185612593565b8281036040840152610540818561203956fea26469706673582212201d1dc8a7560e4d0a8c637649995be54ee410bf6a1d3d6657fb32d929b3a7cc8d64736f6c63430008170033",
	"devdoc": {
		"kind": "dev",
		"methods": {
			"constructor": {
				"params": {
					"directory": "The directory of terminals and controllers for projects.",
					"hookDeployer": "The 721 tiers hook deployer.",
					"permissions": "A contract storing permissions."
				}
			},
			"launchProjectFor(address,(string,string,address,string,address,string,((uint104,uint32,uint32,uint16,address,bytes32,uint24,bool,bool,bool,bool,bool)[],uint32,uint8,address),address,(bool,bool,bool,bool)),(string,(uint256,uint256,uint256,uint256,address,(uint256,uint256,uint256,bool,bool,bool,bool,bool,bool,bool,bool,bool,bool,uint256),(uint256,(bool,uint256,uint256,address,uint256,address)[])[],(address,address,(uint256,uint256)[],(uint256,uint256)[])[])[],(address,address[])[],string),address)": {
				"params": {
					"controller": "The controller that the project's rulesets will be queued with.",
					"deployTiersHookConfig": "Configuration which dictates the behavior of the 721 tiers hook which is being deployed.",
					"launchProjectConfig": "Configuration which dictates the behavior of the project which is being launched.",
					"owner": "The address to set as the owner of the project. The ERC-721 which confers this project's ownership will be sent to this address."
				},
				"returns": {
					"projectId": "The ID of the newly launched project."
				}
			},
			"launchRulesetsFor(uint256,(string,string,address,string,address,string,((uint104,uint32,uint32,uint16,address,bytes32,uint24,bool,bool,bool,bool,bool)[],uint32,uint8,address),address,(bool,bool,bool,bool)),(uint256,(uint256,uint256,uint256,uint256,address,(uint256,uint256,uint256,bool,bool,bool,bool,bool,bool,bool,bool,bool,bool,uint256),(uint256,(bool,uint256,uint256,address,uint256,address)[])[],(address,address,(uint256,uint256)[],(uint256,uint256)[])[])[],(address,address[])[],string),address)": {
				"details": "Only a project's owner or an operator with the `QUEUE_RULESETS` permission can launch its rulesets.",
				"params": {
					"controller": "The controller that the project's rulesets will be queued with.",
					"deployTiersHookConfig": "Configuration which dictates the behavior of the 721 tiers hook which is being deployed.",
					"launchRulesetsConfig": "Configuration which dictates the project's new rulesets.",
					"projectId": "The ID of the project that rulesets are being launched for."
				},
				"returns": {
					"rulesetId": "The ID of the successfully created ruleset."
				}
			},
			"queueRulesetsOf(uint256,(string,string,address,string,address,string,((uint104,uint32,uint32,uint16,address,bytes32,uint24,bool,bool,bool,bool,bool)[],uint32,uint8,address),address,(bool,bool,bool,bool)),(uint256,(uint256,uint256,uint256,uint256,address,(uint256,uint256,uint256,bool,bool,bool,bool,bool,bool,bool,bool,bool,bool,uint256),(uint256,(bool,uint256,uint256,address,uint256,address)[])[],(address,address,(uint256,uint256)[],(uint256,uint256)[])[])[],string),address)": {
				"details": "Only a project's owner or an operator with the `QUEUE_RULESETS` permission can queue its rulesets.",
				"params": {
					"controller": "The controller that the project's rulesets will be queued with.",
					"deployTiersHookConfig": "Configuration which dictates the behavior of the 721 tiers hook which is being deployed.",
					"projectId": "The ID of the project that rulesets are being queued for.",
					"queueRulesetsConfig": "Configuration which dictates the project's newly queued rulesets."
				},
				"returns": {
					"rulesetId": "The ID of the successfully created ruleset."
				}
			}
		},
		"version": 1
	},
	"userdoc": {
		"kind": "user",
		"methods": {
			"DIRECTORY()": {
				"notice": "The directory of terminals and controllers for projects."
			},
			"HOOK_DEPLOYER()": {
				"notice": "The 721 tiers hook deployer."
			},
			"PERMISSIONS()": {
				"notice": "A contract storing permissions."
			},
			"launchProjectFor(address,(string,string,address,string,address,string,((uint104,uint32,uint32,uint16,address,bytes32,uint24,bool,bool,bool,bool,bool)[],uint32,uint8,address),address,(bool,bool,bool,bool)),(string,(uint256,uint256,uint256,uint256,address,(uint256,uint256,uint256,bool,bool,bool,bool,bool,bool,bool,bool,bool,bool,uint256),(uint256,(bool,uint256,uint256,address,uint256,address)[])[],(address,address,(uint256,uint256)[],(uint256,uint256)[])[])[],(address,address[])[],string),address)": {
				"notice": "Launches a new project with a 721 tiers hook attached."
			},
			"launchRulesetsFor(uint256,(string,string,address,string,address,string,((uint104,uint32,uint32,uint16,address,bytes32,uint24,bool,bool,bool,bool,bool)[],uint32,uint8,address),address,(bool,bool,bool,bool)),(uint256,(uint256,uint256,uint256,uint256,address,(uint256,uint256,uint256,bool,bool,bool,bool,bool,bool,bool,bool,bool,bool,uint256),(uint256,(bool,uint256,uint256,address,uint256,address)[])[],(address,address,(uint256,uint256)[],(uint256,uint256)[])[])[],(address,address[])[],string),address)": {
				"notice": "Launches rulesets for a project with an attached 721 tiers hook."
			},
			"queueRulesetsOf(uint256,(string,string,address,string,address,string,((uint104,uint32,uint32,uint16,address,bytes32,uint24,bool,bool,bool,bool,bool)[],uint32,uint8,address),address,(bool,bool,bool,bool)),(uint256,(uint256,uint256,uint256,uint256,address,(uint256,uint256,uint256,bool,bool,bool,bool,bool,bool,bool,bool,bool,bool,uint256),(uint256,(bool,uint256,uint256,address,uint256,address)[])[],(address,address,(uint256,uint256)[],(uint256,uint256)[])[])[],string),address)": {
				"notice": "Queues rulesets for a project with an attached 721 tiers hook."
			}
		},
		"version": 1
	},
	"gitCommit": "25d492e2002e347aa6573f5a389be455a787aa4c",
	"sourceName": "src/JB721TiersHookProjectDeployer.sol",
	"chainId": "11155111",
	"linkReferences": {},
	"deployedLinkReferences": {},
	"history": []
}