{
	"_format": "sphinx-sol-ct-artifact-1",
	"merkleRoot": "0x4c5ca08476b8a24e622ce29b192d65d12b6a0f60d37e34750e20058a1090d34c",
	"address": "0x71190bf81d35df42ad13b3d6a7176bdad890162d",
	"sourceName": "src/JB721TiersHookStore.sol",
	"contractName": "JB721TiersHookStore",
	"chainId": "0xaa36a7",
	"abi": [
		{
			"inputs": [
				{
					"internalType": "address",
					"name": "hook",
					"type": "address"
				},
				{
					"internalType": "address",
					"name": "owner",
					"type": "address"
				}
			],
			"name": "balanceOf",
			"outputs": [
				{
					"internalType": "uint256",
					"name": "balance",
					"type": "uint256"
				}
			],
			"stateMutability": "view",
			"type": "function"
		},
		{
			"inputs": [
				{
					"internalType": "address",
					"name": "hook",
					"type": "address"
				},
				{
					"internalType": "uint256[]",
					"name": "tokenIds",
					"type": "uint256[]"
				}
			],
			"name": "cashOutWeightOf",
			"outputs": [
				{
					"internalType": "uint256",
					"name": "weight",
					"type": "uint256"
				}
			],
			"stateMutability": "view",
			"type": "function"
		},
		{
			"inputs": [
				{
					"internalType": "address",
					"name": "hook",
					"type": "address"
				}
			],
			"name": "cleanTiers",
			"outputs": [],
			"stateMutability": "nonpayable",
			"type": "function"
		},
		{
			"inputs": [
				{
					"internalType": "address",
					"name": "hook",
					"type": "address"
				}
			],
			"name": "defaultReserveBeneficiaryOf",
			"outputs": [
				{
					"internalType": "address",
					"name": "",
					"type": "address"
				}
			],
			"stateMutability": "view",
			"type": "function"
		},
		{
			"inputs": [
				{
					"internalType": "address",
					"name": "hook",
					"type": "address"
				},
				{
					"internalType": "uint256",
					"name": "tierId",
					"type": "uint256"
				}
			],
			"name": "encodedIPFSUriOf",
			"outputs": [
				{
					"internalType": "bytes32",
					"name": "",
					"type": "bytes32"
				}
			],
			"stateMutability": "view",
			"type": "function"
		},
		{
			"inputs": [
				{
					"internalType": "address",
					"name": "hook",
					"type": "address"
				},
				{
					"internalType": "uint256",
					"name": "tokenId",
					"type": "uint256"
				}
			],
			"name": "encodedTierIPFSUriOf",
			"outputs": [
				{
					"internalType": "bytes32",
					"name": "",
					"type": "bytes32"
				}
			],
			"stateMutability": "view",
			"type": "function"
		},
		{
			"inputs": [
				{
					"internalType": "address",
					"name": "hook",
					"type": "address"
				}
			],
			"name": "flagsOf",
			"outputs": [
				{
					"components": [
						{
							"internalType": "bool",
							"name": "noNewTiersWithReserves",
							"type": "bool"
						},
						{
							"internalType": "bool",
							"name": "noNewTiersWithVotes",
							"type": "bool"
						},
						{
							"internalType": "bool",
							"name": "noNewTiersWithOwnerMinting",
							"type": "bool"
						},
						{
							"internalType": "bool",
							"name": "preventOverspending",
							"type": "bool"
						}
					],
					"internalType": "struct JB721TiersHookFlags",
					"name": "",
					"type": "tuple"
				}
			],
			"stateMutability": "view",
			"type": "function"
		},
		{
			"inputs": [
				{
					"internalType": "address",
					"name": "hook",
					"type": "address"
				},
				{
					"internalType": "uint256",
					"name": "tierId",
					"type": "uint256"
				}
			],
			"name": "isTierRemoved",
			"outputs": [
				{
					"internalType": "bool",
					"name": "",
					"type": "bool"
				}
			],
			"stateMutability": "view",
			"type": "function"
		},
		{
			"inputs": [
				{
					"internalType": "address",
					"name": "hook",
					"type": "address"
				}
			],
			"name": "maxTierIdOf",
			"outputs": [
				{
					"internalType": "uint256",
					"name": "",
					"type": "uint256"
				}
			],
			"stateMutability": "view",
			"type": "function"
		},
		{
			"inputs": [
				{
					"internalType": "address",
					"name": "hook",
					"type": "address"
				},
				{
					"internalType": "uint256",
					"name": "tierId",
					"type": "uint256"
				}
			],
			"name": "numberOfBurnedFor",
			"outputs": [
				{
					"internalType": "uint256",
					"name": "",
					"type": "uint256"
				}
			],
			"stateMutability": "view",
			"type": "function"
		},
		{
			"inputs": [
				{
					"internalType": "address",
					"name": "hook",
					"type": "address"
				},
				{
					"internalType": "uint256",
					"name": "tierId",
					"type": "uint256"
				}
			],
			"name": "numberOfPendingReservesFor",
			"outputs": [
				{
					"internalType": "uint256",
					"name": "",
					"type": "uint256"
				}
			],
			"stateMutability": "view",
			"type": "function"
		},
		{
			"inputs": [
				{
					"internalType": "address",
					"name": "hook",
					"type": "address"
				},
				{
					"internalType": "uint256",
					"name": "tierId",
					"type": "uint256"
				}
			],
			"name": "numberOfReservesMintedFor",
			"outputs": [
				{
					"internalType": "uint256",
					"name": "",
					"type": "uint256"
				}
			],
			"stateMutability": "view",
			"type": "function"
		},
		{
			"inputs": [
				{
					"components": [
						{
							"internalType": "uint104",
							"name": "price",
							"type": "uint104"
						},
						{
							"internalType": "uint32",
							"name": "initialSupply",
							"type": "uint32"
						},
						{
							"internalType": "uint32",
							"name": "votingUnits",
							"type": "uint32"
						},
						{
							"internalType": "uint16",
							"name": "reserveFrequency",
							"type": "uint16"
						},
						{
							"internalType": "address",
							"name": "reserveBeneficiary",
							"type": "address"
						},
						{
							"internalType": "bytes32",
							"name": "encodedIPFSUri",
							"type": "bytes32"
						},
						{
							"internalType": "uint24",
							"name": "category",
							"type": "uint24"
						},
						{
							"internalType": "uint8",
							"name": "discountPercent",
							"type": "uint8"
						},
						{
							"internalType": "bool",
							"name": "allowOwnerMint",
							"type": "bool"
						},
						{
							"internalType": "bool",
							"name": "useReserveBeneficiaryAsDefault",
							"type": "bool"
						},
						{
							"internalType": "bool",
							"name": "transfersPausable",
							"type": "bool"
						},
						{
							"internalType": "bool",
							"name": "useVotingUnits",
							"type": "bool"
						},
						{
							"internalType": "bool",
							"name": "cannotBeRemoved",
							"type": "bool"
						},
						{
							"internalType": "bool",
							"name": "cannotIncreaseDiscountPercent",
							"type": "bool"
						}
					],
					"internalType": "struct JB721TierConfig[]",
					"name": "tiersToAdd",
					"type": "tuple[]"
				}
			],
			"name": "recordAddTiers",
			"outputs": [
				{
					"internalType": "uint256[]",
					"name": "tierIds",
					"type": "uint256[]"
				}
			],
			"stateMutability": "nonpayable",
			"type": "function"
		},
		{
			"inputs": [
				{
					"internalType": "uint256[]",
					"name": "tokenIds",
					"type": "uint256[]"
				}
			],
			"name": "recordBurn",
			"outputs": [],
			"stateMutability": "nonpayable",
			"type": "function"
		},
		{
			"inputs": [
				{
					"components": [
						{
							"internalType": "bool",
							"name": "noNewTiersWithReserves",
							"type": "bool"
						},
						{
							"internalType": "bool",
							"name": "noNewTiersWithVotes",
							"type": "bool"
						},
						{
							"internalType": "bool",
							"name": "noNewTiersWithOwnerMinting",
							"type": "bool"
						},
						{
							"internalType": "bool",
							"name": "preventOverspending",
							"type": "bool"
						}
					],
					"internalType": "struct JB721TiersHookFlags",
					"name": "flags",
					"type": "tuple"
				}
			],
			"name": "recordFlags",
			"outputs": [],
			"stateMutability": "nonpayable",
			"type": "function"
		},
		{
			"inputs": [
				{
					"internalType": "uint256",
					"name": "amount",
					"type": "uint256"
				},
				{
					"internalType": "uint16[]",
					"name": "tierIds",
					"type": "uint16[]"
				},
				{
					"internalType": "bool",
					"name": "isOwnerMint",
					"type": "bool"
				}
			],
			"name": "recordMint",
			"outputs": [
				{
					"internalType": "uint256[]",
					"name": "tokenIds",
					"type": "uint256[]"
				},
				{
					"internalType": "uint256",
					"name": "leftoverAmount",
					"type": "uint256"
				}
			],
			"stateMutability": "nonpayable",
			"type": "function"
		},
		{
			"inputs": [
				{
					"internalType": "uint256",
					"name": "tierId",
					"type": "uint256"
				},
				{
					"internalType": "uint256",
					"name": "count",
					"type": "uint256"
				}
			],
			"name": "recordMintReservesFor",
			"outputs": [
				{
					"internalType": "uint256[]",
					"name": "tokenIds",
					"type": "uint256[]"
				}
			],
			"stateMutability": "nonpayable",
			"type": "function"
		},
		{
			"inputs": [
				{
					"internalType": "uint256[]",
					"name": "tierIds",
					"type": "uint256[]"
				}
			],
			"name": "recordRemoveTierIds",
			"outputs": [],
			"stateMutability": "nonpayable",
			"type": "function"
		},
		{
			"inputs": [
				{
					"internalType": "uint256",
					"name": "tierId",
					"type": "uint256"
				},
				{
					"internalType": "uint256",
					"name": "discountPercent",
					"type": "uint256"
				}
			],
			"name": "recordSetDiscountPercentOf",
			"outputs": [],
			"stateMutability": "nonpayable",
			"type": "function"
		},
		{
			"inputs": [
				{
					"internalType": "uint256",
					"name": "tierId",
					"type": "uint256"
				},
				{
					"internalType": "bytes32",
					"name": "encodedIPFSUri",
					"type": "bytes32"
				}
			],
			"name": "recordSetEncodedIPFSUriOf",
			"outputs": [],
			"stateMutability": "nonpayable",
			"type": "function"
		},
		{
			"inputs": [
				{
					"internalType": "contract IJB721TokenUriResolver",
					"name": "resolver",
					"type": "address"
				}
			],
			"name": "recordSetTokenUriResolver",
			"outputs": [],
			"stateMutability": "nonpayable",
			"type": "function"
		},
		{
			"inputs": [
				{
					"internalType": "uint256",
					"name": "tierId",
					"type": "uint256"
				},
				{
					"internalType": "address",
					"name": "from",
					"type": "address"
				},
				{
					"internalType": "address",
					"name": "to",
					"type": "address"
				}
			],
			"name": "recordTransferForTier",
			"outputs": [],
			"stateMutability": "nonpayable",
			"type": "function"
		},
		{
			"inputs": [
				{
					"internalType": "address",
					"name": "hook",
					"type": "address"
				},
				{
					"internalType": "uint256",
					"name": "tierId",
					"type": "uint256"
				}
			],
			"name": "reserveBeneficiaryOf",
			"outputs": [
				{
					"internalType": "address",
					"name": "",
					"type": "address"
				}
			],
			"stateMutability": "view",
			"type": "function"
		},
		{
			"inputs": [
				{
					"internalType": "address",
					"name": "hook",
					"type": "address"
				},
				{
					"internalType": "address",
					"name": "owner",
					"type": "address"
				},
				{
					"internalType": "uint256",
					"name": "tierId",
					"type": "uint256"
				}
			],
			"name": "tierBalanceOf",
			"outputs": [
				{
					"internalType": "uint256",
					"name": "",
					"type": "uint256"
				}
			],
			"stateMutability": "view",
			"type": "function"
		},
		{
			"inputs": [
				{
					"internalType": "uint256",
					"name": "tokenId",
					"type": "uint256"
				}
			],
			"name": "tierIdOfToken",
			"outputs": [
				{
					"internalType": "uint256",
					"name": "",
					"type": "uint256"
				}
			],
			"stateMutability": "pure",
			"type": "function"
		},
		{
			"inputs": [
				{
					"internalType": "address",
					"name": "hook",
					"type": "address"
				},
				{
					"internalType": "uint256",
					"name": "id",
					"type": "uint256"
				},
				{
					"internalType": "bool",
					"name": "includeResolvedUri",
					"type": "bool"
				}
			],
			"name": "tierOf",
			"outputs": [
				{
					"components": [
						{
							"internalType": "uint32",
							"name": "id",
							"type": "uint32"
						},
						{
							"internalType": "uint104",
							"name": "price",
							"type": "uint104"
						},
						{
							"internalType": "uint32",
							"name": "remainingSupply",
							"type": "uint32"
						},
						{
							"internalType": "uint32",
							"name": "initialSupply",
							"type": "uint32"
						},
						{
							"internalType": "uint104",
							"name": "votingUnits",
							"type": "uint104"
						},
						{
							"internalType": "uint16",
							"name": "reserveFrequency",
							"type": "uint16"
						},
						{
							"internalType": "address",
							"name": "reserveBeneficiary",
							"type": "address"
						},
						{
							"internalType": "bytes32",
							"name": "encodedIPFSUri",
							"type": "bytes32"
						},
						{
							"internalType": "uint24",
							"name": "category",
							"type": "uint24"
						},
						{
							"internalType": "uint8",
							"name": "discountPercent",
							"type": "uint8"
						},
						{
							"internalType": "bool",
							"name": "allowOwnerMint",
							"type": "bool"
						},
						{
							"internalType": "bool",
							"name": "transfersPausable",
							"type": "bool"
						},
						{
							"internalType": "bool",
							"name": "cannotBeRemoved",
							"type": "bool"
						},
						{
							"internalType": "bool",
							"name": "cannotIncreaseDiscountPercent",
							"type": "bool"
						},
						{
							"internalType": "string",
							"name": "resolvedUri",
							"type": "string"
						}
					],
					"internalType": "struct JB721Tier",
					"name": "",
					"type": "tuple"
				}
			],
			"stateMutability": "view",
			"type": "function"
		},
		{
			"inputs": [
				{
					"internalType": "address",
					"name": "hook",
					"type": "address"
				},
				{
					"internalType": "uint256",
					"name": "tokenId",
					"type": "uint256"
				},
				{
					"internalType": "bool",
					"name": "includeResolvedUri",
					"type": "bool"
				}
			],
			"name": "tierOfTokenId",
			"outputs": [
				{
					"components": [
						{
							"internalType": "uint32",
							"name": "id",
							"type": "uint32"
						},
						{
							"internalType": "uint104",
							"name": "price",
							"type": "uint104"
						},
						{
							"internalType": "uint32",
							"name": "remainingSupply",
							"type": "uint32"
						},
						{
							"internalType": "uint32",
							"name": "initialSupply",
							"type": "uint32"
						},
						{
							"internalType": "uint104",
							"name": "votingUnits",
							"type": "uint104"
						},
						{
							"internalType": "uint16",
							"name": "reserveFrequency",
							"type": "uint16"
						},
						{
							"internalType": "address",
							"name": "reserveBeneficiary",
							"type": "address"
						},
						{
							"internalType": "bytes32",
							"name": "encodedIPFSUri",
							"type": "bytes32"
						},
						{
							"internalType": "uint24",
							"name": "category",
							"type": "uint24"
						},
						{
							"internalType": "uint8",
							"name": "discountPercent",
							"type": "uint8"
						},
						{
							"internalType": "bool",
							"name": "allowOwnerMint",
							"type": "bool"
						},
						{
							"internalType": "bool",
							"name": "transfersPausable",
							"type": "bool"
						},
						{
							"internalType": "bool",
							"name": "cannotBeRemoved",
							"type": "bool"
						},
						{
							"internalType": "bool",
							"name": "cannotIncreaseDiscountPercent",
							"type": "bool"
						},
						{
							"internalType": "string",
							"name": "resolvedUri",
							"type": "string"
						}
					],
					"internalType": "struct JB721Tier",
					"name": "",
					"type": "tuple"
				}
			],
			"stateMutability": "view",
			"type": "function"
		},
		{
			"inputs": [
				{
					"internalType": "address",
					"name": "hook",
					"type": "address"
				},
				{
					"internalType": "address",
					"name": "account",
					"type": "address"
				},
				{
					"internalType": "uint256",
					"name": "tierId",
					"type": "uint256"
				}
			],
			"name": "tierVotingUnitsOf",
			"outputs": [
				{
					"internalType": "uint256",
					"name": "",
					"type": "uint256"
				}
			],
			"stateMutability": "view",
			"type": "function"
		},
		{
			"inputs": [
				{
					"internalType": "address",
					"name": "hook",
					"type": "address"
				},
				{
					"internalType": "uint256[]",
					"name": "categories",
					"type": "uint256[]"
				},
				{
					"internalType": "bool",
					"name": "includeResolvedUri",
					"type": "bool"
				},
				{
					"internalType": "uint256",
					"name": "startingId",
					"type": "uint256"
				},
				{
					"internalType": "uint256",
					"name": "size",
					"type": "uint256"
				}
			],
			"name": "tiersOf",
			"outputs": [
				{
					"components": [
						{
							"internalType": "uint32",
							"name": "id",
							"type": "uint32"
						},
						{
							"internalType": "uint104",
							"name": "price",
							"type": "uint104"
						},
						{
							"internalType": "uint32",
							"name": "remainingSupply",
							"type": "uint32"
						},
						{
							"internalType": "uint32",
							"name": "initialSupply",
							"type": "uint32"
						},
						{
							"internalType": "uint104",
							"name": "votingUnits",
							"type": "uint104"
						},
						{
							"internalType": "uint16",
							"name": "reserveFrequency",
							"type": "uint16"
						},
						{
							"internalType": "address",
							"name": "reserveBeneficiary",
							"type": "address"
						},
						{
							"internalType": "bytes32",
							"name": "encodedIPFSUri",
							"type": "bytes32"
						},
						{
							"internalType": "uint24",
							"name": "category",
							"type": "uint24"
						},
						{
							"internalType": "uint8",
							"name": "discountPercent",
							"type": "uint8"
						},
						{
							"internalType": "bool",
							"name": "allowOwnerMint",
							"type": "bool"
						},
						{
							"internalType": "bool",
							"name": "transfersPausable",
							"type": "bool"
						},
						{
							"internalType": "bool",
							"name": "cannotBeRemoved",
							"type": "bool"
						},
						{
							"internalType": "bool",
							"name": "cannotIncreaseDiscountPercent",
							"type": "bool"
						},
						{
							"internalType": "string",
							"name": "resolvedUri",
							"type": "string"
						}
					],
					"internalType": "struct JB721Tier[]",
					"name": "tiers",
					"type": "tuple[]"
				}
			],
			"stateMutability": "view",
			"type": "function"
		},
		{
			"inputs": [
				{
					"internalType": "address",
					"name": "hook",
					"type": "address"
				}
			],
			"name": "tokenUriResolverOf",
			"outputs": [
				{
					"internalType": "contract IJB721TokenUriResolver",
					"name": "",
					"type": "address"
				}
			],
			"stateMutability": "view",
			"type": "function"
		},
		{
			"inputs": [
				{
					"internalType": "address",
					"name": "hook",
					"type": "address"
				}
			],
			"name": "totalCashOutWeight",
			"outputs": [
				{
					"internalType": "uint256",
					"name": "weight",
					"type": "uint256"
				}
			],
			"stateMutability": "view",
			"type": "function"
		},
		{
			"inputs": [
				{
					"internalType": "address",
					"name": "hook",
					"type": "address"
				}
			],
			"name": "totalSupplyOf",
			"outputs": [
				{
					"internalType": "uint256",
					"name": "supply",
					"type": "uint256"
				}
			],
			"stateMutability": "view",
			"type": "function"
		},
		{
			"inputs": [
				{
					"internalType": "address",
					"name": "hook",
					"type": "address"
				},
				{
					"internalType": "address",
					"name": "account",
					"type": "address"
				}
			],
			"name": "votingUnitsOf",
			"outputs": [
				{
					"internalType": "uint256",
					"name": "units",
					"type": "uint256"
				}
			],
			"stateMutability": "view",
			"type": "function"
		},
		{
			"anonymous": false,
			"inputs": [
				{
					"indexed": true,
					"internalType": "address",
					"name": "hook",
					"type": "address"
				},
				{
					"indexed": false,
					"internalType": "address",
					"name": "caller",
					"type": "address"
				}
			],
			"name": "CleanTiers",
			"type": "event"
		},
		{
			"inputs": [],
			"name": "JB721TiersHookStore_CantMintManually",
			"type": "error"
		},
		{
			"inputs": [],
			"name": "JB721TiersHookStore_CantRemoveTier",
			"type": "error"
		},
		{
			"inputs": [
				{
					"internalType": "uint256",
					"name": "percent",
					"type": "uint256"
				},
				{
					"internalType": "uint256",
					"name": "limit",
					"type": "uint256"
				}
			],
			"name": "JB721TiersHookStore_DiscountPercentExceedsBounds",
			"type": "error"
		},
		{
			"inputs": [
				{
					"internalType": "uint256",
					"name": "percent",
					"type": "uint256"
				},
				{
					"internalType": "uint256",
					"name": "storedPercent",
					"type": "uint256"
				}
			],
			"name": "JB721TiersHookStore_DiscountPercentIncreaseNotAllowed",
			"type": "error"
		},
		{
			"inputs": [
				{
					"internalType": "uint256",
					"name": "count",
					"type": "uint256"
				},
				{
					"internalType": "uint256",
					"name": "numberOfPendingReserves",
					"type": "uint256"
				}
			],
			"name": "JB721TiersHookStore_InsufficientPendingReserves",
			"type": "error"
		},
		{
			"inputs": [],
			"name": "JB721TiersHookStore_InsufficientSupplyRemaining",
			"type": "error"
		},
		{
			"inputs": [
				{
					"internalType": "uint256",
					"name": "tierCategory",
					"type": "uint256"
				},
				{
					"internalType": "uint256",
					"name": "previousTierCategory",
					"type": "uint256"
				}
			],
			"name": "JB721TiersHookStore_InvalidCategorySortOrder",
			"type": "error"
		},
		{
			"inputs": [
				{
					"internalType": "uint256",
					"name": "quantity",
					"type": "uint256"
				},
				{
					"internalType": "uint256",
					"name": "limit",
					"type": "uint256"
				}
			],
			"name": "JB721TiersHookStore_InvalidQuantity",
			"type": "error"
		},
		{
			"inputs": [],
			"name": "JB721TiersHookStore_ManualMintingNotAllowed",
			"type": "error"
		},
		{
			"inputs": [
				{
					"internalType": "uint256",
					"name": "numberOfTiers",
					"type": "uint256"
				},
				{
					"internalType": "uint256",
					"name": "limit",
					"type": "uint256"
				}
			],
			"name": "JB721TiersHookStore_MaxTiersExceeded",
			"type": "error"
		},
		{
			"inputs": [
				{
					"internalType": "uint256",
					"name": "price",
					"type": "uint256"
				},
				{
					"internalType": "uint256",
					"name": "leftoverAmount",
					"type": "uint256"
				}
			],
			"name": "JB721TiersHookStore_PriceExceedsAmount",
			"type": "error"
		},
		{
			"inputs": [],
			"name": "JB721TiersHookStore_ReserveFrequencyNotAllowed",
			"type": "error"
		},
		{
			"inputs": [
				{
					"internalType": "uint256",
					"name": "tierId",
					"type": "uint256"
				}
			],
			"name": "JB721TiersHookStore_TierRemoved",
			"type": "error"
		},
		{
			"inputs": [],
			"name": "JB721TiersHookStore_UnrecognizedTier",
			"type": "error"
		},
		{
			"inputs": [],
			"name": "JB721TiersHookStore_VotingUnitsNotAllowed",
			"type": "error"
		},
		{
			"inputs": [],
			"name": "JB721TiersHookStore_ZeroInitialSupply",
			"type": "error"
		},
		{
			"inputs": [
				{
					"internalType": "uint256",
					"name": "x",
					"type": "uint256"
				},
				{
					"internalType": "uint256",
					"name": "y",
					"type": "uint256"
				},
				{
					"internalType": "uint256",
					"name": "denominator",
					"type": "uint256"
				}
			],
			"name": "PRBMath_MulDiv_Overflow",
			"type": "error"
		}
	],
	"args": [],
	"solcInputHash": "a53577c959d82e03cf153f462e938cbd",
	"bytecode": "0x608060405234801561001057600080fd5b506138b3806100206000396000f3fe608060405234801561001057600080fd5b506004361061020b5760003560e01c8063845104de1161012a578063c2c55f94116100bd578063cf9530d01161008c578063eaa19ab311610071578063eaa19ab31461064e578063f1bea54f1461066f578063f7888aec1461068f57600080fd5b8063cf9530d0146105f1578063d84a72c01461060457600080fd5b8063c2c55f94146105a5578063c44a8e6d146105b8578063c8df1710146105cb578063cb827e32146105de57600080fd5b80639403a74f116100f95780639403a74f146105345780639be748fb14610554578063baa7e80e14610567578063bd51923c1461057a57600080fd5b8063845104de1461042b57806386bc2be3146104fb5780638f2b90a71461050e578063933555781461052157600080fd5b806337f44652116101a2578063509a290211610171578063509a2902146103aa5780635f646611146103bd57806364faa159146103e05780636825bb801461040057600080fd5b806337f446521461032657806342f9914b1461035757806349bd1ac61461036a57806349e6fb671461039757600080fd5b80631f1d05ad116101de5780631f1d05ad146102a757806320512ba1146102c75780632b7e6ef0146102da5780632e4d0ea81461031357600080fd5b80630357300414610210578063086bb19a146102405780630fab094714610255578063114044921461027e575b600080fd5b61022361021e366004612e10565b6106a2565b6040516001600160a01b0390911681526020015b60405180910390f35b61025361024e366004612e3c565b6106fb565b005b610223610263366004612e3c565b6006602052600090815260409020546001600160a01b031681565b61022361028c366004612e3c565b6000602081905290815260409020546001600160a01b031681565b6102ba6102b5366004612e59565b61085b565b6040516102379190612f0b565b6102536102d5366004612f6a565b61120f565b6103056102e8366004612e10565b600360209081526000928352604080842090915290825290205481565b604051908152602001610237565b610305610321366004612fac565b6112ad565b610305610334366004612fac565b600560209081526000938452604080852082529284528284209052825290205481565b610305610365366004612fed565b611406565b610253610378366004613006565b3360009081526001602090815260408083209483529390529190912055565b6103056103a5366004612e3c565b611416565b6102536103b8366004613006565b611587565b6103d06103cb366004612e10565b611644565b6040519015158152602001610237565b6103f36103ee366004613041565b61167c565b60405161023791906131f7565b61030561040e366004612e10565b600460209081526000928352604080842090915290825290205481565b6104c0610439366004612e3c565b604080516080810182526000808252602082018190529181018290526060810191909152506001600160a01b03166000908152600760209081526040918290208251608081018452905460ff808216151583526101008204811615159383019390935262010000810483161515938201939093526301000000909204161515606082015290565b604051610237919081511515815260208083015115159082015260408083015115159082015260609182015115159181019190915260800190565b610253610509366004612f6a565b6117b5565b61030561051c366004612e10565b611824565b61030561052f36600461320a565b6118de565b610547610542366004613243565b611a72565b60405161023791906132bd565b610305610562366004613321565b611d9e565b6102ba610575366004613006565b611e1a565b610305610588366004612e10565b600160209081526000928352604080842090915290825290205481565b6102536105b3366004613376565b61201a565b6103f36105c6366004613041565b6120ad565b6103056105d9366004612e10565b6121f8565b6102536105ec3660046133ad565b612231565b6103056105ff366004612e3c565b61224c565b610253610612366004612e3c565b336000908152600660205260409020805473ffffffffffffffffffffffffffffffffffffffff19166001600160a01b0392909216919091179055565b61066161065c3660046133c5565b61236d565b604051610237929190613424565b61030561067d366004612e3c565b60026020526000908152604090205481565b61030561069d36600461320a565b61267c565b6001600160a01b038083166000908152600a6020908152604080832085845290915281205490911680156106d75790506106f5565b50506001600160a01b03808316600090815260208190526040902054165b92915050565b6000610706826126e9565b9050600061071583600061272a565b90506000610736604051806040016040528060008152602001600081525090565b821561081657610747858483612793565b6108045761075682600161345c565b83146107b2576001600160a01b0385166000908152600d6020908152604080832085845290915290205483146107ad576001600160a01b0385166000908152600d6020908152604080832085845290915290208390555b610800565b6001600160a01b0385166000908152600d6020908152604080832085845290915290205415610800576001600160a01b0385166000908152600d602090815260408083208584529091528120555b8291505b61080f8584866127ea565b9250610736565b6040513381526001600160a01b038616907f4a0f854ce3c180d56f3e9eb47eb064c595bf3de0ab9af45425291e5b1bb733a89060200160405180910390a25050505050565b3360009081526002602052604090205460609061ffff61087b848361345c565b11156108b55761088b838261345c565b604051631e9bcc6760e11b8152600481019190915261ffff60248201526044015b60405180910390fd5b60006108c0336126e9565b90508367ffffffffffffffff8111156108db576108db61346f565b604051908082528060200260200182016040528015610904578160200160208202803683370190505b5092506000821561091f5761091a33600061272a565b610922565b60005b3360009081526007602090815260408083208151608081018352905460ff8082161515835261010082048116151594830194909452620100008104841615159282019290925263010000009091049091161515606082015291925090815b878110156111e857600089898381811061099c5761099c613485565b90506101c002018036038101906109b39190613526565b90506109c46001633b9aca0061362f565b816020015163ffffffff161115610a105760208101516109e96001633b9aca0061362f565b60405163bad92c4160e01b815263ffffffff909216600483015260248201526044016108ac565b604080516101c081018252600080825260208201819052918101829052606081018290526080810182905260a0810182905260c0810182905260e08101829052610100810182905261012081018290526101408101829052610160810182905261018081018290526101a08101919091528215610b08578a8a610a9460018661362f565b818110610aa357610aa3613485565b90506101c00201803603810190610aba9190613526565b90508060c0015162ffffff168260c0015162ffffff161015610b085760c08083015190820151604051635ccf1bb560e11b815262ffffff9283166004820152911660248201526044016108ac565b83602001518015610b5157508161016001518015610b2f5750604082015163ffffffff1615155b80610b515750816101600151158015610b51575081516001600160681b031615155b15610b6f5760405163d3ac63bb60e01b815260040160405180910390fd5b835180610b7e57508161010001515b8015610b915750606082015161ffff1615155b15610baf5760405163b765c9f360e01b815260040160405180910390fd5b83604001518015610bc257508161010001515b15610be0576040516315c5af8f60e11b815260040160405180910390fd5b60c861ffff168260e0015160ff161115610c1f5760e0820151604051634c70edff60e11b815260ff909116600482015260c860248201526044016108ac565b816020015163ffffffff16600003610c4a57604051630130d0a560e61b815260040160405180910390fd5b6000610c56848a61345c565b610c6190600161345c565b905060405180610100016040528084600001516001600160681b03168152602001846020015163ffffffff168152602001846020015163ffffffff168152602001846040015163ffffffff1681526020018460c0015162ffffff1681526020018460e0015160ff168152602001846060015161ffff168152602001610d1e856101000151866101400151876101600151886101800151896101a0015160041b60039190911b60029290921b60019390931b90931791909117171790565b60ff908116909152336000908152600c602090815260408083208684528252918290208451815492860151938601516060870151608088015160a089015160c0808b015160e0909b01516001600160681b0390961670ffffffffffffffffffffffffffffffffff1990981697909717600160681b63ffffffff998a1602177fffffffffffffff0000000000000000ffffffffffffffffffffffffffffffffff16600160881b948916949094027fffffffffffffff00000000ffffffffffffffffffffffffffffffffffffffffff1693909317600160a81b9790921696909602177fffffff00000000ffffffffffffffffffffffffffffffffffffffffffffffffff16600160c81b62ffffff9687160260ff60e01b191617600160e01b91871691909102177cffffffffffffffffffffffffffffffffffffffffffffffffffffffffff16600160e81b61ffff909716969096027effffffffffffffffffffffffffffffffffffffffffffffffffffffffffffff1695909517600160f81b9590941694909402929092179092558481015190840151908216911614801590610ecc575060c083015162ffffff1615155b15610ef857336000908152600b6020908152604080832060c087015162ffffff16845290915290208190555b60808301516001600160a01b031615801590610f1b5750606083015161ffff1615155b15610fe05782610120015115610f96576080830151336000908152602081905260409020546001600160a01b03908116911614610f91576080830151336000908152602081905260409020805473ffffffffffffffffffffffffffffffffffffffff19166001600160a01b039092169190911790555b610fe0565b6080830151336000908152600a602090815260408083208584529091529020805473ffffffffffffffffffffffffffffffffffffffff19166001600160a01b039092169190911790555b60a08301511561100b5760a08301513360009081526001602090815260408083208584529091529020555b86156111bf578660005b81156111bc5761102633838c6127ea565b336000908152600c6020908152604080832086845290915290205460c087015191925062ffffff600160c81b909104811691161180159061106757508a8211155b156111405761107783600161345c565b821461109b57336000908152600d6020908152604080832086845290915290208290555b336000908152600860205260409020548a146110c4573360009081526008602052604090208a90555b6110cf60018461362f565b881415806110f65750336000908152600d602090815260408083208b845290915290205415155b156111315761110660018461362f565b88146111125782611115565b60005b336000908152600d602090815260408083208c84529091529020555b81985082975060009150611015565b80158061114c57508a81115b156111b35761115c82600161345c565b831461118057336000908152600d6020908152604080832085845290915290208390555b336000908152600860205260408120549399508993909250156111ae57336000908152600860205260408120555b611015565b90965080611015565b50505b808a85815181106111d2576111d2613485565b6020908102919091010152505050600101610980565b506111f3878661345c565b3360009081526002602052604090205550939695505050505050565b60005b818110156112a857600083838381811061122e5761122e613485565b336000908152600c60209081526040808320938202959095013580835292905292909220805492935091600160f81b9004600816158015915061128457604051630bade1b560e21b815260040160405180910390fd5b33600090815260096020526040902061129d9084612837565b505050600101611212565b505050565b6001600160a01b03808416600090815260056020908152604080832093861683529281528282208483529052908120548082036112ee5760009150506113ff565b6001600160a01b0385166000908152600c60209081526040808320868452825280832081516101008101835290546001600160681b038116825263ffffffff600160681b8204811694830194909452600160881b8104841692820192909252600160a81b8204909216606083015262ffffff600160c81b820416608083015260ff600160e01b8204811660a084015261ffff600160e81b83041660c0840152600160f81b9091041660e082018190529091906113c89060018116151591600282161515916004811615159160088216151591601016151590565b505092505050806113da5781516113e6565b816060015163ffffffff165b6113f9906001600160681b031684613642565b93505050505b9392505050565b60006106f5633b9aca008361366f565b6001600160a01b03811660009081526002602052604081205460015b818111611580576001600160a01b0384166000908152600c6020908152604080832084845282529182902082516101008101845290546001600160681b038116825263ffffffff600160681b8204811693830193909352600160881b8104831693820193909352600160a81b8304909116606082015262ffffff600160c81b830416608082015260ff600160e01b8304811660a083015261ffff600160e81b84041660c0830152600160f81b90920490911660e08201526114f4858383612870565b6001600160a01b03861660009081526003602090815260408083208684528252909120549083015161152c919063ffffffff1661345c565b826040015163ffffffff16611541919061362f565b61154b919061345c565b815161156091906001600160681b0316613642565b61156a908561345c565b935050808061157890613683565b915050611432565b5050919050565b60c88111156115b357604051634c70edff60e11b81526004810182905260c860248201526044016108ac565b336000908152600c6020908152604080832085845290915290208054600160f81b8104601016151590600160e01b900460ff16831180156115f15750805b15611624578154604051635c52491d60e01b815260048101859052600160e01b90910460ff1660248201526044016108ac565b50805460ff909216600160e01b0260ff60e01b1990921691909117905550565b6001600160a01b038216600090815260096020526040812081906116689084612974565b905061167481846129ba565b949350505050565b604080516101e08101825260008082526020820181905291810182905260608082018390526080820183905260a0820183905260c0820183905260e08201839052610100820183905261012082018390526101408201839052610160820183905261018082018390526101a08201929092526101c08101919091526001600160a01b0384166000908152600c6020908152604080832086845282529182902082516101008101845290546001600160681b038116825263ffffffff600160681b8204811693830193909352600160881b8104831693820193909352600160a81b8304909116606082015262ffffff600160c81b830416608082015260ff600160e01b8304811660a083015261ffff600160e81b84041660c0830152600160f81b90920490911660e08201526116749085908590856129d9565b60005b818110156112a85760008383838181106117d4576117d4613485565b90506020020135905060006117e882611406565b336000908152600360209081526040808320848452909152812080549293509061181183613683565b9091555050600190920191506117b89050565b6001600160a01b0382166000908152600c60209081526040808320848452825280832081516101008101835290546001600160681b038116825263ffffffff600160681b8204811694830194909452600160881b8104841692820192909252600160a81b8204909216606083015262ffffff600160c81b820416608083015260ff600160e01b8204811660a084015261ffff600160e81b83041660c0840152600160f81b9091041660e08201526113ff9084908490612870565b6001600160a01b038216600090815260026020526040812054805b8015611a6a576001600160a01b03808616600090815260056020908152604080832093881683529281528282208483529052908120549081900361193d5750611a58565b6001600160a01b0386166000908152600c60209081526040808320858452825280832081516101008101835290546001600160681b038116825263ffffffff600160681b8204811694830194909452600160881b8104841692820192909252600160a81b8204909216606083015262ffffff600160c81b820416608083015260ff600160e01b8204811660a084015261ffff600160e81b83041660c0840152600160f81b9091041660e08201819052909190611a179060018116151591600282161515916004811615159160088216151591601016151590565b50509250505080611a29578151611a35565b816060015163ffffffff165b611a48906001600160681b031684613642565b611a52908761345c565b95505050505b80611a628161369c565b9150506118f9565b505092915050565b60606000611a7f886126e9565b905080600003611a8f5750611d94565b8267ffffffffffffffff811115611aa857611aa861346f565b604051908082528060200260200182016040528015611b5157816020015b604080516101e0810182526000808252602080830182905292820181905260608083018290526080830182905260a0830182905260c0830182905260e08301829052610100830182905261012083018290526101408301829052610160830182905261018083018290526101a08301919091526101c08201528252600019909201910181611ac65790505b506040805161010081018252600080825260208201819052918101829052606081018290526080810182905260a0810182905260c0810182905260e0810182905291935090604080518082019091526000808252602082015260005b838714611d8357600088600003611bf257611bed8d8c15611be6578d8d85818110611bda57611bda613485565b9050602002013561272a565b600061272a565b611bf4565b885b90505b8015801590611c0557508785105b15611d7757611c158d8285612793565b611d65576001600160a01b038d166000908152600c6020908152604080832084845282529182902082516101008101845290546001600160681b038116825263ffffffff600160681b8204811693830193909352600160881b8104831693820193909352600160a81b8304909116606082015262ffffff600160c81b830416608082015260ff600160e01b8304811660a083015261ffff600160e81b84041660c0830152600160f81b90920490911660e082015293508a15801590611cfa57508b8b83818110611ce757611ce7613485565b90506020020135846080015162ffffff16115b611d77578a1580611d2b57508b8b83818110611d1857611d18613485565b90506020020135846080015162ffffff16145b15611d6557611d3c8d82868d6129d9565b8786611d4781613683565b975081518110611d5957611d59613485565b60200260200101819052505b611d708d82886127ea565b9050611bf7565b50600101898110611bad575b868414611d8e578386525b50505050505b9695505050505050565b6000805b82811015611e12576001600160a01b0385166000908152600c6020526040812090611de4868685818110611dd857611dd8613485565b90506020020135611406565b8152602081019190915260400160002054611e08906001600160681b03168361345c565b9150600101611da2565b509392505050565b336000818152600c60209081526040808320868452825280832081516101008101835281546001600160681b038116825263ffffffff600160681b8204811695830195909552600160881b8104851693820193909352600160a81b830490931660608481019190915262ffffff600160c81b840416608085015260ff600160e01b8404811660a086015261ffff600160e81b85041660c0860152600160f81b90930490921660e08401529093909291611ed591908790612870565b905080841115611f025760405163bc4cd97b60e01b815260048101859052602481018290526044016108ac565b33600090815260046020908152604080832088845290915281208054869290611f2c90849061345c565b9091555084905067ffffffffffffffff811115611f4b57611f4b61346f565b604051908082528060200260200182016040528015611f74578160200160208202803683370190505b50925060005b84811015612011578254611fec9087908590600d90611fa590600160681b900463ffffffff166136b3565b91906101000a81548163ffffffff021916908363ffffffff16021790558560000160119054906101000a900463ffffffff16611fe191906136d3565b63ffffffff16612ce4565b848281518110611ffe57611ffe613485565b6020908102919091010152600101611f7a565b50505092915050565b6001600160a01b03821615612067573360009081526005602090815260408083206001600160a01b03861684528252808320868452909152812080549091906120629061369c565b909155505b6001600160a01b038116156112a8573360009081526005602090815260408083206001600160a01b03851684528252808320868452909152902080546001019055505050565b604080516101e08101825260008082526020820181905291810182905260608082018390526080820183905260a0820183905260c0820183905260e08201839052610100820183905261012082018390526101408201839052610160820183905261018082018390526101a082018390526101c08201529061212e84611406565b6001600160a01b0386166000908152600c6020908152604080832084845282529182902082516101008101845290546001600160681b038116825263ffffffff600160681b8204811693830193909352600160881b8104831693820193909352600160a81b8304909116606082015262ffffff600160c81b830416608082015260ff600160e01b8304811660a083015261ffff600160e81b84041660c0830152600160f81b90920490911660e08201529091506121ef9086908390866129d9565b95945050505050565b6001600160a01b03821660009081526001602052604081208161221a84611406565b815260200190815260200160002054905092915050565b33600090815260076020526040902081906112a88282613704565b6001600160a01b038116600090815260026020526040812054805b8015611580576001600160a01b0384166000818152600c60209081526040808320858452825280832081516101008101835290546001600160681b038116825263ffffffff600160681b82048116838601908152600160881b8304821684860152600160a81b83048216606085015262ffffff600160c81b840416608085015260ff600160e01b8404811660a086015261ffff600160e81b85041660c0860152600160f81b90930490921660e08401529585526003845282852087865290935292205490519192612338921661345c565b816040015163ffffffff1661234d919061362f565b612357908561345c565b93505080806123659061369c565b915050612267565b6060846000848067ffffffffffffffff81111561238c5761238c61346f565b6040519080825280602002602001820160405280156123b5578160200160208202803683370190505b5093506123d5604051806040016040528060008152602001600081525090565b60005b8281101561266f5760008989838181106123f4576123f4613485565b905060200201602081019061240991906137a1565b61ffff16905061241a338285612793565b1561243b57604051638145a02760e01b8152600481018290526024016108ac565b336000908152600c6020908152604080832084845290915290208054909550600160f81b90046001161515888015612471575080155b1561248f5760405163134cf3bb60e31b815260040160405180910390fd5b8554600160881b900463ffffffff166000036124be5760405163e076c97160e01b815260040160405180910390fd5b85546001600160681b03811690600160e01b900460ff16156125005786546124f3908290600160e01b900460ff1660c8612cff565b6124fd908261362f565b90505b8781111561252b5760405163774485a360e11b815260048101829052602481018990526044016108ac565b604080516101008101825288546001600160681b038116825263ffffffff600160681b820481166020840152600160881b8204811693830193909352600160a81b8104909216606082015262ffffff600160c81b830416608082015260ff600160e01b8304811660a083015261ffff600160e81b84041660c0830152600160f81b90920490911660e08201526125c49033908590612870565b8754600160681b900463ffffffff16116125f157604051631f97ce8b60e11b815260040160405180910390fd5b865470ffffffff00000000000000000000000000198116600160681b9182900463ffffffff9081166000198101821690930291909117808a55612644928692600160881b90920482160360010116612ce4565b89858151811061265657612656613485565b60209081029190910101529096039550506001016123d8565b5050505094509492505050565b6001600160a01b038216600090815260026020526040812054805b8015611a6a576001600160a01b0380861660009081526005602090815260408083209388168352928152828220848352905220546126d5908461345c565b9250806126e18161369c565b915050612697565b6001600160a01b0381166000908152600860205260408120549081900361272557506001600160a01b0381166000908152600260205260409020545b919050565b6000811561275b576001600160a01b0383166000908152600b60209081526040808320858452909152902054612780565b6001600160a01b0383166000908152600d602090815260408083208380529091529020545b9050806000036106f55750600192915050565b600061279f8284612dd3565b806127b6575081511580156127b657506020820151155b156127e0576001600160a01b03841660009081526009602052604090206127dd9084612974565b91505b61167482846129ba565b60008183036127fb575060006113ff565b6001600160a01b0384166000908152600d60209081526040808320868452909152902054801561282c5790506113ff565b6121ef84600161345c565b60006128438260081c90565b9050612851610100836137bc565b6000918252602093909352604090208054600190931b90921790915550565b604081015160c082015160009163ffffffff169061ffff16158061289d5750826020015163ffffffff1681145b806128ba575060006128af86866106a2565b6001600160a01b0316145b156128c95760009150506113ff565b6001600160a01b03851660009081526004602090815260408083208784528252909120549084015161290290829063ffffffff1661345c565b8203612913576000925050506113ff565b600081856020015163ffffffff16840303905060008560c0015161ffff168261293c919061366f565b905060008660c0015161ffff168361295491906137bc565b11156129665761296381613683565b90505b919091039695505050505050565b604080518082019091526000808252602082015260006129948360081c90565b604080518082018252600083815260209788529190912054815294850152509192915050565b60006129c8610100836137bc565b83516001911c811614905092915050565b604080516101e08101825260008082526020820181905291810182905260608082018390526080820183905260a0820183905260c0820183905260e08201839052610100820183905261012082018390526101408201839052610160820183905261018082018390526101a082018390526101c082015290612a5b86866106a2565b90506000806000806000612a918960e0015160018116151591600282161515916004811615159160088216151591601016151590565b94509450945094509450604051806101e001604052808b63ffffffff1681526020018a600001516001600160681b031681526020018a6020015163ffffffff1681526020018a6040015163ffffffff16815260200184612af2578a51612afe565b8a6060015163ffffffff165b6001600160681b031681526020016001600160a01b03881615612b25578a60c00151612b28565b60005b61ffff168152602001876001600160a01b03168152602001600160008e6001600160a01b03166001600160a01b0316815260200190815260200160002060008d81526020019081526020016000205481526020018a6080015162ffffff1681526020018a60a0015160ff1681526020018615158152602001851515815260200183151581526020018215158152602001891580612bdd57506001600160a01b038d811660009081526006602052604090205416155b612cc257600660008e6001600160a01b03166001600160a01b0316815260200190815260200160002060009054906101000a90046001600160a01b03166001600160a01b0316635e703e718e612c348f6000612ce4565b6040517fffffffff0000000000000000000000000000000000000000000000000000000060e085901b1681526001600160a01b0390921660048301526024820152604401600060405180830381865afa158015612c95573d6000803e3d6000fd5b505050506040513d6000823e601f3d908101601f19168201604052612cbd91908101906137d0565b612cd3565b604051806020016040528060008152505b90529b9a5050505050505050505050565b600081612cf5633b9aca0085613642565b6113ff919061345c565b6000808060001985870985870292508281108382030391505080600003612d3957838281612d2f57612d2f613659565b04925050506113ff565b838110612d6a57604051630c740aef60e31b81526004810187905260248101869052604481018590526064016108ac565b60008486880960026001871981018816978890046003810283188082028403028082028403028082028403028082028403028082028403029081029092039091026000889003889004909101858311909403939093029303949094049190911702949350505050565b60008260200151612de48360081c90565b14159392505050565b6001600160a01b0381168114612e0257600080fd5b50565b803561272581612ded565b60008060408385031215612e2357600080fd5b8235612e2e81612ded565b946020939093013593505050565b600060208284031215612e4e57600080fd5b81356113ff81612ded565b60008060208385031215612e6c57600080fd5b823567ffffffffffffffff80821115612e8457600080fd5b818501915085601f830112612e9857600080fd5b813581811115612ea757600080fd5b8660206101c083028501011115612ebd57600080fd5b60209290920196919550909350505050565b60008151808452602080850194506020840160005b83811015612f0057815187529582019590820190600101612ee4565b509495945050505050565b6020815260006113ff6020830184612ecf565b60008083601f840112612f3057600080fd5b50813567ffffffffffffffff811115612f4857600080fd5b6020830191508360208260051b8501011115612f6357600080fd5b9250929050565b60008060208385031215612f7d57600080fd5b823567ffffffffffffffff811115612f9457600080fd5b612fa085828601612f1e565b90969095509350505050565b600080600060608486031215612fc157600080fd5b8335612fcc81612ded565b92506020840135612fdc81612ded565b929592945050506040919091013590565b600060208284031215612fff57600080fd5b5035919050565b6000806040838503121561301957600080fd5b50508035926020909101359150565b8015158114612e0257600080fd5b803561272581613028565b60008060006060848603121561305657600080fd5b833561306181612ded565b925060208401359150604084013561307881613028565b809150509250925092565b60005b8381101561309e578181015183820152602001613086565b50506000910152565b600081518084526130bf816020860160208601613083565b601f01601f19169290920160200192915050565b805163ffffffff16825260006101e060208301516130fc60208601826001600160681b03169052565b506040830151613114604086018263ffffffff169052565b50606083015161312c606086018263ffffffff169052565b50608083015161314760808601826001600160681b03169052565b5060a083015161315d60a086018261ffff169052565b5060c083015161317860c08601826001600160a01b03169052565b5060e083015160e08501526101008084015161319a8287018262ffffff169052565b50506101208381015160ff16908501526101408084015115159085015261016080840151151590850152610180808401511515908501526101a0808401511515908501526101c080840151818601839052611d94838701826130a7565b6020815260006113ff60208301846130d3565b6000806040838503121561321d57600080fd5b823561322881612ded565b9150602083013561323881612ded565b809150509250929050565b60008060008060008060a0878903121561325c57600080fd5b863561326781612ded565b9550602087013567ffffffffffffffff81111561328357600080fd5b61328f89828a01612f1e565b90965094505060408701356132a381613028565b959894975092956060810135946080909101359350915050565b600060208083016020845280855180835260408601915060408160051b87010192506020870160005b8281101561331457603f198886030184526133028583516130d3565b945092850192908501906001016132e6565b5092979650505050505050565b60008060006040848603121561333657600080fd5b833561334181612ded565b9250602084013567ffffffffffffffff81111561335d57600080fd5b61336986828701612f1e565b9497909650939450505050565b60008060006060848603121561338b57600080fd5b83359250602084013561339d81612ded565b9150604084013561307881612ded565b6000608082840312156133bf57600080fd5b50919050565b600080600080606085870312156133db57600080fd5b84359350602085013567ffffffffffffffff8111156133f957600080fd5b61340587828801612f1e565b909450925050604085013561341981613028565b939692955090935050565b6040815260006134376040830185612ecf565b90508260208301529392505050565b634e487b7160e01b600052601160045260246000fd5b808201808211156106f5576106f5613446565b634e487b7160e01b600052604160045260246000fd5b634e487b7160e01b600052603260045260246000fd5b6040516101c0810167ffffffffffffffff811182821017156134bf576134bf61346f565b60405290565b80356001600160681b038116811461272557600080fd5b803563ffffffff8116811461272557600080fd5b803561ffff8116811461272557600080fd5b803562ffffff8116811461272557600080fd5b803560ff8116811461272557600080fd5b60006101c0828403121561353957600080fd5b61354161349b565b61354a836134c5565b8152613558602084016134dc565b6020820152613569604084016134dc565b604082015261357a606084016134f0565b606082015261358b60808401612e05565b608082015260a083013560a08201526135a660c08401613502565b60c08201526135b760e08401613515565b60e08201526101006135ca818501613036565b908201526101206135dc848201613036565b908201526101406135ee848201613036565b90820152610160613600848201613036565b90820152610180613612848201613036565b908201526101a0613624848201613036565b908201529392505050565b818103818111156106f5576106f5613446565b80820281158282048414176106f5576106f5613446565b634e487b7160e01b600052601260045260246000fd5b60008261367e5761367e613659565b500490565b60006001820161369557613695613446565b5060010190565b6000816136ab576136ab613446565b506000190190565b600063ffffffff8216806136c9576136c9613446565b6000190192915050565b63ffffffff8281168282160390808211156136f0576136f0613446565b5092915050565b600081356106f581613028565b813561370f81613028565b815460ff19811691151560ff169182178355602084013561372f81613028565b61ff0090151560081b1661ffff198216831781178455604085013561375381613028565b62ff000081151560101b168462ffffff1985161783171785555050505061379d61377f606084016136f7565b82805463ff000000191691151560181b63ff00000016919091179055565b5050565b6000602082840312156137b357600080fd5b6113ff826134f0565b6000826137cb576137cb613659565b500690565b6000602082840312156137e257600080fd5b815167ffffffffffffffff808211156137fa57600080fd5b818401915084601f83011261380e57600080fd5b8151818111156138205761382061346f565b604051601f8201601f19908116603f011681019083821181831017156138485761384861346f565b8160405282815287602084870101111561386157600080fd5b613872836020830160208801613083565b97965050505050505056fea2646970667358221220525d9ef919f20d7cc329adba167158b3d9d4c71984c0bd041d21247de3bc9d9d64736f6c63430008170033",
	"deployedBytecode": "0x",
	"gitCommit": "b3934ace6cc269b5827ac42cb3c551423aff0d78"
}