{
	"_format": "sphinx-sol-ct-artifact-1",
	"merkleRoot": "0xd1a372b6f6d97825c4e0e2fc3f1c123ffe14a5aee61b42f5b132199ab75734cf",
	"contractName": "JB721TiersHook",
	"address": "0x1D208f757458507b66F0420e56Ad4a103DcA95BC",
	"abi": [
		{
			"type": "constructor",
			"inputs": [
				{
					"name": "directory",
					"type": "address",
					"internalType": "contract IJBDirectory"
				},
				{
					"name": "permissions",
					"type": "address",
					"internalType": "contract IJBPermissions"
				},
				{
					"name": "trustedForwarder",
					"type": "address",
					"internalType": "address"
				}
			],
			"stateMutability": "nonpayable"
		},
		{
			"type": "function",
			"name": "DIRECTORY",
			"inputs": [],
			"outputs": [
				{
					"name": "",
					"type": "address",
					"internalType": "contract IJBDirectory"
				}
			],
			"stateMutability": "view"
		},
		{
			"type": "function",
			"name": "METADATA_ID_TARGET",
			"inputs": [],
			"outputs": [
				{
					"name": "",
					"type": "address",
					"internalType": "address"
				}
			],
			"stateMutability": "view"
		},
		{
			"type": "function",
			"name": "PERMISSIONS",
			"inputs": [],
			"outputs": [
				{
					"name": "",
					"type": "address",
					"internalType": "contract IJBPermissions"
				}
			],
			"stateMutability": "view"
		},
		{
			"type": "function",
			"name": "PROJECTS",
			"inputs": [],
			"outputs": [
				{
					"name": "",
					"type": "address",
					"internalType": "contract IJBProjects"
				}
			],
			"stateMutability": "view"
		},
		{
			"type": "function",
			"name": "PROJECT_ID",
			"inputs": [],
			"outputs": [
				{
					"name": "",
					"type": "uint256",
					"internalType": "uint256"
				}
			],
			"stateMutability": "view"
		},
		{
			"type": "function",
			"name": "RULESETS",
			"inputs": [],
			"outputs": [
				{
					"name": "",
					"type": "address",
					"internalType": "contract IJBRulesets"
				}
			],
			"stateMutability": "view"
		},
		{
			"type": "function",
			"name": "STORE",
			"inputs": [],
			"outputs": [
				{
					"name": "",
					"type": "address",
					"internalType": "contract IJB721TiersHookStore"
				}
			],
			"stateMutability": "view"
		},
		{
			"type": "function",
			"name": "adjustTiers",
			"inputs": [
				{
					"name": "tiersToAdd",
					"type": "tuple[]",
					"internalType": "struct JB721TierConfig[]",
					"components": [
						{
							"name": "price",
							"type": "uint104",
							"internalType": "uint104"
						},
						{
							"name": "initialSupply",
							"type": "uint32",
							"internalType": "uint32"
						},
						{
							"name": "votingUnits",
							"type": "uint32",
							"internalType": "uint32"
						},
						{
							"name": "reserveFrequency",
							"type": "uint16",
							"internalType": "uint16"
						},
						{
							"name": "reserveBeneficiary",
							"type": "address",
							"internalType": "address"
						},
						{
							"name": "encodedIPFSUri",
							"type": "bytes32",
							"internalType": "bytes32"
						},
						{
							"name": "category",
							"type": "uint24",
							"internalType": "uint24"
						},
						{
							"name": "allowOwnerMint",
							"type": "bool",
							"internalType": "bool"
						},
						{
							"name": "useReserveBeneficiaryAsDefault",
							"type": "bool",
							"internalType": "bool"
						},
						{
							"name": "transfersPausable",
							"type": "bool",
							"internalType": "bool"
						},
						{
							"name": "useVotingUnits",
							"type": "bool",
							"internalType": "bool"
						},
						{
							"name": "cannotBeRemoved",
							"type": "bool",
							"internalType": "bool"
						}
					]
				},
				{
					"name": "tierIdsToRemove",
					"type": "uint256[]",
					"internalType": "uint256[]"
				}
			],
			"outputs": [],
			"stateMutability": "nonpayable"
		},
		{
			"type": "function",
			"name": "afterPayRecordedWith",
			"inputs": [
				{
					"name": "context",
					"type": "tuple",
					"internalType": "struct JBAfterPayRecordedContext",
					"components": [
						{
							"name": "payer",
							"type": "address",
							"internalType": "address"
						},
						{
							"name": "projectId",
							"type": "uint256",
							"internalType": "uint256"
						},
						{
							"name": "rulesetId",
							"type": "uint256",
							"internalType": "uint256"
						},
						{
							"name": "amount",
							"type": "tuple",
							"internalType": "struct JBTokenAmount",
							"components": [
								{
									"name": "token",
									"type": "address",
									"internalType": "address"
								},
								{
									"name": "value",
									"type": "uint256",
									"internalType": "uint256"
								},
								{
									"name": "decimals",
									"type": "uint256",
									"internalType": "uint256"
								},
								{
									"name": "currency",
									"type": "uint256",
									"internalType": "uint256"
								}
							]
						},
						{
							"name": "forwardedAmount",
							"type": "tuple",
							"internalType": "struct JBTokenAmount",
							"components": [
								{
									"name": "token",
									"type": "address",
									"internalType": "address"
								},
								{
									"name": "value",
									"type": "uint256",
									"internalType": "uint256"
								},
								{
									"name": "decimals",
									"type": "uint256",
									"internalType": "uint256"
								},
								{
									"name": "currency",
									"type": "uint256",
									"internalType": "uint256"
								}
							]
						},
						{
							"name": "weight",
							"type": "uint256",
							"internalType": "uint256"
						},
						{
							"name": "projectTokenCount",
							"type": "uint256",
							"internalType": "uint256"
						},
						{
							"name": "beneficiary",
							"type": "address",
							"internalType": "address"
						},
						{
							"name": "hookMetadata",
							"type": "bytes",
							"internalType": "bytes"
						},
						{
							"name": "payerMetadata",
							"type": "bytes",
							"internalType": "bytes"
						}
					]
				}
			],
			"outputs": [],
			"stateMutability": "payable"
		},
		{
			"type": "function",
			"name": "afterRedeemRecordedWith",
			"inputs": [
				{
					"name": "context",
					"type": "tuple",
					"internalType": "struct JBAfterRedeemRecordedContext",
					"components": [
						{
							"name": "holder",
							"type": "address",
							"internalType": "address"
						},
						{
							"name": "projectId",
							"type": "uint256",
							"internalType": "uint256"
						},
						{
							"name": "rulesetId",
							"type": "uint256",
							"internalType": "uint256"
						},
						{
							"name": "redeemCount",
							"type": "uint256",
							"internalType": "uint256"
						},
						{
							"name": "reclaimedAmount",
							"type": "tuple",
							"internalType": "struct JBTokenAmount",
							"components": [
								{
									"name": "token",
									"type": "address",
									"internalType": "address"
								},
								{
									"name": "value",
									"type": "uint256",
									"internalType": "uint256"
								},
								{
									"name": "decimals",
									"type": "uint256",
									"internalType": "uint256"
								},
								{
									"name": "currency",
									"type": "uint256",
									"internalType": "uint256"
								}
							]
						},
						{
							"name": "forwardedAmount",
							"type": "tuple",
							"internalType": "struct JBTokenAmount",
							"components": [
								{
									"name": "token",
									"type": "address",
									"internalType": "address"
								},
								{
									"name": "value",
									"type": "uint256",
									"internalType": "uint256"
								},
								{
									"name": "decimals",
									"type": "uint256",
									"internalType": "uint256"
								},
								{
									"name": "currency",
									"type": "uint256",
									"internalType": "uint256"
								}
							]
						},
						{
							"name": "redemptionRate",
							"type": "uint256",
							"internalType": "uint256"
						},
						{
							"name": "beneficiary",
							"type": "address",
							"internalType": "address payable"
						},
						{
							"name": "hookMetadata",
							"type": "bytes",
							"internalType": "bytes"
						},
						{
							"name": "redeemerMetadata",
							"type": "bytes",
							"internalType": "bytes"
						}
					]
				}
			],
			"outputs": [],
			"stateMutability": "payable"
		},
		{
			"type": "function",
			"name": "approve",
			"inputs": [
				{
					"name": "to",
					"type": "address",
					"internalType": "address"
				},
				{
					"name": "tokenId",
					"type": "uint256",
					"internalType": "uint256"
				}
			],
			"outputs": [],
			"stateMutability": "nonpayable"
		},
		{
			"type": "function",
			"name": "balanceOf",
			"inputs": [
				{
					"name": "owner",
					"type": "address",
					"internalType": "address"
				}
			],
			"outputs": [
				{
					"name": "balance",
					"type": "uint256",
					"internalType": "uint256"
				}
			],
			"stateMutability": "view"
		},
		{
			"type": "function",
			"name": "baseURI",
			"inputs": [],
			"outputs": [
				{
					"name": "",
					"type": "string",
					"internalType": "string"
				}
			],
			"stateMutability": "view"
		},
		{
			"type": "function",
			"name": "beforePayRecordedWith",
			"inputs": [
				{
					"name": "context",
					"type": "tuple",
					"internalType": "struct JBBeforePayRecordedContext",
					"components": [
						{
							"name": "terminal",
							"type": "address",
							"internalType": "address"
						},
						{
							"name": "payer",
							"type": "address",
							"internalType": "address"
						},
						{
							"name": "amount",
							"type": "tuple",
							"internalType": "struct JBTokenAmount",
							"components": [
								{
									"name": "token",
									"type": "address",
									"internalType": "address"
								},
								{
									"name": "value",
									"type": "uint256",
									"internalType": "uint256"
								},
								{
									"name": "decimals",
									"type": "uint256",
									"internalType": "uint256"
								},
								{
									"name": "currency",
									"type": "uint256",
									"internalType": "uint256"
								}
							]
						},
						{
							"name": "projectId",
							"type": "uint256",
							"internalType": "uint256"
						},
						{
							"name": "rulesetId",
							"type": "uint256",
							"internalType": "uint256"
						},
						{
							"name": "beneficiary",
							"type": "address",
							"internalType": "address"
						},
						{
							"name": "weight",
							"type": "uint256",
							"internalType": "uint256"
						},
						{
							"name": "reservedRate",
							"type": "uint256",
							"internalType": "uint256"
						},
						{
							"name": "metadata",
							"type": "bytes",
							"internalType": "bytes"
						}
					]
				}
			],
			"outputs": [
				{
					"name": "weight",
					"type": "uint256",
					"internalType": "uint256"
				},
				{
					"name": "hookSpecifications",
					"type": "tuple[]",
					"internalType": "struct JBPayHookSpecification[]",
					"components": [
						{
							"name": "hook",
							"type": "address",
							"internalType": "contract IJBPayHook"
						},
						{
							"name": "amount",
							"type": "uint256",
							"internalType": "uint256"
						},
						{
							"name": "metadata",
							"type": "bytes",
							"internalType": "bytes"
						}
					]
				}
			],
			"stateMutability": "view"
		},
		{
			"type": "function",
			"name": "beforeRedeemRecordedWith",
			"inputs": [
				{
					"name": "context",
					"type": "tuple",
					"internalType": "struct JBBeforeRedeemRecordedContext",
					"components": [
						{
							"name": "terminal",
							"type": "address",
							"internalType": "address"
						},
						{
							"name": "holder",
							"type": "address",
							"internalType": "address"
						},
						{
							"name": "projectId",
							"type": "uint256",
							"internalType": "uint256"
						},
						{
							"name": "rulesetId",
							"type": "uint256",
							"internalType": "uint256"
						},
						{
							"name": "redeemCount",
							"type": "uint256",
							"internalType": "uint256"
						},
						{
							"name": "totalSupply",
							"type": "uint256",
							"internalType": "uint256"
						},
						{
							"name": "surplus",
							"type": "tuple",
							"internalType": "struct JBTokenAmount",
							"components": [
								{
									"name": "token",
									"type": "address",
									"internalType": "address"
								},
								{
									"name": "value",
									"type": "uint256",
									"internalType": "uint256"
								},
								{
									"name": "decimals",
									"type": "uint256",
									"internalType": "uint256"
								},
								{
									"name": "currency",
									"type": "uint256",
									"internalType": "uint256"
								}
							]
						},
						{
							"name": "useTotalSurplus",
							"type": "bool",
							"internalType": "bool"
						},
						{
							"name": "redemptionRate",
							"type": "uint256",
							"internalType": "uint256"
						},
						{
							"name": "metadata",
							"type": "bytes",
							"internalType": "bytes"
						}
					]
				}
			],
			"outputs": [
				{
					"name": "redemptionRate",
					"type": "uint256",
					"internalType": "uint256"
				},
				{
					"name": "redeemCount",
					"type": "uint256",
					"internalType": "uint256"
				},
				{
					"name": "totalSupply",
					"type": "uint256",
					"internalType": "uint256"
				},
				{
					"name": "hookSpecifications",
					"type": "tuple[]",
					"internalType": "struct JBRedeemHookSpecification[]",
					"components": [
						{
							"name": "hook",
							"type": "address",
							"internalType": "contract IJBRedeemHook"
						},
						{
							"name": "amount",
							"type": "uint256",
							"internalType": "uint256"
						},
						{
							"name": "metadata",
							"type": "bytes",
							"internalType": "bytes"
						}
					]
				}
			],
			"stateMutability": "view"
		},
		{
			"type": "function",
			"name": "contractURI",
			"inputs": [],
			"outputs": [
				{
					"name": "",
					"type": "string",
					"internalType": "string"
				}
			],
			"stateMutability": "view"
		},
		{
			"type": "function",
			"name": "firstOwnerOf",
			"inputs": [
				{
					"name": "tokenId",
					"type": "uint256",
					"internalType": "uint256"
				}
			],
			"outputs": [
				{
					"name": "",
					"type": "address",
					"internalType": "address"
				}
			],
			"stateMutability": "view"
		},
		{
			"type": "function",
			"name": "getApproved",
			"inputs": [
				{
					"name": "tokenId",
					"type": "uint256",
					"internalType": "uint256"
				}
			],
			"outputs": [
				{
					"name": "",
					"type": "address",
					"internalType": "address"
				}
			],
			"stateMutability": "view"
		},
		{
			"type": "function",
			"name": "hasMintPermissionFor",
			"inputs": [
				{
					"name": "",
					"type": "uint256",
					"internalType": "uint256"
				},
				{
					"name": "",
					"type": "address",
					"internalType": "address"
				}
			],
			"outputs": [
				{
					"name": "",
					"type": "bool",
					"internalType": "bool"
				}
			],
			"stateMutability": "pure"
		},
		{
			"type": "function",
			"name": "initialize",
			"inputs": [
				{
					"name": "projectId",
					"type": "uint256",
					"internalType": "uint256"
				},
				{
					"name": "name",
					"type": "string",
					"internalType": "string"
				},
				{
					"name": "symbol",
					"type": "string",
					"internalType": "string"
				},
				{
					"name": "rulesets",
					"type": "address",
					"internalType": "contract IJBRulesets"
				},
				{
					"name": "baseUri",
					"type": "string",
					"internalType": "string"
				},
				{
					"name": "tokenUriResolver",
					"type": "address",
					"internalType": "contract IJB721TokenUriResolver"
				},
				{
					"name": "contractUri",
					"type": "string",
					"internalType": "string"
				},
				{
					"name": "tiersConfig",
					"type": "tuple",
					"internalType": "struct JB721InitTiersConfig",
					"components": [
						{
							"name": "tiers",
							"type": "tuple[]",
							"internalType": "struct JB721TierConfig[]",
							"components": [
								{
									"name": "price",
									"type": "uint104",
									"internalType": "uint104"
								},
								{
									"name": "initialSupply",
									"type": "uint32",
									"internalType": "uint32"
								},
								{
									"name": "votingUnits",
									"type": "uint32",
									"internalType": "uint32"
								},
								{
									"name": "reserveFrequency",
									"type": "uint16",
									"internalType": "uint16"
								},
								{
									"name": "reserveBeneficiary",
									"type": "address",
									"internalType": "address"
								},
								{
									"name": "encodedIPFSUri",
									"type": "bytes32",
									"internalType": "bytes32"
								},
								{
									"name": "category",
									"type": "uint24",
									"internalType": "uint24"
								},
								{
									"name": "allowOwnerMint",
									"type": "bool",
									"internalType": "bool"
								},
								{
									"name": "useReserveBeneficiaryAsDefault",
									"type": "bool",
									"internalType": "bool"
								},
								{
									"name": "transfersPausable",
									"type": "bool",
									"internalType": "bool"
								},
								{
									"name": "useVotingUnits",
									"type": "bool",
									"internalType": "bool"
								},
								{
									"name": "cannotBeRemoved",
									"type": "bool",
									"internalType": "bool"
								}
							]
						},
						{
							"name": "currency",
							"type": "uint32",
							"internalType": "uint32"
						},
						{
							"name": "decimals",
							"type": "uint8",
							"internalType": "uint8"
						},
						{
							"name": "prices",
							"type": "address",
							"internalType": "contract IJBPrices"
						}
					]
				},
				{
					"name": "store",
					"type": "address",
					"internalType": "contract IJB721TiersHookStore"
				},
				{
					"name": "flags",
					"type": "tuple",
					"internalType": "struct JB721TiersHookFlags",
					"components": [
						{
							"name": "noNewTiersWithReserves",
							"type": "bool",
							"internalType": "bool"
						},
						{
							"name": "noNewTiersWithVotes",
							"type": "bool",
							"internalType": "bool"
						},
						{
							"name": "noNewTiersWithOwnerMinting",
							"type": "bool",
							"internalType": "bool"
						},
						{
							"name": "preventOverspending",
							"type": "bool",
							"internalType": "bool"
						}
					]
				}
			],
			"outputs": [],
			"stateMutability": "nonpayable"
		},
		{
			"type": "function",
			"name": "isApprovedForAll",
			"inputs": [
				{
					"name": "owner",
					"type": "address",
					"internalType": "address"
				},
				{
					"name": "operator",
					"type": "address",
					"internalType": "address"
				}
			],
			"outputs": [
				{
					"name": "",
					"type": "bool",
					"internalType": "bool"
				}
			],
			"stateMutability": "view"
		},
		{
			"type": "function",
			"name": "isTrustedForwarder",
			"inputs": [
				{
					"name": "forwarder",
					"type": "address",
					"internalType": "address"
				}
			],
			"outputs": [
				{
					"name": "",
					"type": "bool",
					"internalType": "bool"
				}
			],
			"stateMutability": "view"
		},
		{
			"type": "function",
			"name": "jbOwner",
			"inputs": [],
			"outputs": [
				{
					"name": "owner",
					"type": "address",
					"internalType": "address"
				},
				{
					"name": "projectId",
					"type": "uint88",
					"internalType": "uint88"
				},
				{
					"name": "permissionId",
					"type": "uint8",
					"internalType": "uint8"
				}
			],
			"stateMutability": "view"
		},
		{
			"type": "function",
			"name": "mintFor",
			"inputs": [
				{
					"name": "tierIds",
					"type": "uint16[]",
					"internalType": "uint16[]"
				},
				{
					"name": "beneficiary",
					"type": "address",
					"internalType": "address"
				}
			],
			"outputs": [
				{
					"name": "tokenIds",
					"type": "uint256[]",
					"internalType": "uint256[]"
				}
			],
			"stateMutability": "nonpayable"
		},
		{
			"type": "function",
			"name": "mintPendingReservesFor",
			"inputs": [
				{
					"name": "reserveMintConfigs",
					"type": "tuple[]",
					"internalType": "struct JB721TiersMintReservesConfig[]",
					"components": [
						{
							"name": "tierId",
							"type": "uint256",
							"internalType": "uint256"
						},
						{
							"name": "count",
							"type": "uint256",
							"internalType": "uint256"
						}
					]
				}
			],
			"outputs": [],
			"stateMutability": "nonpayable"
		},
		{
			"type": "function",
			"name": "mintPendingReservesFor",
			"inputs": [
				{
					"name": "tierId",
					"type": "uint256",
					"internalType": "uint256"
				},
				{
					"name": "count",
					"type": "uint256",
					"internalType": "uint256"
				}
			],
			"outputs": [],
			"stateMutability": "nonpayable"
		},
		{
			"type": "function",
			"name": "name",
			"inputs": [],
			"outputs": [
				{
					"name": "",
					"type": "string",
					"internalType": "string"
				}
			],
			"stateMutability": "view"
		},
		{
			"type": "function",
			"name": "owner",
			"inputs": [],
			"outputs": [
				{
					"name": "",
					"type": "address",
					"internalType": "address"
				}
			],
			"stateMutability": "view"
		},
		{
			"type": "function",
			"name": "ownerOf",
			"inputs": [
				{
					"name": "tokenId",
					"type": "uint256",
					"internalType": "uint256"
				}
			],
			"outputs": [
				{
					"name": "",
					"type": "address",
					"internalType": "address"
				}
			],
			"stateMutability": "view"
		},
		{
			"type": "function",
			"name": "payCreditsOf",
			"inputs": [
				{
					"name": "addr",
					"type": "address",
					"internalType": "address"
				}
			],
			"outputs": [
				{
					"name": "",
					"type": "uint256",
					"internalType": "uint256"
				}
			],
			"stateMutability": "view"
		},
		{
			"type": "function",
			"name": "pricingContext",
			"inputs": [],
			"outputs": [
				{
					"name": "currency",
					"type": "uint256",
					"internalType": "uint256"
				},
				{
					"name": "decimals",
					"type": "uint256",
					"internalType": "uint256"
				},
				{
					"name": "prices",
					"type": "address",
					"internalType": "contract IJBPrices"
				}
			],
			"stateMutability": "view"
		},
		{
			"type": "function",
			"name": "redemptionWeightOf",
			"inputs": [
				{
					"name": "tokenIds",
					"type": "uint256[]",
					"internalType": "uint256[]"
				},
				{
					"name": "",
					"type": "tuple",
					"internalType": "struct JBBeforeRedeemRecordedContext",
					"components": [
						{
							"name": "terminal",
							"type": "address",
							"internalType": "address"
						},
						{
							"name": "holder",
							"type": "address",
							"internalType": "address"
						},
						{
							"name": "projectId",
							"type": "uint256",
							"internalType": "uint256"
						},
						{
							"name": "rulesetId",
							"type": "uint256",
							"internalType": "uint256"
						},
						{
							"name": "redeemCount",
							"type": "uint256",
							"internalType": "uint256"
						},
						{
							"name": "totalSupply",
							"type": "uint256",
							"internalType": "uint256"
						},
						{
							"name": "surplus",
							"type": "tuple",
							"internalType": "struct JBTokenAmount",
							"components": [
								{
									"name": "token",
									"type": "address",
									"internalType": "address"
								},
								{
									"name": "value",
									"type": "uint256",
									"internalType": "uint256"
								},
								{
									"name": "decimals",
									"type": "uint256",
									"internalType": "uint256"
								},
								{
									"name": "currency",
									"type": "uint256",
									"internalType": "uint256"
								}
							]
						},
						{
							"name": "useTotalSurplus",
							"type": "bool",
							"internalType": "bool"
						},
						{
							"name": "redemptionRate",
							"type": "uint256",
							"internalType": "uint256"
						},
						{
							"name": "metadata",
							"type": "bytes",
							"internalType": "bytes"
						}
					]
				}
			],
			"outputs": [
				{
					"name": "",
					"type": "uint256",
					"internalType": "uint256"
				}
			],
			"stateMutability": "view"
		},
		{
			"type": "function",
			"name": "renounceOwnership",
			"inputs": [],
			"outputs": [],
			"stateMutability": "nonpayable"
		},
		{
			"type": "function",
			"name": "safeTransferFrom",
			"inputs": [
				{
					"name": "from",
					"type": "address",
					"internalType": "address"
				},
				{
					"name": "to",
					"type": "address",
					"internalType": "address"
				},
				{
					"name": "tokenId",
					"type": "uint256",
					"internalType": "uint256"
				}
			],
			"outputs": [],
			"stateMutability": "nonpayable"
		},
		{
			"type": "function",
			"name": "safeTransferFrom",
			"inputs": [
				{
					"name": "from",
					"type": "address",
					"internalType": "address"
				},
				{
					"name": "to",
					"type": "address",
					"internalType": "address"
				},
				{
					"name": "tokenId",
					"type": "uint256",
					"internalType": "uint256"
				},
				{
					"name": "data",
					"type": "bytes",
					"internalType": "bytes"
				}
			],
			"outputs": [],
			"stateMutability": "nonpayable"
		},
		{
			"type": "function",
			"name": "setApprovalForAll",
			"inputs": [
				{
					"name": "operator",
					"type": "address",
					"internalType": "address"
				},
				{
					"name": "approved",
					"type": "bool",
					"internalType": "bool"
				}
			],
			"outputs": [],
			"stateMutability": "nonpayable"
		},
		{
			"type": "function",
			"name": "setMetadata",
			"inputs": [
				{
					"name": "baseUri",
					"type": "string",
					"internalType": "string"
				},
				{
					"name": "contractUri",
					"type": "string",
					"internalType": "string"
				},
				{
					"name": "tokenUriResolver",
					"type": "address",
					"internalType": "contract IJB721TokenUriResolver"
				},
				{
					"name": "encodedIPFSTUriTierId",
					"type": "uint256",
					"internalType": "uint256"
				},
				{
					"name": "encodedIPFSUri",
					"type": "bytes32",
					"internalType": "bytes32"
				}
			],
			"outputs": [],
			"stateMutability": "nonpayable"
		},
		{
			"type": "function",
			"name": "setPermissionId",
			"inputs": [
				{
					"name": "permissionId",
					"type": "uint8",
					"internalType": "uint8"
				}
			],
			"outputs": [],
			"stateMutability": "nonpayable"
		},
		{
			"type": "function",
			"name": "supportsInterface",
			"inputs": [
				{
					"name": "interfaceId",
					"type": "bytes4",
					"internalType": "bytes4"
				}
			],
			"outputs": [
				{
					"name": "",
					"type": "bool",
					"internalType": "bool"
				}
			],
			"stateMutability": "view"
		},
		{
			"type": "function",
			"name": "symbol",
			"inputs": [],
			"outputs": [
				{
					"name": "",
					"type": "string",
					"internalType": "string"
				}
			],
			"stateMutability": "view"
		},
		{
			"type": "function",
			"name": "tokenURI",
			"inputs": [
				{
					"name": "tokenId",
					"type": "uint256",
					"internalType": "uint256"
				}
			],
			"outputs": [
				{
					"name": "",
					"type": "string",
					"internalType": "string"
				}
			],
			"stateMutability": "view"
		},
		{
			"type": "function",
			"name": "totalRedemptionWeight",
			"inputs": [
				{
					"name": "",
					"type": "tuple",
					"internalType": "struct JBBeforeRedeemRecordedContext",
					"components": [
						{
							"name": "terminal",
							"type": "address",
							"internalType": "address"
						},
						{
							"name": "holder",
							"type": "address",
							"internalType": "address"
						},
						{
							"name": "projectId",
							"type": "uint256",
							"internalType": "uint256"
						},
						{
							"name": "rulesetId",
							"type": "uint256",
							"internalType": "uint256"
						},
						{
							"name": "redeemCount",
							"type": "uint256",
							"internalType": "uint256"
						},
						{
							"name": "totalSupply",
							"type": "uint256",
							"internalType": "uint256"
						},
						{
							"name": "surplus",
							"type": "tuple",
							"internalType": "struct JBTokenAmount",
							"components": [
								{
									"name": "token",
									"type": "address",
									"internalType": "address"
								},
								{
									"name": "value",
									"type": "uint256",
									"internalType": "uint256"
								},
								{
									"name": "decimals",
									"type": "uint256",
									"internalType": "uint256"
								},
								{
									"name": "currency",
									"type": "uint256",
									"internalType": "uint256"
								}
							]
						},
						{
							"name": "useTotalSurplus",
							"type": "bool",
							"internalType": "bool"
						},
						{
							"name": "redemptionRate",
							"type": "uint256",
							"internalType": "uint256"
						},
						{
							"name": "metadata",
							"type": "bytes",
							"internalType": "bytes"
						}
					]
				}
			],
			"outputs": [
				{
					"name": "",
					"type": "uint256",
					"internalType": "uint256"
				}
			],
			"stateMutability": "view"
		},
		{
			"type": "function",
			"name": "transferFrom",
			"inputs": [
				{
					"name": "from",
					"type": "address",
					"internalType": "address"
				},
				{
					"name": "to",
					"type": "address",
					"internalType": "address"
				},
				{
					"name": "tokenId",
					"type": "uint256",
					"internalType": "uint256"
				}
			],
			"outputs": [],
			"stateMutability": "nonpayable"
		},
		{
			"type": "function",
			"name": "transferOwnership",
			"inputs": [
				{
					"name": "newOwner",
					"type": "address",
					"internalType": "address"
				}
			],
			"outputs": [],
			"stateMutability": "nonpayable"
		},
		{
			"type": "function",
			"name": "transferOwnershipToProject",
			"inputs": [
				{
					"name": "projectId",
					"type": "uint256",
					"internalType": "uint256"
				}
			],
			"outputs": [],
			"stateMutability": "nonpayable"
		},
		{
			"type": "function",
			"name": "trustedForwarder",
			"inputs": [],
			"outputs": [
				{
					"name": "",
					"type": "address",
					"internalType": "address"
				}
			],
			"stateMutability": "view"
		},
		{
			"type": "event",
			"name": "AddPayCredits",
			"inputs": [
				{
					"name": "amount",
					"type": "uint256",
					"indexed": true,
					"internalType": "uint256"
				},
				{
					"name": "newTotalCredits",
					"type": "uint256",
					"indexed": true,
					"internalType": "uint256"
				},
				{
					"name": "account",
					"type": "address",
					"indexed": true,
					"internalType": "address"
				},
				{
					"name": "caller",
					"type": "address",
					"indexed": false,
					"internalType": "address"
				}
			],
			"anonymous": false
		},
		{
			"type": "event",
			"name": "AddTier",
			"inputs": [
				{
					"name": "tierId",
					"type": "uint256",
					"indexed": true,
					"internalType": "uint256"
				},
				{
					"name": "tier",
					"type": "tuple",
					"indexed": false,
					"internalType": "struct JB721TierConfig",
					"components": [
						{
							"name": "price",
							"type": "uint104",
							"internalType": "uint104"
						},
						{
							"name": "initialSupply",
							"type": "uint32",
							"internalType": "uint32"
						},
						{
							"name": "votingUnits",
							"type": "uint32",
							"internalType": "uint32"
						},
						{
							"name": "reserveFrequency",
							"type": "uint16",
							"internalType": "uint16"
						},
						{
							"name": "reserveBeneficiary",
							"type": "address",
							"internalType": "address"
						},
						{
							"name": "encodedIPFSUri",
							"type": "bytes32",
							"internalType": "bytes32"
						},
						{
							"name": "category",
							"type": "uint24",
							"internalType": "uint24"
						},
						{
							"name": "allowOwnerMint",
							"type": "bool",
							"internalType": "bool"
						},
						{
							"name": "useReserveBeneficiaryAsDefault",
							"type": "bool",
							"internalType": "bool"
						},
						{
							"name": "transfersPausable",
							"type": "bool",
							"internalType": "bool"
						},
						{
							"name": "useVotingUnits",
							"type": "bool",
							"internalType": "bool"
						},
						{
							"name": "cannotBeRemoved",
							"type": "bool",
							"internalType": "bool"
						}
					]
				},
				{
					"name": "caller",
					"type": "address",
					"indexed": false,
					"internalType": "address"
				}
			],
			"anonymous": false
		},
		{
			"type": "event",
			"name": "Approval",
			"inputs": [
				{
					"name": "owner",
					"type": "address",
					"indexed": true,
					"internalType": "address"
				},
				{
					"name": "approved",
					"type": "address",
					"indexed": true,
					"internalType": "address"
				},
				{
					"name": "tokenId",
					"type": "uint256",
					"indexed": true,
					"internalType": "uint256"
				}
			],
			"anonymous": false
		},
		{
			"type": "event",
			"name": "ApprovalForAll",
			"inputs": [
				{
					"name": "owner",
					"type": "address",
					"indexed": true,
					"internalType": "address"
				},
				{
					"name": "operator",
					"type": "address",
					"indexed": true,
					"internalType": "address"
				},
				{
					"name": "approved",
					"type": "bool",
					"indexed": false,
					"internalType": "bool"
				}
			],
			"anonymous": false
		},
		{
			"type": "event",
			"name": "Mint",
			"inputs": [
				{
					"name": "tokenId",
					"type": "uint256",
					"indexed": true,
					"internalType": "uint256"
				},
				{
					"name": "tierId",
					"type": "uint256",
					"indexed": true,
					"internalType": "uint256"
				},
				{
					"name": "beneficiary",
					"type": "address",
					"indexed": true,
					"internalType": "address"
				},
				{
					"name": "totalAmountPaid",
					"type": "uint256",
					"indexed": false,
					"internalType": "uint256"
				},
				{
					"name": "caller",
					"type": "address",
					"indexed": false,
					"internalType": "address"
				}
			],
			"anonymous": false
		},
		{
			"type": "event",
			"name": "MintReservedNft",
			"inputs": [
				{
					"name": "tokenId",
					"type": "uint256",
					"indexed": true,
					"internalType": "uint256"
				},
				{
					"name": "tierId",
					"type": "uint256",
					"indexed": true,
					"internalType": "uint256"
				},
				{
					"name": "beneficiary",
					"type": "address",
					"indexed": true,
					"internalType": "address"
				},
				{
					"name": "caller",
					"type": "address",
					"indexed": false,
					"internalType": "address"
				}
			],
			"anonymous": false
		},
		{
			"type": "event",
			"name": "OwnershipTransferred",
			"inputs": [
				{
					"name": "previousOwner",
					"type": "address",
					"indexed": true,
					"internalType": "address"
				},
				{
					"name": "newOwner",
					"type": "address",
					"indexed": true,
					"internalType": "address"
				}
			],
			"anonymous": false
		},
		{
			"type": "event",
			"name": "PermissionIdChanged",
			"inputs": [
				{
					"name": "newIndex",
					"type": "uint8",
					"indexed": false,
					"internalType": "uint8"
				}
			],
			"anonymous": false
		},
		{
			"type": "event",
			"name": "RemoveTier",
			"inputs": [
				{
					"name": "tierId",
					"type": "uint256",
					"indexed": true,
					"internalType": "uint256"
				},
				{
					"name": "caller",
					"type": "address",
					"indexed": false,
					"internalType": "address"
				}
			],
			"anonymous": false
		},
		{
			"type": "event",
			"name": "SetBaseUri",
			"inputs": [
				{
					"name": "baseUri",
					"type": "string",
					"indexed": true,
					"internalType": "string"
				},
				{
					"name": "caller",
					"type": "address",
					"indexed": false,
					"internalType": "address"
				}
			],
			"anonymous": false
		},
		{
			"type": "event",
			"name": "SetContractUri",
			"inputs": [
				{
					"name": "contractUri",
					"type": "string",
					"indexed": true,
					"internalType": "string"
				},
				{
					"name": "caller",
					"type": "address",
					"indexed": false,
					"internalType": "address"
				}
			],
			"anonymous": false
		},
		{
			"type": "event",
			"name": "SetEncodedIPFSUri",
			"inputs": [
				{
					"name": "tierId",
					"type": "uint256",
					"indexed": true,
					"internalType": "uint256"
				},
				{
					"name": "encodedIPFSUri",
					"type": "bytes32",
					"indexed": false,
					"internalType": "bytes32"
				},
				{
					"name": "caller",
					"type": "address",
					"indexed": false,
					"internalType": "address"
				}
			],
			"anonymous": false
		},
		{
			"type": "event",
			"name": "SetTokenUriResolver",
			"inputs": [
				{
					"name": "newResolver",
					"type": "address",
					"indexed": true,
					"internalType": "contract IJB721TokenUriResolver"
				},
				{
					"name": "caller",
					"type": "address",
					"indexed": false,
					"internalType": "address"
				}
			],
			"anonymous": false
		},
		{
			"type": "event",
			"name": "Transfer",
			"inputs": [
				{
					"name": "from",
					"type": "address",
					"indexed": true,
					"internalType": "address"
				},
				{
					"name": "to",
					"type": "address",
					"indexed": true,
					"internalType": "address"
				},
				{
					"name": "tokenId",
					"type": "uint256",
					"indexed": true,
					"internalType": "uint256"
				}
			],
			"anonymous": false
		},
		{
			"type": "event",
			"name": "UsePayCredits",
			"inputs": [
				{
					"name": "amount",
					"type": "uint256",
					"indexed": true,
					"internalType": "uint256"
				},
				{
					"name": "newTotalCredits",
					"type": "uint256",
					"indexed": true,
					"internalType": "uint256"
				},
				{
					"name": "account",
					"type": "address",
					"indexed": true,
					"internalType": "address"
				},
				{
					"name": "caller",
					"type": "address",
					"indexed": false,
					"internalType": "address"
				}
			],
			"anonymous": false
		},
		{
			"type": "error",
			"name": "ERC721IncorrectOwner",
			"inputs": [
				{
					"name": "sender",
					"type": "address",
					"internalType": "address"
				},
				{
					"name": "tokenId",
					"type": "uint256",
					"internalType": "uint256"
				},
				{
					"name": "owner",
					"type": "address",
					"internalType": "address"
				}
			]
		},
		{
			"type": "error",
			"name": "ERC721InsufficientApproval",
			"inputs": [
				{
					"name": "operator",
					"type": "address",
					"internalType": "address"
				},
				{
					"name": "tokenId",
					"type": "uint256",
					"internalType": "uint256"
				}
			]
		},
		{
			"type": "error",
			"name": "ERC721InvalidApprover",
			"inputs": [
				{
					"name": "approver",
					"type": "address",
					"internalType": "address"
				}
			]
		},
		{
			"type": "error",
			"name": "ERC721InvalidOperator",
			"inputs": [
				{
					"name": "operator",
					"type": "address",
					"internalType": "address"
				}
			]
		},
		{
			"type": "error",
			"name": "ERC721InvalidOwner",
			"inputs": [
				{
					"name": "owner",
					"type": "address",
					"internalType": "address"
				}
			]
		},
		{
			"type": "error",
			"name": "ERC721InvalidReceiver",
			"inputs": [
				{
					"name": "receiver",
					"type": "address",
					"internalType": "address"
				}
			]
		},
		{
			"type": "error",
			"name": "ERC721InvalidSender",
			"inputs": [
				{
					"name": "sender",
					"type": "address",
					"internalType": "address"
				}
			]
		},
		{
			"type": "error",
			"name": "ERC721NonexistentToken",
			"inputs": [
				{
					"name": "tokenId",
					"type": "uint256",
					"internalType": "uint256"
				}
			]
		},
		{
			"type": "error",
			"name": "INVALID_NEW_OWNER",
			"inputs": []
		},
		{
			"type": "error",
			"name": "INVALID_PAY",
			"inputs": []
		},
		{
			"type": "error",
			"name": "INVALID_REDEEM",
			"inputs": []
		},
		{
			"type": "error",
			"name": "MINT_RESERVE_NFTS_PAUSED",
			"inputs": []
		},
		{
			"type": "error",
			"name": "OVERSPENDING",
			"inputs": []
		},
		{
			"type": "error",
			"name": "PRBMath_MulDiv_Overflow",
			"inputs": [
				{
					"name": "x",
					"type": "uint256",
					"internalType": "uint256"
				},
				{
					"name": "y",
					"type": "uint256",
					"internalType": "uint256"
				},
				{
					"name": "denominator",
					"type": "uint256",
					"internalType": "uint256"
				}
			]
		},
		{
			"type": "error",
			"name": "TIER_TRANSFERS_PAUSED",
			"inputs": []
		},
		{
			"type": "error",
			"name": "UNAUTHORIZED",
			"inputs": []
		},
		{
			"type": "error",
			"name": "UNAUTHORIZED_TOKEN",
			"inputs": [
				{
					"name": "tokenId",
					"type": "uint256",
					"internalType": "uint256"
				}
			]
		},
		{
			"type": "error",
			"name": "UNEXPECTED_TOKEN_REDEEMED",
			"inputs": []
		}
	],
	"solcInputHash": "dd1347b6bdfffb0c4296571a452787bf",
	"args": [
		"0x317E962828ddBb27576f6F0cA89Adc3cd56Ed8Cc",
		"0x4475B99b2f6F06c5048fe8c3839dFe2E5d744e65",
		"0xB2b5841DBeF766d4b521221732F9B618fCf34A87"
	],
	"bytecode": "0x6101206040523480156200001257600080fd5b50604051620062173803806200621783398101604081905262000035916200038b565b8281846001600160a01b031663293c49996040518163ffffffff1660e01b8152600401602060405180830381865afa15801562000076573d6000803e3d6000fd5b505050506040513d601f19601f820116820180604052508101906200009c9190620003df565b6001600160a01b03858116608052811660a052843360008383838381620000d65760405163ecb9b1c760e01b815260040160405180910390fd5b620000e282826200010a565b505050506001600160a01b0394851660c052505050501660e052505030610100525062000406565b6001600160581b038116158015906200012b57506001600160a01b03821615155b156200014a5760405163ecb9b1c760e01b815260040160405180910390fd5b60408051606081018252600080546001600160a01b0381168352600160a01b81046001600160581b031660208401819052600160f81b90910460ff1693830193909352909115620002195760a05160208301516040516331a9108f60e11b81526001600160581b0390911660048201526001600160a01b0390911690636352211e90602401602060405180830381865afa158015620001ed573d6000803e3d6000fd5b505050506040513d601f19601f82011682018060405250810190620002139190620003df565b6200021c565b81515b604080516060810182526001600160a01b0387168082526001600160581b0387166020830181905260009290930182905281547fff000000000000000000000000000000000000000000000000000000000000001617600160a01b909202919091176001600160f81b031690559050620002988185856200029e565b50505050565b6001600160581b038116156200032c5760a0516040516331a9108f60e11b81526001600160581b03831660048201526001600160a01b0390911690636352211e90602401602060405180830381865afa15801562000300573d6000803e3d6000fd5b505050506040513d601f19601f82011682018060405250810190620003269190620003df565b6200032e565b815b6001600160a01b0316836001600160a01b03167f8be0079c531659141344cd1fd0a4f28419497f9722a3daafe3b4186f6b6457e060405160405180910390a3505050565b6001600160a01b03811681146200038857600080fd5b50565b600080600060608486031215620003a157600080fd5b8351620003ae8162000372565b6020850151909350620003c18162000372565b6040850151909250620003d48162000372565b809150509250925092565b600060208284031215620003f257600080fd5b8151620003ff8162000372565b9392505050565b60805160a05160c05160e05161010051615d786200049f6000396000818161096e01528181611364015281816119c7015261332d0152600081816106e00152818161128301526120c901526000818161055e015281816106aa015261377601526000818161046d0152818161187a01528181612c4501528181612d970152613a9d0152600081816109d5015261259b0152615d786000f3fe6080604052600436106102fd5760003560e01c8063715018a61161018f578063c07f2f9b116100e1578063e985e9c51161008a578063f3c5788111610064578063f3c57881146109b0578063f434c914146109c3578063fef50848146109f757600080fd5b8063e985e9c514610913578063edab09b91461095c578063f2fde38b1461099057600080fd5b8063d4a1b4b1116100bb578063d4a1b4b1146108b1578063d95c9ae2146108d1578063e8a3d485146108fe57600080fd5b8063c07f2f9b14610851578063c0fb5e8514610871578063c87b56dd1461089157600080fd5b8063a220d69611610143578063ade032ff1161011d578063ade032ff1461079c578063b88d4fde146107bc578063ba23c36e146107dc57600080fd5b8063a220d6961461072c578063a22cb4651461074c578063aaf320d71461076c57600080fd5b806388bc2ef31161017457806388bc2ef3146106ce5780638da5cb5b1461070257806395d89b411461071757600080fd5b8063715018a6146106865780637da0a8771461069b57600080fd5b8063507f14651161025357806366ec4cb4116101fc5780636ac6d941116101d65780636ac6d941146106245780636c0360eb1461065157806370a082311461066657600080fd5b806366ec4cb4146105ce578063677ce088146105e157806368f9c6bc1461060457600080fd5b8063572b6c051161022d578063572b6c0514610541578063613b856d1461058e5780636352211e146105ae57600080fd5b8063507f1465146104dd57806354c6d1f5146104fd57806356539f391461051d57600080fd5b80631435aad5116102b5578063293c49991161028f578063293c49991461045b57806342842e0e1461048f5780634c4ffc71146104af57600080fd5b80631435aad5146103fb5780631c52730b1461041b57806323b872dd1461043b57600080fd5b8063081812fc116102e6578063081812fc1461035957806308786b1a14610391578063095ea7b3146103d957600080fd5b806301ffc9a71461030257806306fdde0314610337575b600080fd5b34801561030e57600080fd5b5061032261031d366004614275565b610a17565b60405190151581526020015b60405180910390f35b34801561034357600080fd5b5061034c610a5b565b60405161032e91906142e2565b34801561036557600080fd5b506103796103743660046142f5565b610aed565b6040516001600160a01b03909116815260200161032e565b34801561039d57600080fd5b5060095463ffffffff811690602081901c60ff169060281c6040805193845260208401929092526001600160a01b03169082015260600161032e565b3480156103e557600080fd5b506103f96103f4366004614333565b610b16565b005b34801561040757600080fd5b506103f96104163660046143a1565b610b2c565b34801561042757600080fd5b506103f9610436366004614437565b610dc7565b34801561044757600080fd5b506103f96104563660046144ac565b610e20565b34801561046757600080fd5b506103797f000000000000000000000000000000000000000000000000000000000000000081565b34801561049b57600080fd5b506103f96104aa3660046144ac565b610eca565b3480156104bb57600080fd5b506104cf6104ca3660046144ed565b610eea565b60405161032e929190614529565b3480156104e957600080fd5b50600a54610379906001600160a01b031681565b34801561050957600080fd5b506103796105183660046142f5565b610f91565b34801561052957600080fd5b5061053360075481565b60405190815260200161032e565b34801561054d57600080fd5b5061032261055c3660046145ba565b7f00000000000000000000000000000000000000000000000000000000000000006001600160a01b0390811691161490565b34801561059a57600080fd5b506103f96105a93660046145d7565b610fd5565b3480156105ba57600080fd5b506103796105c93660046142f5565b611250565b6103f96105dc366004614612565b61125b565b3480156105ed57600080fd5b506103226105fc366004614647565b600092915050565b34801561061057600080fd5b5061053361061f36600461478a565b6114df565b34801561063057600080fd5b5061064461063f36600461488d565b61156c565b60405161032e9190614920565b34801561065d57600080fd5b5061034c6116cc565b34801561067257600080fd5b506105336106813660046145ba565b61175a565b34801561069257600080fd5b506103f96117e9565b3480156106a757600080fd5b507f0000000000000000000000000000000000000000000000000000000000000000610379565b3480156106da57600080fd5b506103797f000000000000000000000000000000000000000000000000000000000000000081565b34801561070e57600080fd5b506103796117fe565b34801561072357600080fd5b5061034c6118f3565b34801561073857600080fd5b506103f96107473660046142f5565b611902565b34801561075857600080fd5b506103f961076736600461494c565b61194d565b34801561077857600080fd5b5061078c61078736600461497a565b61195f565b60405161032e94939291906149af565b3480156107a857600080fd5b506105336107b736600461497a565b611afe565b3480156107c857600080fd5b506103f96107d7366004614ab0565b611b48565b3480156107e857600080fd5b5060005461081d906001600160a01b03811690600160a01b81046affffffffffffffffffffff1690600160f81b900460ff1683565b604080516001600160a01b0390941684526affffffffffffffffffffff909216602084015260ff169082015260600161032e565b34801561085d57600080fd5b506103f961086c366004614dc4565b611b5f565b34801561087d57600080fd5b506103f961088c366004614ee5565b611dfd565b34801561089d57600080fd5b5061034c6108ac3660046142f5565b611e0e565b3480156108bd57600080fd5b50600b54610379906001600160a01b031681565b3480156108dd57600080fd5b506105336108ec3660046145ba565b600c6020526000908152604090205481565b34801561090a57600080fd5b5061034c61205a565b34801561091f57600080fd5b5061032261092e366004614f00565b6001600160a01b03918216600090815260066020908152604080832093909416825291909152205460ff1690565b34801561096857600080fd5b506103797f000000000000000000000000000000000000000000000000000000000000000081565b34801561099c57600080fd5b506103f96109ab3660046145ba565b612067565b6103f96109be366004614612565b6120a1565b3480156109cf57600080fd5b506103797f000000000000000000000000000000000000000000000000000000000000000081565b348015610a0357600080fd5b506103f9610a12366004614f2e565b61218d565b60006001600160e01b031982167fb88c9696000000000000000000000000000000000000000000000000000000001480610a555750610a55826123b3565b92915050565b606060018054610a6a90614fc9565b80601f0160208091040260200160405190810160405280929190818152602001828054610a9690614fc9565b8015610ae35780601f10610ab857610100808354040283529160200191610ae3565b820191906000526020600020905b815481529060010190602001808311610ac657829003601f168201915b5050505050905090565b6000610af8826124c1565b506000828152600560205260409020546001600160a01b0316610a55565b610b288282610b236124fa565b612509565b5050565b610b41610b376117fe565b6007546015612516565b8515610bb257600d610b5487898361504d565b508686604051610b6592919061510d565b60405180910390207f7bc9110d5de090dd59e07912d2b93a5a27ac70a60c8d8e324db4f9ee8b8b5c13610b966124fa565b6040516001600160a01b03909116815260200160405180910390a25b8315610c2357600e610bc585878361504d565b508484604051610bd692919061510d565b60405180910390207fd36dc0c1a06103fdcaf15f3f6fb797d1a97997514c78de073640c8b5005454b8610c076124fa565b6040516001600160a01b03909116815260200160405180910390a25b600a546001600160a01b039081169084163014610ce45760405163036129cb60e61b81526001600160a01b03858116600483015282169063d84a72c090602401600060405180830381600087803b158015610c7d57600080fd5b505af1158015610c91573d6000803e3d6000fd5b50505050836001600160a01b03167fe7784d93cfbfa4408e19577e6cc0436f4dbb51214b70e100905dfce9def88c16610cc86124fa565b6040516001600160a01b03909116815260200160405180910390a25b8215801590610cf257508115155b15610dbd576040517f49bd1ac600000000000000000000000000000000000000000000000000000000815260048101849052602481018390526001600160a01b038216906349bd1ac690604401600060405180830381600087803b158015610d5957600080fd5b505af1158015610d6d573d6000803e3d6000fd5b50505050827f677da4fed654db8e604791fa2582f342e2001aa217e27f6985eb3e0f67e5a7fc83610d9c6124fa565b604080519283526001600160a01b0390911660208301520160405180910390a25b5050505050505050565b8060005b81811015610e1a576000848483818110610de757610de761511d565b905060400201803603810190610dfd9190615133565b9050610e1181600001518260200151610fd5565b50600101610dcb565b50505050565b6001600160a01b038216610e4f57604051633250574960e11b8152600060048201526024015b60405180910390fd5b6000610e638383610e5e6124fa565b61263f565b9050836001600160a01b0316816001600160a01b031614610e1a576040517f64283d7b0000000000000000000000000000000000000000000000000000000081526001600160a01b0380861660048301526024820184905282166044820152606401610e46565b610ee583838360405180602001604052806000815250611b48565b505050565b6040805160018082528183019092526101208301359160609190816020015b60408051606080820183526000808352602083015291810191909152815260200190600190039081610f095790505090506040518060600160405280306001600160a01b03168152602001600081526020016040518060200160405280600081525081525081600081518110610f8157610f8161511d565b6020026020010181905250915091565b6000818152600860205260408120546001600160a01b03168015610fb55792915050565b6000838152600360205260409020546001600160a01b03165b9392505050565b600b546007546040516321d1336160e11b815260048101919091526000916001600160a01b0316906343a266c29060240161012060405180830381865afa158015611024573d6000803e3d6000fd5b505050506040513d601f19601f82011682018060405250810190611048919061518d565b905061106761105c82610100015160f01c90565b600190811c81161490565b1561109e576040517f63a0ba3900000000000000000000000000000000000000000000000000000000815260040160405180910390fd5b600a546040517fbaa7e80e00000000000000000000000000000000000000000000000000000000815260048101859052602481018490526001600160a01b0390911690600090829063baa7e80e906044016000604051808303816000875af115801561110e573d6000803e3d6000fd5b505050506040513d6000823e601f3d908101601f191682016040526111369190810190615277565b6040517f03573004000000000000000000000000000000000000000000000000000000008152306004820152602481018790529091506000906001600160a01b03841690630357300490604401602060405180830381865afa1580156111a0573d6000803e3d6000fd5b505050506040513d601f19601f820116820180604052508101906111c491906152ac565b90506000805b86811015610dbd578381815181106111e4576111e461511d565b602002602001015191506111f883836128c0565b826001600160a01b031688837f80dd2efbbc431cde0164d84d638e44ba6e7a3ca5d532ceef1bb4efcc0948325d61122d6124fa565b6040516001600160a01b03909116815260200160405180910390a46001016111ca565b6000610a55826124c1565b600754341515806112f85750604051636e49181f60e01b8152600481018290523360248201527f00000000000000000000000000000000000000000000000000000000000000006001600160a01b031690636e49181f90604401602060405180830381865afa1580156112d2573d6000803e3d6000fd5b505050506040513d601f19601f820116820180604052508101906112f691906152d4565b155b80611307575080826020013514155b1561133e576040517f835e522b00000000000000000000000000000000000000000000000000000000815260040160405180910390fd5b60408051808201909152600681526572656465656d60d01b6020909101526000806113f07f000000000000000000000000000000000000000000000000000000000000000060601b7f26ef0a97332ad048ac544d8dfacdd43e128b9816d599fdd0310960904fa18609186113b66101e08701876152f1565b8080601f01602080910402602001604051908101604052809392919081815260200183838082843760009201919091525061293e92505050565b915091506060821561141357818060200190518101906114109190615277565b90505b80516000805b828110156114cc578381815181106114335761143361511d565b6020026020010151915087600001602081019061145091906145ba565b6001600160a01b0316611478836000908152600360205260409020546001600160a01b031690565b6001600160a01b0316146114bb576040517f5caf197500000000000000000000000000000000000000000000000000000000815260048101839052602401610e46565b6114c482612b14565b600101611419565b506114d683612b4f565b50505050505050565b600a546040517f144cc2d40000000000000000000000000000000000000000000000000000000081526000916001600160a01b03169063144cc2d49061152b9030908790600401615338565b602060405180830381865afa158015611548573d6000803e3d6000fd5b505050506040513d601f19601f82011682018060405250810190610fce919061535a565b60606115836115796117fe565b6007546016612516565b600a5460405163eaa19ab360e01b81526001600160a01b039091169063eaa19ab3906115bc906000199088908890600190600401615373565b6000604051808303816000875af11580156115db573d6000803e3d6000fd5b505050506040513d6000823e601f3d908101601f1916820160405261160391908101906153d2565b509050826000805b828110156116c2578381815181106116255761162561511d565b6020026020010151915061163985836128c0565b846001600160a01b03168787838181106116555761165561511d565b905060200201602081019061166a9190615419565b61ffff16837f598baf7bf150ca2f42be9e9f8f55e81d45f5715c3ff22bf46d697fabec7f31d6600061169a6124fa565b604080519283526001600160a01b0390911660208301520160405180910390a460010161160b565b5050509392505050565b600d80546116d990614fc9565b80601f016020809104026020016040519081016040528092919081815260200182805461170590614fc9565b80156117525780601f1061172757610100808354040283529160200191611752565b820191906000526020600020905b81548152906001019060200180831161173557829003601f168201915b505050505081565b600a546040517ff7888aec0000000000000000000000000000000000000000000000000000000081523060048201526001600160a01b038381166024830152600092169063f7888aec906044015b602060405180830381865afa1580156117c5573d6000803e3d6000fd5b505050506040513d601f19601f82011682018060405250810190610a55919061535a565b6117f1612bcd565b6117fc600080612cdf565b565b60408051606081018252600080546001600160a01b0381168352600160a01b81046affffffffffffffffffffff1660208401819052600160f81b90910460ff16938301939093529182036118525751919050565b60208101516040516331a9108f60e11b81526affffffffffffffffffffff90911660048201527f00000000000000000000000000000000000000000000000000000000000000006001600160a01b031690636352211e90602401602060405180830381865afa1580156118c9573d6000803e3d6000fd5b505050506040513d601f19601f820116820180604052508101906118ed91906152ac565b91505090565b606060028054610a6a90614fc9565b61190a612bcd565b80158061192157506affffffffffffffffffffff81115b1561193f5760405163ecb9b1c760e01b815260040160405180910390fd5b61194a600082612cdf565b50565b610b286119586124fa565b8383612e90565b6000808060606080850135156119a1576040517f4fc178d800000000000000000000000000000000000000000000000000000000815260040160405180910390fd5b60408051808201909152600681526572656465656d60d01b602090910152600080611a197f000000000000000000000000000000000000000000000000000000000000000060601b7f26ef0a97332ad048ac544d8dfacdd43e128b9816d599fdd0310960904fa18609186113b66101808a018a6152f1565b604080516001808252818301909252929450909250816020015b60408051606080820183526000808352602083015291810191909152815260200190600190039081611a335790505092506040518060600160405280306001600160a01b03168152602001600081526020016040518060200160405280600081525081525083600081518110611aab57611aab61511d565b602002602001018190525060608215611ad55781806020019051810190611ad29190615277565b90505b611adf81896114df565b9550611aea88611afe565b945087610160013596505050509193509193565b600a546040517f2ae5e4920000000000000000000000000000000000000000000000000000000081523060048201526000916001600160a01b031690632ae5e492906024016117a8565b611b53848484610e20565b610e1a84848484612f48565b600a546001600160a01b031615611b7557600080fd5b611b808a8a8a61308a565b600b80546001600160a01b03808a1673ffffffffffffffffffffffffffffffffffffffff1992831617909255600a8054928516929091169190911790556020808401516040850151606086015178ffffffffffffffffffffffffffffffffffffffff000000000060289190911b1664ff000000009190931b1663ffffffff90911617176009819055865115611c1d57600d611c1b8882615436565b505b845115611c3257600e611c308682615436565b505b6001600160a01b03861615611c9d5760405163036129cb60e61b81526001600160a01b03878116600483015284169063d84a72c090602401600060405180830381600087803b158015611c8457600080fd5b505af1158015611c98573d6000803e3d6000fd5b505050505b83515115611d1b5783516040516349249dc160e01b81526001600160a01b038516916349249dc191611cd291906004016154f6565b6000604051808303816000875af1158015611cf1573d6000803e3d6000fd5b505050506040513d6000823e601f3d908101601f19168201604052611d199190810190615277565b505b815180611d29575081602001515b80611d35575081604001515b80611d41575081606001515b15611de057604080517fcb827e3200000000000000000000000000000000000000000000000000000000815283511515600482015260208401511515602482015290830151151560448201526060830151151560648201526001600160a01b0384169063cb827e3290608401600060405180830381600087803b158015611dc757600080fd5b505af1158015611ddb573d6000803e3d6000fd5b505050505b611df0611deb6124fa565b612096565b5050505050505050505050565b611e05612bcd565b61194a8161309b565b600a546040517f0fab09470000000000000000000000000000000000000000000000000000000081523060048201526060916001600160a01b0316906000908290630fab094790602401602060405180830381865afa158015611e75573d6000803e3d6000fd5b505050506040513d601f19601f82011682018060405250810190611e9991906152ac565b90506001600160a01b03811615611f3e576040517f5e703e71000000000000000000000000000000000000000000000000000000008152306004820152602481018590526001600160a01b03821690635e703e7190604401600060405180830381865afa158015611f0e573d6000803e3d6000fd5b505050506040513d6000823e601f3d908101601f19168201604052611f369190810190615628565b949350505050565b611f36600d8054611f4e90614fc9565b80601f0160208091040260200160405190810160405280929190818152602001828054611f7a90614fc9565b8015611fc75780601f10611f9c57610100808354040283529160200191611fc7565b820191906000526020600020905b815481529060010190602001808311611faa57829003601f168201915b50506040517fc8df1710000000000000000000000000000000000000000000000000000000008152306004820152602481018a90526001600160a01b038816935063c8df171092506044019050602060405180830381865afa158015612031573d6000803e3d6000fd5b505050506040513d601f19601f82011682018060405250810190612055919061535a565b6130f1565b600e80546116d990614fc9565b61206f612bcd565b6001600160a01b0381166120965760405163ecb9b1c760e01b815260040160405180910390fd5b61194a816000612cdf565b6007543415158061213e5750604051636e49181f60e01b8152600481018290523360248201527f00000000000000000000000000000000000000000000000000000000000000006001600160a01b031690636e49181f90604401602060405180830381865afa158015612118573d6000803e3d6000fd5b505050506040513d601f19601f8201168201806040525081019061213c91906152d4565b155b8061214d575080826020013514155b15612184576040517f8a3ea1c800000000000000000000000000000000000000000000000000000000815260040160405180910390fd5b610b2882613174565b6121a26121986117fe565b6007546014612516565b600a54839082906001600160a01b031681156122a3576040517f20512ba10000000000000000000000000000000000000000000000000000000081526001600160a01b038216906320512ba1906121ff908890889060040161565d565b600060405180830381600087803b15801561221957600080fd5b505af115801561222d573d6000803e3d6000fd5b5050505060005b828110156122a15785858281811061224e5761224e61511d565b905060200201357f832d89d991be5351d793c20faf4b7dd44f8aa9ce39e3cb160c6317de6fbba72961227e6124fa565b6040516001600160a01b03909116815260200160405180910390a2600101612234565b505b82156114d6576040516349249dc160e01b81526000906001600160a01b038316906349249dc1906122da908b908b906004016157b5565b6000604051808303816000875af11580156122f9573d6000803e3d6000fd5b505050506040513d6000823e601f3d908101601f191682016040526123219190810190615277565b905060005b848110156123a8578181815181106123405761234061511d565b60200260200101517f6c05e4bd067859371de8c0a303cf84af0ba782c3809f8fba14e6af4388894cf08a8a8481811061237b5761237b61511d565b9050610180020161238a6124fa565b6040516123989291906157f8565b60405180910390a2600101612326565b505050505050505050565b60006001600160e01b031982167f3344b87300000000000000000000000000000000000000000000000000000000148061241657506001600160e01b031982167f81c03c2e00000000000000000000000000000000000000000000000000000000145b8061244a57506001600160e01b031982167ff3c5788100000000000000000000000000000000000000000000000000000000145b8061247e57506001600160e01b031982167f66ec4cb400000000000000000000000000000000000000000000000000000000145b806124b257506001600160e01b031982167f2a55205a00000000000000000000000000000000000000000000000000000000145b80610a555750610a55826136cb565b6000818152600360205260408120546001600160a01b031680610a5557604051637e27328960e01b815260048101849052602401610e46565b6000612504613766565b905090565b610ee583838360016137db565b60006125206124fa565b9050836001600160a01b0316816001600160a01b03161415801561260857506040517f348b684e0000000000000000000000000000000000000000000000000000000081526001600160a01b0382811660048301528581166024830152604482018590526064820184905260016084830181905260a48301527f0000000000000000000000000000000000000000000000000000000000000000169063348b684e9060c401602060405180830381865afa1580156125e2573d6000803e3d6000fd5b505050506040513d601f19601f8201168201806040525081019061260691906152d4565b155b15610e1a576040517f075fd2b100000000000000000000000000000000000000000000000000000000815260040160405180910390fd5b600a546040517fc44a8e6d00000000000000000000000000000000000000000000000000000000815230600482015260248101849052600060448201819052916001600160a01b0316908290829063c44a8e6d90606401600060405180830381865afa1580156126b3573d6000803e3d6000fd5b505050506040513d6000823e601f3d908101601f191682016040526126db919081019061581e565b90506126e8868686613926565b92506001600160a01b0383161561283157806101400151156127e057600b546007546040516321d1336160e11b815260048101919091526000916001600160a01b0316906343a266c29060240161012060405180830381865afa158015612753573d6000803e3d6000fd5b505050506040513d601f19601f82011682018060405250810190612777919061518d565b90506001600160a01b038716158015906127a757506127a761279e82610100015160f01c90565b60019081161490565b156127de576040517ffa45ac2900000000000000000000000000000000000000000000000000000000815260040160405180910390fd5b505b6000858152600860205260409020546001600160a01b0316612831576000858152600860205260409020805473ffffffffffffffffffffffffffffffffffffffff19166001600160a01b0385161790555b80516040517fc2c55f9400000000000000000000000000000000000000000000000000000000815260048101919091526001600160a01b038481166024830152878116604483015283169063c2c55f9490606401600060405180830381600087803b15801561289f57600080fd5b505af11580156128b3573d6000803e3d6000fd5b5050505050509392505050565b6001600160a01b0382166128ea57604051633250574960e11b815260006004820152602401610e46565b60006128f88383600061263f565b90506001600160a01b03811615610ee5576040517f73c6ac6e00000000000000000000000000000000000000000000000000000000815260006004820152602401610e46565b6000606060258351116129635750506040805160208101909152600080825290612b0d565b6000836129726004602061593f565b815181106129825761298261511d565b0160209081015160f81c91505b60008561299d60048461593f565b815181106129ad576129ad61511d565b01602001517fff0000000000000000000000000000000000000000000000000000000000000016148015906129eb57506129e8602083615952565b81105b15612b0a576000856129fe60048461593f565b81518110612a0e57612a0e61511d565b016020908101518784019091015160f89190911c91506001600160e01b031980891690821603612b00576000612a45602086615952565b612a5060098661593f565b101580612a9d575087612a6460098661593f565b81518110612a7457612a7461511d565b01602001517fff0000000000000000000000000000000000000000000000000000000000000016155b612ad657602088612aaf60098761593f565b81518110612abf57612abf61511d565b0160200151612ad1919060f81c615952565b612ad9565b87515b90506001612af289612aec602087615952565b84613a2c565b965096505050505050612b0d565b505060050161298f565b50505b9250929050565b6000612b23600083600061263f565b90506001600160a01b038116610b2857604051637e27328960e01b815260048101839052602401610e46565b600a546040517f86bc2be30000000000000000000000000000000000000000000000000000000081526001600160a01b03909116906386bc2be390612b98908490600401614920565b600060405180830381600087803b158015612bb257600080fd5b505af1158015612bc6573d6000803e3d6000fd5b5050505050565b604080516060810182526000546001600160a01b0381168252600160a01b81046affffffffffffffffffffff1660208301819052600160f81b90910460ff16928201929092529061194a9015612cbd5760208201516040516331a9108f60e11b81526affffffffffffffffffffff90911660048201527f00000000000000000000000000000000000000000000000000000000000000006001600160a01b031690636352211e90602401602060405180830381865afa158015612c94573d6000803e3d6000fd5b505050506040513d601f19601f82011682018060405250810190612cb891906152ac565b612cc0565b81515b82602001516affffffffffffffffffffff16836040015160ff16612516565b6affffffffffffffffffffff811615801590612d0357506001600160a01b03821615155b15612d215760405163ecb9b1c760e01b815260040160405180910390fd5b60408051606081018252600080546001600160a01b0381168352600160a01b81046affffffffffffffffffffff1660208401819052600160f81b90910460ff1693830193909352909115612e0f5760208201516040516331a9108f60e11b81526affffffffffffffffffffff90911660048201527f00000000000000000000000000000000000000000000000000000000000000006001600160a01b031690636352211e90602401602060405180830381865afa158015612de6573d6000803e3d6000fd5b505050506040513d601f19601f82011682018060405250810190612e0a91906152ac565b612e12565b81515b604080516060810182526001600160a01b0387168082526affffffffffffffffffffff87166020830181905260009290930182905281547fff000000000000000000000000000000000000000000000000000000000000001617600160a01b909202919091176001600160f81b031690559050610e1a818585613a68565b6001600160a01b038216612edb576040517f5b08ba180000000000000000000000000000000000000000000000000000000081526001600160a01b0383166004820152602401610e46565b6001600160a01b03838116600081815260066020908152604080832094871680845294825291829020805460ff191686151590811790915591519182527f17307eab39ab6107e8899845ad3d59bd9653f200f220920489ca2b5937696c31910160405180910390a3505050565b6001600160a01b0383163b15610e1a57826001600160a01b031663150b7a02612f6f6124fa565b8685856040518563ffffffff1660e01b8152600401612f919493929190615969565b6020604051808303816000875af1925050508015612fcc575060408051601f3d908101601f19168201909252612fc9918101906159a5565b60015b613035573d808015612ffa576040519150601f19603f3d011682016040523d82523d6000602084013e612fff565b606091505b50805160000361302d57604051633250574960e11b81526001600160a01b0385166004820152602401610e46565b805181602001fd5b6001600160e01b031981167f150b7a020000000000000000000000000000000000000000000000000000000014612bc657604051633250574960e11b81526001600160a01b0385166004820152602401610e46565b6130948282613b5b565b5050600755565b600080546001600160f81b0316600160f81b60ff8416908102919091179091556040519081527f6f4725627084d54c46c628b050805457a1cd38c5cd20c1f00132960f8b546fed9060200160405180910390a150565b6040517f12200000000000000000000000000000000000000000000000000000000000006020820152602281018290526060906000906042016040516020818303038152906040529050600061314682613b74565b9050848160405160200161315b9291906159c2565b6040516020818303038152906040529250505092915050565b60095460009063ffffffff811660c08401358190036131995760808401359250613273565b602882901c6001600160a01b03811615612bc65760ff602084901c1661326e60808701356131c883600a615ad5565b6007546040517f3be273fa000000000000000000000000000000000000000000000000000000008152600481019190915260c08a013560248201526044810187905260a08a013560648201526001600160a01b03861690633be273fa90608401602060405180830381865afa158015613245573d6000803e3d6000fd5b505050506040513d601f19601f82011682018060405250810190613269919061535a565b613d0c565b945050505b5060009050600c8161328d6101c086016101a087016145ba565b6001600160a01b031681526020810191909152604001600090812054915082906132bf6101c086016101a087016145ba565b6001600160a01b03166132d560208701876145ba565b6001600160a01b0316036132ec57908201906132ef565b50815b60408051808201909152600381527f70617900000000000000000000000000000000000000000000000000000000006020909101526000808061337f7f000000000000000000000000000000000000000000000000000000000000000060601b7fadc756803e4eb4ccfb136b73d5f72e3dc0d452d30ae1f4bc82af394c73ce7115186113b66101e08b018b6152f1565b9150915081156134535760608180602001905181019061339f9190615ae1565b909450905083801561341d5750600a54604051634228826f60e11b81523060048201526001600160a01b039091169063845104de90602401608060405180830381865afa1580156133f4573d6000803e3d6000fd5b505050506040513d601f19601f820116820180604052508101906134189190615b92565b606001515b1561342757600093505b80511561344d5761344a86826134456101c08d016101a08e016145ba565b613df9565b95505b506134cc565b600a54604051634228826f60e11b81523060048201526001600160a01b039091169063845104de90602401608060405180830381865afa15801561349b573d6000803e3d6000fd5b505050506040513d601f19601f820116820180604052508101906134bf9190615b92565b606001516134cc57600192505b841561361f5782613509576040517f6d5e09a400000000000000000000000000000000000000000000000000000000815260040160405180910390fd5b8484018681111561357c576135266101c08a016101a08b016145ba565b6001600160a01b0316818883037f7e71a5f6c04b0eb16949316623b9dda7bd103692f7d89678e2260afa1378a2d561355c6124fa565b6040516001600160a01b03909116815260200160405180910390a46135e8565b808711156135e8576135966101c08a016101a08b016145ba565b6001600160a01b0316818289037f6276f0169fb8de712b2a6c02789f6115136c589ed491ac06f9e20f41877e41fe6135cc6124fa565b6040516001600160a01b03909116815260200160405180910390a45b80600c60006135ff6101c08d016101a08e016145ba565b6001600160a01b0316815260208101919091526040016000205550610dbd565b838614610dbd576136386101c089016101a08a016145ba565b6001600160a01b03168461364c8189615bf9565b7f6276f0169fb8de712b2a6c02789f6115136c589ed491ac06f9e20f41877e41fe6136756124fa565b6040516001600160a01b03909116815260200160405180910390a483600c60006136a76101c08c016101a08d016145ba565b6001600160a01b031681526020810191909152604001600020555050505050505050565b60006001600160e01b031982167f80ac58cd00000000000000000000000000000000000000000000000000000000148061372e57506001600160e01b031982167f5b5e139f00000000000000000000000000000000000000000000000000000000145b80610a5557507f01ffc9a7000000000000000000000000000000000000000000000000000000006001600160e01b0319831614610a55565b6000366014336001600160a01b037f0000000000000000000000000000000000000000000000000000000000000000161480156137a35750808210155b156137d3576000366137b58385615bf9565b6137c0928290615c0c565b6137c991615c36565b60601c9250505090565b339250505090565b80806137ef57506001600160a01b03821615155b156138e95760006137ff846124c1565b90506001600160a01b0383161580159061382b5750826001600160a01b0316816001600160a01b031614155b801561385d57506001600160a01b0380821660009081526006602090815260408083209387168352929052205460ff16155b1561389f576040517fa9fbf51f0000000000000000000000000000000000000000000000000000000081526001600160a01b0384166004820152602401610e46565b81156138e75783856001600160a01b0316826001600160a01b03167f8c5be1e5ebec7d5bd14f71427d1e84f3dd0314c0f7b2291e5b200ac8c7c3b92560405160405180910390a45b505b50506000908152600560205260409020805473ffffffffffffffffffffffffffffffffffffffff19166001600160a01b0392909216919091179055565b6000828152600360205260408120546001600160a01b039081169083161561395357613953818486613f3a565b6001600160a01b03811615613991576139706000856000806137db565b6001600160a01b038116600090815260046020526040902080546000190190555b6001600160a01b038516156139c0576001600160a01b0385166000908152600460205260409020805460010190555b600084815260036020526040808220805473ffffffffffffffffffffffffffffffffffffffff19166001600160a01b0389811691821790925591518793918516917fddf252ad1be2c89b69c2b068fc378daa952ba7f163c4a11628f55a4df523b3ef91a4949350505050565b60608282036040519150602081830101604052808252508260208501016020820160005b848110156116c2578281015182820152602001613a50565b6affffffffffffffffffffff811615613b15576040516331a9108f60e11b81526affffffffffffffffffffff821660048201527f00000000000000000000000000000000000000000000000000000000000000006001600160a01b031690636352211e90602401602060405180830381865afa158015613aec573d6000803e3d6000fd5b505050506040513d601f19601f82011682018060405250810190613b1091906152ac565b613b17565b815b6001600160a01b0316836001600160a01b03167f8be0079c531659141344cd1fd0a4f28419497f9722a3daafe3b4186f6b6457e060405160405180910390a3505050565b6001613b678382615436565b506002610ee58282615436565b60608151600003613b9357505060408051600081526020810190915290565b60408051602e8082526105e08201909252600091602082016105c080368337019050509050600081600081518110613bcd57613bcd61511d565b60ff90921660209283029190910190910152825160019060005b81811015613ce8576000868281518110613c0357613c0361511d565b016020015160f81c905060005b8460ff16811015613c8d576008868281518110613c2f57613c2f61511d565b602002602001015160ff16901b82613c47919061593f565b9150613c54603a83615c81565b868281518110613c6657613c6661511d565b60ff90921660209283029190910190910152613c83603a83615c95565b9150600101613c10565b505b8015613cdf57613ca0603a82615c81565b858560ff1681518110613cb557613cb561511d565b60ff90921660209283029190910190910152600190930192613cd8603a82615c95565b9050613c8f565b50600101613be7565b50613d03613cfe613cf98585613fb7565b61405f565b614102565b95945050505050565b6000808060001985870985870292508281108382030391505080600003613d4657838281613d3c57613d3c615c6b565b0492505050610fce565b838110613d90576040517f63a05778000000000000000000000000000000000000000000000000000000008152600481018790526024810186905260448101859052606401610e46565b60008486880960026001871981018816978890046003810283188082028403028082028403028082028403028082028403028082028403029081029092039091026000889003889004909101858311909403939093029303949094049190911702949350505050565b600a5460405163eaa19ab360e01b81526000916060916001600160a01b039091169063eaa19ab390613e3390889088908790600401615ca9565b6000604051808303816000875af1158015613e52573d6000803e3d6000fd5b505050506040513d6000823e601f3d908101601f19168201604052613e7a91908101906153d2565b81519093509091506000805b82811015613f2f57838181518110613ea057613ea061511d565b60200260200101519150613eb486836128c0565b856001600160a01b0316878281518110613ed057613ed061511d565b602002602001015161ffff16837f598baf7bf150ca2f42be9e9f8f55e81d45f5715c3ff22bf46d697fabec7f31d68b613f076124fa565b604080519283526001600160a01b0390911660208301520160405180910390a4600101613e86565b505050509392505050565b613f458383836141dc565b610ee5576001600160a01b038316613f7357604051637e27328960e01b815260048101829052602401610e46565b6040517f177e802f0000000000000000000000000000000000000000000000000000000081526001600160a01b038316600482015260248101829052604401610e46565b606060008260ff1667ffffffffffffffff811115613fd757613fd7614677565b604051908082528060200260200182016040528015614000578160200160208202803683370190505b50905060005b8360ff16811015614057578481815181106140235761402361511d565b602002602001015182828151811061403d5761403d61511d565b60ff90921660209283029190910190910152600101614006565b509392505050565b805160609060008167ffffffffffffffff81111561407f5761407f614677565b6040519080825280602002602001820160405280156140a8578160200160208202803683370190505b50905060005b82811015614057578481600187510303815181106140ce576140ce61511d565b60200260200101518282815181106140e8576140e861511d565b60ff909216602092830291909101909101526001016140ae565b805160609060008167ffffffffffffffff81111561412257614122614677565b6040519080825280601f01601f19166020018201604052801561414c576020820181803683370190505b50905060005b82811015614057576040518060600160405280603a8152602001615d09603a91398582815181106141855761418561511d565b602002602001015160ff16815181106141a0576141a061511d565b602001015160f81c60f81b8282815181106141bd576141bd61511d565b60200101906001600160f81b031916908160001a905350600101614152565b60006001600160a01b03831615801590611f365750826001600160a01b0316846001600160a01b0316148061423657506001600160a01b0380851660009081526006602090815260408083209387168352929052205460ff165b80611f365750506000908152600560205260409020546001600160a01b03908116911614919050565b6001600160e01b03198116811461194a57600080fd5b60006020828403121561428757600080fd5b8135610fce8161425f565b60005b838110156142ad578181015183820152602001614295565b50506000910152565b600081518084526142ce816020860160208601614292565b601f01601f19169290920160200192915050565b602081526000610fce60208301846142b6565b60006020828403121561430757600080fd5b5035919050565b6001600160a01b038116811461194a57600080fd5b803561432e8161430e565b919050565b6000806040838503121561434657600080fd5b82356143518161430e565b946020939093013593505050565b60008083601f84011261437157600080fd5b50813567ffffffffffffffff81111561438957600080fd5b602083019150836020828501011115612b0d57600080fd5b600080600080600080600060a0888a0312156143bc57600080fd5b873567ffffffffffffffff808211156143d457600080fd5b6143e08b838c0161435f565b909950975060208a01359150808211156143f957600080fd5b506144068a828b0161435f565b909650945050604088013561441a8161430e565b969995985093969295946060840135945060809093013592915050565b6000806020838503121561444a57600080fd5b823567ffffffffffffffff8082111561446257600080fd5b818501915085601f83011261447657600080fd5b81358181111561448557600080fd5b8660208260061b850101111561449a57600080fd5b60209290920196919550909350505050565b6000806000606084860312156144c157600080fd5b83356144cc8161430e565b925060208401356144dc8161430e565b929592945050506040919091013590565b6000602082840312156144ff57600080fd5b813567ffffffffffffffff81111561451657600080fd5b82016101808185031215610fce57600080fd5b6000604080830185845260206040818601528186518084526060935060608701915060608160051b88010183890160005b838110156145aa57898303605f19018552815180516001600160a01b031684528681015187850152880151888401889052614597888501826142b6565b958701959350509085019060010161455a565b50909a9950505050505050505050565b6000602082840312156145cc57600080fd5b8135610fce8161430e565b600080604083850312156145ea57600080fd5b50508035926020909101359150565b6000610200828403121561460c57600080fd5b50919050565b60006020828403121561462457600080fd5b813567ffffffffffffffff81111561463b57600080fd5b611f36848285016145f9565b6000806040838503121561465a57600080fd5b82359150602083013561466c8161430e565b809150509250929050565b634e487b7160e01b600052604160045260246000fd5b6040516080810167ffffffffffffffff811182821017156146b0576146b0614677565b60405290565b604051610180810167ffffffffffffffff811182821017156146b0576146b0614677565b604051610120810167ffffffffffffffff811182821017156146b0576146b0614677565b6040516101a0810167ffffffffffffffff811182821017156146b0576146b0614677565b604051601f8201601f1916810167ffffffffffffffff8111828210171561474b5761474b614677565b604052919050565b600067ffffffffffffffff82111561476d5761476d614677565b5060051b60200190565b60006101a0828403121561460c57600080fd5b6000806040838503121561479d57600080fd5b823567ffffffffffffffff808211156147b557600080fd5b818501915085601f8301126147c957600080fd5b813560206147de6147d983614753565b614722565b82815260059290921b840181019181810190898411156147fd57600080fd5b948201945b8386101561481b57853582529482019490820190614802565b9650508601359250508082111561483157600080fd5b5061483e85828601614777565b9150509250929050565b60008083601f84011261485a57600080fd5b50813567ffffffffffffffff81111561487257600080fd5b6020830191508360208260051b8501011115612b0d57600080fd5b6000806000604084860312156148a257600080fd5b833567ffffffffffffffff8111156148b957600080fd5b6148c586828701614848565b90945092505060208401356148d98161430e565b809150509250925092565b60008151808452602080850194506020840160005b83811015614915578151875295820195908201906001016148f9565b509495945050505050565b602081526000610fce60208301846148e4565b801515811461194a57600080fd5b803561432e81614933565b6000806040838503121561495f57600080fd5b823561496a8161430e565b9150602083013561466c81614933565b60006020828403121561498c57600080fd5b813567ffffffffffffffff8111156149a357600080fd5b611f3684828501614777565b60006080820186835260208681850152604086604086015260606080606087015283875180865260a08801915060a08160051b890101955084890160005b82811015614a3d57898803609f19018452815180516001600160a01b0316895287810151888a0152860151868901869052614a2a868a01826142b6565b98505092860192908601906001016149ed565b50959c9b505050505050505050505050565b600067ffffffffffffffff821115614a6957614a69614677565b50601f01601f191660200190565b6000614a856147d984614a4f565b9050828152838383011115614a9957600080fd5b828260208301376000602084830101529392505050565b60008060008060808587031215614ac657600080fd5b8435614ad18161430e565b93506020850135614ae18161430e565b925060408501359150606085013567ffffffffffffffff811115614b0457600080fd5b8501601f81018713614b1557600080fd5b614b2487823560208401614a77565b91505092959194509250565b600082601f830112614b4157600080fd5b610fce83833560208501614a77565b80356cffffffffffffffffffffffffff8116811461432e57600080fd5b803563ffffffff8116811461432e57600080fd5b61ffff8116811461194a57600080fd5b803561432e81614b81565b803562ffffff8116811461432e57600080fd5b803560ff8116811461432e57600080fd5b60006080808385031215614bd357600080fd5b614bdb61468d565b9150823567ffffffffffffffff811115614bf457600080fd5b8301601f81018513614c0557600080fd5b80356020614c156147d983614753565b8281526101809283028401820192828201919089851115614c3557600080fd5b948301945b84861015614d285780868b031215614c525760008081fd5b614c5a6146b6565b614c6387614b50565b8152614c70858801614b6d565b858201526040614c81818901614b6d565b908201526060614c92888201614b91565b90820152614ca1878901614323565b8189015260a0878101359082015260c0614cbc818901614b9c565b9082015260e0614ccd888201614941565b90820152610100614cdf888201614941565b90820152610120614cf1888201614941565b90820152610140614d03888201614941565b90820152610160614d15888201614941565b9082015283529485019491830191614c3a565b50865250614d37868201614b6d565b8186015250505050614d4b60408301614baf565b6040820152614d5c60608301614323565b606082015292915050565b600060808284031215614d7957600080fd5b614d8161468d565b90508135614d8e81614933565b81526020820135614d9e81614933565b60208201526040820135614db181614933565b60408201526060820135614d5c81614933565b6000806000806000806000806000806101a08b8d031215614de457600080fd5b8a35995060208b013567ffffffffffffffff80821115614e0357600080fd5b614e0f8e838f01614b30565b9a5060408d0135915080821115614e2557600080fd5b614e318e838f01614b30565b9950614e3f60608e01614323565b985060808d0135915080821115614e5557600080fd5b614e618e838f01614b30565b9750614e6f60a08e01614323565b965060c08d0135915080821115614e8557600080fd5b614e918e838f01614b30565b955060e08d0135915080821115614ea757600080fd5b50614eb48d828e01614bc0565b935050614ec46101008c01614323565b9150614ed48c6101208d01614d67565b90509295989b9194979a5092959850565b600060208284031215614ef757600080fd5b610fce82614baf565b60008060408385031215614f1357600080fd5b8235614f1e8161430e565b9150602083013561466c8161430e565b60008060008060408587031215614f4457600080fd5b843567ffffffffffffffff80821115614f5c57600080fd5b818701915087601f830112614f7057600080fd5b813581811115614f7f57600080fd5b88602061018083028501011115614f9557600080fd5b602092830196509450908601359080821115614fb057600080fd5b50614fbd87828801614848565b95989497509550505050565b600181811c90821680614fdd57607f821691505b60208210810361460c57634e487b7160e01b600052602260045260246000fd5b601f821115610ee5576000816000526020600020601f850160051c810160208610156150265750805b601f850160051c820191505b8181101561504557828155600101615032565b505050505050565b67ffffffffffffffff83111561506557615065614677565b615079836150738354614fc9565b83614ffd565b6000601f8411600181146150ad57600085156150955750838201355b600019600387901b1c1916600186901b178355612bc6565b600083815260209020601f19861690835b828110156150de57868501358255602094850194600190920191016150be565b50868210156150fb5760001960f88860031b161c19848701351681555b505060018560011b0183555050505050565b8183823760009101908152919050565b634e487b7160e01b600052603260045260246000fd5b60006040828403121561514557600080fd5b6040516040810181811067ffffffffffffffff8211171561516857615168614677565b604052823581526020928301359281019290925250919050565b805161432e8161430e565b600061012082840312156151a057600080fd5b6151a86146da565b825181526020830151602082015260408301516040820152606083015160608201526080830151608082015260a083015160a082015260c083015160c08201526151f460e08401615182565b60e0820152610100928301519281019290925250919050565b600082601f83011261521e57600080fd5b8151602061522e6147d983614753565b8083825260208201915060208460051b87010193508684111561525057600080fd5b602086015b8481101561526c5780518352918301918301615255565b509695505050505050565b60006020828403121561528957600080fd5b815167ffffffffffffffff8111156152a057600080fd5b611f368482850161520d565b6000602082840312156152be57600080fd5b8151610fce8161430e565b805161432e81614933565b6000602082840312156152e657600080fd5b8151610fce81614933565b6000808335601e1984360301811261530857600080fd5b83018035915067ffffffffffffffff82111561532357600080fd5b602001915036819003821315612b0d57600080fd5b6001600160a01b0383168152604060208201526000611f3660408301846148e4565b60006020828403121561536c57600080fd5b5051919050565b84815260606020808301829052908201849052600090859060808401835b878110156153ba5783356153a481614b81565b61ffff1682529282019290820190600101615391565b50809350505050821515604083015295945050505050565b600080604083850312156153e557600080fd5b825167ffffffffffffffff8111156153fc57600080fd5b6154088582860161520d565b925050602083015190509250929050565b60006020828403121561542b57600080fd5b8135610fce81614b81565b815167ffffffffffffffff81111561545057615450614677565b6154648161545e8454614fc9565b84614ffd565b602080601f83116001811461549957600084156154815750858301515b600019600386901b1c1916600185901b178555615045565b600085815260208120601f198616915b828110156154c8578886015182559484019460019091019084016154a9565b50858210156154e65787850151600019600388901b60f8161c191681555b5050505050600190811b01905550565b602080825282518282018190526000919060409081850190868401855b828110156155d657815180516cffffffffffffffffffffffffff1685528681015163ffffffff9081168887015286820151168686015260608082015161ffff16908601526080808201516001600160a01b03169086015260a0808201519086015260c08082015162ffffff169086015260e080820151151590860152610100808201511515908601526101208082015115159086015261014080820151151590860152610160908101511515908501526101809093019290850190600101615513565b5091979650505050505050565b600082601f8301126155f457600080fd5b81516156026147d982614a4f565b81815284602083860101111561561757600080fd5b611f36826020830160208701614292565b60006020828403121561563a57600080fd5b815167ffffffffffffffff81111561565157600080fd5b611f36848285016155e3565b6020815281602082015260007f07ffffffffffffffffffffffffffffffffffffffffffffffffffffffffffffff83111561569657600080fd5b8260051b80856040850137919091016040019392505050565b6156cf826156bc83614b50565b6cffffffffffffffffffffffffff169052565b6156db60208201614b6d565b63ffffffff1660208301526156f260408201614b6d565b63ffffffff16604083015261570960608201614b91565b61ffff16606083015261571e60808201614323565b6001600160a01b0316608083015260a0818101359083015261574260c08201614b9c565b62ffffff1660c083015261575860e08201614941565b151560e083015261010061576d828201614941565b151590830152610120615781828201614941565b151590830152610140615795828201614941565b1515908301526101606157a9828201614941565b80151584830152610e1a565b6020808252810182905260008360408301825b858110156157ee576157da82846156af565b6101809283019291909101906001016157c8565b5095945050505050565b6101a0810161580782856156af565b6001600160a01b0383166101808301529392505050565b60006020828403121561583057600080fd5b815167ffffffffffffffff8082111561584857600080fd5b908301906101a0828603121561585d57600080fd5b6158656146fe565b825181526020830151602082015260408301516040820152606083015160608201526080830151608082015260a083015160a08201526158a760c08401615182565b60c082015260e083015160e08201526101008084015181830152506101206158d08185016152c9565b908201526101406158e28482016152c9565b908201526101606158f48482016152c9565b90820152610180838101518381111561590c57600080fd5b615918888287016155e3565b918301919091525095945050505050565b634e487b7160e01b600052601160045260246000fd5b80820180821115610a5557610a55615929565b8082028115828204841417610a5557610a55615929565b60006001600160a01b0380871683528086166020840152508360408301526080606083015261599b60808301846142b6565b9695505050505050565b6000602082840312156159b757600080fd5b8151610fce8161425f565b600083516159d4818460208801614292565b8351908301906159e8818360208801614292565b01949350505050565b600181815b80851115615a2c578160001904821115615a1257615a12615929565b80851615615a1f57918102915b93841c93908002906159f6565b509250929050565b600082615a4357506001610a55565b81615a5057506000610a55565b8160018114615a665760028114615a7057615a8c565b6001915050610a55565b60ff841115615a8157615a81615929565b50506001821b610a55565b5060208310610133831016604e8410600b8410161715615aaf575081810a610a55565b615ab983836159f1565b8060001904821115615acd57615acd615929565b029392505050565b6000610fce8383615a34565b60008060408385031215615af457600080fd5b8251615aff81614933565b8092505060208084015167ffffffffffffffff811115615b1e57600080fd5b8401601f81018613615b2f57600080fd5b8051615b3d6147d982614753565b81815260059190911b82018301908381019088831115615b5c57600080fd5b928401925b82841015615b83578351615b7481614b81565b82529284019290840190615b61565b80955050505050509250929050565b600060808284031215615ba457600080fd5b615bac61468d565b8251615bb781614933565b81526020830151615bc781614933565b60208201526040830151615bda81614933565b60408201526060830151615bed81614933565b60608201529392505050565b81810381811115610a5557610a55615929565b60008085851115615c1c57600080fd5b83861115615c2957600080fd5b5050820193919092039150565b6bffffffffffffffffffffffff198135818116916014851015615c635780818660140360031b1b83161692505b505092915050565b634e487b7160e01b600052601260045260246000fd5b600082615c9057615c90615c6b565b500690565b600082615ca457615ca4615c6b565b500490565b60006060820185835260206060602085015281865180845260808601915060208801935060005b81811015615cf057845161ffff1683529383019391830191600101615cd0565b5050809350505050821515604083015294935050505056fe31323334353637383941424344454647484a4b4c4d4e505152535455565758595a6162636465666768696a6b6d6e6f707172737475767778797aa2646970667358221220668cc3b83eb1eb681c48df05446c25442170cd9d5d95c7ceb802962b900e5aca64736f6c63430008170033",
	"deployedBytecode": "0x6080604052600436106102fd5760003560e01c8063715018a61161018f578063c07f2f9b116100e1578063e985e9c51161008a578063f3c5788111610064578063f3c57881146109b0578063f434c914146109c3578063fef50848146109f757600080fd5b8063e985e9c514610913578063edab09b91461095c578063f2fde38b1461099057600080fd5b8063d4a1b4b1116100bb578063d4a1b4b1146108b1578063d95c9ae2146108d1578063e8a3d485146108fe57600080fd5b8063c07f2f9b14610851578063c0fb5e8514610871578063c87b56dd1461089157600080fd5b8063a220d69611610143578063ade032ff1161011d578063ade032ff1461079c578063b88d4fde146107bc578063ba23c36e146107dc57600080fd5b8063a220d6961461072c578063a22cb4651461074c578063aaf320d71461076c57600080fd5b806388bc2ef31161017457806388bc2ef3146106ce5780638da5cb5b1461070257806395d89b411461071757600080fd5b8063715018a6146106865780637da0a8771461069b57600080fd5b8063507f14651161025357806366ec4cb4116101fc5780636ac6d941116101d65780636ac6d941146106245780636c0360eb1461065157806370a082311461066657600080fd5b806366ec4cb4146105ce578063677ce088146105e157806368f9c6bc1461060457600080fd5b8063572b6c051161022d578063572b6c0514610541578063613b856d1461058e5780636352211e146105ae57600080fd5b8063507f1465146104dd57806354c6d1f5146104fd57806356539f391461051d57600080fd5b80631435aad5116102b5578063293c49991161028f578063293c49991461045b57806342842e0e1461048f5780634c4ffc71146104af57600080fd5b80631435aad5146103fb5780631c52730b1461041b57806323b872dd1461043b57600080fd5b8063081812fc116102e6578063081812fc1461035957806308786b1a14610391578063095ea7b3146103d957600080fd5b806301ffc9a71461030257806306fdde0314610337575b600080fd5b34801561030e57600080fd5b5061032261031d366004614275565b610a17565b60405190151581526020015b60405180910390f35b34801561034357600080fd5b5061034c610a5b565b60405161032e91906142e2565b34801561036557600080fd5b506103796103743660046142f5565b610aed565b6040516001600160a01b03909116815260200161032e565b34801561039d57600080fd5b5060095463ffffffff811690602081901c60ff169060281c6040805193845260208401929092526001600160a01b03169082015260600161032e565b3480156103e557600080fd5b506103f96103f4366004614333565b610b16565b005b34801561040757600080fd5b506103f96104163660046143a1565b610b2c565b34801561042757600080fd5b506103f9610436366004614437565b610dc7565b34801561044757600080fd5b506103f96104563660046144ac565b610e20565b34801561046757600080fd5b506103797f0000000000000000000000000dd4c75a29147a662656535808b033abc568e33b81565b34801561049b57600080fd5b506103f96104aa3660046144ac565b610eca565b3480156104bb57600080fd5b506104cf6104ca3660046144ed565b610eea565b60405161032e929190614529565b3480156104e957600080fd5b50600a54610379906001600160a01b031681565b34801561050957600080fd5b506103796105183660046142f5565b610f91565b34801561052957600080fd5b5061053360075481565b60405190815260200161032e565b34801561054d57600080fd5b5061032261055c3660046145ba565b7f000000000000000000000000b2b5841dbef766d4b521221732f9b618fcf34a876001600160a01b0390811691161490565b34801561059a57600080fd5b506103f96105a93660046145d7565b610fd5565b3480156105ba57600080fd5b506103796105c93660046142f5565b611250565b6103f96105dc366004614612565b61125b565b3480156105ed57600080fd5b506103226105fc366004614647565b600092915050565b34801561061057600080fd5b5061053361061f36600461478a565b6114df565b34801561063057600080fd5b5061064461063f36600461488d565b61156c565b60405161032e9190614920565b34801561065d57600080fd5b5061034c6116cc565b34801561067257600080fd5b506105336106813660046145ba565b61175a565b34801561069257600080fd5b506103f96117e9565b3480156106a757600080fd5b507f000000000000000000000000b2b5841dbef766d4b521221732f9b618fcf34a87610379565b3480156106da57600080fd5b506103797f000000000000000000000000317e962828ddbb27576f6f0ca89adc3cd56ed8cc81565b34801561070e57600080fd5b506103796117fe565b34801561072357600080fd5b5061034c6118f3565b34801561073857600080fd5b506103f96107473660046142f5565b611902565b34801561075857600080fd5b506103f961076736600461494c565b61194d565b34801561077857600080fd5b5061078c61078736600461497a565b61195f565b60405161032e94939291906149af565b3480156107a857600080fd5b506105336107b736600461497a565b611afe565b3480156107c857600080fd5b506103f96107d7366004614ab0565b611b48565b3480156107e857600080fd5b5060005461081d906001600160a01b03811690600160a01b81046affffffffffffffffffffff1690600160f81b900460ff1683565b604080516001600160a01b0390941684526affffffffffffffffffffff909216602084015260ff169082015260600161032e565b34801561085d57600080fd5b506103f961086c366004614dc4565b611b5f565b34801561087d57600080fd5b506103f961088c366004614ee5565b611dfd565b34801561089d57600080fd5b5061034c6108ac3660046142f5565b611e0e565b3480156108bd57600080fd5b50600b54610379906001600160a01b031681565b3480156108dd57600080fd5b506105336108ec3660046145ba565b600c6020526000908152604090205481565b34801561090a57600080fd5b5061034c61205a565b34801561091f57600080fd5b5061032261092e366004614f00565b6001600160a01b03918216600090815260066020908152604080832093909416825291909152205460ff1690565b34801561096857600080fd5b506103797f0000000000000000000000001d208f757458507b66f0420e56ad4a103dca95bc81565b34801561099c57600080fd5b506103f96109ab3660046145ba565b612067565b6103f96109be366004614612565b6120a1565b3480156109cf57600080fd5b506103797f0000000000000000000000004475b99b2f6f06c5048fe8c3839dfe2e5d744e6581565b348015610a0357600080fd5b506103f9610a12366004614f2e565b61218d565b60006001600160e01b031982167fb88c9696000000000000000000000000000000000000000000000000000000001480610a555750610a55826123b3565b92915050565b606060018054610a6a90614fc9565b80601f0160208091040260200160405190810160405280929190818152602001828054610a9690614fc9565b8015610ae35780601f10610ab857610100808354040283529160200191610ae3565b820191906000526020600020905b815481529060010190602001808311610ac657829003601f168201915b5050505050905090565b6000610af8826124c1565b506000828152600560205260409020546001600160a01b0316610a55565b610b288282610b236124fa565b612509565b5050565b610b41610b376117fe565b6007546015612516565b8515610bb257600d610b5487898361504d565b508686604051610b6592919061510d565b60405180910390207f7bc9110d5de090dd59e07912d2b93a5a27ac70a60c8d8e324db4f9ee8b8b5c13610b966124fa565b6040516001600160a01b03909116815260200160405180910390a25b8315610c2357600e610bc585878361504d565b508484604051610bd692919061510d565b60405180910390207fd36dc0c1a06103fdcaf15f3f6fb797d1a97997514c78de073640c8b5005454b8610c076124fa565b6040516001600160a01b03909116815260200160405180910390a25b600a546001600160a01b039081169084163014610ce45760405163036129cb60e61b81526001600160a01b03858116600483015282169063d84a72c090602401600060405180830381600087803b158015610c7d57600080fd5b505af1158015610c91573d6000803e3d6000fd5b50505050836001600160a01b03167fe7784d93cfbfa4408e19577e6cc0436f4dbb51214b70e100905dfce9def88c16610cc86124fa565b6040516001600160a01b03909116815260200160405180910390a25b8215801590610cf257508115155b15610dbd576040517f49bd1ac600000000000000000000000000000000000000000000000000000000815260048101849052602481018390526001600160a01b038216906349bd1ac690604401600060405180830381600087803b158015610d5957600080fd5b505af1158015610d6d573d6000803e3d6000fd5b50505050827f677da4fed654db8e604791fa2582f342e2001aa217e27f6985eb3e0f67e5a7fc83610d9c6124fa565b604080519283526001600160a01b0390911660208301520160405180910390a25b5050505050505050565b8060005b81811015610e1a576000848483818110610de757610de761511d565b905060400201803603810190610dfd9190615133565b9050610e1181600001518260200151610fd5565b50600101610dcb565b50505050565b6001600160a01b038216610e4f57604051633250574960e11b8152600060048201526024015b60405180910390fd5b6000610e638383610e5e6124fa565b61263f565b9050836001600160a01b0316816001600160a01b031614610e1a576040517f64283d7b0000000000000000000000000000000000000000000000000000000081526001600160a01b0380861660048301526024820184905282166044820152606401610e46565b610ee583838360405180602001604052806000815250611b48565b505050565b6040805160018082528183019092526101208301359160609190816020015b60408051606080820183526000808352602083015291810191909152815260200190600190039081610f095790505090506040518060600160405280306001600160a01b03168152602001600081526020016040518060200160405280600081525081525081600081518110610f8157610f8161511d565b6020026020010181905250915091565b6000818152600860205260408120546001600160a01b03168015610fb55792915050565b6000838152600360205260409020546001600160a01b03165b9392505050565b600b546007546040516321d1336160e11b815260048101919091526000916001600160a01b0316906343a266c29060240161012060405180830381865afa158015611024573d6000803e3d6000fd5b505050506040513d601f19601f82011682018060405250810190611048919061518d565b905061106761105c82610100015160f01c90565b600190811c81161490565b1561109e576040517f63a0ba3900000000000000000000000000000000000000000000000000000000815260040160405180910390fd5b600a546040517fbaa7e80e00000000000000000000000000000000000000000000000000000000815260048101859052602481018490526001600160a01b0390911690600090829063baa7e80e906044016000604051808303816000875af115801561110e573d6000803e3d6000fd5b505050506040513d6000823e601f3d908101601f191682016040526111369190810190615277565b6040517f03573004000000000000000000000000000000000000000000000000000000008152306004820152602481018790529091506000906001600160a01b03841690630357300490604401602060405180830381865afa1580156111a0573d6000803e3d6000fd5b505050506040513d601f19601f820116820180604052508101906111c491906152ac565b90506000805b86811015610dbd578381815181106111e4576111e461511d565b602002602001015191506111f883836128c0565b826001600160a01b031688837f80dd2efbbc431cde0164d84d638e44ba6e7a3ca5d532ceef1bb4efcc0948325d61122d6124fa565b6040516001600160a01b03909116815260200160405180910390a46001016111ca565b6000610a55826124c1565b600754341515806112f85750604051636e49181f60e01b8152600481018290523360248201527f000000000000000000000000317e962828ddbb27576f6f0ca89adc3cd56ed8cc6001600160a01b031690636e49181f90604401602060405180830381865afa1580156112d2573d6000803e3d6000fd5b505050506040513d601f19601f820116820180604052508101906112f691906152d4565b155b80611307575080826020013514155b1561133e576040517f835e522b00000000000000000000000000000000000000000000000000000000815260040160405180910390fd5b60408051808201909152600681526572656465656d60d01b6020909101526000806113f07f0000000000000000000000001d208f757458507b66f0420e56ad4a103dca95bc60601b7f26ef0a97332ad048ac544d8dfacdd43e128b9816d599fdd0310960904fa18609186113b66101e08701876152f1565b8080601f01602080910402602001604051908101604052809392919081815260200183838082843760009201919091525061293e92505050565b915091506060821561141357818060200190518101906114109190615277565b90505b80516000805b828110156114cc578381815181106114335761143361511d565b6020026020010151915087600001602081019061145091906145ba565b6001600160a01b0316611478836000908152600360205260409020546001600160a01b031690565b6001600160a01b0316146114bb576040517f5caf197500000000000000000000000000000000000000000000000000000000815260048101839052602401610e46565b6114c482612b14565b600101611419565b506114d683612b4f565b50505050505050565b600a546040517f144cc2d40000000000000000000000000000000000000000000000000000000081526000916001600160a01b03169063144cc2d49061152b9030908790600401615338565b602060405180830381865afa158015611548573d6000803e3d6000fd5b505050506040513d601f19601f82011682018060405250810190610fce919061535a565b60606115836115796117fe565b6007546016612516565b600a5460405163eaa19ab360e01b81526001600160a01b039091169063eaa19ab3906115bc906000199088908890600190600401615373565b6000604051808303816000875af11580156115db573d6000803e3d6000fd5b505050506040513d6000823e601f3d908101601f1916820160405261160391908101906153d2565b509050826000805b828110156116c2578381815181106116255761162561511d565b6020026020010151915061163985836128c0565b846001600160a01b03168787838181106116555761165561511d565b905060200201602081019061166a9190615419565b61ffff16837f598baf7bf150ca2f42be9e9f8f55e81d45f5715c3ff22bf46d697fabec7f31d6600061169a6124fa565b604080519283526001600160a01b0390911660208301520160405180910390a460010161160b565b5050509392505050565b600d80546116d990614fc9565b80601f016020809104026020016040519081016040528092919081815260200182805461170590614fc9565b80156117525780601f1061172757610100808354040283529160200191611752565b820191906000526020600020905b81548152906001019060200180831161173557829003601f168201915b505050505081565b600a546040517ff7888aec0000000000000000000000000000000000000000000000000000000081523060048201526001600160a01b038381166024830152600092169063f7888aec906044015b602060405180830381865afa1580156117c5573d6000803e3d6000fd5b505050506040513d601f19601f82011682018060405250810190610a55919061535a565b6117f1612bcd565b6117fc600080612cdf565b565b60408051606081018252600080546001600160a01b0381168352600160a01b81046affffffffffffffffffffff1660208401819052600160f81b90910460ff16938301939093529182036118525751919050565b60208101516040516331a9108f60e11b81526affffffffffffffffffffff90911660048201527f0000000000000000000000000dd4c75a29147a662656535808b033abc568e33b6001600160a01b031690636352211e90602401602060405180830381865afa1580156118c9573d6000803e3d6000fd5b505050506040513d601f19601f820116820180604052508101906118ed91906152ac565b91505090565b606060028054610a6a90614fc9565b61190a612bcd565b80158061192157506affffffffffffffffffffff81115b1561193f5760405163ecb9b1c760e01b815260040160405180910390fd5b61194a600082612cdf565b50565b610b286119586124fa565b8383612e90565b6000808060606080850135156119a1576040517f4fc178d800000000000000000000000000000000000000000000000000000000815260040160405180910390fd5b60408051808201909152600681526572656465656d60d01b602090910152600080611a197f0000000000000000000000001d208f757458507b66f0420e56ad4a103dca95bc60601b7f26ef0a97332ad048ac544d8dfacdd43e128b9816d599fdd0310960904fa18609186113b66101808a018a6152f1565b604080516001808252818301909252929450909250816020015b60408051606080820183526000808352602083015291810191909152815260200190600190039081611a335790505092506040518060600160405280306001600160a01b03168152602001600081526020016040518060200160405280600081525081525083600081518110611aab57611aab61511d565b602002602001018190525060608215611ad55781806020019051810190611ad29190615277565b90505b611adf81896114df565b9550611aea88611afe565b945087610160013596505050509193509193565b600a546040517f2ae5e4920000000000000000000000000000000000000000000000000000000081523060048201526000916001600160a01b031690632ae5e492906024016117a8565b611b53848484610e20565b610e1a84848484612f48565b600a546001600160a01b031615611b7557600080fd5b611b808a8a8a61308a565b600b80546001600160a01b03808a1673ffffffffffffffffffffffffffffffffffffffff1992831617909255600a8054928516929091169190911790556020808401516040850151606086015178ffffffffffffffffffffffffffffffffffffffff000000000060289190911b1664ff000000009190931b1663ffffffff90911617176009819055865115611c1d57600d611c1b8882615436565b505b845115611c3257600e611c308682615436565b505b6001600160a01b03861615611c9d5760405163036129cb60e61b81526001600160a01b03878116600483015284169063d84a72c090602401600060405180830381600087803b158015611c8457600080fd5b505af1158015611c98573d6000803e3d6000fd5b505050505b83515115611d1b5783516040516349249dc160e01b81526001600160a01b038516916349249dc191611cd291906004016154f6565b6000604051808303816000875af1158015611cf1573d6000803e3d6000fd5b505050506040513d6000823e601f3d908101601f19168201604052611d199190810190615277565b505b815180611d29575081602001515b80611d35575081604001515b80611d41575081606001515b15611de057604080517fcb827e3200000000000000000000000000000000000000000000000000000000815283511515600482015260208401511515602482015290830151151560448201526060830151151560648201526001600160a01b0384169063cb827e3290608401600060405180830381600087803b158015611dc757600080fd5b505af1158015611ddb573d6000803e3d6000fd5b505050505b611df0611deb6124fa565b612096565b5050505050505050505050565b611e05612bcd565b61194a8161309b565b600a546040517f0fab09470000000000000000000000000000000000000000000000000000000081523060048201526060916001600160a01b0316906000908290630fab094790602401602060405180830381865afa158015611e75573d6000803e3d6000fd5b505050506040513d601f19601f82011682018060405250810190611e9991906152ac565b90506001600160a01b03811615611f3e576040517f5e703e71000000000000000000000000000000000000000000000000000000008152306004820152602481018590526001600160a01b03821690635e703e7190604401600060405180830381865afa158015611f0e573d6000803e3d6000fd5b505050506040513d6000823e601f3d908101601f19168201604052611f369190810190615628565b949350505050565b611f36600d8054611f4e90614fc9565b80601f0160208091040260200160405190810160405280929190818152602001828054611f7a90614fc9565b8015611fc75780601f10611f9c57610100808354040283529160200191611fc7565b820191906000526020600020905b815481529060010190602001808311611faa57829003601f168201915b50506040517fc8df1710000000000000000000000000000000000000000000000000000000008152306004820152602481018a90526001600160a01b038816935063c8df171092506044019050602060405180830381865afa158015612031573d6000803e3d6000fd5b505050506040513d601f19601f82011682018060405250810190612055919061535a565b6130f1565b600e80546116d990614fc9565b61206f612bcd565b6001600160a01b0381166120965760405163ecb9b1c760e01b815260040160405180910390fd5b61194a816000612cdf565b6007543415158061213e5750604051636e49181f60e01b8152600481018290523360248201527f000000000000000000000000317e962828ddbb27576f6f0ca89adc3cd56ed8cc6001600160a01b031690636e49181f90604401602060405180830381865afa158015612118573d6000803e3d6000fd5b505050506040513d601f19601f8201168201806040525081019061213c91906152d4565b155b8061214d575080826020013514155b15612184576040517f8a3ea1c800000000000000000000000000000000000000000000000000000000815260040160405180910390fd5b610b2882613174565b6121a26121986117fe565b6007546014612516565b600a54839082906001600160a01b031681156122a3576040517f20512ba10000000000000000000000000000000000000000000000000000000081526001600160a01b038216906320512ba1906121ff908890889060040161565d565b600060405180830381600087803b15801561221957600080fd5b505af115801561222d573d6000803e3d6000fd5b5050505060005b828110156122a15785858281811061224e5761224e61511d565b905060200201357f832d89d991be5351d793c20faf4b7dd44f8aa9ce39e3cb160c6317de6fbba72961227e6124fa565b6040516001600160a01b03909116815260200160405180910390a2600101612234565b505b82156114d6576040516349249dc160e01b81526000906001600160a01b038316906349249dc1906122da908b908b906004016157b5565b6000604051808303816000875af11580156122f9573d6000803e3d6000fd5b505050506040513d6000823e601f3d908101601f191682016040526123219190810190615277565b905060005b848110156123a8578181815181106123405761234061511d565b60200260200101517f6c05e4bd067859371de8c0a303cf84af0ba782c3809f8fba14e6af4388894cf08a8a8481811061237b5761237b61511d565b9050610180020161238a6124fa565b6040516123989291906157f8565b60405180910390a2600101612326565b505050505050505050565b60006001600160e01b031982167f3344b87300000000000000000000000000000000000000000000000000000000148061241657506001600160e01b031982167f81c03c2e00000000000000000000000000000000000000000000000000000000145b8061244a57506001600160e01b031982167ff3c5788100000000000000000000000000000000000000000000000000000000145b8061247e57506001600160e01b031982167f66ec4cb400000000000000000000000000000000000000000000000000000000145b806124b257506001600160e01b031982167f2a55205a00000000000000000000000000000000000000000000000000000000145b80610a555750610a55826136cb565b6000818152600360205260408120546001600160a01b031680610a5557604051637e27328960e01b815260048101849052602401610e46565b6000612504613766565b905090565b610ee583838360016137db565b60006125206124fa565b9050836001600160a01b0316816001600160a01b03161415801561260857506040517f348b684e0000000000000000000000000000000000000000000000000000000081526001600160a01b0382811660048301528581166024830152604482018590526064820184905260016084830181905260a48301527f0000000000000000000000004475b99b2f6f06c5048fe8c3839dfe2e5d744e65169063348b684e9060c401602060405180830381865afa1580156125e2573d6000803e3d6000fd5b505050506040513d601f19601f8201168201806040525081019061260691906152d4565b155b15610e1a576040517f075fd2b100000000000000000000000000000000000000000000000000000000815260040160405180910390fd5b600a546040517fc44a8e6d00000000000000000000000000000000000000000000000000000000815230600482015260248101849052600060448201819052916001600160a01b0316908290829063c44a8e6d90606401600060405180830381865afa1580156126b3573d6000803e3d6000fd5b505050506040513d6000823e601f3d908101601f191682016040526126db919081019061581e565b90506126e8868686613926565b92506001600160a01b0383161561283157806101400151156127e057600b546007546040516321d1336160e11b815260048101919091526000916001600160a01b0316906343a266c29060240161012060405180830381865afa158015612753573d6000803e3d6000fd5b505050506040513d601f19601f82011682018060405250810190612777919061518d565b90506001600160a01b038716158015906127a757506127a761279e82610100015160f01c90565b60019081161490565b156127de576040517ffa45ac2900000000000000000000000000000000000000000000000000000000815260040160405180910390fd5b505b6000858152600860205260409020546001600160a01b0316612831576000858152600860205260409020805473ffffffffffffffffffffffffffffffffffffffff19166001600160a01b0385161790555b80516040517fc2c55f9400000000000000000000000000000000000000000000000000000000815260048101919091526001600160a01b038481166024830152878116604483015283169063c2c55f9490606401600060405180830381600087803b15801561289f57600080fd5b505af11580156128b3573d6000803e3d6000fd5b5050505050509392505050565b6001600160a01b0382166128ea57604051633250574960e11b815260006004820152602401610e46565b60006128f88383600061263f565b90506001600160a01b03811615610ee5576040517f73c6ac6e00000000000000000000000000000000000000000000000000000000815260006004820152602401610e46565b6000606060258351116129635750506040805160208101909152600080825290612b0d565b6000836129726004602061593f565b815181106129825761298261511d565b0160209081015160f81c91505b60008561299d60048461593f565b815181106129ad576129ad61511d565b01602001517fff0000000000000000000000000000000000000000000000000000000000000016148015906129eb57506129e8602083615952565b81105b15612b0a576000856129fe60048461593f565b81518110612a0e57612a0e61511d565b016020908101518784019091015160f89190911c91506001600160e01b031980891690821603612b00576000612a45602086615952565b612a5060098661593f565b101580612a9d575087612a6460098661593f565b81518110612a7457612a7461511d565b01602001517fff0000000000000000000000000000000000000000000000000000000000000016155b612ad657602088612aaf60098761593f565b81518110612abf57612abf61511d565b0160200151612ad1919060f81c615952565b612ad9565b87515b90506001612af289612aec602087615952565b84613a2c565b965096505050505050612b0d565b505060050161298f565b50505b9250929050565b6000612b23600083600061263f565b90506001600160a01b038116610b2857604051637e27328960e01b815260048101839052602401610e46565b600a546040517f86bc2be30000000000000000000000000000000000000000000000000000000081526001600160a01b03909116906386bc2be390612b98908490600401614920565b600060405180830381600087803b158015612bb257600080fd5b505af1158015612bc6573d6000803e3d6000fd5b5050505050565b604080516060810182526000546001600160a01b0381168252600160a01b81046affffffffffffffffffffff1660208301819052600160f81b90910460ff16928201929092529061194a9015612cbd5760208201516040516331a9108f60e11b81526affffffffffffffffffffff90911660048201527f0000000000000000000000000dd4c75a29147a662656535808b033abc568e33b6001600160a01b031690636352211e90602401602060405180830381865afa158015612c94573d6000803e3d6000fd5b505050506040513d601f19601f82011682018060405250810190612cb891906152ac565b612cc0565b81515b82602001516affffffffffffffffffffff16836040015160ff16612516565b6affffffffffffffffffffff811615801590612d0357506001600160a01b03821615155b15612d215760405163ecb9b1c760e01b815260040160405180910390fd5b60408051606081018252600080546001600160a01b0381168352600160a01b81046affffffffffffffffffffff1660208401819052600160f81b90910460ff1693830193909352909115612e0f5760208201516040516331a9108f60e11b81526affffffffffffffffffffff90911660048201527f0000000000000000000000000dd4c75a29147a662656535808b033abc568e33b6001600160a01b031690636352211e90602401602060405180830381865afa158015612de6573d6000803e3d6000fd5b505050506040513d601f19601f82011682018060405250810190612e0a91906152ac565b612e12565b81515b604080516060810182526001600160a01b0387168082526affffffffffffffffffffff87166020830181905260009290930182905281547fff000000000000000000000000000000000000000000000000000000000000001617600160a01b909202919091176001600160f81b031690559050610e1a818585613a68565b6001600160a01b038216612edb576040517f5b08ba180000000000000000000000000000000000000000000000000000000081526001600160a01b0383166004820152602401610e46565b6001600160a01b03838116600081815260066020908152604080832094871680845294825291829020805460ff191686151590811790915591519182527f17307eab39ab6107e8899845ad3d59bd9653f200f220920489ca2b5937696c31910160405180910390a3505050565b6001600160a01b0383163b15610e1a57826001600160a01b031663150b7a02612f6f6124fa565b8685856040518563ffffffff1660e01b8152600401612f919493929190615969565b6020604051808303816000875af1925050508015612fcc575060408051601f3d908101601f19168201909252612fc9918101906159a5565b60015b613035573d808015612ffa576040519150601f19603f3d011682016040523d82523d6000602084013e612fff565b606091505b50805160000361302d57604051633250574960e11b81526001600160a01b0385166004820152602401610e46565b805181602001fd5b6001600160e01b031981167f150b7a020000000000000000000000000000000000000000000000000000000014612bc657604051633250574960e11b81526001600160a01b0385166004820152602401610e46565b6130948282613b5b565b5050600755565b600080546001600160f81b0316600160f81b60ff8416908102919091179091556040519081527f6f4725627084d54c46c628b050805457a1cd38c5cd20c1f00132960f8b546fed9060200160405180910390a150565b6040517f12200000000000000000000000000000000000000000000000000000000000006020820152602281018290526060906000906042016040516020818303038152906040529050600061314682613b74565b9050848160405160200161315b9291906159c2565b6040516020818303038152906040529250505092915050565b60095460009063ffffffff811660c08401358190036131995760808401359250613273565b602882901c6001600160a01b03811615612bc65760ff602084901c1661326e60808701356131c883600a615ad5565b6007546040517f3be273fa000000000000000000000000000000000000000000000000000000008152600481019190915260c08a013560248201526044810187905260a08a013560648201526001600160a01b03861690633be273fa90608401602060405180830381865afa158015613245573d6000803e3d6000fd5b505050506040513d601f19601f82011682018060405250810190613269919061535a565b613d0c565b945050505b5060009050600c8161328d6101c086016101a087016145ba565b6001600160a01b031681526020810191909152604001600090812054915082906132bf6101c086016101a087016145ba565b6001600160a01b03166132d560208701876145ba565b6001600160a01b0316036132ec57908201906132ef565b50815b60408051808201909152600381527f70617900000000000000000000000000000000000000000000000000000000006020909101526000808061337f7f0000000000000000000000001d208f757458507b66f0420e56ad4a103dca95bc60601b7fadc756803e4eb4ccfb136b73d5f72e3dc0d452d30ae1f4bc82af394c73ce7115186113b66101e08b018b6152f1565b9150915081156134535760608180602001905181019061339f9190615ae1565b909450905083801561341d5750600a54604051634228826f60e11b81523060048201526001600160a01b039091169063845104de90602401608060405180830381865afa1580156133f4573d6000803e3d6000fd5b505050506040513d601f19601f820116820180604052508101906134189190615b92565b606001515b1561342757600093505b80511561344d5761344a86826134456101c08d016101a08e016145ba565b613df9565b95505b506134cc565b600a54604051634228826f60e11b81523060048201526001600160a01b039091169063845104de90602401608060405180830381865afa15801561349b573d6000803e3d6000fd5b505050506040513d601f19601f820116820180604052508101906134bf9190615b92565b606001516134cc57600192505b841561361f5782613509576040517f6d5e09a400000000000000000000000000000000000000000000000000000000815260040160405180910390fd5b8484018681111561357c576135266101c08a016101a08b016145ba565b6001600160a01b0316818883037f7e71a5f6c04b0eb16949316623b9dda7bd103692f7d89678e2260afa1378a2d561355c6124fa565b6040516001600160a01b03909116815260200160405180910390a46135e8565b808711156135e8576135966101c08a016101a08b016145ba565b6001600160a01b0316818289037f6276f0169fb8de712b2a6c02789f6115136c589ed491ac06f9e20f41877e41fe6135cc6124fa565b6040516001600160a01b03909116815260200160405180910390a45b80600c60006135ff6101c08d016101a08e016145ba565b6001600160a01b0316815260208101919091526040016000205550610dbd565b838614610dbd576136386101c089016101a08a016145ba565b6001600160a01b03168461364c8189615bf9565b7f6276f0169fb8de712b2a6c02789f6115136c589ed491ac06f9e20f41877e41fe6136756124fa565b6040516001600160a01b03909116815260200160405180910390a483600c60006136a76101c08c016101a08d016145ba565b6001600160a01b031681526020810191909152604001600020555050505050505050565b60006001600160e01b031982167f80ac58cd00000000000000000000000000000000000000000000000000000000148061372e57506001600160e01b031982167f5b5e139f00000000000000000000000000000000000000000000000000000000145b80610a5557507f01ffc9a7000000000000000000000000000000000000000000000000000000006001600160e01b0319831614610a55565b6000366014336001600160a01b037f000000000000000000000000b2b5841dbef766d4b521221732f9b618fcf34a87161480156137a35750808210155b156137d3576000366137b58385615bf9565b6137c0928290615c0c565b6137c991615c36565b60601c9250505090565b339250505090565b80806137ef57506001600160a01b03821615155b156138e95760006137ff846124c1565b90506001600160a01b0383161580159061382b5750826001600160a01b0316816001600160a01b031614155b801561385d57506001600160a01b0380821660009081526006602090815260408083209387168352929052205460ff16155b1561389f576040517fa9fbf51f0000000000000000000000000000000000000000000000000000000081526001600160a01b0384166004820152602401610e46565b81156138e75783856001600160a01b0316826001600160a01b03167f8c5be1e5ebec7d5bd14f71427d1e84f3dd0314c0f7b2291e5b200ac8c7c3b92560405160405180910390a45b505b50506000908152600560205260409020805473ffffffffffffffffffffffffffffffffffffffff19166001600160a01b0392909216919091179055565b6000828152600360205260408120546001600160a01b039081169083161561395357613953818486613f3a565b6001600160a01b03811615613991576139706000856000806137db565b6001600160a01b038116600090815260046020526040902080546000190190555b6001600160a01b038516156139c0576001600160a01b0385166000908152600460205260409020805460010190555b600084815260036020526040808220805473ffffffffffffffffffffffffffffffffffffffff19166001600160a01b0389811691821790925591518793918516917fddf252ad1be2c89b69c2b068fc378daa952ba7f163c4a11628f55a4df523b3ef91a4949350505050565b60608282036040519150602081830101604052808252508260208501016020820160005b848110156116c2578281015182820152602001613a50565b6affffffffffffffffffffff811615613b15576040516331a9108f60e11b81526affffffffffffffffffffff821660048201527f0000000000000000000000000dd4c75a29147a662656535808b033abc568e33b6001600160a01b031690636352211e90602401602060405180830381865afa158015613aec573d6000803e3d6000fd5b505050506040513d601f19601f82011682018060405250810190613b1091906152ac565b613b17565b815b6001600160a01b0316836001600160a01b03167f8be0079c531659141344cd1fd0a4f28419497f9722a3daafe3b4186f6b6457e060405160405180910390a3505050565b6001613b678382615436565b506002610ee58282615436565b60608151600003613b9357505060408051600081526020810190915290565b60408051602e8082526105e08201909252600091602082016105c080368337019050509050600081600081518110613bcd57613bcd61511d565b60ff90921660209283029190910190910152825160019060005b81811015613ce8576000868281518110613c0357613c0361511d565b016020015160f81c905060005b8460ff16811015613c8d576008868281518110613c2f57613c2f61511d565b602002602001015160ff16901b82613c47919061593f565b9150613c54603a83615c81565b868281518110613c6657613c6661511d565b60ff90921660209283029190910190910152613c83603a83615c95565b9150600101613c10565b505b8015613cdf57613ca0603a82615c81565b858560ff1681518110613cb557613cb561511d565b60ff90921660209283029190910190910152600190930192613cd8603a82615c95565b9050613c8f565b50600101613be7565b50613d03613cfe613cf98585613fb7565b61405f565b614102565b95945050505050565b6000808060001985870985870292508281108382030391505080600003613d4657838281613d3c57613d3c615c6b565b0492505050610fce565b838110613d90576040517f63a05778000000000000000000000000000000000000000000000000000000008152600481018790526024810186905260448101859052606401610e46565b60008486880960026001871981018816978890046003810283188082028403028082028403028082028403028082028403028082028403029081029092039091026000889003889004909101858311909403939093029303949094049190911702949350505050565b600a5460405163eaa19ab360e01b81526000916060916001600160a01b039091169063eaa19ab390613e3390889088908790600401615ca9565b6000604051808303816000875af1158015613e52573d6000803e3d6000fd5b505050506040513d6000823e601f3d908101601f19168201604052613e7a91908101906153d2565b81519093509091506000805b82811015613f2f57838181518110613ea057613ea061511d565b60200260200101519150613eb486836128c0565b856001600160a01b0316878281518110613ed057613ed061511d565b602002602001015161ffff16837f598baf7bf150ca2f42be9e9f8f55e81d45f5715c3ff22bf46d697fabec7f31d68b613f076124fa565b604080519283526001600160a01b0390911660208301520160405180910390a4600101613e86565b505050509392505050565b613f458383836141dc565b610ee5576001600160a01b038316613f7357604051637e27328960e01b815260048101829052602401610e46565b6040517f177e802f0000000000000000000000000000000000000000000000000000000081526001600160a01b038316600482015260248101829052604401610e46565b606060008260ff1667ffffffffffffffff811115613fd757613fd7614677565b604051908082528060200260200182016040528015614000578160200160208202803683370190505b50905060005b8360ff16811015614057578481815181106140235761402361511d565b602002602001015182828151811061403d5761403d61511d565b60ff90921660209283029190910190910152600101614006565b509392505050565b805160609060008167ffffffffffffffff81111561407f5761407f614677565b6040519080825280602002602001820160405280156140a8578160200160208202803683370190505b50905060005b82811015614057578481600187510303815181106140ce576140ce61511d565b60200260200101518282815181106140e8576140e861511d565b60ff909216602092830291909101909101526001016140ae565b805160609060008167ffffffffffffffff81111561412257614122614677565b6040519080825280601f01601f19166020018201604052801561414c576020820181803683370190505b50905060005b82811015614057576040518060600160405280603a8152602001615d09603a91398582815181106141855761418561511d565b602002602001015160ff16815181106141a0576141a061511d565b602001015160f81c60f81b8282815181106141bd576141bd61511d565b60200101906001600160f81b031916908160001a905350600101614152565b60006001600160a01b03831615801590611f365750826001600160a01b0316846001600160a01b0316148061423657506001600160a01b0380851660009081526006602090815260408083209387168352929052205460ff165b80611f365750506000908152600560205260409020546001600160a01b03908116911614919050565b6001600160e01b03198116811461194a57600080fd5b60006020828403121561428757600080fd5b8135610fce8161425f565b60005b838110156142ad578181015183820152602001614295565b50506000910152565b600081518084526142ce816020860160208601614292565b601f01601f19169290920160200192915050565b602081526000610fce60208301846142b6565b60006020828403121561430757600080fd5b5035919050565b6001600160a01b038116811461194a57600080fd5b803561432e8161430e565b919050565b6000806040838503121561434657600080fd5b82356143518161430e565b946020939093013593505050565b60008083601f84011261437157600080fd5b50813567ffffffffffffffff81111561438957600080fd5b602083019150836020828501011115612b0d57600080fd5b600080600080600080600060a0888a0312156143bc57600080fd5b873567ffffffffffffffff808211156143d457600080fd5b6143e08b838c0161435f565b909950975060208a01359150808211156143f957600080fd5b506144068a828b0161435f565b909650945050604088013561441a8161430e565b969995985093969295946060840135945060809093013592915050565b6000806020838503121561444a57600080fd5b823567ffffffffffffffff8082111561446257600080fd5b818501915085601f83011261447657600080fd5b81358181111561448557600080fd5b8660208260061b850101111561449a57600080fd5b60209290920196919550909350505050565b6000806000606084860312156144c157600080fd5b83356144cc8161430e565b925060208401356144dc8161430e565b929592945050506040919091013590565b6000602082840312156144ff57600080fd5b813567ffffffffffffffff81111561451657600080fd5b82016101808185031215610fce57600080fd5b6000604080830185845260206040818601528186518084526060935060608701915060608160051b88010183890160005b838110156145aa57898303605f19018552815180516001600160a01b031684528681015187850152880151888401889052614597888501826142b6565b958701959350509085019060010161455a565b50909a9950505050505050505050565b6000602082840312156145cc57600080fd5b8135610fce8161430e565b600080604083850312156145ea57600080fd5b50508035926020909101359150565b6000610200828403121561460c57600080fd5b50919050565b60006020828403121561462457600080fd5b813567ffffffffffffffff81111561463b57600080fd5b611f36848285016145f9565b6000806040838503121561465a57600080fd5b82359150602083013561466c8161430e565b809150509250929050565b634e487b7160e01b600052604160045260246000fd5b6040516080810167ffffffffffffffff811182821017156146b0576146b0614677565b60405290565b604051610180810167ffffffffffffffff811182821017156146b0576146b0614677565b604051610120810167ffffffffffffffff811182821017156146b0576146b0614677565b6040516101a0810167ffffffffffffffff811182821017156146b0576146b0614677565b604051601f8201601f1916810167ffffffffffffffff8111828210171561474b5761474b614677565b604052919050565b600067ffffffffffffffff82111561476d5761476d614677565b5060051b60200190565b60006101a0828403121561460c57600080fd5b6000806040838503121561479d57600080fd5b823567ffffffffffffffff808211156147b557600080fd5b818501915085601f8301126147c957600080fd5b813560206147de6147d983614753565b614722565b82815260059290921b840181019181810190898411156147fd57600080fd5b948201945b8386101561481b57853582529482019490820190614802565b9650508601359250508082111561483157600080fd5b5061483e85828601614777565b9150509250929050565b60008083601f84011261485a57600080fd5b50813567ffffffffffffffff81111561487257600080fd5b6020830191508360208260051b8501011115612b0d57600080fd5b6000806000604084860312156148a257600080fd5b833567ffffffffffffffff8111156148b957600080fd5b6148c586828701614848565b90945092505060208401356148d98161430e565b809150509250925092565b60008151808452602080850194506020840160005b83811015614915578151875295820195908201906001016148f9565b509495945050505050565b602081526000610fce60208301846148e4565b801515811461194a57600080fd5b803561432e81614933565b6000806040838503121561495f57600080fd5b823561496a8161430e565b9150602083013561466c81614933565b60006020828403121561498c57600080fd5b813567ffffffffffffffff8111156149a357600080fd5b611f3684828501614777565b60006080820186835260208681850152604086604086015260606080606087015283875180865260a08801915060a08160051b890101955084890160005b82811015614a3d57898803609f19018452815180516001600160a01b0316895287810151888a0152860151868901869052614a2a868a01826142b6565b98505092860192908601906001016149ed565b50959c9b505050505050505050505050565b600067ffffffffffffffff821115614a6957614a69614677565b50601f01601f191660200190565b6000614a856147d984614a4f565b9050828152838383011115614a9957600080fd5b828260208301376000602084830101529392505050565b60008060008060808587031215614ac657600080fd5b8435614ad18161430e565b93506020850135614ae18161430e565b925060408501359150606085013567ffffffffffffffff811115614b0457600080fd5b8501601f81018713614b1557600080fd5b614b2487823560208401614a77565b91505092959194509250565b600082601f830112614b4157600080fd5b610fce83833560208501614a77565b80356cffffffffffffffffffffffffff8116811461432e57600080fd5b803563ffffffff8116811461432e57600080fd5b61ffff8116811461194a57600080fd5b803561432e81614b81565b803562ffffff8116811461432e57600080fd5b803560ff8116811461432e57600080fd5b60006080808385031215614bd357600080fd5b614bdb61468d565b9150823567ffffffffffffffff811115614bf457600080fd5b8301601f81018513614c0557600080fd5b80356020614c156147d983614753565b8281526101809283028401820192828201919089851115614c3557600080fd5b948301945b84861015614d285780868b031215614c525760008081fd5b614c5a6146b6565b614c6387614b50565b8152614c70858801614b6d565b858201526040614c81818901614b6d565b908201526060614c92888201614b91565b90820152614ca1878901614323565b8189015260a0878101359082015260c0614cbc818901614b9c565b9082015260e0614ccd888201614941565b90820152610100614cdf888201614941565b90820152610120614cf1888201614941565b90820152610140614d03888201614941565b90820152610160614d15888201614941565b9082015283529485019491830191614c3a565b50865250614d37868201614b6d565b8186015250505050614d4b60408301614baf565b6040820152614d5c60608301614323565b606082015292915050565b600060808284031215614d7957600080fd5b614d8161468d565b90508135614d8e81614933565b81526020820135614d9e81614933565b60208201526040820135614db181614933565b60408201526060820135614d5c81614933565b6000806000806000806000806000806101a08b8d031215614de457600080fd5b8a35995060208b013567ffffffffffffffff80821115614e0357600080fd5b614e0f8e838f01614b30565b9a5060408d0135915080821115614e2557600080fd5b614e318e838f01614b30565b9950614e3f60608e01614323565b985060808d0135915080821115614e5557600080fd5b614e618e838f01614b30565b9750614e6f60a08e01614323565b965060c08d0135915080821115614e8557600080fd5b614e918e838f01614b30565b955060e08d0135915080821115614ea757600080fd5b50614eb48d828e01614bc0565b935050614ec46101008c01614323565b9150614ed48c6101208d01614d67565b90509295989b9194979a5092959850565b600060208284031215614ef757600080fd5b610fce82614baf565b60008060408385031215614f1357600080fd5b8235614f1e8161430e565b9150602083013561466c8161430e565b60008060008060408587031215614f4457600080fd5b843567ffffffffffffffff80821115614f5c57600080fd5b818701915087601f830112614f7057600080fd5b813581811115614f7f57600080fd5b88602061018083028501011115614f9557600080fd5b602092830196509450908601359080821115614fb057600080fd5b50614fbd87828801614848565b95989497509550505050565b600181811c90821680614fdd57607f821691505b60208210810361460c57634e487b7160e01b600052602260045260246000fd5b601f821115610ee5576000816000526020600020601f850160051c810160208610156150265750805b601f850160051c820191505b8181101561504557828155600101615032565b505050505050565b67ffffffffffffffff83111561506557615065614677565b615079836150738354614fc9565b83614ffd565b6000601f8411600181146150ad57600085156150955750838201355b600019600387901b1c1916600186901b178355612bc6565b600083815260209020601f19861690835b828110156150de57868501358255602094850194600190920191016150be565b50868210156150fb5760001960f88860031b161c19848701351681555b505060018560011b0183555050505050565b8183823760009101908152919050565b634e487b7160e01b600052603260045260246000fd5b60006040828403121561514557600080fd5b6040516040810181811067ffffffffffffffff8211171561516857615168614677565b604052823581526020928301359281019290925250919050565b805161432e8161430e565b600061012082840312156151a057600080fd5b6151a86146da565b825181526020830151602082015260408301516040820152606083015160608201526080830151608082015260a083015160a082015260c083015160c08201526151f460e08401615182565b60e0820152610100928301519281019290925250919050565b600082601f83011261521e57600080fd5b8151602061522e6147d983614753565b8083825260208201915060208460051b87010193508684111561525057600080fd5b602086015b8481101561526c5780518352918301918301615255565b509695505050505050565b60006020828403121561528957600080fd5b815167ffffffffffffffff8111156152a057600080fd5b611f368482850161520d565b6000602082840312156152be57600080fd5b8151610fce8161430e565b805161432e81614933565b6000602082840312156152e657600080fd5b8151610fce81614933565b6000808335601e1984360301811261530857600080fd5b83018035915067ffffffffffffffff82111561532357600080fd5b602001915036819003821315612b0d57600080fd5b6001600160a01b0383168152604060208201526000611f3660408301846148e4565b60006020828403121561536c57600080fd5b5051919050565b84815260606020808301829052908201849052600090859060808401835b878110156153ba5783356153a481614b81565b61ffff1682529282019290820190600101615391565b50809350505050821515604083015295945050505050565b600080604083850312156153e557600080fd5b825167ffffffffffffffff8111156153fc57600080fd5b6154088582860161520d565b925050602083015190509250929050565b60006020828403121561542b57600080fd5b8135610fce81614b81565b815167ffffffffffffffff81111561545057615450614677565b6154648161545e8454614fc9565b84614ffd565b602080601f83116001811461549957600084156154815750858301515b600019600386901b1c1916600185901b178555615045565b600085815260208120601f198616915b828110156154c8578886015182559484019460019091019084016154a9565b50858210156154e65787850151600019600388901b60f8161c191681555b5050505050600190811b01905550565b602080825282518282018190526000919060409081850190868401855b828110156155d657815180516cffffffffffffffffffffffffff1685528681015163ffffffff9081168887015286820151168686015260608082015161ffff16908601526080808201516001600160a01b03169086015260a0808201519086015260c08082015162ffffff169086015260e080820151151590860152610100808201511515908601526101208082015115159086015261014080820151151590860152610160908101511515908501526101809093019290850190600101615513565b5091979650505050505050565b600082601f8301126155f457600080fd5b81516156026147d982614a4f565b81815284602083860101111561561757600080fd5b611f36826020830160208701614292565b60006020828403121561563a57600080fd5b815167ffffffffffffffff81111561565157600080fd5b611f36848285016155e3565b6020815281602082015260007f07ffffffffffffffffffffffffffffffffffffffffffffffffffffffffffffff83111561569657600080fd5b8260051b80856040850137919091016040019392505050565b6156cf826156bc83614b50565b6cffffffffffffffffffffffffff169052565b6156db60208201614b6d565b63ffffffff1660208301526156f260408201614b6d565b63ffffffff16604083015261570960608201614b91565b61ffff16606083015261571e60808201614323565b6001600160a01b0316608083015260a0818101359083015261574260c08201614b9c565b62ffffff1660c083015261575860e08201614941565b151560e083015261010061576d828201614941565b151590830152610120615781828201614941565b151590830152610140615795828201614941565b1515908301526101606157a9828201614941565b80151584830152610e1a565b6020808252810182905260008360408301825b858110156157ee576157da82846156af565b6101809283019291909101906001016157c8565b5095945050505050565b6101a0810161580782856156af565b6001600160a01b0383166101808301529392505050565b60006020828403121561583057600080fd5b815167ffffffffffffffff8082111561584857600080fd5b908301906101a0828603121561585d57600080fd5b6158656146fe565b825181526020830151602082015260408301516040820152606083015160608201526080830151608082015260a083015160a08201526158a760c08401615182565b60c082015260e083015160e08201526101008084015181830152506101206158d08185016152c9565b908201526101406158e28482016152c9565b908201526101606158f48482016152c9565b90820152610180838101518381111561590c57600080fd5b615918888287016155e3565b918301919091525095945050505050565b634e487b7160e01b600052601160045260246000fd5b80820180821115610a5557610a55615929565b8082028115828204841417610a5557610a55615929565b60006001600160a01b0380871683528086166020840152508360408301526080606083015261599b60808301846142b6565b9695505050505050565b6000602082840312156159b757600080fd5b8151610fce8161425f565b600083516159d4818460208801614292565b8351908301906159e8818360208801614292565b01949350505050565b600181815b80851115615a2c578160001904821115615a1257615a12615929565b80851615615a1f57918102915b93841c93908002906159f6565b509250929050565b600082615a4357506001610a55565b81615a5057506000610a55565b8160018114615a665760028114615a7057615a8c565b6001915050610a55565b60ff841115615a8157615a81615929565b50506001821b610a55565b5060208310610133831016604e8410600b8410161715615aaf575081810a610a55565b615ab983836159f1565b8060001904821115615acd57615acd615929565b029392505050565b6000610fce8383615a34565b60008060408385031215615af457600080fd5b8251615aff81614933565b8092505060208084015167ffffffffffffffff811115615b1e57600080fd5b8401601f81018613615b2f57600080fd5b8051615b3d6147d982614753565b81815260059190911b82018301908381019088831115615b5c57600080fd5b928401925b82841015615b83578351615b7481614b81565b82529284019290840190615b61565b80955050505050509250929050565b600060808284031215615ba457600080fd5b615bac61468d565b8251615bb781614933565b81526020830151615bc781614933565b60208201526040830151615bda81614933565b60408201526060830151615bed81614933565b60608201529392505050565b81810381811115610a5557610a55615929565b60008085851115615c1c57600080fd5b83861115615c2957600080fd5b5050820193919092039150565b6bffffffffffffffffffffffff198135818116916014851015615c635780818660140360031b1b83161692505b505092915050565b634e487b7160e01b600052601260045260246000fd5b600082615c9057615c90615c6b565b500690565b600082615ca457615ca4615c6b565b500490565b60006060820185835260206060602085015281865180845260808601915060208801935060005b81811015615cf057845161ffff1683529383019391830191600101615cd0565b5050809350505050821515604083015294935050505056fe31323334353637383941424344454647484a4b4c4d4e505152535455565758595a6162636465666768696a6b6d6e6f707172737475767778797aa2646970667358221220668cc3b83eb1eb681c48df05446c25442170cd9d5d95c7ceb802962b900e5aca64736f6c63430008170033",
	"devdoc": {
		"kind": "dev",
		"methods": {
			"adjustTiers((uint104,uint32,uint32,uint16,address,bytes32,uint24,bool,bool,bool,bool,bool)[],uint256[])": {
				"details": "Only the contract's owner or an operator with the `ADJUST_TIERS` permission from the owner can adjust the tiers.Any added tiers must adhere to this hook's `JB721TiersHookFlags`.",
				"params": {
					"tierIdsToRemove": "The tiers to remove, as an array of tier IDs.",
					"tiersToAdd": "The tiers to add, as an array of `JB721TierConfig` structs`."
				}
			},
			"afterPayRecordedWith((address,uint256,uint256,(address,uint256,uint256,uint256),(address,uint256,uint256,uint256),uint256,uint256,address,bytes,bytes))": {
				"details": "Reverts if the calling contract is not one of the project's terminals.",
				"params": {
					"context": "The payment context passed in by the terminal."
				}
			},
			"afterRedeemRecordedWith((address,uint256,uint256,uint256,(address,uint256,uint256,uint256),(address,uint256,uint256,uint256),uint256,address,bytes,bytes))": {
				"details": "Reverts if the calling contract is not one of the project's terminals.",
				"params": {
					"context": "The redemption context passed in by the terminal."
				}
			},
			"approve(address,uint256)": {
				"details": "See {IERC721-approve}."
			},
			"balanceOf(address)": {
				"params": {
					"owner": "The address to check the balance of."
				},
				"returns": {
					"balance": "The number of NFTs the address owns across this hook's tiers."
				}
			},
			"beforePayRecordedWith((address,address,(address,uint256,uint256,uint256),uint256,uint256,address,uint256,uint256,bytes))": {
				"details": "Sets this contract as the pay hook. Part of `IJBRulesetDataHook`.",
				"params": {
					"context": "The payment context passed to this contract by the `pay(...)` function."
				},
				"returns": {
					"hookSpecifications": "The amount and data to send to pay hooks (this contract) instead of adding to the terminal's balance.",
					"weight": "The new `weight` to use, overriding the ruleset's `weight`."
				}
			},
			"beforeRedeemRecordedWith((address,address,uint256,uint256,uint256,uint256,(address,uint256,uint256,uint256),bool,uint256,bytes))": {
				"details": "Sets this contract as the redeem hook. Part of `IJBRulesetDataHook`.This function is used for NFT redemptions, and will only be called if the project's ruleset has `useDataHookForRedeem` set to `true`.",
				"params": {
					"context": "The redemption context passed to this contract by the `redeemTokensOf(...)` function."
				},
				"returns": {
					"hookSpecifications": "The amount and data to send to redeem hooks (this contract) instead of returning to the beneficiary.",
					"redeemCount": "The amount of tokens that should be considered redeemed.",
					"redemptionRate": "The redemption rate influencing the reclaim amount.",
					"totalSupply": "The total amount of tokens that are considered to be existing."
				}
			},
			"constructor": {
				"params": {
					"directory": "A directory of terminals and controllers for projects.",
					"permissions": "A contract storing permissions.",
					"trustedForwarder": "The trusted forwarder for the ERC2771Context."
				}
			},
			"firstOwnerOf(uint256)": {
				"details": "This is generally the address which paid for the NFT.",
				"params": {
					"tokenId": "The token ID of the NFT to get the first owner of."
				},
				"returns": {
					"_0": "The address of the NFT's first owner."
				}
			},
			"getApproved(uint256)": {
				"details": "See {IERC721-getApproved}."
			},
			"initialize(uint256,string,string,address,string,address,string,((uint104,uint32,uint32,uint16,address,bytes32,uint24,bool,bool,bool,bool,bool)[],uint32,uint8,address),address,(bool,bool,bool,bool))": {
				"params": {
					"baseUri": "The URI to use as a base for full NFT `tokenUri`s.",
					"contractUri": "A URI where this contract's metadata can be found.",
					"flags": "A set of additional options which dictate how the hook behaves.",
					"name": "The name of the NFT collection.",
					"projectId": "The ID of the project this this hook is associated with.",
					"rulesets": "A contract storing and managing project rulesets.",
					"store": "The contract which stores the NFT's data.",
					"symbol": "The symbol representing the NFT collection.",
					"tiersConfig": "The NFT tiers and pricing context to initialize the hook with. The tiers must be sorted by price (from least to greatest).",
					"tokenUriResolver": "An optional contract responsible for resolving the token URI for each NFT's token ID."
				}
			},
			"isApprovedForAll(address,address)": {
				"details": "See {IERC721-isApprovedForAll}."
			},
			"isTrustedForwarder(address)": {
				"details": "Indicates whether any particular address is the trusted forwarder."
			},
			"mintFor(uint16[],address)": {
				"params": {
					"beneficiary": "The address to mint to.",
					"tierIds": "The IDs of the tiers to mint from."
				},
				"returns": {
					"tokenIds": "The IDs of the newly minted tokens."
				}
			},
			"mintPendingReservesFor((uint256,uint256)[])": {
				"details": "\"Pending\" means that the NFTs have been reserved, but have not been minted yet.",
				"params": {
					"reserveMintConfigs": "Contains information about how many reserved tokens to mint for each tier."
				}
			},
			"mintPendingReservesFor(uint256,uint256)": {
				"details": "\"Pending\" means that the NFTs have been reserved, but have not been minted yet.",
				"params": {
					"count": "The number of reserved NFTs to mint.",
					"tierId": "The ID of the tier to mint reserved NFTs from."
				}
			},
			"name()": {
				"details": "See {IERC721Metadata-name}."
			},
			"ownerOf(uint256)": {
				"details": "See {IERC721-ownerOf}."
			},
			"pricingContext()": {
				"details": "If the `prices` contract is the zero address, this contract only accepts payments in the `currency` token.",
				"returns": {
					"currency": "The currency used for tier prices.",
					"decimals": "The amount of decimals being used in tier prices.",
					"prices": "The prices contract used to resolve the value of payments in currencies other than `currency`."
				}
			},
			"redemptionWeightOf(uint256[],(address,address,uint256,uint256,uint256,uint256,(address,uint256,uint256,uint256),bool,uint256,bytes))": {
				"details": "An NFT's redemption weight is its price.To get their relative redemption weight, divide the result by the `totalRedemptionWeight(...)`.",
				"params": {
					"tokenIds": "The token IDs of the NFTs to get the cumulative redemption weight of."
				},
				"returns": {
					"_0": "weight The redemption weight of the tokenIds."
				}
			},
			"safeTransferFrom(address,address,uint256)": {
				"details": "See {IERC721-safeTransferFrom}."
			},
			"safeTransferFrom(address,address,uint256,bytes)": {
				"details": "See {IERC721-safeTransferFrom}."
			},
			"setApprovalForAll(address,bool)": {
				"details": "See {IERC721-setApprovalForAll}."
			},
			"setMetadata(string,string,address,uint256,bytes32)": {
				"details": "Only this contract's owner can set the metadata.",
				"params": {
					"baseUri": "The new base URI.",
					"contractUri": "The new contract URI.",
					"encodedIPFSTUriTierId": "The ID of the tier to set the encoded IPFS URI of.",
					"encodedIPFSUri": "The encoded IPFS URI to set.",
					"tokenUriResolver": "The new URI resolver."
				}
			},
			"setPermissionId(uint8)": {
				"params": {
					"permissionId": "The ID of the permission to use for `onlyOwner`."
				}
			},
			"supportsInterface(bytes4)": {
				"details": "See {IERC165-supportsInterface}.",
				"params": {
					"interfaceId": "The ID of the interface to check for adherence to."
				}
			},
			"symbol()": {
				"details": "See {IERC721Metadata-symbol}."
			},
			"tokenURI(uint256)": {
				"details": "Defers to the `tokenUriResolver` if it is set. Otherwise, use the `tokenUri` corresponding with the NFT's tier.",
				"params": {
					"tokenId": "The token ID of the NFT to get the metadata URI of."
				},
				"returns": {
					"_0": "The token URI from the `tokenUriResolver` if it is set. If it isn't set, the token URI for the NFT's tier."
				}
			},
			"totalRedemptionWeight((address,address,uint256,uint256,uint256,uint256,(address,uint256,uint256,uint256),bool,uint256,bytes))": {
				"details": "An NFT's redemption weight is its price.",
				"returns": {
					"_0": "weight The total redemption weight."
				}
			},
			"transferFrom(address,address,uint256)": {
				"details": "See {IERC721-transferFrom}."
			},
			"transferOwnership(address)": {
				"params": {
					"newOwner": "The address that should receive ownership of this contract."
				}
			},
			"transferOwnershipToProject(uint256)": {
				"details": "The `projectId` must fit within a `uint88`.",
				"params": {
					"projectId": "The ID of the project that should receive ownership of this contract."
				}
			},
			"trustedForwarder()": {
				"details": "Returns the address of the trusted forwarder."
			}
		},
		"version": 1
	},
	"userdoc": {
		"kind": "user",
		"methods": {
			"DIRECTORY()": {
				"notice": "The directory of terminals and controllers for projects."
			},
			"METADATA_ID_TARGET()": {
				"notice": "The ID used when parsing metadata."
			},
			"PERMISSIONS()": {
				"notice": "A contract storing permissions."
			},
			"PROJECTS()": {
				"notice": "Mints ERC-721s that represent project ownership and transfers."
			},
			"PROJECT_ID()": {
				"notice": "The ID of the project that this contract is associated with."
			},
			"RULESETS()": {
				"notice": "The contract storing and managing project rulesets."
			},
			"STORE()": {
				"notice": "The contract that stores and manages data for this contract's NFTs."
			},
			"adjustTiers((uint104,uint32,uint32,uint16,address,bytes32,uint24,bool,bool,bool,bool,bool)[],uint256[])": {
				"notice": "Add or delete tiers."
			},
			"afterPayRecordedWith((address,uint256,uint256,(address,uint256,uint256,uint256),(address,uint256,uint256,uint256),uint256,uint256,address,bytes,bytes))": {
				"notice": "Mints one or more NFTs to the `context.benficiary` upon payment if conditions are met. Part of `IJBPayHook`."
			},
			"afterRedeemRecordedWith((address,uint256,uint256,uint256,(address,uint256,uint256,uint256),(address,uint256,uint256,uint256),uint256,address,bytes,bytes))": {
				"notice": "Burns the specified NFTs upon token holder redemption, reclaiming funds from the project's balance for `context.beneficiary`. Part of `IJBRedeemHook`."
			},
			"balanceOf(address)": {
				"notice": "The total number of this hook's NFTs that an address holds (from all tiers)."
			},
			"baseURI()": {
				"notice": "The base URI for the NFT `tokenUris`."
			},
			"beforePayRecordedWith((address,address,(address,uint256,uint256,uint256),uint256,uint256,address,uint256,uint256,bytes))": {
				"notice": "The data calculated before a payment is recorded in the terminal store. This data is provided to the terminal's `pay(...)` transaction."
			},
			"beforeRedeemRecordedWith((address,address,uint256,uint256,uint256,uint256,(address,uint256,uint256,uint256),bool,uint256,bytes))": {
				"notice": "The data calculated before a redemption is recorded in the terminal store. This data is provided to the terminal's `redeemTokensOf(...)` transaction."
			},
			"contractURI()": {
				"notice": "This contract's metadata URI."
			},
			"firstOwnerOf(uint256)": {
				"notice": "The first owner of an NFT."
			},
			"hasMintPermissionFor(uint256,address)": {
				"notice": "Required by the IJBRulesetDataHook interfaces. Return false to not leak any permissions."
			},
			"initialize(uint256,string,string,address,string,address,string,((uint104,uint32,uint32,uint16,address,bytes32,uint24,bool,bool,bool,bool,bool)[],uint32,uint8,address),address,(bool,bool,bool,bool))": {
				"notice": "Initializes a cloned copy of the original `JB721Hook` contract."
			},
			"jbOwner()": {
				"notice": "This contract's owner information."
			},
			"mintFor(uint16[],address)": {
				"notice": "Manually mint NFTs from the provided tiers ."
			},
			"mintPendingReservesFor((uint256,uint256)[])": {
				"notice": "Mint pending reserved NFTs based on the provided information."
			},
			"mintPendingReservesFor(uint256,uint256)": {
				"notice": "Mint reserved pending reserved NFTs within the provided tier."
			},
			"owner()": {
				"notice": "Returns the owner's address based on this contract's `JBOwner` owner information."
			},
			"payCreditsOf(address)": {
				"notice": "If an address pays more than the price of the NFT they received, the extra amount is stored as credits which can be redeemed to mint NFTs."
			},
			"pricingContext()": {
				"notice": "Context for the pricing of this hook's tiers."
			},
			"redemptionWeightOf(uint256[],(address,address,uint256,uint256,uint256,uint256,(address,uint256,uint256,uint256),bool,uint256,bytes))": {
				"notice": "The combined redemption weight of the NFTs with the specified token IDs."
			},
			"renounceOwnership()": {
				"notice": "Gives up ownership of this contract, making it impossible to call `onlyOwner`/`_checkOwner` functions. Can only be called by the current owner."
			},
			"setMetadata(string,string,address,uint256,bytes32)": {
				"notice": "Update this hook's URI metadata properties."
			},
			"setPermissionId(uint8)": {
				"notice": "Sets the permission ID which, when granted from the owner, allows other addresses to perform operations on their behalf."
			},
			"supportsInterface(bytes4)": {
				"notice": "Indicates if this contract adheres to the specified interface."
			},
			"tokenURI(uint256)": {
				"notice": "The metadata URI of the NFT with the specified token ID."
			},
			"totalRedemptionWeight((address,address,uint256,uint256,uint256,uint256,(address,uint256,uint256,uint256),bool,uint256,bytes))": {
				"notice": "The combined redemption weight of all outstanding NFTs."
			},
			"transferOwnership(address)": {
				"notice": "Transfers ownership of this contract to a new account (the `newOwner`). Can only be called by the current owner."
			},
			"transferOwnershipToProject(uint256)": {
				"notice": "Transfer ownership of this contract to a new Juicebox project."
			}
		},
		"version": 1
	},
	"gitCommit": "25d492e2002e347aa6573f5a389be455a787aa4c",
	"sourceName": "src/JB721TiersHook.sol",
	"chainId": "11155111",
	"linkReferences": {},
	"deployedLinkReferences": {},
	"history": []
}