{
	"_format": "sphinx-sol-ct-artifact-1",
	"merkleRoot": "0xe86112c80b3fdcd00444f5bde04496941e8a62863097b6d607d04af137595289",
	"contractName": "JB721TiersHook",
	"address": "0x4f2E788877B71fcDEB7DabF898572a556420896d",
	"abi": [
		{
			"type": "constructor",
			"inputs": [
				{
					"name": "directory",
					"type": "address",
					"internalType": "contract IJBDirectory"
				},
				{
					"name": "permissions",
					"type": "address",
					"internalType": "contract IJBPermissions"
				},
				{
					"name": "rulesets",
					"type": "address",
					"internalType": "contract IJBRulesets"
				},
				{
					"name": "store",
					"type": "address",
					"internalType": "contract IJB721TiersHookStore"
				},
				{
					"name": "trustedForwarder",
					"type": "address",
					"internalType": "address"
				}
			],
			"stateMutability": "nonpayable"
		},
		{
			"type": "function",
			"name": "DIRECTORY",
			"inputs": [],
			"outputs": [
				{
					"name": "",
					"type": "address",
					"internalType": "contract IJBDirectory"
				}
			],
			"stateMutability": "view"
		},
		{
			"type": "function",
			"name": "METADATA_ID_TARGET",
			"inputs": [],
			"outputs": [
				{
					"name": "",
					"type": "address",
					"internalType": "address"
				}
			],
			"stateMutability": "view"
		},
		{
			"type": "function",
			"name": "PERMISSIONS",
			"inputs": [],
			"outputs": [
				{
					"name": "",
					"type": "address",
					"internalType": "contract IJBPermissions"
				}
			],
			"stateMutability": "view"
		},
		{
			"type": "function",
			"name": "PROJECTS",
			"inputs": [],
			"outputs": [
				{
					"name": "",
					"type": "address",
					"internalType": "contract IJBProjects"
				}
			],
			"stateMutability": "view"
		},
		{
			"type": "function",
			"name": "PROJECT_ID",
			"inputs": [],
			"outputs": [
				{
					"name": "",
					"type": "uint256",
					"internalType": "uint256"
				}
			],
			"stateMutability": "view"
		},
		{
			"type": "function",
			"name": "RULESETS",
			"inputs": [],
			"outputs": [
				{
					"name": "",
					"type": "address",
					"internalType": "contract IJBRulesets"
				}
			],
			"stateMutability": "view"
		},
		{
			"type": "function",
			"name": "STORE",
			"inputs": [],
			"outputs": [
				{
					"name": "",
					"type": "address",
					"internalType": "contract IJB721TiersHookStore"
				}
			],
			"stateMutability": "view"
		},
		{
			"type": "function",
			"name": "adjustTiers",
			"inputs": [
				{
					"name": "tiersToAdd",
					"type": "tuple[]",
					"internalType": "struct JB721TierConfig[]",
					"components": [
						{
							"name": "price",
							"type": "uint104",
							"internalType": "uint104"
						},
						{
							"name": "initialSupply",
							"type": "uint32",
							"internalType": "uint32"
						},
						{
							"name": "votingUnits",
							"type": "uint32",
							"internalType": "uint32"
						},
						{
							"name": "reserveFrequency",
							"type": "uint16",
							"internalType": "uint16"
						},
						{
							"name": "reserveBeneficiary",
							"type": "address",
							"internalType": "address"
						},
						{
							"name": "encodedIPFSUri",
							"type": "bytes32",
							"internalType": "bytes32"
						},
						{
							"name": "category",
							"type": "uint24",
							"internalType": "uint24"
						},
						{
							"name": "discountPercent",
							"type": "uint8",
							"internalType": "uint8"
						},
						{
							"name": "allowOwnerMint",
							"type": "bool",
							"internalType": "bool"
						},
						{
							"name": "useReserveBeneficiaryAsDefault",
							"type": "bool",
							"internalType": "bool"
						},
						{
							"name": "transfersPausable",
							"type": "bool",
							"internalType": "bool"
						},
						{
							"name": "useVotingUnits",
							"type": "bool",
							"internalType": "bool"
						},
						{
							"name": "cannotBeRemoved",
							"type": "bool",
							"internalType": "bool"
						},
						{
							"name": "cannotIncreaseDiscountPercent",
							"type": "bool",
							"internalType": "bool"
						}
					]
				},
				{
					"name": "tierIdsToRemove",
					"type": "uint256[]",
					"internalType": "uint256[]"
				}
			],
			"outputs": [],
			"stateMutability": "nonpayable"
		},
		{
			"type": "function",
			"name": "afterPayRecordedWith",
			"inputs": [
				{
					"name": "context",
					"type": "tuple",
					"internalType": "struct JBAfterPayRecordedContext",
					"components": [
						{
							"name": "payer",
							"type": "address",
							"internalType": "address"
						},
						{
							"name": "projectId",
							"type": "uint256",
							"internalType": "uint256"
						},
						{
							"name": "rulesetId",
							"type": "uint256",
							"internalType": "uint256"
						},
						{
							"name": "amount",
							"type": "tuple",
							"internalType": "struct JBTokenAmount",
							"components": [
								{
									"name": "token",
									"type": "address",
									"internalType": "address"
								},
								{
									"name": "decimals",
									"type": "uint8",
									"internalType": "uint8"
								},
								{
									"name": "currency",
									"type": "uint32",
									"internalType": "uint32"
								},
								{
									"name": "value",
									"type": "uint256",
									"internalType": "uint256"
								}
							]
						},
						{
							"name": "forwardedAmount",
							"type": "tuple",
							"internalType": "struct JBTokenAmount",
							"components": [
								{
									"name": "token",
									"type": "address",
									"internalType": "address"
								},
								{
									"name": "decimals",
									"type": "uint8",
									"internalType": "uint8"
								},
								{
									"name": "currency",
									"type": "uint32",
									"internalType": "uint32"
								},
								{
									"name": "value",
									"type": "uint256",
									"internalType": "uint256"
								}
							]
						},
						{
							"name": "weight",
							"type": "uint256",
							"internalType": "uint256"
						},
						{
							"name": "projectTokenCount",
							"type": "uint256",
							"internalType": "uint256"
						},
						{
							"name": "beneficiary",
							"type": "address",
							"internalType": "address"
						},
						{
							"name": "hookMetadata",
							"type": "bytes",
							"internalType": "bytes"
						},
						{
							"name": "payerMetadata",
							"type": "bytes",
							"internalType": "bytes"
						}
					]
				}
			],
			"outputs": [],
			"stateMutability": "payable"
		},
		{
			"type": "function",
			"name": "afterRedeemRecordedWith",
			"inputs": [
				{
					"name": "context",
					"type": "tuple",
					"internalType": "struct JBAfterRedeemRecordedContext",
					"components": [
						{
							"name": "holder",
							"type": "address",
							"internalType": "address"
						},
						{
							"name": "projectId",
							"type": "uint256",
							"internalType": "uint256"
						},
						{
							"name": "rulesetId",
							"type": "uint256",
							"internalType": "uint256"
						},
						{
							"name": "redeemCount",
							"type": "uint256",
							"internalType": "uint256"
						},
						{
							"name": "reclaimedAmount",
							"type": "tuple",
							"internalType": "struct JBTokenAmount",
							"components": [
								{
									"name": "token",
									"type": "address",
									"internalType": "address"
								},
								{
									"name": "decimals",
									"type": "uint8",
									"internalType": "uint8"
								},
								{
									"name": "currency",
									"type": "uint32",
									"internalType": "uint32"
								},
								{
									"name": "value",
									"type": "uint256",
									"internalType": "uint256"
								}
							]
						},
						{
							"name": "forwardedAmount",
							"type": "tuple",
							"internalType": "struct JBTokenAmount",
							"components": [
								{
									"name": "token",
									"type": "address",
									"internalType": "address"
								},
								{
									"name": "decimals",
									"type": "uint8",
									"internalType": "uint8"
								},
								{
									"name": "currency",
									"type": "uint32",
									"internalType": "uint32"
								},
								{
									"name": "value",
									"type": "uint256",
									"internalType": "uint256"
								}
							]
						},
						{
							"name": "redemptionRate",
							"type": "uint256",
							"internalType": "uint256"
						},
						{
							"name": "beneficiary",
							"type": "address",
							"internalType": "address payable"
						},
						{
							"name": "hookMetadata",
							"type": "bytes",
							"internalType": "bytes"
						},
						{
							"name": "redeemerMetadata",
							"type": "bytes",
							"internalType": "bytes"
						}
					]
				}
			],
			"outputs": [],
			"stateMutability": "payable"
		},
		{
			"type": "function",
			"name": "approve",
			"inputs": [
				{
					"name": "to",
					"type": "address",
					"internalType": "address"
				},
				{
					"name": "tokenId",
					"type": "uint256",
					"internalType": "uint256"
				}
			],
			"outputs": [],
			"stateMutability": "nonpayable"
		},
		{
			"type": "function",
			"name": "balanceOf",
			"inputs": [
				{
					"name": "owner",
					"type": "address",
					"internalType": "address"
				}
			],
			"outputs": [
				{
					"name": "balance",
					"type": "uint256",
					"internalType": "uint256"
				}
			],
			"stateMutability": "view"
		},
		{
			"type": "function",
			"name": "baseURI",
			"inputs": [],
			"outputs": [
				{
					"name": "",
					"type": "string",
					"internalType": "string"
				}
			],
			"stateMutability": "view"
		},
		{
			"type": "function",
			"name": "beforePayRecordedWith",
			"inputs": [
				{
					"name": "context",
					"type": "tuple",
					"internalType": "struct JBBeforePayRecordedContext",
					"components": [
						{
							"name": "terminal",
							"type": "address",
							"internalType": "address"
						},
						{
							"name": "payer",
							"type": "address",
							"internalType": "address"
						},
						{
							"name": "amount",
							"type": "tuple",
							"internalType": "struct JBTokenAmount",
							"components": [
								{
									"name": "token",
									"type": "address",
									"internalType": "address"
								},
								{
									"name": "decimals",
									"type": "uint8",
									"internalType": "uint8"
								},
								{
									"name": "currency",
									"type": "uint32",
									"internalType": "uint32"
								},
								{
									"name": "value",
									"type": "uint256",
									"internalType": "uint256"
								}
							]
						},
						{
							"name": "projectId",
							"type": "uint256",
							"internalType": "uint256"
						},
						{
							"name": "rulesetId",
							"type": "uint256",
							"internalType": "uint256"
						},
						{
							"name": "beneficiary",
							"type": "address",
							"internalType": "address"
						},
						{
							"name": "weight",
							"type": "uint256",
							"internalType": "uint256"
						},
						{
							"name": "reservedPercent",
							"type": "uint256",
							"internalType": "uint256"
						},
						{
							"name": "metadata",
							"type": "bytes",
							"internalType": "bytes"
						}
					]
				}
			],
			"outputs": [
				{
					"name": "weight",
					"type": "uint256",
					"internalType": "uint256"
				},
				{
					"name": "hookSpecifications",
					"type": "tuple[]",
					"internalType": "struct JBPayHookSpecification[]",
					"components": [
						{
							"name": "hook",
							"type": "address",
							"internalType": "contract IJBPayHook"
						},
						{
							"name": "amount",
							"type": "uint256",
							"internalType": "uint256"
						},
						{
							"name": "metadata",
							"type": "bytes",
							"internalType": "bytes"
						}
					]
				}
			],
			"stateMutability": "view"
		},
		{
			"type": "function",
			"name": "beforeRedeemRecordedWith",
			"inputs": [
				{
					"name": "context",
					"type": "tuple",
					"internalType": "struct JBBeforeRedeemRecordedContext",
					"components": [
						{
							"name": "terminal",
							"type": "address",
							"internalType": "address"
						},
						{
							"name": "holder",
							"type": "address",
							"internalType": "address"
						},
						{
							"name": "projectId",
							"type": "uint256",
							"internalType": "uint256"
						},
						{
							"name": "rulesetId",
							"type": "uint256",
							"internalType": "uint256"
						},
						{
							"name": "redeemCount",
							"type": "uint256",
							"internalType": "uint256"
						},
						{
							"name": "totalSupply",
							"type": "uint256",
							"internalType": "uint256"
						},
						{
							"name": "surplus",
							"type": "tuple",
							"internalType": "struct JBTokenAmount",
							"components": [
								{
									"name": "token",
									"type": "address",
									"internalType": "address"
								},
								{
									"name": "decimals",
									"type": "uint8",
									"internalType": "uint8"
								},
								{
									"name": "currency",
									"type": "uint32",
									"internalType": "uint32"
								},
								{
									"name": "value",
									"type": "uint256",
									"internalType": "uint256"
								}
							]
						},
						{
							"name": "useTotalSurplus",
							"type": "bool",
							"internalType": "bool"
						},
						{
							"name": "redemptionRate",
							"type": "uint256",
							"internalType": "uint256"
						},
						{
							"name": "metadata",
							"type": "bytes",
							"internalType": "bytes"
						}
					]
				}
			],
			"outputs": [
				{
					"name": "redemptionRate",
					"type": "uint256",
					"internalType": "uint256"
				},
				{
					"name": "redeemCount",
					"type": "uint256",
					"internalType": "uint256"
				},
				{
					"name": "totalSupply",
					"type": "uint256",
					"internalType": "uint256"
				},
				{
					"name": "hookSpecifications",
					"type": "tuple[]",
					"internalType": "struct JBRedeemHookSpecification[]",
					"components": [
						{
							"name": "hook",
							"type": "address",
							"internalType": "contract IJBRedeemHook"
						},
						{
							"name": "amount",
							"type": "uint256",
							"internalType": "uint256"
						},
						{
							"name": "metadata",
							"type": "bytes",
							"internalType": "bytes"
						}
					]
				}
			],
			"stateMutability": "view"
		},
		{
			"type": "function",
			"name": "contractURI",
			"inputs": [],
			"outputs": [
				{
					"name": "",
					"type": "string",
					"internalType": "string"
				}
			],
			"stateMutability": "view"
		},
		{
			"type": "function",
			"name": "firstOwnerOf",
			"inputs": [
				{
					"name": "tokenId",
					"type": "uint256",
					"internalType": "uint256"
				}
			],
			"outputs": [
				{
					"name": "",
					"type": "address",
					"internalType": "address"
				}
			],
			"stateMutability": "view"
		},
		{
			"type": "function",
			"name": "getApproved",
			"inputs": [
				{
					"name": "tokenId",
					"type": "uint256",
					"internalType": "uint256"
				}
			],
			"outputs": [
				{
					"name": "",
					"type": "address",
					"internalType": "address"
				}
			],
			"stateMutability": "view"
		},
		{
			"type": "function",
			"name": "hasMintPermissionFor",
			"inputs": [
				{
					"name": "",
					"type": "uint256",
					"internalType": "uint256"
				},
				{
					"name": "",
					"type": "address",
					"internalType": "address"
				}
			],
			"outputs": [
				{
					"name": "",
					"type": "bool",
					"internalType": "bool"
				}
			],
			"stateMutability": "pure"
		},
		{
			"type": "function",
			"name": "initialize",
			"inputs": [
				{
					"name": "projectId",
					"type": "uint256",
					"internalType": "uint256"
				},
				{
					"name": "name",
					"type": "string",
					"internalType": "string"
				},
				{
					"name": "symbol",
					"type": "string",
					"internalType": "string"
				},
				{
					"name": "baseUri",
					"type": "string",
					"internalType": "string"
				},
				{
					"name": "tokenUriResolver",
					"type": "address",
					"internalType": "contract IJB721TokenUriResolver"
				},
				{
					"name": "contractUri",
					"type": "string",
					"internalType": "string"
				},
				{
					"name": "tiersConfig",
					"type": "tuple",
					"internalType": "struct JB721InitTiersConfig",
					"components": [
						{
							"name": "tiers",
							"type": "tuple[]",
							"internalType": "struct JB721TierConfig[]",
							"components": [
								{
									"name": "price",
									"type": "uint104",
									"internalType": "uint104"
								},
								{
									"name": "initialSupply",
									"type": "uint32",
									"internalType": "uint32"
								},
								{
									"name": "votingUnits",
									"type": "uint32",
									"internalType": "uint32"
								},
								{
									"name": "reserveFrequency",
									"type": "uint16",
									"internalType": "uint16"
								},
								{
									"name": "reserveBeneficiary",
									"type": "address",
									"internalType": "address"
								},
								{
									"name": "encodedIPFSUri",
									"type": "bytes32",
									"internalType": "bytes32"
								},
								{
									"name": "category",
									"type": "uint24",
									"internalType": "uint24"
								},
								{
									"name": "discountPercent",
									"type": "uint8",
									"internalType": "uint8"
								},
								{
									"name": "allowOwnerMint",
									"type": "bool",
									"internalType": "bool"
								},
								{
									"name": "useReserveBeneficiaryAsDefault",
									"type": "bool",
									"internalType": "bool"
								},
								{
									"name": "transfersPausable",
									"type": "bool",
									"internalType": "bool"
								},
								{
									"name": "useVotingUnits",
									"type": "bool",
									"internalType": "bool"
								},
								{
									"name": "cannotBeRemoved",
									"type": "bool",
									"internalType": "bool"
								},
								{
									"name": "cannotIncreaseDiscountPercent",
									"type": "bool",
									"internalType": "bool"
								}
							]
						},
						{
							"name": "currency",
							"type": "uint32",
							"internalType": "uint32"
						},
						{
							"name": "decimals",
							"type": "uint8",
							"internalType": "uint8"
						},
						{
							"name": "prices",
							"type": "address",
							"internalType": "contract IJBPrices"
						}
					]
				},
				{
					"name": "flags",
					"type": "tuple",
					"internalType": "struct JB721TiersHookFlags",
					"components": [
						{
							"name": "noNewTiersWithReserves",
							"type": "bool",
							"internalType": "bool"
						},
						{
							"name": "noNewTiersWithVotes",
							"type": "bool",
							"internalType": "bool"
						},
						{
							"name": "noNewTiersWithOwnerMinting",
							"type": "bool",
							"internalType": "bool"
						},
						{
							"name": "preventOverspending",
							"type": "bool",
							"internalType": "bool"
						}
					]
				}
			],
			"outputs": [],
			"stateMutability": "nonpayable"
		},
		{
			"type": "function",
			"name": "isApprovedForAll",
			"inputs": [
				{
					"name": "owner",
					"type": "address",
					"internalType": "address"
				},
				{
					"name": "operator",
					"type": "address",
					"internalType": "address"
				}
			],
			"outputs": [
				{
					"name": "",
					"type": "bool",
					"internalType": "bool"
				}
			],
			"stateMutability": "view"
		},
		{
			"type": "function",
			"name": "isTrustedForwarder",
			"inputs": [
				{
					"name": "forwarder",
					"type": "address",
					"internalType": "address"
				}
			],
			"outputs": [
				{
					"name": "",
					"type": "bool",
					"internalType": "bool"
				}
			],
			"stateMutability": "view"
		},
		{
			"type": "function",
			"name": "jbOwner",
			"inputs": [],
			"outputs": [
				{
					"name": "owner",
					"type": "address",
					"internalType": "address"
				},
				{
					"name": "projectId",
					"type": "uint88",
					"internalType": "uint88"
				},
				{
					"name": "permissionId",
					"type": "uint8",
					"internalType": "uint8"
				}
			],
			"stateMutability": "view"
		},
		{
			"type": "function",
			"name": "mintFor",
			"inputs": [
				{
					"name": "tierIds",
					"type": "uint16[]",
					"internalType": "uint16[]"
				},
				{
					"name": "beneficiary",
					"type": "address",
					"internalType": "address"
				}
			],
			"outputs": [
				{
					"name": "tokenIds",
					"type": "uint256[]",
					"internalType": "uint256[]"
				}
			],
			"stateMutability": "nonpayable"
		},
		{
			"type": "function",
			"name": "mintPendingReservesFor",
			"inputs": [
				{
					"name": "tierId",
					"type": "uint256",
					"internalType": "uint256"
				},
				{
					"name": "count",
					"type": "uint256",
					"internalType": "uint256"
				}
			],
			"outputs": [],
			"stateMutability": "nonpayable"
		},
		{
			"type": "function",
			"name": "mintPendingReservesFor",
			"inputs": [
				{
					"name": "reserveMintConfigs",
					"type": "tuple[]",
					"internalType": "struct JB721TiersMintReservesConfig[]",
					"components": [
						{
							"name": "tierId",
							"type": "uint32",
							"internalType": "uint32"
						},
						{
							"name": "count",
							"type": "uint16",
							"internalType": "uint16"
						}
					]
				}
			],
			"outputs": [],
			"stateMutability": "nonpayable"
		},
		{
			"type": "function",
			"name": "name",
			"inputs": [],
			"outputs": [
				{
					"name": "",
					"type": "string",
					"internalType": "string"
				}
			],
			"stateMutability": "view"
		},
		{
			"type": "function",
			"name": "owner",
			"inputs": [],
			"outputs": [
				{
					"name": "",
					"type": "address",
					"internalType": "address"
				}
			],
			"stateMutability": "view"
		},
		{
			"type": "function",
			"name": "ownerOf",
			"inputs": [
				{
					"name": "tokenId",
					"type": "uint256",
					"internalType": "uint256"
				}
			],
			"outputs": [
				{
					"name": "",
					"type": "address",
					"internalType": "address"
				}
			],
			"stateMutability": "view"
		},
		{
			"type": "function",
			"name": "payCreditsOf",
			"inputs": [
				{
					"name": "addr",
					"type": "address",
					"internalType": "address"
				}
			],
			"outputs": [
				{
					"name": "",
					"type": "uint256",
					"internalType": "uint256"
				}
			],
			"stateMutability": "view"
		},
		{
			"type": "function",
			"name": "pricingContext",
			"inputs": [],
			"outputs": [
				{
					"name": "currency",
					"type": "uint256",
					"internalType": "uint256"
				},
				{
					"name": "decimals",
					"type": "uint256",
					"internalType": "uint256"
				},
				{
					"name": "prices",
					"type": "address",
					"internalType": "contract IJBPrices"
				}
			],
			"stateMutability": "view"
		},
		{
			"type": "function",
			"name": "redemptionWeightOf",
			"inputs": [
				{
					"name": "tokenIds",
					"type": "uint256[]",
					"internalType": "uint256[]"
				},
				{
					"name": "",
					"type": "tuple",
					"internalType": "struct JBBeforeRedeemRecordedContext",
					"components": [
						{
							"name": "terminal",
							"type": "address",
							"internalType": "address"
						},
						{
							"name": "holder",
							"type": "address",
							"internalType": "address"
						},
						{
							"name": "projectId",
							"type": "uint256",
							"internalType": "uint256"
						},
						{
							"name": "rulesetId",
							"type": "uint256",
							"internalType": "uint256"
						},
						{
							"name": "redeemCount",
							"type": "uint256",
							"internalType": "uint256"
						},
						{
							"name": "totalSupply",
							"type": "uint256",
							"internalType": "uint256"
						},
						{
							"name": "surplus",
							"type": "tuple",
							"internalType": "struct JBTokenAmount",
							"components": [
								{
									"name": "token",
									"type": "address",
									"internalType": "address"
								},
								{
									"name": "decimals",
									"type": "uint8",
									"internalType": "uint8"
								},
								{
									"name": "currency",
									"type": "uint32",
									"internalType": "uint32"
								},
								{
									"name": "value",
									"type": "uint256",
									"internalType": "uint256"
								}
							]
						},
						{
							"name": "useTotalSurplus",
							"type": "bool",
							"internalType": "bool"
						},
						{
							"name": "redemptionRate",
							"type": "uint256",
							"internalType": "uint256"
						},
						{
							"name": "metadata",
							"type": "bytes",
							"internalType": "bytes"
						}
					]
				}
			],
			"outputs": [
				{
					"name": "",
					"type": "uint256",
					"internalType": "uint256"
				}
			],
			"stateMutability": "view"
		},
		{
			"type": "function",
			"name": "renounceOwnership",
			"inputs": [],
			"outputs": [],
			"stateMutability": "nonpayable"
		},
		{
			"type": "function",
			"name": "safeTransferFrom",
			"inputs": [
				{
					"name": "from",
					"type": "address",
					"internalType": "address"
				},
				{
					"name": "to",
					"type": "address",
					"internalType": "address"
				},
				{
					"name": "tokenId",
					"type": "uint256",
					"internalType": "uint256"
				}
			],
			"outputs": [],
			"stateMutability": "nonpayable"
		},
		{
			"type": "function",
			"name": "safeTransferFrom",
			"inputs": [
				{
					"name": "from",
					"type": "address",
					"internalType": "address"
				},
				{
					"name": "to",
					"type": "address",
					"internalType": "address"
				},
				{
					"name": "tokenId",
					"type": "uint256",
					"internalType": "uint256"
				},
				{
					"name": "data",
					"type": "bytes",
					"internalType": "bytes"
				}
			],
			"outputs": [],
			"stateMutability": "nonpayable"
		},
		{
			"type": "function",
			"name": "setApprovalForAll",
			"inputs": [
				{
					"name": "operator",
					"type": "address",
					"internalType": "address"
				},
				{
					"name": "approved",
					"type": "bool",
					"internalType": "bool"
				}
			],
			"outputs": [],
			"stateMutability": "nonpayable"
		},
		{
			"type": "function",
			"name": "setDiscountPercentOf",
			"inputs": [
				{
					"name": "tierId",
					"type": "uint256",
					"internalType": "uint256"
				},
				{
					"name": "discountPercent",
					"type": "uint256",
					"internalType": "uint256"
				}
			],
			"outputs": [],
			"stateMutability": "nonpayable"
		},
		{
			"type": "function",
			"name": "setDiscountPercentsOf",
			"inputs": [
				{
					"name": "configs",
					"type": "tuple[]",
					"internalType": "struct JB721TiersSetDiscountPercentConfig[]",
					"components": [
						{
							"name": "tierId",
							"type": "uint32",
							"internalType": "uint32"
						},
						{
							"name": "discountPercent",
							"type": "uint16",
							"internalType": "uint16"
						}
					]
				}
			],
			"outputs": [],
			"stateMutability": "nonpayable"
		},
		{
			"type": "function",
			"name": "setMetadata",
			"inputs": [
				{
					"name": "baseUri",
					"type": "string",
					"internalType": "string"
				},
				{
					"name": "contractUri",
					"type": "string",
					"internalType": "string"
				},
				{
					"name": "tokenUriResolver",
					"type": "address",
					"internalType": "contract IJB721TokenUriResolver"
				},
				{
					"name": "encodedIPFSTUriTierId",
					"type": "uint256",
					"internalType": "uint256"
				},
				{
					"name": "encodedIPFSUri",
					"type": "bytes32",
					"internalType": "bytes32"
				}
			],
			"outputs": [],
			"stateMutability": "nonpayable"
		},
		{
			"type": "function",
			"name": "setPermissionId",
			"inputs": [
				{
					"name": "permissionId",
					"type": "uint8",
					"internalType": "uint8"
				}
			],
			"outputs": [],
			"stateMutability": "nonpayable"
		},
		{
			"type": "function",
			"name": "supportsInterface",
			"inputs": [
				{
					"name": "interfaceId",
					"type": "bytes4",
					"internalType": "bytes4"
				}
			],
			"outputs": [
				{
					"name": "",
					"type": "bool",
					"internalType": "bool"
				}
			],
			"stateMutability": "view"
		},
		{
			"type": "function",
			"name": "symbol",
			"inputs": [],
			"outputs": [
				{
					"name": "",
					"type": "string",
					"internalType": "string"
				}
			],
			"stateMutability": "view"
		},
		{
			"type": "function",
			"name": "tokenURI",
			"inputs": [
				{
					"name": "tokenId",
					"type": "uint256",
					"internalType": "uint256"
				}
			],
			"outputs": [
				{
					"name": "",
					"type": "string",
					"internalType": "string"
				}
			],
			"stateMutability": "view"
		},
		{
			"type": "function",
			"name": "totalRedemptionWeight",
			"inputs": [
				{
					"name": "",
					"type": "tuple",
					"internalType": "struct JBBeforeRedeemRecordedContext",
					"components": [
						{
							"name": "terminal",
							"type": "address",
							"internalType": "address"
						},
						{
							"name": "holder",
							"type": "address",
							"internalType": "address"
						},
						{
							"name": "projectId",
							"type": "uint256",
							"internalType": "uint256"
						},
						{
							"name": "rulesetId",
							"type": "uint256",
							"internalType": "uint256"
						},
						{
							"name": "redeemCount",
							"type": "uint256",
							"internalType": "uint256"
						},
						{
							"name": "totalSupply",
							"type": "uint256",
							"internalType": "uint256"
						},
						{
							"name": "surplus",
							"type": "tuple",
							"internalType": "struct JBTokenAmount",
							"components": [
								{
									"name": "token",
									"type": "address",
									"internalType": "address"
								},
								{
									"name": "decimals",
									"type": "uint8",
									"internalType": "uint8"
								},
								{
									"name": "currency",
									"type": "uint32",
									"internalType": "uint32"
								},
								{
									"name": "value",
									"type": "uint256",
									"internalType": "uint256"
								}
							]
						},
						{
							"name": "useTotalSurplus",
							"type": "bool",
							"internalType": "bool"
						},
						{
							"name": "redemptionRate",
							"type": "uint256",
							"internalType": "uint256"
						},
						{
							"name": "metadata",
							"type": "bytes",
							"internalType": "bytes"
						}
					]
				}
			],
			"outputs": [
				{
					"name": "",
					"type": "uint256",
					"internalType": "uint256"
				}
			],
			"stateMutability": "view"
		},
		{
			"type": "function",
			"name": "transferFrom",
			"inputs": [
				{
					"name": "from",
					"type": "address",
					"internalType": "address"
				},
				{
					"name": "to",
					"type": "address",
					"internalType": "address"
				},
				{
					"name": "tokenId",
					"type": "uint256",
					"internalType": "uint256"
				}
			],
			"outputs": [],
			"stateMutability": "nonpayable"
		},
		{
			"type": "function",
			"name": "transferOwnership",
			"inputs": [
				{
					"name": "newOwner",
					"type": "address",
					"internalType": "address"
				}
			],
			"outputs": [],
			"stateMutability": "nonpayable"
		},
		{
			"type": "function",
			"name": "transferOwnershipToProject",
			"inputs": [
				{
					"name": "projectId",
					"type": "uint256",
					"internalType": "uint256"
				}
			],
			"outputs": [],
			"stateMutability": "nonpayable"
		},
		{
			"type": "function",
			"name": "trustedForwarder",
			"inputs": [],
			"outputs": [
				{
					"name": "",
					"type": "address",
					"internalType": "address"
				}
			],
			"stateMutability": "view"
		},
		{
			"type": "event",
			"name": "AddPayCredits",
			"inputs": [
				{
					"name": "amount",
					"type": "uint256",
					"indexed": true,
					"internalType": "uint256"
				},
				{
					"name": "newTotalCredits",
					"type": "uint256",
					"indexed": true,
					"internalType": "uint256"
				},
				{
					"name": "account",
					"type": "address",
					"indexed": true,
					"internalType": "address"
				},
				{
					"name": "caller",
					"type": "address",
					"indexed": false,
					"internalType": "address"
				}
			],
			"anonymous": false
		},
		{
			"type": "event",
			"name": "AddTier",
			"inputs": [
				{
					"name": "tierId",
					"type": "uint256",
					"indexed": true,
					"internalType": "uint256"
				},
				{
					"name": "tier",
					"type": "tuple",
					"indexed": false,
					"internalType": "struct JB721TierConfig",
					"components": [
						{
							"name": "price",
							"type": "uint104",
							"internalType": "uint104"
						},
						{
							"name": "initialSupply",
							"type": "uint32",
							"internalType": "uint32"
						},
						{
							"name": "votingUnits",
							"type": "uint32",
							"internalType": "uint32"
						},
						{
							"name": "reserveFrequency",
							"type": "uint16",
							"internalType": "uint16"
						},
						{
							"name": "reserveBeneficiary",
							"type": "address",
							"internalType": "address"
						},
						{
							"name": "encodedIPFSUri",
							"type": "bytes32",
							"internalType": "bytes32"
						},
						{
							"name": "category",
							"type": "uint24",
							"internalType": "uint24"
						},
						{
							"name": "discountPercent",
							"type": "uint8",
							"internalType": "uint8"
						},
						{
							"name": "allowOwnerMint",
							"type": "bool",
							"internalType": "bool"
						},
						{
							"name": "useReserveBeneficiaryAsDefault",
							"type": "bool",
							"internalType": "bool"
						},
						{
							"name": "transfersPausable",
							"type": "bool",
							"internalType": "bool"
						},
						{
							"name": "useVotingUnits",
							"type": "bool",
							"internalType": "bool"
						},
						{
							"name": "cannotBeRemoved",
							"type": "bool",
							"internalType": "bool"
						},
						{
							"name": "cannotIncreaseDiscountPercent",
							"type": "bool",
							"internalType": "bool"
						}
					]
				},
				{
					"name": "caller",
					"type": "address",
					"indexed": false,
					"internalType": "address"
				}
			],
			"anonymous": false
		},
		{
			"type": "event",
			"name": "Approval",
			"inputs": [
				{
					"name": "owner",
					"type": "address",
					"indexed": true,
					"internalType": "address"
				},
				{
					"name": "approved",
					"type": "address",
					"indexed": true,
					"internalType": "address"
				},
				{
					"name": "tokenId",
					"type": "uint256",
					"indexed": true,
					"internalType": "uint256"
				}
			],
			"anonymous": false
		},
		{
			"type": "event",
			"name": "ApprovalForAll",
			"inputs": [
				{
					"name": "owner",
					"type": "address",
					"indexed": true,
					"internalType": "address"
				},
				{
					"name": "operator",
					"type": "address",
					"indexed": true,
					"internalType": "address"
				},
				{
					"name": "approved",
					"type": "bool",
					"indexed": false,
					"internalType": "bool"
				}
			],
			"anonymous": false
		},
		{
			"type": "event",
			"name": "Mint",
			"inputs": [
				{
					"name": "tokenId",
					"type": "uint256",
					"indexed": true,
					"internalType": "uint256"
				},
				{
					"name": "tierId",
					"type": "uint256",
					"indexed": true,
					"internalType": "uint256"
				},
				{
					"name": "beneficiary",
					"type": "address",
					"indexed": true,
					"internalType": "address"
				},
				{
					"name": "totalAmountPaid",
					"type": "uint256",
					"indexed": false,
					"internalType": "uint256"
				},
				{
					"name": "caller",
					"type": "address",
					"indexed": false,
					"internalType": "address"
				}
			],
			"anonymous": false
		},
		{
			"type": "event",
			"name": "MintReservedNft",
			"inputs": [
				{
					"name": "tokenId",
					"type": "uint256",
					"indexed": true,
					"internalType": "uint256"
				},
				{
					"name": "tierId",
					"type": "uint256",
					"indexed": true,
					"internalType": "uint256"
				},
				{
					"name": "beneficiary",
					"type": "address",
					"indexed": true,
					"internalType": "address"
				},
				{
					"name": "caller",
					"type": "address",
					"indexed": false,
					"internalType": "address"
				}
			],
			"anonymous": false
		},
		{
			"type": "event",
			"name": "OwnershipTransferred",
			"inputs": [
				{
					"name": "previousOwner",
					"type": "address",
					"indexed": true,
					"internalType": "address"
				},
				{
					"name": "newOwner",
					"type": "address",
					"indexed": true,
					"internalType": "address"
				},
				{
					"name": "caller",
					"type": "address",
					"indexed": false,
					"internalType": "address"
				}
			],
			"anonymous": false
		},
		{
			"type": "event",
			"name": "PermissionIdChanged",
			"inputs": [
				{
					"name": "newId",
					"type": "uint8",
					"indexed": false,
					"internalType": "uint8"
				},
				{
					"name": "caller",
					"type": "address",
					"indexed": false,
					"internalType": "address"
				}
			],
			"anonymous": false
		},
		{
			"type": "event",
			"name": "RemoveTier",
			"inputs": [
				{
					"name": "tierId",
					"type": "uint256",
					"indexed": true,
					"internalType": "uint256"
				},
				{
					"name": "caller",
					"type": "address",
					"indexed": false,
					"internalType": "address"
				}
			],
			"anonymous": false
		},
		{
			"type": "event",
			"name": "SetBaseUri",
			"inputs": [
				{
					"name": "baseUri",
					"type": "string",
					"indexed": true,
					"internalType": "string"
				},
				{
					"name": "caller",
					"type": "address",
					"indexed": false,
					"internalType": "address"
				}
			],
			"anonymous": false
		},
		{
			"type": "event",
			"name": "SetContractUri",
			"inputs": [
				{
					"name": "uri",
					"type": "string",
					"indexed": true,
					"internalType": "string"
				},
				{
					"name": "caller",
					"type": "address",
					"indexed": false,
					"internalType": "address"
				}
			],
			"anonymous": false
		},
		{
			"type": "event",
			"name": "SetDiscountPercent",
			"inputs": [
				{
					"name": "tierId",
					"type": "uint256",
					"indexed": true,
					"internalType": "uint256"
				},
				{
					"name": "discountPercent",
					"type": "uint256",
					"indexed": false,
					"internalType": "uint256"
				},
				{
					"name": "caller",
					"type": "address",
					"indexed": false,
					"internalType": "address"
				}
			],
			"anonymous": false
		},
		{
			"type": "event",
			"name": "SetEncodedIPFSUri",
			"inputs": [
				{
					"name": "tierId",
					"type": "uint256",
					"indexed": true,
					"internalType": "uint256"
				},
				{
					"name": "encodedUri",
					"type": "bytes32",
					"indexed": false,
					"internalType": "bytes32"
				},
				{
					"name": "caller",
					"type": "address",
					"indexed": false,
					"internalType": "address"
				}
			],
			"anonymous": false
		},
		{
			"type": "event",
			"name": "SetTokenUriResolver",
			"inputs": [
				{
					"name": "resolver",
					"type": "address",
					"indexed": true,
					"internalType": "contract IJB721TokenUriResolver"
				},
				{
					"name": "caller",
					"type": "address",
					"indexed": false,
					"internalType": "address"
				}
			],
			"anonymous": false
		},
		{
			"type": "event",
			"name": "Transfer",
			"inputs": [
				{
					"name": "from",
					"type": "address",
					"indexed": true,
					"internalType": "address"
				},
				{
					"name": "to",
					"type": "address",
					"indexed": true,
					"internalType": "address"
				},
				{
					"name": "tokenId",
					"type": "uint256",
					"indexed": true,
					"internalType": "uint256"
				}
			],
			"anonymous": false
		},
		{
			"type": "event",
			"name": "UsePayCredits",
			"inputs": [
				{
					"name": "amount",
					"type": "uint256",
					"indexed": true,
					"internalType": "uint256"
				},
				{
					"name": "newTotalCredits",
					"type": "uint256",
					"indexed": true,
					"internalType": "uint256"
				},
				{
					"name": "account",
					"type": "address",
					"indexed": true,
					"internalType": "address"
				},
				{
					"name": "caller",
					"type": "address",
					"indexed": false,
					"internalType": "address"
				}
			],
			"anonymous": false
		},
		{
			"type": "error",
			"name": "ERC721IncorrectOwner",
			"inputs": [
				{
					"name": "sender",
					"type": "address",
					"internalType": "address"
				},
				{
					"name": "tokenId",
					"type": "uint256",
					"internalType": "uint256"
				},
				{
					"name": "owner",
					"type": "address",
					"internalType": "address"
				}
			]
		},
		{
			"type": "error",
			"name": "ERC721InsufficientApproval",
			"inputs": [
				{
					"name": "operator",
					"type": "address",
					"internalType": "address"
				},
				{
					"name": "tokenId",
					"type": "uint256",
					"internalType": "uint256"
				}
			]
		},
		{
			"type": "error",
			"name": "ERC721InvalidApprover",
			"inputs": [
				{
					"name": "approver",
					"type": "address",
					"internalType": "address"
				}
			]
		},
		{
			"type": "error",
			"name": "ERC721InvalidOperator",
			"inputs": [
				{
					"name": "operator",
					"type": "address",
					"internalType": "address"
				}
			]
		},
		{
			"type": "error",
			"name": "ERC721InvalidOwner",
			"inputs": [
				{
					"name": "owner",
					"type": "address",
					"internalType": "address"
				}
			]
		},
		{
			"type": "error",
			"name": "ERC721InvalidReceiver",
			"inputs": [
				{
					"name": "receiver",
					"type": "address",
					"internalType": "address"
				}
			]
		},
		{
			"type": "error",
			"name": "ERC721InvalidSender",
			"inputs": [
				{
					"name": "sender",
					"type": "address",
					"internalType": "address"
				}
			]
		},
		{
			"type": "error",
			"name": "ERC721NonexistentToken",
			"inputs": [
				{
					"name": "tokenId",
					"type": "uint256",
					"internalType": "uint256"
				}
			]
		},
		{
			"type": "error",
			"name": "JB721Hook_InvalidPay",
			"inputs": []
		},
		{
			"type": "error",
			"name": "JB721Hook_InvalidRedeem",
			"inputs": []
		},
		{
			"type": "error",
			"name": "JB721Hook_UnauthorizedToken",
			"inputs": [
				{
					"name": "tokenId",
					"type": "uint256",
					"internalType": "uint256"
				},
				{
					"name": "holder",
					"type": "address",
					"internalType": "address"
				}
			]
		},
		{
			"type": "error",
			"name": "JB721Hook_UnexpectedTokenRedeemed",
			"inputs": []
		},
		{
			"type": "error",
			"name": "JB721TiersHook_AlreadyInitialized",
			"inputs": [
				{
					"name": "projectId",
					"type": "uint256",
					"internalType": "uint256"
				}
			]
		},
		{
			"type": "error",
			"name": "JB721TiersHook_MintReserveNftsPaused",
			"inputs": []
		},
		{
			"type": "error",
			"name": "JB721TiersHook_NoProjectId",
			"inputs": []
		},
		{
			"type": "error",
			"name": "JB721TiersHook_Overspending",
			"inputs": [
				{
					"name": "leftoverAmount",
					"type": "uint256",
					"internalType": "uint256"
				}
			]
		},
		{
			"type": "error",
			"name": "JB721TiersHook_TierTransfersPaused",
			"inputs": []
		},
		{
			"type": "error",
			"name": "JBOwnableOverrides_InvalidNewOwner",
			"inputs": []
		},
		{
			"type": "error",
			"name": "JBPermissioned_Unauthorized",
			"inputs": [
				{
					"name": "account",
					"type": "address",
					"internalType": "address"
				},
				{
					"name": "sender",
					"type": "address",
					"internalType": "address"
				},
				{
					"name": "projectId",
					"type": "uint256",
					"internalType": "uint256"
				},
				{
					"name": "permissionId",
					"type": "uint256",
					"internalType": "uint256"
				}
			]
		},
		{
			"type": "error",
			"name": "PRBMath_MulDiv_Overflow",
			"inputs": [
				{
					"name": "x",
					"type": "uint256",
					"internalType": "uint256"
				},
				{
					"name": "y",
					"type": "uint256",
					"internalType": "uint256"
				},
				{
					"name": "denominator",
					"type": "uint256",
					"internalType": "uint256"
				}
			]
		}
	],
	"solcInputHash": "30cd0d125ed0677fcbbeafa2ca950580",
	"args": [
		"0xE0B2860344bA476e12eD1d559656dA9D04F1AD22",
		"0x4CDb4200e4E65a277676Cd5E8d3c7C7C4dA7fBe5",
		"0x8De478a6071AD66Bf99c770AEA0cEdcDDDa72F43",
		"0x7b1F4Ba6312A104E645B06Ab97e4CaA1ef0F773f",
		"0xB2b5841DBeF766d4b521221732F9B618fCf34A87"
	],
	"bytecode": "0x6101606040523480156200001257600080fd5b50604051620063b4380380620063b483398101604081905262000035916200039d565b848185876001600160a01b031663293c49996040518163ffffffff1660e01b8152600401602060405180830381865afa15801562000077573d6000803e3d6000fd5b505050506040513d601f19601f820116820180604052508101906200009d91906200041d565b6001600160a01b03828116608052811660a0523360008383838381620000d65760405163f854950960e01b815260040160405180910390fd5b620000e2828262000119565b5050506001600160a01b0395861660c0525050505091811660e0523061010052938416610120525050166101405250620004449050565b6001600160581b038116158015906200013a57506001600160a01b03821615155b15620001595760405163f854950960e01b815260040160405180910390fd5b60408051606081018252600080546001600160a01b0381168352600160a01b81046001600160581b031660208401819052600160f81b90910460ff1693830193909352909115620002285760a05160208301516040516331a9108f60e11b81526001600160581b0390911660048201526001600160a01b0390911690636352211e90602401602060405180830381865afa158015620001fc573d6000803e3d6000fd5b505050506040513d601f19601f820116820180604052508101906200022291906200041d565b6200022b565b81515b604080516060810182526001600160a01b0387168082526001600160581b0387166020830181905260009290930182905281547fff000000000000000000000000000000000000000000000000000000000000001617600160a01b909202919091176001600160f81b031690559050620002a7818585620002ad565b50505050565b6001600160581b038116156200033b5760a0516040516331a9108f60e11b81526001600160581b03831660048201526001600160a01b0390911690636352211e90602401602060405180830381865afa1580156200030f573d6000803e3d6000fd5b505050506040513d601f19601f820116820180604052508101906200033591906200041d565b6200033d565b815b6040513381526001600160a01b03918216918516907fc8894f26f396ce8c004245c8b7cd1b92103a6e4302fcbab883987149ac01b7ec9060200160405180910390a3505050565b6001600160a01b03811681146200039a57600080fd5b50565b600080600080600060a08688031215620003b657600080fd5b8551620003c38162000384565b6020870151909550620003d68162000384565b6040870151909450620003e98162000384565b6060870151909350620003fc8162000384565b60808701519092506200040f8162000384565b809150509295509295909350565b6000602082840312156200043057600080fd5b81516200043d8162000384565b9392505050565b60805160a05160c05160e051610100516101205161014051615e2e620005866000396000818161054b01528181610de7015281816111b3015281816113380152818161141c01528181611545015281816115e7015281816117190152818161191e01528181611c0801528181611d9e01528181611fba0152818161213e015281816121c9015281816125c901528181612a8e01528181612cdf01528181612d4401528181612ec001528181612f8c015261391b0152600081816109580152613060015260008181610a1701528181610f4501528181611e69015261266b01526000818161070f01528181610bb10152610e7d0152600081816105c0015281816106d901526136ab0152600081816104a901528181611a7f015281816131a1015281816132e30152613c03015260008181610a6b01526129750152615e2e6000f3fe6080604052600436106103135760003560e01c8063715018a61161019a578063c87b56dd116100e1578063d95c9ae21161008a578063edab09b911610064578063edab09b914610a05578063f2fde38b14610a39578063f434c91414610a5957600080fd5b8063d95c9ae21461097a578063e8a3d485146109a7578063e985e9c5146109bc57600080fd5b8063cf7f4936116100bb578063cf7f493614610906578063d102134c14610926578063d4a1b4b11461094657600080fd5b8063c87b56dd14610896578063cd817cd0146108b6578063cdf7b165146108e657600080fd5b80639c2c6a0211610143578063b88d4fde1161011d578063b88d4fde146107e9578063ba23c36e14610809578063c0fb5e851461087657600080fd5b80639c2c6a0214610789578063a220d696146107a9578063a22cb465146107c957600080fd5b80638cc35846116101745780638cc35846146107315780638da5cb5b1461075f57806395d89b411461077457600080fd5b8063715018a6146106b55780637da0a877146106ca57806388bc2ef3146106fd57600080fd5b806342d3d0331161025e578063613b856d116102075780636ac6d941116101e15780636ac6d941146106535780636c0360eb1461068057806370a082311461069557600080fd5b8063613b856d146105f05780636352211e14610610578063677ce0881461063057600080fd5b806354c6d1f51161023857806354c6d1f51461056d57806356539f391461058d578063572b6c05146105a357600080fd5b806342d3d033146104eb578063462e3af814610519578063507f14651461053957600080fd5b80631435aad5116102c05780632483d6b51161029a5780632483d6b514610477578063293c49991461049757806342842e0e146104cb57600080fd5b80631435aad5146104245780631727f0391461044457806323b872dd1461045757600080fd5b806308786b1a116102f157806308786b1a146103a7578063095ea7b3146103ef5780631337f9861461041157600080fd5b806301ffc9a71461031857806306fdde031461034d578063081812fc1461036f575b600080fd5b34801561032457600080fd5b50610338610333366004614179565b610a8d565b60405190151581526020015b60405180910390f35b34801561035957600080fd5b50610362610ab8565b60405161034491906141e6565b34801561037b57600080fd5b5061038f61038a3660046141f9565b610b4a565b6040516001600160a01b039091168152602001610344565b3480156103b357600080fd5b50600c5463ffffffff811690602081901c60ff169060281c6040805193845260208401929092526001600160a01b031690820152606001610344565b3480156103fb57600080fd5b5061040f61040a366004614237565b610b73565b005b61040f61041f36600461427c565b610b89565b34801561043057600080fd5b5061040f61043f3660046142f3565b610c5c565b61040f61045236600461427c565b610e55565b34801561046357600080fd5b5061040f610472366004614389565b6110ca565b34801561048357600080fd5b5061040f6104923660046143ca565b61115c565b3480156104a357600080fd5b5061038f7f000000000000000000000000000000000000000000000000000000000000000081565b3480156104d757600080fd5b5061040f6104e6366004614389565b61117b565b3480156104f757600080fd5b5061050b6105063660046143ff565b61119b565b604051908152602001610344565b34801561052557600080fd5b5061040f61053436600461488f565b611227565b34801561054557600080fd5b5061038f7f000000000000000000000000000000000000000000000000000000000000000081565b34801561057957600080fd5b5061038f6105883660046141f9565b611497565b34801561059957600080fd5b5061050b60075481565b3480156105af57600080fd5b506103386105be36600461498d565b7f00000000000000000000000000000000000000000000000000000000000000006001600160a01b0390811691161490565b3480156105fc57600080fd5b5061040f61060b3660046143ca565b6114db565b34801561061c57600080fd5b5061038f61062b3660046141f9565b6116e0565b34801561063c57600080fd5b5061033861064b3660046149aa565b600092915050565b34801561065f57600080fd5b5061067361066e366004614a1f565b6116eb565b6040516103449190614ab2565b34801561068c57600080fd5b50610362611868565b3480156106a157600080fd5b5061050b6106b036600461498d565b6118f6565b3480156106c157600080fd5b5061040f61194f565b3480156106d657600080fd5b507f000000000000000000000000000000000000000000000000000000000000000061038f565b34801561070957600080fd5b5061038f7f000000000000000000000000000000000000000000000000000000000000000081565b34801561073d57600080fd5b5061075161074c366004614ac5565b611964565b604051610344929190614b01565b34801561076b57600080fd5b5061038f611a0b565b34801561078057600080fd5b50610362611af8565b34801561079557600080fd5b5061040f6107a4366004614bd7565b611b07565b3480156107b557600080fd5b5061040f6107c43660046141f9565b611b64565b3480156107d557600080fd5b5061040f6107e4366004614c19565b611bab565b3480156107f557600080fd5b5061040f610804366004614c47565b611bbd565b34801561081557600080fd5b50600054610846906001600160a01b03811690600160a01b81046001600160581b031690600160f81b900460ff1683565b604080516001600160a01b0390941684526001600160581b03909216602084015260ff1690820152606001610344565b34801561088257600080fd5b5061040f610891366004614cc7565b611bd4565b3480156108a257600080fd5b506103626108b13660046141f9565b611be5565b3480156108c257600080fd5b506108d66108d13660046143ff565b611e1a565b6040516103449493929190614ce4565b3480156108f257600080fd5b5061050b610901366004614d84565b611fa0565b34801561091257600080fd5b5061040f610921366004614bd7565b612032565b34801561093257600080fd5b5061040f610941366004614e3d565b61209a565b34801561095257600080fd5b5061038f7f000000000000000000000000000000000000000000000000000000000000000081565b34801561098657600080fd5b5061050b61099536600461498d565b600a6020526000908152604090205481565b3480156109b357600080fd5b506103626122d8565b3480156109c857600080fd5b506103386109d7366004614ed8565b6001600160a01b03918216600090815260066020908152604080832093909416825291909152205460ff1690565b348015610a1157600080fd5b5061038f7f000000000000000000000000000000000000000000000000000000000000000081565b348015610a4557600080fd5b5061040f610a5436600461498d565b6122e5565b348015610a6557600080fd5b5061038f7f000000000000000000000000000000000000000000000000000000000000000081565b60006001600160e01b03198216637aa81e7b60e01b1480610ab25750610ab28261231f565b92915050565b606060018054610ac790614f06565b80601f0160208091040260200160405190810160405280929190818152602001828054610af390614f06565b8015610b405780601f10610b1557610100808354040283529160200191610b40565b820191906000526020600020905b815481529060010190602001808311610b2357829003601f168201915b5050505050905090565b6000610b55826123b0565b506000828152600560205260409020546001600160a01b0316610ab2565b610b858282610b806123e9565b6123f8565b5050565b60075434151580610c265750604051636e49181f60e01b8152600481018290523360248201527f00000000000000000000000000000000000000000000000000000000000000006001600160a01b031690636e49181f90604401602060405180830381865afa158015610c00573d6000803e3d6000fd5b505050506040513d601f19601f82011682018060405250810190610c249190614f45565b155b80610c35575080826020013514155b15610c5357604051633fb648ad60e11b815260040160405180910390fd5b610b8582612405565b610c71610c67611a0b565b6007546015612909565b8515610ce2576008610c84878983614faa565b508686604051610c9592919061506a565b60405180910390207f7bc9110d5de090dd59e07912d2b93a5a27ac70a60c8d8e324db4f9ee8b8b5c13610cc66123e9565b6040516001600160a01b03909116815260200160405180910390a25b8315610d53576009610cf5858783614faa565b508484604051610d0692919061506a565b60405180910390207fd36dc0c1a06103fdcaf15f3f6fb797d1a97997514c78de073640c8b5005454b8610d376123e9565b6040516001600160a01b03909116815260200160405180910390a25b6001600160a01b0383163014610d6c57610d6c83612a21565b8115801590610d7a57508015155b15610e4c57817f677da4fed654db8e604791fa2582f342e2001aa217e27f6985eb3e0f67e5a7fc82610daa6123e9565b604080519283526001600160a01b0390911660208301520160405180910390a26040516324de8d6360e11b815260048101839052602481018290527f00000000000000000000000000000000000000000000000000000000000000006001600160a01b0316906349bd1ac690604401600060405180830381600087803b158015610e3357600080fd5b505af1158015610e47573d6000803e3d6000fd5b505050505b50505050505050565b60075434151580610ef25750604051636e49181f60e01b8152600481018290523360248201527f00000000000000000000000000000000000000000000000000000000000000006001600160a01b031690636e49181f90604401602060405180830381865afa158015610ecc573d6000803e3d6000fd5b505050506040513d601f19601f82011682018060405250810190610ef09190614f45565b155b80610f01575080826020013514155b15610f1f576040516308bb4a5360e01b815260040160405180910390fd5b60408051808201909152600681526572656465656d60d01b602090910152600080610fd17f000000000000000000000000000000000000000000000000000000000000000060601b7f26ef0a97332ad048ac544d8dfacdd43e128b9816d599fdd0310960904fa1860918610f976101e087018761507a565b8080601f016020809104026020016040519081016040528093929190818152602001838380828437600092019190915250612ae792505050565b9150915060608215610ff45781806020019051810190610ff1919061512b565b90505b805160005b818110156110b857600083828151811061101557611015615160565b60200260200101519050876000016020810190611032919061498d565b6001600160a01b031661105a826000908152600360205260409020546001600160a01b031690565b6001600160a01b0316146110a6578061107660208a018a61498d565b604051630694678560e21b815260048101929092526001600160a01b031660248201526044015b60405180910390fd5b6110af81612c8d565b50600101610ff9565b506110c282612cc8565b505050505050565b6001600160a01b0382166110f457604051633250574960e11b81526000600482015260240161109d565b600061110883836111036123e9565b612d14565b9050836001600160a01b0316816001600160a01b031614611156576040516364283d7b60e01b81526001600160a01b038086166004830152602482018490528216604482015260640161109d565b50505050565b611171611167611a0b565b6007546017612909565b610b858282612f24565b61119683838360405180602001604052806000815250611bbd565b505050565b604051631572f24960e11b81523060048201526000907f00000000000000000000000000000000000000000000000000000000000000006001600160a01b031690632ae5e492906024015b602060405180830381865afa158015611203573d6000803e3d6000fd5b505050506040513d601f19601f82011682018060405250810190610ab29190615176565b6007541561124e57600754604051639889eb1160e01b815260040161109d91815260200190565b8760000361126f57604051630ea59fc560e21b815260040160405180910390fd5b61127a888888612fec565b6020808301516040840151606085015178ffffffffffffffffffffffffffffffffffffffff000000000060289190911b1664ff000000009190931b1663ffffffff9091161717600c8190558551156112da5760086112d8878261518f565b505b8351156112ef5760096112ed858261518f565b505b6112ff6112fa6123e9565b612314565b6001600160a01b038516156113175761131785612a21565b825151156113b5578251604051631f1d05ad60e01b81526001600160a01b037f00000000000000000000000000000000000000000000000000000000000000001691631f1d05ad9161136c919060040161524f565b6000604051808303816000875af115801561138b573d6000803e3d6000fd5b505050506040513d6000823e601f3d908101601f191682016040526113b3919081019061512b565b505b8151806113c3575081602001515b806113cf575081604001515b806113db575081606001515b1561148157604080516365c13f1960e11b815283511515600482015260208401511515602482015290830151151560448201526060830151151560648201527f00000000000000000000000000000000000000000000000000000000000000006001600160a01b03169063cb827e3290608401600060405180830381600087803b15801561146857600080fd5b505af115801561147c573d6000803e3d6000fd5b505050505b61148c6112fa6123e9565b505050505050505050565b6000818152600b60205260408120546001600160a01b031680156114bb5792915050565b6000838152600360205260409020546001600160a01b03165b9392505050565b60006114e8600754612ffd565b90506115076114fc82610100015160f31c90565b600190811c81161490565b156115255760405163b1f1d8cf60e01b815260040160405180910390fd5b604051635d53f40760e11b815260048101849052602481018390526000907f00000000000000000000000000000000000000000000000000000000000000006001600160a01b03169063baa7e80e906044016000604051808303816000875af1158015611596573d6000803e3d6000fd5b505050506040513d6000823e601f3d908101601f191682016040526115be919081019061512b565b60405162d5cc0160e21b8152306004820152602481018690529091506000906001600160a01b037f00000000000000000000000000000000000000000000000000000000000000001690630357300490604401602060405180830381865afa15801561162e573d6000803e3d6000fd5b505050506040513d601f19601f820116820180604052508101906116529190615362565b905060005b848110156110c257600083828151811061167357611673615160565b60200260200101519050826001600160a01b031687827f80dd2efbbc431cde0164d84d638e44ba6e7a3ca5d532ceef1bb4efcc0948325d6116b26123e9565b6040516001600160a01b03909116815260200160405180910390a46116d783826130cc565b50600101611657565b6000610ab2826123b0565b60606117026116f8611a0b565b6007546016612909565b60405163eaa19ab360e01b81526001600160a01b037f0000000000000000000000000000000000000000000000000000000000000000169063eaa19ab39061175790600019908890889060019060040161537f565b6000604051808303816000875af1158015611776573d6000803e3d6000fd5b505050506040513d6000823e601f3d908101601f1916820160405261179e91908101906153de565b5090508260005b8181101561185f5760008382815181106117c1576117c1615160565b602002602001015190506117d585826130cc565b846001600160a01b03168787848181106117f1576117f1615160565b90506020020160208101906118069190615425565b61ffff16827f598baf7bf150ca2f42be9e9f8f55e81d45f5715c3ff22bf46d697fabec7f31d660006118366123e9565b604080519283526001600160a01b0390911660208301520160405180910390a4506001016117a5565b50509392505050565b6008805461187590614f06565b80601f01602080910402602001604051908101604052809291908181526020018280546118a190614f06565b80156118ee5780601f106118c3576101008083540402835291602001916118ee565b820191906000526020600020905b8154815290600101906020018083116118d157829003601f168201915b505050505081565b604051633de222bb60e21b81523060048201526001600160a01b0382811660248301526000917f00000000000000000000000000000000000000000000000000000000000000009091169063f7888aec906044016111e6565b611957613131565b611962600080613237565b565b6040805160018082528183019092526101208301359160609190816020015b604080516060808201835260008083526020830152918101919091528152602001906001900390816119835790505090506040518060600160405280306001600160a01b031681526020016000815260200160405180602001604052806000815250815250816000815181106119fb576119fb615160565b6020026020010181905250915091565b60408051606081018252600080546001600160a01b0381168352600160a01b81046001600160581b031660208401819052600160f81b90910460ff1693830193909352918203611a5b5751919050565b60208101516040516331a9108f60e11b81526001600160581b0390911660048201527f00000000000000000000000000000000000000000000000000000000000000006001600160a01b031690636352211e90602401602060405180830381865afa158015611ace573d6000803e3d6000fd5b505050506040513d601f19601f82011682018060405250810190611af29190615362565b91505090565b606060028054610ac790614f06565b8060005b81811015611156576000848483818110611b2757611b27615160565b905060400201803603810190611b3d91906154a5565b9050611b5b816000015163ffffffff16826020015161ffff166114db565b50600101611b0b565b611b6c613131565b801580611b7f57506001600160581b0381115b15611b9d5760405163f854950960e01b815260040160405180910390fd5b611ba8600082613237565b50565b610b85611bb66123e9565b83836133c0565b611bc88484846110ca565b61115684848484613460565b611bdc613131565b611ba881613589565b604051630fab094760e01b81523060048201526060906000906001600160a01b037f00000000000000000000000000000000000000000000000000000000000000001690630fab094790602401602060405180830381865afa158015611c4f573d6000803e3d6000fd5b505050506040513d601f19601f82011682018060405250810190611c739190615362565b90506001600160a01b03811615611cf757604051635e703e7160e01b8152306004820152602481018490526001600160a01b03821690635e703e7190604401600060405180830381865afa158015611ccf573d6000803e3d6000fd5b505050506040513d6000823e601f3d908101601f191682016040526114d49190810190615506565b6114d460088054611d0790614f06565b80601f0160208091040260200160405190810160405280929190818152602001828054611d3390614f06565b8015611d805780601f10611d5557610100808354040283529160200191611d80565b820191906000526020600020905b815481529060010190602001808311611d6357829003601f168201915b5050604051630c8df17160e41b8152306004820152602481018990527f00000000000000000000000000000000000000000000000000000000000000006001600160a01b0316935063c8df171092506044019050602060405180830381865afa158015611df1573d6000803e3d6000fd5b505050506040513d601f19601f82011682018060405250810190611e159190615176565b6135e4565b600080806060608085013515611e435760405163be14dfc160e01b815260040160405180910390fd5b60408051808201909152600681526572656465656d60d01b602090910152600080611ebb7f000000000000000000000000000000000000000000000000000000000000000060601b7f26ef0a97332ad048ac544d8dfacdd43e128b9816d599fdd0310960904fa1860918610f976101808a018a61507a565b604080516001808252818301909252929450909250816020015b60408051606080820183526000808352602083015291810191909152815260200190600190039081611ed55790505092506040518060600160405280306001600160a01b03168152602001600081526020016040518060200160405280600081525081525083600081518110611f4d57611f4d615160565b602002602001018190525060608215611f775781806020019051810190611f74919061512b565b90505b611f818189611fa0565b9550611f8c8861119b565b945087610160013596505050509193509193565b60405163051330b560e21b81526000906001600160a01b037f0000000000000000000000000000000000000000000000000000000000000000169063144cc2d490611ff1903090879060040161553b565b602060405180830381865afa15801561200e573d6000803e3d6000fd5b505050506040513d601f19601f820116820180604052508101906114d49190615176565b61203d611167611a0b565b8060005b8181101561115657600084848381811061205d5761205d615160565b90506040020180360381019061207391906154a5565b9050612091816000015163ffffffff16826020015161ffff16612f24565b50600101612041565b6120af6120a5611a0b565b6007546014612909565b8080156121a85760005b81811015612126578383828181106120d3576120d3615160565b905060200201357f832d89d991be5351d793c20faf4b7dd44f8aa9ce39e3cb160c6317de6fbba7296121036123e9565b6040516001600160a01b03909116815260200160405180910390a26001016120b9565b506040516320512ba160e01b81526001600160a01b037f000000000000000000000000000000000000000000000000000000000000000016906320512ba190612175908690869060040161555d565b600060405180830381600087803b15801561218f57600080fd5b505af11580156121a3573d6000803e3d6000fd5b505050505b8380156110c257604051631f1d05ad60e01b81526000906001600160a01b037f00000000000000000000000000000000000000000000000000000000000000001690631f1d05ad90612200908a908a906004016156de565b6000604051808303816000875af115801561221f573d6000803e3d6000fd5b505050506040513d6000823e601f3d908101601f19168201604052612247919081019061512b565b905060005b828110156122ce5781818151811061226657612266615160565b60200260200101517fcbda9c610cbf8b0b9941c465b20ff7e1fae572086b70ef65fa3d5e4bf3d0deaa8989848181106122a1576122a1615160565b90506101c002016122b06123e9565b6040516122be929190615721565b60405180910390a260010161224c565b5050505050505050565b6009805461187590614f06565b6122ed613131565b6001600160a01b0381166123145760405163f854950960e01b815260040160405180910390fd5b611ba8816000613237565b60006001600160e01b03198216633344b87360e01b148061235057506001600160e01b0319821663131f620f60e11b145b8061236b57506001600160e01b0319821663099bfcc360e11b145b8061238657506001600160e01b03198216631727f03960e01b145b806123a157506001600160e01b0319821663152a902d60e11b145b80610ab25750610ab28261364b565b6000818152600360205260408120546001600160a01b031680610ab257604051637e27328960e01b81526004810184905260240161109d565b60006123f361369b565b905090565b6111968383836001613710565b600c5460009063ffffffff81168061242360c0860160a08701615747565b63ffffffff160361243a5760c08401359250612535565b602882901c6001600160a01b0381161561252c5760ff602084901c1661252460c087013561246983600a61585e565b6007546001600160a01b03861690633be273fa9061248d60c08d0160a08e01615747565b898d60600160200160208101906124a49190614cc7565b6040516001600160e01b031960e087901b168152600481019490945263ffffffff929092166024840152604483015260ff166064820152608401602060405180830381865afa1580156124fb573d6000803e3d6000fd5b505050506040513d601f19601f8201168201806040525081019061251f9190615176565b613842565b945050612533565b5050505050565b505b5060009050600a8161254f6101c086016101a0870161498d565b6001600160a01b031681526020810191909152604001600090812054915082906125816101c086016101a0870161498d565b6001600160a01b0316612597602087018761498d565b6001600160a01b0316036125ae57908201906125b1565b50815b604051634228826f60e11b81523060048201526000907f00000000000000000000000000000000000000000000000000000000000000006001600160a01b03169063845104de90602401608060405180830381865afa158015612618573d6000803e3d6000fd5b505050506040513d601f19601f8201168201806040525081019061263c919061586a565b60609081015160408051808201909152600381526270617960e81b60209091015215915060009081906126bc907f0000000000000000000000000000000000000000000000000000000000000000901b7fadc756803e4eb4ccfb136b73d5f72e3dc0d452d30ae1f4bc82af394c73ce711518610f976101e08b018b61507a565b9150915081156127205760606000828060200190518101906126de91906158dc565b925090508480156126ed575080155b156126f757600094505b81511561271d5761271a87836127156101c08e016101a08f0161498d565b613915565b96505b50505b841561285d57826127475760405163215ccc4760e11b81526004810186905260240161109d565b848401868111156127ba576127646101c08a016101a08b0161498d565b6001600160a01b0316818883037f7e71a5f6c04b0eb16949316623b9dda7bd103692f7d89678e2260afa1378a2d561279a6123e9565b6040516001600160a01b03909116815260200160405180910390a4612826565b80871115612826576127d46101c08a016101a08b0161498d565b6001600160a01b0316818289037f6276f0169fb8de712b2a6c02789f6115136c589ed491ac06f9e20f41877e41fe61280a6123e9565b6040516001600160a01b03909116815260200160405180910390a45b80600a600061283d6101c08d016101a08e0161498d565b6001600160a01b03168152602081019190915260400160002055506122ce565b8386146122ce576128766101c089016101a08a0161498d565b6001600160a01b03168461288a818961598d565b7f6276f0169fb8de712b2a6c02789f6115136c589ed491ac06f9e20f41877e41fe6128b36123e9565b6040516001600160a01b03909116815260200160405180910390a483600a60006128e56101c08c016101a08d0161498d565b6001600160a01b031681526020810191909152604001600020555050505050505050565b60006129136123e9565b9050836001600160a01b0316816001600160a01b0316141580156129e25750604051631a45b42760e11b81526001600160a01b0382811660048301528581166024830152604482018590526064820184905260016084830181905260a48301527f0000000000000000000000000000000000000000000000000000000000000000169063348b684e9060c401602060405180830381865afa1580156129bc573d6000803e3d6000fd5b505050506040513d601f19601f820116820180604052508101906129e09190614f45565b155b1561115657604051631326f75560e11b81526001600160a01b03808616600483015282166024820152604481018490526064810183905260840161109d565b806001600160a01b03167fe7784d93cfbfa4408e19577e6cc0436f4dbb51214b70e100905dfce9def88c16612a546123e9565b6040516001600160a01b03909116815260200160405180910390a260405163036129cb60e61b81526001600160a01b0382811660048301527f0000000000000000000000000000000000000000000000000000000000000000169063d84a72c0906024015b600060405180830381600087803b158015612ad357600080fd5b505af115801561252c573d6000803e3d6000fd5b600060606025835111612b0c5750506040805160208101909152600080825290612c86565b600083612b1b600460206159a0565b81518110612b2b57612b2b615160565b0160209081015160f81c91505b600085612b466004846159a0565b81518110612b5657612b56615160565b01602001516001600160f81b03191614801590612b7c5750612b796020836159b3565b81105b15612c8357600085612b8f6004846159a0565b81518110612b9f57612b9f615160565b016020908101518784019091015160f89190911c91506001600160e01b031980891690821603612c79576000612bd66020866159b3565b612be16009866159a0565b101580612c16575087612bf56009866159a0565b81518110612c0557612c05615160565b01602001516001600160f81b031916155b612c4f57602088612c286009876159a0565b81518110612c3857612c38615160565b0160200151612c4a919060f81c6159b3565b612c52565b87515b90506001612c6b89612c656020876159b3565b84613a71565b965096505050505050612c86565b5050600501612b38565b50505b9250929050565b6000612c9c6000836000612d14565b90506001600160a01b038116610b8557604051637e27328960e01b81526004810183905260240161109d565b6040516386bc2be360e01b81526001600160a01b037f000000000000000000000000000000000000000000000000000000000000000016906386bc2be390612ab9908490600401614ab2565b60405163c44a8e6d60e01b8152306004820152602481018390526000604482018190529081906001600160a01b037f0000000000000000000000000000000000000000000000000000000000000000169063c44a8e6d90606401600060405180830381865afa158015612d8b573d6000803e3d6000fd5b505050506040513d6000823e601f3d908101601f19168201604052612db391908101906159f6565b9050612dc0858585613ab7565b91506001600160a01b03821615612e8a5780610160015115612e39576000612de9600754612ffd565b90506001600160a01b03861615801590612e195750612e19612e1082610100015160f31c90565b60019081161490565b15612e37576040516330225eab60e11b815260040160405180910390fd5b505b6000848152600b60205260409020546001600160a01b0316612e8a576000848152600b60205260409020805473ffffffffffffffffffffffffffffffffffffffff19166001600160a01b0384161790555b80516040516330b157e560e21b815263ffffffff90911660048201526001600160a01b03838116602483015286811660448301527f0000000000000000000000000000000000000000000000000000000000000000169063c2c55f9490606401600060405180830381600087803b158015612f0457600080fd5b505af1158015612f18573d6000803e3d6000fd5b50505050509392505050565b817f8ebf585439d8c6edc7dfa9c0e01fdbb1d4e68d9969dc5341ebd8bca5cd9a7bd482612f4f6123e9565b604080519283526001600160a01b0390911660208301520160405180910390a260405163284d148160e11b815260048101839052602481018290527f00000000000000000000000000000000000000000000000000000000000000006001600160a01b03169063509a290290604401600060405180830381600087803b158015612fd857600080fd5b505af11580156110c2573d6000803e3d6000fd5b612ff68282613bbd565b5050600755565b6040805161012081018252600080825260208201819052818301819052606082018190526080820181905260a0820181905260c0820181905260e0820181905261010082015290516321d1336160e11b8152600481018390526001600160a01b037f000000000000000000000000000000000000000000000000000000000000000016906343a266c29060240161012060405180830381865afa1580156130a8573d6000803e3d6000fd5b505050506040513d601f19601f82011682018060405250810190610ab29190615b89565b6001600160a01b0382166130f657604051633250574960e11b81526000600482015260240161109d565b600061310483836000612d14565b90506001600160a01b03811615611196576040516339e3563760e11b81526000600482015260240161109d565b604080516060810182526000546001600160a01b0381168252600160a01b81046001600160581b031660208301819052600160f81b90910460ff169282019290925290611ba890156132195760208201516040516331a9108f60e11b81526001600160581b0390911660048201527f00000000000000000000000000000000000000000000000000000000000000006001600160a01b031690636352211e90602401602060405180830381865afa1580156131f0573d6000803e3d6000fd5b505050506040513d601f19601f820116820180604052508101906132149190615362565b61321c565b81515b82602001516001600160581b0316836040015160ff16612909565b6001600160581b0381161580159061325757506001600160a01b03821615155b156132755760405163f854950960e01b815260040160405180910390fd5b60408051606081018252600080546001600160a01b0381168352600160a01b81046001600160581b031660208401819052600160f81b90910460ff169383019390935290911561335b5760208201516040516331a9108f60e11b81526001600160581b0390911660048201527f00000000000000000000000000000000000000000000000000000000000000006001600160a01b031690636352211e90602401602060405180830381865afa158015613332573d6000803e3d6000fd5b505050506040513d601f19601f820116820180604052508101906133569190615362565b61335e565b81515b604080516060810182526001600160a01b0387168082526001600160581b0387166020830181905260009290930182905281546001600160f81b03191617600160a01b909202919091176001600160f81b031690559050611156818585613bd6565b6001600160a01b0382166133f257604051630b61174360e31b81526001600160a01b038316600482015260240161109d565b6001600160a01b03838116600081815260066020908152604080832094871680845294825291829020805460ff191686151590811790915591519182527f17307eab39ab6107e8899845ad3d59bd9653f200f220920489ca2b5937696c3191015b60405180910390a3505050565b6001600160a01b0383163b1561115657826001600160a01b031663150b7a026134876123e9565b8685856040518563ffffffff1660e01b81526004016134a99493929190615c3a565b6020604051808303816000875af19250505080156134e4575060408051601f3d908101601f191682019092526134e191810190615c76565b60015b61354d573d808015613512576040519150601f19603f3d011682016040523d82523d6000602084013e613517565b606091505b50805160000361354557604051633250574960e11b81526001600160a01b038516600482015260240161109d565b805181602001fd5b6001600160e01b03198116630a85bd0160e11b1461252c57604051633250574960e11b81526001600160a01b038516600482015260240161109d565b600080546001600160f81b0316600160f81b60ff841690810291909117909155604080519182523360208301527f3a02c735461e3ddd7b1f6ccb1620101cec0d5c7ef32a2eb50b1b02a4191d8207910160405180910390a150565b604051609160f51b6020820152602281018290526060906000906042016040516020818303038152906040529050600061361d82613cbc565b90508481604051602001613632929190615c93565b6040516020818303038152906040529250505092915050565b60006001600160e01b031982166380ac58cd60e01b148061367c57506001600160e01b03198216635b5e139f60e01b145b80610ab257506301ffc9a760e01b6001600160e01b0319831614610ab2565b6000366014336001600160a01b037f0000000000000000000000000000000000000000000000000000000000000000161480156136d85750808210155b15613708576000366136ea838561598d565b6136f5928290615cc2565b6136fe91615cec565b60601c9250505090565b339250505090565b808061372457506001600160a01b03821615155b15613805576000613734846123b0565b90506001600160a01b038316158015906137605750826001600160a01b0316816001600160a01b031614155b801561379257506001600160a01b0380821660009081526006602090815260408083209387168352929052205460ff16155b156137bb5760405163a9fbf51f60e01b81526001600160a01b038416600482015260240161109d565b81156138035783856001600160a01b0316826001600160a01b03167f8c5be1e5ebec7d5bd14f71427d1e84f3dd0314c0f7b2291e5b200ac8c7c3b92560405160405180910390a45b505b50506000908152600560205260409020805473ffffffffffffffffffffffffffffffffffffffff19166001600160a01b0392909216919091179055565b600080806000198587098587029250828110838203039150508060000361387c5783828161387257613872615d21565b04925050506114d4565b8381106138ad57604051630c740aef60e31b815260048101879052602481018690526044810185905260640161109d565b600084868809600260036001881981018916988990049182028318808302840302808302840302808302840302808302840302808302840302918202909203026000889003889004909101858311909403939093029303949094049190911702949350505050565b600060607f00000000000000000000000000000000000000000000000000000000000000006001600160a01b031663eaa19ab3868660006040518463ffffffff1660e01b815260040161396a93929190615d37565b6000604051808303816000875af1158015613989573d6000803e3d6000fd5b505050506040513d6000823e601f3d908101601f191682016040526139b191908101906153de565b81519093509091506000805b82811015613a66578381815181106139d7576139d7615160565b60200260200101519150856001600160a01b03168782815181106139fd576139fd615160565b602002602001015161ffff16837f598baf7bf150ca2f42be9e9f8f55e81d45f5715c3ff22bf46d697fabec7f31d68b613a346123e9565b604080519283526001600160a01b0390911660208301520160405180910390a4613a5e86836130cc565b6001016139bd565b505050509392505050565b60608282036040519150602081830101604052808252508260208501016020820160005b84811015613aad578281015182820152602001613a95565b5050509392505050565b6000828152600360205260408120546001600160a01b0390811690831615613ae457613ae4818486613e54565b6001600160a01b03811615613b2257613b01600085600080613710565b6001600160a01b038116600090815260046020526040902080546000190190555b6001600160a01b03851615613b51576001600160a01b0385166000908152600460205260409020805460010190555b600084815260036020526040808220805473ffffffffffffffffffffffffffffffffffffffff19166001600160a01b0389811691821790925591518793918516917fddf252ad1be2c89b69c2b068fc378daa952ba7f163c4a11628f55a4df523b3ef91a4949350505050565b6001613bc9838261518f565b506002611196828261518f565b6001600160581b03811615613c7b576040516331a9108f60e11b81526001600160581b03821660048201527f00000000000000000000000000000000000000000000000000000000000000006001600160a01b031690636352211e90602401602060405180830381865afa158015613c52573d6000803e3d6000fd5b505050506040513d601f19601f82011682018060405250810190613c769190615362565b613c7d565b815b6040513381526001600160a01b03918216918516907fc8894f26f396ce8c004245c8b7cd1b92103a6e4302fcbab883987149ac01b7ec90602001613453565b60608151600003613cdb57505060408051600081526020810190915290565b60408051602e8082526105e08201909252600091602082016105c080368337019050509050600081600081518110613d1557613d15615160565b60ff90921660209283029190910190910152825160019060005b81811015613e30576000868281518110613d4b57613d4b615160565b016020015160f81c905060005b8460ff16811015613dd5576008868281518110613d7757613d77615160565b602002602001015160ff16901b82613d8f91906159a0565b9150613d9c603a83615d96565b868281518110613dae57613dae615160565b60ff90921660209283029190910190910152613dcb603a83615daa565b9150600101613d58565b505b8015613e2757613de8603a82615d96565b858560ff1681518110613dfd57613dfd615160565b60ff90921660209283029190910190910152600190930192613e20603a82615daa565b9050613dd7565b50600101613d2f565b50613e4b613e46613e418585613eb8565b613f60565b614003565b95945050505050565b613e5f8383836140dd565b611196576001600160a01b038316613e8d57604051637e27328960e01b81526004810182905260240161109d565b60405163177e802f60e01b81526001600160a01b03831660048201526024810182905260440161109d565b606060008260ff1667ffffffffffffffff811115613ed857613ed8614434565b604051908082528060200260200182016040528015613f01578160200160208202803683370190505b50905060005b8360ff16811015613f5857848181518110613f2457613f24615160565b6020026020010151828281518110613f3e57613f3e615160565b60ff90921660209283029190910190910152600101613f07565b509392505050565b805160609060008167ffffffffffffffff811115613f8057613f80614434565b604051908082528060200260200182016040528015613fa9578160200160208202803683370190505b50905060005b82811015613f5857848160018751030381518110613fcf57613fcf615160565b6020026020010151828281518110613fe957613fe9615160565b60ff90921660209283029190910190910152600101613faf565b805160609060008167ffffffffffffffff81111561402357614023614434565b6040519080825280601f01601f19166020018201604052801561404d576020820181803683370190505b50905060005b82811015613f58576040518060600160405280603a8152602001615dbf603a913985828151811061408657614086615160565b602002602001015160ff16815181106140a1576140a1615160565b602001015160f81c60f81b8282815181106140be576140be615160565b60200101906001600160f81b031916908160001a905350600101614053565b60006001600160a01b0383161580159061415b5750826001600160a01b0316846001600160a01b0316148061413757506001600160a01b0380851660009081526006602090815260408083209387168352929052205460ff165b8061415b57506000828152600560205260409020546001600160a01b038481169116145b949350505050565b6001600160e01b031981168114611ba857600080fd5b60006020828403121561418b57600080fd5b81356114d481614163565b60005b838110156141b1578181015183820152602001614199565b50506000910152565b600081518084526141d2816020860160208601614196565b601f01601f19169290920160200192915050565b6020815260006114d460208301846141ba565b60006020828403121561420b57600080fd5b5035919050565b6001600160a01b0381168114611ba857600080fd5b803561423281614212565b919050565b6000806040838503121561424a57600080fd5b823561425581614212565b946020939093013593505050565b6000610200828403121561427657600080fd5b50919050565b60006020828403121561428e57600080fd5b813567ffffffffffffffff8111156142a557600080fd5b61415b84828501614263565b60008083601f8401126142c357600080fd5b50813567ffffffffffffffff8111156142db57600080fd5b602083019150836020828501011115612c8657600080fd5b600080600080600080600060a0888a03121561430e57600080fd5b873567ffffffffffffffff8082111561432657600080fd5b6143328b838c016142b1565b909950975060208a013591508082111561434b57600080fd5b506143588a828b016142b1565b909650945050604088013561436c81614212565b969995985093969295946060840135945060809093013592915050565b60008060006060848603121561439e57600080fd5b83356143a981614212565b925060208401356143b981614212565b929592945050506040919091013590565b600080604083850312156143dd57600080fd5b50508035926020909101359150565b60006101a0828403121561427657600080fd5b60006020828403121561441157600080fd5b813567ffffffffffffffff81111561442857600080fd5b61415b848285016143ec565b634e487b7160e01b600052604160045260246000fd5b6040516080810167ffffffffffffffff8111828210171561446d5761446d614434565b60405290565b6040516101c0810167ffffffffffffffff8111828210171561446d5761446d614434565b6040516101e0810167ffffffffffffffff8111828210171561446d5761446d614434565b604051610120810167ffffffffffffffff8111828210171561446d5761446d614434565b604051601f8201601f1916810167ffffffffffffffff8111828210171561450857614508614434565b604052919050565b600067ffffffffffffffff82111561452a5761452a614434565b50601f01601f191660200190565b600061454b61454684614510565b6144df565b905082815283838301111561455f57600080fd5b828260208301376000602084830101529392505050565b600082601f83011261458757600080fd5b6114d483833560208501614538565b600067ffffffffffffffff8211156145b0576145b0614434565b5060051b60200190565b6cffffffffffffffffffffffffff81168114611ba857600080fd5b8035614232816145ba565b63ffffffff81168114611ba857600080fd5b8035614232816145e0565b61ffff81168114611ba857600080fd5b8035614232816145fd565b62ffffff81168114611ba857600080fd5b803561423281614618565b60ff81168114611ba857600080fd5b803561423281614634565b8015158114611ba857600080fd5b80356142328161464e565b6000608080838503121561467a57600080fd5b61468261444a565b9150823567ffffffffffffffff81111561469b57600080fd5b8301601f810185136146ac57600080fd5b803560206146bc61454683614596565b8281526101c092830284018201928282019190898511156146dc57600080fd5b948301945b848610156147f35780868b0312156146f95760008081fd5b614701614473565b61470a876145d5565b81526147178588016145f2565b8582015260406147288189016145f2565b90820152606061473988820161460d565b90820152614748878901614227565b8189015260a0878101359082015260c0614763818901614629565b9082015260e0614774888201614643565b9082015261010061478688820161465c565b9082015261012061479888820161465c565b908201526101406147aa88820161465c565b908201526101606147bc88820161465c565b908201526101806147ce88820161465c565b908201526101a06147e088820161465c565b90820152835294850194918301916146e1565b508652506148028682016145f2565b818601525050505061481660408301614643565b604082015261482760608301614227565b606082015292915050565b60006080828403121561484457600080fd5b61484c61444a565b905081356148598161464e565b815260208201356148698161464e565b6020820152604082013561487c8161464e565b604082015260608201356148278161464e565b600080600080600080600080610160898b0312156148ac57600080fd5b88359750602089013567ffffffffffffffff808211156148cb57600080fd5b6148d78c838d01614576565b985060408b01359150808211156148ed57600080fd5b6148f98c838d01614576565b975060608b013591508082111561490f57600080fd5b61491b8c838d01614576565b965061492960808c01614227565b955060a08b013591508082111561493f57600080fd5b61494b8c838d01614576565b945060c08b013591508082111561496157600080fd5b5061496e8b828c01614667565b92505061497e8a60e08b01614832565b90509295985092959890939650565b60006020828403121561499f57600080fd5b81356114d481614212565b600080604083850312156149bd57600080fd5b8235915060208301356149cf81614212565b809150509250929050565b60008083601f8401126149ec57600080fd5b50813567ffffffffffffffff811115614a0457600080fd5b6020830191508360208260051b8501011115612c8657600080fd5b600080600060408486031215614a3457600080fd5b833567ffffffffffffffff811115614a4b57600080fd5b614a57868287016149da565b9094509250506020840135614a6b81614212565b809150509250925092565b60008151808452602080850194506020840160005b83811015614aa757815187529582019590820190600101614a8b565b509495945050505050565b6020815260006114d46020830184614a76565b600060208284031215614ad757600080fd5b813567ffffffffffffffff811115614aee57600080fd5b820161018081850312156114d457600080fd5b6000604080830185845260206040818601528186518084526060935060608701915060608160051b88010183890160005b83811015614b8257898303605f19018552815180516001600160a01b031684528681015187850152880151888401889052614b6f888501826141ba565b9587019593505090850190600101614b32565b50909a9950505050505050505050565b60008083601f840112614ba457600080fd5b50813567ffffffffffffffff811115614bbc57600080fd5b6020830191508360208260061b8501011115612c8657600080fd5b60008060208385031215614bea57600080fd5b823567ffffffffffffffff811115614c0157600080fd5b614c0d85828601614b92565b90969095509350505050565b60008060408385031215614c2c57600080fd5b8235614c3781614212565b915060208301356149cf8161464e565b60008060008060808587031215614c5d57600080fd5b8435614c6881614212565b93506020850135614c7881614212565b925060408501359150606085013567ffffffffffffffff811115614c9b57600080fd5b8501601f81018713614cac57600080fd5b614cbb87823560208401614538565b91505092959194509250565b600060208284031215614cd957600080fd5b81356114d481614634565b60006080820186835260208681850152604086604086015260606080606087015283875180865260a08801915060a08160051b890101955084890160005b82811015614d7257898803609f19018452815180516001600160a01b0316895287810151888a0152860151868901869052614d5f868a01826141ba565b9850509286019290860190600101614d22565b50959c9b505050505050505050505050565b60008060408385031215614d9757600080fd5b823567ffffffffffffffff80821115614daf57600080fd5b818501915085601f830112614dc357600080fd5b81356020614dd361454683614596565b82815260059290921b84018101918181019089841115614df257600080fd5b948201945b83861015614e1057853582529482019490820190614df7565b96505086013592505080821115614e2657600080fd5b50614e33858286016143ec565b9150509250929050565b60008060008060408587031215614e5357600080fd5b843567ffffffffffffffff80821115614e6b57600080fd5b818701915087601f830112614e7f57600080fd5b813581811115614e8e57600080fd5b8860206101c083028501011115614ea457600080fd5b602092830196509450908601359080821115614ebf57600080fd5b50614ecc878288016149da565b95989497509550505050565b60008060408385031215614eeb57600080fd5b8235614ef681614212565b915060208301356149cf81614212565b600181811c90821680614f1a57607f821691505b60208210810361427657634e487b7160e01b600052602260045260246000fd5b80516142328161464e565b600060208284031215614f5757600080fd5b81516114d48161464e565b601f821115611196576000816000526020600020601f850160051c81016020861015614f8b5750805b601f850160051c820191505b818110156110c257828155600101614f97565b67ffffffffffffffff831115614fc257614fc2614434565b614fd683614fd08354614f06565b83614f62565b6000601f84116001811461500a5760008515614ff25750838201355b600019600387901b1c1916600186901b17835561252c565b600083815260209020601f19861690835b8281101561503b578685013582556020948501946001909201910161501b565b50868210156150585760001960f88860031b161c19848701351681555b505060018560011b0183555050505050565b8183823760009101908152919050565b6000808335601e1984360301811261509157600080fd5b83018035915067ffffffffffffffff8211156150ac57600080fd5b602001915036819003821315612c8657600080fd5b600082601f8301126150d257600080fd5b815160206150e261454683614596565b8083825260208201915060208460051b87010193508684111561510457600080fd5b602086015b848110156151205780518352918301918301615109565b509695505050505050565b60006020828403121561513d57600080fd5b815167ffffffffffffffff81111561515457600080fd5b61415b848285016150c1565b634e487b7160e01b600052603260045260246000fd5b60006020828403121561518857600080fd5b5051919050565b815167ffffffffffffffff8111156151a9576151a9614434565b6151bd816151b78454614f06565b84614f62565b602080601f8311600181146151f257600084156151da5750858301515b600019600386901b1c1916600185901b1785556110c2565b600085815260208120601f198616915b8281101561522157888601518255948401946001909101908401615202565b508582101561523f5787850151600019600388901b60f8161c191681555b5050505050600190811b01905550565b602080825282518282018190526000919060409081850190868401855b8281101561534a57815180516cffffffffffffffffffffffffff1685528681015163ffffffff9081168887015286820151168686015260608082015161ffff16908601526080808201516001600160a01b03169086015260a0808201519086015260c08082015162ffffff169086015260e08082015160ff169086015261010080820151151590860152610120808201511515908601526101408082015115159086015261016080820151151590860152610180808201511515908601526101a0908101511515908501526101c0909301929085019060010161526c565b5091979650505050505050565b805161423281614212565b60006020828403121561537457600080fd5b81516114d481614212565b84815260606020808301829052908201849052600090859060808401835b878110156153c65783356153b0816145fd565b61ffff168252928201929082019060010161539d565b50809350505050821515604083015295945050505050565b600080604083850312156153f157600080fd5b825167ffffffffffffffff81111561540857600080fd5b615414858286016150c1565b925050602083015190509250929050565b60006020828403121561543757600080fd5b81356114d4816145fd565b60006040828403121561545457600080fd5b6040516040810181811067ffffffffffffffff8211171561547757615477614434565b6040529050808235615488816145e0565b81526020830135615498816145fd565b6020919091015292915050565b6000604082840312156154b757600080fd5b6114d48383615442565b600082601f8301126154d257600080fd5b81516154e061454682614510565b8181528460208386010111156154f557600080fd5b61415b826020830160208701614196565b60006020828403121561551857600080fd5b815167ffffffffffffffff81111561552f57600080fd5b61415b848285016154c1565b6001600160a01b038316815260406020820152600061415b6040830184614a76565b6020815281602082015260007f07ffffffffffffffffffffffffffffffffffffffffffffffffffffffffffffff83111561559657600080fd5b8260051b80856040850137919091016040019392505050565b6155cf826155bc836145d5565b6cffffffffffffffffffffffffff169052565b6155db602082016145f2565b63ffffffff1660208301526155f2604082016145f2565b63ffffffff1660408301526156096060820161460d565b61ffff16606083015261561e60808201614227565b6001600160a01b0316608083015260a0818101359083015261564260c08201614629565b62ffffff1660c083015261565860e08201614643565b60ff1660e083015261010061566e82820161465c565b15159083015261012061568282820161465c565b15159083015261014061569682820161465c565b1515908301526101606156aa82820161465c565b1515908301526101806156be82820161465c565b1515908301526101a06156d282820161465c565b80151584830152611156565b6020808252810182905260008360408301825b858110156157175761570382846155af565b6101c09283019291909101906001016156f1565b5095945050505050565b6101e0810161573082856155af565b6001600160a01b0383166101c08301529392505050565b60006020828403121561575957600080fd5b81356114d4816145e0565b634e487b7160e01b600052601160045260246000fd5b600181815b808511156157b557816000190482111561579b5761579b615764565b808516156157a857918102915b93841c939080029061577f565b509250929050565b6000826157cc57506001610ab2565b816157d957506000610ab2565b81600181146157ef57600281146157f957615815565b6001915050610ab2565b60ff84111561580a5761580a615764565b50506001821b610ab2565b5060208310610133831016604e8410600b8410161715615838575081810a610ab2565b615842838361577a565b806000190482111561585657615856615764565b029392505050565b60006114d483836157bd565b60006080828403121561587c57600080fd5b61588461444a565b825161588f8161464e565b8152602083015161589f8161464e565b602082015260408301516158b28161464e565b604082015260608301516158c58161464e565b60608201529392505050565b8051614232816145fd565b600080604083850312156158ef57600080fd5b82516158fa8161464e565b8092505060208084015167ffffffffffffffff81111561591957600080fd5b8401601f8101861361592a57600080fd5b805161593861454682614596565b81815260059190911b8201830190838101908883111561595757600080fd5b928401925b8284101561597e57835161596f816145fd565b8252928401929084019061595c565b80955050505050509250929050565b81810381811115610ab257610ab2615764565b80820180821115610ab257610ab2615764565b8082028115828204841417610ab257610ab2615764565b8051614232816145e0565b8051614232816145ba565b805161423281614618565b805161423281614634565b600060208284031215615a0857600080fd5b815167ffffffffffffffff80821115615a2057600080fd5b908301906101e08286031215615a3557600080fd5b615a3d614497565b615a46836159ca565b8152615a54602084016159d5565b6020820152615a65604084016159ca565b6040820152615a76606084016159ca565b6060820152615a87608084016159d5565b6080820152615a9860a084016158d1565b60a0820152615aa960c08401615357565b60c082015260e083015160e0820152610100615ac68185016159e0565b90820152610120615ad88482016159eb565b90820152610140615aea848201614f3a565b90820152610160615afc848201614f3a565b90820152610180615b0e848201614f3a565b908201526101a0615b20848201614f3a565b908201526101c08381015183811115615b3857600080fd5b615b44888287016154c1565b918301919091525095945050505050565b805165ffffffffffff8116811461423257600080fd5b80516dffffffffffffffffffffffffffff8116811461423257600080fd5b60006101208284031215615b9c57600080fd5b615ba46144bb565b615bad83615b55565b8152615bbb60208401615b55565b6020820152615bcc60408401615b55565b6040820152615bdd60608401615b55565b6060820152615bee608084016159ca565b6080820152615bff60a08401615b6b565b60a0820152615c1060c084016159ca565b60c0820152615c2160e08401615357565b60e0820152610100928301519281019290925250919050565b60006001600160a01b03808716835280861660208401525083604083015260806060830152615c6c60808301846141ba565b9695505050505050565b600060208284031215615c8857600080fd5b81516114d481614163565b60008351615ca5818460208801614196565b835190830190615cb9818360208801614196565b01949350505050565b60008085851115615cd257600080fd5b83861115615cdf57600080fd5b5050820193919092039150565b6bffffffffffffffffffffffff198135818116916014851015615d195780818660140360031b1b83161692505b505092915050565b634e487b7160e01b600052601260045260246000fd5b60006060820185835260206060602085015281865180845260808601915060208801935060005b81811015615d7e57845161ffff1683529383019391830191600101615d5e565b50508093505050508215156040830152949350505050565b600082615da557615da5615d21565b500690565b600082615db957615db9615d21565b50049056fe31323334353637383941424344454647484a4b4c4d4e505152535455565758595a6162636465666768696a6b6d6e6f707172737475767778797aa2646970667358221220cd144e867ccf6610e19f15ede98a0a8228c68fa015b98e7b6185605bba0af8d164736f6c63430008170033",
	"deployedBytecode": "0x6080604052600436106103135760003560e01c8063715018a61161019a578063c87b56dd116100e1578063d95c9ae21161008a578063edab09b911610064578063edab09b914610a05578063f2fde38b14610a39578063f434c91414610a5957600080fd5b8063d95c9ae21461097a578063e8a3d485146109a7578063e985e9c5146109bc57600080fd5b8063cf7f4936116100bb578063cf7f493614610906578063d102134c14610926578063d4a1b4b11461094657600080fd5b8063c87b56dd14610896578063cd817cd0146108b6578063cdf7b165146108e657600080fd5b80639c2c6a0211610143578063b88d4fde1161011d578063b88d4fde146107e9578063ba23c36e14610809578063c0fb5e851461087657600080fd5b80639c2c6a0214610789578063a220d696146107a9578063a22cb465146107c957600080fd5b80638cc35846116101745780638cc35846146107315780638da5cb5b1461075f57806395d89b411461077457600080fd5b8063715018a6146106b55780637da0a877146106ca57806388bc2ef3146106fd57600080fd5b806342d3d0331161025e578063613b856d116102075780636ac6d941116101e15780636ac6d941146106535780636c0360eb1461068057806370a082311461069557600080fd5b8063613b856d146105f05780636352211e14610610578063677ce0881461063057600080fd5b806354c6d1f51161023857806354c6d1f51461056d57806356539f391461058d578063572b6c05146105a357600080fd5b806342d3d033146104eb578063462e3af814610519578063507f14651461053957600080fd5b80631435aad5116102c05780632483d6b51161029a5780632483d6b514610477578063293c49991461049757806342842e0e146104cb57600080fd5b80631435aad5146104245780631727f0391461044457806323b872dd1461045757600080fd5b806308786b1a116102f157806308786b1a146103a7578063095ea7b3146103ef5780631337f9861461041157600080fd5b806301ffc9a71461031857806306fdde031461034d578063081812fc1461036f575b600080fd5b34801561032457600080fd5b50610338610333366004614179565b610a8d565b60405190151581526020015b60405180910390f35b34801561035957600080fd5b50610362610ab8565b60405161034491906141e6565b34801561037b57600080fd5b5061038f61038a3660046141f9565b610b4a565b6040516001600160a01b039091168152602001610344565b3480156103b357600080fd5b50600c5463ffffffff811690602081901c60ff169060281c6040805193845260208401929092526001600160a01b031690820152606001610344565b3480156103fb57600080fd5b5061040f61040a366004614237565b610b73565b005b61040f61041f36600461427c565b610b89565b34801561043057600080fd5b5061040f61043f3660046142f3565b610c5c565b61040f61045236600461427c565b610e55565b34801561046357600080fd5b5061040f610472366004614389565b6110ca565b34801561048357600080fd5b5061040f6104923660046143ca565b61115c565b3480156104a357600080fd5b5061038f7f000000000000000000000000ecb62030e30bb027f672f24692111492ba2bbc8481565b3480156104d757600080fd5b5061040f6104e6366004614389565b61117b565b3480156104f757600080fd5b5061050b6105063660046143ff565b61119b565b604051908152602001610344565b34801561052557600080fd5b5061040f61053436600461488f565b611227565b34801561054557600080fd5b5061038f7f0000000000000000000000007b1f4ba6312a104e645b06ab97e4caa1ef0f773f81565b34801561057957600080fd5b5061038f6105883660046141f9565b611497565b34801561059957600080fd5b5061050b60075481565b3480156105af57600080fd5b506103386105be36600461498d565b7f000000000000000000000000b2b5841dbef766d4b521221732f9b618fcf34a876001600160a01b0390811691161490565b3480156105fc57600080fd5b5061040f61060b3660046143ca565b6114db565b34801561061c57600080fd5b5061038f61062b3660046141f9565b6116e0565b34801561063c57600080fd5b5061033861064b3660046149aa565b600092915050565b34801561065f57600080fd5b5061067361066e366004614a1f565b6116eb565b6040516103449190614ab2565b34801561068c57600080fd5b50610362611868565b3480156106a157600080fd5b5061050b6106b036600461498d565b6118f6565b3480156106c157600080fd5b5061040f61194f565b3480156106d657600080fd5b507f000000000000000000000000b2b5841dbef766d4b521221732f9b618fcf34a8761038f565b34801561070957600080fd5b5061038f7f000000000000000000000000e0b2860344ba476e12ed1d559656da9d04f1ad2281565b34801561073d57600080fd5b5061075161074c366004614ac5565b611964565b604051610344929190614b01565b34801561076b57600080fd5b5061038f611a0b565b34801561078057600080fd5b50610362611af8565b34801561079557600080fd5b5061040f6107a4366004614bd7565b611b07565b3480156107b557600080fd5b5061040f6107c43660046141f9565b611b64565b3480156107d557600080fd5b5061040f6107e4366004614c19565b611bab565b3480156107f557600080fd5b5061040f610804366004614c47565b611bbd565b34801561081557600080fd5b50600054610846906001600160a01b03811690600160a01b81046001600160581b031690600160f81b900460ff1683565b604080516001600160a01b0390941684526001600160581b03909216602084015260ff1690820152606001610344565b34801561088257600080fd5b5061040f610891366004614cc7565b611bd4565b3480156108a257600080fd5b506103626108b13660046141f9565b611be5565b3480156108c257600080fd5b506108d66108d13660046143ff565b611e1a565b6040516103449493929190614ce4565b3480156108f257600080fd5b5061050b610901366004614d84565b611fa0565b34801561091257600080fd5b5061040f610921366004614bd7565b612032565b34801561093257600080fd5b5061040f610941366004614e3d565b61209a565b34801561095257600080fd5b5061038f7f0000000000000000000000008de478a6071ad66bf99c770aea0cedcddda72f4381565b34801561098657600080fd5b5061050b61099536600461498d565b600a6020526000908152604090205481565b3480156109b357600080fd5b506103626122d8565b3480156109c857600080fd5b506103386109d7366004614ed8565b6001600160a01b03918216600090815260066020908152604080832093909416825291909152205460ff1690565b348015610a1157600080fd5b5061038f7f0000000000000000000000004f2e788877b71fcdeb7dabf898572a556420896d81565b348015610a4557600080fd5b5061040f610a5436600461498d565b6122e5565b348015610a6557600080fd5b5061038f7f0000000000000000000000004cdb4200e4e65a277676cd5e8d3c7c7c4da7fbe581565b60006001600160e01b03198216637aa81e7b60e01b1480610ab25750610ab28261231f565b92915050565b606060018054610ac790614f06565b80601f0160208091040260200160405190810160405280929190818152602001828054610af390614f06565b8015610b405780601f10610b1557610100808354040283529160200191610b40565b820191906000526020600020905b815481529060010190602001808311610b2357829003601f168201915b5050505050905090565b6000610b55826123b0565b506000828152600560205260409020546001600160a01b0316610ab2565b610b858282610b806123e9565b6123f8565b5050565b60075434151580610c265750604051636e49181f60e01b8152600481018290523360248201527f000000000000000000000000e0b2860344ba476e12ed1d559656da9d04f1ad226001600160a01b031690636e49181f90604401602060405180830381865afa158015610c00573d6000803e3d6000fd5b505050506040513d601f19601f82011682018060405250810190610c249190614f45565b155b80610c35575080826020013514155b15610c5357604051633fb648ad60e11b815260040160405180910390fd5b610b8582612405565b610c71610c67611a0b565b6007546015612909565b8515610ce2576008610c84878983614faa565b508686604051610c9592919061506a565b60405180910390207f7bc9110d5de090dd59e07912d2b93a5a27ac70a60c8d8e324db4f9ee8b8b5c13610cc66123e9565b6040516001600160a01b03909116815260200160405180910390a25b8315610d53576009610cf5858783614faa565b508484604051610d0692919061506a565b60405180910390207fd36dc0c1a06103fdcaf15f3f6fb797d1a97997514c78de073640c8b5005454b8610d376123e9565b6040516001600160a01b03909116815260200160405180910390a25b6001600160a01b0383163014610d6c57610d6c83612a21565b8115801590610d7a57508015155b15610e4c57817f677da4fed654db8e604791fa2582f342e2001aa217e27f6985eb3e0f67e5a7fc82610daa6123e9565b604080519283526001600160a01b0390911660208301520160405180910390a26040516324de8d6360e11b815260048101839052602481018290527f0000000000000000000000007b1f4ba6312a104e645b06ab97e4caa1ef0f773f6001600160a01b0316906349bd1ac690604401600060405180830381600087803b158015610e3357600080fd5b505af1158015610e47573d6000803e3d6000fd5b505050505b50505050505050565b60075434151580610ef25750604051636e49181f60e01b8152600481018290523360248201527f000000000000000000000000e0b2860344ba476e12ed1d559656da9d04f1ad226001600160a01b031690636e49181f90604401602060405180830381865afa158015610ecc573d6000803e3d6000fd5b505050506040513d601f19601f82011682018060405250810190610ef09190614f45565b155b80610f01575080826020013514155b15610f1f576040516308bb4a5360e01b815260040160405180910390fd5b60408051808201909152600681526572656465656d60d01b602090910152600080610fd17f0000000000000000000000004f2e788877b71fcdeb7dabf898572a556420896d60601b7f26ef0a97332ad048ac544d8dfacdd43e128b9816d599fdd0310960904fa1860918610f976101e087018761507a565b8080601f016020809104026020016040519081016040528093929190818152602001838380828437600092019190915250612ae792505050565b9150915060608215610ff45781806020019051810190610ff1919061512b565b90505b805160005b818110156110b857600083828151811061101557611015615160565b60200260200101519050876000016020810190611032919061498d565b6001600160a01b031661105a826000908152600360205260409020546001600160a01b031690565b6001600160a01b0316146110a6578061107660208a018a61498d565b604051630694678560e21b815260048101929092526001600160a01b031660248201526044015b60405180910390fd5b6110af81612c8d565b50600101610ff9565b506110c282612cc8565b505050505050565b6001600160a01b0382166110f457604051633250574960e11b81526000600482015260240161109d565b600061110883836111036123e9565b612d14565b9050836001600160a01b0316816001600160a01b031614611156576040516364283d7b60e01b81526001600160a01b038086166004830152602482018490528216604482015260640161109d565b50505050565b611171611167611a0b565b6007546017612909565b610b858282612f24565b61119683838360405180602001604052806000815250611bbd565b505050565b604051631572f24960e11b81523060048201526000907f0000000000000000000000007b1f4ba6312a104e645b06ab97e4caa1ef0f773f6001600160a01b031690632ae5e492906024015b602060405180830381865afa158015611203573d6000803e3d6000fd5b505050506040513d601f19601f82011682018060405250810190610ab29190615176565b6007541561124e57600754604051639889eb1160e01b815260040161109d91815260200190565b8760000361126f57604051630ea59fc560e21b815260040160405180910390fd5b61127a888888612fec565b6020808301516040840151606085015178ffffffffffffffffffffffffffffffffffffffff000000000060289190911b1664ff000000009190931b1663ffffffff9091161717600c8190558551156112da5760086112d8878261518f565b505b8351156112ef5760096112ed858261518f565b505b6112ff6112fa6123e9565b612314565b6001600160a01b038516156113175761131785612a21565b825151156113b5578251604051631f1d05ad60e01b81526001600160a01b037f0000000000000000000000007b1f4ba6312a104e645b06ab97e4caa1ef0f773f1691631f1d05ad9161136c919060040161524f565b6000604051808303816000875af115801561138b573d6000803e3d6000fd5b505050506040513d6000823e601f3d908101601f191682016040526113b3919081019061512b565b505b8151806113c3575081602001515b806113cf575081604001515b806113db575081606001515b1561148157604080516365c13f1960e11b815283511515600482015260208401511515602482015290830151151560448201526060830151151560648201527f0000000000000000000000007b1f4ba6312a104e645b06ab97e4caa1ef0f773f6001600160a01b03169063cb827e3290608401600060405180830381600087803b15801561146857600080fd5b505af115801561147c573d6000803e3d6000fd5b505050505b61148c6112fa6123e9565b505050505050505050565b6000818152600b60205260408120546001600160a01b031680156114bb5792915050565b6000838152600360205260409020546001600160a01b03165b9392505050565b60006114e8600754612ffd565b90506115076114fc82610100015160f31c90565b600190811c81161490565b156115255760405163b1f1d8cf60e01b815260040160405180910390fd5b604051635d53f40760e11b815260048101849052602481018390526000907f0000000000000000000000007b1f4ba6312a104e645b06ab97e4caa1ef0f773f6001600160a01b03169063baa7e80e906044016000604051808303816000875af1158015611596573d6000803e3d6000fd5b505050506040513d6000823e601f3d908101601f191682016040526115be919081019061512b565b60405162d5cc0160e21b8152306004820152602481018690529091506000906001600160a01b037f0000000000000000000000007b1f4ba6312a104e645b06ab97e4caa1ef0f773f1690630357300490604401602060405180830381865afa15801561162e573d6000803e3d6000fd5b505050506040513d601f19601f820116820180604052508101906116529190615362565b905060005b848110156110c257600083828151811061167357611673615160565b60200260200101519050826001600160a01b031687827f80dd2efbbc431cde0164d84d638e44ba6e7a3ca5d532ceef1bb4efcc0948325d6116b26123e9565b6040516001600160a01b03909116815260200160405180910390a46116d783826130cc565b50600101611657565b6000610ab2826123b0565b60606117026116f8611a0b565b6007546016612909565b60405163eaa19ab360e01b81526001600160a01b037f0000000000000000000000007b1f4ba6312a104e645b06ab97e4caa1ef0f773f169063eaa19ab39061175790600019908890889060019060040161537f565b6000604051808303816000875af1158015611776573d6000803e3d6000fd5b505050506040513d6000823e601f3d908101601f1916820160405261179e91908101906153de565b5090508260005b8181101561185f5760008382815181106117c1576117c1615160565b602002602001015190506117d585826130cc565b846001600160a01b03168787848181106117f1576117f1615160565b90506020020160208101906118069190615425565b61ffff16827f598baf7bf150ca2f42be9e9f8f55e81d45f5715c3ff22bf46d697fabec7f31d660006118366123e9565b604080519283526001600160a01b0390911660208301520160405180910390a4506001016117a5565b50509392505050565b6008805461187590614f06565b80601f01602080910402602001604051908101604052809291908181526020018280546118a190614f06565b80156118ee5780601f106118c3576101008083540402835291602001916118ee565b820191906000526020600020905b8154815290600101906020018083116118d157829003601f168201915b505050505081565b604051633de222bb60e21b81523060048201526001600160a01b0382811660248301526000917f0000000000000000000000007b1f4ba6312a104e645b06ab97e4caa1ef0f773f9091169063f7888aec906044016111e6565b611957613131565b611962600080613237565b565b6040805160018082528183019092526101208301359160609190816020015b604080516060808201835260008083526020830152918101919091528152602001906001900390816119835790505090506040518060600160405280306001600160a01b031681526020016000815260200160405180602001604052806000815250815250816000815181106119fb576119fb615160565b6020026020010181905250915091565b60408051606081018252600080546001600160a01b0381168352600160a01b81046001600160581b031660208401819052600160f81b90910460ff1693830193909352918203611a5b5751919050565b60208101516040516331a9108f60e11b81526001600160581b0390911660048201527f000000000000000000000000ecb62030e30bb027f672f24692111492ba2bbc846001600160a01b031690636352211e90602401602060405180830381865afa158015611ace573d6000803e3d6000fd5b505050506040513d601f19601f82011682018060405250810190611af29190615362565b91505090565b606060028054610ac790614f06565b8060005b81811015611156576000848483818110611b2757611b27615160565b905060400201803603810190611b3d91906154a5565b9050611b5b816000015163ffffffff16826020015161ffff166114db565b50600101611b0b565b611b6c613131565b801580611b7f57506001600160581b0381115b15611b9d5760405163f854950960e01b815260040160405180910390fd5b611ba8600082613237565b50565b610b85611bb66123e9565b83836133c0565b611bc88484846110ca565b61115684848484613460565b611bdc613131565b611ba881613589565b604051630fab094760e01b81523060048201526060906000906001600160a01b037f0000000000000000000000007b1f4ba6312a104e645b06ab97e4caa1ef0f773f1690630fab094790602401602060405180830381865afa158015611c4f573d6000803e3d6000fd5b505050506040513d601f19601f82011682018060405250810190611c739190615362565b90506001600160a01b03811615611cf757604051635e703e7160e01b8152306004820152602481018490526001600160a01b03821690635e703e7190604401600060405180830381865afa158015611ccf573d6000803e3d6000fd5b505050506040513d6000823e601f3d908101601f191682016040526114d49190810190615506565b6114d460088054611d0790614f06565b80601f0160208091040260200160405190810160405280929190818152602001828054611d3390614f06565b8015611d805780601f10611d5557610100808354040283529160200191611d80565b820191906000526020600020905b815481529060010190602001808311611d6357829003601f168201915b5050604051630c8df17160e41b8152306004820152602481018990527f0000000000000000000000007b1f4ba6312a104e645b06ab97e4caa1ef0f773f6001600160a01b0316935063c8df171092506044019050602060405180830381865afa158015611df1573d6000803e3d6000fd5b505050506040513d601f19601f82011682018060405250810190611e159190615176565b6135e4565b600080806060608085013515611e435760405163be14dfc160e01b815260040160405180910390fd5b60408051808201909152600681526572656465656d60d01b602090910152600080611ebb7f0000000000000000000000004f2e788877b71fcdeb7dabf898572a556420896d60601b7f26ef0a97332ad048ac544d8dfacdd43e128b9816d599fdd0310960904fa1860918610f976101808a018a61507a565b604080516001808252818301909252929450909250816020015b60408051606080820183526000808352602083015291810191909152815260200190600190039081611ed55790505092506040518060600160405280306001600160a01b03168152602001600081526020016040518060200160405280600081525081525083600081518110611f4d57611f4d615160565b602002602001018190525060608215611f775781806020019051810190611f74919061512b565b90505b611f818189611fa0565b9550611f8c8861119b565b945087610160013596505050509193509193565b60405163051330b560e21b81526000906001600160a01b037f0000000000000000000000007b1f4ba6312a104e645b06ab97e4caa1ef0f773f169063144cc2d490611ff1903090879060040161553b565b602060405180830381865afa15801561200e573d6000803e3d6000fd5b505050506040513d601f19601f820116820180604052508101906114d49190615176565b61203d611167611a0b565b8060005b8181101561115657600084848381811061205d5761205d615160565b90506040020180360381019061207391906154a5565b9050612091816000015163ffffffff16826020015161ffff16612f24565b50600101612041565b6120af6120a5611a0b565b6007546014612909565b8080156121a85760005b81811015612126578383828181106120d3576120d3615160565b905060200201357f832d89d991be5351d793c20faf4b7dd44f8aa9ce39e3cb160c6317de6fbba7296121036123e9565b6040516001600160a01b03909116815260200160405180910390a26001016120b9565b506040516320512ba160e01b81526001600160a01b037f0000000000000000000000007b1f4ba6312a104e645b06ab97e4caa1ef0f773f16906320512ba190612175908690869060040161555d565b600060405180830381600087803b15801561218f57600080fd5b505af11580156121a3573d6000803e3d6000fd5b505050505b8380156110c257604051631f1d05ad60e01b81526000906001600160a01b037f0000000000000000000000007b1f4ba6312a104e645b06ab97e4caa1ef0f773f1690631f1d05ad90612200908a908a906004016156de565b6000604051808303816000875af115801561221f573d6000803e3d6000fd5b505050506040513d6000823e601f3d908101601f19168201604052612247919081019061512b565b905060005b828110156122ce5781818151811061226657612266615160565b60200260200101517fcbda9c610cbf8b0b9941c465b20ff7e1fae572086b70ef65fa3d5e4bf3d0deaa8989848181106122a1576122a1615160565b90506101c002016122b06123e9565b6040516122be929190615721565b60405180910390a260010161224c565b5050505050505050565b6009805461187590614f06565b6122ed613131565b6001600160a01b0381166123145760405163f854950960e01b815260040160405180910390fd5b611ba8816000613237565b60006001600160e01b03198216633344b87360e01b148061235057506001600160e01b0319821663131f620f60e11b145b8061236b57506001600160e01b0319821663099bfcc360e11b145b8061238657506001600160e01b03198216631727f03960e01b145b806123a157506001600160e01b0319821663152a902d60e11b145b80610ab25750610ab28261364b565b6000818152600360205260408120546001600160a01b031680610ab257604051637e27328960e01b81526004810184905260240161109d565b60006123f361369b565b905090565b6111968383836001613710565b600c5460009063ffffffff81168061242360c0860160a08701615747565b63ffffffff160361243a5760c08401359250612535565b602882901c6001600160a01b0381161561252c5760ff602084901c1661252460c087013561246983600a61585e565b6007546001600160a01b03861690633be273fa9061248d60c08d0160a08e01615747565b898d60600160200160208101906124a49190614cc7565b6040516001600160e01b031960e087901b168152600481019490945263ffffffff929092166024840152604483015260ff166064820152608401602060405180830381865afa1580156124fb573d6000803e3d6000fd5b505050506040513d601f19601f8201168201806040525081019061251f9190615176565b613842565b945050612533565b5050505050565b505b5060009050600a8161254f6101c086016101a0870161498d565b6001600160a01b031681526020810191909152604001600090812054915082906125816101c086016101a0870161498d565b6001600160a01b0316612597602087018761498d565b6001600160a01b0316036125ae57908201906125b1565b50815b604051634228826f60e11b81523060048201526000907f0000000000000000000000007b1f4ba6312a104e645b06ab97e4caa1ef0f773f6001600160a01b03169063845104de90602401608060405180830381865afa158015612618573d6000803e3d6000fd5b505050506040513d601f19601f8201168201806040525081019061263c919061586a565b60609081015160408051808201909152600381526270617960e81b60209091015215915060009081906126bc907f0000000000000000000000004f2e788877b71fcdeb7dabf898572a556420896d901b7fadc756803e4eb4ccfb136b73d5f72e3dc0d452d30ae1f4bc82af394c73ce711518610f976101e08b018b61507a565b9150915081156127205760606000828060200190518101906126de91906158dc565b925090508480156126ed575080155b156126f757600094505b81511561271d5761271a87836127156101c08e016101a08f0161498d565b613915565b96505b50505b841561285d57826127475760405163215ccc4760e11b81526004810186905260240161109d565b848401868111156127ba576127646101c08a016101a08b0161498d565b6001600160a01b0316818883037f7e71a5f6c04b0eb16949316623b9dda7bd103692f7d89678e2260afa1378a2d561279a6123e9565b6040516001600160a01b03909116815260200160405180910390a4612826565b80871115612826576127d46101c08a016101a08b0161498d565b6001600160a01b0316818289037f6276f0169fb8de712b2a6c02789f6115136c589ed491ac06f9e20f41877e41fe61280a6123e9565b6040516001600160a01b03909116815260200160405180910390a45b80600a600061283d6101c08d016101a08e0161498d565b6001600160a01b03168152602081019190915260400160002055506122ce565b8386146122ce576128766101c089016101a08a0161498d565b6001600160a01b03168461288a818961598d565b7f6276f0169fb8de712b2a6c02789f6115136c589ed491ac06f9e20f41877e41fe6128b36123e9565b6040516001600160a01b03909116815260200160405180910390a483600a60006128e56101c08c016101a08d0161498d565b6001600160a01b031681526020810191909152604001600020555050505050505050565b60006129136123e9565b9050836001600160a01b0316816001600160a01b0316141580156129e25750604051631a45b42760e11b81526001600160a01b0382811660048301528581166024830152604482018590526064820184905260016084830181905260a48301527f0000000000000000000000004cdb4200e4e65a277676cd5e8d3c7c7c4da7fbe5169063348b684e9060c401602060405180830381865afa1580156129bc573d6000803e3d6000fd5b505050506040513d601f19601f820116820180604052508101906129e09190614f45565b155b1561115657604051631326f75560e11b81526001600160a01b03808616600483015282166024820152604481018490526064810183905260840161109d565b806001600160a01b03167fe7784d93cfbfa4408e19577e6cc0436f4dbb51214b70e100905dfce9def88c16612a546123e9565b6040516001600160a01b03909116815260200160405180910390a260405163036129cb60e61b81526001600160a01b0382811660048301527f0000000000000000000000007b1f4ba6312a104e645b06ab97e4caa1ef0f773f169063d84a72c0906024015b600060405180830381600087803b158015612ad357600080fd5b505af115801561252c573d6000803e3d6000fd5b600060606025835111612b0c5750506040805160208101909152600080825290612c86565b600083612b1b600460206159a0565b81518110612b2b57612b2b615160565b0160209081015160f81c91505b600085612b466004846159a0565b81518110612b5657612b56615160565b01602001516001600160f81b03191614801590612b7c5750612b796020836159b3565b81105b15612c8357600085612b8f6004846159a0565b81518110612b9f57612b9f615160565b016020908101518784019091015160f89190911c91506001600160e01b031980891690821603612c79576000612bd66020866159b3565b612be16009866159a0565b101580612c16575087612bf56009866159a0565b81518110612c0557612c05615160565b01602001516001600160f81b031916155b612c4f57602088612c286009876159a0565b81518110612c3857612c38615160565b0160200151612c4a919060f81c6159b3565b612c52565b87515b90506001612c6b89612c656020876159b3565b84613a71565b965096505050505050612c86565b5050600501612b38565b50505b9250929050565b6000612c9c6000836000612d14565b90506001600160a01b038116610b8557604051637e27328960e01b81526004810183905260240161109d565b6040516386bc2be360e01b81526001600160a01b037f0000000000000000000000007b1f4ba6312a104e645b06ab97e4caa1ef0f773f16906386bc2be390612ab9908490600401614ab2565b60405163c44a8e6d60e01b8152306004820152602481018390526000604482018190529081906001600160a01b037f0000000000000000000000007b1f4ba6312a104e645b06ab97e4caa1ef0f773f169063c44a8e6d90606401600060405180830381865afa158015612d8b573d6000803e3d6000fd5b505050506040513d6000823e601f3d908101601f19168201604052612db391908101906159f6565b9050612dc0858585613ab7565b91506001600160a01b03821615612e8a5780610160015115612e39576000612de9600754612ffd565b90506001600160a01b03861615801590612e195750612e19612e1082610100015160f31c90565b60019081161490565b15612e37576040516330225eab60e11b815260040160405180910390fd5b505b6000848152600b60205260409020546001600160a01b0316612e8a576000848152600b60205260409020805473ffffffffffffffffffffffffffffffffffffffff19166001600160a01b0384161790555b80516040516330b157e560e21b815263ffffffff90911660048201526001600160a01b03838116602483015286811660448301527f0000000000000000000000007b1f4ba6312a104e645b06ab97e4caa1ef0f773f169063c2c55f9490606401600060405180830381600087803b158015612f0457600080fd5b505af1158015612f18573d6000803e3d6000fd5b50505050509392505050565b817f8ebf585439d8c6edc7dfa9c0e01fdbb1d4e68d9969dc5341ebd8bca5cd9a7bd482612f4f6123e9565b604080519283526001600160a01b0390911660208301520160405180910390a260405163284d148160e11b815260048101839052602481018290527f0000000000000000000000007b1f4ba6312a104e645b06ab97e4caa1ef0f773f6001600160a01b03169063509a290290604401600060405180830381600087803b158015612fd857600080fd5b505af11580156110c2573d6000803e3d6000fd5b612ff68282613bbd565b5050600755565b6040805161012081018252600080825260208201819052818301819052606082018190526080820181905260a0820181905260c0820181905260e0820181905261010082015290516321d1336160e11b8152600481018390526001600160a01b037f0000000000000000000000008de478a6071ad66bf99c770aea0cedcddda72f4316906343a266c29060240161012060405180830381865afa1580156130a8573d6000803e3d6000fd5b505050506040513d601f19601f82011682018060405250810190610ab29190615b89565b6001600160a01b0382166130f657604051633250574960e11b81526000600482015260240161109d565b600061310483836000612d14565b90506001600160a01b03811615611196576040516339e3563760e11b81526000600482015260240161109d565b604080516060810182526000546001600160a01b0381168252600160a01b81046001600160581b031660208301819052600160f81b90910460ff169282019290925290611ba890156132195760208201516040516331a9108f60e11b81526001600160581b0390911660048201527f000000000000000000000000ecb62030e30bb027f672f24692111492ba2bbc846001600160a01b031690636352211e90602401602060405180830381865afa1580156131f0573d6000803e3d6000fd5b505050506040513d601f19601f820116820180604052508101906132149190615362565b61321c565b81515b82602001516001600160581b0316836040015160ff16612909565b6001600160581b0381161580159061325757506001600160a01b03821615155b156132755760405163f854950960e01b815260040160405180910390fd5b60408051606081018252600080546001600160a01b0381168352600160a01b81046001600160581b031660208401819052600160f81b90910460ff169383019390935290911561335b5760208201516040516331a9108f60e11b81526001600160581b0390911660048201527f000000000000000000000000ecb62030e30bb027f672f24692111492ba2bbc846001600160a01b031690636352211e90602401602060405180830381865afa158015613332573d6000803e3d6000fd5b505050506040513d601f19601f820116820180604052508101906133569190615362565b61335e565b81515b604080516060810182526001600160a01b0387168082526001600160581b0387166020830181905260009290930182905281546001600160f81b03191617600160a01b909202919091176001600160f81b031690559050611156818585613bd6565b6001600160a01b0382166133f257604051630b61174360e31b81526001600160a01b038316600482015260240161109d565b6001600160a01b03838116600081815260066020908152604080832094871680845294825291829020805460ff191686151590811790915591519182527f17307eab39ab6107e8899845ad3d59bd9653f200f220920489ca2b5937696c3191015b60405180910390a3505050565b6001600160a01b0383163b1561115657826001600160a01b031663150b7a026134876123e9565b8685856040518563ffffffff1660e01b81526004016134a99493929190615c3a565b6020604051808303816000875af19250505080156134e4575060408051601f3d908101601f191682019092526134e191810190615c76565b60015b61354d573d808015613512576040519150601f19603f3d011682016040523d82523d6000602084013e613517565b606091505b50805160000361354557604051633250574960e11b81526001600160a01b038516600482015260240161109d565b805181602001fd5b6001600160e01b03198116630a85bd0160e11b1461252c57604051633250574960e11b81526001600160a01b038516600482015260240161109d565b600080546001600160f81b0316600160f81b60ff841690810291909117909155604080519182523360208301527f3a02c735461e3ddd7b1f6ccb1620101cec0d5c7ef32a2eb50b1b02a4191d8207910160405180910390a150565b604051609160f51b6020820152602281018290526060906000906042016040516020818303038152906040529050600061361d82613cbc565b90508481604051602001613632929190615c93565b6040516020818303038152906040529250505092915050565b60006001600160e01b031982166380ac58cd60e01b148061367c57506001600160e01b03198216635b5e139f60e01b145b80610ab257506301ffc9a760e01b6001600160e01b0319831614610ab2565b6000366014336001600160a01b037f000000000000000000000000b2b5841dbef766d4b521221732f9b618fcf34a87161480156136d85750808210155b15613708576000366136ea838561598d565b6136f5928290615cc2565b6136fe91615cec565b60601c9250505090565b339250505090565b808061372457506001600160a01b03821615155b15613805576000613734846123b0565b90506001600160a01b038316158015906137605750826001600160a01b0316816001600160a01b031614155b801561379257506001600160a01b0380821660009081526006602090815260408083209387168352929052205460ff16155b156137bb5760405163a9fbf51f60e01b81526001600160a01b038416600482015260240161109d565b81156138035783856001600160a01b0316826001600160a01b03167f8c5be1e5ebec7d5bd14f71427d1e84f3dd0314c0f7b2291e5b200ac8c7c3b92560405160405180910390a45b505b50506000908152600560205260409020805473ffffffffffffffffffffffffffffffffffffffff19166001600160a01b0392909216919091179055565b600080806000198587098587029250828110838203039150508060000361387c5783828161387257613872615d21565b04925050506114d4565b8381106138ad57604051630c740aef60e31b815260048101879052602481018690526044810185905260640161109d565b600084868809600260036001881981018916988990049182028318808302840302808302840302808302840302808302840302808302840302918202909203026000889003889004909101858311909403939093029303949094049190911702949350505050565b600060607f0000000000000000000000007b1f4ba6312a104e645b06ab97e4caa1ef0f773f6001600160a01b031663eaa19ab3868660006040518463ffffffff1660e01b815260040161396a93929190615d37565b6000604051808303816000875af1158015613989573d6000803e3d6000fd5b505050506040513d6000823e601f3d908101601f191682016040526139b191908101906153de565b81519093509091506000805b82811015613a66578381815181106139d7576139d7615160565b60200260200101519150856001600160a01b03168782815181106139fd576139fd615160565b602002602001015161ffff16837f598baf7bf150ca2f42be9e9f8f55e81d45f5715c3ff22bf46d697fabec7f31d68b613a346123e9565b604080519283526001600160a01b0390911660208301520160405180910390a4613a5e86836130cc565b6001016139bd565b505050509392505050565b60608282036040519150602081830101604052808252508260208501016020820160005b84811015613aad578281015182820152602001613a95565b5050509392505050565b6000828152600360205260408120546001600160a01b0390811690831615613ae457613ae4818486613e54565b6001600160a01b03811615613b2257613b01600085600080613710565b6001600160a01b038116600090815260046020526040902080546000190190555b6001600160a01b03851615613b51576001600160a01b0385166000908152600460205260409020805460010190555b600084815260036020526040808220805473ffffffffffffffffffffffffffffffffffffffff19166001600160a01b0389811691821790925591518793918516917fddf252ad1be2c89b69c2b068fc378daa952ba7f163c4a11628f55a4df523b3ef91a4949350505050565b6001613bc9838261518f565b506002611196828261518f565b6001600160581b03811615613c7b576040516331a9108f60e11b81526001600160581b03821660048201527f000000000000000000000000ecb62030e30bb027f672f24692111492ba2bbc846001600160a01b031690636352211e90602401602060405180830381865afa158015613c52573d6000803e3d6000fd5b505050506040513d601f19601f82011682018060405250810190613c769190615362565b613c7d565b815b6040513381526001600160a01b03918216918516907fc8894f26f396ce8c004245c8b7cd1b92103a6e4302fcbab883987149ac01b7ec90602001613453565b60608151600003613cdb57505060408051600081526020810190915290565b60408051602e8082526105e08201909252600091602082016105c080368337019050509050600081600081518110613d1557613d15615160565b60ff90921660209283029190910190910152825160019060005b81811015613e30576000868281518110613d4b57613d4b615160565b016020015160f81c905060005b8460ff16811015613dd5576008868281518110613d7757613d77615160565b602002602001015160ff16901b82613d8f91906159a0565b9150613d9c603a83615d96565b868281518110613dae57613dae615160565b60ff90921660209283029190910190910152613dcb603a83615daa565b9150600101613d58565b505b8015613e2757613de8603a82615d96565b858560ff1681518110613dfd57613dfd615160565b60ff90921660209283029190910190910152600190930192613e20603a82615daa565b9050613dd7565b50600101613d2f565b50613e4b613e46613e418585613eb8565b613f60565b614003565b95945050505050565b613e5f8383836140dd565b611196576001600160a01b038316613e8d57604051637e27328960e01b81526004810182905260240161109d565b60405163177e802f60e01b81526001600160a01b03831660048201526024810182905260440161109d565b606060008260ff1667ffffffffffffffff811115613ed857613ed8614434565b604051908082528060200260200182016040528015613f01578160200160208202803683370190505b50905060005b8360ff16811015613f5857848181518110613f2457613f24615160565b6020026020010151828281518110613f3e57613f3e615160565b60ff90921660209283029190910190910152600101613f07565b509392505050565b805160609060008167ffffffffffffffff811115613f8057613f80614434565b604051908082528060200260200182016040528015613fa9578160200160208202803683370190505b50905060005b82811015613f5857848160018751030381518110613fcf57613fcf615160565b6020026020010151828281518110613fe957613fe9615160565b60ff90921660209283029190910190910152600101613faf565b805160609060008167ffffffffffffffff81111561402357614023614434565b6040519080825280601f01601f19166020018201604052801561404d576020820181803683370190505b50905060005b82811015613f58576040518060600160405280603a8152602001615dbf603a913985828151811061408657614086615160565b602002602001015160ff16815181106140a1576140a1615160565b602001015160f81c60f81b8282815181106140be576140be615160565b60200101906001600160f81b031916908160001a905350600101614053565b60006001600160a01b0383161580159061415b5750826001600160a01b0316846001600160a01b0316148061413757506001600160a01b0380851660009081526006602090815260408083209387168352929052205460ff165b8061415b57506000828152600560205260409020546001600160a01b038481169116145b949350505050565b6001600160e01b031981168114611ba857600080fd5b60006020828403121561418b57600080fd5b81356114d481614163565b60005b838110156141b1578181015183820152602001614199565b50506000910152565b600081518084526141d2816020860160208601614196565b601f01601f19169290920160200192915050565b6020815260006114d460208301846141ba565b60006020828403121561420b57600080fd5b5035919050565b6001600160a01b0381168114611ba857600080fd5b803561423281614212565b919050565b6000806040838503121561424a57600080fd5b823561425581614212565b946020939093013593505050565b6000610200828403121561427657600080fd5b50919050565b60006020828403121561428e57600080fd5b813567ffffffffffffffff8111156142a557600080fd5b61415b84828501614263565b60008083601f8401126142c357600080fd5b50813567ffffffffffffffff8111156142db57600080fd5b602083019150836020828501011115612c8657600080fd5b600080600080600080600060a0888a03121561430e57600080fd5b873567ffffffffffffffff8082111561432657600080fd5b6143328b838c016142b1565b909950975060208a013591508082111561434b57600080fd5b506143588a828b016142b1565b909650945050604088013561436c81614212565b969995985093969295946060840135945060809093013592915050565b60008060006060848603121561439e57600080fd5b83356143a981614212565b925060208401356143b981614212565b929592945050506040919091013590565b600080604083850312156143dd57600080fd5b50508035926020909101359150565b60006101a0828403121561427657600080fd5b60006020828403121561441157600080fd5b813567ffffffffffffffff81111561442857600080fd5b61415b848285016143ec565b634e487b7160e01b600052604160045260246000fd5b6040516080810167ffffffffffffffff8111828210171561446d5761446d614434565b60405290565b6040516101c0810167ffffffffffffffff8111828210171561446d5761446d614434565b6040516101e0810167ffffffffffffffff8111828210171561446d5761446d614434565b604051610120810167ffffffffffffffff8111828210171561446d5761446d614434565b604051601f8201601f1916810167ffffffffffffffff8111828210171561450857614508614434565b604052919050565b600067ffffffffffffffff82111561452a5761452a614434565b50601f01601f191660200190565b600061454b61454684614510565b6144df565b905082815283838301111561455f57600080fd5b828260208301376000602084830101529392505050565b600082601f83011261458757600080fd5b6114d483833560208501614538565b600067ffffffffffffffff8211156145b0576145b0614434565b5060051b60200190565b6cffffffffffffffffffffffffff81168114611ba857600080fd5b8035614232816145ba565b63ffffffff81168114611ba857600080fd5b8035614232816145e0565b61ffff81168114611ba857600080fd5b8035614232816145fd565b62ffffff81168114611ba857600080fd5b803561423281614618565b60ff81168114611ba857600080fd5b803561423281614634565b8015158114611ba857600080fd5b80356142328161464e565b6000608080838503121561467a57600080fd5b61468261444a565b9150823567ffffffffffffffff81111561469b57600080fd5b8301601f810185136146ac57600080fd5b803560206146bc61454683614596565b8281526101c092830284018201928282019190898511156146dc57600080fd5b948301945b848610156147f35780868b0312156146f95760008081fd5b614701614473565b61470a876145d5565b81526147178588016145f2565b8582015260406147288189016145f2565b90820152606061473988820161460d565b90820152614748878901614227565b8189015260a0878101359082015260c0614763818901614629565b9082015260e0614774888201614643565b9082015261010061478688820161465c565b9082015261012061479888820161465c565b908201526101406147aa88820161465c565b908201526101606147bc88820161465c565b908201526101806147ce88820161465c565b908201526101a06147e088820161465c565b90820152835294850194918301916146e1565b508652506148028682016145f2565b818601525050505061481660408301614643565b604082015261482760608301614227565b606082015292915050565b60006080828403121561484457600080fd5b61484c61444a565b905081356148598161464e565b815260208201356148698161464e565b6020820152604082013561487c8161464e565b604082015260608201356148278161464e565b600080600080600080600080610160898b0312156148ac57600080fd5b88359750602089013567ffffffffffffffff808211156148cb57600080fd5b6148d78c838d01614576565b985060408b01359150808211156148ed57600080fd5b6148f98c838d01614576565b975060608b013591508082111561490f57600080fd5b61491b8c838d01614576565b965061492960808c01614227565b955060a08b013591508082111561493f57600080fd5b61494b8c838d01614576565b945060c08b013591508082111561496157600080fd5b5061496e8b828c01614667565b92505061497e8a60e08b01614832565b90509295985092959890939650565b60006020828403121561499f57600080fd5b81356114d481614212565b600080604083850312156149bd57600080fd5b8235915060208301356149cf81614212565b809150509250929050565b60008083601f8401126149ec57600080fd5b50813567ffffffffffffffff811115614a0457600080fd5b6020830191508360208260051b8501011115612c8657600080fd5b600080600060408486031215614a3457600080fd5b833567ffffffffffffffff811115614a4b57600080fd5b614a57868287016149da565b9094509250506020840135614a6b81614212565b809150509250925092565b60008151808452602080850194506020840160005b83811015614aa757815187529582019590820190600101614a8b565b509495945050505050565b6020815260006114d46020830184614a76565b600060208284031215614ad757600080fd5b813567ffffffffffffffff811115614aee57600080fd5b820161018081850312156114d457600080fd5b6000604080830185845260206040818601528186518084526060935060608701915060608160051b88010183890160005b83811015614b8257898303605f19018552815180516001600160a01b031684528681015187850152880151888401889052614b6f888501826141ba565b9587019593505090850190600101614b32565b50909a9950505050505050505050565b60008083601f840112614ba457600080fd5b50813567ffffffffffffffff811115614bbc57600080fd5b6020830191508360208260061b8501011115612c8657600080fd5b60008060208385031215614bea57600080fd5b823567ffffffffffffffff811115614c0157600080fd5b614c0d85828601614b92565b90969095509350505050565b60008060408385031215614c2c57600080fd5b8235614c3781614212565b915060208301356149cf8161464e565b60008060008060808587031215614c5d57600080fd5b8435614c6881614212565b93506020850135614c7881614212565b925060408501359150606085013567ffffffffffffffff811115614c9b57600080fd5b8501601f81018713614cac57600080fd5b614cbb87823560208401614538565b91505092959194509250565b600060208284031215614cd957600080fd5b81356114d481614634565b60006080820186835260208681850152604086604086015260606080606087015283875180865260a08801915060a08160051b890101955084890160005b82811015614d7257898803609f19018452815180516001600160a01b0316895287810151888a0152860151868901869052614d5f868a01826141ba565b9850509286019290860190600101614d22565b50959c9b505050505050505050505050565b60008060408385031215614d9757600080fd5b823567ffffffffffffffff80821115614daf57600080fd5b818501915085601f830112614dc357600080fd5b81356020614dd361454683614596565b82815260059290921b84018101918181019089841115614df257600080fd5b948201945b83861015614e1057853582529482019490820190614df7565b96505086013592505080821115614e2657600080fd5b50614e33858286016143ec565b9150509250929050565b60008060008060408587031215614e5357600080fd5b843567ffffffffffffffff80821115614e6b57600080fd5b818701915087601f830112614e7f57600080fd5b813581811115614e8e57600080fd5b8860206101c083028501011115614ea457600080fd5b602092830196509450908601359080821115614ebf57600080fd5b50614ecc878288016149da565b95989497509550505050565b60008060408385031215614eeb57600080fd5b8235614ef681614212565b915060208301356149cf81614212565b600181811c90821680614f1a57607f821691505b60208210810361427657634e487b7160e01b600052602260045260246000fd5b80516142328161464e565b600060208284031215614f5757600080fd5b81516114d48161464e565b601f821115611196576000816000526020600020601f850160051c81016020861015614f8b5750805b601f850160051c820191505b818110156110c257828155600101614f97565b67ffffffffffffffff831115614fc257614fc2614434565b614fd683614fd08354614f06565b83614f62565b6000601f84116001811461500a5760008515614ff25750838201355b600019600387901b1c1916600186901b17835561252c565b600083815260209020601f19861690835b8281101561503b578685013582556020948501946001909201910161501b565b50868210156150585760001960f88860031b161c19848701351681555b505060018560011b0183555050505050565b8183823760009101908152919050565b6000808335601e1984360301811261509157600080fd5b83018035915067ffffffffffffffff8211156150ac57600080fd5b602001915036819003821315612c8657600080fd5b600082601f8301126150d257600080fd5b815160206150e261454683614596565b8083825260208201915060208460051b87010193508684111561510457600080fd5b602086015b848110156151205780518352918301918301615109565b509695505050505050565b60006020828403121561513d57600080fd5b815167ffffffffffffffff81111561515457600080fd5b61415b848285016150c1565b634e487b7160e01b600052603260045260246000fd5b60006020828403121561518857600080fd5b5051919050565b815167ffffffffffffffff8111156151a9576151a9614434565b6151bd816151b78454614f06565b84614f62565b602080601f8311600181146151f257600084156151da5750858301515b600019600386901b1c1916600185901b1785556110c2565b600085815260208120601f198616915b8281101561522157888601518255948401946001909101908401615202565b508582101561523f5787850151600019600388901b60f8161c191681555b5050505050600190811b01905550565b602080825282518282018190526000919060409081850190868401855b8281101561534a57815180516cffffffffffffffffffffffffff1685528681015163ffffffff9081168887015286820151168686015260608082015161ffff16908601526080808201516001600160a01b03169086015260a0808201519086015260c08082015162ffffff169086015260e08082015160ff169086015261010080820151151590860152610120808201511515908601526101408082015115159086015261016080820151151590860152610180808201511515908601526101a0908101511515908501526101c0909301929085019060010161526c565b5091979650505050505050565b805161423281614212565b60006020828403121561537457600080fd5b81516114d481614212565b84815260606020808301829052908201849052600090859060808401835b878110156153c65783356153b0816145fd565b61ffff168252928201929082019060010161539d565b50809350505050821515604083015295945050505050565b600080604083850312156153f157600080fd5b825167ffffffffffffffff81111561540857600080fd5b615414858286016150c1565b925050602083015190509250929050565b60006020828403121561543757600080fd5b81356114d4816145fd565b60006040828403121561545457600080fd5b6040516040810181811067ffffffffffffffff8211171561547757615477614434565b6040529050808235615488816145e0565b81526020830135615498816145fd565b6020919091015292915050565b6000604082840312156154b757600080fd5b6114d48383615442565b600082601f8301126154d257600080fd5b81516154e061454682614510565b8181528460208386010111156154f557600080fd5b61415b826020830160208701614196565b60006020828403121561551857600080fd5b815167ffffffffffffffff81111561552f57600080fd5b61415b848285016154c1565b6001600160a01b038316815260406020820152600061415b6040830184614a76565b6020815281602082015260007f07ffffffffffffffffffffffffffffffffffffffffffffffffffffffffffffff83111561559657600080fd5b8260051b80856040850137919091016040019392505050565b6155cf826155bc836145d5565b6cffffffffffffffffffffffffff169052565b6155db602082016145f2565b63ffffffff1660208301526155f2604082016145f2565b63ffffffff1660408301526156096060820161460d565b61ffff16606083015261561e60808201614227565b6001600160a01b0316608083015260a0818101359083015261564260c08201614629565b62ffffff1660c083015261565860e08201614643565b60ff1660e083015261010061566e82820161465c565b15159083015261012061568282820161465c565b15159083015261014061569682820161465c565b1515908301526101606156aa82820161465c565b1515908301526101806156be82820161465c565b1515908301526101a06156d282820161465c565b80151584830152611156565b6020808252810182905260008360408301825b858110156157175761570382846155af565b6101c09283019291909101906001016156f1565b5095945050505050565b6101e0810161573082856155af565b6001600160a01b0383166101c08301529392505050565b60006020828403121561575957600080fd5b81356114d4816145e0565b634e487b7160e01b600052601160045260246000fd5b600181815b808511156157b557816000190482111561579b5761579b615764565b808516156157a857918102915b93841c939080029061577f565b509250929050565b6000826157cc57506001610ab2565b816157d957506000610ab2565b81600181146157ef57600281146157f957615815565b6001915050610ab2565b60ff84111561580a5761580a615764565b50506001821b610ab2565b5060208310610133831016604e8410600b8410161715615838575081810a610ab2565b615842838361577a565b806000190482111561585657615856615764565b029392505050565b60006114d483836157bd565b60006080828403121561587c57600080fd5b61588461444a565b825161588f8161464e565b8152602083015161589f8161464e565b602082015260408301516158b28161464e565b604082015260608301516158c58161464e565b60608201529392505050565b8051614232816145fd565b600080604083850312156158ef57600080fd5b82516158fa8161464e565b8092505060208084015167ffffffffffffffff81111561591957600080fd5b8401601f8101861361592a57600080fd5b805161593861454682614596565b81815260059190911b8201830190838101908883111561595757600080fd5b928401925b8284101561597e57835161596f816145fd565b8252928401929084019061595c565b80955050505050509250929050565b81810381811115610ab257610ab2615764565b80820180821115610ab257610ab2615764565b8082028115828204841417610ab257610ab2615764565b8051614232816145e0565b8051614232816145ba565b805161423281614618565b805161423281614634565b600060208284031215615a0857600080fd5b815167ffffffffffffffff80821115615a2057600080fd5b908301906101e08286031215615a3557600080fd5b615a3d614497565b615a46836159ca565b8152615a54602084016159d5565b6020820152615a65604084016159ca565b6040820152615a76606084016159ca565b6060820152615a87608084016159d5565b6080820152615a9860a084016158d1565b60a0820152615aa960c08401615357565b60c082015260e083015160e0820152610100615ac68185016159e0565b90820152610120615ad88482016159eb565b90820152610140615aea848201614f3a565b90820152610160615afc848201614f3a565b90820152610180615b0e848201614f3a565b908201526101a0615b20848201614f3a565b908201526101c08381015183811115615b3857600080fd5b615b44888287016154c1565b918301919091525095945050505050565b805165ffffffffffff8116811461423257600080fd5b80516dffffffffffffffffffffffffffff8116811461423257600080fd5b60006101208284031215615b9c57600080fd5b615ba46144bb565b615bad83615b55565b8152615bbb60208401615b55565b6020820152615bcc60408401615b55565b6040820152615bdd60608401615b55565b6060820152615bee608084016159ca565b6080820152615bff60a08401615b6b565b60a0820152615c1060c084016159ca565b60c0820152615c2160e08401615357565b60e0820152610100928301519281019290925250919050565b60006001600160a01b03808716835280861660208401525083604083015260806060830152615c6c60808301846141ba565b9695505050505050565b600060208284031215615c8857600080fd5b81516114d481614163565b60008351615ca5818460208801614196565b835190830190615cb9818360208801614196565b01949350505050565b60008085851115615cd257600080fd5b83861115615cdf57600080fd5b5050820193919092039150565b6bffffffffffffffffffffffff198135818116916014851015615d195780818660140360031b1b83161692505b505092915050565b634e487b7160e01b600052601260045260246000fd5b60006060820185835260206060602085015281865180845260808601915060208801935060005b81811015615d7e57845161ffff1683529383019391830191600101615d5e565b50508093505050508215156040830152949350505050565b600082615da557615da5615d21565b500690565b600082615db957615db9615d21565b50049056fe31323334353637383941424344454647484a4b4c4d4e505152535455565758595a6162636465666768696a6b6d6e6f707172737475767778797aa2646970667358221220cd144e867ccf6610e19f15ede98a0a8228c68fa015b98e7b6185605bba0af8d164736f6c63430008170033",
	"devdoc": {
		"kind": "dev",
		"methods": {
			"adjustTiers((uint104,uint32,uint32,uint16,address,bytes32,uint24,uint8,bool,bool,bool,bool,bool,bool)[],uint256[])": {
				"details": "Only the contract's owner or an operator with the `ADJUST_TIERS` permission from the owner can adjust the tiers.Any added tiers must adhere to this hook's `JB721TiersHookFlags`.",
				"params": {
					"tierIdsToRemove": "The tiers to remove, as an array of tier IDs.",
					"tiersToAdd": "The tiers to add, as an array of `JB721TierConfig` structs`."
				}
			},
			"afterPayRecordedWith((address,uint256,uint256,(address,uint8,uint32,uint256),(address,uint8,uint32,uint256),uint256,uint256,address,bytes,bytes))": {
				"details": "Reverts if the calling contract is not one of the project's terminals.",
				"params": {
					"context": "The payment context passed in by the terminal."
				}
			},
			"afterRedeemRecordedWith((address,uint256,uint256,uint256,(address,uint8,uint32,uint256),(address,uint8,uint32,uint256),uint256,address,bytes,bytes))": {
				"details": "Reverts if the calling contract is not one of the project's terminals.",
				"params": {
					"context": "The redemption context passed in by the terminal."
				}
			},
			"approve(address,uint256)": {
				"details": "See {IERC721-approve}."
			},
			"balanceOf(address)": {
				"params": {
					"owner": "The address to check the balance of."
				},
				"returns": {
					"balance": "The number of NFTs the address owns across this hook's tiers."
				}
			},
			"beforePayRecordedWith((address,address,(address,uint8,uint32,uint256),uint256,uint256,address,uint256,uint256,bytes))": {
				"details": "Sets this contract as the pay hook. Part of `IJBRulesetDataHook`.",
				"params": {
					"context": "The payment context passed to this contract by the `pay(...)` function."
				},
				"returns": {
					"hookSpecifications": "The amount and data to send to pay hooks (this contract) instead of adding to the terminal's balance.",
					"weight": "The new `weight` to use, overriding the ruleset's `weight`."
				}
			},
			"beforeRedeemRecordedWith((address,address,uint256,uint256,uint256,uint256,(address,uint8,uint32,uint256),bool,uint256,bytes))": {
				"details": "Sets this contract as the redeem hook. Part of `IJBRulesetDataHook`.This function is used for NFT redemptions, and will only be called if the project's ruleset has `useDataHookForRedeem` set to `true`.",
				"params": {
					"context": "The redemption context passed to this contract by the `redeemTokensOf(...)` function."
				},
				"returns": {
					"hookSpecifications": "The amount and data to send to redeem hooks (this contract) instead of returning to the beneficiary.",
					"redeemCount": "The amount of tokens that should be considered redeemed.",
					"redemptionRate": "The redemption rate influencing the reclaim amount.",
					"totalSupply": "The total amount of tokens that are considered to be existing."
				}
			},
			"constructor": {
				"params": {
					"directory": "A directory of terminals and controllers for projects.",
					"permissions": "A contract storing permissions.",
					"rulesets": "A contract storing and managing project rulesets.",
					"store": "The contract which stores the NFT's data.",
					"trustedForwarder": "The trusted forwarder for the ERC2771Context."
				}
			},
			"firstOwnerOf(uint256)": {
				"details": "This is generally the address which paid for the NFT.",
				"params": {
					"tokenId": "The token ID of the NFT to get the first owner of."
				},
				"returns": {
					"_0": "The address of the NFT's first owner."
				}
			},
			"getApproved(uint256)": {
				"details": "See {IERC721-getApproved}."
			},
			"initialize(uint256,string,string,string,address,string,((uint104,uint32,uint32,uint16,address,bytes32,uint24,uint8,bool,bool,bool,bool,bool,bool)[],uint32,uint8,address),(bool,bool,bool,bool))": {
				"params": {
					"baseUri": "The URI to use as a base for full NFT `tokenUri`s.",
					"contractUri": "A URI where this contract's metadata can be found.",
					"flags": "A set of additional options which dictate how the hook behaves.",
					"name": "The name of the NFT collection.",
					"projectId": "The ID of the project this this hook is associated with.",
					"symbol": "The symbol representing the NFT collection.",
					"tiersConfig": "The NFT tiers and pricing context to initialize the hook with. The tiers must be sorted by price (from least to greatest).",
					"tokenUriResolver": "An optional contract responsible for resolving the token URI for each NFT's token ID."
				}
			},
			"isApprovedForAll(address,address)": {
				"details": "See {IERC721-isApprovedForAll}."
			},
			"isTrustedForwarder(address)": {
				"details": "Indicates whether any particular address is the trusted forwarder."
			},
			"mintFor(uint16[],address)": {
				"params": {
					"beneficiary": "The address to mint to.",
					"tierIds": "The IDs of the tiers to mint from."
				},
				"returns": {
					"tokenIds": "The IDs of the newly minted tokens."
				}
			},
			"mintPendingReservesFor((uint32,uint16)[])": {
				"details": "\"Pending\" means that the NFTs have been reserved, but have not been minted yet.",
				"params": {
					"reserveMintConfigs": "Contains information about how many reserved tokens to mint for each tier."
				}
			},
			"mintPendingReservesFor(uint256,uint256)": {
				"details": "\"Pending\" means that the NFTs have been reserved, but have not been minted yet.",
				"params": {
					"count": "The number of reserved NFTs to mint.",
					"tierId": "The ID of the tier to mint reserved NFTs from."
				}
			},
			"name()": {
				"details": "See {IERC721Metadata-name}."
			},
			"owner()": {
				"returns": {
					"_0": "owner The owner's address."
				}
			},
			"ownerOf(uint256)": {
				"details": "See {IERC721-ownerOf}."
			},
			"pricingContext()": {
				"details": "If the `prices` contract is the zero address, this contract only accepts payments in the `currency` token.",
				"returns": {
					"currency": "The currency used for tier prices.",
					"decimals": "The amount of decimals being used in tier prices.",
					"prices": "The prices contract used to resolve the value of payments in currencies other than `currency`."
				}
			},
			"redemptionWeightOf(uint256[],(address,address,uint256,uint256,uint256,uint256,(address,uint8,uint32,uint256),bool,uint256,bytes))": {
				"details": "An NFT's redemption weight is its price.To get their relative redemption weight, divide the result by the `totalRedemptionWeight(...)`.",
				"params": {
					"tokenIds": "The token IDs of the NFTs to get the cumulative redemption weight of."
				},
				"returns": {
					"_0": "weight The redemption weight of the tokenIds."
				}
			},
			"safeTransferFrom(address,address,uint256)": {
				"details": "See {IERC721-safeTransferFrom}."
			},
			"safeTransferFrom(address,address,uint256,bytes)": {
				"details": "See {IERC721-safeTransferFrom}."
			},
			"setApprovalForAll(address,bool)": {
				"details": "See {IERC721-setApprovalForAll}."
			},
			"setDiscountPercentOf(uint256,uint256)": {
				"details": "Only the contract's owner or an operator with the `SET_721_DISCOUNT_PERCENT` permission from the owner can adjust the tiers.",
				"params": {
					"discountPercent": "The discount percent to set.",
					"tierId": "The ID of the tier to set the discount of."
				}
			},
			"setDiscountPercentsOf((uint32,uint16)[])": {
				"params": {
					"configs": "The configs to set the discount percent for."
				}
			},
			"setMetadata(string,string,address,uint256,bytes32)": {
				"details": "Only this contract's owner can set the metadata.",
				"params": {
					"baseUri": "The new base URI.",
					"contractUri": "The new contract URI.",
					"encodedIPFSTUriTierId": "The ID of the tier to set the encoded IPFS URI of.",
					"encodedIPFSUri": "The encoded IPFS URI to set.",
					"tokenUriResolver": "The new URI resolver."
				}
			},
			"setPermissionId(uint8)": {
				"params": {
					"permissionId": "The ID of the permission to use for `onlyOwner`."
				}
			},
			"supportsInterface(bytes4)": {
				"details": "See {IERC165-supportsInterface}.",
				"params": {
					"interfaceId": "The ID of the interface to check for adherence to."
				}
			},
			"symbol()": {
				"details": "See {IERC721Metadata-symbol}."
			},
			"tokenURI(uint256)": {
				"details": "Defers to the `tokenUriResolver` if it is set. Otherwise, use the `tokenUri` corresponding with the NFT's tier.",
				"params": {
					"tokenId": "The token ID of the NFT to get the metadata URI of."
				},
				"returns": {
					"_0": "The token URI from the `tokenUriResolver` if it is set. If it isn't set, the token URI for the NFT's tier."
				}
			},
			"totalRedemptionWeight((address,address,uint256,uint256,uint256,uint256,(address,uint8,uint32,uint256),bool,uint256,bytes))": {
				"details": "An NFT's redemption weight is its price.",
				"returns": {
					"_0": "weight The total redemption weight."
				}
			},
			"transferFrom(address,address,uint256)": {
				"details": "See {IERC721-transferFrom}."
			},
			"transferOwnership(address)": {
				"params": {
					"newOwner": "The address that should receive ownership of this contract."
				}
			},
			"transferOwnershipToProject(uint256)": {
				"details": "The `projectId` must fit within a `uint88`.",
				"params": {
					"projectId": "The ID of the project that should receive ownership of this contract."
				}
			},
			"trustedForwarder()": {
				"details": "Returns the address of the trusted forwarder."
			}
		},
		"version": 1
	},
	"userdoc": {
		"kind": "user",
		"methods": {
			"DIRECTORY()": {
				"notice": "The directory of terminals and controllers for projects."
			},
			"METADATA_ID_TARGET()": {
				"notice": "The ID used when parsing metadata."
			},
			"PERMISSIONS()": {
				"notice": "A contract storing permissions."
			},
			"PROJECTS()": {
				"notice": "Mints ERC-721s that represent project ownership and transfers."
			},
			"PROJECT_ID()": {
				"notice": "The ID of the project that this contract is associated with."
			},
			"RULESETS()": {
				"notice": "The contract storing and managing project rulesets."
			},
			"STORE()": {
				"notice": "The contract that stores and manages data for this contract's NFTs."
			},
			"adjustTiers((uint104,uint32,uint32,uint16,address,bytes32,uint24,uint8,bool,bool,bool,bool,bool,bool)[],uint256[])": {
				"notice": "Add or delete tiers."
			},
			"afterPayRecordedWith((address,uint256,uint256,(address,uint8,uint32,uint256),(address,uint8,uint32,uint256),uint256,uint256,address,bytes,bytes))": {
				"notice": "Mints one or more NFTs to the `context.benficiary` upon payment if conditions are met. Part of `IJBPayHook`."
			},
			"afterRedeemRecordedWith((address,uint256,uint256,uint256,(address,uint8,uint32,uint256),(address,uint8,uint32,uint256),uint256,address,bytes,bytes))": {
				"notice": "Burns the specified NFTs upon token holder redemption, reclaiming funds from the project's balance for `context.beneficiary`. Part of `IJBRedeemHook`."
			},
			"balanceOf(address)": {
				"notice": "The total number of this hook's NFTs that an address holds (from all tiers)."
			},
			"baseURI()": {
				"notice": "The base URI for the NFT `tokenUris`."
			},
			"beforePayRecordedWith((address,address,(address,uint8,uint32,uint256),uint256,uint256,address,uint256,uint256,bytes))": {
				"notice": "The data calculated before a payment is recorded in the terminal store. This data is provided to the terminal's `pay(...)` transaction."
			},
			"beforeRedeemRecordedWith((address,address,uint256,uint256,uint256,uint256,(address,uint8,uint32,uint256),bool,uint256,bytes))": {
				"notice": "The data calculated before a redemption is recorded in the terminal store. This data is provided to the terminal's `redeemTokensOf(...)` transaction."
			},
			"contractURI()": {
				"notice": "This contract's metadata URI."
			},
			"firstOwnerOf(uint256)": {
				"notice": "The first owner of an NFT."
			},
			"hasMintPermissionFor(uint256,address)": {
				"notice": "Required by the IJBRulesetDataHook interfaces. Return false to not leak any permissions."
			},
			"initialize(uint256,string,string,string,address,string,((uint104,uint32,uint32,uint16,address,bytes32,uint24,uint8,bool,bool,bool,bool,bool,bool)[],uint32,uint8,address),(bool,bool,bool,bool))": {
				"notice": "Initializes a cloned copy of the original `JB721Hook` contract."
			},
			"jbOwner()": {
				"notice": "This contract's owner information."
			},
			"mintFor(uint16[],address)": {
				"notice": "Manually mint NFTs from the provided tiers ."
			},
			"mintPendingReservesFor((uint32,uint16)[])": {
				"notice": "Mint pending reserved NFTs based on the provided information."
			},
			"mintPendingReservesFor(uint256,uint256)": {
				"notice": "Mint reserved pending reserved NFTs within the provided tier."
			},
			"owner()": {
				"notice": "Returns the owner's address based on this contract's `JBOwner` owner information."
			},
			"payCreditsOf(address)": {
				"notice": "If an address pays more than the price of the NFT they received, the extra amount is stored as credits which can be redeemed to mint NFTs."
			},
			"pricingContext()": {
				"notice": "Context for the pricing of this hook's tiers."
			},
			"redemptionWeightOf(uint256[],(address,address,uint256,uint256,uint256,uint256,(address,uint8,uint32,uint256),bool,uint256,bytes))": {
				"notice": "The combined redemption weight of the NFTs with the specified token IDs."
			},
			"renounceOwnership()": {
				"notice": "Gives up ownership of this contract, making it impossible to call `onlyOwner`/`_checkOwner` functions. Can only be called by the current owner."
			},
			"setDiscountPercentOf(uint256,uint256)": {
				"notice": "Allows the collection's owner to set the discount for a tier, if the tier allows it."
			},
			"setDiscountPercentsOf((uint32,uint16)[])": {
				"notice": "Allows the collection's owner to set the discount percent for multiple tiers."
			},
			"setMetadata(string,string,address,uint256,bytes32)": {
				"notice": "Update this hook's URI metadata properties."
			},
			"setPermissionId(uint8)": {
				"notice": "Sets the permission ID which, when granted from the owner, allows other addresses to perform operations on their behalf."
			},
			"supportsInterface(bytes4)": {
				"notice": "Indicates if this contract adheres to the specified interface."
			},
			"tokenURI(uint256)": {
				"notice": "The metadata URI of the NFT with the specified token ID."
			},
			"totalRedemptionWeight((address,address,uint256,uint256,uint256,uint256,(address,uint8,uint32,uint256),bool,uint256,bytes))": {
				"notice": "The combined redemption weight of all outstanding NFTs."
			},
			"transferOwnership(address)": {
				"notice": "Transfers ownership of this contract to a new account (the `newOwner`). Can only be called by the current owner."
			},
			"transferOwnershipToProject(uint256)": {
				"notice": "Transfer ownership of this contract to a new Juicebox project."
			}
		},
		"version": 1
	},
	"gitCommit": "4c5a6a4ff88604a9c0a981284b933b4e7757161c",
	"sourceName": "src/JB721TiersHook.sol",
	"chainId": "11155111",
	"linkReferences": {},
	"deployedLinkReferences": {},
	"history": []
}