{
	"_format": "sphinx-sol-ct-artifact-1",
	"merkleRoot": "0x9b2a7772ac90717ac3cfd8722dcbd5d7c229621c054f20de62c807da0157ab6d",
	"address": "0x839aed2d82ac5eb5041a25815f8581882472639d",
	"sourceName": "src/JB721TiersHook.sol",
	"contractName": "JB721TiersHook",
	"chainId": "0xaa37dc",
	"abi": [
		{
			"inputs": [
				{
					"internalType": "contract IJBDirectory",
					"name": "directory",
					"type": "address"
				},
				{
					"internalType": "contract IJBPermissions",
					"name": "permissions",
					"type": "address"
				},
				{
					"internalType": "contract IJBRulesets",
					"name": "rulesets",
					"type": "address"
				},
				{
					"internalType": "contract IJB721TiersHookStore",
					"name": "store",
					"type": "address"
				},
				{
					"internalType": "address",
					"name": "trustedForwarder",
					"type": "address"
				}
			],
			"stateMutability": "nonpayable",
			"type": "constructor"
		},
		{
			"inputs": [],
			"name": "DIRECTORY",
			"outputs": [
				{
					"internalType": "contract IJBDirectory",
					"name": "",
					"type": "address"
				}
			],
			"stateMutability": "view",
			"type": "function"
		},
		{
			"inputs": [],
			"name": "METADATA_ID_TARGET",
			"outputs": [
				{
					"internalType": "address",
					"name": "",
					"type": "address"
				}
			],
			"stateMutability": "view",
			"type": "function"
		},
		{
			"inputs": [],
			"name": "PERMISSIONS",
			"outputs": [
				{
					"internalType": "contract IJBPermissions",
					"name": "",
					"type": "address"
				}
			],
			"stateMutability": "view",
			"type": "function"
		},
		{
			"inputs": [],
			"name": "PROJECTS",
			"outputs": [
				{
					"internalType": "contract IJBProjects",
					"name": "",
					"type": "address"
				}
			],
			"stateMutability": "view",
			"type": "function"
		},
		{
			"inputs": [],
			"name": "PROJECT_ID",
			"outputs": [
				{
					"internalType": "uint256",
					"name": "",
					"type": "uint256"
				}
			],
			"stateMutability": "view",
			"type": "function"
		},
		{
			"inputs": [],
			"name": "RULESETS",
			"outputs": [
				{
					"internalType": "contract IJBRulesets",
					"name": "",
					"type": "address"
				}
			],
			"stateMutability": "view",
			"type": "function"
		},
		{
			"inputs": [],
			"name": "STORE",
			"outputs": [
				{
					"internalType": "contract IJB721TiersHookStore",
					"name": "",
					"type": "address"
				}
			],
			"stateMutability": "view",
			"type": "function"
		},
		{
			"inputs": [
				{
					"components": [
						{
							"internalType": "uint104",
							"name": "price",
							"type": "uint104"
						},
						{
							"internalType": "uint32",
							"name": "initialSupply",
							"type": "uint32"
						},
						{
							"internalType": "uint32",
							"name": "votingUnits",
							"type": "uint32"
						},
						{
							"internalType": "uint16",
							"name": "reserveFrequency",
							"type": "uint16"
						},
						{
							"internalType": "address",
							"name": "reserveBeneficiary",
							"type": "address"
						},
						{
							"internalType": "bytes32",
							"name": "encodedIPFSUri",
							"type": "bytes32"
						},
						{
							"internalType": "uint24",
							"name": "category",
							"type": "uint24"
						},
						{
							"internalType": "uint8",
							"name": "discountPercent",
							"type": "uint8"
						},
						{
							"internalType": "bool",
							"name": "allowOwnerMint",
							"type": "bool"
						},
						{
							"internalType": "bool",
							"name": "useReserveBeneficiaryAsDefault",
							"type": "bool"
						},
						{
							"internalType": "bool",
							"name": "transfersPausable",
							"type": "bool"
						},
						{
							"internalType": "bool",
							"name": "useVotingUnits",
							"type": "bool"
						},
						{
							"internalType": "bool",
							"name": "cannotBeRemoved",
							"type": "bool"
						},
						{
							"internalType": "bool",
							"name": "cannotIncreaseDiscountPercent",
							"type": "bool"
						}
					],
					"internalType": "struct JB721TierConfig[]",
					"name": "tiersToAdd",
					"type": "tuple[]"
				},
				{
					"internalType": "uint256[]",
					"name": "tierIdsToRemove",
					"type": "uint256[]"
				}
			],
			"name": "adjustTiers",
			"outputs": [],
			"stateMutability": "nonpayable",
			"type": "function"
		},
		{
			"inputs": [
				{
					"components": [
						{
							"internalType": "address",
							"name": "holder",
							"type": "address"
						},
						{
							"internalType": "uint256",
							"name": "projectId",
							"type": "uint256"
						},
						{
							"internalType": "uint256",
							"name": "rulesetId",
							"type": "uint256"
						},
						{
							"internalType": "uint256",
							"name": "cashOutCount",
							"type": "uint256"
						},
						{
							"components": [
								{
									"internalType": "address",
									"name": "token",
									"type": "address"
								},
								{
									"internalType": "uint8",
									"name": "decimals",
									"type": "uint8"
								},
								{
									"internalType": "uint32",
									"name": "currency",
									"type": "uint32"
								},
								{
									"internalType": "uint256",
									"name": "value",
									"type": "uint256"
								}
							],
							"internalType": "struct JBTokenAmount",
							"name": "reclaimedAmount",
							"type": "tuple"
						},
						{
							"components": [
								{
									"internalType": "address",
									"name": "token",
									"type": "address"
								},
								{
									"internalType": "uint8",
									"name": "decimals",
									"type": "uint8"
								},
								{
									"internalType": "uint32",
									"name": "currency",
									"type": "uint32"
								},
								{
									"internalType": "uint256",
									"name": "value",
									"type": "uint256"
								}
							],
							"internalType": "struct JBTokenAmount",
							"name": "forwardedAmount",
							"type": "tuple"
						},
						{
							"internalType": "uint256",
							"name": "cashOutTaxRate",
							"type": "uint256"
						},
						{
							"internalType": "address payable",
							"name": "beneficiary",
							"type": "address"
						},
						{
							"internalType": "bytes",
							"name": "hookMetadata",
							"type": "bytes"
						},
						{
							"internalType": "bytes",
							"name": "cashOutMetadata",
							"type": "bytes"
						}
					],
					"internalType": "struct JBAfterCashOutRecordedContext",
					"name": "context",
					"type": "tuple"
				}
			],
			"name": "afterCashOutRecordedWith",
			"outputs": [],
			"stateMutability": "payable",
			"type": "function"
		},
		{
			"inputs": [
				{
					"components": [
						{
							"internalType": "address",
							"name": "payer",
							"type": "address"
						},
						{
							"internalType": "uint256",
							"name": "projectId",
							"type": "uint256"
						},
						{
							"internalType": "uint256",
							"name": "rulesetId",
							"type": "uint256"
						},
						{
							"components": [
								{
									"internalType": "address",
									"name": "token",
									"type": "address"
								},
								{
									"internalType": "uint8",
									"name": "decimals",
									"type": "uint8"
								},
								{
									"internalType": "uint32",
									"name": "currency",
									"type": "uint32"
								},
								{
									"internalType": "uint256",
									"name": "value",
									"type": "uint256"
								}
							],
							"internalType": "struct JBTokenAmount",
							"name": "amount",
							"type": "tuple"
						},
						{
							"components": [
								{
									"internalType": "address",
									"name": "token",
									"type": "address"
								},
								{
									"internalType": "uint8",
									"name": "decimals",
									"type": "uint8"
								},
								{
									"internalType": "uint32",
									"name": "currency",
									"type": "uint32"
								},
								{
									"internalType": "uint256",
									"name": "value",
									"type": "uint256"
								}
							],
							"internalType": "struct JBTokenAmount",
							"name": "forwardedAmount",
							"type": "tuple"
						},
						{
							"internalType": "uint256",
							"name": "weight",
							"type": "uint256"
						},
						{
							"internalType": "uint256",
							"name": "newlyIssuedTokenCount",
							"type": "uint256"
						},
						{
							"internalType": "address",
							"name": "beneficiary",
							"type": "address"
						},
						{
							"internalType": "bytes",
							"name": "hookMetadata",
							"type": "bytes"
						},
						{
							"internalType": "bytes",
							"name": "payerMetadata",
							"type": "bytes"
						}
					],
					"internalType": "struct JBAfterPayRecordedContext",
					"name": "context",
					"type": "tuple"
				}
			],
			"name": "afterPayRecordedWith",
			"outputs": [],
			"stateMutability": "payable",
			"type": "function"
		},
		{
			"inputs": [
				{
					"internalType": "address",
					"name": "to",
					"type": "address"
				},
				{
					"internalType": "uint256",
					"name": "tokenId",
					"type": "uint256"
				}
			],
			"name": "approve",
			"outputs": [],
			"stateMutability": "nonpayable",
			"type": "function"
		},
		{
			"inputs": [
				{
					"internalType": "address",
					"name": "owner",
					"type": "address"
				}
			],
			"name": "balanceOf",
			"outputs": [
				{
					"internalType": "uint256",
					"name": "balance",
					"type": "uint256"
				}
			],
			"stateMutability": "view",
			"type": "function"
		},
		{
			"inputs": [],
			"name": "baseURI",
			"outputs": [
				{
					"internalType": "string",
					"name": "",
					"type": "string"
				}
			],
			"stateMutability": "view",
			"type": "function"
		},
		{
			"inputs": [
				{
					"components": [
						{
							"internalType": "address",
							"name": "terminal",
							"type": "address"
						},
						{
							"internalType": "address",
							"name": "holder",
							"type": "address"
						},
						{
							"internalType": "uint256",
							"name": "projectId",
							"type": "uint256"
						},
						{
							"internalType": "uint256",
							"name": "rulesetId",
							"type": "uint256"
						},
						{
							"internalType": "uint256",
							"name": "cashOutCount",
							"type": "uint256"
						},
						{
							"internalType": "uint256",
							"name": "totalSupply",
							"type": "uint256"
						},
						{
							"components": [
								{
									"internalType": "address",
									"name": "token",
									"type": "address"
								},
								{
									"internalType": "uint8",
									"name": "decimals",
									"type": "uint8"
								},
								{
									"internalType": "uint32",
									"name": "currency",
									"type": "uint32"
								},
								{
									"internalType": "uint256",
									"name": "value",
									"type": "uint256"
								}
							],
							"internalType": "struct JBTokenAmount",
							"name": "surplus",
							"type": "tuple"
						},
						{
							"internalType": "bool",
							"name": "useTotalSurplus",
							"type": "bool"
						},
						{
							"internalType": "uint256",
							"name": "cashOutTaxRate",
							"type": "uint256"
						},
						{
							"internalType": "bytes",
							"name": "metadata",
							"type": "bytes"
						}
					],
					"internalType": "struct JBBeforeCashOutRecordedContext",
					"name": "context",
					"type": "tuple"
				}
			],
			"name": "beforeCashOutRecordedWith",
			"outputs": [
				{
					"internalType": "uint256",
					"name": "cashOutTaxRate",
					"type": "uint256"
				},
				{
					"internalType": "uint256",
					"name": "cashOutCount",
					"type": "uint256"
				},
				{
					"internalType": "uint256",
					"name": "totalSupply",
					"type": "uint256"
				},
				{
					"components": [
						{
							"internalType": "contract IJBCashOutHook",
							"name": "hook",
							"type": "address"
						},
						{
							"internalType": "uint256",
							"name": "amount",
							"type": "uint256"
						},
						{
							"internalType": "bytes",
							"name": "metadata",
							"type": "bytes"
						}
					],
					"internalType": "struct JBCashOutHookSpecification[]",
					"name": "hookSpecifications",
					"type": "tuple[]"
				}
			],
			"stateMutability": "view",
			"type": "function"
		},
		{
			"inputs": [
				{
					"components": [
						{
							"internalType": "address",
							"name": "terminal",
							"type": "address"
						},
						{
							"internalType": "address",
							"name": "payer",
							"type": "address"
						},
						{
							"components": [
								{
									"internalType": "address",
									"name": "token",
									"type": "address"
								},
								{
									"internalType": "uint8",
									"name": "decimals",
									"type": "uint8"
								},
								{
									"internalType": "uint32",
									"name": "currency",
									"type": "uint32"
								},
								{
									"internalType": "uint256",
									"name": "value",
									"type": "uint256"
								}
							],
							"internalType": "struct JBTokenAmount",
							"name": "amount",
							"type": "tuple"
						},
						{
							"internalType": "uint256",
							"name": "projectId",
							"type": "uint256"
						},
						{
							"internalType": "uint256",
							"name": "rulesetId",
							"type": "uint256"
						},
						{
							"internalType": "address",
							"name": "beneficiary",
							"type": "address"
						},
						{
							"internalType": "uint256",
							"name": "weight",
							"type": "uint256"
						},
						{
							"internalType": "uint256",
							"name": "reservedPercent",
							"type": "uint256"
						},
						{
							"internalType": "bytes",
							"name": "metadata",
							"type": "bytes"
						}
					],
					"internalType": "struct JBBeforePayRecordedContext",
					"name": "context",
					"type": "tuple"
				}
			],
			"name": "beforePayRecordedWith",
			"outputs": [
				{
					"internalType": "uint256",
					"name": "weight",
					"type": "uint256"
				},
				{
					"components": [
						{
							"internalType": "contract IJBPayHook",
							"name": "hook",
							"type": "address"
						},
						{
							"internalType": "uint256",
							"name": "amount",
							"type": "uint256"
						},
						{
							"internalType": "bytes",
							"name": "metadata",
							"type": "bytes"
						}
					],
					"internalType": "struct JBPayHookSpecification[]",
					"name": "hookSpecifications",
					"type": "tuple[]"
				}
			],
			"stateMutability": "view",
			"type": "function"
		},
		{
			"inputs": [
				{
					"internalType": "uint256[]",
					"name": "tokenIds",
					"type": "uint256[]"
				},
				{
					"components": [
						{
							"internalType": "address",
							"name": "terminal",
							"type": "address"
						},
						{
							"internalType": "address",
							"name": "holder",
							"type": "address"
						},
						{
							"internalType": "uint256",
							"name": "projectId",
							"type": "uint256"
						},
						{
							"internalType": "uint256",
							"name": "rulesetId",
							"type": "uint256"
						},
						{
							"internalType": "uint256",
							"name": "cashOutCount",
							"type": "uint256"
						},
						{
							"internalType": "uint256",
							"name": "totalSupply",
							"type": "uint256"
						},
						{
							"components": [
								{
									"internalType": "address",
									"name": "token",
									"type": "address"
								},
								{
									"internalType": "uint8",
									"name": "decimals",
									"type": "uint8"
								},
								{
									"internalType": "uint32",
									"name": "currency",
									"type": "uint32"
								},
								{
									"internalType": "uint256",
									"name": "value",
									"type": "uint256"
								}
							],
							"internalType": "struct JBTokenAmount",
							"name": "surplus",
							"type": "tuple"
						},
						{
							"internalType": "bool",
							"name": "useTotalSurplus",
							"type": "bool"
						},
						{
							"internalType": "uint256",
							"name": "cashOutTaxRate",
							"type": "uint256"
						},
						{
							"internalType": "bytes",
							"name": "metadata",
							"type": "bytes"
						}
					],
					"internalType": "struct JBBeforeCashOutRecordedContext",
					"name": "",
					"type": "tuple"
				}
			],
			"name": "cashOutWeightOf",
			"outputs": [
				{
					"internalType": "uint256",
					"name": "",
					"type": "uint256"
				}
			],
			"stateMutability": "view",
			"type": "function"
		},
		{
			"inputs": [],
			"name": "contractURI",
			"outputs": [
				{
					"internalType": "string",
					"name": "",
					"type": "string"
				}
			],
			"stateMutability": "view",
			"type": "function"
		},
		{
			"inputs": [
				{
					"internalType": "uint256",
					"name": "tokenId",
					"type": "uint256"
				}
			],
			"name": "firstOwnerOf",
			"outputs": [
				{
					"internalType": "address",
					"name": "",
					"type": "address"
				}
			],
			"stateMutability": "view",
			"type": "function"
		},
		{
			"inputs": [
				{
					"internalType": "uint256",
					"name": "tokenId",
					"type": "uint256"
				}
			],
			"name": "getApproved",
			"outputs": [
				{
					"internalType": "address",
					"name": "",
					"type": "address"
				}
			],
			"stateMutability": "view",
			"type": "function"
		},
		{
			"inputs": [
				{
					"internalType": "uint256",
					"name": "",
					"type": "uint256"
				},
				{
					"internalType": "address",
					"name": "",
					"type": "address"
				}
			],
			"name": "hasMintPermissionFor",
			"outputs": [
				{
					"internalType": "bool",
					"name": "",
					"type": "bool"
				}
			],
			"stateMutability": "pure",
			"type": "function"
		},
		{
			"inputs": [
				{
					"internalType": "uint256",
					"name": "projectId",
					"type": "uint256"
				},
				{
					"internalType": "string",
					"name": "name",
					"type": "string"
				},
				{
					"internalType": "string",
					"name": "symbol",
					"type": "string"
				},
				{
					"internalType": "string",
					"name": "baseUri",
					"type": "string"
				},
				{
					"internalType": "contract IJB721TokenUriResolver",
					"name": "tokenUriResolver",
					"type": "address"
				},
				{
					"internalType": "string",
					"name": "contractUri",
					"type": "string"
				},
				{
					"components": [
						{
							"components": [
								{
									"internalType": "uint104",
									"name": "price",
									"type": "uint104"
								},
								{
									"internalType": "uint32",
									"name": "initialSupply",
									"type": "uint32"
								},
								{
									"internalType": "uint32",
									"name": "votingUnits",
									"type": "uint32"
								},
								{
									"internalType": "uint16",
									"name": "reserveFrequency",
									"type": "uint16"
								},
								{
									"internalType": "address",
									"name": "reserveBeneficiary",
									"type": "address"
								},
								{
									"internalType": "bytes32",
									"name": "encodedIPFSUri",
									"type": "bytes32"
								},
								{
									"internalType": "uint24",
									"name": "category",
									"type": "uint24"
								},
								{
									"internalType": "uint8",
									"name": "discountPercent",
									"type": "uint8"
								},
								{
									"internalType": "bool",
									"name": "allowOwnerMint",
									"type": "bool"
								},
								{
									"internalType": "bool",
									"name": "useReserveBeneficiaryAsDefault",
									"type": "bool"
								},
								{
									"internalType": "bool",
									"name": "transfersPausable",
									"type": "bool"
								},
								{
									"internalType": "bool",
									"name": "useVotingUnits",
									"type": "bool"
								},
								{
									"internalType": "bool",
									"name": "cannotBeRemoved",
									"type": "bool"
								},
								{
									"internalType": "bool",
									"name": "cannotIncreaseDiscountPercent",
									"type": "bool"
								}
							],
							"internalType": "struct JB721TierConfig[]",
							"name": "tiers",
							"type": "tuple[]"
						},
						{
							"internalType": "uint32",
							"name": "currency",
							"type": "uint32"
						},
						{
							"internalType": "uint8",
							"name": "decimals",
							"type": "uint8"
						},
						{
							"internalType": "contract IJBPrices",
							"name": "prices",
							"type": "address"
						}
					],
					"internalType": "struct JB721InitTiersConfig",
					"name": "tiersConfig",
					"type": "tuple"
				},
				{
					"components": [
						{
							"internalType": "bool",
							"name": "noNewTiersWithReserves",
							"type": "bool"
						},
						{
							"internalType": "bool",
							"name": "noNewTiersWithVotes",
							"type": "bool"
						},
						{
							"internalType": "bool",
							"name": "noNewTiersWithOwnerMinting",
							"type": "bool"
						},
						{
							"internalType": "bool",
							"name": "preventOverspending",
							"type": "bool"
						}
					],
					"internalType": "struct JB721TiersHookFlags",
					"name": "flags",
					"type": "tuple"
				}
			],
			"name": "initialize",
			"outputs": [],
			"stateMutability": "nonpayable",
			"type": "function"
		},
		{
			"inputs": [
				{
					"internalType": "address",
					"name": "owner",
					"type": "address"
				},
				{
					"internalType": "address",
					"name": "operator",
					"type": "address"
				}
			],
			"name": "isApprovedForAll",
			"outputs": [
				{
					"internalType": "bool",
					"name": "",
					"type": "bool"
				}
			],
			"stateMutability": "view",
			"type": "function"
		},
		{
			"inputs": [
				{
					"internalType": "address",
					"name": "forwarder",
					"type": "address"
				}
			],
			"name": "isTrustedForwarder",
			"outputs": [
				{
					"internalType": "bool",
					"name": "",
					"type": "bool"
				}
			],
			"stateMutability": "view",
			"type": "function"
		},
		{
			"inputs": [],
			"name": "jbOwner",
			"outputs": [
				{
					"internalType": "address",
					"name": "owner",
					"type": "address"
				},
				{
					"internalType": "uint88",
					"name": "projectId",
					"type": "uint88"
				},
				{
					"internalType": "uint8",
					"name": "permissionId",
					"type": "uint8"
				}
			],
			"stateMutability": "view",
			"type": "function"
		},
		{
			"inputs": [
				{
					"internalType": "uint16[]",
					"name": "tierIds",
					"type": "uint16[]"
				},
				{
					"internalType": "address",
					"name": "beneficiary",
					"type": "address"
				}
			],
			"name": "mintFor",
			"outputs": [
				{
					"internalType": "uint256[]",
					"name": "tokenIds",
					"type": "uint256[]"
				}
			],
			"stateMutability": "nonpayable",
			"type": "function"
		},
		{
			"inputs": [
				{
					"internalType": "uint256",
					"name": "tierId",
					"type": "uint256"
				},
				{
					"internalType": "uint256",
					"name": "count",
					"type": "uint256"
				}
			],
			"name": "mintPendingReservesFor",
			"outputs": [],
			"stateMutability": "nonpayable",
			"type": "function"
		},
		{
			"inputs": [
				{
					"components": [
						{
							"internalType": "uint32",
							"name": "tierId",
							"type": "uint32"
						},
						{
							"internalType": "uint16",
							"name": "count",
							"type": "uint16"
						}
					],
					"internalType": "struct JB721TiersMintReservesConfig[]",
					"name": "reserveMintConfigs",
					"type": "tuple[]"
				}
			],
			"name": "mintPendingReservesFor",
			"outputs": [],
			"stateMutability": "nonpayable",
			"type": "function"
		},
		{
			"inputs": [],
			"name": "name",
			"outputs": [
				{
					"internalType": "string",
					"name": "",
					"type": "string"
				}
			],
			"stateMutability": "view",
			"type": "function"
		},
		{
			"inputs": [],
			"name": "owner",
			"outputs": [
				{
					"internalType": "address",
					"name": "",
					"type": "address"
				}
			],
			"stateMutability": "view",
			"type": "function"
		},
		{
			"inputs": [
				{
					"internalType": "uint256",
					"name": "tokenId",
					"type": "uint256"
				}
			],
			"name": "ownerOf",
			"outputs": [
				{
					"internalType": "address",
					"name": "",
					"type": "address"
				}
			],
			"stateMutability": "view",
			"type": "function"
		},
		{
			"inputs": [
				{
					"internalType": "address",
					"name": "addr",
					"type": "address"
				}
			],
			"name": "payCreditsOf",
			"outputs": [
				{
					"internalType": "uint256",
					"name": "",
					"type": "uint256"
				}
			],
			"stateMutability": "view",
			"type": "function"
		},
		{
			"inputs": [],
			"name": "pricingContext",
			"outputs": [
				{
					"internalType": "uint256",
					"name": "currency",
					"type": "uint256"
				},
				{
					"internalType": "uint256",
					"name": "decimals",
					"type": "uint256"
				},
				{
					"internalType": "contract IJBPrices",
					"name": "prices",
					"type": "address"
				}
			],
			"stateMutability": "view",
			"type": "function"
		},
		{
			"inputs": [],
			"name": "renounceOwnership",
			"outputs": [],
			"stateMutability": "nonpayable",
			"type": "function"
		},
		{
			"inputs": [
				{
					"internalType": "address",
					"name": "from",
					"type": "address"
				},
				{
					"internalType": "address",
					"name": "to",
					"type": "address"
				},
				{
					"internalType": "uint256",
					"name": "tokenId",
					"type": "uint256"
				}
			],
			"name": "safeTransferFrom",
			"outputs": [],
			"stateMutability": "nonpayable",
			"type": "function"
		},
		{
			"inputs": [
				{
					"internalType": "address",
					"name": "from",
					"type": "address"
				},
				{
					"internalType": "address",
					"name": "to",
					"type": "address"
				},
				{
					"internalType": "uint256",
					"name": "tokenId",
					"type": "uint256"
				},
				{
					"internalType": "bytes",
					"name": "data",
					"type": "bytes"
				}
			],
			"name": "safeTransferFrom",
			"outputs": [],
			"stateMutability": "nonpayable",
			"type": "function"
		},
		{
			"inputs": [
				{
					"internalType": "address",
					"name": "operator",
					"type": "address"
				},
				{
					"internalType": "bool",
					"name": "approved",
					"type": "bool"
				}
			],
			"name": "setApprovalForAll",
			"outputs": [],
			"stateMutability": "nonpayable",
			"type": "function"
		},
		{
			"inputs": [
				{
					"internalType": "uint256",
					"name": "tierId",
					"type": "uint256"
				},
				{
					"internalType": "uint256",
					"name": "discountPercent",
					"type": "uint256"
				}
			],
			"name": "setDiscountPercentOf",
			"outputs": [],
			"stateMutability": "nonpayable",
			"type": "function"
		},
		{
			"inputs": [
				{
					"components": [
						{
							"internalType": "uint32",
							"name": "tierId",
							"type": "uint32"
						},
						{
							"internalType": "uint16",
							"name": "discountPercent",
							"type": "uint16"
						}
					],
					"internalType": "struct JB721TiersSetDiscountPercentConfig[]",
					"name": "configs",
					"type": "tuple[]"
				}
			],
			"name": "setDiscountPercentsOf",
			"outputs": [],
			"stateMutability": "nonpayable",
			"type": "function"
		},
		{
			"inputs": [
				{
					"internalType": "string",
					"name": "baseUri",
					"type": "string"
				},
				{
					"internalType": "string",
					"name": "contractUri",
					"type": "string"
				},
				{
					"internalType": "contract IJB721TokenUriResolver",
					"name": "tokenUriResolver",
					"type": "address"
				},
				{
					"internalType": "uint256",
					"name": "encodedIPFSTUriTierId",
					"type": "uint256"
				},
				{
					"internalType": "bytes32",
					"name": "encodedIPFSUri",
					"type": "bytes32"
				}
			],
			"name": "setMetadata",
			"outputs": [],
			"stateMutability": "nonpayable",
			"type": "function"
		},
		{
			"inputs": [
				{
					"internalType": "uint8",
					"name": "permissionId",
					"type": "uint8"
				}
			],
			"name": "setPermissionId",
			"outputs": [],
			"stateMutability": "nonpayable",
			"type": "function"
		},
		{
			"inputs": [
				{
					"internalType": "bytes4",
					"name": "interfaceId",
					"type": "bytes4"
				}
			],
			"name": "supportsInterface",
			"outputs": [
				{
					"internalType": "bool",
					"name": "",
					"type": "bool"
				}
			],
			"stateMutability": "view",
			"type": "function"
		},
		{
			"inputs": [],
			"name": "symbol",
			"outputs": [
				{
					"internalType": "string",
					"name": "",
					"type": "string"
				}
			],
			"stateMutability": "view",
			"type": "function"
		},
		{
			"inputs": [
				{
					"internalType": "uint256",
					"name": "tokenId",
					"type": "uint256"
				}
			],
			"name": "tokenURI",
			"outputs": [
				{
					"internalType": "string",
					"name": "",
					"type": "string"
				}
			],
			"stateMutability": "view",
			"type": "function"
		},
		{
			"inputs": [
				{
					"components": [
						{
							"internalType": "address",
							"name": "terminal",
							"type": "address"
						},
						{
							"internalType": "address",
							"name": "holder",
							"type": "address"
						},
						{
							"internalType": "uint256",
							"name": "projectId",
							"type": "uint256"
						},
						{
							"internalType": "uint256",
							"name": "rulesetId",
							"type": "uint256"
						},
						{
							"internalType": "uint256",
							"name": "cashOutCount",
							"type": "uint256"
						},
						{
							"internalType": "uint256",
							"name": "totalSupply",
							"type": "uint256"
						},
						{
							"components": [
								{
									"internalType": "address",
									"name": "token",
									"type": "address"
								},
								{
									"internalType": "uint8",
									"name": "decimals",
									"type": "uint8"
								},
								{
									"internalType": "uint32",
									"name": "currency",
									"type": "uint32"
								},
								{
									"internalType": "uint256",
									"name": "value",
									"type": "uint256"
								}
							],
							"internalType": "struct JBTokenAmount",
							"name": "surplus",
							"type": "tuple"
						},
						{
							"internalType": "bool",
							"name": "useTotalSurplus",
							"type": "bool"
						},
						{
							"internalType": "uint256",
							"name": "cashOutTaxRate",
							"type": "uint256"
						},
						{
							"internalType": "bytes",
							"name": "metadata",
							"type": "bytes"
						}
					],
					"internalType": "struct JBBeforeCashOutRecordedContext",
					"name": "",
					"type": "tuple"
				}
			],
			"name": "totalCashOutWeight",
			"outputs": [
				{
					"internalType": "uint256",
					"name": "",
					"type": "uint256"
				}
			],
			"stateMutability": "view",
			"type": "function"
		},
		{
			"inputs": [
				{
					"internalType": "address",
					"name": "from",
					"type": "address"
				},
				{
					"internalType": "address",
					"name": "to",
					"type": "address"
				},
				{
					"internalType": "uint256",
					"name": "tokenId",
					"type": "uint256"
				}
			],
			"name": "transferFrom",
			"outputs": [],
			"stateMutability": "nonpayable",
			"type": "function"
		},
		{
			"inputs": [
				{
					"internalType": "address",
					"name": "newOwner",
					"type": "address"
				}
			],
			"name": "transferOwnership",
			"outputs": [],
			"stateMutability": "nonpayable",
			"type": "function"
		},
		{
			"inputs": [
				{
					"internalType": "uint256",
					"name": "projectId",
					"type": "uint256"
				}
			],
			"name": "transferOwnershipToProject",
			"outputs": [],
			"stateMutability": "nonpayable",
			"type": "function"
		},
		{
			"inputs": [],
			"name": "trustedForwarder",
			"outputs": [
				{
					"internalType": "address",
					"name": "",
					"type": "address"
				}
			],
			"stateMutability": "view",
			"type": "function"
		},
		{
			"anonymous": false,
			"inputs": [
				{
					"indexed": true,
					"internalType": "uint256",
					"name": "amount",
					"type": "uint256"
				},
				{
					"indexed": true,
					"internalType": "uint256",
					"name": "newTotalCredits",
					"type": "uint256"
				},
				{
					"indexed": true,
					"internalType": "address",
					"name": "account",
					"type": "address"
				},
				{
					"indexed": false,
					"internalType": "address",
					"name": "caller",
					"type": "address"
				}
			],
			"name": "AddPayCredits",
			"type": "event"
		},
		{
			"anonymous": false,
			"inputs": [
				{
					"indexed": true,
					"internalType": "uint256",
					"name": "tierId",
					"type": "uint256"
				},
				{
					"components": [
						{
							"internalType": "uint104",
							"name": "price",
							"type": "uint104"
						},
						{
							"internalType": "uint32",
							"name": "initialSupply",
							"type": "uint32"
						},
						{
							"internalType": "uint32",
							"name": "votingUnits",
							"type": "uint32"
						},
						{
							"internalType": "uint16",
							"name": "reserveFrequency",
							"type": "uint16"
						},
						{
							"internalType": "address",
							"name": "reserveBeneficiary",
							"type": "address"
						},
						{
							"internalType": "bytes32",
							"name": "encodedIPFSUri",
							"type": "bytes32"
						},
						{
							"internalType": "uint24",
							"name": "category",
							"type": "uint24"
						},
						{
							"internalType": "uint8",
							"name": "discountPercent",
							"type": "uint8"
						},
						{
							"internalType": "bool",
							"name": "allowOwnerMint",
							"type": "bool"
						},
						{
							"internalType": "bool",
							"name": "useReserveBeneficiaryAsDefault",
							"type": "bool"
						},
						{
							"internalType": "bool",
							"name": "transfersPausable",
							"type": "bool"
						},
						{
							"internalType": "bool",
							"name": "useVotingUnits",
							"type": "bool"
						},
						{
							"internalType": "bool",
							"name": "cannotBeRemoved",
							"type": "bool"
						},
						{
							"internalType": "bool",
							"name": "cannotIncreaseDiscountPercent",
							"type": "bool"
						}
					],
					"indexed": false,
					"internalType": "struct JB721TierConfig",
					"name": "tier",
					"type": "tuple"
				},
				{
					"indexed": false,
					"internalType": "address",
					"name": "caller",
					"type": "address"
				}
			],
			"name": "AddTier",
			"type": "event"
		},
		{
			"anonymous": false,
			"inputs": [
				{
					"indexed": true,
					"internalType": "address",
					"name": "owner",
					"type": "address"
				},
				{
					"indexed": true,
					"internalType": "address",
					"name": "approved",
					"type": "address"
				},
				{
					"indexed": true,
					"internalType": "uint256",
					"name": "tokenId",
					"type": "uint256"
				}
			],
			"name": "Approval",
			"type": "event"
		},
		{
			"anonymous": false,
			"inputs": [
				{
					"indexed": true,
					"internalType": "address",
					"name": "owner",
					"type": "address"
				},
				{
					"indexed": true,
					"internalType": "address",
					"name": "operator",
					"type": "address"
				},
				{
					"indexed": false,
					"internalType": "bool",
					"name": "approved",
					"type": "bool"
				}
			],
			"name": "ApprovalForAll",
			"type": "event"
		},
		{
			"anonymous": false,
			"inputs": [
				{
					"indexed": true,
					"internalType": "uint256",
					"name": "tokenId",
					"type": "uint256"
				},
				{
					"indexed": true,
					"internalType": "uint256",
					"name": "tierId",
					"type": "uint256"
				},
				{
					"indexed": true,
					"internalType": "address",
					"name": "beneficiary",
					"type": "address"
				},
				{
					"indexed": false,
					"internalType": "uint256",
					"name": "totalAmountPaid",
					"type": "uint256"
				},
				{
					"indexed": false,
					"internalType": "address",
					"name": "caller",
					"type": "address"
				}
			],
			"name": "Mint",
			"type": "event"
		},
		{
			"anonymous": false,
			"inputs": [
				{
					"indexed": true,
					"internalType": "uint256",
					"name": "tokenId",
					"type": "uint256"
				},
				{
					"indexed": true,
					"internalType": "uint256",
					"name": "tierId",
					"type": "uint256"
				},
				{
					"indexed": true,
					"internalType": "address",
					"name": "beneficiary",
					"type": "address"
				},
				{
					"indexed": false,
					"internalType": "address",
					"name": "caller",
					"type": "address"
				}
			],
			"name": "MintReservedNft",
			"type": "event"
		},
		{
			"anonymous": false,
			"inputs": [
				{
					"indexed": true,
					"internalType": "address",
					"name": "previousOwner",
					"type": "address"
				},
				{
					"indexed": true,
					"internalType": "address",
					"name": "newOwner",
					"type": "address"
				},
				{
					"indexed": false,
					"internalType": "address",
					"name": "caller",
					"type": "address"
				}
			],
			"name": "OwnershipTransferred",
			"type": "event"
		},
		{
			"anonymous": false,
			"inputs": [
				{
					"indexed": false,
					"internalType": "uint8",
					"name": "newId",
					"type": "uint8"
				},
				{
					"indexed": false,
					"internalType": "address",
					"name": "caller",
					"type": "address"
				}
			],
			"name": "PermissionIdChanged",
			"type": "event"
		},
		{
			"anonymous": false,
			"inputs": [
				{
					"indexed": true,
					"internalType": "uint256",
					"name": "tierId",
					"type": "uint256"
				},
				{
					"indexed": false,
					"internalType": "address",
					"name": "caller",
					"type": "address"
				}
			],
			"name": "RemoveTier",
			"type": "event"
		},
		{
			"anonymous": false,
			"inputs": [
				{
					"indexed": true,
					"internalType": "string",
					"name": "baseUri",
					"type": "string"
				},
				{
					"indexed": false,
					"internalType": "address",
					"name": "caller",
					"type": "address"
				}
			],
			"name": "SetBaseUri",
			"type": "event"
		},
		{
			"anonymous": false,
			"inputs": [
				{
					"indexed": true,
					"internalType": "string",
					"name": "uri",
					"type": "string"
				},
				{
					"indexed": false,
					"internalType": "address",
					"name": "caller",
					"type": "address"
				}
			],
			"name": "SetContractUri",
			"type": "event"
		},
		{
			"anonymous": false,
			"inputs": [
				{
					"indexed": true,
					"internalType": "uint256",
					"name": "tierId",
					"type": "uint256"
				},
				{
					"indexed": false,
					"internalType": "uint256",
					"name": "discountPercent",
					"type": "uint256"
				},
				{
					"indexed": false,
					"internalType": "address",
					"name": "caller",
					"type": "address"
				}
			],
			"name": "SetDiscountPercent",
			"type": "event"
		},
		{
			"anonymous": false,
			"inputs": [
				{
					"indexed": true,
					"internalType": "uint256",
					"name": "tierId",
					"type": "uint256"
				},
				{
					"indexed": false,
					"internalType": "bytes32",
					"name": "encodedUri",
					"type": "bytes32"
				},
				{
					"indexed": false,
					"internalType": "address",
					"name": "caller",
					"type": "address"
				}
			],
			"name": "SetEncodedIPFSUri",
			"type": "event"
		},
		{
			"anonymous": false,
			"inputs": [
				{
					"indexed": true,
					"internalType": "contract IJB721TokenUriResolver",
					"name": "resolver",
					"type": "address"
				},
				{
					"indexed": false,
					"internalType": "address",
					"name": "caller",
					"type": "address"
				}
			],
			"name": "SetTokenUriResolver",
			"type": "event"
		},
		{
			"anonymous": false,
			"inputs": [
				{
					"indexed": true,
					"internalType": "address",
					"name": "from",
					"type": "address"
				},
				{
					"indexed": true,
					"internalType": "address",
					"name": "to",
					"type": "address"
				},
				{
					"indexed": true,
					"internalType": "uint256",
					"name": "tokenId",
					"type": "uint256"
				}
			],
			"name": "Transfer",
			"type": "event"
		},
		{
			"anonymous": false,
			"inputs": [
				{
					"indexed": true,
					"internalType": "uint256",
					"name": "amount",
					"type": "uint256"
				},
				{
					"indexed": true,
					"internalType": "uint256",
					"name": "newTotalCredits",
					"type": "uint256"
				},
				{
					"indexed": true,
					"internalType": "address",
					"name": "account",
					"type": "address"
				},
				{
					"indexed": false,
					"internalType": "address",
					"name": "caller",
					"type": "address"
				}
			],
			"name": "UsePayCredits",
			"type": "event"
		},
		{
			"inputs": [
				{
					"internalType": "address",
					"name": "sender",
					"type": "address"
				},
				{
					"internalType": "uint256",
					"name": "tokenId",
					"type": "uint256"
				},
				{
					"internalType": "address",
					"name": "owner",
					"type": "address"
				}
			],
			"name": "ERC721IncorrectOwner",
			"type": "error"
		},
		{
			"inputs": [
				{
					"internalType": "address",
					"name": "operator",
					"type": "address"
				},
				{
					"internalType": "uint256",
					"name": "tokenId",
					"type": "uint256"
				}
			],
			"name": "ERC721InsufficientApproval",
			"type": "error"
		},
		{
			"inputs": [
				{
					"internalType": "address",
					"name": "approver",
					"type": "address"
				}
			],
			"name": "ERC721InvalidApprover",
			"type": "error"
		},
		{
			"inputs": [
				{
					"internalType": "address",
					"name": "operator",
					"type": "address"
				}
			],
			"name": "ERC721InvalidOperator",
			"type": "error"
		},
		{
			"inputs": [
				{
					"internalType": "address",
					"name": "owner",
					"type": "address"
				}
			],
			"name": "ERC721InvalidOwner",
			"type": "error"
		},
		{
			"inputs": [
				{
					"internalType": "address",
					"name": "receiver",
					"type": "address"
				}
			],
			"name": "ERC721InvalidReceiver",
			"type": "error"
		},
		{
			"inputs": [
				{
					"internalType": "address",
					"name": "sender",
					"type": "address"
				}
			],
			"name": "ERC721InvalidSender",
			"type": "error"
		},
		{
			"inputs": [
				{
					"internalType": "uint256",
					"name": "tokenId",
					"type": "uint256"
				}
			],
			"name": "ERC721NonexistentToken",
			"type": "error"
		},
		{
			"inputs": [],
			"name": "JB721Hook_InvalidCashOut",
			"type": "error"
		},
		{
			"inputs": [],
			"name": "JB721Hook_InvalidPay",
			"type": "error"
		},
		{
			"inputs": [
				{
					"internalType": "uint256",
					"name": "tokenId",
					"type": "uint256"
				},
				{
					"internalType": "address",
					"name": "holder",
					"type": "address"
				}
			],
			"name": "JB721Hook_UnauthorizedToken",
			"type": "error"
		},
		{
			"inputs": [],
			"name": "JB721Hook_UnexpectedTokenCashedOut",
			"type": "error"
		},
		{
			"inputs": [
				{
					"internalType": "uint256",
					"name": "projectId",
					"type": "uint256"
				}
			],
			"name": "JB721TiersHook_AlreadyInitialized",
			"type": "error"
		},
		{
			"inputs": [],
			"name": "JB721TiersHook_MintReserveNftsPaused",
			"type": "error"
		},
		{
			"inputs": [],
			"name": "JB721TiersHook_NoProjectId",
			"type": "error"
		},
		{
			"inputs": [
				{
					"internalType": "uint256",
					"name": "leftoverAmount",
					"type": "uint256"
				}
			],
			"name": "JB721TiersHook_Overspending",
			"type": "error"
		},
		{
			"inputs": [],
			"name": "JB721TiersHook_TierTransfersPaused",
			"type": "error"
		},
		{
			"inputs": [],
			"name": "JBOwnableOverrides_InvalidNewOwner",
			"type": "error"
		},
		{
			"inputs": [
				{
					"internalType": "address",
					"name": "account",
					"type": "address"
				},
				{
					"internalType": "address",
					"name": "sender",
					"type": "address"
				},
				{
					"internalType": "uint256",
					"name": "projectId",
					"type": "uint256"
				},
				{
					"internalType": "uint256",
					"name": "permissionId",
					"type": "uint256"
				}
			],
			"name": "JBPermissioned_Unauthorized",
			"type": "error"
		},
		{
			"inputs": [
				{
					"internalType": "uint256",
					"name": "x",
					"type": "uint256"
				},
				{
					"internalType": "uint256",
					"name": "y",
					"type": "uint256"
				},
				{
					"internalType": "uint256",
					"name": "denominator",
					"type": "uint256"
				}
			],
			"name": "PRBMath_MulDiv_Overflow",
			"type": "error"
		}
	],
	"args": [],
	"solcInputHash": "8d3383efdfc37289b20ecc73f7b6d2b1",
	"bytecode": "0x61016060405234801562000011575f80fd5b506040516200616638038062006166833981016040819052620000349162000392565b848185876001600160a01b031663293c49996040518163ffffffff1660e01b8152600401602060405180830381865afa15801562000074573d5f803e3d5ffd5b505050506040513d601f19601f820116820180604052508101906200009a91906200040e565b6001600160a01b03828116608052811660a052335f8383838381620000d25760405163f854950960e01b815260040160405180910390fd5b620000de828262000115565b5050506001600160a01b0395861660c0525050505091811660e0523061010052938416610120525050166101405250620004339050565b6001600160581b038116158015906200013657506001600160a01b03821615155b15620001555760405163f854950960e01b815260040160405180910390fd5b604080516060810182525f80546001600160a01b0381168352600160a01b81046001600160581b031660208401819052600160f81b90910460ff1693830193909352909115620002215760a05160208301516040516331a9108f60e11b81526001600160581b0390911660048201526001600160a01b0390911690636352211e90602401602060405180830381865afa158015620001f5573d5f803e3d5ffd5b505050506040513d601f19601f820116820180604052508101906200021b91906200040e565b62000224565b81515b604080516060810182526001600160a01b0387168082526001600160581b038716602083018190525f9290930182905281547fff000000000000000000000000000000000000000000000000000000000000001617600160a01b909202919091176001600160f81b0316905590506200029f818585620002a5565b50505050565b6001600160581b03811615620003315760a0516040516331a9108f60e11b81526001600160581b03831660048201526001600160a01b0390911690636352211e90602401602060405180830381865afa15801562000305573d5f803e3d5ffd5b505050506040513d601f19601f820116820180604052508101906200032b91906200040e565b62000333565b815b6040513381526001600160a01b03918216918516907fc8894f26f396ce8c004245c8b7cd1b92103a6e4302fcbab883987149ac01b7ec9060200160405180910390a3505050565b6001600160a01b03811681146200038f575f80fd5b50565b5f805f805f60a08688031215620003a7575f80fd5b8551620003b4816200037a565b6020870151909550620003c7816200037a565b6040870151909450620003da816200037a565b6060870151909350620003ed816200037a565b608087015190925062000400816200037a565b809150509295509295909350565b5f602082840312156200041f575f80fd5b81516200042c816200037a565b9392505050565b60805160a05160c05160e051610100516101205161014051615bfa6200056c5f395f818161051a01528181610d9d01528181610e1d0152818161106201528181611141015281816112660152818161130201528181611422015281816114c6015281816116bd01528181611c0001528181611d8e01528181611f0e01528181611f92015281816124ed015281816129a701528181612a2a01528181612b9f01528181612c660152818161349501526137f301525f81816108ee0152612d3401525f81816109a701528181611a6501528181612125015261258c01525f81816106f001528181610b69015261199f01525f818161058c015281816106bb015261358d01525f81816104a90152818161181801528181612e6e01528181612fad0152613a8301525f81816109f901526128900152615bfa5ff3fe608060405260043610610303575f3560e01c8063715018a611610191578063c22903b2116100dc578063e8a3d48511610087578063f2fde38b11610062578063f2fde38b146109c9578063f434c914146109e8578063fb82b1b014610a1b575f80fd5b8063e8a3d4851461093b578063e985e9c51461094f578063edab09b914610996575f80fd5b8063d102134c116100b7578063d102134c146108be578063d4a1b4b1146108dd578063d95c9ae214610910575f80fd5b8063c22903b21461086d578063c87b56dd14610880578063cf7f49361461089f575f80fd5b80639c2c6a021161013c578063b88d4fde11610117578063b88d4fde146107c4578063ba23c36e146107e3578063c0fb5e851461084e575f80fd5b80639c2c6a0214610767578063a220d69614610786578063a22cb465146107a5575f80fd5b80638cc358461161016c5780638cc35846146107125780638da5cb5b1461073f57806395d89b4114610753575f80fd5b8063715018a6146106995780637da0a877146106ad57806388bc2ef3146106df575f80fd5b8063462e3af8116102515780636352211e116101fc5780636ac6d941116101d75780636ac6d9411461063a5780636c0360eb1461066657806370a082311461067a575f80fd5b80636352211e146105db578063677ce088146105fa57806369f729701461061b575f80fd5b806356539f391161022c57806356539f391461055b578063572b6c0514610570578063613b856d146105bc575f80fd5b8063462e3af8146104ea578063507f14651461050957806354c6d1f51461053c575f80fd5b80631435aad5116102b15780632483d6b51161028c5780632483d6b514610479578063293c49991461049857806342842e0e146104cb575f80fd5b80631435aad51461040e5780631da1da721461042d57806323b872dd1461045a575f80fd5b806308786b1a116102e157806308786b1a14610393578063095ea7b3146103da5780631337f986146103fb575f80fd5b806301ffc9a71461030757806306fdde031461033b578063081812fc1461035c575b5f80fd5b348015610312575f80fd5b50610326610321366004614021565b610a4a565b60405190151581526020015b60405180910390f35b348015610346575f80fd5b5061034f610a74565b6040516103329190614089565b348015610367575f80fd5b5061037b61037636600461409b565b610b04565b6040516001600160a01b039091168152602001610332565b34801561039e575f80fd5b50600c5463ffffffff811690602081901c60ff169060281c6040805193845260208401929092526001600160a01b031690820152606001610332565b3480156103e5575f80fd5b506103f96103f43660046140d6565b610b2b565b005b6103f9610409366004614117565b610b41565b348015610419575f80fd5b506103f9610428366004614187565b610c12565b348015610438575f80fd5b5061044c610447366004614227565b610e06565b604051908152602001610332565b348015610465575f80fd5b506103f9610474366004614259565b610e8f565b348015610484575f80fd5b506103f9610493366004614297565b610f24565b3480156104a3575f80fd5b5061037b7f000000000000000000000000000000000000000000000000000000000000000081565b3480156104d6575f80fd5b506103f96104e5366004614259565b610f43565b3480156104f5575f80fd5b506103f96105043660046146fa565b610f62565b348015610514575f80fd5b5061037b7f000000000000000000000000000000000000000000000000000000000000000081565b348015610547575f80fd5b5061037b61055636600461409b565b6111bc565b348015610566575f80fd5b5061044c60075481565b34801561057b575f80fd5b5061032661058a3660046147ee565b7f00000000000000000000000000000000000000000000000000000000000000006001600160a01b0390811691161490565b3480156105c7575f80fd5b506103f96105d6366004614297565b6111fe565b3480156105e6575f80fd5b5061037b6105f536600461409b565b6113ff565b348015610605575f80fd5b50610326610614366004614809565b5f92915050565b348015610626575f80fd5b5061044c610635366004614837565b611409565b348015610645575f80fd5b5061065961065436600461492b565b611498565b60405161033291906149b8565b348015610671575f80fd5b5061034f61160a565b348015610685575f80fd5b5061044c6106943660046147ee565b611696565b3480156106a4575f80fd5b506103f96116ee565b3480156106b8575f80fd5b507f000000000000000000000000000000000000000000000000000000000000000061037b565b3480156106ea575f80fd5b5061037b7f000000000000000000000000000000000000000000000000000000000000000081565b34801561071d575f80fd5b5061073161072c3660046149ca565b611702565b604051610332929190614a02565b34801561074a575f80fd5b5061037b6117a5565b34801561075e575f80fd5b5061034f61188f565b348015610772575f80fd5b506103f9610781366004614ad2565b61189e565b348015610791575f80fd5b506103f96107a036600461409b565b6118f7565b3480156107b0575f80fd5b506103f96107bf366004614b11565b61193d565b3480156107cf575f80fd5b506103f96107de366004614b3d565b61194f565b3480156107ee575f80fd5b505f5461081e906001600160a01b03811690600160a01b81046001600160581b031690600160f81b900460ff1683565b604080516001600160a01b0390941684526001600160581b03909216602084015260ff1690820152606001610332565b348015610859575f80fd5b506103f9610868366004614bb8565b611966565b6103f961087b366004614117565b611977565b34801561088b575f80fd5b5061034f61089a36600461409b565b611bde565b3480156108aa575f80fd5b506103f96108b9366004614ad2565b611e08565b3480156108c9575f80fd5b506103f96108d8366004614bd3565b611e6c565b3480156108e8575f80fd5b5061037b7f000000000000000000000000000000000000000000000000000000000000000081565b34801561091b575f80fd5b5061044c61092a3660046147ee565b600a6020525f908152604090205481565b348015610946575f80fd5b5061034f612091565b34801561095a575f80fd5b50610326610969366004614c66565b6001600160a01b039182165f90815260066020908152604080832093909416825291909152205460ff1690565b3480156109a1575f80fd5b5061037b7f000000000000000000000000000000000000000000000000000000000000000081565b3480156109d4575f80fd5b506103f96109e33660046147ee565b61209e565b3480156109f3575f80fd5b5061037b7f000000000000000000000000000000000000000000000000000000000000000081565b348015610a26575f80fd5b50610a3a610a35366004614227565b6120d7565b6040516103329493929190614c92565b5f6001600160e01b03198216637aa81e7b60e01b1480610a6e5750610a6e82612258565b92915050565b606060018054610a8390614d30565b80601f0160208091040260200160405190810160405280929190818152602001828054610aaf90614d30565b8015610afa5780601f10610ad157610100808354040283529160200191610afa565b820191905f5260205f20905b815481529060010190602001808311610add57829003601f168201915b5050505050905090565b5f610b0e826122e8565b505f828152600560205260409020546001600160a01b0316610a6e565b610b3d8282610b38612320565b61232e565b5050565b60075434151580610bdc5750604051636e49181f60e01b8152600481018290523360248201527f00000000000000000000000000000000000000000000000000000000000000006001600160a01b031690636e49181f90604401602060405180830381865afa158015610bb6573d5f803e3d5ffd5b505050506040513d601f19601f82011682018060405250810190610bda9190614d6d565b155b80610beb575080826020013514155b15610c0957604051633fb648ad60e11b815260040160405180910390fd5b610b3d8261233b565b610c27610c1d6117a5565b6007546015612825565b8515610c98576008610c3a878983614dcc565b508686604051610c4b929190614e86565b60405180910390207f7bc9110d5de090dd59e07912d2b93a5a27ac70a60c8d8e324db4f9ee8b8b5c13610c7c612320565b6040516001600160a01b03909116815260200160405180910390a25b8315610d09576009610cab858783614dcc565b508484604051610cbc929190614e86565b60405180910390207fd36dc0c1a06103fdcaf15f3f6fb797d1a97997514c78de073640c8b5005454b8610ced612320565b6040516001600160a01b03909116815260200160405180910390a25b6001600160a01b0383163014610d2257610d228361293a565b8115801590610d3057508015155b15610dfd57817f677da4fed654db8e604791fa2582f342e2001aa217e27f6985eb3e0f67e5a7fc82610d60612320565b604080519283526001600160a01b0390911660208301520160405180910390a26040516324de8d6360e11b815260048101839052602481018290527f00000000000000000000000000000000000000000000000000000000000000006001600160a01b0316906349bd1ac6906044015f604051808303815f87803b158015610de6575f80fd5b505af1158015610df8573d5f803e3d5ffd5b505050505b50505050505050565b6040516349e6fb6760e01b81523060048201525f907f00000000000000000000000000000000000000000000000000000000000000006001600160a01b0316906349e6fb67906024015b602060405180830381865afa158015610e6b573d5f803e3d5ffd5b505050506040513d601f19601f82011682018060405250810190610a6e9190614e95565b6001600160a01b038216610ebd57604051633250574960e11b81525f60048201526024015b60405180910390fd5b5f610ed08383610ecb612320565b6129fb565b9050836001600160a01b0316816001600160a01b031614610f1e576040516364283d7b60e01b81526001600160a01b0380861660048301526024820184905282166044820152606401610eb4565b50505050565b610f39610f2f6117a5565b6007546017612825565b610b3d8282612bfe565b610f5d83838360405180602001604052805f81525061194f565b505050565b60075415610f8957600754604051639889eb1160e01b8152600401610eb491815260200190565b875f03610fa957604051630ea59fc560e21b815260040160405180910390fd5b610fb4888888612cc1565b6020808301516040840151606085015178ffffffffffffffffffffffffffffffffffffffff000000000060289190911b1664ff000000009190931b1663ffffffff9091161717600c8190558551156110145760086110128782614eac565b505b8351156110295760096110278582614eac565b505b6001600160a01b03851615611041576110418561293a565b825151156110da578251604051631f1d05ad60e01b81526001600160a01b037f00000000000000000000000000000000000000000000000000000000000000001691631f1d05ad916110969190600401614f68565b5f604051808303815f875af11580156110b1573d5f803e3d5ffd5b505050506040513d5f823e601f3d908101601f191682016040526110d891908101906150d6565b505b8151806110e8575081602001515b806110f4575081604001515b80611100575081606001515b156111a157604080516365c13f1960e11b815283511515600482015260208401511515602482015290830151151560448201526060830151151560648201527f00000000000000000000000000000000000000000000000000000000000000006001600160a01b03169063cb827e32906084015f604051808303815f87803b15801561118a575f80fd5b505af115801561119c573d5f803e3d5ffd5b505050505b6111b16111ac612320565b6120cd565b505050505050505050565b5f818152600b60205260408120546001600160a01b031680156111df5792915050565b5f838152600360205260409020546001600160a01b03165b9392505050565b5f61120a600754612cd2565b905061122961121e82610100015160f21c90565b600190811c81161490565b156112475760405163b1f1d8cf60e01b815260040160405180910390fd5b604051635d53f40760e11b815260048101849052602481018390525f907f00000000000000000000000000000000000000000000000000000000000000006001600160a01b03169063baa7e80e906044015f604051808303815f875af11580156112b3573d5f803e3d5ffd5b505050506040513d5f823e601f3d908101601f191682016040526112da91908101906150d6565b60405162d5cc0160e21b8152306004820152602481018690529091505f906001600160a01b037f00000000000000000000000000000000000000000000000000000000000000001690630357300490604401602060405180830381865afa158015611347573d5f803e3d5ffd5b505050506040513d601f19601f8201168201806040525081019061136b9190615113565b90505f5b848110156113f7575f83828151811061138a5761138a61512e565b60200260200101519050826001600160a01b031687827f80dd2efbbc431cde0164d84d638e44ba6e7a3ca5d532ceef1bb4efcc0948325d6113c9612320565b6040516001600160a01b03909116815260200160405180910390a46113ee8382612d9e565b5060010161136f565b505050505050565b5f610a6e826122e8565b604051639be748fb60e01b81525f906001600160a01b037f00000000000000000000000000000000000000000000000000000000000000001690639be748fb906114599030908790600401615142565b602060405180830381865afa158015611474573d5f803e3d5ffd5b505050506040513d601f19601f820116820180604052508101906111f79190614e95565b60606114af6114a56117a5565b6007546016612825565b60405163eaa19ab360e01b81526001600160a01b037f0000000000000000000000000000000000000000000000000000000000000000169063eaa19ab390611503905f199088908890600190600401615163565b5f604051808303815f875af115801561151e573d5f803e3d5ffd5b505050506040513d5f823e601f3d908101601f1916820160405261154591908101906151c1565b5090505f5b83811015611602575f8282815181106115655761156561512e565b602002602001015190506115798482612d9e565b836001600160a01b03168686848181106115955761159561512e565b90506020020160208101906115aa9190615205565b61ffff16827f598baf7bf150ca2f42be9e9f8f55e81d45f5715c3ff22bf46d697fabec7f31d65f6115d9612320565b604080519283526001600160a01b0390911660208301520160405180910390a45060010161154a565b509392505050565b6008805461161790614d30565b80601f016020809104026020016040519081016040528092919081815260200182805461164390614d30565b801561168e5780601f106116655761010080835404028352916020019161168e565b820191905f5260205f20905b81548152906001019060200180831161167157829003601f168201915b505050505081565b604051633de222bb60e21b81523060048201526001600160a01b0382811660248301525f917f00000000000000000000000000000000000000000000000000000000000000009091169063f7888aec90604401610e50565b6116f6612dff565b6117005f80612f02565b565b6040805160018082528183019092526101208301359160609190816020015b60408051606080820183525f8083526020830152918101919091528152602001906001900390816117215790505090506040518060600160405280306001600160a01b031681526020015f815260200160405180602001604052805f815250815250815f815181106117955761179561512e565b6020026020010181905250915091565b604080516060810182525f80546001600160a01b0381168352600160a01b81046001600160581b031660208401819052600160f81b90910460ff16938301939093529182036117f45751919050565b60208101516040516331a9108f60e11b81526001600160581b0390911660048201527f00000000000000000000000000000000000000000000000000000000000000006001600160a01b031690636352211e90602401602060405180830381865afa158015611865573d5f803e3d5ffd5b505050506040513d601f19601f820116820180604052508101906118899190615113565b91505090565b606060028054610a8390614d30565b5f5b81811015610f5d575f8383838181106118bb576118bb61512e565b9050604002018036038101906118d19190615281565b90506118ee815f015163ffffffff16826020015161ffff166111fe565b506001016118a0565b6118ff612dff565b80158061191257506001600160581b0381115b156119305760405163f854950960e01b815260040160405180910390fd5b61193a5f82612f02565b50565b610b3d611948612320565b8383613087565b61195a848484610e8f565b610f1e84848484613126565b61196e612dff565b61193a8161324c565b60075434151580611a125750604051636e49181f60e01b8152600481018290523360248201527f00000000000000000000000000000000000000000000000000000000000000006001600160a01b031690636e49181f90604401602060405180830381865afa1580156119ec573d5f803e3d5ffd5b505050506040513d601f19601f82011682018060405250810190611a109190614d6d565b155b80611a21575080826020013514155b15611a3f576040516394310b3d60e01b815260040160405180910390fd5b60408051808201909152600781526618d85cda13dd5d60ca1b6020909101525f80611af07f000000000000000000000000000000000000000000000000000000000000000060601b7f86b14ff4df1839d4c5ed01550f2540ea56ad3e3813c5cd226eeab5890c21e3bb18611ab76101e087018761529b565b8080601f0160208091040260200160405190810160405280939291908181526020018383808284375f920191909152506132a692505050565b9150915060608215611b135781806020019051810190611b1091906150d6565b90505b5f5b8151811015611bcd575f828281518110611b3157611b3161512e565b60200260200101519050865f016020810190611b4d91906147ee565b6001600160a01b0316611b74825f908152600360205260409020546001600160a01b031690565b6001600160a01b031614611bbb5780611b9060208901896147ee565b604051630694678560e21b815260048101929092526001600160a01b03166024820152604401610eb4565b611bc481613446565b50600101611b15565b50611bd78161347e565b5050505050565b604051630fab094760e01b81523060048201526060905f906001600160a01b037f00000000000000000000000000000000000000000000000000000000000000001690630fab094790602401602060405180830381865afa158015611c45573d5f803e3d5ffd5b505050506040513d601f19601f82011682018060405250810190611c699190615113565b90506001600160a01b03811615611ce957604051635e703e7160e01b8152306004820152602481018490526001600160a01b03821690635e703e71906044015f60405180830381865afa158015611cc2573d5f803e3d5ffd5b505050506040513d5f823e601f3d908101601f191682016040526111f79190810190615320565b6111f760088054611cf990614d30565b80601f0160208091040260200160405190810160405280929190818152602001828054611d2590614d30565b8015611d705780601f10611d4757610100808354040283529160200191611d70565b820191905f5260205f20905b815481529060010190602001808311611d5357829003601f168201915b5050604051630c8df17160e41b8152306004820152602481018990527f00000000000000000000000000000000000000000000000000000000000000006001600160a01b0316935063c8df171092506044019050602060405180830381865afa158015611ddf573d5f803e3d5ffd5b505050506040513d601f19601f82011682018060405250810190611e039190614e95565b6134ca565b611e13610f2f6117a5565b5f5b81811015610f5d575f838383818110611e3057611e3061512e565b905060400201803603810190611e469190615281565b9050611e63815f015163ffffffff16826020015161ffff16612bfe565b50600101611e15565b611e81611e776117a5565b6007546014612825565b8015611f73575f5b81811015611ef657828282818110611ea357611ea361512e565b905060200201357f832d89d991be5351d793c20faf4b7dd44f8aa9ce39e3cb160c6317de6fbba729611ed3612320565b6040516001600160a01b03909116815260200160405180910390a2600101611e89565b506040516320512ba160e01b81526001600160a01b037f000000000000000000000000000000000000000000000000000000000000000016906320512ba190611f459085908590600401615352565b5f604051808303815f87803b158015611f5c575f80fd5b505af1158015611f6e573d5f803e3d5ffd5b505050505b8215610f1e57604051631f1d05ad60e01b81525f906001600160a01b037f00000000000000000000000000000000000000000000000000000000000000001690631f1d05ad90611fc990889088906004016154d1565b5f604051808303815f875af1158015611fe4573d5f803e3d5ffd5b505050506040513d5f823e601f3d908101601f1916820160405261200b91908101906150d6565b90505f5b848110156113f7578181815181106120295761202961512e565b60200260200101517fcbda9c610cbf8b0b9941c465b20ff7e1fae572086b70ef65fa3d5e4bf3d0deaa8787848181106120645761206461512e565b90506101c00201612073612320565b604051612081929190615513565b60405180910390a260010161200f565b6009805461161790614d30565b6120a6612dff565b6001600160a01b0381166120cd5760405163f854950960e01b815260040160405180910390fd5b61193a815f612f02565b5f808060606080850135156120ff5760405163096afe5960e41b815260040160405180910390fd5b60408051808201909152600781526618d85cda13dd5d60ca1b6020909101525f806121777f000000000000000000000000000000000000000000000000000000000000000060601b7f86b14ff4df1839d4c5ed01550f2540ea56ad3e3813c5cd226eeab5890c21e3bb18611ab76101808a018a61529b565b604080516001808252818301909252929450909250816020015b60408051606080820183525f8083526020830152918101919091528152602001906001900390816121915790505092506040518060600160405280306001600160a01b031681526020015f815260200160405180602001604052805f815250815250835f815181106122055761220561512e565b60200260200101819052506060821561222f578180602001905181019061222c91906150d6565b90505b6122398189611409565b955061224488610e06565b945087610160013596505050509193509193565b5f6001600160e01b03198216633344b87360e01b148061228857506001600160e01b0319821663081e84bf60e11b145b806122a357506001600160e01b0319821663099bfcc360e11b145b806122be57506001600160e01b0319821663611481d960e11b145b806122d957506001600160e01b0319821663152a902d60e11b145b80610a6e5750610a6e8261352f565b5f818152600360205260408120546001600160a01b031680610a6e57604051637e27328960e01b815260048101849052602401610eb4565b5f61232961357e565b905090565b610f5d83838360016135f1565b600c545f9063ffffffff81168061235860c0860160a08701615539565b63ffffffff160361236f5760c0840135925061245c565b602882901c6001600160a01b03811615611bd75760ff602084901c1661245760c087013561239e83600a615648565b6007546001600160a01b03861690633be273fa906123c260c08d0160a08e01615539565b898d60600160200160208101906123d99190614bb8565b6040516001600160e01b031960e087901b168152600481019490945263ffffffff929092166024840152604483015260ff166064820152608401602060405180830381865afa15801561242e573d5f803e3d5ffd5b505050506040513d601f19601f820116820180604052508101906124529190614e95565b613720565b945050505b505f9050600a816124756101c086016101a087016147ee565b6001600160a01b0316815260208101919091526040015f90812054915082906124a66101c086016101a087016147ee565b6001600160a01b03166124bc60208701876147ee565b6001600160a01b0316036124d357908201906124d6565b50815b604051634228826f60e11b81523060048201525f907f00000000000000000000000000000000000000000000000000000000000000006001600160a01b03169063845104de90602401608060405180830381865afa15801561253a573d5f803e3d5ffd5b505050506040513d601f19601f8201168201806040525081019061255e9190615653565b60609081015160408051808201909152600381526270617960e81b6020909101521591505f9081906125dd907f0000000000000000000000000000000000000000000000000000000000000000901b7fadc756803e4eb4ccfb136b73d5f72e3dc0d452d30ae1f4bc82af394c73ce711518611ab76101e08b018b61529b565b91509150811561263f5760605f828060200190518101906125fe91906156c3565b9250905084801561260d575080155b15612616575f94505b81511561263c5761263987836126346101c08e016101a08f016147ee565b6137ee565b96505b50505b841561277a57826126665760405163215ccc4760e11b815260048101869052602401610eb4565b848401868111156126d9576126836101c08a016101a08b016147ee565b6001600160a01b0316818883037f7e71a5f6c04b0eb16949316623b9dda7bd103692f7d89678e2260afa1378a2d56126b9612320565b6040516001600160a01b03909116815260200160405180910390a4612745565b80871115612745576126f36101c08a016101a08b016147ee565b6001600160a01b0316818289037f6276f0169fb8de712b2a6c02789f6115136c589ed491ac06f9e20f41877e41fe612729612320565b6040516001600160a01b03909116815260200160405180910390a45b80600a5f61275b6101c08d016101a08e016147ee565b6001600160a01b0316815260208101919091526040015f20555061281b565b83861461281b576127936101c089016101a08a016147ee565b6001600160a01b0316846127a7818961576f565b7f6276f0169fb8de712b2a6c02789f6115136c589ed491ac06f9e20f41877e41fe6127d0612320565b6040516001600160a01b03909116815260200160405180910390a483600a5f6128016101c08c016101a08d016147ee565b6001600160a01b0316815260208101919091526040015f20555b5050505050505050565b5f61282e612320565b9050836001600160a01b0316816001600160a01b0316141580156128fb5750604051631a45b42760e11b81526001600160a01b0382811660048301528581166024830152604482018590526064820184905260016084830181905260a48301527f0000000000000000000000000000000000000000000000000000000000000000169063348b684e9060c401602060405180830381865afa1580156128d5573d5f803e3d5ffd5b505050506040513d601f19601f820116820180604052508101906128f99190614d6d565b155b15610f1e57604051631326f75560e11b81526001600160a01b038086166004830152821660248201526044810184905260648101839052608401610eb4565b806001600160a01b03167fe7784d93cfbfa4408e19577e6cc0436f4dbb51214b70e100905dfce9def88c1661296d612320565b6040516001600160a01b03909116815260200160405180910390a260405163036129cb60e61b81526001600160a01b0382811660048301527f0000000000000000000000000000000000000000000000000000000000000000169063d84a72c0906024015b5f604051808303815f87803b1580156129e9575f80fd5b505af1158015611bd7573d5f803e3d5ffd5b60405163c44a8e6d60e01b8152306004820152602481018390525f604482018190529081906001600160a01b037f0000000000000000000000000000000000000000000000000000000000000000169063c44a8e6d906064015f60405180830381865afa158015612a6e573d5f803e3d5ffd5b505050506040513d5f823e601f3d908101601f19168201604052612a9591908101906157ae565b9050612aa285858561393e565b91506001600160a01b03821615612b695780610160015115612b1a575f612aca600754612cd2565b90506001600160a01b03861615801590612afa5750612afa612af182610100015160f21c90565b60019081161490565b15612b18576040516330225eab60e11b815260040160405180910390fd5b505b5f848152600b60205260409020546001600160a01b0316612b69575f848152600b60205260409020805473ffffffffffffffffffffffffffffffffffffffff19166001600160a01b0384161790555b80516040516330b157e560e21b815263ffffffff90911660048201526001600160a01b03838116602483015286811660448301527f0000000000000000000000000000000000000000000000000000000000000000169063c2c55f94906064015f604051808303815f87803b158015612be0575f80fd5b505af1158015612bf2573d5f803e3d5ffd5b50505050509392505050565b817f8ebf585439d8c6edc7dfa9c0e01fdbb1d4e68d9969dc5341ebd8bca5cd9a7bd482612c29612320565b604080519283526001600160a01b0390911660208301520160405180910390a260405163284d148160e11b815260048101839052602481018290527f00000000000000000000000000000000000000000000000000000000000000006001600160a01b03169063509a2902906044015f604051808303815f87803b158015612caf575f80fd5b505af11580156113f7573d5f803e3d5ffd5b612ccb8282613a3d565b5050600755565b60408051610120810182525f80825260208201819052818301819052606082018190526080820181905260a0820181905260c0820181905260e0820181905261010082015290516321d1336160e11b8152600481018390526001600160a01b037f000000000000000000000000000000000000000000000000000000000000000016906343a266c29060240161012060405180830381865afa158015612d7a573d5f803e3d5ffd5b505050506040513d601f19601f82011682018060405250810190610a6e919061593a565b6001600160a01b038216612dc757604051633250574960e11b81525f6004820152602401610eb4565b5f612dd383835f6129fb565b90506001600160a01b03811615610f5d576040516339e3563760e11b81525f6004820152602401610eb4565b604080516060810182525f546001600160a01b0381168252600160a01b81046001600160581b031660208301819052600160f81b90910460ff16928201929092529061193a9015612ee45760208201516040516331a9108f60e11b81526001600160581b0390911660048201527f00000000000000000000000000000000000000000000000000000000000000006001600160a01b031690636352211e90602401602060405180830381865afa158015612ebb573d5f803e3d5ffd5b505050506040513d601f19601f82011682018060405250810190612edf9190615113565b612ee7565b81515b82602001516001600160581b0316836040015160ff16612825565b6001600160581b03811615801590612f2257506001600160a01b03821615155b15612f405760405163f854950960e01b815260040160405180910390fd5b604080516060810182525f80546001600160a01b0381168352600160a01b81046001600160581b031660208401819052600160f81b90910460ff16938301939093529091156130235760208201516040516331a9108f60e11b81526001600160581b0390911660048201527f00000000000000000000000000000000000000000000000000000000000000006001600160a01b031690636352211e90602401602060405180830381865afa158015612ffa573d5f803e3d5ffd5b505050506040513d601f19601f8201168201806040525081019061301e9190615113565b613026565b81515b604080516060810182526001600160a01b0387168082526001600160581b038716602083018190525f9290930182905281546001600160f81b03191617600160a01b909202919091176001600160f81b031690559050610f1e818585613a56565b6001600160a01b0382166130b957604051630b61174360e31b81526001600160a01b0383166004820152602401610eb4565b6001600160a01b038381165f81815260066020908152604080832094871680845294825291829020805460ff191686151590811790915591519182527f17307eab39ab6107e8899845ad3d59bd9653f200f220920489ca2b5937696c3191015b60405180910390a3505050565b6001600160a01b0383163b15610f1e57826001600160a01b031663150b7a0261314d612320565b8685856040518563ffffffff1660e01b815260040161316f94939291906159e9565b6020604051808303815f875af19250505080156131a9575060408051601f3d908101601f191682019092526131a691810190615a24565b60015b613210573d8080156131d6576040519150601f19603f3d011682016040523d82523d5f602084013e6131db565b606091505b5080515f0361320857604051633250574960e11b81526001600160a01b0385166004820152602401610eb4565b805181602001fd5b6001600160e01b03198116630a85bd0160e11b14611bd757604051633250574960e11b81526001600160a01b0385166004820152602401610eb4565b5f80546001600160f81b0316600160f81b60ff841690810291909117909155604080519182523360208301527f3a02c735461e3ddd7b1f6ccb1620101cec0d5c7ef32a2eb50b1b02a4191d8207910160405180910390a150565b5f606060258351116132c957505060408051602081019091525f8082529061343f565b5f836132d760046020615a3f565b815181106132e7576132e761512e565b0160209081015160f81c91505b5f85613301600484615a3f565b815181106133115761331161512e565b01602001516001600160f81b031916148015906133375750613334602083615a52565b81105b1561343c575f85613349600484615a3f565b815181106133595761335961512e565b016020908101518784019091015160f89190911c91506001600160e01b031980891690821603613432575f61338f602086615a52565b61339a600986615a3f565b1015806133cf5750876133ae600986615a3f565b815181106133be576133be61512e565b01602001516001600160f81b031916155b613408576020886133e1600987615a3f565b815181106133f1576133f161512e565b0160200151613403919060f81c615a52565b61340b565b87515b905060016134248961341e602087615a52565b84613b3a565b96509650505050505061343f565b50506005016132f4565b50505b9250929050565b5f6134525f835f6129fb565b90506001600160a01b038116610b3d57604051637e27328960e01b815260048101839052602401610eb4565b6040516386bc2be360e01b81526001600160a01b037f000000000000000000000000000000000000000000000000000000000000000016906386bc2be3906129d29084906004016149b8565b604051609160f51b6020820152602281018290526060905f9060420160405160208183030381529060405290505f61350182613b7f565b90508481604051602001613516929190615a69565b6040516020818303038152906040529250505092915050565b5f6001600160e01b031982166380ac58cd60e01b148061355f57506001600160e01b03198216635b5e139f60e01b145b80610a6e57506301ffc9a760e01b6001600160e01b0319831614610a6e565b5f366014336001600160a01b037f0000000000000000000000000000000000000000000000000000000000000000161480156135ba5750808210155b156135e9575f366135cb838561576f565b6135d6928290615a97565b6135df91615abe565b60601c9250505090565b339250505090565b808061360557506001600160a01b03821615155b156136e4575f613614846122e8565b90506001600160a01b038316158015906136405750826001600160a01b0316816001600160a01b031614155b801561367157506001600160a01b038082165f9081526006602090815260408083209387168352929052205460ff16155b1561369a5760405163a9fbf51f60e01b81526001600160a01b0384166004820152602401610eb4565b81156136e25783856001600160a01b0316826001600160a01b03167f8c5be1e5ebec7d5bd14f71427d1e84f3dd0314c0f7b2291e5b200ac8c7c3b92560405160405180910390a45b505b50505f908152600560205260409020805473ffffffffffffffffffffffffffffffffffffffff19166001600160a01b0392909216919091179055565b5f80805f19858709858702925082811083820303915050805f036137575783828161374d5761374d615af3565b04925050506111f7565b83811061378857604051630c740aef60e31b8152600481018790526024810186905260448101859052606401610eb4565b5f84868809600260036001881981018916988990049182028318808302840302808302840302808302840302808302840302808302840302918202909203025f889003889004909101858311909403939093029303949094049190911702949350505050565b5f60607f00000000000000000000000000000000000000000000000000000000000000006001600160a01b031663eaa19ab386865f6040518463ffffffff1660e01b815260040161384193929190615b07565b5f604051808303815f875af115801561385c573d5f803e3d5ffd5b505050506040513d5f823e601f3d908101601f1916820160405261388391908101906151c1565b925090505f5b8151811015613935575f8282815181106138a5576138a561512e565b60200260200101519050846001600160a01b03168683815181106138cb576138cb61512e565b602002602001015161ffff16827f598baf7bf150ca2f42be9e9f8f55e81d45f5715c3ff22bf46d697fabec7f31d68a613902612320565b604080519283526001600160a01b0390911660208301520160405180910390a461392c8582612d9e565b50600101613889565b50509392505050565b5f828152600360205260408120546001600160a01b039081169083161561396a5761396a818486613d0f565b6001600160a01b038116156139a4576139855f855f806135f1565b6001600160a01b0381165f90815260046020526040902080545f190190555b6001600160a01b038516156139d2576001600160a01b0385165f908152600460205260409020805460010190555b5f84815260036020526040808220805473ffffffffffffffffffffffffffffffffffffffff19166001600160a01b0389811691821790925591518793918516917fddf252ad1be2c89b69c2b068fc378daa952ba7f163c4a11628f55a4df523b3ef91a4949350505050565b6001613a498382614eac565b506002610f5d8282614eac565b6001600160581b03811615613af9576040516331a9108f60e11b81526001600160581b03821660048201527f00000000000000000000000000000000000000000000000000000000000000006001600160a01b031690636352211e90602401602060405180830381865afa158015613ad0573d5f803e3d5ffd5b505050506040513d601f19601f82011682018060405250810190613af49190615113565b613afb565b815b6040513381526001600160a01b03918216918516907fc8894f26f396ce8c004245c8b7cd1b92103a6e4302fcbab883987149ac01b7ec90602001613119565b6060828203604051915060208183010160405280825250826020850101602082015f5b84811015613b75578281015182820152602001613b5d565b5050509392505050565b606081515f03613b9c575050604080515f81526020810190915290565b60408051602e8082526105e082019092525f91602082016105c0803683370190505090505f815f81518110613bd357613bd361512e565b60ff9092166020928302919091019091015282516001905f5b81811015613ceb575f868281518110613c0757613c0761512e565b016020015160f81c90505f5b8460ff16811015613c90576008868281518110613c3257613c3261512e565b602002602001015160ff16901b82613c4a9190615a3f565b9150613c57603a83615b64565b868281518110613c6957613c6961512e565b60ff90921660209283029190910190910152613c86603a83615b77565b9150600101613c13565b505b8015613ce257613ca3603a82615b64565b858560ff1681518110613cb857613cb861512e565b60ff90921660209283029190910190910152600190930192613cdb603a82615b77565b9050613c92565b50600101613bec565b50613d06613d01613cfc8585613d73565b613e11565b613eb2565b95945050505050565b613d1a838383613f89565b610f5d576001600160a01b038316613d4857604051637e27328960e01b815260048101829052602401610eb4565b60405163177e802f60e01b81526001600160a01b038316600482015260248101829052604401610eb4565b60605f8260ff1667ffffffffffffffff811115613d9257613d926142b7565b604051908082528060200260200182016040528015613dbb578160200160208202803683370190505b5090505f5b8360ff1681101561160257848181518110613ddd57613ddd61512e565b6020026020010151828281518110613df757613df761512e565b60ff90921660209283029190910190910152600101613dc0565b80516060905f8167ffffffffffffffff811115613e3057613e306142b7565b604051908082528060200260200182016040528015613e59578160200160208202803683370190505b5090505f5b8281101561160257848160018751030381518110613e7e57613e7e61512e565b6020026020010151828281518110613e9857613e9861512e565b60ff90921660209283029190910190910152600101613e5e565b80516060905f8167ffffffffffffffff811115613ed157613ed16142b7565b6040519080825280601f01601f191660200182016040528015613efb576020820181803683370190505b5090505f5b82811015611602576040518060600160405280603a8152602001615b8b603a9139858281518110613f3357613f3361512e565b602002602001015160ff1681518110613f4e57613f4e61512e565b602001015160f81c60f81b828281518110613f6b57613f6b61512e565b60200101906001600160f81b03191690815f1a905350600101613f00565b5f6001600160a01b038316158015906140045750826001600160a01b0316846001600160a01b03161480613fe157506001600160a01b038085165f9081526006602090815260408083209387168352929052205460ff165b8061400457505f828152600560205260409020546001600160a01b038481169116145b949350505050565b6001600160e01b03198116811461193a575f80fd5b5f60208284031215614031575f80fd5b81356111f78161400c565b5f5b8381101561405657818101518382015260200161403e565b50505f910152565b5f815180845261407581602086016020860161403c565b601f01601f19169290920160200192915050565b602081525f6111f7602083018461405e565b5f602082840312156140ab575f80fd5b5035919050565b6001600160a01b038116811461193a575f80fd5b80356140d1816140b2565b919050565b5f80604083850312156140e7575f80fd5b82356140f2816140b2565b946020939093013593505050565b5f6102008284031215614111575f80fd5b50919050565b5f60208284031215614127575f80fd5b813567ffffffffffffffff81111561413d575f80fd5b61400484828501614100565b5f8083601f840112614159575f80fd5b50813567ffffffffffffffff811115614170575f80fd5b60208301915083602082850101111561343f575f80fd5b5f805f805f805f60a0888a03121561419d575f80fd5b873567ffffffffffffffff808211156141b4575f80fd5b6141c08b838c01614149565b909950975060208a01359150808211156141d8575f80fd5b506141e58a828b01614149565b90965094505060408801356141f9816140b2565b969995985093969295946060840135945060809093013592915050565b5f6101a08284031215614111575f80fd5b5f60208284031215614237575f80fd5b813567ffffffffffffffff81111561424d575f80fd5b61400484828501614216565b5f805f6060848603121561426b575f80fd5b8335614276816140b2565b92506020840135614286816140b2565b929592945050506040919091013590565b5f80604083850312156142a8575f80fd5b50508035926020909101359150565b634e487b7160e01b5f52604160045260245ffd5b6040516080810167ffffffffffffffff811182821017156142ee576142ee6142b7565b60405290565b6040516101c0810167ffffffffffffffff811182821017156142ee576142ee6142b7565b6040516101e0810167ffffffffffffffff811182821017156142ee576142ee6142b7565b604051610120810167ffffffffffffffff811182821017156142ee576142ee6142b7565b604051601f8201601f1916810167ffffffffffffffff81118282101715614389576143896142b7565b604052919050565b5f67ffffffffffffffff8211156143aa576143aa6142b7565b50601f01601f191660200190565b5f6143ca6143c584614391565b614360565b90508281528383830111156143dd575f80fd5b828260208301375f602084830101529392505050565b5f82601f830112614402575f80fd5b6111f7838335602085016143b8565b5f67ffffffffffffffff82111561442a5761442a6142b7565b5060051b60200190565b6cffffffffffffffffffffffffff8116811461193a575f80fd5b80356140d181614434565b63ffffffff8116811461193a575f80fd5b80356140d181614459565b61ffff8116811461193a575f80fd5b80356140d181614475565b62ffffff8116811461193a575f80fd5b80356140d18161448f565b60ff8116811461193a575f80fd5b80356140d1816144aa565b801515811461193a575f80fd5b80356140d1816144c3565b5f60808083850312156144ec575f80fd5b6144f46142cb565b9150823567ffffffffffffffff81111561450c575f80fd5b8301601f8101851361451c575f80fd5b8035602061452c6143c583614411565b8281526101c0928302840182019282820191908985111561454b575f80fd5b948301945b848610156146605780868b031215614566575f80fd5b61456e6142f4565b6145778761444e565b815261458485880161446a565b85820152604061459581890161446a565b9082015260606145a6888201614484565b908201526145b58789016140c6565b8189015260a0878101359082015260c06145d081890161449f565b9082015260e06145e18882016144b8565b908201526101006145f38882016144d0565b908201526101206146058882016144d0565b908201526101406146178882016144d0565b908201526101606146298882016144d0565b9082015261018061463b8882016144d0565b908201526101a061464d8882016144d0565b9082015283529485019491830191614550565b5086525061466f86820161446a565b8186015250505050614683604083016144b8565b6040820152614694606083016140c6565b606082015292915050565b5f608082840312156146af575f80fd5b6146b76142cb565b905081356146c4816144c3565b815260208201356146d4816144c3565b602082015260408201356146e7816144c3565b60408201526060820135614694816144c3565b5f805f805f805f80610160898b031215614712575f80fd5b88359750602089013567ffffffffffffffff80821115614730575f80fd5b61473c8c838d016143f3565b985060408b0135915080821115614751575f80fd5b61475d8c838d016143f3565b975060608b0135915080821115614772575f80fd5b61477e8c838d016143f3565b965061478c60808c016140c6565b955060a08b01359150808211156147a1575f80fd5b6147ad8c838d016143f3565b945060c08b01359150808211156147c2575f80fd5b506147cf8b828c016144db565b9250506147df8a60e08b0161469f565b90509295985092959890939650565b5f602082840312156147fe575f80fd5b81356111f7816140b2565b5f806040838503121561481a575f80fd5b82359150602083013561482c816140b2565b809150509250929050565b5f8060408385031215614848575f80fd5b823567ffffffffffffffff8082111561485f575f80fd5b818501915085601f830112614872575f80fd5b813560206148826143c583614411565b82815260059290921b840181019181810190898411156148a0575f80fd5b948201945b838610156148be578535825294820194908201906148a5565b965050860135925050808211156148d3575f80fd5b506148e085828601614216565b9150509250929050565b5f8083601f8401126148fa575f80fd5b50813567ffffffffffffffff811115614911575f80fd5b6020830191508360208260051b850101111561343f575f80fd5b5f805f6040848603121561493d575f80fd5b833567ffffffffffffffff811115614953575f80fd5b61495f868287016148ea565b9094509250506020840135614973816140b2565b809150509250925092565b5f815180845260208085019450602084015f5b838110156149ad57815187529582019590820190600101614991565b509495945050505050565b602081525f6111f7602083018461497e565b5f602082840312156149da575f80fd5b813567ffffffffffffffff8111156149f0575f80fd5b820161018081850312156111f7575f80fd5b5f604080830185845260206040818601528186518084526060935060608701915060608160051b8801018389015f5b83811015614a8157898303605f19018552815180516001600160a01b031684528681015187850152880151888401889052614a6e8885018261405e565b9587019593505090850190600101614a31565b50909a9950505050505050505050565b5f8083601f840112614aa1575f80fd5b50813567ffffffffffffffff811115614ab8575f80fd5b6020830191508360208260061b850101111561343f575f80fd5b5f8060208385031215614ae3575f80fd5b823567ffffffffffffffff811115614af9575f80fd5b614b0585828601614a91565b90969095509350505050565b5f8060408385031215614b22575f80fd5b8235614b2d816140b2565b9150602083013561482c816144c3565b5f805f8060808587031215614b50575f80fd5b8435614b5b816140b2565b93506020850135614b6b816140b2565b925060408501359150606085013567ffffffffffffffff811115614b8d575f80fd5b8501601f81018713614b9d575f80fd5b614bac878235602084016143b8565b91505092959194509250565b5f60208284031215614bc8575f80fd5b81356111f7816144aa565b5f805f8060408587031215614be6575f80fd5b843567ffffffffffffffff80821115614bfd575f80fd5b818701915087601f830112614c10575f80fd5b813581811115614c1e575f80fd5b8860206101c083028501011115614c33575f80fd5b602092830196509450908601359080821115614c4d575f80fd5b50614c5a878288016148ea565b95989497509550505050565b5f8060408385031215614c77575f80fd5b8235614c82816140b2565b9150602083013561482c816140b2565b5f6080820186835260208681850152604086604086015260606080606087015283875180865260a08801915060a08160051b89010195508489015f5b82811015614d1e57898803609f19018452815180516001600160a01b0316895287810151888a0152860151868901869052614d0b868a018261405e565b9850509286019290860190600101614cce565b50959c9b505050505050505050505050565b600181811c90821680614d4457607f821691505b60208210810361411157634e487b7160e01b5f52602260045260245ffd5b80516140d1816144c3565b5f60208284031215614d7d575f80fd5b81516111f7816144c3565b601f821115610f5d57805f5260205f20601f840160051c81016020851015614dad5750805b601f840160051c820191505b81811015611bd7575f8155600101614db9565b67ffffffffffffffff831115614de457614de46142b7565b614df883614df28354614d30565b83614d88565b5f601f841160018114614e29575f8515614e125750838201355b5f19600387901b1c1916600186901b178355611bd7565b5f83815260208120601f198716915b82811015614e585786850135825560209485019460019092019101614e38565b5086821015614e74575f1960f88860031b161c19848701351681555b505060018560011b0183555050505050565b818382375f9101908152919050565b5f60208284031215614ea5575f80fd5b5051919050565b815167ffffffffffffffff811115614ec657614ec66142b7565b614eda81614ed48454614d30565b84614d88565b602080601f831160018114614f0d575f8415614ef65750858301515b5f19600386901b1c1916600185901b1785556113f7565b5f85815260208120601f198616915b82811015614f3b57888601518255948401946001909101908401614f1c565b5085821015614f5857878501515f19600388901b60f8161c191681555b5050505050600190811b01905550565b602080825282518282018190525f919060409081850190868401855b8281101561506257815180516cffffffffffffffffffffffffff1685528681015163ffffffff9081168887015286820151168686015260608082015161ffff16908601526080808201516001600160a01b03169086015260a0808201519086015260c08082015162ffffff169086015260e08082015160ff169086015261010080820151151590860152610120808201511515908601526101408082015115159086015261016080820151151590860152610180808201511515908601526101a0908101511515908501526101c09093019290850190600101614f84565b5091979650505050505050565b5f82601f83011261507e575f80fd5b8151602061508e6143c583614411565b8083825260208201915060208460051b8701019350868411156150af575f80fd5b602086015b848110156150cb57805183529183019183016150b4565b509695505050505050565b5f602082840312156150e6575f80fd5b815167ffffffffffffffff8111156150fc575f80fd5b6140048482850161506f565b80516140d1816140b2565b5f60208284031215615123575f80fd5b81516111f7816140b2565b634e487b7160e01b5f52603260045260245ffd5b6001600160a01b0383168152604060208201525f614004604083018461497e565b848152606060208083018290529082018490525f90859060808401835b878110156151a957833561519381614475565b61ffff1682529282019290820190600101615180565b50809350505050821515604083015295945050505050565b5f80604083850312156151d2575f80fd5b825167ffffffffffffffff8111156151e8575f80fd5b6151f48582860161506f565b925050602083015190509250929050565b5f60208284031215615215575f80fd5b81356111f781614475565b5f60408284031215615230575f80fd5b6040516040810181811067ffffffffffffffff82111715615253576152536142b7565b604052905080823561526481614459565b8152602083013561527481614475565b6020919091015292915050565b5f60408284031215615291575f80fd5b6111f78383615220565b5f808335601e198436030181126152b0575f80fd5b83018035915067ffffffffffffffff8211156152ca575f80fd5b60200191503681900382131561343f575f80fd5b5f82601f8301126152ed575f80fd5b81516152fb6143c582614391565b81815284602083860101111561530f575f80fd5b61400482602083016020870161403c565b5f60208284031215615330575f80fd5b815167ffffffffffffffff811115615346575f80fd5b614004848285016152de565b602081528160208201525f7f07ffffffffffffffffffffffffffffffffffffffffffffffffffffffffffffff831115615389575f80fd5b8260051b80856040850137919091016040019392505050565b6153c2826153af8361444e565b6cffffffffffffffffffffffffff169052565b6153ce6020820161446a565b63ffffffff1660208301526153e56040820161446a565b63ffffffff1660408301526153fc60608201614484565b61ffff166060830152615411608082016140c6565b6001600160a01b0316608083015260a0818101359083015261543560c0820161449f565b62ffffff1660c083015261544b60e082016144b8565b60ff1660e08301526101006154618282016144d0565b1515908301526101206154758282016144d0565b1515908301526101406154898282016144d0565b15159083015261016061549d8282016144d0565b1515908301526101806154b18282016144d0565b1515908301526101a06154c58282016144d0565b80151584830152610f1e565b602080825281018290525f8360408301825b85811015615509576154f582846153a2565b6101c09283019291909101906001016154e3565b5095945050505050565b6101e0810161552282856153a2565b6001600160a01b0383166101c08301529392505050565b5f60208284031215615549575f80fd5b81356111f781614459565b634e487b7160e01b5f52601160045260245ffd5b600181815b808511156155a257815f190482111561558857615588615554565b8085161561559557918102915b93841c939080029061556d565b509250929050565b5f826155b857506001610a6e565b816155c457505f610a6e565b81600181146155da57600281146155e457615600565b6001915050610a6e565b60ff8411156155f5576155f5615554565b50506001821b610a6e565b5060208310610133831016604e8410600b8410161715615623575081810a610a6e565b61562d8383615568565b805f190482111561564057615640615554565b029392505050565b5f6111f783836155aa565b5f60808284031215615663575f80fd5b61566b6142cb565b8251615676816144c3565b81526020830151615686816144c3565b60208201526040830151615699816144c3565b604082015260608301516156ac816144c3565b60608201529392505050565b80516140d181614475565b5f80604083850312156156d4575f80fd5b82516156df816144c3565b8092505060208084015167ffffffffffffffff8111156156fd575f80fd5b8401601f8101861361570d575f80fd5b805161571b6143c582614411565b81815260059190911b82018301908381019088831115615739575f80fd5b928401925b8284101561576057835161575181614475565b8252928401929084019061573e565b80955050505050509250929050565b81810381811115610a6e57610a6e615554565b80516140d181614459565b80516140d181614434565b80516140d18161448f565b80516140d1816144aa565b5f602082840312156157be575f80fd5b815167ffffffffffffffff808211156157d5575f80fd5b908301906101e082860312156157e9575f80fd5b6157f1614318565b6157fa83615782565b81526158086020840161578d565b602082015261581960408401615782565b604082015261582a60608401615782565b606082015261583b6080840161578d565b608082015261584c60a084016156b8565b60a082015261585d60c08401615108565b60c082015260e083015160e082015261010061587a818501615798565b9082015261012061588c8482016157a3565b9082015261014061589e848201614d62565b908201526101606158b0848201614d62565b908201526101806158c2848201614d62565b908201526101a06158d4848201614d62565b908201526101c083810151838111156158eb575f80fd5b6158f7888287016152de565b918301919091525095945050505050565b805165ffffffffffff811681146140d1575f80fd5b80516dffffffffffffffffffffffffffff811681146140d1575f80fd5b5f610120828403121561594b575f80fd5b61595361433c565b61595c83615908565b815261596a60208401615908565b602082015261597b60408401615908565b604082015261598c60608401615908565b606082015261599d60808401615782565b60808201526159ae60a0840161591d565b60a08201526159bf60c08401615782565b60c08201526159d060e08401615108565b60e0820152610100928301519281019290925250919050565b5f6001600160a01b03808716835280861660208401525083604083015260806060830152615a1a608083018461405e565b9695505050505050565b5f60208284031215615a34575f80fd5b81516111f78161400c565b80820180821115610a6e57610a6e615554565b8082028115828204841417610a6e57610a6e615554565b5f8351615a7a81846020880161403c565b835190830190615a8e81836020880161403c565b01949350505050565b5f8085851115615aa5575f80fd5b83861115615ab1575f80fd5b5050820193919092039150565b6bffffffffffffffffffffffff198135818116916014851015615aeb5780818660140360031b1b83161692505b505092915050565b634e487b7160e01b5f52601260045260245ffd5b5f606082018583526020606060208501528186518084526080860191506020880193505f5b81811015615b4c57845161ffff1683529383019391830191600101615b2c565b50508093505050508215156040830152949350505050565b5f82615b7257615b72615af3565b500690565b5f82615b8557615b85615af3565b50049056fe31323334353637383941424344454647484a4b4c4d4e505152535455565758595a6162636465666768696a6b6d6e6f707172737475767778797aa2646970667358221220c4d5d17280e6af2b0dd4fe38a9e8f5892232c439fceec2ca7dad3d144ff9836b64736f6c63430008170033",
	"deployedBytecode": "0x",
	"gitCommit": "3ce06b599b9887a53d2a17366faa7c73f9066096"
}