{
	"_format": "sphinx-sol-ct-artifact-1",
	"merkleRoot": "0xf022ccb63ab9d53d28803c2825ae855934c2ea053baacf167205a78967a9633a",
	"contractName": "JB721TiersHookProjectDeployer",
	"address": "0xAd852DF0C18f3249a4Adf5e848FD7c124b65a274",
	"abi": [
		{
			"type": "constructor",
			"inputs": [
				{
					"name": "directory",
					"type": "address",
					"internalType": "contract IJBDirectory"
				},
				{
					"name": "permissions",
					"type": "address",
					"internalType": "contract IJBPermissions"
				},
				{
					"name": "hookDeployer",
					"type": "address",
					"internalType": "contract IJB721TiersHookDeployer"
				}
			],
			"stateMutability": "nonpayable"
		},
		{
			"type": "function",
			"name": "DIRECTORY",
			"inputs": [],
			"outputs": [
				{
					"name": "",
					"type": "address",
					"internalType": "contract IJBDirectory"
				}
			],
			"stateMutability": "view"
		},
		{
			"type": "function",
			"name": "HOOK_DEPLOYER",
			"inputs": [],
			"outputs": [
				{
					"name": "",
					"type": "address",
					"internalType": "contract IJB721TiersHookDeployer"
				}
			],
			"stateMutability": "view"
		},
		{
			"type": "function",
			"name": "PERMISSIONS",
			"inputs": [],
			"outputs": [
				{
					"name": "",
					"type": "address",
					"internalType": "contract IJBPermissions"
				}
			],
			"stateMutability": "view"
		},
		{
			"type": "function",
			"name": "launchProjectFor",
			"inputs": [
				{
					"name": "owner",
					"type": "address",
					"internalType": "address"
				},
				{
					"name": "deployTiersHookConfig",
					"type": "tuple",
					"internalType": "struct JBDeploy721TiersHookConfig",
					"components": [
						{
							"name": "name",
							"type": "string",
							"internalType": "string"
						},
						{
							"name": "symbol",
							"type": "string",
							"internalType": "string"
						},
						{
							"name": "baseUri",
							"type": "string",
							"internalType": "string"
						},
						{
							"name": "tokenUriResolver",
							"type": "address",
							"internalType": "contract IJB721TokenUriResolver"
						},
						{
							"name": "contractUri",
							"type": "string",
							"internalType": "string"
						},
						{
							"name": "tiersConfig",
							"type": "tuple",
							"internalType": "struct JB721InitTiersConfig",
							"components": [
								{
									"name": "tiers",
									"type": "tuple[]",
									"internalType": "struct JB721TierConfig[]",
									"components": [
										{
											"name": "price",
											"type": "uint104",
											"internalType": "uint104"
										},
										{
											"name": "initialSupply",
											"type": "uint32",
											"internalType": "uint32"
										},
										{
											"name": "votingUnits",
											"type": "uint32",
											"internalType": "uint32"
										},
										{
											"name": "reserveFrequency",
											"type": "uint16",
											"internalType": "uint16"
										},
										{
											"name": "reserveBeneficiary",
											"type": "address",
											"internalType": "address"
										},
										{
											"name": "encodedIPFSUri",
											"type": "bytes32",
											"internalType": "bytes32"
										},
										{
											"name": "category",
											"type": "uint24",
											"internalType": "uint24"
										},
										{
											"name": "discountPercent",
											"type": "uint8",
											"internalType": "uint8"
										},
										{
											"name": "allowOwnerMint",
											"type": "bool",
											"internalType": "bool"
										},
										{
											"name": "useReserveBeneficiaryAsDefault",
											"type": "bool",
											"internalType": "bool"
										},
										{
											"name": "transfersPausable",
											"type": "bool",
											"internalType": "bool"
										},
										{
											"name": "useVotingUnits",
											"type": "bool",
											"internalType": "bool"
										},
										{
											"name": "cannotBeRemoved",
											"type": "bool",
											"internalType": "bool"
										},
										{
											"name": "cannotIncreaseDiscountPercent",
											"type": "bool",
											"internalType": "bool"
										}
									]
								},
								{
									"name": "currency",
									"type": "uint32",
									"internalType": "uint32"
								},
								{
									"name": "decimals",
									"type": "uint8",
									"internalType": "uint8"
								},
								{
									"name": "prices",
									"type": "address",
									"internalType": "contract IJBPrices"
								}
							]
						},
						{
							"name": "reserveBeneficiary",
							"type": "address",
							"internalType": "address"
						},
						{
							"name": "flags",
							"type": "tuple",
							"internalType": "struct JB721TiersHookFlags",
							"components": [
								{
									"name": "noNewTiersWithReserves",
									"type": "bool",
									"internalType": "bool"
								},
								{
									"name": "noNewTiersWithVotes",
									"type": "bool",
									"internalType": "bool"
								},
								{
									"name": "noNewTiersWithOwnerMinting",
									"type": "bool",
									"internalType": "bool"
								},
								{
									"name": "preventOverspending",
									"type": "bool",
									"internalType": "bool"
								}
							]
						}
					]
				},
				{
					"name": "launchProjectConfig",
					"type": "tuple",
					"internalType": "struct JBLaunchProjectConfig",
					"components": [
						{
							"name": "projectUri",
							"type": "string",
							"internalType": "string"
						},
						{
							"name": "rulesetConfigurations",
							"type": "tuple[]",
							"internalType": "struct JBPayDataHookRulesetConfig[]",
							"components": [
								{
									"name": "mustStartAtOrAfter",
									"type": "uint48",
									"internalType": "uint48"
								},
								{
									"name": "duration",
									"type": "uint32",
									"internalType": "uint32"
								},
								{
									"name": "weight",
									"type": "uint112",
									"internalType": "uint112"
								},
								{
									"name": "weightCutPercent",
									"type": "uint32",
									"internalType": "uint32"
								},
								{
									"name": "approvalHook",
									"type": "address",
									"internalType": "contract IJBRulesetApprovalHook"
								},
								{
									"name": "metadata",
									"type": "tuple",
									"internalType": "struct JBPayDataHookRulesetMetadata",
									"components": [
										{
											"name": "reservedPercent",
											"type": "uint16",
											"internalType": "uint16"
										},
										{
											"name": "cashOutTaxRate",
											"type": "uint16",
											"internalType": "uint16"
										},
										{
											"name": "baseCurrency",
											"type": "uint32",
											"internalType": "uint32"
										},
										{
											"name": "pausePay",
											"type": "bool",
											"internalType": "bool"
										},
										{
											"name": "pauseCreditTransfers",
											"type": "bool",
											"internalType": "bool"
										},
										{
											"name": "allowOwnerMinting",
											"type": "bool",
											"internalType": "bool"
										},
										{
											"name": "allowTerminalMigration",
											"type": "bool",
											"internalType": "bool"
										},
										{
											"name": "allowSetTerminals",
											"type": "bool",
											"internalType": "bool"
										},
										{
											"name": "allowSetController",
											"type": "bool",
											"internalType": "bool"
										},
										{
											"name": "allowAddAccountingContext",
											"type": "bool",
											"internalType": "bool"
										},
										{
											"name": "allowAddPriceFeed",
											"type": "bool",
											"internalType": "bool"
										},
										{
											"name": "ownerMustSendPayouts",
											"type": "bool",
											"internalType": "bool"
										},
										{
											"name": "holdFees",
											"type": "bool",
											"internalType": "bool"
										},
										{
											"name": "useTotalSurplusForCashOuts",
											"type": "bool",
											"internalType": "bool"
										},
										{
											"name": "useDataHookForCashOut",
											"type": "bool",
											"internalType": "bool"
										},
										{
											"name": "metadata",
											"type": "uint16",
											"internalType": "uint16"
										}
									]
								},
								{
									"name": "splitGroups",
									"type": "tuple[]",
									"internalType": "struct JBSplitGroup[]",
									"components": [
										{
											"name": "groupId",
											"type": "uint256",
											"internalType": "uint256"
										},
										{
											"name": "splits",
											"type": "tuple[]",
											"internalType": "struct JBSplit[]",
											"components": [
												{
													"name": "preferAddToBalance",
													"type": "bool",
													"internalType": "bool"
												},
												{
													"name": "percent",
													"type": "uint32",
													"internalType": "uint32"
												},
												{
													"name": "projectId",
													"type": "uint56",
													"internalType": "uint56"
												},
												{
													"name": "beneficiary",
													"type": "address",
													"internalType": "address payable"
												},
												{
													"name": "lockedUntil",
													"type": "uint48",
													"internalType": "uint48"
												},
												{
													"name": "hook",
													"type": "address",
													"internalType": "contract IJBSplitHook"
												}
											]
										}
									]
								},
								{
									"name": "fundAccessLimitGroups",
									"type": "tuple[]",
									"internalType": "struct JBFundAccessLimitGroup[]",
									"components": [
										{
											"name": "terminal",
											"type": "address",
											"internalType": "address"
										},
										{
											"name": "token",
											"type": "address",
											"internalType": "address"
										},
										{
											"name": "payoutLimits",
											"type": "tuple[]",
											"internalType": "struct JBCurrencyAmount[]",
											"components": [
												{
													"name": "amount",
													"type": "uint224",
													"internalType": "uint224"
												},
												{
													"name": "currency",
													"type": "uint32",
													"internalType": "uint32"
												}
											]
										},
										{
											"name": "surplusAllowances",
											"type": "tuple[]",
											"internalType": "struct JBCurrencyAmount[]",
											"components": [
												{
													"name": "amount",
													"type": "uint224",
													"internalType": "uint224"
												},
												{
													"name": "currency",
													"type": "uint32",
													"internalType": "uint32"
												}
											]
										}
									]
								}
							]
						},
						{
							"name": "terminalConfigurations",
							"type": "tuple[]",
							"internalType": "struct JBTerminalConfig[]",
							"components": [
								{
									"name": "terminal",
									"type": "address",
									"internalType": "contract IJBTerminal"
								},
								{
									"name": "accountingContextsToAccept",
									"type": "tuple[]",
									"internalType": "struct JBAccountingContext[]",
									"components": [
										{
											"name": "token",
											"type": "address",
											"internalType": "address"
										},
										{
											"name": "decimals",
											"type": "uint8",
											"internalType": "uint8"
										},
										{
											"name": "currency",
											"type": "uint32",
											"internalType": "uint32"
										}
									]
								}
							]
						},
						{
							"name": "memo",
							"type": "string",
							"internalType": "string"
						}
					]
				},
				{
					"name": "controller",
					"type": "address",
					"internalType": "contract IJBController"
				},
				{
					"name": "salt",
					"type": "bytes32",
					"internalType": "bytes32"
				}
			],
			"outputs": [
				{
					"name": "projectId",
					"type": "uint256",
					"internalType": "uint256"
				},
				{
					"name": "hook",
					"type": "address",
					"internalType": "contract IJB721TiersHook"
				}
			],
			"stateMutability": "nonpayable"
		},
		{
			"type": "function",
			"name": "launchRulesetsFor",
			"inputs": [
				{
					"name": "projectId",
					"type": "uint256",
					"internalType": "uint256"
				},
				{
					"name": "deployTiersHookConfig",
					"type": "tuple",
					"internalType": "struct JBDeploy721TiersHookConfig",
					"components": [
						{
							"name": "name",
							"type": "string",
							"internalType": "string"
						},
						{
							"name": "symbol",
							"type": "string",
							"internalType": "string"
						},
						{
							"name": "baseUri",
							"type": "string",
							"internalType": "string"
						},
						{
							"name": "tokenUriResolver",
							"type": "address",
							"internalType": "contract IJB721TokenUriResolver"
						},
						{
							"name": "contractUri",
							"type": "string",
							"internalType": "string"
						},
						{
							"name": "tiersConfig",
							"type": "tuple",
							"internalType": "struct JB721InitTiersConfig",
							"components": [
								{
									"name": "tiers",
									"type": "tuple[]",
									"internalType": "struct JB721TierConfig[]",
									"components": [
										{
											"name": "price",
											"type": "uint104",
											"internalType": "uint104"
										},
										{
											"name": "initialSupply",
											"type": "uint32",
											"internalType": "uint32"
										},
										{
											"name": "votingUnits",
											"type": "uint32",
											"internalType": "uint32"
										},
										{
											"name": "reserveFrequency",
											"type": "uint16",
											"internalType": "uint16"
										},
										{
											"name": "reserveBeneficiary",
											"type": "address",
											"internalType": "address"
										},
										{
											"name": "encodedIPFSUri",
											"type": "bytes32",
											"internalType": "bytes32"
										},
										{
											"name": "category",
											"type": "uint24",
											"internalType": "uint24"
										},
										{
											"name": "discountPercent",
											"type": "uint8",
											"internalType": "uint8"
										},
										{
											"name": "allowOwnerMint",
											"type": "bool",
											"internalType": "bool"
										},
										{
											"name": "useReserveBeneficiaryAsDefault",
											"type": "bool",
											"internalType": "bool"
										},
										{
											"name": "transfersPausable",
											"type": "bool",
											"internalType": "bool"
										},
										{
											"name": "useVotingUnits",
											"type": "bool",
											"internalType": "bool"
										},
										{
											"name": "cannotBeRemoved",
											"type": "bool",
											"internalType": "bool"
										},
										{
											"name": "cannotIncreaseDiscountPercent",
											"type": "bool",
											"internalType": "bool"
										}
									]
								},
								{
									"name": "currency",
									"type": "uint32",
									"internalType": "uint32"
								},
								{
									"name": "decimals",
									"type": "uint8",
									"internalType": "uint8"
								},
								{
									"name": "prices",
									"type": "address",
									"internalType": "contract IJBPrices"
								}
							]
						},
						{
							"name": "reserveBeneficiary",
							"type": "address",
							"internalType": "address"
						},
						{
							"name": "flags",
							"type": "tuple",
							"internalType": "struct JB721TiersHookFlags",
							"components": [
								{
									"name": "noNewTiersWithReserves",
									"type": "bool",
									"internalType": "bool"
								},
								{
									"name": "noNewTiersWithVotes",
									"type": "bool",
									"internalType": "bool"
								},
								{
									"name": "noNewTiersWithOwnerMinting",
									"type": "bool",
									"internalType": "bool"
								},
								{
									"name": "preventOverspending",
									"type": "bool",
									"internalType": "bool"
								}
							]
						}
					]
				},
				{
					"name": "launchRulesetsConfig",
					"type": "tuple",
					"internalType": "struct JBLaunchRulesetsConfig",
					"components": [
						{
							"name": "projectId",
							"type": "uint56",
							"internalType": "uint56"
						},
						{
							"name": "rulesetConfigurations",
							"type": "tuple[]",
							"internalType": "struct JBPayDataHookRulesetConfig[]",
							"components": [
								{
									"name": "mustStartAtOrAfter",
									"type": "uint48",
									"internalType": "uint48"
								},
								{
									"name": "duration",
									"type": "uint32",
									"internalType": "uint32"
								},
								{
									"name": "weight",
									"type": "uint112",
									"internalType": "uint112"
								},
								{
									"name": "weightCutPercent",
									"type": "uint32",
									"internalType": "uint32"
								},
								{
									"name": "approvalHook",
									"type": "address",
									"internalType": "contract IJBRulesetApprovalHook"
								},
								{
									"name": "metadata",
									"type": "tuple",
									"internalType": "struct JBPayDataHookRulesetMetadata",
									"components": [
										{
											"name": "reservedPercent",
											"type": "uint16",
											"internalType": "uint16"
										},
										{
											"name": "cashOutTaxRate",
											"type": "uint16",
											"internalType": "uint16"
										},
										{
											"name": "baseCurrency",
											"type": "uint32",
											"internalType": "uint32"
										},
										{
											"name": "pausePay",
											"type": "bool",
											"internalType": "bool"
										},
										{
											"name": "pauseCreditTransfers",
											"type": "bool",
											"internalType": "bool"
										},
										{
											"name": "allowOwnerMinting",
											"type": "bool",
											"internalType": "bool"
										},
										{
											"name": "allowTerminalMigration",
											"type": "bool",
											"internalType": "bool"
										},
										{
											"name": "allowSetTerminals",
											"type": "bool",
											"internalType": "bool"
										},
										{
											"name": "allowSetController",
											"type": "bool",
											"internalType": "bool"
										},
										{
											"name": "allowAddAccountingContext",
											"type": "bool",
											"internalType": "bool"
										},
										{
											"name": "allowAddPriceFeed",
											"type": "bool",
											"internalType": "bool"
										},
										{
											"name": "ownerMustSendPayouts",
											"type": "bool",
											"internalType": "bool"
										},
										{
											"name": "holdFees",
											"type": "bool",
											"internalType": "bool"
										},
										{
											"name": "useTotalSurplusForCashOuts",
											"type": "bool",
											"internalType": "bool"
										},
										{
											"name": "useDataHookForCashOut",
											"type": "bool",
											"internalType": "bool"
										},
										{
											"name": "metadata",
											"type": "uint16",
											"internalType": "uint16"
										}
									]
								},
								{
									"name": "splitGroups",
									"type": "tuple[]",
									"internalType": "struct JBSplitGroup[]",
									"components": [
										{
											"name": "groupId",
											"type": "uint256",
											"internalType": "uint256"
										},
										{
											"name": "splits",
											"type": "tuple[]",
											"internalType": "struct JBSplit[]",
											"components": [
												{
													"name": "preferAddToBalance",
													"type": "bool",
													"internalType": "bool"
												},
												{
													"name": "percent",
													"type": "uint32",
													"internalType": "uint32"
												},
												{
													"name": "projectId",
													"type": "uint56",
													"internalType": "uint56"
												},
												{
													"name": "beneficiary",
													"type": "address",
													"internalType": "address payable"
												},
												{
													"name": "lockedUntil",
													"type": "uint48",
													"internalType": "uint48"
												},
												{
													"name": "hook",
													"type": "address",
													"internalType": "contract IJBSplitHook"
												}
											]
										}
									]
								},
								{
									"name": "fundAccessLimitGroups",
									"type": "tuple[]",
									"internalType": "struct JBFundAccessLimitGroup[]",
									"components": [
										{
											"name": "terminal",
											"type": "address",
											"internalType": "address"
										},
										{
											"name": "token",
											"type": "address",
											"internalType": "address"
										},
										{
											"name": "payoutLimits",
											"type": "tuple[]",
											"internalType": "struct JBCurrencyAmount[]",
											"components": [
												{
													"name": "amount",
													"type": "uint224",
													"internalType": "uint224"
												},
												{
													"name": "currency",
													"type": "uint32",
													"internalType": "uint32"
												}
											]
										},
										{
											"name": "surplusAllowances",
											"type": "tuple[]",
											"internalType": "struct JBCurrencyAmount[]",
											"components": [
												{
													"name": "amount",
													"type": "uint224",
													"internalType": "uint224"
												},
												{
													"name": "currency",
													"type": "uint32",
													"internalType": "uint32"
												}
											]
										}
									]
								}
							]
						},
						{
							"name": "terminalConfigurations",
							"type": "tuple[]",
							"internalType": "struct JBTerminalConfig[]",
							"components": [
								{
									"name": "terminal",
									"type": "address",
									"internalType": "contract IJBTerminal"
								},
								{
									"name": "accountingContextsToAccept",
									"type": "tuple[]",
									"internalType": "struct JBAccountingContext[]",
									"components": [
										{
											"name": "token",
											"type": "address",
											"internalType": "address"
										},
										{
											"name": "decimals",
											"type": "uint8",
											"internalType": "uint8"
										},
										{
											"name": "currency",
											"type": "uint32",
											"internalType": "uint32"
										}
									]
								}
							]
						},
						{
							"name": "memo",
							"type": "string",
							"internalType": "string"
						}
					]
				},
				{
					"name": "controller",
					"type": "address",
					"internalType": "contract IJBController"
				},
				{
					"name": "salt",
					"type": "bytes32",
					"internalType": "bytes32"
				}
			],
			"outputs": [
				{
					"name": "rulesetId",
					"type": "uint256",
					"internalType": "uint256"
				},
				{
					"name": "hook",
					"type": "address",
					"internalType": "contract IJB721TiersHook"
				}
			],
			"stateMutability": "nonpayable"
		},
		{
			"type": "function",
			"name": "queueRulesetsOf",
			"inputs": [
				{
					"name": "projectId",
					"type": "uint256",
					"internalType": "uint256"
				},
				{
					"name": "deployTiersHookConfig",
					"type": "tuple",
					"internalType": "struct JBDeploy721TiersHookConfig",
					"components": [
						{
							"name": "name",
							"type": "string",
							"internalType": "string"
						},
						{
							"name": "symbol",
							"type": "string",
							"internalType": "string"
						},
						{
							"name": "baseUri",
							"type": "string",
							"internalType": "string"
						},
						{
							"name": "tokenUriResolver",
							"type": "address",
							"internalType": "contract IJB721TokenUriResolver"
						},
						{
							"name": "contractUri",
							"type": "string",
							"internalType": "string"
						},
						{
							"name": "tiersConfig",
							"type": "tuple",
							"internalType": "struct JB721InitTiersConfig",
							"components": [
								{
									"name": "tiers",
									"type": "tuple[]",
									"internalType": "struct JB721TierConfig[]",
									"components": [
										{
											"name": "price",
											"type": "uint104",
											"internalType": "uint104"
										},
										{
											"name": "initialSupply",
											"type": "uint32",
											"internalType": "uint32"
										},
										{
											"name": "votingUnits",
											"type": "uint32",
											"internalType": "uint32"
										},
										{
											"name": "reserveFrequency",
											"type": "uint16",
											"internalType": "uint16"
										},
										{
											"name": "reserveBeneficiary",
											"type": "address",
											"internalType": "address"
										},
										{
											"name": "encodedIPFSUri",
											"type": "bytes32",
											"internalType": "bytes32"
										},
										{
											"name": "category",
											"type": "uint24",
											"internalType": "uint24"
										},
										{
											"name": "discountPercent",
											"type": "uint8",
											"internalType": "uint8"
										},
										{
											"name": "allowOwnerMint",
											"type": "bool",
											"internalType": "bool"
										},
										{
											"name": "useReserveBeneficiaryAsDefault",
											"type": "bool",
											"internalType": "bool"
										},
										{
											"name": "transfersPausable",
											"type": "bool",
											"internalType": "bool"
										},
										{
											"name": "useVotingUnits",
											"type": "bool",
											"internalType": "bool"
										},
										{
											"name": "cannotBeRemoved",
											"type": "bool",
											"internalType": "bool"
										},
										{
											"name": "cannotIncreaseDiscountPercent",
											"type": "bool",
											"internalType": "bool"
										}
									]
								},
								{
									"name": "currency",
									"type": "uint32",
									"internalType": "uint32"
								},
								{
									"name": "decimals",
									"type": "uint8",
									"internalType": "uint8"
								},
								{
									"name": "prices",
									"type": "address",
									"internalType": "contract IJBPrices"
								}
							]
						},
						{
							"name": "reserveBeneficiary",
							"type": "address",
							"internalType": "address"
						},
						{
							"name": "flags",
							"type": "tuple",
							"internalType": "struct JB721TiersHookFlags",
							"components": [
								{
									"name": "noNewTiersWithReserves",
									"type": "bool",
									"internalType": "bool"
								},
								{
									"name": "noNewTiersWithVotes",
									"type": "bool",
									"internalType": "bool"
								},
								{
									"name": "noNewTiersWithOwnerMinting",
									"type": "bool",
									"internalType": "bool"
								},
								{
									"name": "preventOverspending",
									"type": "bool",
									"internalType": "bool"
								}
							]
						}
					]
				},
				{
					"name": "queueRulesetsConfig",
					"type": "tuple",
					"internalType": "struct JBQueueRulesetsConfig",
					"components": [
						{
							"name": "projectId",
							"type": "uint56",
							"internalType": "uint56"
						},
						{
							"name": "rulesetConfigurations",
							"type": "tuple[]",
							"internalType": "struct JBPayDataHookRulesetConfig[]",
							"components": [
								{
									"name": "mustStartAtOrAfter",
									"type": "uint48",
									"internalType": "uint48"
								},
								{
									"name": "duration",
									"type": "uint32",
									"internalType": "uint32"
								},
								{
									"name": "weight",
									"type": "uint112",
									"internalType": "uint112"
								},
								{
									"name": "weightCutPercent",
									"type": "uint32",
									"internalType": "uint32"
								},
								{
									"name": "approvalHook",
									"type": "address",
									"internalType": "contract IJBRulesetApprovalHook"
								},
								{
									"name": "metadata",
									"type": "tuple",
									"internalType": "struct JBPayDataHookRulesetMetadata",
									"components": [
										{
											"name": "reservedPercent",
											"type": "uint16",
											"internalType": "uint16"
										},
										{
											"name": "cashOutTaxRate",
											"type": "uint16",
											"internalType": "uint16"
										},
										{
											"name": "baseCurrency",
											"type": "uint32",
											"internalType": "uint32"
										},
										{
											"name": "pausePay",
											"type": "bool",
											"internalType": "bool"
										},
										{
											"name": "pauseCreditTransfers",
											"type": "bool",
											"internalType": "bool"
										},
										{
											"name": "allowOwnerMinting",
											"type": "bool",
											"internalType": "bool"
										},
										{
											"name": "allowTerminalMigration",
											"type": "bool",
											"internalType": "bool"
										},
										{
											"name": "allowSetTerminals",
											"type": "bool",
											"internalType": "bool"
										},
										{
											"name": "allowSetController",
											"type": "bool",
											"internalType": "bool"
										},
										{
											"name": "allowAddAccountingContext",
											"type": "bool",
											"internalType": "bool"
										},
										{
											"name": "allowAddPriceFeed",
											"type": "bool",
											"internalType": "bool"
										},
										{
											"name": "ownerMustSendPayouts",
											"type": "bool",
											"internalType": "bool"
										},
										{
											"name": "holdFees",
											"type": "bool",
											"internalType": "bool"
										},
										{
											"name": "useTotalSurplusForCashOuts",
											"type": "bool",
											"internalType": "bool"
										},
										{
											"name": "useDataHookForCashOut",
											"type": "bool",
											"internalType": "bool"
										},
										{
											"name": "metadata",
											"type": "uint16",
											"internalType": "uint16"
										}
									]
								},
								{
									"name": "splitGroups",
									"type": "tuple[]",
									"internalType": "struct JBSplitGroup[]",
									"components": [
										{
											"name": "groupId",
											"type": "uint256",
											"internalType": "uint256"
										},
										{
											"name": "splits",
											"type": "tuple[]",
											"internalType": "struct JBSplit[]",
											"components": [
												{
													"name": "preferAddToBalance",
													"type": "bool",
													"internalType": "bool"
												},
												{
													"name": "percent",
													"type": "uint32",
													"internalType": "uint32"
												},
												{
													"name": "projectId",
													"type": "uint56",
													"internalType": "uint56"
												},
												{
													"name": "beneficiary",
													"type": "address",
													"internalType": "address payable"
												},
												{
													"name": "lockedUntil",
													"type": "uint48",
													"internalType": "uint48"
												},
												{
													"name": "hook",
													"type": "address",
													"internalType": "contract IJBSplitHook"
												}
											]
										}
									]
								},
								{
									"name": "fundAccessLimitGroups",
									"type": "tuple[]",
									"internalType": "struct JBFundAccessLimitGroup[]",
									"components": [
										{
											"name": "terminal",
											"type": "address",
											"internalType": "address"
										},
										{
											"name": "token",
											"type": "address",
											"internalType": "address"
										},
										{
											"name": "payoutLimits",
											"type": "tuple[]",
											"internalType": "struct JBCurrencyAmount[]",
											"components": [
												{
													"name": "amount",
													"type": "uint224",
													"internalType": "uint224"
												},
												{
													"name": "currency",
													"type": "uint32",
													"internalType": "uint32"
												}
											]
										},
										{
											"name": "surplusAllowances",
											"type": "tuple[]",
											"internalType": "struct JBCurrencyAmount[]",
											"components": [
												{
													"name": "amount",
													"type": "uint224",
													"internalType": "uint224"
												},
												{
													"name": "currency",
													"type": "uint32",
													"internalType": "uint32"
												}
											]
										}
									]
								}
							]
						},
						{
							"name": "memo",
							"type": "string",
							"internalType": "string"
						}
					]
				},
				{
					"name": "controller",
					"type": "address",
					"internalType": "contract IJBController"
				},
				{
					"name": "salt",
					"type": "bytes32",
					"internalType": "bytes32"
				}
			],
			"outputs": [
				{
					"name": "rulesetId",
					"type": "uint256",
					"internalType": "uint256"
				},
				{
					"name": "hook",
					"type": "address",
					"internalType": "contract IJB721TiersHook"
				}
			],
			"stateMutability": "nonpayable"
		},
		{
			"type": "error",
			"name": "JBPermissioned_Unauthorized",
			"inputs": [
				{
					"name": "account",
					"type": "address",
					"internalType": "address"
				},
				{
					"name": "sender",
					"type": "address",
					"internalType": "address"
				},
				{
					"name": "projectId",
					"type": "uint256",
					"internalType": "uint256"
				},
				{
					"name": "permissionId",
					"type": "uint256",
					"internalType": "uint256"
				}
			]
		}
	],
	"solcInputHash": "54d924ca0ce25025276cf9168aae3c9e",
	"args": [
		"0x5ADb234602D074064C216C1fDB23c6c2031F0C75",
		"0x4886C30C81a17a3A1084fd1812008fA0f71a20B9",
		"0x739AFa8B58CcEc832aCFf7465f6F640199cF4D35"
	],
	"bytecode": "0x60e06040523480156200001157600080fd5b5060405162002bc338038062002bc383398101604081905262000034916200006b565b6001600160a01b0391821660805291811660a0521660c052620000bf565b6001600160a01b03811681146200006857600080fd5b50565b6000806000606084860312156200008157600080fd5b83516200008e8162000052565b6020850151909350620000a18162000052565b6040850151909250620000b48162000052565b809150509250925092565b60805160a05160c051612aa46200011f6000396000818161010301528181610267015281816104a1015261075801526000818160c401528181610167015281816103a901526105e101526000818161013d01526108ee0152612aa46000f3fe608060405234801561001057600080fd5b50600436106100725760003560e01c8063abf8c5c811610050578063abf8c5c8146100fe578063b67e20a114610125578063f434c9141461013857600080fd5b80631151ac9a146100775780634009aa7b146100ac57806388bc2ef3146100bf575b600080fd5b61008a610085366004611349565b61015f565b604080519283526001600160a01b039091166020830152015b60405180910390f35b61008a6100ba3660046113f8565b6103a4565b6100e67f000000000000000000000000000000000000000000000000000000000000000081565b6040516001600160a01b0390911681526020016100a3565b6100e67f000000000000000000000000000000000000000000000000000000000000000081565b61008a610133366004611478565b6105da565b6100e67f000000000000000000000000000000000000000000000000000000000000000081565b60008061025d7f00000000000000000000000000000000000000000000000000000000000000006001600160a01b031663293c49996040518163ffffffff1660e01b8152600401602060405180830381865afa1580156101c3573d6000803e3d6000fd5b505050506040513d601f19601f820116820180604052508101906101e791906114af565b6001600160a01b0316636352211e896040518263ffffffff1660e01b815260040161021491815260200190565b602060405180830381865afa158015610231573d6000803e3d6000fd5b505050506040513d601f19601f8201168201806040525081019061025591906114af565b886002610896565b6001600160a01b037f00000000000000000000000000000000000000000000000000000000000000001663ea74b8af888886156102c25760408051336020820152908101889052606001604051602081830303815290604052805190602001206102c5565b60005b6040518463ffffffff1660e01b81526004016102e393929190611832565b6020604051808303816000875af1158015610302573d6000803e3d6000fd5b505050506040513d601f19601f8201168201806040525081019061032691906114af565b6040516351106b4b60e11b8152600481018990529091506001600160a01b0382169063a220d69690602401600060405180830381600087803b15801561036b57600080fd5b505af115801561037f573d6000803e3d6000fd5b50505050610398878661039190612137565b83876109a4565b91509550959350505050565b6000807f00000000000000000000000000000000000000000000000000000000000000006001600160a01b031663293c49996040518163ffffffff1660e01b8152600401602060405180830381865afa158015610405573d6000803e3d6000fd5b505050506040513d601f19601f8201168201806040525081019061042991906114af565b6001600160a01b03166306661abd6040518163ffffffff1660e01b8152600401602060405180830381865afa158015610466573d6000803e3d6000fd5b505050506040513d601f19601f8201168201806040525081019061048a91906121b5565b6104959060016121ce565b91506001600160a01b037f00000000000000000000000000000000000000000000000000000000000000001663ea74b8af838886156104fc5760408051336020820152908101889052606001604051602081830303815290604052805190602001206104ff565b60005b6040518463ffffffff1660e01b815260040161051d93929190611832565b6020604051808303816000875af115801561053c573d6000803e3d6000fd5b505050506040513d601f19601f8201168201806040525081019061056091906114af565b90506105768761056f87612356565b8387610c9a565b6040516351106b4b60e11b8152600481018390526001600160a01b0382169063a220d69690602401600060405180830381600087803b1580156105b857600080fd5b505af11580156105cc573d6000803e3d6000fd5b505050509550959350505050565b60008060007f00000000000000000000000000000000000000000000000000000000000000006001600160a01b031663293c49996040518163ffffffff1660e01b8152600401602060405180830381865afa15801561063d573d6000803e3d6000fd5b505050506040513d601f19601f8201168201806040525081019061066191906114af565b6040516331a9108f60e11b8152600481018a90529091506106d9906001600160a01b03831690636352211e90602401602060405180830381865afa1580156106ad573d6000803e3d6000fd5b505050506040513d601f19601f820116820180604052508101906106d191906114af565b896002610896565b6040516331a9108f60e11b81526004810189905261074e906001600160a01b03831690636352211e90602401602060405180830381865afa158015610722573d6000803e3d6000fd5b505050506040513d601f19601f8201168201806040525081019061074691906114af565b89600e610896565b6001600160a01b037f00000000000000000000000000000000000000000000000000000000000000001663ea74b8af898987156107b35760408051336020820152908101899052606001604051602081830303815290604052805190602001206107b6565b60005b6040518463ffffffff1660e01b81526004016107d493929190611832565b6020604051808303816000875af11580156107f3573d6000803e3d6000fd5b505050506040513d601f19601f8201168201806040525081019061081791906114af565b6040516351106b4b60e11b8152600481018a90529092506001600160a01b0383169063a220d69690602401600060405180830381600087803b15801561085c57600080fd5b505af1158015610870573d6000803e3d6000fd5b5050505061088988876108829061240d565b8488610f94565b9250509550959350505050565b336001600160a01b038416811480159061095b5750604051631a45b42760e11b81526001600160a01b0382811660048301528581166024830152604482018590526064820184905260016084830181905260a48301527f0000000000000000000000000000000000000000000000000000000000000000169063348b684e9060c401602060405180830381865afa158015610935573d6000803e3d6000fd5b505050506040513d601f19601f82011682018060405250810190610959919061244d565b155b1561099e57604051631326f75560e11b81526001600160a01b03808616600483015282166024820152604481018490526064810183905260840160405180910390fd5b50505050565b60008084602001515167ffffffffffffffff8111156109c5576109c561195c565b6040519080825280602002602001820160405280156109fe57816020015b6109eb611242565b8152602001906001900390816109e35790505b50905060005b856020015151811015610c1857600086602001518281518110610a2957610a2961246a565b60200260200101519050604051806101000160405280826000015165ffffffffffff168152602001826020015163ffffffff16815260200182604001516dffffffffffffffffffffffffffff168152602001826060015163ffffffff16815260200182608001516001600160a01b031681526020016040518061026001604052808460a001516000015161ffff1681526020018460a001516020015161ffff1681526020018460a001516040015163ffffffff1681526020018460a0015160600151151581526020018460a0015160800151151581526020018460a0015160a00151151581526020016000151581526020018460a0015160c00151151581526020018460a0015160e00151151581526020018460a001516101000151151581526020018460a001516101200151151581526020018460a001516101400151151581526020018460a001516101600151151581526020018460a001516101800151151581526020018460a001516101a00151151581526020016001151581526020018460a001516101c0015115158152602001896001600160a01b031681526020018460a001516101e0015161ffff1681525081526020018260c0015181526020018260e00151815250838381518110610c0457610c0461246a565b602090810291909101015250600101610a04565b506040808601519051637c82803d60e11b81526001600160a01b0385169163f905007a91610c4d918a918691906004016128dd565b6020604051808303816000875af1158015610c6c573d6000803e3d6000fd5b505050506040513d601f19601f82011682018060405250810190610c9091906121b5565b9695505050505050565b600083602001515167ffffffffffffffff811115610cba57610cba61195c565b604051908082528060200260200182016040528015610cf357816020015b610ce0611242565b815260200190600190039081610cd85790505b50905060005b846020015151811015610f0d57600085602001518281518110610d1e57610d1e61246a565b60200260200101519050604051806101000160405280826000015165ffffffffffff168152602001826020015163ffffffff16815260200182604001516dffffffffffffffffffffffffffff168152602001826060015163ffffffff16815260200182608001516001600160a01b031681526020016040518061026001604052808460a001516000015161ffff1681526020018460a001516020015161ffff1681526020018460a001516040015163ffffffff1681526020018460a0015160600151151581526020018460a0015160800151151581526020018460a0015160a00151151581526020016000151581526020018460a0015160c00151151581526020018460a0015160e00151151581526020018460a001516101000151151581526020018460a001516101200151151581526020018460a001516101400151151581526020018460a001516101600151151581526020018460a001516101800151151581526020018460a001516101a00151151581526020016001151581526020018460a001516101c0015115158152602001886001600160a01b031681526020018460a001516101e0015161ffff1681525081526020018260c0015181526020018260e00151815250838381518110610ef957610ef961246a565b602090810291909101015250600101610cf9565b50835160408086015160608701519151634fb99a3f60e01b81526001600160a01b03861693634fb99a3f93610f49938b938892906004016129bc565b6020604051808303816000875af1158015610f68573d6000803e3d6000fd5b505050506040513d601f19601f82011682018060405250810190610f8c91906121b5565b505050505050565b60008084602001515167ffffffffffffffff811115610fb557610fb561195c565b604051908082528060200260200182016040528015610fee57816020015b610fdb611242565b815260200190600190039081610fd35790505b50905060005b856020015151811015611208576000866020015182815181106110195761101961246a565b60200260200101519050604051806101000160405280826000015165ffffffffffff168152602001826020015163ffffffff16815260200182604001516dffffffffffffffffffffffffffff168152602001826060015163ffffffff16815260200182608001516001600160a01b031681526020016040518061026001604052808460a001516000015161ffff1681526020018460a001516020015161ffff1681526020018460a001516040015163ffffffff1681526020018460a0015160600151151581526020018460a0015160800151151581526020018460a0015160a00151151581526020016000151581526020018460a0015160c00151151581526020018460a0015160e00151151581526020018460a001516101000151151581526020018460a001516101200151151581526020018460a001516101400151151581526020018460a001516101600151151581526020018460a001516101800151151581526020018460a001516101a00151151581526020016001151581526020018460a001516101c0015115158152602001896001600160a01b031681526020018460a001516101e0015161ffff1681525081526020018260c0015181526020018260e001518152508383815181106111f4576111f461246a565b602090810291909101015250600101610ff4565b506040808601516060870151915163b1d5968560e01b81526001600160a01b0386169263b1d5968592610c4d928b92879291600401612a24565b6040805161010080820183526000808352602080840182905283850182905260608085018390526080808601849052865161026081018852848152928301849052958201839052810182905293840181905260a084810182905260c0850182905260e0850182905291840181905261012084018190526101408401819052610160840181905261018084018190526101a084018190526101c084018190526101e0840181905261020084018190526102208401819052610240840152909190820190815260200160608152602001606081525090565b6000610160828403121561132b57600080fd5b50919050565b6001600160a01b038116811461134657600080fd5b50565b600080600080600060a0868803121561136157600080fd5b85359450602086013567ffffffffffffffff8082111561138057600080fd5b61138c89838a01611318565b955060408801359150808211156113a257600080fd5b508601606081890312156113b557600080fd5b925060608601356113c581611331565b949793965091946080013592915050565b80356113e181611331565b919050565b60006080828403121561132b57600080fd5b600080600080600060a0868803121561141057600080fd5b853561141b81611331565b9450602086013567ffffffffffffffff8082111561143857600080fd5b61144489838a01611318565b9550604088013591508082111561145a57600080fd5b50611467888289016113e6565b93505060608601356113c581611331565b600080600080600060a0868803121561149057600080fd5b85359450602086013567ffffffffffffffff8082111561143857600080fd5b6000602082840312156114c157600080fd5b81516114cc81611331565b9392505050565b6000808335601e198436030181126114ea57600080fd5b830160208101925035905067ffffffffffffffff81111561150a57600080fd5b80360382131561151957600080fd5b9250929050565b81835281816020850137506000828201602090810191909152601f909101601f19169091010190565b60008235607e1983360301811261155f57600080fd5b90910192915050565b80356cffffffffffffffffffffffffff811681146113e157600080fd5b803563ffffffff811681146113e157600080fd5b803561ffff811681146113e157600080fd5b803562ffffff811681146113e157600080fd5b803560ff811681146113e157600080fd5b801515811461134657600080fd5b80356113e1816115cf565b600060808084018335601e1985360301811261160357600080fd5b8401602081810191359067ffffffffffffffff82111561162257600080fd5b6101c0808302360384131561163657600080fd5b608089529382905260a09384890160005b848110156117825761166f8261165c88611568565b6cffffffffffffffffffffffffff169052565b61167a848701611585565b63ffffffff16848301526040611691878201611585565b63ffffffff169083015260606116a8878201611599565b61ffff16908301526116bb8689016113d6565b6001600160a01b031688830152858701358783015260c06116dd8188016115ab565b62ffffff169083015260e06116f38782016115be565b60ff16908301526101006117088782016115dd565b15159083015261012061171c8782016115dd565b1515908301526101406117308782016115dd565b1515908301526101606117448782016115dd565b1515908301526101806117588782016115dd565b1515908301526101a061176c8782016115dd565b1515908301529482019490820190600101611647565b5061178f60208a01611585565b63ffffffff811660208c015296506117a960408a016115be565b60ff811660408c015296506117c060608a016113d6565b6001600160a01b03811660608c015296509998505050505050505050565b80356117e9816115cf565b1515825260208101356117fb816115cf565b151560208301526040810135611810816115cf565b151560408301526060810135611825816115cf565b8015156060840152505050565b83815260606020820152600061184884856114d3565b610160606085015261185f6101c085018284611520565b91505061186f60208601866114d3565b605f1980868503016080870152611887848385611520565b935061189660408901896114d3565b93509150808685030160a08701526118af848484611520565b93506118bd606089016113d6565b6001600160a01b03811660c088015292506118db60808901896114d3565b93509150808685030160e08701526118f4848484611520565b935061190360a0890189611549565b92508086850301610100870152505061191c82826115e8565b91505061192b60c086016113d6565b6001600160a01b031661012084015261194b610140840160e087016117de565b604092909201929092529392505050565b634e487b7160e01b600052604160045260246000fd5b604051610200810167ffffffffffffffff811182821017156119965761199661195c565b60405290565b6040805190810167ffffffffffffffff811182821017156119965761199661195c565b60405160c0810167ffffffffffffffff811182821017156119965761199661195c565b6040516080810167ffffffffffffffff811182821017156119965761199661195c565b604051610100810167ffffffffffffffff811182821017156119965761199661195c565b6040516060810167ffffffffffffffff811182821017156119965761199661195c565b604051601f8201601f1916810167ffffffffffffffff81118282101715611a7557611a7561195c565b604052919050565b803566ffffffffffffff811681146113e157600080fd5b600067ffffffffffffffff821115611aae57611aae61195c565b5060051b60200190565b803565ffffffffffff811681146113e157600080fd5b80356dffffffffffffffffffffffffffff811681146113e157600080fd5b60006102008284031215611aff57600080fd5b611b07611972565b9050611b1282611599565b8152611b2060208301611599565b6020820152611b3160408301611585565b6040820152611b42606083016115dd565b6060820152611b53608083016115dd565b6080820152611b6460a083016115dd565b60a0820152611b7560c083016115dd565b60c0820152611b8660e083016115dd565b60e0820152610100611b998184016115dd565b90820152610120611bab8382016115dd565b90820152610140611bbd8382016115dd565b90820152610160611bcf8382016115dd565b90820152610180611be18382016115dd565b908201526101a0611bf38382016115dd565b908201526101c0611c058382016115dd565b908201526101e0611c17838201611599565b9082015292915050565b600082601f830112611c3257600080fd5b81356020611c47611c4283611a94565b611a4c565b82815260059290921b84018101918181019086841115611c6657600080fd5b8286015b84811015611db557803567ffffffffffffffff80821115611c8a57600080fd5b908801906040828b03601f1901811315611ca357600080fd5b611cab61199c565b8784013581528184013583811115611cc257600080fd5b8085019450508b603f850112611cd757600080fd5b878401359250611ce9611c4284611a94565b83815260c09093028401820192888101908d851115611d0757600080fd5b948301945b84861015611da05760c0868f031215611d2457600080fd5b611d2c6119bf565b8635611d37816115cf565b8152611d44878c01611585565b8b820152611d53858801611a7d565b858201526060870135611d6581611331565b6060820152611d7660808801611ab8565b608082015260a0870135611d8981611331565b60a0820152825260c0959095019490890190611d0c565b828a0152508652505050918301918301611c6a565b509695505050505050565b600082601f830112611dd157600080fd5b81356020611de1611c4283611a94565b82815260069290921b84018101918181019086841115611e0057600080fd5b8286015b84811015611db55760408189031215611e1d5760008081fd5b611e2561199c565b81357bffffffffffffffffffffffffffffffffffffffffffffffffffffffff81168114611e525760008081fd5b8152611e5f828601611585565b81860152835291830191604001611e04565b600082601f830112611e8257600080fd5b81356020611e92611c4283611a94565b82815260059290921b84018101918181019086841115611eb157600080fd5b8286015b84811015611db557803567ffffffffffffffff80821115611ed65760008081fd5b908801906080828b03601f1901811315611ef05760008081fd5b611ef86119e2565b87840135611f0581611331565b8152604084810135611f1681611331565b828a015260608581013585811115611f2e5760008081fd5b611f3c8f8c838a0101611dc0565b8484015250928501359284841115611f5657600091508182fd5b611f648e8b86890101611dc0565b90830152508652505050918301918301611eb5565b600082601f830112611f8a57600080fd5b81356020611f9a611c4283611a94565b82815260059290921b84018101918181019086841115611fb957600080fd5b8286015b84811015611db557803567ffffffffffffffff80821115611fde5760008081fd5b908801906102e0828b03601f1901811315611ff95760008081fd5b612001611a05565b61200c888501611ab8565b8152604061201b818601611585565b89830152606061202c818701611ace565b828401526080915061203f828701611585565b9083015260a06120508682016113d6565b8284015260c091506120648e838801611aec565b908301526102c08501358481111561207c5760008081fd5b61208a8e8b83890101611c21565b828401525050818401359150828211156120a45760008081fd5b6120b28c8984870101611e71565b60e08201528652505050918301918301611fbd565b600082601f8301126120d857600080fd5b813567ffffffffffffffff8111156120f2576120f261195c565b612105601f8201601f1916602001611a4c565b81815284602083860101111561211a57600080fd5b816020850160208301376000918101602001919091529392505050565b60006060823603121561214957600080fd5b612151611a29565b61215a83611a7d565b8152602083013567ffffffffffffffff8082111561217757600080fd5b61218336838701611f79565b6020840152604085013591508082111561219c57600080fd5b506121a9368286016120c7565b60408301525092915050565b6000602082840312156121c757600080fd5b5051919050565b808201808211156121ef57634e487b7160e01b600052601160045260246000fd5b92915050565b600082601f83011261220657600080fd5b81356020612216611c4283611a94565b82815260059290921b8401810191818101908684111561223557600080fd5b8286015b84811015611db557803567ffffffffffffffff8082111561225957600080fd5b908801906040828b03601f190181131561227257600080fd5b61227a61199c565b8784013561228781611331565b8152838201358381111561229a57600080fd5b8085019450508b603f8501126122af57600080fd5b8784013592506122c1611c4284611a94565b83815260609093028401820192888101908d8511156122df57600080fd5b948301945b84861015612341576060868f0312156122fc57600080fd5b612304611a29565b863561230f81611331565b815261231c878c016115be565b8b82015261232b858801611585565b81860152825260609590950194908901906122e4565b828a0152508652505050918301918301612239565b60006080823603121561236857600080fd5b6123706119e2565b823567ffffffffffffffff8082111561238857600080fd5b612394368387016120c7565b835260208501359150808211156123aa57600080fd5b6123b636838701611f79565b602084015260408501359150808211156123cf57600080fd5b6123db368387016121f5565b604084015260608501359150808211156123f457600080fd5b50612401368286016120c7565b60608301525092915050565b60006080823603121561241f57600080fd5b6124276119e2565b61243083611a7d565b8152602083013567ffffffffffffffff808211156123aa57600080fd5b60006020828403121561245f57600080fd5b81516114cc816115cf565b634e487b7160e01b600052603260045260246000fd5b805161ffff168252602081015161249d602084018261ffff169052565b5060408101516124b5604084018263ffffffff169052565b5060608101516124c9606084018215159052565b5060808101516124dd608084018215159052565b5060a08101516124f160a084018215159052565b5060c081015161250560c084018215159052565b5060e081015161251960e084018215159052565b5061010081810151151590830152610120808201511515908301526101408082015115159083015261016080820151151590830152610180808201511515908301526101a0808201511515908301526101c0808201511515908301526101e08082015115159083015261020080820151151590830152610220808201516001600160a01b0316908301526102408082015161ffff81168285015261099e565b600082825180855260208086019550808260051b8401018186016000805b8581101561269557868403601f19018a52825180518552850151604086860181905281518187018190529187019160609081880190865b8181101561267e5785518051151584528b81015163ffffffff168c8501528581015166ffffffffffffff1686850152848101516001600160a01b039081168686015260808083015165ffffffffffff169086015260a0918201511690840152948a019460c09092019160010161260d565b50509c88019c9650505092850192506001016125d6565b509198975050505050505050565b60008151808452602080850194506020840160005b8381101561270357815180517bffffffffffffffffffffffffffffffffffffffffffffffffffffffff16885283015163ffffffff1683880152604090960195908201906001016126b8565b509495945050505050565b600082825180855260208086019550808260051b84010181860160005b848110156127a257601f19868403018952815160806001600160a01b0380835116865280878401511687870152506040808301518282880152612770838801826126a3565b925050506060808301519250858203818701525061278e81836126a3565b9a86019a945050509083019060010161272b565b5090979650505050505050565b600082825180855260208086019550808260051b84010181860160005b848110156127a257601f198684030189528151805165ffffffffffff1684528481015163ffffffff908116868601526040808301516dffffffffffffffffffffffffffff1690860152606080830151909116908501526080808201516001600160a01b03169085015260a080820151610340919061284c82880182612480565b505060c082015181610300870152612866828701826125b8565b91505060e08201519150848103610320860152612883818361270e565b9a86019a94505050908301906001016127cc565b6000815180845260005b818110156128bd576020818501810151868301820152016128a1565b506000602082860101526020601f19601f83011685010191505092915050565b8381526060602082015260006128f660608301856127af565b8281036040840152610c908185612897565b600082825180855260208086019550808260051b8401018186016000805b8581101561269557868403601f19018a52825180516001600160a01b03908116865290860151604087870181905281518188018190529188019290916060919082890190875b818110156129a45786518051851684528c81015160ff168d85015286015163ffffffff1686840152958b01959184019160010161296c565b50509d89019d97505050938601935050600101612926565b6001600160a01b038616815260a0602082015260006129de60a0830187612897565b82810360408401526129f081876127af565b90508281036060840152612a048186612908565b90508281036080840152612a188185612897565b98975050505050505050565b848152608060208201526000612a3d60808301866127af565b8281036040840152612a4f8186612908565b90508281036060840152612a638185612897565b97965050505050505056fea26469706673582212200bb87ece75dc326414c27b43563d4b7247b08f9690809ab6be236f8a2b3d3d3064736f6c63430008170033",
	"deployedBytecode": "0x608060405234801561001057600080fd5b50600436106100725760003560e01c8063abf8c5c811610050578063abf8c5c8146100fe578063b67e20a114610125578063f434c9141461013857600080fd5b80631151ac9a146100775780634009aa7b146100ac57806388bc2ef3146100bf575b600080fd5b61008a610085366004611349565b61015f565b604080519283526001600160a01b039091166020830152015b60405180910390f35b61008a6100ba3660046113f8565b6103a4565b6100e67f0000000000000000000000005adb234602d074064c216c1fdb23c6c2031f0c7581565b6040516001600160a01b0390911681526020016100a3565b6100e67f000000000000000000000000739afa8b58ccec832acff7465f6f640199cf4d3581565b61008a610133366004611478565b6105da565b6100e67f0000000000000000000000004886c30c81a17a3a1084fd1812008fa0f71a20b981565b60008061025d7f0000000000000000000000005adb234602d074064c216c1fdb23c6c2031f0c756001600160a01b031663293c49996040518163ffffffff1660e01b8152600401602060405180830381865afa1580156101c3573d6000803e3d6000fd5b505050506040513d601f19601f820116820180604052508101906101e791906114af565b6001600160a01b0316636352211e896040518263ffffffff1660e01b815260040161021491815260200190565b602060405180830381865afa158015610231573d6000803e3d6000fd5b505050506040513d601f19601f8201168201806040525081019061025591906114af565b886002610896565b6001600160a01b037f000000000000000000000000739afa8b58ccec832acff7465f6f640199cf4d351663ea74b8af888886156102c25760408051336020820152908101889052606001604051602081830303815290604052805190602001206102c5565b60005b6040518463ffffffff1660e01b81526004016102e393929190611832565b6020604051808303816000875af1158015610302573d6000803e3d6000fd5b505050506040513d601f19601f8201168201806040525081019061032691906114af565b6040516351106b4b60e11b8152600481018990529091506001600160a01b0382169063a220d69690602401600060405180830381600087803b15801561036b57600080fd5b505af115801561037f573d6000803e3d6000fd5b50505050610398878661039190612137565b83876109a4565b91509550959350505050565b6000807f0000000000000000000000005adb234602d074064c216c1fdb23c6c2031f0c756001600160a01b031663293c49996040518163ffffffff1660e01b8152600401602060405180830381865afa158015610405573d6000803e3d6000fd5b505050506040513d601f19601f8201168201806040525081019061042991906114af565b6001600160a01b03166306661abd6040518163ffffffff1660e01b8152600401602060405180830381865afa158015610466573d6000803e3d6000fd5b505050506040513d601f19601f8201168201806040525081019061048a91906121b5565b6104959060016121ce565b91506001600160a01b037f000000000000000000000000739afa8b58ccec832acff7465f6f640199cf4d351663ea74b8af838886156104fc5760408051336020820152908101889052606001604051602081830303815290604052805190602001206104ff565b60005b6040518463ffffffff1660e01b815260040161051d93929190611832565b6020604051808303816000875af115801561053c573d6000803e3d6000fd5b505050506040513d601f19601f8201168201806040525081019061056091906114af565b90506105768761056f87612356565b8387610c9a565b6040516351106b4b60e11b8152600481018390526001600160a01b0382169063a220d69690602401600060405180830381600087803b1580156105b857600080fd5b505af11580156105cc573d6000803e3d6000fd5b505050509550959350505050565b60008060007f0000000000000000000000005adb234602d074064c216c1fdb23c6c2031f0c756001600160a01b031663293c49996040518163ffffffff1660e01b8152600401602060405180830381865afa15801561063d573d6000803e3d6000fd5b505050506040513d601f19601f8201168201806040525081019061066191906114af565b6040516331a9108f60e11b8152600481018a90529091506106d9906001600160a01b03831690636352211e90602401602060405180830381865afa1580156106ad573d6000803e3d6000fd5b505050506040513d601f19601f820116820180604052508101906106d191906114af565b896002610896565b6040516331a9108f60e11b81526004810189905261074e906001600160a01b03831690636352211e90602401602060405180830381865afa158015610722573d6000803e3d6000fd5b505050506040513d601f19601f8201168201806040525081019061074691906114af565b89600e610896565b6001600160a01b037f000000000000000000000000739afa8b58ccec832acff7465f6f640199cf4d351663ea74b8af898987156107b35760408051336020820152908101899052606001604051602081830303815290604052805190602001206107b6565b60005b6040518463ffffffff1660e01b81526004016107d493929190611832565b6020604051808303816000875af11580156107f3573d6000803e3d6000fd5b505050506040513d601f19601f8201168201806040525081019061081791906114af565b6040516351106b4b60e11b8152600481018a90529092506001600160a01b0383169063a220d69690602401600060405180830381600087803b15801561085c57600080fd5b505af1158015610870573d6000803e3d6000fd5b5050505061088988876108829061240d565b8488610f94565b9250509550959350505050565b336001600160a01b038416811480159061095b5750604051631a45b42760e11b81526001600160a01b0382811660048301528581166024830152604482018590526064820184905260016084830181905260a48301527f0000000000000000000000004886c30c81a17a3a1084fd1812008fa0f71a20b9169063348b684e9060c401602060405180830381865afa158015610935573d6000803e3d6000fd5b505050506040513d601f19601f82011682018060405250810190610959919061244d565b155b1561099e57604051631326f75560e11b81526001600160a01b03808616600483015282166024820152604481018490526064810183905260840160405180910390fd5b50505050565b60008084602001515167ffffffffffffffff8111156109c5576109c561195c565b6040519080825280602002602001820160405280156109fe57816020015b6109eb611242565b8152602001906001900390816109e35790505b50905060005b856020015151811015610c1857600086602001518281518110610a2957610a2961246a565b60200260200101519050604051806101000160405280826000015165ffffffffffff168152602001826020015163ffffffff16815260200182604001516dffffffffffffffffffffffffffff168152602001826060015163ffffffff16815260200182608001516001600160a01b031681526020016040518061026001604052808460a001516000015161ffff1681526020018460a001516020015161ffff1681526020018460a001516040015163ffffffff1681526020018460a0015160600151151581526020018460a0015160800151151581526020018460a0015160a00151151581526020016000151581526020018460a0015160c00151151581526020018460a0015160e00151151581526020018460a001516101000151151581526020018460a001516101200151151581526020018460a001516101400151151581526020018460a001516101600151151581526020018460a001516101800151151581526020018460a001516101a00151151581526020016001151581526020018460a001516101c0015115158152602001896001600160a01b031681526020018460a001516101e0015161ffff1681525081526020018260c0015181526020018260e00151815250838381518110610c0457610c0461246a565b602090810291909101015250600101610a04565b506040808601519051637c82803d60e11b81526001600160a01b0385169163f905007a91610c4d918a918691906004016128dd565b6020604051808303816000875af1158015610c6c573d6000803e3d6000fd5b505050506040513d601f19601f82011682018060405250810190610c9091906121b5565b9695505050505050565b600083602001515167ffffffffffffffff811115610cba57610cba61195c565b604051908082528060200260200182016040528015610cf357816020015b610ce0611242565b815260200190600190039081610cd85790505b50905060005b846020015151811015610f0d57600085602001518281518110610d1e57610d1e61246a565b60200260200101519050604051806101000160405280826000015165ffffffffffff168152602001826020015163ffffffff16815260200182604001516dffffffffffffffffffffffffffff168152602001826060015163ffffffff16815260200182608001516001600160a01b031681526020016040518061026001604052808460a001516000015161ffff1681526020018460a001516020015161ffff1681526020018460a001516040015163ffffffff1681526020018460a0015160600151151581526020018460a0015160800151151581526020018460a0015160a00151151581526020016000151581526020018460a0015160c00151151581526020018460a0015160e00151151581526020018460a001516101000151151581526020018460a001516101200151151581526020018460a001516101400151151581526020018460a001516101600151151581526020018460a001516101800151151581526020018460a001516101a00151151581526020016001151581526020018460a001516101c0015115158152602001886001600160a01b031681526020018460a001516101e0015161ffff1681525081526020018260c0015181526020018260e00151815250838381518110610ef957610ef961246a565b602090810291909101015250600101610cf9565b50835160408086015160608701519151634fb99a3f60e01b81526001600160a01b03861693634fb99a3f93610f49938b938892906004016129bc565b6020604051808303816000875af1158015610f68573d6000803e3d6000fd5b505050506040513d601f19601f82011682018060405250810190610f8c91906121b5565b505050505050565b60008084602001515167ffffffffffffffff811115610fb557610fb561195c565b604051908082528060200260200182016040528015610fee57816020015b610fdb611242565b815260200190600190039081610fd35790505b50905060005b856020015151811015611208576000866020015182815181106110195761101961246a565b60200260200101519050604051806101000160405280826000015165ffffffffffff168152602001826020015163ffffffff16815260200182604001516dffffffffffffffffffffffffffff168152602001826060015163ffffffff16815260200182608001516001600160a01b031681526020016040518061026001604052808460a001516000015161ffff1681526020018460a001516020015161ffff1681526020018460a001516040015163ffffffff1681526020018460a0015160600151151581526020018460a0015160800151151581526020018460a0015160a00151151581526020016000151581526020018460a0015160c00151151581526020018460a0015160e00151151581526020018460a001516101000151151581526020018460a001516101200151151581526020018460a001516101400151151581526020018460a001516101600151151581526020018460a001516101800151151581526020018460a001516101a00151151581526020016001151581526020018460a001516101c0015115158152602001896001600160a01b031681526020018460a001516101e0015161ffff1681525081526020018260c0015181526020018260e001518152508383815181106111f4576111f461246a565b602090810291909101015250600101610ff4565b506040808601516060870151915163b1d5968560e01b81526001600160a01b0386169263b1d5968592610c4d928b92879291600401612a24565b6040805161010080820183526000808352602080840182905283850182905260608085018390526080808601849052865161026081018852848152928301849052958201839052810182905293840181905260a084810182905260c0850182905260e0850182905291840181905261012084018190526101408401819052610160840181905261018084018190526101a084018190526101c084018190526101e0840181905261020084018190526102208401819052610240840152909190820190815260200160608152602001606081525090565b6000610160828403121561132b57600080fd5b50919050565b6001600160a01b038116811461134657600080fd5b50565b600080600080600060a0868803121561136157600080fd5b85359450602086013567ffffffffffffffff8082111561138057600080fd5b61138c89838a01611318565b955060408801359150808211156113a257600080fd5b508601606081890312156113b557600080fd5b925060608601356113c581611331565b949793965091946080013592915050565b80356113e181611331565b919050565b60006080828403121561132b57600080fd5b600080600080600060a0868803121561141057600080fd5b853561141b81611331565b9450602086013567ffffffffffffffff8082111561143857600080fd5b61144489838a01611318565b9550604088013591508082111561145a57600080fd5b50611467888289016113e6565b93505060608601356113c581611331565b600080600080600060a0868803121561149057600080fd5b85359450602086013567ffffffffffffffff8082111561143857600080fd5b6000602082840312156114c157600080fd5b81516114cc81611331565b9392505050565b6000808335601e198436030181126114ea57600080fd5b830160208101925035905067ffffffffffffffff81111561150a57600080fd5b80360382131561151957600080fd5b9250929050565b81835281816020850137506000828201602090810191909152601f909101601f19169091010190565b60008235607e1983360301811261155f57600080fd5b90910192915050565b80356cffffffffffffffffffffffffff811681146113e157600080fd5b803563ffffffff811681146113e157600080fd5b803561ffff811681146113e157600080fd5b803562ffffff811681146113e157600080fd5b803560ff811681146113e157600080fd5b801515811461134657600080fd5b80356113e1816115cf565b600060808084018335601e1985360301811261160357600080fd5b8401602081810191359067ffffffffffffffff82111561162257600080fd5b6101c0808302360384131561163657600080fd5b608089529382905260a09384890160005b848110156117825761166f8261165c88611568565b6cffffffffffffffffffffffffff169052565b61167a848701611585565b63ffffffff16848301526040611691878201611585565b63ffffffff169083015260606116a8878201611599565b61ffff16908301526116bb8689016113d6565b6001600160a01b031688830152858701358783015260c06116dd8188016115ab565b62ffffff169083015260e06116f38782016115be565b60ff16908301526101006117088782016115dd565b15159083015261012061171c8782016115dd565b1515908301526101406117308782016115dd565b1515908301526101606117448782016115dd565b1515908301526101806117588782016115dd565b1515908301526101a061176c8782016115dd565b1515908301529482019490820190600101611647565b5061178f60208a01611585565b63ffffffff811660208c015296506117a960408a016115be565b60ff811660408c015296506117c060608a016113d6565b6001600160a01b03811660608c015296509998505050505050505050565b80356117e9816115cf565b1515825260208101356117fb816115cf565b151560208301526040810135611810816115cf565b151560408301526060810135611825816115cf565b8015156060840152505050565b83815260606020820152600061184884856114d3565b610160606085015261185f6101c085018284611520565b91505061186f60208601866114d3565b605f1980868503016080870152611887848385611520565b935061189660408901896114d3565b93509150808685030160a08701526118af848484611520565b93506118bd606089016113d6565b6001600160a01b03811660c088015292506118db60808901896114d3565b93509150808685030160e08701526118f4848484611520565b935061190360a0890189611549565b92508086850301610100870152505061191c82826115e8565b91505061192b60c086016113d6565b6001600160a01b031661012084015261194b610140840160e087016117de565b604092909201929092529392505050565b634e487b7160e01b600052604160045260246000fd5b604051610200810167ffffffffffffffff811182821017156119965761199661195c565b60405290565b6040805190810167ffffffffffffffff811182821017156119965761199661195c565b60405160c0810167ffffffffffffffff811182821017156119965761199661195c565b6040516080810167ffffffffffffffff811182821017156119965761199661195c565b604051610100810167ffffffffffffffff811182821017156119965761199661195c565b6040516060810167ffffffffffffffff811182821017156119965761199661195c565b604051601f8201601f1916810167ffffffffffffffff81118282101715611a7557611a7561195c565b604052919050565b803566ffffffffffffff811681146113e157600080fd5b600067ffffffffffffffff821115611aae57611aae61195c565b5060051b60200190565b803565ffffffffffff811681146113e157600080fd5b80356dffffffffffffffffffffffffffff811681146113e157600080fd5b60006102008284031215611aff57600080fd5b611b07611972565b9050611b1282611599565b8152611b2060208301611599565b6020820152611b3160408301611585565b6040820152611b42606083016115dd565b6060820152611b53608083016115dd565b6080820152611b6460a083016115dd565b60a0820152611b7560c083016115dd565b60c0820152611b8660e083016115dd565b60e0820152610100611b998184016115dd565b90820152610120611bab8382016115dd565b90820152610140611bbd8382016115dd565b90820152610160611bcf8382016115dd565b90820152610180611be18382016115dd565b908201526101a0611bf38382016115dd565b908201526101c0611c058382016115dd565b908201526101e0611c17838201611599565b9082015292915050565b600082601f830112611c3257600080fd5b81356020611c47611c4283611a94565b611a4c565b82815260059290921b84018101918181019086841115611c6657600080fd5b8286015b84811015611db557803567ffffffffffffffff80821115611c8a57600080fd5b908801906040828b03601f1901811315611ca357600080fd5b611cab61199c565b8784013581528184013583811115611cc257600080fd5b8085019450508b603f850112611cd757600080fd5b878401359250611ce9611c4284611a94565b83815260c09093028401820192888101908d851115611d0757600080fd5b948301945b84861015611da05760c0868f031215611d2457600080fd5b611d2c6119bf565b8635611d37816115cf565b8152611d44878c01611585565b8b820152611d53858801611a7d565b858201526060870135611d6581611331565b6060820152611d7660808801611ab8565b608082015260a0870135611d8981611331565b60a0820152825260c0959095019490890190611d0c565b828a0152508652505050918301918301611c6a565b509695505050505050565b600082601f830112611dd157600080fd5b81356020611de1611c4283611a94565b82815260069290921b84018101918181019086841115611e0057600080fd5b8286015b84811015611db55760408189031215611e1d5760008081fd5b611e2561199c565b81357bffffffffffffffffffffffffffffffffffffffffffffffffffffffff81168114611e525760008081fd5b8152611e5f828601611585565b81860152835291830191604001611e04565b600082601f830112611e8257600080fd5b81356020611e92611c4283611a94565b82815260059290921b84018101918181019086841115611eb157600080fd5b8286015b84811015611db557803567ffffffffffffffff80821115611ed65760008081fd5b908801906080828b03601f1901811315611ef05760008081fd5b611ef86119e2565b87840135611f0581611331565b8152604084810135611f1681611331565b828a015260608581013585811115611f2e5760008081fd5b611f3c8f8c838a0101611dc0565b8484015250928501359284841115611f5657600091508182fd5b611f648e8b86890101611dc0565b90830152508652505050918301918301611eb5565b600082601f830112611f8a57600080fd5b81356020611f9a611c4283611a94565b82815260059290921b84018101918181019086841115611fb957600080fd5b8286015b84811015611db557803567ffffffffffffffff80821115611fde5760008081fd5b908801906102e0828b03601f1901811315611ff95760008081fd5b612001611a05565b61200c888501611ab8565b8152604061201b818601611585565b89830152606061202c818701611ace565b828401526080915061203f828701611585565b9083015260a06120508682016113d6565b8284015260c091506120648e838801611aec565b908301526102c08501358481111561207c5760008081fd5b61208a8e8b83890101611c21565b828401525050818401359150828211156120a45760008081fd5b6120b28c8984870101611e71565b60e08201528652505050918301918301611fbd565b600082601f8301126120d857600080fd5b813567ffffffffffffffff8111156120f2576120f261195c565b612105601f8201601f1916602001611a4c565b81815284602083860101111561211a57600080fd5b816020850160208301376000918101602001919091529392505050565b60006060823603121561214957600080fd5b612151611a29565b61215a83611a7d565b8152602083013567ffffffffffffffff8082111561217757600080fd5b61218336838701611f79565b6020840152604085013591508082111561219c57600080fd5b506121a9368286016120c7565b60408301525092915050565b6000602082840312156121c757600080fd5b5051919050565b808201808211156121ef57634e487b7160e01b600052601160045260246000fd5b92915050565b600082601f83011261220657600080fd5b81356020612216611c4283611a94565b82815260059290921b8401810191818101908684111561223557600080fd5b8286015b84811015611db557803567ffffffffffffffff8082111561225957600080fd5b908801906040828b03601f190181131561227257600080fd5b61227a61199c565b8784013561228781611331565b8152838201358381111561229a57600080fd5b8085019450508b603f8501126122af57600080fd5b8784013592506122c1611c4284611a94565b83815260609093028401820192888101908d8511156122df57600080fd5b948301945b84861015612341576060868f0312156122fc57600080fd5b612304611a29565b863561230f81611331565b815261231c878c016115be565b8b82015261232b858801611585565b81860152825260609590950194908901906122e4565b828a0152508652505050918301918301612239565b60006080823603121561236857600080fd5b6123706119e2565b823567ffffffffffffffff8082111561238857600080fd5b612394368387016120c7565b835260208501359150808211156123aa57600080fd5b6123b636838701611f79565b602084015260408501359150808211156123cf57600080fd5b6123db368387016121f5565b604084015260608501359150808211156123f457600080fd5b50612401368286016120c7565b60608301525092915050565b60006080823603121561241f57600080fd5b6124276119e2565b61243083611a7d565b8152602083013567ffffffffffffffff808211156123aa57600080fd5b60006020828403121561245f57600080fd5b81516114cc816115cf565b634e487b7160e01b600052603260045260246000fd5b805161ffff168252602081015161249d602084018261ffff169052565b5060408101516124b5604084018263ffffffff169052565b5060608101516124c9606084018215159052565b5060808101516124dd608084018215159052565b5060a08101516124f160a084018215159052565b5060c081015161250560c084018215159052565b5060e081015161251960e084018215159052565b5061010081810151151590830152610120808201511515908301526101408082015115159083015261016080820151151590830152610180808201511515908301526101a0808201511515908301526101c0808201511515908301526101e08082015115159083015261020080820151151590830152610220808201516001600160a01b0316908301526102408082015161ffff81168285015261099e565b600082825180855260208086019550808260051b8401018186016000805b8581101561269557868403601f19018a52825180518552850151604086860181905281518187018190529187019160609081880190865b8181101561267e5785518051151584528b81015163ffffffff168c8501528581015166ffffffffffffff1686850152848101516001600160a01b039081168686015260808083015165ffffffffffff169086015260a0918201511690840152948a019460c09092019160010161260d565b50509c88019c9650505092850192506001016125d6565b509198975050505050505050565b60008151808452602080850194506020840160005b8381101561270357815180517bffffffffffffffffffffffffffffffffffffffffffffffffffffffff16885283015163ffffffff1683880152604090960195908201906001016126b8565b509495945050505050565b600082825180855260208086019550808260051b84010181860160005b848110156127a257601f19868403018952815160806001600160a01b0380835116865280878401511687870152506040808301518282880152612770838801826126a3565b925050506060808301519250858203818701525061278e81836126a3565b9a86019a945050509083019060010161272b565b5090979650505050505050565b600082825180855260208086019550808260051b84010181860160005b848110156127a257601f198684030189528151805165ffffffffffff1684528481015163ffffffff908116868601526040808301516dffffffffffffffffffffffffffff1690860152606080830151909116908501526080808201516001600160a01b03169085015260a080820151610340919061284c82880182612480565b505060c082015181610300870152612866828701826125b8565b91505060e08201519150848103610320860152612883818361270e565b9a86019a94505050908301906001016127cc565b6000815180845260005b818110156128bd576020818501810151868301820152016128a1565b506000602082860101526020601f19601f83011685010191505092915050565b8381526060602082015260006128f660608301856127af565b8281036040840152610c908185612897565b600082825180855260208086019550808260051b8401018186016000805b8581101561269557868403601f19018a52825180516001600160a01b03908116865290860151604087870181905281518188018190529188019290916060919082890190875b818110156129a45786518051851684528c81015160ff168d85015286015163ffffffff1686840152958b01959184019160010161296c565b50509d89019d97505050938601935050600101612926565b6001600160a01b038616815260a0602082015260006129de60a0830187612897565b82810360408401526129f081876127af565b90508281036060840152612a048186612908565b90508281036080840152612a188185612897565b98975050505050505050565b848152608060208201526000612a3d60808301866127af565b8281036040840152612a4f8186612908565b90508281036060840152612a638185612897565b97965050505050505056fea26469706673582212200bb87ece75dc326414c27b43563d4b7247b08f9690809ab6be236f8a2b3d3d3064736f6c63430008170033",
	"devdoc": {
		"kind": "dev",
		"methods": {
			"constructor": {
				"params": {
					"directory": "The directory of terminals and controllers for projects.",
					"hookDeployer": "The 721 tiers hook deployer.",
					"permissions": "A contract storing permissions."
				}
			},
			"launchProjectFor(address,(string,string,string,address,string,((uint104,uint32,uint32,uint16,address,bytes32,uint24,uint8,bool,bool,bool,bool,bool,bool)[],uint32,uint8,address),address,(bool,bool,bool,bool)),(string,(uint48,uint32,uint112,uint32,address,(uint16,uint16,uint32,bool,bool,bool,bool,bool,bool,bool,bool,bool,bool,bool,bool,uint16),(uint256,(bool,uint32,uint56,address,uint48,address)[])[],(address,address,(uint224,uint32)[],(uint224,uint32)[])[])[],(address,(address,uint8,uint32)[])[],string),address,bytes32)": {
				"params": {
					"controller": "The controller that the project's rulesets will be queued with.",
					"deployTiersHookConfig": "Configuration which dictates the behavior of the 721 tiers hook which is being deployed.",
					"launchProjectConfig": "Configuration which dictates the behavior of the project which is being launched.",
					"owner": "The address to set as the owner of the project. The ERC-721 which confers this project's ownership will be sent to this address.",
					"salt": "A salt to use for the deterministic deployment."
				},
				"returns": {
					"hook": "The 721 tiers hook that was deployed for the project.",
					"projectId": "The ID of the newly launched project."
				}
			},
			"launchRulesetsFor(uint256,(string,string,string,address,string,((uint104,uint32,uint32,uint16,address,bytes32,uint24,uint8,bool,bool,bool,bool,bool,bool)[],uint32,uint8,address),address,(bool,bool,bool,bool)),(uint56,(uint48,uint32,uint112,uint32,address,(uint16,uint16,uint32,bool,bool,bool,bool,bool,bool,bool,bool,bool,bool,bool,bool,uint16),(uint256,(bool,uint32,uint56,address,uint48,address)[])[],(address,address,(uint224,uint32)[],(uint224,uint32)[])[])[],(address,(address,uint8,uint32)[])[],string),address,bytes32)": {
				"details": "Only a project's owner or an operator with the `QUEUE_RULESETS & SET_TERMINALS` permission can launch its rulesets.",
				"params": {
					"controller": "The controller that the project's rulesets will be queued with.",
					"deployTiersHookConfig": "Configuration which dictates the behavior of the 721 tiers hook which is being deployed.",
					"launchRulesetsConfig": "Configuration which dictates the project's new rulesets.",
					"projectId": "The ID of the project that rulesets are being launched for.",
					"salt": "A salt to use for the deterministic deployment."
				},
				"returns": {
					"hook": "The 721 tiers hook that was deployed for the project.",
					"rulesetId": "The ID of the successfully created ruleset."
				}
			},
			"queueRulesetsOf(uint256,(string,string,string,address,string,((uint104,uint32,uint32,uint16,address,bytes32,uint24,uint8,bool,bool,bool,bool,bool,bool)[],uint32,uint8,address),address,(bool,bool,bool,bool)),(uint56,(uint48,uint32,uint112,uint32,address,(uint16,uint16,uint32,bool,bool,bool,bool,bool,bool,bool,bool,bool,bool,bool,bool,uint16),(uint256,(bool,uint32,uint56,address,uint48,address)[])[],(address,address,(uint224,uint32)[],(uint224,uint32)[])[])[],string),address,bytes32)": {
				"details": "Only a project's owner or an operator with the `QUEUE_RULESETS` permission can queue its rulesets.",
				"params": {
					"controller": "The controller that the project's rulesets will be queued with.",
					"deployTiersHookConfig": "Configuration which dictates the behavior of the 721 tiers hook which is being deployed.",
					"projectId": "The ID of the project that rulesets are being queued for.",
					"queueRulesetsConfig": "Configuration which dictates the project's newly queued rulesets.",
					"salt": "A salt to use for the deterministic deployment."
				},
				"returns": {
					"hook": "The 721 tiers hook that was deployed for the project.",
					"rulesetId": "The ID of the successfully created ruleset."
				}
			}
		},
		"version": 1
	},
	"userdoc": {
		"kind": "user",
		"methods": {
			"DIRECTORY()": {
				"notice": "The directory of terminals and controllers for projects."
			},
			"HOOK_DEPLOYER()": {
				"notice": "The 721 tiers hook deployer."
			},
			"PERMISSIONS()": {
				"notice": "A contract storing permissions."
			},
			"launchProjectFor(address,(string,string,string,address,string,((uint104,uint32,uint32,uint16,address,bytes32,uint24,uint8,bool,bool,bool,bool,bool,bool)[],uint32,uint8,address),address,(bool,bool,bool,bool)),(string,(uint48,uint32,uint112,uint32,address,(uint16,uint16,uint32,bool,bool,bool,bool,bool,bool,bool,bool,bool,bool,bool,bool,uint16),(uint256,(bool,uint32,uint56,address,uint48,address)[])[],(address,address,(uint224,uint32)[],(uint224,uint32)[])[])[],(address,(address,uint8,uint32)[])[],string),address,bytes32)": {
				"notice": "Launches a new project with a 721 tiers hook attached."
			},
			"launchRulesetsFor(uint256,(string,string,string,address,string,((uint104,uint32,uint32,uint16,address,bytes32,uint24,uint8,bool,bool,bool,bool,bool,bool)[],uint32,uint8,address),address,(bool,bool,bool,bool)),(uint56,(uint48,uint32,uint112,uint32,address,(uint16,uint16,uint32,bool,bool,bool,bool,bool,bool,bool,bool,bool,bool,bool,bool,uint16),(uint256,(bool,uint32,uint56,address,uint48,address)[])[],(address,address,(uint224,uint32)[],(uint224,uint32)[])[])[],(address,(address,uint8,uint32)[])[],string),address,bytes32)": {
				"notice": "Launches rulesets for a project with an attached 721 tiers hook."
			},
			"queueRulesetsOf(uint256,(string,string,string,address,string,((uint104,uint32,uint32,uint16,address,bytes32,uint24,uint8,bool,bool,bool,bool,bool,bool)[],uint32,uint8,address),address,(bool,bool,bool,bool)),(uint56,(uint48,uint32,uint112,uint32,address,(uint16,uint16,uint32,bool,bool,bool,bool,bool,bool,bool,bool,bool,bool,bool,bool,uint16),(uint256,(bool,uint32,uint56,address,uint48,address)[])[],(address,address,(uint224,uint32)[],(uint224,uint32)[])[])[],string),address,bytes32)": {
				"notice": "Queues rulesets for a project with an attached 721 tiers hook."
			}
		},
		"version": 1
	},
	"gitCommit": "6b2a1aa786f9beac3441873d103e555a08345552",
	"sourceName": "src/JB721TiersHookProjectDeployer.sol",
	"chainId": "421614",
	"linkReferences": {},
	"deployedLinkReferences": {},
	"history": []
}