{
	"_format": "sphinx-sol-ct-artifact-1",
	"merkleRoot": "0x4c5ca08476b8a24e622ce29b192d65d12b6a0f60d37e34750e20058a1090d34c",
	"address": "0x3370f098e4eb427c18b75c8ed1a6664095f69d1d",
	"sourceName": "src/JB721TiersHookProjectDeployer.sol",
	"contractName": "JB721TiersHookProjectDeployer",
	"chainId": "0x66eee",
	"abi": [
		{
			"inputs": [
				{
					"internalType": "contract IJBDirectory",
					"name": "directory",
					"type": "address"
				},
				{
					"internalType": "contract IJBPermissions",
					"name": "permissions",
					"type": "address"
				},
				{
					"internalType": "contract IJB721TiersHookDeployer",
					"name": "hookDeployer",
					"type": "address"
				},
				{
					"internalType": "address",
					"name": "trustedForwarder",
					"type": "address"
				}
			],
			"stateMutability": "nonpayable",
			"type": "constructor"
		},
		{
			"inputs": [],
			"name": "DIRECTORY",
			"outputs": [
				{
					"internalType": "contract IJBDirectory",
					"name": "",
					"type": "address"
				}
			],
			"stateMutability": "view",
			"type": "function"
		},
		{
			"inputs": [],
			"name": "HOOK_DEPLOYER",
			"outputs": [
				{
					"internalType": "contract IJB721TiersHookDeployer",
					"name": "",
					"type": "address"
				}
			],
			"stateMutability": "view",
			"type": "function"
		},
		{
			"inputs": [],
			"name": "PERMISSIONS",
			"outputs": [
				{
					"internalType": "contract IJBPermissions",
					"name": "",
					"type": "address"
				}
			],
			"stateMutability": "view",
			"type": "function"
		},
		{
			"inputs": [
				{
					"internalType": "address",
					"name": "forwarder",
					"type": "address"
				}
			],
			"name": "isTrustedForwarder",
			"outputs": [
				{
					"internalType": "bool",
					"name": "",
					"type": "bool"
				}
			],
			"stateMutability": "view",
			"type": "function"
		},
		{
			"inputs": [
				{
					"internalType": "address",
					"name": "owner",
					"type": "address"
				},
				{
					"components": [
						{
							"internalType": "string",
							"name": "name",
							"type": "string"
						},
						{
							"internalType": "string",
							"name": "symbol",
							"type": "string"
						},
						{
							"internalType": "string",
							"name": "baseUri",
							"type": "string"
						},
						{
							"internalType": "contract IJB721TokenUriResolver",
							"name": "tokenUriResolver",
							"type": "address"
						},
						{
							"internalType": "string",
							"name": "contractUri",
							"type": "string"
						},
						{
							"components": [
								{
									"components": [
										{
											"internalType": "uint104",
											"name": "price",
											"type": "uint104"
										},
										{
											"internalType": "uint32",
											"name": "initialSupply",
											"type": "uint32"
										},
										{
											"internalType": "uint32",
											"name": "votingUnits",
											"type": "uint32"
										},
										{
											"internalType": "uint16",
											"name": "reserveFrequency",
											"type": "uint16"
										},
										{
											"internalType": "address",
											"name": "reserveBeneficiary",
											"type": "address"
										},
										{
											"internalType": "bytes32",
											"name": "encodedIPFSUri",
											"type": "bytes32"
										},
										{
											"internalType": "uint24",
											"name": "category",
											"type": "uint24"
										},
										{
											"internalType": "uint8",
											"name": "discountPercent",
											"type": "uint8"
										},
										{
											"internalType": "bool",
											"name": "allowOwnerMint",
											"type": "bool"
										},
										{
											"internalType": "bool",
											"name": "useReserveBeneficiaryAsDefault",
											"type": "bool"
										},
										{
											"internalType": "bool",
											"name": "transfersPausable",
											"type": "bool"
										},
										{
											"internalType": "bool",
											"name": "useVotingUnits",
											"type": "bool"
										},
										{
											"internalType": "bool",
											"name": "cannotBeRemoved",
											"type": "bool"
										},
										{
											"internalType": "bool",
											"name": "cannotIncreaseDiscountPercent",
											"type": "bool"
										}
									],
									"internalType": "struct JB721TierConfig[]",
									"name": "tiers",
									"type": "tuple[]"
								},
								{
									"internalType": "uint32",
									"name": "currency",
									"type": "uint32"
								},
								{
									"internalType": "uint8",
									"name": "decimals",
									"type": "uint8"
								},
								{
									"internalType": "contract IJBPrices",
									"name": "prices",
									"type": "address"
								}
							],
							"internalType": "struct JB721InitTiersConfig",
							"name": "tiersConfig",
							"type": "tuple"
						},
						{
							"internalType": "address",
							"name": "reserveBeneficiary",
							"type": "address"
						},
						{
							"components": [
								{
									"internalType": "bool",
									"name": "noNewTiersWithReserves",
									"type": "bool"
								},
								{
									"internalType": "bool",
									"name": "noNewTiersWithVotes",
									"type": "bool"
								},
								{
									"internalType": "bool",
									"name": "noNewTiersWithOwnerMinting",
									"type": "bool"
								},
								{
									"internalType": "bool",
									"name": "preventOverspending",
									"type": "bool"
								}
							],
							"internalType": "struct JB721TiersHookFlags",
							"name": "flags",
							"type": "tuple"
						}
					],
					"internalType": "struct JBDeploy721TiersHookConfig",
					"name": "deployTiersHookConfig",
					"type": "tuple"
				},
				{
					"components": [
						{
							"internalType": "string",
							"name": "projectUri",
							"type": "string"
						},
						{
							"components": [
								{
									"internalType": "uint48",
									"name": "mustStartAtOrAfter",
									"type": "uint48"
								},
								{
									"internalType": "uint32",
									"name": "duration",
									"type": "uint32"
								},
								{
									"internalType": "uint112",
									"name": "weight",
									"type": "uint112"
								},
								{
									"internalType": "uint32",
									"name": "weightCutPercent",
									"type": "uint32"
								},
								{
									"internalType": "contract IJBRulesetApprovalHook",
									"name": "approvalHook",
									"type": "address"
								},
								{
									"components": [
										{
											"internalType": "uint16",
											"name": "reservedPercent",
											"type": "uint16"
										},
										{
											"internalType": "uint16",
											"name": "cashOutTaxRate",
											"type": "uint16"
										},
										{
											"internalType": "uint32",
											"name": "baseCurrency",
											"type": "uint32"
										},
										{
											"internalType": "bool",
											"name": "pausePay",
											"type": "bool"
										},
										{
											"internalType": "bool",
											"name": "pauseCreditTransfers",
											"type": "bool"
										},
										{
											"internalType": "bool",
											"name": "allowOwnerMinting",
											"type": "bool"
										},
										{
											"internalType": "bool",
											"name": "allowTerminalMigration",
											"type": "bool"
										},
										{
											"internalType": "bool",
											"name": "allowSetTerminals",
											"type": "bool"
										},
										{
											"internalType": "bool",
											"name": "allowSetController",
											"type": "bool"
										},
										{
											"internalType": "bool",
											"name": "allowAddAccountingContext",
											"type": "bool"
										},
										{
											"internalType": "bool",
											"name": "allowAddPriceFeed",
											"type": "bool"
										},
										{
											"internalType": "bool",
											"name": "ownerMustSendPayouts",
											"type": "bool"
										},
										{
											"internalType": "bool",
											"name": "holdFees",
											"type": "bool"
										},
										{
											"internalType": "bool",
											"name": "useTotalSurplusForCashOuts",
											"type": "bool"
										},
										{
											"internalType": "bool",
											"name": "useDataHookForCashOut",
											"type": "bool"
										},
										{
											"internalType": "uint16",
											"name": "metadata",
											"type": "uint16"
										}
									],
									"internalType": "struct JBPayDataHookRulesetMetadata",
									"name": "metadata",
									"type": "tuple"
								},
								{
									"components": [
										{
											"internalType": "uint256",
											"name": "groupId",
											"type": "uint256"
										},
										{
											"components": [
												{
													"internalType": "uint32",
													"name": "percent",
													"type": "uint32"
												},
												{
													"internalType": "uint64",
													"name": "projectId",
													"type": "uint64"
												},
												{
													"internalType": "address payable",
													"name": "beneficiary",
													"type": "address"
												},
												{
													"internalType": "bool",
													"name": "preferAddToBalance",
													"type": "bool"
												},
												{
													"internalType": "uint48",
													"name": "lockedUntil",
													"type": "uint48"
												},
												{
													"internalType": "contract IJBSplitHook",
													"name": "hook",
													"type": "address"
												}
											],
											"internalType": "struct JBSplit[]",
											"name": "splits",
											"type": "tuple[]"
										}
									],
									"internalType": "struct JBSplitGroup[]",
									"name": "splitGroups",
									"type": "tuple[]"
								},
								{
									"components": [
										{
											"internalType": "address",
											"name": "terminal",
											"type": "address"
										},
										{
											"internalType": "address",
											"name": "token",
											"type": "address"
										},
										{
											"components": [
												{
													"internalType": "uint224",
													"name": "amount",
													"type": "uint224"
												},
												{
													"internalType": "uint32",
													"name": "currency",
													"type": "uint32"
												}
											],
											"internalType": "struct JBCurrencyAmount[]",
											"name": "payoutLimits",
											"type": "tuple[]"
										},
										{
											"components": [
												{
													"internalType": "uint224",
													"name": "amount",
													"type": "uint224"
												},
												{
													"internalType": "uint32",
													"name": "currency",
													"type": "uint32"
												}
											],
											"internalType": "struct JBCurrencyAmount[]",
											"name": "surplusAllowances",
											"type": "tuple[]"
										}
									],
									"internalType": "struct JBFundAccessLimitGroup[]",
									"name": "fundAccessLimitGroups",
									"type": "tuple[]"
								}
							],
							"internalType": "struct JBPayDataHookRulesetConfig[]",
							"name": "rulesetConfigurations",
							"type": "tuple[]"
						},
						{
							"components": [
								{
									"internalType": "contract IJBTerminal",
									"name": "terminal",
									"type": "address"
								},
								{
									"components": [
										{
											"internalType": "address",
											"name": "token",
											"type": "address"
										},
										{
											"internalType": "uint8",
											"name": "decimals",
											"type": "uint8"
										},
										{
											"internalType": "uint32",
											"name": "currency",
											"type": "uint32"
										}
									],
									"internalType": "struct JBAccountingContext[]",
									"name": "accountingContextsToAccept",
									"type": "tuple[]"
								}
							],
							"internalType": "struct JBTerminalConfig[]",
							"name": "terminalConfigurations",
							"type": "tuple[]"
						},
						{
							"internalType": "string",
							"name": "memo",
							"type": "string"
						}
					],
					"internalType": "struct JBLaunchProjectConfig",
					"name": "launchProjectConfig",
					"type": "tuple"
				},
				{
					"internalType": "contract IJBController",
					"name": "controller",
					"type": "address"
				},
				{
					"internalType": "bytes32",
					"name": "salt",
					"type": "bytes32"
				}
			],
			"name": "launchProjectFor",
			"outputs": [
				{
					"internalType": "uint256",
					"name": "projectId",
					"type": "uint256"
				},
				{
					"internalType": "contract IJB721TiersHook",
					"name": "hook",
					"type": "address"
				}
			],
			"stateMutability": "nonpayable",
			"type": "function"
		},
		{
			"inputs": [
				{
					"internalType": "uint256",
					"name": "projectId",
					"type": "uint256"
				},
				{
					"components": [
						{
							"internalType": "string",
							"name": "name",
							"type": "string"
						},
						{
							"internalType": "string",
							"name": "symbol",
							"type": "string"
						},
						{
							"internalType": "string",
							"name": "baseUri",
							"type": "string"
						},
						{
							"internalType": "contract IJB721TokenUriResolver",
							"name": "tokenUriResolver",
							"type": "address"
						},
						{
							"internalType": "string",
							"name": "contractUri",
							"type": "string"
						},
						{
							"components": [
								{
									"components": [
										{
											"internalType": "uint104",
											"name": "price",
											"type": "uint104"
										},
										{
											"internalType": "uint32",
											"name": "initialSupply",
											"type": "uint32"
										},
										{
											"internalType": "uint32",
											"name": "votingUnits",
											"type": "uint32"
										},
										{
											"internalType": "uint16",
											"name": "reserveFrequency",
											"type": "uint16"
										},
										{
											"internalType": "address",
											"name": "reserveBeneficiary",
											"type": "address"
										},
										{
											"internalType": "bytes32",
											"name": "encodedIPFSUri",
											"type": "bytes32"
										},
										{
											"internalType": "uint24",
											"name": "category",
											"type": "uint24"
										},
										{
											"internalType": "uint8",
											"name": "discountPercent",
											"type": "uint8"
										},
										{
											"internalType": "bool",
											"name": "allowOwnerMint",
											"type": "bool"
										},
										{
											"internalType": "bool",
											"name": "useReserveBeneficiaryAsDefault",
											"type": "bool"
										},
										{
											"internalType": "bool",
											"name": "transfersPausable",
											"type": "bool"
										},
										{
											"internalType": "bool",
											"name": "useVotingUnits",
											"type": "bool"
										},
										{
											"internalType": "bool",
											"name": "cannotBeRemoved",
											"type": "bool"
										},
										{
											"internalType": "bool",
											"name": "cannotIncreaseDiscountPercent",
											"type": "bool"
										}
									],
									"internalType": "struct JB721TierConfig[]",
									"name": "tiers",
									"type": "tuple[]"
								},
								{
									"internalType": "uint32",
									"name": "currency",
									"type": "uint32"
								},
								{
									"internalType": "uint8",
									"name": "decimals",
									"type": "uint8"
								},
								{
									"internalType": "contract IJBPrices",
									"name": "prices",
									"type": "address"
								}
							],
							"internalType": "struct JB721InitTiersConfig",
							"name": "tiersConfig",
							"type": "tuple"
						},
						{
							"internalType": "address",
							"name": "reserveBeneficiary",
							"type": "address"
						},
						{
							"components": [
								{
									"internalType": "bool",
									"name": "noNewTiersWithReserves",
									"type": "bool"
								},
								{
									"internalType": "bool",
									"name": "noNewTiersWithVotes",
									"type": "bool"
								},
								{
									"internalType": "bool",
									"name": "noNewTiersWithOwnerMinting",
									"type": "bool"
								},
								{
									"internalType": "bool",
									"name": "preventOverspending",
									"type": "bool"
								}
							],
							"internalType": "struct JB721TiersHookFlags",
							"name": "flags",
							"type": "tuple"
						}
					],
					"internalType": "struct JBDeploy721TiersHookConfig",
					"name": "deployTiersHookConfig",
					"type": "tuple"
				},
				{
					"components": [
						{
							"internalType": "uint56",
							"name": "projectId",
							"type": "uint56"
						},
						{
							"components": [
								{
									"internalType": "uint48",
									"name": "mustStartAtOrAfter",
									"type": "uint48"
								},
								{
									"internalType": "uint32",
									"name": "duration",
									"type": "uint32"
								},
								{
									"internalType": "uint112",
									"name": "weight",
									"type": "uint112"
								},
								{
									"internalType": "uint32",
									"name": "weightCutPercent",
									"type": "uint32"
								},
								{
									"internalType": "contract IJBRulesetApprovalHook",
									"name": "approvalHook",
									"type": "address"
								},
								{
									"components": [
										{
											"internalType": "uint16",
											"name": "reservedPercent",
											"type": "uint16"
										},
										{
											"internalType": "uint16",
											"name": "cashOutTaxRate",
											"type": "uint16"
										},
										{
											"internalType": "uint32",
											"name": "baseCurrency",
											"type": "uint32"
										},
										{
											"internalType": "bool",
											"name": "pausePay",
											"type": "bool"
										},
										{
											"internalType": "bool",
											"name": "pauseCreditTransfers",
											"type": "bool"
										},
										{
											"internalType": "bool",
											"name": "allowOwnerMinting",
											"type": "bool"
										},
										{
											"internalType": "bool",
											"name": "allowTerminalMigration",
											"type": "bool"
										},
										{
											"internalType": "bool",
											"name": "allowSetTerminals",
											"type": "bool"
										},
										{
											"internalType": "bool",
											"name": "allowSetController",
											"type": "bool"
										},
										{
											"internalType": "bool",
											"name": "allowAddAccountingContext",
											"type": "bool"
										},
										{
											"internalType": "bool",
											"name": "allowAddPriceFeed",
											"type": "bool"
										},
										{
											"internalType": "bool",
											"name": "ownerMustSendPayouts",
											"type": "bool"
										},
										{
											"internalType": "bool",
											"name": "holdFees",
											"type": "bool"
										},
										{
											"internalType": "bool",
											"name": "useTotalSurplusForCashOuts",
											"type": "bool"
										},
										{
											"internalType": "bool",
											"name": "useDataHookForCashOut",
											"type": "bool"
										},
										{
											"internalType": "uint16",
											"name": "metadata",
											"type": "uint16"
										}
									],
									"internalType": "struct JBPayDataHookRulesetMetadata",
									"name": "metadata",
									"type": "tuple"
								},
								{
									"components": [
										{
											"internalType": "uint256",
											"name": "groupId",
											"type": "uint256"
										},
										{
											"components": [
												{
													"internalType": "uint32",
													"name": "percent",
													"type": "uint32"
												},
												{
													"internalType": "uint64",
													"name": "projectId",
													"type": "uint64"
												},
												{
													"internalType": "address payable",
													"name": "beneficiary",
													"type": "address"
												},
												{
													"internalType": "bool",
													"name": "preferAddToBalance",
													"type": "bool"
												},
												{
													"internalType": "uint48",
													"name": "lockedUntil",
													"type": "uint48"
												},
												{
													"internalType": "contract IJBSplitHook",
													"name": "hook",
													"type": "address"
												}
											],
											"internalType": "struct JBSplit[]",
											"name": "splits",
											"type": "tuple[]"
										}
									],
									"internalType": "struct JBSplitGroup[]",
									"name": "splitGroups",
									"type": "tuple[]"
								},
								{
									"components": [
										{
											"internalType": "address",
											"name": "terminal",
											"type": "address"
										},
										{
											"internalType": "address",
											"name": "token",
											"type": "address"
										},
										{
											"components": [
												{
													"internalType": "uint224",
													"name": "amount",
													"type": "uint224"
												},
												{
													"internalType": "uint32",
													"name": "currency",
													"type": "uint32"
												}
											],
											"internalType": "struct JBCurrencyAmount[]",
											"name": "payoutLimits",
											"type": "tuple[]"
										},
										{
											"components": [
												{
													"internalType": "uint224",
													"name": "amount",
													"type": "uint224"
												},
												{
													"internalType": "uint32",
													"name": "currency",
													"type": "uint32"
												}
											],
											"internalType": "struct JBCurrencyAmount[]",
											"name": "surplusAllowances",
											"type": "tuple[]"
										}
									],
									"internalType": "struct JBFundAccessLimitGroup[]",
									"name": "fundAccessLimitGroups",
									"type": "tuple[]"
								}
							],
							"internalType": "struct JBPayDataHookRulesetConfig[]",
							"name": "rulesetConfigurations",
							"type": "tuple[]"
						},
						{
							"components": [
								{
									"internalType": "contract IJBTerminal",
									"name": "terminal",
									"type": "address"
								},
								{
									"components": [
										{
											"internalType": "address",
											"name": "token",
											"type": "address"
										},
										{
											"internalType": "uint8",
											"name": "decimals",
											"type": "uint8"
										},
										{
											"internalType": "uint32",
											"name": "currency",
											"type": "uint32"
										}
									],
									"internalType": "struct JBAccountingContext[]",
									"name": "accountingContextsToAccept",
									"type": "tuple[]"
								}
							],
							"internalType": "struct JBTerminalConfig[]",
							"name": "terminalConfigurations",
							"type": "tuple[]"
						},
						{
							"internalType": "string",
							"name": "memo",
							"type": "string"
						}
					],
					"internalType": "struct JBLaunchRulesetsConfig",
					"name": "launchRulesetsConfig",
					"type": "tuple"
				},
				{
					"internalType": "contract IJBController",
					"name": "controller",
					"type": "address"
				},
				{
					"internalType": "bytes32",
					"name": "salt",
					"type": "bytes32"
				}
			],
			"name": "launchRulesetsFor",
			"outputs": [
				{
					"internalType": "uint256",
					"name": "rulesetId",
					"type": "uint256"
				},
				{
					"internalType": "contract IJB721TiersHook",
					"name": "hook",
					"type": "address"
				}
			],
			"stateMutability": "nonpayable",
			"type": "function"
		},
		{
			"inputs": [
				{
					"internalType": "uint256",
					"name": "projectId",
					"type": "uint256"
				},
				{
					"components": [
						{
							"internalType": "string",
							"name": "name",
							"type": "string"
						},
						{
							"internalType": "string",
							"name": "symbol",
							"type": "string"
						},
						{
							"internalType": "string",
							"name": "baseUri",
							"type": "string"
						},
						{
							"internalType": "contract IJB721TokenUriResolver",
							"name": "tokenUriResolver",
							"type": "address"
						},
						{
							"internalType": "string",
							"name": "contractUri",
							"type": "string"
						},
						{
							"components": [
								{
									"components": [
										{
											"internalType": "uint104",
											"name": "price",
											"type": "uint104"
										},
										{
											"internalType": "uint32",
											"name": "initialSupply",
											"type": "uint32"
										},
										{
											"internalType": "uint32",
											"name": "votingUnits",
											"type": "uint32"
										},
										{
											"internalType": "uint16",
											"name": "reserveFrequency",
											"type": "uint16"
										},
										{
											"internalType": "address",
											"name": "reserveBeneficiary",
											"type": "address"
										},
										{
											"internalType": "bytes32",
											"name": "encodedIPFSUri",
											"type": "bytes32"
										},
										{
											"internalType": "uint24",
											"name": "category",
											"type": "uint24"
										},
										{
											"internalType": "uint8",
											"name": "discountPercent",
											"type": "uint8"
										},
										{
											"internalType": "bool",
											"name": "allowOwnerMint",
											"type": "bool"
										},
										{
											"internalType": "bool",
											"name": "useReserveBeneficiaryAsDefault",
											"type": "bool"
										},
										{
											"internalType": "bool",
											"name": "transfersPausable",
											"type": "bool"
										},
										{
											"internalType": "bool",
											"name": "useVotingUnits",
											"type": "bool"
										},
										{
											"internalType": "bool",
											"name": "cannotBeRemoved",
											"type": "bool"
										},
										{
											"internalType": "bool",
											"name": "cannotIncreaseDiscountPercent",
											"type": "bool"
										}
									],
									"internalType": "struct JB721TierConfig[]",
									"name": "tiers",
									"type": "tuple[]"
								},
								{
									"internalType": "uint32",
									"name": "currency",
									"type": "uint32"
								},
								{
									"internalType": "uint8",
									"name": "decimals",
									"type": "uint8"
								},
								{
									"internalType": "contract IJBPrices",
									"name": "prices",
									"type": "address"
								}
							],
							"internalType": "struct JB721InitTiersConfig",
							"name": "tiersConfig",
							"type": "tuple"
						},
						{
							"internalType": "address",
							"name": "reserveBeneficiary",
							"type": "address"
						},
						{
							"components": [
								{
									"internalType": "bool",
									"name": "noNewTiersWithReserves",
									"type": "bool"
								},
								{
									"internalType": "bool",
									"name": "noNewTiersWithVotes",
									"type": "bool"
								},
								{
									"internalType": "bool",
									"name": "noNewTiersWithOwnerMinting",
									"type": "bool"
								},
								{
									"internalType": "bool",
									"name": "preventOverspending",
									"type": "bool"
								}
							],
							"internalType": "struct JB721TiersHookFlags",
							"name": "flags",
							"type": "tuple"
						}
					],
					"internalType": "struct JBDeploy721TiersHookConfig",
					"name": "deployTiersHookConfig",
					"type": "tuple"
				},
				{
					"components": [
						{
							"internalType": "uint56",
							"name": "projectId",
							"type": "uint56"
						},
						{
							"components": [
								{
									"internalType": "uint48",
									"name": "mustStartAtOrAfter",
									"type": "uint48"
								},
								{
									"internalType": "uint32",
									"name": "duration",
									"type": "uint32"
								},
								{
									"internalType": "uint112",
									"name": "weight",
									"type": "uint112"
								},
								{
									"internalType": "uint32",
									"name": "weightCutPercent",
									"type": "uint32"
								},
								{
									"internalType": "contract IJBRulesetApprovalHook",
									"name": "approvalHook",
									"type": "address"
								},
								{
									"components": [
										{
											"internalType": "uint16",
											"name": "reservedPercent",
											"type": "uint16"
										},
										{
											"internalType": "uint16",
											"name": "cashOutTaxRate",
											"type": "uint16"
										},
										{
											"internalType": "uint32",
											"name": "baseCurrency",
											"type": "uint32"
										},
										{
											"internalType": "bool",
											"name": "pausePay",
											"type": "bool"
										},
										{
											"internalType": "bool",
											"name": "pauseCreditTransfers",
											"type": "bool"
										},
										{
											"internalType": "bool",
											"name": "allowOwnerMinting",
											"type": "bool"
										},
										{
											"internalType": "bool",
											"name": "allowTerminalMigration",
											"type": "bool"
										},
										{
											"internalType": "bool",
											"name": "allowSetTerminals",
											"type": "bool"
										},
										{
											"internalType": "bool",
											"name": "allowSetController",
											"type": "bool"
										},
										{
											"internalType": "bool",
											"name": "allowAddAccountingContext",
											"type": "bool"
										},
										{
											"internalType": "bool",
											"name": "allowAddPriceFeed",
											"type": "bool"
										},
										{
											"internalType": "bool",
											"name": "ownerMustSendPayouts",
											"type": "bool"
										},
										{
											"internalType": "bool",
											"name": "holdFees",
											"type": "bool"
										},
										{
											"internalType": "bool",
											"name": "useTotalSurplusForCashOuts",
											"type": "bool"
										},
										{
											"internalType": "bool",
											"name": "useDataHookForCashOut",
											"type": "bool"
										},
										{
											"internalType": "uint16",
											"name": "metadata",
											"type": "uint16"
										}
									],
									"internalType": "struct JBPayDataHookRulesetMetadata",
									"name": "metadata",
									"type": "tuple"
								},
								{
									"components": [
										{
											"internalType": "uint256",
											"name": "groupId",
											"type": "uint256"
										},
										{
											"components": [
												{
													"internalType": "uint32",
													"name": "percent",
													"type": "uint32"
												},
												{
													"internalType": "uint64",
													"name": "projectId",
													"type": "uint64"
												},
												{
													"internalType": "address payable",
													"name": "beneficiary",
													"type": "address"
												},
												{
													"internalType": "bool",
													"name": "preferAddToBalance",
													"type": "bool"
												},
												{
													"internalType": "uint48",
													"name": "lockedUntil",
													"type": "uint48"
												},
												{
													"internalType": "contract IJBSplitHook",
													"name": "hook",
													"type": "address"
												}
											],
											"internalType": "struct JBSplit[]",
											"name": "splits",
											"type": "tuple[]"
										}
									],
									"internalType": "struct JBSplitGroup[]",
									"name": "splitGroups",
									"type": "tuple[]"
								},
								{
									"components": [
										{
											"internalType": "address",
											"name": "terminal",
											"type": "address"
										},
										{
											"internalType": "address",
											"name": "token",
											"type": "address"
										},
										{
											"components": [
												{
													"internalType": "uint224",
													"name": "amount",
													"type": "uint224"
												},
												{
													"internalType": "uint32",
													"name": "currency",
													"type": "uint32"
												}
											],
											"internalType": "struct JBCurrencyAmount[]",
											"name": "payoutLimits",
											"type": "tuple[]"
										},
										{
											"components": [
												{
													"internalType": "uint224",
													"name": "amount",
													"type": "uint224"
												},
												{
													"internalType": "uint32",
													"name": "currency",
													"type": "uint32"
												}
											],
											"internalType": "struct JBCurrencyAmount[]",
											"name": "surplusAllowances",
											"type": "tuple[]"
										}
									],
									"internalType": "struct JBFundAccessLimitGroup[]",
									"name": "fundAccessLimitGroups",
									"type": "tuple[]"
								}
							],
							"internalType": "struct JBPayDataHookRulesetConfig[]",
							"name": "rulesetConfigurations",
							"type": "tuple[]"
						},
						{
							"internalType": "string",
							"name": "memo",
							"type": "string"
						}
					],
					"internalType": "struct JBQueueRulesetsConfig",
					"name": "queueRulesetsConfig",
					"type": "tuple"
				},
				{
					"internalType": "contract IJBController",
					"name": "controller",
					"type": "address"
				},
				{
					"internalType": "bytes32",
					"name": "salt",
					"type": "bytes32"
				}
			],
			"name": "queueRulesetsOf",
			"outputs": [
				{
					"internalType": "uint256",
					"name": "rulesetId",
					"type": "uint256"
				},
				{
					"internalType": "contract IJB721TiersHook",
					"name": "hook",
					"type": "address"
				}
			],
			"stateMutability": "nonpayable",
			"type": "function"
		},
		{
			"inputs": [],
			"name": "trustedForwarder",
			"outputs": [
				{
					"internalType": "address",
					"name": "",
					"type": "address"
				}
			],
			"stateMutability": "view",
			"type": "function"
		},
		{
			"inputs": [
				{
					"internalType": "address",
					"name": "account",
					"type": "address"
				},
				{
					"internalType": "address",
					"name": "sender",
					"type": "address"
				},
				{
					"internalType": "uint256",
					"name": "projectId",
					"type": "uint256"
				},
				{
					"internalType": "uint256",
					"name": "permissionId",
					"type": "uint256"
				}
			],
			"name": "JBPermissioned_Unauthorized",
			"type": "error"
		}
	],
	"args": [],
	"solcInputHash": "a53577c959d82e03cf153f462e938cbd",
	"bytecode": "0x6101006040523480156200001257600080fd5b5060405162002de838038062002de8833981016040819052620000359162000072565b6001600160a01b0390811660805291821660a05291811660c0521660e052620000da565b6001600160a01b03811681146200006f57600080fd5b50565b600080600080608085870312156200008957600080fd5b8451620000968162000059565b6020860151909450620000a98162000059565b6040860151909350620000bc8162000059565b6060860151909250620000cf8162000059565b939692955090935050565b60805160a05160c05160e051612c966200015260003960008181610178015281816102ef015281816105bb0152610807015260008181610151015281816101ef01528181610444015261070f0152600081816101c501526109bd015260008181609d0152818161011401526113300152612c966000f3fe608060405234801561001057600080fd5b50600436106100885760003560e01c8063abf8c5c81161005b578063abf8c5c814610173578063d89acff71461019a578063ea38480b146101ad578063f434c914146101c057600080fd5b8063572b6c051461008d5780636386000a146100e25780637da0a8771461011257806388bc2ef31461014c575b600080fd5b6100cd61009b366004611493565b7f00000000000000000000000000000000000000000000000000000000000000006001600160a01b0390811691161490565b60405190151581526020015b60405180910390f35b6100f56100f03660046114d0565b6101e7565b604080519283526001600160a01b039091166020830152016100d9565b7f00000000000000000000000000000000000000000000000000000000000000005b6040516001600160a01b0390911681526020016100d9565b6101347f000000000000000000000000000000000000000000000000000000000000000081565b6101347f000000000000000000000000000000000000000000000000000000000000000081565b6100f56101a836600461156f565b61043d565b6100f56101bb3660046115e6565b61070a565b6101347f000000000000000000000000000000000000000000000000000000000000000081565b6000806102e57f00000000000000000000000000000000000000000000000000000000000000006001600160a01b031663293c49996040518163ffffffff1660e01b8152600401602060405180830381865afa15801561024b573d6000803e3d6000fd5b505050506040513d601f19601f8201168201806040525081019061026f9190611626565b6001600160a01b0316636352211e896040518263ffffffff1660e01b815260040161029c91815260200190565b602060405180830381865afa1580156102b9573d6000803e3d6000fd5b505050506040513d601f19601f820116820180604052508101906102dd9190611626565b886002610951565b6001600160a01b037f00000000000000000000000000000000000000000000000000000000000000001663ea74b8af8888861561035b57610324610a73565b604080516001600160a01b03909216602083015281018890526060016040516020818303038152906040528051906020012061035e565b60005b6040518463ffffffff1660e01b815260040161037c939291906119a2565b6020604051808303816000875af115801561039b573d6000803e3d6000fd5b505050506040513d601f19601f820116820180604052508101906103bf9190611626565b6040516351106b4b60e11b8152600481018990529091506001600160a01b0382169063a220d69690602401600060405180830381600087803b15801561040457600080fd5b505af1158015610418573d6000803e3d6000fd5b50505050610431878661042a906122ae565b8387610a82565b91509550959350505050565b60008060007f00000000000000000000000000000000000000000000000000000000000000006001600160a01b031663293c49996040518163ffffffff1660e01b8152600401602060405180830381865afa1580156104a0573d6000803e3d6000fd5b505050506040513d601f19601f820116820180604052508101906104c49190611626565b6040516331a9108f60e11b8152600481018a905290915061053c906001600160a01b03831690636352211e90602401602060405180830381865afa158015610510573d6000803e3d6000fd5b505050506040513d601f19601f820116820180604052508101906105349190611626565b896002610951565b6040516331a9108f60e11b8152600481018990526105b1906001600160a01b03831690636352211e90602401602060405180830381865afa158015610585573d6000803e3d6000fd5b505050506040513d601f19601f820116820180604052508101906105a99190611626565b89600e610951565b6001600160a01b037f00000000000000000000000000000000000000000000000000000000000000001663ea74b8af89898715610627576105f0610a73565b604080516001600160a01b03909216602083015281018990526060016040516020818303038152906040528051906020012061062a565b60005b6040518463ffffffff1660e01b8152600401610648939291906119a2565b6020604051808303816000875af1158015610667573d6000803e3d6000fd5b505050506040513d601f19601f8201168201806040525081019061068b9190611626565b6040516351106b4b60e11b8152600481018a90529092506001600160a01b0383169063a220d69690602401600060405180830381600087803b1580156106d057600080fd5b505af11580156106e4573d6000803e3d6000fd5b505050506106fd88876106f69061248d565b8488610d78565b9250509550959350505050565b6000807f00000000000000000000000000000000000000000000000000000000000000006001600160a01b031663293c49996040518163ffffffff1660e01b8152600401602060405180830381865afa15801561076b573d6000803e3d6000fd5b505050506040513d601f19601f8201168201806040525081019061078f9190611626565b6001600160a01b03166306661abd6040518163ffffffff1660e01b8152600401602060405180830381865afa1580156107cc573d6000803e3d6000fd5b505050506040513d601f19601f820116820180604052508101906107f09190612530565b6107fb90600161255f565b91506001600160a01b037f00000000000000000000000000000000000000000000000000000000000000001663ea74b8af838886156108735761083c610a73565b604080516001600160a01b039092166020830152810188905260600160405160208183030381529060405280519060200120610876565b60005b6040518463ffffffff1660e01b8152600401610894939291906119a2565b6020604051808303816000875af11580156108b3573d6000803e3d6000fd5b505050506040513d601f19601f820116820180604052508101906108d79190611626565b90506108ed876108e687612578565b8387611026565b6040516351106b4b60e11b8152600481018390526001600160a01b0382169063a220d69690602401600060405180830381600087803b15801561092f57600080fd5b505af1158015610943573d6000803e3d6000fd5b505050509550959350505050565b600061095b610a73565b9050836001600160a01b0316816001600160a01b031614158015610a2a5750604051631a45b42760e11b81526001600160a01b0382811660048301528581166024830152604482018590526064820184905260016084830181905260a48301527f0000000000000000000000000000000000000000000000000000000000000000169063348b684e9060c401602060405180830381865afa158015610a04573d6000803e3d6000fd5b505050506040513d601f19601f82011682018060405250810190610a2891906125cc565b155b15610a6d57604051631326f75560e11b81526001600160a01b03808616600483015282166024820152604481018490526064810183905260840160405180910390fd5b50505050565b6000610a7d611320565b905090565b60008084602001515167ffffffffffffffff811115610aa357610aa3611acc565b604051908082528060200260200182016040528015610adc57816020015b610ac9611395565b815260200190600190039081610ac15790505b50905060005b856020015151811015610cf657600086602001518281518110610b0757610b076125e9565b60200260200101519050604051806101000160405280826000015165ffffffffffff168152602001826020015163ffffffff16815260200182604001516dffffffffffffffffffffffffffff168152602001826060015163ffffffff16815260200182608001516001600160a01b031681526020016040518061026001604052808460a001516000015161ffff1681526020018460a001516020015161ffff1681526020018460a001516040015163ffffffff1681526020018460a0015160600151151581526020018460a0015160800151151581526020018460a0015160a00151151581526020016000151581526020018460a0015160c00151151581526020018460a0015160e00151151581526020018460a001516101000151151581526020018460a001516101200151151581526020018460a001516101400151151581526020018460a001516101600151151581526020018460a001516101800151151581526020018460a001516101a00151151581526020016001151581526020018460a001516101c0015115158152602001896001600160a01b031681526020018460a001516101e0015161ffff1681525081526020018260c0015181526020018260e00151815250838381518110610ce257610ce26125e9565b602090810291909101015250600101610ae2565b5060408086015190516303141db760e41b81526001600160a01b03851691633141db7091610d2b918a91869190600401612a5d565b6020604051808303816000875af1158015610d4a573d6000803e3d6000fd5b505050506040513d601f19601f82011682018060405250810190610d6e9190612530565b9695505050505050565b60008084602001515167ffffffffffffffff811115610d9957610d99611acc565b604051908082528060200260200182016040528015610dd257816020015b610dbf611395565b815260200190600190039081610db75790505b50905060005b856020015151811015610fec57600086602001518281518110610dfd57610dfd6125e9565b60200260200101519050604051806101000160405280826000015165ffffffffffff168152602001826020015163ffffffff16815260200182604001516dffffffffffffffffffffffffffff168152602001826060015163ffffffff16815260200182608001516001600160a01b031681526020016040518061026001604052808460a001516000015161ffff1681526020018460a001516020015161ffff1681526020018460a001516040015163ffffffff1681526020018460a0015160600151151581526020018460a0015160800151151581526020018460a0015160a00151151581526020016000151581526020018460a0015160c00151151581526020018460a0015160e00151151581526020018460a001516101000151151581526020018460a001516101200151151581526020018460a001516101400151151581526020018460a001516101600151151581526020018460a001516101800151151581526020018460a001516101a00151151581526020016001151581526020018460a001516101c0015115158152602001896001600160a01b031681526020018460a001516101e0015161ffff1681525081526020018260c0015181526020018260e00151815250838381518110610fd857610fd86125e9565b602090810291909101015250600101610dd8565b50604080860151606087015191516339284f3560e01b81526001600160a01b038616926339284f3592610d2b928b92879291600401612b3c565b600083602001515167ffffffffffffffff81111561104657611046611acc565b60405190808252806020026020018201604052801561107f57816020015b61106c611395565b8152602001906001900390816110645790505b50905060005b846020015151811015611299576000856020015182815181106110aa576110aa6125e9565b60200260200101519050604051806101000160405280826000015165ffffffffffff168152602001826020015163ffffffff16815260200182604001516dffffffffffffffffffffffffffff168152602001826060015163ffffffff16815260200182608001516001600160a01b031681526020016040518061026001604052808460a001516000015161ffff1681526020018460a001516020015161ffff1681526020018460a001516040015163ffffffff1681526020018460a0015160600151151581526020018460a0015160800151151581526020018460a0015160a00151151581526020016000151581526020018460a0015160c00151151581526020018460a0015160e00151151581526020018460a001516101000151151581526020018460a001516101200151151581526020018460a001516101400151151581526020018460a001516101600151151581526020018460a001516101800151151581526020018460a001516101a00151151581526020016001151581526020018460a001516101c0015115158152602001886001600160a01b031681526020018460a001516101e0015161ffff1681525081526020018260c0015181526020018260e00151815250838381518110611285576112856125e9565b602090810291909101015250600101611085565b50835160408086015160608701519151635c7465e560e01b81526001600160a01b03861693635c7465e5936112d5938b93889290600401612b86565b6020604051808303816000875af11580156112f4573d6000803e3d6000fd5b505050506040513d601f19601f820116820180604052508101906113189190612530565b505050505050565b6000366014336001600160a01b037f00000000000000000000000000000000000000000000000000000000000000001614801561135d5750808210155b1561138d5760003661136f8385612bee565b61137a928290612c01565b61138391612c2b565b60601c9250505090565b339250505090565b6040805161010080820183526000808352602080840182905283850182905260608085018390526080808601849052865161026081018852848152928301849052958201839052810182905293840181905260a084810182905260c0850182905260e0850182905291840181905261012084018190526101408401819052610160840181905261018084018190526101a084018190526101c084018190526101e0840181905261020084018190526102208401819052610240840152909190820190815260200160608152602001606081525090565b6001600160a01b038116811461148057600080fd5b50565b803561148e8161146b565b919050565b6000602082840312156114a557600080fd5b81356114b08161146b565b9392505050565b600061016082840312156114ca57600080fd5b50919050565b600080600080600060a086880312156114e857600080fd5b85359450602086013567ffffffffffffffff8082111561150757600080fd5b61151389838a016114b7565b9550604088013591508082111561152957600080fd5b5086016060818903121561153c57600080fd5b9250606086013561154c8161146b565b949793965091946080013592915050565b6000608082840312156114ca57600080fd5b600080600080600060a0868803121561158757600080fd5b85359450602086013567ffffffffffffffff808211156115a657600080fd5b6115b289838a016114b7565b955060408801359150808211156115c857600080fd5b506115d58882890161155d565b935050606086013561154c8161146b565b600080600080600060a086880312156115fe57600080fd5b85356116098161146b565b9450602086013567ffffffffffffffff808211156115a657600080fd5b60006020828403121561163857600080fd5b81516114b08161146b565b6000808335601e1984360301811261165a57600080fd5b830160208101925035905067ffffffffffffffff81111561167a57600080fd5b80360382131561168957600080fd5b9250929050565b81835281816020850137506000828201602090810191909152601f909101601f19169091010190565b60008235607e198336030181126116cf57600080fd5b90910192915050565b80356cffffffffffffffffffffffffff8116811461148e57600080fd5b803563ffffffff8116811461148e57600080fd5b803561ffff8116811461148e57600080fd5b803562ffffff8116811461148e57600080fd5b803560ff8116811461148e57600080fd5b801515811461148057600080fd5b803561148e8161173f565b600060808084018335601e1985360301811261177357600080fd5b8401602081810191359067ffffffffffffffff82111561179257600080fd5b6101c080830236038413156117a657600080fd5b608089529382905260a09384890160005b848110156118f2576117df826117cc886116d8565b6cffffffffffffffffffffffffff169052565b6117ea8487016116f5565b63ffffffff168483015260406118018782016116f5565b63ffffffff16908301526060611818878201611709565b61ffff169083015261182b868901611483565b6001600160a01b031688830152858701358783015260c061184d81880161171b565b62ffffff169083015260e061186387820161172e565b60ff169083015261010061187887820161174d565b15159083015261012061188c87820161174d565b1515908301526101406118a087820161174d565b1515908301526101606118b487820161174d565b1515908301526101806118c887820161174d565b1515908301526101a06118dc87820161174d565b15159083015294820194908201906001016117b7565b506118ff60208a016116f5565b63ffffffff811660208c0152965061191960408a0161172e565b60ff811660408c0152965061193060608a01611483565b6001600160a01b03811660608c015296509998505050505050505050565b80356119598161173f565b15158252602081013561196b8161173f565b1515602083015260408101356119808161173f565b1515604083015260608101356119958161173f565b8015156060840152505050565b8381526060602082015260006119b88485611643565b61016060608501526119cf6101c085018284611690565b9150506119df6020860186611643565b605f19808685030160808701526119f7848385611690565b9350611a066040890189611643565b93509150808685030160a0870152611a1f848484611690565b9350611a2d60608901611483565b6001600160a01b03811660c08801529250611a4b6080890189611643565b93509150808685030160e0870152611a64848484611690565b9350611a7360a08901896116b9565b925080868503016101008701525050611a8c8282611758565b915050611a9b60c08601611483565b6001600160a01b0316610120840152611abb610140840160e0870161194e565b604092909201929092529392505050565b634e487b7160e01b600052604160045260246000fd5b604051610200810167ffffffffffffffff81118282101715611b0657611b06611acc565b60405290565b6040805190810167ffffffffffffffff81118282101715611b0657611b06611acc565b60405160c0810167ffffffffffffffff81118282101715611b0657611b06611acc565b6040516080810167ffffffffffffffff81118282101715611b0657611b06611acc565b604051610100810167ffffffffffffffff81118282101715611b0657611b06611acc565b6040516060810167ffffffffffffffff81118282101715611b0657611b06611acc565b604051601f8201601f1916810167ffffffffffffffff81118282101715611be557611be5611acc565b604052919050565b803566ffffffffffffff8116811461148e57600080fd5b600067ffffffffffffffff821115611c1e57611c1e611acc565b5060051b60200190565b803565ffffffffffff8116811461148e57600080fd5b80356dffffffffffffffffffffffffffff8116811461148e57600080fd5b60006102008284031215611c6f57600080fd5b611c77611ae2565b9050611c8282611709565b8152611c9060208301611709565b6020820152611ca1604083016116f5565b6040820152611cb26060830161174d565b6060820152611cc36080830161174d565b6080820152611cd460a0830161174d565b60a0820152611ce560c0830161174d565b60c0820152611cf660e0830161174d565b60e0820152610100611d0981840161174d565b90820152610120611d1b83820161174d565b90820152610140611d2d83820161174d565b90820152610160611d3f83820161174d565b90820152610180611d5183820161174d565b908201526101a0611d6383820161174d565b908201526101c0611d7583820161174d565b908201526101e0611d87838201611709565b9082015292915050565b600082601f830112611da257600080fd5b81356020611db7611db283611c04565b611bbc565b82815260059290921b84018101918181019086841115611dd657600080fd5b8286015b84811015611f2c5767ffffffffffffffff8082351115611df957600080fd5b813588016040818b03601f19011215611e1157600080fd5b611e19611b0c565b868201358152604082013583811115611e3157600080fd5b8083019250508a603f830112611e4657600080fd5b86820135611e56611db282611c04565b81815260c0909102830160400190888101908d831115611e7557600080fd5b6040850194505b82851015611f175760c0858f031215611e9457600080fd5b611e9c611b2f565b611ea5866116f5565b81528a8601358781168114611eb957600080fd5b818c01526040860135611ecb8161146b565b60408201526060860135611ede8161173f565b6060820152611eef60808701611c28565b6080820152611f0060a08701611483565b60a0820152825260c0949094019390890190611e7c565b838a0152505085525050918301918301611dda565b509695505050505050565b600082601f830112611f4857600080fd5b81356020611f58611db283611c04565b82815260069290921b84018101918181019086841115611f7757600080fd5b8286015b84811015611f2c5760408189031215611f945760008081fd5b611f9c611b0c565b81357bffffffffffffffffffffffffffffffffffffffffffffffffffffffff81168114611fc95760008081fd5b8152611fd68286016116f5565b81860152835291830191604001611f7b565b600082601f830112611ff957600080fd5b81356020612009611db283611c04565b82815260059290921b8401810191818101908684111561202857600080fd5b8286015b84811015611f2c57803567ffffffffffffffff8082111561204d5760008081fd5b908801906080828b03601f19018113156120675760008081fd5b61206f611b52565b8784013561207c8161146b565b815260408481013561208d8161146b565b828a0152606085810135858111156120a55760008081fd5b6120b38f8c838a0101611f37565b84840152509285013592848411156120cd57600091508182fd5b6120db8e8b86890101611f37565b9083015250865250505091830191830161202c565b600082601f83011261210157600080fd5b81356020612111611db283611c04565b82815260059290921b8401810191818101908684111561213057600080fd5b8286015b84811015611f2c57803567ffffffffffffffff808211156121555760008081fd5b908801906102e0828b03601f19018113156121705760008081fd5b612178611b75565b612183888501611c28565b815260406121928186016116f5565b8983015260606121a3818701611c3e565b82840152608091506121b68287016116f5565b9083015260a06121c7868201611483565b8284015260c091506121db8e838801611c5c565b908301526102c0850135848111156121f35760008081fd5b6122018e8b83890101611d91565b8284015250508184013591508282111561221b5760008081fd5b6122298c8984870101611fe8565b60e08201528652505050918301918301612134565b600082601f83011261224f57600080fd5b813567ffffffffffffffff81111561226957612269611acc565b61227c601f8201601f1916602001611bbc565b81815284602083860101111561229157600080fd5b816020850160208301376000918101602001919091529392505050565b6000606082360312156122c057600080fd5b6122c8611b99565b6122d183611bed565b8152602083013567ffffffffffffffff808211156122ee57600080fd5b6122fa368387016120f0565b6020840152604085013591508082111561231357600080fd5b506123203682860161223e565b60408301525092915050565b600082601f83011261233d57600080fd5b8135602061234d611db283611c04565b82815260059290921b8401810191818101908684111561236c57600080fd5b8286015b84811015611f2c57803567ffffffffffffffff8082111561239057600080fd5b908801906040828b03601f19018113156123a957600080fd5b6123b1611b0c565b878401356123be8161146b565b815283820135838111156123d157600080fd5b8085019450508b603f8501126123e657600080fd5b8784013592506123f8611db284611c04565b83815260609093028401820192888101908d85111561241657600080fd5b948301945b84861015612478576060868f03121561243357600080fd5b61243b611b99565b86356124468161146b565b8152612453878c0161172e565b8b8201526124628588016116f5565b818601528252606095909501949089019061241b565b828a0152508652505050918301918301612370565b60006080823603121561249f57600080fd5b6124a7611b52565b6124b083611bed565b8152602083013567ffffffffffffffff808211156124cd57600080fd5b6124d9368387016120f0565b602084015260408501359150808211156124f257600080fd5b6124fe3683870161232c565b6040840152606085013591508082111561251757600080fd5b506125243682860161223e565b60608301525092915050565b60006020828403121561254257600080fd5b5051919050565b634e487b7160e01b600052601160045260246000fd5b8082018082111561257257612572612549565b92915050565b60006080823603121561258a57600080fd5b612592611b52565b823567ffffffffffffffff808211156125aa57600080fd5b6125b63683870161223e565b835260208501359150808211156124cd57600080fd5b6000602082840312156125de57600080fd5b81516114b08161173f565b634e487b7160e01b600052603260045260246000fd5b805161ffff168252602081015161261c602084018261ffff169052565b506040810151612634604084018263ffffffff169052565b506060810151612648606084018215159052565b50608081015161265c608084018215159052565b5060a081015161267060a084018215159052565b5060c081015161268460c084018215159052565b5060e081015161269860e084018215159052565b5061010081810151151590830152610120808201511515908301526101408082015115159083015261016080820151151590830152610180808201511515908301526101a0808201511515908301526101c0808201511515908301526101e08082015115159083015261020080820151151590830152610220808201516001600160a01b0316908301526102408082015161ffff811682850152610a6d565b600082825180855260208086019550808260051b8401018186016000805b8581101561281557868403601f19018a52825180518552850151604086860181905281518187018190529187019160609081880190865b818110156127fe578551805163ffffffff1684528b81015167ffffffffffffffff168c850152858101516001600160a01b03908116878601528582015115158686015260808083015165ffffffffffff169086015260a0918201511690840152948a019460c09092019160010161278c565b50509c88019c965050509285019250600101612755565b509198975050505050505050565b60008151808452602080850194506020840160005b8381101561288357815180517bffffffffffffffffffffffffffffffffffffffffffffffffffffffff16885283015163ffffffff168388015260409096019590820190600101612838565b509495945050505050565b600082825180855260208086019550808260051b84010181860160005b8481101561292257601f19868403018952815160806001600160a01b03808351168652808784015116878701525060408083015182828801526128f083880182612823565b925050506060808301519250858203818701525061290e8183612823565b9a86019a94505050908301906001016128ab565b5090979650505050505050565b600082825180855260208086019550808260051b84010181860160005b8481101561292257601f198684030189528151805165ffffffffffff1684528481015163ffffffff908116868601526040808301516dffffffffffffffffffffffffffff1690860152606080830151909116908501526080808201516001600160a01b03169085015260a08082015161034091906129cc828801826125ff565b505060c0820151816103008701526129e682870182612737565b91505060e08201519150848103610320860152612a03818361288e565b9a86019a945050509083019060010161294c565b6000815180845260005b81811015612a3d57602081850181015186830182015201612a21565b506000602082860101526020601f19601f83011685010191505092915050565b838152606060208201526000612a76606083018561292f565b8281036040840152610d6e8185612a17565b600082825180855260208086019550808260051b8401018186016000805b8581101561281557868403601f19018a52825180516001600160a01b03908116865290860151604087870181905281518188018190529188019290916060919082890190875b81811015612b245786518051851684528c81015160ff168d85015286015163ffffffff1686840152958b019591840191600101612aec565b50509d89019d97505050938601935050600101612aa6565b848152608060208201526000612b55608083018661292f565b8281036040840152612b678186612a88565b90508281036060840152612b7b8185612a17565b979650505050505050565b6001600160a01b038616815260a060208201526000612ba860a0830187612a17565b8281036040840152612bba818761292f565b90508281036060840152612bce8186612a88565b90508281036080840152612be28185612a17565b98975050505050505050565b8181038181111561257257612572612549565b60008085851115612c1157600080fd5b83861115612c1e57600080fd5b5050820193919092039150565b6bffffffffffffffffffffffff198135818116916014851015612c585780818660140360031b1b83161692505b50509291505056fea2646970667358221220796d556aec2ba31f1c25d740b8a0c38ac566539d7b1f97a2b21109f7da644b8f64736f6c63430008170033",
	"deployedBytecode": "0x",
	"gitCommit": "b3934ace6cc269b5827ac42cb3c551423aff0d78"
}