{
	"_format": "sphinx-sol-ct-artifact-1",
	"merkleRoot": "0xf022ccb63ab9d53d28803c2825ae855934c2ea053baacf167205a78967a9633a",
	"contractName": "JB721TiersHook",
	"address": "0xB82085d1572f882f1Ba3b40c83fb378e33fd8d12",
	"abi": [
		{
			"type": "constructor",
			"inputs": [
				{
					"name": "directory",
					"type": "address",
					"internalType": "contract IJBDirectory"
				},
				{
					"name": "permissions",
					"type": "address",
					"internalType": "contract IJBPermissions"
				},
				{
					"name": "rulesets",
					"type": "address",
					"internalType": "contract IJBRulesets"
				},
				{
					"name": "store",
					"type": "address",
					"internalType": "contract IJB721TiersHookStore"
				},
				{
					"name": "trustedForwarder",
					"type": "address",
					"internalType": "address"
				}
			],
			"stateMutability": "nonpayable"
		},
		{
			"type": "function",
			"name": "DIRECTORY",
			"inputs": [],
			"outputs": [
				{
					"name": "",
					"type": "address",
					"internalType": "contract IJBDirectory"
				}
			],
			"stateMutability": "view"
		},
		{
			"type": "function",
			"name": "METADATA_ID_TARGET",
			"inputs": [],
			"outputs": [
				{
					"name": "",
					"type": "address",
					"internalType": "address"
				}
			],
			"stateMutability": "view"
		},
		{
			"type": "function",
			"name": "PERMISSIONS",
			"inputs": [],
			"outputs": [
				{
					"name": "",
					"type": "address",
					"internalType": "contract IJBPermissions"
				}
			],
			"stateMutability": "view"
		},
		{
			"type": "function",
			"name": "PROJECTS",
			"inputs": [],
			"outputs": [
				{
					"name": "",
					"type": "address",
					"internalType": "contract IJBProjects"
				}
			],
			"stateMutability": "view"
		},
		{
			"type": "function",
			"name": "PROJECT_ID",
			"inputs": [],
			"outputs": [
				{
					"name": "",
					"type": "uint256",
					"internalType": "uint256"
				}
			],
			"stateMutability": "view"
		},
		{
			"type": "function",
			"name": "RULESETS",
			"inputs": [],
			"outputs": [
				{
					"name": "",
					"type": "address",
					"internalType": "contract IJBRulesets"
				}
			],
			"stateMutability": "view"
		},
		{
			"type": "function",
			"name": "STORE",
			"inputs": [],
			"outputs": [
				{
					"name": "",
					"type": "address",
					"internalType": "contract IJB721TiersHookStore"
				}
			],
			"stateMutability": "view"
		},
		{
			"type": "function",
			"name": "adjustTiers",
			"inputs": [
				{
					"name": "tiersToAdd",
					"type": "tuple[]",
					"internalType": "struct JB721TierConfig[]",
					"components": [
						{
							"name": "price",
							"type": "uint104",
							"internalType": "uint104"
						},
						{
							"name": "initialSupply",
							"type": "uint32",
							"internalType": "uint32"
						},
						{
							"name": "votingUnits",
							"type": "uint32",
							"internalType": "uint32"
						},
						{
							"name": "reserveFrequency",
							"type": "uint16",
							"internalType": "uint16"
						},
						{
							"name": "reserveBeneficiary",
							"type": "address",
							"internalType": "address"
						},
						{
							"name": "encodedIPFSUri",
							"type": "bytes32",
							"internalType": "bytes32"
						},
						{
							"name": "category",
							"type": "uint24",
							"internalType": "uint24"
						},
						{
							"name": "discountPercent",
							"type": "uint8",
							"internalType": "uint8"
						},
						{
							"name": "allowOwnerMint",
							"type": "bool",
							"internalType": "bool"
						},
						{
							"name": "useReserveBeneficiaryAsDefault",
							"type": "bool",
							"internalType": "bool"
						},
						{
							"name": "transfersPausable",
							"type": "bool",
							"internalType": "bool"
						},
						{
							"name": "useVotingUnits",
							"type": "bool",
							"internalType": "bool"
						},
						{
							"name": "cannotBeRemoved",
							"type": "bool",
							"internalType": "bool"
						},
						{
							"name": "cannotIncreaseDiscountPercent",
							"type": "bool",
							"internalType": "bool"
						}
					]
				},
				{
					"name": "tierIdsToRemove",
					"type": "uint256[]",
					"internalType": "uint256[]"
				}
			],
			"outputs": [],
			"stateMutability": "nonpayable"
		},
		{
			"type": "function",
			"name": "afterCashOutRecordedWith",
			"inputs": [
				{
					"name": "context",
					"type": "tuple",
					"internalType": "struct JBAfterCashOutRecordedContext",
					"components": [
						{
							"name": "holder",
							"type": "address",
							"internalType": "address"
						},
						{
							"name": "projectId",
							"type": "uint256",
							"internalType": "uint256"
						},
						{
							"name": "rulesetId",
							"type": "uint256",
							"internalType": "uint256"
						},
						{
							"name": "cashOutCount",
							"type": "uint256",
							"internalType": "uint256"
						},
						{
							"name": "reclaimedAmount",
							"type": "tuple",
							"internalType": "struct JBTokenAmount",
							"components": [
								{
									"name": "token",
									"type": "address",
									"internalType": "address"
								},
								{
									"name": "decimals",
									"type": "uint8",
									"internalType": "uint8"
								},
								{
									"name": "currency",
									"type": "uint32",
									"internalType": "uint32"
								},
								{
									"name": "value",
									"type": "uint256",
									"internalType": "uint256"
								}
							]
						},
						{
							"name": "forwardedAmount",
							"type": "tuple",
							"internalType": "struct JBTokenAmount",
							"components": [
								{
									"name": "token",
									"type": "address",
									"internalType": "address"
								},
								{
									"name": "decimals",
									"type": "uint8",
									"internalType": "uint8"
								},
								{
									"name": "currency",
									"type": "uint32",
									"internalType": "uint32"
								},
								{
									"name": "value",
									"type": "uint256",
									"internalType": "uint256"
								}
							]
						},
						{
							"name": "cashOutTaxRate",
							"type": "uint256",
							"internalType": "uint256"
						},
						{
							"name": "beneficiary",
							"type": "address",
							"internalType": "address payable"
						},
						{
							"name": "hookMetadata",
							"type": "bytes",
							"internalType": "bytes"
						},
						{
							"name": "cashOutMetadata",
							"type": "bytes",
							"internalType": "bytes"
						}
					]
				}
			],
			"outputs": [],
			"stateMutability": "payable"
		},
		{
			"type": "function",
			"name": "afterPayRecordedWith",
			"inputs": [
				{
					"name": "context",
					"type": "tuple",
					"internalType": "struct JBAfterPayRecordedContext",
					"components": [
						{
							"name": "payer",
							"type": "address",
							"internalType": "address"
						},
						{
							"name": "projectId",
							"type": "uint256",
							"internalType": "uint256"
						},
						{
							"name": "rulesetId",
							"type": "uint256",
							"internalType": "uint256"
						},
						{
							"name": "amount",
							"type": "tuple",
							"internalType": "struct JBTokenAmount",
							"components": [
								{
									"name": "token",
									"type": "address",
									"internalType": "address"
								},
								{
									"name": "decimals",
									"type": "uint8",
									"internalType": "uint8"
								},
								{
									"name": "currency",
									"type": "uint32",
									"internalType": "uint32"
								},
								{
									"name": "value",
									"type": "uint256",
									"internalType": "uint256"
								}
							]
						},
						{
							"name": "forwardedAmount",
							"type": "tuple",
							"internalType": "struct JBTokenAmount",
							"components": [
								{
									"name": "token",
									"type": "address",
									"internalType": "address"
								},
								{
									"name": "decimals",
									"type": "uint8",
									"internalType": "uint8"
								},
								{
									"name": "currency",
									"type": "uint32",
									"internalType": "uint32"
								},
								{
									"name": "value",
									"type": "uint256",
									"internalType": "uint256"
								}
							]
						},
						{
							"name": "weight",
							"type": "uint256",
							"internalType": "uint256"
						},
						{
							"name": "newlyIssuedTokenCount",
							"type": "uint256",
							"internalType": "uint256"
						},
						{
							"name": "beneficiary",
							"type": "address",
							"internalType": "address"
						},
						{
							"name": "hookMetadata",
							"type": "bytes",
							"internalType": "bytes"
						},
						{
							"name": "payerMetadata",
							"type": "bytes",
							"internalType": "bytes"
						}
					]
				}
			],
			"outputs": [],
			"stateMutability": "payable"
		},
		{
			"type": "function",
			"name": "approve",
			"inputs": [
				{
					"name": "to",
					"type": "address",
					"internalType": "address"
				},
				{
					"name": "tokenId",
					"type": "uint256",
					"internalType": "uint256"
				}
			],
			"outputs": [],
			"stateMutability": "nonpayable"
		},
		{
			"type": "function",
			"name": "balanceOf",
			"inputs": [
				{
					"name": "owner",
					"type": "address",
					"internalType": "address"
				}
			],
			"outputs": [
				{
					"name": "balance",
					"type": "uint256",
					"internalType": "uint256"
				}
			],
			"stateMutability": "view"
		},
		{
			"type": "function",
			"name": "baseURI",
			"inputs": [],
			"outputs": [
				{
					"name": "",
					"type": "string",
					"internalType": "string"
				}
			],
			"stateMutability": "view"
		},
		{
			"type": "function",
			"name": "beforeCashOutRecordedWith",
			"inputs": [
				{
					"name": "context",
					"type": "tuple",
					"internalType": "struct JBBeforeCashOutRecordedContext",
					"components": [
						{
							"name": "terminal",
							"type": "address",
							"internalType": "address"
						},
						{
							"name": "holder",
							"type": "address",
							"internalType": "address"
						},
						{
							"name": "projectId",
							"type": "uint256",
							"internalType": "uint256"
						},
						{
							"name": "rulesetId",
							"type": "uint256",
							"internalType": "uint256"
						},
						{
							"name": "cashOutCount",
							"type": "uint256",
							"internalType": "uint256"
						},
						{
							"name": "totalSupply",
							"type": "uint256",
							"internalType": "uint256"
						},
						{
							"name": "surplus",
							"type": "tuple",
							"internalType": "struct JBTokenAmount",
							"components": [
								{
									"name": "token",
									"type": "address",
									"internalType": "address"
								},
								{
									"name": "decimals",
									"type": "uint8",
									"internalType": "uint8"
								},
								{
									"name": "currency",
									"type": "uint32",
									"internalType": "uint32"
								},
								{
									"name": "value",
									"type": "uint256",
									"internalType": "uint256"
								}
							]
						},
						{
							"name": "useTotalSurplus",
							"type": "bool",
							"internalType": "bool"
						},
						{
							"name": "cashOutTaxRate",
							"type": "uint256",
							"internalType": "uint256"
						},
						{
							"name": "metadata",
							"type": "bytes",
							"internalType": "bytes"
						}
					]
				}
			],
			"outputs": [
				{
					"name": "cashOutTaxRate",
					"type": "uint256",
					"internalType": "uint256"
				},
				{
					"name": "cashOutCount",
					"type": "uint256",
					"internalType": "uint256"
				},
				{
					"name": "totalSupply",
					"type": "uint256",
					"internalType": "uint256"
				},
				{
					"name": "hookSpecifications",
					"type": "tuple[]",
					"internalType": "struct JBCashOutHookSpecification[]",
					"components": [
						{
							"name": "hook",
							"type": "address",
							"internalType": "contract IJBCashOutHook"
						},
						{
							"name": "amount",
							"type": "uint256",
							"internalType": "uint256"
						},
						{
							"name": "metadata",
							"type": "bytes",
							"internalType": "bytes"
						}
					]
				}
			],
			"stateMutability": "view"
		},
		{
			"type": "function",
			"name": "beforePayRecordedWith",
			"inputs": [
				{
					"name": "context",
					"type": "tuple",
					"internalType": "struct JBBeforePayRecordedContext",
					"components": [
						{
							"name": "terminal",
							"type": "address",
							"internalType": "address"
						},
						{
							"name": "payer",
							"type": "address",
							"internalType": "address"
						},
						{
							"name": "amount",
							"type": "tuple",
							"internalType": "struct JBTokenAmount",
							"components": [
								{
									"name": "token",
									"type": "address",
									"internalType": "address"
								},
								{
									"name": "decimals",
									"type": "uint8",
									"internalType": "uint8"
								},
								{
									"name": "currency",
									"type": "uint32",
									"internalType": "uint32"
								},
								{
									"name": "value",
									"type": "uint256",
									"internalType": "uint256"
								}
							]
						},
						{
							"name": "projectId",
							"type": "uint256",
							"internalType": "uint256"
						},
						{
							"name": "rulesetId",
							"type": "uint256",
							"internalType": "uint256"
						},
						{
							"name": "beneficiary",
							"type": "address",
							"internalType": "address"
						},
						{
							"name": "weight",
							"type": "uint256",
							"internalType": "uint256"
						},
						{
							"name": "reservedPercent",
							"type": "uint256",
							"internalType": "uint256"
						},
						{
							"name": "metadata",
							"type": "bytes",
							"internalType": "bytes"
						}
					]
				}
			],
			"outputs": [
				{
					"name": "weight",
					"type": "uint256",
					"internalType": "uint256"
				},
				{
					"name": "hookSpecifications",
					"type": "tuple[]",
					"internalType": "struct JBPayHookSpecification[]",
					"components": [
						{
							"name": "hook",
							"type": "address",
							"internalType": "contract IJBPayHook"
						},
						{
							"name": "amount",
							"type": "uint256",
							"internalType": "uint256"
						},
						{
							"name": "metadata",
							"type": "bytes",
							"internalType": "bytes"
						}
					]
				}
			],
			"stateMutability": "view"
		},
		{
			"type": "function",
			"name": "cashOutWeightOf",
			"inputs": [
				{
					"name": "tokenIds",
					"type": "uint256[]",
					"internalType": "uint256[]"
				},
				{
					"name": "",
					"type": "tuple",
					"internalType": "struct JBBeforeCashOutRecordedContext",
					"components": [
						{
							"name": "terminal",
							"type": "address",
							"internalType": "address"
						},
						{
							"name": "holder",
							"type": "address",
							"internalType": "address"
						},
						{
							"name": "projectId",
							"type": "uint256",
							"internalType": "uint256"
						},
						{
							"name": "rulesetId",
							"type": "uint256",
							"internalType": "uint256"
						},
						{
							"name": "cashOutCount",
							"type": "uint256",
							"internalType": "uint256"
						},
						{
							"name": "totalSupply",
							"type": "uint256",
							"internalType": "uint256"
						},
						{
							"name": "surplus",
							"type": "tuple",
							"internalType": "struct JBTokenAmount",
							"components": [
								{
									"name": "token",
									"type": "address",
									"internalType": "address"
								},
								{
									"name": "decimals",
									"type": "uint8",
									"internalType": "uint8"
								},
								{
									"name": "currency",
									"type": "uint32",
									"internalType": "uint32"
								},
								{
									"name": "value",
									"type": "uint256",
									"internalType": "uint256"
								}
							]
						},
						{
							"name": "useTotalSurplus",
							"type": "bool",
							"internalType": "bool"
						},
						{
							"name": "cashOutTaxRate",
							"type": "uint256",
							"internalType": "uint256"
						},
						{
							"name": "metadata",
							"type": "bytes",
							"internalType": "bytes"
						}
					]
				}
			],
			"outputs": [
				{
					"name": "",
					"type": "uint256",
					"internalType": "uint256"
				}
			],
			"stateMutability": "view"
		},
		{
			"type": "function",
			"name": "contractURI",
			"inputs": [],
			"outputs": [
				{
					"name": "",
					"type": "string",
					"internalType": "string"
				}
			],
			"stateMutability": "view"
		},
		{
			"type": "function",
			"name": "firstOwnerOf",
			"inputs": [
				{
					"name": "tokenId",
					"type": "uint256",
					"internalType": "uint256"
				}
			],
			"outputs": [
				{
					"name": "",
					"type": "address",
					"internalType": "address"
				}
			],
			"stateMutability": "view"
		},
		{
			"type": "function",
			"name": "getApproved",
			"inputs": [
				{
					"name": "tokenId",
					"type": "uint256",
					"internalType": "uint256"
				}
			],
			"outputs": [
				{
					"name": "",
					"type": "address",
					"internalType": "address"
				}
			],
			"stateMutability": "view"
		},
		{
			"type": "function",
			"name": "hasMintPermissionFor",
			"inputs": [
				{
					"name": "",
					"type": "uint256",
					"internalType": "uint256"
				},
				{
					"name": "",
					"type": "address",
					"internalType": "address"
				}
			],
			"outputs": [
				{
					"name": "",
					"type": "bool",
					"internalType": "bool"
				}
			],
			"stateMutability": "pure"
		},
		{
			"type": "function",
			"name": "initialize",
			"inputs": [
				{
					"name": "projectId",
					"type": "uint256",
					"internalType": "uint256"
				},
				{
					"name": "name",
					"type": "string",
					"internalType": "string"
				},
				{
					"name": "symbol",
					"type": "string",
					"internalType": "string"
				},
				{
					"name": "baseUri",
					"type": "string",
					"internalType": "string"
				},
				{
					"name": "tokenUriResolver",
					"type": "address",
					"internalType": "contract IJB721TokenUriResolver"
				},
				{
					"name": "contractUri",
					"type": "string",
					"internalType": "string"
				},
				{
					"name": "tiersConfig",
					"type": "tuple",
					"internalType": "struct JB721InitTiersConfig",
					"components": [
						{
							"name": "tiers",
							"type": "tuple[]",
							"internalType": "struct JB721TierConfig[]",
							"components": [
								{
									"name": "price",
									"type": "uint104",
									"internalType": "uint104"
								},
								{
									"name": "initialSupply",
									"type": "uint32",
									"internalType": "uint32"
								},
								{
									"name": "votingUnits",
									"type": "uint32",
									"internalType": "uint32"
								},
								{
									"name": "reserveFrequency",
									"type": "uint16",
									"internalType": "uint16"
								},
								{
									"name": "reserveBeneficiary",
									"type": "address",
									"internalType": "address"
								},
								{
									"name": "encodedIPFSUri",
									"type": "bytes32",
									"internalType": "bytes32"
								},
								{
									"name": "category",
									"type": "uint24",
									"internalType": "uint24"
								},
								{
									"name": "discountPercent",
									"type": "uint8",
									"internalType": "uint8"
								},
								{
									"name": "allowOwnerMint",
									"type": "bool",
									"internalType": "bool"
								},
								{
									"name": "useReserveBeneficiaryAsDefault",
									"type": "bool",
									"internalType": "bool"
								},
								{
									"name": "transfersPausable",
									"type": "bool",
									"internalType": "bool"
								},
								{
									"name": "useVotingUnits",
									"type": "bool",
									"internalType": "bool"
								},
								{
									"name": "cannotBeRemoved",
									"type": "bool",
									"internalType": "bool"
								},
								{
									"name": "cannotIncreaseDiscountPercent",
									"type": "bool",
									"internalType": "bool"
								}
							]
						},
						{
							"name": "currency",
							"type": "uint32",
							"internalType": "uint32"
						},
						{
							"name": "decimals",
							"type": "uint8",
							"internalType": "uint8"
						},
						{
							"name": "prices",
							"type": "address",
							"internalType": "contract IJBPrices"
						}
					]
				},
				{
					"name": "flags",
					"type": "tuple",
					"internalType": "struct JB721TiersHookFlags",
					"components": [
						{
							"name": "noNewTiersWithReserves",
							"type": "bool",
							"internalType": "bool"
						},
						{
							"name": "noNewTiersWithVotes",
							"type": "bool",
							"internalType": "bool"
						},
						{
							"name": "noNewTiersWithOwnerMinting",
							"type": "bool",
							"internalType": "bool"
						},
						{
							"name": "preventOverspending",
							"type": "bool",
							"internalType": "bool"
						}
					]
				}
			],
			"outputs": [],
			"stateMutability": "nonpayable"
		},
		{
			"type": "function",
			"name": "isApprovedForAll",
			"inputs": [
				{
					"name": "owner",
					"type": "address",
					"internalType": "address"
				},
				{
					"name": "operator",
					"type": "address",
					"internalType": "address"
				}
			],
			"outputs": [
				{
					"name": "",
					"type": "bool",
					"internalType": "bool"
				}
			],
			"stateMutability": "view"
		},
		{
			"type": "function",
			"name": "isTrustedForwarder",
			"inputs": [
				{
					"name": "forwarder",
					"type": "address",
					"internalType": "address"
				}
			],
			"outputs": [
				{
					"name": "",
					"type": "bool",
					"internalType": "bool"
				}
			],
			"stateMutability": "view"
		},
		{
			"type": "function",
			"name": "jbOwner",
			"inputs": [],
			"outputs": [
				{
					"name": "owner",
					"type": "address",
					"internalType": "address"
				},
				{
					"name": "projectId",
					"type": "uint88",
					"internalType": "uint88"
				},
				{
					"name": "permissionId",
					"type": "uint8",
					"internalType": "uint8"
				}
			],
			"stateMutability": "view"
		},
		{
			"type": "function",
			"name": "mintFor",
			"inputs": [
				{
					"name": "tierIds",
					"type": "uint16[]",
					"internalType": "uint16[]"
				},
				{
					"name": "beneficiary",
					"type": "address",
					"internalType": "address"
				}
			],
			"outputs": [
				{
					"name": "tokenIds",
					"type": "uint256[]",
					"internalType": "uint256[]"
				}
			],
			"stateMutability": "nonpayable"
		},
		{
			"type": "function",
			"name": "mintPendingReservesFor",
			"inputs": [
				{
					"name": "tierId",
					"type": "uint256",
					"internalType": "uint256"
				},
				{
					"name": "count",
					"type": "uint256",
					"internalType": "uint256"
				}
			],
			"outputs": [],
			"stateMutability": "nonpayable"
		},
		{
			"type": "function",
			"name": "mintPendingReservesFor",
			"inputs": [
				{
					"name": "reserveMintConfigs",
					"type": "tuple[]",
					"internalType": "struct JB721TiersMintReservesConfig[]",
					"components": [
						{
							"name": "tierId",
							"type": "uint32",
							"internalType": "uint32"
						},
						{
							"name": "count",
							"type": "uint16",
							"internalType": "uint16"
						}
					]
				}
			],
			"outputs": [],
			"stateMutability": "nonpayable"
		},
		{
			"type": "function",
			"name": "name",
			"inputs": [],
			"outputs": [
				{
					"name": "",
					"type": "string",
					"internalType": "string"
				}
			],
			"stateMutability": "view"
		},
		{
			"type": "function",
			"name": "owner",
			"inputs": [],
			"outputs": [
				{
					"name": "",
					"type": "address",
					"internalType": "address"
				}
			],
			"stateMutability": "view"
		},
		{
			"type": "function",
			"name": "ownerOf",
			"inputs": [
				{
					"name": "tokenId",
					"type": "uint256",
					"internalType": "uint256"
				}
			],
			"outputs": [
				{
					"name": "",
					"type": "address",
					"internalType": "address"
				}
			],
			"stateMutability": "view"
		},
		{
			"type": "function",
			"name": "payCreditsOf",
			"inputs": [
				{
					"name": "addr",
					"type": "address",
					"internalType": "address"
				}
			],
			"outputs": [
				{
					"name": "",
					"type": "uint256",
					"internalType": "uint256"
				}
			],
			"stateMutability": "view"
		},
		{
			"type": "function",
			"name": "pricingContext",
			"inputs": [],
			"outputs": [
				{
					"name": "currency",
					"type": "uint256",
					"internalType": "uint256"
				},
				{
					"name": "decimals",
					"type": "uint256",
					"internalType": "uint256"
				},
				{
					"name": "prices",
					"type": "address",
					"internalType": "contract IJBPrices"
				}
			],
			"stateMutability": "view"
		},
		{
			"type": "function",
			"name": "renounceOwnership",
			"inputs": [],
			"outputs": [],
			"stateMutability": "nonpayable"
		},
		{
			"type": "function",
			"name": "safeTransferFrom",
			"inputs": [
				{
					"name": "from",
					"type": "address",
					"internalType": "address"
				},
				{
					"name": "to",
					"type": "address",
					"internalType": "address"
				},
				{
					"name": "tokenId",
					"type": "uint256",
					"internalType": "uint256"
				}
			],
			"outputs": [],
			"stateMutability": "nonpayable"
		},
		{
			"type": "function",
			"name": "safeTransferFrom",
			"inputs": [
				{
					"name": "from",
					"type": "address",
					"internalType": "address"
				},
				{
					"name": "to",
					"type": "address",
					"internalType": "address"
				},
				{
					"name": "tokenId",
					"type": "uint256",
					"internalType": "uint256"
				},
				{
					"name": "data",
					"type": "bytes",
					"internalType": "bytes"
				}
			],
			"outputs": [],
			"stateMutability": "nonpayable"
		},
		{
			"type": "function",
			"name": "setApprovalForAll",
			"inputs": [
				{
					"name": "operator",
					"type": "address",
					"internalType": "address"
				},
				{
					"name": "approved",
					"type": "bool",
					"internalType": "bool"
				}
			],
			"outputs": [],
			"stateMutability": "nonpayable"
		},
		{
			"type": "function",
			"name": "setDiscountPercentOf",
			"inputs": [
				{
					"name": "tierId",
					"type": "uint256",
					"internalType": "uint256"
				},
				{
					"name": "discountPercent",
					"type": "uint256",
					"internalType": "uint256"
				}
			],
			"outputs": [],
			"stateMutability": "nonpayable"
		},
		{
			"type": "function",
			"name": "setDiscountPercentsOf",
			"inputs": [
				{
					"name": "configs",
					"type": "tuple[]",
					"internalType": "struct JB721TiersSetDiscountPercentConfig[]",
					"components": [
						{
							"name": "tierId",
							"type": "uint32",
							"internalType": "uint32"
						},
						{
							"name": "discountPercent",
							"type": "uint16",
							"internalType": "uint16"
						}
					]
				}
			],
			"outputs": [],
			"stateMutability": "nonpayable"
		},
		{
			"type": "function",
			"name": "setMetadata",
			"inputs": [
				{
					"name": "baseUri",
					"type": "string",
					"internalType": "string"
				},
				{
					"name": "contractUri",
					"type": "string",
					"internalType": "string"
				},
				{
					"name": "tokenUriResolver",
					"type": "address",
					"internalType": "contract IJB721TokenUriResolver"
				},
				{
					"name": "encodedIPFSTUriTierId",
					"type": "uint256",
					"internalType": "uint256"
				},
				{
					"name": "encodedIPFSUri",
					"type": "bytes32",
					"internalType": "bytes32"
				}
			],
			"outputs": [],
			"stateMutability": "nonpayable"
		},
		{
			"type": "function",
			"name": "setPermissionId",
			"inputs": [
				{
					"name": "permissionId",
					"type": "uint8",
					"internalType": "uint8"
				}
			],
			"outputs": [],
			"stateMutability": "nonpayable"
		},
		{
			"type": "function",
			"name": "supportsInterface",
			"inputs": [
				{
					"name": "interfaceId",
					"type": "bytes4",
					"internalType": "bytes4"
				}
			],
			"outputs": [
				{
					"name": "",
					"type": "bool",
					"internalType": "bool"
				}
			],
			"stateMutability": "view"
		},
		{
			"type": "function",
			"name": "symbol",
			"inputs": [],
			"outputs": [
				{
					"name": "",
					"type": "string",
					"internalType": "string"
				}
			],
			"stateMutability": "view"
		},
		{
			"type": "function",
			"name": "tokenURI",
			"inputs": [
				{
					"name": "tokenId",
					"type": "uint256",
					"internalType": "uint256"
				}
			],
			"outputs": [
				{
					"name": "",
					"type": "string",
					"internalType": "string"
				}
			],
			"stateMutability": "view"
		},
		{
			"type": "function",
			"name": "totalCashOutWeight",
			"inputs": [
				{
					"name": "",
					"type": "tuple",
					"internalType": "struct JBBeforeCashOutRecordedContext",
					"components": [
						{
							"name": "terminal",
							"type": "address",
							"internalType": "address"
						},
						{
							"name": "holder",
							"type": "address",
							"internalType": "address"
						},
						{
							"name": "projectId",
							"type": "uint256",
							"internalType": "uint256"
						},
						{
							"name": "rulesetId",
							"type": "uint256",
							"internalType": "uint256"
						},
						{
							"name": "cashOutCount",
							"type": "uint256",
							"internalType": "uint256"
						},
						{
							"name": "totalSupply",
							"type": "uint256",
							"internalType": "uint256"
						},
						{
							"name": "surplus",
							"type": "tuple",
							"internalType": "struct JBTokenAmount",
							"components": [
								{
									"name": "token",
									"type": "address",
									"internalType": "address"
								},
								{
									"name": "decimals",
									"type": "uint8",
									"internalType": "uint8"
								},
								{
									"name": "currency",
									"type": "uint32",
									"internalType": "uint32"
								},
								{
									"name": "value",
									"type": "uint256",
									"internalType": "uint256"
								}
							]
						},
						{
							"name": "useTotalSurplus",
							"type": "bool",
							"internalType": "bool"
						},
						{
							"name": "cashOutTaxRate",
							"type": "uint256",
							"internalType": "uint256"
						},
						{
							"name": "metadata",
							"type": "bytes",
							"internalType": "bytes"
						}
					]
				}
			],
			"outputs": [
				{
					"name": "",
					"type": "uint256",
					"internalType": "uint256"
				}
			],
			"stateMutability": "view"
		},
		{
			"type": "function",
			"name": "transferFrom",
			"inputs": [
				{
					"name": "from",
					"type": "address",
					"internalType": "address"
				},
				{
					"name": "to",
					"type": "address",
					"internalType": "address"
				},
				{
					"name": "tokenId",
					"type": "uint256",
					"internalType": "uint256"
				}
			],
			"outputs": [],
			"stateMutability": "nonpayable"
		},
		{
			"type": "function",
			"name": "transferOwnership",
			"inputs": [
				{
					"name": "newOwner",
					"type": "address",
					"internalType": "address"
				}
			],
			"outputs": [],
			"stateMutability": "nonpayable"
		},
		{
			"type": "function",
			"name": "transferOwnershipToProject",
			"inputs": [
				{
					"name": "projectId",
					"type": "uint256",
					"internalType": "uint256"
				}
			],
			"outputs": [],
			"stateMutability": "nonpayable"
		},
		{
			"type": "function",
			"name": "trustedForwarder",
			"inputs": [],
			"outputs": [
				{
					"name": "",
					"type": "address",
					"internalType": "address"
				}
			],
			"stateMutability": "view"
		},
		{
			"type": "event",
			"name": "AddPayCredits",
			"inputs": [
				{
					"name": "amount",
					"type": "uint256",
					"indexed": true,
					"internalType": "uint256"
				},
				{
					"name": "newTotalCredits",
					"type": "uint256",
					"indexed": true,
					"internalType": "uint256"
				},
				{
					"name": "account",
					"type": "address",
					"indexed": true,
					"internalType": "address"
				},
				{
					"name": "caller",
					"type": "address",
					"indexed": false,
					"internalType": "address"
				}
			],
			"anonymous": false
		},
		{
			"type": "event",
			"name": "AddTier",
			"inputs": [
				{
					"name": "tierId",
					"type": "uint256",
					"indexed": true,
					"internalType": "uint256"
				},
				{
					"name": "tier",
					"type": "tuple",
					"indexed": false,
					"internalType": "struct JB721TierConfig",
					"components": [
						{
							"name": "price",
							"type": "uint104",
							"internalType": "uint104"
						},
						{
							"name": "initialSupply",
							"type": "uint32",
							"internalType": "uint32"
						},
						{
							"name": "votingUnits",
							"type": "uint32",
							"internalType": "uint32"
						},
						{
							"name": "reserveFrequency",
							"type": "uint16",
							"internalType": "uint16"
						},
						{
							"name": "reserveBeneficiary",
							"type": "address",
							"internalType": "address"
						},
						{
							"name": "encodedIPFSUri",
							"type": "bytes32",
							"internalType": "bytes32"
						},
						{
							"name": "category",
							"type": "uint24",
							"internalType": "uint24"
						},
						{
							"name": "discountPercent",
							"type": "uint8",
							"internalType": "uint8"
						},
						{
							"name": "allowOwnerMint",
							"type": "bool",
							"internalType": "bool"
						},
						{
							"name": "useReserveBeneficiaryAsDefault",
							"type": "bool",
							"internalType": "bool"
						},
						{
							"name": "transfersPausable",
							"type": "bool",
							"internalType": "bool"
						},
						{
							"name": "useVotingUnits",
							"type": "bool",
							"internalType": "bool"
						},
						{
							"name": "cannotBeRemoved",
							"type": "bool",
							"internalType": "bool"
						},
						{
							"name": "cannotIncreaseDiscountPercent",
							"type": "bool",
							"internalType": "bool"
						}
					]
				},
				{
					"name": "caller",
					"type": "address",
					"indexed": false,
					"internalType": "address"
				}
			],
			"anonymous": false
		},
		{
			"type": "event",
			"name": "Approval",
			"inputs": [
				{
					"name": "owner",
					"type": "address",
					"indexed": true,
					"internalType": "address"
				},
				{
					"name": "approved",
					"type": "address",
					"indexed": true,
					"internalType": "address"
				},
				{
					"name": "tokenId",
					"type": "uint256",
					"indexed": true,
					"internalType": "uint256"
				}
			],
			"anonymous": false
		},
		{
			"type": "event",
			"name": "ApprovalForAll",
			"inputs": [
				{
					"name": "owner",
					"type": "address",
					"indexed": true,
					"internalType": "address"
				},
				{
					"name": "operator",
					"type": "address",
					"indexed": true,
					"internalType": "address"
				},
				{
					"name": "approved",
					"type": "bool",
					"indexed": false,
					"internalType": "bool"
				}
			],
			"anonymous": false
		},
		{
			"type": "event",
			"name": "Mint",
			"inputs": [
				{
					"name": "tokenId",
					"type": "uint256",
					"indexed": true,
					"internalType": "uint256"
				},
				{
					"name": "tierId",
					"type": "uint256",
					"indexed": true,
					"internalType": "uint256"
				},
				{
					"name": "beneficiary",
					"type": "address",
					"indexed": true,
					"internalType": "address"
				},
				{
					"name": "totalAmountPaid",
					"type": "uint256",
					"indexed": false,
					"internalType": "uint256"
				},
				{
					"name": "caller",
					"type": "address",
					"indexed": false,
					"internalType": "address"
				}
			],
			"anonymous": false
		},
		{
			"type": "event",
			"name": "MintReservedNft",
			"inputs": [
				{
					"name": "tokenId",
					"type": "uint256",
					"indexed": true,
					"internalType": "uint256"
				},
				{
					"name": "tierId",
					"type": "uint256",
					"indexed": true,
					"internalType": "uint256"
				},
				{
					"name": "beneficiary",
					"type": "address",
					"indexed": true,
					"internalType": "address"
				},
				{
					"name": "caller",
					"type": "address",
					"indexed": false,
					"internalType": "address"
				}
			],
			"anonymous": false
		},
		{
			"type": "event",
			"name": "OwnershipTransferred",
			"inputs": [
				{
					"name": "previousOwner",
					"type": "address",
					"indexed": true,
					"internalType": "address"
				},
				{
					"name": "newOwner",
					"type": "address",
					"indexed": true,
					"internalType": "address"
				},
				{
					"name": "caller",
					"type": "address",
					"indexed": false,
					"internalType": "address"
				}
			],
			"anonymous": false
		},
		{
			"type": "event",
			"name": "PermissionIdChanged",
			"inputs": [
				{
					"name": "newId",
					"type": "uint8",
					"indexed": false,
					"internalType": "uint8"
				},
				{
					"name": "caller",
					"type": "address",
					"indexed": false,
					"internalType": "address"
				}
			],
			"anonymous": false
		},
		{
			"type": "event",
			"name": "RemoveTier",
			"inputs": [
				{
					"name": "tierId",
					"type": "uint256",
					"indexed": true,
					"internalType": "uint256"
				},
				{
					"name": "caller",
					"type": "address",
					"indexed": false,
					"internalType": "address"
				}
			],
			"anonymous": false
		},
		{
			"type": "event",
			"name": "SetBaseUri",
			"inputs": [
				{
					"name": "baseUri",
					"type": "string",
					"indexed": true,
					"internalType": "string"
				},
				{
					"name": "caller",
					"type": "address",
					"indexed": false,
					"internalType": "address"
				}
			],
			"anonymous": false
		},
		{
			"type": "event",
			"name": "SetContractUri",
			"inputs": [
				{
					"name": "uri",
					"type": "string",
					"indexed": true,
					"internalType": "string"
				},
				{
					"name": "caller",
					"type": "address",
					"indexed": false,
					"internalType": "address"
				}
			],
			"anonymous": false
		},
		{
			"type": "event",
			"name": "SetDiscountPercent",
			"inputs": [
				{
					"name": "tierId",
					"type": "uint256",
					"indexed": true,
					"internalType": "uint256"
				},
				{
					"name": "discountPercent",
					"type": "uint256",
					"indexed": false,
					"internalType": "uint256"
				},
				{
					"name": "caller",
					"type": "address",
					"indexed": false,
					"internalType": "address"
				}
			],
			"anonymous": false
		},
		{
			"type": "event",
			"name": "SetEncodedIPFSUri",
			"inputs": [
				{
					"name": "tierId",
					"type": "uint256",
					"indexed": true,
					"internalType": "uint256"
				},
				{
					"name": "encodedUri",
					"type": "bytes32",
					"indexed": false,
					"internalType": "bytes32"
				},
				{
					"name": "caller",
					"type": "address",
					"indexed": false,
					"internalType": "address"
				}
			],
			"anonymous": false
		},
		{
			"type": "event",
			"name": "SetTokenUriResolver",
			"inputs": [
				{
					"name": "resolver",
					"type": "address",
					"indexed": true,
					"internalType": "contract IJB721TokenUriResolver"
				},
				{
					"name": "caller",
					"type": "address",
					"indexed": false,
					"internalType": "address"
				}
			],
			"anonymous": false
		},
		{
			"type": "event",
			"name": "Transfer",
			"inputs": [
				{
					"name": "from",
					"type": "address",
					"indexed": true,
					"internalType": "address"
				},
				{
					"name": "to",
					"type": "address",
					"indexed": true,
					"internalType": "address"
				},
				{
					"name": "tokenId",
					"type": "uint256",
					"indexed": true,
					"internalType": "uint256"
				}
			],
			"anonymous": false
		},
		{
			"type": "event",
			"name": "UsePayCredits",
			"inputs": [
				{
					"name": "amount",
					"type": "uint256",
					"indexed": true,
					"internalType": "uint256"
				},
				{
					"name": "newTotalCredits",
					"type": "uint256",
					"indexed": true,
					"internalType": "uint256"
				},
				{
					"name": "account",
					"type": "address",
					"indexed": true,
					"internalType": "address"
				},
				{
					"name": "caller",
					"type": "address",
					"indexed": false,
					"internalType": "address"
				}
			],
			"anonymous": false
		},
		{
			"type": "error",
			"name": "ERC721IncorrectOwner",
			"inputs": [
				{
					"name": "sender",
					"type": "address",
					"internalType": "address"
				},
				{
					"name": "tokenId",
					"type": "uint256",
					"internalType": "uint256"
				},
				{
					"name": "owner",
					"type": "address",
					"internalType": "address"
				}
			]
		},
		{
			"type": "error",
			"name": "ERC721InsufficientApproval",
			"inputs": [
				{
					"name": "operator",
					"type": "address",
					"internalType": "address"
				},
				{
					"name": "tokenId",
					"type": "uint256",
					"internalType": "uint256"
				}
			]
		},
		{
			"type": "error",
			"name": "ERC721InvalidApprover",
			"inputs": [
				{
					"name": "approver",
					"type": "address",
					"internalType": "address"
				}
			]
		},
		{
			"type": "error",
			"name": "ERC721InvalidOperator",
			"inputs": [
				{
					"name": "operator",
					"type": "address",
					"internalType": "address"
				}
			]
		},
		{
			"type": "error",
			"name": "ERC721InvalidOwner",
			"inputs": [
				{
					"name": "owner",
					"type": "address",
					"internalType": "address"
				}
			]
		},
		{
			"type": "error",
			"name": "ERC721InvalidReceiver",
			"inputs": [
				{
					"name": "receiver",
					"type": "address",
					"internalType": "address"
				}
			]
		},
		{
			"type": "error",
			"name": "ERC721InvalidSender",
			"inputs": [
				{
					"name": "sender",
					"type": "address",
					"internalType": "address"
				}
			]
		},
		{
			"type": "error",
			"name": "ERC721NonexistentToken",
			"inputs": [
				{
					"name": "tokenId",
					"type": "uint256",
					"internalType": "uint256"
				}
			]
		},
		{
			"type": "error",
			"name": "JB721Hook_InvalidCashOut",
			"inputs": []
		},
		{
			"type": "error",
			"name": "JB721Hook_InvalidPay",
			"inputs": []
		},
		{
			"type": "error",
			"name": "JB721Hook_UnauthorizedToken",
			"inputs": [
				{
					"name": "tokenId",
					"type": "uint256",
					"internalType": "uint256"
				},
				{
					"name": "holder",
					"type": "address",
					"internalType": "address"
				}
			]
		},
		{
			"type": "error",
			"name": "JB721Hook_UnexpectedTokenCashedOut",
			"inputs": []
		},
		{
			"type": "error",
			"name": "JB721TiersHook_AlreadyInitialized",
			"inputs": [
				{
					"name": "projectId",
					"type": "uint256",
					"internalType": "uint256"
				}
			]
		},
		{
			"type": "error",
			"name": "JB721TiersHook_MintReserveNftsPaused",
			"inputs": []
		},
		{
			"type": "error",
			"name": "JB721TiersHook_NoProjectId",
			"inputs": []
		},
		{
			"type": "error",
			"name": "JB721TiersHook_Overspending",
			"inputs": [
				{
					"name": "leftoverAmount",
					"type": "uint256",
					"internalType": "uint256"
				}
			]
		},
		{
			"type": "error",
			"name": "JB721TiersHook_TierTransfersPaused",
			"inputs": []
		},
		{
			"type": "error",
			"name": "JBOwnableOverrides_InvalidNewOwner",
			"inputs": []
		},
		{
			"type": "error",
			"name": "JBPermissioned_Unauthorized",
			"inputs": [
				{
					"name": "account",
					"type": "address",
					"internalType": "address"
				},
				{
					"name": "sender",
					"type": "address",
					"internalType": "address"
				},
				{
					"name": "projectId",
					"type": "uint256",
					"internalType": "uint256"
				},
				{
					"name": "permissionId",
					"type": "uint256",
					"internalType": "uint256"
				}
			]
		},
		{
			"type": "error",
			"name": "PRBMath_MulDiv_Overflow",
			"inputs": [
				{
					"name": "x",
					"type": "uint256",
					"internalType": "uint256"
				},
				{
					"name": "y",
					"type": "uint256",
					"internalType": "uint256"
				},
				{
					"name": "denominator",
					"type": "uint256",
					"internalType": "uint256"
				}
			]
		}
	],
	"solcInputHash": "54d924ca0ce25025276cf9168aae3c9e",
	"args": [
		"0x5ADb234602D074064C216C1fDB23c6c2031F0C75",
		"0x4886C30C81a17a3A1084fd1812008fA0f71a20B9",
		"0xC052725ff9888CE3148Aa8bFB5063f1a5028946D",
		"0x1704CFc2f93bf49e54a9939e14A471749B12Eee8",
		"0xB2b5841DBeF766d4b521221732F9B618fCf34A87"
	],
	"bytecode": "0x6101606040523480156200001257600080fd5b506040516200638b3803806200638b83398101604081905262000035916200039d565b848185876001600160a01b031663293c49996040518163ffffffff1660e01b8152600401602060405180830381865afa15801562000077573d6000803e3d6000fd5b505050506040513d601f19601f820116820180604052508101906200009d91906200041d565b6001600160a01b03828116608052811660a0523360008383838381620000d65760405163f854950960e01b815260040160405180910390fd5b620000e2828262000119565b5050506001600160a01b0395861660c0525050505091811660e0523061010052938416610120525050166101405250620004449050565b6001600160581b038116158015906200013a57506001600160a01b03821615155b15620001595760405163f854950960e01b815260040160405180910390fd5b60408051606081018252600080546001600160a01b0381168352600160a01b81046001600160581b031660208401819052600160f81b90910460ff1693830193909352909115620002285760a05160208301516040516331a9108f60e11b81526001600160581b0390911660048201526001600160a01b0390911690636352211e90602401602060405180830381865afa158015620001fc573d6000803e3d6000fd5b505050506040513d601f19601f820116820180604052508101906200022291906200041d565b6200022b565b81515b604080516060810182526001600160a01b0387168082526001600160581b0387166020830181905260009290930182905281547fff000000000000000000000000000000000000000000000000000000000000001617600160a01b909202919091176001600160f81b031690559050620002a7818585620002ad565b50505050565b6001600160581b038116156200033b5760a0516040516331a9108f60e11b81526001600160581b03831660048201526001600160a01b0390911690636352211e90602401602060405180830381865afa1580156200030f573d6000803e3d6000fd5b505050506040513d601f19601f820116820180604052508101906200033591906200041d565b6200033d565b815b6040513381526001600160a01b03918216918516907fc8894f26f396ce8c004245c8b7cd1b92103a6e4302fcbab883987149ac01b7ec9060200160405180910390a3505050565b6001600160a01b03811681146200039a57600080fd5b50565b600080600080600060a08688031215620003b657600080fd5b8551620003c38162000384565b6020870151909550620003d68162000384565b6040870151909450620003e98162000384565b6060870151909350620003fc8162000384565b60808701519092506200040f8162000384565b809150509295509295909350565b6000602082840312156200043057600080fd5b81516200043d8162000384565b9392505050565b60805160a05160c05160e051610100516101205161014051615e05620005866000396000818161053801528181610de701528181610e6d015281816110b80152818161119c015281816112ca0152818161136c01528181611492015281816115380152818161173b01528181611c9301528181611e2901528181611faf01528181612039015281816125aa01528181612a7001528181612af901528181612c7501528181612d410152818161359101526138fd0152600081816109280152612e150152600081816109e701528181611af2015281816121d5015261264c01526000818161071c01528181610bb10152611a290152600081816105ad015281816106e6015261368d0152600081816104c40152818161189c01528181612f56015281816130980152613b9c015260008181610a3b01526129570152615e056000f3fe6080604052600436106103135760003560e01c8063715018a61161019a578063c22903b2116100e1578063e8a3d4851161008a578063f2fde38b11610064578063f2fde38b14610a09578063f434c91414610a29578063fb82b1b014610a5d57600080fd5b8063e8a3d48514610977578063e985e9c51461098c578063edab09b9146109d557600080fd5b8063d102134c116100bb578063d102134c146108f6578063d4a1b4b114610916578063d95c9ae21461094a57600080fd5b8063c22903b2146108a3578063c87b56dd146108b6578063cf7f4936146108d657600080fd5b80639c2c6a0211610143578063b88d4fde1161011d578063b88d4fde146107f6578063ba23c36e14610816578063c0fb5e851461088357600080fd5b80639c2c6a0214610796578063a220d696146107b6578063a22cb465146107d657600080fd5b80638cc35846116101745780638cc358461461073e5780638da5cb5b1461076c57806395d89b411461078157600080fd5b8063715018a6146106c25780637da0a877146106d757806388bc2ef31461070a57600080fd5b8063462e3af81161025e5780636352211e116102075780636ac6d941116101e15780636ac6d941146106605780636c0360eb1461068d57806370a08231146106a257600080fd5b80636352211e146105fd578063677ce0881461061d57806369f729701461064057600080fd5b806356539f391161023857806356539f391461057a578063572b6c0514610590578063613b856d146105dd57600080fd5b8063462e3af814610506578063507f14651461052657806354c6d1f51461055a57600080fd5b80631435aad5116102c05780632483d6b51161029a5780632483d6b514610492578063293c4999146104b257806342842e0e146104e657600080fd5b80631435aad5146104245780631da1da721461044457806323b872dd1461047257600080fd5b806308786b1a116102f157806308786b1a146103a7578063095ea7b3146103ef5780631337f9861461041157600080fd5b806301ffc9a71461031857806306fdde031461034d578063081812fc1461036f575b600080fd5b34801561032457600080fd5b50610338610333366004614150565b610a8d565b60405190151581526020015b60405180910390f35b34801561035957600080fd5b50610362610ab8565b60405161034491906141bd565b34801561037b57600080fd5b5061038f61038a3660046141d0565b610b4a565b6040516001600160a01b039091168152602001610344565b3480156103b357600080fd5b50600c5463ffffffff811690602081901c60ff169060281c6040805193845260208401929092526001600160a01b031690820152606001610344565b3480156103fb57600080fd5b5061040f61040a36600461420e565b610b73565b005b61040f61041f366004614253565b610b89565b34801561043057600080fd5b5061040f61043f3660046142ca565b610c5c565b34801561045057600080fd5b5061046461045f366004614373565b610e55565b604051908152602001610344565b34801561047e57600080fd5b5061040f61048d3660046143a8565b610ee1565b34801561049e57600080fd5b5061040f6104ad3660046143e9565b610f78565b3480156104be57600080fd5b5061038f7f000000000000000000000000000000000000000000000000000000000000000081565b3480156104f257600080fd5b5061040f6105013660046143a8565b610f97565b34801561051257600080fd5b5061040f610521366004614866565b610fb7565b34801561053257600080fd5b5061038f7f000000000000000000000000000000000000000000000000000000000000000081565b34801561056657600080fd5b5061038f6105753660046141d0565b61121c565b34801561058657600080fd5b5061046460075481565b34801561059c57600080fd5b506103386105ab366004614964565b7f00000000000000000000000000000000000000000000000000000000000000006001600160a01b0390811691161490565b3480156105e957600080fd5b5061040f6105f83660046143e9565b611260565b34801561060957600080fd5b5061038f6106183660046141d0565b61146d565b34801561062957600080fd5b50610338610638366004614981565b600092915050565b34801561064c57600080fd5b5061046461065b3660046149b1565b611478565b34801561066c57600080fd5b5061068061067b366004614aaf565b61150a565b6040516103449190614b42565b34801561069957600080fd5b50610362611685565b3480156106ae57600080fd5b506104646106bd366004614964565b611713565b3480156106ce57600080fd5b5061040f61176c565b3480156106e357600080fd5b507f000000000000000000000000000000000000000000000000000000000000000061038f565b34801561071657600080fd5b5061038f7f000000000000000000000000000000000000000000000000000000000000000081565b34801561074a57600080fd5b5061075e610759366004614b55565b611781565b604051610344929190614b91565b34801561077857600080fd5b5061038f611828565b34801561078d57600080fd5b50610362611915565b3480156107a257600080fd5b5061040f6107b1366004614c67565b611924565b3480156107c257600080fd5b5061040f6107d13660046141d0565b611980565b3480156107e257600080fd5b5061040f6107f1366004614ca9565b6119c7565b34801561080257600080fd5b5061040f610811366004614cd7565b6119d9565b34801561082257600080fd5b50600054610853906001600160a01b03811690600160a01b81046001600160581b031690600160f81b900460ff1683565b604080516001600160a01b0390941684526001600160581b03909216602084015260ff1690820152606001610344565b34801561088f57600080fd5b5061040f61089e366004614d57565b6119f0565b61040f6108b1366004614253565b611a01565b3480156108c257600080fd5b506103626108d13660046141d0565b611c70565b3480156108e257600080fd5b5061040f6108f1366004614c67565b611ea5565b34801561090257600080fd5b5061040f610911366004614d74565b611f0c565b34801561092257600080fd5b5061038f7f000000000000000000000000000000000000000000000000000000000000000081565b34801561095657600080fd5b50610464610965366004614964565b600a6020526000908152604090205481565b34801561098357600080fd5b5061036261213e565b34801561099857600080fd5b506103386109a7366004614e0f565b6001600160a01b03918216600090815260066020908152604080832093909416825291909152205460ff1690565b3480156109e157600080fd5b5061038f7f000000000000000000000000000000000000000000000000000000000000000081565b348015610a1557600080fd5b5061040f610a24366004614964565b61214b565b348015610a3557600080fd5b5061038f7f000000000000000000000000000000000000000000000000000000000000000081565b348015610a6957600080fd5b50610a7d610a78366004614373565b612185565b6040516103449493929190614e3d565b60006001600160e01b03198216637aa81e7b60e01b1480610ab25750610ab28261230c565b92915050565b606060018054610ac790614edd565b80601f0160208091040260200160405190810160405280929190818152602001828054610af390614edd565b8015610b405780601f10610b1557610100808354040283529160200191610b40565b820191906000526020600020905b815481529060010190602001808311610b2357829003601f168201915b5050505050905090565b6000610b558261239d565b506000828152600560205260409020546001600160a01b0316610ab2565b610b858282610b806123d6565b6123e5565b5050565b60075434151580610c265750604051636e49181f60e01b8152600481018290523360248201527f00000000000000000000000000000000000000000000000000000000000000006001600160a01b031690636e49181f90604401602060405180830381865afa158015610c00573d6000803e3d6000fd5b505050506040513d601f19601f82011682018060405250810190610c249190614f1c565b155b80610c35575080826020013514155b15610c5357604051633fb648ad60e11b815260040160405180910390fd5b610b85826123f2565b610c71610c67611828565b60075460156128eb565b8515610ce2576008610c84878983614f81565b508686604051610c95929190615041565b60405180910390207f7bc9110d5de090dd59e07912d2b93a5a27ac70a60c8d8e324db4f9ee8b8b5c13610cc66123d6565b6040516001600160a01b03909116815260200160405180910390a25b8315610d53576009610cf5858783614f81565b508484604051610d06929190615041565b60405180910390207fd36dc0c1a06103fdcaf15f3f6fb797d1a97997514c78de073640c8b5005454b8610d376123d6565b6040516001600160a01b03909116815260200160405180910390a25b6001600160a01b0383163014610d6c57610d6c83612a03565b8115801590610d7a57508015155b15610e4c57817f677da4fed654db8e604791fa2582f342e2001aa217e27f6985eb3e0f67e5a7fc82610daa6123d6565b604080519283526001600160a01b0390911660208301520160405180910390a26040516324de8d6360e11b815260048101839052602481018290527f00000000000000000000000000000000000000000000000000000000000000006001600160a01b0316906349bd1ac690604401600060405180830381600087803b158015610e3357600080fd5b505af1158015610e47573d6000803e3d6000fd5b505050505b50505050505050565b6040516349e6fb6760e01b81523060048201526000907f00000000000000000000000000000000000000000000000000000000000000006001600160a01b0316906349e6fb67906024015b602060405180830381865afa158015610ebd573d6000803e3d6000fd5b505050506040513d601f19601f82011682018060405250810190610ab29190615051565b6001600160a01b038216610f1057604051633250574960e11b8152600060048201526024015b60405180910390fd5b6000610f248383610f1f6123d6565b612ac9565b9050836001600160a01b0316816001600160a01b031614610f72576040516364283d7b60e01b81526001600160a01b0380861660048301526024820184905282166044820152606401610f07565b50505050565b610f8d610f83611828565b60075460176128eb565b610b858282612cd9565b610fb2838383604051806020016040528060008152506119d9565b505050565b60075415610fde57600754604051639889eb1160e01b8152600401610f0791815260200190565b87600003610fff57604051630ea59fc560e21b815260040160405180910390fd5b61100a888888612da1565b6020808301516040840151606085015178ffffffffffffffffffffffffffffffffffffffff000000000060289190911b1664ff000000009190931b1663ffffffff9091161717600c81905585511561106a576008611068878261506a565b505b83511561107f57600961107d858261506a565b505b6001600160a01b038516156110975761109785612a03565b82515115611135578251604051631f1d05ad60e01b81526001600160a01b037f00000000000000000000000000000000000000000000000000000000000000001691631f1d05ad916110ec919060040161512a565b6000604051808303816000875af115801561110b573d6000803e3d6000fd5b505050506040513d6000823e601f3d908101601f19168201604052611133919081019061529c565b505b815180611143575081602001515b8061114f575081604001515b8061115b575081606001515b1561120157604080516365c13f1960e11b815283511515600482015260208401511515602482015290830151151560448201526060830151151560648201527f00000000000000000000000000000000000000000000000000000000000000006001600160a01b03169063cb827e3290608401600060405180830381600087803b1580156111e857600080fd5b505af11580156111fc573d6000803e3d6000fd5b505050505b61121161120c6123d6565b61217a565b505050505050505050565b6000818152600b60205260408120546001600160a01b031680156112405792915050565b6000838152600360205260409020546001600160a01b03165b9392505050565b600061126d600754612db2565b905061128c61128182610100015160f21c90565b600190811c81161490565b156112aa5760405163b1f1d8cf60e01b815260040160405180910390fd5b604051635d53f40760e11b815260048101849052602481018390526000907f00000000000000000000000000000000000000000000000000000000000000006001600160a01b03169063baa7e80e906044016000604051808303816000875af115801561131b573d6000803e3d6000fd5b505050506040513d6000823e601f3d908101601f19168201604052611343919081019061529c565b60405162d5cc0160e21b8152306004820152602481018690529091506000906001600160a01b037f00000000000000000000000000000000000000000000000000000000000000001690630357300490604401602060405180830381865afa1580156113b3573d6000803e3d6000fd5b505050506040513d601f19601f820116820180604052508101906113d791906152dc565b905060005b848110156114655760008382815181106113f8576113f86152f9565b60200260200101519050826001600160a01b031687827f80dd2efbbc431cde0164d84d638e44ba6e7a3ca5d532ceef1bb4efcc0948325d6114376123d6565b6040516001600160a01b03909116815260200160405180910390a461145c8382612e81565b506001016113dc565b505050505050565b6000610ab28261239d565b604051639be748fb60e01b81526000906001600160a01b037f00000000000000000000000000000000000000000000000000000000000000001690639be748fb906114c9903090879060040161530f565b602060405180830381865afa1580156114e6573d6000803e3d6000fd5b505050506040513d601f19601f820116820180604052508101906112599190615051565b6060611521611517611828565b60075460166128eb565b60405163eaa19ab360e01b81526001600160a01b037f0000000000000000000000000000000000000000000000000000000000000000169063eaa19ab390611576906000199088908890600190600401615331565b6000604051808303816000875af1158015611595573d6000803e3d6000fd5b505050506040513d6000823e601f3d908101601f191682016040526115bd9190810190615390565b50905060005b8381101561167d5760008282815181106115df576115df6152f9565b602002602001015190506115f38482612e81565b836001600160a01b031686868481811061160f5761160f6152f9565b905060200201602081019061162491906153d7565b61ffff16827f598baf7bf150ca2f42be9e9f8f55e81d45f5715c3ff22bf46d697fabec7f31d660006116546123d6565b604080519283526001600160a01b0390911660208301520160405180910390a4506001016115c3565b509392505050565b6008805461169290614edd565b80601f01602080910402602001604051908101604052809291908181526020018280546116be90614edd565b801561170b5780601f106116e05761010080835404028352916020019161170b565b820191906000526020600020905b8154815290600101906020018083116116ee57829003601f168201915b505050505081565b604051633de222bb60e21b81523060048201526001600160a01b0382811660248301526000917f00000000000000000000000000000000000000000000000000000000000000009091169063f7888aec90604401610ea0565b611774612ee6565b61177f600080612fec565b565b6040805160018082528183019092526101208301359160609190816020015b604080516060808201835260008083526020830152918101919091528152602001906001900390816117a05790505090506040518060600160405280306001600160a01b03168152602001600081526020016040518060200160405280600081525081525081600081518110611818576118186152f9565b6020026020010181905250915091565b60408051606081018252600080546001600160a01b0381168352600160a01b81046001600160581b031660208401819052600160f81b90910460ff16938301939093529182036118785751919050565b60208101516040516331a9108f60e11b81526001600160581b0390911660048201527f00000000000000000000000000000000000000000000000000000000000000006001600160a01b031690636352211e90602401602060405180830381865afa1580156118eb573d6000803e3d6000fd5b505050506040513d601f19601f8201168201806040525081019061190f91906152dc565b91505090565b606060028054610ac790614edd565b60005b81811015610fb2576000838383818110611943576119436152f9565b9050604002018036038101906119599190615457565b9050611977816000015163ffffffff16826020015161ffff16611260565b50600101611927565b611988612ee6565b80158061199b57506001600160581b0381115b156119b95760405163f854950960e01b815260040160405180910390fd5b6119c4600082612fec565b50565b610b856119d26123d6565b8383613175565b6119e4848484610ee1565b610f7284848484613215565b6119f8612ee6565b6119c48161333e565b60075434151580611a9e5750604051636e49181f60e01b8152600481018290523360248201527f00000000000000000000000000000000000000000000000000000000000000006001600160a01b031690636e49181f90604401602060405180830381865afa158015611a78573d6000803e3d6000fd5b505050506040513d601f19601f82011682018060405250810190611a9c9190614f1c565b155b80611aad575080826020013514155b15611acb576040516394310b3d60e01b815260040160405180910390fd5b60408051808201909152600781526618d85cda13dd5d60ca1b602090910152600080611b7e7f000000000000000000000000000000000000000000000000000000000000000060601b7f86b14ff4df1839d4c5ed01550f2540ea56ad3e3813c5cd226eeab5890c21e3bb18611b446101e0870187615473565b8080601f01602080910402602001604051908101604052809392919081815260200183838082843760009201919091525061339992505050565b9150915060608215611ba15781806020019051810190611b9e919061529c565b90505b60005b8151811015611c5f576000828281518110611bc157611bc16152f9565b60200260200101519050866000016020810190611bde9190614964565b6001600160a01b0316611c06826000908152600360205260409020546001600160a01b031690565b6001600160a01b031614611c4d5780611c226020890189614964565b604051630694678560e21b815260048101929092526001600160a01b03166024820152604401610f07565b611c568161353f565b50600101611ba4565b50611c698161357a565b5050505050565b604051630fab094760e01b81523060048201526060906000906001600160a01b037f00000000000000000000000000000000000000000000000000000000000000001690630fab094790602401602060405180830381865afa158015611cda573d6000803e3d6000fd5b505050506040513d601f19601f82011682018060405250810190611cfe91906152dc565b90506001600160a01b03811615611d8257604051635e703e7160e01b8152306004820152602481018490526001600160a01b03821690635e703e7190604401600060405180830381865afa158015611d5a573d6000803e3d6000fd5b505050506040513d6000823e601f3d908101601f1916820160405261125991908101906154ff565b61125960088054611d9290614edd565b80601f0160208091040260200160405190810160405280929190818152602001828054611dbe90614edd565b8015611e0b5780601f10611de057610100808354040283529160200191611e0b565b820191906000526020600020905b815481529060010190602001808311611dee57829003601f168201915b5050604051630c8df17160e41b8152306004820152602481018990527f00000000000000000000000000000000000000000000000000000000000000006001600160a01b0316935063c8df171092506044019050602060405180830381865afa158015611e7c573d6000803e3d6000fd5b505050506040513d601f19601f82011682018060405250810190611ea09190615051565b6135c6565b611eb0610f83611828565b60005b81811015610fb2576000838383818110611ecf57611ecf6152f9565b905060400201803603810190611ee59190615457565b9050611f03816000015163ffffffff16826020015161ffff16612cd9565b50600101611eb3565b611f21611f17611828565b60075460146128eb565b80156120195760005b81811015611f9757828282818110611f4457611f446152f9565b905060200201357f832d89d991be5351d793c20faf4b7dd44f8aa9ce39e3cb160c6317de6fbba729611f746123d6565b6040516001600160a01b03909116815260200160405180910390a2600101611f2a565b506040516320512ba160e01b81526001600160a01b037f000000000000000000000000000000000000000000000000000000000000000016906320512ba190611fe69085908590600401615534565b600060405180830381600087803b15801561200057600080fd5b505af1158015612014573d6000803e3d6000fd5b505050505b8215610f7257604051631f1d05ad60e01b81526000906001600160a01b037f00000000000000000000000000000000000000000000000000000000000000001690631f1d05ad9061207090889088906004016156b5565b6000604051808303816000875af115801561208f573d6000803e3d6000fd5b505050506040513d6000823e601f3d908101601f191682016040526120b7919081019061529c565b905060005b84811015611465578181815181106120d6576120d66152f9565b60200260200101517fcbda9c610cbf8b0b9941c465b20ff7e1fae572086b70ef65fa3d5e4bf3d0deaa878784818110612111576121116152f9565b90506101c002016121206123d6565b60405161212e9291906156f8565b60405180910390a26001016120bc565b6009805461169290614edd565b612153612ee6565b6001600160a01b03811661217a5760405163f854950960e01b815260040160405180910390fd5b6119c4816000612fec565b6000808060606080850135156121ae5760405163096afe5960e41b815260040160405180910390fd5b60408051808201909152600781526618d85cda13dd5d60ca1b6020909101526000806122277f000000000000000000000000000000000000000000000000000000000000000060601b7f86b14ff4df1839d4c5ed01550f2540ea56ad3e3813c5cd226eeab5890c21e3bb18611b446101808a018a615473565b604080516001808252818301909252929450909250816020015b604080516060808201835260008083526020830152918101919091528152602001906001900390816122415790505092506040518060600160405280306001600160a01b031681526020016000815260200160405180602001604052806000815250815250836000815181106122b9576122b96152f9565b6020026020010181905250606082156122e357818060200190518101906122e0919061529c565b90505b6122ed8189611478565b95506122f888610e55565b945087610160013596505050509193509193565b60006001600160e01b03198216633344b87360e01b148061233d57506001600160e01b0319821663081e84bf60e11b145b8061235857506001600160e01b0319821663099bfcc360e11b145b8061237357506001600160e01b0319821663611481d960e11b145b8061238e57506001600160e01b0319821663152a902d60e11b145b80610ab25750610ab28261362d565b6000818152600360205260408120546001600160a01b031680610ab257604051637e27328960e01b815260048101849052602401610f07565b60006123e061367d565b905090565b610fb283838360016136f2565b600c5460009063ffffffff81168061241060c0860160a0870161571e565b63ffffffff16036124275760c08401359250612516565b602882901c6001600160a01b03811615611c695760ff602084901c1661251160c087013561245683600a615835565b6007546001600160a01b03861690633be273fa9061247a60c08d0160a08e0161571e565b898d60600160200160208101906124919190614d57565b6040516001600160e01b031960e087901b168152600481019490945263ffffffff929092166024840152604483015260ff166064820152608401602060405180830381865afa1580156124e8573d6000803e3d6000fd5b505050506040513d601f19601f8201168201806040525081019061250c9190615051565b613824565b945050505b5060009050600a816125306101c086016101a08701614964565b6001600160a01b031681526020810191909152604001600090812054915082906125626101c086016101a08701614964565b6001600160a01b03166125786020870187614964565b6001600160a01b03160361258f5790820190612592565b50815b604051634228826f60e11b81523060048201526000907f00000000000000000000000000000000000000000000000000000000000000006001600160a01b03169063845104de90602401608060405180830381865afa1580156125f9573d6000803e3d6000fd5b505050506040513d601f19601f8201168201806040525081019061261d9190615841565b60609081015160408051808201909152600381526270617960e81b602090910152159150600090819061269d907f0000000000000000000000000000000000000000000000000000000000000000901b7fadc756803e4eb4ccfb136b73d5f72e3dc0d452d30ae1f4bc82af394c73ce711518611b446101e08b018b615473565b9150915081156127015760606000828060200190518101906126bf91906158b3565b925090508480156126ce575080155b156126d857600094505b8151156126fe576126fb87836126f66101c08e016101a08f01614964565b6138f7565b96505b50505b841561283e57826127285760405163215ccc4760e11b815260048101869052602401610f07565b8484018681111561279b576127456101c08a016101a08b01614964565b6001600160a01b0316818883037f7e71a5f6c04b0eb16949316623b9dda7bd103692f7d89678e2260afa1378a2d561277b6123d6565b6040516001600160a01b03909116815260200160405180910390a4612807565b80871115612807576127b56101c08a016101a08b01614964565b6001600160a01b0316818289037f6276f0169fb8de712b2a6c02789f6115136c589ed491ac06f9e20f41877e41fe6127eb6123d6565b6040516001600160a01b03909116815260200160405180910390a45b80600a600061281e6101c08d016101a08e01614964565b6001600160a01b03168152602081019190915260400160002055506128e1565b8386146128e1576128576101c089016101a08a01614964565b6001600160a01b03168461286b8189615964565b7f6276f0169fb8de712b2a6c02789f6115136c589ed491ac06f9e20f41877e41fe6128946123d6565b6040516001600160a01b03909116815260200160405180910390a483600a60006128c66101c08c016101a08d01614964565b6001600160a01b031681526020810191909152604001600020555b5050505050505050565b60006128f56123d6565b9050836001600160a01b0316816001600160a01b0316141580156129c45750604051631a45b42760e11b81526001600160a01b0382811660048301528581166024830152604482018590526064820184905260016084830181905260a48301527f0000000000000000000000000000000000000000000000000000000000000000169063348b684e9060c401602060405180830381865afa15801561299e573d6000803e3d6000fd5b505050506040513d601f19601f820116820180604052508101906129c29190614f1c565b155b15610f7257604051631326f75560e11b81526001600160a01b038086166004830152821660248201526044810184905260648101839052608401610f07565b806001600160a01b03167fe7784d93cfbfa4408e19577e6cc0436f4dbb51214b70e100905dfce9def88c16612a366123d6565b6040516001600160a01b03909116815260200160405180910390a260405163036129cb60e61b81526001600160a01b0382811660048301527f0000000000000000000000000000000000000000000000000000000000000000169063d84a72c0906024015b600060405180830381600087803b158015612ab557600080fd5b505af1158015611c69573d6000803e3d6000fd5b60405163c44a8e6d60e01b8152306004820152602481018390526000604482018190529081906001600160a01b037f0000000000000000000000000000000000000000000000000000000000000000169063c44a8e6d90606401600060405180830381865afa158015612b40573d6000803e3d6000fd5b505050506040513d6000823e601f3d908101601f19168201604052612b6891908101906159a3565b9050612b75858585613a50565b91506001600160a01b03821615612c3f5780610160015115612bee576000612b9e600754612db2565b90506001600160a01b03861615801590612bce5750612bce612bc582610100015160f21c90565b60019081161490565b15612bec576040516330225eab60e11b815260040160405180910390fd5b505b6000848152600b60205260409020546001600160a01b0316612c3f576000848152600b60205260409020805473ffffffffffffffffffffffffffffffffffffffff19166001600160a01b0384161790555b80516040516330b157e560e21b815263ffffffff90911660048201526001600160a01b03838116602483015286811660448301527f0000000000000000000000000000000000000000000000000000000000000000169063c2c55f9490606401600060405180830381600087803b158015612cb957600080fd5b505af1158015612ccd573d6000803e3d6000fd5b50505050509392505050565b817f8ebf585439d8c6edc7dfa9c0e01fdbb1d4e68d9969dc5341ebd8bca5cd9a7bd482612d046123d6565b604080519283526001600160a01b0390911660208301520160405180910390a260405163284d148160e11b815260048101839052602481018290527f00000000000000000000000000000000000000000000000000000000000000006001600160a01b03169063509a290290604401600060405180830381600087803b158015612d8d57600080fd5b505af1158015611465573d6000803e3d6000fd5b612dab8282613b56565b5050600755565b6040805161012081018252600080825260208201819052818301819052606082018190526080820181905260a0820181905260c0820181905260e0820181905261010082015290516321d1336160e11b8152600481018390526001600160a01b037f000000000000000000000000000000000000000000000000000000000000000016906343a266c29060240161012060405180830381865afa158015612e5d573d6000803e3d6000fd5b505050506040513d601f19601f82011682018060405250810190610ab29190615b36565b6001600160a01b038216612eab57604051633250574960e11b815260006004820152602401610f07565b6000612eb983836000612ac9565b90506001600160a01b03811615610fb2576040516339e3563760e11b815260006004820152602401610f07565b604080516060810182526000546001600160a01b0381168252600160a01b81046001600160581b031660208301819052600160f81b90910460ff1692820192909252906119c49015612fce5760208201516040516331a9108f60e11b81526001600160581b0390911660048201527f00000000000000000000000000000000000000000000000000000000000000006001600160a01b031690636352211e90602401602060405180830381865afa158015612fa5573d6000803e3d6000fd5b505050506040513d601f19601f82011682018060405250810190612fc991906152dc565b612fd1565b81515b82602001516001600160581b0316836040015160ff166128eb565b6001600160581b0381161580159061300c57506001600160a01b03821615155b1561302a5760405163f854950960e01b815260040160405180910390fd5b60408051606081018252600080546001600160a01b0381168352600160a01b81046001600160581b031660208401819052600160f81b90910460ff16938301939093529091156131105760208201516040516331a9108f60e11b81526001600160581b0390911660048201527f00000000000000000000000000000000000000000000000000000000000000006001600160a01b031690636352211e90602401602060405180830381865afa1580156130e7573d6000803e3d6000fd5b505050506040513d601f19601f8201168201806040525081019061310b91906152dc565b613113565b81515b604080516060810182526001600160a01b0387168082526001600160581b0387166020830181905260009290930182905281546001600160f81b03191617600160a01b909202919091176001600160f81b031690559050610f72818585613b6f565b6001600160a01b0382166131a757604051630b61174360e31b81526001600160a01b0383166004820152602401610f07565b6001600160a01b03838116600081815260066020908152604080832094871680845294825291829020805460ff191686151590811790915591519182527f17307eab39ab6107e8899845ad3d59bd9653f200f220920489ca2b5937696c3191015b60405180910390a3505050565b6001600160a01b0383163b15610f7257826001600160a01b031663150b7a0261323c6123d6565b8685856040518563ffffffff1660e01b815260040161325e9493929190615be7565b6020604051808303816000875af1925050508015613299575060408051601f3d908101601f1916820190925261329691810190615c23565b60015b613302573d8080156132c7576040519150601f19603f3d011682016040523d82523d6000602084013e6132cc565b606091505b5080516000036132fa57604051633250574960e11b81526001600160a01b0385166004820152602401610f07565b805181602001fd5b6001600160e01b03198116630a85bd0160e11b14611c6957604051633250574960e11b81526001600160a01b0385166004820152602401610f07565b600080546001600160f81b0316600160f81b60ff841690810291909117909155604080519182523360208301527f3a02c735461e3ddd7b1f6ccb1620101cec0d5c7ef32a2eb50b1b02a4191d8207910160405180910390a150565b6000606060258351116133be5750506040805160208101909152600080825290613538565b6000836133cd60046020615c40565b815181106133dd576133dd6152f9565b0160209081015160f81c91505b6000856133f8600484615c40565b81518110613408576134086152f9565b01602001516001600160f81b0319161480159061342e575061342b602083615c53565b81105b1561353557600085613441600484615c40565b81518110613451576134516152f9565b016020908101518784019091015160f89190911c91506001600160e01b03198089169082160361352b576000613488602086615c53565b613493600986615c40565b1015806134c85750876134a7600986615c40565b815181106134b7576134b76152f9565b01602001516001600160f81b031916155b613501576020886134da600987615c40565b815181106134ea576134ea6152f9565b01602001516134fc919060f81c615c53565b613504565b87515b9050600161351d89613517602087615c53565b84613c55565b965096505050505050613538565b50506005016133ea565b50505b9250929050565b600061354e6000836000612ac9565b90506001600160a01b038116610b8557604051637e27328960e01b815260048101839052602401610f07565b6040516386bc2be360e01b81526001600160a01b037f000000000000000000000000000000000000000000000000000000000000000016906386bc2be390612a9b908490600401614b42565b604051609160f51b602082015260228101829052606090600090604201604051602081830303815290604052905060006135ff82613c9b565b90508481604051602001613614929190615c6a565b6040516020818303038152906040529250505092915050565b60006001600160e01b031982166380ac58cd60e01b148061365e57506001600160e01b03198216635b5e139f60e01b145b80610ab257506301ffc9a760e01b6001600160e01b0319831614610ab2565b6000366014336001600160a01b037f0000000000000000000000000000000000000000000000000000000000000000161480156136ba5750808210155b156136ea576000366136cc8385615964565b6136d7928290615c99565b6136e091615cc3565b60601c9250505090565b339250505090565b808061370657506001600160a01b03821615155b156137e75760006137168461239d565b90506001600160a01b038316158015906137425750826001600160a01b0316816001600160a01b031614155b801561377457506001600160a01b0380821660009081526006602090815260408083209387168352929052205460ff16155b1561379d5760405163a9fbf51f60e01b81526001600160a01b0384166004820152602401610f07565b81156137e55783856001600160a01b0316826001600160a01b03167f8c5be1e5ebec7d5bd14f71427d1e84f3dd0314c0f7b2291e5b200ac8c7c3b92560405160405180910390a45b505b50506000908152600560205260409020805473ffffffffffffffffffffffffffffffffffffffff19166001600160a01b0392909216919091179055565b600080806000198587098587029250828110838203039150508060000361385e5783828161385457613854615cf8565b0492505050611259565b83811061388f57604051630c740aef60e31b8152600481018790526024810186905260448101859052606401610f07565b600084868809600260036001881981018916988990049182028318808302840302808302840302808302840302808302840302808302840302918202909203026000889003889004909101858311909403939093029303949094049190911702949350505050565b600060607f00000000000000000000000000000000000000000000000000000000000000006001600160a01b031663eaa19ab3868660006040518463ffffffff1660e01b815260040161394c93929190615d0e565b6000604051808303816000875af115801561396b573d6000803e3d6000fd5b505050506040513d6000823e601f3d908101601f191682016040526139939190810190615390565b9250905060005b8151811015613a475760008282815181106139b7576139b76152f9565b60200260200101519050846001600160a01b03168683815181106139dd576139dd6152f9565b602002602001015161ffff16827f598baf7bf150ca2f42be9e9f8f55e81d45f5715c3ff22bf46d697fabec7f31d68a613a146123d6565b604080519283526001600160a01b0390911660208301520160405180910390a4613a3e8582612e81565b5060010161399a565b50509392505050565b6000828152600360205260408120546001600160a01b0390811690831615613a7d57613a7d818486613e33565b6001600160a01b03811615613abb57613a9a6000856000806136f2565b6001600160a01b038116600090815260046020526040902080546000190190555b6001600160a01b03851615613aea576001600160a01b0385166000908152600460205260409020805460010190555b600084815260036020526040808220805473ffffffffffffffffffffffffffffffffffffffff19166001600160a01b0389811691821790925591518793918516917fddf252ad1be2c89b69c2b068fc378daa952ba7f163c4a11628f55a4df523b3ef91a4949350505050565b6001613b62838261506a565b506002610fb2828261506a565b6001600160581b03811615613c14576040516331a9108f60e11b81526001600160581b03821660048201527f00000000000000000000000000000000000000000000000000000000000000006001600160a01b031690636352211e90602401602060405180830381865afa158015613beb573d6000803e3d6000fd5b505050506040513d601f19601f82011682018060405250810190613c0f91906152dc565b613c16565b815b6040513381526001600160a01b03918216918516907fc8894f26f396ce8c004245c8b7cd1b92103a6e4302fcbab883987149ac01b7ec90602001613208565b60608282036040519150602081830101604052808252508260208501016020820160005b84811015613c91578281015182820152602001613c79565b5050509392505050565b60608151600003613cba57505060408051600081526020810190915290565b60408051602e8082526105e08201909252600091602082016105c080368337019050509050600081600081518110613cf457613cf46152f9565b60ff90921660209283029190910190910152825160019060005b81811015613e0f576000868281518110613d2a57613d2a6152f9565b016020015160f81c905060005b8460ff16811015613db4576008868281518110613d5657613d566152f9565b602002602001015160ff16901b82613d6e9190615c40565b9150613d7b603a83615d6d565b868281518110613d8d57613d8d6152f9565b60ff90921660209283029190910190910152613daa603a83615d81565b9150600101613d37565b505b8015613e0657613dc7603a82615d6d565b858560ff1681518110613ddc57613ddc6152f9565b60ff90921660209283029190910190910152600190930192613dff603a82615d81565b9050613db6565b50600101613d0e565b50613e2a613e25613e208585613e97565b613f37565b613fda565b95945050505050565b613e3e8383836140b4565b610fb2576001600160a01b038316613e6c57604051637e27328960e01b815260048101829052602401610f07565b60405163177e802f60e01b81526001600160a01b038316600482015260248101829052604401610f07565b606060008260ff1667ffffffffffffffff811115613eb757613eb761440b565b604051908082528060200260200182016040528015613ee0578160200160208202803683370190505b50905060005b8360ff1681101561167d57848181518110613f0357613f036152f9565b6020026020010151828281518110613f1d57613f1d6152f9565b60ff90921660209283029190910190910152600101613ee6565b805160609060008167ffffffffffffffff811115613f5757613f5761440b565b604051908082528060200260200182016040528015613f80578160200160208202803683370190505b50905060005b8281101561167d57848160018751030381518110613fa657613fa66152f9565b6020026020010151828281518110613fc057613fc06152f9565b60ff90921660209283029190910190910152600101613f86565b805160609060008167ffffffffffffffff811115613ffa57613ffa61440b565b6040519080825280601f01601f191660200182016040528015614024576020820181803683370190505b50905060005b8281101561167d576040518060600160405280603a8152602001615d96603a913985828151811061405d5761405d6152f9565b602002602001015160ff1681518110614078576140786152f9565b602001015160f81c60f81b828281518110614095576140956152f9565b60200101906001600160f81b031916908160001a90535060010161402a565b60006001600160a01b038316158015906141325750826001600160a01b0316846001600160a01b0316148061410e57506001600160a01b0380851660009081526006602090815260408083209387168352929052205460ff165b8061413257506000828152600560205260409020546001600160a01b038481169116145b949350505050565b6001600160e01b0319811681146119c457600080fd5b60006020828403121561416257600080fd5b81356112598161413a565b60005b83811015614188578181015183820152602001614170565b50506000910152565b600081518084526141a981602086016020860161416d565b601f01601f19169290920160200192915050565b6020815260006112596020830184614191565b6000602082840312156141e257600080fd5b5035919050565b6001600160a01b03811681146119c457600080fd5b8035614209816141e9565b919050565b6000806040838503121561422157600080fd5b823561422c816141e9565b946020939093013593505050565b6000610200828403121561424d57600080fd5b50919050565b60006020828403121561426557600080fd5b813567ffffffffffffffff81111561427c57600080fd5b6141328482850161423a565b60008083601f84011261429a57600080fd5b50813567ffffffffffffffff8111156142b257600080fd5b60208301915083602082850101111561353857600080fd5b600080600080600080600060a0888a0312156142e557600080fd5b873567ffffffffffffffff808211156142fd57600080fd5b6143098b838c01614288565b909950975060208a013591508082111561432257600080fd5b5061432f8a828b01614288565b9096509450506040880135614343816141e9565b969995985093969295946060840135945060809093013592915050565b60006101a0828403121561424d57600080fd5b60006020828403121561438557600080fd5b813567ffffffffffffffff81111561439c57600080fd5b61413284828501614360565b6000806000606084860312156143bd57600080fd5b83356143c8816141e9565b925060208401356143d8816141e9565b929592945050506040919091013590565b600080604083850312156143fc57600080fd5b50508035926020909101359150565b634e487b7160e01b600052604160045260246000fd5b6040516080810167ffffffffffffffff811182821017156144445761444461440b565b60405290565b6040516101c0810167ffffffffffffffff811182821017156144445761444461440b565b6040516101e0810167ffffffffffffffff811182821017156144445761444461440b565b604051610120810167ffffffffffffffff811182821017156144445761444461440b565b604051601f8201601f1916810167ffffffffffffffff811182821017156144df576144df61440b565b604052919050565b600067ffffffffffffffff8211156145015761450161440b565b50601f01601f191660200190565b600061452261451d846144e7565b6144b6565b905082815283838301111561453657600080fd5b828260208301376000602084830101529392505050565b600082601f83011261455e57600080fd5b6112598383356020850161450f565b600067ffffffffffffffff8211156145875761458761440b565b5060051b60200190565b6cffffffffffffffffffffffffff811681146119c457600080fd5b803561420981614591565b63ffffffff811681146119c457600080fd5b8035614209816145b7565b61ffff811681146119c457600080fd5b8035614209816145d4565b62ffffff811681146119c457600080fd5b8035614209816145ef565b60ff811681146119c457600080fd5b80356142098161460b565b80151581146119c457600080fd5b803561420981614625565b6000608080838503121561465157600080fd5b614659614421565b9150823567ffffffffffffffff81111561467257600080fd5b8301601f8101851361468357600080fd5b8035602061469361451d8361456d565b8281526101c092830284018201928282019190898511156146b357600080fd5b948301945b848610156147ca5780868b0312156146d05760008081fd5b6146d861444a565b6146e1876145ac565b81526146ee8588016145c9565b8582015260406146ff8189016145c9565b9082015260606147108882016145e4565b9082015261471f8789016141fe565b8189015260a0878101359082015260c061473a818901614600565b9082015260e061474b88820161461a565b9082015261010061475d888201614633565b9082015261012061476f888201614633565b90820152610140614781888201614633565b90820152610160614793888201614633565b908201526101806147a5888201614633565b908201526101a06147b7888201614633565b90820152835294850194918301916146b8565b508652506147d98682016145c9565b81860152505050506147ed6040830161461a565b60408201526147fe606083016141fe565b606082015292915050565b60006080828403121561481b57600080fd5b614823614421565b9050813561483081614625565b8152602082013561484081614625565b6020820152604082013561485381614625565b604082015260608201356147fe81614625565b600080600080600080600080610160898b03121561488357600080fd5b88359750602089013567ffffffffffffffff808211156148a257600080fd5b6148ae8c838d0161454d565b985060408b01359150808211156148c457600080fd5b6148d08c838d0161454d565b975060608b01359150808211156148e657600080fd5b6148f28c838d0161454d565b965061490060808c016141fe565b955060a08b013591508082111561491657600080fd5b6149228c838d0161454d565b945060c08b013591508082111561493857600080fd5b506149458b828c0161463e565b9250506149558a60e08b01614809565b90509295985092959890939650565b60006020828403121561497657600080fd5b8135611259816141e9565b6000806040838503121561499457600080fd5b8235915060208301356149a6816141e9565b809150509250929050565b600080604083850312156149c457600080fd5b823567ffffffffffffffff808211156149dc57600080fd5b818501915085601f8301126149f057600080fd5b81356020614a0061451d8361456d565b82815260059290921b84018101918181019089841115614a1f57600080fd5b948201945b83861015614a3d57853582529482019490820190614a24565b96505086013592505080821115614a5357600080fd5b50614a6085828601614360565b9150509250929050565b60008083601f840112614a7c57600080fd5b50813567ffffffffffffffff811115614a9457600080fd5b6020830191508360208260051b850101111561353857600080fd5b600080600060408486031215614ac457600080fd5b833567ffffffffffffffff811115614adb57600080fd5b614ae786828701614a6a565b9094509250506020840135614afb816141e9565b809150509250925092565b60008151808452602080850194506020840160005b83811015614b3757815187529582019590820190600101614b1b565b509495945050505050565b6020815260006112596020830184614b06565b600060208284031215614b6757600080fd5b813567ffffffffffffffff811115614b7e57600080fd5b8201610180818503121561125957600080fd5b6000604080830185845260206040818601528186518084526060935060608701915060608160051b88010183890160005b83811015614c1257898303605f19018552815180516001600160a01b031684528681015187850152880151888401889052614bff88850182614191565b9587019593505090850190600101614bc2565b50909a9950505050505050505050565b60008083601f840112614c3457600080fd5b50813567ffffffffffffffff811115614c4c57600080fd5b6020830191508360208260061b850101111561353857600080fd5b60008060208385031215614c7a57600080fd5b823567ffffffffffffffff811115614c9157600080fd5b614c9d85828601614c22565b90969095509350505050565b60008060408385031215614cbc57600080fd5b8235614cc7816141e9565b915060208301356149a681614625565b60008060008060808587031215614ced57600080fd5b8435614cf8816141e9565b93506020850135614d08816141e9565b925060408501359150606085013567ffffffffffffffff811115614d2b57600080fd5b8501601f81018713614d3c57600080fd5b614d4b8782356020840161450f565b91505092959194509250565b600060208284031215614d6957600080fd5b81356112598161460b565b60008060008060408587031215614d8a57600080fd5b843567ffffffffffffffff80821115614da257600080fd5b818701915087601f830112614db657600080fd5b813581811115614dc557600080fd5b8860206101c083028501011115614ddb57600080fd5b602092830196509450908601359080821115614df657600080fd5b50614e0387828801614a6a565b95989497509550505050565b60008060408385031215614e2257600080fd5b8235614e2d816141e9565b915060208301356149a6816141e9565b60006080820186835260208681850152604086604086015260606080606087015283875180865260a08801915060a08160051b890101955084890160005b82811015614ecb57898803609f19018452815180516001600160a01b0316895287810151888a0152860151868901869052614eb8868a0182614191565b9850509286019290860190600101614e7b565b50959c9b505050505050505050505050565b600181811c90821680614ef157607f821691505b60208210810361424d57634e487b7160e01b600052602260045260246000fd5b805161420981614625565b600060208284031215614f2e57600080fd5b815161125981614625565b601f821115610fb2576000816000526020600020601f850160051c81016020861015614f625750805b601f850160051c820191505b8181101561146557828155600101614f6e565b67ffffffffffffffff831115614f9957614f9961440b565b614fad83614fa78354614edd565b83614f39565b6000601f841160018114614fe15760008515614fc95750838201355b600019600387901b1c1916600186901b178355611c69565b600083815260209020601f19861690835b828110156150125786850135825560209485019460019092019101614ff2565b508682101561502f5760001960f88860031b161c19848701351681555b505060018560011b0183555050505050565b8183823760009101908152919050565b60006020828403121561506357600080fd5b5051919050565b815167ffffffffffffffff8111156150845761508461440b565b615098816150928454614edd565b84614f39565b602080601f8311600181146150cd57600084156150b55750858301515b600019600386901b1c1916600185901b178555611465565b600085815260208120601f198616915b828110156150fc578886015182559484019460019091019084016150dd565b508582101561511a5787850151600019600388901b60f8161c191681555b5050505050600190811b01905550565b602080825282518282018190526000919060409081850190868401855b8281101561522557815180516cffffffffffffffffffffffffff1685528681015163ffffffff9081168887015286820151168686015260608082015161ffff16908601526080808201516001600160a01b03169086015260a0808201519086015260c08082015162ffffff169086015260e08082015160ff169086015261010080820151151590860152610120808201511515908601526101408082015115159086015261016080820151151590860152610180808201511515908601526101a0908101511515908501526101c09093019290850190600101615147565b5091979650505050505050565b600082601f83011261524357600080fd5b8151602061525361451d8361456d565b8083825260208201915060208460051b87010193508684111561527557600080fd5b602086015b84811015615291578051835291830191830161527a565b509695505050505050565b6000602082840312156152ae57600080fd5b815167ffffffffffffffff8111156152c557600080fd5b61413284828501615232565b8051614209816141e9565b6000602082840312156152ee57600080fd5b8151611259816141e9565b634e487b7160e01b600052603260045260246000fd5b6001600160a01b03831681526040602082015260006141326040830184614b06565b84815260606020808301829052908201849052600090859060808401835b87811015615378578335615362816145d4565b61ffff168252928201929082019060010161534f565b50809350505050821515604083015295945050505050565b600080604083850312156153a357600080fd5b825167ffffffffffffffff8111156153ba57600080fd5b6153c685828601615232565b925050602083015190509250929050565b6000602082840312156153e957600080fd5b8135611259816145d4565b60006040828403121561540657600080fd5b6040516040810181811067ffffffffffffffff821117156154295761542961440b565b604052905080823561543a816145b7565b8152602083013561544a816145d4565b6020919091015292915050565b60006040828403121561546957600080fd5b61125983836153f4565b6000808335601e1984360301811261548a57600080fd5b83018035915067ffffffffffffffff8211156154a557600080fd5b60200191503681900382131561353857600080fd5b600082601f8301126154cb57600080fd5b81516154d961451d826144e7565b8181528460208386010111156154ee57600080fd5b61413282602083016020870161416d565b60006020828403121561551157600080fd5b815167ffffffffffffffff81111561552857600080fd5b614132848285016154ba565b6020815281602082015260007f07ffffffffffffffffffffffffffffffffffffffffffffffffffffffffffffff83111561556d57600080fd5b8260051b80856040850137919091016040019392505050565b6155a682615593836145ac565b6cffffffffffffffffffffffffff169052565b6155b2602082016145c9565b63ffffffff1660208301526155c9604082016145c9565b63ffffffff1660408301526155e0606082016145e4565b61ffff1660608301526155f5608082016141fe565b6001600160a01b0316608083015260a0818101359083015261561960c08201614600565b62ffffff1660c083015261562f60e0820161461a565b60ff1660e0830152610100615645828201614633565b151590830152610120615659828201614633565b15159083015261014061566d828201614633565b151590830152610160615681828201614633565b151590830152610180615695828201614633565b1515908301526101a06156a9828201614633565b80151584830152610f72565b6020808252810182905260008360408301825b858110156156ee576156da8284615586565b6101c09283019291909101906001016156c8565b5095945050505050565b6101e081016157078285615586565b6001600160a01b0383166101c08301529392505050565b60006020828403121561573057600080fd5b8135611259816145b7565b634e487b7160e01b600052601160045260246000fd5b600181815b8085111561578c5781600019048211156157725761577261573b565b8085161561577f57918102915b93841c9390800290615756565b509250929050565b6000826157a357506001610ab2565b816157b057506000610ab2565b81600181146157c657600281146157d0576157ec565b6001915050610ab2565b60ff8411156157e1576157e161573b565b50506001821b610ab2565b5060208310610133831016604e8410600b841016171561580f575081810a610ab2565b6158198383615751565b806000190482111561582d5761582d61573b565b029392505050565b60006112598383615794565b60006080828403121561585357600080fd5b61585b614421565b825161586681614625565b8152602083015161587681614625565b6020820152604083015161588981614625565b6040820152606083015161589c81614625565b60608201529392505050565b8051614209816145d4565b600080604083850312156158c657600080fd5b82516158d181614625565b8092505060208084015167ffffffffffffffff8111156158f057600080fd5b8401601f8101861361590157600080fd5b805161590f61451d8261456d565b81815260059190911b8201830190838101908883111561592e57600080fd5b928401925b82841015615955578351615946816145d4565b82529284019290840190615933565b80955050505050509250929050565b81810381811115610ab257610ab261573b565b8051614209816145b7565b805161420981614591565b8051614209816145ef565b80516142098161460b565b6000602082840312156159b557600080fd5b815167ffffffffffffffff808211156159cd57600080fd5b908301906101e082860312156159e257600080fd5b6159ea61446e565b6159f383615977565b8152615a0160208401615982565b6020820152615a1260408401615977565b6040820152615a2360608401615977565b6060820152615a3460808401615982565b6080820152615a4560a084016158a8565b60a0820152615a5660c084016152d1565b60c082015260e083015160e0820152610100615a7381850161598d565b90820152610120615a85848201615998565b90820152610140615a97848201614f11565b90820152610160615aa9848201614f11565b90820152610180615abb848201614f11565b908201526101a0615acd848201614f11565b908201526101c08381015183811115615ae557600080fd5b615af1888287016154ba565b918301919091525095945050505050565b805165ffffffffffff8116811461420957600080fd5b80516dffffffffffffffffffffffffffff8116811461420957600080fd5b60006101208284031215615b4957600080fd5b615b51614492565b615b5a83615b02565b8152615b6860208401615b02565b6020820152615b7960408401615b02565b6040820152615b8a60608401615b02565b6060820152615b9b60808401615977565b6080820152615bac60a08401615b18565b60a0820152615bbd60c08401615977565b60c0820152615bce60e084016152d1565b60e0820152610100928301519281019290925250919050565b60006001600160a01b03808716835280861660208401525083604083015260806060830152615c196080830184614191565b9695505050505050565b600060208284031215615c3557600080fd5b81516112598161413a565b80820180821115610ab257610ab261573b565b8082028115828204841417610ab257610ab261573b565b60008351615c7c81846020880161416d565b835190830190615c9081836020880161416d565b01949350505050565b60008085851115615ca957600080fd5b83861115615cb657600080fd5b5050820193919092039150565b6bffffffffffffffffffffffff198135818116916014851015615cf05780818660140360031b1b83161692505b505092915050565b634e487b7160e01b600052601260045260246000fd5b60006060820185835260206060602085015281865180845260808601915060208801935060005b81811015615d5557845161ffff1683529383019391830191600101615d35565b50508093505050508215156040830152949350505050565b600082615d7c57615d7c615cf8565b500690565b600082615d9057615d90615cf8565b50049056fe31323334353637383941424344454647484a4b4c4d4e505152535455565758595a6162636465666768696a6b6d6e6f707172737475767778797aa2646970667358221220a3ae00e238208139e79619d1574dcc2f4583e8dae0539edfb71aa61e1e03780464736f6c63430008170033",
	"deployedBytecode": "0x6080604052600436106103135760003560e01c8063715018a61161019a578063c22903b2116100e1578063e8a3d4851161008a578063f2fde38b11610064578063f2fde38b14610a09578063f434c91414610a29578063fb82b1b014610a5d57600080fd5b8063e8a3d48514610977578063e985e9c51461098c578063edab09b9146109d557600080fd5b8063d102134c116100bb578063d102134c146108f6578063d4a1b4b114610916578063d95c9ae21461094a57600080fd5b8063c22903b2146108a3578063c87b56dd146108b6578063cf7f4936146108d657600080fd5b80639c2c6a0211610143578063b88d4fde1161011d578063b88d4fde146107f6578063ba23c36e14610816578063c0fb5e851461088357600080fd5b80639c2c6a0214610796578063a220d696146107b6578063a22cb465146107d657600080fd5b80638cc35846116101745780638cc358461461073e5780638da5cb5b1461076c57806395d89b411461078157600080fd5b8063715018a6146106c25780637da0a877146106d757806388bc2ef31461070a57600080fd5b8063462e3af81161025e5780636352211e116102075780636ac6d941116101e15780636ac6d941146106605780636c0360eb1461068d57806370a08231146106a257600080fd5b80636352211e146105fd578063677ce0881461061d57806369f729701461064057600080fd5b806356539f391161023857806356539f391461057a578063572b6c0514610590578063613b856d146105dd57600080fd5b8063462e3af814610506578063507f14651461052657806354c6d1f51461055a57600080fd5b80631435aad5116102c05780632483d6b51161029a5780632483d6b514610492578063293c4999146104b257806342842e0e146104e657600080fd5b80631435aad5146104245780631da1da721461044457806323b872dd1461047257600080fd5b806308786b1a116102f157806308786b1a146103a7578063095ea7b3146103ef5780631337f9861461041157600080fd5b806301ffc9a71461031857806306fdde031461034d578063081812fc1461036f575b600080fd5b34801561032457600080fd5b50610338610333366004614150565b610a8d565b60405190151581526020015b60405180910390f35b34801561035957600080fd5b50610362610ab8565b60405161034491906141bd565b34801561037b57600080fd5b5061038f61038a3660046141d0565b610b4a565b6040516001600160a01b039091168152602001610344565b3480156103b357600080fd5b50600c5463ffffffff811690602081901c60ff169060281c6040805193845260208401929092526001600160a01b031690820152606001610344565b3480156103fb57600080fd5b5061040f61040a36600461420e565b610b73565b005b61040f61041f366004614253565b610b89565b34801561043057600080fd5b5061040f61043f3660046142ca565b610c5c565b34801561045057600080fd5b5061046461045f366004614373565b610e55565b604051908152602001610344565b34801561047e57600080fd5b5061040f61048d3660046143a8565b610ee1565b34801561049e57600080fd5b5061040f6104ad3660046143e9565b610f78565b3480156104be57600080fd5b5061038f7f0000000000000000000000009b52a59f108e36ce0a8eba595eca22dbadbe655f81565b3480156104f257600080fd5b5061040f6105013660046143a8565b610f97565b34801561051257600080fd5b5061040f610521366004614866565b610fb7565b34801561053257600080fd5b5061038f7f0000000000000000000000001704cfc2f93bf49e54a9939e14a471749b12eee881565b34801561056657600080fd5b5061038f6105753660046141d0565b61121c565b34801561058657600080fd5b5061046460075481565b34801561059c57600080fd5b506103386105ab366004614964565b7f000000000000000000000000b2b5841dbef766d4b521221732f9b618fcf34a876001600160a01b0390811691161490565b3480156105e957600080fd5b5061040f6105f83660046143e9565b611260565b34801561060957600080fd5b5061038f6106183660046141d0565b61146d565b34801561062957600080fd5b50610338610638366004614981565b600092915050565b34801561064c57600080fd5b5061046461065b3660046149b1565b611478565b34801561066c57600080fd5b5061068061067b366004614aaf565b61150a565b6040516103449190614b42565b34801561069957600080fd5b50610362611685565b3480156106ae57600080fd5b506104646106bd366004614964565b611713565b3480156106ce57600080fd5b5061040f61176c565b3480156106e357600080fd5b507f000000000000000000000000b2b5841dbef766d4b521221732f9b618fcf34a8761038f565b34801561071657600080fd5b5061038f7f0000000000000000000000005adb234602d074064c216c1fdb23c6c2031f0c7581565b34801561074a57600080fd5b5061075e610759366004614b55565b611781565b604051610344929190614b91565b34801561077857600080fd5b5061038f611828565b34801561078d57600080fd5b50610362611915565b3480156107a257600080fd5b5061040f6107b1366004614c67565b611924565b3480156107c257600080fd5b5061040f6107d13660046141d0565b611980565b3480156107e257600080fd5b5061040f6107f1366004614ca9565b6119c7565b34801561080257600080fd5b5061040f610811366004614cd7565b6119d9565b34801561082257600080fd5b50600054610853906001600160a01b03811690600160a01b81046001600160581b031690600160f81b900460ff1683565b604080516001600160a01b0390941684526001600160581b03909216602084015260ff1690820152606001610344565b34801561088f57600080fd5b5061040f61089e366004614d57565b6119f0565b61040f6108b1366004614253565b611a01565b3480156108c257600080fd5b506103626108d13660046141d0565b611c70565b3480156108e257600080fd5b5061040f6108f1366004614c67565b611ea5565b34801561090257600080fd5b5061040f610911366004614d74565b611f0c565b34801561092257600080fd5b5061038f7f000000000000000000000000c052725ff9888ce3148aa8bfb5063f1a5028946d81565b34801561095657600080fd5b50610464610965366004614964565b600a6020526000908152604090205481565b34801561098357600080fd5b5061036261213e565b34801561099857600080fd5b506103386109a7366004614e0f565b6001600160a01b03918216600090815260066020908152604080832093909416825291909152205460ff1690565b3480156109e157600080fd5b5061038f7f000000000000000000000000b82085d1572f882f1ba3b40c83fb378e33fd8d1281565b348015610a1557600080fd5b5061040f610a24366004614964565b61214b565b348015610a3557600080fd5b5061038f7f0000000000000000000000004886c30c81a17a3a1084fd1812008fa0f71a20b981565b348015610a6957600080fd5b50610a7d610a78366004614373565b612185565b6040516103449493929190614e3d565b60006001600160e01b03198216637aa81e7b60e01b1480610ab25750610ab28261230c565b92915050565b606060018054610ac790614edd565b80601f0160208091040260200160405190810160405280929190818152602001828054610af390614edd565b8015610b405780601f10610b1557610100808354040283529160200191610b40565b820191906000526020600020905b815481529060010190602001808311610b2357829003601f168201915b5050505050905090565b6000610b558261239d565b506000828152600560205260409020546001600160a01b0316610ab2565b610b858282610b806123d6565b6123e5565b5050565b60075434151580610c265750604051636e49181f60e01b8152600481018290523360248201527f0000000000000000000000005adb234602d074064c216c1fdb23c6c2031f0c756001600160a01b031690636e49181f90604401602060405180830381865afa158015610c00573d6000803e3d6000fd5b505050506040513d601f19601f82011682018060405250810190610c249190614f1c565b155b80610c35575080826020013514155b15610c5357604051633fb648ad60e11b815260040160405180910390fd5b610b85826123f2565b610c71610c67611828565b60075460156128eb565b8515610ce2576008610c84878983614f81565b508686604051610c95929190615041565b60405180910390207f7bc9110d5de090dd59e07912d2b93a5a27ac70a60c8d8e324db4f9ee8b8b5c13610cc66123d6565b6040516001600160a01b03909116815260200160405180910390a25b8315610d53576009610cf5858783614f81565b508484604051610d06929190615041565b60405180910390207fd36dc0c1a06103fdcaf15f3f6fb797d1a97997514c78de073640c8b5005454b8610d376123d6565b6040516001600160a01b03909116815260200160405180910390a25b6001600160a01b0383163014610d6c57610d6c83612a03565b8115801590610d7a57508015155b15610e4c57817f677da4fed654db8e604791fa2582f342e2001aa217e27f6985eb3e0f67e5a7fc82610daa6123d6565b604080519283526001600160a01b0390911660208301520160405180910390a26040516324de8d6360e11b815260048101839052602481018290527f0000000000000000000000001704cfc2f93bf49e54a9939e14a471749b12eee86001600160a01b0316906349bd1ac690604401600060405180830381600087803b158015610e3357600080fd5b505af1158015610e47573d6000803e3d6000fd5b505050505b50505050505050565b6040516349e6fb6760e01b81523060048201526000907f0000000000000000000000001704cfc2f93bf49e54a9939e14a471749b12eee86001600160a01b0316906349e6fb67906024015b602060405180830381865afa158015610ebd573d6000803e3d6000fd5b505050506040513d601f19601f82011682018060405250810190610ab29190615051565b6001600160a01b038216610f1057604051633250574960e11b8152600060048201526024015b60405180910390fd5b6000610f248383610f1f6123d6565b612ac9565b9050836001600160a01b0316816001600160a01b031614610f72576040516364283d7b60e01b81526001600160a01b0380861660048301526024820184905282166044820152606401610f07565b50505050565b610f8d610f83611828565b60075460176128eb565b610b858282612cd9565b610fb2838383604051806020016040528060008152506119d9565b505050565b60075415610fde57600754604051639889eb1160e01b8152600401610f0791815260200190565b87600003610fff57604051630ea59fc560e21b815260040160405180910390fd5b61100a888888612da1565b6020808301516040840151606085015178ffffffffffffffffffffffffffffffffffffffff000000000060289190911b1664ff000000009190931b1663ffffffff9091161717600c81905585511561106a576008611068878261506a565b505b83511561107f57600961107d858261506a565b505b6001600160a01b038516156110975761109785612a03565b82515115611135578251604051631f1d05ad60e01b81526001600160a01b037f0000000000000000000000001704cfc2f93bf49e54a9939e14a471749b12eee81691631f1d05ad916110ec919060040161512a565b6000604051808303816000875af115801561110b573d6000803e3d6000fd5b505050506040513d6000823e601f3d908101601f19168201604052611133919081019061529c565b505b815180611143575081602001515b8061114f575081604001515b8061115b575081606001515b1561120157604080516365c13f1960e11b815283511515600482015260208401511515602482015290830151151560448201526060830151151560648201527f0000000000000000000000001704cfc2f93bf49e54a9939e14a471749b12eee86001600160a01b03169063cb827e3290608401600060405180830381600087803b1580156111e857600080fd5b505af11580156111fc573d6000803e3d6000fd5b505050505b61121161120c6123d6565b61217a565b505050505050505050565b6000818152600b60205260408120546001600160a01b031680156112405792915050565b6000838152600360205260409020546001600160a01b03165b9392505050565b600061126d600754612db2565b905061128c61128182610100015160f21c90565b600190811c81161490565b156112aa5760405163b1f1d8cf60e01b815260040160405180910390fd5b604051635d53f40760e11b815260048101849052602481018390526000907f0000000000000000000000001704cfc2f93bf49e54a9939e14a471749b12eee86001600160a01b03169063baa7e80e906044016000604051808303816000875af115801561131b573d6000803e3d6000fd5b505050506040513d6000823e601f3d908101601f19168201604052611343919081019061529c565b60405162d5cc0160e21b8152306004820152602481018690529091506000906001600160a01b037f0000000000000000000000001704cfc2f93bf49e54a9939e14a471749b12eee81690630357300490604401602060405180830381865afa1580156113b3573d6000803e3d6000fd5b505050506040513d601f19601f820116820180604052508101906113d791906152dc565b905060005b848110156114655760008382815181106113f8576113f86152f9565b60200260200101519050826001600160a01b031687827f80dd2efbbc431cde0164d84d638e44ba6e7a3ca5d532ceef1bb4efcc0948325d6114376123d6565b6040516001600160a01b03909116815260200160405180910390a461145c8382612e81565b506001016113dc565b505050505050565b6000610ab28261239d565b604051639be748fb60e01b81526000906001600160a01b037f0000000000000000000000001704cfc2f93bf49e54a9939e14a471749b12eee81690639be748fb906114c9903090879060040161530f565b602060405180830381865afa1580156114e6573d6000803e3d6000fd5b505050506040513d601f19601f820116820180604052508101906112599190615051565b6060611521611517611828565b60075460166128eb565b60405163eaa19ab360e01b81526001600160a01b037f0000000000000000000000001704cfc2f93bf49e54a9939e14a471749b12eee8169063eaa19ab390611576906000199088908890600190600401615331565b6000604051808303816000875af1158015611595573d6000803e3d6000fd5b505050506040513d6000823e601f3d908101601f191682016040526115bd9190810190615390565b50905060005b8381101561167d5760008282815181106115df576115df6152f9565b602002602001015190506115f38482612e81565b836001600160a01b031686868481811061160f5761160f6152f9565b905060200201602081019061162491906153d7565b61ffff16827f598baf7bf150ca2f42be9e9f8f55e81d45f5715c3ff22bf46d697fabec7f31d660006116546123d6565b604080519283526001600160a01b0390911660208301520160405180910390a4506001016115c3565b509392505050565b6008805461169290614edd565b80601f01602080910402602001604051908101604052809291908181526020018280546116be90614edd565b801561170b5780601f106116e05761010080835404028352916020019161170b565b820191906000526020600020905b8154815290600101906020018083116116ee57829003601f168201915b505050505081565b604051633de222bb60e21b81523060048201526001600160a01b0382811660248301526000917f0000000000000000000000001704cfc2f93bf49e54a9939e14a471749b12eee89091169063f7888aec90604401610ea0565b611774612ee6565b61177f600080612fec565b565b6040805160018082528183019092526101208301359160609190816020015b604080516060808201835260008083526020830152918101919091528152602001906001900390816117a05790505090506040518060600160405280306001600160a01b03168152602001600081526020016040518060200160405280600081525081525081600081518110611818576118186152f9565b6020026020010181905250915091565b60408051606081018252600080546001600160a01b0381168352600160a01b81046001600160581b031660208401819052600160f81b90910460ff16938301939093529182036118785751919050565b60208101516040516331a9108f60e11b81526001600160581b0390911660048201527f0000000000000000000000009b52a59f108e36ce0a8eba595eca22dbadbe655f6001600160a01b031690636352211e90602401602060405180830381865afa1580156118eb573d6000803e3d6000fd5b505050506040513d601f19601f8201168201806040525081019061190f91906152dc565b91505090565b606060028054610ac790614edd565b60005b81811015610fb2576000838383818110611943576119436152f9565b9050604002018036038101906119599190615457565b9050611977816000015163ffffffff16826020015161ffff16611260565b50600101611927565b611988612ee6565b80158061199b57506001600160581b0381115b156119b95760405163f854950960e01b815260040160405180910390fd5b6119c4600082612fec565b50565b610b856119d26123d6565b8383613175565b6119e4848484610ee1565b610f7284848484613215565b6119f8612ee6565b6119c48161333e565b60075434151580611a9e5750604051636e49181f60e01b8152600481018290523360248201527f0000000000000000000000005adb234602d074064c216c1fdb23c6c2031f0c756001600160a01b031690636e49181f90604401602060405180830381865afa158015611a78573d6000803e3d6000fd5b505050506040513d601f19601f82011682018060405250810190611a9c9190614f1c565b155b80611aad575080826020013514155b15611acb576040516394310b3d60e01b815260040160405180910390fd5b60408051808201909152600781526618d85cda13dd5d60ca1b602090910152600080611b7e7f000000000000000000000000b82085d1572f882f1ba3b40c83fb378e33fd8d1260601b7f86b14ff4df1839d4c5ed01550f2540ea56ad3e3813c5cd226eeab5890c21e3bb18611b446101e0870187615473565b8080601f01602080910402602001604051908101604052809392919081815260200183838082843760009201919091525061339992505050565b9150915060608215611ba15781806020019051810190611b9e919061529c565b90505b60005b8151811015611c5f576000828281518110611bc157611bc16152f9565b60200260200101519050866000016020810190611bde9190614964565b6001600160a01b0316611c06826000908152600360205260409020546001600160a01b031690565b6001600160a01b031614611c4d5780611c226020890189614964565b604051630694678560e21b815260048101929092526001600160a01b03166024820152604401610f07565b611c568161353f565b50600101611ba4565b50611c698161357a565b5050505050565b604051630fab094760e01b81523060048201526060906000906001600160a01b037f0000000000000000000000001704cfc2f93bf49e54a9939e14a471749b12eee81690630fab094790602401602060405180830381865afa158015611cda573d6000803e3d6000fd5b505050506040513d601f19601f82011682018060405250810190611cfe91906152dc565b90506001600160a01b03811615611d8257604051635e703e7160e01b8152306004820152602481018490526001600160a01b03821690635e703e7190604401600060405180830381865afa158015611d5a573d6000803e3d6000fd5b505050506040513d6000823e601f3d908101601f1916820160405261125991908101906154ff565b61125960088054611d9290614edd565b80601f0160208091040260200160405190810160405280929190818152602001828054611dbe90614edd565b8015611e0b5780601f10611de057610100808354040283529160200191611e0b565b820191906000526020600020905b815481529060010190602001808311611dee57829003601f168201915b5050604051630c8df17160e41b8152306004820152602481018990527f0000000000000000000000001704cfc2f93bf49e54a9939e14a471749b12eee86001600160a01b0316935063c8df171092506044019050602060405180830381865afa158015611e7c573d6000803e3d6000fd5b505050506040513d601f19601f82011682018060405250810190611ea09190615051565b6135c6565b611eb0610f83611828565b60005b81811015610fb2576000838383818110611ecf57611ecf6152f9565b905060400201803603810190611ee59190615457565b9050611f03816000015163ffffffff16826020015161ffff16612cd9565b50600101611eb3565b611f21611f17611828565b60075460146128eb565b80156120195760005b81811015611f9757828282818110611f4457611f446152f9565b905060200201357f832d89d991be5351d793c20faf4b7dd44f8aa9ce39e3cb160c6317de6fbba729611f746123d6565b6040516001600160a01b03909116815260200160405180910390a2600101611f2a565b506040516320512ba160e01b81526001600160a01b037f0000000000000000000000001704cfc2f93bf49e54a9939e14a471749b12eee816906320512ba190611fe69085908590600401615534565b600060405180830381600087803b15801561200057600080fd5b505af1158015612014573d6000803e3d6000fd5b505050505b8215610f7257604051631f1d05ad60e01b81526000906001600160a01b037f0000000000000000000000001704cfc2f93bf49e54a9939e14a471749b12eee81690631f1d05ad9061207090889088906004016156b5565b6000604051808303816000875af115801561208f573d6000803e3d6000fd5b505050506040513d6000823e601f3d908101601f191682016040526120b7919081019061529c565b905060005b84811015611465578181815181106120d6576120d66152f9565b60200260200101517fcbda9c610cbf8b0b9941c465b20ff7e1fae572086b70ef65fa3d5e4bf3d0deaa878784818110612111576121116152f9565b90506101c002016121206123d6565b60405161212e9291906156f8565b60405180910390a26001016120bc565b6009805461169290614edd565b612153612ee6565b6001600160a01b03811661217a5760405163f854950960e01b815260040160405180910390fd5b6119c4816000612fec565b6000808060606080850135156121ae5760405163096afe5960e41b815260040160405180910390fd5b60408051808201909152600781526618d85cda13dd5d60ca1b6020909101526000806122277f000000000000000000000000b82085d1572f882f1ba3b40c83fb378e33fd8d1260601b7f86b14ff4df1839d4c5ed01550f2540ea56ad3e3813c5cd226eeab5890c21e3bb18611b446101808a018a615473565b604080516001808252818301909252929450909250816020015b604080516060808201835260008083526020830152918101919091528152602001906001900390816122415790505092506040518060600160405280306001600160a01b031681526020016000815260200160405180602001604052806000815250815250836000815181106122b9576122b96152f9565b6020026020010181905250606082156122e357818060200190518101906122e0919061529c565b90505b6122ed8189611478565b95506122f888610e55565b945087610160013596505050509193509193565b60006001600160e01b03198216633344b87360e01b148061233d57506001600160e01b0319821663081e84bf60e11b145b8061235857506001600160e01b0319821663099bfcc360e11b145b8061237357506001600160e01b0319821663611481d960e11b145b8061238e57506001600160e01b0319821663152a902d60e11b145b80610ab25750610ab28261362d565b6000818152600360205260408120546001600160a01b031680610ab257604051637e27328960e01b815260048101849052602401610f07565b60006123e061367d565b905090565b610fb283838360016136f2565b600c5460009063ffffffff81168061241060c0860160a0870161571e565b63ffffffff16036124275760c08401359250612516565b602882901c6001600160a01b03811615611c695760ff602084901c1661251160c087013561245683600a615835565b6007546001600160a01b03861690633be273fa9061247a60c08d0160a08e0161571e565b898d60600160200160208101906124919190614d57565b6040516001600160e01b031960e087901b168152600481019490945263ffffffff929092166024840152604483015260ff166064820152608401602060405180830381865afa1580156124e8573d6000803e3d6000fd5b505050506040513d601f19601f8201168201806040525081019061250c9190615051565b613824565b945050505b5060009050600a816125306101c086016101a08701614964565b6001600160a01b031681526020810191909152604001600090812054915082906125626101c086016101a08701614964565b6001600160a01b03166125786020870187614964565b6001600160a01b03160361258f5790820190612592565b50815b604051634228826f60e11b81523060048201526000907f0000000000000000000000001704cfc2f93bf49e54a9939e14a471749b12eee86001600160a01b03169063845104de90602401608060405180830381865afa1580156125f9573d6000803e3d6000fd5b505050506040513d601f19601f8201168201806040525081019061261d9190615841565b60609081015160408051808201909152600381526270617960e81b602090910152159150600090819061269d907f000000000000000000000000b82085d1572f882f1ba3b40c83fb378e33fd8d12901b7fadc756803e4eb4ccfb136b73d5f72e3dc0d452d30ae1f4bc82af394c73ce711518611b446101e08b018b615473565b9150915081156127015760606000828060200190518101906126bf91906158b3565b925090508480156126ce575080155b156126d857600094505b8151156126fe576126fb87836126f66101c08e016101a08f01614964565b6138f7565b96505b50505b841561283e57826127285760405163215ccc4760e11b815260048101869052602401610f07565b8484018681111561279b576127456101c08a016101a08b01614964565b6001600160a01b0316818883037f7e71a5f6c04b0eb16949316623b9dda7bd103692f7d89678e2260afa1378a2d561277b6123d6565b6040516001600160a01b03909116815260200160405180910390a4612807565b80871115612807576127b56101c08a016101a08b01614964565b6001600160a01b0316818289037f6276f0169fb8de712b2a6c02789f6115136c589ed491ac06f9e20f41877e41fe6127eb6123d6565b6040516001600160a01b03909116815260200160405180910390a45b80600a600061281e6101c08d016101a08e01614964565b6001600160a01b03168152602081019190915260400160002055506128e1565b8386146128e1576128576101c089016101a08a01614964565b6001600160a01b03168461286b8189615964565b7f6276f0169fb8de712b2a6c02789f6115136c589ed491ac06f9e20f41877e41fe6128946123d6565b6040516001600160a01b03909116815260200160405180910390a483600a60006128c66101c08c016101a08d01614964565b6001600160a01b031681526020810191909152604001600020555b5050505050505050565b60006128f56123d6565b9050836001600160a01b0316816001600160a01b0316141580156129c45750604051631a45b42760e11b81526001600160a01b0382811660048301528581166024830152604482018590526064820184905260016084830181905260a48301527f0000000000000000000000004886c30c81a17a3a1084fd1812008fa0f71a20b9169063348b684e9060c401602060405180830381865afa15801561299e573d6000803e3d6000fd5b505050506040513d601f19601f820116820180604052508101906129c29190614f1c565b155b15610f7257604051631326f75560e11b81526001600160a01b038086166004830152821660248201526044810184905260648101839052608401610f07565b806001600160a01b03167fe7784d93cfbfa4408e19577e6cc0436f4dbb51214b70e100905dfce9def88c16612a366123d6565b6040516001600160a01b03909116815260200160405180910390a260405163036129cb60e61b81526001600160a01b0382811660048301527f0000000000000000000000001704cfc2f93bf49e54a9939e14a471749b12eee8169063d84a72c0906024015b600060405180830381600087803b158015612ab557600080fd5b505af1158015611c69573d6000803e3d6000fd5b60405163c44a8e6d60e01b8152306004820152602481018390526000604482018190529081906001600160a01b037f0000000000000000000000001704cfc2f93bf49e54a9939e14a471749b12eee8169063c44a8e6d90606401600060405180830381865afa158015612b40573d6000803e3d6000fd5b505050506040513d6000823e601f3d908101601f19168201604052612b6891908101906159a3565b9050612b75858585613a50565b91506001600160a01b03821615612c3f5780610160015115612bee576000612b9e600754612db2565b90506001600160a01b03861615801590612bce5750612bce612bc582610100015160f21c90565b60019081161490565b15612bec576040516330225eab60e11b815260040160405180910390fd5b505b6000848152600b60205260409020546001600160a01b0316612c3f576000848152600b60205260409020805473ffffffffffffffffffffffffffffffffffffffff19166001600160a01b0384161790555b80516040516330b157e560e21b815263ffffffff90911660048201526001600160a01b03838116602483015286811660448301527f0000000000000000000000001704cfc2f93bf49e54a9939e14a471749b12eee8169063c2c55f9490606401600060405180830381600087803b158015612cb957600080fd5b505af1158015612ccd573d6000803e3d6000fd5b50505050509392505050565b817f8ebf585439d8c6edc7dfa9c0e01fdbb1d4e68d9969dc5341ebd8bca5cd9a7bd482612d046123d6565b604080519283526001600160a01b0390911660208301520160405180910390a260405163284d148160e11b815260048101839052602481018290527f0000000000000000000000001704cfc2f93bf49e54a9939e14a471749b12eee86001600160a01b03169063509a290290604401600060405180830381600087803b158015612d8d57600080fd5b505af1158015611465573d6000803e3d6000fd5b612dab8282613b56565b5050600755565b6040805161012081018252600080825260208201819052818301819052606082018190526080820181905260a0820181905260c0820181905260e0820181905261010082015290516321d1336160e11b8152600481018390526001600160a01b037f000000000000000000000000c052725ff9888ce3148aa8bfb5063f1a5028946d16906343a266c29060240161012060405180830381865afa158015612e5d573d6000803e3d6000fd5b505050506040513d601f19601f82011682018060405250810190610ab29190615b36565b6001600160a01b038216612eab57604051633250574960e11b815260006004820152602401610f07565b6000612eb983836000612ac9565b90506001600160a01b03811615610fb2576040516339e3563760e11b815260006004820152602401610f07565b604080516060810182526000546001600160a01b0381168252600160a01b81046001600160581b031660208301819052600160f81b90910460ff1692820192909252906119c49015612fce5760208201516040516331a9108f60e11b81526001600160581b0390911660048201527f0000000000000000000000009b52a59f108e36ce0a8eba595eca22dbadbe655f6001600160a01b031690636352211e90602401602060405180830381865afa158015612fa5573d6000803e3d6000fd5b505050506040513d601f19601f82011682018060405250810190612fc991906152dc565b612fd1565b81515b82602001516001600160581b0316836040015160ff166128eb565b6001600160581b0381161580159061300c57506001600160a01b03821615155b1561302a5760405163f854950960e01b815260040160405180910390fd5b60408051606081018252600080546001600160a01b0381168352600160a01b81046001600160581b031660208401819052600160f81b90910460ff16938301939093529091156131105760208201516040516331a9108f60e11b81526001600160581b0390911660048201527f0000000000000000000000009b52a59f108e36ce0a8eba595eca22dbadbe655f6001600160a01b031690636352211e90602401602060405180830381865afa1580156130e7573d6000803e3d6000fd5b505050506040513d601f19601f8201168201806040525081019061310b91906152dc565b613113565b81515b604080516060810182526001600160a01b0387168082526001600160581b0387166020830181905260009290930182905281546001600160f81b03191617600160a01b909202919091176001600160f81b031690559050610f72818585613b6f565b6001600160a01b0382166131a757604051630b61174360e31b81526001600160a01b0383166004820152602401610f07565b6001600160a01b03838116600081815260066020908152604080832094871680845294825291829020805460ff191686151590811790915591519182527f17307eab39ab6107e8899845ad3d59bd9653f200f220920489ca2b5937696c3191015b60405180910390a3505050565b6001600160a01b0383163b15610f7257826001600160a01b031663150b7a0261323c6123d6565b8685856040518563ffffffff1660e01b815260040161325e9493929190615be7565b6020604051808303816000875af1925050508015613299575060408051601f3d908101601f1916820190925261329691810190615c23565b60015b613302573d8080156132c7576040519150601f19603f3d011682016040523d82523d6000602084013e6132cc565b606091505b5080516000036132fa57604051633250574960e11b81526001600160a01b0385166004820152602401610f07565b805181602001fd5b6001600160e01b03198116630a85bd0160e11b14611c6957604051633250574960e11b81526001600160a01b0385166004820152602401610f07565b600080546001600160f81b0316600160f81b60ff841690810291909117909155604080519182523360208301527f3a02c735461e3ddd7b1f6ccb1620101cec0d5c7ef32a2eb50b1b02a4191d8207910160405180910390a150565b6000606060258351116133be5750506040805160208101909152600080825290613538565b6000836133cd60046020615c40565b815181106133dd576133dd6152f9565b0160209081015160f81c91505b6000856133f8600484615c40565b81518110613408576134086152f9565b01602001516001600160f81b0319161480159061342e575061342b602083615c53565b81105b1561353557600085613441600484615c40565b81518110613451576134516152f9565b016020908101518784019091015160f89190911c91506001600160e01b03198089169082160361352b576000613488602086615c53565b613493600986615c40565b1015806134c85750876134a7600986615c40565b815181106134b7576134b76152f9565b01602001516001600160f81b031916155b613501576020886134da600987615c40565b815181106134ea576134ea6152f9565b01602001516134fc919060f81c615c53565b613504565b87515b9050600161351d89613517602087615c53565b84613c55565b965096505050505050613538565b50506005016133ea565b50505b9250929050565b600061354e6000836000612ac9565b90506001600160a01b038116610b8557604051637e27328960e01b815260048101839052602401610f07565b6040516386bc2be360e01b81526001600160a01b037f0000000000000000000000001704cfc2f93bf49e54a9939e14a471749b12eee816906386bc2be390612a9b908490600401614b42565b604051609160f51b602082015260228101829052606090600090604201604051602081830303815290604052905060006135ff82613c9b565b90508481604051602001613614929190615c6a565b6040516020818303038152906040529250505092915050565b60006001600160e01b031982166380ac58cd60e01b148061365e57506001600160e01b03198216635b5e139f60e01b145b80610ab257506301ffc9a760e01b6001600160e01b0319831614610ab2565b6000366014336001600160a01b037f000000000000000000000000b2b5841dbef766d4b521221732f9b618fcf34a87161480156136ba5750808210155b156136ea576000366136cc8385615964565b6136d7928290615c99565b6136e091615cc3565b60601c9250505090565b339250505090565b808061370657506001600160a01b03821615155b156137e75760006137168461239d565b90506001600160a01b038316158015906137425750826001600160a01b0316816001600160a01b031614155b801561377457506001600160a01b0380821660009081526006602090815260408083209387168352929052205460ff16155b1561379d5760405163a9fbf51f60e01b81526001600160a01b0384166004820152602401610f07565b81156137e55783856001600160a01b0316826001600160a01b03167f8c5be1e5ebec7d5bd14f71427d1e84f3dd0314c0f7b2291e5b200ac8c7c3b92560405160405180910390a45b505b50506000908152600560205260409020805473ffffffffffffffffffffffffffffffffffffffff19166001600160a01b0392909216919091179055565b600080806000198587098587029250828110838203039150508060000361385e5783828161385457613854615cf8565b0492505050611259565b83811061388f57604051630c740aef60e31b8152600481018790526024810186905260448101859052606401610f07565b600084868809600260036001881981018916988990049182028318808302840302808302840302808302840302808302840302808302840302918202909203026000889003889004909101858311909403939093029303949094049190911702949350505050565b600060607f0000000000000000000000001704cfc2f93bf49e54a9939e14a471749b12eee86001600160a01b031663eaa19ab3868660006040518463ffffffff1660e01b815260040161394c93929190615d0e565b6000604051808303816000875af115801561396b573d6000803e3d6000fd5b505050506040513d6000823e601f3d908101601f191682016040526139939190810190615390565b9250905060005b8151811015613a475760008282815181106139b7576139b76152f9565b60200260200101519050846001600160a01b03168683815181106139dd576139dd6152f9565b602002602001015161ffff16827f598baf7bf150ca2f42be9e9f8f55e81d45f5715c3ff22bf46d697fabec7f31d68a613a146123d6565b604080519283526001600160a01b0390911660208301520160405180910390a4613a3e8582612e81565b5060010161399a565b50509392505050565b6000828152600360205260408120546001600160a01b0390811690831615613a7d57613a7d818486613e33565b6001600160a01b03811615613abb57613a9a6000856000806136f2565b6001600160a01b038116600090815260046020526040902080546000190190555b6001600160a01b03851615613aea576001600160a01b0385166000908152600460205260409020805460010190555b600084815260036020526040808220805473ffffffffffffffffffffffffffffffffffffffff19166001600160a01b0389811691821790925591518793918516917fddf252ad1be2c89b69c2b068fc378daa952ba7f163c4a11628f55a4df523b3ef91a4949350505050565b6001613b62838261506a565b506002610fb2828261506a565b6001600160581b03811615613c14576040516331a9108f60e11b81526001600160581b03821660048201527f0000000000000000000000009b52a59f108e36ce0a8eba595eca22dbadbe655f6001600160a01b031690636352211e90602401602060405180830381865afa158015613beb573d6000803e3d6000fd5b505050506040513d601f19601f82011682018060405250810190613c0f91906152dc565b613c16565b815b6040513381526001600160a01b03918216918516907fc8894f26f396ce8c004245c8b7cd1b92103a6e4302fcbab883987149ac01b7ec90602001613208565b60608282036040519150602081830101604052808252508260208501016020820160005b84811015613c91578281015182820152602001613c79565b5050509392505050565b60608151600003613cba57505060408051600081526020810190915290565b60408051602e8082526105e08201909252600091602082016105c080368337019050509050600081600081518110613cf457613cf46152f9565b60ff90921660209283029190910190910152825160019060005b81811015613e0f576000868281518110613d2a57613d2a6152f9565b016020015160f81c905060005b8460ff16811015613db4576008868281518110613d5657613d566152f9565b602002602001015160ff16901b82613d6e9190615c40565b9150613d7b603a83615d6d565b868281518110613d8d57613d8d6152f9565b60ff90921660209283029190910190910152613daa603a83615d81565b9150600101613d37565b505b8015613e0657613dc7603a82615d6d565b858560ff1681518110613ddc57613ddc6152f9565b60ff90921660209283029190910190910152600190930192613dff603a82615d81565b9050613db6565b50600101613d0e565b50613e2a613e25613e208585613e97565b613f37565b613fda565b95945050505050565b613e3e8383836140b4565b610fb2576001600160a01b038316613e6c57604051637e27328960e01b815260048101829052602401610f07565b60405163177e802f60e01b81526001600160a01b038316600482015260248101829052604401610f07565b606060008260ff1667ffffffffffffffff811115613eb757613eb761440b565b604051908082528060200260200182016040528015613ee0578160200160208202803683370190505b50905060005b8360ff1681101561167d57848181518110613f0357613f036152f9565b6020026020010151828281518110613f1d57613f1d6152f9565b60ff90921660209283029190910190910152600101613ee6565b805160609060008167ffffffffffffffff811115613f5757613f5761440b565b604051908082528060200260200182016040528015613f80578160200160208202803683370190505b50905060005b8281101561167d57848160018751030381518110613fa657613fa66152f9565b6020026020010151828281518110613fc057613fc06152f9565b60ff90921660209283029190910190910152600101613f86565b805160609060008167ffffffffffffffff811115613ffa57613ffa61440b565b6040519080825280601f01601f191660200182016040528015614024576020820181803683370190505b50905060005b8281101561167d576040518060600160405280603a8152602001615d96603a913985828151811061405d5761405d6152f9565b602002602001015160ff1681518110614078576140786152f9565b602001015160f81c60f81b828281518110614095576140956152f9565b60200101906001600160f81b031916908160001a90535060010161402a565b60006001600160a01b038316158015906141325750826001600160a01b0316846001600160a01b0316148061410e57506001600160a01b0380851660009081526006602090815260408083209387168352929052205460ff165b8061413257506000828152600560205260409020546001600160a01b038481169116145b949350505050565b6001600160e01b0319811681146119c457600080fd5b60006020828403121561416257600080fd5b81356112598161413a565b60005b83811015614188578181015183820152602001614170565b50506000910152565b600081518084526141a981602086016020860161416d565b601f01601f19169290920160200192915050565b6020815260006112596020830184614191565b6000602082840312156141e257600080fd5b5035919050565b6001600160a01b03811681146119c457600080fd5b8035614209816141e9565b919050565b6000806040838503121561422157600080fd5b823561422c816141e9565b946020939093013593505050565b6000610200828403121561424d57600080fd5b50919050565b60006020828403121561426557600080fd5b813567ffffffffffffffff81111561427c57600080fd5b6141328482850161423a565b60008083601f84011261429a57600080fd5b50813567ffffffffffffffff8111156142b257600080fd5b60208301915083602082850101111561353857600080fd5b600080600080600080600060a0888a0312156142e557600080fd5b873567ffffffffffffffff808211156142fd57600080fd5b6143098b838c01614288565b909950975060208a013591508082111561432257600080fd5b5061432f8a828b01614288565b9096509450506040880135614343816141e9565b969995985093969295946060840135945060809093013592915050565b60006101a0828403121561424d57600080fd5b60006020828403121561438557600080fd5b813567ffffffffffffffff81111561439c57600080fd5b61413284828501614360565b6000806000606084860312156143bd57600080fd5b83356143c8816141e9565b925060208401356143d8816141e9565b929592945050506040919091013590565b600080604083850312156143fc57600080fd5b50508035926020909101359150565b634e487b7160e01b600052604160045260246000fd5b6040516080810167ffffffffffffffff811182821017156144445761444461440b565b60405290565b6040516101c0810167ffffffffffffffff811182821017156144445761444461440b565b6040516101e0810167ffffffffffffffff811182821017156144445761444461440b565b604051610120810167ffffffffffffffff811182821017156144445761444461440b565b604051601f8201601f1916810167ffffffffffffffff811182821017156144df576144df61440b565b604052919050565b600067ffffffffffffffff8211156145015761450161440b565b50601f01601f191660200190565b600061452261451d846144e7565b6144b6565b905082815283838301111561453657600080fd5b828260208301376000602084830101529392505050565b600082601f83011261455e57600080fd5b6112598383356020850161450f565b600067ffffffffffffffff8211156145875761458761440b565b5060051b60200190565b6cffffffffffffffffffffffffff811681146119c457600080fd5b803561420981614591565b63ffffffff811681146119c457600080fd5b8035614209816145b7565b61ffff811681146119c457600080fd5b8035614209816145d4565b62ffffff811681146119c457600080fd5b8035614209816145ef565b60ff811681146119c457600080fd5b80356142098161460b565b80151581146119c457600080fd5b803561420981614625565b6000608080838503121561465157600080fd5b614659614421565b9150823567ffffffffffffffff81111561467257600080fd5b8301601f8101851361468357600080fd5b8035602061469361451d8361456d565b8281526101c092830284018201928282019190898511156146b357600080fd5b948301945b848610156147ca5780868b0312156146d05760008081fd5b6146d861444a565b6146e1876145ac565b81526146ee8588016145c9565b8582015260406146ff8189016145c9565b9082015260606147108882016145e4565b9082015261471f8789016141fe565b8189015260a0878101359082015260c061473a818901614600565b9082015260e061474b88820161461a565b9082015261010061475d888201614633565b9082015261012061476f888201614633565b90820152610140614781888201614633565b90820152610160614793888201614633565b908201526101806147a5888201614633565b908201526101a06147b7888201614633565b90820152835294850194918301916146b8565b508652506147d98682016145c9565b81860152505050506147ed6040830161461a565b60408201526147fe606083016141fe565b606082015292915050565b60006080828403121561481b57600080fd5b614823614421565b9050813561483081614625565b8152602082013561484081614625565b6020820152604082013561485381614625565b604082015260608201356147fe81614625565b600080600080600080600080610160898b03121561488357600080fd5b88359750602089013567ffffffffffffffff808211156148a257600080fd5b6148ae8c838d0161454d565b985060408b01359150808211156148c457600080fd5b6148d08c838d0161454d565b975060608b01359150808211156148e657600080fd5b6148f28c838d0161454d565b965061490060808c016141fe565b955060a08b013591508082111561491657600080fd5b6149228c838d0161454d565b945060c08b013591508082111561493857600080fd5b506149458b828c0161463e565b9250506149558a60e08b01614809565b90509295985092959890939650565b60006020828403121561497657600080fd5b8135611259816141e9565b6000806040838503121561499457600080fd5b8235915060208301356149a6816141e9565b809150509250929050565b600080604083850312156149c457600080fd5b823567ffffffffffffffff808211156149dc57600080fd5b818501915085601f8301126149f057600080fd5b81356020614a0061451d8361456d565b82815260059290921b84018101918181019089841115614a1f57600080fd5b948201945b83861015614a3d57853582529482019490820190614a24565b96505086013592505080821115614a5357600080fd5b50614a6085828601614360565b9150509250929050565b60008083601f840112614a7c57600080fd5b50813567ffffffffffffffff811115614a9457600080fd5b6020830191508360208260051b850101111561353857600080fd5b600080600060408486031215614ac457600080fd5b833567ffffffffffffffff811115614adb57600080fd5b614ae786828701614a6a565b9094509250506020840135614afb816141e9565b809150509250925092565b60008151808452602080850194506020840160005b83811015614b3757815187529582019590820190600101614b1b565b509495945050505050565b6020815260006112596020830184614b06565b600060208284031215614b6757600080fd5b813567ffffffffffffffff811115614b7e57600080fd5b8201610180818503121561125957600080fd5b6000604080830185845260206040818601528186518084526060935060608701915060608160051b88010183890160005b83811015614c1257898303605f19018552815180516001600160a01b031684528681015187850152880151888401889052614bff88850182614191565b9587019593505090850190600101614bc2565b50909a9950505050505050505050565b60008083601f840112614c3457600080fd5b50813567ffffffffffffffff811115614c4c57600080fd5b6020830191508360208260061b850101111561353857600080fd5b60008060208385031215614c7a57600080fd5b823567ffffffffffffffff811115614c9157600080fd5b614c9d85828601614c22565b90969095509350505050565b60008060408385031215614cbc57600080fd5b8235614cc7816141e9565b915060208301356149a681614625565b60008060008060808587031215614ced57600080fd5b8435614cf8816141e9565b93506020850135614d08816141e9565b925060408501359150606085013567ffffffffffffffff811115614d2b57600080fd5b8501601f81018713614d3c57600080fd5b614d4b8782356020840161450f565b91505092959194509250565b600060208284031215614d6957600080fd5b81356112598161460b565b60008060008060408587031215614d8a57600080fd5b843567ffffffffffffffff80821115614da257600080fd5b818701915087601f830112614db657600080fd5b813581811115614dc557600080fd5b8860206101c083028501011115614ddb57600080fd5b602092830196509450908601359080821115614df657600080fd5b50614e0387828801614a6a565b95989497509550505050565b60008060408385031215614e2257600080fd5b8235614e2d816141e9565b915060208301356149a6816141e9565b60006080820186835260208681850152604086604086015260606080606087015283875180865260a08801915060a08160051b890101955084890160005b82811015614ecb57898803609f19018452815180516001600160a01b0316895287810151888a0152860151868901869052614eb8868a0182614191565b9850509286019290860190600101614e7b565b50959c9b505050505050505050505050565b600181811c90821680614ef157607f821691505b60208210810361424d57634e487b7160e01b600052602260045260246000fd5b805161420981614625565b600060208284031215614f2e57600080fd5b815161125981614625565b601f821115610fb2576000816000526020600020601f850160051c81016020861015614f625750805b601f850160051c820191505b8181101561146557828155600101614f6e565b67ffffffffffffffff831115614f9957614f9961440b565b614fad83614fa78354614edd565b83614f39565b6000601f841160018114614fe15760008515614fc95750838201355b600019600387901b1c1916600186901b178355611c69565b600083815260209020601f19861690835b828110156150125786850135825560209485019460019092019101614ff2565b508682101561502f5760001960f88860031b161c19848701351681555b505060018560011b0183555050505050565b8183823760009101908152919050565b60006020828403121561506357600080fd5b5051919050565b815167ffffffffffffffff8111156150845761508461440b565b615098816150928454614edd565b84614f39565b602080601f8311600181146150cd57600084156150b55750858301515b600019600386901b1c1916600185901b178555611465565b600085815260208120601f198616915b828110156150fc578886015182559484019460019091019084016150dd565b508582101561511a5787850151600019600388901b60f8161c191681555b5050505050600190811b01905550565b602080825282518282018190526000919060409081850190868401855b8281101561522557815180516cffffffffffffffffffffffffff1685528681015163ffffffff9081168887015286820151168686015260608082015161ffff16908601526080808201516001600160a01b03169086015260a0808201519086015260c08082015162ffffff169086015260e08082015160ff169086015261010080820151151590860152610120808201511515908601526101408082015115159086015261016080820151151590860152610180808201511515908601526101a0908101511515908501526101c09093019290850190600101615147565b5091979650505050505050565b600082601f83011261524357600080fd5b8151602061525361451d8361456d565b8083825260208201915060208460051b87010193508684111561527557600080fd5b602086015b84811015615291578051835291830191830161527a565b509695505050505050565b6000602082840312156152ae57600080fd5b815167ffffffffffffffff8111156152c557600080fd5b61413284828501615232565b8051614209816141e9565b6000602082840312156152ee57600080fd5b8151611259816141e9565b634e487b7160e01b600052603260045260246000fd5b6001600160a01b03831681526040602082015260006141326040830184614b06565b84815260606020808301829052908201849052600090859060808401835b87811015615378578335615362816145d4565b61ffff168252928201929082019060010161534f565b50809350505050821515604083015295945050505050565b600080604083850312156153a357600080fd5b825167ffffffffffffffff8111156153ba57600080fd5b6153c685828601615232565b925050602083015190509250929050565b6000602082840312156153e957600080fd5b8135611259816145d4565b60006040828403121561540657600080fd5b6040516040810181811067ffffffffffffffff821117156154295761542961440b565b604052905080823561543a816145b7565b8152602083013561544a816145d4565b6020919091015292915050565b60006040828403121561546957600080fd5b61125983836153f4565b6000808335601e1984360301811261548a57600080fd5b83018035915067ffffffffffffffff8211156154a557600080fd5b60200191503681900382131561353857600080fd5b600082601f8301126154cb57600080fd5b81516154d961451d826144e7565b8181528460208386010111156154ee57600080fd5b61413282602083016020870161416d565b60006020828403121561551157600080fd5b815167ffffffffffffffff81111561552857600080fd5b614132848285016154ba565b6020815281602082015260007f07ffffffffffffffffffffffffffffffffffffffffffffffffffffffffffffff83111561556d57600080fd5b8260051b80856040850137919091016040019392505050565b6155a682615593836145ac565b6cffffffffffffffffffffffffff169052565b6155b2602082016145c9565b63ffffffff1660208301526155c9604082016145c9565b63ffffffff1660408301526155e0606082016145e4565b61ffff1660608301526155f5608082016141fe565b6001600160a01b0316608083015260a0818101359083015261561960c08201614600565b62ffffff1660c083015261562f60e0820161461a565b60ff1660e0830152610100615645828201614633565b151590830152610120615659828201614633565b15159083015261014061566d828201614633565b151590830152610160615681828201614633565b151590830152610180615695828201614633565b1515908301526101a06156a9828201614633565b80151584830152610f72565b6020808252810182905260008360408301825b858110156156ee576156da8284615586565b6101c09283019291909101906001016156c8565b5095945050505050565b6101e081016157078285615586565b6001600160a01b0383166101c08301529392505050565b60006020828403121561573057600080fd5b8135611259816145b7565b634e487b7160e01b600052601160045260246000fd5b600181815b8085111561578c5781600019048211156157725761577261573b565b8085161561577f57918102915b93841c9390800290615756565b509250929050565b6000826157a357506001610ab2565b816157b057506000610ab2565b81600181146157c657600281146157d0576157ec565b6001915050610ab2565b60ff8411156157e1576157e161573b565b50506001821b610ab2565b5060208310610133831016604e8410600b841016171561580f575081810a610ab2565b6158198383615751565b806000190482111561582d5761582d61573b565b029392505050565b60006112598383615794565b60006080828403121561585357600080fd5b61585b614421565b825161586681614625565b8152602083015161587681614625565b6020820152604083015161588981614625565b6040820152606083015161589c81614625565b60608201529392505050565b8051614209816145d4565b600080604083850312156158c657600080fd5b82516158d181614625565b8092505060208084015167ffffffffffffffff8111156158f057600080fd5b8401601f8101861361590157600080fd5b805161590f61451d8261456d565b81815260059190911b8201830190838101908883111561592e57600080fd5b928401925b82841015615955578351615946816145d4565b82529284019290840190615933565b80955050505050509250929050565b81810381811115610ab257610ab261573b565b8051614209816145b7565b805161420981614591565b8051614209816145ef565b80516142098161460b565b6000602082840312156159b557600080fd5b815167ffffffffffffffff808211156159cd57600080fd5b908301906101e082860312156159e257600080fd5b6159ea61446e565b6159f383615977565b8152615a0160208401615982565b6020820152615a1260408401615977565b6040820152615a2360608401615977565b6060820152615a3460808401615982565b6080820152615a4560a084016158a8565b60a0820152615a5660c084016152d1565b60c082015260e083015160e0820152610100615a7381850161598d565b90820152610120615a85848201615998565b90820152610140615a97848201614f11565b90820152610160615aa9848201614f11565b90820152610180615abb848201614f11565b908201526101a0615acd848201614f11565b908201526101c08381015183811115615ae557600080fd5b615af1888287016154ba565b918301919091525095945050505050565b805165ffffffffffff8116811461420957600080fd5b80516dffffffffffffffffffffffffffff8116811461420957600080fd5b60006101208284031215615b4957600080fd5b615b51614492565b615b5a83615b02565b8152615b6860208401615b02565b6020820152615b7960408401615b02565b6040820152615b8a60608401615b02565b6060820152615b9b60808401615977565b6080820152615bac60a08401615b18565b60a0820152615bbd60c08401615977565b60c0820152615bce60e084016152d1565b60e0820152610100928301519281019290925250919050565b60006001600160a01b03808716835280861660208401525083604083015260806060830152615c196080830184614191565b9695505050505050565b600060208284031215615c3557600080fd5b81516112598161413a565b80820180821115610ab257610ab261573b565b8082028115828204841417610ab257610ab261573b565b60008351615c7c81846020880161416d565b835190830190615c9081836020880161416d565b01949350505050565b60008085851115615ca957600080fd5b83861115615cb657600080fd5b5050820193919092039150565b6bffffffffffffffffffffffff198135818116916014851015615cf05780818660140360031b1b83161692505b505092915050565b634e487b7160e01b600052601260045260246000fd5b60006060820185835260206060602085015281865180845260808601915060208801935060005b81811015615d5557845161ffff1683529383019391830191600101615d35565b50508093505050508215156040830152949350505050565b600082615d7c57615d7c615cf8565b500690565b600082615d9057615d90615cf8565b50049056fe31323334353637383941424344454647484a4b4c4d4e505152535455565758595a6162636465666768696a6b6d6e6f707172737475767778797aa2646970667358221220a3ae00e238208139e79619d1574dcc2f4583e8dae0539edfb71aa61e1e03780464736f6c63430008170033",
	"devdoc": {
		"kind": "dev",
		"methods": {
			"adjustTiers((uint104,uint32,uint32,uint16,address,bytes32,uint24,uint8,bool,bool,bool,bool,bool,bool)[],uint256[])": {
				"details": "Only the contract's owner or an operator with the `ADJUST_TIERS` permission from the owner can adjust the tiers.Any added tiers must adhere to this hook's `JB721TiersHookFlags`.",
				"params": {
					"tierIdsToRemove": "The tiers to remove, as an array of tier IDs.",
					"tiersToAdd": "The tiers to add, as an array of `JB721TierConfig` structs`."
				}
			},
			"afterCashOutRecordedWith((address,uint256,uint256,uint256,(address,uint8,uint32,uint256),(address,uint8,uint32,uint256),uint256,address,bytes,bytes))": {
				"details": "Reverts if the calling contract is not one of the project's terminals.",
				"params": {
					"context": "The cash out context passed in by the terminal."
				}
			},
			"afterPayRecordedWith((address,uint256,uint256,(address,uint8,uint32,uint256),(address,uint8,uint32,uint256),uint256,uint256,address,bytes,bytes))": {
				"details": "Reverts if the calling contract is not one of the project's terminals.",
				"params": {
					"context": "The payment context passed in by the terminal."
				}
			},
			"approve(address,uint256)": {
				"details": "See {IERC721-approve}."
			},
			"balanceOf(address)": {
				"params": {
					"owner": "The address to check the balance of."
				},
				"returns": {
					"balance": "The number of NFTs the address owns across this hook's tiers."
				}
			},
			"beforeCashOutRecordedWith((address,address,uint256,uint256,uint256,uint256,(address,uint8,uint32,uint256),bool,uint256,bytes))": {
				"details": "Sets this contract as the cash out hook. Part of `IJBRulesetDataHook`.This function is used for NFT cash outs, and will only be called if the project's ruleset has `useDataHookForCashOut` set to `true`.",
				"params": {
					"context": "The cash out context passed to this contract by the `cashOutTokensOf(...)` function."
				},
				"returns": {
					"cashOutCount": "The amount of tokens that should be considered cashed out.",
					"cashOutTaxRate": "The cash out tax rate influencing the reclaim amount.",
					"hookSpecifications": "The amount and data to send to cash out hooks (this contract) instead of returning to the beneficiary.",
					"totalSupply": "The total amount of tokens that are considered to be existing."
				}
			},
			"beforePayRecordedWith((address,address,(address,uint8,uint32,uint256),uint256,uint256,address,uint256,uint256,bytes))": {
				"details": "Sets this contract as the pay hook. Part of `IJBRulesetDataHook`.",
				"params": {
					"context": "The payment context passed to this contract by the `pay(...)` function."
				},
				"returns": {
					"hookSpecifications": "The amount and data to send to pay hooks (this contract) instead of adding to the terminal's balance.",
					"weight": "The new `weight` to use, overriding the ruleset's `weight`."
				}
			},
			"cashOutWeightOf(uint256[],(address,address,uint256,uint256,uint256,uint256,(address,uint8,uint32,uint256),bool,uint256,bytes))": {
				"details": "An NFT's cash out weight is its price.To get their relative cash out weight, divide the result by the `totalCashOutWeight(...)`.",
				"params": {
					"tokenIds": "The token IDs of the NFTs to get the cumulative cash out weight of."
				},
				"returns": {
					"_0": "weight The cash out weight of the tokenIds."
				}
			},
			"constructor": {
				"params": {
					"directory": "A directory of terminals and controllers for projects.",
					"permissions": "A contract storing permissions.",
					"rulesets": "A contract storing and managing project rulesets.",
					"store": "The contract which stores the NFT's data.",
					"trustedForwarder": "The trusted forwarder for the ERC2771Context."
				}
			},
			"firstOwnerOf(uint256)": {
				"details": "This is generally the address which paid for the NFT.",
				"params": {
					"tokenId": "The token ID of the NFT to get the first owner of."
				},
				"returns": {
					"_0": "The address of the NFT's first owner."
				}
			},
			"getApproved(uint256)": {
				"details": "See {IERC721-getApproved}."
			},
			"initialize(uint256,string,string,string,address,string,((uint104,uint32,uint32,uint16,address,bytes32,uint24,uint8,bool,bool,bool,bool,bool,bool)[],uint32,uint8,address),(bool,bool,bool,bool))": {
				"params": {
					"baseUri": "The URI to use as a base for full NFT `tokenUri`s.",
					"contractUri": "A URI where this contract's metadata can be found.",
					"flags": "A set of additional options which dictate how the hook behaves.",
					"name": "The name of the NFT collection.",
					"projectId": "The ID of the project this this hook is associated with.",
					"symbol": "The symbol representing the NFT collection.",
					"tiersConfig": "The NFT tiers and pricing context to initialize the hook with. The tiers must be sorted by price (from least to greatest).",
					"tokenUriResolver": "An optional contract responsible for resolving the token URI for each NFT's token ID."
				}
			},
			"isApprovedForAll(address,address)": {
				"details": "See {IERC721-isApprovedForAll}."
			},
			"isTrustedForwarder(address)": {
				"details": "Indicates whether any particular address is the trusted forwarder."
			},
			"mintFor(uint16[],address)": {
				"params": {
					"beneficiary": "The address to mint to.",
					"tierIds": "The IDs of the tiers to mint from."
				},
				"returns": {
					"tokenIds": "The IDs of the newly minted tokens."
				}
			},
			"mintPendingReservesFor((uint32,uint16)[])": {
				"details": "\"Pending\" means that the NFTs have been reserved, but have not been minted yet.",
				"params": {
					"reserveMintConfigs": "Contains information about how many reserved tokens to mint for each tier."
				}
			},
			"mintPendingReservesFor(uint256,uint256)": {
				"details": "\"Pending\" means that the NFTs have been reserved, but have not been minted yet.",
				"params": {
					"count": "The number of reserved NFTs to mint.",
					"tierId": "The ID of the tier to mint reserved NFTs from."
				}
			},
			"name()": {
				"details": "See {IERC721Metadata-name}."
			},
			"owner()": {
				"returns": {
					"_0": "owner The owner's address."
				}
			},
			"ownerOf(uint256)": {
				"details": "See {IERC721-ownerOf}."
			},
			"pricingContext()": {
				"details": "If the `prices` contract is the zero address, this contract only accepts payments in the `currency` token.",
				"returns": {
					"currency": "The currency used for tier prices.",
					"decimals": "The amount of decimals being used in tier prices.",
					"prices": "The prices contract used to resolve the value of payments in currencies other than `currency`."
				}
			},
			"safeTransferFrom(address,address,uint256)": {
				"details": "See {IERC721-safeTransferFrom}."
			},
			"safeTransferFrom(address,address,uint256,bytes)": {
				"details": "See {IERC721-safeTransferFrom}."
			},
			"setApprovalForAll(address,bool)": {
				"details": "See {IERC721-setApprovalForAll}."
			},
			"setDiscountPercentOf(uint256,uint256)": {
				"details": "Only the contract's owner or an operator with the `SET_721_DISCOUNT_PERCENT` permission from the owner can adjust the tiers.",
				"params": {
					"discountPercent": "The discount percent to set.",
					"tierId": "The ID of the tier to set the discount of."
				}
			},
			"setDiscountPercentsOf((uint32,uint16)[])": {
				"params": {
					"configs": "The configs to set the discount percent for."
				}
			},
			"setMetadata(string,string,address,uint256,bytes32)": {
				"details": "Only this contract's owner can set the metadata.",
				"params": {
					"baseUri": "The new base URI.",
					"contractUri": "The new contract URI.",
					"encodedIPFSTUriTierId": "The ID of the tier to set the encoded IPFS URI of.",
					"encodedIPFSUri": "The encoded IPFS URI to set.",
					"tokenUriResolver": "The new URI resolver."
				}
			},
			"setPermissionId(uint8)": {
				"params": {
					"permissionId": "The ID of the permission to use for `onlyOwner`."
				}
			},
			"supportsInterface(bytes4)": {
				"details": "See {IERC165-supportsInterface}.",
				"params": {
					"interfaceId": "The ID of the interface to check for adherence to."
				}
			},
			"symbol()": {
				"details": "See {IERC721Metadata-symbol}."
			},
			"tokenURI(uint256)": {
				"details": "Defers to the `tokenUriResolver` if it is set. Otherwise, use the `tokenUri` corresponding with the NFT's tier.",
				"params": {
					"tokenId": "The token ID of the NFT to get the metadata URI of."
				},
				"returns": {
					"_0": "The token URI from the `tokenUriResolver` if it is set. If it isn't set, the token URI for the NFT's tier."
				}
			},
			"totalCashOutWeight((address,address,uint256,uint256,uint256,uint256,(address,uint8,uint32,uint256),bool,uint256,bytes))": {
				"details": "An NFT's cash out weight is its price.",
				"returns": {
					"_0": "weight The total cash out weight."
				}
			},
			"transferFrom(address,address,uint256)": {
				"details": "See {IERC721-transferFrom}."
			},
			"transferOwnership(address)": {
				"params": {
					"newOwner": "The address that should receive ownership of this contract."
				}
			},
			"transferOwnershipToProject(uint256)": {
				"details": "The `projectId` must fit within a `uint88`.",
				"params": {
					"projectId": "The ID of the project that should receive ownership of this contract."
				}
			},
			"trustedForwarder()": {
				"details": "Returns the address of the trusted forwarder."
			}
		},
		"version": 1
	},
	"userdoc": {
		"kind": "user",
		"methods": {
			"DIRECTORY()": {
				"notice": "The directory of terminals and controllers for projects."
			},
			"METADATA_ID_TARGET()": {
				"notice": "The ID used when parsing metadata."
			},
			"PERMISSIONS()": {
				"notice": "A contract storing permissions."
			},
			"PROJECTS()": {
				"notice": "Mints ERC-721s that represent project ownership and transfers."
			},
			"PROJECT_ID()": {
				"notice": "The ID of the project that this contract is associated with."
			},
			"RULESETS()": {
				"notice": "The contract storing and managing project rulesets."
			},
			"STORE()": {
				"notice": "The contract that stores and manages data for this contract's NFTs."
			},
			"adjustTiers((uint104,uint32,uint32,uint16,address,bytes32,uint24,uint8,bool,bool,bool,bool,bool,bool)[],uint256[])": {
				"notice": "Add or delete tiers."
			},
			"afterCashOutRecordedWith((address,uint256,uint256,uint256,(address,uint8,uint32,uint256),(address,uint8,uint32,uint256),uint256,address,bytes,bytes))": {
				"notice": "Burns the specified NFTs upon token holder cash out, reclaiming funds from the project's balance for `context.beneficiary`. Part of `IJBCashOutHook`."
			},
			"afterPayRecordedWith((address,uint256,uint256,(address,uint8,uint32,uint256),(address,uint8,uint32,uint256),uint256,uint256,address,bytes,bytes))": {
				"notice": "Mints one or more NFTs to the `context.benficiary` upon payment if conditions are met. Part of `IJBPayHook`."
			},
			"balanceOf(address)": {
				"notice": "The total number of this hook's NFTs that an address holds (from all tiers)."
			},
			"baseURI()": {
				"notice": "The base URI for the NFT `tokenUris`."
			},
			"beforeCashOutRecordedWith((address,address,uint256,uint256,uint256,uint256,(address,uint8,uint32,uint256),bool,uint256,bytes))": {
				"notice": "The data calculated before a cash out is recorded in the terminal store. This data is provided to the terminal's `cashOutTokensOf(...)` transaction."
			},
			"beforePayRecordedWith((address,address,(address,uint8,uint32,uint256),uint256,uint256,address,uint256,uint256,bytes))": {
				"notice": "The data calculated before a payment is recorded in the terminal store. This data is provided to the terminal's `pay(...)` transaction."
			},
			"cashOutWeightOf(uint256[],(address,address,uint256,uint256,uint256,uint256,(address,uint8,uint32,uint256),bool,uint256,bytes))": {
				"notice": "The combined cash out weight of the NFTs with the specified token IDs."
			},
			"contractURI()": {
				"notice": "This contract's metadata URI."
			},
			"firstOwnerOf(uint256)": {
				"notice": "The first owner of an NFT."
			},
			"hasMintPermissionFor(uint256,address)": {
				"notice": "Required by the IJBRulesetDataHook interfaces. Return false to not leak any permissions."
			},
			"initialize(uint256,string,string,string,address,string,((uint104,uint32,uint32,uint16,address,bytes32,uint24,uint8,bool,bool,bool,bool,bool,bool)[],uint32,uint8,address),(bool,bool,bool,bool))": {
				"notice": "Initializes a cloned copy of the original `JB721Hook` contract."
			},
			"jbOwner()": {
				"notice": "This contract's owner information."
			},
			"mintFor(uint16[],address)": {
				"notice": "Manually mint NFTs from the provided tiers ."
			},
			"mintPendingReservesFor((uint32,uint16)[])": {
				"notice": "Mint pending reserved NFTs based on the provided information."
			},
			"mintPendingReservesFor(uint256,uint256)": {
				"notice": "Mint reserved pending reserved NFTs within the provided tier."
			},
			"owner()": {
				"notice": "Returns the owner's address based on this contract's `JBOwner` owner information."
			},
			"payCreditsOf(address)": {
				"notice": "If an address pays more than the price of the NFT they received, the extra amount is stored as credits which can be cashed out to mint NFTs."
			},
			"pricingContext()": {
				"notice": "Context for the pricing of this hook's tiers."
			},
			"renounceOwnership()": {
				"notice": "Gives up ownership of this contract, making it impossible to call `onlyOwner`/`_checkOwner` functions. Can only be called by the current owner."
			},
			"setDiscountPercentOf(uint256,uint256)": {
				"notice": "Allows the collection's owner to set the discount for a tier, if the tier allows it."
			},
			"setDiscountPercentsOf((uint32,uint16)[])": {
				"notice": "Allows the collection's owner to set the discount percent for multiple tiers."
			},
			"setMetadata(string,string,address,uint256,bytes32)": {
				"notice": "Update this hook's URI metadata properties."
			},
			"setPermissionId(uint8)": {
				"notice": "Sets the permission ID which, when granted from the owner, allows other addresses to perform operations on their behalf."
			},
			"supportsInterface(bytes4)": {
				"notice": "Indicates if this contract adheres to the specified interface."
			},
			"tokenURI(uint256)": {
				"notice": "The metadata URI of the NFT with the specified token ID."
			},
			"totalCashOutWeight((address,address,uint256,uint256,uint256,uint256,(address,uint8,uint32,uint256),bool,uint256,bytes))": {
				"notice": "The combined cash out weight of all outstanding NFTs."
			},
			"transferOwnership(address)": {
				"notice": "Transfers ownership of this contract to a new account (the `newOwner`). Can only be called by the current owner."
			},
			"transferOwnershipToProject(uint256)": {
				"notice": "Transfer ownership of this contract to a new Juicebox project."
			}
		},
		"version": 1
	},
	"gitCommit": "6b2a1aa786f9beac3441873d103e555a08345552",
	"sourceName": "src/JB721TiersHook.sol",
	"chainId": "421614",
	"linkReferences": {},
	"deployedLinkReferences": {},
	"history": []
}