{
	"_format": "sphinx-sol-ct-artifact-1",
	"merkleRoot": "0xf022ccb63ab9d53d28803c2825ae855934c2ea053baacf167205a78967a9633a",
	"contractName": "JB721TiersHookStore",
	"address": "0x1704CFc2f93bf49e54a9939e14A471749B12Eee8",
	"abi": [
		{
			"type": "function",
			"name": "balanceOf",
			"inputs": [
				{
					"name": "hook",
					"type": "address",
					"internalType": "address"
				},
				{
					"name": "owner",
					"type": "address",
					"internalType": "address"
				}
			],
			"outputs": [
				{
					"name": "balance",
					"type": "uint256",
					"internalType": "uint256"
				}
			],
			"stateMutability": "view"
		},
		{
			"type": "function",
			"name": "cashOutWeightOf",
			"inputs": [
				{
					"name": "hook",
					"type": "address",
					"internalType": "address"
				},
				{
					"name": "tokenIds",
					"type": "uint256[]",
					"internalType": "uint256[]"
				}
			],
			"outputs": [
				{
					"name": "weight",
					"type": "uint256",
					"internalType": "uint256"
				}
			],
			"stateMutability": "view"
		},
		{
			"type": "function",
			"name": "cleanTiers",
			"inputs": [
				{
					"name": "hook",
					"type": "address",
					"internalType": "address"
				}
			],
			"outputs": [],
			"stateMutability": "nonpayable"
		},
		{
			"type": "function",
			"name": "defaultReserveBeneficiaryOf",
			"inputs": [
				{
					"name": "hook",
					"type": "address",
					"internalType": "address"
				}
			],
			"outputs": [
				{
					"name": "",
					"type": "address",
					"internalType": "address"
				}
			],
			"stateMutability": "view"
		},
		{
			"type": "function",
			"name": "encodedIPFSUriOf",
			"inputs": [
				{
					"name": "hook",
					"type": "address",
					"internalType": "address"
				},
				{
					"name": "tierId",
					"type": "uint256",
					"internalType": "uint256"
				}
			],
			"outputs": [
				{
					"name": "",
					"type": "bytes32",
					"internalType": "bytes32"
				}
			],
			"stateMutability": "view"
		},
		{
			"type": "function",
			"name": "encodedTierIPFSUriOf",
			"inputs": [
				{
					"name": "hook",
					"type": "address",
					"internalType": "address"
				},
				{
					"name": "tokenId",
					"type": "uint256",
					"internalType": "uint256"
				}
			],
			"outputs": [
				{
					"name": "",
					"type": "bytes32",
					"internalType": "bytes32"
				}
			],
			"stateMutability": "view"
		},
		{
			"type": "function",
			"name": "flagsOf",
			"inputs": [
				{
					"name": "hook",
					"type": "address",
					"internalType": "address"
				}
			],
			"outputs": [
				{
					"name": "",
					"type": "tuple",
					"internalType": "struct JB721TiersHookFlags",
					"components": [
						{
							"name": "noNewTiersWithReserves",
							"type": "bool",
							"internalType": "bool"
						},
						{
							"name": "noNewTiersWithVotes",
							"type": "bool",
							"internalType": "bool"
						},
						{
							"name": "noNewTiersWithOwnerMinting",
							"type": "bool",
							"internalType": "bool"
						},
						{
							"name": "preventOverspending",
							"type": "bool",
							"internalType": "bool"
						}
					]
				}
			],
			"stateMutability": "view"
		},
		{
			"type": "function",
			"name": "isTierRemoved",
			"inputs": [
				{
					"name": "hook",
					"type": "address",
					"internalType": "address"
				},
				{
					"name": "tierId",
					"type": "uint256",
					"internalType": "uint256"
				}
			],
			"outputs": [
				{
					"name": "",
					"type": "bool",
					"internalType": "bool"
				}
			],
			"stateMutability": "view"
		},
		{
			"type": "function",
			"name": "maxTierIdOf",
			"inputs": [
				{
					"name": "hook",
					"type": "address",
					"internalType": "address"
				}
			],
			"outputs": [
				{
					"name": "",
					"type": "uint256",
					"internalType": "uint256"
				}
			],
			"stateMutability": "view"
		},
		{
			"type": "function",
			"name": "numberOfBurnedFor",
			"inputs": [
				{
					"name": "hook",
					"type": "address",
					"internalType": "address"
				},
				{
					"name": "tierId",
					"type": "uint256",
					"internalType": "uint256"
				}
			],
			"outputs": [
				{
					"name": "",
					"type": "uint256",
					"internalType": "uint256"
				}
			],
			"stateMutability": "view"
		},
		{
			"type": "function",
			"name": "numberOfPendingReservesFor",
			"inputs": [
				{
					"name": "hook",
					"type": "address",
					"internalType": "address"
				},
				{
					"name": "tierId",
					"type": "uint256",
					"internalType": "uint256"
				}
			],
			"outputs": [
				{
					"name": "",
					"type": "uint256",
					"internalType": "uint256"
				}
			],
			"stateMutability": "view"
		},
		{
			"type": "function",
			"name": "numberOfReservesMintedFor",
			"inputs": [
				{
					"name": "hook",
					"type": "address",
					"internalType": "address"
				},
				{
					"name": "tierId",
					"type": "uint256",
					"internalType": "uint256"
				}
			],
			"outputs": [
				{
					"name": "",
					"type": "uint256",
					"internalType": "uint256"
				}
			],
			"stateMutability": "view"
		},
		{
			"type": "function",
			"name": "recordAddTiers",
			"inputs": [
				{
					"name": "tiersToAdd",
					"type": "tuple[]",
					"internalType": "struct JB721TierConfig[]",
					"components": [
						{
							"name": "price",
							"type": "uint104",
							"internalType": "uint104"
						},
						{
							"name": "initialSupply",
							"type": "uint32",
							"internalType": "uint32"
						},
						{
							"name": "votingUnits",
							"type": "uint32",
							"internalType": "uint32"
						},
						{
							"name": "reserveFrequency",
							"type": "uint16",
							"internalType": "uint16"
						},
						{
							"name": "reserveBeneficiary",
							"type": "address",
							"internalType": "address"
						},
						{
							"name": "encodedIPFSUri",
							"type": "bytes32",
							"internalType": "bytes32"
						},
						{
							"name": "category",
							"type": "uint24",
							"internalType": "uint24"
						},
						{
							"name": "discountPercent",
							"type": "uint8",
							"internalType": "uint8"
						},
						{
							"name": "allowOwnerMint",
							"type": "bool",
							"internalType": "bool"
						},
						{
							"name": "useReserveBeneficiaryAsDefault",
							"type": "bool",
							"internalType": "bool"
						},
						{
							"name": "transfersPausable",
							"type": "bool",
							"internalType": "bool"
						},
						{
							"name": "useVotingUnits",
							"type": "bool",
							"internalType": "bool"
						},
						{
							"name": "cannotBeRemoved",
							"type": "bool",
							"internalType": "bool"
						},
						{
							"name": "cannotIncreaseDiscountPercent",
							"type": "bool",
							"internalType": "bool"
						}
					]
				}
			],
			"outputs": [
				{
					"name": "tierIds",
					"type": "uint256[]",
					"internalType": "uint256[]"
				}
			],
			"stateMutability": "nonpayable"
		},
		{
			"type": "function",
			"name": "recordBurn",
			"inputs": [
				{
					"name": "tokenIds",
					"type": "uint256[]",
					"internalType": "uint256[]"
				}
			],
			"outputs": [],
			"stateMutability": "nonpayable"
		},
		{
			"type": "function",
			"name": "recordFlags",
			"inputs": [
				{
					"name": "flags",
					"type": "tuple",
					"internalType": "struct JB721TiersHookFlags",
					"components": [
						{
							"name": "noNewTiersWithReserves",
							"type": "bool",
							"internalType": "bool"
						},
						{
							"name": "noNewTiersWithVotes",
							"type": "bool",
							"internalType": "bool"
						},
						{
							"name": "noNewTiersWithOwnerMinting",
							"type": "bool",
							"internalType": "bool"
						},
						{
							"name": "preventOverspending",
							"type": "bool",
							"internalType": "bool"
						}
					]
				}
			],
			"outputs": [],
			"stateMutability": "nonpayable"
		},
		{
			"type": "function",
			"name": "recordMint",
			"inputs": [
				{
					"name": "amount",
					"type": "uint256",
					"internalType": "uint256"
				},
				{
					"name": "tierIds",
					"type": "uint16[]",
					"internalType": "uint16[]"
				},
				{
					"name": "isOwnerMint",
					"type": "bool",
					"internalType": "bool"
				}
			],
			"outputs": [
				{
					"name": "tokenIds",
					"type": "uint256[]",
					"internalType": "uint256[]"
				},
				{
					"name": "leftoverAmount",
					"type": "uint256",
					"internalType": "uint256"
				}
			],
			"stateMutability": "nonpayable"
		},
		{
			"type": "function",
			"name": "recordMintReservesFor",
			"inputs": [
				{
					"name": "tierId",
					"type": "uint256",
					"internalType": "uint256"
				},
				{
					"name": "count",
					"type": "uint256",
					"internalType": "uint256"
				}
			],
			"outputs": [
				{
					"name": "tokenIds",
					"type": "uint256[]",
					"internalType": "uint256[]"
				}
			],
			"stateMutability": "nonpayable"
		},
		{
			"type": "function",
			"name": "recordRemoveTierIds",
			"inputs": [
				{
					"name": "tierIds",
					"type": "uint256[]",
					"internalType": "uint256[]"
				}
			],
			"outputs": [],
			"stateMutability": "nonpayable"
		},
		{
			"type": "function",
			"name": "recordSetDiscountPercentOf",
			"inputs": [
				{
					"name": "tierId",
					"type": "uint256",
					"internalType": "uint256"
				},
				{
					"name": "discountPercent",
					"type": "uint256",
					"internalType": "uint256"
				}
			],
			"outputs": [],
			"stateMutability": "nonpayable"
		},
		{
			"type": "function",
			"name": "recordSetEncodedIPFSUriOf",
			"inputs": [
				{
					"name": "tierId",
					"type": "uint256",
					"internalType": "uint256"
				},
				{
					"name": "encodedIPFSUri",
					"type": "bytes32",
					"internalType": "bytes32"
				}
			],
			"outputs": [],
			"stateMutability": "nonpayable"
		},
		{
			"type": "function",
			"name": "recordSetTokenUriResolver",
			"inputs": [
				{
					"name": "resolver",
					"type": "address",
					"internalType": "contract IJB721TokenUriResolver"
				}
			],
			"outputs": [],
			"stateMutability": "nonpayable"
		},
		{
			"type": "function",
			"name": "recordTransferForTier",
			"inputs": [
				{
					"name": "tierId",
					"type": "uint256",
					"internalType": "uint256"
				},
				{
					"name": "from",
					"type": "address",
					"internalType": "address"
				},
				{
					"name": "to",
					"type": "address",
					"internalType": "address"
				}
			],
			"outputs": [],
			"stateMutability": "nonpayable"
		},
		{
			"type": "function",
			"name": "reserveBeneficiaryOf",
			"inputs": [
				{
					"name": "hook",
					"type": "address",
					"internalType": "address"
				},
				{
					"name": "tierId",
					"type": "uint256",
					"internalType": "uint256"
				}
			],
			"outputs": [
				{
					"name": "",
					"type": "address",
					"internalType": "address"
				}
			],
			"stateMutability": "view"
		},
		{
			"type": "function",
			"name": "tierBalanceOf",
			"inputs": [
				{
					"name": "hook",
					"type": "address",
					"internalType": "address"
				},
				{
					"name": "owner",
					"type": "address",
					"internalType": "address"
				},
				{
					"name": "tierId",
					"type": "uint256",
					"internalType": "uint256"
				}
			],
			"outputs": [
				{
					"name": "",
					"type": "uint256",
					"internalType": "uint256"
				}
			],
			"stateMutability": "view"
		},
		{
			"type": "function",
			"name": "tierIdOfToken",
			"inputs": [
				{
					"name": "tokenId",
					"type": "uint256",
					"internalType": "uint256"
				}
			],
			"outputs": [
				{
					"name": "",
					"type": "uint256",
					"internalType": "uint256"
				}
			],
			"stateMutability": "pure"
		},
		{
			"type": "function",
			"name": "tierOf",
			"inputs": [
				{
					"name": "hook",
					"type": "address",
					"internalType": "address"
				},
				{
					"name": "id",
					"type": "uint256",
					"internalType": "uint256"
				},
				{
					"name": "includeResolvedUri",
					"type": "bool",
					"internalType": "bool"
				}
			],
			"outputs": [
				{
					"name": "",
					"type": "tuple",
					"internalType": "struct JB721Tier",
					"components": [
						{
							"name": "id",
							"type": "uint32",
							"internalType": "uint32"
						},
						{
							"name": "price",
							"type": "uint104",
							"internalType": "uint104"
						},
						{
							"name": "remainingSupply",
							"type": "uint32",
							"internalType": "uint32"
						},
						{
							"name": "initialSupply",
							"type": "uint32",
							"internalType": "uint32"
						},
						{
							"name": "votingUnits",
							"type": "uint104",
							"internalType": "uint104"
						},
						{
							"name": "reserveFrequency",
							"type": "uint16",
							"internalType": "uint16"
						},
						{
							"name": "reserveBeneficiary",
							"type": "address",
							"internalType": "address"
						},
						{
							"name": "encodedIPFSUri",
							"type": "bytes32",
							"internalType": "bytes32"
						},
						{
							"name": "category",
							"type": "uint24",
							"internalType": "uint24"
						},
						{
							"name": "discountPercent",
							"type": "uint8",
							"internalType": "uint8"
						},
						{
							"name": "allowOwnerMint",
							"type": "bool",
							"internalType": "bool"
						},
						{
							"name": "transfersPausable",
							"type": "bool",
							"internalType": "bool"
						},
						{
							"name": "cannotBeRemoved",
							"type": "bool",
							"internalType": "bool"
						},
						{
							"name": "cannotIncreaseDiscountPercent",
							"type": "bool",
							"internalType": "bool"
						},
						{
							"name": "resolvedUri",
							"type": "string",
							"internalType": "string"
						}
					]
				}
			],
			"stateMutability": "view"
		},
		{
			"type": "function",
			"name": "tierOfTokenId",
			"inputs": [
				{
					"name": "hook",
					"type": "address",
					"internalType": "address"
				},
				{
					"name": "tokenId",
					"type": "uint256",
					"internalType": "uint256"
				},
				{
					"name": "includeResolvedUri",
					"type": "bool",
					"internalType": "bool"
				}
			],
			"outputs": [
				{
					"name": "",
					"type": "tuple",
					"internalType": "struct JB721Tier",
					"components": [
						{
							"name": "id",
							"type": "uint32",
							"internalType": "uint32"
						},
						{
							"name": "price",
							"type": "uint104",
							"internalType": "uint104"
						},
						{
							"name": "remainingSupply",
							"type": "uint32",
							"internalType": "uint32"
						},
						{
							"name": "initialSupply",
							"type": "uint32",
							"internalType": "uint32"
						},
						{
							"name": "votingUnits",
							"type": "uint104",
							"internalType": "uint104"
						},
						{
							"name": "reserveFrequency",
							"type": "uint16",
							"internalType": "uint16"
						},
						{
							"name": "reserveBeneficiary",
							"type": "address",
							"internalType": "address"
						},
						{
							"name": "encodedIPFSUri",
							"type": "bytes32",
							"internalType": "bytes32"
						},
						{
							"name": "category",
							"type": "uint24",
							"internalType": "uint24"
						},
						{
							"name": "discountPercent",
							"type": "uint8",
							"internalType": "uint8"
						},
						{
							"name": "allowOwnerMint",
							"type": "bool",
							"internalType": "bool"
						},
						{
							"name": "transfersPausable",
							"type": "bool",
							"internalType": "bool"
						},
						{
							"name": "cannotBeRemoved",
							"type": "bool",
							"internalType": "bool"
						},
						{
							"name": "cannotIncreaseDiscountPercent",
							"type": "bool",
							"internalType": "bool"
						},
						{
							"name": "resolvedUri",
							"type": "string",
							"internalType": "string"
						}
					]
				}
			],
			"stateMutability": "view"
		},
		{
			"type": "function",
			"name": "tierVotingUnitsOf",
			"inputs": [
				{
					"name": "hook",
					"type": "address",
					"internalType": "address"
				},
				{
					"name": "account",
					"type": "address",
					"internalType": "address"
				},
				{
					"name": "tierId",
					"type": "uint256",
					"internalType": "uint256"
				}
			],
			"outputs": [
				{
					"name": "",
					"type": "uint256",
					"internalType": "uint256"
				}
			],
			"stateMutability": "view"
		},
		{
			"type": "function",
			"name": "tiersOf",
			"inputs": [
				{
					"name": "hook",
					"type": "address",
					"internalType": "address"
				},
				{
					"name": "categories",
					"type": "uint256[]",
					"internalType": "uint256[]"
				},
				{
					"name": "includeResolvedUri",
					"type": "bool",
					"internalType": "bool"
				},
				{
					"name": "startingId",
					"type": "uint256",
					"internalType": "uint256"
				},
				{
					"name": "size",
					"type": "uint256",
					"internalType": "uint256"
				}
			],
			"outputs": [
				{
					"name": "tiers",
					"type": "tuple[]",
					"internalType": "struct JB721Tier[]",
					"components": [
						{
							"name": "id",
							"type": "uint32",
							"internalType": "uint32"
						},
						{
							"name": "price",
							"type": "uint104",
							"internalType": "uint104"
						},
						{
							"name": "remainingSupply",
							"type": "uint32",
							"internalType": "uint32"
						},
						{
							"name": "initialSupply",
							"type": "uint32",
							"internalType": "uint32"
						},
						{
							"name": "votingUnits",
							"type": "uint104",
							"internalType": "uint104"
						},
						{
							"name": "reserveFrequency",
							"type": "uint16",
							"internalType": "uint16"
						},
						{
							"name": "reserveBeneficiary",
							"type": "address",
							"internalType": "address"
						},
						{
							"name": "encodedIPFSUri",
							"type": "bytes32",
							"internalType": "bytes32"
						},
						{
							"name": "category",
							"type": "uint24",
							"internalType": "uint24"
						},
						{
							"name": "discountPercent",
							"type": "uint8",
							"internalType": "uint8"
						},
						{
							"name": "allowOwnerMint",
							"type": "bool",
							"internalType": "bool"
						},
						{
							"name": "transfersPausable",
							"type": "bool",
							"internalType": "bool"
						},
						{
							"name": "cannotBeRemoved",
							"type": "bool",
							"internalType": "bool"
						},
						{
							"name": "cannotIncreaseDiscountPercent",
							"type": "bool",
							"internalType": "bool"
						},
						{
							"name": "resolvedUri",
							"type": "string",
							"internalType": "string"
						}
					]
				}
			],
			"stateMutability": "view"
		},
		{
			"type": "function",
			"name": "tokenUriResolverOf",
			"inputs": [
				{
					"name": "hook",
					"type": "address",
					"internalType": "address"
				}
			],
			"outputs": [
				{
					"name": "",
					"type": "address",
					"internalType": "contract IJB721TokenUriResolver"
				}
			],
			"stateMutability": "view"
		},
		{
			"type": "function",
			"name": "totalCashOutWeight",
			"inputs": [
				{
					"name": "hook",
					"type": "address",
					"internalType": "address"
				}
			],
			"outputs": [
				{
					"name": "weight",
					"type": "uint256",
					"internalType": "uint256"
				}
			],
			"stateMutability": "view"
		},
		{
			"type": "function",
			"name": "totalSupplyOf",
			"inputs": [
				{
					"name": "hook",
					"type": "address",
					"internalType": "address"
				}
			],
			"outputs": [
				{
					"name": "supply",
					"type": "uint256",
					"internalType": "uint256"
				}
			],
			"stateMutability": "view"
		},
		{
			"type": "function",
			"name": "votingUnitsOf",
			"inputs": [
				{
					"name": "hook",
					"type": "address",
					"internalType": "address"
				},
				{
					"name": "account",
					"type": "address",
					"internalType": "address"
				}
			],
			"outputs": [
				{
					"name": "units",
					"type": "uint256",
					"internalType": "uint256"
				}
			],
			"stateMutability": "view"
		},
		{
			"type": "event",
			"name": "CleanTiers",
			"inputs": [
				{
					"name": "hook",
					"type": "address",
					"indexed": true,
					"internalType": "address"
				},
				{
					"name": "caller",
					"type": "address",
					"indexed": false,
					"internalType": "address"
				}
			],
			"anonymous": false
		},
		{
			"type": "error",
			"name": "JB721TiersHookStore_CantMintManually",
			"inputs": []
		},
		{
			"type": "error",
			"name": "JB721TiersHookStore_CantRemoveTier",
			"inputs": []
		},
		{
			"type": "error",
			"name": "JB721TiersHookStore_DiscountPercentExceedsBounds",
			"inputs": [
				{
					"name": "percent",
					"type": "uint256",
					"internalType": "uint256"
				},
				{
					"name": "limit",
					"type": "uint256",
					"internalType": "uint256"
				}
			]
		},
		{
			"type": "error",
			"name": "JB721TiersHookStore_DiscountPercentIncreaseNotAllowed",
			"inputs": [
				{
					"name": "percent",
					"type": "uint256",
					"internalType": "uint256"
				},
				{
					"name": "storedPercent",
					"type": "uint256",
					"internalType": "uint256"
				}
			]
		},
		{
			"type": "error",
			"name": "JB721TiersHookStore_InsufficientPendingReserves",
			"inputs": [
				{
					"name": "count",
					"type": "uint256",
					"internalType": "uint256"
				},
				{
					"name": "numberOfPendingReserves",
					"type": "uint256",
					"internalType": "uint256"
				}
			]
		},
		{
			"type": "error",
			"name": "JB721TiersHookStore_InsufficientSupplyRemaining",
			"inputs": []
		},
		{
			"type": "error",
			"name": "JB721TiersHookStore_InvalidCategorySortOrder",
			"inputs": [
				{
					"name": "tierCategory",
					"type": "uint256",
					"internalType": "uint256"
				},
				{
					"name": "previousTierCategory",
					"type": "uint256",
					"internalType": "uint256"
				}
			]
		},
		{
			"type": "error",
			"name": "JB721TiersHookStore_InvalidQuantity",
			"inputs": [
				{
					"name": "quantity",
					"type": "uint256",
					"internalType": "uint256"
				},
				{
					"name": "limit",
					"type": "uint256",
					"internalType": "uint256"
				}
			]
		},
		{
			"type": "error",
			"name": "JB721TiersHookStore_ManualMintingNotAllowed",
			"inputs": []
		},
		{
			"type": "error",
			"name": "JB721TiersHookStore_MaxTiersExceeded",
			"inputs": [
				{
					"name": "numberOfTiers",
					"type": "uint256",
					"internalType": "uint256"
				},
				{
					"name": "limit",
					"type": "uint256",
					"internalType": "uint256"
				}
			]
		},
		{
			"type": "error",
			"name": "JB721TiersHookStore_PriceExceedsAmount",
			"inputs": [
				{
					"name": "price",
					"type": "uint256",
					"internalType": "uint256"
				},
				{
					"name": "leftoverAmount",
					"type": "uint256",
					"internalType": "uint256"
				}
			]
		},
		{
			"type": "error",
			"name": "JB721TiersHookStore_ReserveFrequencyNotAllowed",
			"inputs": []
		},
		{
			"type": "error",
			"name": "JB721TiersHookStore_TierRemoved",
			"inputs": [
				{
					"name": "tierId",
					"type": "uint256",
					"internalType": "uint256"
				}
			]
		},
		{
			"type": "error",
			"name": "JB721TiersHookStore_UnrecognizedTier",
			"inputs": []
		},
		{
			"type": "error",
			"name": "JB721TiersHookStore_VotingUnitsNotAllowed",
			"inputs": []
		},
		{
			"type": "error",
			"name": "JB721TiersHookStore_ZeroInitialSupply",
			"inputs": []
		},
		{
			"type": "error",
			"name": "PRBMath_MulDiv_Overflow",
			"inputs": [
				{
					"name": "x",
					"type": "uint256",
					"internalType": "uint256"
				},
				{
					"name": "y",
					"type": "uint256",
					"internalType": "uint256"
				},
				{
					"name": "denominator",
					"type": "uint256",
					"internalType": "uint256"
				}
			]
		}
	],
	"solcInputHash": "54d924ca0ce25025276cf9168aae3c9e",
	"args": [],
	"bytecode": "0x608060405234801561001057600080fd5b506139c5806100206000396000f3fe608060405234801561001057600080fd5b506004361061020b5760003560e01c8063845104de1161012a578063c2c55f94116100bd578063cf9530d01161008c578063eaa19ab311610071578063eaa19ab31461064e578063f1bea54f1461066f578063f7888aec1461068f57600080fd5b8063cf9530d0146105f1578063d84a72c01461060457600080fd5b8063c2c55f94146105a5578063c44a8e6d146105b8578063c8df1710146105cb578063cb827e32146105de57600080fd5b80639403a74f116100f95780639403a74f146105345780639be748fb14610554578063baa7e80e14610567578063bd51923c1461057a57600080fd5b8063845104de1461042b57806386bc2be3146104fb5780638f2b90a71461050e578063933555781461052157600080fd5b806337f44652116101a2578063509a290211610171578063509a2902146103aa5780635f646611146103bd57806364faa159146103e05780636825bb801461040057600080fd5b806337f446521461032657806342f9914b1461035757806349bd1ac61461036a57806349e6fb671461039757600080fd5b80631f1d05ad116101de5780631f1d05ad146102a757806320512ba1146102c75780632b7e6ef0146102da5780632e4d0ea81461031357600080fd5b80630357300414610210578063086bb19a146102405780630fab094714610255578063114044921461027e575b600080fd5b61022361021e366004612edc565b6106a2565b6040516001600160a01b0390911681526020015b60405180910390f35b61025361024e366004612f08565b6106fb565b005b610223610263366004612f08565b6006602052600090815260409020546001600160a01b031681565b61022361028c366004612f08565b6000602081905290815260409020546001600160a01b031681565b6102ba6102b5366004612f25565b61085b565b6040516102379190612fd7565b6102536102d5366004613036565b61120f565b6103056102e8366004612edc565b600360209081526000928352604080842090915290825290205481565b604051908152602001610237565b610305610321366004613078565b6112ad565b610305610334366004613078565b600560209081526000938452604080852082529284528284209052825290205481565b6103056103653660046130b9565b611406565b6102536103783660046130d2565b3360009081526001602090815260408083209483529390529190912055565b6103056103a5366004612f08565b611416565b6102536103b83660046130d2565b611554565b6103d06103cb366004612edc565b611611565b6040519015158152602001610237565b6103f36103ee36600461310d565b611649565b60405161023791906132c3565b61030561040e366004612edc565b600460209081526000928352604080842090915290825290205481565b6104c0610439366004612f08565b604080516080810182526000808252602082018190529181018290526060810191909152506001600160a01b03166000908152600760209081526040918290208251608081018452905460ff808216151583526101008204811615159383019390935262010000810483161515938201939093526301000000909204161515606082015290565b604051610237919081511515815260208083015115159082015260408083015115159082015260609182015115159181019190915260800190565b610253610509366004613036565b611782565b61030561051c366004612edc565b611846565b61030561052f3660046132d6565b611900565b61054761054236600461330f565b611a94565b6040516102379190613389565b6103056105623660046133ed565b611dc0565b6102ba6105753660046130d2565b611e3c565b610305610588366004612edc565b600160209081526000928352604080842090915290825290205481565b6102536105b3366004613442565b612063565b6103f36105c636600461310d565b6120f6565b6103056105d9366004612edc565b612241565b6102536105ec366004613479565b61227a565b6103056105ff366004612f08565b612295565b610253610612366004612f08565b336000908152600660205260409020805473ffffffffffffffffffffffffffffffffffffffff19166001600160a01b0392909216919091179055565b61066161065c366004613491565b612391565b6040516102379291906134f0565b61030561067d366004612f08565b60026020526000908152604090205481565b61030561069d3660046132d6565b6126bd565b6001600160a01b038083166000908152600a6020908152604080832085845290915281205490911680156106d75790506106f5565b50506001600160a01b03808316600090815260208190526040902054165b92915050565b60006107068261272a565b9050600061071583600061276b565b90506000610736604051806040016040528060008152602001600081525090565b8215610816576107478584836127d4565b61080457610756826001613528565b83146107b2576001600160a01b0385166000908152600d6020908152604080832085845290915290205483146107ad576001600160a01b0385166000908152600d6020908152604080832085845290915290208390555b610800565b6001600160a01b0385166000908152600d6020908152604080832085845290915290205415610800576001600160a01b0385166000908152600d602090815260408083208584529091528120555b8291505b61080f85848661282b565b9250610736565b6040513381526001600160a01b038616907f4a0f854ce3c180d56f3e9eb47eb064c595bf3de0ab9af45425291e5b1bb733a89060200160405180910390a25050505050565b3360009081526002602052604090205460609061ffff61087b8483613528565b11156108b55761088b8382613528565b604051631e9bcc6760e11b8152600481019190915261ffff60248201526044015b60405180910390fd5b60006108c03361272a565b90508367ffffffffffffffff8111156108db576108db61353b565b604051908082528060200260200182016040528015610904578160200160208202803683370190505b5092506000821561091f5761091a33600061276b565b610922565b60005b3360009081526007602090815260408083208151608081018352905460ff8082161515835261010082048116151594830194909452620100008104841615159282019290925263010000009091049091161515606082015291925090815b878110156111e857600089898381811061099c5761099c613551565b90506101c002018036038101906109b391906135f2565b90506109c46001633b9aca006136fb565b816020015163ffffffff161115610a105760208101516109e96001633b9aca006136fb565b60405163bad92c4160e01b815263ffffffff909216600483015260248201526044016108ac565b604080516101c081018252600080825260208201819052918101829052606081018290526080810182905260a0810182905260c0810182905260e08101829052610100810182905261012081018290526101408101829052610160810182905261018081018290526101a08101919091528215610b08578a8a610a946001866136fb565b818110610aa357610aa3613551565b90506101c00201803603810190610aba91906135f2565b90508060c0015162ffffff168260c0015162ffffff161015610b085760c08083015190820151604051635ccf1bb560e11b815262ffffff9283166004820152911660248201526044016108ac565b83602001518015610b5157508161016001518015610b2f5750604082015163ffffffff1615155b80610b515750816101600151158015610b51575081516001600160681b031615155b15610b6f5760405163d3ac63bb60e01b815260040160405180910390fd5b835180610b7e57508161010001515b8015610b915750606082015161ffff1615155b15610baf5760405163b765c9f360e01b815260040160405180910390fd5b83604001518015610bc257508161010001515b15610be0576040516315c5af8f60e11b815260040160405180910390fd5b60c861ffff168260e0015160ff161115610c1f5760e0820151604051634c70edff60e11b815260ff909116600482015260c860248201526044016108ac565b816020015163ffffffff16600003610c4a57604051630130d0a560e61b815260040160405180910390fd5b6000610c56848a613528565b610c61906001613528565b905060405180610100016040528084600001516001600160681b03168152602001846020015163ffffffff168152602001846020015163ffffffff168152602001846040015163ffffffff1681526020018460c0015162ffffff1681526020018460e0015160ff168152602001846060015161ffff168152602001610d1e856101000151866101400151876101600151886101800151896101a0015160041b60039190911b60029290921b60019390931b90931791909117171790565b60ff908116909152336000908152600c602090815260408083208684528252918290208451815492860151938601516060870151608088015160a089015160c0808b015160e0909b01516001600160681b0390961670ffffffffffffffffffffffffffffffffff1990981697909717600160681b63ffffffff998a1602177fffffffffffffff0000000000000000ffffffffffffffffffffffffffffffffff16600160881b948916949094027fffffffffffffff00000000ffffffffffffffffffffffffffffffffffffffffff1693909317600160a81b9790921696909602177fffffff00000000ffffffffffffffffffffffffffffffffffffffffffffffffff16600160c81b62ffffff9687160260ff60e01b191617600160e01b91871691909102177cffffffffffffffffffffffffffffffffffffffffffffffffffffffffff16600160e81b61ffff909716969096027effffffffffffffffffffffffffffffffffffffffffffffffffffffffffffff1695909517600160f81b9590941694909402929092179092558481015190840151908216911614801590610ecc575060c083015162ffffff1615155b15610ef857336000908152600b6020908152604080832060c087015162ffffff16845290915290208190555b60808301516001600160a01b031615801590610f1b5750606083015161ffff1615155b15610fe05782610120015115610f96576080830151336000908152602081905260409020546001600160a01b03908116911614610f91576080830151336000908152602081905260409020805473ffffffffffffffffffffffffffffffffffffffff19166001600160a01b039092169190911790555b610fe0565b6080830151336000908152600a602090815260408083208584529091529020805473ffffffffffffffffffffffffffffffffffffffff19166001600160a01b039092169190911790555b60a08301511561100b5760a08301513360009081526001602090815260408083208584529091529020555b86156111bf578660005b81156111bc5761102633838c61282b565b336000908152600c6020908152604080832086845290915290205460c087015191925062ffffff600160c81b909104811691161180159061106757508a8211155b1561114057611077836001613528565b821461109b57336000908152600d6020908152604080832086845290915290208290555b336000908152600860205260409020548a146110c4573360009081526008602052604090208a90555b6110cf6001846136fb565b881415806110f65750336000908152600d602090815260408083208b845290915290205415155b15611131576111066001846136fb565b88146111125782611115565b60005b336000908152600d602090815260408083208c84529091529020555b81985082975060009150611015565b80158061114c57508a81115b156111b35761115c826001613528565b831461118057336000908152600d6020908152604080832085845290915290208390555b336000908152600860205260408120549399508993909250156111ae57336000908152600860205260408120555b611015565b90965080611015565b50505b808a85815181106111d2576111d2613551565b6020908102919091010152505050600101610980565b506111f38786613528565b3360009081526002602052604090205550939695505050505050565b60005b818110156112a857600083838381811061122e5761122e613551565b336000908152600c60209081526040808320938202959095013580835292905292909220805492935091600160f81b9004600816158015915061128457604051630bade1b560e21b815260040160405180910390fd5b33600090815260096020526040902061129d9084612878565b505050600101611212565b505050565b6001600160a01b03808416600090815260056020908152604080832093861683529281528282208483529052908120548082036112ee5760009150506113ff565b6001600160a01b0385166000908152600c60209081526040808320868452825280832081516101008101835290546001600160681b038116825263ffffffff600160681b8204811694830194909452600160881b8104841692820192909252600160a81b8204909216606083015262ffffff600160c81b820416608083015260ff600160e01b8204811660a084015261ffff600160e81b83041660c0840152600160f81b9091041660e082018190529091906113c89060018116151591600282161515916004811615159160088216151591601016151590565b505092505050806113da5781516113e6565b816060015163ffffffff165b6113f9906001600160681b03168461370e565b93505050505b9392505050565b60006106f5633b9aca008361373b565b6001600160a01b03811660009081526002602052604081205460015b81811161154d576001600160a01b0384166000908152600c6020908152604080832084845282529182902082516101008101845290546001600160681b038116825263ffffffff600160681b8204811693830193909352600160881b8104831693820193909352600160a81b8304909116606082015262ffffff600160c81b830416608082015260ff600160e01b8304811660a083015261ffff600160e81b84041660c0830152600160f81b90920490911660e08201526114f48583836128b1565b81602001518260400151611508919061374f565b63ffffffff166115189190613528565b815161152d91906001600160681b031661370e565b6115379085613528565b935050808061154590613773565b915050611432565b5050919050565b60c881111561158057604051634c70edff60e11b81526004810182905260c860248201526044016108ac565b336000908152600c6020908152604080832085845290915290208054600160f81b8104601016151590600160e01b900460ff16831180156115be5750805b156115f1578154604051635c52491d60e01b815260048101859052600160e01b90910460ff1660248201526044016108ac565b50805460ff909216600160e01b0260ff60e01b1990921691909117905550565b6001600160a01b038216600090815260096020526040812081906116359084612a40565b90506116418184612a86565b949350505050565b604080516101e08101825260008082526020820181905291810182905260608082018390526080820183905260a0820183905260c0820183905260e08201839052610100820183905261012082018390526101408201839052610160820183905261018082018390526101a08201929092526101c08101919091526001600160a01b0384166000908152600c6020908152604080832086845282529182902082516101008101845290546001600160681b038116825263ffffffff600160681b8204811693830193909352600160881b8104831693820193909352600160a81b8304909116606082015262ffffff600160c81b830416608082015260ff600160e01b8304811660a083015261ffff600160e81b84041660c0830152600160f81b90920490911660e0820152611641908590859085612aa5565b60005b818110156112a85760008383838181106117a1576117a1613551565b90506020020135905060006117b582611406565b33600090815260036020908152604080832084845290915281208054929350906117de83613773565b9091555050336000908152600c6020908152604080832084845290915290208054600160681b900463ffffffff1690600d6118188361378c565b91906101000a81548163ffffffff021916908363ffffffff1602179055505050508080600101915050611785565b6001600160a01b0382166000908152600c60209081526040808320848452825280832081516101008101835290546001600160681b038116825263ffffffff600160681b8204811694830194909452600160881b8104841692820192909252600160a81b8204909216606083015262ffffff600160c81b820416608083015260ff600160e01b8204811660a084015261ffff600160e81b83041660c0840152600160f81b9091041660e08201526113ff90849084906128b1565b6001600160a01b038216600090815260026020526040812054805b8015611a8c576001600160a01b03808616600090815260056020908152604080832093881683529281528282208483529052908120549081900361195f5750611a7a565b6001600160a01b0386166000908152600c60209081526040808320858452825280832081516101008101835290546001600160681b038116825263ffffffff600160681b8204811694830194909452600160881b8104841692820192909252600160a81b8204909216606083015262ffffff600160c81b820416608083015260ff600160e01b8204811660a084015261ffff600160e81b83041660c0840152600160f81b9091041660e08201819052909190611a399060018116151591600282161515916004811615159160088216151591601016151590565b50509250505080611a4b578151611a57565b816060015163ffffffff165b611a6a906001600160681b03168461370e565b611a749087613528565b95505050505b80611a84816137af565b91505061191b565b505092915050565b60606000611aa18861272a565b905080600003611ab15750611db6565b8267ffffffffffffffff811115611aca57611aca61353b565b604051908082528060200260200182016040528015611b7357816020015b604080516101e0810182526000808252602080830182905292820181905260608083018290526080830182905260a0830182905260c0830182905260e08301829052610100830182905261012083018290526101408301829052610160830182905261018083018290526101a08301919091526101c08201528252600019909201910181611ae85790505b506040805161010081018252600080825260208201819052918101829052606081018290526080810182905260a0810182905260c0810182905260e0810182905291935090604080518082019091526000808252602082015260005b838714611da557600088600003611c1457611c0f8d8c15611c08578d8d85818110611bfc57611bfc613551565b9050602002013561276b565b600061276b565b611c16565b885b90505b8015801590611c2757508785105b15611d9957611c378d82856127d4565b611d87576001600160a01b038d166000908152600c6020908152604080832084845282529182902082516101008101845290546001600160681b038116825263ffffffff600160681b8204811693830193909352600160881b8104831693820193909352600160a81b8304909116606082015262ffffff600160c81b830416608082015260ff600160e01b8304811660a083015261ffff600160e81b84041660c0830152600160f81b90920490911660e082015293508a15801590611d1c57508b8b83818110611d0957611d09613551565b90506020020135846080015162ffffff16115b611d99578a1580611d4d57508b8b83818110611d3a57611d3a613551565b90506020020135846080015162ffffff16145b15611d8757611d5e8d82868d612aa5565b8786611d6981613773565b975081518110611d7b57611d7b613551565b60200260200101819052505b611d928d828861282b565b9050611c19565b50600101898110611bcf575b868414611db0578386525b50505050505b9695505050505050565b6000805b82811015611e34576001600160a01b0385166000908152600c6020526040812090611e06868685818110611dfa57611dfa613551565b90506020020135611406565b8152602081019190915260400160002054611e2a906001600160681b031683613528565b9150600101611dc4565b509392505050565b336000818152600c60209081526040808320868452825280832081516101008101835281546001600160681b038116825263ffffffff600160681b8204811695830195909552600160881b8104851693820193909352600160a81b830490931660608481019190915262ffffff600160c81b840416608085015260ff600160e01b8404811660a086015261ffff600160e81b85041660c0860152600160f81b90930490921660e08401529093909291611ef7919087906128b1565b905080841115611f245760405163bc4cd97b60e01b815260048101859052602481018290526044016108ac565b33600090815260046020908152604080832088845290915281208054869290611f4e908490613528565b9091555084905067ffffffffffffffff811115611f6d57611f6d61353b565b604051908082528060200260200182016040528015611f96578160200160208202803683370190505b503360009081526003602090815260408083208984529091528120549194505b8581101561205957612034878386600001600d81819054906101000a900463ffffffff16611fe3906137c6565b91906101000a81548163ffffffff021916908363ffffffff16021790558760000160119054906101000a900463ffffffff1661201f919061374f565b63ffffffff1661202f9190613528565b612db0565b85828151811061204657612046613551565b6020908102919091010152600101611fb6565b5050505092915050565b6001600160a01b038216156120b0573360009081526005602090815260408083206001600160a01b03861684528252808320868452909152812080549091906120ab906137af565b909155505b6001600160a01b038116156112a8573360009081526005602090815260408083206001600160a01b03851684528252808320868452909152902080546001019055505050565b604080516101e08101825260008082526020820181905291810182905260608082018390526080820183905260a0820183905260c0820183905260e08201839052610100820183905261012082018390526101408201839052610160820183905261018082018390526101a082018390526101c08201529061217784611406565b6001600160a01b0386166000908152600c6020908152604080832084845282529182902082516101008101845290546001600160681b038116825263ffffffff600160681b8204811693830193909352600160881b8104831693820193909352600160a81b8304909116606082015262ffffff600160c81b830416608082015260ff600160e01b8304811660a083015261ffff600160e81b84041660c0830152600160f81b90920490911660e0820152909150612238908690839086612aa5565b95945050505050565b6001600160a01b03821660009081526001602052604081208161226384611406565b815260200190815260200160002054905092915050565b33600090815260076020526040902081906112a882826137f3565b6001600160a01b038116600090815260026020526040812054805b801561154d576001600160a01b0384166000908152600c6020908152604080832084845282529182902082516101008101845290546001600160681b038116825263ffffffff600160681b82048116938301849052600160881b82048116948301859052600160a81b820416606083015262ffffff600160c81b820416608083015260ff600160e01b8204811660a084015261ffff600160e81b83041660c0840152600160f81b9091041660e08201529161236b919061374f565b61237b9063ffffffff1685613528565b9350508080612389906137af565b9150506122b0565b6060846000848067ffffffffffffffff8111156123b0576123b061353b565b6040519080825280602002602001820160405280156123d9578160200160208202803683370190505b5093506123f9604051806040016040528060008152602001600081525090565b60005b828110156126b057600089898381811061241857612418613551565b905060200201602081019061242d9190613890565b61ffff16905061243e3382856127d4565b1561245f57604051638145a02760e01b8152600481018290526024016108ac565b336000908152600c6020908152604080832084845290915290208054909550600160f81b90046001161515888015612495575080155b156124b35760405163134cf3bb60e31b815260040160405180910390fd5b8554600160881b900463ffffffff166000036124e25760405163e076c97160e01b815260040160405180910390fd5b85546001600160681b03811690600160e01b900460ff1615612524578654612517908290600160e01b900460ff1660c8612dcb565b61252190826136fb565b90505b8781111561254f5760405163774485a360e11b815260048101829052602481018990526044016108ac565b604080516101008101825288546001600160681b038116825263ffffffff600160681b820481166020840152600160881b8204811693830193909352600160a81b8104909216606082015262ffffff600160c81b830416608082015260ff600160e01b8304811660a083015261ffff600160e81b84041660c0830152600160f81b90920490911660e08201526125e890339085906128b1565b8754600160681b900463ffffffff161161261557604051631f97ce8b60e11b815260040160405180910390fd5b336000908152600360209081526040808320868452909152902054875460001963ffffffff600160681b808404821692830182160270ffffffff000000000000000000000000001990931692909217808b55612685938793600160881b9092048216929092036001011601612db0565b89858151811061269757612697613551565b60209081029190910101529096039550506001016123fc565b5050505094509492505050565b6001600160a01b038216600090815260026020526040812054805b8015611a8c576001600160a01b0380861660009081526005602090815260408083209388168352928152828220848352905220546127169084613528565b925080612722816137af565b9150506126d8565b6001600160a01b0381166000908152600860205260408120549081900361276657506001600160a01b0381166000908152600260205260409020545b919050565b6000811561279c576001600160a01b0383166000908152600b602090815260408083208584529091529020546127c1565b6001600160a01b0383166000908152600d602090815260408083208380529091529020545b9050806000036106f55750600192915050565b60006127e08284612e9f565b806127f7575081511580156127f757506020820151155b15612821576001600160a01b038416600090815260096020526040902061281e9084612a40565b91505b6116418284612a86565b600081830361283c575060006113ff565b6001600160a01b0384166000908152600d60209081526040808320868452909152902054801561286d5790506113ff565b612238846001613528565b60006128848260081c90565b9050612892610100836138ab565b6000918252602093909352604090208054600190931b90921790915550565b6001600160a01b0383166000908152600360209081526040808320858452909152808220549083015182916128eb9163ffffffff16613528565b90508260c0015161ffff166000148061290d5750826020015163ffffffff1681145b8061292a5750600061291f86866106a2565b6001600160a01b0316145b156129395760009150506113ff565b6001600160a01b03851660009081526004602090815260408083208784528252909120549084015161297290829063ffffffff16613528565b8203612983576000925050506113ff565b600081856020015163ffffffff16840303905060008560c0015161ffff16826129ac919061373b565b905060008660c0015161ffff16836129c491906138ab565b11156129d6576129d381613773565b90505b856040015163ffffffff16818760c0015161ffff1688604001516129fa91906138bf565b63ffffffff16612a0a9190613528565b1115612a1d5750602085015163ffffffff165b80831115612a325760009450505050506113ff565b919091039695505050505050565b60408051808201909152600080825260208201526000612a608360081c90565b604080518082018252600083815260209788529190912054815294850152509192915050565b6000612a94610100836138ab565b83516001911c811614905092915050565b604080516101e08101825260008082526020820181905291810182905260608082018390526080820183905260a0820183905260c0820183905260e08201839052610100820183905261012082018390526101408201839052610160820183905261018082018390526101a082018390526101c082015290612b2786866106a2565b90506000806000806000612b5d8960e0015160018116151591600282161515916004811615159160088216151591601016151590565b94509450945094509450604051806101e001604052808b63ffffffff1681526020018a600001516001600160681b031681526020018a6020015163ffffffff1681526020018a6040015163ffffffff16815260200184612bbe578a51612bca565b8a6060015163ffffffff165b6001600160681b031681526020016001600160a01b03881615612bf1578a60c00151612bf4565b60005b61ffff168152602001876001600160a01b03168152602001600160008e6001600160a01b03166001600160a01b0316815260200190815260200160002060008d81526020019081526020016000205481526020018a6080015162ffffff1681526020018a60a0015160ff1681526020018615158152602001851515815260200183151581526020018215158152602001891580612ca957506001600160a01b038d811660009081526006602052604090205416155b612d8e57600660008e6001600160a01b03166001600160a01b0316815260200190815260200160002060009054906101000a90046001600160a01b03166001600160a01b0316635e703e718e612d008f6000612db0565b6040517fffffffff0000000000000000000000000000000000000000000000000000000060e085901b1681526001600160a01b0390921660048301526024820152604401600060405180830381865afa158015612d61573d6000803e3d6000fd5b505050506040513d6000823e601f3d908101601f19168201604052612d8991908101906138e2565b612d9f565b604051806020016040528060008152505b90529b9a5050505050505050505050565b600081612dc1633b9aca008561370e565b6113ff9190613528565b6000808060001985870985870292508281108382030391505080600003612e0557838281612dfb57612dfb613725565b04925050506113ff565b838110612e3657604051630c740aef60e31b81526004810187905260248101869052604481018590526064016108ac565b60008486880960026001871981018816978890046003810283188082028403028082028403028082028403028082028403028082028403029081029092039091026000889003889004909101858311909403939093029303949094049190911702949350505050565b60008260200151612eb08360081c90565b14159392505050565b6001600160a01b0381168114612ece57600080fd5b50565b803561276681612eb9565b60008060408385031215612eef57600080fd5b8235612efa81612eb9565b946020939093013593505050565b600060208284031215612f1a57600080fd5b81356113ff81612eb9565b60008060208385031215612f3857600080fd5b823567ffffffffffffffff80821115612f5057600080fd5b818501915085601f830112612f6457600080fd5b813581811115612f7357600080fd5b8660206101c083028501011115612f8957600080fd5b60209290920196919550909350505050565b60008151808452602080850194506020840160005b83811015612fcc57815187529582019590820190600101612fb0565b509495945050505050565b6020815260006113ff6020830184612f9b565b60008083601f840112612ffc57600080fd5b50813567ffffffffffffffff81111561301457600080fd5b6020830191508360208260051b850101111561302f57600080fd5b9250929050565b6000806020838503121561304957600080fd5b823567ffffffffffffffff81111561306057600080fd5b61306c85828601612fea565b90969095509350505050565b60008060006060848603121561308d57600080fd5b833561309881612eb9565b925060208401356130a881612eb9565b929592945050506040919091013590565b6000602082840312156130cb57600080fd5b5035919050565b600080604083850312156130e557600080fd5b50508035926020909101359150565b8015158114612ece57600080fd5b8035612766816130f4565b60008060006060848603121561312257600080fd5b833561312d81612eb9565b9250602084013591506040840135613144816130f4565b809150509250925092565b60005b8381101561316a578181015183820152602001613152565b50506000910152565b6000815180845261318b81602086016020860161314f565b601f01601f19169290920160200192915050565b805163ffffffff16825260006101e060208301516131c860208601826001600160681b03169052565b5060408301516131e0604086018263ffffffff169052565b5060608301516131f8606086018263ffffffff169052565b50608083015161321360808601826001600160681b03169052565b5060a083015161322960a086018261ffff169052565b5060c083015161324460c08601826001600160a01b03169052565b5060e083015160e0850152610100808401516132668287018262ffffff169052565b50506101208381015160ff16908501526101408084015115159085015261016080840151151590850152610180808401511515908501526101a0808401511515908501526101c080840151818601839052611db683870182613173565b6020815260006113ff602083018461319f565b600080604083850312156132e957600080fd5b82356132f481612eb9565b9150602083013561330481612eb9565b809150509250929050565b60008060008060008060a0878903121561332857600080fd5b863561333381612eb9565b9550602087013567ffffffffffffffff81111561334f57600080fd5b61335b89828a01612fea565b909650945050604087013561336f816130f4565b959894975092956060810135946080909101359350915050565b600060208083016020845280855180835260408601915060408160051b87010192506020870160005b828110156133e057603f198886030184526133ce85835161319f565b945092850192908501906001016133b2565b5092979650505050505050565b60008060006040848603121561340257600080fd5b833561340d81612eb9565b9250602084013567ffffffffffffffff81111561342957600080fd5b61343586828701612fea565b9497909650939450505050565b60008060006060848603121561345757600080fd5b83359250602084013561346981612eb9565b9150604084013561314481612eb9565b60006080828403121561348b57600080fd5b50919050565b600080600080606085870312156134a757600080fd5b84359350602085013567ffffffffffffffff8111156134c557600080fd5b6134d187828801612fea565b90945092505060408501356134e5816130f4565b939692955090935050565b6040815260006135036040830185612f9b565b90508260208301529392505050565b634e487b7160e01b600052601160045260246000fd5b808201808211156106f5576106f5613512565b634e487b7160e01b600052604160045260246000fd5b634e487b7160e01b600052603260045260246000fd5b6040516101c0810167ffffffffffffffff8111828210171561358b5761358b61353b565b60405290565b80356001600160681b038116811461276657600080fd5b803563ffffffff8116811461276657600080fd5b803561ffff8116811461276657600080fd5b803562ffffff8116811461276657600080fd5b803560ff8116811461276657600080fd5b60006101c0828403121561360557600080fd5b61360d613567565b61361683613591565b8152613624602084016135a8565b6020820152613635604084016135a8565b6040820152613646606084016135bc565b606082015261365760808401612ed1565b608082015260a083013560a082015261367260c084016135ce565b60c082015261368360e084016135e1565b60e0820152610100613696818501613102565b908201526101206136a8848201613102565b908201526101406136ba848201613102565b908201526101606136cc848201613102565b908201526101806136de848201613102565b908201526101a06136f0848201613102565b908201529392505050565b818103818111156106f5576106f5613512565b80820281158282048414176106f5576106f5613512565b634e487b7160e01b600052601260045260246000fd5b60008261374a5761374a613725565b500490565b63ffffffff82811682821603908082111561376c5761376c613512565b5092915050565b60006001820161378557613785613512565b5060010190565b600063ffffffff8083168181036137a5576137a5613512565b6001019392505050565b6000816137be576137be613512565b506000190190565b600063ffffffff8216806137dc576137dc613512565b6000190192915050565b600081356106f5816130f4565b81356137fe816130f4565b815460ff19811691151560ff169182178355602084013561381e816130f4565b61ff0090151560081b1661ffff1982168317811784556040850135613842816130f4565b62ff000081151560101b168462ffffff1985161783171785555050505061388c61386e606084016137e6565b82805463ff000000191691151560181b63ff00000016919091179055565b5050565b6000602082840312156138a257600080fd5b6113ff826135bc565b6000826138ba576138ba613725565b500690565b600063ffffffff808416806138d6576138d6613725565b92169190910692915050565b6000602082840312156138f457600080fd5b815167ffffffffffffffff8082111561390c57600080fd5b818401915084601f83011261392057600080fd5b8151818111156139325761393261353b565b604051601f8201601f19908116603f0116810190838211818310171561395a5761395a61353b565b8160405282815287602084870101111561397357600080fd5b61398483602083016020880161314f565b97965050505050505056fea2646970667358221220d81d1dbd6565920e43bca7a57ea2969cf1d9a19141d0577b02e5aea122883ff664736f6c63430008170033",
	"devdoc": {
		"kind": "dev",
		"methods": {
			"balanceOf(address,address)": {
				"params": {
					"hook": "The 721 contract to get the balance within.",
					"owner": "The address to check the balance of."
				},
				"returns": {
					"balance": "The number of NFTs the owner has from the 721 contract."
				}
			},
			"cashOutWeightOf(address,uint256[])": {
				"details": "Cash out weight is based on 721 price.Divide this result by the `totalCashOutWeight` to get the portion of funds that can be reclaimed by cashing out these NFTs.",
				"params": {
					"hook": "The 721 contract that the NFTs belong to.",
					"tokenIds": "The token IDs of the NFTs to get the cash out weight of."
				},
				"returns": {
					"weight": "The cash out weight."
				}
			},
			"cleanTiers(address)": {
				"params": {
					"hook": "The 721 contract to clean tiers for."
				}
			},
			"encodedTierIPFSUriOf(address,uint256)": {
				"params": {
					"hook": "The 721 contract that the encoded IPFS URI belongs to.",
					"tokenId": "The token ID of the 721 to get the encoded tier IPFS URI of."
				},
				"returns": {
					"_0": "The encoded IPFS URI."
				}
			},
			"flagsOf(address)": {
				"params": {
					"hook": "The 721 contract to get the flags of."
				},
				"returns": {
					"_0": "The flags."
				}
			},
			"isTierRemoved(address,uint256)": {
				"params": {
					"hook": "The 721 contract the tier belongs to.",
					"tierId": "The ID of the tier to check the removal status of."
				},
				"returns": {
					"_0": "A bool which is `true` if the tier has been removed, and `false` otherwise."
				}
			},
			"numberOfPendingReservesFor(address,uint256)": {
				"details": "\"Pending\" means that the NFTs have been reserved, but have not been minted yet.",
				"params": {
					"hook": "The 721 contract to check for pending reserved NFTs.",
					"tierId": "The ID of the tier to get the number of pending reserves for."
				},
				"returns": {
					"_0": "The number of pending reserved NFTs."
				}
			},
			"recordAddTiers((uint104,uint32,uint32,uint16,address,bytes32,uint24,uint8,bool,bool,bool,bool,bool,bool)[])": {
				"params": {
					"tiersToAdd": "The tiers to add."
				},
				"returns": {
					"tierIds": "The IDs of the tiers being added."
				}
			},
			"recordBurn(uint256[])": {
				"params": {
					"tokenIds": "The token IDs of the NFTs to burn."
				}
			},
			"recordFlags((bool,bool,bool,bool))": {
				"params": {
					"flags": "The flags to set."
				}
			},
			"recordMint(uint256,uint16[],bool)": {
				"params": {
					"amount": "The amount being spent on NFTs. The total price must not exceed this amount.",
					"isOwnerMint": "A flag indicating whether this function is being directly called by the 721 contract's owner.",
					"tierIds": "The IDs of the tiers to mint from."
				},
				"returns": {
					"leftoverAmount": "The `amount` remaining after minting.",
					"tokenIds": "The token IDs of the NFTs which were minted."
				}
			},
			"recordMintReservesFor(uint256,uint256)": {
				"params": {
					"count": "The number of reserve NFTs to mint.",
					"tierId": "The ID of the tier to mint reserves from."
				},
				"returns": {
					"tokenIds": "The token IDs of the reserve NFTs which were minted."
				}
			},
			"recordRemoveTierIds(uint256[])": {
				"params": {
					"tierIds": "The IDs of the tiers being removed."
				}
			},
			"recordSetDiscountPercentOf(uint256,uint256)": {
				"params": {
					"discountPercent": "The new discount percent being applied.",
					"tierId": "The ID of the tier to record a discount for."
				}
			},
			"recordSetEncodedIPFSUriOf(uint256,bytes32)": {
				"params": {
					"encodedIPFSUri": "The encoded IPFS URI to set for the tier.",
					"tierId": "The ID of the tier to set the encoded IPFS URI of."
				}
			},
			"recordSetTokenUriResolver(address)": {
				"params": {
					"resolver": "The resolver to set."
				}
			},
			"recordTransferForTier(uint256,address,address)": {
				"params": {
					"from": "The address that the 721 is being transferred from.",
					"tierId": "The ID of the tier that the 721 being transferred belongs to.",
					"to": "The address that the 721 is being transferred to."
				}
			},
			"reserveBeneficiaryOf(address,uint256)": {
				"params": {
					"hook": "The 721 contract that the tier belongs to.",
					"tierId": "The ID of the tier to get the reserve beneficiary of."
				},
				"returns": {
					"_0": "The reserve beneficiary for the tier."
				}
			},
			"tierIdOfToken(uint256)": {
				"details": "Tiers are 1-indexed from the `tiers` array, meaning the 0th element of the array is tier 1.",
				"params": {
					"tokenId": "The token ID of the 721 to get the tier ID of."
				},
				"returns": {
					"_0": "The ID of the 721's tier."
				}
			},
			"tierOf(address,uint256,bool)": {
				"params": {
					"hook": "The 721 contract to get the tier from.",
					"id": "The ID of the tier to get.",
					"includeResolvedUri": "If set to `true`, if the contract has a token URI resolver, its content will be resolved and included."
				},
				"returns": {
					"_0": "The tier."
				}
			},
			"tierOfTokenId(address,uint256,bool)": {
				"params": {
					"hook": "The 721 contract that the tier belongs to.",
					"includeResolvedUri": "If set to `true`, if the contract has a token URI resolver, its content will be resolved and included.",
					"tokenId": "The token ID of the 721 to get the tier of."
				},
				"returns": {
					"_0": "The tier."
				}
			},
			"tierVotingUnitsOf(address,address,uint256)": {
				"details": "NFTs have a tier-specific number of voting units. If the tier does not have a custom number of voting units, the price is used.",
				"params": {
					"account": "The address to get the voting units of within the tier.",
					"hook": "The 721 contract that the tier belongs to.",
					"tierId": "The ID of the tier to get voting units within."
				},
				"returns": {
					"_0": "The address' voting units within the tier."
				}
			},
			"tiersOf(address,uint256[],bool,uint256,uint256)": {
				"params": {
					"categories": "An array tier categories to get tiers from. Send an empty array to get all categories.",
					"hook": "The 721 contract to get the tiers of.",
					"includeResolvedUri": "If set to `true`, if the contract has a token URI resolver, its content will be resolved and included.",
					"size": "The number of tiers to include.",
					"startingId": "The ID of the first tier to get (sorted by price). Send 0 to get all active tiers."
				},
				"returns": {
					"tiers": "An array of active 721 tiers."
				}
			},
			"totalCashOutWeight(address)": {
				"params": {
					"hook": "The 721 contract to get the total cash out weight of."
				},
				"returns": {
					"weight": "The total cash out weight."
				}
			},
			"totalSupplyOf(address)": {
				"params": {
					"hook": "The 721 contract to get a total supply of."
				},
				"returns": {
					"supply": "The total number of NFTs minted from all tiers on the contract."
				}
			},
			"votingUnitsOf(address,address)": {
				"details": "NFTs have a tier-specific number of voting units. If the tier does not have a custom number of voting units, the price is used.",
				"params": {
					"account": "The address to get the voting unit total of.",
					"hook": "The 721 contract to get the voting units within."
				},
				"returns": {
					"units": "The total voting units the address has within the 721 contract."
				}
			}
		},
		"version": 1
	},
	"userdoc": {
		"kind": "user",
		"methods": {
			"balanceOf(address,address)": {
				"notice": "Get the number of NFTs that the specified address has from the specified 721 contract (across all tiers)."
			},
			"cashOutWeightOf(address,uint256[])": {
				"notice": "The combined cash out weight of the NFTs with the provided token IDs."
			},
			"cleanTiers(address)": {
				"notice": "Cleans an 721 contract's removed tiers from the tier sorting sequence."
			},
			"defaultReserveBeneficiaryOf(address)": {
				"notice": "Returns the default reserve beneficiary for the provided 721 contract."
			},
			"encodedIPFSUriOf(address,uint256)": {
				"notice": "Returns the encoded IPFS URI for the provided tier ID of the provided 721 contract."
			},
			"encodedTierIPFSUriOf(address,uint256)": {
				"notice": "Resolves the encoded IPFS URI for the tier of the 721 with the provided token ID from the provided 721 contract."
			},
			"flagsOf(address)": {
				"notice": "Get the flags that dictate the behavior of the provided 721 contract."
			},
			"isTierRemoved(address,uint256)": {
				"notice": "Check if the provided tier has been removed from the provided 721 contract."
			},
			"maxTierIdOf(address)": {
				"notice": "Returns the largest tier ID currently used on the provided 721 contract."
			},
			"numberOfBurnedFor(address,uint256)": {
				"notice": "Returns the number of NFTs which have been burned from the provided tier ID of the provided 721 contract."
			},
			"numberOfPendingReservesFor(address,uint256)": {
				"notice": "Get the number of pending reserve NFTs for the provided tier ID of the provided 721 contract."
			},
			"numberOfReservesMintedFor(address,uint256)": {
				"notice": "Returns the number of reserve NFTs which have been minted from the provided tier ID of the provided 721 contract."
			},
			"recordAddTiers((uint104,uint32,uint32,uint16,address,bytes32,uint24,uint8,bool,bool,bool,bool,bool,bool)[])": {
				"notice": "Record newly added tiers."
			},
			"recordBurn(uint256[])": {
				"notice": "Records 721 burns."
			},
			"recordFlags((bool,bool,bool,bool))": {
				"notice": "Record newly set flags."
			},
			"recordMint(uint256,uint16[],bool)": {
				"notice": "Record 721 mints from the provided tiers."
			},
			"recordMintReservesFor(uint256,uint256)": {
				"notice": "Record reserve 721 minting for the provided tier ID on the provided 721 contract."
			},
			"recordRemoveTierIds(uint256[])": {
				"notice": "Record tiers being removed."
			},
			"recordSetDiscountPercentOf(uint256,uint256)": {
				"notice": "Records the setting of a discount for a tier."
			},
			"recordSetEncodedIPFSUriOf(uint256,bytes32)": {
				"notice": "Record a new encoded IPFS URI for a tier."
			},
			"recordSetTokenUriResolver(address)": {
				"notice": "Record a newly set token URI resolver."
			},
			"recordTransferForTier(uint256,address,address)": {
				"notice": "Record an 721 transfer."
			},
			"reserveBeneficiaryOf(address,uint256)": {
				"notice": "The reserve beneficiary for the provided tier ID on the provided 721 contract."
			},
			"tierBalanceOf(address,address,uint256)": {
				"notice": "Returns the number of NFTs which the provided owner address owns from the provided 721 contract and tier ID."
			},
			"tierIdOfToken(uint256)": {
				"notice": "The tier ID for the 721 with the provided token ID."
			},
			"tierOf(address,uint256,bool)": {
				"notice": "Get the tier with the provided ID from the provided 721 contract."
			},
			"tierOfTokenId(address,uint256,bool)": {
				"notice": "Get the tier of the 721 with the provided token ID in the provided 721 contract."
			},
			"tierVotingUnitsOf(address,address,uint256)": {
				"notice": "Returns the number of voting units an addresses has within the specified tier of the specified 721 contract."
			},
			"tiersOf(address,uint256[],bool,uint256,uint256)": {
				"notice": "Gets an array of currently active 721 tiers for the provided 721 contract."
			},
			"tokenUriResolverOf(address)": {
				"notice": "Returns the custom token URI resolver which overrides the default token URI resolver for the provided 721 contract."
			},
			"totalCashOutWeight(address)": {
				"notice": "The combined cash out weight for all NFTs from the provided 721 contract."
			},
			"totalSupplyOf(address)": {
				"notice": "Get the number of NFTs which have been minted from the provided 721 contract (across all tiers)."
			},
			"votingUnitsOf(address,address)": {
				"notice": "Get the number of voting units the provided address has for the provided 721 contract (across all tiers)."
			}
		},
		"version": 1
	},
	"gitCommit": "6b2a1aa786f9beac3441873d103e555a08345552",
	"sourceName": "src/JB721TiersHookStore.sol",
	"chainId": "421614",
	"linkReferences": {},
	"deployedLinkReferences": {},
	"history": []
}