{
	"_format": "sphinx-sol-ct-artifact-1",
	"merkleRoot": "0xbd3a9757f65ebbb052bafe186035f766189ba5ef2af044ccefba79d4d0717566",
	"contractName": "JB721TiersHookProjectDeployer",
	"address": "0x27e239a40C637Ac9278B4E613aFf3E851a81F829",
	"abi": [
		{
			"type": "constructor",
			"inputs": [
				{
					"name": "directory",
					"type": "address",
					"internalType": "contract IJBDirectory"
				},
				{
					"name": "permissions",
					"type": "address",
					"internalType": "contract IJBPermissions"
				},
				{
					"name": "hookDeployer",
					"type": "address",
					"internalType": "contract IJB721TiersHookDeployer"
				}
			],
			"stateMutability": "nonpayable"
		},
		{
			"type": "function",
			"name": "DIRECTORY",
			"inputs": [],
			"outputs": [
				{
					"name": "",
					"type": "address",
					"internalType": "contract IJBDirectory"
				}
			],
			"stateMutability": "view"
		},
		{
			"type": "function",
			"name": "HOOK_DEPLOYER",
			"inputs": [],
			"outputs": [
				{
					"name": "",
					"type": "address",
					"internalType": "contract IJB721TiersHookDeployer"
				}
			],
			"stateMutability": "view"
		},
		{
			"type": "function",
			"name": "PERMISSIONS",
			"inputs": [],
			"outputs": [
				{
					"name": "",
					"type": "address",
					"internalType": "contract IJBPermissions"
				}
			],
			"stateMutability": "view"
		},
		{
			"type": "function",
			"name": "launchProjectFor",
			"inputs": [
				{
					"name": "owner",
					"type": "address",
					"internalType": "address"
				},
				{
					"name": "deployTiersHookConfig",
					"type": "tuple",
					"internalType": "struct JBDeploy721TiersHookConfig",
					"components": [
						{
							"name": "name",
							"type": "string",
							"internalType": "string"
						},
						{
							"name": "symbol",
							"type": "string",
							"internalType": "string"
						},
						{
							"name": "rulesets",
							"type": "address",
							"internalType": "contract IJBRulesets"
						},
						{
							"name": "baseUri",
							"type": "string",
							"internalType": "string"
						},
						{
							"name": "tokenUriResolver",
							"type": "address",
							"internalType": "contract IJB721TokenUriResolver"
						},
						{
							"name": "contractUri",
							"type": "string",
							"internalType": "string"
						},
						{
							"name": "tiersConfig",
							"type": "tuple",
							"internalType": "struct JB721InitTiersConfig",
							"components": [
								{
									"name": "tiers",
									"type": "tuple[]",
									"internalType": "struct JB721TierConfig[]",
									"components": [
										{
											"name": "price",
											"type": "uint104",
											"internalType": "uint104"
										},
										{
											"name": "initialSupply",
											"type": "uint32",
											"internalType": "uint32"
										},
										{
											"name": "votingUnits",
											"type": "uint32",
											"internalType": "uint32"
										},
										{
											"name": "reserveFrequency",
											"type": "uint16",
											"internalType": "uint16"
										},
										{
											"name": "reserveBeneficiary",
											"type": "address",
											"internalType": "address"
										},
										{
											"name": "encodedIPFSUri",
											"type": "bytes32",
											"internalType": "bytes32"
										},
										{
											"name": "category",
											"type": "uint24",
											"internalType": "uint24"
										},
										{
											"name": "allowOwnerMint",
											"type": "bool",
											"internalType": "bool"
										},
										{
											"name": "useReserveBeneficiaryAsDefault",
											"type": "bool",
											"internalType": "bool"
										},
										{
											"name": "transfersPausable",
											"type": "bool",
											"internalType": "bool"
										},
										{
											"name": "useVotingUnits",
											"type": "bool",
											"internalType": "bool"
										},
										{
											"name": "cannotBeRemoved",
											"type": "bool",
											"internalType": "bool"
										}
									]
								},
								{
									"name": "currency",
									"type": "uint32",
									"internalType": "uint32"
								},
								{
									"name": "decimals",
									"type": "uint8",
									"internalType": "uint8"
								},
								{
									"name": "prices",
									"type": "address",
									"internalType": "contract IJBPrices"
								}
							]
						},
						{
							"name": "reserveBeneficiary",
							"type": "address",
							"internalType": "address"
						},
						{
							"name": "flags",
							"type": "tuple",
							"internalType": "struct JB721TiersHookFlags",
							"components": [
								{
									"name": "noNewTiersWithReserves",
									"type": "bool",
									"internalType": "bool"
								},
								{
									"name": "noNewTiersWithVotes",
									"type": "bool",
									"internalType": "bool"
								},
								{
									"name": "noNewTiersWithOwnerMinting",
									"type": "bool",
									"internalType": "bool"
								},
								{
									"name": "preventOverspending",
									"type": "bool",
									"internalType": "bool"
								}
							]
						}
					]
				},
				{
					"name": "launchProjectConfig",
					"type": "tuple",
					"internalType": "struct JBLaunchProjectConfig",
					"components": [
						{
							"name": "projectUri",
							"type": "string",
							"internalType": "string"
						},
						{
							"name": "rulesetConfigurations",
							"type": "tuple[]",
							"internalType": "struct JBPayDataHookRulesetConfig[]",
							"components": [
								{
									"name": "mustStartAtOrAfter",
									"type": "uint48",
									"internalType": "uint48"
								},
								{
									"name": "duration",
									"type": "uint32",
									"internalType": "uint32"
								},
								{
									"name": "weight",
									"type": "uint112",
									"internalType": "uint112"
								},
								{
									"name": "decayRate",
									"type": "uint32",
									"internalType": "uint32"
								},
								{
									"name": "approvalHook",
									"type": "address",
									"internalType": "contract IJBRulesetApprovalHook"
								},
								{
									"name": "metadata",
									"type": "tuple",
									"internalType": "struct JBPayDataHookRulesetMetadata",
									"components": [
										{
											"name": "reservedRate",
											"type": "uint16",
											"internalType": "uint16"
										},
										{
											"name": "redemptionRate",
											"type": "uint16",
											"internalType": "uint16"
										},
										{
											"name": "baseCurrency",
											"type": "uint32",
											"internalType": "uint32"
										},
										{
											"name": "pausePay",
											"type": "bool",
											"internalType": "bool"
										},
										{
											"name": "pauseCreditTransfers",
											"type": "bool",
											"internalType": "bool"
										},
										{
											"name": "allowOwnerMinting",
											"type": "bool",
											"internalType": "bool"
										},
										{
											"name": "allowTerminalMigration",
											"type": "bool",
											"internalType": "bool"
										},
										{
											"name": "allowSetTerminals",
											"type": "bool",
											"internalType": "bool"
										},
										{
											"name": "allowSetController",
											"type": "bool",
											"internalType": "bool"
										},
										{
											"name": "allowAddAccountingContext",
											"type": "bool",
											"internalType": "bool"
										},
										{
											"name": "allowAddPriceFeed",
											"type": "bool",
											"internalType": "bool"
										},
										{
											"name": "ownerMustSendPayouts",
											"type": "bool",
											"internalType": "bool"
										},
										{
											"name": "holdFees",
											"type": "bool",
											"internalType": "bool"
										},
										{
											"name": "useTotalSurplusForRedemptions",
											"type": "bool",
											"internalType": "bool"
										},
										{
											"name": "useDataHookForRedeem",
											"type": "bool",
											"internalType": "bool"
										},
										{
											"name": "metadata",
											"type": "uint16",
											"internalType": "uint16"
										}
									]
								},
								{
									"name": "splitGroups",
									"type": "tuple[]",
									"internalType": "struct JBSplitGroup[]",
									"components": [
										{
											"name": "groupId",
											"type": "uint256",
											"internalType": "uint256"
										},
										{
											"name": "splits",
											"type": "tuple[]",
											"internalType": "struct JBSplit[]",
											"components": [
												{
													"name": "preferAddToBalance",
													"type": "bool",
													"internalType": "bool"
												},
												{
													"name": "percent",
													"type": "uint32",
													"internalType": "uint32"
												},
												{
													"name": "projectId",
													"type": "uint56",
													"internalType": "uint56"
												},
												{
													"name": "beneficiary",
													"type": "address",
													"internalType": "address payable"
												},
												{
													"name": "lockedUntil",
													"type": "uint48",
													"internalType": "uint48"
												},
												{
													"name": "hook",
													"type": "address",
													"internalType": "contract IJBSplitHook"
												}
											]
										}
									]
								},
								{
									"name": "fundAccessLimitGroups",
									"type": "tuple[]",
									"internalType": "struct JBFundAccessLimitGroup[]",
									"components": [
										{
											"name": "terminal",
											"type": "address",
											"internalType": "address"
										},
										{
											"name": "token",
											"type": "address",
											"internalType": "address"
										},
										{
											"name": "payoutLimits",
											"type": "tuple[]",
											"internalType": "struct JBCurrencyAmount[]",
											"components": [
												{
													"name": "amount",
													"type": "uint224",
													"internalType": "uint224"
												},
												{
													"name": "currency",
													"type": "uint32",
													"internalType": "uint32"
												}
											]
										},
										{
											"name": "surplusAllowances",
											"type": "tuple[]",
											"internalType": "struct JBCurrencyAmount[]",
											"components": [
												{
													"name": "amount",
													"type": "uint224",
													"internalType": "uint224"
												},
												{
													"name": "currency",
													"type": "uint32",
													"internalType": "uint32"
												}
											]
										}
									]
								}
							]
						},
						{
							"name": "terminalConfigurations",
							"type": "tuple[]",
							"internalType": "struct JBTerminalConfig[]",
							"components": [
								{
									"name": "terminal",
									"type": "address",
									"internalType": "contract IJBTerminal"
								},
								{
									"name": "accountingContextsToAccept",
									"type": "tuple[]",
									"internalType": "struct JBAccountingContext[]",
									"components": [
										{
											"name": "token",
											"type": "address",
											"internalType": "address"
										},
										{
											"name": "decimals",
											"type": "uint8",
											"internalType": "uint8"
										},
										{
											"name": "currency",
											"type": "uint32",
											"internalType": "uint32"
										}
									]
								}
							]
						},
						{
							"name": "memo",
							"type": "string",
							"internalType": "string"
						}
					]
				},
				{
					"name": "controller",
					"type": "address",
					"internalType": "contract IJBController"
				}
			],
			"outputs": [
				{
					"name": "projectId",
					"type": "uint256",
					"internalType": "uint256"
				}
			],
			"stateMutability": "nonpayable"
		},
		{
			"type": "function",
			"name": "launchRulesetsFor",
			"inputs": [
				{
					"name": "projectId",
					"type": "uint256",
					"internalType": "uint256"
				},
				{
					"name": "deployTiersHookConfig",
					"type": "tuple",
					"internalType": "struct JBDeploy721TiersHookConfig",
					"components": [
						{
							"name": "name",
							"type": "string",
							"internalType": "string"
						},
						{
							"name": "symbol",
							"type": "string",
							"internalType": "string"
						},
						{
							"name": "rulesets",
							"type": "address",
							"internalType": "contract IJBRulesets"
						},
						{
							"name": "baseUri",
							"type": "string",
							"internalType": "string"
						},
						{
							"name": "tokenUriResolver",
							"type": "address",
							"internalType": "contract IJB721TokenUriResolver"
						},
						{
							"name": "contractUri",
							"type": "string",
							"internalType": "string"
						},
						{
							"name": "tiersConfig",
							"type": "tuple",
							"internalType": "struct JB721InitTiersConfig",
							"components": [
								{
									"name": "tiers",
									"type": "tuple[]",
									"internalType": "struct JB721TierConfig[]",
									"components": [
										{
											"name": "price",
											"type": "uint104",
											"internalType": "uint104"
										},
										{
											"name": "initialSupply",
											"type": "uint32",
											"internalType": "uint32"
										},
										{
											"name": "votingUnits",
											"type": "uint32",
											"internalType": "uint32"
										},
										{
											"name": "reserveFrequency",
											"type": "uint16",
											"internalType": "uint16"
										},
										{
											"name": "reserveBeneficiary",
											"type": "address",
											"internalType": "address"
										},
										{
											"name": "encodedIPFSUri",
											"type": "bytes32",
											"internalType": "bytes32"
										},
										{
											"name": "category",
											"type": "uint24",
											"internalType": "uint24"
										},
										{
											"name": "allowOwnerMint",
											"type": "bool",
											"internalType": "bool"
										},
										{
											"name": "useReserveBeneficiaryAsDefault",
											"type": "bool",
											"internalType": "bool"
										},
										{
											"name": "transfersPausable",
											"type": "bool",
											"internalType": "bool"
										},
										{
											"name": "useVotingUnits",
											"type": "bool",
											"internalType": "bool"
										},
										{
											"name": "cannotBeRemoved",
											"type": "bool",
											"internalType": "bool"
										}
									]
								},
								{
									"name": "currency",
									"type": "uint32",
									"internalType": "uint32"
								},
								{
									"name": "decimals",
									"type": "uint8",
									"internalType": "uint8"
								},
								{
									"name": "prices",
									"type": "address",
									"internalType": "contract IJBPrices"
								}
							]
						},
						{
							"name": "reserveBeneficiary",
							"type": "address",
							"internalType": "address"
						},
						{
							"name": "flags",
							"type": "tuple",
							"internalType": "struct JB721TiersHookFlags",
							"components": [
								{
									"name": "noNewTiersWithReserves",
									"type": "bool",
									"internalType": "bool"
								},
								{
									"name": "noNewTiersWithVotes",
									"type": "bool",
									"internalType": "bool"
								},
								{
									"name": "noNewTiersWithOwnerMinting",
									"type": "bool",
									"internalType": "bool"
								},
								{
									"name": "preventOverspending",
									"type": "bool",
									"internalType": "bool"
								}
							]
						}
					]
				},
				{
					"name": "launchRulesetsConfig",
					"type": "tuple",
					"internalType": "struct JBLaunchRulesetsConfig",
					"components": [
						{
							"name": "projectId",
							"type": "uint56",
							"internalType": "uint56"
						},
						{
							"name": "rulesetConfigurations",
							"type": "tuple[]",
							"internalType": "struct JBPayDataHookRulesetConfig[]",
							"components": [
								{
									"name": "mustStartAtOrAfter",
									"type": "uint48",
									"internalType": "uint48"
								},
								{
									"name": "duration",
									"type": "uint32",
									"internalType": "uint32"
								},
								{
									"name": "weight",
									"type": "uint112",
									"internalType": "uint112"
								},
								{
									"name": "decayRate",
									"type": "uint32",
									"internalType": "uint32"
								},
								{
									"name": "approvalHook",
									"type": "address",
									"internalType": "contract IJBRulesetApprovalHook"
								},
								{
									"name": "metadata",
									"type": "tuple",
									"internalType": "struct JBPayDataHookRulesetMetadata",
									"components": [
										{
											"name": "reservedRate",
											"type": "uint16",
											"internalType": "uint16"
										},
										{
											"name": "redemptionRate",
											"type": "uint16",
											"internalType": "uint16"
										},
										{
											"name": "baseCurrency",
											"type": "uint32",
											"internalType": "uint32"
										},
										{
											"name": "pausePay",
											"type": "bool",
											"internalType": "bool"
										},
										{
											"name": "pauseCreditTransfers",
											"type": "bool",
											"internalType": "bool"
										},
										{
											"name": "allowOwnerMinting",
											"type": "bool",
											"internalType": "bool"
										},
										{
											"name": "allowTerminalMigration",
											"type": "bool",
											"internalType": "bool"
										},
										{
											"name": "allowSetTerminals",
											"type": "bool",
											"internalType": "bool"
										},
										{
											"name": "allowSetController",
											"type": "bool",
											"internalType": "bool"
										},
										{
											"name": "allowAddAccountingContext",
											"type": "bool",
											"internalType": "bool"
										},
										{
											"name": "allowAddPriceFeed",
											"type": "bool",
											"internalType": "bool"
										},
										{
											"name": "ownerMustSendPayouts",
											"type": "bool",
											"internalType": "bool"
										},
										{
											"name": "holdFees",
											"type": "bool",
											"internalType": "bool"
										},
										{
											"name": "useTotalSurplusForRedemptions",
											"type": "bool",
											"internalType": "bool"
										},
										{
											"name": "useDataHookForRedeem",
											"type": "bool",
											"internalType": "bool"
										},
										{
											"name": "metadata",
											"type": "uint16",
											"internalType": "uint16"
										}
									]
								},
								{
									"name": "splitGroups",
									"type": "tuple[]",
									"internalType": "struct JBSplitGroup[]",
									"components": [
										{
											"name": "groupId",
											"type": "uint256",
											"internalType": "uint256"
										},
										{
											"name": "splits",
											"type": "tuple[]",
											"internalType": "struct JBSplit[]",
											"components": [
												{
													"name": "preferAddToBalance",
													"type": "bool",
													"internalType": "bool"
												},
												{
													"name": "percent",
													"type": "uint32",
													"internalType": "uint32"
												},
												{
													"name": "projectId",
													"type": "uint56",
													"internalType": "uint56"
												},
												{
													"name": "beneficiary",
													"type": "address",
													"internalType": "address payable"
												},
												{
													"name": "lockedUntil",
													"type": "uint48",
													"internalType": "uint48"
												},
												{
													"name": "hook",
													"type": "address",
													"internalType": "contract IJBSplitHook"
												}
											]
										}
									]
								},
								{
									"name": "fundAccessLimitGroups",
									"type": "tuple[]",
									"internalType": "struct JBFundAccessLimitGroup[]",
									"components": [
										{
											"name": "terminal",
											"type": "address",
											"internalType": "address"
										},
										{
											"name": "token",
											"type": "address",
											"internalType": "address"
										},
										{
											"name": "payoutLimits",
											"type": "tuple[]",
											"internalType": "struct JBCurrencyAmount[]",
											"components": [
												{
													"name": "amount",
													"type": "uint224",
													"internalType": "uint224"
												},
												{
													"name": "currency",
													"type": "uint32",
													"internalType": "uint32"
												}
											]
										},
										{
											"name": "surplusAllowances",
											"type": "tuple[]",
											"internalType": "struct JBCurrencyAmount[]",
											"components": [
												{
													"name": "amount",
													"type": "uint224",
													"internalType": "uint224"
												},
												{
													"name": "currency",
													"type": "uint32",
													"internalType": "uint32"
												}
											]
										}
									]
								}
							]
						},
						{
							"name": "terminalConfigurations",
							"type": "tuple[]",
							"internalType": "struct JBTerminalConfig[]",
							"components": [
								{
									"name": "terminal",
									"type": "address",
									"internalType": "contract IJBTerminal"
								},
								{
									"name": "accountingContextsToAccept",
									"type": "tuple[]",
									"internalType": "struct JBAccountingContext[]",
									"components": [
										{
											"name": "token",
											"type": "address",
											"internalType": "address"
										},
										{
											"name": "decimals",
											"type": "uint8",
											"internalType": "uint8"
										},
										{
											"name": "currency",
											"type": "uint32",
											"internalType": "uint32"
										}
									]
								}
							]
						},
						{
							"name": "memo",
							"type": "string",
							"internalType": "string"
						}
					]
				},
				{
					"name": "controller",
					"type": "address",
					"internalType": "contract IJBController"
				}
			],
			"outputs": [
				{
					"name": "rulesetId",
					"type": "uint256",
					"internalType": "uint256"
				}
			],
			"stateMutability": "nonpayable"
		},
		{
			"type": "function",
			"name": "queueRulesetsOf",
			"inputs": [
				{
					"name": "projectId",
					"type": "uint256",
					"internalType": "uint256"
				},
				{
					"name": "deployTiersHookConfig",
					"type": "tuple",
					"internalType": "struct JBDeploy721TiersHookConfig",
					"components": [
						{
							"name": "name",
							"type": "string",
							"internalType": "string"
						},
						{
							"name": "symbol",
							"type": "string",
							"internalType": "string"
						},
						{
							"name": "rulesets",
							"type": "address",
							"internalType": "contract IJBRulesets"
						},
						{
							"name": "baseUri",
							"type": "string",
							"internalType": "string"
						},
						{
							"name": "tokenUriResolver",
							"type": "address",
							"internalType": "contract IJB721TokenUriResolver"
						},
						{
							"name": "contractUri",
							"type": "string",
							"internalType": "string"
						},
						{
							"name": "tiersConfig",
							"type": "tuple",
							"internalType": "struct JB721InitTiersConfig",
							"components": [
								{
									"name": "tiers",
									"type": "tuple[]",
									"internalType": "struct JB721TierConfig[]",
									"components": [
										{
											"name": "price",
											"type": "uint104",
											"internalType": "uint104"
										},
										{
											"name": "initialSupply",
											"type": "uint32",
											"internalType": "uint32"
										},
										{
											"name": "votingUnits",
											"type": "uint32",
											"internalType": "uint32"
										},
										{
											"name": "reserveFrequency",
											"type": "uint16",
											"internalType": "uint16"
										},
										{
											"name": "reserveBeneficiary",
											"type": "address",
											"internalType": "address"
										},
										{
											"name": "encodedIPFSUri",
											"type": "bytes32",
											"internalType": "bytes32"
										},
										{
											"name": "category",
											"type": "uint24",
											"internalType": "uint24"
										},
										{
											"name": "allowOwnerMint",
											"type": "bool",
											"internalType": "bool"
										},
										{
											"name": "useReserveBeneficiaryAsDefault",
											"type": "bool",
											"internalType": "bool"
										},
										{
											"name": "transfersPausable",
											"type": "bool",
											"internalType": "bool"
										},
										{
											"name": "useVotingUnits",
											"type": "bool",
											"internalType": "bool"
										},
										{
											"name": "cannotBeRemoved",
											"type": "bool",
											"internalType": "bool"
										}
									]
								},
								{
									"name": "currency",
									"type": "uint32",
									"internalType": "uint32"
								},
								{
									"name": "decimals",
									"type": "uint8",
									"internalType": "uint8"
								},
								{
									"name": "prices",
									"type": "address",
									"internalType": "contract IJBPrices"
								}
							]
						},
						{
							"name": "reserveBeneficiary",
							"type": "address",
							"internalType": "address"
						},
						{
							"name": "flags",
							"type": "tuple",
							"internalType": "struct JB721TiersHookFlags",
							"components": [
								{
									"name": "noNewTiersWithReserves",
									"type": "bool",
									"internalType": "bool"
								},
								{
									"name": "noNewTiersWithVotes",
									"type": "bool",
									"internalType": "bool"
								},
								{
									"name": "noNewTiersWithOwnerMinting",
									"type": "bool",
									"internalType": "bool"
								},
								{
									"name": "preventOverspending",
									"type": "bool",
									"internalType": "bool"
								}
							]
						}
					]
				},
				{
					"name": "queueRulesetsConfig",
					"type": "tuple",
					"internalType": "struct JBQueueRulesetsConfig",
					"components": [
						{
							"name": "projectId",
							"type": "uint56",
							"internalType": "uint56"
						},
						{
							"name": "rulesetConfigurations",
							"type": "tuple[]",
							"internalType": "struct JBPayDataHookRulesetConfig[]",
							"components": [
								{
									"name": "mustStartAtOrAfter",
									"type": "uint48",
									"internalType": "uint48"
								},
								{
									"name": "duration",
									"type": "uint32",
									"internalType": "uint32"
								},
								{
									"name": "weight",
									"type": "uint112",
									"internalType": "uint112"
								},
								{
									"name": "decayRate",
									"type": "uint32",
									"internalType": "uint32"
								},
								{
									"name": "approvalHook",
									"type": "address",
									"internalType": "contract IJBRulesetApprovalHook"
								},
								{
									"name": "metadata",
									"type": "tuple",
									"internalType": "struct JBPayDataHookRulesetMetadata",
									"components": [
										{
											"name": "reservedRate",
											"type": "uint16",
											"internalType": "uint16"
										},
										{
											"name": "redemptionRate",
											"type": "uint16",
											"internalType": "uint16"
										},
										{
											"name": "baseCurrency",
											"type": "uint32",
											"internalType": "uint32"
										},
										{
											"name": "pausePay",
											"type": "bool",
											"internalType": "bool"
										},
										{
											"name": "pauseCreditTransfers",
											"type": "bool",
											"internalType": "bool"
										},
										{
											"name": "allowOwnerMinting",
											"type": "bool",
											"internalType": "bool"
										},
										{
											"name": "allowTerminalMigration",
											"type": "bool",
											"internalType": "bool"
										},
										{
											"name": "allowSetTerminals",
											"type": "bool",
											"internalType": "bool"
										},
										{
											"name": "allowSetController",
											"type": "bool",
											"internalType": "bool"
										},
										{
											"name": "allowAddAccountingContext",
											"type": "bool",
											"internalType": "bool"
										},
										{
											"name": "allowAddPriceFeed",
											"type": "bool",
											"internalType": "bool"
										},
										{
											"name": "ownerMustSendPayouts",
											"type": "bool",
											"internalType": "bool"
										},
										{
											"name": "holdFees",
											"type": "bool",
											"internalType": "bool"
										},
										{
											"name": "useTotalSurplusForRedemptions",
											"type": "bool",
											"internalType": "bool"
										},
										{
											"name": "useDataHookForRedeem",
											"type": "bool",
											"internalType": "bool"
										},
										{
											"name": "metadata",
											"type": "uint16",
											"internalType": "uint16"
										}
									]
								},
								{
									"name": "splitGroups",
									"type": "tuple[]",
									"internalType": "struct JBSplitGroup[]",
									"components": [
										{
											"name": "groupId",
											"type": "uint256",
											"internalType": "uint256"
										},
										{
											"name": "splits",
											"type": "tuple[]",
											"internalType": "struct JBSplit[]",
											"components": [
												{
													"name": "preferAddToBalance",
													"type": "bool",
													"internalType": "bool"
												},
												{
													"name": "percent",
													"type": "uint32",
													"internalType": "uint32"
												},
												{
													"name": "projectId",
													"type": "uint56",
													"internalType": "uint56"
												},
												{
													"name": "beneficiary",
													"type": "address",
													"internalType": "address payable"
												},
												{
													"name": "lockedUntil",
													"type": "uint48",
													"internalType": "uint48"
												},
												{
													"name": "hook",
													"type": "address",
													"internalType": "contract IJBSplitHook"
												}
											]
										}
									]
								},
								{
									"name": "fundAccessLimitGroups",
									"type": "tuple[]",
									"internalType": "struct JBFundAccessLimitGroup[]",
									"components": [
										{
											"name": "terminal",
											"type": "address",
											"internalType": "address"
										},
										{
											"name": "token",
											"type": "address",
											"internalType": "address"
										},
										{
											"name": "payoutLimits",
											"type": "tuple[]",
											"internalType": "struct JBCurrencyAmount[]",
											"components": [
												{
													"name": "amount",
													"type": "uint224",
													"internalType": "uint224"
												},
												{
													"name": "currency",
													"type": "uint32",
													"internalType": "uint32"
												}
											]
										},
										{
											"name": "surplusAllowances",
											"type": "tuple[]",
											"internalType": "struct JBCurrencyAmount[]",
											"components": [
												{
													"name": "amount",
													"type": "uint224",
													"internalType": "uint224"
												},
												{
													"name": "currency",
													"type": "uint32",
													"internalType": "uint32"
												}
											]
										}
									]
								}
							]
						},
						{
							"name": "memo",
							"type": "string",
							"internalType": "string"
						}
					]
				},
				{
					"name": "controller",
					"type": "address",
					"internalType": "contract IJBController"
				}
			],
			"outputs": [
				{
					"name": "rulesetId",
					"type": "uint256",
					"internalType": "uint256"
				}
			],
			"stateMutability": "nonpayable"
		},
		{
			"type": "error",
			"name": "UNAUTHORIZED",
			"inputs": []
		}
	],
	"solcInputHash": "d81caa5ac61d26e075427509da5bb5f6",
	"args": [
		"0x877e8e31eD1Bf9F628EfA25636c5bC9Dd83BAA77",
		"0xcfBA13b8DCb2bb4f84C5d2704882009a539Bee9A",
		"0x0681CdAD31DAd70C65f8A68551d5cdA78f39F960"
	],
	"bytecode": "0x60e06040523480156200001157600080fd5b5060405162002c3738038062002c3783398101604081905262000034916200006b565b6001600160a01b0391821660805291811660a0521660c052620000bf565b6001600160a01b03811681146200006857600080fd5b50565b6000806000606084860312156200008157600080fd5b83516200008e8162000052565b6020850151909350620000a18162000052565b6040850151909250620000b48162000052565b809150509250925092565b60805160a05160c051612b196200011e6000396000818160e1015281816102670152818161044a01526105c701526000818160a20152818161015701528181610358015261055101526000818161011b015261071b0152612b196000f3fe608060405234801561001057600080fd5b50600436106100725760003560e01c8063be068ead11610050578063be068ead14610103578063f434c91414610116578063fa4bcefe1461013d57600080fd5b806362898d9a1461007757806388bc2ef31461009d578063abf8c5c8146100dc575b600080fd5b61008a610085366004611e27565b610150565b6040519081526020015b60405180910390f35b6100c47f000000000000000000000000000000000000000000000000000000000000000081565b6040516001600160a01b039091168152602001610094565b6100c47f000000000000000000000000000000000000000000000000000000000000000081565b61008a61011136600461206a565b610354565b6100c47f000000000000000000000000000000000000000000000000000000000000000081565b61008a61014b366004612182565b61054a565b600061024d7f00000000000000000000000000000000000000000000000000000000000000006001600160a01b031663293c49996040518163ffffffff1660e01b8152600401602060405180830381865afa1580156101b3573d6000803e3d6000fd5b505050506040513d601f19601f820116820180604052508101906101d79190612212565b6001600160a01b0316636352211e876040518263ffffffff1660e01b815260040161020491815260200190565b602060405180830381865afa158015610221573d6000803e3d6000fd5b505050506040513d601f19601f820116820180604052508101906102459190612212565b8660026106aa565b604051632230819f60e01b81526000906001600160a01b037f00000000000000000000000000000000000000000000000000000000000000001690632230819f9061029e908990899060040161239c565b6020604051808303816000875af11580156102bd573d6000803e3d6000fd5b505050506040513d601f19601f820116820180604052508101906102e19190612212565b6040516351106b4b60e11b8152600481018890529091506001600160a01b0382169063a220d69690602401600060405180830381600087803b15801561032657600080fd5b505af115801561033a573d6000803e3d6000fd5b5050505061034a868583866107c5565b9695505050505050565b60007f00000000000000000000000000000000000000000000000000000000000000006001600160a01b031663293c49996040518163ffffffff1660e01b8152600401602060405180830381865afa1580156103b4573d6000803e3d6000fd5b505050506040513d601f19601f820116820180604052508101906103d89190612212565b6001600160a01b03166306661abd6040518163ffffffff1660e01b8152600401602060405180830381865afa158015610415573d6000803e3d6000fd5b505050506040513d601f19601f8201168201806040525081019061043991906124d4565b6104449060016124ed565b905060007f00000000000000000000000000000000000000000000000000000000000000006001600160a01b0316632230819f83876040518363ffffffff1660e01b815260040161049692919061239c565b6020604051808303816000875af11580156104b5573d6000803e3d6000fd5b505050506040513d601f19601f820116820180604052508101906104d99190612212565b90506104e786858386610ad8565b6040516351106b4b60e11b8152600481018390526001600160a01b0382169063a220d69690602401600060405180830381600087803b15801561052957600080fd5b505af115801561053d573d6000803e3d6000fd5b5050505050949350505050565b60006105ad7f00000000000000000000000000000000000000000000000000000000000000006001600160a01b031663293c49996040518163ffffffff1660e01b8152600401602060405180830381865afa1580156101b3573d6000803e3d6000fd5b604051632230819f60e01b81526000906001600160a01b037f00000000000000000000000000000000000000000000000000000000000000001690632230819f906105fe908990899060040161239c565b6020604051808303816000875af115801561061d573d6000803e3d6000fd5b505050506040513d601f19601f820116820180604052508101906106419190612212565b6040516351106b4b60e11b8152600481018890529091506001600160a01b0382169063a220d69690602401600060405180830381600087803b15801561068657600080fd5b505af115801561069a573d6000803e3d6000fd5b5050505061034a86858386610dee565b336001600160a01b038416811480159061078857506040517f348b684e0000000000000000000000000000000000000000000000000000000081526001600160a01b0382811660048301528581166024830152604482018590526064820184905260016084830181905260a48301527f0000000000000000000000000000000000000000000000000000000000000000169063348b684e9060c401602060405180830381865afa158015610762573d6000803e3d6000fd5b505050506040513d601f19601f820116820180604052508101906107869190612514565b155b156107bf576040517f075fd2b100000000000000000000000000000000000000000000000000000000815260040160405180910390fd5b50505050565b602083015151600090818167ffffffffffffffff8111156107e8576107e861123d565b60405190808252806020026020018201604052801561082157816020015b61080e6110b7565b8152602001906001900390816108065790505b50905061082c61118e565b60005b83811015610a3b578760200151818151811061084d5761084d612531565b60200260200101519150604051806101000160405280836000015165ffffffffffff168152602001836020015163ffffffff16815260200183604001516dffffffffffffffffffffffffffff168152602001836060015163ffffffff16815260200183608001516001600160a01b031681526020016040518061026001604052808560a001516000015161ffff1681526020018560a001516020015161ffff1681526020018560a001516040015163ffffffff1681526020018560a0015160600151151581526020018560a0015160800151151581526020018560a0015160a00151151581526020016000151581526020018560a0015160c00151151581526020018560a0015160e00151151581526020018560a001516101000151151581526020018560a001516101200151151581526020018560a001516101400151151581526020018560a001516101600151151581526020018560a001516101800151151581526020018560a001516101a00151151581526020016001151581526020018560a001516101c00151151581526020018a6001600160a01b031681526020018560a001516101e0015161ffff1681525081526020018360c0015181526020018360e00151815250838281518110610a2857610a28612531565b602090810291909101015260010161082f565b5060408088015190517ff905007a0000000000000000000000000000000000000000000000000000000081526001600160a01b0387169163f905007a91610a89918c9187919060040161295e565b6020604051808303816000875af1158015610aa8573d6000803e3d6000fd5b505050506040513d601f19601f82011682018060405250810190610acc91906124d4565b98975050505050505050565b60208301515160008167ffffffffffffffff811115610af957610af961123d565b604051908082528060200260200182016040528015610b3257816020015b610b1f6110b7565b815260200190600190039081610b175790505b509050610b3d61118e565b60005b83811015610d4c5786602001518181518110610b5e57610b5e612531565b60200260200101519150604051806101000160405280836000015165ffffffffffff168152602001836020015163ffffffff16815260200183604001516dffffffffffffffffffffffffffff168152602001836060015163ffffffff16815260200183608001516001600160a01b031681526020016040518061026001604052808560a001516000015161ffff1681526020018560a001516020015161ffff1681526020018560a001516040015163ffffffff1681526020018560a0015160600151151581526020018560a0015160800151151581526020018560a0015160a00151151581526020016000151581526020018560a0015160c00151151581526020018560a0015160e00151151581526020018560a001516101000151151581526020018560a001516101200151151581526020018560a001516101400151151581526020018560a001516101600151151581526020018560a001516101800151151581526020018560a001516101a00151151581526020016001151581526020018560a001516101c0015115158152602001896001600160a01b031681526020018560a001516101e0015161ffff1681525081526020018360c0015181526020018360e00151815250838281518110610d3957610d39612531565b6020908102919091010152600101610b40565b508551604080880151606089015191517f4fb99a3f0000000000000000000000000000000000000000000000000000000081526001600160a01b03881693634fb99a3f93610da1938d93899290600401612a3d565b6020604051808303816000875af1158015610dc0573d6000803e3d6000fd5b505050506040513d601f19601f82011682018060405250810190610de491906124d4565b5050505050505050565b602083015151600090818167ffffffffffffffff811115610e1157610e1161123d565b604051908082528060200260200182016040528015610e4a57816020015b610e376110b7565b815260200190600190039081610e2f5790505b509050610e5561118e565b60005b838110156110645787602001518181518110610e7657610e76612531565b60200260200101519150604051806101000160405280836000015165ffffffffffff168152602001836020015163ffffffff16815260200183604001516dffffffffffffffffffffffffffff168152602001836060015163ffffffff16815260200183608001516001600160a01b031681526020016040518061026001604052808560a001516000015161ffff1681526020018560a001516020015161ffff1681526020018560a001516040015163ffffffff1681526020018560a0015160600151151581526020018560a0015160800151151581526020018560a0015160a00151151581526020016000151581526020018560a0015160c00151151581526020018560a0015160e00151151581526020018560a001516101000151151581526020018560a001516101200151151581526020018560a001516101400151151581526020018560a001516101600151151581526020018560a001516101800151151581526020018560a001516101a00151151581526020016001151581526020018560a001516101c00151151581526020018a6001600160a01b031681526020018560a001516101e0015161ffff1681525081526020018360c0015181526020018360e0015181525083828151811061105157611051612531565b6020908102919091010152600101610e58565b50604080880151606089015191517fb1d596850000000000000000000000000000000000000000000000000000000081526001600160a01b0388169263b1d5968592610a89928d92889291600401612a99565b6040805161010080820183526000808352602080840182905283850182905260608085018390526080808601849052865161026081018852848152928301849052958201839052810182905293840181905260a084810182905260c0850182905260e0850182905291840181905261012084018190526101408401819052610160840181905261018084018190526101a084018190526101c084018190526101e08401819052610200840181905261022084018190526102408401529091908201905b815260200160608152602001606081525090565b6040805161010080820183526000808352602080840182905283850182905260608085018390526080808601849052865161020081018852848152928301849052958201839052810182905293840181905260a084810182905260c0850182905260e0850182905291840181905261012084018190526101408401819052610160840181905261018084018190526101a084018190526101c084018190526101e084015290919082019061117a565b634e487b7160e01b600052604160045260246000fd5b6040516080810167ffffffffffffffff811182821017156112765761127661123d565b60405290565b604051610180810167ffffffffffffffff811182821017156112765761127661123d565b604051610120810167ffffffffffffffff811182821017156112765761127661123d565b604051610200810167ffffffffffffffff811182821017156112765761127661123d565b6040805190810167ffffffffffffffff811182821017156112765761127661123d565b60405160c0810167ffffffffffffffff811182821017156112765761127661123d565b604051610100810167ffffffffffffffff811182821017156112765761127661123d565b6040516060810167ffffffffffffffff811182821017156112765761127661123d565b604051601f8201601f1916810167ffffffffffffffff8111828210171561139e5761139e61123d565b604052919050565b600082601f8301126113b757600080fd5b813567ffffffffffffffff8111156113d1576113d161123d565b6113e4601f8201601f1916602001611375565b8181528460208386010111156113f957600080fd5b816020850160208301376000918101602001919091529392505050565b6001600160a01b038116811461142b57600080fd5b50565b803561143981611416565b919050565b600067ffffffffffffffff8211156114585761145861123d565b5060051b60200190565b80356cffffffffffffffffffffffffff8116811461143957600080fd5b803563ffffffff8116811461143957600080fd5b803561ffff8116811461143957600080fd5b803562ffffff8116811461143957600080fd5b801515811461142b57600080fd5b8035611439816114b8565b803560ff8116811461143957600080fd5b600060808083850312156114f557600080fd5b6114fd611253565b9150823567ffffffffffffffff81111561151657600080fd5b8301601f8101851361152757600080fd5b8035602061153c6115378361143e565b611375565b828152610180928302840182019282820191908985111561155c57600080fd5b948301945b8486101561164f5780868b0312156115795760008081fd5b61158161127c565b61158a87611462565b815261159785880161147f565b8582015260406115a881890161147f565b9082015260606115b9888201611493565b908201526115c887890161142e565b8189015260a0878101359082015260c06115e38189016114a5565b9082015260e06115f48882016114c6565b908201526101006116068882016114c6565b908201526101206116188882016114c6565b9082015261014061162a8882016114c6565b9082015261016061163c8882016114c6565b9082015283529485019491830191611561565b5086525061165e86820161147f565b8186015250505050611672604083016114d1565b60408201526116836060830161142e565b606082015292915050565b6000608082840312156116a057600080fd5b6116a8611253565b905081356116b5816114b8565b815260208201356116c5816114b8565b602082015260408201356116d8816114b8565b60408201526060820135611683816114b8565b600061018082840312156116fe57600080fd5b6117066112a0565b9050813567ffffffffffffffff8082111561172057600080fd5b61172c858386016113a6565b8352602084013591508082111561174257600080fd5b61174e858386016113a6565b602084015261175f6040850161142e565b6040840152606084013591508082111561177857600080fd5b611784858386016113a6565b60608401526117956080850161142e565b608084015260a08401359150808211156117ae57600080fd5b6117ba858386016113a6565b60a084015260c08401359150808211156117d357600080fd5b506117e0848285016114e2565b60c0830152506117f260e0830161142e565b60e08201526101006118068482850161168e565b9082015292915050565b803566ffffffffffffff8116811461143957600080fd5b803565ffffffffffff8116811461143957600080fd5b80356dffffffffffffffffffffffffffff8116811461143957600080fd5b6000610200828403121561186e57600080fd5b6118766112c4565b905061188182611493565b815261188f60208301611493565b60208201526118a06040830161147f565b60408201526118b1606083016114c6565b60608201526118c2608083016114c6565b60808201526118d360a083016114c6565b60a08201526118e460c083016114c6565b60c08201526118f560e083016114c6565b60e08201526101006119088184016114c6565b9082015261012061191a8382016114c6565b9082015261014061192c8382016114c6565b9082015261016061193e8382016114c6565b908201526101806119508382016114c6565b908201526101a06119628382016114c6565b908201526101c06119748382016114c6565b908201526101e0611806838201611493565b600082601f83011261199757600080fd5b813560206119a76115378361143e565b82815260059290921b840181019181810190868411156119c657600080fd5b8286015b84811015611b1557803567ffffffffffffffff808211156119ea57600080fd5b908801906040828b03601f1901811315611a0357600080fd5b611a0b6112e8565b8784013581528184013583811115611a2257600080fd5b8085019450508b603f850112611a3757600080fd5b878401359250611a496115378461143e565b83815260c09093028401820192888101908d851115611a6757600080fd5b948301945b84861015611b005760c0868f031215611a8457600080fd5b611a8c61130b565b8635611a97816114b8565b8152611aa4878c0161147f565b8b820152611ab3858801611810565b858201526060870135611ac581611416565b6060820152611ad660808801611827565b608082015260a0870135611ae981611416565b60a0820152825260c0959095019490890190611a6c565b828a01525086525050509183019183016119ca565b509695505050505050565b600082601f830112611b3157600080fd5b81356020611b416115378361143e565b82815260069290921b84018101918181019086841115611b6057600080fd5b8286015b84811015611b155760408189031215611b7d5760008081fd5b611b856112e8565b81357bffffffffffffffffffffffffffffffffffffffffffffffffffffffff81168114611bb25760008081fd5b8152611bbf82860161147f565b81860152835291830191604001611b64565b600082601f830112611be257600080fd5b81356020611bf26115378361143e565b82815260059290921b84018101918181019086841115611c1157600080fd5b8286015b84811015611b1557803567ffffffffffffffff80821115611c365760008081fd5b908801906080828b03601f1901811315611c505760008081fd5b611c58611253565b87840135611c6581611416565b8152604084810135611c7681611416565b828a015260608581013585811115611c8e5760008081fd5b611c9c8f8c838a0101611b20565b8484015250928501359284841115611cb657600091508182fd5b611cc48e8b86890101611b20565b90830152508652505050918301918301611c15565b600082601f830112611cea57600080fd5b81356020611cfa6115378361143e565b82815260059290921b84018101918181019086841115611d1957600080fd5b8286015b84811015611b1557803567ffffffffffffffff80821115611d3e5760008081fd5b908801906102e0828b03601f1901811315611d595760008081fd5b611d6161132e565b611d6c888501611827565b81526040611d7b81860161147f565b898301526060611d8c81870161183d565b8284015260809150611d9f82870161147f565b9083015260a0611db086820161142e565b8284015260c09150611dc48e83880161185b565b908301526102c085013584811115611ddc5760008081fd5b611dea8e8b83890101611986565b82840152505081840135915082821115611e045760008081fd5b611e128c8984870101611bd1565b60e08201528652505050918301918301611d1d565b60008060008060808587031215611e3d57600080fd5b84359350602085013567ffffffffffffffff80821115611e5c57600080fd5b611e68888389016116eb565b94506040870135915080821115611e7e57600080fd5b9086019060608289031215611e9257600080fd5b611e9a611352565b611ea383611810565b8152602083013582811115611eb757600080fd5b611ec38a828601611cd9565b602083015250604083013582811115611edb57600080fd5b611ee78a8286016113a6565b6040830152509350611efe9150506060860161142e565b905092959194509250565b600082601f830112611f1a57600080fd5b81356020611f2a6115378361143e565b82815260059290921b84018101918181019086841115611f4957600080fd5b8286015b84811015611b1557803567ffffffffffffffff80821115611f6d57600080fd5b908801906040828b03601f1901811315611f8657600080fd5b611f8e6112e8565b87840135611f9b81611416565b81528382013583811115611fae57600080fd5b8085019450508b603f850112611fc357600080fd5b878401359250611fd56115378461143e565b83815260609093028401820192888101908d851115611ff357600080fd5b948301945b84861015612055576060868f03121561201057600080fd5b612018611352565b863561202381611416565b8152612030878c016114d1565b8b82015261203f85880161147f565b8186015282526060959095019490890190611ff8565b828a0152508652505050918301918301611f4d565b6000806000806080858703121561208057600080fd5b843561208b81611416565b9350602085013567ffffffffffffffff808211156120a857600080fd5b6120b4888389016116eb565b945060408701359150808211156120ca57600080fd5b90860190608082890312156120de57600080fd5b6120e6611253565b8235828111156120f557600080fd5b6121018a8286016113a6565b82525060208301358281111561211657600080fd5b6121228a828601611cd9565b60208301525060408301358281111561213a57600080fd5b6121468a828601611f09565b60408301525060608301358281111561215e57600080fd5b61216a8a8286016113a6565b606083015250809450505050611efe6060860161142e565b6000806000806080858703121561219857600080fd5b84359350602085013567ffffffffffffffff808211156121b757600080fd5b6121c3888389016116eb565b945060408701359150808211156121d957600080fd5b90860190608082890312156121ed57600080fd5b6121f5611253565b6121fe83611810565b815260208301358281111561211657600080fd5b60006020828403121561222457600080fd5b815161222f81611416565b9392505050565b6000815180845260005b8181101561225c57602081850181015186830182015201612240565b506000602082860101526020601f19601f83011685010191505092915050565b80516080808452815184820181905260009260a0916020918201918388019190865b8281101561236157845180516cffffffffffffffffffffffffff1685528281015163ffffffff908116848701526040808301519091169086015260608082015161ffff1690860152878101516001600160a01b031688860152868101518786015260c08082015162ffffff169086015260e08082015115159086015261010080820151151590860152610120808201511515908601526101408082015115159086015261016090810151151590850152938101936101809093019260010161229e565b508781015163ffffffff16908901525060408087015160ff16908801526060808701516001600160a01b03811691890191909152935061034a565b828152604060208201526000825161018060408401526123c06101c0840182612236565b90506020840151603f19808584030160608601526123de8383612236565b9250604086015191506123fc60808601836001600160a01b03169052565b60608601519150808584030160a08601526124178383612236565b92506080860151915061243560c08601836001600160a01b03169052565b60a08601519150808584030160e08601526124508383612236565b925060c0860151915061010081868503018187015261246f848461227c565b935060e0870151925061248e6101208701846001600160a01b03169052565b860151805115156101408701526020810151151561016087015260408101511515610180870152606081015115156101a087015291506124cb9050565b50949350505050565b6000602082840312156124e657600080fd5b5051919050565b8082018082111561250e57634e487b7160e01b600052601160045260246000fd5b92915050565b60006020828403121561252657600080fd5b815161222f816114b8565b634e487b7160e01b600052603260045260246000fd5b805161ffff1682526020810151612564602084018261ffff169052565b50604081015161257c604084018263ffffffff169052565b506060810151612590606084018215159052565b5060808101516125a4608084018215159052565b5060a08101516125b860a084018215159052565b5060c08101516125cc60c084018215159052565b5060e08101516125e060e084018215159052565b5061010081810151151590830152610120808201511515908301526101408082015115159083015261016080820151151590830152610180808201511515908301526101a0808201511515908301526101c0808201511515908301526101e08082015115159083015261020080820151151590830152610220808201516001600160a01b0316908301526102408082015161ffff8116828501526107bf565b600082825180855260208086019550808260051b8401018186016000805b8581101561275c57868403601f19018a52825180518552850151604086860181905281518187018190529187019160609081880190865b818110156127455785518051151584528b81015163ffffffff168c8501528581015166ffffffffffffff1686850152848101516001600160a01b039081168686015260808083015165ffffffffffff169086015260a0918201511690840152948a019460c0909201916001016126d4565b50509c88019c96505050928501925060010161269d565b509198975050505050505050565b60008151808452602080850194506020840160005b838110156127ca57815180517bffffffffffffffffffffffffffffffffffffffffffffffffffffffff16885283015163ffffffff16838801526040909601959082019060010161277f565b509495945050505050565b600082825180855260208086019550808260051b84010181860160005b8481101561286957601f19868403018952815160806001600160a01b03808351168652808784015116878701525060408083015182828801526128378388018261276a565b9250505060608083015192508582038187015250612855818361276a565b9a86019a94505050908301906001016127f2565b5090979650505050505050565b600082825180855260208086019550808260051b84010181860160005b8481101561286957601f198684030189528151805165ffffffffffff1684528481015163ffffffff908116868601526040808301516dffffffffffffffffffffffffffff1690860152606080830151909116908501526080808201516001600160a01b03169085015260a080820151610340919061291382880182612547565b505060c08201518161030087015261292d8287018261267f565b91505060e0820151915084810361032086015261294a81836127d5565b9a86019a9450505090830190600101612893565b8381526060602082015260006129776060830185612876565b828103604084015261034a8185612236565b600082825180855260208086019550808260051b8401018186016000805b8581101561275c57868403601f19018a52825180516001600160a01b03908116865290860151604087870181905281518188018190529188019290916060919082890190875b81811015612a255786518051851684528c81015160ff168d85015286015163ffffffff1686840152958b0195918401916001016129ed565b50509d89019d975050509386019350506001016129a7565b6001600160a01b038616815260a060208201526000612a5f60a0830187612236565b8281036040840152612a718187612876565b90508281036060840152612a858186612989565b90508281036080840152610acc8185612236565b848152608060208201526000612ab26080830186612876565b8281036040840152612ac48186612989565b90508281036060840152612ad88185612236565b97965050505050505056fea2646970667358221220a78c5126ecc5c2e073db2e6050a67a3f749e0e9af9bfdc3b2c741259ab0f269964736f6c63430008170033",
	"deployedBytecode": "0x608060405234801561001057600080fd5b50600436106100725760003560e01c8063be068ead11610050578063be068ead14610103578063f434c91414610116578063fa4bcefe1461013d57600080fd5b806362898d9a1461007757806388bc2ef31461009d578063abf8c5c8146100dc575b600080fd5b61008a610085366004611e27565b610150565b6040519081526020015b60405180910390f35b6100c47f000000000000000000000000877e8e31ed1bf9f628efa25636c5bc9dd83baa7781565b6040516001600160a01b039091168152602001610094565b6100c47f0000000000000000000000000681cdad31dad70c65f8a68551d5cda78f39f96081565b61008a61011136600461206a565b610354565b6100c47f000000000000000000000000cfba13b8dcb2bb4f84c5d2704882009a539bee9a81565b61008a61014b366004612182565b61054a565b600061024d7f000000000000000000000000877e8e31ed1bf9f628efa25636c5bc9dd83baa776001600160a01b031663293c49996040518163ffffffff1660e01b8152600401602060405180830381865afa1580156101b3573d6000803e3d6000fd5b505050506040513d601f19601f820116820180604052508101906101d79190612212565b6001600160a01b0316636352211e876040518263ffffffff1660e01b815260040161020491815260200190565b602060405180830381865afa158015610221573d6000803e3d6000fd5b505050506040513d601f19601f820116820180604052508101906102459190612212565b8660026106aa565b604051632230819f60e01b81526000906001600160a01b037f0000000000000000000000000681cdad31dad70c65f8a68551d5cda78f39f9601690632230819f9061029e908990899060040161239c565b6020604051808303816000875af11580156102bd573d6000803e3d6000fd5b505050506040513d601f19601f820116820180604052508101906102e19190612212565b6040516351106b4b60e11b8152600481018890529091506001600160a01b0382169063a220d69690602401600060405180830381600087803b15801561032657600080fd5b505af115801561033a573d6000803e3d6000fd5b5050505061034a868583866107c5565b9695505050505050565b60007f000000000000000000000000877e8e31ed1bf9f628efa25636c5bc9dd83baa776001600160a01b031663293c49996040518163ffffffff1660e01b8152600401602060405180830381865afa1580156103b4573d6000803e3d6000fd5b505050506040513d601f19601f820116820180604052508101906103d89190612212565b6001600160a01b03166306661abd6040518163ffffffff1660e01b8152600401602060405180830381865afa158015610415573d6000803e3d6000fd5b505050506040513d601f19601f8201168201806040525081019061043991906124d4565b6104449060016124ed565b905060007f0000000000000000000000000681cdad31dad70c65f8a68551d5cda78f39f9606001600160a01b0316632230819f83876040518363ffffffff1660e01b815260040161049692919061239c565b6020604051808303816000875af11580156104b5573d6000803e3d6000fd5b505050506040513d601f19601f820116820180604052508101906104d99190612212565b90506104e786858386610ad8565b6040516351106b4b60e11b8152600481018390526001600160a01b0382169063a220d69690602401600060405180830381600087803b15801561052957600080fd5b505af115801561053d573d6000803e3d6000fd5b5050505050949350505050565b60006105ad7f000000000000000000000000877e8e31ed1bf9f628efa25636c5bc9dd83baa776001600160a01b031663293c49996040518163ffffffff1660e01b8152600401602060405180830381865afa1580156101b3573d6000803e3d6000fd5b604051632230819f60e01b81526000906001600160a01b037f0000000000000000000000000681cdad31dad70c65f8a68551d5cda78f39f9601690632230819f906105fe908990899060040161239c565b6020604051808303816000875af115801561061d573d6000803e3d6000fd5b505050506040513d601f19601f820116820180604052508101906106419190612212565b6040516351106b4b60e11b8152600481018890529091506001600160a01b0382169063a220d69690602401600060405180830381600087803b15801561068657600080fd5b505af115801561069a573d6000803e3d6000fd5b5050505061034a86858386610dee565b336001600160a01b038416811480159061078857506040517f348b684e0000000000000000000000000000000000000000000000000000000081526001600160a01b0382811660048301528581166024830152604482018590526064820184905260016084830181905260a48301527f000000000000000000000000cfba13b8dcb2bb4f84c5d2704882009a539bee9a169063348b684e9060c401602060405180830381865afa158015610762573d6000803e3d6000fd5b505050506040513d601f19601f820116820180604052508101906107869190612514565b155b156107bf576040517f075fd2b100000000000000000000000000000000000000000000000000000000815260040160405180910390fd5b50505050565b602083015151600090818167ffffffffffffffff8111156107e8576107e861123d565b60405190808252806020026020018201604052801561082157816020015b61080e6110b7565b8152602001906001900390816108065790505b50905061082c61118e565b60005b83811015610a3b578760200151818151811061084d5761084d612531565b60200260200101519150604051806101000160405280836000015165ffffffffffff168152602001836020015163ffffffff16815260200183604001516dffffffffffffffffffffffffffff168152602001836060015163ffffffff16815260200183608001516001600160a01b031681526020016040518061026001604052808560a001516000015161ffff1681526020018560a001516020015161ffff1681526020018560a001516040015163ffffffff1681526020018560a0015160600151151581526020018560a0015160800151151581526020018560a0015160a00151151581526020016000151581526020018560a0015160c00151151581526020018560a0015160e00151151581526020018560a001516101000151151581526020018560a001516101200151151581526020018560a001516101400151151581526020018560a001516101600151151581526020018560a001516101800151151581526020018560a001516101a00151151581526020016001151581526020018560a001516101c00151151581526020018a6001600160a01b031681526020018560a001516101e0015161ffff1681525081526020018360c0015181526020018360e00151815250838281518110610a2857610a28612531565b602090810291909101015260010161082f565b5060408088015190517ff905007a0000000000000000000000000000000000000000000000000000000081526001600160a01b0387169163f905007a91610a89918c9187919060040161295e565b6020604051808303816000875af1158015610aa8573d6000803e3d6000fd5b505050506040513d601f19601f82011682018060405250810190610acc91906124d4565b98975050505050505050565b60208301515160008167ffffffffffffffff811115610af957610af961123d565b604051908082528060200260200182016040528015610b3257816020015b610b1f6110b7565b815260200190600190039081610b175790505b509050610b3d61118e565b60005b83811015610d4c5786602001518181518110610b5e57610b5e612531565b60200260200101519150604051806101000160405280836000015165ffffffffffff168152602001836020015163ffffffff16815260200183604001516dffffffffffffffffffffffffffff168152602001836060015163ffffffff16815260200183608001516001600160a01b031681526020016040518061026001604052808560a001516000015161ffff1681526020018560a001516020015161ffff1681526020018560a001516040015163ffffffff1681526020018560a0015160600151151581526020018560a0015160800151151581526020018560a0015160a00151151581526020016000151581526020018560a0015160c00151151581526020018560a0015160e00151151581526020018560a001516101000151151581526020018560a001516101200151151581526020018560a001516101400151151581526020018560a001516101600151151581526020018560a001516101800151151581526020018560a001516101a00151151581526020016001151581526020018560a001516101c0015115158152602001896001600160a01b031681526020018560a001516101e0015161ffff1681525081526020018360c0015181526020018360e00151815250838281518110610d3957610d39612531565b6020908102919091010152600101610b40565b508551604080880151606089015191517f4fb99a3f0000000000000000000000000000000000000000000000000000000081526001600160a01b03881693634fb99a3f93610da1938d93899290600401612a3d565b6020604051808303816000875af1158015610dc0573d6000803e3d6000fd5b505050506040513d601f19601f82011682018060405250810190610de491906124d4565b5050505050505050565b602083015151600090818167ffffffffffffffff811115610e1157610e1161123d565b604051908082528060200260200182016040528015610e4a57816020015b610e376110b7565b815260200190600190039081610e2f5790505b509050610e5561118e565b60005b838110156110645787602001518181518110610e7657610e76612531565b60200260200101519150604051806101000160405280836000015165ffffffffffff168152602001836020015163ffffffff16815260200183604001516dffffffffffffffffffffffffffff168152602001836060015163ffffffff16815260200183608001516001600160a01b031681526020016040518061026001604052808560a001516000015161ffff1681526020018560a001516020015161ffff1681526020018560a001516040015163ffffffff1681526020018560a0015160600151151581526020018560a0015160800151151581526020018560a0015160a00151151581526020016000151581526020018560a0015160c00151151581526020018560a0015160e00151151581526020018560a001516101000151151581526020018560a001516101200151151581526020018560a001516101400151151581526020018560a001516101600151151581526020018560a001516101800151151581526020018560a001516101a00151151581526020016001151581526020018560a001516101c00151151581526020018a6001600160a01b031681526020018560a001516101e0015161ffff1681525081526020018360c0015181526020018360e0015181525083828151811061105157611051612531565b6020908102919091010152600101610e58565b50604080880151606089015191517fb1d596850000000000000000000000000000000000000000000000000000000081526001600160a01b0388169263b1d5968592610a89928d92889291600401612a99565b6040805161010080820183526000808352602080840182905283850182905260608085018390526080808601849052865161026081018852848152928301849052958201839052810182905293840181905260a084810182905260c0850182905260e0850182905291840181905261012084018190526101408401819052610160840181905261018084018190526101a084018190526101c084018190526101e08401819052610200840181905261022084018190526102408401529091908201905b815260200160608152602001606081525090565b6040805161010080820183526000808352602080840182905283850182905260608085018390526080808601849052865161020081018852848152928301849052958201839052810182905293840181905260a084810182905260c0850182905260e0850182905291840181905261012084018190526101408401819052610160840181905261018084018190526101a084018190526101c084018190526101e084015290919082019061117a565b634e487b7160e01b600052604160045260246000fd5b6040516080810167ffffffffffffffff811182821017156112765761127661123d565b60405290565b604051610180810167ffffffffffffffff811182821017156112765761127661123d565b604051610120810167ffffffffffffffff811182821017156112765761127661123d565b604051610200810167ffffffffffffffff811182821017156112765761127661123d565b6040805190810167ffffffffffffffff811182821017156112765761127661123d565b60405160c0810167ffffffffffffffff811182821017156112765761127661123d565b604051610100810167ffffffffffffffff811182821017156112765761127661123d565b6040516060810167ffffffffffffffff811182821017156112765761127661123d565b604051601f8201601f1916810167ffffffffffffffff8111828210171561139e5761139e61123d565b604052919050565b600082601f8301126113b757600080fd5b813567ffffffffffffffff8111156113d1576113d161123d565b6113e4601f8201601f1916602001611375565b8181528460208386010111156113f957600080fd5b816020850160208301376000918101602001919091529392505050565b6001600160a01b038116811461142b57600080fd5b50565b803561143981611416565b919050565b600067ffffffffffffffff8211156114585761145861123d565b5060051b60200190565b80356cffffffffffffffffffffffffff8116811461143957600080fd5b803563ffffffff8116811461143957600080fd5b803561ffff8116811461143957600080fd5b803562ffffff8116811461143957600080fd5b801515811461142b57600080fd5b8035611439816114b8565b803560ff8116811461143957600080fd5b600060808083850312156114f557600080fd5b6114fd611253565b9150823567ffffffffffffffff81111561151657600080fd5b8301601f8101851361152757600080fd5b8035602061153c6115378361143e565b611375565b828152610180928302840182019282820191908985111561155c57600080fd5b948301945b8486101561164f5780868b0312156115795760008081fd5b61158161127c565b61158a87611462565b815261159785880161147f565b8582015260406115a881890161147f565b9082015260606115b9888201611493565b908201526115c887890161142e565b8189015260a0878101359082015260c06115e38189016114a5565b9082015260e06115f48882016114c6565b908201526101006116068882016114c6565b908201526101206116188882016114c6565b9082015261014061162a8882016114c6565b9082015261016061163c8882016114c6565b9082015283529485019491830191611561565b5086525061165e86820161147f565b8186015250505050611672604083016114d1565b60408201526116836060830161142e565b606082015292915050565b6000608082840312156116a057600080fd5b6116a8611253565b905081356116b5816114b8565b815260208201356116c5816114b8565b602082015260408201356116d8816114b8565b60408201526060820135611683816114b8565b600061018082840312156116fe57600080fd5b6117066112a0565b9050813567ffffffffffffffff8082111561172057600080fd5b61172c858386016113a6565b8352602084013591508082111561174257600080fd5b61174e858386016113a6565b602084015261175f6040850161142e565b6040840152606084013591508082111561177857600080fd5b611784858386016113a6565b60608401526117956080850161142e565b608084015260a08401359150808211156117ae57600080fd5b6117ba858386016113a6565b60a084015260c08401359150808211156117d357600080fd5b506117e0848285016114e2565b60c0830152506117f260e0830161142e565b60e08201526101006118068482850161168e565b9082015292915050565b803566ffffffffffffff8116811461143957600080fd5b803565ffffffffffff8116811461143957600080fd5b80356dffffffffffffffffffffffffffff8116811461143957600080fd5b6000610200828403121561186e57600080fd5b6118766112c4565b905061188182611493565b815261188f60208301611493565b60208201526118a06040830161147f565b60408201526118b1606083016114c6565b60608201526118c2608083016114c6565b60808201526118d360a083016114c6565b60a08201526118e460c083016114c6565b60c08201526118f560e083016114c6565b60e08201526101006119088184016114c6565b9082015261012061191a8382016114c6565b9082015261014061192c8382016114c6565b9082015261016061193e8382016114c6565b908201526101806119508382016114c6565b908201526101a06119628382016114c6565b908201526101c06119748382016114c6565b908201526101e0611806838201611493565b600082601f83011261199757600080fd5b813560206119a76115378361143e565b82815260059290921b840181019181810190868411156119c657600080fd5b8286015b84811015611b1557803567ffffffffffffffff808211156119ea57600080fd5b908801906040828b03601f1901811315611a0357600080fd5b611a0b6112e8565b8784013581528184013583811115611a2257600080fd5b8085019450508b603f850112611a3757600080fd5b878401359250611a496115378461143e565b83815260c09093028401820192888101908d851115611a6757600080fd5b948301945b84861015611b005760c0868f031215611a8457600080fd5b611a8c61130b565b8635611a97816114b8565b8152611aa4878c0161147f565b8b820152611ab3858801611810565b858201526060870135611ac581611416565b6060820152611ad660808801611827565b608082015260a0870135611ae981611416565b60a0820152825260c0959095019490890190611a6c565b828a01525086525050509183019183016119ca565b509695505050505050565b600082601f830112611b3157600080fd5b81356020611b416115378361143e565b82815260069290921b84018101918181019086841115611b6057600080fd5b8286015b84811015611b155760408189031215611b7d5760008081fd5b611b856112e8565b81357bffffffffffffffffffffffffffffffffffffffffffffffffffffffff81168114611bb25760008081fd5b8152611bbf82860161147f565b81860152835291830191604001611b64565b600082601f830112611be257600080fd5b81356020611bf26115378361143e565b82815260059290921b84018101918181019086841115611c1157600080fd5b8286015b84811015611b1557803567ffffffffffffffff80821115611c365760008081fd5b908801906080828b03601f1901811315611c505760008081fd5b611c58611253565b87840135611c6581611416565b8152604084810135611c7681611416565b828a015260608581013585811115611c8e5760008081fd5b611c9c8f8c838a0101611b20565b8484015250928501359284841115611cb657600091508182fd5b611cc48e8b86890101611b20565b90830152508652505050918301918301611c15565b600082601f830112611cea57600080fd5b81356020611cfa6115378361143e565b82815260059290921b84018101918181019086841115611d1957600080fd5b8286015b84811015611b1557803567ffffffffffffffff80821115611d3e5760008081fd5b908801906102e0828b03601f1901811315611d595760008081fd5b611d6161132e565b611d6c888501611827565b81526040611d7b81860161147f565b898301526060611d8c81870161183d565b8284015260809150611d9f82870161147f565b9083015260a0611db086820161142e565b8284015260c09150611dc48e83880161185b565b908301526102c085013584811115611ddc5760008081fd5b611dea8e8b83890101611986565b82840152505081840135915082821115611e045760008081fd5b611e128c8984870101611bd1565b60e08201528652505050918301918301611d1d565b60008060008060808587031215611e3d57600080fd5b84359350602085013567ffffffffffffffff80821115611e5c57600080fd5b611e68888389016116eb565b94506040870135915080821115611e7e57600080fd5b9086019060608289031215611e9257600080fd5b611e9a611352565b611ea383611810565b8152602083013582811115611eb757600080fd5b611ec38a828601611cd9565b602083015250604083013582811115611edb57600080fd5b611ee78a8286016113a6565b6040830152509350611efe9150506060860161142e565b905092959194509250565b600082601f830112611f1a57600080fd5b81356020611f2a6115378361143e565b82815260059290921b84018101918181019086841115611f4957600080fd5b8286015b84811015611b1557803567ffffffffffffffff80821115611f6d57600080fd5b908801906040828b03601f1901811315611f8657600080fd5b611f8e6112e8565b87840135611f9b81611416565b81528382013583811115611fae57600080fd5b8085019450508b603f850112611fc357600080fd5b878401359250611fd56115378461143e565b83815260609093028401820192888101908d851115611ff357600080fd5b948301945b84861015612055576060868f03121561201057600080fd5b612018611352565b863561202381611416565b8152612030878c016114d1565b8b82015261203f85880161147f565b8186015282526060959095019490890190611ff8565b828a0152508652505050918301918301611f4d565b6000806000806080858703121561208057600080fd5b843561208b81611416565b9350602085013567ffffffffffffffff808211156120a857600080fd5b6120b4888389016116eb565b945060408701359150808211156120ca57600080fd5b90860190608082890312156120de57600080fd5b6120e6611253565b8235828111156120f557600080fd5b6121018a8286016113a6565b82525060208301358281111561211657600080fd5b6121228a828601611cd9565b60208301525060408301358281111561213a57600080fd5b6121468a828601611f09565b60408301525060608301358281111561215e57600080fd5b61216a8a8286016113a6565b606083015250809450505050611efe6060860161142e565b6000806000806080858703121561219857600080fd5b84359350602085013567ffffffffffffffff808211156121b757600080fd5b6121c3888389016116eb565b945060408701359150808211156121d957600080fd5b90860190608082890312156121ed57600080fd5b6121f5611253565b6121fe83611810565b815260208301358281111561211657600080fd5b60006020828403121561222457600080fd5b815161222f81611416565b9392505050565b6000815180845260005b8181101561225c57602081850181015186830182015201612240565b506000602082860101526020601f19601f83011685010191505092915050565b80516080808452815184820181905260009260a0916020918201918388019190865b8281101561236157845180516cffffffffffffffffffffffffff1685528281015163ffffffff908116848701526040808301519091169086015260608082015161ffff1690860152878101516001600160a01b031688860152868101518786015260c08082015162ffffff169086015260e08082015115159086015261010080820151151590860152610120808201511515908601526101408082015115159086015261016090810151151590850152938101936101809093019260010161229e565b508781015163ffffffff16908901525060408087015160ff16908801526060808701516001600160a01b03811691890191909152935061034a565b828152604060208201526000825161018060408401526123c06101c0840182612236565b90506020840151603f19808584030160608601526123de8383612236565b9250604086015191506123fc60808601836001600160a01b03169052565b60608601519150808584030160a08601526124178383612236565b92506080860151915061243560c08601836001600160a01b03169052565b60a08601519150808584030160e08601526124508383612236565b925060c0860151915061010081868503018187015261246f848461227c565b935060e0870151925061248e6101208701846001600160a01b03169052565b860151805115156101408701526020810151151561016087015260408101511515610180870152606081015115156101a087015291506124cb9050565b50949350505050565b6000602082840312156124e657600080fd5b5051919050565b8082018082111561250e57634e487b7160e01b600052601160045260246000fd5b92915050565b60006020828403121561252657600080fd5b815161222f816114b8565b634e487b7160e01b600052603260045260246000fd5b805161ffff1682526020810151612564602084018261ffff169052565b50604081015161257c604084018263ffffffff169052565b506060810151612590606084018215159052565b5060808101516125a4608084018215159052565b5060a08101516125b860a084018215159052565b5060c08101516125cc60c084018215159052565b5060e08101516125e060e084018215159052565b5061010081810151151590830152610120808201511515908301526101408082015115159083015261016080820151151590830152610180808201511515908301526101a0808201511515908301526101c0808201511515908301526101e08082015115159083015261020080820151151590830152610220808201516001600160a01b0316908301526102408082015161ffff8116828501526107bf565b600082825180855260208086019550808260051b8401018186016000805b8581101561275c57868403601f19018a52825180518552850151604086860181905281518187018190529187019160609081880190865b818110156127455785518051151584528b81015163ffffffff168c8501528581015166ffffffffffffff1686850152848101516001600160a01b039081168686015260808083015165ffffffffffff169086015260a0918201511690840152948a019460c0909201916001016126d4565b50509c88019c96505050928501925060010161269d565b509198975050505050505050565b60008151808452602080850194506020840160005b838110156127ca57815180517bffffffffffffffffffffffffffffffffffffffffffffffffffffffff16885283015163ffffffff16838801526040909601959082019060010161277f565b509495945050505050565b600082825180855260208086019550808260051b84010181860160005b8481101561286957601f19868403018952815160806001600160a01b03808351168652808784015116878701525060408083015182828801526128378388018261276a565b9250505060608083015192508582038187015250612855818361276a565b9a86019a94505050908301906001016127f2565b5090979650505050505050565b600082825180855260208086019550808260051b84010181860160005b8481101561286957601f198684030189528151805165ffffffffffff1684528481015163ffffffff908116868601526040808301516dffffffffffffffffffffffffffff1690860152606080830151909116908501526080808201516001600160a01b03169085015260a080820151610340919061291382880182612547565b505060c08201518161030087015261292d8287018261267f565b91505060e0820151915084810361032086015261294a81836127d5565b9a86019a9450505090830190600101612893565b8381526060602082015260006129776060830185612876565b828103604084015261034a8185612236565b600082825180855260208086019550808260051b8401018186016000805b8581101561275c57868403601f19018a52825180516001600160a01b03908116865290860151604087870181905281518188018190529188019290916060919082890190875b81811015612a255786518051851684528c81015160ff168d85015286015163ffffffff1686840152958b0195918401916001016129ed565b50509d89019d975050509386019350506001016129a7565b6001600160a01b038616815260a060208201526000612a5f60a0830187612236565b8281036040840152612a718187612876565b90508281036060840152612a858186612989565b90508281036080840152610acc8185612236565b848152608060208201526000612ab26080830186612876565b8281036040840152612ac48186612989565b90508281036060840152612ad88185612236565b97965050505050505056fea2646970667358221220a78c5126ecc5c2e073db2e6050a67a3f749e0e9af9bfdc3b2c741259ab0f269964736f6c63430008170033",
	"devdoc": {
		"kind": "dev",
		"methods": {
			"constructor": {
				"params": {
					"directory": "The directory of terminals and controllers for projects.",
					"hookDeployer": "The 721 tiers hook deployer.",
					"permissions": "A contract storing permissions."
				}
			},
			"launchProjectFor(address,(string,string,address,string,address,string,((uint104,uint32,uint32,uint16,address,bytes32,uint24,bool,bool,bool,bool,bool)[],uint32,uint8,address),address,(bool,bool,bool,bool)),(string,(uint48,uint32,uint112,uint32,address,(uint16,uint16,uint32,bool,bool,bool,bool,bool,bool,bool,bool,bool,bool,bool,bool,uint16),(uint256,(bool,uint32,uint56,address,uint48,address)[])[],(address,address,(uint224,uint32)[],(uint224,uint32)[])[])[],(address,(address,uint8,uint32)[])[],string),address)": {
				"params": {
					"controller": "The controller that the project's rulesets will be queued with.",
					"deployTiersHookConfig": "Configuration which dictates the behavior of the 721 tiers hook which is being deployed.",
					"launchProjectConfig": "Configuration which dictates the behavior of the project which is being launched.",
					"owner": "The address to set as the owner of the project. The ERC-721 which confers this project's ownership will be sent to this address."
				},
				"returns": {
					"projectId": "The ID of the newly launched project."
				}
			},
			"launchRulesetsFor(uint256,(string,string,address,string,address,string,((uint104,uint32,uint32,uint16,address,bytes32,uint24,bool,bool,bool,bool,bool)[],uint32,uint8,address),address,(bool,bool,bool,bool)),(uint56,(uint48,uint32,uint112,uint32,address,(uint16,uint16,uint32,bool,bool,bool,bool,bool,bool,bool,bool,bool,bool,bool,bool,uint16),(uint256,(bool,uint32,uint56,address,uint48,address)[])[],(address,address,(uint224,uint32)[],(uint224,uint32)[])[])[],(address,(address,uint8,uint32)[])[],string),address)": {
				"details": "Only a project's owner or an operator with the `QUEUE_RULESETS` permission can launch its rulesets.",
				"params": {
					"controller": "The controller that the project's rulesets will be queued with.",
					"deployTiersHookConfig": "Configuration which dictates the behavior of the 721 tiers hook which is being deployed.",
					"launchRulesetsConfig": "Configuration which dictates the project's new rulesets.",
					"projectId": "The ID of the project that rulesets are being launched for."
				},
				"returns": {
					"rulesetId": "The ID of the successfully created ruleset."
				}
			},
			"queueRulesetsOf(uint256,(string,string,address,string,address,string,((uint104,uint32,uint32,uint16,address,bytes32,uint24,bool,bool,bool,bool,bool)[],uint32,uint8,address),address,(bool,bool,bool,bool)),(uint56,(uint48,uint32,uint112,uint32,address,(uint16,uint16,uint32,bool,bool,bool,bool,bool,bool,bool,bool,bool,bool,bool,bool,uint16),(uint256,(bool,uint32,uint56,address,uint48,address)[])[],(address,address,(uint224,uint32)[],(uint224,uint32)[])[])[],string),address)": {
				"details": "Only a project's owner or an operator with the `QUEUE_RULESETS` permission can queue its rulesets.",
				"params": {
					"controller": "The controller that the project's rulesets will be queued with.",
					"deployTiersHookConfig": "Configuration which dictates the behavior of the 721 tiers hook which is being deployed.",
					"projectId": "The ID of the project that rulesets are being queued for.",
					"queueRulesetsConfig": "Configuration which dictates the project's newly queued rulesets."
				},
				"returns": {
					"rulesetId": "The ID of the successfully created ruleset."
				}
			}
		},
		"version": 1
	},
	"userdoc": {
		"kind": "user",
		"methods": {
			"DIRECTORY()": {
				"notice": "The directory of terminals and controllers for projects."
			},
			"HOOK_DEPLOYER()": {
				"notice": "The 721 tiers hook deployer."
			},
			"PERMISSIONS()": {
				"notice": "A contract storing permissions."
			},
			"launchProjectFor(address,(string,string,address,string,address,string,((uint104,uint32,uint32,uint16,address,bytes32,uint24,bool,bool,bool,bool,bool)[],uint32,uint8,address),address,(bool,bool,bool,bool)),(string,(uint48,uint32,uint112,uint32,address,(uint16,uint16,uint32,bool,bool,bool,bool,bool,bool,bool,bool,bool,bool,bool,bool,uint16),(uint256,(bool,uint32,uint56,address,uint48,address)[])[],(address,address,(uint224,uint32)[],(uint224,uint32)[])[])[],(address,(address,uint8,uint32)[])[],string),address)": {
				"notice": "Launches a new project with a 721 tiers hook attached."
			},
			"launchRulesetsFor(uint256,(string,string,address,string,address,string,((uint104,uint32,uint32,uint16,address,bytes32,uint24,bool,bool,bool,bool,bool)[],uint32,uint8,address),address,(bool,bool,bool,bool)),(uint56,(uint48,uint32,uint112,uint32,address,(uint16,uint16,uint32,bool,bool,bool,bool,bool,bool,bool,bool,bool,bool,bool,bool,uint16),(uint256,(bool,uint32,uint56,address,uint48,address)[])[],(address,address,(uint224,uint32)[],(uint224,uint32)[])[])[],(address,(address,uint8,uint32)[])[],string),address)": {
				"notice": "Launches rulesets for a project with an attached 721 tiers hook."
			},
			"queueRulesetsOf(uint256,(string,string,address,string,address,string,((uint104,uint32,uint32,uint16,address,bytes32,uint24,bool,bool,bool,bool,bool)[],uint32,uint8,address),address,(bool,bool,bool,bool)),(uint56,(uint48,uint32,uint112,uint32,address,(uint16,uint16,uint32,bool,bool,bool,bool,bool,bool,bool,bool,bool,bool,bool,bool,uint16),(uint256,(bool,uint32,uint56,address,uint48,address)[])[],(address,address,(uint224,uint32)[],(uint224,uint32)[])[])[],string),address)": {
				"notice": "Queues rulesets for a project with an attached 721 tiers hook."
			}
		},
		"version": 1
	},
	"gitCommit": "a1703301bce19f59c260f45e1b39103fab75e506",
	"sourceName": "src/JB721TiersHookProjectDeployer.sol",
	"chainId": "421614",
	"linkReferences": {},
	"deployedLinkReferences": {},
	"history": []
}