{
	"_format": "sphinx-sol-ct-artifact-1",
	"merkleRoot": "0xe86112c80b3fdcd00444f5bde04496941e8a62863097b6d607d04af137595289",
	"contractName": "JB721TiersHookDeployer",
	"address": "0x2BAd941E6c2f9CdBbfc9C25F804f060ffEA1d7bE",
	"abi": [
		{
			"type": "constructor",
			"inputs": [
				{
					"name": "hook",
					"type": "address",
					"internalType": "contract JB721TiersHook"
				},
				{
					"name": "store",
					"type": "address",
					"internalType": "contract IJB721TiersHookStore"
				},
				{
					"name": "addressRegistry",
					"type": "address",
					"internalType": "contract IJBAddressRegistry"
				},
				{
					"name": "trustedForwarder",
					"type": "address",
					"internalType": "address"
				}
			],
			"stateMutability": "nonpayable"
		},
		{
			"type": "function",
			"name": "ADDRESS_REGISTRY",
			"inputs": [],
			"outputs": [
				{
					"name": "",
					"type": "address",
					"internalType": "contract IJBAddressRegistry"
				}
			],
			"stateMutability": "view"
		},
		{
			"type": "function",
			"name": "HOOK",
			"inputs": [],
			"outputs": [
				{
					"name": "",
					"type": "address",
					"internalType": "contract JB721TiersHook"
				}
			],
			"stateMutability": "view"
		},
		{
			"type": "function",
			"name": "STORE",
			"inputs": [],
			"outputs": [
				{
					"name": "",
					"type": "address",
					"internalType": "contract IJB721TiersHookStore"
				}
			],
			"stateMutability": "view"
		},
		{
			"type": "function",
			"name": "deployHookFor",
			"inputs": [
				{
					"name": "projectId",
					"type": "uint256",
					"internalType": "uint256"
				},
				{
					"name": "deployTiersHookConfig",
					"type": "tuple",
					"internalType": "struct JBDeploy721TiersHookConfig",
					"components": [
						{
							"name": "name",
							"type": "string",
							"internalType": "string"
						},
						{
							"name": "symbol",
							"type": "string",
							"internalType": "string"
						},
						{
							"name": "baseUri",
							"type": "string",
							"internalType": "string"
						},
						{
							"name": "tokenUriResolver",
							"type": "address",
							"internalType": "contract IJB721TokenUriResolver"
						},
						{
							"name": "contractUri",
							"type": "string",
							"internalType": "string"
						},
						{
							"name": "tiersConfig",
							"type": "tuple",
							"internalType": "struct JB721InitTiersConfig",
							"components": [
								{
									"name": "tiers",
									"type": "tuple[]",
									"internalType": "struct JB721TierConfig[]",
									"components": [
										{
											"name": "price",
											"type": "uint104",
											"internalType": "uint104"
										},
										{
											"name": "initialSupply",
											"type": "uint32",
											"internalType": "uint32"
										},
										{
											"name": "votingUnits",
											"type": "uint32",
											"internalType": "uint32"
										},
										{
											"name": "reserveFrequency",
											"type": "uint16",
											"internalType": "uint16"
										},
										{
											"name": "reserveBeneficiary",
											"type": "address",
											"internalType": "address"
										},
										{
											"name": "encodedIPFSUri",
											"type": "bytes32",
											"internalType": "bytes32"
										},
										{
											"name": "category",
											"type": "uint24",
											"internalType": "uint24"
										},
										{
											"name": "discountPercent",
											"type": "uint8",
											"internalType": "uint8"
										},
										{
											"name": "allowOwnerMint",
											"type": "bool",
											"internalType": "bool"
										},
										{
											"name": "useReserveBeneficiaryAsDefault",
											"type": "bool",
											"internalType": "bool"
										},
										{
											"name": "transfersPausable",
											"type": "bool",
											"internalType": "bool"
										},
										{
											"name": "useVotingUnits",
											"type": "bool",
											"internalType": "bool"
										},
										{
											"name": "cannotBeRemoved",
											"type": "bool",
											"internalType": "bool"
										},
										{
											"name": "cannotIncreaseDiscountPercent",
											"type": "bool",
											"internalType": "bool"
										}
									]
								},
								{
									"name": "currency",
									"type": "uint32",
									"internalType": "uint32"
								},
								{
									"name": "decimals",
									"type": "uint8",
									"internalType": "uint8"
								},
								{
									"name": "prices",
									"type": "address",
									"internalType": "contract IJBPrices"
								}
							]
						},
						{
							"name": "reserveBeneficiary",
							"type": "address",
							"internalType": "address"
						},
						{
							"name": "flags",
							"type": "tuple",
							"internalType": "struct JB721TiersHookFlags",
							"components": [
								{
									"name": "noNewTiersWithReserves",
									"type": "bool",
									"internalType": "bool"
								},
								{
									"name": "noNewTiersWithVotes",
									"type": "bool",
									"internalType": "bool"
								},
								{
									"name": "noNewTiersWithOwnerMinting",
									"type": "bool",
									"internalType": "bool"
								},
								{
									"name": "preventOverspending",
									"type": "bool",
									"internalType": "bool"
								}
							]
						}
					]
				}
			],
			"outputs": [
				{
					"name": "newHook",
					"type": "address",
					"internalType": "contract IJB721TiersHook"
				}
			],
			"stateMutability": "nonpayable"
		},
		{
			"type": "function",
			"name": "isTrustedForwarder",
			"inputs": [
				{
					"name": "forwarder",
					"type": "address",
					"internalType": "address"
				}
			],
			"outputs": [
				{
					"name": "",
					"type": "bool",
					"internalType": "bool"
				}
			],
			"stateMutability": "view"
		},
		{
			"type": "function",
			"name": "trustedForwarder",
			"inputs": [],
			"outputs": [
				{
					"name": "",
					"type": "address",
					"internalType": "address"
				}
			],
			"stateMutability": "view"
		},
		{
			"type": "event",
			"name": "HookDeployed",
			"inputs": [
				{
					"name": "projectId",
					"type": "uint256",
					"indexed": true,
					"internalType": "uint256"
				},
				{
					"name": "hook",
					"type": "address",
					"indexed": false,
					"internalType": "contract IJB721TiersHook"
				},
				{
					"name": "caller",
					"type": "address",
					"indexed": false,
					"internalType": "address"
				}
			],
			"anonymous": false
		},
		{
			"type": "error",
			"name": "ERC1167FailedCreateClone",
			"inputs": []
		}
	],
	"solcInputHash": "30cd0d125ed0677fcbbeafa2ca950580",
	"args": [
		"0x4f2E788877B71fcDEB7DabF898572a556420896d",
		"0x7b1F4Ba6312A104E645B06Ab97e4CaA1ef0F773f",
		"0x529FDff2bC7fbdaeA7b86901FDa9e6905b61E54C",
		"0xB2b5841DBeF766d4b521221732F9B618fCf34A87"
	],
	"bytecode": "0x61010060405234801561001157600080fd5b50604051610b61380380610b618339810160408190526100309161006b565b6001600160a01b0390811660805292831660c05290821660e0521660a0526100ca565b6001600160a01b038116811461006857600080fd5b50565b6000806000806080858703121561008157600080fd5b845161008c81610053565b602086015190945061009d81610053565b60408601519093506100ae81610053565b60608601519092506100bf81610053565b939692955090935050565b60805160a05160c05160e051610a4461011d6000396000607c01526000818161015d0152610194015260008181610136015261034301526000818160cb0152818161010d01526104790152610a446000f3fe608060405234801561001057600080fd5b50600436106100725760003560e01c806389a56bbc1161005057806389a56bbc14610131578063a54eb24214610158578063cc7bb31f1461017f57600080fd5b8063507f146514610077578063572b6c05146100bb5780637da0a8771461010b575b600080fd5b61009e7f000000000000000000000000000000000000000000000000000000000000000081565b6040516001600160a01b0390911681526020015b60405180910390f35b6100fb6100c936600461050a565b7f00000000000000000000000000000000000000000000000000000000000000006001600160a01b0390811691161490565b60405190151581526020016100b2565b7f000000000000000000000000000000000000000000000000000000000000000061009e565b61009e7f000000000000000000000000000000000000000000000000000000000000000081565b61009e7f000000000000000000000000000000000000000000000000000000000000000081565b61009e61018d36600461052e565b60006101b87f0000000000000000000000000000000000000000000000000000000000000000610400565b604080516001600160a01b038316815233602082015291925084917fd76d022c77a474d529a79581eb88a726ad929fd23efbcb6a1f852d2d936299a5910160405180910390a26001600160a01b03811663462e3af884610218858061057d565b610225602088018861057d565b61023260408a018a61057d565b61024260808c0160608d0161050a565b61024f60808d018d61057d565b61025c60a08f018f6105cb565b8e60e0016040518d63ffffffff1660e01b81526004016102879c9b9a99989796959493929190610833565b600060405180830381600087803b1580156102a157600080fd5b505af11580156102b5573d6000803e3d6000fd5b50505050806001600160a01b031663f2fde38b6102d0610472565b6040517fffffffff0000000000000000000000000000000000000000000000000000000060e084901b1681526001600160a01b039091166004820152602401600060405180830381600087803b15801561032957600080fd5b505af115801561033d573d6000803e3d6000fd5b505050507f00000000000000000000000000000000000000000000000000000000000000006001600160a01b031663b94417ab30600080815461037f9061097d565b91829055506040517fffffffff0000000000000000000000000000000000000000000000000000000060e085901b1681526001600160a01b0390921660048301526024820152604401600060405180830381600087803b1580156103e257600080fd5b505af11580156103f6573d6000803e3d6000fd5b5050505092915050565b6000763d602d80600a3d3981f3363d3d373d3d3d363d730000008260601b60e81c176000526e5af43d82803e903d91602b57fd5bf38260781b17602052603760096000f090506001600160a01b03811661046d576040516330be1a3d60e21b815260040160405180910390fd5b919050565b60003660147f00000000000000000000000000000000000000000000000000000000000000006001600160a01b0316331480156104af5750808210155b156104df576000366104c18385610996565b6104cc9282906109af565b6104d5916109d9565b60601c9250505090565b339250505090565b6001600160a01b03811681146104fc57600080fd5b50565b803561046d816104e7565b60006020828403121561051c57600080fd5b8135610527816104e7565b9392505050565b6000806040838503121561054157600080fd5b82359150602083013567ffffffffffffffff81111561055f57600080fd5b8301610160818603121561057257600080fd5b809150509250929050565b6000808335601e1984360301811261059457600080fd5b83018035915067ffffffffffffffff8211156105af57600080fd5b6020019150368190038213156105c457600080fd5b9250929050565b60008235607e198336030181126105e157600080fd5b9190910192915050565b81835281816020850137506000828201602090810191909152601f909101601f19169091010190565b80356cffffffffffffffffffffffffff8116811461046d57600080fd5b803563ffffffff8116811461046d57600080fd5b803561ffff8116811461046d57600080fd5b803562ffffff8116811461046d57600080fd5b803560ff8116811461046d57600080fd5b8035801515811461046d57600080fd5b8183526000602080850194508260005b858110156107de576106c3876106b084610614565b6cffffffffffffffffffffffffff169052565b6106ce838301610631565b63ffffffff168388015260406106e5838201610631565b63ffffffff169088015260606106fc838201610645565b61ffff169088015260806107118382016104ff565b6001600160a01b03169088015260a0828101359088015260c0610735818401610657565b62ffffff169088015260e061074b83820161066a565b60ff169088015261010061076083820161067b565b15159088015261012061077483820161067b565b15159088015261014061078883820161067b565b15159088015261016061079c83820161067b565b1515908801526101806107b083820161067b565b1515908801526101a06107c483820161067b565b1515908801526101c096870196919091019060010161069b565b509495945050505050565b6107f28161067b565b151582526108026020820161067b565b151560208301526108156040820161067b565b151560408301526108286060820161067b565b151560608301525050565b8c81526101606020820152600061084f61016083018d8f6105eb565b8281036040840152610862818c8e6105eb565b90508281036060840152610877818a8c6105eb565b90506001600160a01b038816608084015282810360a084015261089b8187896105eb565b905082810360c08401528435601e198636030181126108b957600080fd5b850160208101903567ffffffffffffffff8111156108d657600080fd5b6101c0810236038213156108e957600080fd5b608083526108fb60808401828461068b565b91505061090a60208701610631565b63ffffffff1660208301526109216040870161066a565b60ff166040830152610935606087016104ff565b6001600160a01b0381166060840152509150610956905060e08301846107e9565b9d9c50505050505050505050505050565b634e487b7160e01b600052601160045260246000fd5b60006001820161098f5761098f610967565b5060010190565b818103818111156109a9576109a9610967565b92915050565b600080858511156109bf57600080fd5b838611156109cc57600080fd5b5050820193919092039150565b6bffffffffffffffffffffffff198135818116916014851015610a065780818660140360031b1b83161692505b50509291505056fea2646970667358221220f7142de037dc5f9597f337a17107a01879f3d13d5031f22fb9ffe259b7de158564736f6c63430008170033",
	"deployedBytecode": "0x608060405234801561001057600080fd5b50600436106100725760003560e01c806389a56bbc1161005057806389a56bbc14610131578063a54eb24214610158578063cc7bb31f1461017f57600080fd5b8063507f146514610077578063572b6c05146100bb5780637da0a8771461010b575b600080fd5b61009e7f0000000000000000000000007b1f4ba6312a104e645b06ab97e4caa1ef0f773f81565b6040516001600160a01b0390911681526020015b60405180910390f35b6100fb6100c936600461050a565b7f000000000000000000000000b2b5841dbef766d4b521221732f9b618fcf34a876001600160a01b0390811691161490565b60405190151581526020016100b2565b7f000000000000000000000000b2b5841dbef766d4b521221732f9b618fcf34a8761009e565b61009e7f000000000000000000000000529fdff2bc7fbdaea7b86901fda9e6905b61e54c81565b61009e7f0000000000000000000000004f2e788877b71fcdeb7dabf898572a556420896d81565b61009e61018d36600461052e565b60006101b87f0000000000000000000000004f2e788877b71fcdeb7dabf898572a556420896d610400565b604080516001600160a01b038316815233602082015291925084917fd76d022c77a474d529a79581eb88a726ad929fd23efbcb6a1f852d2d936299a5910160405180910390a26001600160a01b03811663462e3af884610218858061057d565b610225602088018861057d565b61023260408a018a61057d565b61024260808c0160608d0161050a565b61024f60808d018d61057d565b61025c60a08f018f6105cb565b8e60e0016040518d63ffffffff1660e01b81526004016102879c9b9a99989796959493929190610833565b600060405180830381600087803b1580156102a157600080fd5b505af11580156102b5573d6000803e3d6000fd5b50505050806001600160a01b031663f2fde38b6102d0610472565b6040517fffffffff0000000000000000000000000000000000000000000000000000000060e084901b1681526001600160a01b039091166004820152602401600060405180830381600087803b15801561032957600080fd5b505af115801561033d573d6000803e3d6000fd5b505050507f000000000000000000000000529fdff2bc7fbdaea7b86901fda9e6905b61e54c6001600160a01b031663b94417ab30600080815461037f9061097d565b91829055506040517fffffffff0000000000000000000000000000000000000000000000000000000060e085901b1681526001600160a01b0390921660048301526024820152604401600060405180830381600087803b1580156103e257600080fd5b505af11580156103f6573d6000803e3d6000fd5b5050505092915050565b6000763d602d80600a3d3981f3363d3d373d3d3d363d730000008260601b60e81c176000526e5af43d82803e903d91602b57fd5bf38260781b17602052603760096000f090506001600160a01b03811661046d576040516330be1a3d60e21b815260040160405180910390fd5b919050565b60003660147f000000000000000000000000b2b5841dbef766d4b521221732f9b618fcf34a876001600160a01b0316331480156104af5750808210155b156104df576000366104c18385610996565b6104cc9282906109af565b6104d5916109d9565b60601c9250505090565b339250505090565b6001600160a01b03811681146104fc57600080fd5b50565b803561046d816104e7565b60006020828403121561051c57600080fd5b8135610527816104e7565b9392505050565b6000806040838503121561054157600080fd5b82359150602083013567ffffffffffffffff81111561055f57600080fd5b8301610160818603121561057257600080fd5b809150509250929050565b6000808335601e1984360301811261059457600080fd5b83018035915067ffffffffffffffff8211156105af57600080fd5b6020019150368190038213156105c457600080fd5b9250929050565b60008235607e198336030181126105e157600080fd5b9190910192915050565b81835281816020850137506000828201602090810191909152601f909101601f19169091010190565b80356cffffffffffffffffffffffffff8116811461046d57600080fd5b803563ffffffff8116811461046d57600080fd5b803561ffff8116811461046d57600080fd5b803562ffffff8116811461046d57600080fd5b803560ff8116811461046d57600080fd5b8035801515811461046d57600080fd5b8183526000602080850194508260005b858110156107de576106c3876106b084610614565b6cffffffffffffffffffffffffff169052565b6106ce838301610631565b63ffffffff168388015260406106e5838201610631565b63ffffffff169088015260606106fc838201610645565b61ffff169088015260806107118382016104ff565b6001600160a01b03169088015260a0828101359088015260c0610735818401610657565b62ffffff169088015260e061074b83820161066a565b60ff169088015261010061076083820161067b565b15159088015261012061077483820161067b565b15159088015261014061078883820161067b565b15159088015261016061079c83820161067b565b1515908801526101806107b083820161067b565b1515908801526101a06107c483820161067b565b1515908801526101c096870196919091019060010161069b565b509495945050505050565b6107f28161067b565b151582526108026020820161067b565b151560208301526108156040820161067b565b151560408301526108286060820161067b565b151560608301525050565b8c81526101606020820152600061084f61016083018d8f6105eb565b8281036040840152610862818c8e6105eb565b90508281036060840152610877818a8c6105eb565b90506001600160a01b038816608084015282810360a084015261089b8187896105eb565b905082810360c08401528435601e198636030181126108b957600080fd5b850160208101903567ffffffffffffffff8111156108d657600080fd5b6101c0810236038213156108e957600080fd5b608083526108fb60808401828461068b565b91505061090a60208701610631565b63ffffffff1660208301526109216040870161066a565b60ff166040830152610935606087016104ff565b6001600160a01b0381166060840152509150610956905060e08301846107e9565b9d9c50505050505050505050505050565b634e487b7160e01b600052601160045260246000fd5b60006001820161098f5761098f610967565b5060010190565b818103818111156109a9576109a9610967565b92915050565b600080858511156109bf57600080fd5b838611156109cc57600080fd5b5050820193919092039150565b6bffffffffffffffffffffffff198135818116916014851015610a065780818660140360031b1b83161692505b50509291505056fea2646970667358221220f7142de037dc5f9597f337a17107a01879f3d13d5031f22fb9ffe259b7de158564736f6c63430008170033",
	"devdoc": {
		"kind": "dev",
		"methods": {
			"constructor": {
				"params": {
					"addressRegistry": "A registry which stores references to contracts and their deployers.",
					"hook": "Reference copy of a hook."
				}
			},
			"deployHookFor(uint256,(string,string,string,address,string,((uint104,uint32,uint32,uint16,address,bytes32,uint24,uint8,bool,bool,bool,bool,bool,bool)[],uint32,uint8,address),address,(bool,bool,bool,bool)))": {
				"params": {
					"deployTiersHookConfig": "The config to deploy the hook with, which determines its behavior.",
					"projectId": "The ID of the project to deploy the hook for."
				},
				"returns": {
					"newHook": "The address of the newly deployed hook."
				}
			},
			"isTrustedForwarder(address)": {
				"details": "Indicates whether any particular address is the trusted forwarder."
			},
			"trustedForwarder()": {
				"details": "Returns the address of the trusted forwarder."
			}
		},
		"version": 1
	},
	"userdoc": {
		"kind": "user",
		"methods": {
			"ADDRESS_REGISTRY()": {
				"notice": "A registry which stores references to contracts and their deployers."
			},
			"HOOK()": {
				"notice": "A 721 tiers hook."
			},
			"STORE()": {
				"notice": "The contract that stores and manages data for this contract's NFTs."
			},
			"deployHookFor(uint256,(string,string,string,address,string,((uint104,uint32,uint32,uint16,address,bytes32,uint24,uint8,bool,bool,bool,bool,bool,bool)[],uint32,uint8,address),address,(bool,bool,bool,bool)))": {
				"notice": "Deploys a 721 tiers hook for the specified project."
			}
		},
		"version": 1
	},
	"gitCommit": "4c5a6a4ff88604a9c0a981284b933b4e7757161c",
	"sourceName": "src/JB721TiersHookDeployer.sol",
	"chainId": "421614",
	"linkReferences": {},
	"deployedLinkReferences": {},
	"history": []
}