{
	"_format": "sphinx-sol-ct-artifact-1",
	"merkleRoot": "0xf022ccb63ab9d53d28803c2825ae855934c2ea053baacf167205a78967a9633a",
	"contractName": "JB721TiersHookDeployer",
	"address": "0x739AFa8B58CcEc832aCFf7465f6F640199cF4D35",
	"abi": [
		{
			"type": "constructor",
			"inputs": [
				{
					"name": "hook",
					"type": "address",
					"internalType": "contract JB721TiersHook"
				},
				{
					"name": "store",
					"type": "address",
					"internalType": "contract IJB721TiersHookStore"
				},
				{
					"name": "addressRegistry",
					"type": "address",
					"internalType": "contract IJBAddressRegistry"
				},
				{
					"name": "trustedForwarder",
					"type": "address",
					"internalType": "address"
				}
			],
			"stateMutability": "nonpayable"
		},
		{
			"type": "function",
			"name": "ADDRESS_REGISTRY",
			"inputs": [],
			"outputs": [
				{
					"name": "",
					"type": "address",
					"internalType": "contract IJBAddressRegistry"
				}
			],
			"stateMutability": "view"
		},
		{
			"type": "function",
			"name": "HOOK",
			"inputs": [],
			"outputs": [
				{
					"name": "",
					"type": "address",
					"internalType": "contract JB721TiersHook"
				}
			],
			"stateMutability": "view"
		},
		{
			"type": "function",
			"name": "STORE",
			"inputs": [],
			"outputs": [
				{
					"name": "",
					"type": "address",
					"internalType": "contract IJB721TiersHookStore"
				}
			],
			"stateMutability": "view"
		},
		{
			"type": "function",
			"name": "deployHookFor",
			"inputs": [
				{
					"name": "projectId",
					"type": "uint256",
					"internalType": "uint256"
				},
				{
					"name": "deployTiersHookConfig",
					"type": "tuple",
					"internalType": "struct JBDeploy721TiersHookConfig",
					"components": [
						{
							"name": "name",
							"type": "string",
							"internalType": "string"
						},
						{
							"name": "symbol",
							"type": "string",
							"internalType": "string"
						},
						{
							"name": "baseUri",
							"type": "string",
							"internalType": "string"
						},
						{
							"name": "tokenUriResolver",
							"type": "address",
							"internalType": "contract IJB721TokenUriResolver"
						},
						{
							"name": "contractUri",
							"type": "string",
							"internalType": "string"
						},
						{
							"name": "tiersConfig",
							"type": "tuple",
							"internalType": "struct JB721InitTiersConfig",
							"components": [
								{
									"name": "tiers",
									"type": "tuple[]",
									"internalType": "struct JB721TierConfig[]",
									"components": [
										{
											"name": "price",
											"type": "uint104",
											"internalType": "uint104"
										},
										{
											"name": "initialSupply",
											"type": "uint32",
											"internalType": "uint32"
										},
										{
											"name": "votingUnits",
											"type": "uint32",
											"internalType": "uint32"
										},
										{
											"name": "reserveFrequency",
											"type": "uint16",
											"internalType": "uint16"
										},
										{
											"name": "reserveBeneficiary",
											"type": "address",
											"internalType": "address"
										},
										{
											"name": "encodedIPFSUri",
											"type": "bytes32",
											"internalType": "bytes32"
										},
										{
											"name": "category",
											"type": "uint24",
											"internalType": "uint24"
										},
										{
											"name": "discountPercent",
											"type": "uint8",
											"internalType": "uint8"
										},
										{
											"name": "allowOwnerMint",
											"type": "bool",
											"internalType": "bool"
										},
										{
											"name": "useReserveBeneficiaryAsDefault",
											"type": "bool",
											"internalType": "bool"
										},
										{
											"name": "transfersPausable",
											"type": "bool",
											"internalType": "bool"
										},
										{
											"name": "useVotingUnits",
											"type": "bool",
											"internalType": "bool"
										},
										{
											"name": "cannotBeRemoved",
											"type": "bool",
											"internalType": "bool"
										},
										{
											"name": "cannotIncreaseDiscountPercent",
											"type": "bool",
											"internalType": "bool"
										}
									]
								},
								{
									"name": "currency",
									"type": "uint32",
									"internalType": "uint32"
								},
								{
									"name": "decimals",
									"type": "uint8",
									"internalType": "uint8"
								},
								{
									"name": "prices",
									"type": "address",
									"internalType": "contract IJBPrices"
								}
							]
						},
						{
							"name": "reserveBeneficiary",
							"type": "address",
							"internalType": "address"
						},
						{
							"name": "flags",
							"type": "tuple",
							"internalType": "struct JB721TiersHookFlags",
							"components": [
								{
									"name": "noNewTiersWithReserves",
									"type": "bool",
									"internalType": "bool"
								},
								{
									"name": "noNewTiersWithVotes",
									"type": "bool",
									"internalType": "bool"
								},
								{
									"name": "noNewTiersWithOwnerMinting",
									"type": "bool",
									"internalType": "bool"
								},
								{
									"name": "preventOverspending",
									"type": "bool",
									"internalType": "bool"
								}
							]
						}
					]
				},
				{
					"name": "salt",
					"type": "bytes32",
					"internalType": "bytes32"
				}
			],
			"outputs": [
				{
					"name": "newHook",
					"type": "address",
					"internalType": "contract IJB721TiersHook"
				}
			],
			"stateMutability": "nonpayable"
		},
		{
			"type": "function",
			"name": "isTrustedForwarder",
			"inputs": [
				{
					"name": "forwarder",
					"type": "address",
					"internalType": "address"
				}
			],
			"outputs": [
				{
					"name": "",
					"type": "bool",
					"internalType": "bool"
				}
			],
			"stateMutability": "view"
		},
		{
			"type": "function",
			"name": "trustedForwarder",
			"inputs": [],
			"outputs": [
				{
					"name": "",
					"type": "address",
					"internalType": "address"
				}
			],
			"stateMutability": "view"
		},
		{
			"type": "event",
			"name": "HookDeployed",
			"inputs": [
				{
					"name": "projectId",
					"type": "uint256",
					"indexed": true,
					"internalType": "uint256"
				},
				{
					"name": "hook",
					"type": "address",
					"indexed": false,
					"internalType": "contract IJB721TiersHook"
				},
				{
					"name": "caller",
					"type": "address",
					"indexed": false,
					"internalType": "address"
				}
			],
			"anonymous": false
		}
	],
	"solcInputHash": "54d924ca0ce25025276cf9168aae3c9e",
	"args": [
		"0xB82085d1572f882f1Ba3b40c83fb378e33fd8d12",
		"0x1704CFc2f93bf49e54a9939e14A471749B12Eee8",
		"0x529FDff2bC7fbdaeA7b86901FDa9e6905b61E54C",
		"0xB2b5841DBeF766d4b521221732F9B618fCf34A87"
	],
	"bytecode": "0x61010060405234801561001157600080fd5b50604051610d8b380380610d8b8339810160408190526100309161006b565b6001600160a01b0390811660805292831660c05290821660e0521660a0526100ca565b6001600160a01b038116811461006857600080fd5b50565b6000806000806080858703121561008157600080fd5b845161008c81610053565b602086015190945061009d81610053565b60408601519093506100ae81610053565b60608601519092506100bf81610053565b939692955090935050565b60805160a05160c05160e051610c596101326000396000607c01526000818161015d015281816101ae015281816101f601526104090152600081816101360152818161046001526104f501526000818160cb0152818161010d01526105d20152610c596000f3fe608060405234801561001057600080fd5b50600436106100725760003560e01c806389a56bbc1161005057806389a56bbc14610131578063a54eb24214610158578063ea74b8af1461017f57600080fd5b8063507f146514610077578063572b6c05146100bb5780637da0a8771461010b575b600080fd5b61009e7f000000000000000000000000000000000000000000000000000000000000000081565b6040516001600160a01b0390911681526020015b60405180910390f35b6100fb6100c93660046106bd565b7f00000000000000000000000000000000000000000000000000000000000000006001600160a01b0390811691161490565b60405190151581526020016100b2565b7f000000000000000000000000000000000000000000000000000000000000000061009e565b61009e7f000000000000000000000000000000000000000000000000000000000000000081565b61009e7f000000000000000000000000000000000000000000000000000000000000000081565b61009e61018d3660046106da565b600081156101f157604080513360208201529081018390526101ec906000907f00000000000000000000000000000000000000000000000000000000000000009060600160405160208183030381529060405280519060200120610561565b61021a565b61021a7f00000000000000000000000000000000000000000000000000000000000000006105b8565b604080516001600160a01b038316815233602082015291925085917fd76d022c77a474d529a79581eb88a726ad929fd23efbcb6a1f852d2d936299a5910160405180910390a26001600160a01b03811663462e3af88561027a8680610731565b6102876020890189610731565b61029460408b018b610731565b6102a460808d0160608e016106bd565b6102b160808e018e610731565b8e8060a001906102c1919061077f565b8f60e0016040518d63ffffffff1660e01b81526004016102ec9c9b9a999897969594939291906109e7565b600060405180830381600087803b15801561030657600080fd5b505af115801561031a573d6000803e3d6000fd5b50505050806001600160a01b031663f2fde38b6103356105cb565b6040517fffffffff0000000000000000000000000000000000000000000000000000000060e084901b1681526001600160a01b039091166004820152602401600060405180830381600087803b15801561038e57600080fd5b505af11580156103a2573d6000803e3d6000fd5b5050505060008081546103b490610b31565b9091555081156104d55760408051336020808301919091528183018590528251808303840181526060830180855281519190920120775af43d3d93803e602a57fd5bf3000000000000000000000060a08401527f0000000000000000000000000000000000000000000000000000000000000000608884015273602c3d8160093d39f33d3d3d3d363d3d37363d7360748401526035825260c0830193849052636d1e458560e11b9093527f00000000000000000000000000000000000000000000000000000000000000006001600160a01b03169263da3c8b0a9261049e9230929160c401610b4a565b600060405180830381600087803b1580156104b857600080fd5b505af11580156104cc573d6000803e3d6000fd5b5050505061055a565b60005460405163b94417ab60e01b815230600482015260248101919091527f00000000000000000000000000000000000000000000000000000000000000006001600160a01b03169063b94417ab90604401600060405180830381600087803b15801561054157600080fd5b505af1158015610555573d6000803e3d6000fd5b505050505b9392505050565b60006c5af43d3d93803e602a57fd5bf36021528260145273602c3d8160093d39f33d3d3d3d363d3d37363d73600052816035600c86f59050806105ac5763301164256000526004601cfd5b60006021529392505050565b60006105c5600083610640565b92915050565b60003660147f00000000000000000000000000000000000000000000000000000000000000006001600160a01b0316331480156106085750808210155b156106385760003661061a8385610bb1565b610625928290610bc4565b61062e91610bee565b60601c9250505090565b339250505090565b60006c5af43d3d93803e602a57fd5bf36021528160145273602c3d8160093d39f33d3d3d3d363d3d37363d736000526035600c84f090508061068a5763301164256000526004601cfd5b600060215292915050565b6001600160a01b03811681146106aa57600080fd5b50565b80356106b881610695565b919050565b6000602082840312156106cf57600080fd5b813561055a81610695565b6000806000606084860312156106ef57600080fd5b83359250602084013567ffffffffffffffff81111561070d57600080fd5b8401610160818703121561072057600080fd5b929592945050506040919091013590565b6000808335601e1984360301811261074857600080fd5b83018035915067ffffffffffffffff82111561076357600080fd5b60200191503681900382131561077857600080fd5b9250929050565b60008235607e1983360301811261079557600080fd5b9190910192915050565b81835281816020850137506000828201602090810191909152601f909101601f19169091010190565b80356cffffffffffffffffffffffffff811681146106b857600080fd5b803563ffffffff811681146106b857600080fd5b803561ffff811681146106b857600080fd5b803562ffffff811681146106b857600080fd5b803560ff811681146106b857600080fd5b803580151581146106b857600080fd5b8183526000602080850194508260005b858110156109925761087787610864846107c8565b6cffffffffffffffffffffffffff169052565b6108828383016107e5565b63ffffffff168388015260406108998382016107e5565b63ffffffff169088015260606108b08382016107f9565b61ffff169088015260806108c58382016106ad565b6001600160a01b03169088015260a0828101359088015260c06108e981840161080b565b62ffffff169088015260e06108ff83820161081e565b60ff169088015261010061091483820161082f565b15159088015261012061092883820161082f565b15159088015261014061093c83820161082f565b15159088015261016061095083820161082f565b15159088015261018061096483820161082f565b1515908801526101a061097883820161082f565b1515908801526101c096870196919091019060010161084f565b509495945050505050565b6109a68161082f565b151582526109b66020820161082f565b151560208301526109c96040820161082f565b151560408301526109dc6060820161082f565b151560608301525050565b8c815261016060208201526000610a0361016083018d8f61079f565b8281036040840152610a16818c8e61079f565b90508281036060840152610a2b818a8c61079f565b90506001600160a01b038816608084015282810360a0840152610a4f81878961079f565b905082810360c08401528435601e19863603018112610a6d57600080fd5b850160208101903567ffffffffffffffff811115610a8a57600080fd5b6101c081023603821315610a9d57600080fd5b60808352610aaf60808401828461083f565b915050610abe602087016107e5565b63ffffffff166020830152610ad56040870161081e565b60ff166040830152610ae9606087016106ad565b6001600160a01b0381166060840152509150610b0a905060e083018461099d565b9d9c50505050505050505050505050565b634e487b7160e01b600052601160045260246000fd5b600060018201610b4357610b43610b1b565b5060010190565b6001600160a01b03841681526000602084602084015260606040840152835180606085015260005b81811015610b8e57858101830151858201608001528201610b72565b506000608082860101526080601f19601f83011685010192505050949350505050565b818103818111156105c5576105c5610b1b565b60008085851115610bd457600080fd5b83861115610be157600080fd5b5050820193919092039150565b6bffffffffffffffffffffffff198135818116916014851015610c1b5780818660140360031b1b83161692505b50509291505056fea264697066735822122045d57eb757764ee1592c85cd61f080c59351272925bbd4e1544c24bdfde26e2464736f6c63430008170033",
	"deployedBytecode": "0x608060405234801561001057600080fd5b50600436106100725760003560e01c806389a56bbc1161005057806389a56bbc14610131578063a54eb24214610158578063ea74b8af1461017f57600080fd5b8063507f146514610077578063572b6c05146100bb5780637da0a8771461010b575b600080fd5b61009e7f0000000000000000000000001704cfc2f93bf49e54a9939e14a471749b12eee881565b6040516001600160a01b0390911681526020015b60405180910390f35b6100fb6100c93660046106bd565b7f000000000000000000000000b2b5841dbef766d4b521221732f9b618fcf34a876001600160a01b0390811691161490565b60405190151581526020016100b2565b7f000000000000000000000000b2b5841dbef766d4b521221732f9b618fcf34a8761009e565b61009e7f000000000000000000000000529fdff2bc7fbdaea7b86901fda9e6905b61e54c81565b61009e7f000000000000000000000000b82085d1572f882f1ba3b40c83fb378e33fd8d1281565b61009e61018d3660046106da565b600081156101f157604080513360208201529081018390526101ec906000907f000000000000000000000000b82085d1572f882f1ba3b40c83fb378e33fd8d129060600160405160208183030381529060405280519060200120610561565b61021a565b61021a7f000000000000000000000000b82085d1572f882f1ba3b40c83fb378e33fd8d126105b8565b604080516001600160a01b038316815233602082015291925085917fd76d022c77a474d529a79581eb88a726ad929fd23efbcb6a1f852d2d936299a5910160405180910390a26001600160a01b03811663462e3af88561027a8680610731565b6102876020890189610731565b61029460408b018b610731565b6102a460808d0160608e016106bd565b6102b160808e018e610731565b8e8060a001906102c1919061077f565b8f60e0016040518d63ffffffff1660e01b81526004016102ec9c9b9a999897969594939291906109e7565b600060405180830381600087803b15801561030657600080fd5b505af115801561031a573d6000803e3d6000fd5b50505050806001600160a01b031663f2fde38b6103356105cb565b6040517fffffffff0000000000000000000000000000000000000000000000000000000060e084901b1681526001600160a01b039091166004820152602401600060405180830381600087803b15801561038e57600080fd5b505af11580156103a2573d6000803e3d6000fd5b5050505060008081546103b490610b31565b9091555081156104d55760408051336020808301919091528183018590528251808303840181526060830180855281519190920120775af43d3d93803e602a57fd5bf3000000000000000000000060a08401527f000000000000000000000000b82085d1572f882f1ba3b40c83fb378e33fd8d12608884015273602c3d8160093d39f33d3d3d3d363d3d37363d7360748401526035825260c0830193849052636d1e458560e11b9093527f000000000000000000000000529fdff2bc7fbdaea7b86901fda9e6905b61e54c6001600160a01b03169263da3c8b0a9261049e9230929160c401610b4a565b600060405180830381600087803b1580156104b857600080fd5b505af11580156104cc573d6000803e3d6000fd5b5050505061055a565b60005460405163b94417ab60e01b815230600482015260248101919091527f000000000000000000000000529fdff2bc7fbdaea7b86901fda9e6905b61e54c6001600160a01b03169063b94417ab90604401600060405180830381600087803b15801561054157600080fd5b505af1158015610555573d6000803e3d6000fd5b505050505b9392505050565b60006c5af43d3d93803e602a57fd5bf36021528260145273602c3d8160093d39f33d3d3d3d363d3d37363d73600052816035600c86f59050806105ac5763301164256000526004601cfd5b60006021529392505050565b60006105c5600083610640565b92915050565b60003660147f000000000000000000000000b2b5841dbef766d4b521221732f9b618fcf34a876001600160a01b0316331480156106085750808210155b156106385760003661061a8385610bb1565b610625928290610bc4565b61062e91610bee565b60601c9250505090565b339250505090565b60006c5af43d3d93803e602a57fd5bf36021528160145273602c3d8160093d39f33d3d3d3d363d3d37363d736000526035600c84f090508061068a5763301164256000526004601cfd5b600060215292915050565b6001600160a01b03811681146106aa57600080fd5b50565b80356106b881610695565b919050565b6000602082840312156106cf57600080fd5b813561055a81610695565b6000806000606084860312156106ef57600080fd5b83359250602084013567ffffffffffffffff81111561070d57600080fd5b8401610160818703121561072057600080fd5b929592945050506040919091013590565b6000808335601e1984360301811261074857600080fd5b83018035915067ffffffffffffffff82111561076357600080fd5b60200191503681900382131561077857600080fd5b9250929050565b60008235607e1983360301811261079557600080fd5b9190910192915050565b81835281816020850137506000828201602090810191909152601f909101601f19169091010190565b80356cffffffffffffffffffffffffff811681146106b857600080fd5b803563ffffffff811681146106b857600080fd5b803561ffff811681146106b857600080fd5b803562ffffff811681146106b857600080fd5b803560ff811681146106b857600080fd5b803580151581146106b857600080fd5b8183526000602080850194508260005b858110156109925761087787610864846107c8565b6cffffffffffffffffffffffffff169052565b6108828383016107e5565b63ffffffff168388015260406108998382016107e5565b63ffffffff169088015260606108b08382016107f9565b61ffff169088015260806108c58382016106ad565b6001600160a01b03169088015260a0828101359088015260c06108e981840161080b565b62ffffff169088015260e06108ff83820161081e565b60ff169088015261010061091483820161082f565b15159088015261012061092883820161082f565b15159088015261014061093c83820161082f565b15159088015261016061095083820161082f565b15159088015261018061096483820161082f565b1515908801526101a061097883820161082f565b1515908801526101c096870196919091019060010161084f565b509495945050505050565b6109a68161082f565b151582526109b66020820161082f565b151560208301526109c96040820161082f565b151560408301526109dc6060820161082f565b151560608301525050565b8c815261016060208201526000610a0361016083018d8f61079f565b8281036040840152610a16818c8e61079f565b90508281036060840152610a2b818a8c61079f565b90506001600160a01b038816608084015282810360a0840152610a4f81878961079f565b905082810360c08401528435601e19863603018112610a6d57600080fd5b850160208101903567ffffffffffffffff811115610a8a57600080fd5b6101c081023603821315610a9d57600080fd5b60808352610aaf60808401828461083f565b915050610abe602087016107e5565b63ffffffff166020830152610ad56040870161081e565b60ff166040830152610ae9606087016106ad565b6001600160a01b0381166060840152509150610b0a905060e083018461099d565b9d9c50505050505050505050505050565b634e487b7160e01b600052601160045260246000fd5b600060018201610b4357610b43610b1b565b5060010190565b6001600160a01b03841681526000602084602084015260606040840152835180606085015260005b81811015610b8e57858101830151858201608001528201610b72565b506000608082860101526080601f19601f83011685010192505050949350505050565b818103818111156105c5576105c5610b1b565b60008085851115610bd457600080fd5b83861115610be157600080fd5b5050820193919092039150565b6bffffffffffffffffffffffff198135818116916014851015610c1b5780818660140360031b1b83161692505b50509291505056fea264697066735822122045d57eb757764ee1592c85cd61f080c59351272925bbd4e1544c24bdfde26e2464736f6c63430008170033",
	"devdoc": {
		"kind": "dev",
		"methods": {
			"constructor": {
				"params": {
					"addressRegistry": "A registry which stores references to contracts and their deployers.",
					"hook": "Reference copy of a hook."
				}
			},
			"deployHookFor(uint256,(string,string,string,address,string,((uint104,uint32,uint32,uint16,address,bytes32,uint24,uint8,bool,bool,bool,bool,bool,bool)[],uint32,uint8,address),address,(bool,bool,bool,bool)),bytes32)": {
				"params": {
					"deployTiersHookConfig": "The config to deploy the hook with, which determines its behavior.",
					"projectId": "The ID of the project to deploy the hook for.",
					"salt": "A salt to use for the deterministic deployment."
				},
				"returns": {
					"newHook": "The address of the newly deployed hook."
				}
			},
			"isTrustedForwarder(address)": {
				"details": "Indicates whether any particular address is the trusted forwarder."
			},
			"trustedForwarder()": {
				"details": "Returns the address of the trusted forwarder."
			}
		},
		"version": 1
	},
	"userdoc": {
		"kind": "user",
		"methods": {
			"ADDRESS_REGISTRY()": {
				"notice": "A registry which stores references to contracts and their deployers."
			},
			"HOOK()": {
				"notice": "A 721 tiers hook."
			},
			"STORE()": {
				"notice": "The contract that stores and manages data for this contract's NFTs."
			},
			"deployHookFor(uint256,(string,string,string,address,string,((uint104,uint32,uint32,uint16,address,bytes32,uint24,uint8,bool,bool,bool,bool,bool,bool)[],uint32,uint8,address),address,(bool,bool,bool,bool)),bytes32)": {
				"notice": "Deploys a 721 tiers hook for the specified project."
			}
		},
		"version": 1
	},
	"gitCommit": "6b2a1aa786f9beac3441873d103e555a08345552",
	"sourceName": "src/JB721TiersHookDeployer.sol",
	"chainId": "421614",
	"linkReferences": {},
	"deployedLinkReferences": {},
	"history": []
}