{
	"_format": "sphinx-sol-ct-artifact-1",
	"merkleRoot": "0xe86112c80b3fdcd00444f5bde04496941e8a62863097b6d607d04af137595289",
	"contractName": "JB721TiersHookStore",
	"address": "0x7b1F4Ba6312A104E645B06Ab97e4CaA1ef0F773f",
	"abi": [
		{
			"type": "function",
			"name": "balanceOf",
			"inputs": [
				{
					"name": "hook",
					"type": "address",
					"internalType": "address"
				},
				{
					"name": "owner",
					"type": "address",
					"internalType": "address"
				}
			],
			"outputs": [
				{
					"name": "balance",
					"type": "uint256",
					"internalType": "uint256"
				}
			],
			"stateMutability": "view"
		},
		{
			"type": "function",
			"name": "cleanTiers",
			"inputs": [
				{
					"name": "hook",
					"type": "address",
					"internalType": "address"
				}
			],
			"outputs": [],
			"stateMutability": "nonpayable"
		},
		{
			"type": "function",
			"name": "defaultReserveBeneficiaryOf",
			"inputs": [
				{
					"name": "hook",
					"type": "address",
					"internalType": "address"
				}
			],
			"outputs": [
				{
					"name": "",
					"type": "address",
					"internalType": "address"
				}
			],
			"stateMutability": "view"
		},
		{
			"type": "function",
			"name": "encodedIPFSUriOf",
			"inputs": [
				{
					"name": "hook",
					"type": "address",
					"internalType": "address"
				},
				{
					"name": "tierId",
					"type": "uint256",
					"internalType": "uint256"
				}
			],
			"outputs": [
				{
					"name": "",
					"type": "bytes32",
					"internalType": "bytes32"
				}
			],
			"stateMutability": "view"
		},
		{
			"type": "function",
			"name": "encodedTierIPFSUriOf",
			"inputs": [
				{
					"name": "hook",
					"type": "address",
					"internalType": "address"
				},
				{
					"name": "tokenId",
					"type": "uint256",
					"internalType": "uint256"
				}
			],
			"outputs": [
				{
					"name": "",
					"type": "bytes32",
					"internalType": "bytes32"
				}
			],
			"stateMutability": "view"
		},
		{
			"type": "function",
			"name": "flagsOf",
			"inputs": [
				{
					"name": "hook",
					"type": "address",
					"internalType": "address"
				}
			],
			"outputs": [
				{
					"name": "",
					"type": "tuple",
					"internalType": "struct JB721TiersHookFlags",
					"components": [
						{
							"name": "noNewTiersWithReserves",
							"type": "bool",
							"internalType": "bool"
						},
						{
							"name": "noNewTiersWithVotes",
							"type": "bool",
							"internalType": "bool"
						},
						{
							"name": "noNewTiersWithOwnerMinting",
							"type": "bool",
							"internalType": "bool"
						},
						{
							"name": "preventOverspending",
							"type": "bool",
							"internalType": "bool"
						}
					]
				}
			],
			"stateMutability": "view"
		},
		{
			"type": "function",
			"name": "isTierRemoved",
			"inputs": [
				{
					"name": "hook",
					"type": "address",
					"internalType": "address"
				},
				{
					"name": "tierId",
					"type": "uint256",
					"internalType": "uint256"
				}
			],
			"outputs": [
				{
					"name": "",
					"type": "bool",
					"internalType": "bool"
				}
			],
			"stateMutability": "view"
		},
		{
			"type": "function",
			"name": "maxTierIdOf",
			"inputs": [
				{
					"name": "hook",
					"type": "address",
					"internalType": "address"
				}
			],
			"outputs": [
				{
					"name": "",
					"type": "uint256",
					"internalType": "uint256"
				}
			],
			"stateMutability": "view"
		},
		{
			"type": "function",
			"name": "numberOfBurnedFor",
			"inputs": [
				{
					"name": "hook",
					"type": "address",
					"internalType": "address"
				},
				{
					"name": "tierId",
					"type": "uint256",
					"internalType": "uint256"
				}
			],
			"outputs": [
				{
					"name": "",
					"type": "uint256",
					"internalType": "uint256"
				}
			],
			"stateMutability": "view"
		},
		{
			"type": "function",
			"name": "numberOfPendingReservesFor",
			"inputs": [
				{
					"name": "hook",
					"type": "address",
					"internalType": "address"
				},
				{
					"name": "tierId",
					"type": "uint256",
					"internalType": "uint256"
				}
			],
			"outputs": [
				{
					"name": "",
					"type": "uint256",
					"internalType": "uint256"
				}
			],
			"stateMutability": "view"
		},
		{
			"type": "function",
			"name": "numberOfReservesMintedFor",
			"inputs": [
				{
					"name": "hook",
					"type": "address",
					"internalType": "address"
				},
				{
					"name": "tierId",
					"type": "uint256",
					"internalType": "uint256"
				}
			],
			"outputs": [
				{
					"name": "",
					"type": "uint256",
					"internalType": "uint256"
				}
			],
			"stateMutability": "view"
		},
		{
			"type": "function",
			"name": "recordAddTiers",
			"inputs": [
				{
					"name": "tiersToAdd",
					"type": "tuple[]",
					"internalType": "struct JB721TierConfig[]",
					"components": [
						{
							"name": "price",
							"type": "uint104",
							"internalType": "uint104"
						},
						{
							"name": "initialSupply",
							"type": "uint32",
							"internalType": "uint32"
						},
						{
							"name": "votingUnits",
							"type": "uint32",
							"internalType": "uint32"
						},
						{
							"name": "reserveFrequency",
							"type": "uint16",
							"internalType": "uint16"
						},
						{
							"name": "reserveBeneficiary",
							"type": "address",
							"internalType": "address"
						},
						{
							"name": "encodedIPFSUri",
							"type": "bytes32",
							"internalType": "bytes32"
						},
						{
							"name": "category",
							"type": "uint24",
							"internalType": "uint24"
						},
						{
							"name": "discountPercent",
							"type": "uint8",
							"internalType": "uint8"
						},
						{
							"name": "allowOwnerMint",
							"type": "bool",
							"internalType": "bool"
						},
						{
							"name": "useReserveBeneficiaryAsDefault",
							"type": "bool",
							"internalType": "bool"
						},
						{
							"name": "transfersPausable",
							"type": "bool",
							"internalType": "bool"
						},
						{
							"name": "useVotingUnits",
							"type": "bool",
							"internalType": "bool"
						},
						{
							"name": "cannotBeRemoved",
							"type": "bool",
							"internalType": "bool"
						},
						{
							"name": "cannotIncreaseDiscountPercent",
							"type": "bool",
							"internalType": "bool"
						}
					]
				}
			],
			"outputs": [
				{
					"name": "tierIds",
					"type": "uint256[]",
					"internalType": "uint256[]"
				}
			],
			"stateMutability": "nonpayable"
		},
		{
			"type": "function",
			"name": "recordBurn",
			"inputs": [
				{
					"name": "tokenIds",
					"type": "uint256[]",
					"internalType": "uint256[]"
				}
			],
			"outputs": [],
			"stateMutability": "nonpayable"
		},
		{
			"type": "function",
			"name": "recordFlags",
			"inputs": [
				{
					"name": "flags",
					"type": "tuple",
					"internalType": "struct JB721TiersHookFlags",
					"components": [
						{
							"name": "noNewTiersWithReserves",
							"type": "bool",
							"internalType": "bool"
						},
						{
							"name": "noNewTiersWithVotes",
							"type": "bool",
							"internalType": "bool"
						},
						{
							"name": "noNewTiersWithOwnerMinting",
							"type": "bool",
							"internalType": "bool"
						},
						{
							"name": "preventOverspending",
							"type": "bool",
							"internalType": "bool"
						}
					]
				}
			],
			"outputs": [],
			"stateMutability": "nonpayable"
		},
		{
			"type": "function",
			"name": "recordMint",
			"inputs": [
				{
					"name": "amount",
					"type": "uint256",
					"internalType": "uint256"
				},
				{
					"name": "tierIds",
					"type": "uint16[]",
					"internalType": "uint16[]"
				},
				{
					"name": "isOwnerMint",
					"type": "bool",
					"internalType": "bool"
				}
			],
			"outputs": [
				{
					"name": "tokenIds",
					"type": "uint256[]",
					"internalType": "uint256[]"
				},
				{
					"name": "leftoverAmount",
					"type": "uint256",
					"internalType": "uint256"
				}
			],
			"stateMutability": "nonpayable"
		},
		{
			"type": "function",
			"name": "recordMintReservesFor",
			"inputs": [
				{
					"name": "tierId",
					"type": "uint256",
					"internalType": "uint256"
				},
				{
					"name": "count",
					"type": "uint256",
					"internalType": "uint256"
				}
			],
			"outputs": [
				{
					"name": "tokenIds",
					"type": "uint256[]",
					"internalType": "uint256[]"
				}
			],
			"stateMutability": "nonpayable"
		},
		{
			"type": "function",
			"name": "recordRemoveTierIds",
			"inputs": [
				{
					"name": "tierIds",
					"type": "uint256[]",
					"internalType": "uint256[]"
				}
			],
			"outputs": [],
			"stateMutability": "nonpayable"
		},
		{
			"type": "function",
			"name": "recordSetDiscountPercentOf",
			"inputs": [
				{
					"name": "tierId",
					"type": "uint256",
					"internalType": "uint256"
				},
				{
					"name": "discountPercent",
					"type": "uint256",
					"internalType": "uint256"
				}
			],
			"outputs": [],
			"stateMutability": "nonpayable"
		},
		{
			"type": "function",
			"name": "recordSetEncodedIPFSUriOf",
			"inputs": [
				{
					"name": "tierId",
					"type": "uint256",
					"internalType": "uint256"
				},
				{
					"name": "encodedIPFSUri",
					"type": "bytes32",
					"internalType": "bytes32"
				}
			],
			"outputs": [],
			"stateMutability": "nonpayable"
		},
		{
			"type": "function",
			"name": "recordSetTokenUriResolver",
			"inputs": [
				{
					"name": "resolver",
					"type": "address",
					"internalType": "contract IJB721TokenUriResolver"
				}
			],
			"outputs": [],
			"stateMutability": "nonpayable"
		},
		{
			"type": "function",
			"name": "recordTransferForTier",
			"inputs": [
				{
					"name": "tierId",
					"type": "uint256",
					"internalType": "uint256"
				},
				{
					"name": "from",
					"type": "address",
					"internalType": "address"
				},
				{
					"name": "to",
					"type": "address",
					"internalType": "address"
				}
			],
			"outputs": [],
			"stateMutability": "nonpayable"
		},
		{
			"type": "function",
			"name": "redemptionWeightOf",
			"inputs": [
				{
					"name": "hook",
					"type": "address",
					"internalType": "address"
				},
				{
					"name": "tokenIds",
					"type": "uint256[]",
					"internalType": "uint256[]"
				}
			],
			"outputs": [
				{
					"name": "weight",
					"type": "uint256",
					"internalType": "uint256"
				}
			],
			"stateMutability": "view"
		},
		{
			"type": "function",
			"name": "reserveBeneficiaryOf",
			"inputs": [
				{
					"name": "hook",
					"type": "address",
					"internalType": "address"
				},
				{
					"name": "tierId",
					"type": "uint256",
					"internalType": "uint256"
				}
			],
			"outputs": [
				{
					"name": "",
					"type": "address",
					"internalType": "address"
				}
			],
			"stateMutability": "view"
		},
		{
			"type": "function",
			"name": "tierBalanceOf",
			"inputs": [
				{
					"name": "hook",
					"type": "address",
					"internalType": "address"
				},
				{
					"name": "owner",
					"type": "address",
					"internalType": "address"
				},
				{
					"name": "tierId",
					"type": "uint256",
					"internalType": "uint256"
				}
			],
			"outputs": [
				{
					"name": "",
					"type": "uint256",
					"internalType": "uint256"
				}
			],
			"stateMutability": "view"
		},
		{
			"type": "function",
			"name": "tierIdOfToken",
			"inputs": [
				{
					"name": "tokenId",
					"type": "uint256",
					"internalType": "uint256"
				}
			],
			"outputs": [
				{
					"name": "",
					"type": "uint256",
					"internalType": "uint256"
				}
			],
			"stateMutability": "pure"
		},
		{
			"type": "function",
			"name": "tierOf",
			"inputs": [
				{
					"name": "hook",
					"type": "address",
					"internalType": "address"
				},
				{
					"name": "id",
					"type": "uint256",
					"internalType": "uint256"
				},
				{
					"name": "includeResolvedUri",
					"type": "bool",
					"internalType": "bool"
				}
			],
			"outputs": [
				{
					"name": "",
					"type": "tuple",
					"internalType": "struct JB721Tier",
					"components": [
						{
							"name": "id",
							"type": "uint32",
							"internalType": "uint32"
						},
						{
							"name": "price",
							"type": "uint104",
							"internalType": "uint104"
						},
						{
							"name": "remainingSupply",
							"type": "uint32",
							"internalType": "uint32"
						},
						{
							"name": "initialSupply",
							"type": "uint32",
							"internalType": "uint32"
						},
						{
							"name": "votingUnits",
							"type": "uint104",
							"internalType": "uint104"
						},
						{
							"name": "reserveFrequency",
							"type": "uint16",
							"internalType": "uint16"
						},
						{
							"name": "reserveBeneficiary",
							"type": "address",
							"internalType": "address"
						},
						{
							"name": "encodedIPFSUri",
							"type": "bytes32",
							"internalType": "bytes32"
						},
						{
							"name": "category",
							"type": "uint24",
							"internalType": "uint24"
						},
						{
							"name": "discountPercent",
							"type": "uint8",
							"internalType": "uint8"
						},
						{
							"name": "allowOwnerMint",
							"type": "bool",
							"internalType": "bool"
						},
						{
							"name": "transfersPausable",
							"type": "bool",
							"internalType": "bool"
						},
						{
							"name": "cannotBeRemoved",
							"type": "bool",
							"internalType": "bool"
						},
						{
							"name": "cannotIncreaseDiscountPercent",
							"type": "bool",
							"internalType": "bool"
						},
						{
							"name": "resolvedUri",
							"type": "string",
							"internalType": "string"
						}
					]
				}
			],
			"stateMutability": "view"
		},
		{
			"type": "function",
			"name": "tierOfTokenId",
			"inputs": [
				{
					"name": "hook",
					"type": "address",
					"internalType": "address"
				},
				{
					"name": "tokenId",
					"type": "uint256",
					"internalType": "uint256"
				},
				{
					"name": "includeResolvedUri",
					"type": "bool",
					"internalType": "bool"
				}
			],
			"outputs": [
				{
					"name": "",
					"type": "tuple",
					"internalType": "struct JB721Tier",
					"components": [
						{
							"name": "id",
							"type": "uint32",
							"internalType": "uint32"
						},
						{
							"name": "price",
							"type": "uint104",
							"internalType": "uint104"
						},
						{
							"name": "remainingSupply",
							"type": "uint32",
							"internalType": "uint32"
						},
						{
							"name": "initialSupply",
							"type": "uint32",
							"internalType": "uint32"
						},
						{
							"name": "votingUnits",
							"type": "uint104",
							"internalType": "uint104"
						},
						{
							"name": "reserveFrequency",
							"type": "uint16",
							"internalType": "uint16"
						},
						{
							"name": "reserveBeneficiary",
							"type": "address",
							"internalType": "address"
						},
						{
							"name": "encodedIPFSUri",
							"type": "bytes32",
							"internalType": "bytes32"
						},
						{
							"name": "category",
							"type": "uint24",
							"internalType": "uint24"
						},
						{
							"name": "discountPercent",
							"type": "uint8",
							"internalType": "uint8"
						},
						{
							"name": "allowOwnerMint",
							"type": "bool",
							"internalType": "bool"
						},
						{
							"name": "transfersPausable",
							"type": "bool",
							"internalType": "bool"
						},
						{
							"name": "cannotBeRemoved",
							"type": "bool",
							"internalType": "bool"
						},
						{
							"name": "cannotIncreaseDiscountPercent",
							"type": "bool",
							"internalType": "bool"
						},
						{
							"name": "resolvedUri",
							"type": "string",
							"internalType": "string"
						}
					]
				}
			],
			"stateMutability": "view"
		},
		{
			"type": "function",
			"name": "tierVotingUnitsOf",
			"inputs": [
				{
					"name": "hook",
					"type": "address",
					"internalType": "address"
				},
				{
					"name": "account",
					"type": "address",
					"internalType": "address"
				},
				{
					"name": "tierId",
					"type": "uint256",
					"internalType": "uint256"
				}
			],
			"outputs": [
				{
					"name": "",
					"type": "uint256",
					"internalType": "uint256"
				}
			],
			"stateMutability": "view"
		},
		{
			"type": "function",
			"name": "tiersOf",
			"inputs": [
				{
					"name": "hook",
					"type": "address",
					"internalType": "address"
				},
				{
					"name": "categories",
					"type": "uint256[]",
					"internalType": "uint256[]"
				},
				{
					"name": "includeResolvedUri",
					"type": "bool",
					"internalType": "bool"
				},
				{
					"name": "startingId",
					"type": "uint256",
					"internalType": "uint256"
				},
				{
					"name": "size",
					"type": "uint256",
					"internalType": "uint256"
				}
			],
			"outputs": [
				{
					"name": "tiers",
					"type": "tuple[]",
					"internalType": "struct JB721Tier[]",
					"components": [
						{
							"name": "id",
							"type": "uint32",
							"internalType": "uint32"
						},
						{
							"name": "price",
							"type": "uint104",
							"internalType": "uint104"
						},
						{
							"name": "remainingSupply",
							"type": "uint32",
							"internalType": "uint32"
						},
						{
							"name": "initialSupply",
							"type": "uint32",
							"internalType": "uint32"
						},
						{
							"name": "votingUnits",
							"type": "uint104",
							"internalType": "uint104"
						},
						{
							"name": "reserveFrequency",
							"type": "uint16",
							"internalType": "uint16"
						},
						{
							"name": "reserveBeneficiary",
							"type": "address",
							"internalType": "address"
						},
						{
							"name": "encodedIPFSUri",
							"type": "bytes32",
							"internalType": "bytes32"
						},
						{
							"name": "category",
							"type": "uint24",
							"internalType": "uint24"
						},
						{
							"name": "discountPercent",
							"type": "uint8",
							"internalType": "uint8"
						},
						{
							"name": "allowOwnerMint",
							"type": "bool",
							"internalType": "bool"
						},
						{
							"name": "transfersPausable",
							"type": "bool",
							"internalType": "bool"
						},
						{
							"name": "cannotBeRemoved",
							"type": "bool",
							"internalType": "bool"
						},
						{
							"name": "cannotIncreaseDiscountPercent",
							"type": "bool",
							"internalType": "bool"
						},
						{
							"name": "resolvedUri",
							"type": "string",
							"internalType": "string"
						}
					]
				}
			],
			"stateMutability": "view"
		},
		{
			"type": "function",
			"name": "tokenUriResolverOf",
			"inputs": [
				{
					"name": "hook",
					"type": "address",
					"internalType": "address"
				}
			],
			"outputs": [
				{
					"name": "",
					"type": "address",
					"internalType": "contract IJB721TokenUriResolver"
				}
			],
			"stateMutability": "view"
		},
		{
			"type": "function",
			"name": "totalRedemptionWeight",
			"inputs": [
				{
					"name": "hook",
					"type": "address",
					"internalType": "address"
				}
			],
			"outputs": [
				{
					"name": "weight",
					"type": "uint256",
					"internalType": "uint256"
				}
			],
			"stateMutability": "view"
		},
		{
			"type": "function",
			"name": "totalSupplyOf",
			"inputs": [
				{
					"name": "hook",
					"type": "address",
					"internalType": "address"
				}
			],
			"outputs": [
				{
					"name": "supply",
					"type": "uint256",
					"internalType": "uint256"
				}
			],
			"stateMutability": "view"
		},
		{
			"type": "function",
			"name": "votingUnitsOf",
			"inputs": [
				{
					"name": "hook",
					"type": "address",
					"internalType": "address"
				},
				{
					"name": "account",
					"type": "address",
					"internalType": "address"
				}
			],
			"outputs": [
				{
					"name": "units",
					"type": "uint256",
					"internalType": "uint256"
				}
			],
			"stateMutability": "view"
		},
		{
			"type": "event",
			"name": "CleanTiers",
			"inputs": [
				{
					"name": "hook",
					"type": "address",
					"indexed": true,
					"internalType": "address"
				},
				{
					"name": "caller",
					"type": "address",
					"indexed": false,
					"internalType": "address"
				}
			],
			"anonymous": false
		},
		{
			"type": "error",
			"name": "JB721TiersHookStore_CantMintManually",
			"inputs": []
		},
		{
			"type": "error",
			"name": "JB721TiersHookStore_CantRemoveTier",
			"inputs": []
		},
		{
			"type": "error",
			"name": "JB721TiersHookStore_DiscountPercentExceedsBounds",
			"inputs": [
				{
					"name": "percent",
					"type": "uint256",
					"internalType": "uint256"
				},
				{
					"name": "limit",
					"type": "uint256",
					"internalType": "uint256"
				}
			]
		},
		{
			"type": "error",
			"name": "JB721TiersHookStore_DiscountPercentIncreaseNotAllowed",
			"inputs": [
				{
					"name": "percent",
					"type": "uint256",
					"internalType": "uint256"
				},
				{
					"name": "storedPercent",
					"type": "uint256",
					"internalType": "uint256"
				}
			]
		},
		{
			"type": "error",
			"name": "JB721TiersHookStore_InsufficientPendingReserves",
			"inputs": [
				{
					"name": "count",
					"type": "uint256",
					"internalType": "uint256"
				},
				{
					"name": "numberOfPendingReserves",
					"type": "uint256",
					"internalType": "uint256"
				}
			]
		},
		{
			"type": "error",
			"name": "JB721TiersHookStore_InsufficientSupplyRemaining",
			"inputs": []
		},
		{
			"type": "error",
			"name": "JB721TiersHookStore_InvalidCategorySortOrder",
			"inputs": [
				{
					"name": "tierCategory",
					"type": "uint256",
					"internalType": "uint256"
				},
				{
					"name": "previousTierCategory",
					"type": "uint256",
					"internalType": "uint256"
				}
			]
		},
		{
			"type": "error",
			"name": "JB721TiersHookStore_InvalidQuantity",
			"inputs": [
				{
					"name": "quantity",
					"type": "uint256",
					"internalType": "uint256"
				},
				{
					"name": "limit",
					"type": "uint256",
					"internalType": "uint256"
				}
			]
		},
		{
			"type": "error",
			"name": "JB721TiersHookStore_ManualMintingNotAllowed",
			"inputs": []
		},
		{
			"type": "error",
			"name": "JB721TiersHookStore_MaxTiersExceeded",
			"inputs": [
				{
					"name": "numberOfTiers",
					"type": "uint256",
					"internalType": "uint256"
				},
				{
					"name": "limit",
					"type": "uint256",
					"internalType": "uint256"
				}
			]
		},
		{
			"type": "error",
			"name": "JB721TiersHookStore_PriceExceedsAmount",
			"inputs": [
				{
					"name": "price",
					"type": "uint256",
					"internalType": "uint256"
				},
				{
					"name": "leftoverAmount",
					"type": "uint256",
					"internalType": "uint256"
				}
			]
		},
		{
			"type": "error",
			"name": "JB721TiersHookStore_ReserveFrequencyNotAllowed",
			"inputs": []
		},
		{
			"type": "error",
			"name": "JB721TiersHookStore_TierRemoved",
			"inputs": [
				{
					"name": "tierId",
					"type": "uint256",
					"internalType": "uint256"
				}
			]
		},
		{
			"type": "error",
			"name": "JB721TiersHookStore_UnrecognizedTier",
			"inputs": []
		},
		{
			"type": "error",
			"name": "JB721TiersHookStore_VotingUnitsNotAllowed",
			"inputs": []
		},
		{
			"type": "error",
			"name": "JB721TiersHookStore_ZeroInitialSupply",
			"inputs": []
		},
		{
			"type": "error",
			"name": "PRBMath_MulDiv_Overflow",
			"inputs": [
				{
					"name": "x",
					"type": "uint256",
					"internalType": "uint256"
				},
				{
					"name": "y",
					"type": "uint256",
					"internalType": "uint256"
				},
				{
					"name": "denominator",
					"type": "uint256",
					"internalType": "uint256"
				}
			]
		}
	],
	"solcInputHash": "30cd0d125ed0677fcbbeafa2ca950580",
	"args": [],
	"bytecode": "0x608060405234801561001057600080fd5b506139a9806100206000396000f3fe608060405234801561001057600080fd5b506004361061020b5760003560e01c80636825bb801161012a578063c2c55f94116100bd578063cf9530d01161008c578063eaa19ab311610071578063eaa19ab31461064e578063f1bea54f1461066f578063f7888aec1461068f57600080fd5b8063cf9530d0146105f1578063d84a72c01461060457600080fd5b8063c2c55f94146105a5578063c44a8e6d146105b8578063c8df1710146105cb578063cb827e32146105de57600080fd5b806393355578116100f957806393355578146105345780639403a74f14610547578063baa7e80e14610567578063bd51923c1461057a57600080fd5b80636825bb8014610413578063845104de1461043e57806386bc2be31461050e5780638f2b90a71461052157600080fd5b80632b7e6ef0116101a257806349bd1ac61161017157806349bd1ac614610390578063509a2902146103bd5780635f646611146103d057806364faa159146103f357600080fd5b80632b7e6ef01461030e5780632e4d0ea81461033957806337f446521461034c57806342f9914b1461037d57600080fd5b8063144cc2d4116101de578063144cc2d4146102a75780631f1d05ad146102c857806320512ba1146102e85780632ae5e492146102fb57600080fd5b80630357300414610210578063086bb19a146102405780630fab094714610255578063114044921461027e575b600080fd5b61022361021e366004612ec0565b6106a2565b6040516001600160a01b0390911681526020015b60405180910390f35b61025361024e366004612eec565b6106fb565b005b610223610263366004612eec565b6006602052600090815260409020546001600160a01b031681565b61022361028c366004612eec565b6000602081905290815260409020546001600160a01b031681565b6102ba6102b5366004612f55565b61085b565b604051908152602001610237565b6102db6102d6366004612faa565b6108d9565b604051610237919061305c565b6102536102f636600461306f565b61128f565b6102ba610309366004612eec565b61132d565b6102ba61031c366004612ec0565b600360209081526000928352604080842090915290825290205481565b6102ba6103473660046130b1565b61146b565b6102ba61035a3660046130b1565b600560209081526000938452604080852082529284528284209052825290205481565b6102ba61038b3660046130f2565b6115c4565b61025361039e36600461310b565b3360009081526001602090815260408083209483529390529190912055565b6102536103cb36600461310b565b6115d4565b6103e36103de366004612ec0565b611691565b6040519015158152602001610237565b610406610401366004613146565b6116c9565b60405161023791906132fc565b6102ba610421366004612ec0565b600460209081526000928352604080842090915290825290205481565b6104d361044c366004612eec565b604080516080810182526000808252602082018190529181018290526060810191909152506001600160a01b03166000908152600760209081526040918290208251608081018452905460ff808216151583526101008204811615159383019390935262010000810483161515938201939093526301000000909204161515606082015290565b604051610237919081511515815260208083015115159082015260408083015115159082015260609182015115159181019190915260800190565b61025361051c36600461306f565b611802565b6102ba61052f366004612ec0565b6118cd565b6102ba61054236600461330f565b611987565b61055a610555366004613348565b611b1b565b60405161023791906133c2565b6102db61057536600461310b565b611e47565b6102ba610588366004612ec0565b600160209081526000928352604080842090915290825290205481565b6102536105b3366004613426565b61206e565b6104066105c6366004613146565b612101565b6102ba6105d9366004612ec0565b61224c565b6102536105ec36600461345d565b612285565b6102ba6105ff366004612eec565b6122a0565b610253610612366004612eec565b336000908152600660205260409020805473ffffffffffffffffffffffffffffffffffffffff19166001600160a01b0392909216919091179055565b61066161065c366004613475565b61239c565b6040516102379291906134d4565b6102ba61067d366004612eec565b60026020526000908152604090205481565b6102ba61069d36600461330f565b6126c8565b6001600160a01b038083166000908152600a6020908152604080832085845290915281205490911680156106d75790506106f5565b50506001600160a01b03808316600090815260208190526040902054165b92915050565b600061070682612735565b90506000610715836000612776565b90506000610736604051806040016040528060008152602001600081525090565b8215610816576107478584836127df565b6108045761075682600161350c565b83146107b2576001600160a01b0385166000908152600d6020908152604080832085845290915290205483146107ad576001600160a01b0385166000908152600d6020908152604080832085845290915290208390555b610800565b6001600160a01b0385166000908152600d6020908152604080832085845290915290205415610800576001600160a01b0385166000908152600d602090815260408083208584529091528120555b8291505b61080f858486612836565b9250610736565b6040513381526001600160a01b038616907f4a0f854ce3c180d56f3e9eb47eb064c595bf3de0ab9af45425291e5b1bb733a89060200160405180910390a25050505050565b600081815b818110156108d0576001600160a01b0386166000908152600c60205260408120906108a28787858181106108965761089661351f565b905060200201356115c4565b81526020810191909152604001600020546108c6906001600160681b03168461350c565b9250600101610860565b50509392505050565b336000908152600260205260409020546060908261ffff6108fa828461350c565b11156109345761090a818361350c565b604051631e9bcc6760e11b8152600481019190915261ffff60248201526044015b60405180910390fd5b600061093f33612735565b90508167ffffffffffffffff81111561095a5761095a613535565b604051908082528060200260200182016040528015610983578160200160208202803683370190505b5093506000831561099e57610999336000612776565b6109a1565b60005b3360009081526007602090815260408083208151608081018352905460ff8082161515835261010082048116151594830194909452620100008104841615159282019290925263010000009091049091161515606082015291925090815b858110156112675760008a8a83818110610a1b57610a1b61351f565b90506101c00201803603810190610a3291906135d6565b9050610a436001633b9aca006136df565b816020015163ffffffff161115610a8f576020810151610a686001633b9aca006136df565b60405163bad92c4160e01b815263ffffffff9092166004830152602482015260440161092b565b604080516101c081018252600080825260208201819052918101829052606081018290526080810182905260a0810182905260c0810182905260e08101829052610100810182905261012081018290526101408101829052610160810182905261018081018290526101a08101919091528215610b87578b8b610b136001866136df565b818110610b2257610b2261351f565b90506101c00201803603810190610b3991906135d6565b90508060c0015162ffffff168260c0015162ffffff161015610b875760c08083015190820151604051635ccf1bb560e11b815262ffffff92831660048201529116602482015260440161092b565b83602001518015610bd057508161016001518015610bae5750604082015163ffffffff1615155b80610bd05750816101600151158015610bd0575081516001600160681b031615155b15610bee5760405163d3ac63bb60e01b815260040160405180910390fd5b835180610bfd57508161010001515b8015610c105750606082015161ffff1615155b15610c2e5760405163b765c9f360e01b815260040160405180910390fd5b83604001518015610c4157508161010001515b15610c5f576040516315c5af8f60e11b815260040160405180910390fd5b60c861ffff168260e0015160ff161115610c9e5760e0820151604051634c70edff60e11b815260ff909116600482015260c8602482015260440161092b565b816020015163ffffffff16600003610cc957604051630130d0a560e61b815260040160405180910390fd5b6000610cd5848b61350c565b610ce090600161350c565b905060405180610100016040528084600001516001600160681b03168152602001846020015163ffffffff168152602001846020015163ffffffff168152602001846040015163ffffffff1681526020018460c0015162ffffff1681526020018460e0015160ff168152602001846060015161ffff168152602001610d9d856101000151866101400151876101600151886101800151896101a0015160041b60039190911b60029290921b60019390931b90931791909117171790565b60ff908116909152336000908152600c602090815260408083208684528252918290208451815492860151938601516060870151608088015160a089015160c0808b015160e0909b01516001600160681b0390961670ffffffffffffffffffffffffffffffffff1990981697909717600160681b63ffffffff998a1602177fffffffffffffff0000000000000000ffffffffffffffffffffffffffffffffff16600160881b948916949094027fffffffffffffff00000000ffffffffffffffffffffffffffffffffffffffffff1693909317600160a81b9790921696909602177fffffff00000000ffffffffffffffffffffffffffffffffffffffffffffffffff16600160c81b62ffffff9687160260ff60e01b191617600160e01b91871691909102177cffffffffffffffffffffffffffffffffffffffffffffffffffffffffff16600160e81b61ffff909716969096027effffffffffffffffffffffffffffffffffffffffffffffffffffffffffffff1695909517600160f81b9590941694909402929092179092558481015190840151908216911614801590610f4b575060c083015162ffffff1615155b15610f7757336000908152600b6020908152604080832060c087015162ffffff16845290915290208190555b60808301516001600160a01b031615801590610f9a5750606083015161ffff1615155b1561105f5782610120015115611015576080830151336000908152602081905260409020546001600160a01b03908116911614611010576080830151336000908152602081905260409020805473ffffffffffffffffffffffffffffffffffffffff19166001600160a01b039092169190911790555b61105f565b6080830151336000908152600a602090815260408083208584529091529020805473ffffffffffffffffffffffffffffffffffffffff19166001600160a01b039092169190911790555b60a08301511561108a5760a08301513360009081526001602090815260408083208584529091529020555b861561123e578660005b811561123b576110a533838c612836565b336000908152600c6020908152604080832086845290915290205460c087015191925062ffffff600160c81b90910481169116118015906110e657508b8211155b156111bf576110f683600161350c565b821461111a57336000908152600d6020908152604080832086845290915290208290555b336000908152600860205260409020548a14611143573360009081526008602052604090208a90555b61114e6001846136df565b881415806111755750336000908152600d602090815260408083208b845290915290205415155b156111b0576111856001846136df565b88146111915782611194565b60005b336000908152600d602090815260408083208c84529091529020555b81985082975060009150611094565b8015806111cb57508b81115b15611232576111db82600161350c565b83146111ff57336000908152600d6020908152604080832085845290915290208390555b3360009081526008602052604081205493995089939092501561122d57336000908152600860205260408120555b611094565b90965080611094565b50505b808b85815181106112515761125161351f565b60209081029190910101525050506001016109ff565b50611272858761350c565b336000908152600260205260409020555094979650505050505050565b60005b818110156113285760008383838181106112ae576112ae61351f565b336000908152600c60209081526040808320938202959095013580835292905292909220805492935091600160f81b9004600816158015915061130457604051630bade1b560e21b815260040160405180910390fd5b33600090815260096020526040902061131d9084612883565b505050600101611292565b505050565b6001600160a01b03811660009081526002602052604081205460015b818111611464576001600160a01b0384166000908152600c6020908152604080832084845282529182902082516101008101845290546001600160681b038116825263ffffffff600160681b8204811693830193909352600160881b8104831693820193909352600160a81b8304909116606082015262ffffff600160c81b830416608082015260ff600160e01b8304811660a083015261ffff600160e81b84041660c0830152600160f81b90920490911660e082015261140b8583836128bc565b8160200151826040015161141f91906136f2565b63ffffffff1661142f919061350c565b815161144491906001600160681b0316613716565b61144e908561350c565b935050808061145c9061372d565b915050611349565b5050919050565b6001600160a01b03808416600090815260056020908152604080832093861683529281528282208483529052908120548082036114ac5760009150506115bd565b6001600160a01b0385166000908152600c60209081526040808320868452825280832081516101008101835290546001600160681b038116825263ffffffff600160681b8204811694830194909452600160881b8104841692820192909252600160a81b8204909216606083015262ffffff600160c81b820416608083015260ff600160e01b8204811660a084015261ffff600160e81b83041660c0840152600160f81b9091041660e082018190529091906115869060018116151591600282161515916004811615159160088216151591601016151590565b505092505050806115985781516115a4565b816060015163ffffffff165b6115b7906001600160681b031684613716565b93505050505b9392505050565b60006106f5633b9aca008361375c565b60c881111561160057604051634c70edff60e11b81526004810182905260c8602482015260440161092b565b336000908152600c6020908152604080832085845290915290208054600160f81b8104601016151590600160e01b900460ff168311801561163e5750805b15611671578154604051635c52491d60e01b815260048101859052600160e01b90910460ff16602482015260440161092b565b50805460ff909216600160e01b0260ff60e01b1990921691909117905550565b6001600160a01b038216600090815260096020526040812081906116b59084612a24565b90506116c18184612a6a565b949350505050565b604080516101e08101825260008082526020820181905291810182905260608082018390526080820183905260a0820183905260c0820183905260e08201839052610100820183905261012082018390526101408201839052610160820183905261018082018390526101a08201929092526101c08101919091526001600160a01b0384166000908152600c6020908152604080832086845282529182902082516101008101845290546001600160681b038116825263ffffffff600160681b8204811693830193909352600160881b8104831693820193909352600160a81b8304909116606082015262ffffff600160c81b830416608082015260ff600160e01b8304811660a083015261ffff600160e81b84041660c0830152600160f81b90920490911660e08201526116c1908590859085612a89565b8060005b818110156118c75760008484838181106118225761182261351f565b9050602002013590506000611836826115c4565b336000908152600360209081526040808320848452909152812080549293509061185f8361372d565b9091555050336000908152600c6020908152604080832084845290915290208054600160681b900463ffffffff1690600d61189983613770565b91906101000a81548163ffffffff021916908363ffffffff1602179055505050508080600101915050611806565b50505050565b6001600160a01b0382166000908152600c60209081526040808320848452825280832081516101008101835290546001600160681b038116825263ffffffff600160681b8204811694830194909452600160881b8104841692820192909252600160a81b8204909216606083015262ffffff600160c81b820416608083015260ff600160e01b8204811660a084015261ffff600160e81b83041660c0840152600160f81b9091041660e08201526115bd90849084906128bc565b6001600160a01b038216600090815260026020526040812054805b8015611b13576001600160a01b0380861660009081526005602090815260408083209388168352928152828220848352905290812054908190036119e65750611b01565b6001600160a01b0386166000908152600c60209081526040808320858452825280832081516101008101835290546001600160681b038116825263ffffffff600160681b8204811694830194909452600160881b8104841692820192909252600160a81b8204909216606083015262ffffff600160c81b820416608083015260ff600160e01b8204811660a084015261ffff600160e81b83041660c0840152600160f81b9091041660e08201819052909190611ac09060018116151591600282161515916004811615159160088216151591601016151590565b50509250505080611ad2578151611ade565b816060015163ffffffff165b611af1906001600160681b031684613716565b611afb908761350c565b95505050505b80611b0b81613793565b9150506119a2565b505092915050565b60606000611b2888612735565b905080600003611b385750611e3d565b8267ffffffffffffffff811115611b5157611b51613535565b604051908082528060200260200182016040528015611bfa57816020015b604080516101e0810182526000808252602080830182905292820181905260608083018290526080830182905260a0830182905260c0830182905260e08301829052610100830182905261012083018290526101408301829052610160830182905261018083018290526101a08301919091526101c08201528252600019909201910181611b6f5790505b506040805161010081018252600080825260208201819052918101829052606081018290526080810182905260a0810182905260c0810182905260e0810182905291935090604080518082019091526000808252602082015260005b838714611e2c57600088600003611c9b57611c968d8c15611c8f578d8d85818110611c8357611c8361351f565b90506020020135612776565b6000612776565b611c9d565b885b90505b8015801590611cae57508785105b15611e2057611cbe8d82856127df565b611e0e576001600160a01b038d166000908152600c6020908152604080832084845282529182902082516101008101845290546001600160681b038116825263ffffffff600160681b8204811693830193909352600160881b8104831693820193909352600160a81b8304909116606082015262ffffff600160c81b830416608082015260ff600160e01b8304811660a083015261ffff600160e81b84041660c0830152600160f81b90920490911660e082015293508a15801590611da357508b8b83818110611d9057611d9061351f565b90506020020135846080015162ffffff16115b611e20578a1580611dd457508b8b83818110611dc157611dc161351f565b90506020020135846080015162ffffff16145b15611e0e57611de58d82868d612a89565b8786611df08161372d565b975081518110611e0257611e0261351f565b60200260200101819052505b611e198d8288612836565b9050611ca0565b50600101898110611c56575b868414611e37578386525b50505050505b9695505050505050565b336000818152600c60209081526040808320868452825280832081516101008101835281546001600160681b038116825263ffffffff600160681b8204811695830195909552600160881b8104851693820193909352600160a81b830490931660608481019190915262ffffff600160c81b840416608085015260ff600160e01b8404811660a086015261ffff600160e81b85041660c0860152600160f81b90930490921660e08401529093909291611f02919087906128bc565b905080841115611f2f5760405163bc4cd97b60e01b8152600481018590526024810182905260440161092b565b33600090815260046020908152604080832088845290915281208054869290611f5990849061350c565b9091555084905067ffffffffffffffff811115611f7857611f78613535565b604051908082528060200260200182016040528015611fa1578160200160208202803683370190505b503360009081526003602090815260408083208984529091528120549194505b858110156120645761203f878386600001600d81819054906101000a900463ffffffff16611fee906137aa565b91906101000a81548163ffffffff021916908363ffffffff16021790558760000160119054906101000a900463ffffffff1661202a91906136f2565b63ffffffff1661203a919061350c565b612d94565b8582815181106120515761205161351f565b6020908102919091010152600101611fc1565b5050505092915050565b6001600160a01b038216156120bb573360009081526005602090815260408083206001600160a01b03861684528252808320868452909152812080549091906120b690613793565b909155505b6001600160a01b03811615611328573360009081526005602090815260408083206001600160a01b03851684528252808320868452909152902080546001019055505050565b604080516101e08101825260008082526020820181905291810182905260608082018390526080820183905260a0820183905260c0820183905260e08201839052610100820183905261012082018390526101408201839052610160820183905261018082018390526101a082018390526101c082015290612182846115c4565b6001600160a01b0386166000908152600c6020908152604080832084845282529182902082516101008101845290546001600160681b038116825263ffffffff600160681b8204811693830193909352600160881b8104831693820193909352600160a81b8304909116606082015262ffffff600160c81b830416608082015260ff600160e01b8304811660a083015261ffff600160e81b84041660c0830152600160f81b90920490911660e0820152909150612243908690839086612a89565b95945050505050565b6001600160a01b03821660009081526001602052604081208161226e846115c4565b815260200190815260200160002054905092915050565b336000908152600760205260409020819061132882826137d7565b6001600160a01b038116600090815260026020526040812054805b8015611464576001600160a01b0384166000908152600c6020908152604080832084845282529182902082516101008101845290546001600160681b038116825263ffffffff600160681b82048116938301849052600160881b82048116948301859052600160a81b820416606083015262ffffff600160c81b820416608083015260ff600160e01b8204811660a084015261ffff600160e81b83041660c0840152600160f81b9091041660e08201529161237691906136f2565b6123869063ffffffff168561350c565b935050808061239490613793565b9150506122bb565b6060846000848067ffffffffffffffff8111156123bb576123bb613535565b6040519080825280602002602001820160405280156123e4578160200160208202803683370190505b509350612404604051806040016040528060008152602001600081525090565b60005b828110156126bb5760008989838181106124235761242361351f565b90506020020160208101906124389190613874565b61ffff1690506124493382856127df565b1561246a57604051638145a02760e01b81526004810182905260240161092b565b336000908152600c6020908152604080832084845290915290208054909550600160f81b900460011615158880156124a0575080155b156124be5760405163134cf3bb60e31b815260040160405180910390fd5b8554600160881b900463ffffffff166000036124ed5760405163e076c97160e01b815260040160405180910390fd5b85546001600160681b03811690600160e01b900460ff161561252f578654612522908290600160e01b900460ff1660c8612daf565b61252c90826136df565b90505b8781111561255a5760405163774485a360e11b8152600481018290526024810189905260440161092b565b604080516101008101825288546001600160681b038116825263ffffffff600160681b820481166020840152600160881b8204811693830193909352600160a81b8104909216606082015262ffffff600160c81b830416608082015260ff600160e01b8304811660a083015261ffff600160e81b84041660c0830152600160f81b90920490911660e08201526125f390339085906128bc565b8754600160681b900463ffffffff161161262057604051631f97ce8b60e11b815260040160405180910390fd5b336000908152600360209081526040808320868452909152902054875460001963ffffffff600160681b808404821692830182160270ffffffff000000000000000000000000001990931692909217808b55612690938793600160881b9092048216929092036001011601612d94565b8985815181106126a2576126a261351f565b6020908102919091010152909603955050600101612407565b5050505094509492505050565b6001600160a01b038216600090815260026020526040812054805b8015611b13576001600160a01b038086166000908152600560209081526040808320938816835292815282822084835290522054612721908461350c565b92508061272d81613793565b9150506126e3565b6001600160a01b0381166000908152600860205260408120549081900361277157506001600160a01b0381166000908152600260205260409020545b919050565b600081156127a7576001600160a01b0383166000908152600b602090815260408083208584529091529020546127cc565b6001600160a01b0383166000908152600d602090815260408083208380529091529020545b9050806000036106f55750600192915050565b60006127eb8284612e83565b806128025750815115801561280257506020820151155b1561282c576001600160a01b03841660009081526009602052604090206128299084612a24565b91505b6116c18284612a6a565b6000818303612847575060006115bd565b6001600160a01b0384166000908152600d6020908152604080832086845290915290205480156128785790506115bd565b61224384600161350c565b600061288f8260081c90565b905061289d6101008361388f565b6000918252602093909352604090208054600190931b90921790915550565b60008160c0015161ffff16600014806128e85750816020015163ffffffff16826040015163ffffffff16145b80612905575060006128fa85856106a2565b6001600160a01b0316145b15612912575060006115bd565b6001600160a01b0384166000908152600460209081526040808320868452825291829020549084015191840151909163ffffffff90811691612956918491166136df565b036129655760009150506115bd565b600081846020015185604001510363ffffffff1603905060008460c0015161ffff1682612992919061375c565b905060008560c0015161ffff16836129aa919061388f565b11156129bc576129b98161372d565b90505b846040015163ffffffff16818660c0015161ffff1687604001516129e091906138a3565b63ffffffff166129f0919061350c565b1115612a035750602084015163ffffffff165b80831115612a1757600093505050506115bd565b9190910395945050505050565b60408051808201909152600080825260208201526000612a448360081c90565b604080518082018252600083815260209788529190912054815294850152509192915050565b6000612a786101008361388f565b83516001911c811614905092915050565b604080516101e08101825260008082526020820181905291810182905260608082018390526080820183905260a0820183905260c0820183905260e08201839052610100820183905261012082018390526101408201839052610160820183905261018082018390526101a082018390526101c082015290612b0b86866106a2565b90506000806000806000612b418960e0015160018116151591600282161515916004811615159160088216151591601016151590565b94509450945094509450604051806101e001604052808b63ffffffff1681526020018a600001516001600160681b031681526020018a6020015163ffffffff1681526020018a6040015163ffffffff16815260200184612ba2578a51612bae565b8a6060015163ffffffff165b6001600160681b031681526020016001600160a01b03881615612bd5578a60c00151612bd8565b60005b61ffff168152602001876001600160a01b03168152602001600160008e6001600160a01b03166001600160a01b0316815260200190815260200160002060008d81526020019081526020016000205481526020018a6080015162ffffff1681526020018a60a0015160ff1681526020018615158152602001851515815260200183151581526020018215158152602001891580612c8d57506001600160a01b038d811660009081526006602052604090205416155b612d7257600660008e6001600160a01b03166001600160a01b0316815260200190815260200160002060009054906101000a90046001600160a01b03166001600160a01b0316635e703e718e612ce48f6000612d94565b6040517fffffffff0000000000000000000000000000000000000000000000000000000060e085901b1681526001600160a01b0390921660048301526024820152604401600060405180830381865afa158015612d45573d6000803e3d6000fd5b505050506040513d6000823e601f3d908101601f19168201604052612d6d91908101906138c6565b612d83565b604051806020016040528060008152505b90529b9a5050505050505050505050565b600081612da5633b9aca0085613716565b6115bd919061350c565b6000808060001985870985870292508281108382030391505080600003612de957838281612ddf57612ddf613746565b04925050506115bd565b838110612e1a57604051630c740aef60e31b815260048101879052602481018690526044810185905260640161092b565b60008486880960026001871981018816978890046003810283188082028403028082028403028082028403028082028403028082028403029081029092039091026000889003889004909101858311909403939093029303949094049190911702949350505050565b60008260200151612e948360081c90565b14159392505050565b6001600160a01b0381168114612eb257600080fd5b50565b803561277181612e9d565b60008060408385031215612ed357600080fd5b8235612ede81612e9d565b946020939093013593505050565b600060208284031215612efe57600080fd5b81356115bd81612e9d565b60008083601f840112612f1b57600080fd5b50813567ffffffffffffffff811115612f3357600080fd5b6020830191508360208260051b8501011115612f4e57600080fd5b9250929050565b600080600060408486031215612f6a57600080fd5b8335612f7581612e9d565b9250602084013567ffffffffffffffff811115612f9157600080fd5b612f9d86828701612f09565b9497909650939450505050565b60008060208385031215612fbd57600080fd5b823567ffffffffffffffff80821115612fd557600080fd5b818501915085601f830112612fe957600080fd5b813581811115612ff857600080fd5b8660206101c08302850101111561300e57600080fd5b60209290920196919550909350505050565b60008151808452602080850194506020840160005b8381101561305157815187529582019590820190600101613035565b509495945050505050565b6020815260006115bd6020830184613020565b6000806020838503121561308257600080fd5b823567ffffffffffffffff81111561309957600080fd5b6130a585828601612f09565b90969095509350505050565b6000806000606084860312156130c657600080fd5b83356130d181612e9d565b925060208401356130e181612e9d565b929592945050506040919091013590565b60006020828403121561310457600080fd5b5035919050565b6000806040838503121561311e57600080fd5b50508035926020909101359150565b8015158114612eb257600080fd5b80356127718161312d565b60008060006060848603121561315b57600080fd5b833561316681612e9d565b925060208401359150604084013561317d8161312d565b809150509250925092565b60005b838110156131a357818101518382015260200161318b565b50506000910152565b600081518084526131c4816020860160208601613188565b601f01601f19169290920160200192915050565b805163ffffffff16825260006101e0602083015161320160208601826001600160681b03169052565b506040830151613219604086018263ffffffff169052565b506060830151613231606086018263ffffffff169052565b50608083015161324c60808601826001600160681b03169052565b5060a083015161326260a086018261ffff169052565b5060c083015161327d60c08601826001600160a01b03169052565b5060e083015160e08501526101008084015161329f8287018262ffffff169052565b50506101208381015160ff16908501526101408084015115159085015261016080840151151590850152610180808401511515908501526101a0808401511515908501526101c080840151818601839052611e3d838701826131ac565b6020815260006115bd60208301846131d8565b6000806040838503121561332257600080fd5b823561332d81612e9d565b9150602083013561333d81612e9d565b809150509250929050565b60008060008060008060a0878903121561336157600080fd5b863561336c81612e9d565b9550602087013567ffffffffffffffff81111561338857600080fd5b61339489828a01612f09565b90965094505060408701356133a88161312d565b959894975092956060810135946080909101359350915050565b600060208083016020845280855180835260408601915060408160051b87010192506020870160005b8281101561341957603f198886030184526134078583516131d8565b945092850192908501906001016133eb565b5092979650505050505050565b60008060006060848603121561343b57600080fd5b83359250602084013561344d81612e9d565b9150604084013561317d81612e9d565b60006080828403121561346f57600080fd5b50919050565b6000806000806060858703121561348b57600080fd5b84359350602085013567ffffffffffffffff8111156134a957600080fd5b6134b587828801612f09565b90945092505060408501356134c98161312d565b939692955090935050565b6040815260006134e76040830185613020565b90508260208301529392505050565b634e487b7160e01b600052601160045260246000fd5b808201808211156106f5576106f56134f6565b634e487b7160e01b600052603260045260246000fd5b634e487b7160e01b600052604160045260246000fd5b6040516101c0810167ffffffffffffffff8111828210171561356f5761356f613535565b60405290565b80356001600160681b038116811461277157600080fd5b803563ffffffff8116811461277157600080fd5b803561ffff8116811461277157600080fd5b803562ffffff8116811461277157600080fd5b803560ff8116811461277157600080fd5b60006101c082840312156135e957600080fd5b6135f161354b565b6135fa83613575565b81526136086020840161358c565b60208201526136196040840161358c565b604082015261362a606084016135a0565b606082015261363b60808401612eb5565b608082015260a083013560a082015261365660c084016135b2565b60c082015261366760e084016135c5565b60e082015261010061367a81850161313b565b9082015261012061368c84820161313b565b9082015261014061369e84820161313b565b908201526101606136b084820161313b565b908201526101806136c284820161313b565b908201526101a06136d484820161313b565b908201529392505050565b818103818111156106f5576106f56134f6565b63ffffffff82811682821603908082111561370f5761370f6134f6565b5092915050565b80820281158282048414176106f5576106f56134f6565b60006001820161373f5761373f6134f6565b5060010190565b634e487b7160e01b600052601260045260246000fd5b60008261376b5761376b613746565b500490565b600063ffffffff808316818103613789576137896134f6565b6001019392505050565b6000816137a2576137a26134f6565b506000190190565b600063ffffffff8216806137c0576137c06134f6565b6000190192915050565b600081356106f58161312d565b81356137e28161312d565b815460ff19811691151560ff16918217835560208401356138028161312d565b61ff0090151560081b1661ffff19821683178117845560408501356138268161312d565b62ff000081151560101b168462ffffff19851617831717855550505050613870613852606084016137ca565b82805463ff000000191691151560181b63ff00000016919091179055565b5050565b60006020828403121561388657600080fd5b6115bd826135a0565b60008261389e5761389e613746565b500690565b600063ffffffff808416806138ba576138ba613746565b92169190910692915050565b6000602082840312156138d857600080fd5b815167ffffffffffffffff808211156138f057600080fd5b818401915084601f83011261390457600080fd5b81518181111561391657613916613535565b604051601f8201601f19908116603f0116810190838211818310171561393e5761393e613535565b8160405282815287602084870101111561395757600080fd5b613968836020830160208801613188565b97965050505050505056fea26469706673582212203413eb8efd4e5326390621577641010d8c048dc41a20948b3ca9b11d01e5a9d064736f6c63430008170033",
	"devdoc": {
		"kind": "dev",
		"methods": {
			"balanceOf(address,address)": {
				"params": {
					"hook": "The 721 contract to get the balance within.",
					"owner": "The address to check the balance of."
				},
				"returns": {
					"balance": "The number of NFTs the owner has from the 721 contract."
				}
			},
			"cleanTiers(address)": {
				"params": {
					"hook": "The 721 contract to clean tiers for."
				}
			},
			"encodedTierIPFSUriOf(address,uint256)": {
				"params": {
					"hook": "The 721 contract that the encoded IPFS URI belongs to.",
					"tokenId": "The token ID of the 721 to get the encoded tier IPFS URI of."
				},
				"returns": {
					"_0": "The encoded IPFS URI."
				}
			},
			"flagsOf(address)": {
				"params": {
					"hook": "The 721 contract to get the flags of."
				},
				"returns": {
					"_0": "The flags."
				}
			},
			"isTierRemoved(address,uint256)": {
				"params": {
					"hook": "The 721 contract the tier belongs to.",
					"tierId": "The ID of the tier to check the removal status of."
				},
				"returns": {
					"_0": "A bool which is `true` if the tier has been removed, and `false` otherwise."
				}
			},
			"numberOfPendingReservesFor(address,uint256)": {
				"details": "\"Pending\" means that the NFTs have been reserved, but have not been minted yet.",
				"params": {
					"hook": "The 721 contract to check for pending reserved NFTs.",
					"tierId": "The ID of the tier to get the number of pending reserves for."
				},
				"returns": {
					"_0": "The number of pending reserved NFTs."
				}
			},
			"recordAddTiers((uint104,uint32,uint32,uint16,address,bytes32,uint24,uint8,bool,bool,bool,bool,bool,bool)[])": {
				"params": {
					"tiersToAdd": "The tiers to add."
				},
				"returns": {
					"tierIds": "The IDs of the tiers being added."
				}
			},
			"recordBurn(uint256[])": {
				"params": {
					"tokenIds": "The token IDs of the NFTs to burn."
				}
			},
			"recordFlags((bool,bool,bool,bool))": {
				"params": {
					"flags": "The flags to set."
				}
			},
			"recordMint(uint256,uint16[],bool)": {
				"params": {
					"amount": "The amount being spent on NFTs. The total price must not exceed this amount.",
					"isOwnerMint": "A flag indicating whether this function is being directly called by the 721 contract's owner.",
					"tierIds": "The IDs of the tiers to mint from."
				},
				"returns": {
					"leftoverAmount": "The `amount` remaining after minting.",
					"tokenIds": "The token IDs of the NFTs which were minted."
				}
			},
			"recordMintReservesFor(uint256,uint256)": {
				"params": {
					"count": "The number of reserve NFTs to mint.",
					"tierId": "The ID of the tier to mint reserves from."
				},
				"returns": {
					"tokenIds": "The token IDs of the reserve NFTs which were minted."
				}
			},
			"recordRemoveTierIds(uint256[])": {
				"params": {
					"tierIds": "The IDs of the tiers being removed."
				}
			},
			"recordSetDiscountPercentOf(uint256,uint256)": {
				"params": {
					"discountPercent": "The new discount percent being applied.",
					"tierId": "The ID of the tier to record a discount for."
				}
			},
			"recordSetEncodedIPFSUriOf(uint256,bytes32)": {
				"params": {
					"encodedIPFSUri": "The encoded IPFS URI to set for the tier.",
					"tierId": "The ID of the tier to set the encoded IPFS URI of."
				}
			},
			"recordSetTokenUriResolver(address)": {
				"params": {
					"resolver": "The resolver to set."
				}
			},
			"recordTransferForTier(uint256,address,address)": {
				"params": {
					"from": "The address that the 721 is being transferred from.",
					"tierId": "The ID of the tier that the 721 being transferred belongs to.",
					"to": "The address that the 721 is being transferred to."
				}
			},
			"redemptionWeightOf(address,uint256[])": {
				"details": "Redemption weight is based on 721 price.Divide this result by the `totalRedemptionWeight` to get the portion of funds that can be reclaimed by redeeming these NFTs.",
				"params": {
					"hook": "The 721 contract that the NFTs belong to.",
					"tokenIds": "The token IDs of the NFTs to get the redemption weight of."
				},
				"returns": {
					"weight": "The redemption weight."
				}
			},
			"reserveBeneficiaryOf(address,uint256)": {
				"params": {
					"hook": "The 721 contract that the tier belongs to.",
					"tierId": "The ID of the tier to get the reserve beneficiary of."
				},
				"returns": {
					"_0": "The reserve beneficiary for the tier."
				}
			},
			"tierIdOfToken(uint256)": {
				"details": "Tiers are 1-indexed from the `tiers` array, meaning the 0th element of the array is tier 1.",
				"params": {
					"tokenId": "The token ID of the 721 to get the tier ID of."
				},
				"returns": {
					"_0": "The ID of the 721's tier."
				}
			},
			"tierOf(address,uint256,bool)": {
				"params": {
					"hook": "The 721 contract to get the tier from.",
					"id": "The ID of the tier to get.",
					"includeResolvedUri": "If set to `true`, if the contract has a token URI resolver, its content will be resolved and included."
				},
				"returns": {
					"_0": "The tier."
				}
			},
			"tierOfTokenId(address,uint256,bool)": {
				"params": {
					"hook": "The 721 contract that the tier belongs to.",
					"includeResolvedUri": "If set to `true`, if the contract has a token URI resolver, its content will be resolved and included.",
					"tokenId": "The token ID of the 721 to get the tier of."
				},
				"returns": {
					"_0": "The tier."
				}
			},
			"tierVotingUnitsOf(address,address,uint256)": {
				"details": "NFTs have a tier-specific number of voting units. If the tier does not have a custom number of voting units, the price is used.",
				"params": {
					"account": "The address to get the voting units of within the tier.",
					"hook": "The 721 contract that the tier belongs to.",
					"tierId": "The ID of the tier to get voting units within."
				},
				"returns": {
					"_0": "The address' voting units within the tier."
				}
			},
			"tiersOf(address,uint256[],bool,uint256,uint256)": {
				"params": {
					"categories": "An array tier categories to get tiers from. Send an empty array to get all categories.",
					"hook": "The 721 contract to get the tiers of.",
					"includeResolvedUri": "If set to `true`, if the contract has a token URI resolver, its content will be resolved and included.",
					"size": "The number of tiers to include.",
					"startingId": "The ID of the first tier to get (sorted by price). Send 0 to get all active tiers."
				},
				"returns": {
					"tiers": "An array of active 721 tiers."
				}
			},
			"totalRedemptionWeight(address)": {
				"params": {
					"hook": "The 721 contract to get the total redemption weight of."
				},
				"returns": {
					"weight": "The total redemption weight."
				}
			},
			"totalSupplyOf(address)": {
				"params": {
					"hook": "The 721 contract to get a total supply of."
				},
				"returns": {
					"supply": "The total number of NFTs minted from all tiers on the contract."
				}
			},
			"votingUnitsOf(address,address)": {
				"details": "NFTs have a tier-specific number of voting units. If the tier does not have a custom number of voting units, the price is used.",
				"params": {
					"account": "The address to get the voting unit total of.",
					"hook": "The 721 contract to get the voting units within."
				},
				"returns": {
					"units": "The total voting units the address has within the 721 contract."
				}
			}
		},
		"version": 1
	},
	"userdoc": {
		"kind": "user",
		"methods": {
			"balanceOf(address,address)": {
				"notice": "Get the number of NFTs that the specified address has from the specified 721 contract (across all tiers)."
			},
			"cleanTiers(address)": {
				"notice": "Cleans an 721 contract's removed tiers from the tier sorting sequence."
			},
			"defaultReserveBeneficiaryOf(address)": {
				"notice": "Returns the default reserve beneficiary for the provided 721 contract."
			},
			"encodedIPFSUriOf(address,uint256)": {
				"notice": "Returns the encoded IPFS URI for the provided tier ID of the provided 721 contract."
			},
			"encodedTierIPFSUriOf(address,uint256)": {
				"notice": "Resolves the encoded IPFS URI for the tier of the 721 with the provided token ID from the provided 721 contract."
			},
			"flagsOf(address)": {
				"notice": "Get the flags that dictate the behavior of the provided 721 contract."
			},
			"isTierRemoved(address,uint256)": {
				"notice": "Check if the provided tier has been removed from the provided 721 contract."
			},
			"maxTierIdOf(address)": {
				"notice": "Returns the largest tier ID currently used on the provided 721 contract."
			},
			"numberOfBurnedFor(address,uint256)": {
				"notice": "Returns the number of NFTs which have been burned from the provided tier ID of the provided 721 contract."
			},
			"numberOfPendingReservesFor(address,uint256)": {
				"notice": "Get the number of pending reserve NFTs for the provided tier ID of the provided 721 contract."
			},
			"numberOfReservesMintedFor(address,uint256)": {
				"notice": "Returns the number of reserve NFTs which have been minted from the provided tier ID of the provided 721 contract."
			},
			"recordAddTiers((uint104,uint32,uint32,uint16,address,bytes32,uint24,uint8,bool,bool,bool,bool,bool,bool)[])": {
				"notice": "Record newly added tiers."
			},
			"recordBurn(uint256[])": {
				"notice": "Records 721 burns."
			},
			"recordFlags((bool,bool,bool,bool))": {
				"notice": "Record newly set flags."
			},
			"recordMint(uint256,uint16[],bool)": {
				"notice": "Record 721 mints from the provided tiers."
			},
			"recordMintReservesFor(uint256,uint256)": {
				"notice": "Record reserve 721 minting for the provided tier ID on the provided 721 contract."
			},
			"recordRemoveTierIds(uint256[])": {
				"notice": "Record tiers being removed."
			},
			"recordSetDiscountPercentOf(uint256,uint256)": {
				"notice": "Records the setting of a discount for a tier."
			},
			"recordSetEncodedIPFSUriOf(uint256,bytes32)": {
				"notice": "Record a new encoded IPFS URI for a tier."
			},
			"recordSetTokenUriResolver(address)": {
				"notice": "Record a newly set token URI resolver."
			},
			"recordTransferForTier(uint256,address,address)": {
				"notice": "Record an 721 transfer."
			},
			"redemptionWeightOf(address,uint256[])": {
				"notice": "The combined redemption weight of the NFTs with the provided token IDs."
			},
			"reserveBeneficiaryOf(address,uint256)": {
				"notice": "The reserve beneficiary for the provided tier ID on the provided 721 contract."
			},
			"tierBalanceOf(address,address,uint256)": {
				"notice": "Returns the number of NFTs which the provided owner address owns from the provided 721 contract and tier ID."
			},
			"tierIdOfToken(uint256)": {
				"notice": "The tier ID for the 721 with the provided token ID."
			},
			"tierOf(address,uint256,bool)": {
				"notice": "Get the tier with the provided ID from the provided 721 contract."
			},
			"tierOfTokenId(address,uint256,bool)": {
				"notice": "Get the tier of the 721 with the provided token ID in the provided 721 contract."
			},
			"tierVotingUnitsOf(address,address,uint256)": {
				"notice": "Returns the number of voting units an addresses has within the specified tier of the specified 721 contract."
			},
			"tiersOf(address,uint256[],bool,uint256,uint256)": {
				"notice": "Gets an array of currently active 721 tiers for the provided 721 contract."
			},
			"tokenUriResolverOf(address)": {
				"notice": "Returns the custom token URI resolver which overrides the default token URI resolver for the provided 721 contract."
			},
			"totalRedemptionWeight(address)": {
				"notice": "The combined redemption weight for all NFTs from the provided 721 contract."
			},
			"totalSupplyOf(address)": {
				"notice": "Get the number of NFTs which have been minted from the provided 721 contract (across all tiers)."
			},
			"votingUnitsOf(address,address)": {
				"notice": "Get the number of voting units the provided address has for the provided 721 contract (across all tiers)."
			}
		},
		"version": 1
	},
	"gitCommit": "4c5a6a4ff88604a9c0a981284b933b4e7757161c",
	"sourceName": "src/JB721TiersHookStore.sol",
	"chainId": "421614",
	"linkReferences": {},
	"deployedLinkReferences": {},
	"history": []
}