{
	"_format": "sphinx-sol-ct-artifact-1",
	"merkleRoot": "0xf29a925ad7595b534a7334af3cff0f2715becdc9b501f846c233331b92b7a47a",
	"contractName": "JB721TiersHook",
	"address": "0x7c8Ef86687a0Bfa1882D2f25866Cd4EA354EeA3C",
	"abi": [
		{
			"type": "constructor",
			"inputs": [
				{
					"name": "directory",
					"type": "address",
					"internalType": "contract IJBDirectory"
				},
				{
					"name": "permissions",
					"type": "address",
					"internalType": "contract IJBPermissions"
				},
				{
					"name": "trustedForwarder",
					"type": "address",
					"internalType": "address"
				}
			],
			"stateMutability": "nonpayable"
		},
		{
			"type": "function",
			"name": "DIRECTORY",
			"inputs": [],
			"outputs": [
				{
					"name": "",
					"type": "address",
					"internalType": "contract IJBDirectory"
				}
			],
			"stateMutability": "view"
		},
		{
			"type": "function",
			"name": "METADATA_ID_TARGET",
			"inputs": [],
			"outputs": [
				{
					"name": "",
					"type": "address",
					"internalType": "address"
				}
			],
			"stateMutability": "view"
		},
		{
			"type": "function",
			"name": "PERMISSIONS",
			"inputs": [],
			"outputs": [
				{
					"name": "",
					"type": "address",
					"internalType": "contract IJBPermissions"
				}
			],
			"stateMutability": "view"
		},
		{
			"type": "function",
			"name": "PROJECTS",
			"inputs": [],
			"outputs": [
				{
					"name": "",
					"type": "address",
					"internalType": "contract IJBProjects"
				}
			],
			"stateMutability": "view"
		},
		{
			"type": "function",
			"name": "PROJECT_ID",
			"inputs": [],
			"outputs": [
				{
					"name": "",
					"type": "uint256",
					"internalType": "uint256"
				}
			],
			"stateMutability": "view"
		},
		{
			"type": "function",
			"name": "RULESETS",
			"inputs": [],
			"outputs": [
				{
					"name": "",
					"type": "address",
					"internalType": "contract IJBRulesets"
				}
			],
			"stateMutability": "view"
		},
		{
			"type": "function",
			"name": "STORE",
			"inputs": [],
			"outputs": [
				{
					"name": "",
					"type": "address",
					"internalType": "contract IJB721TiersHookStore"
				}
			],
			"stateMutability": "view"
		},
		{
			"type": "function",
			"name": "adjustTiers",
			"inputs": [
				{
					"name": "tiersToAdd",
					"type": "tuple[]",
					"internalType": "struct JB721TierConfig[]",
					"components": [
						{
							"name": "price",
							"type": "uint104",
							"internalType": "uint104"
						},
						{
							"name": "initialSupply",
							"type": "uint32",
							"internalType": "uint32"
						},
						{
							"name": "votingUnits",
							"type": "uint32",
							"internalType": "uint32"
						},
						{
							"name": "reserveFrequency",
							"type": "uint16",
							"internalType": "uint16"
						},
						{
							"name": "reserveBeneficiary",
							"type": "address",
							"internalType": "address"
						},
						{
							"name": "encodedIPFSUri",
							"type": "bytes32",
							"internalType": "bytes32"
						},
						{
							"name": "category",
							"type": "uint24",
							"internalType": "uint24"
						},
						{
							"name": "allowOwnerMint",
							"type": "bool",
							"internalType": "bool"
						},
						{
							"name": "useReserveBeneficiaryAsDefault",
							"type": "bool",
							"internalType": "bool"
						},
						{
							"name": "transfersPausable",
							"type": "bool",
							"internalType": "bool"
						},
						{
							"name": "useVotingUnits",
							"type": "bool",
							"internalType": "bool"
						},
						{
							"name": "cannotBeRemoved",
							"type": "bool",
							"internalType": "bool"
						}
					]
				},
				{
					"name": "tierIdsToRemove",
					"type": "uint256[]",
					"internalType": "uint256[]"
				}
			],
			"outputs": [],
			"stateMutability": "nonpayable"
		},
		{
			"type": "function",
			"name": "afterPayRecordedWith",
			"inputs": [
				{
					"name": "context",
					"type": "tuple",
					"internalType": "struct JBAfterPayRecordedContext",
					"components": [
						{
							"name": "payer",
							"type": "address",
							"internalType": "address"
						},
						{
							"name": "projectId",
							"type": "uint256",
							"internalType": "uint256"
						},
						{
							"name": "rulesetId",
							"type": "uint256",
							"internalType": "uint256"
						},
						{
							"name": "amount",
							"type": "tuple",
							"internalType": "struct JBTokenAmount",
							"components": [
								{
									"name": "token",
									"type": "address",
									"internalType": "address"
								},
								{
									"name": "value",
									"type": "uint256",
									"internalType": "uint256"
								},
								{
									"name": "decimals",
									"type": "uint256",
									"internalType": "uint256"
								},
								{
									"name": "currency",
									"type": "uint256",
									"internalType": "uint256"
								}
							]
						},
						{
							"name": "forwardedAmount",
							"type": "tuple",
							"internalType": "struct JBTokenAmount",
							"components": [
								{
									"name": "token",
									"type": "address",
									"internalType": "address"
								},
								{
									"name": "value",
									"type": "uint256",
									"internalType": "uint256"
								},
								{
									"name": "decimals",
									"type": "uint256",
									"internalType": "uint256"
								},
								{
									"name": "currency",
									"type": "uint256",
									"internalType": "uint256"
								}
							]
						},
						{
							"name": "weight",
							"type": "uint256",
							"internalType": "uint256"
						},
						{
							"name": "projectTokenCount",
							"type": "uint256",
							"internalType": "uint256"
						},
						{
							"name": "beneficiary",
							"type": "address",
							"internalType": "address"
						},
						{
							"name": "hookMetadata",
							"type": "bytes",
							"internalType": "bytes"
						},
						{
							"name": "payerMetadata",
							"type": "bytes",
							"internalType": "bytes"
						}
					]
				}
			],
			"outputs": [],
			"stateMutability": "payable"
		},
		{
			"type": "function",
			"name": "afterRedeemRecordedWith",
			"inputs": [
				{
					"name": "context",
					"type": "tuple",
					"internalType": "struct JBAfterRedeemRecordedContext",
					"components": [
						{
							"name": "holder",
							"type": "address",
							"internalType": "address"
						},
						{
							"name": "projectId",
							"type": "uint256",
							"internalType": "uint256"
						},
						{
							"name": "rulesetId",
							"type": "uint256",
							"internalType": "uint256"
						},
						{
							"name": "redeemCount",
							"type": "uint256",
							"internalType": "uint256"
						},
						{
							"name": "reclaimedAmount",
							"type": "tuple",
							"internalType": "struct JBTokenAmount",
							"components": [
								{
									"name": "token",
									"type": "address",
									"internalType": "address"
								},
								{
									"name": "value",
									"type": "uint256",
									"internalType": "uint256"
								},
								{
									"name": "decimals",
									"type": "uint256",
									"internalType": "uint256"
								},
								{
									"name": "currency",
									"type": "uint256",
									"internalType": "uint256"
								}
							]
						},
						{
							"name": "forwardedAmount",
							"type": "tuple",
							"internalType": "struct JBTokenAmount",
							"components": [
								{
									"name": "token",
									"type": "address",
									"internalType": "address"
								},
								{
									"name": "value",
									"type": "uint256",
									"internalType": "uint256"
								},
								{
									"name": "decimals",
									"type": "uint256",
									"internalType": "uint256"
								},
								{
									"name": "currency",
									"type": "uint256",
									"internalType": "uint256"
								}
							]
						},
						{
							"name": "redemptionRate",
							"type": "uint256",
							"internalType": "uint256"
						},
						{
							"name": "beneficiary",
							"type": "address",
							"internalType": "address payable"
						},
						{
							"name": "hookMetadata",
							"type": "bytes",
							"internalType": "bytes"
						},
						{
							"name": "redeemerMetadata",
							"type": "bytes",
							"internalType": "bytes"
						}
					]
				}
			],
			"outputs": [],
			"stateMutability": "payable"
		},
		{
			"type": "function",
			"name": "approve",
			"inputs": [
				{
					"name": "to",
					"type": "address",
					"internalType": "address"
				},
				{
					"name": "tokenId",
					"type": "uint256",
					"internalType": "uint256"
				}
			],
			"outputs": [],
			"stateMutability": "nonpayable"
		},
		{
			"type": "function",
			"name": "balanceOf",
			"inputs": [
				{
					"name": "owner",
					"type": "address",
					"internalType": "address"
				}
			],
			"outputs": [
				{
					"name": "balance",
					"type": "uint256",
					"internalType": "uint256"
				}
			],
			"stateMutability": "view"
		},
		{
			"type": "function",
			"name": "baseURI",
			"inputs": [],
			"outputs": [
				{
					"name": "",
					"type": "string",
					"internalType": "string"
				}
			],
			"stateMutability": "view"
		},
		{
			"type": "function",
			"name": "beforePayRecordedWith",
			"inputs": [
				{
					"name": "context",
					"type": "tuple",
					"internalType": "struct JBBeforePayRecordedContext",
					"components": [
						{
							"name": "terminal",
							"type": "address",
							"internalType": "address"
						},
						{
							"name": "payer",
							"type": "address",
							"internalType": "address"
						},
						{
							"name": "amount",
							"type": "tuple",
							"internalType": "struct JBTokenAmount",
							"components": [
								{
									"name": "token",
									"type": "address",
									"internalType": "address"
								},
								{
									"name": "value",
									"type": "uint256",
									"internalType": "uint256"
								},
								{
									"name": "decimals",
									"type": "uint256",
									"internalType": "uint256"
								},
								{
									"name": "currency",
									"type": "uint256",
									"internalType": "uint256"
								}
							]
						},
						{
							"name": "projectId",
							"type": "uint256",
							"internalType": "uint256"
						},
						{
							"name": "rulesetId",
							"type": "uint256",
							"internalType": "uint256"
						},
						{
							"name": "beneficiary",
							"type": "address",
							"internalType": "address"
						},
						{
							"name": "weight",
							"type": "uint256",
							"internalType": "uint256"
						},
						{
							"name": "reservedRate",
							"type": "uint256",
							"internalType": "uint256"
						},
						{
							"name": "metadata",
							"type": "bytes",
							"internalType": "bytes"
						}
					]
				}
			],
			"outputs": [
				{
					"name": "weight",
					"type": "uint256",
					"internalType": "uint256"
				},
				{
					"name": "hookSpecifications",
					"type": "tuple[]",
					"internalType": "struct JBPayHookSpecification[]",
					"components": [
						{
							"name": "hook",
							"type": "address",
							"internalType": "contract IJBPayHook"
						},
						{
							"name": "amount",
							"type": "uint256",
							"internalType": "uint256"
						},
						{
							"name": "metadata",
							"type": "bytes",
							"internalType": "bytes"
						}
					]
				}
			],
			"stateMutability": "view"
		},
		{
			"type": "function",
			"name": "beforeRedeemRecordedWith",
			"inputs": [
				{
					"name": "context",
					"type": "tuple",
					"internalType": "struct JBBeforeRedeemRecordedContext",
					"components": [
						{
							"name": "terminal",
							"type": "address",
							"internalType": "address"
						},
						{
							"name": "holder",
							"type": "address",
							"internalType": "address"
						},
						{
							"name": "projectId",
							"type": "uint256",
							"internalType": "uint256"
						},
						{
							"name": "rulesetId",
							"type": "uint256",
							"internalType": "uint256"
						},
						{
							"name": "redeemCount",
							"type": "uint256",
							"internalType": "uint256"
						},
						{
							"name": "totalSupply",
							"type": "uint256",
							"internalType": "uint256"
						},
						{
							"name": "surplus",
							"type": "tuple",
							"internalType": "struct JBTokenAmount",
							"components": [
								{
									"name": "token",
									"type": "address",
									"internalType": "address"
								},
								{
									"name": "value",
									"type": "uint256",
									"internalType": "uint256"
								},
								{
									"name": "decimals",
									"type": "uint256",
									"internalType": "uint256"
								},
								{
									"name": "currency",
									"type": "uint256",
									"internalType": "uint256"
								}
							]
						},
						{
							"name": "useTotalSurplus",
							"type": "bool",
							"internalType": "bool"
						},
						{
							"name": "redemptionRate",
							"type": "uint256",
							"internalType": "uint256"
						},
						{
							"name": "metadata",
							"type": "bytes",
							"internalType": "bytes"
						}
					]
				}
			],
			"outputs": [
				{
					"name": "redemptionRate",
					"type": "uint256",
					"internalType": "uint256"
				},
				{
					"name": "redeemCount",
					"type": "uint256",
					"internalType": "uint256"
				},
				{
					"name": "totalSupply",
					"type": "uint256",
					"internalType": "uint256"
				},
				{
					"name": "hookSpecifications",
					"type": "tuple[]",
					"internalType": "struct JBRedeemHookSpecification[]",
					"components": [
						{
							"name": "hook",
							"type": "address",
							"internalType": "contract IJBRedeemHook"
						},
						{
							"name": "amount",
							"type": "uint256",
							"internalType": "uint256"
						},
						{
							"name": "metadata",
							"type": "bytes",
							"internalType": "bytes"
						}
					]
				}
			],
			"stateMutability": "view"
		},
		{
			"type": "function",
			"name": "contractURI",
			"inputs": [],
			"outputs": [
				{
					"name": "",
					"type": "string",
					"internalType": "string"
				}
			],
			"stateMutability": "view"
		},
		{
			"type": "function",
			"name": "firstOwnerOf",
			"inputs": [
				{
					"name": "tokenId",
					"type": "uint256",
					"internalType": "uint256"
				}
			],
			"outputs": [
				{
					"name": "",
					"type": "address",
					"internalType": "address"
				}
			],
			"stateMutability": "view"
		},
		{
			"type": "function",
			"name": "getApproved",
			"inputs": [
				{
					"name": "tokenId",
					"type": "uint256",
					"internalType": "uint256"
				}
			],
			"outputs": [
				{
					"name": "",
					"type": "address",
					"internalType": "address"
				}
			],
			"stateMutability": "view"
		},
		{
			"type": "function",
			"name": "hasMintPermissionFor",
			"inputs": [
				{
					"name": "",
					"type": "uint256",
					"internalType": "uint256"
				},
				{
					"name": "",
					"type": "address",
					"internalType": "address"
				}
			],
			"outputs": [
				{
					"name": "",
					"type": "bool",
					"internalType": "bool"
				}
			],
			"stateMutability": "pure"
		},
		{
			"type": "function",
			"name": "initialize",
			"inputs": [
				{
					"name": "projectId",
					"type": "uint256",
					"internalType": "uint256"
				},
				{
					"name": "name",
					"type": "string",
					"internalType": "string"
				},
				{
					"name": "symbol",
					"type": "string",
					"internalType": "string"
				},
				{
					"name": "rulesets",
					"type": "address",
					"internalType": "contract IJBRulesets"
				},
				{
					"name": "baseUri",
					"type": "string",
					"internalType": "string"
				},
				{
					"name": "tokenUriResolver",
					"type": "address",
					"internalType": "contract IJB721TokenUriResolver"
				},
				{
					"name": "contractUri",
					"type": "string",
					"internalType": "string"
				},
				{
					"name": "tiersConfig",
					"type": "tuple",
					"internalType": "struct JB721InitTiersConfig",
					"components": [
						{
							"name": "tiers",
							"type": "tuple[]",
							"internalType": "struct JB721TierConfig[]",
							"components": [
								{
									"name": "price",
									"type": "uint104",
									"internalType": "uint104"
								},
								{
									"name": "initialSupply",
									"type": "uint32",
									"internalType": "uint32"
								},
								{
									"name": "votingUnits",
									"type": "uint32",
									"internalType": "uint32"
								},
								{
									"name": "reserveFrequency",
									"type": "uint16",
									"internalType": "uint16"
								},
								{
									"name": "reserveBeneficiary",
									"type": "address",
									"internalType": "address"
								},
								{
									"name": "encodedIPFSUri",
									"type": "bytes32",
									"internalType": "bytes32"
								},
								{
									"name": "category",
									"type": "uint24",
									"internalType": "uint24"
								},
								{
									"name": "allowOwnerMint",
									"type": "bool",
									"internalType": "bool"
								},
								{
									"name": "useReserveBeneficiaryAsDefault",
									"type": "bool",
									"internalType": "bool"
								},
								{
									"name": "transfersPausable",
									"type": "bool",
									"internalType": "bool"
								},
								{
									"name": "useVotingUnits",
									"type": "bool",
									"internalType": "bool"
								},
								{
									"name": "cannotBeRemoved",
									"type": "bool",
									"internalType": "bool"
								}
							]
						},
						{
							"name": "currency",
							"type": "uint32",
							"internalType": "uint32"
						},
						{
							"name": "decimals",
							"type": "uint8",
							"internalType": "uint8"
						},
						{
							"name": "prices",
							"type": "address",
							"internalType": "contract IJBPrices"
						}
					]
				},
				{
					"name": "store",
					"type": "address",
					"internalType": "contract IJB721TiersHookStore"
				},
				{
					"name": "flags",
					"type": "tuple",
					"internalType": "struct JB721TiersHookFlags",
					"components": [
						{
							"name": "noNewTiersWithReserves",
							"type": "bool",
							"internalType": "bool"
						},
						{
							"name": "noNewTiersWithVotes",
							"type": "bool",
							"internalType": "bool"
						},
						{
							"name": "noNewTiersWithOwnerMinting",
							"type": "bool",
							"internalType": "bool"
						},
						{
							"name": "preventOverspending",
							"type": "bool",
							"internalType": "bool"
						}
					]
				}
			],
			"outputs": [],
			"stateMutability": "nonpayable"
		},
		{
			"type": "function",
			"name": "isApprovedForAll",
			"inputs": [
				{
					"name": "owner",
					"type": "address",
					"internalType": "address"
				},
				{
					"name": "operator",
					"type": "address",
					"internalType": "address"
				}
			],
			"outputs": [
				{
					"name": "",
					"type": "bool",
					"internalType": "bool"
				}
			],
			"stateMutability": "view"
		},
		{
			"type": "function",
			"name": "isTrustedForwarder",
			"inputs": [
				{
					"name": "forwarder",
					"type": "address",
					"internalType": "address"
				}
			],
			"outputs": [
				{
					"name": "",
					"type": "bool",
					"internalType": "bool"
				}
			],
			"stateMutability": "view"
		},
		{
			"type": "function",
			"name": "jbOwner",
			"inputs": [],
			"outputs": [
				{
					"name": "owner",
					"type": "address",
					"internalType": "address"
				},
				{
					"name": "projectId",
					"type": "uint88",
					"internalType": "uint88"
				},
				{
					"name": "permissionId",
					"type": "uint8",
					"internalType": "uint8"
				}
			],
			"stateMutability": "view"
		},
		{
			"type": "function",
			"name": "mintFor",
			"inputs": [
				{
					"name": "tierIds",
					"type": "uint16[]",
					"internalType": "uint16[]"
				},
				{
					"name": "beneficiary",
					"type": "address",
					"internalType": "address"
				}
			],
			"outputs": [
				{
					"name": "tokenIds",
					"type": "uint256[]",
					"internalType": "uint256[]"
				}
			],
			"stateMutability": "nonpayable"
		},
		{
			"type": "function",
			"name": "mintPendingReservesFor",
			"inputs": [
				{
					"name": "reserveMintConfigs",
					"type": "tuple[]",
					"internalType": "struct JB721TiersMintReservesConfig[]",
					"components": [
						{
							"name": "tierId",
							"type": "uint256",
							"internalType": "uint256"
						},
						{
							"name": "count",
							"type": "uint256",
							"internalType": "uint256"
						}
					]
				}
			],
			"outputs": [],
			"stateMutability": "nonpayable"
		},
		{
			"type": "function",
			"name": "mintPendingReservesFor",
			"inputs": [
				{
					"name": "tierId",
					"type": "uint256",
					"internalType": "uint256"
				},
				{
					"name": "count",
					"type": "uint256",
					"internalType": "uint256"
				}
			],
			"outputs": [],
			"stateMutability": "nonpayable"
		},
		{
			"type": "function",
			"name": "name",
			"inputs": [],
			"outputs": [
				{
					"name": "",
					"type": "string",
					"internalType": "string"
				}
			],
			"stateMutability": "view"
		},
		{
			"type": "function",
			"name": "owner",
			"inputs": [],
			"outputs": [
				{
					"name": "",
					"type": "address",
					"internalType": "address"
				}
			],
			"stateMutability": "view"
		},
		{
			"type": "function",
			"name": "ownerOf",
			"inputs": [
				{
					"name": "tokenId",
					"type": "uint256",
					"internalType": "uint256"
				}
			],
			"outputs": [
				{
					"name": "",
					"type": "address",
					"internalType": "address"
				}
			],
			"stateMutability": "view"
		},
		{
			"type": "function",
			"name": "payCreditsOf",
			"inputs": [
				{
					"name": "addr",
					"type": "address",
					"internalType": "address"
				}
			],
			"outputs": [
				{
					"name": "",
					"type": "uint256",
					"internalType": "uint256"
				}
			],
			"stateMutability": "view"
		},
		{
			"type": "function",
			"name": "pricingContext",
			"inputs": [],
			"outputs": [
				{
					"name": "currency",
					"type": "uint256",
					"internalType": "uint256"
				},
				{
					"name": "decimals",
					"type": "uint256",
					"internalType": "uint256"
				},
				{
					"name": "prices",
					"type": "address",
					"internalType": "contract IJBPrices"
				}
			],
			"stateMutability": "view"
		},
		{
			"type": "function",
			"name": "redemptionWeightOf",
			"inputs": [
				{
					"name": "tokenIds",
					"type": "uint256[]",
					"internalType": "uint256[]"
				},
				{
					"name": "",
					"type": "tuple",
					"internalType": "struct JBBeforeRedeemRecordedContext",
					"components": [
						{
							"name": "terminal",
							"type": "address",
							"internalType": "address"
						},
						{
							"name": "holder",
							"type": "address",
							"internalType": "address"
						},
						{
							"name": "projectId",
							"type": "uint256",
							"internalType": "uint256"
						},
						{
							"name": "rulesetId",
							"type": "uint256",
							"internalType": "uint256"
						},
						{
							"name": "redeemCount",
							"type": "uint256",
							"internalType": "uint256"
						},
						{
							"name": "totalSupply",
							"type": "uint256",
							"internalType": "uint256"
						},
						{
							"name": "surplus",
							"type": "tuple",
							"internalType": "struct JBTokenAmount",
							"components": [
								{
									"name": "token",
									"type": "address",
									"internalType": "address"
								},
								{
									"name": "value",
									"type": "uint256",
									"internalType": "uint256"
								},
								{
									"name": "decimals",
									"type": "uint256",
									"internalType": "uint256"
								},
								{
									"name": "currency",
									"type": "uint256",
									"internalType": "uint256"
								}
							]
						},
						{
							"name": "useTotalSurplus",
							"type": "bool",
							"internalType": "bool"
						},
						{
							"name": "redemptionRate",
							"type": "uint256",
							"internalType": "uint256"
						},
						{
							"name": "metadata",
							"type": "bytes",
							"internalType": "bytes"
						}
					]
				}
			],
			"outputs": [
				{
					"name": "",
					"type": "uint256",
					"internalType": "uint256"
				}
			],
			"stateMutability": "view"
		},
		{
			"type": "function",
			"name": "renounceOwnership",
			"inputs": [],
			"outputs": [],
			"stateMutability": "nonpayable"
		},
		{
			"type": "function",
			"name": "safeTransferFrom",
			"inputs": [
				{
					"name": "from",
					"type": "address",
					"internalType": "address"
				},
				{
					"name": "to",
					"type": "address",
					"internalType": "address"
				},
				{
					"name": "tokenId",
					"type": "uint256",
					"internalType": "uint256"
				}
			],
			"outputs": [],
			"stateMutability": "nonpayable"
		},
		{
			"type": "function",
			"name": "safeTransferFrom",
			"inputs": [
				{
					"name": "from",
					"type": "address",
					"internalType": "address"
				},
				{
					"name": "to",
					"type": "address",
					"internalType": "address"
				},
				{
					"name": "tokenId",
					"type": "uint256",
					"internalType": "uint256"
				},
				{
					"name": "data",
					"type": "bytes",
					"internalType": "bytes"
				}
			],
			"outputs": [],
			"stateMutability": "nonpayable"
		},
		{
			"type": "function",
			"name": "setApprovalForAll",
			"inputs": [
				{
					"name": "operator",
					"type": "address",
					"internalType": "address"
				},
				{
					"name": "approved",
					"type": "bool",
					"internalType": "bool"
				}
			],
			"outputs": [],
			"stateMutability": "nonpayable"
		},
		{
			"type": "function",
			"name": "setMetadata",
			"inputs": [
				{
					"name": "baseUri",
					"type": "string",
					"internalType": "string"
				},
				{
					"name": "contractUri",
					"type": "string",
					"internalType": "string"
				},
				{
					"name": "tokenUriResolver",
					"type": "address",
					"internalType": "contract IJB721TokenUriResolver"
				},
				{
					"name": "encodedIPFSTUriTierId",
					"type": "uint256",
					"internalType": "uint256"
				},
				{
					"name": "encodedIPFSUri",
					"type": "bytes32",
					"internalType": "bytes32"
				}
			],
			"outputs": [],
			"stateMutability": "nonpayable"
		},
		{
			"type": "function",
			"name": "setPermissionId",
			"inputs": [
				{
					"name": "permissionId",
					"type": "uint8",
					"internalType": "uint8"
				}
			],
			"outputs": [],
			"stateMutability": "nonpayable"
		},
		{
			"type": "function",
			"name": "supportsInterface",
			"inputs": [
				{
					"name": "interfaceId",
					"type": "bytes4",
					"internalType": "bytes4"
				}
			],
			"outputs": [
				{
					"name": "",
					"type": "bool",
					"internalType": "bool"
				}
			],
			"stateMutability": "view"
		},
		{
			"type": "function",
			"name": "symbol",
			"inputs": [],
			"outputs": [
				{
					"name": "",
					"type": "string",
					"internalType": "string"
				}
			],
			"stateMutability": "view"
		},
		{
			"type": "function",
			"name": "tokenURI",
			"inputs": [
				{
					"name": "tokenId",
					"type": "uint256",
					"internalType": "uint256"
				}
			],
			"outputs": [
				{
					"name": "",
					"type": "string",
					"internalType": "string"
				}
			],
			"stateMutability": "view"
		},
		{
			"type": "function",
			"name": "totalRedemptionWeight",
			"inputs": [
				{
					"name": "",
					"type": "tuple",
					"internalType": "struct JBBeforeRedeemRecordedContext",
					"components": [
						{
							"name": "terminal",
							"type": "address",
							"internalType": "address"
						},
						{
							"name": "holder",
							"type": "address",
							"internalType": "address"
						},
						{
							"name": "projectId",
							"type": "uint256",
							"internalType": "uint256"
						},
						{
							"name": "rulesetId",
							"type": "uint256",
							"internalType": "uint256"
						},
						{
							"name": "redeemCount",
							"type": "uint256",
							"internalType": "uint256"
						},
						{
							"name": "totalSupply",
							"type": "uint256",
							"internalType": "uint256"
						},
						{
							"name": "surplus",
							"type": "tuple",
							"internalType": "struct JBTokenAmount",
							"components": [
								{
									"name": "token",
									"type": "address",
									"internalType": "address"
								},
								{
									"name": "value",
									"type": "uint256",
									"internalType": "uint256"
								},
								{
									"name": "decimals",
									"type": "uint256",
									"internalType": "uint256"
								},
								{
									"name": "currency",
									"type": "uint256",
									"internalType": "uint256"
								}
							]
						},
						{
							"name": "useTotalSurplus",
							"type": "bool",
							"internalType": "bool"
						},
						{
							"name": "redemptionRate",
							"type": "uint256",
							"internalType": "uint256"
						},
						{
							"name": "metadata",
							"type": "bytes",
							"internalType": "bytes"
						}
					]
				}
			],
			"outputs": [
				{
					"name": "",
					"type": "uint256",
					"internalType": "uint256"
				}
			],
			"stateMutability": "view"
		},
		{
			"type": "function",
			"name": "transferFrom",
			"inputs": [
				{
					"name": "from",
					"type": "address",
					"internalType": "address"
				},
				{
					"name": "to",
					"type": "address",
					"internalType": "address"
				},
				{
					"name": "tokenId",
					"type": "uint256",
					"internalType": "uint256"
				}
			],
			"outputs": [],
			"stateMutability": "nonpayable"
		},
		{
			"type": "function",
			"name": "transferOwnership",
			"inputs": [
				{
					"name": "newOwner",
					"type": "address",
					"internalType": "address"
				}
			],
			"outputs": [],
			"stateMutability": "nonpayable"
		},
		{
			"type": "function",
			"name": "transferOwnershipToProject",
			"inputs": [
				{
					"name": "projectId",
					"type": "uint256",
					"internalType": "uint256"
				}
			],
			"outputs": [],
			"stateMutability": "nonpayable"
		},
		{
			"type": "function",
			"name": "trustedForwarder",
			"inputs": [],
			"outputs": [
				{
					"name": "",
					"type": "address",
					"internalType": "address"
				}
			],
			"stateMutability": "view"
		},
		{
			"type": "event",
			"name": "AddPayCredits",
			"inputs": [
				{
					"name": "amount",
					"type": "uint256",
					"indexed": true,
					"internalType": "uint256"
				},
				{
					"name": "newTotalCredits",
					"type": "uint256",
					"indexed": true,
					"internalType": "uint256"
				},
				{
					"name": "account",
					"type": "address",
					"indexed": true,
					"internalType": "address"
				},
				{
					"name": "caller",
					"type": "address",
					"indexed": false,
					"internalType": "address"
				}
			],
			"anonymous": false
		},
		{
			"type": "event",
			"name": "AddTier",
			"inputs": [
				{
					"name": "tierId",
					"type": "uint256",
					"indexed": true,
					"internalType": "uint256"
				},
				{
					"name": "tier",
					"type": "tuple",
					"indexed": false,
					"internalType": "struct JB721TierConfig",
					"components": [
						{
							"name": "price",
							"type": "uint104",
							"internalType": "uint104"
						},
						{
							"name": "initialSupply",
							"type": "uint32",
							"internalType": "uint32"
						},
						{
							"name": "votingUnits",
							"type": "uint32",
							"internalType": "uint32"
						},
						{
							"name": "reserveFrequency",
							"type": "uint16",
							"internalType": "uint16"
						},
						{
							"name": "reserveBeneficiary",
							"type": "address",
							"internalType": "address"
						},
						{
							"name": "encodedIPFSUri",
							"type": "bytes32",
							"internalType": "bytes32"
						},
						{
							"name": "category",
							"type": "uint24",
							"internalType": "uint24"
						},
						{
							"name": "allowOwnerMint",
							"type": "bool",
							"internalType": "bool"
						},
						{
							"name": "useReserveBeneficiaryAsDefault",
							"type": "bool",
							"internalType": "bool"
						},
						{
							"name": "transfersPausable",
							"type": "bool",
							"internalType": "bool"
						},
						{
							"name": "useVotingUnits",
							"type": "bool",
							"internalType": "bool"
						},
						{
							"name": "cannotBeRemoved",
							"type": "bool",
							"internalType": "bool"
						}
					]
				},
				{
					"name": "caller",
					"type": "address",
					"indexed": false,
					"internalType": "address"
				}
			],
			"anonymous": false
		},
		{
			"type": "event",
			"name": "Approval",
			"inputs": [
				{
					"name": "owner",
					"type": "address",
					"indexed": true,
					"internalType": "address"
				},
				{
					"name": "approved",
					"type": "address",
					"indexed": true,
					"internalType": "address"
				},
				{
					"name": "tokenId",
					"type": "uint256",
					"indexed": true,
					"internalType": "uint256"
				}
			],
			"anonymous": false
		},
		{
			"type": "event",
			"name": "ApprovalForAll",
			"inputs": [
				{
					"name": "owner",
					"type": "address",
					"indexed": true,
					"internalType": "address"
				},
				{
					"name": "operator",
					"type": "address",
					"indexed": true,
					"internalType": "address"
				},
				{
					"name": "approved",
					"type": "bool",
					"indexed": false,
					"internalType": "bool"
				}
			],
			"anonymous": false
		},
		{
			"type": "event",
			"name": "Mint",
			"inputs": [
				{
					"name": "tokenId",
					"type": "uint256",
					"indexed": true,
					"internalType": "uint256"
				},
				{
					"name": "tierId",
					"type": "uint256",
					"indexed": true,
					"internalType": "uint256"
				},
				{
					"name": "beneficiary",
					"type": "address",
					"indexed": true,
					"internalType": "address"
				},
				{
					"name": "totalAmountPaid",
					"type": "uint256",
					"indexed": false,
					"internalType": "uint256"
				},
				{
					"name": "caller",
					"type": "address",
					"indexed": false,
					"internalType": "address"
				}
			],
			"anonymous": false
		},
		{
			"type": "event",
			"name": "MintReservedNft",
			"inputs": [
				{
					"name": "tokenId",
					"type": "uint256",
					"indexed": true,
					"internalType": "uint256"
				},
				{
					"name": "tierId",
					"type": "uint256",
					"indexed": true,
					"internalType": "uint256"
				},
				{
					"name": "beneficiary",
					"type": "address",
					"indexed": true,
					"internalType": "address"
				},
				{
					"name": "caller",
					"type": "address",
					"indexed": false,
					"internalType": "address"
				}
			],
			"anonymous": false
		},
		{
			"type": "event",
			"name": "OwnershipTransferred",
			"inputs": [
				{
					"name": "previousOwner",
					"type": "address",
					"indexed": true,
					"internalType": "address"
				},
				{
					"name": "newOwner",
					"type": "address",
					"indexed": true,
					"internalType": "address"
				}
			],
			"anonymous": false
		},
		{
			"type": "event",
			"name": "PermissionIdChanged",
			"inputs": [
				{
					"name": "newIndex",
					"type": "uint8",
					"indexed": false,
					"internalType": "uint8"
				}
			],
			"anonymous": false
		},
		{
			"type": "event",
			"name": "RemoveTier",
			"inputs": [
				{
					"name": "tierId",
					"type": "uint256",
					"indexed": true,
					"internalType": "uint256"
				},
				{
					"name": "caller",
					"type": "address",
					"indexed": false,
					"internalType": "address"
				}
			],
			"anonymous": false
		},
		{
			"type": "event",
			"name": "SetBaseUri",
			"inputs": [
				{
					"name": "baseUri",
					"type": "string",
					"indexed": true,
					"internalType": "string"
				},
				{
					"name": "caller",
					"type": "address",
					"indexed": false,
					"internalType": "address"
				}
			],
			"anonymous": false
		},
		{
			"type": "event",
			"name": "SetContractUri",
			"inputs": [
				{
					"name": "contractUri",
					"type": "string",
					"indexed": true,
					"internalType": "string"
				},
				{
					"name": "caller",
					"type": "address",
					"indexed": false,
					"internalType": "address"
				}
			],
			"anonymous": false
		},
		{
			"type": "event",
			"name": "SetEncodedIPFSUri",
			"inputs": [
				{
					"name": "tierId",
					"type": "uint256",
					"indexed": true,
					"internalType": "uint256"
				},
				{
					"name": "encodedIPFSUri",
					"type": "bytes32",
					"indexed": false,
					"internalType": "bytes32"
				},
				{
					"name": "caller",
					"type": "address",
					"indexed": false,
					"internalType": "address"
				}
			],
			"anonymous": false
		},
		{
			"type": "event",
			"name": "SetTokenUriResolver",
			"inputs": [
				{
					"name": "newResolver",
					"type": "address",
					"indexed": true,
					"internalType": "contract IJB721TokenUriResolver"
				},
				{
					"name": "caller",
					"type": "address",
					"indexed": false,
					"internalType": "address"
				}
			],
			"anonymous": false
		},
		{
			"type": "event",
			"name": "Transfer",
			"inputs": [
				{
					"name": "from",
					"type": "address",
					"indexed": true,
					"internalType": "address"
				},
				{
					"name": "to",
					"type": "address",
					"indexed": true,
					"internalType": "address"
				},
				{
					"name": "tokenId",
					"type": "uint256",
					"indexed": true,
					"internalType": "uint256"
				}
			],
			"anonymous": false
		},
		{
			"type": "event",
			"name": "UsePayCredits",
			"inputs": [
				{
					"name": "amount",
					"type": "uint256",
					"indexed": true,
					"internalType": "uint256"
				},
				{
					"name": "newTotalCredits",
					"type": "uint256",
					"indexed": true,
					"internalType": "uint256"
				},
				{
					"name": "account",
					"type": "address",
					"indexed": true,
					"internalType": "address"
				},
				{
					"name": "caller",
					"type": "address",
					"indexed": false,
					"internalType": "address"
				}
			],
			"anonymous": false
		},
		{
			"type": "error",
			"name": "ERC721IncorrectOwner",
			"inputs": [
				{
					"name": "sender",
					"type": "address",
					"internalType": "address"
				},
				{
					"name": "tokenId",
					"type": "uint256",
					"internalType": "uint256"
				},
				{
					"name": "owner",
					"type": "address",
					"internalType": "address"
				}
			]
		},
		{
			"type": "error",
			"name": "ERC721InsufficientApproval",
			"inputs": [
				{
					"name": "operator",
					"type": "address",
					"internalType": "address"
				},
				{
					"name": "tokenId",
					"type": "uint256",
					"internalType": "uint256"
				}
			]
		},
		{
			"type": "error",
			"name": "ERC721InvalidApprover",
			"inputs": [
				{
					"name": "approver",
					"type": "address",
					"internalType": "address"
				}
			]
		},
		{
			"type": "error",
			"name": "ERC721InvalidOperator",
			"inputs": [
				{
					"name": "operator",
					"type": "address",
					"internalType": "address"
				}
			]
		},
		{
			"type": "error",
			"name": "ERC721InvalidOwner",
			"inputs": [
				{
					"name": "owner",
					"type": "address",
					"internalType": "address"
				}
			]
		},
		{
			"type": "error",
			"name": "ERC721InvalidReceiver",
			"inputs": [
				{
					"name": "receiver",
					"type": "address",
					"internalType": "address"
				}
			]
		},
		{
			"type": "error",
			"name": "ERC721InvalidSender",
			"inputs": [
				{
					"name": "sender",
					"type": "address",
					"internalType": "address"
				}
			]
		},
		{
			"type": "error",
			"name": "ERC721NonexistentToken",
			"inputs": [
				{
					"name": "tokenId",
					"type": "uint256",
					"internalType": "uint256"
				}
			]
		},
		{
			"type": "error",
			"name": "INVALID_NEW_OWNER",
			"inputs": []
		},
		{
			"type": "error",
			"name": "INVALID_PAY",
			"inputs": []
		},
		{
			"type": "error",
			"name": "INVALID_REDEEM",
			"inputs": []
		},
		{
			"type": "error",
			"name": "MINT_RESERVE_NFTS_PAUSED",
			"inputs": []
		},
		{
			"type": "error",
			"name": "OVERSPENDING",
			"inputs": []
		},
		{
			"type": "error",
			"name": "PRBMath_MulDiv_Overflow",
			"inputs": [
				{
					"name": "x",
					"type": "uint256",
					"internalType": "uint256"
				},
				{
					"name": "y",
					"type": "uint256",
					"internalType": "uint256"
				},
				{
					"name": "denominator",
					"type": "uint256",
					"internalType": "uint256"
				}
			]
		},
		{
			"type": "error",
			"name": "TIER_TRANSFERS_PAUSED",
			"inputs": []
		},
		{
			"type": "error",
			"name": "UNAUTHORIZED",
			"inputs": []
		},
		{
			"type": "error",
			"name": "UNAUTHORIZED_TOKEN",
			"inputs": [
				{
					"name": "tokenId",
					"type": "uint256",
					"internalType": "uint256"
				}
			]
		},
		{
			"type": "error",
			"name": "UNEXPECTED_TOKEN_REDEEMED",
			"inputs": []
		}
	],
	"solcInputHash": "9c26761b33f63d5cdb4c2cc0c065558a",
	"args": [
		"0x44d360C8c4105f180e07668bd3374c7A6F812FAF",
		"0x711eda44F3D42F3d255846b5EE36Cf70Fd912E50",
		"0xB2b5841DBeF766d4b521221732F9B618fCf34A87"
	],
	"bytecode": "0x6101206040523480156200001257600080fd5b50604051620062873803806200628783398101604081905262000035916200038b565b8281846001600160a01b031663293c49996040518163ffffffff1660e01b8152600401602060405180830381865afa15801562000076573d6000803e3d6000fd5b505050506040513d601f19601f820116820180604052508101906200009c9190620003df565b6001600160a01b03858116608052811660a052843360008383838381620000d65760405163ecb9b1c760e01b815260040160405180910390fd5b620000e282826200010a565b505050506001600160a01b0394851660c052505050501660e052505030610100525062000406565b6001600160581b038116158015906200012b57506001600160a01b03821615155b156200014a5760405163ecb9b1c760e01b815260040160405180910390fd5b60408051606081018252600080546001600160a01b0381168352600160a01b81046001600160581b031660208401819052600160f81b90910460ff1693830193909352909115620002195760a05160208301516040516331a9108f60e11b81526001600160581b0390911660048201526001600160a01b0390911690636352211e90602401602060405180830381865afa158015620001ed573d6000803e3d6000fd5b505050506040513d601f19601f82011682018060405250810190620002139190620003df565b6200021c565b81515b604080516060810182526001600160a01b0387168082526001600160581b0387166020830181905260009290930182905281547fff000000000000000000000000000000000000000000000000000000000000001617600160a01b909202919091176001600160f81b031690559050620002988185856200029e565b50505050565b6001600160581b038116156200032c5760a0516040516331a9108f60e11b81526001600160581b03831660048201526001600160a01b0390911690636352211e90602401602060405180830381865afa15801562000300573d6000803e3d6000fd5b505050506040513d601f19601f82011682018060405250810190620003269190620003df565b6200032e565b815b6001600160a01b0316836001600160a01b03167f8be0079c531659141344cd1fd0a4f28419497f9722a3daafe3b4186f6b6457e060405160405180910390a3505050565b6001600160a01b03811681146200038857600080fd5b50565b600080600060608486031215620003a157600080fd5b8351620003ae8162000372565b6020850151909350620003c18162000372565b6040850151909250620003d48162000372565b809150509250925092565b600060208284031215620003f257600080fd5b8151620003ff8162000372565b9392505050565b60805160a05160c05160e05161010051615de1620004a66000396000818161096e01528181611356015281816119b901526133960152600081816106e00152818161127501526120bb01526000818161055e015281816106aa01526137df01526000818161046d0152818161186c01528181612cae01528181612e000152613b060152600081816109d501528181612566015261260f0152615de16000f3fe6080604052600436106102fd5760003560e01c8063715018a61161018f578063c07f2f9b116100e1578063e985e9c51161008a578063f3c5788111610064578063f3c57881146109b0578063f434c914146109c3578063fef50848146109f757600080fd5b8063e985e9c514610913578063edab09b91461095c578063f2fde38b1461099057600080fd5b8063d4a1b4b1116100bb578063d4a1b4b1146108b1578063d95c9ae2146108d1578063e8a3d485146108fe57600080fd5b8063c07f2f9b14610851578063c0fb5e8514610871578063c87b56dd1461089157600080fd5b8063a220d69611610143578063ade032ff1161011d578063ade032ff1461079c578063b88d4fde146107bc578063ba23c36e146107dc57600080fd5b8063a220d6961461072c578063a22cb4651461074c578063aaf320d71461076c57600080fd5b806388bc2ef31161017457806388bc2ef3146106ce5780638da5cb5b1461070257806395d89b411461071757600080fd5b8063715018a6146106865780637da0a8771461069b57600080fd5b8063507f14651161025357806366ec4cb4116101fc5780636ac6d941116101d65780636ac6d941146106245780636c0360eb1461065157806370a082311461066657600080fd5b806366ec4cb4146105ce578063677ce088146105e157806368f9c6bc1461060457600080fd5b8063572b6c051161022d578063572b6c0514610541578063613b856d1461058e5780636352211e146105ae57600080fd5b8063507f1465146104dd57806354c6d1f5146104fd57806356539f391461051d57600080fd5b80631435aad5116102b5578063293c49991161028f578063293c49991461045b57806342842e0e1461048f5780634c4ffc71146104af57600080fd5b80631435aad5146103fb5780631c52730b1461041b57806323b872dd1461043b57600080fd5b8063081812fc116102e6578063081812fc1461035957806308786b1a14610391578063095ea7b3146103d957600080fd5b806301ffc9a71461030257806306fdde0314610337575b600080fd5b34801561030e57600080fd5b5061032261031d3660046142de565b610a17565b60405190151581526020015b60405180910390f35b34801561034357600080fd5b5061034c610a5b565b60405161032e919061434b565b34801561036557600080fd5b5061037961037436600461435e565b610aed565b6040516001600160a01b03909116815260200161032e565b34801561039d57600080fd5b5060095463ffffffff811690602081901c60ff169060281c6040805193845260208401929092526001600160a01b03169082015260600161032e565b3480156103e557600080fd5b506103f96103f436600461439c565b610b16565b005b34801561040757600080fd5b506103f961041636600461440a565b610b2c565b34801561042757600080fd5b506103f96104363660046144a0565b610dc7565b34801561044757600080fd5b506103f9610456366004614515565b610e20565b34801561046757600080fd5b506103797f000000000000000000000000000000000000000000000000000000000000000081565b34801561049b57600080fd5b506103f96104aa366004614515565b610eca565b3480156104bb57600080fd5b506104cf6104ca366004614556565b610eea565b60405161032e929190614592565b3480156104e957600080fd5b50600a54610379906001600160a01b031681565b34801561050957600080fd5b5061037961051836600461435e565b610f91565b34801561052957600080fd5b5061053360075481565b60405190815260200161032e565b34801561054d57600080fd5b5061032261055c366004614623565b7f00000000000000000000000000000000000000000000000000000000000000006001600160a01b0390811691161490565b34801561059a57600080fd5b506103f96105a9366004614640565b610fd5565b3480156105ba57600080fd5b506103796105c936600461435e565b611242565b6103f96105dc36600461467b565b61124d565b3480156105ed57600080fd5b506103226105fc3660046146b0565b600092915050565b34801561061057600080fd5b5061053361061f3660046147f3565b6114d1565b34801561063057600080fd5b5061064461063f3660046148f6565b61155e565b60405161032e9190614989565b34801561065d57600080fd5b5061034c6116be565b34801561067257600080fd5b50610533610681366004614623565b61174c565b34801561069257600080fd5b506103f96117db565b3480156106a757600080fd5b507f0000000000000000000000000000000000000000000000000000000000000000610379565b3480156106da57600080fd5b506103797f000000000000000000000000000000000000000000000000000000000000000081565b34801561070e57600080fd5b506103796117f0565b34801561072357600080fd5b5061034c6118e5565b34801561073857600080fd5b506103f961074736600461435e565b6118f4565b34801561075857600080fd5b506103f96107673660046149b5565b61193f565b34801561077857600080fd5b5061078c6107873660046149e3565b611951565b60405161032e9493929190614a18565b3480156107a857600080fd5b506105336107b73660046149e3565b611af0565b3480156107c857600080fd5b506103f96107d7366004614b19565b611b3a565b3480156107e857600080fd5b5060005461081d906001600160a01b03811690600160a01b81046affffffffffffffffffffff1690600160f81b900460ff1683565b604080516001600160a01b0390941684526affffffffffffffffffffff909216602084015260ff169082015260600161032e565b34801561085d57600080fd5b506103f961086c366004614e2d565b611b51565b34801561087d57600080fd5b506103f961088c366004614f4e565b611def565b34801561089d57600080fd5b5061034c6108ac36600461435e565b611e00565b3480156108bd57600080fd5b50600b54610379906001600160a01b031681565b3480156108dd57600080fd5b506105336108ec366004614623565b600c6020526000908152604090205481565b34801561090a57600080fd5b5061034c61204c565b34801561091f57600080fd5b5061032261092e366004614f69565b6001600160a01b03918216600090815260066020908152604080832093909416825291909152205460ff1690565b34801561096857600080fd5b506103797f000000000000000000000000000000000000000000000000000000000000000081565b34801561099c57600080fd5b506103f96109ab366004614623565b612059565b6103f96109be36600461467b565b612093565b3480156109cf57600080fd5b506103797f000000000000000000000000000000000000000000000000000000000000000081565b348015610a0357600080fd5b506103f9610a12366004614f97565b61217f565b60006001600160e01b031982167fb88c9696000000000000000000000000000000000000000000000000000000001480610a555750610a55826123a5565b92915050565b606060018054610a6a90615032565b80601f0160208091040260200160405190810160405280929190818152602001828054610a9690615032565b8015610ae35780601f10610ab857610100808354040283529160200191610ae3565b820191906000526020600020905b815481529060010190602001808311610ac657829003601f168201915b5050505050905090565b6000610af8826124b3565b506000828152600560205260409020546001600160a01b0316610a55565b610b288282610b236124ec565b6124fb565b5050565b610b41610b376117f0565b6007546016612508565b8515610bb257600d610b548789836150b6565b508686604051610b65929190615176565b60405180910390207f7bc9110d5de090dd59e07912d2b93a5a27ac70a60c8d8e324db4f9ee8b8b5c13610b966124ec565b6040516001600160a01b03909116815260200160405180910390a25b8315610c2357600e610bc58587836150b6565b508484604051610bd6929190615176565b60405180910390207fd36dc0c1a06103fdcaf15f3f6fb797d1a97997514c78de073640c8b5005454b8610c076124ec565b6040516001600160a01b03909116815260200160405180910390a25b600a546001600160a01b039081169084163014610ce45760405163036129cb60e61b81526001600160a01b03858116600483015282169063d84a72c090602401600060405180830381600087803b158015610c7d57600080fd5b505af1158015610c91573d6000803e3d6000fd5b50505050836001600160a01b03167fe7784d93cfbfa4408e19577e6cc0436f4dbb51214b70e100905dfce9def88c16610cc86124ec565b6040516001600160a01b03909116815260200160405180910390a25b8215801590610cf257508115155b15610dbd576040517f49bd1ac600000000000000000000000000000000000000000000000000000000815260048101849052602481018390526001600160a01b038216906349bd1ac690604401600060405180830381600087803b158015610d5957600080fd5b505af1158015610d6d573d6000803e3d6000fd5b50505050827f677da4fed654db8e604791fa2582f342e2001aa217e27f6985eb3e0f67e5a7fc83610d9c6124ec565b604080519283526001600160a01b0390911660208301520160405180910390a25b5050505050505050565b8060005b81811015610e1a576000848483818110610de757610de7615186565b905060400201803603810190610dfd919061519c565b9050610e1181600001518260200151610fd5565b50600101610dcb565b50505050565b6001600160a01b038216610e4f57604051633250574960e11b8152600060048201526024015b60405180910390fd5b6000610e638383610e5e6124ec565b6126b3565b9050836001600160a01b0316816001600160a01b031614610e1a576040517f64283d7b0000000000000000000000000000000000000000000000000000000081526001600160a01b0380861660048301526024820184905282166044820152606401610e46565b610ee583838360405180602001604052806000815250611b3a565b505050565b6040805160018082528183019092526101208301359160609190816020015b60408051606080820183526000808352602083015291810191909152815260200190600190039081610f095790505090506040518060600160405280306001600160a01b03168152602001600081526020016040518060200160405280600081525081525081600081518110610f8157610f81615186565b6020026020010181905250915091565b6000818152600860205260408120546001600160a01b03168015610fb55792915050565b6000838152600360205260409020546001600160a01b03165b9392505050565b600b546007546040516321d1336160e11b815260048101919091526000916001600160a01b0316906343a266c29060240161012060405180830381865afa158015611024573d6000803e3d6000fd5b505050506040513d601f19601f8201168201806040525081019061104891906151f6565b61010081015190915060f01c600190811603611090576040517f63a0ba3900000000000000000000000000000000000000000000000000000000815260040160405180910390fd5b600a546040517fbaa7e80e00000000000000000000000000000000000000000000000000000000815260048101859052602481018490526001600160a01b0390911690600090829063baa7e80e906044016000604051808303816000875af1158015611100573d6000803e3d6000fd5b505050506040513d6000823e601f3d908101601f1916820160405261112891908101906152e0565b6040517f03573004000000000000000000000000000000000000000000000000000000008152306004820152602481018790529091506000906001600160a01b03841690630357300490604401602060405180830381865afa158015611192573d6000803e3d6000fd5b505050506040513d601f19601f820116820180604052508101906111b69190615315565b90506000805b86811015610dbd578381815181106111d6576111d6615186565b602002602001015191506111ea8383612929565b826001600160a01b031688837f80dd2efbbc431cde0164d84d638e44ba6e7a3ca5d532ceef1bb4efcc0948325d61121f6124ec565b6040516001600160a01b03909116815260200160405180910390a46001016111bc565b6000610a55826124b3565b600754341515806112ea5750604051636e49181f60e01b8152600481018290523360248201527f00000000000000000000000000000000000000000000000000000000000000006001600160a01b031690636e49181f90604401602060405180830381865afa1580156112c4573d6000803e3d6000fd5b505050506040513d601f19601f820116820180604052508101906112e8919061533d565b155b806112f9575080826020013514155b15611330576040517f835e522b00000000000000000000000000000000000000000000000000000000815260040160405180910390fd5b60408051808201909152600681526572656465656d60d01b6020909101526000806113e27f000000000000000000000000000000000000000000000000000000000000000060601b7f26ef0a97332ad048ac544d8dfacdd43e128b9816d599fdd0310960904fa18609186113a86101e087018761535a565b8080601f0160208091040260200160405190810160405280939291908181526020018383808284376000920191909152506129a792505050565b9150915060608215611405578180602001905181019061140291906152e0565b90505b80516000805b828110156114be5783818151811061142557611425615186565b602002602001015191508760000160208101906114429190614623565b6001600160a01b031661146a836000908152600360205260409020546001600160a01b031690565b6001600160a01b0316146114ad576040517f5caf197500000000000000000000000000000000000000000000000000000000815260048101839052602401610e46565b6114b682612b7d565b60010161140b565b506114c883612bb8565b50505050505050565b600a546040517f144cc2d40000000000000000000000000000000000000000000000000000000081526000916001600160a01b03169063144cc2d49061151d90309087906004016153a1565b602060405180830381865afa15801561153a573d6000803e3d6000fd5b505050506040513d601f19601f82011682018060405250810190610fce91906153c3565b606061157561156b6117f0565b6007546017612508565b600a5460405163eaa19ab360e01b81526001600160a01b039091169063eaa19ab3906115ae9060001990889088906001906004016153dc565b6000604051808303816000875af11580156115cd573d6000803e3d6000fd5b505050506040513d6000823e601f3d908101601f191682016040526115f5919081019061543b565b509050826000805b828110156116b45783818151811061161757611617615186565b6020026020010151915061162b8583612929565b846001600160a01b031687878381811061164757611647615186565b905060200201602081019061165c9190615482565b61ffff16837f598baf7bf150ca2f42be9e9f8f55e81d45f5715c3ff22bf46d697fabec7f31d6600061168c6124ec565b604080519283526001600160a01b0390911660208301520160405180910390a46001016115fd565b5050509392505050565b600d80546116cb90615032565b80601f01602080910402602001604051908101604052809291908181526020018280546116f790615032565b80156117445780601f1061171957610100808354040283529160200191611744565b820191906000526020600020905b81548152906001019060200180831161172757829003601f168201915b505050505081565b600a546040517ff7888aec0000000000000000000000000000000000000000000000000000000081523060048201526001600160a01b038381166024830152600092169063f7888aec906044015b602060405180830381865afa1580156117b7573d6000803e3d6000fd5b505050506040513d601f19601f82011682018060405250810190610a5591906153c3565b6117e3612c36565b6117ee600080612d48565b565b60408051606081018252600080546001600160a01b0381168352600160a01b81046affffffffffffffffffffff1660208401819052600160f81b90910460ff16938301939093529182036118445751919050565b60208101516040516331a9108f60e11b81526affffffffffffffffffffff90911660048201527f00000000000000000000000000000000000000000000000000000000000000006001600160a01b031690636352211e90602401602060405180830381865afa1580156118bb573d6000803e3d6000fd5b505050506040513d601f19601f820116820180604052508101906118df9190615315565b91505090565b606060028054610a6a90615032565b6118fc612c36565b80158061191357506affffffffffffffffffffff81115b156119315760405163ecb9b1c760e01b815260040160405180910390fd5b61193c600082612d48565b50565b610b2861194a6124ec565b8383612ef9565b600080806060608085013515611993576040517f4fc178d800000000000000000000000000000000000000000000000000000000815260040160405180910390fd5b60408051808201909152600681526572656465656d60d01b602090910152600080611a0b7f000000000000000000000000000000000000000000000000000000000000000060601b7f26ef0a97332ad048ac544d8dfacdd43e128b9816d599fdd0310960904fa18609186113a86101808a018a61535a565b604080516001808252818301909252929450909250816020015b60408051606080820183526000808352602083015291810191909152815260200190600190039081611a255790505092506040518060600160405280306001600160a01b03168152602001600081526020016040518060200160405280600081525081525083600081518110611a9d57611a9d615186565b602002602001018190525060608215611ac75781806020019051810190611ac491906152e0565b90505b611ad181896114d1565b9550611adc88611af0565b945087610160013596505050509193509193565b600a546040517f2ae5e4920000000000000000000000000000000000000000000000000000000081523060048201526000916001600160a01b031690632ae5e4929060240161179a565b611b45848484610e20565b610e1a84848484612fb1565b600a546001600160a01b031615611b6757600080fd5b611b728a8a8a6130f3565b600b80546001600160a01b03808a1673ffffffffffffffffffffffffffffffffffffffff1992831617909255600a8054928516929091169190911790556020808401516040850151606086015178ffffffffffffffffffffffffffffffffffffffff000000000060289190911b1664ff000000009190931b1663ffffffff90911617176009819055865115611c0f57600d611c0d888261549f565b505b845115611c2457600e611c22868261549f565b505b6001600160a01b03861615611c8f5760405163036129cb60e61b81526001600160a01b03878116600483015284169063d84a72c090602401600060405180830381600087803b158015611c7657600080fd5b505af1158015611c8a573d6000803e3d6000fd5b505050505b83515115611d0d5783516040516349249dc160e01b81526001600160a01b038516916349249dc191611cc4919060040161555f565b6000604051808303816000875af1158015611ce3573d6000803e3d6000fd5b505050506040513d6000823e601f3d908101601f19168201604052611d0b91908101906152e0565b505b815180611d1b575081602001515b80611d27575081604001515b80611d33575081606001515b15611dd257604080517fcb827e3200000000000000000000000000000000000000000000000000000000815283511515600482015260208401511515602482015290830151151560448201526060830151151560648201526001600160a01b0384169063cb827e3290608401600060405180830381600087803b158015611db957600080fd5b505af1158015611dcd573d6000803e3d6000fd5b505050505b611de2611ddd6124ec565b612088565b5050505050505050505050565b611df7612c36565b61193c81613104565b600a546040517f0fab09470000000000000000000000000000000000000000000000000000000081523060048201526060916001600160a01b0316906000908290630fab094790602401602060405180830381865afa158015611e67573d6000803e3d6000fd5b505050506040513d601f19601f82011682018060405250810190611e8b9190615315565b90506001600160a01b03811615611f30576040517f5e703e71000000000000000000000000000000000000000000000000000000008152306004820152602481018590526001600160a01b03821690635e703e7190604401600060405180830381865afa158015611f00573d6000803e3d6000fd5b505050506040513d6000823e601f3d908101601f19168201604052611f289190810190615691565b949350505050565b611f28600d8054611f4090615032565b80601f0160208091040260200160405190810160405280929190818152602001828054611f6c90615032565b8015611fb95780601f10611f8e57610100808354040283529160200191611fb9565b820191906000526020600020905b815481529060010190602001808311611f9c57829003601f168201915b50506040517fc8df1710000000000000000000000000000000000000000000000000000000008152306004820152602481018a90526001600160a01b038816935063c8df171092506044019050602060405180830381865afa158015612023573d6000803e3d6000fd5b505050506040513d601f19601f8201168201806040525081019061204791906153c3565b61315a565b600e80546116cb90615032565b612061612c36565b6001600160a01b0381166120885760405163ecb9b1c760e01b815260040160405180910390fd5b61193c816000612d48565b600754341515806121305750604051636e49181f60e01b8152600481018290523360248201527f00000000000000000000000000000000000000000000000000000000000000006001600160a01b031690636e49181f90604401602060405180830381865afa15801561210a573d6000803e3d6000fd5b505050506040513d601f19601f8201168201806040525081019061212e919061533d565b155b8061213f575080826020013514155b15612176576040517f8a3ea1c800000000000000000000000000000000000000000000000000000000815260040160405180910390fd5b610b28826131dd565b61219461218a6117f0565b6007546015612508565b600a54839082906001600160a01b03168115612295576040517f20512ba10000000000000000000000000000000000000000000000000000000081526001600160a01b038216906320512ba1906121f190889088906004016156c6565b600060405180830381600087803b15801561220b57600080fd5b505af115801561221f573d6000803e3d6000fd5b5050505060005b828110156122935785858281811061224057612240615186565b905060200201357f832d89d991be5351d793c20faf4b7dd44f8aa9ce39e3cb160c6317de6fbba7296122706124ec565b6040516001600160a01b03909116815260200160405180910390a2600101612226565b505b82156114c8576040516349249dc160e01b81526000906001600160a01b038316906349249dc1906122cc908b908b9060040161581e565b6000604051808303816000875af11580156122eb573d6000803e3d6000fd5b505050506040513d6000823e601f3d908101601f1916820160405261231391908101906152e0565b905060005b8481101561239a5781818151811061233257612332615186565b60200260200101517f6c05e4bd067859371de8c0a303cf84af0ba782c3809f8fba14e6af4388894cf08a8a8481811061236d5761236d615186565b9050610180020161237c6124ec565b60405161238a929190615861565b60405180910390a2600101612318565b505050505050505050565b60006001600160e01b031982167f3344b87300000000000000000000000000000000000000000000000000000000148061240857506001600160e01b031982167f81c03c2e00000000000000000000000000000000000000000000000000000000145b8061243c57506001600160e01b031982167ff3c5788100000000000000000000000000000000000000000000000000000000145b8061247057506001600160e01b031982167f66ec4cb400000000000000000000000000000000000000000000000000000000145b806124a457506001600160e01b031982167f2a55205a00000000000000000000000000000000000000000000000000000000145b80610a555750610a5582613734565b6000818152600360205260408120546001600160a01b031680610a5557604051637e27328960e01b815260048101849052602401610e46565b60006124f66137cf565b905090565b610ee58383836001613844565b60006125126124ec565b9050836001600160a01b0316816001600160a01b0316141580156125d3575060405163c161c93f60e01b81526001600160a01b038281166004830152858116602483015260448201859052606482018490527f0000000000000000000000000000000000000000000000000000000000000000169063c161c93f90608401602060405180830381865afa1580156125ad573d6000803e3d6000fd5b505050506040513d601f19601f820116820180604052508101906125d1919061533d565b155b801561267c575060405163c161c93f60e01b81526001600160a01b038281166004830152858116602483015260006044830152606482018490527f0000000000000000000000000000000000000000000000000000000000000000169063c161c93f90608401602060405180830381865afa158015612656573d6000803e3d6000fd5b505050506040513d601f19601f8201168201806040525081019061267a919061533d565b155b15610e1a576040517f075fd2b100000000000000000000000000000000000000000000000000000000815260040160405180910390fd5b600a546040517fc44a8e6d00000000000000000000000000000000000000000000000000000000815230600482015260248101849052600060448201819052916001600160a01b0316908290829063c44a8e6d90606401600060405180830381865afa158015612727573d6000803e3d6000fd5b505050506040513d6000823e601f3d908101601f1916820160405261274f9190810190615887565b905061275c86868661398f565b92506001600160a01b0383161561289a578061014001511561284957600b546007546040516321d1336160e11b815260048101919091526000916001600160a01b0316906343a266c29060240161012060405180830381865afa1580156127c7573d6000803e3d6000fd5b505050506040513d601f19601f820116820180604052508101906127eb91906151f6565b90506001600160a01b03871615801590612810575061010081015160ef1c6001908116145b15612847576040517ffa45ac2900000000000000000000000000000000000000000000000000000000815260040160405180910390fd5b505b6000858152600860205260409020546001600160a01b031661289a576000858152600860205260409020805473ffffffffffffffffffffffffffffffffffffffff19166001600160a01b0385161790555b80516040517fc2c55f9400000000000000000000000000000000000000000000000000000000815260048101919091526001600160a01b038481166024830152878116604483015283169063c2c55f9490606401600060405180830381600087803b15801561290857600080fd5b505af115801561291c573d6000803e3d6000fd5b5050505050509392505050565b6001600160a01b03821661295357604051633250574960e11b815260006004820152602401610e46565b6000612961838360006126b3565b90506001600160a01b03811615610ee5576040517f73c6ac6e00000000000000000000000000000000000000000000000000000000815260006004820152602401610e46565b6000606060258351116129cc5750506040805160208101909152600080825290612b76565b6000836129db600460206159a8565b815181106129eb576129eb615186565b0160209081015160f81c91505b600085612a066004846159a8565b81518110612a1657612a16615186565b01602001517fff000000000000000000000000000000000000000000000000000000000000001614801590612a545750612a516020836159bb565b81105b15612b7357600085612a676004846159a8565b81518110612a7757612a77615186565b016020908101518784019091015160f89190911c91506001600160e01b031980891690821603612b69576000612aae6020866159bb565b612ab96009866159a8565b101580612b06575087612acd6009866159a8565b81518110612add57612add615186565b01602001517fff0000000000000000000000000000000000000000000000000000000000000016155b612b3f57602088612b186009876159a8565b81518110612b2857612b28615186565b0160200151612b3a919060f81c6159bb565b612b42565b87515b90506001612b5b89612b556020876159bb565b84613a95565b965096505050505050612b76565b50506005016129f8565b50505b9250929050565b6000612b8c60008360006126b3565b90506001600160a01b038116610b2857604051637e27328960e01b815260048101839052602401610e46565b600a546040517f86bc2be30000000000000000000000000000000000000000000000000000000081526001600160a01b03909116906386bc2be390612c01908490600401614989565b600060405180830381600087803b158015612c1b57600080fd5b505af1158015612c2f573d6000803e3d6000fd5b5050505050565b604080516060810182526000546001600160a01b0381168252600160a01b81046affffffffffffffffffffff1660208301819052600160f81b90910460ff16928201929092529061193c9015612d265760208201516040516331a9108f60e11b81526affffffffffffffffffffff90911660048201527f00000000000000000000000000000000000000000000000000000000000000006001600160a01b031690636352211e90602401602060405180830381865afa158015612cfd573d6000803e3d6000fd5b505050506040513d601f19601f82011682018060405250810190612d219190615315565b612d29565b81515b82602001516affffffffffffffffffffff16836040015160ff16612508565b6affffffffffffffffffffff811615801590612d6c57506001600160a01b03821615155b15612d8a5760405163ecb9b1c760e01b815260040160405180910390fd5b60408051606081018252600080546001600160a01b0381168352600160a01b81046affffffffffffffffffffff1660208401819052600160f81b90910460ff1693830193909352909115612e785760208201516040516331a9108f60e11b81526affffffffffffffffffffff90911660048201527f00000000000000000000000000000000000000000000000000000000000000006001600160a01b031690636352211e90602401602060405180830381865afa158015612e4f573d6000803e3d6000fd5b505050506040513d601f19601f82011682018060405250810190612e739190615315565b612e7b565b81515b604080516060810182526001600160a01b0387168082526affffffffffffffffffffff87166020830181905260009290930182905281547fff000000000000000000000000000000000000000000000000000000000000001617600160a01b909202919091176001600160f81b031690559050610e1a818585613ad1565b6001600160a01b038216612f44576040517f5b08ba180000000000000000000000000000000000000000000000000000000081526001600160a01b0383166004820152602401610e46565b6001600160a01b03838116600081815260066020908152604080832094871680845294825291829020805460ff191686151590811790915591519182527f17307eab39ab6107e8899845ad3d59bd9653f200f220920489ca2b5937696c31910160405180910390a3505050565b6001600160a01b0383163b15610e1a57826001600160a01b031663150b7a02612fd86124ec565b8685856040518563ffffffff1660e01b8152600401612ffa94939291906159d2565b6020604051808303816000875af1925050508015613035575060408051601f3d908101601f1916820190925261303291810190615a0e565b60015b61309e573d808015613063576040519150601f19603f3d011682016040523d82523d6000602084013e613068565b606091505b50805160000361309657604051633250574960e11b81526001600160a01b0385166004820152602401610e46565b805181602001fd5b6001600160e01b031981167f150b7a020000000000000000000000000000000000000000000000000000000014612c2f57604051633250574960e11b81526001600160a01b0385166004820152602401610e46565b6130fd8282613bc4565b5050600755565b600080546001600160f81b0316600160f81b60ff8416908102919091179091556040519081527f6f4725627084d54c46c628b050805457a1cd38c5cd20c1f00132960f8b546fed9060200160405180910390a150565b6040517f1220000000000000000000000000000000000000000000000000000000000000602082015260228101829052606090600090604201604051602081830303815290604052905060006131af82613bdd565b905084816040516020016131c4929190615a2b565b6040516020818303038152906040529250505092915050565b60095460009063ffffffff811660c084013581900361320257608084013592506132dc565b602882901c6001600160a01b03811615612c2f5760ff602084901c166132d7608087013561323183600a615b3e565b6007546040517f3be273fa000000000000000000000000000000000000000000000000000000008152600481019190915260c08a013560248201526044810187905260a08a013560648201526001600160a01b03861690633be273fa90608401602060405180830381865afa1580156132ae573d6000803e3d6000fd5b505050506040513d601f19601f820116820180604052508101906132d291906153c3565b613d75565b945050505b5060009050600c816132f66101c086016101a08701614623565b6001600160a01b031681526020810191909152604001600090812054915082906133286101c086016101a08701614623565b6001600160a01b031661333e6020870187614623565b6001600160a01b0316036133555790820190613358565b50815b60408051808201909152600381527f7061790000000000000000000000000000000000000000000000000000000000602090910152600080806133e87f000000000000000000000000000000000000000000000000000000000000000060601b7fadc756803e4eb4ccfb136b73d5f72e3dc0d452d30ae1f4bc82af394c73ce7115186113a86101e08b018b61535a565b9150915081156134bc576060818060200190518101906134089190615b4a565b90945090508380156134865750600a54604051634228826f60e11b81523060048201526001600160a01b039091169063845104de90602401608060405180830381865afa15801561345d573d6000803e3d6000fd5b505050506040513d601f19601f820116820180604052508101906134819190615bfb565b606001515b1561349057600093505b8051156134b6576134b386826134ae6101c08d016101a08e01614623565b613e62565b95505b50613535565b600a54604051634228826f60e11b81523060048201526001600160a01b039091169063845104de90602401608060405180830381865afa158015613504573d6000803e3d6000fd5b505050506040513d601f19601f820116820180604052508101906135289190615bfb565b6060015161353557600192505b84156136885782613572576040517f6d5e09a400000000000000000000000000000000000000000000000000000000815260040160405180910390fd5b848401868111156135e55761358f6101c08a016101a08b01614623565b6001600160a01b0316818883037f7e71a5f6c04b0eb16949316623b9dda7bd103692f7d89678e2260afa1378a2d56135c56124ec565b6040516001600160a01b03909116815260200160405180910390a4613651565b80871115613651576135ff6101c08a016101a08b01614623565b6001600160a01b0316818289037f6276f0169fb8de712b2a6c02789f6115136c589ed491ac06f9e20f41877e41fe6136356124ec565b6040516001600160a01b03909116815260200160405180910390a45b80600c60006136686101c08d016101a08e01614623565b6001600160a01b0316815260208101919091526040016000205550610dbd565b838614610dbd576136a16101c089016101a08a01614623565b6001600160a01b0316846136b58189615c62565b7f6276f0169fb8de712b2a6c02789f6115136c589ed491ac06f9e20f41877e41fe6136de6124ec565b6040516001600160a01b03909116815260200160405180910390a483600c60006137106101c08c016101a08d01614623565b6001600160a01b031681526020810191909152604001600020555050505050505050565b60006001600160e01b031982167f80ac58cd00000000000000000000000000000000000000000000000000000000148061379757506001600160e01b031982167f5b5e139f00000000000000000000000000000000000000000000000000000000145b80610a5557507f01ffc9a7000000000000000000000000000000000000000000000000000000006001600160e01b0319831614610a55565b6000366014336001600160a01b037f00000000000000000000000000000000000000000000000000000000000000001614801561380c5750808210155b1561383c5760003661381e8385615c62565b613829928290615c75565b61383291615c9f565b60601c9250505090565b339250505090565b808061385857506001600160a01b03821615155b15613952576000613868846124b3565b90506001600160a01b038316158015906138945750826001600160a01b0316816001600160a01b031614155b80156138c657506001600160a01b0380821660009081526006602090815260408083209387168352929052205460ff16155b15613908576040517fa9fbf51f0000000000000000000000000000000000000000000000000000000081526001600160a01b0384166004820152602401610e46565b81156139505783856001600160a01b0316826001600160a01b03167f8c5be1e5ebec7d5bd14f71427d1e84f3dd0314c0f7b2291e5b200ac8c7c3b92560405160405180910390a45b505b50506000908152600560205260409020805473ffffffffffffffffffffffffffffffffffffffff19166001600160a01b0392909216919091179055565b6000828152600360205260408120546001600160a01b03908116908316156139bc576139bc818486613fa3565b6001600160a01b038116156139fa576139d9600085600080613844565b6001600160a01b038116600090815260046020526040902080546000190190555b6001600160a01b03851615613a29576001600160a01b0385166000908152600460205260409020805460010190555b600084815260036020526040808220805473ffffffffffffffffffffffffffffffffffffffff19166001600160a01b0389811691821790925591518793918516917fddf252ad1be2c89b69c2b068fc378daa952ba7f163c4a11628f55a4df523b3ef91a4949350505050565b60608282036040519150602081830101604052808252508260208501016020820160005b848110156116b4578281015182820152602001613ab9565b6affffffffffffffffffffff811615613b7e576040516331a9108f60e11b81526affffffffffffffffffffff821660048201527f00000000000000000000000000000000000000000000000000000000000000006001600160a01b031690636352211e90602401602060405180830381865afa158015613b55573d6000803e3d6000fd5b505050506040513d601f19601f82011682018060405250810190613b799190615315565b613b80565b815b6001600160a01b0316836001600160a01b03167f8be0079c531659141344cd1fd0a4f28419497f9722a3daafe3b4186f6b6457e060405160405180910390a3505050565b6001613bd0838261549f565b506002610ee5828261549f565b60608151600003613bfc57505060408051600081526020810190915290565b60408051602e8082526105e08201909252600091602082016105c080368337019050509050600081600081518110613c3657613c36615186565b60ff90921660209283029190910190910152825160019060005b81811015613d51576000868281518110613c6c57613c6c615186565b016020015160f81c905060005b8460ff16811015613cf6576008868281518110613c9857613c98615186565b602002602001015160ff16901b82613cb091906159a8565b9150613cbd603a83615cea565b868281518110613ccf57613ccf615186565b60ff90921660209283029190910190910152613cec603a83615cfe565b9150600101613c79565b505b8015613d4857613d09603a82615cea565b858560ff1681518110613d1e57613d1e615186565b60ff90921660209283029190910190910152600190930192613d41603a82615cfe565b9050613cf8565b50600101613c50565b50613d6c613d67613d628585614020565b6140c8565b61416b565b95945050505050565b6000808060001985870985870292508281108382030391505080600003613daf57838281613da557613da5615cd4565b0492505050610fce565b838110613df9576040517f63a05778000000000000000000000000000000000000000000000000000000008152600481018790526024810186905260448101859052606401610e46565b60008486880960026001871981018816978890046003810283188082028403028082028403028082028403028082028403028082028403029081029092039091026000889003889004909101858311909403939093029303949094049190911702949350505050565b600a5460405163eaa19ab360e01b81526000916060916001600160a01b039091169063eaa19ab390613e9c90889088908790600401615d12565b6000604051808303816000875af1158015613ebb573d6000803e3d6000fd5b505050506040513d6000823e601f3d908101601f19168201604052613ee3919081019061543b565b81519093509091506000805b82811015613f9857838181518110613f0957613f09615186565b60200260200101519150613f1d8683612929565b856001600160a01b0316878281518110613f3957613f39615186565b602002602001015161ffff16837f598baf7bf150ca2f42be9e9f8f55e81d45f5715c3ff22bf46d697fabec7f31d68b613f706124ec565b604080519283526001600160a01b0390911660208301520160405180910390a4600101613eef565b505050509392505050565b613fae838383614245565b610ee5576001600160a01b038316613fdc57604051637e27328960e01b815260048101829052602401610e46565b6040517f177e802f0000000000000000000000000000000000000000000000000000000081526001600160a01b038316600482015260248101829052604401610e46565b606060008260ff1667ffffffffffffffff811115614040576140406146e0565b604051908082528060200260200182016040528015614069578160200160208202803683370190505b50905060005b8360ff168110156140c05784818151811061408c5761408c615186565b60200260200101518282815181106140a6576140a6615186565b60ff9092166020928302919091019091015260010161406f565b509392505050565b805160609060008167ffffffffffffffff8111156140e8576140e86146e0565b604051908082528060200260200182016040528015614111578160200160208202803683370190505b50905060005b828110156140c05784816001875103038151811061413757614137615186565b602002602001015182828151811061415157614151615186565b60ff90921660209283029190910190910152600101614117565b805160609060008167ffffffffffffffff81111561418b5761418b6146e0565b6040519080825280601f01601f1916602001820160405280156141b5576020820181803683370190505b50905060005b828110156140c0576040518060600160405280603a8152602001615d72603a91398582815181106141ee576141ee615186565b602002602001015160ff168151811061420957614209615186565b602001015160f81c60f81b82828151811061422657614226615186565b60200101906001600160f81b031916908160001a9053506001016141bb565b60006001600160a01b03831615801590611f285750826001600160a01b0316846001600160a01b0316148061429f57506001600160a01b0380851660009081526006602090815260408083209387168352929052205460ff165b80611f285750506000908152600560205260409020546001600160a01b03908116911614919050565b6001600160e01b03198116811461193c57600080fd5b6000602082840312156142f057600080fd5b8135610fce816142c8565b60005b838110156143165781810151838201526020016142fe565b50506000910152565b600081518084526143378160208601602086016142fb565b601f01601f19169290920160200192915050565b602081526000610fce602083018461431f565b60006020828403121561437057600080fd5b5035919050565b6001600160a01b038116811461193c57600080fd5b803561439781614377565b919050565b600080604083850312156143af57600080fd5b82356143ba81614377565b946020939093013593505050565b60008083601f8401126143da57600080fd5b50813567ffffffffffffffff8111156143f257600080fd5b602083019150836020828501011115612b7657600080fd5b600080600080600080600060a0888a03121561442557600080fd5b873567ffffffffffffffff8082111561443d57600080fd5b6144498b838c016143c8565b909950975060208a013591508082111561446257600080fd5b5061446f8a828b016143c8565b909650945050604088013561448381614377565b969995985093969295946060840135945060809093013592915050565b600080602083850312156144b357600080fd5b823567ffffffffffffffff808211156144cb57600080fd5b818501915085601f8301126144df57600080fd5b8135818111156144ee57600080fd5b8660208260061b850101111561450357600080fd5b60209290920196919550909350505050565b60008060006060848603121561452a57600080fd5b833561453581614377565b9250602084013561454581614377565b929592945050506040919091013590565b60006020828403121561456857600080fd5b813567ffffffffffffffff81111561457f57600080fd5b82016101808185031215610fce57600080fd5b6000604080830185845260206040818601528186518084526060935060608701915060608160051b88010183890160005b8381101561461357898303605f19018552815180516001600160a01b0316845286810151878501528801518884018890526146008885018261431f565b95870195935050908501906001016145c3565b50909a9950505050505050505050565b60006020828403121561463557600080fd5b8135610fce81614377565b6000806040838503121561465357600080fd5b50508035926020909101359150565b6000610200828403121561467557600080fd5b50919050565b60006020828403121561468d57600080fd5b813567ffffffffffffffff8111156146a457600080fd5b611f2884828501614662565b600080604083850312156146c357600080fd5b8235915060208301356146d581614377565b809150509250929050565b634e487b7160e01b600052604160045260246000fd5b6040516080810167ffffffffffffffff81118282101715614719576147196146e0565b60405290565b604051610180810167ffffffffffffffff81118282101715614719576147196146e0565b604051610120810167ffffffffffffffff81118282101715614719576147196146e0565b6040516101a0810167ffffffffffffffff81118282101715614719576147196146e0565b604051601f8201601f1916810167ffffffffffffffff811182821017156147b4576147b46146e0565b604052919050565b600067ffffffffffffffff8211156147d6576147d66146e0565b5060051b60200190565b60006101a0828403121561467557600080fd5b6000806040838503121561480657600080fd5b823567ffffffffffffffff8082111561481e57600080fd5b818501915085601f83011261483257600080fd5b81356020614847614842836147bc565b61478b565b82815260059290921b8401810191818101908984111561486657600080fd5b948201945b838610156148845785358252948201949082019061486b565b9650508601359250508082111561489a57600080fd5b506148a7858286016147e0565b9150509250929050565b60008083601f8401126148c357600080fd5b50813567ffffffffffffffff8111156148db57600080fd5b6020830191508360208260051b8501011115612b7657600080fd5b60008060006040848603121561490b57600080fd5b833567ffffffffffffffff81111561492257600080fd5b61492e868287016148b1565b909450925050602084013561494281614377565b809150509250925092565b60008151808452602080850194506020840160005b8381101561497e57815187529582019590820190600101614962565b509495945050505050565b602081526000610fce602083018461494d565b801515811461193c57600080fd5b80356143978161499c565b600080604083850312156149c857600080fd5b82356149d381614377565b915060208301356146d58161499c565b6000602082840312156149f557600080fd5b813567ffffffffffffffff811115614a0c57600080fd5b611f28848285016147e0565b60006080820186835260208681850152604086604086015260606080606087015283875180865260a08801915060a08160051b890101955084890160005b82811015614aa657898803609f19018452815180516001600160a01b0316895287810151888a0152860151868901869052614a93868a018261431f565b9850509286019290860190600101614a56565b50959c9b505050505050505050505050565b600067ffffffffffffffff821115614ad257614ad26146e0565b50601f01601f191660200190565b6000614aee61484284614ab8565b9050828152838383011115614b0257600080fd5b828260208301376000602084830101529392505050565b60008060008060808587031215614b2f57600080fd5b8435614b3a81614377565b93506020850135614b4a81614377565b925060408501359150606085013567ffffffffffffffff811115614b6d57600080fd5b8501601f81018713614b7e57600080fd5b614b8d87823560208401614ae0565b91505092959194509250565b600082601f830112614baa57600080fd5b610fce83833560208501614ae0565b80356cffffffffffffffffffffffffff8116811461439757600080fd5b803563ffffffff8116811461439757600080fd5b61ffff8116811461193c57600080fd5b803561439781614bea565b803562ffffff8116811461439757600080fd5b803560ff8116811461439757600080fd5b60006080808385031215614c3c57600080fd5b614c446146f6565b9150823567ffffffffffffffff811115614c5d57600080fd5b8301601f81018513614c6e57600080fd5b80356020614c7e614842836147bc565b8281526101809283028401820192828201919089851115614c9e57600080fd5b948301945b84861015614d915780868b031215614cbb5760008081fd5b614cc361471f565b614ccc87614bb9565b8152614cd9858801614bd6565b858201526040614cea818901614bd6565b908201526060614cfb888201614bfa565b90820152614d0a87890161438c565b8189015260a0878101359082015260c0614d25818901614c05565b9082015260e0614d368882016149aa565b90820152610100614d488882016149aa565b90820152610120614d5a8882016149aa565b90820152610140614d6c8882016149aa565b90820152610160614d7e8882016149aa565b9082015283529485019491830191614ca3565b50865250614da0868201614bd6565b8186015250505050614db460408301614c18565b6040820152614dc56060830161438c565b606082015292915050565b600060808284031215614de257600080fd5b614dea6146f6565b90508135614df78161499c565b81526020820135614e078161499c565b60208201526040820135614e1a8161499c565b60408201526060820135614dc58161499c565b6000806000806000806000806000806101a08b8d031215614e4d57600080fd5b8a35995060208b013567ffffffffffffffff80821115614e6c57600080fd5b614e788e838f01614b99565b9a5060408d0135915080821115614e8e57600080fd5b614e9a8e838f01614b99565b9950614ea860608e0161438c565b985060808d0135915080821115614ebe57600080fd5b614eca8e838f01614b99565b9750614ed860a08e0161438c565b965060c08d0135915080821115614eee57600080fd5b614efa8e838f01614b99565b955060e08d0135915080821115614f1057600080fd5b50614f1d8d828e01614c29565b935050614f2d6101008c0161438c565b9150614f3d8c6101208d01614dd0565b90509295989b9194979a5092959850565b600060208284031215614f6057600080fd5b610fce82614c18565b60008060408385031215614f7c57600080fd5b8235614f8781614377565b915060208301356146d581614377565b60008060008060408587031215614fad57600080fd5b843567ffffffffffffffff80821115614fc557600080fd5b818701915087601f830112614fd957600080fd5b813581811115614fe857600080fd5b88602061018083028501011115614ffe57600080fd5b60209283019650945090860135908082111561501957600080fd5b50615026878288016148b1565b95989497509550505050565b600181811c9082168061504657607f821691505b60208210810361467557634e487b7160e01b600052602260045260246000fd5b601f821115610ee5576000816000526020600020601f850160051c8101602086101561508f5750805b601f850160051c820191505b818110156150ae5782815560010161509b565b505050505050565b67ffffffffffffffff8311156150ce576150ce6146e0565b6150e2836150dc8354615032565b83615066565b6000601f84116001811461511657600085156150fe5750838201355b600019600387901b1c1916600186901b178355612c2f565b600083815260209020601f19861690835b828110156151475786850135825560209485019460019092019101615127565b50868210156151645760001960f88860031b161c19848701351681555b505060018560011b0183555050505050565b8183823760009101908152919050565b634e487b7160e01b600052603260045260246000fd5b6000604082840312156151ae57600080fd5b6040516040810181811067ffffffffffffffff821117156151d1576151d16146e0565b604052823581526020928301359281019290925250919050565b805161439781614377565b6000610120828403121561520957600080fd5b615211614743565b825181526020830151602082015260408301516040820152606083015160608201526080830151608082015260a083015160a082015260c083015160c082015261525d60e084016151eb565b60e0820152610100928301519281019290925250919050565b600082601f83011261528757600080fd5b81516020615297614842836147bc565b8083825260208201915060208460051b8701019350868411156152b957600080fd5b602086015b848110156152d557805183529183019183016152be565b509695505050505050565b6000602082840312156152f257600080fd5b815167ffffffffffffffff81111561530957600080fd5b611f2884828501615276565b60006020828403121561532757600080fd5b8151610fce81614377565b80516143978161499c565b60006020828403121561534f57600080fd5b8151610fce8161499c565b6000808335601e1984360301811261537157600080fd5b83018035915067ffffffffffffffff82111561538c57600080fd5b602001915036819003821315612b7657600080fd5b6001600160a01b0383168152604060208201526000611f28604083018461494d565b6000602082840312156153d557600080fd5b5051919050565b84815260606020808301829052908201849052600090859060808401835b8781101561542357833561540d81614bea565b61ffff16825292820192908201906001016153fa565b50809350505050821515604083015295945050505050565b6000806040838503121561544e57600080fd5b825167ffffffffffffffff81111561546557600080fd5b61547185828601615276565b925050602083015190509250929050565b60006020828403121561549457600080fd5b8135610fce81614bea565b815167ffffffffffffffff8111156154b9576154b96146e0565b6154cd816154c78454615032565b84615066565b602080601f83116001811461550257600084156154ea5750858301515b600019600386901b1c1916600185901b1785556150ae565b600085815260208120601f198616915b8281101561553157888601518255948401946001909101908401615512565b508582101561554f5787850151600019600388901b60f8161c191681555b5050505050600190811b01905550565b602080825282518282018190526000919060409081850190868401855b8281101561563f57815180516cffffffffffffffffffffffffff1685528681015163ffffffff9081168887015286820151168686015260608082015161ffff16908601526080808201516001600160a01b03169086015260a0808201519086015260c08082015162ffffff169086015260e08082015115159086015261010080820151151590860152610120808201511515908601526101408082015115159086015261016090810151151590850152610180909301929085019060010161557c565b5091979650505050505050565b600082601f83011261565d57600080fd5b815161566b61484282614ab8565b81815284602083860101111561568057600080fd5b611f288260208301602087016142fb565b6000602082840312156156a357600080fd5b815167ffffffffffffffff8111156156ba57600080fd5b611f288482850161564c565b6020815281602082015260007f07ffffffffffffffffffffffffffffffffffffffffffffffffffffffffffffff8311156156ff57600080fd5b8260051b80856040850137919091016040019392505050565b6157388261572583614bb9565b6cffffffffffffffffffffffffff169052565b61574460208201614bd6565b63ffffffff16602083015261575b60408201614bd6565b63ffffffff16604083015261577260608201614bfa565b61ffff1660608301526157876080820161438c565b6001600160a01b0316608083015260a081810135908301526157ab60c08201614c05565b62ffffff1660c08301526157c160e082016149aa565b151560e08301526101006157d68282016149aa565b1515908301526101206157ea8282016149aa565b1515908301526101406157fe8282016149aa565b1515908301526101606158128282016149aa565b80151584830152610e1a565b6020808252810182905260008360408301825b85811015615857576158438284615718565b610180928301929190910190600101615831565b5095945050505050565b6101a081016158708285615718565b6001600160a01b0383166101808301529392505050565b60006020828403121561589957600080fd5b815167ffffffffffffffff808211156158b157600080fd5b908301906101a082860312156158c657600080fd5b6158ce614767565b825181526020830151602082015260408301516040820152606083015160608201526080830151608082015260a083015160a082015261591060c084016151eb565b60c082015260e083015160e0820152610100808401518183015250610120615939818501615332565b9082015261014061594b848201615332565b9082015261016061595d848201615332565b90820152610180838101518381111561597557600080fd5b6159818882870161564c565b918301919091525095945050505050565b634e487b7160e01b600052601160045260246000fd5b80820180821115610a5557610a55615992565b8082028115828204841417610a5557610a55615992565b60006001600160a01b03808716835280861660208401525083604083015260806060830152615a04608083018461431f565b9695505050505050565b600060208284031215615a2057600080fd5b8151610fce816142c8565b60008351615a3d8184602088016142fb565b835190830190615a518183602088016142fb565b01949350505050565b600181815b80851115615a95578160001904821115615a7b57615a7b615992565b80851615615a8857918102915b93841c9390800290615a5f565b509250929050565b600082615aac57506001610a55565b81615ab957506000610a55565b8160018114615acf5760028114615ad957615af5565b6001915050610a55565b60ff841115615aea57615aea615992565b50506001821b610a55565b5060208310610133831016604e8410600b8410161715615b18575081810a610a55565b615b228383615a5a565b8060001904821115615b3657615b36615992565b029392505050565b6000610fce8383615a9d565b60008060408385031215615b5d57600080fd5b8251615b688161499c565b8092505060208084015167ffffffffffffffff811115615b8757600080fd5b8401601f81018613615b9857600080fd5b8051615ba6614842826147bc565b81815260059190911b82018301908381019088831115615bc557600080fd5b928401925b82841015615bec578351615bdd81614bea565b82529284019290840190615bca565b80955050505050509250929050565b600060808284031215615c0d57600080fd5b615c156146f6565b8251615c208161499c565b81526020830151615c308161499c565b60208201526040830151615c438161499c565b60408201526060830151615c568161499c565b60608201529392505050565b81810381811115610a5557610a55615992565b60008085851115615c8557600080fd5b83861115615c9257600080fd5b5050820193919092039150565b6bffffffffffffffffffffffff198135818116916014851015615ccc5780818660140360031b1b83161692505b505092915050565b634e487b7160e01b600052601260045260246000fd5b600082615cf957615cf9615cd4565b500690565b600082615d0d57615d0d615cd4565b500490565b60006060820185835260206060602085015281865180845260808601915060208801935060005b81811015615d5957845161ffff1683529383019391830191600101615d39565b5050809350505050821515604083015294935050505056fe31323334353637383941424344454647484a4b4c4d4e505152535455565758595a6162636465666768696a6b6d6e6f707172737475767778797aa26469706673582212202500f1d3fcf8a0be51cffd6343cd30af7b3f1344a9159cc3f8044fc176fd2fec64736f6c63430008170033",
	"deployedBytecode": "0x6080604052600436106102fd5760003560e01c8063715018a61161018f578063c07f2f9b116100e1578063e985e9c51161008a578063f3c5788111610064578063f3c57881146109b0578063f434c914146109c3578063fef50848146109f757600080fd5b8063e985e9c514610913578063edab09b91461095c578063f2fde38b1461099057600080fd5b8063d4a1b4b1116100bb578063d4a1b4b1146108b1578063d95c9ae2146108d1578063e8a3d485146108fe57600080fd5b8063c07f2f9b14610851578063c0fb5e8514610871578063c87b56dd1461089157600080fd5b8063a220d69611610143578063ade032ff1161011d578063ade032ff1461079c578063b88d4fde146107bc578063ba23c36e146107dc57600080fd5b8063a220d6961461072c578063a22cb4651461074c578063aaf320d71461076c57600080fd5b806388bc2ef31161017457806388bc2ef3146106ce5780638da5cb5b1461070257806395d89b411461071757600080fd5b8063715018a6146106865780637da0a8771461069b57600080fd5b8063507f14651161025357806366ec4cb4116101fc5780636ac6d941116101d65780636ac6d941146106245780636c0360eb1461065157806370a082311461066657600080fd5b806366ec4cb4146105ce578063677ce088146105e157806368f9c6bc1461060457600080fd5b8063572b6c051161022d578063572b6c0514610541578063613b856d1461058e5780636352211e146105ae57600080fd5b8063507f1465146104dd57806354c6d1f5146104fd57806356539f391461051d57600080fd5b80631435aad5116102b5578063293c49991161028f578063293c49991461045b57806342842e0e1461048f5780634c4ffc71146104af57600080fd5b80631435aad5146103fb5780631c52730b1461041b57806323b872dd1461043b57600080fd5b8063081812fc116102e6578063081812fc1461035957806308786b1a14610391578063095ea7b3146103d957600080fd5b806301ffc9a71461030257806306fdde0314610337575b600080fd5b34801561030e57600080fd5b5061032261031d3660046142de565b610a17565b60405190151581526020015b60405180910390f35b34801561034357600080fd5b5061034c610a5b565b60405161032e919061434b565b34801561036557600080fd5b5061037961037436600461435e565b610aed565b6040516001600160a01b03909116815260200161032e565b34801561039d57600080fd5b5060095463ffffffff811690602081901c60ff169060281c6040805193845260208401929092526001600160a01b03169082015260600161032e565b3480156103e557600080fd5b506103f96103f436600461439c565b610b16565b005b34801561040757600080fd5b506103f961041636600461440a565b610b2c565b34801561042757600080fd5b506103f96104363660046144a0565b610dc7565b34801561044757600080fd5b506103f9610456366004614515565b610e20565b34801561046757600080fd5b506103797f000000000000000000000000fa679f5ecdd8be404c1fbaa7f29aeb2b12f5b66281565b34801561049b57600080fd5b506103f96104aa366004614515565b610eca565b3480156104bb57600080fd5b506104cf6104ca366004614556565b610eea565b60405161032e929190614592565b3480156104e957600080fd5b50600a54610379906001600160a01b031681565b34801561050957600080fd5b5061037961051836600461435e565b610f91565b34801561052957600080fd5b5061053360075481565b60405190815260200161032e565b34801561054d57600080fd5b5061032261055c366004614623565b7f000000000000000000000000b2b5841dbef766d4b521221732f9b618fcf34a876001600160a01b0390811691161490565b34801561059a57600080fd5b506103f96105a9366004614640565b610fd5565b3480156105ba57600080fd5b506103796105c936600461435e565b611242565b6103f96105dc36600461467b565b61124d565b3480156105ed57600080fd5b506103226105fc3660046146b0565b600092915050565b34801561061057600080fd5b5061053361061f3660046147f3565b6114d1565b34801561063057600080fd5b5061064461063f3660046148f6565b61155e565b60405161032e9190614989565b34801561065d57600080fd5b5061034c6116be565b34801561067257600080fd5b50610533610681366004614623565b61174c565b34801561069257600080fd5b506103f96117db565b3480156106a757600080fd5b507f000000000000000000000000b2b5841dbef766d4b521221732f9b618fcf34a87610379565b3480156106da57600080fd5b506103797f00000000000000000000000044d360c8c4105f180e07668bd3374c7a6f812faf81565b34801561070e57600080fd5b506103796117f0565b34801561072357600080fd5b5061034c6118e5565b34801561073857600080fd5b506103f961074736600461435e565b6118f4565b34801561075857600080fd5b506103f96107673660046149b5565b61193f565b34801561077857600080fd5b5061078c6107873660046149e3565b611951565b60405161032e9493929190614a18565b3480156107a857600080fd5b506105336107b73660046149e3565b611af0565b3480156107c857600080fd5b506103f96107d7366004614b19565b611b3a565b3480156107e857600080fd5b5060005461081d906001600160a01b03811690600160a01b81046affffffffffffffffffffff1690600160f81b900460ff1683565b604080516001600160a01b0390941684526affffffffffffffffffffff909216602084015260ff169082015260600161032e565b34801561085d57600080fd5b506103f961086c366004614e2d565b611b51565b34801561087d57600080fd5b506103f961088c366004614f4e565b611def565b34801561089d57600080fd5b5061034c6108ac36600461435e565b611e00565b3480156108bd57600080fd5b50600b54610379906001600160a01b031681565b3480156108dd57600080fd5b506105336108ec366004614623565b600c6020526000908152604090205481565b34801561090a57600080fd5b5061034c61204c565b34801561091f57600080fd5b5061032261092e366004614f69565b6001600160a01b03918216600090815260066020908152604080832093909416825291909152205460ff1690565b34801561096857600080fd5b506103797f0000000000000000000000007c8ef86687a0bfa1882d2f25866cd4ea354eea3c81565b34801561099c57600080fd5b506103f96109ab366004614623565b612059565b6103f96109be36600461467b565b612093565b3480156109cf57600080fd5b506103797f000000000000000000000000711eda44f3d42f3d255846b5ee36cf70fd912e5081565b348015610a0357600080fd5b506103f9610a12366004614f97565b61217f565b60006001600160e01b031982167fb88c9696000000000000000000000000000000000000000000000000000000001480610a555750610a55826123a5565b92915050565b606060018054610a6a90615032565b80601f0160208091040260200160405190810160405280929190818152602001828054610a9690615032565b8015610ae35780601f10610ab857610100808354040283529160200191610ae3565b820191906000526020600020905b815481529060010190602001808311610ac657829003601f168201915b5050505050905090565b6000610af8826124b3565b506000828152600560205260409020546001600160a01b0316610a55565b610b288282610b236124ec565b6124fb565b5050565b610b41610b376117f0565b6007546016612508565b8515610bb257600d610b548789836150b6565b508686604051610b65929190615176565b60405180910390207f7bc9110d5de090dd59e07912d2b93a5a27ac70a60c8d8e324db4f9ee8b8b5c13610b966124ec565b6040516001600160a01b03909116815260200160405180910390a25b8315610c2357600e610bc58587836150b6565b508484604051610bd6929190615176565b60405180910390207fd36dc0c1a06103fdcaf15f3f6fb797d1a97997514c78de073640c8b5005454b8610c076124ec565b6040516001600160a01b03909116815260200160405180910390a25b600a546001600160a01b039081169084163014610ce45760405163036129cb60e61b81526001600160a01b03858116600483015282169063d84a72c090602401600060405180830381600087803b158015610c7d57600080fd5b505af1158015610c91573d6000803e3d6000fd5b50505050836001600160a01b03167fe7784d93cfbfa4408e19577e6cc0436f4dbb51214b70e100905dfce9def88c16610cc86124ec565b6040516001600160a01b03909116815260200160405180910390a25b8215801590610cf257508115155b15610dbd576040517f49bd1ac600000000000000000000000000000000000000000000000000000000815260048101849052602481018390526001600160a01b038216906349bd1ac690604401600060405180830381600087803b158015610d5957600080fd5b505af1158015610d6d573d6000803e3d6000fd5b50505050827f677da4fed654db8e604791fa2582f342e2001aa217e27f6985eb3e0f67e5a7fc83610d9c6124ec565b604080519283526001600160a01b0390911660208301520160405180910390a25b5050505050505050565b8060005b81811015610e1a576000848483818110610de757610de7615186565b905060400201803603810190610dfd919061519c565b9050610e1181600001518260200151610fd5565b50600101610dcb565b50505050565b6001600160a01b038216610e4f57604051633250574960e11b8152600060048201526024015b60405180910390fd5b6000610e638383610e5e6124ec565b6126b3565b9050836001600160a01b0316816001600160a01b031614610e1a576040517f64283d7b0000000000000000000000000000000000000000000000000000000081526001600160a01b0380861660048301526024820184905282166044820152606401610e46565b610ee583838360405180602001604052806000815250611b3a565b505050565b6040805160018082528183019092526101208301359160609190816020015b60408051606080820183526000808352602083015291810191909152815260200190600190039081610f095790505090506040518060600160405280306001600160a01b03168152602001600081526020016040518060200160405280600081525081525081600081518110610f8157610f81615186565b6020026020010181905250915091565b6000818152600860205260408120546001600160a01b03168015610fb55792915050565b6000838152600360205260409020546001600160a01b03165b9392505050565b600b546007546040516321d1336160e11b815260048101919091526000916001600160a01b0316906343a266c29060240161012060405180830381865afa158015611024573d6000803e3d6000fd5b505050506040513d601f19601f8201168201806040525081019061104891906151f6565b61010081015190915060f01c600190811603611090576040517f63a0ba3900000000000000000000000000000000000000000000000000000000815260040160405180910390fd5b600a546040517fbaa7e80e00000000000000000000000000000000000000000000000000000000815260048101859052602481018490526001600160a01b0390911690600090829063baa7e80e906044016000604051808303816000875af1158015611100573d6000803e3d6000fd5b505050506040513d6000823e601f3d908101601f1916820160405261112891908101906152e0565b6040517f03573004000000000000000000000000000000000000000000000000000000008152306004820152602481018790529091506000906001600160a01b03841690630357300490604401602060405180830381865afa158015611192573d6000803e3d6000fd5b505050506040513d601f19601f820116820180604052508101906111b69190615315565b90506000805b86811015610dbd578381815181106111d6576111d6615186565b602002602001015191506111ea8383612929565b826001600160a01b031688837f80dd2efbbc431cde0164d84d638e44ba6e7a3ca5d532ceef1bb4efcc0948325d61121f6124ec565b6040516001600160a01b03909116815260200160405180910390a46001016111bc565b6000610a55826124b3565b600754341515806112ea5750604051636e49181f60e01b8152600481018290523360248201527f00000000000000000000000044d360c8c4105f180e07668bd3374c7a6f812faf6001600160a01b031690636e49181f90604401602060405180830381865afa1580156112c4573d6000803e3d6000fd5b505050506040513d601f19601f820116820180604052508101906112e8919061533d565b155b806112f9575080826020013514155b15611330576040517f835e522b00000000000000000000000000000000000000000000000000000000815260040160405180910390fd5b60408051808201909152600681526572656465656d60d01b6020909101526000806113e27f0000000000000000000000007c8ef86687a0bfa1882d2f25866cd4ea354eea3c60601b7f26ef0a97332ad048ac544d8dfacdd43e128b9816d599fdd0310960904fa18609186113a86101e087018761535a565b8080601f0160208091040260200160405190810160405280939291908181526020018383808284376000920191909152506129a792505050565b9150915060608215611405578180602001905181019061140291906152e0565b90505b80516000805b828110156114be5783818151811061142557611425615186565b602002602001015191508760000160208101906114429190614623565b6001600160a01b031661146a836000908152600360205260409020546001600160a01b031690565b6001600160a01b0316146114ad576040517f5caf197500000000000000000000000000000000000000000000000000000000815260048101839052602401610e46565b6114b682612b7d565b60010161140b565b506114c883612bb8565b50505050505050565b600a546040517f144cc2d40000000000000000000000000000000000000000000000000000000081526000916001600160a01b03169063144cc2d49061151d90309087906004016153a1565b602060405180830381865afa15801561153a573d6000803e3d6000fd5b505050506040513d601f19601f82011682018060405250810190610fce91906153c3565b606061157561156b6117f0565b6007546017612508565b600a5460405163eaa19ab360e01b81526001600160a01b039091169063eaa19ab3906115ae9060001990889088906001906004016153dc565b6000604051808303816000875af11580156115cd573d6000803e3d6000fd5b505050506040513d6000823e601f3d908101601f191682016040526115f5919081019061543b565b509050826000805b828110156116b45783818151811061161757611617615186565b6020026020010151915061162b8583612929565b846001600160a01b031687878381811061164757611647615186565b905060200201602081019061165c9190615482565b61ffff16837f598baf7bf150ca2f42be9e9f8f55e81d45f5715c3ff22bf46d697fabec7f31d6600061168c6124ec565b604080519283526001600160a01b0390911660208301520160405180910390a46001016115fd565b5050509392505050565b600d80546116cb90615032565b80601f01602080910402602001604051908101604052809291908181526020018280546116f790615032565b80156117445780601f1061171957610100808354040283529160200191611744565b820191906000526020600020905b81548152906001019060200180831161172757829003601f168201915b505050505081565b600a546040517ff7888aec0000000000000000000000000000000000000000000000000000000081523060048201526001600160a01b038381166024830152600092169063f7888aec906044015b602060405180830381865afa1580156117b7573d6000803e3d6000fd5b505050506040513d601f19601f82011682018060405250810190610a5591906153c3565b6117e3612c36565b6117ee600080612d48565b565b60408051606081018252600080546001600160a01b0381168352600160a01b81046affffffffffffffffffffff1660208401819052600160f81b90910460ff16938301939093529182036118445751919050565b60208101516040516331a9108f60e11b81526affffffffffffffffffffff90911660048201527f000000000000000000000000fa679f5ecdd8be404c1fbaa7f29aeb2b12f5b6626001600160a01b031690636352211e90602401602060405180830381865afa1580156118bb573d6000803e3d6000fd5b505050506040513d601f19601f820116820180604052508101906118df9190615315565b91505090565b606060028054610a6a90615032565b6118fc612c36565b80158061191357506affffffffffffffffffffff81115b156119315760405163ecb9b1c760e01b815260040160405180910390fd5b61193c600082612d48565b50565b610b2861194a6124ec565b8383612ef9565b600080806060608085013515611993576040517f4fc178d800000000000000000000000000000000000000000000000000000000815260040160405180910390fd5b60408051808201909152600681526572656465656d60d01b602090910152600080611a0b7f0000000000000000000000007c8ef86687a0bfa1882d2f25866cd4ea354eea3c60601b7f26ef0a97332ad048ac544d8dfacdd43e128b9816d599fdd0310960904fa18609186113a86101808a018a61535a565b604080516001808252818301909252929450909250816020015b60408051606080820183526000808352602083015291810191909152815260200190600190039081611a255790505092506040518060600160405280306001600160a01b03168152602001600081526020016040518060200160405280600081525081525083600081518110611a9d57611a9d615186565b602002602001018190525060608215611ac75781806020019051810190611ac491906152e0565b90505b611ad181896114d1565b9550611adc88611af0565b945087610160013596505050509193509193565b600a546040517f2ae5e4920000000000000000000000000000000000000000000000000000000081523060048201526000916001600160a01b031690632ae5e4929060240161179a565b611b45848484610e20565b610e1a84848484612fb1565b600a546001600160a01b031615611b6757600080fd5b611b728a8a8a6130f3565b600b80546001600160a01b03808a1673ffffffffffffffffffffffffffffffffffffffff1992831617909255600a8054928516929091169190911790556020808401516040850151606086015178ffffffffffffffffffffffffffffffffffffffff000000000060289190911b1664ff000000009190931b1663ffffffff90911617176009819055865115611c0f57600d611c0d888261549f565b505b845115611c2457600e611c22868261549f565b505b6001600160a01b03861615611c8f5760405163036129cb60e61b81526001600160a01b03878116600483015284169063d84a72c090602401600060405180830381600087803b158015611c7657600080fd5b505af1158015611c8a573d6000803e3d6000fd5b505050505b83515115611d0d5783516040516349249dc160e01b81526001600160a01b038516916349249dc191611cc4919060040161555f565b6000604051808303816000875af1158015611ce3573d6000803e3d6000fd5b505050506040513d6000823e601f3d908101601f19168201604052611d0b91908101906152e0565b505b815180611d1b575081602001515b80611d27575081604001515b80611d33575081606001515b15611dd257604080517fcb827e3200000000000000000000000000000000000000000000000000000000815283511515600482015260208401511515602482015290830151151560448201526060830151151560648201526001600160a01b0384169063cb827e3290608401600060405180830381600087803b158015611db957600080fd5b505af1158015611dcd573d6000803e3d6000fd5b505050505b611de2611ddd6124ec565b612088565b5050505050505050505050565b611df7612c36565b61193c81613104565b600a546040517f0fab09470000000000000000000000000000000000000000000000000000000081523060048201526060916001600160a01b0316906000908290630fab094790602401602060405180830381865afa158015611e67573d6000803e3d6000fd5b505050506040513d601f19601f82011682018060405250810190611e8b9190615315565b90506001600160a01b03811615611f30576040517f5e703e71000000000000000000000000000000000000000000000000000000008152306004820152602481018590526001600160a01b03821690635e703e7190604401600060405180830381865afa158015611f00573d6000803e3d6000fd5b505050506040513d6000823e601f3d908101601f19168201604052611f289190810190615691565b949350505050565b611f28600d8054611f4090615032565b80601f0160208091040260200160405190810160405280929190818152602001828054611f6c90615032565b8015611fb95780601f10611f8e57610100808354040283529160200191611fb9565b820191906000526020600020905b815481529060010190602001808311611f9c57829003601f168201915b50506040517fc8df1710000000000000000000000000000000000000000000000000000000008152306004820152602481018a90526001600160a01b038816935063c8df171092506044019050602060405180830381865afa158015612023573d6000803e3d6000fd5b505050506040513d601f19601f8201168201806040525081019061204791906153c3565b61315a565b600e80546116cb90615032565b612061612c36565b6001600160a01b0381166120885760405163ecb9b1c760e01b815260040160405180910390fd5b61193c816000612d48565b600754341515806121305750604051636e49181f60e01b8152600481018290523360248201527f00000000000000000000000044d360c8c4105f180e07668bd3374c7a6f812faf6001600160a01b031690636e49181f90604401602060405180830381865afa15801561210a573d6000803e3d6000fd5b505050506040513d601f19601f8201168201806040525081019061212e919061533d565b155b8061213f575080826020013514155b15612176576040517f8a3ea1c800000000000000000000000000000000000000000000000000000000815260040160405180910390fd5b610b28826131dd565b61219461218a6117f0565b6007546015612508565b600a54839082906001600160a01b03168115612295576040517f20512ba10000000000000000000000000000000000000000000000000000000081526001600160a01b038216906320512ba1906121f190889088906004016156c6565b600060405180830381600087803b15801561220b57600080fd5b505af115801561221f573d6000803e3d6000fd5b5050505060005b828110156122935785858281811061224057612240615186565b905060200201357f832d89d991be5351d793c20faf4b7dd44f8aa9ce39e3cb160c6317de6fbba7296122706124ec565b6040516001600160a01b03909116815260200160405180910390a2600101612226565b505b82156114c8576040516349249dc160e01b81526000906001600160a01b038316906349249dc1906122cc908b908b9060040161581e565b6000604051808303816000875af11580156122eb573d6000803e3d6000fd5b505050506040513d6000823e601f3d908101601f1916820160405261231391908101906152e0565b905060005b8481101561239a5781818151811061233257612332615186565b60200260200101517f6c05e4bd067859371de8c0a303cf84af0ba782c3809f8fba14e6af4388894cf08a8a8481811061236d5761236d615186565b9050610180020161237c6124ec565b60405161238a929190615861565b60405180910390a2600101612318565b505050505050505050565b60006001600160e01b031982167f3344b87300000000000000000000000000000000000000000000000000000000148061240857506001600160e01b031982167f81c03c2e00000000000000000000000000000000000000000000000000000000145b8061243c57506001600160e01b031982167ff3c5788100000000000000000000000000000000000000000000000000000000145b8061247057506001600160e01b031982167f66ec4cb400000000000000000000000000000000000000000000000000000000145b806124a457506001600160e01b031982167f2a55205a00000000000000000000000000000000000000000000000000000000145b80610a555750610a5582613734565b6000818152600360205260408120546001600160a01b031680610a5557604051637e27328960e01b815260048101849052602401610e46565b60006124f66137cf565b905090565b610ee58383836001613844565b60006125126124ec565b9050836001600160a01b0316816001600160a01b0316141580156125d3575060405163c161c93f60e01b81526001600160a01b038281166004830152858116602483015260448201859052606482018490527f000000000000000000000000711eda44f3d42f3d255846b5ee36cf70fd912e50169063c161c93f90608401602060405180830381865afa1580156125ad573d6000803e3d6000fd5b505050506040513d601f19601f820116820180604052508101906125d1919061533d565b155b801561267c575060405163c161c93f60e01b81526001600160a01b038281166004830152858116602483015260006044830152606482018490527f000000000000000000000000711eda44f3d42f3d255846b5ee36cf70fd912e50169063c161c93f90608401602060405180830381865afa158015612656573d6000803e3d6000fd5b505050506040513d601f19601f8201168201806040525081019061267a919061533d565b155b15610e1a576040517f075fd2b100000000000000000000000000000000000000000000000000000000815260040160405180910390fd5b600a546040517fc44a8e6d00000000000000000000000000000000000000000000000000000000815230600482015260248101849052600060448201819052916001600160a01b0316908290829063c44a8e6d90606401600060405180830381865afa158015612727573d6000803e3d6000fd5b505050506040513d6000823e601f3d908101601f1916820160405261274f9190810190615887565b905061275c86868661398f565b92506001600160a01b0383161561289a578061014001511561284957600b546007546040516321d1336160e11b815260048101919091526000916001600160a01b0316906343a266c29060240161012060405180830381865afa1580156127c7573d6000803e3d6000fd5b505050506040513d601f19601f820116820180604052508101906127eb91906151f6565b90506001600160a01b03871615801590612810575061010081015160ef1c6001908116145b15612847576040517ffa45ac2900000000000000000000000000000000000000000000000000000000815260040160405180910390fd5b505b6000858152600860205260409020546001600160a01b031661289a576000858152600860205260409020805473ffffffffffffffffffffffffffffffffffffffff19166001600160a01b0385161790555b80516040517fc2c55f9400000000000000000000000000000000000000000000000000000000815260048101919091526001600160a01b038481166024830152878116604483015283169063c2c55f9490606401600060405180830381600087803b15801561290857600080fd5b505af115801561291c573d6000803e3d6000fd5b5050505050509392505050565b6001600160a01b03821661295357604051633250574960e11b815260006004820152602401610e46565b6000612961838360006126b3565b90506001600160a01b03811615610ee5576040517f73c6ac6e00000000000000000000000000000000000000000000000000000000815260006004820152602401610e46565b6000606060258351116129cc5750506040805160208101909152600080825290612b76565b6000836129db600460206159a8565b815181106129eb576129eb615186565b0160209081015160f81c91505b600085612a066004846159a8565b81518110612a1657612a16615186565b01602001517fff000000000000000000000000000000000000000000000000000000000000001614801590612a545750612a516020836159bb565b81105b15612b7357600085612a676004846159a8565b81518110612a7757612a77615186565b016020908101518784019091015160f89190911c91506001600160e01b031980891690821603612b69576000612aae6020866159bb565b612ab96009866159a8565b101580612b06575087612acd6009866159a8565b81518110612add57612add615186565b01602001517fff0000000000000000000000000000000000000000000000000000000000000016155b612b3f57602088612b186009876159a8565b81518110612b2857612b28615186565b0160200151612b3a919060f81c6159bb565b612b42565b87515b90506001612b5b89612b556020876159bb565b84613a95565b965096505050505050612b76565b50506005016129f8565b50505b9250929050565b6000612b8c60008360006126b3565b90506001600160a01b038116610b2857604051637e27328960e01b815260048101839052602401610e46565b600a546040517f86bc2be30000000000000000000000000000000000000000000000000000000081526001600160a01b03909116906386bc2be390612c01908490600401614989565b600060405180830381600087803b158015612c1b57600080fd5b505af1158015612c2f573d6000803e3d6000fd5b5050505050565b604080516060810182526000546001600160a01b0381168252600160a01b81046affffffffffffffffffffff1660208301819052600160f81b90910460ff16928201929092529061193c9015612d265760208201516040516331a9108f60e11b81526affffffffffffffffffffff90911660048201527f000000000000000000000000fa679f5ecdd8be404c1fbaa7f29aeb2b12f5b6626001600160a01b031690636352211e90602401602060405180830381865afa158015612cfd573d6000803e3d6000fd5b505050506040513d601f19601f82011682018060405250810190612d219190615315565b612d29565b81515b82602001516affffffffffffffffffffff16836040015160ff16612508565b6affffffffffffffffffffff811615801590612d6c57506001600160a01b03821615155b15612d8a5760405163ecb9b1c760e01b815260040160405180910390fd5b60408051606081018252600080546001600160a01b0381168352600160a01b81046affffffffffffffffffffff1660208401819052600160f81b90910460ff1693830193909352909115612e785760208201516040516331a9108f60e11b81526affffffffffffffffffffff90911660048201527f000000000000000000000000fa679f5ecdd8be404c1fbaa7f29aeb2b12f5b6626001600160a01b031690636352211e90602401602060405180830381865afa158015612e4f573d6000803e3d6000fd5b505050506040513d601f19601f82011682018060405250810190612e739190615315565b612e7b565b81515b604080516060810182526001600160a01b0387168082526affffffffffffffffffffff87166020830181905260009290930182905281547fff000000000000000000000000000000000000000000000000000000000000001617600160a01b909202919091176001600160f81b031690559050610e1a818585613ad1565b6001600160a01b038216612f44576040517f5b08ba180000000000000000000000000000000000000000000000000000000081526001600160a01b0383166004820152602401610e46565b6001600160a01b03838116600081815260066020908152604080832094871680845294825291829020805460ff191686151590811790915591519182527f17307eab39ab6107e8899845ad3d59bd9653f200f220920489ca2b5937696c31910160405180910390a3505050565b6001600160a01b0383163b15610e1a57826001600160a01b031663150b7a02612fd86124ec565b8685856040518563ffffffff1660e01b8152600401612ffa94939291906159d2565b6020604051808303816000875af1925050508015613035575060408051601f3d908101601f1916820190925261303291810190615a0e565b60015b61309e573d808015613063576040519150601f19603f3d011682016040523d82523d6000602084013e613068565b606091505b50805160000361309657604051633250574960e11b81526001600160a01b0385166004820152602401610e46565b805181602001fd5b6001600160e01b031981167f150b7a020000000000000000000000000000000000000000000000000000000014612c2f57604051633250574960e11b81526001600160a01b0385166004820152602401610e46565b6130fd8282613bc4565b5050600755565b600080546001600160f81b0316600160f81b60ff8416908102919091179091556040519081527f6f4725627084d54c46c628b050805457a1cd38c5cd20c1f00132960f8b546fed9060200160405180910390a150565b6040517f1220000000000000000000000000000000000000000000000000000000000000602082015260228101829052606090600090604201604051602081830303815290604052905060006131af82613bdd565b905084816040516020016131c4929190615a2b565b6040516020818303038152906040529250505092915050565b60095460009063ffffffff811660c084013581900361320257608084013592506132dc565b602882901c6001600160a01b03811615612c2f5760ff602084901c166132d7608087013561323183600a615b3e565b6007546040517f3be273fa000000000000000000000000000000000000000000000000000000008152600481019190915260c08a013560248201526044810187905260a08a013560648201526001600160a01b03861690633be273fa90608401602060405180830381865afa1580156132ae573d6000803e3d6000fd5b505050506040513d601f19601f820116820180604052508101906132d291906153c3565b613d75565b945050505b5060009050600c816132f66101c086016101a08701614623565b6001600160a01b031681526020810191909152604001600090812054915082906133286101c086016101a08701614623565b6001600160a01b031661333e6020870187614623565b6001600160a01b0316036133555790820190613358565b50815b60408051808201909152600381527f7061790000000000000000000000000000000000000000000000000000000000602090910152600080806133e87f0000000000000000000000007c8ef86687a0bfa1882d2f25866cd4ea354eea3c60601b7fadc756803e4eb4ccfb136b73d5f72e3dc0d452d30ae1f4bc82af394c73ce7115186113a86101e08b018b61535a565b9150915081156134bc576060818060200190518101906134089190615b4a565b90945090508380156134865750600a54604051634228826f60e11b81523060048201526001600160a01b039091169063845104de90602401608060405180830381865afa15801561345d573d6000803e3d6000fd5b505050506040513d601f19601f820116820180604052508101906134819190615bfb565b606001515b1561349057600093505b8051156134b6576134b386826134ae6101c08d016101a08e01614623565b613e62565b95505b50613535565b600a54604051634228826f60e11b81523060048201526001600160a01b039091169063845104de90602401608060405180830381865afa158015613504573d6000803e3d6000fd5b505050506040513d601f19601f820116820180604052508101906135289190615bfb565b6060015161353557600192505b84156136885782613572576040517f6d5e09a400000000000000000000000000000000000000000000000000000000815260040160405180910390fd5b848401868111156135e55761358f6101c08a016101a08b01614623565b6001600160a01b0316818883037f7e71a5f6c04b0eb16949316623b9dda7bd103692f7d89678e2260afa1378a2d56135c56124ec565b6040516001600160a01b03909116815260200160405180910390a4613651565b80871115613651576135ff6101c08a016101a08b01614623565b6001600160a01b0316818289037f6276f0169fb8de712b2a6c02789f6115136c589ed491ac06f9e20f41877e41fe6136356124ec565b6040516001600160a01b03909116815260200160405180910390a45b80600c60006136686101c08d016101a08e01614623565b6001600160a01b0316815260208101919091526040016000205550610dbd565b838614610dbd576136a16101c089016101a08a01614623565b6001600160a01b0316846136b58189615c62565b7f6276f0169fb8de712b2a6c02789f6115136c589ed491ac06f9e20f41877e41fe6136de6124ec565b6040516001600160a01b03909116815260200160405180910390a483600c60006137106101c08c016101a08d01614623565b6001600160a01b031681526020810191909152604001600020555050505050505050565b60006001600160e01b031982167f80ac58cd00000000000000000000000000000000000000000000000000000000148061379757506001600160e01b031982167f5b5e139f00000000000000000000000000000000000000000000000000000000145b80610a5557507f01ffc9a7000000000000000000000000000000000000000000000000000000006001600160e01b0319831614610a55565b6000366014336001600160a01b037f000000000000000000000000b2b5841dbef766d4b521221732f9b618fcf34a871614801561380c5750808210155b1561383c5760003661381e8385615c62565b613829928290615c75565b61383291615c9f565b60601c9250505090565b339250505090565b808061385857506001600160a01b03821615155b15613952576000613868846124b3565b90506001600160a01b038316158015906138945750826001600160a01b0316816001600160a01b031614155b80156138c657506001600160a01b0380821660009081526006602090815260408083209387168352929052205460ff16155b15613908576040517fa9fbf51f0000000000000000000000000000000000000000000000000000000081526001600160a01b0384166004820152602401610e46565b81156139505783856001600160a01b0316826001600160a01b03167f8c5be1e5ebec7d5bd14f71427d1e84f3dd0314c0f7b2291e5b200ac8c7c3b92560405160405180910390a45b505b50506000908152600560205260409020805473ffffffffffffffffffffffffffffffffffffffff19166001600160a01b0392909216919091179055565b6000828152600360205260408120546001600160a01b03908116908316156139bc576139bc818486613fa3565b6001600160a01b038116156139fa576139d9600085600080613844565b6001600160a01b038116600090815260046020526040902080546000190190555b6001600160a01b03851615613a29576001600160a01b0385166000908152600460205260409020805460010190555b600084815260036020526040808220805473ffffffffffffffffffffffffffffffffffffffff19166001600160a01b0389811691821790925591518793918516917fddf252ad1be2c89b69c2b068fc378daa952ba7f163c4a11628f55a4df523b3ef91a4949350505050565b60608282036040519150602081830101604052808252508260208501016020820160005b848110156116b4578281015182820152602001613ab9565b6affffffffffffffffffffff811615613b7e576040516331a9108f60e11b81526affffffffffffffffffffff821660048201527f000000000000000000000000fa679f5ecdd8be404c1fbaa7f29aeb2b12f5b6626001600160a01b031690636352211e90602401602060405180830381865afa158015613b55573d6000803e3d6000fd5b505050506040513d601f19601f82011682018060405250810190613b799190615315565b613b80565b815b6001600160a01b0316836001600160a01b03167f8be0079c531659141344cd1fd0a4f28419497f9722a3daafe3b4186f6b6457e060405160405180910390a3505050565b6001613bd0838261549f565b506002610ee5828261549f565b60608151600003613bfc57505060408051600081526020810190915290565b60408051602e8082526105e08201909252600091602082016105c080368337019050509050600081600081518110613c3657613c36615186565b60ff90921660209283029190910190910152825160019060005b81811015613d51576000868281518110613c6c57613c6c615186565b016020015160f81c905060005b8460ff16811015613cf6576008868281518110613c9857613c98615186565b602002602001015160ff16901b82613cb091906159a8565b9150613cbd603a83615cea565b868281518110613ccf57613ccf615186565b60ff90921660209283029190910190910152613cec603a83615cfe565b9150600101613c79565b505b8015613d4857613d09603a82615cea565b858560ff1681518110613d1e57613d1e615186565b60ff90921660209283029190910190910152600190930192613d41603a82615cfe565b9050613cf8565b50600101613c50565b50613d6c613d67613d628585614020565b6140c8565b61416b565b95945050505050565b6000808060001985870985870292508281108382030391505080600003613daf57838281613da557613da5615cd4565b0492505050610fce565b838110613df9576040517f63a05778000000000000000000000000000000000000000000000000000000008152600481018790526024810186905260448101859052606401610e46565b60008486880960026001871981018816978890046003810283188082028403028082028403028082028403028082028403028082028403029081029092039091026000889003889004909101858311909403939093029303949094049190911702949350505050565b600a5460405163eaa19ab360e01b81526000916060916001600160a01b039091169063eaa19ab390613e9c90889088908790600401615d12565b6000604051808303816000875af1158015613ebb573d6000803e3d6000fd5b505050506040513d6000823e601f3d908101601f19168201604052613ee3919081019061543b565b81519093509091506000805b82811015613f9857838181518110613f0957613f09615186565b60200260200101519150613f1d8683612929565b856001600160a01b0316878281518110613f3957613f39615186565b602002602001015161ffff16837f598baf7bf150ca2f42be9e9f8f55e81d45f5715c3ff22bf46d697fabec7f31d68b613f706124ec565b604080519283526001600160a01b0390911660208301520160405180910390a4600101613eef565b505050509392505050565b613fae838383614245565b610ee5576001600160a01b038316613fdc57604051637e27328960e01b815260048101829052602401610e46565b6040517f177e802f0000000000000000000000000000000000000000000000000000000081526001600160a01b038316600482015260248101829052604401610e46565b606060008260ff1667ffffffffffffffff811115614040576140406146e0565b604051908082528060200260200182016040528015614069578160200160208202803683370190505b50905060005b8360ff168110156140c05784818151811061408c5761408c615186565b60200260200101518282815181106140a6576140a6615186565b60ff9092166020928302919091019091015260010161406f565b509392505050565b805160609060008167ffffffffffffffff8111156140e8576140e86146e0565b604051908082528060200260200182016040528015614111578160200160208202803683370190505b50905060005b828110156140c05784816001875103038151811061413757614137615186565b602002602001015182828151811061415157614151615186565b60ff90921660209283029190910190910152600101614117565b805160609060008167ffffffffffffffff81111561418b5761418b6146e0565b6040519080825280601f01601f1916602001820160405280156141b5576020820181803683370190505b50905060005b828110156140c0576040518060600160405280603a8152602001615d72603a91398582815181106141ee576141ee615186565b602002602001015160ff168151811061420957614209615186565b602001015160f81c60f81b82828151811061422657614226615186565b60200101906001600160f81b031916908160001a9053506001016141bb565b60006001600160a01b03831615801590611f285750826001600160a01b0316846001600160a01b0316148061429f57506001600160a01b0380851660009081526006602090815260408083209387168352929052205460ff165b80611f285750506000908152600560205260409020546001600160a01b03908116911614919050565b6001600160e01b03198116811461193c57600080fd5b6000602082840312156142f057600080fd5b8135610fce816142c8565b60005b838110156143165781810151838201526020016142fe565b50506000910152565b600081518084526143378160208601602086016142fb565b601f01601f19169290920160200192915050565b602081526000610fce602083018461431f565b60006020828403121561437057600080fd5b5035919050565b6001600160a01b038116811461193c57600080fd5b803561439781614377565b919050565b600080604083850312156143af57600080fd5b82356143ba81614377565b946020939093013593505050565b60008083601f8401126143da57600080fd5b50813567ffffffffffffffff8111156143f257600080fd5b602083019150836020828501011115612b7657600080fd5b600080600080600080600060a0888a03121561442557600080fd5b873567ffffffffffffffff8082111561443d57600080fd5b6144498b838c016143c8565b909950975060208a013591508082111561446257600080fd5b5061446f8a828b016143c8565b909650945050604088013561448381614377565b969995985093969295946060840135945060809093013592915050565b600080602083850312156144b357600080fd5b823567ffffffffffffffff808211156144cb57600080fd5b818501915085601f8301126144df57600080fd5b8135818111156144ee57600080fd5b8660208260061b850101111561450357600080fd5b60209290920196919550909350505050565b60008060006060848603121561452a57600080fd5b833561453581614377565b9250602084013561454581614377565b929592945050506040919091013590565b60006020828403121561456857600080fd5b813567ffffffffffffffff81111561457f57600080fd5b82016101808185031215610fce57600080fd5b6000604080830185845260206040818601528186518084526060935060608701915060608160051b88010183890160005b8381101561461357898303605f19018552815180516001600160a01b0316845286810151878501528801518884018890526146008885018261431f565b95870195935050908501906001016145c3565b50909a9950505050505050505050565b60006020828403121561463557600080fd5b8135610fce81614377565b6000806040838503121561465357600080fd5b50508035926020909101359150565b6000610200828403121561467557600080fd5b50919050565b60006020828403121561468d57600080fd5b813567ffffffffffffffff8111156146a457600080fd5b611f2884828501614662565b600080604083850312156146c357600080fd5b8235915060208301356146d581614377565b809150509250929050565b634e487b7160e01b600052604160045260246000fd5b6040516080810167ffffffffffffffff81118282101715614719576147196146e0565b60405290565b604051610180810167ffffffffffffffff81118282101715614719576147196146e0565b604051610120810167ffffffffffffffff81118282101715614719576147196146e0565b6040516101a0810167ffffffffffffffff81118282101715614719576147196146e0565b604051601f8201601f1916810167ffffffffffffffff811182821017156147b4576147b46146e0565b604052919050565b600067ffffffffffffffff8211156147d6576147d66146e0565b5060051b60200190565b60006101a0828403121561467557600080fd5b6000806040838503121561480657600080fd5b823567ffffffffffffffff8082111561481e57600080fd5b818501915085601f83011261483257600080fd5b81356020614847614842836147bc565b61478b565b82815260059290921b8401810191818101908984111561486657600080fd5b948201945b838610156148845785358252948201949082019061486b565b9650508601359250508082111561489a57600080fd5b506148a7858286016147e0565b9150509250929050565b60008083601f8401126148c357600080fd5b50813567ffffffffffffffff8111156148db57600080fd5b6020830191508360208260051b8501011115612b7657600080fd5b60008060006040848603121561490b57600080fd5b833567ffffffffffffffff81111561492257600080fd5b61492e868287016148b1565b909450925050602084013561494281614377565b809150509250925092565b60008151808452602080850194506020840160005b8381101561497e57815187529582019590820190600101614962565b509495945050505050565b602081526000610fce602083018461494d565b801515811461193c57600080fd5b80356143978161499c565b600080604083850312156149c857600080fd5b82356149d381614377565b915060208301356146d58161499c565b6000602082840312156149f557600080fd5b813567ffffffffffffffff811115614a0c57600080fd5b611f28848285016147e0565b60006080820186835260208681850152604086604086015260606080606087015283875180865260a08801915060a08160051b890101955084890160005b82811015614aa657898803609f19018452815180516001600160a01b0316895287810151888a0152860151868901869052614a93868a018261431f565b9850509286019290860190600101614a56565b50959c9b505050505050505050505050565b600067ffffffffffffffff821115614ad257614ad26146e0565b50601f01601f191660200190565b6000614aee61484284614ab8565b9050828152838383011115614b0257600080fd5b828260208301376000602084830101529392505050565b60008060008060808587031215614b2f57600080fd5b8435614b3a81614377565b93506020850135614b4a81614377565b925060408501359150606085013567ffffffffffffffff811115614b6d57600080fd5b8501601f81018713614b7e57600080fd5b614b8d87823560208401614ae0565b91505092959194509250565b600082601f830112614baa57600080fd5b610fce83833560208501614ae0565b80356cffffffffffffffffffffffffff8116811461439757600080fd5b803563ffffffff8116811461439757600080fd5b61ffff8116811461193c57600080fd5b803561439781614bea565b803562ffffff8116811461439757600080fd5b803560ff8116811461439757600080fd5b60006080808385031215614c3c57600080fd5b614c446146f6565b9150823567ffffffffffffffff811115614c5d57600080fd5b8301601f81018513614c6e57600080fd5b80356020614c7e614842836147bc565b8281526101809283028401820192828201919089851115614c9e57600080fd5b948301945b84861015614d915780868b031215614cbb5760008081fd5b614cc361471f565b614ccc87614bb9565b8152614cd9858801614bd6565b858201526040614cea818901614bd6565b908201526060614cfb888201614bfa565b90820152614d0a87890161438c565b8189015260a0878101359082015260c0614d25818901614c05565b9082015260e0614d368882016149aa565b90820152610100614d488882016149aa565b90820152610120614d5a8882016149aa565b90820152610140614d6c8882016149aa565b90820152610160614d7e8882016149aa565b9082015283529485019491830191614ca3565b50865250614da0868201614bd6565b8186015250505050614db460408301614c18565b6040820152614dc56060830161438c565b606082015292915050565b600060808284031215614de257600080fd5b614dea6146f6565b90508135614df78161499c565b81526020820135614e078161499c565b60208201526040820135614e1a8161499c565b60408201526060820135614dc58161499c565b6000806000806000806000806000806101a08b8d031215614e4d57600080fd5b8a35995060208b013567ffffffffffffffff80821115614e6c57600080fd5b614e788e838f01614b99565b9a5060408d0135915080821115614e8e57600080fd5b614e9a8e838f01614b99565b9950614ea860608e0161438c565b985060808d0135915080821115614ebe57600080fd5b614eca8e838f01614b99565b9750614ed860a08e0161438c565b965060c08d0135915080821115614eee57600080fd5b614efa8e838f01614b99565b955060e08d0135915080821115614f1057600080fd5b50614f1d8d828e01614c29565b935050614f2d6101008c0161438c565b9150614f3d8c6101208d01614dd0565b90509295989b9194979a5092959850565b600060208284031215614f6057600080fd5b610fce82614c18565b60008060408385031215614f7c57600080fd5b8235614f8781614377565b915060208301356146d581614377565b60008060008060408587031215614fad57600080fd5b843567ffffffffffffffff80821115614fc557600080fd5b818701915087601f830112614fd957600080fd5b813581811115614fe857600080fd5b88602061018083028501011115614ffe57600080fd5b60209283019650945090860135908082111561501957600080fd5b50615026878288016148b1565b95989497509550505050565b600181811c9082168061504657607f821691505b60208210810361467557634e487b7160e01b600052602260045260246000fd5b601f821115610ee5576000816000526020600020601f850160051c8101602086101561508f5750805b601f850160051c820191505b818110156150ae5782815560010161509b565b505050505050565b67ffffffffffffffff8311156150ce576150ce6146e0565b6150e2836150dc8354615032565b83615066565b6000601f84116001811461511657600085156150fe5750838201355b600019600387901b1c1916600186901b178355612c2f565b600083815260209020601f19861690835b828110156151475786850135825560209485019460019092019101615127565b50868210156151645760001960f88860031b161c19848701351681555b505060018560011b0183555050505050565b8183823760009101908152919050565b634e487b7160e01b600052603260045260246000fd5b6000604082840312156151ae57600080fd5b6040516040810181811067ffffffffffffffff821117156151d1576151d16146e0565b604052823581526020928301359281019290925250919050565b805161439781614377565b6000610120828403121561520957600080fd5b615211614743565b825181526020830151602082015260408301516040820152606083015160608201526080830151608082015260a083015160a082015260c083015160c082015261525d60e084016151eb565b60e0820152610100928301519281019290925250919050565b600082601f83011261528757600080fd5b81516020615297614842836147bc565b8083825260208201915060208460051b8701019350868411156152b957600080fd5b602086015b848110156152d557805183529183019183016152be565b509695505050505050565b6000602082840312156152f257600080fd5b815167ffffffffffffffff81111561530957600080fd5b611f2884828501615276565b60006020828403121561532757600080fd5b8151610fce81614377565b80516143978161499c565b60006020828403121561534f57600080fd5b8151610fce8161499c565b6000808335601e1984360301811261537157600080fd5b83018035915067ffffffffffffffff82111561538c57600080fd5b602001915036819003821315612b7657600080fd5b6001600160a01b0383168152604060208201526000611f28604083018461494d565b6000602082840312156153d557600080fd5b5051919050565b84815260606020808301829052908201849052600090859060808401835b8781101561542357833561540d81614bea565b61ffff16825292820192908201906001016153fa565b50809350505050821515604083015295945050505050565b6000806040838503121561544e57600080fd5b825167ffffffffffffffff81111561546557600080fd5b61547185828601615276565b925050602083015190509250929050565b60006020828403121561549457600080fd5b8135610fce81614bea565b815167ffffffffffffffff8111156154b9576154b96146e0565b6154cd816154c78454615032565b84615066565b602080601f83116001811461550257600084156154ea5750858301515b600019600386901b1c1916600185901b1785556150ae565b600085815260208120601f198616915b8281101561553157888601518255948401946001909101908401615512565b508582101561554f5787850151600019600388901b60f8161c191681555b5050505050600190811b01905550565b602080825282518282018190526000919060409081850190868401855b8281101561563f57815180516cffffffffffffffffffffffffff1685528681015163ffffffff9081168887015286820151168686015260608082015161ffff16908601526080808201516001600160a01b03169086015260a0808201519086015260c08082015162ffffff169086015260e08082015115159086015261010080820151151590860152610120808201511515908601526101408082015115159086015261016090810151151590850152610180909301929085019060010161557c565b5091979650505050505050565b600082601f83011261565d57600080fd5b815161566b61484282614ab8565b81815284602083860101111561568057600080fd5b611f288260208301602087016142fb565b6000602082840312156156a357600080fd5b815167ffffffffffffffff8111156156ba57600080fd5b611f288482850161564c565b6020815281602082015260007f07ffffffffffffffffffffffffffffffffffffffffffffffffffffffffffffff8311156156ff57600080fd5b8260051b80856040850137919091016040019392505050565b6157388261572583614bb9565b6cffffffffffffffffffffffffff169052565b61574460208201614bd6565b63ffffffff16602083015261575b60408201614bd6565b63ffffffff16604083015261577260608201614bfa565b61ffff1660608301526157876080820161438c565b6001600160a01b0316608083015260a081810135908301526157ab60c08201614c05565b62ffffff1660c08301526157c160e082016149aa565b151560e08301526101006157d68282016149aa565b1515908301526101206157ea8282016149aa565b1515908301526101406157fe8282016149aa565b1515908301526101606158128282016149aa565b80151584830152610e1a565b6020808252810182905260008360408301825b85811015615857576158438284615718565b610180928301929190910190600101615831565b5095945050505050565b6101a081016158708285615718565b6001600160a01b0383166101808301529392505050565b60006020828403121561589957600080fd5b815167ffffffffffffffff808211156158b157600080fd5b908301906101a082860312156158c657600080fd5b6158ce614767565b825181526020830151602082015260408301516040820152606083015160608201526080830151608082015260a083015160a082015261591060c084016151eb565b60c082015260e083015160e0820152610100808401518183015250610120615939818501615332565b9082015261014061594b848201615332565b9082015261016061595d848201615332565b90820152610180838101518381111561597557600080fd5b6159818882870161564c565b918301919091525095945050505050565b634e487b7160e01b600052601160045260246000fd5b80820180821115610a5557610a55615992565b8082028115828204841417610a5557610a55615992565b60006001600160a01b03808716835280861660208401525083604083015260806060830152615a04608083018461431f565b9695505050505050565b600060208284031215615a2057600080fd5b8151610fce816142c8565b60008351615a3d8184602088016142fb565b835190830190615a518183602088016142fb565b01949350505050565b600181815b80851115615a95578160001904821115615a7b57615a7b615992565b80851615615a8857918102915b93841c9390800290615a5f565b509250929050565b600082615aac57506001610a55565b81615ab957506000610a55565b8160018114615acf5760028114615ad957615af5565b6001915050610a55565b60ff841115615aea57615aea615992565b50506001821b610a55565b5060208310610133831016604e8410600b8410161715615b18575081810a610a55565b615b228383615a5a565b8060001904821115615b3657615b36615992565b029392505050565b6000610fce8383615a9d565b60008060408385031215615b5d57600080fd5b8251615b688161499c565b8092505060208084015167ffffffffffffffff811115615b8757600080fd5b8401601f81018613615b9857600080fd5b8051615ba6614842826147bc565b81815260059190911b82018301908381019088831115615bc557600080fd5b928401925b82841015615bec578351615bdd81614bea565b82529284019290840190615bca565b80955050505050509250929050565b600060808284031215615c0d57600080fd5b615c156146f6565b8251615c208161499c565b81526020830151615c308161499c565b60208201526040830151615c438161499c565b60408201526060830151615c568161499c565b60608201529392505050565b81810381811115610a5557610a55615992565b60008085851115615c8557600080fd5b83861115615c9257600080fd5b5050820193919092039150565b6bffffffffffffffffffffffff198135818116916014851015615ccc5780818660140360031b1b83161692505b505092915050565b634e487b7160e01b600052601260045260246000fd5b600082615cf957615cf9615cd4565b500690565b600082615d0d57615d0d615cd4565b500490565b60006060820185835260206060602085015281865180845260808601915060208801935060005b81811015615d5957845161ffff1683529383019391830191600101615d39565b5050809350505050821515604083015294935050505056fe31323334353637383941424344454647484a4b4c4d4e505152535455565758595a6162636465666768696a6b6d6e6f707172737475767778797aa26469706673582212202500f1d3fcf8a0be51cffd6343cd30af7b3f1344a9159cc3f8044fc176fd2fec64736f6c63430008170033",
	"devdoc": {
		"kind": "dev",
		"methods": {
			"adjustTiers((uint104,uint32,uint32,uint16,address,bytes32,uint24,bool,bool,bool,bool,bool)[],uint256[])": {
				"details": "Only the contract's owner or an operator with the `ADJUST_TIERS` permission from the owner can adjust the tiers.Any added tiers must adhere to this hook's `JB721TiersHookFlags`.",
				"params": {
					"tierIdsToRemove": "The tiers to remove, as an array of tier IDs.",
					"tiersToAdd": "The tiers to add, as an array of `JB721TierConfig` structs`."
				}
			},
			"afterPayRecordedWith((address,uint256,uint256,(address,uint256,uint256,uint256),(address,uint256,uint256,uint256),uint256,uint256,address,bytes,bytes))": {
				"details": "Reverts if the calling contract is not one of the project's terminals.",
				"params": {
					"context": "The payment context passed in by the terminal."
				}
			},
			"afterRedeemRecordedWith((address,uint256,uint256,uint256,(address,uint256,uint256,uint256),(address,uint256,uint256,uint256),uint256,address,bytes,bytes))": {
				"details": "Reverts if the calling contract is not one of the project's terminals.",
				"params": {
					"context": "The redemption context passed in by the terminal."
				}
			},
			"approve(address,uint256)": {
				"details": "See {IERC721-approve}."
			},
			"balanceOf(address)": {
				"params": {
					"owner": "The address to check the balance of."
				},
				"returns": {
					"balance": "The number of NFTs the address owns across this hook's tiers."
				}
			},
			"beforePayRecordedWith((address,address,(address,uint256,uint256,uint256),uint256,uint256,address,uint256,uint256,bytes))": {
				"details": "Sets this contract as the pay hook. Part of `IJBRulesetDataHook`.",
				"params": {
					"context": "The payment context passed to this contract by the `pay(...)` function."
				},
				"returns": {
					"hookSpecifications": "The amount and data to send to pay hooks (this contract) instead of adding to the terminal's balance.",
					"weight": "The new `weight` to use, overriding the ruleset's `weight`."
				}
			},
			"beforeRedeemRecordedWith((address,address,uint256,uint256,uint256,uint256,(address,uint256,uint256,uint256),bool,uint256,bytes))": {
				"details": "Sets this contract as the redeem hook. Part of `IJBRulesetDataHook`.This function is used for NFT redemptions, and will only be called if the project's ruleset has `useDataHookForRedeem` set to `true`.",
				"params": {
					"context": "The redemption context passed to this contract by the `redeemTokensOf(...)` function."
				},
				"returns": {
					"hookSpecifications": "The amount and data to send to redeem hooks (this contract) instead of returning to the beneficiary.",
					"redeemCount": "The amount of tokens that should be considered redeemed.",
					"redemptionRate": "The redemption rate influencing the reclaim amount.",
					"totalSupply": "The total amount of tokens that are considered to be existing."
				}
			},
			"constructor": {
				"params": {
					"directory": "A directory of terminals and controllers for projects.",
					"permissions": "A contract storing permissions.",
					"trustedForwarder": "The trusted forwarder for the ERC2771Context."
				}
			},
			"firstOwnerOf(uint256)": {
				"details": "This is generally the address which paid for the NFT.",
				"params": {
					"tokenId": "The token ID of the NFT to get the first owner of."
				},
				"returns": {
					"_0": "The address of the NFT's first owner."
				}
			},
			"getApproved(uint256)": {
				"details": "See {IERC721-getApproved}."
			},
			"initialize(uint256,string,string,address,string,address,string,((uint104,uint32,uint32,uint16,address,bytes32,uint24,bool,bool,bool,bool,bool)[],uint32,uint8,address),address,(bool,bool,bool,bool))": {
				"params": {
					"baseUri": "The URI to use as a base for full NFT `tokenUri`s.",
					"contractUri": "A URI where this contract's metadata can be found.",
					"flags": "A set of additional options which dictate how the hook behaves.",
					"name": "The name of the NFT collection.",
					"projectId": "The ID of the project this this hook is associated with.",
					"rulesets": "A contract storing and managing project rulesets.",
					"store": "The contract which stores the NFT's data.",
					"symbol": "The symbol representing the NFT collection.",
					"tiersConfig": "The NFT tiers and pricing context to initialize the hook with. The tiers must be sorted by price (from least to greatest).",
					"tokenUriResolver": "An optional contract responsible for resolving the token URI for each NFT's token ID."
				}
			},
			"isApprovedForAll(address,address)": {
				"details": "See {IERC721-isApprovedForAll}."
			},
			"isTrustedForwarder(address)": {
				"details": "Indicates whether any particular address is the trusted forwarder."
			},
			"mintFor(uint16[],address)": {
				"params": {
					"beneficiary": "The address to mint to.",
					"tierIds": "The IDs of the tiers to mint from."
				},
				"returns": {
					"tokenIds": "The IDs of the newly minted tokens."
				}
			},
			"mintPendingReservesFor((uint256,uint256)[])": {
				"details": "\"Pending\" means that the NFTs have been reserved, but have not been minted yet.",
				"params": {
					"reserveMintConfigs": "Contains information about how many reserved tokens to mint for each tier."
				}
			},
			"mintPendingReservesFor(uint256,uint256)": {
				"details": "\"Pending\" means that the NFTs have been reserved, but have not been minted yet.",
				"params": {
					"count": "The number of reserved NFTs to mint.",
					"tierId": "The ID of the tier to mint reserved NFTs from."
				}
			},
			"name()": {
				"details": "See {IERC721Metadata-name}."
			},
			"ownerOf(uint256)": {
				"details": "See {IERC721-ownerOf}."
			},
			"pricingContext()": {
				"details": "If the `prices` contract is the zero address, this contract only accepts payments in the `currency` token.",
				"returns": {
					"currency": "The currency used for tier prices.",
					"decimals": "The amount of decimals being used in tier prices.",
					"prices": "The prices contract used to resolve the value of payments in currencies other than `currency`."
				}
			},
			"redemptionWeightOf(uint256[],(address,address,uint256,uint256,uint256,uint256,(address,uint256,uint256,uint256),bool,uint256,bytes))": {
				"details": "An NFT's redemption weight is its price.To get their relative redemption weight, divide the result by the `totalRedemptionWeight(...)`.",
				"params": {
					"tokenIds": "The token IDs of the NFTs to get the cumulative redemption weight of."
				},
				"returns": {
					"_0": "weight The redemption weight of the tokenIds."
				}
			},
			"safeTransferFrom(address,address,uint256)": {
				"details": "See {IERC721-safeTransferFrom}."
			},
			"safeTransferFrom(address,address,uint256,bytes)": {
				"details": "See {IERC721-safeTransferFrom}."
			},
			"setApprovalForAll(address,bool)": {
				"details": "See {IERC721-setApprovalForAll}."
			},
			"setMetadata(string,string,address,uint256,bytes32)": {
				"details": "Only this contract's owner can set the metadata.",
				"params": {
					"baseUri": "The new base URI.",
					"contractUri": "The new contract URI.",
					"encodedIPFSTUriTierId": "The ID of the tier to set the encoded IPFS URI of.",
					"encodedIPFSUri": "The encoded IPFS URI to set.",
					"tokenUriResolver": "The new URI resolver."
				}
			},
			"setPermissionId(uint8)": {
				"params": {
					"permissionId": "The ID of the permission to use for `onlyOwner`."
				}
			},
			"supportsInterface(bytes4)": {
				"details": "See {IERC165-supportsInterface}.",
				"params": {
					"interfaceId": "The ID of the interface to check for adherence to."
				}
			},
			"symbol()": {
				"details": "See {IERC721Metadata-symbol}."
			},
			"tokenURI(uint256)": {
				"details": "Defers to the `tokenUriResolver` if it is set. Otherwise, use the `tokenUri` corresponding with the NFT's tier.",
				"params": {
					"tokenId": "The token ID of the NFT to get the metadata URI of."
				},
				"returns": {
					"_0": "The token URI from the `tokenUriResolver` if it is set. If it isn't set, the token URI for the NFT's tier."
				}
			},
			"totalRedemptionWeight((address,address,uint256,uint256,uint256,uint256,(address,uint256,uint256,uint256),bool,uint256,bytes))": {
				"details": "An NFT's redemption weight is its price.",
				"returns": {
					"_0": "weight The total redemption weight."
				}
			},
			"transferFrom(address,address,uint256)": {
				"details": "See {IERC721-transferFrom}."
			},
			"transferOwnership(address)": {
				"params": {
					"newOwner": "The address that should receive ownership of this contract."
				}
			},
			"transferOwnershipToProject(uint256)": {
				"details": "The `projectId` must fit within a `uint88`.",
				"params": {
					"projectId": "The ID of the project that should receive ownership of this contract."
				}
			},
			"trustedForwarder()": {
				"details": "Returns the address of the trusted forwarder."
			}
		},
		"version": 1
	},
	"userdoc": {
		"kind": "user",
		"methods": {
			"DIRECTORY()": {
				"notice": "The directory of terminals and controllers for projects."
			},
			"METADATA_ID_TARGET()": {
				"notice": "The ID used when parsing metadata."
			},
			"PERMISSIONS()": {
				"notice": "A contract storing permissions."
			},
			"PROJECTS()": {
				"notice": "Mints ERC-721s that represent project ownership and transfers."
			},
			"PROJECT_ID()": {
				"notice": "The ID of the project that this contract is associated with."
			},
			"RULESETS()": {
				"notice": "The contract storing and managing project rulesets."
			},
			"STORE()": {
				"notice": "The contract that stores and manages data for this contract's NFTs."
			},
			"adjustTiers((uint104,uint32,uint32,uint16,address,bytes32,uint24,bool,bool,bool,bool,bool)[],uint256[])": {
				"notice": "Add or delete tiers."
			},
			"afterPayRecordedWith((address,uint256,uint256,(address,uint256,uint256,uint256),(address,uint256,uint256,uint256),uint256,uint256,address,bytes,bytes))": {
				"notice": "Mints one or more NFTs to the `context.benficiary` upon payment if conditions are met. Part of `IJBPayHook`."
			},
			"afterRedeemRecordedWith((address,uint256,uint256,uint256,(address,uint256,uint256,uint256),(address,uint256,uint256,uint256),uint256,address,bytes,bytes))": {
				"notice": "Burns the specified NFTs upon token holder redemption, reclaiming funds from the project's balance for `context.beneficiary`. Part of `IJBRedeemHook`."
			},
			"balanceOf(address)": {
				"notice": "The total number of this hook's NFTs that an address holds (from all tiers)."
			},
			"baseURI()": {
				"notice": "The base URI for the NFT `tokenUris`."
			},
			"beforePayRecordedWith((address,address,(address,uint256,uint256,uint256),uint256,uint256,address,uint256,uint256,bytes))": {
				"notice": "The data calculated before a payment is recorded in the terminal store. This data is provided to the terminal's `pay(...)` transaction."
			},
			"beforeRedeemRecordedWith((address,address,uint256,uint256,uint256,uint256,(address,uint256,uint256,uint256),bool,uint256,bytes))": {
				"notice": "The data calculated before a redemption is recorded in the terminal store. This data is provided to the terminal's `redeemTokensOf(...)` transaction."
			},
			"contractURI()": {
				"notice": "This contract's metadata URI."
			},
			"firstOwnerOf(uint256)": {
				"notice": "The first owner of an NFT."
			},
			"hasMintPermissionFor(uint256,address)": {
				"notice": "Required by the IJBRulesetDataHook interfaces. Return false to not leak any permissions."
			},
			"initialize(uint256,string,string,address,string,address,string,((uint104,uint32,uint32,uint16,address,bytes32,uint24,bool,bool,bool,bool,bool)[],uint32,uint8,address),address,(bool,bool,bool,bool))": {
				"notice": "Initializes a cloned copy of the original `JB721Hook` contract."
			},
			"jbOwner()": {
				"notice": "This contract's owner information."
			},
			"mintFor(uint16[],address)": {
				"notice": "Manually mint NFTs from the provided tiers ."
			},
			"mintPendingReservesFor((uint256,uint256)[])": {
				"notice": "Mint pending reserved NFTs based on the provided information."
			},
			"mintPendingReservesFor(uint256,uint256)": {
				"notice": "Mint reserved pending reserved NFTs within the provided tier."
			},
			"owner()": {
				"notice": "Returns the owner's address based on this contract's `JBOwner` owner information."
			},
			"payCreditsOf(address)": {
				"notice": "If an address pays more than the price of the NFT they received, the extra amount is stored as credits which can be redeemed to mint NFTs."
			},
			"pricingContext()": {
				"notice": "Context for the pricing of this hook's tiers."
			},
			"redemptionWeightOf(uint256[],(address,address,uint256,uint256,uint256,uint256,(address,uint256,uint256,uint256),bool,uint256,bytes))": {
				"notice": "The combined redemption weight of the NFTs with the specified token IDs."
			},
			"renounceOwnership()": {
				"notice": "Gives up ownership of this contract, making it impossible to call `onlyOwner`/`_checkOwner` functions. Can only be called by the current owner."
			},
			"setMetadata(string,string,address,uint256,bytes32)": {
				"notice": "Update this hook's URI metadata properties."
			},
			"setPermissionId(uint8)": {
				"notice": "Sets the permission ID which, when granted from the owner, allows other addresses to perform operations on their behalf."
			},
			"supportsInterface(bytes4)": {
				"notice": "Indicates if this contract adheres to the specified interface."
			},
			"tokenURI(uint256)": {
				"notice": "The metadata URI of the NFT with the specified token ID."
			},
			"totalRedemptionWeight((address,address,uint256,uint256,uint256,uint256,(address,uint256,uint256,uint256),bool,uint256,bytes))": {
				"notice": "The combined redemption weight of all outstanding NFTs."
			},
			"transferOwnership(address)": {
				"notice": "Transfers ownership of this contract to a new account (the `newOwner`). Can only be called by the current owner."
			},
			"transferOwnershipToProject(uint256)": {
				"notice": "Transfer ownership of this contract to a new Juicebox project."
			}
		},
		"version": 1
	},
	"gitCommit": "7cd9386d18054eea5868b73e2020f354d1964621",
	"sourceName": "src/JB721TiersHook.sol",
	"chainId": "11155111",
	"linkReferences": {},
	"deployedLinkReferences": {},
	"history": [
		{
			"_format": "sphinx-sol-ct-artifact-1",
			"merkleRoot": "0x8b301a65089f933bbe7065207de564f31cf7fa4026a0dad20293e6755f8e2beb",
			"contractName": "JB721TiersHook",
			"address": "0x323Dd5A5ed60468401528f220CB8ADbB9F855920",
			"abi": [
				{
					"type": "constructor",
					"inputs": [
						{
							"name": "directory",
							"type": "address",
							"internalType": "contract IJBDirectory"
						},
						{
							"name": "permissions",
							"type": "address",
							"internalType": "contract IJBPermissions"
						}
					],
					"stateMutability": "nonpayable"
				},
				{
					"type": "function",
					"name": "CODE_ORIGIN",
					"inputs": [],
					"outputs": [
						{
							"name": "",
							"type": "address",
							"internalType": "address"
						}
					],
					"stateMutability": "view"
				},
				{
					"type": "function",
					"name": "DIRECTORY",
					"inputs": [],
					"outputs": [
						{
							"name": "",
							"type": "address",
							"internalType": "contract IJBDirectory"
						}
					],
					"stateMutability": "view"
				},
				{
					"type": "function",
					"name": "PERMISSIONS",
					"inputs": [],
					"outputs": [
						{
							"name": "",
							"type": "address",
							"internalType": "contract IJBPermissions"
						}
					],
					"stateMutability": "view"
				},
				{
					"type": "function",
					"name": "PROJECTS",
					"inputs": [],
					"outputs": [
						{
							"name": "",
							"type": "address",
							"internalType": "contract IJBProjects"
						}
					],
					"stateMutability": "view"
				},
				{
					"type": "function",
					"name": "RULESETS",
					"inputs": [],
					"outputs": [
						{
							"name": "",
							"type": "address",
							"internalType": "contract IJBRulesets"
						}
					],
					"stateMutability": "view"
				},
				{
					"type": "function",
					"name": "STORE",
					"inputs": [],
					"outputs": [
						{
							"name": "",
							"type": "address",
							"internalType": "contract IJB721TiersHookStore"
						}
					],
					"stateMutability": "view"
				},
				{
					"type": "function",
					"name": "adjustTiers",
					"inputs": [
						{
							"name": "tiersToAdd",
							"type": "tuple[]",
							"internalType": "struct JB721TierConfig[]",
							"components": [
								{
									"name": "price",
									"type": "uint104",
									"internalType": "uint104"
								},
								{
									"name": "initialSupply",
									"type": "uint32",
									"internalType": "uint32"
								},
								{
									"name": "votingUnits",
									"type": "uint32",
									"internalType": "uint32"
								},
								{
									"name": "reserveFrequency",
									"type": "uint16",
									"internalType": "uint16"
								},
								{
									"name": "reserveBeneficiary",
									"type": "address",
									"internalType": "address"
								},
								{
									"name": "encodedIPFSUri",
									"type": "bytes32",
									"internalType": "bytes32"
								},
								{
									"name": "category",
									"type": "uint24",
									"internalType": "uint24"
								},
								{
									"name": "allowOwnerMint",
									"type": "bool",
									"internalType": "bool"
								},
								{
									"name": "useReserveBeneficiaryAsDefault",
									"type": "bool",
									"internalType": "bool"
								},
								{
									"name": "transfersPausable",
									"type": "bool",
									"internalType": "bool"
								},
								{
									"name": "useVotingUnits",
									"type": "bool",
									"internalType": "bool"
								},
								{
									"name": "cannotBeRemoved",
									"type": "bool",
									"internalType": "bool"
								}
							]
						},
						{
							"name": "tierIdsToRemove",
							"type": "uint256[]",
							"internalType": "uint256[]"
						}
					],
					"outputs": [],
					"stateMutability": "nonpayable"
				},
				{
					"type": "function",
					"name": "afterPayRecordedWith",
					"inputs": [
						{
							"name": "context",
							"type": "tuple",
							"internalType": "struct JBAfterPayRecordedContext",
							"components": [
								{
									"name": "payer",
									"type": "address",
									"internalType": "address"
								},
								{
									"name": "projectId",
									"type": "uint256",
									"internalType": "uint256"
								},
								{
									"name": "rulesetId",
									"type": "uint256",
									"internalType": "uint256"
								},
								{
									"name": "amount",
									"type": "tuple",
									"internalType": "struct JBTokenAmount",
									"components": [
										{
											"name": "token",
											"type": "address",
											"internalType": "address"
										},
										{
											"name": "value",
											"type": "uint256",
											"internalType": "uint256"
										},
										{
											"name": "decimals",
											"type": "uint256",
											"internalType": "uint256"
										},
										{
											"name": "currency",
											"type": "uint256",
											"internalType": "uint256"
										}
									]
								},
								{
									"name": "forwardedAmount",
									"type": "tuple",
									"internalType": "struct JBTokenAmount",
									"components": [
										{
											"name": "token",
											"type": "address",
											"internalType": "address"
										},
										{
											"name": "value",
											"type": "uint256",
											"internalType": "uint256"
										},
										{
											"name": "decimals",
											"type": "uint256",
											"internalType": "uint256"
										},
										{
											"name": "currency",
											"type": "uint256",
											"internalType": "uint256"
										}
									]
								},
								{
									"name": "weight",
									"type": "uint256",
									"internalType": "uint256"
								},
								{
									"name": "projectTokenCount",
									"type": "uint256",
									"internalType": "uint256"
								},
								{
									"name": "beneficiary",
									"type": "address",
									"internalType": "address"
								},
								{
									"name": "hookMetadata",
									"type": "bytes",
									"internalType": "bytes"
								},
								{
									"name": "payerMetadata",
									"type": "bytes",
									"internalType": "bytes"
								}
							]
						}
					],
					"outputs": [],
					"stateMutability": "payable"
				},
				{
					"type": "function",
					"name": "afterRedeemRecordedWith",
					"inputs": [
						{
							"name": "context",
							"type": "tuple",
							"internalType": "struct JBAfterRedeemRecordedContext",
							"components": [
								{
									"name": "holder",
									"type": "address",
									"internalType": "address"
								},
								{
									"name": "projectId",
									"type": "uint256",
									"internalType": "uint256"
								},
								{
									"name": "rulesetId",
									"type": "uint256",
									"internalType": "uint256"
								},
								{
									"name": "redeemCount",
									"type": "uint256",
									"internalType": "uint256"
								},
								{
									"name": "reclaimedAmount",
									"type": "tuple",
									"internalType": "struct JBTokenAmount",
									"components": [
										{
											"name": "token",
											"type": "address",
											"internalType": "address"
										},
										{
											"name": "value",
											"type": "uint256",
											"internalType": "uint256"
										},
										{
											"name": "decimals",
											"type": "uint256",
											"internalType": "uint256"
										},
										{
											"name": "currency",
											"type": "uint256",
											"internalType": "uint256"
										}
									]
								},
								{
									"name": "forwardedAmount",
									"type": "tuple",
									"internalType": "struct JBTokenAmount",
									"components": [
										{
											"name": "token",
											"type": "address",
											"internalType": "address"
										},
										{
											"name": "value",
											"type": "uint256",
											"internalType": "uint256"
										},
										{
											"name": "decimals",
											"type": "uint256",
											"internalType": "uint256"
										},
										{
											"name": "currency",
											"type": "uint256",
											"internalType": "uint256"
										}
									]
								},
								{
									"name": "redemptionRate",
									"type": "uint256",
									"internalType": "uint256"
								},
								{
									"name": "beneficiary",
									"type": "address",
									"internalType": "address payable"
								},
								{
									"name": "hookMetadata",
									"type": "bytes",
									"internalType": "bytes"
								},
								{
									"name": "redeemerMetadata",
									"type": "bytes",
									"internalType": "bytes"
								}
							]
						}
					],
					"outputs": [],
					"stateMutability": "payable"
				},
				{
					"type": "function",
					"name": "approve",
					"inputs": [
						{
							"name": "to",
							"type": "address",
							"internalType": "address"
						},
						{
							"name": "tokenId",
							"type": "uint256",
							"internalType": "uint256"
						}
					],
					"outputs": [],
					"stateMutability": "nonpayable"
				},
				{
					"type": "function",
					"name": "balanceOf",
					"inputs": [
						{
							"name": "owner",
							"type": "address",
							"internalType": "address"
						}
					],
					"outputs": [
						{
							"name": "balance",
							"type": "uint256",
							"internalType": "uint256"
						}
					],
					"stateMutability": "view"
				},
				{
					"type": "function",
					"name": "baseURI",
					"inputs": [],
					"outputs": [
						{
							"name": "",
							"type": "string",
							"internalType": "string"
						}
					],
					"stateMutability": "view"
				},
				{
					"type": "function",
					"name": "beforePayRecordedWith",
					"inputs": [
						{
							"name": "context",
							"type": "tuple",
							"internalType": "struct JBBeforePayRecordedContext",
							"components": [
								{
									"name": "terminal",
									"type": "address",
									"internalType": "address"
								},
								{
									"name": "payer",
									"type": "address",
									"internalType": "address"
								},
								{
									"name": "amount",
									"type": "tuple",
									"internalType": "struct JBTokenAmount",
									"components": [
										{
											"name": "token",
											"type": "address",
											"internalType": "address"
										},
										{
											"name": "value",
											"type": "uint256",
											"internalType": "uint256"
										},
										{
											"name": "decimals",
											"type": "uint256",
											"internalType": "uint256"
										},
										{
											"name": "currency",
											"type": "uint256",
											"internalType": "uint256"
										}
									]
								},
								{
									"name": "projectId",
									"type": "uint256",
									"internalType": "uint256"
								},
								{
									"name": "rulesetId",
									"type": "uint256",
									"internalType": "uint256"
								},
								{
									"name": "beneficiary",
									"type": "address",
									"internalType": "address"
								},
								{
									"name": "weight",
									"type": "uint256",
									"internalType": "uint256"
								},
								{
									"name": "reservedRate",
									"type": "uint256",
									"internalType": "uint256"
								},
								{
									"name": "metadata",
									"type": "bytes",
									"internalType": "bytes"
								}
							]
						}
					],
					"outputs": [
						{
							"name": "weight",
							"type": "uint256",
							"internalType": "uint256"
						},
						{
							"name": "hookSpecifications",
							"type": "tuple[]",
							"internalType": "struct JBPayHookSpecification[]",
							"components": [
								{
									"name": "hook",
									"type": "address",
									"internalType": "contract IJBPayHook"
								},
								{
									"name": "amount",
									"type": "uint256",
									"internalType": "uint256"
								},
								{
									"name": "metadata",
									"type": "bytes",
									"internalType": "bytes"
								}
							]
						}
					],
					"stateMutability": "view"
				},
				{
					"type": "function",
					"name": "beforeRedeemRecordedWith",
					"inputs": [
						{
							"name": "context",
							"type": "tuple",
							"internalType": "struct JBBeforeRedeemRecordedContext",
							"components": [
								{
									"name": "terminal",
									"type": "address",
									"internalType": "address"
								},
								{
									"name": "holder",
									"type": "address",
									"internalType": "address"
								},
								{
									"name": "projectId",
									"type": "uint256",
									"internalType": "uint256"
								},
								{
									"name": "rulesetId",
									"type": "uint256",
									"internalType": "uint256"
								},
								{
									"name": "redeemCount",
									"type": "uint256",
									"internalType": "uint256"
								},
								{
									"name": "totalSupply",
									"type": "uint256",
									"internalType": "uint256"
								},
								{
									"name": "surplus",
									"type": "tuple",
									"internalType": "struct JBTokenAmount",
									"components": [
										{
											"name": "token",
											"type": "address",
											"internalType": "address"
										},
										{
											"name": "value",
											"type": "uint256",
											"internalType": "uint256"
										},
										{
											"name": "decimals",
											"type": "uint256",
											"internalType": "uint256"
										},
										{
											"name": "currency",
											"type": "uint256",
											"internalType": "uint256"
										}
									]
								},
								{
									"name": "useTotalSurplus",
									"type": "bool",
									"internalType": "bool"
								},
								{
									"name": "redemptionRate",
									"type": "uint256",
									"internalType": "uint256"
								},
								{
									"name": "metadata",
									"type": "bytes",
									"internalType": "bytes"
								}
							]
						}
					],
					"outputs": [
						{
							"name": "redemptionRate",
							"type": "uint256",
							"internalType": "uint256"
						},
						{
							"name": "redeemCount",
							"type": "uint256",
							"internalType": "uint256"
						},
						{
							"name": "totalSupply",
							"type": "uint256",
							"internalType": "uint256"
						},
						{
							"name": "hookSpecifications",
							"type": "tuple[]",
							"internalType": "struct JBRedeemHookSpecification[]",
							"components": [
								{
									"name": "hook",
									"type": "address",
									"internalType": "contract IJBRedeemHook"
								},
								{
									"name": "amount",
									"type": "uint256",
									"internalType": "uint256"
								},
								{
									"name": "metadata",
									"type": "bytes",
									"internalType": "bytes"
								}
							]
						}
					],
					"stateMutability": "view"
				},
				{
					"type": "function",
					"name": "contractURI",
					"inputs": [],
					"outputs": [
						{
							"name": "",
							"type": "string",
							"internalType": "string"
						}
					],
					"stateMutability": "view"
				},
				{
					"type": "function",
					"name": "firstOwnerOf",
					"inputs": [
						{
							"name": "tokenId",
							"type": "uint256",
							"internalType": "uint256"
						}
					],
					"outputs": [
						{
							"name": "",
							"type": "address",
							"internalType": "address"
						}
					],
					"stateMutability": "view"
				},
				{
					"type": "function",
					"name": "getApproved",
					"inputs": [
						{
							"name": "tokenId",
							"type": "uint256",
							"internalType": "uint256"
						}
					],
					"outputs": [
						{
							"name": "",
							"type": "address",
							"internalType": "address"
						}
					],
					"stateMutability": "view"
				},
				{
					"type": "function",
					"name": "hasMintPermissionFor",
					"inputs": [
						{
							"name": "",
							"type": "uint256",
							"internalType": "uint256"
						},
						{
							"name": "",
							"type": "address",
							"internalType": "address"
						}
					],
					"outputs": [
						{
							"name": "",
							"type": "bool",
							"internalType": "bool"
						}
					],
					"stateMutability": "pure"
				},
				{
					"type": "function",
					"name": "initialize",
					"inputs": [
						{
							"name": "projectId",
							"type": "uint256",
							"internalType": "uint256"
						},
						{
							"name": "name",
							"type": "string",
							"internalType": "string"
						},
						{
							"name": "symbol",
							"type": "string",
							"internalType": "string"
						},
						{
							"name": "rulesets",
							"type": "address",
							"internalType": "contract IJBRulesets"
						},
						{
							"name": "baseUri",
							"type": "string",
							"internalType": "string"
						},
						{
							"name": "tokenUriResolver",
							"type": "address",
							"internalType": "contract IJB721TokenUriResolver"
						},
						{
							"name": "contractUri",
							"type": "string",
							"internalType": "string"
						},
						{
							"name": "tiersConfig",
							"type": "tuple",
							"internalType": "struct JB721InitTiersConfig",
							"components": [
								{
									"name": "tiers",
									"type": "tuple[]",
									"internalType": "struct JB721TierConfig[]",
									"components": [
										{
											"name": "price",
											"type": "uint104",
											"internalType": "uint104"
										},
										{
											"name": "initialSupply",
											"type": "uint32",
											"internalType": "uint32"
										},
										{
											"name": "votingUnits",
											"type": "uint32",
											"internalType": "uint32"
										},
										{
											"name": "reserveFrequency",
											"type": "uint16",
											"internalType": "uint16"
										},
										{
											"name": "reserveBeneficiary",
											"type": "address",
											"internalType": "address"
										},
										{
											"name": "encodedIPFSUri",
											"type": "bytes32",
											"internalType": "bytes32"
										},
										{
											"name": "category",
											"type": "uint24",
											"internalType": "uint24"
										},
										{
											"name": "allowOwnerMint",
											"type": "bool",
											"internalType": "bool"
										},
										{
											"name": "useReserveBeneficiaryAsDefault",
											"type": "bool",
											"internalType": "bool"
										},
										{
											"name": "transfersPausable",
											"type": "bool",
											"internalType": "bool"
										},
										{
											"name": "useVotingUnits",
											"type": "bool",
											"internalType": "bool"
										},
										{
											"name": "cannotBeRemoved",
											"type": "bool",
											"internalType": "bool"
										}
									]
								},
								{
									"name": "currency",
									"type": "uint32",
									"internalType": "uint32"
								},
								{
									"name": "decimals",
									"type": "uint8",
									"internalType": "uint8"
								},
								{
									"name": "prices",
									"type": "address",
									"internalType": "contract IJBPrices"
								}
							]
						},
						{
							"name": "store",
							"type": "address",
							"internalType": "contract IJB721TiersHookStore"
						},
						{
							"name": "flags",
							"type": "tuple",
							"internalType": "struct JB721TiersHookFlags",
							"components": [
								{
									"name": "noNewTiersWithReserves",
									"type": "bool",
									"internalType": "bool"
								},
								{
									"name": "noNewTiersWithVotes",
									"type": "bool",
									"internalType": "bool"
								},
								{
									"name": "noNewTiersWithOwnerMinting",
									"type": "bool",
									"internalType": "bool"
								},
								{
									"name": "preventOverspending",
									"type": "bool",
									"internalType": "bool"
								}
							]
						}
					],
					"outputs": [],
					"stateMutability": "nonpayable"
				},
				{
					"type": "function",
					"name": "isApprovedForAll",
					"inputs": [
						{
							"name": "owner",
							"type": "address",
							"internalType": "address"
						},
						{
							"name": "operator",
							"type": "address",
							"internalType": "address"
						}
					],
					"outputs": [
						{
							"name": "",
							"type": "bool",
							"internalType": "bool"
						}
					],
					"stateMutability": "view"
				},
				{
					"type": "function",
					"name": "jbOwner",
					"inputs": [],
					"outputs": [
						{
							"name": "owner",
							"type": "address",
							"internalType": "address"
						},
						{
							"name": "projectId",
							"type": "uint88",
							"internalType": "uint88"
						},
						{
							"name": "permissionId",
							"type": "uint8",
							"internalType": "uint8"
						}
					],
					"stateMutability": "view"
				},
				{
					"type": "function",
					"name": "mintFor",
					"inputs": [
						{
							"name": "tierIds",
							"type": "uint16[]",
							"internalType": "uint16[]"
						},
						{
							"name": "beneficiary",
							"type": "address",
							"internalType": "address"
						}
					],
					"outputs": [
						{
							"name": "tokenIds",
							"type": "uint256[]",
							"internalType": "uint256[]"
						}
					],
					"stateMutability": "nonpayable"
				},
				{
					"type": "function",
					"name": "mintPendingReservesFor",
					"inputs": [
						{
							"name": "reserveMintConfigs",
							"type": "tuple[]",
							"internalType": "struct JB721TiersMintReservesConfig[]",
							"components": [
								{
									"name": "tierId",
									"type": "uint256",
									"internalType": "uint256"
								},
								{
									"name": "count",
									"type": "uint256",
									"internalType": "uint256"
								}
							]
						}
					],
					"outputs": [],
					"stateMutability": "nonpayable"
				},
				{
					"type": "function",
					"name": "mintPendingReservesFor",
					"inputs": [
						{
							"name": "tierId",
							"type": "uint256",
							"internalType": "uint256"
						},
						{
							"name": "count",
							"type": "uint256",
							"internalType": "uint256"
						}
					],
					"outputs": [],
					"stateMutability": "nonpayable"
				},
				{
					"type": "function",
					"name": "name",
					"inputs": [],
					"outputs": [
						{
							"name": "",
							"type": "string",
							"internalType": "string"
						}
					],
					"stateMutability": "view"
				},
				{
					"type": "function",
					"name": "owner",
					"inputs": [],
					"outputs": [
						{
							"name": "",
							"type": "address",
							"internalType": "address"
						}
					],
					"stateMutability": "view"
				},
				{
					"type": "function",
					"name": "ownerOf",
					"inputs": [
						{
							"name": "tokenId",
							"type": "uint256",
							"internalType": "uint256"
						}
					],
					"outputs": [
						{
							"name": "",
							"type": "address",
							"internalType": "address"
						}
					],
					"stateMutability": "view"
				},
				{
					"type": "function",
					"name": "payCreditsOf",
					"inputs": [
						{
							"name": "addr",
							"type": "address",
							"internalType": "address"
						}
					],
					"outputs": [
						{
							"name": "",
							"type": "uint256",
							"internalType": "uint256"
						}
					],
					"stateMutability": "view"
				},
				{
					"type": "function",
					"name": "pricingContext",
					"inputs": [],
					"outputs": [
						{
							"name": "currency",
							"type": "uint256",
							"internalType": "uint256"
						},
						{
							"name": "decimals",
							"type": "uint256",
							"internalType": "uint256"
						},
						{
							"name": "prices",
							"type": "address",
							"internalType": "contract IJBPrices"
						}
					],
					"stateMutability": "view"
				},
				{
					"type": "function",
					"name": "projectId",
					"inputs": [],
					"outputs": [
						{
							"name": "",
							"type": "uint256",
							"internalType": "uint256"
						}
					],
					"stateMutability": "view"
				},
				{
					"type": "function",
					"name": "redemptionWeightOf",
					"inputs": [
						{
							"name": "tokenIds",
							"type": "uint256[]",
							"internalType": "uint256[]"
						},
						{
							"name": "",
							"type": "tuple",
							"internalType": "struct JBBeforeRedeemRecordedContext",
							"components": [
								{
									"name": "terminal",
									"type": "address",
									"internalType": "address"
								},
								{
									"name": "holder",
									"type": "address",
									"internalType": "address"
								},
								{
									"name": "projectId",
									"type": "uint256",
									"internalType": "uint256"
								},
								{
									"name": "rulesetId",
									"type": "uint256",
									"internalType": "uint256"
								},
								{
									"name": "redeemCount",
									"type": "uint256",
									"internalType": "uint256"
								},
								{
									"name": "totalSupply",
									"type": "uint256",
									"internalType": "uint256"
								},
								{
									"name": "surplus",
									"type": "tuple",
									"internalType": "struct JBTokenAmount",
									"components": [
										{
											"name": "token",
											"type": "address",
											"internalType": "address"
										},
										{
											"name": "value",
											"type": "uint256",
											"internalType": "uint256"
										},
										{
											"name": "decimals",
											"type": "uint256",
											"internalType": "uint256"
										},
										{
											"name": "currency",
											"type": "uint256",
											"internalType": "uint256"
										}
									]
								},
								{
									"name": "useTotalSurplus",
									"type": "bool",
									"internalType": "bool"
								},
								{
									"name": "redemptionRate",
									"type": "uint256",
									"internalType": "uint256"
								},
								{
									"name": "metadata",
									"type": "bytes",
									"internalType": "bytes"
								}
							]
						}
					],
					"outputs": [
						{
							"name": "",
							"type": "uint256",
							"internalType": "uint256"
						}
					],
					"stateMutability": "view"
				},
				{
					"type": "function",
					"name": "renounceOwnership",
					"inputs": [],
					"outputs": [],
					"stateMutability": "nonpayable"
				},
				{
					"type": "function",
					"name": "safeTransferFrom",
					"inputs": [
						{
							"name": "from",
							"type": "address",
							"internalType": "address"
						},
						{
							"name": "to",
							"type": "address",
							"internalType": "address"
						},
						{
							"name": "tokenId",
							"type": "uint256",
							"internalType": "uint256"
						}
					],
					"outputs": [],
					"stateMutability": "nonpayable"
				},
				{
					"type": "function",
					"name": "safeTransferFrom",
					"inputs": [
						{
							"name": "from",
							"type": "address",
							"internalType": "address"
						},
						{
							"name": "to",
							"type": "address",
							"internalType": "address"
						},
						{
							"name": "tokenId",
							"type": "uint256",
							"internalType": "uint256"
						},
						{
							"name": "data",
							"type": "bytes",
							"internalType": "bytes"
						}
					],
					"outputs": [],
					"stateMutability": "nonpayable"
				},
				{
					"type": "function",
					"name": "setApprovalForAll",
					"inputs": [
						{
							"name": "operator",
							"type": "address",
							"internalType": "address"
						},
						{
							"name": "approved",
							"type": "bool",
							"internalType": "bool"
						}
					],
					"outputs": [],
					"stateMutability": "nonpayable"
				},
				{
					"type": "function",
					"name": "setMetadata",
					"inputs": [
						{
							"name": "baseUri",
							"type": "string",
							"internalType": "string"
						},
						{
							"name": "contractUri",
							"type": "string",
							"internalType": "string"
						},
						{
							"name": "tokenUriResolver",
							"type": "address",
							"internalType": "contract IJB721TokenUriResolver"
						},
						{
							"name": "encodedIPFSTUriTierId",
							"type": "uint256",
							"internalType": "uint256"
						},
						{
							"name": "encodedIPFSUri",
							"type": "bytes32",
							"internalType": "bytes32"
						}
					],
					"outputs": [],
					"stateMutability": "nonpayable"
				},
				{
					"type": "function",
					"name": "setPermissionId",
					"inputs": [
						{
							"name": "permissionId",
							"type": "uint8",
							"internalType": "uint8"
						}
					],
					"outputs": [],
					"stateMutability": "nonpayable"
				},
				{
					"type": "function",
					"name": "supportsInterface",
					"inputs": [
						{
							"name": "interfaceId",
							"type": "bytes4",
							"internalType": "bytes4"
						}
					],
					"outputs": [
						{
							"name": "",
							"type": "bool",
							"internalType": "bool"
						}
					],
					"stateMutability": "view"
				},
				{
					"type": "function",
					"name": "symbol",
					"inputs": [],
					"outputs": [
						{
							"name": "",
							"type": "string",
							"internalType": "string"
						}
					],
					"stateMutability": "view"
				},
				{
					"type": "function",
					"name": "tokenURI",
					"inputs": [
						{
							"name": "tokenId",
							"type": "uint256",
							"internalType": "uint256"
						}
					],
					"outputs": [
						{
							"name": "",
							"type": "string",
							"internalType": "string"
						}
					],
					"stateMutability": "view"
				},
				{
					"type": "function",
					"name": "totalRedemptionWeight",
					"inputs": [
						{
							"name": "",
							"type": "tuple",
							"internalType": "struct JBBeforeRedeemRecordedContext",
							"components": [
								{
									"name": "terminal",
									"type": "address",
									"internalType": "address"
								},
								{
									"name": "holder",
									"type": "address",
									"internalType": "address"
								},
								{
									"name": "projectId",
									"type": "uint256",
									"internalType": "uint256"
								},
								{
									"name": "rulesetId",
									"type": "uint256",
									"internalType": "uint256"
								},
								{
									"name": "redeemCount",
									"type": "uint256",
									"internalType": "uint256"
								},
								{
									"name": "totalSupply",
									"type": "uint256",
									"internalType": "uint256"
								},
								{
									"name": "surplus",
									"type": "tuple",
									"internalType": "struct JBTokenAmount",
									"components": [
										{
											"name": "token",
											"type": "address",
											"internalType": "address"
										},
										{
											"name": "value",
											"type": "uint256",
											"internalType": "uint256"
										},
										{
											"name": "decimals",
											"type": "uint256",
											"internalType": "uint256"
										},
										{
											"name": "currency",
											"type": "uint256",
											"internalType": "uint256"
										}
									]
								},
								{
									"name": "useTotalSurplus",
									"type": "bool",
									"internalType": "bool"
								},
								{
									"name": "redemptionRate",
									"type": "uint256",
									"internalType": "uint256"
								},
								{
									"name": "metadata",
									"type": "bytes",
									"internalType": "bytes"
								}
							]
						}
					],
					"outputs": [
						{
							"name": "",
							"type": "uint256",
							"internalType": "uint256"
						}
					],
					"stateMutability": "view"
				},
				{
					"type": "function",
					"name": "transferFrom",
					"inputs": [
						{
							"name": "from",
							"type": "address",
							"internalType": "address"
						},
						{
							"name": "to",
							"type": "address",
							"internalType": "address"
						},
						{
							"name": "tokenId",
							"type": "uint256",
							"internalType": "uint256"
						}
					],
					"outputs": [],
					"stateMutability": "nonpayable"
				},
				{
					"type": "function",
					"name": "transferOwnership",
					"inputs": [
						{
							"name": "newOwner",
							"type": "address",
							"internalType": "address"
						}
					],
					"outputs": [],
					"stateMutability": "nonpayable"
				},
				{
					"type": "function",
					"name": "transferOwnershipToProject",
					"inputs": [
						{
							"name": "projectId",
							"type": "uint256",
							"internalType": "uint256"
						}
					],
					"outputs": [],
					"stateMutability": "nonpayable"
				},
				{
					"type": "event",
					"name": "AddPayCredits",
					"inputs": [
						{
							"name": "amount",
							"type": "uint256",
							"indexed": true,
							"internalType": "uint256"
						},
						{
							"name": "newTotalCredits",
							"type": "uint256",
							"indexed": true,
							"internalType": "uint256"
						},
						{
							"name": "account",
							"type": "address",
							"indexed": true,
							"internalType": "address"
						},
						{
							"name": "caller",
							"type": "address",
							"indexed": false,
							"internalType": "address"
						}
					],
					"anonymous": false
				},
				{
					"type": "event",
					"name": "AddTier",
					"inputs": [
						{
							"name": "tierId",
							"type": "uint256",
							"indexed": true,
							"internalType": "uint256"
						},
						{
							"name": "tier",
							"type": "tuple",
							"indexed": false,
							"internalType": "struct JB721TierConfig",
							"components": [
								{
									"name": "price",
									"type": "uint104",
									"internalType": "uint104"
								},
								{
									"name": "initialSupply",
									"type": "uint32",
									"internalType": "uint32"
								},
								{
									"name": "votingUnits",
									"type": "uint32",
									"internalType": "uint32"
								},
								{
									"name": "reserveFrequency",
									"type": "uint16",
									"internalType": "uint16"
								},
								{
									"name": "reserveBeneficiary",
									"type": "address",
									"internalType": "address"
								},
								{
									"name": "encodedIPFSUri",
									"type": "bytes32",
									"internalType": "bytes32"
								},
								{
									"name": "category",
									"type": "uint24",
									"internalType": "uint24"
								},
								{
									"name": "allowOwnerMint",
									"type": "bool",
									"internalType": "bool"
								},
								{
									"name": "useReserveBeneficiaryAsDefault",
									"type": "bool",
									"internalType": "bool"
								},
								{
									"name": "transfersPausable",
									"type": "bool",
									"internalType": "bool"
								},
								{
									"name": "useVotingUnits",
									"type": "bool",
									"internalType": "bool"
								},
								{
									"name": "cannotBeRemoved",
									"type": "bool",
									"internalType": "bool"
								}
							]
						},
						{
							"name": "caller",
							"type": "address",
							"indexed": false,
							"internalType": "address"
						}
					],
					"anonymous": false
				},
				{
					"type": "event",
					"name": "Approval",
					"inputs": [
						{
							"name": "owner",
							"type": "address",
							"indexed": true,
							"internalType": "address"
						},
						{
							"name": "approved",
							"type": "address",
							"indexed": true,
							"internalType": "address"
						},
						{
							"name": "tokenId",
							"type": "uint256",
							"indexed": true,
							"internalType": "uint256"
						}
					],
					"anonymous": false
				},
				{
					"type": "event",
					"name": "ApprovalForAll",
					"inputs": [
						{
							"name": "owner",
							"type": "address",
							"indexed": true,
							"internalType": "address"
						},
						{
							"name": "operator",
							"type": "address",
							"indexed": true,
							"internalType": "address"
						},
						{
							"name": "approved",
							"type": "bool",
							"indexed": false,
							"internalType": "bool"
						}
					],
					"anonymous": false
				},
				{
					"type": "event",
					"name": "Mint",
					"inputs": [
						{
							"name": "tokenId",
							"type": "uint256",
							"indexed": true,
							"internalType": "uint256"
						},
						{
							"name": "tierId",
							"type": "uint256",
							"indexed": true,
							"internalType": "uint256"
						},
						{
							"name": "beneficiary",
							"type": "address",
							"indexed": true,
							"internalType": "address"
						},
						{
							"name": "totalAmountPaid",
							"type": "uint256",
							"indexed": false,
							"internalType": "uint256"
						},
						{
							"name": "caller",
							"type": "address",
							"indexed": false,
							"internalType": "address"
						}
					],
					"anonymous": false
				},
				{
					"type": "event",
					"name": "MintReservedNft",
					"inputs": [
						{
							"name": "tokenId",
							"type": "uint256",
							"indexed": true,
							"internalType": "uint256"
						},
						{
							"name": "tierId",
							"type": "uint256",
							"indexed": true,
							"internalType": "uint256"
						},
						{
							"name": "beneficiary",
							"type": "address",
							"indexed": true,
							"internalType": "address"
						},
						{
							"name": "caller",
							"type": "address",
							"indexed": false,
							"internalType": "address"
						}
					],
					"anonymous": false
				},
				{
					"type": "event",
					"name": "OwnershipTransferred",
					"inputs": [
						{
							"name": "previousOwner",
							"type": "address",
							"indexed": true,
							"internalType": "address"
						},
						{
							"name": "newOwner",
							"type": "address",
							"indexed": true,
							"internalType": "address"
						}
					],
					"anonymous": false
				},
				{
					"type": "event",
					"name": "PermissionIdChanged",
					"inputs": [
						{
							"name": "newIndex",
							"type": "uint8",
							"indexed": false,
							"internalType": "uint8"
						}
					],
					"anonymous": false
				},
				{
					"type": "event",
					"name": "RemoveTier",
					"inputs": [
						{
							"name": "tierId",
							"type": "uint256",
							"indexed": true,
							"internalType": "uint256"
						},
						{
							"name": "caller",
							"type": "address",
							"indexed": false,
							"internalType": "address"
						}
					],
					"anonymous": false
				},
				{
					"type": "event",
					"name": "SetBaseUri",
					"inputs": [
						{
							"name": "baseUri",
							"type": "string",
							"indexed": true,
							"internalType": "string"
						},
						{
							"name": "caller",
							"type": "address",
							"indexed": false,
							"internalType": "address"
						}
					],
					"anonymous": false
				},
				{
					"type": "event",
					"name": "SetContractUri",
					"inputs": [
						{
							"name": "contractUri",
							"type": "string",
							"indexed": true,
							"internalType": "string"
						},
						{
							"name": "caller",
							"type": "address",
							"indexed": false,
							"internalType": "address"
						}
					],
					"anonymous": false
				},
				{
					"type": "event",
					"name": "SetEncodedIPFSUri",
					"inputs": [
						{
							"name": "tierId",
							"type": "uint256",
							"indexed": true,
							"internalType": "uint256"
						},
						{
							"name": "encodedIPFSUri",
							"type": "bytes32",
							"indexed": false,
							"internalType": "bytes32"
						},
						{
							"name": "caller",
							"type": "address",
							"indexed": false,
							"internalType": "address"
						}
					],
					"anonymous": false
				},
				{
					"type": "event",
					"name": "SetTokenUriResolver",
					"inputs": [
						{
							"name": "newResolver",
							"type": "address",
							"indexed": true,
							"internalType": "contract IJB721TokenUriResolver"
						},
						{
							"name": "caller",
							"type": "address",
							"indexed": false,
							"internalType": "address"
						}
					],
					"anonymous": false
				},
				{
					"type": "event",
					"name": "Transfer",
					"inputs": [
						{
							"name": "from",
							"type": "address",
							"indexed": true,
							"internalType": "address"
						},
						{
							"name": "to",
							"type": "address",
							"indexed": true,
							"internalType": "address"
						},
						{
							"name": "tokenId",
							"type": "uint256",
							"indexed": true,
							"internalType": "uint256"
						}
					],
					"anonymous": false
				},
				{
					"type": "event",
					"name": "UsePayCredits",
					"inputs": [
						{
							"name": "amount",
							"type": "uint256",
							"indexed": true,
							"internalType": "uint256"
						},
						{
							"name": "newTotalCredits",
							"type": "uint256",
							"indexed": true,
							"internalType": "uint256"
						},
						{
							"name": "account",
							"type": "address",
							"indexed": true,
							"internalType": "address"
						},
						{
							"name": "caller",
							"type": "address",
							"indexed": false,
							"internalType": "address"
						}
					],
					"anonymous": false
				},
				{
					"type": "error",
					"name": "ERC721IncorrectOwner",
					"inputs": [
						{
							"name": "sender",
							"type": "address",
							"internalType": "address"
						},
						{
							"name": "tokenId",
							"type": "uint256",
							"internalType": "uint256"
						},
						{
							"name": "owner",
							"type": "address",
							"internalType": "address"
						}
					]
				},
				{
					"type": "error",
					"name": "ERC721InsufficientApproval",
					"inputs": [
						{
							"name": "operator",
							"type": "address",
							"internalType": "address"
						},
						{
							"name": "tokenId",
							"type": "uint256",
							"internalType": "uint256"
						}
					]
				},
				{
					"type": "error",
					"name": "ERC721InvalidApprover",
					"inputs": [
						{
							"name": "approver",
							"type": "address",
							"internalType": "address"
						}
					]
				},
				{
					"type": "error",
					"name": "ERC721InvalidOperator",
					"inputs": [
						{
							"name": "operator",
							"type": "address",
							"internalType": "address"
						}
					]
				},
				{
					"type": "error",
					"name": "ERC721InvalidOwner",
					"inputs": [
						{
							"name": "owner",
							"type": "address",
							"internalType": "address"
						}
					]
				},
				{
					"type": "error",
					"name": "ERC721InvalidReceiver",
					"inputs": [
						{
							"name": "receiver",
							"type": "address",
							"internalType": "address"
						}
					]
				},
				{
					"type": "error",
					"name": "ERC721InvalidSender",
					"inputs": [
						{
							"name": "sender",
							"type": "address",
							"internalType": "address"
						}
					]
				},
				{
					"type": "error",
					"name": "ERC721NonexistentToken",
					"inputs": [
						{
							"name": "tokenId",
							"type": "uint256",
							"internalType": "uint256"
						}
					]
				},
				{
					"type": "error",
					"name": "INVALID_NEW_OWNER",
					"inputs": []
				},
				{
					"type": "error",
					"name": "INVALID_PAY",
					"inputs": []
				},
				{
					"type": "error",
					"name": "INVALID_REDEEM",
					"inputs": []
				},
				{
					"type": "error",
					"name": "MINT_RESERVE_NFTS_PAUSED",
					"inputs": []
				},
				{
					"type": "error",
					"name": "OVERSPENDING",
					"inputs": []
				},
				{
					"type": "error",
					"name": "PRBMath_MulDiv_Overflow",
					"inputs": [
						{
							"name": "x",
							"type": "uint256",
							"internalType": "uint256"
						},
						{
							"name": "y",
							"type": "uint256",
							"internalType": "uint256"
						},
						{
							"name": "denominator",
							"type": "uint256",
							"internalType": "uint256"
						}
					]
				},
				{
					"type": "error",
					"name": "TIER_TRANSFERS_PAUSED",
					"inputs": []
				},
				{
					"type": "error",
					"name": "UNAUTHORIZED",
					"inputs": []
				},
				{
					"type": "error",
					"name": "UNAUTHORIZED_TOKEN",
					"inputs": [
						{
							"name": "tokenId",
							"type": "uint256",
							"internalType": "uint256"
						}
					]
				},
				{
					"type": "error",
					"name": "UNEXPECTED_TOKEN_REDEEMED",
					"inputs": []
				}
			],
			"solcInputHash": "2376904197f805d86033fd44ed669a72",
			"receipt": {
				"blockHash": "0xb5a3e8754c13d0db533158c7c155a7373f22103e4ace42e957cc4d7cd0ca8d17",
				"blockNumber": 5466718,
				"contractAddress": null,
				"cumulativeGasUsed": "21467094",
				"from": "0xC034550B542b83BA1De312b21d1C94a9a52B1595",
				"gasPrice": "1074153161",
				"gasUsed": "12254353",
				"hash": "0x26654ff38e291a25be432f4270b8f0224621e86932f99b735dd4369abc1b58f4",
				"index": 107,
				"logs": [
					{
						"address": "0xB5E96127D417b1B3ef8438496a38A143167209c7",
						"blockHash": "0xb5a3e8754c13d0db533158c7c155a7373f22103e4ace42e957cc4d7cd0ca8d17",
						"blockNumber": 5466718,
						"data": "0x0000000000000000000000000000000000000000000000000000000000000000",
						"index": 209,
						"topics": [
							"0x572f161235911da04685a68c06adf558fc7e4a36909dca394650e0adc19cc93d",
							"0x000000000000000000000000c034550b542b83ba1de312b21d1c94a9a52b1595",
							"0x000000000000000000000000582b73e9f9ec9fa3ff32b83cfd7e2810a63bbcdb",
							"0xd79d629c8d6da6d77460f7690391e1ba948db601744709ae034df7cd816b8f55"
						],
						"transactionHash": "0x26654ff38e291a25be432f4270b8f0224621e86932f99b735dd4369abc1b58f4",
						"transactionIndex": 107
					},
					{
						"address": "0x89BeB14760384C532b587eE00bB42EE307f17e47",
						"blockHash": "0xb5a3e8754c13d0db533158c7c155a7373f22103e4ace42e957cc4d7cd0ca8d17",
						"blockNumber": 5466718,
						"data": "0x",
						"index": 210,
						"topics": [
							"0x6895c13664aa4f67288b25d7a21d7aaa34916e355fb9b6fae0a139a9085becb8",
							"0x000000000000000000000000582b73e9f9ec9fa3ff32b83cfd7e2810a63bbcdb"
						],
						"transactionHash": "0x26654ff38e291a25be432f4270b8f0224621e86932f99b735dd4369abc1b58f4",
						"transactionIndex": 107
					},
					{
						"address": "0x582b73e9F9EC9fa3fF32b83CFD7E2810a63BBCdB",
						"blockHash": "0xb5a3e8754c13d0db533158c7c155a7373f22103e4ace42e957cc4d7cd0ca8d17",
						"blockNumber": 5466718,
						"data": "0x0000000000000000000000000000000000000000000000000000000000000001",
						"index": 211,
						"topics": [
							"0xa65fb05c5808f5f389d72edeaf719ce38f4cc55c1f69ca3cbfb31c21501caa07",
							"0x8b301a65089f933bbe7065207de564f31cf7fa4026a0dad20293e6755f8e2beb"
						],
						"transactionHash": "0x26654ff38e291a25be432f4270b8f0224621e86932f99b735dd4369abc1b58f4",
						"transactionIndex": 107
					},
					{
						"address": "0x323Dd5A5ed60468401528f220CB8ADbB9F855920",
						"blockHash": "0xb5a3e8754c13d0db533158c7c155a7373f22103e4ace42e957cc4d7cd0ca8d17",
						"blockNumber": 5466718,
						"data": "0x",
						"index": 212,
						"topics": [
							"0x8be0079c531659141344cd1fd0a4f28419497f9722a3daafe3b4186f6b6457e0",
							"0x0000000000000000000000000000000000000000000000000000000000000000",
							"0x0000000000000000000000004e59b44847b379578588920ca78fbf26c0b4956c"
						],
						"transactionHash": "0x26654ff38e291a25be432f4270b8f0224621e86932f99b735dd4369abc1b58f4",
						"transactionIndex": 107
					},
					{
						"address": "0x89BeB14760384C532b587eE00bB42EE307f17e47",
						"blockHash": "0xb5a3e8754c13d0db533158c7c155a7373f22103e4ace42e957cc4d7cd0ca8d17",
						"blockNumber": 5466718,
						"data": "0x",
						"index": 213,
						"topics": [
							"0x6895c13664aa4f67288b25d7a21d7aaa34916e355fb9b6fae0a139a9085becb8",
							"0x000000000000000000000000582b73e9f9ec9fa3ff32b83cfd7e2810a63bbcdb"
						],
						"transactionHash": "0x26654ff38e291a25be432f4270b8f0224621e86932f99b735dd4369abc1b58f4",
						"transactionIndex": 107
					},
					{
						"address": "0x582b73e9F9EC9fa3fF32b83CFD7E2810a63BBCdB",
						"blockHash": "0xb5a3e8754c13d0db533158c7c155a7373f22103e4ace42e957cc4d7cd0ca8d17",
						"blockNumber": 5466718,
						"data": "0x0000000000000000000000000000000000000000000000000000000000000002",
						"index": 214,
						"topics": [
							"0xa65fb05c5808f5f389d72edeaf719ce38f4cc55c1f69ca3cbfb31c21501caa07",
							"0x8b301a65089f933bbe7065207de564f31cf7fa4026a0dad20293e6755f8e2beb"
						],
						"transactionHash": "0x26654ff38e291a25be432f4270b8f0224621e86932f99b735dd4369abc1b58f4",
						"transactionIndex": 107
					},
					{
						"address": "0x89BeB14760384C532b587eE00bB42EE307f17e47",
						"blockHash": "0xb5a3e8754c13d0db533158c7c155a7373f22103e4ace42e957cc4d7cd0ca8d17",
						"blockNumber": 5466718,
						"data": "0x",
						"index": 215,
						"topics": [
							"0x6895c13664aa4f67288b25d7a21d7aaa34916e355fb9b6fae0a139a9085becb8",
							"0x000000000000000000000000582b73e9f9ec9fa3ff32b83cfd7e2810a63bbcdb"
						],
						"transactionHash": "0x26654ff38e291a25be432f4270b8f0224621e86932f99b735dd4369abc1b58f4",
						"transactionIndex": 107
					},
					{
						"address": "0x582b73e9F9EC9fa3fF32b83CFD7E2810a63BBCdB",
						"blockHash": "0xb5a3e8754c13d0db533158c7c155a7373f22103e4ace42e957cc4d7cd0ca8d17",
						"blockNumber": 5466718,
						"data": "0x0000000000000000000000000000000000000000000000000000000000000003",
						"index": 216,
						"topics": [
							"0xa65fb05c5808f5f389d72edeaf719ce38f4cc55c1f69ca3cbfb31c21501caa07",
							"0x8b301a65089f933bbe7065207de564f31cf7fa4026a0dad20293e6755f8e2beb"
						],
						"transactionHash": "0x26654ff38e291a25be432f4270b8f0224621e86932f99b735dd4369abc1b58f4",
						"transactionIndex": 107
					},
					{
						"address": "0x89BeB14760384C532b587eE00bB42EE307f17e47",
						"blockHash": "0xb5a3e8754c13d0db533158c7c155a7373f22103e4ace42e957cc4d7cd0ca8d17",
						"blockNumber": 5466718,
						"data": "0x",
						"index": 217,
						"topics": [
							"0x6895c13664aa4f67288b25d7a21d7aaa34916e355fb9b6fae0a139a9085becb8",
							"0x000000000000000000000000582b73e9f9ec9fa3ff32b83cfd7e2810a63bbcdb"
						],
						"transactionHash": "0x26654ff38e291a25be432f4270b8f0224621e86932f99b735dd4369abc1b58f4",
						"transactionIndex": 107
					},
					{
						"address": "0x582b73e9F9EC9fa3fF32b83CFD7E2810a63BBCdB",
						"blockHash": "0xb5a3e8754c13d0db533158c7c155a7373f22103e4ace42e957cc4d7cd0ca8d17",
						"blockNumber": 5466718,
						"data": "0x0000000000000000000000000000000000000000000000000000000000000004",
						"index": 218,
						"topics": [
							"0xa65fb05c5808f5f389d72edeaf719ce38f4cc55c1f69ca3cbfb31c21501caa07",
							"0x8b301a65089f933bbe7065207de564f31cf7fa4026a0dad20293e6755f8e2beb"
						],
						"transactionHash": "0x26654ff38e291a25be432f4270b8f0224621e86932f99b735dd4369abc1b58f4",
						"transactionIndex": 107
					},
					{
						"address": "0x89BeB14760384C532b587eE00bB42EE307f17e47",
						"blockHash": "0xb5a3e8754c13d0db533158c7c155a7373f22103e4ace42e957cc4d7cd0ca8d17",
						"blockNumber": 5466718,
						"data": "0x",
						"index": 219,
						"topics": [
							"0x6895c13664aa4f67288b25d7a21d7aaa34916e355fb9b6fae0a139a9085becb8",
							"0x000000000000000000000000582b73e9f9ec9fa3ff32b83cfd7e2810a63bbcdb"
						],
						"transactionHash": "0x26654ff38e291a25be432f4270b8f0224621e86932f99b735dd4369abc1b58f4",
						"transactionIndex": 107
					},
					{
						"address": "0x582b73e9F9EC9fa3fF32b83CFD7E2810a63BBCdB",
						"blockHash": "0xb5a3e8754c13d0db533158c7c155a7373f22103e4ace42e957cc4d7cd0ca8d17",
						"blockNumber": 5466718,
						"data": "0x0000000000000000000000000000000000000000000000000000000000000005",
						"index": 220,
						"topics": [
							"0xa65fb05c5808f5f389d72edeaf719ce38f4cc55c1f69ca3cbfb31c21501caa07",
							"0x8b301a65089f933bbe7065207de564f31cf7fa4026a0dad20293e6755f8e2beb"
						],
						"transactionHash": "0x26654ff38e291a25be432f4270b8f0224621e86932f99b735dd4369abc1b58f4",
						"transactionIndex": 107
					},
					{
						"address": "0x582b73e9F9EC9fa3fF32b83CFD7E2810a63BBCdB",
						"blockHash": "0xb5a3e8754c13d0db533158c7c155a7373f22103e4ace42e957cc4d7cd0ca8d17",
						"blockNumber": 5466718,
						"data": "0x",
						"index": 221,
						"topics": [
							"0x4383d976757d67ca920616be0b6430a681ea9d3dcce8d6d61d4603ca4a9bff63",
							"0x8b301a65089f933bbe7065207de564f31cf7fa4026a0dad20293e6755f8e2beb"
						],
						"transactionHash": "0x26654ff38e291a25be432f4270b8f0224621e86932f99b735dd4369abc1b58f4",
						"transactionIndex": 107
					}
				],
				"logsBloom": "0x00000000080010000044000000080000000000000008000000800000404000000000000000000000100000000040000100040000000000000000001020000000000000000000200000000000000000000001000000000000000000000000000000000000020000004000000000080800000000000000000008000000000000400000000000000000000100000000000000000000001400400000000000000000004000800011000000000000000000020200000008020000000000000004000010000000000000000000000008000000000000000000000000000000000020000000000000000008000000009000000280000000000000000000000008000000",
				"status": 1,
				"to": "0xB5E96127D417b1B3ef8438496a38A143167209c7"
			},
			"metadata": "{\"compiler\":{\"version\":\"0.8.23+commit.f704f362\"},\"language\":\"Solidity\",\"output\":{\"abi\":[{\"inputs\":[{\"internalType\":\"contract IJBDirectory\",\"name\":\"directory\",\"type\":\"address\"},{\"internalType\":\"contract IJBPermissions\",\"name\":\"permissions\",\"type\":\"address\"}],\"stateMutability\":\"nonpayable\",\"type\":\"constructor\"},{\"inputs\":[{\"internalType\":\"address\",\"name\":\"sender\",\"type\":\"address\"},{\"internalType\":\"uint256\",\"name\":\"tokenId\",\"type\":\"uint256\"},{\"internalType\":\"address\",\"name\":\"owner\",\"type\":\"address\"}],\"type\":\"error\",\"name\":\"ERC721IncorrectOwner\"},{\"inputs\":[{\"internalType\":\"address\",\"name\":\"operator\",\"type\":\"address\"},{\"internalType\":\"uint256\",\"name\":\"tokenId\",\"type\":\"uint256\"}],\"type\":\"error\",\"name\":\"ERC721InsufficientApproval\"},{\"inputs\":[{\"internalType\":\"address\",\"name\":\"approver\",\"type\":\"address\"}],\"type\":\"error\",\"name\":\"ERC721InvalidApprover\"},{\"inputs\":[{\"internalType\":\"address\",\"name\":\"operator\",\"type\":\"address\"}],\"type\":\"error\",\"name\":\"ERC721InvalidOperator\"},{\"inputs\":[{\"internalType\":\"address\",\"name\":\"owner\",\"type\":\"address\"}],\"type\":\"error\",\"name\":\"ERC721InvalidOwner\"},{\"inputs\":[{\"internalType\":\"address\",\"name\":\"receiver\",\"type\":\"address\"}],\"type\":\"error\",\"name\":\"ERC721InvalidReceiver\"},{\"inputs\":[{\"internalType\":\"address\",\"name\":\"sender\",\"type\":\"address\"}],\"type\":\"error\",\"name\":\"ERC721InvalidSender\"},{\"inputs\":[{\"internalType\":\"uint256\",\"name\":\"tokenId\",\"type\":\"uint256\"}],\"type\":\"error\",\"name\":\"ERC721NonexistentToken\"},{\"inputs\":[],\"type\":\"error\",\"name\":\"INVALID_NEW_OWNER\"},{\"inputs\":[],\"type\":\"error\",\"name\":\"INVALID_PAY\"},{\"inputs\":[],\"type\":\"error\",\"name\":\"INVALID_REDEEM\"},{\"inputs\":[],\"type\":\"error\",\"name\":\"MINT_RESERVE_NFTS_PAUSED\"},{\"inputs\":[],\"type\":\"error\",\"name\":\"OVERSPENDING\"},{\"inputs\":[{\"internalType\":\"uint256\",\"name\":\"x\",\"type\":\"uint256\"},{\"internalType\":\"uint256\",\"name\":\"y\",\"type\":\"uint256\"},{\"internalType\":\"uint256\",\"name\":\"denominator\",\"type\":\"uint256\"}],\"type\":\"error\",\"name\":\"PRBMath_MulDiv_Overflow\"},{\"inputs\":[],\"type\":\"error\",\"name\":\"TIER_TRANSFERS_PAUSED\"},{\"inputs\":[],\"type\":\"error\",\"name\":\"UNAUTHORIZED\"},{\"inputs\":[{\"internalType\":\"uint256\",\"name\":\"tokenId\",\"type\":\"uint256\"}],\"type\":\"error\",\"name\":\"UNAUTHORIZED_TOKEN\"},{\"inputs\":[],\"type\":\"error\",\"name\":\"UNEXPECTED_TOKEN_REDEEMED\"},{\"inputs\":[{\"internalType\":\"uint256\",\"name\":\"amount\",\"type\":\"uint256\",\"indexed\":true},{\"internalType\":\"uint256\",\"name\":\"newTotalCredits\",\"type\":\"uint256\",\"indexed\":true},{\"internalType\":\"address\",\"name\":\"account\",\"type\":\"address\",\"indexed\":true},{\"internalType\":\"address\",\"name\":\"caller\",\"type\":\"address\",\"indexed\":false}],\"type\":\"event\",\"name\":\"AddPayCredits\",\"anonymous\":false},{\"inputs\":[{\"internalType\":\"uint256\",\"name\":\"tierId\",\"type\":\"uint256\",\"indexed\":true},{\"internalType\":\"struct JB721TierConfig\",\"name\":\"tier\",\"type\":\"tuple\",\"components\":[{\"internalType\":\"uint104\",\"name\":\"price\",\"type\":\"uint104\"},{\"internalType\":\"uint32\",\"name\":\"initialSupply\",\"type\":\"uint32\"},{\"internalType\":\"uint32\",\"name\":\"votingUnits\",\"type\":\"uint32\"},{\"internalType\":\"uint16\",\"name\":\"reserveFrequency\",\"type\":\"uint16\"},{\"internalType\":\"address\",\"name\":\"reserveBeneficiary\",\"type\":\"address\"},{\"internalType\":\"bytes32\",\"name\":\"encodedIPFSUri\",\"type\":\"bytes32\"},{\"internalType\":\"uint24\",\"name\":\"category\",\"type\":\"uint24\"},{\"internalType\":\"bool\",\"name\":\"allowOwnerMint\",\"type\":\"bool\"},{\"internalType\":\"bool\",\"name\":\"useReserveBeneficiaryAsDefault\",\"type\":\"bool\"},{\"internalType\":\"bool\",\"name\":\"transfersPausable\",\"type\":\"bool\"},{\"internalType\":\"bool\",\"name\":\"useVotingUnits\",\"type\":\"bool\"},{\"internalType\":\"bool\",\"name\":\"cannotBeRemoved\",\"type\":\"bool\"}],\"indexed\":false},{\"internalType\":\"address\",\"name\":\"caller\",\"type\":\"address\",\"indexed\":false}],\"type\":\"event\",\"name\":\"AddTier\",\"anonymous\":false},{\"inputs\":[{\"internalType\":\"address\",\"name\":\"owner\",\"type\":\"address\",\"indexed\":true},{\"internalType\":\"address\",\"name\":\"approved\",\"type\":\"address\",\"indexed\":true},{\"internalType\":\"uint256\",\"name\":\"tokenId\",\"type\":\"uint256\",\"indexed\":true}],\"type\":\"event\",\"name\":\"Approval\",\"anonymous\":false},{\"inputs\":[{\"internalType\":\"address\",\"name\":\"owner\",\"type\":\"address\",\"indexed\":true},{\"internalType\":\"address\",\"name\":\"operator\",\"type\":\"address\",\"indexed\":true},{\"internalType\":\"bool\",\"name\":\"approved\",\"type\":\"bool\",\"indexed\":false}],\"type\":\"event\",\"name\":\"ApprovalForAll\",\"anonymous\":false},{\"inputs\":[{\"internalType\":\"uint256\",\"name\":\"tokenId\",\"type\":\"uint256\",\"indexed\":true},{\"internalType\":\"uint256\",\"name\":\"tierId\",\"type\":\"uint256\",\"indexed\":true},{\"internalType\":\"address\",\"name\":\"beneficiary\",\"type\":\"address\",\"indexed\":true},{\"internalType\":\"uint256\",\"name\":\"totalAmountPaid\",\"type\":\"uint256\",\"indexed\":false},{\"internalType\":\"address\",\"name\":\"caller\",\"type\":\"address\",\"indexed\":false}],\"type\":\"event\",\"name\":\"Mint\",\"anonymous\":false},{\"inputs\":[{\"internalType\":\"uint256\",\"name\":\"tokenId\",\"type\":\"uint256\",\"indexed\":true},{\"internalType\":\"uint256\",\"name\":\"tierId\",\"type\":\"uint256\",\"indexed\":true},{\"internalType\":\"address\",\"name\":\"beneficiary\",\"type\":\"address\",\"indexed\":true},{\"internalType\":\"address\",\"name\":\"caller\",\"type\":\"address\",\"indexed\":false}],\"type\":\"event\",\"name\":\"MintReservedNft\",\"anonymous\":false},{\"inputs\":[{\"internalType\":\"address\",\"name\":\"previousOwner\",\"type\":\"address\",\"indexed\":true},{\"internalType\":\"address\",\"name\":\"newOwner\",\"type\":\"address\",\"indexed\":true}],\"type\":\"event\",\"name\":\"OwnershipTransferred\",\"anonymous\":false},{\"inputs\":[{\"internalType\":\"uint8\",\"name\":\"newIndex\",\"type\":\"uint8\",\"indexed\":false}],\"type\":\"event\",\"name\":\"PermissionIdChanged\",\"anonymous\":false},{\"inputs\":[{\"internalType\":\"uint256\",\"name\":\"tierId\",\"type\":\"uint256\",\"indexed\":true},{\"internalType\":\"address\",\"name\":\"caller\",\"type\":\"address\",\"indexed\":false}],\"type\":\"event\",\"name\":\"RemoveTier\",\"anonymous\":false},{\"inputs\":[{\"internalType\":\"string\",\"name\":\"baseUri\",\"type\":\"string\",\"indexed\":true},{\"internalType\":\"address\",\"name\":\"caller\",\"type\":\"address\",\"indexed\":false}],\"type\":\"event\",\"name\":\"SetBaseUri\",\"anonymous\":false},{\"inputs\":[{\"internalType\":\"string\",\"name\":\"contractUri\",\"type\":\"string\",\"indexed\":true},{\"internalType\":\"address\",\"name\":\"caller\",\"type\":\"address\",\"indexed\":false}],\"type\":\"event\",\"name\":\"SetContractUri\",\"anonymous\":false},{\"inputs\":[{\"internalType\":\"uint256\",\"name\":\"tierId\",\"type\":\"uint256\",\"indexed\":true},{\"internalType\":\"bytes32\",\"name\":\"encodedIPFSUri\",\"type\":\"bytes32\",\"indexed\":false},{\"internalType\":\"address\",\"name\":\"caller\",\"type\":\"address\",\"indexed\":false}],\"type\":\"event\",\"name\":\"SetEncodedIPFSUri\",\"anonymous\":false},{\"inputs\":[{\"internalType\":\"contract IJB721TokenUriResolver\",\"name\":\"newResolver\",\"type\":\"address\",\"indexed\":true},{\"internalType\":\"address\",\"name\":\"caller\",\"type\":\"address\",\"indexed\":false}],\"type\":\"event\",\"name\":\"SetTokenUriResolver\",\"anonymous\":false},{\"inputs\":[{\"internalType\":\"address\",\"name\":\"from\",\"type\":\"address\",\"indexed\":true},{\"internalType\":\"address\",\"name\":\"to\",\"type\":\"address\",\"indexed\":true},{\"internalType\":\"uint256\",\"name\":\"tokenId\",\"type\":\"uint256\",\"indexed\":true}],\"type\":\"event\",\"name\":\"Transfer\",\"anonymous\":false},{\"inputs\":[{\"internalType\":\"uint256\",\"name\":\"amount\",\"type\":\"uint256\",\"indexed\":true},{\"internalType\":\"uint256\",\"name\":\"newTotalCredits\",\"type\":\"uint256\",\"indexed\":true},{\"internalType\":\"address\",\"name\":\"account\",\"type\":\"address\",\"indexed\":true},{\"internalType\":\"address\",\"name\":\"caller\",\"type\":\"address\",\"indexed\":false}],\"type\":\"event\",\"name\":\"UsePayCredits\",\"anonymous\":false},{\"inputs\":[],\"stateMutability\":\"view\",\"type\":\"function\",\"name\":\"CODE_ORIGIN\",\"outputs\":[{\"internalType\":\"address\",\"name\":\"\",\"type\":\"address\"}]},{\"inputs\":[],\"stateMutability\":\"view\",\"type\":\"function\",\"name\":\"DIRECTORY\",\"outputs\":[{\"internalType\":\"contract IJBDirectory\",\"name\":\"\",\"type\":\"address\"}]},{\"inputs\":[],\"stateMutability\":\"view\",\"type\":\"function\",\"name\":\"PERMISSIONS\",\"outputs\":[{\"internalType\":\"contract IJBPermissions\",\"name\":\"\",\"type\":\"address\"}]},{\"inputs\":[],\"stateMutability\":\"view\",\"type\":\"function\",\"name\":\"PROJECTS\",\"outputs\":[{\"internalType\":\"contract IJBProjects\",\"name\":\"\",\"type\":\"address\"}]},{\"inputs\":[],\"stateMutability\":\"view\",\"type\":\"function\",\"name\":\"RULESETS\",\"outputs\":[{\"internalType\":\"contract IJBRulesets\",\"name\":\"\",\"type\":\"address\"}]},{\"inputs\":[],\"stateMutability\":\"view\",\"type\":\"function\",\"name\":\"STORE\",\"outputs\":[{\"internalType\":\"contract IJB721TiersHookStore\",\"name\":\"\",\"type\":\"address\"}]},{\"inputs\":[{\"internalType\":\"struct JB721TierConfig[]\",\"name\":\"tiersToAdd\",\"type\":\"tuple[]\",\"components\":[{\"internalType\":\"uint104\",\"name\":\"price\",\"type\":\"uint104\"},{\"internalType\":\"uint32\",\"name\":\"initialSupply\",\"type\":\"uint32\"},{\"internalType\":\"uint32\",\"name\":\"votingUnits\",\"type\":\"uint32\"},{\"internalType\":\"uint16\",\"name\":\"reserveFrequency\",\"type\":\"uint16\"},{\"internalType\":\"address\",\"name\":\"reserveBeneficiary\",\"type\":\"address\"},{\"internalType\":\"bytes32\",\"name\":\"encodedIPFSUri\",\"type\":\"bytes32\"},{\"internalType\":\"uint24\",\"name\":\"category\",\"type\":\"uint24\"},{\"internalType\":\"bool\",\"name\":\"allowOwnerMint\",\"type\":\"bool\"},{\"internalType\":\"bool\",\"name\":\"useReserveBeneficiaryAsDefault\",\"type\":\"bool\"},{\"internalType\":\"bool\",\"name\":\"transfersPausable\",\"type\":\"bool\"},{\"internalType\":\"bool\",\"name\":\"useVotingUnits\",\"type\":\"bool\"},{\"internalType\":\"bool\",\"name\":\"cannotBeRemoved\",\"type\":\"bool\"}]},{\"internalType\":\"uint256[]\",\"name\":\"tierIdsToRemove\",\"type\":\"uint256[]\"}],\"stateMutability\":\"nonpayable\",\"type\":\"function\",\"name\":\"adjustTiers\"},{\"inputs\":[{\"internalType\":\"struct JBAfterPayRecordedContext\",\"name\":\"context\",\"type\":\"tuple\",\"components\":[{\"internalType\":\"address\",\"name\":\"payer\",\"type\":\"address\"},{\"internalType\":\"uint256\",\"name\":\"projectId\",\"type\":\"uint256\"},{\"internalType\":\"uint256\",\"name\":\"rulesetId\",\"type\":\"uint256\"},{\"internalType\":\"struct JBTokenAmount\",\"name\":\"amount\",\"type\":\"tuple\",\"components\":[{\"internalType\":\"address\",\"name\":\"token\",\"type\":\"address\"},{\"internalType\":\"uint256\",\"name\":\"value\",\"type\":\"uint256\"},{\"internalType\":\"uint256\",\"name\":\"decimals\",\"type\":\"uint256\"},{\"internalType\":\"uint256\",\"name\":\"currency\",\"type\":\"uint256\"}]},{\"internalType\":\"struct JBTokenAmount\",\"name\":\"forwardedAmount\",\"type\":\"tuple\",\"components\":[{\"internalType\":\"address\",\"name\":\"token\",\"type\":\"address\"},{\"internalType\":\"uint256\",\"name\":\"value\",\"type\":\"uint256\"},{\"internalType\":\"uint256\",\"name\":\"decimals\",\"type\":\"uint256\"},{\"internalType\":\"uint256\",\"name\":\"currency\",\"type\":\"uint256\"}]},{\"internalType\":\"uint256\",\"name\":\"weight\",\"type\":\"uint256\"},{\"internalType\":\"uint256\",\"name\":\"projectTokenCount\",\"type\":\"uint256\"},{\"internalType\":\"address\",\"name\":\"beneficiary\",\"type\":\"address\"},{\"internalType\":\"bytes\",\"name\":\"hookMetadata\",\"type\":\"bytes\"},{\"internalType\":\"bytes\",\"name\":\"payerMetadata\",\"type\":\"bytes\"}]}],\"stateMutability\":\"payable\",\"type\":\"function\",\"name\":\"afterPayRecordedWith\"},{\"inputs\":[{\"internalType\":\"struct JBAfterRedeemRecordedContext\",\"name\":\"context\",\"type\":\"tuple\",\"components\":[{\"internalType\":\"address\",\"name\":\"holder\",\"type\":\"address\"},{\"internalType\":\"uint256\",\"name\":\"projectId\",\"type\":\"uint256\"},{\"internalType\":\"uint256\",\"name\":\"rulesetId\",\"type\":\"uint256\"},{\"internalType\":\"uint256\",\"name\":\"redeemCount\",\"type\":\"uint256\"},{\"internalType\":\"struct JBTokenAmount\",\"name\":\"reclaimedAmount\",\"type\":\"tuple\",\"components\":[{\"internalType\":\"address\",\"name\":\"token\",\"type\":\"address\"},{\"internalType\":\"uint256\",\"name\":\"value\",\"type\":\"uint256\"},{\"internalType\":\"uint256\",\"name\":\"decimals\",\"type\":\"uint256\"},{\"internalType\":\"uint256\",\"name\":\"currency\",\"type\":\"uint256\"}]},{\"internalType\":\"struct JBTokenAmount\",\"name\":\"forwardedAmount\",\"type\":\"tuple\",\"components\":[{\"internalType\":\"address\",\"name\":\"token\",\"type\":\"address\"},{\"internalType\":\"uint256\",\"name\":\"value\",\"type\":\"uint256\"},{\"internalType\":\"uint256\",\"name\":\"decimals\",\"type\":\"uint256\"},{\"internalType\":\"uint256\",\"name\":\"currency\",\"type\":\"uint256\"}]},{\"internalType\":\"uint256\",\"name\":\"redemptionRate\",\"type\":\"uint256\"},{\"internalType\":\"address payable\",\"name\":\"beneficiary\",\"type\":\"address\"},{\"internalType\":\"bytes\",\"name\":\"hookMetadata\",\"type\":\"bytes\"},{\"internalType\":\"bytes\",\"name\":\"redeemerMetadata\",\"type\":\"bytes\"}]}],\"stateMutability\":\"payable\",\"type\":\"function\",\"name\":\"afterRedeemRecordedWith\"},{\"inputs\":[{\"internalType\":\"address\",\"name\":\"to\",\"type\":\"address\"},{\"internalType\":\"uint256\",\"name\":\"tokenId\",\"type\":\"uint256\"}],\"stateMutability\":\"nonpayable\",\"type\":\"function\",\"name\":\"approve\"},{\"inputs\":[{\"internalType\":\"address\",\"name\":\"owner\",\"type\":\"address\"}],\"stateMutability\":\"view\",\"type\":\"function\",\"name\":\"balanceOf\",\"outputs\":[{\"internalType\":\"uint256\",\"name\":\"balance\",\"type\":\"uint256\"}]},{\"inputs\":[],\"stateMutability\":\"view\",\"type\":\"function\",\"name\":\"baseURI\",\"outputs\":[{\"internalType\":\"string\",\"name\":\"\",\"type\":\"string\"}]},{\"inputs\":[{\"internalType\":\"struct JBBeforePayRecordedContext\",\"name\":\"context\",\"type\":\"tuple\",\"components\":[{\"internalType\":\"address\",\"name\":\"terminal\",\"type\":\"address\"},{\"internalType\":\"address\",\"name\":\"payer\",\"type\":\"address\"},{\"internalType\":\"struct JBTokenAmount\",\"name\":\"amount\",\"type\":\"tuple\",\"components\":[{\"internalType\":\"address\",\"name\":\"token\",\"type\":\"address\"},{\"internalType\":\"uint256\",\"name\":\"value\",\"type\":\"uint256\"},{\"internalType\":\"uint256\",\"name\":\"decimals\",\"type\":\"uint256\"},{\"internalType\":\"uint256\",\"name\":\"currency\",\"type\":\"uint256\"}]},{\"internalType\":\"uint256\",\"name\":\"projectId\",\"type\":\"uint256\"},{\"internalType\":\"uint256\",\"name\":\"rulesetId\",\"type\":\"uint256\"},{\"internalType\":\"address\",\"name\":\"beneficiary\",\"type\":\"address\"},{\"internalType\":\"uint256\",\"name\":\"weight\",\"type\":\"uint256\"},{\"internalType\":\"uint256\",\"name\":\"reservedRate\",\"type\":\"uint256\"},{\"internalType\":\"bytes\",\"name\":\"metadata\",\"type\":\"bytes\"}]}],\"stateMutability\":\"view\",\"type\":\"function\",\"name\":\"beforePayRecordedWith\",\"outputs\":[{\"internalType\":\"uint256\",\"name\":\"weight\",\"type\":\"uint256\"},{\"internalType\":\"struct JBPayHookSpecification[]\",\"name\":\"hookSpecifications\",\"type\":\"tuple[]\",\"components\":[{\"internalType\":\"contract IJBPayHook\",\"name\":\"hook\",\"type\":\"address\"},{\"internalType\":\"uint256\",\"name\":\"amount\",\"type\":\"uint256\"},{\"internalType\":\"bytes\",\"name\":\"metadata\",\"type\":\"bytes\"}]}]},{\"inputs\":[{\"internalType\":\"struct JBBeforeRedeemRecordedContext\",\"name\":\"context\",\"type\":\"tuple\",\"components\":[{\"internalType\":\"address\",\"name\":\"terminal\",\"type\":\"address\"},{\"internalType\":\"address\",\"name\":\"holder\",\"type\":\"address\"},{\"internalType\":\"uint256\",\"name\":\"projectId\",\"type\":\"uint256\"},{\"internalType\":\"uint256\",\"name\":\"rulesetId\",\"type\":\"uint256\"},{\"internalType\":\"uint256\",\"name\":\"redeemCount\",\"type\":\"uint256\"},{\"internalType\":\"uint256\",\"name\":\"totalSupply\",\"type\":\"uint256\"},{\"internalType\":\"struct JBTokenAmount\",\"name\":\"surplus\",\"type\":\"tuple\",\"components\":[{\"internalType\":\"address\",\"name\":\"token\",\"type\":\"address\"},{\"internalType\":\"uint256\",\"name\":\"value\",\"type\":\"uint256\"},{\"internalType\":\"uint256\",\"name\":\"decimals\",\"type\":\"uint256\"},{\"internalType\":\"uint256\",\"name\":\"currency\",\"type\":\"uint256\"}]},{\"internalType\":\"bool\",\"name\":\"useTotalSurplus\",\"type\":\"bool\"},{\"internalType\":\"uint256\",\"name\":\"redemptionRate\",\"type\":\"uint256\"},{\"internalType\":\"bytes\",\"name\":\"metadata\",\"type\":\"bytes\"}]}],\"stateMutability\":\"view\",\"type\":\"function\",\"name\":\"beforeRedeemRecordedWith\",\"outputs\":[{\"internalType\":\"uint256\",\"name\":\"redemptionRate\",\"type\":\"uint256\"},{\"internalType\":\"uint256\",\"name\":\"redeemCount\",\"type\":\"uint256\"},{\"internalType\":\"uint256\",\"name\":\"totalSupply\",\"type\":\"uint256\"},{\"internalType\":\"struct JBRedeemHookSpecification[]\",\"name\":\"hookSpecifications\",\"type\":\"tuple[]\",\"components\":[{\"internalType\":\"contract IJBRedeemHook\",\"name\":\"hook\",\"type\":\"address\"},{\"internalType\":\"uint256\",\"name\":\"amount\",\"type\":\"uint256\"},{\"internalType\":\"bytes\",\"name\":\"metadata\",\"type\":\"bytes\"}]}]},{\"inputs\":[],\"stateMutability\":\"view\",\"type\":\"function\",\"name\":\"contractURI\",\"outputs\":[{\"internalType\":\"string\",\"name\":\"\",\"type\":\"string\"}]},{\"inputs\":[{\"internalType\":\"uint256\",\"name\":\"tokenId\",\"type\":\"uint256\"}],\"stateMutability\":\"view\",\"type\":\"function\",\"name\":\"firstOwnerOf\",\"outputs\":[{\"internalType\":\"address\",\"name\":\"\",\"type\":\"address\"}]},{\"inputs\":[{\"internalType\":\"uint256\",\"name\":\"tokenId\",\"type\":\"uint256\"}],\"stateMutability\":\"view\",\"type\":\"function\",\"name\":\"getApproved\",\"outputs\":[{\"internalType\":\"address\",\"name\":\"\",\"type\":\"address\"}]},{\"inputs\":[{\"internalType\":\"uint256\",\"name\":\"\",\"type\":\"uint256\"},{\"internalType\":\"address\",\"name\":\"\",\"type\":\"address\"}],\"stateMutability\":\"pure\",\"type\":\"function\",\"name\":\"hasMintPermissionFor\",\"outputs\":[{\"internalType\":\"bool\",\"name\":\"\",\"type\":\"bool\"}]},{\"inputs\":[{\"internalType\":\"uint256\",\"name\":\"projectId\",\"type\":\"uint256\"},{\"internalType\":\"string\",\"name\":\"name\",\"type\":\"string\"},{\"internalType\":\"string\",\"name\":\"symbol\",\"type\":\"string\"},{\"internalType\":\"contract IJBRulesets\",\"name\":\"rulesets\",\"type\":\"address\"},{\"internalType\":\"string\",\"name\":\"baseUri\",\"type\":\"string\"},{\"internalType\":\"contract IJB721TokenUriResolver\",\"name\":\"tokenUriResolver\",\"type\":\"address\"},{\"internalType\":\"string\",\"name\":\"contractUri\",\"type\":\"string\"},{\"internalType\":\"struct JB721InitTiersConfig\",\"name\":\"tiersConfig\",\"type\":\"tuple\",\"components\":[{\"internalType\":\"struct JB721TierConfig[]\",\"name\":\"tiers\",\"type\":\"tuple[]\",\"components\":[{\"internalType\":\"uint104\",\"name\":\"price\",\"type\":\"uint104\"},{\"internalType\":\"uint32\",\"name\":\"initialSupply\",\"type\":\"uint32\"},{\"internalType\":\"uint32\",\"name\":\"votingUnits\",\"type\":\"uint32\"},{\"internalType\":\"uint16\",\"name\":\"reserveFrequency\",\"type\":\"uint16\"},{\"internalType\":\"address\",\"name\":\"reserveBeneficiary\",\"type\":\"address\"},{\"internalType\":\"bytes32\",\"name\":\"encodedIPFSUri\",\"type\":\"bytes32\"},{\"internalType\":\"uint24\",\"name\":\"category\",\"type\":\"uint24\"},{\"internalType\":\"bool\",\"name\":\"allowOwnerMint\",\"type\":\"bool\"},{\"internalType\":\"bool\",\"name\":\"useReserveBeneficiaryAsDefault\",\"type\":\"bool\"},{\"internalType\":\"bool\",\"name\":\"transfersPausable\",\"type\":\"bool\"},{\"internalType\":\"bool\",\"name\":\"useVotingUnits\",\"type\":\"bool\"},{\"internalType\":\"bool\",\"name\":\"cannotBeRemoved\",\"type\":\"bool\"}]},{\"internalType\":\"uint32\",\"name\":\"currency\",\"type\":\"uint32\"},{\"internalType\":\"uint8\",\"name\":\"decimals\",\"type\":\"uint8\"},{\"internalType\":\"contract IJBPrices\",\"name\":\"prices\",\"type\":\"address\"}]},{\"internalType\":\"contract IJB721TiersHookStore\",\"name\":\"store\",\"type\":\"address\"},{\"internalType\":\"struct JB721TiersHookFlags\",\"name\":\"flags\",\"type\":\"tuple\",\"components\":[{\"internalType\":\"bool\",\"name\":\"noNewTiersWithReserves\",\"type\":\"bool\"},{\"internalType\":\"bool\",\"name\":\"noNewTiersWithVotes\",\"type\":\"bool\"},{\"internalType\":\"bool\",\"name\":\"noNewTiersWithOwnerMinting\",\"type\":\"bool\"},{\"internalType\":\"bool\",\"name\":\"preventOverspending\",\"type\":\"bool\"}]}],\"stateMutability\":\"nonpayable\",\"type\":\"function\",\"name\":\"initialize\"},{\"inputs\":[{\"internalType\":\"address\",\"name\":\"owner\",\"type\":\"address\"},{\"internalType\":\"address\",\"name\":\"operator\",\"type\":\"address\"}],\"stateMutability\":\"view\",\"type\":\"function\",\"name\":\"isApprovedForAll\",\"outputs\":[{\"internalType\":\"bool\",\"name\":\"\",\"type\":\"bool\"}]},{\"inputs\":[],\"stateMutability\":\"view\",\"type\":\"function\",\"name\":\"jbOwner\",\"outputs\":[{\"internalType\":\"address\",\"name\":\"owner\",\"type\":\"address\"},{\"internalType\":\"uint88\",\"name\":\"projectId\",\"type\":\"uint88\"},{\"internalType\":\"uint8\",\"name\":\"permissionId\",\"type\":\"uint8\"}]},{\"inputs\":[{\"internalType\":\"uint16[]\",\"name\":\"tierIds\",\"type\":\"uint16[]\"},{\"internalType\":\"address\",\"name\":\"beneficiary\",\"type\":\"address\"}],\"stateMutability\":\"nonpayable\",\"type\":\"function\",\"name\":\"mintFor\",\"outputs\":[{\"internalType\":\"uint256[]\",\"name\":\"tokenIds\",\"type\":\"uint256[]\"}]},{\"inputs\":[{\"internalType\":\"struct JB721TiersMintReservesConfig[]\",\"name\":\"reserveMintConfigs\",\"type\":\"tuple[]\",\"components\":[{\"internalType\":\"uint256\",\"name\":\"tierId\",\"type\":\"uint256\"},{\"internalType\":\"uint256\",\"name\":\"count\",\"type\":\"uint256\"}]}],\"stateMutability\":\"nonpayable\",\"type\":\"function\",\"name\":\"mintPendingReservesFor\"},{\"inputs\":[{\"internalType\":\"uint256\",\"name\":\"tierId\",\"type\":\"uint256\"},{\"internalType\":\"uint256\",\"name\":\"count\",\"type\":\"uint256\"}],\"stateMutability\":\"nonpayable\",\"type\":\"function\",\"name\":\"mintPendingReservesFor\"},{\"inputs\":[],\"stateMutability\":\"view\",\"type\":\"function\",\"name\":\"name\",\"outputs\":[{\"internalType\":\"string\",\"name\":\"\",\"type\":\"string\"}]},{\"inputs\":[],\"stateMutability\":\"view\",\"type\":\"function\",\"name\":\"owner\",\"outputs\":[{\"internalType\":\"address\",\"name\":\"\",\"type\":\"address\"}]},{\"inputs\":[{\"internalType\":\"uint256\",\"name\":\"tokenId\",\"type\":\"uint256\"}],\"stateMutability\":\"view\",\"type\":\"function\",\"name\":\"ownerOf\",\"outputs\":[{\"internalType\":\"address\",\"name\":\"\",\"type\":\"address\"}]},{\"inputs\":[{\"internalType\":\"address\",\"name\":\"addr\",\"type\":\"address\"}],\"stateMutability\":\"view\",\"type\":\"function\",\"name\":\"payCreditsOf\",\"outputs\":[{\"internalType\":\"uint256\",\"name\":\"\",\"type\":\"uint256\"}]},{\"inputs\":[],\"stateMutability\":\"view\",\"type\":\"function\",\"name\":\"pricingContext\",\"outputs\":[{\"internalType\":\"uint256\",\"name\":\"currency\",\"type\":\"uint256\"},{\"internalType\":\"uint256\",\"name\":\"decimals\",\"type\":\"uint256\"},{\"internalType\":\"contract IJBPrices\",\"name\":\"prices\",\"type\":\"address\"}]},{\"inputs\":[],\"stateMutability\":\"view\",\"type\":\"function\",\"name\":\"projectId\",\"outputs\":[{\"internalType\":\"uint256\",\"name\":\"\",\"type\":\"uint256\"}]},{\"inputs\":[{\"internalType\":\"uint256[]\",\"name\":\"tokenIds\",\"type\":\"uint256[]\"},{\"internalType\":\"struct JBBeforeRedeemRecordedContext\",\"name\":\"\",\"type\":\"tuple\",\"components\":[{\"internalType\":\"address\",\"name\":\"terminal\",\"type\":\"address\"},{\"internalType\":\"address\",\"name\":\"holder\",\"type\":\"address\"},{\"internalType\":\"uint256\",\"name\":\"projectId\",\"type\":\"uint256\"},{\"internalType\":\"uint256\",\"name\":\"rulesetId\",\"type\":\"uint256\"},{\"internalType\":\"uint256\",\"name\":\"redeemCount\",\"type\":\"uint256\"},{\"internalType\":\"uint256\",\"name\":\"totalSupply\",\"type\":\"uint256\"},{\"internalType\":\"struct JBTokenAmount\",\"name\":\"surplus\",\"type\":\"tuple\",\"components\":[{\"internalType\":\"address\",\"name\":\"token\",\"type\":\"address\"},{\"internalType\":\"uint256\",\"name\":\"value\",\"type\":\"uint256\"},{\"internalType\":\"uint256\",\"name\":\"decimals\",\"type\":\"uint256\"},{\"internalType\":\"uint256\",\"name\":\"currency\",\"type\":\"uint256\"}]},{\"internalType\":\"bool\",\"name\":\"useTotalSurplus\",\"type\":\"bool\"},{\"internalType\":\"uint256\",\"name\":\"redemptionRate\",\"type\":\"uint256\"},{\"internalType\":\"bytes\",\"name\":\"metadata\",\"type\":\"bytes\"}]}],\"stateMutability\":\"view\",\"type\":\"function\",\"name\":\"redemptionWeightOf\",\"outputs\":[{\"internalType\":\"uint256\",\"name\":\"\",\"type\":\"uint256\"}]},{\"inputs\":[],\"stateMutability\":\"nonpayable\",\"type\":\"function\",\"name\":\"renounceOwnership\"},{\"inputs\":[{\"internalType\":\"address\",\"name\":\"from\",\"type\":\"address\"},{\"internalType\":\"address\",\"name\":\"to\",\"type\":\"address\"},{\"internalType\":\"uint256\",\"name\":\"tokenId\",\"type\":\"uint256\"}],\"stateMutability\":\"nonpayable\",\"type\":\"function\",\"name\":\"safeTransferFrom\"},{\"inputs\":[{\"internalType\":\"address\",\"name\":\"from\",\"type\":\"address\"},{\"internalType\":\"address\",\"name\":\"to\",\"type\":\"address\"},{\"internalType\":\"uint256\",\"name\":\"tokenId\",\"type\":\"uint256\"},{\"internalType\":\"bytes\",\"name\":\"data\",\"type\":\"bytes\"}],\"stateMutability\":\"nonpayable\",\"type\":\"function\",\"name\":\"safeTransferFrom\"},{\"inputs\":[{\"internalType\":\"address\",\"name\":\"operator\",\"type\":\"address\"},{\"internalType\":\"bool\",\"name\":\"approved\",\"type\":\"bool\"}],\"stateMutability\":\"nonpayable\",\"type\":\"function\",\"name\":\"setApprovalForAll\"},{\"inputs\":[{\"internalType\":\"string\",\"name\":\"baseUri\",\"type\":\"string\"},{\"internalType\":\"string\",\"name\":\"contractUri\",\"type\":\"string\"},{\"internalType\":\"contract IJB721TokenUriResolver\",\"name\":\"tokenUriResolver\",\"type\":\"address\"},{\"internalType\":\"uint256\",\"name\":\"encodedIPFSTUriTierId\",\"type\":\"uint256\"},{\"internalType\":\"bytes32\",\"name\":\"encodedIPFSUri\",\"type\":\"bytes32\"}],\"stateMutability\":\"nonpayable\",\"type\":\"function\",\"name\":\"setMetadata\"},{\"inputs\":[{\"internalType\":\"uint8\",\"name\":\"permissionId\",\"type\":\"uint8\"}],\"stateMutability\":\"nonpayable\",\"type\":\"function\",\"name\":\"setPermissionId\"},{\"inputs\":[{\"internalType\":\"bytes4\",\"name\":\"interfaceId\",\"type\":\"bytes4\"}],\"stateMutability\":\"view\",\"type\":\"function\",\"name\":\"supportsInterface\",\"outputs\":[{\"internalType\":\"bool\",\"name\":\"\",\"type\":\"bool\"}]},{\"inputs\":[],\"stateMutability\":\"view\",\"type\":\"function\",\"name\":\"symbol\",\"outputs\":[{\"internalType\":\"string\",\"name\":\"\",\"type\":\"string\"}]},{\"inputs\":[{\"internalType\":\"uint256\",\"name\":\"tokenId\",\"type\":\"uint256\"}],\"stateMutability\":\"view\",\"type\":\"function\",\"name\":\"tokenURI\",\"outputs\":[{\"internalType\":\"string\",\"name\":\"\",\"type\":\"string\"}]},{\"inputs\":[{\"internalType\":\"struct JBBeforeRedeemRecordedContext\",\"name\":\"\",\"type\":\"tuple\",\"components\":[{\"internalType\":\"address\",\"name\":\"terminal\",\"type\":\"address\"},{\"internalType\":\"address\",\"name\":\"holder\",\"type\":\"address\"},{\"internalType\":\"uint256\",\"name\":\"projectId\",\"type\":\"uint256\"},{\"internalType\":\"uint256\",\"name\":\"rulesetId\",\"type\":\"uint256\"},{\"internalType\":\"uint256\",\"name\":\"redeemCount\",\"type\":\"uint256\"},{\"internalType\":\"uint256\",\"name\":\"totalSupply\",\"type\":\"uint256\"},{\"internalType\":\"struct JBTokenAmount\",\"name\":\"surplus\",\"type\":\"tuple\",\"components\":[{\"internalType\":\"address\",\"name\":\"token\",\"type\":\"address\"},{\"internalType\":\"uint256\",\"name\":\"value\",\"type\":\"uint256\"},{\"internalType\":\"uint256\",\"name\":\"decimals\",\"type\":\"uint256\"},{\"internalType\":\"uint256\",\"name\":\"currency\",\"type\":\"uint256\"}]},{\"internalType\":\"bool\",\"name\":\"useTotalSurplus\",\"type\":\"bool\"},{\"internalType\":\"uint256\",\"name\":\"redemptionRate\",\"type\":\"uint256\"},{\"internalType\":\"bytes\",\"name\":\"metadata\",\"type\":\"bytes\"}]}],\"stateMutability\":\"view\",\"type\":\"function\",\"name\":\"totalRedemptionWeight\",\"outputs\":[{\"internalType\":\"uint256\",\"name\":\"\",\"type\":\"uint256\"}]},{\"inputs\":[{\"internalType\":\"address\",\"name\":\"from\",\"type\":\"address\"},{\"internalType\":\"address\",\"name\":\"to\",\"type\":\"address\"},{\"internalType\":\"uint256\",\"name\":\"tokenId\",\"type\":\"uint256\"}],\"stateMutability\":\"nonpayable\",\"type\":\"function\",\"name\":\"transferFrom\"},{\"inputs\":[{\"internalType\":\"address\",\"name\":\"newOwner\",\"type\":\"address\"}],\"stateMutability\":\"nonpayable\",\"type\":\"function\",\"name\":\"transferOwnership\"},{\"inputs\":[{\"internalType\":\"uint256\",\"name\":\"projectId\",\"type\":\"uint256\"}],\"stateMutability\":\"nonpayable\",\"type\":\"function\",\"name\":\"transferOwnershipToProject\"}],\"devdoc\":{\"kind\":\"dev\",\"methods\":{\"adjustTiers((uint104,uint32,uint32,uint16,address,bytes32,uint24,bool,bool,bool,bool,bool)[],uint256[])\":{\"details\":\"Only the contract's owner or an operator with the `ADJUST_TIERS` permission from the owner can adjust the tiers.Any added tiers must adhere to this hook's `JB721TiersHookFlags`.\",\"params\":{\"tierIdsToRemove\":\"The tiers to remove, as an array of tier IDs.\",\"tiersToAdd\":\"The tiers to add, as an array of `JB721TierConfig` structs`.\"}},\"afterPayRecordedWith((address,uint256,uint256,(address,uint256,uint256,uint256),(address,uint256,uint256,uint256),uint256,uint256,address,bytes,bytes))\":{\"details\":\"Reverts if the calling contract is not one of the project's terminals.\",\"params\":{\"context\":\"The payment context passed in by the terminal.\"}},\"afterRedeemRecordedWith((address,uint256,uint256,uint256,(address,uint256,uint256,uint256),(address,uint256,uint256,uint256),uint256,address,bytes,bytes))\":{\"details\":\"Reverts if the calling contract is not one of the project's terminals.\",\"params\":{\"context\":\"The redemption context passed in by the terminal.\"}},\"approve(address,uint256)\":{\"details\":\"See {IERC721-approve}.\"},\"balanceOf(address)\":{\"params\":{\"owner\":\"The address to check the balance of.\"},\"returns\":{\"balance\":\"The number of NFTs the address owns across this hook's tiers.\"}},\"beforePayRecordedWith((address,address,(address,uint256,uint256,uint256),uint256,uint256,address,uint256,uint256,bytes))\":{\"details\":\"Sets this contract as the pay hook. Part of `IJBRulesetDataHook`.\",\"params\":{\"context\":\"The payment context passed to this contract by the `pay(...)` function.\"},\"returns\":{\"hookSpecifications\":\"The amount and data to send to pay hooks (this contract) instead of adding to the terminal's balance.\",\"weight\":\"The new `weight` to use, overriding the ruleset's `weight`.\"}},\"beforeRedeemRecordedWith((address,address,uint256,uint256,uint256,uint256,(address,uint256,uint256,uint256),bool,uint256,bytes))\":{\"details\":\"Sets this contract as the redeem hook. Part of `IJBRulesetDataHook`.This function is used for NFT redemptions, and will only be called if the project's ruleset has `useDataHookForRedeem` set to `true`.\",\"params\":{\"context\":\"The redemption context passed to this contract by the `redeemTokensOf(...)` function.\"},\"returns\":{\"hookSpecifications\":\"The amount and data to send to redeem hooks (this contract) instead of returning to the beneficiary.\",\"redeemCount\":\"The amount of tokens that should be considered redeemed.\",\"redemptionRate\":\"The redemption rate influencing the reclaim amount.\",\"totalSupply\":\"The total amount of tokens that are considered to be existing.\"}},\"constructor\":{\"params\":{\"directory\":\"A directory of terminals and controllers for projects.\",\"permissions\":\"A contract storing permissions.\"}},\"firstOwnerOf(uint256)\":{\"details\":\"This is generally the address which paid for the NFT.\",\"params\":{\"tokenId\":\"The token ID of the NFT to get the first owner of.\"},\"returns\":{\"_0\":\"The address of the NFT's first owner.\"}},\"getApproved(uint256)\":{\"details\":\"See {IERC721-getApproved}.\"},\"initialize(uint256,string,string,address,string,address,string,((uint104,uint32,uint32,uint16,address,bytes32,uint24,bool,bool,bool,bool,bool)[],uint32,uint8,address),address,(bool,bool,bool,bool))\":{\"params\":{\"baseUri\":\"The URI to use as a base for full NFT `tokenUri`s.\",\"contractUri\":\"A URI where this contract's metadata can be found.\",\"flags\":\"A set of additional options which dictate how the hook behaves.\",\"name\":\"The name of the NFT collection.\",\"projectId\":\"The ID of the project this this hook is associated with.\",\"rulesets\":\"A contract storing and managing project rulesets.\",\"store\":\"The contract which stores the NFT's data.\",\"symbol\":\"The symbol representing the NFT collection.\",\"tiersConfig\":\"The NFT tiers and pricing context to initialize the hook with. The tiers must be sorted by price (from least to greatest).\",\"tokenUriResolver\":\"An optional contract responsible for resolving the token URI for each NFT's token ID.\"}},\"isApprovedForAll(address,address)\":{\"details\":\"See {IERC721-isApprovedForAll}.\"},\"mintFor(uint16[],address)\":{\"params\":{\"beneficiary\":\"The address to mint to.\",\"tierIds\":\"The IDs of the tiers to mint from.\"},\"returns\":{\"tokenIds\":\"The IDs of the newly minted tokens.\"}},\"mintPendingReservesFor((uint256,uint256)[])\":{\"details\":\"\\\"Pending\\\" means that the NFTs have been reserved, but have not been minted yet.\",\"params\":{\"reserveMintConfigs\":\"Contains information about how many reserved tokens to mint for each tier.\"}},\"mintPendingReservesFor(uint256,uint256)\":{\"details\":\"\\\"Pending\\\" means that the NFTs have been reserved, but have not been minted yet.\",\"params\":{\"count\":\"The number of reserved NFTs to mint.\",\"tierId\":\"The ID of the tier to mint reserved NFTs from.\"}},\"name()\":{\"details\":\"See {IERC721Metadata-name}.\"},\"ownerOf(uint256)\":{\"details\":\"See {IERC721-ownerOf}.\"},\"pricingContext()\":{\"details\":\"If the `prices` contract is the zero address, this contract only accepts payments in the `currency` token.\",\"returns\":{\"currency\":\"The currency used for tier prices.\",\"decimals\":\"The amount of decimals being used in tier prices.\",\"prices\":\"The prices contract used to resolve the value of payments in currencies other than `currency`.\"}},\"redemptionWeightOf(uint256[],(address,address,uint256,uint256,uint256,uint256,(address,uint256,uint256,uint256),bool,uint256,bytes))\":{\"details\":\"An NFT's redemption weight is its price.To get their relative redemption weight, divide the result by the `totalRedemptionWeight(...)`.\",\"params\":{\"tokenIds\":\"The token IDs of the NFTs to get the cumulative redemption weight of.\"},\"returns\":{\"_0\":\"weight The redemption weight of the tokenIds.\"}},\"safeTransferFrom(address,address,uint256)\":{\"details\":\"See {IERC721-safeTransferFrom}.\"},\"safeTransferFrom(address,address,uint256,bytes)\":{\"details\":\"See {IERC721-safeTransferFrom}.\"},\"setApprovalForAll(address,bool)\":{\"details\":\"See {IERC721-setApprovalForAll}.\"},\"setMetadata(string,string,address,uint256,bytes32)\":{\"details\":\"Only this contract's owner can set the metadata.\",\"params\":{\"baseUri\":\"The new base URI.\",\"contractUri\":\"The new contract URI.\",\"encodedIPFSTUriTierId\":\"The ID of the tier to set the encoded IPFS URI of.\",\"encodedIPFSUri\":\"The encoded IPFS URI to set.\",\"tokenUriResolver\":\"The new URI resolver.\"}},\"setPermissionId(uint8)\":{\"params\":{\"permissionId\":\"The ID of the permission to use for `onlyOwner`.\"}},\"supportsInterface(bytes4)\":{\"details\":\"See {IERC165-supportsInterface}.\",\"params\":{\"interfaceId\":\"The ID of the interface to check for adherence to.\"}},\"symbol()\":{\"details\":\"See {IERC721Metadata-symbol}.\"},\"tokenURI(uint256)\":{\"details\":\"Defers to the `tokenUriResolver` if it is set. Otherwise, use the `tokenUri` corresponding with the NFT's tier.\",\"params\":{\"tokenId\":\"The token ID of the NFT to get the metadata URI of.\"},\"returns\":{\"_0\":\"The token URI from the `tokenUriResolver` if it is set. If it isn't set, the token URI for the NFT's tier.\"}},\"totalRedemptionWeight((address,address,uint256,uint256,uint256,uint256,(address,uint256,uint256,uint256),bool,uint256,bytes))\":{\"details\":\"An NFT's redemption weight is its price.\",\"returns\":{\"_0\":\"weight The total redemption weight.\"}},\"transferFrom(address,address,uint256)\":{\"details\":\"See {IERC721-transferFrom}.\"},\"transferOwnership(address)\":{\"params\":{\"newOwner\":\"The address that should receive ownership of this contract.\"}},\"transferOwnershipToProject(uint256)\":{\"details\":\"The `projectId` must fit within a `uint88`.\",\"params\":{\"projectId\":\"The ID of the project that should receive ownership of this contract.\"}}},\"version\":1},\"userdoc\":{\"kind\":\"user\",\"methods\":{\"CODE_ORIGIN()\":{\"notice\":\"The address of the original `JB721TiersHook`.\"},\"DIRECTORY()\":{\"notice\":\"The directory of terminals and controllers for projects.\"},\"PERMISSIONS()\":{\"notice\":\"A contract storing permissions.\"},\"PROJECTS()\":{\"notice\":\"Mints ERC-721s that represent project ownership and transfers.\"},\"RULESETS()\":{\"notice\":\"The contract storing and managing project rulesets.\"},\"STORE()\":{\"notice\":\"The contract that stores and manages data for this contract's NFTs.\"},\"adjustTiers((uint104,uint32,uint32,uint16,address,bytes32,uint24,bool,bool,bool,bool,bool)[],uint256[])\":{\"notice\":\"Add or delete tiers.\"},\"afterPayRecordedWith((address,uint256,uint256,(address,uint256,uint256,uint256),(address,uint256,uint256,uint256),uint256,uint256,address,bytes,bytes))\":{\"notice\":\"Mints one or more NFTs to the `context.benficiary` upon payment if conditions are met. Part of `IJBPayHook`.\"},\"afterRedeemRecordedWith((address,uint256,uint256,uint256,(address,uint256,uint256,uint256),(address,uint256,uint256,uint256),uint256,address,bytes,bytes))\":{\"notice\":\"Burns the specified NFTs upon token holder redemption, reclaiming funds from the project's balance for `context.beneficiary`. Part of `IJBRedeemHook`.\"},\"balanceOf(address)\":{\"notice\":\"The total number of this hook's NFTs that an address holds (from all tiers).\"},\"baseURI()\":{\"notice\":\"The base URI for the NFT `tokenUris`.\"},\"beforePayRecordedWith((address,address,(address,uint256,uint256,uint256),uint256,uint256,address,uint256,uint256,bytes))\":{\"notice\":\"The data calculated before a payment is recorded in the terminal store. This data is provided to the terminal's `pay(...)` transaction.\"},\"beforeRedeemRecordedWith((address,address,uint256,uint256,uint256,uint256,(address,uint256,uint256,uint256),bool,uint256,bytes))\":{\"notice\":\"The data calculated before a redemption is recorded in the terminal store. This data is provided to the terminal's `redeemTokensOf(...)` transaction.\"},\"contractURI()\":{\"notice\":\"This contract's metadata URI.\"},\"firstOwnerOf(uint256)\":{\"notice\":\"The first owner of an NFT.\"},\"hasMintPermissionFor(uint256,address)\":{\"notice\":\"Required by the IJBRulesetDataHook interfaces. Return false to not leak any permissions.\"},\"initialize(uint256,string,string,address,string,address,string,((uint104,uint32,uint32,uint16,address,bytes32,uint24,bool,bool,bool,bool,bool)[],uint32,uint8,address),address,(bool,bool,bool,bool))\":{\"notice\":\"Initializes a cloned copy of the original `JB721Hook` contract.\"},\"jbOwner()\":{\"notice\":\"This contract's owner information.\"},\"mintFor(uint16[],address)\":{\"notice\":\"Manually mint NFTs from the provided tiers .\"},\"mintPendingReservesFor((uint256,uint256)[])\":{\"notice\":\"Mint pending reserved NFTs based on the provided information.\"},\"mintPendingReservesFor(uint256,uint256)\":{\"notice\":\"Mint reserved pending reserved NFTs within the provided tier.\"},\"owner()\":{\"notice\":\"Returns the owner's address based on this contract's `JBOwner` owner information.\"},\"payCreditsOf(address)\":{\"notice\":\"If an address pays more than the price of the NFT they received, the extra amount is stored as credits which can be redeemed to mint NFTs.\"},\"pricingContext()\":{\"notice\":\"Context for the pricing of this hook's tiers.\"},\"projectId()\":{\"notice\":\"The ID of the project that this contract is associated with.\"},\"redemptionWeightOf(uint256[],(address,address,uint256,uint256,uint256,uint256,(address,uint256,uint256,uint256),bool,uint256,bytes))\":{\"notice\":\"The combined redemption weight of the NFTs with the specified token IDs.\"},\"renounceOwnership()\":{\"notice\":\"Gives up ownership of this contract, making it impossible to call `onlyOwner`/`_checkOwner` functions. Can only be called by the current owner.\"},\"setMetadata(string,string,address,uint256,bytes32)\":{\"notice\":\"Update this hook's URI metadata properties.\"},\"setPermissionId(uint8)\":{\"notice\":\"Sets the permission ID which, when granted from the owner, allows other addresses to perform operations on their behalf.\"},\"supportsInterface(bytes4)\":{\"notice\":\"Indicates if this contract adheres to the specified interface.\"},\"tokenURI(uint256)\":{\"notice\":\"The metadata URI of the NFT with the specified token ID.\"},\"totalRedemptionWeight((address,address,uint256,uint256,uint256,uint256,(address,uint256,uint256,uint256),bool,uint256,bytes))\":{\"notice\":\"The combined redemption weight of all outstanding NFTs.\"},\"transferOwnership(address)\":{\"notice\":\"Transfers ownership of this contract to a new account (the `newOwner`). Can only be called by the current owner.\"},\"transferOwnershipToProject(uint256)\":{\"notice\":\"Transfer ownership of this contract to a new Juicebox project.\"}},\"version\":1}},\"settings\":{\"remappings\":[\"@bananapus/=node_modules/@bananapus/\",\"@chainlink/=node_modules/@chainlink/\",\"@eth-optimism/=node_modules/@eth-optimism/\",\"@gnosis.pm/=node_modules/@gnosis.pm/\",\"@openzeppelin/=node_modules/@openzeppelin/\",\"@prb/=node_modules/@prb/\",\"@sphinx-labs/contracts/=node_modules/@sphinx-labs/contracts/contracts/foundry/\",\"@uniswap/=node_modules/@uniswap/\",\"ds-test/=lib/forge-std/lib/ds-test/src/\",\"forge-std/=lib/forge-std/src/\",\"hardhat/=node_modules/hardhat/\",\"solmate/=node_modules/solmate/\",\"sphinx-forge-std/=node_modules/sphinx-forge-std/\",\"sphinx-solmate/=node_modules/sphinx-solmate/\",\"sphinx/=lib/sphinx/packages/contracts/contracts/forge-std/src/\"],\"optimizer\":{\"enabled\":true,\"runs\":1000},\"metadata\":{\"bytecodeHash\":\"ipfs\"},\"compilationTarget\":{\"src/JB721TiersHook.sol\":\"JB721TiersHook\"},\"evmVersion\":\"paris\",\"libraries\":{}},\"sources\":{\"node_modules/@bananapus/core/src/enums/JBApprovalStatus.sol\":{\"keccak256\":\"0x61c69b6bac7d24b566d87cda23a77e4ca9cdb87200b106aba8534cb9a0973e33\",\"urls\":[\"bzz-raw://6a9ca7249de76f77a8252eefe6bd1b63d47952f25a2acfa2c8db967cdff4470c\",\"dweb:/ipfs/QmaxSxptRQNj8bNy96EreENmrnRWdKmhyihBcxyWzBX5BN\"],\"license\":\"MIT\"},\"node_modules/@bananapus/core/src/interfaces/IJBControlled.sol\":{\"keccak256\":\"0x79fb8de7b3f809f1c3c7189f578b7331ec4dfe3350151d5b50240ecb3a2a907b\",\"urls\":[\"bzz-raw://45c82240dd4f0e9aec00d0d86f6b44bdda231db098ebdac17e922771b3e6f342\",\"dweb:/ipfs/QmPUvT8HZeVenrZDpP14HsZofaXPJjih8UAd35rTg3tU7E\"],\"license\":\"MIT\"},\"node_modules/@bananapus/core/src/interfaces/IJBDirectory.sol\":{\"keccak256\":\"0xd15957cc32974cde4f9f194b92574df2ad8a7aeec049d947136ce3381f9145f6\",\"urls\":[\"bzz-raw://7543e5cbde75ff777b16067016ff9ac5e995752842f03662137eb4ef3fc3c868\",\"dweb:/ipfs/QmPJZAmqNKRcj1JQ4Kc9hExbMtPPzrRB5hZ787utCfBmXg\"],\"license\":\"MIT\"},\"node_modules/@bananapus/core/src/interfaces/IJBPayHook.sol\":{\"keccak256\":\"0xe24aa2ca52f7a5f24f24ccae101cfc94d0f76705b2d23222f87c7852f8be4267\",\"urls\":[\"bzz-raw://6888140e9a7d4156fd22635654d5d08e21819af8b0356b5415f37b75083b3eb9\",\"dweb:/ipfs/QmbuwBNhar7rEbRhTJPiyo5PVsfaM5nqLow9NAkHhyvjV5\"],\"license\":\"MIT\"},\"node_modules/@bananapus/core/src/interfaces/IJBPermissioned.sol\":{\"keccak256\":\"0x5b038d4dee116584e88b230920e56d48e135053e3f7e5642eaea14a775c1dad7\",\"urls\":[\"bzz-raw://19e43102f349fd4a1da1c0943ffb8f2950007fe4bb4bb7e8f74fc142575d091b\",\"dweb:/ipfs/QmXHAt4KzDTdDZgDDefEXH2WKi7NcfkJb9R7nxW5uDqsNp\"],\"license\":\"MIT\"},\"node_modules/@bananapus/core/src/interfaces/IJBPermissions.sol\":{\"keccak256\":\"0x18870e500edf0fbadc353e273a5574701fb80466376b908c65e7cc3f11044d4d\",\"urls\":[\"bzz-raw://352a47c45853aec80e7acf0d286ade3106eb4cb456776b28a3c2f3f1091bed90\",\"dweb:/ipfs/QmQeYd3YbudYZy2hfbfht9kwhxhw4tuuLKMEYy9UY6dcSy\"],\"license\":\"MIT\"},\"node_modules/@bananapus/core/src/interfaces/IJBPriceFeed.sol\":{\"keccak256\":\"0x4bd84c0f1a5d4729ed709bcddd43f4c50ec4a165ece79780af8dce482ed07d4a\",\"urls\":[\"bzz-raw://62bac4bfb6982fb002f620c77e5c445e62d50241a5aa64a07e51d929f5a42180\",\"dweb:/ipfs/QmWgJUDreVY2BuMX38a1iUUR5kNbMwGnKG3VvurB7oZtuM\"],\"license\":\"MIT\"},\"node_modules/@bananapus/core/src/interfaces/IJBPrices.sol\":{\"keccak256\":\"0x99525f31440b955742dce84ba57de9fc1221139b5367c1f834723bef9e13e6e1\",\"urls\":[\"bzz-raw://6fa03f0cd4ad87dd7cbae7bf7f54463450874291773c8f70f2c31ef2cae62bb0\",\"dweb:/ipfs/QmSPajPV5ismteJuB6Spzm9VmhTj2iS3eVrfpJC1Zuzg8n\"],\"license\":\"MIT\"},\"node_modules/@bananapus/core/src/interfaces/IJBProjects.sol\":{\"keccak256\":\"0x85539f72c5871c53a919edc7db78931155464e9e00fccd30079b17e75820ddb9\",\"urls\":[\"bzz-raw://505466dbfbdeec77f948ce065676897a5b4a74b70bb234c1053b893c4849f3a1\",\"dweb:/ipfs/QmYBpZQub3Mv19xsRWqvzgiQSBAp4UNaKcqWQ2wwH62H95\"],\"license\":\"MIT\"},\"node_modules/@bananapus/core/src/interfaces/IJBRedeemHook.sol\":{\"keccak256\":\"0x4ea5b7ed510c9d29aca47ae3f8b41ef075dff4b9909779ec2c0e5b7bc30250c6\",\"urls\":[\"bzz-raw://770b785134ba71e3284dc7e05e44f429e7a8393423ad45cf8fe540408a5b9633\",\"dweb:/ipfs/QmRjXJxZPA1qZos7QjeCxJZ8sCfXfkyDFbzkdqzaqCD9Ds\"],\"license\":\"MIT\"},\"node_modules/@bananapus/core/src/interfaces/IJBRulesetApprovalHook.sol\":{\"keccak256\":\"0x5e9f921a6aa5d9396a12bbc0a878c3f5e8ae0a4ce8a3abe0de12e300718838d7\",\"urls\":[\"bzz-raw://6c9f0610f5bbe07554a1bdc39041be1284c20d81d930bec1eee2d374b86e03f4\",\"dweb:/ipfs/QmPH57wBoPERwDWkBCcj9c5tEUdeeLNe2kv1oFM7cTKVrd\"],\"license\":\"MIT\"},\"node_modules/@bananapus/core/src/interfaces/IJBRulesetDataHook.sol\":{\"keccak256\":\"0x3fea9fcab6f0335e67f0f052cf5d3446e9310808f88b5878d21586be00f89f85\",\"urls\":[\"bzz-raw://5506848f471d308a14523f91202d76d960f8255e227d29d34b0892ef70315cae\",\"dweb:/ipfs/QmakRKFctSZobpem1caU2zXqhiPQnaYVa7Y6NdAPAonHaU\"],\"license\":\"MIT\"},\"node_modules/@bananapus/core/src/interfaces/IJBRulesets.sol\":{\"keccak256\":\"0xda1a9aef337cf9fede3f638ffa58aea2815b87fde0f79628834aa03af9f582d7\",\"urls\":[\"bzz-raw://7941690ba6d94500474978ff0f02ecc56335eae5937759878e25cc1ac30a8ecc\",\"dweb:/ipfs/QmZFc7wof6PzfBTkVyNkjaQrQbjc36CK4uC3Ee2vgihqyK\"],\"license\":\"MIT\"},\"node_modules/@bananapus/core/src/interfaces/IJBTokenUriResolver.sol\":{\"keccak256\":\"0xfa5cb00dcd6085d1ef912d071fe73c63f9478a2cd0f9d8bddaf659b6af2d0967\",\"urls\":[\"bzz-raw://282e4e7c342d65f77cde0e9a08fcaf20ef5cf379c7a48b639842c0ffd0b2afb8\",\"dweb:/ipfs/QmbnN3PEQeZaXdPLT75V1J79kMg7KqSMru37RHrL3z8Yf2\"],\"license\":\"MIT\"},\"node_modules/@bananapus/core/src/interfaces/terminal/IJBTerminal.sol\":{\"keccak256\":\"0x36f23bc27e56fa86d100281a75f5a6ce73f39f32e6a1667ce69f902da1d005ee\",\"urls\":[\"bzz-raw://e8ffa2e264fa12444799cb5706ca577034f3f8be9ff7a2f072981de6a61d706d\",\"dweb:/ipfs/QmR6gQDymvk8JQ77J8VxpFD1Hnxga4w7LLiRvAT3m4LG6T\"],\"license\":\"MIT\"},\"node_modules/@bananapus/core/src/libraries/JBConstants.sol\":{\"keccak256\":\"0x9d3a9a953f859d8ec79a599577f8972de6da7199cc1bfa7fdad017d4d722bcb4\",\"urls\":[\"bzz-raw://f151fcb53a8d2684eff8b9e56ac790bcbcadd8199a4fd4d17c5b224b22936722\",\"dweb:/ipfs/QmdAz1ZtCE8nTiC4AxQNLfJhnY3ndGum2Lbef7seKdvTdR\"],\"license\":\"MIT\"},\"node_modules/@bananapus/core/src/libraries/JBMetadataResolver.sol\":{\"keccak256\":\"0xdbe40563934ac1618c9ba15f92d3efc47383534b5b8889bf5aae092927be9e87\",\"urls\":[\"bzz-raw://630534d226e7b1f86907f48c70b0d5593ad5682936330fe2737082e4383e8a56\",\"dweb:/ipfs/QmfTVQ6M3eVYBJRZH3693Axo7yBoR5mr2YvHHwx6nvJojZ\"],\"license\":\"MIT\"},\"node_modules/@bananapus/core/src/libraries/JBRulesetMetadataResolver.sol\":{\"keccak256\":\"0x83f25c531d9e212379b4326fd93bf658a0f6d0e839bbd67bff7b66b9b55fb670\",\"urls\":[\"bzz-raw://3eb4a41ececec705febac7b799d7224e67f12761ae3975d49dd8bddaac608ecd\",\"dweb:/ipfs/QmNgL5VccDhP5xofEcGWNKk3v4KG23wGF9vc3d4YJ5MLnv\"],\"license\":\"MIT\"},\"node_modules/@bananapus/core/src/structs/JBAccountingContext.sol\":{\"keccak256\":\"0x2907ff54d1e903cc7e0390dd88c3975884702dc2673642aacbe22b66560b56de\",\"urls\":[\"bzz-raw://a66a5381ce877b32f0e0058ceeaf843e9b6b2bc8af666c0c9f4a9d01091da004\",\"dweb:/ipfs/QmQynCetUr37dBkS1YwDS8evxuXGiqanW6THmeUxXtim8w\"],\"license\":\"MIT\"},\"node_modules/@bananapus/core/src/structs/JBAfterPayRecordedContext.sol\":{\"keccak256\":\"0xd26c3a774ff38be79064085970454fe2603a23a638c76270d5b1b3829206c3e8\",\"urls\":[\"bzz-raw://3b55dbe3bf1ef625b7ca04efab3de35406e6041d5b3d82c7265469c500e2b702\",\"dweb:/ipfs/QmUdBDo4Lt3mcsFcsXT2mqq3czFwZjQJFPLM89YA2VtD7k\"],\"license\":\"MIT\"},\"node_modules/@bananapus/core/src/structs/JBAfterRedeemRecordedContext.sol\":{\"keccak256\":\"0x521f5d23a36f0da72362cd84890cc867bd83baa8dc836ba6c5066d51dba2f163\",\"urls\":[\"bzz-raw://6cc461313286dde62d045d6288e87bae5032e035796326f5b1ed6218e58aa9da\",\"dweb:/ipfs/QmQS2AkQwf2ANQieDuaUnpJEdXChoLv4CCbZqHkfywYPSR\"],\"license\":\"MIT\"},\"node_modules/@bananapus/core/src/structs/JBBeforePayRecordedContext.sol\":{\"keccak256\":\"0x5b04e814da83c7e83ff892ab07eaad6abce6f7b85a75f8da9380e9fc3470bc81\",\"urls\":[\"bzz-raw://11c889aab993fce3e3cc2dedc15fc30dd367e7fef9b7b1bfd6a6a9f248781731\",\"dweb:/ipfs/QmVVtydCD1azeWhGLxA1hthxfLyKzMHZ1eVzCz3a3R5dLy\"],\"license\":\"MIT\"},\"node_modules/@bananapus/core/src/structs/JBBeforeRedeemRecordedContext.sol\":{\"keccak256\":\"0x73eadaf6827e82f6ccbe3a1e2b2b7fc6c59cef471f73335041b30ddcc000989d\",\"urls\":[\"bzz-raw://2f3ee84662eed565dbdaed406ef836fffaf55cccd417575578152e5085d0b1f2\",\"dweb:/ipfs/QmaJGFS7hxJsiUdKvbv5BKhSwceDEzKBnt7t5YeNWvYgMK\"],\"license\":\"MIT\"},\"node_modules/@bananapus/core/src/structs/JBPayHookSpecification.sol\":{\"keccak256\":\"0x955f0bfca97300b9e5927dc181753830ee362f83fa9ca32a90daade32aa0cfd5\",\"urls\":[\"bzz-raw://f517af1597c7c40f8d3da53f7a6684a3e162950a16559d6bf6ea3b727bb11546\",\"dweb:/ipfs/QmRWo2ZTYXmVZTzNJDYhsJNsEaHphjpUfx9eNz2cciyz86\"],\"license\":\"MIT\"},\"node_modules/@bananapus/core/src/structs/JBPermissionsData.sol\":{\"keccak256\":\"0x8f0f69a6ebf5f3704e3dfcb3712fb9d3f94ae7c1ab89bf3e37bad42a3e7a0487\",\"urls\":[\"bzz-raw://57b0c5e52843e2217082889ed47b4da3943e0da4590d5768dcebfe3edad4a6b8\",\"dweb:/ipfs/QmRz48vuWLw81kUP836rh1qzqWiJFGbksgRUA9xGEDNKTY\"],\"license\":\"MIT\"},\"node_modules/@bananapus/core/src/structs/JBRedeemHookSpecification.sol\":{\"keccak256\":\"0x673d16ee1a91bf8de3b37e57284e60451b70a9c2d748c9cdc7a151f5624af18f\",\"urls\":[\"bzz-raw://ceeb5e81effa0f076c5630c756dfcf1548d09f822b255a0a6ee01e54de8c8ae2\",\"dweb:/ipfs/QmSMoMNPRhPMnuJNvWa6S59XRfycGz9o2ApNp63bUW6TdX\"],\"license\":\"MIT\"},\"node_modules/@bananapus/core/src/structs/JBRuleset.sol\":{\"keccak256\":\"0x15b2bf3174d84846a91ccbf5a344dfb125b55ed9cf50102db8d6868844225189\",\"urls\":[\"bzz-raw://647416b025dbd941094db89cbc69f755c155bd6c87be3f322394ccc4a8e0442d\",\"dweb:/ipfs/QmTCL9xcHnxQ4t5AmCPoZvXDUPW5xhzhyyXYbkMdyg44au\"],\"license\":\"MIT\"},\"node_modules/@bananapus/core/src/structs/JBRulesetMetadata.sol\":{\"keccak256\":\"0xfea54c9f98416d2aa05309e7ff76967d6968a614850a1e33e48fde793ea8b514\",\"urls\":[\"bzz-raw://bf55386cbab90dbc1296b2b0cbfdc217a4500d67702e4a093a4c78bd127ecd5c\",\"dweb:/ipfs/QmTRq9mZrNSXu7oCZwti4JbBFrbY6A5msRqi9RbtL49NAj\"],\"license\":\"MIT\"},\"node_modules/@bananapus/core/src/structs/JBTokenAmount.sol\":{\"keccak256\":\"0x5cf0626b73a596c1e2da17c89ae039a7c0374310b060d48568d3b6c11fbe6180\",\"urls\":[\"bzz-raw://63348b50be95e2995409394a17caffc563a646f0972650a1230bf864fbd3219b\",\"dweb:/ipfs/QmZXZpS3SbFD5nWaCauf6AqbEhLURv5qsKHpThBvQgDU6u\"],\"license\":\"MIT\"},\"node_modules/@bananapus/ownable/src/JBOwnable.sol\":{\"keccak256\":\"0x236a051b43a1ae4fd1bf88951a6ec3d593915097fc51fa0660231ad9ea58cd6e\",\"urls\":[\"bzz-raw://afa6177a5387d5dd0ab151062d2c59e068ab0cd6a47042cfde7914434aaa9a42\",\"dweb:/ipfs/QmWh263zrJvL9PeCWCJ7RxXqcSfEikYvEmaWCVpPDGSzhN\"],\"license\":\"MIT\"},\"node_modules/@bananapus/ownable/src/JBOwnableOverrides.sol\":{\"keccak256\":\"0x03ce5433d26386f961f967c2bd90b60ff46216486420990bdd2ebd5977269f6a\",\"urls\":[\"bzz-raw://896648c0a51a80aab7f7aae093d59bd6401641663c01554b1613a37377fa0e60\",\"dweb:/ipfs/QmaM9TMmDPmTWTqLSo5EcmJ9rTyCHrDAFQ28cWTp95Wgo2\"],\"license\":\"MIT\"},\"node_modules/@bananapus/ownable/src/interfaces/IJBOwnable.sol\":{\"keccak256\":\"0x2c513558439d763df03e8a68c1aef698618182fd44c285405c35597d52c65ad1\",\"urls\":[\"bzz-raw://11cc25c41fccc20cca29f93dd120e67760188fd2040ef0330a093d37fbfa2f8f\",\"dweb:/ipfs/QmWpxcv41eYmsNYT3ph1nts5pC7sp3EzwJxKDGebMqEbsH\"],\"license\":\"MIT\"},\"node_modules/@bananapus/ownable/src/struct/JBOwner.sol\":{\"keccak256\":\"0x5624ba356f01f722984c1b857a106f413b12e57bae1f762a81c16ee511e3325a\",\"urls\":[\"bzz-raw://3120b5649ac8b55158df138dcac03f6850fc988cc5a24a7cb06e6581265ca284\",\"dweb:/ipfs/QmQBSLxRT9j1MEERUt8dWbSsAjianbHpM2CFwciLK7MwaP\"],\"license\":\"MIT\"},\"node_modules/@bananapus/permission-ids/src/JBPermissionIds.sol\":{\"keccak256\":\"0xcc68735b4c801e953cb7962e069933f369515e7a4a09aea5b2170a268125a898\",\"urls\":[\"bzz-raw://e51f839d96be200efeca40ca4fb1d5b6096303564cdde5cf67aecf58e2d36db3\",\"dweb:/ipfs/QmRnJ5s974eUeyvTuLUpt4TK8t5TjVmz7DyDSAKxgYTnA5\"],\"license\":\"UNLICENSED\"},\"node_modules/@openzeppelin/contracts/interfaces/IERC2981.sol\":{\"keccak256\":\"0x89b84f7b1b2d6c294cd6b9a9f661c1cfb1b9b10ca7bac5b3445850a8ce96dcf1\",\"urls\":[\"bzz-raw://44f961aefa43a50c94d8b68e749235b2cf3bd1de18bf6f2e5e1c0fd9a59e06ea\",\"dweb:/ipfs/QmNzd2bnJidavPtt2hQ1em387T6W37n3kDx8WrneCZozxV\"],\"license\":\"MIT\"},\"node_modules/@openzeppelin/contracts/interfaces/draft-IERC6093.sol\":{\"keccak256\":\"0x60c65f701957fdd6faea1acb0bb45825791d473693ed9ecb34726fdfaa849dd7\",\"urls\":[\"bzz-raw://ea290300e0efc4d901244949dc4d877fd46e6c5e43dc2b26620e8efab3ab803f\",\"dweb:/ipfs/QmcLLJppxKeJWqHxE2CUkcfhuRTgHSn8J4kijcLa5MYhSt\"],\"license\":\"MIT\"},\"node_modules/@openzeppelin/contracts/token/ERC721/IERC721.sol\":{\"keccak256\":\"0x5ef46daa3b58ef2702279d514780316efaa952915ee1aa3396f041ee2982b0b4\",\"urls\":[\"bzz-raw://2f8f2a76e23b02fc69e8cd24c3cb47da6c7af3a2d6c3a382f8ac25c6e094ade7\",\"dweb:/ipfs/QmPV4ZS4tPVv4mTCf9ejyZ1ai57EEibDRj7mN2ARDCLV5n\"],\"license\":\"MIT\"},\"node_modules/@openzeppelin/contracts/token/ERC721/IERC721Receiver.sol\":{\"keccak256\":\"0x7f7a26306c79a65fb8b3b6c757cd74660c532cd8a02e165488e30027dd34ca49\",\"urls\":[\"bzz-raw://d01e0b2b837ee2f628545e54d8715b49c7ef2befd08356c2e7f6c50dde8a1c22\",\"dweb:/ipfs/QmWBAn6y2D1xgftci97Z3qR9tQnkvwQpYwFwkTvDMvqU4i\"],\"license\":\"MIT\"},\"node_modules/@openzeppelin/contracts/token/ERC721/extensions/IERC721Metadata.sol\":{\"keccak256\":\"0x37d1aaaa5a2908a09e9dcf56a26ddf762ecf295afb5964695937344fc6802ce1\",\"urls\":[\"bzz-raw://ed0bfc1b92153c5000e50f4021367b931bbe96372ac6facec3c4961b72053d02\",\"dweb:/ipfs/Qmbwp8VDerjS5SV1quwHH1oMXxPQ93fzfLVqJ2RCqbowGE\"],\"license\":\"MIT\"},\"node_modules/@openzeppelin/contracts/utils/Context.sol\":{\"keccak256\":\"0x493033a8d1b176a037b2cc6a04dad01a5c157722049bbecf632ca876224dd4b2\",\"urls\":[\"bzz-raw://6a708e8a5bdb1011c2c381c9a5cfd8a9a956d7d0a9dc1bd8bcdaf52f76ef2f12\",\"dweb:/ipfs/Qmax9WHBnVsZP46ZxEMNRQpLQnrdE4dK8LehML1Py8FowF\"],\"license\":\"MIT\"},\"node_modules/@openzeppelin/contracts/utils/Strings.sol\":{\"keccak256\":\"0x55f102ea785d8399c0e58d1108e2d289506dde18abc6db1b7f68c1f9f9bc5792\",\"urls\":[\"bzz-raw://6e52e0a7765c943ef14e5bcf11e46e6139fa044be564881378349236bf2e3453\",\"dweb:/ipfs/QmZEeeXoFPW47amyP35gfzomF9DixqqTEPwzBakv6cZw6i\"],\"license\":\"MIT\"},\"node_modules/@openzeppelin/contracts/utils/introspection/ERC165.sol\":{\"keccak256\":\"0x9e8778b14317ba9e256c30a76fd6c32b960af621987f56069e1e819c77c6a133\",\"urls\":[\"bzz-raw://1777404f1dcd0fac188e55a288724ec3c67b45288e49cc64723e95e702b49ab8\",\"dweb:/ipfs/QmZFdC626GButBApwDUvvTnUzdinevC3B24d7yyh57XkiA\"],\"license\":\"MIT\"},\"node_modules/@openzeppelin/contracts/utils/introspection/IERC165.sol\":{\"keccak256\":\"0x4296879f55019b23e135000eb36896057e7101fb7fb859c5ef690cf14643757b\",\"urls\":[\"bzz-raw://87b3541437c8c443ccd36795e56a338ed12855eec17f8da624511b8d1a7e14df\",\"dweb:/ipfs/QmeJQCtZrQjtJLr6u7ZHWeH3pBnjtLWzvRrKViAi7UZqxL\"],\"license\":\"MIT\"},\"node_modules/@openzeppelin/contracts/utils/math/Math.sol\":{\"keccak256\":\"0x005ec64c6313f0555d59e278f9a7a5ab2db5bdc72a027f255a37c327af1ec02d\",\"urls\":[\"bzz-raw://4ece9f0b9c8daca08c76b6b5405a6446b6f73b3a15fab7ff56e296cbd4a2c875\",\"dweb:/ipfs/QmQyRpyPRL5SQuAgj6SHmbir3foX65FJjbVTTQrA2EFg6L\"],\"license\":\"MIT\"},\"node_modules/@openzeppelin/contracts/utils/math/SignedMath.sol\":{\"keccak256\":\"0x5f7e4076e175393767754387c962926577f1660dd9b810187b9002407656be72\",\"urls\":[\"bzz-raw://7d533a1c97cd43a57cd9c465f7ee8dd0e39ae93a8fb8ff8e5303a356b081cdcc\",\"dweb:/ipfs/QmVBEei6aTnvYNZp2CHYVNKyZS4q1KkjANfY39WVXZXVoT\"],\"license\":\"MIT\"},\"node_modules/@prb/math/src/Common.sol\":{\"keccak256\":\"0xaa374e2c26cc93e8c22a6953804ee05f811597ef5fa82f76824378b22944778b\",\"urls\":[\"bzz-raw://279c732e161d623cf4d8a9519ca4c42c0c2db99842d0eb2a20c10fde3fa722c9\",\"dweb:/ipfs/QmVViuUXbinQGqtG5M21SgVzKihiCbFUChd4tDhtvwRmxH\"],\"license\":\"MIT\"},\"src/JB721TiersHook.sol\":{\"keccak256\":\"0xcda125ab2de0a0f282c4f7bc28b29b924abe2751b930beb7b4805a4d6c3d34f5\",\"urls\":[\"bzz-raw://9e7781eb9f4ff1e9421ea1c0b8860ef8d28b69a7e96e74601a734eef1ac680b2\",\"dweb:/ipfs/QmQs4qzE3VAJTk6BgvvYcQ9BSzPARbYmABgkrAaNQN9NT7\"],\"license\":\"MIT\"},\"src/abstract/ERC721.sol\":{\"keccak256\":\"0xc25c7c60c88684adc3f7a49621d27866866a44a3f3796e63c9fcaba75fbb2e84\",\"urls\":[\"bzz-raw://713103b7a05402264493430cfcd7d85f1a241a2eb4756af53a370fa529ea07bf\",\"dweb:/ipfs/QmSXZfxCG1N9XheS1kLCNJZ9k6ZRq4GnAMY7MKFfbKLXmz\"],\"license\":\"MIT\"},\"src/abstract/JB721Hook.sol\":{\"keccak256\":\"0x35136dd0973ef31fdfa1479392a3b29c3fca229ade4d149577d6c91e5be0022a\",\"urls\":[\"bzz-raw://ab906bde51cd3a485b4792984aab95e96bd5261d57d4298e255bc4c76099d12b\",\"dweb:/ipfs/QmXGvz8SV3eDLVSDNEEHn9hLVnrtvfKcGM7wvPj9Pj7mbs\"],\"license\":\"MIT\"},\"src/interfaces/IJB721Hook.sol\":{\"keccak256\":\"0x6cc09b57796ce71a103adb88ee851a9e2f4b5dc42cf7e153371e5c2157c4444d\",\"urls\":[\"bzz-raw://a2d0518c1f6803ab197049839de78debdd97908aa0fc7e44c6742ee209587b46\",\"dweb:/ipfs/QmXzoxr3DNH3NpwvTmRJcwKXFwUZQzCbAeTVh4NZzJedb7\"],\"license\":\"MIT\"},\"src/interfaces/IJB721TiersHook.sol\":{\"keccak256\":\"0xae662e642cb039931f0cac1a73e3c6b6833cf5edb6c5e3d4864f37cb07791684\",\"urls\":[\"bzz-raw://0942d829b0ba82ececd6de9148c6f3e85c0ecf398d23358086434e31e792b68b\",\"dweb:/ipfs/QmPdtTtoawqq2yTHBhqfs72DVHAQ3dbrjDGnQ3NmkHzLer\"],\"license\":\"MIT\"},\"src/interfaces/IJB721TiersHookStore.sol\":{\"keccak256\":\"0x8550e216c12c9cda865c1b1b0eb3f244aeaa8d465b197d4bd0dd8d4df265682e\",\"urls\":[\"bzz-raw://674a312f1eaffd7c6b21f58f8d4a628104e71220daf48a22237fa3bd035ddf21\",\"dweb:/ipfs/QmSRSW6cSwdpoGjVxDqiwJmJyCxfHWhCxZ2iaqeJcN2Ccy\"],\"license\":\"MIT\"},\"src/interfaces/IJB721TokenUriResolver.sol\":{\"keccak256\":\"0xfa599167098f4459320ec4141a98a17b2dfffbce422baa27d8b4e4530f61ece1\",\"urls\":[\"bzz-raw://8b758b161f4c7b520b2c34b4d91e585e961b8f4ca278eebb91d791f7f2f45140\",\"dweb:/ipfs/QmcD9DF7NJ9QykQpT4KPzm4bs3fkjzukdAUWwdU6Atfw85\"],\"license\":\"MIT\"},\"src/libraries/JB721TiersRulesetMetadataResolver.sol\":{\"keccak256\":\"0xe1e224860fce816c0566c4b22044eb2f5a767a09764d00482b954733bf18e51e\",\"urls\":[\"bzz-raw://043663de2a9c7e822e947e0b68833e77985d493bebcb48f86bf1b67f937417fc\",\"dweb:/ipfs/QmXVXPdpLfmT2a97gUQ5d2XSsHXhgpiTfs7w2ZtoD55uAd\"],\"license\":\"MIT\"},\"src/libraries/JBIpfsDecoder.sol\":{\"keccak256\":\"0xb93ba562ac1fc9d3829be00e61f3a90f51df5661cf0f2c819a7f1d8ba19ec171\",\"urls\":[\"bzz-raw://fc9bc948fac8897d9720ef25b13d63c60b40a18aa1897dd1c657fc278c416b4f\",\"dweb:/ipfs/QmNtiJTALZW5zfyKVy7XG5GkqGgMrfkVvU4Auu4bb9cGQc\"],\"license\":\"MIT\"},\"src/structs/JB721InitTiersConfig.sol\":{\"keccak256\":\"0xfb78486cec94189d0ecf2050dc9cfc11245b426c73a0711a85bff1359d774307\",\"urls\":[\"bzz-raw://a8fa01f6e64dd204dbde07a60851e9a5a74e439e1411139ae16b7cf67d2a2692\",\"dweb:/ipfs/QmZAnHyfpKr3xr7NWHj5sGaCEEtG8RtmHhkRUJJvNauym5\"],\"license\":\"MIT\"},\"src/structs/JB721Tier.sol\":{\"keccak256\":\"0x2e267a8af02f125465cdda9308477346ae4a94b024c3b2c2a6af0c00027944dd\",\"urls\":[\"bzz-raw://367ccea2c8fa815d498d771d4367ef1ded718a76e89644102034bfe4a3636b82\",\"dweb:/ipfs/QmYiFFa6ei9wZBSSVUHfY2Cb35zCDVXvbmLcgLj2BTiC1u\"],\"license\":\"MIT\"},\"src/structs/JB721TierConfig.sol\":{\"keccak256\":\"0x2fa9c5c8cec182b854a656d3b284e9d5306be35ad3dc4da79d65dca12b804af0\",\"urls\":[\"bzz-raw://b443a5f70195a66145ea1dade04454ce9a3ff1209e1aaecf53c8a9909b294d79\",\"dweb:/ipfs/QmUDPFZ4L6XpV3zLQUNVchUvecD4XfddKz2S46BKek5XL1\"],\"license\":\"MIT\"},\"src/structs/JB721TiersHookFlags.sol\":{\"keccak256\":\"0x283d8429f31bd58875c056515aa42abd09c95362bd929e85cfc44a0d92585766\",\"urls\":[\"bzz-raw://9a580b89fe99d9f8e930c58a4d0d63a5ff7c01c79d210af01373d066c9e72ed6\",\"dweb:/ipfs/QmdY1eSGSoTjv4KSdsG4Tm5CzJN6iqk3qTRga5ZWNbejRz\"],\"license\":\"MIT\"},\"src/structs/JB721TiersMintReservesConfig.sol\":{\"keccak256\":\"0xab3b319dc4e736586ae595de194d93dcdfeba365bc7a54cf6c37e697f6074ad9\",\"urls\":[\"bzz-raw://a84ae2cf2e8c3e39e831dbb39a67a8eb43c78a6de6bb78b1be2e1f1e80c69efe\",\"dweb:/ipfs/QmboGXEMqsYTxc4a7oft9rggNU7ShWSa9yB4HFMVmzXCHz\"],\"license\":\"MIT\"},\"src/structs/JB721TiersRulesetMetadata.sol\":{\"keccak256\":\"0x6720a6ada2a882f99afa050e40b6c925439da4339240565a0e706521b3aadc6b\",\"urls\":[\"bzz-raw://ede4a3165276d9d89eeea2dfd56f68d77dbfaedb738b30c8a0faa81c3a153b1b\",\"dweb:/ipfs/QmXa4QCb6K9MXxwNKed17VWeX9crKeMjkQnVk2xMARzh76\"],\"license\":\"MIT\"}},\"version\":1}",
			"args": [
				"0x18017cfeD48E1dC0Adc445cEF8A9e6AfFCb330DA",
				"0xBA24624AE5dc821866E9E71Ed050412Ef01E2fe6"
			],
			"bytecode": "0x6101006040523480156200001257600080fd5b5060405162005e6c38038062005e6c833981016040819052620000359162000358565b81826001600160a01b031663293c49996040518163ffffffff1660e01b8152600401602060405180830381865afa15801562000075573d6000803e3d6000fd5b505050506040513d601f19601f820116820180604052508101906200009b919062000397565b6001600160a01b03808416608052811660a052828181620000bc33620000d8565b505050506001600160a01b031660c05250503060e052620003be565b620000e5816000620000e8565b50565b6001600160581b038116158015906200010957506001600160a01b03821615155b15620001285760405163ecb9b1c760e01b815260040160405180910390fd5b60408051606081018252600080546001600160a01b0381168352600160a01b81046001600160581b031660208401819052600160f81b90910460ff1693830193909352909115620001f75760a05160208301516040516331a9108f60e11b81526001600160581b0390911660048201526001600160a01b0390911690636352211e90602401602060405180830381865afa158015620001cb573d6000803e3d6000fd5b505050506040513d601f19601f82011682018060405250810190620001f1919062000397565b620001fa565b81515b604080516060810182526001600160a01b0387168082526001600160581b0387166020830181905260009290930182905281547fff000000000000000000000000000000000000000000000000000000000000001617600160a01b8302176001600160f81b03169055909150620002f890829015620002f15760a0516040516331a9108f60e11b81526001600160581b03871660048201526001600160a01b0390911690636352211e90602401602060405180830381865afa158015620002c5573d6000803e3d6000fd5b505050506040513d601f19601f82011682018060405250810190620002eb919062000397565b620002fe565b85620002fe565b50505050565b806001600160a01b0316826001600160a01b03167f8be0079c531659141344cd1fd0a4f28419497f9722a3daafe3b4186f6b6457e060405160405180910390a35050565b6001600160a01b0381168114620000e557600080fd5b600080604083850312156200036c57600080fd5b8251620003798162000342565b60208401519092506200038c8162000342565b809150509250929050565b600060208284031215620003aa57600080fd5b8151620003b78162000342565b9392505050565b60805160a05160c05160e051615a3c62000430600039600061064a01526000818161067e0152818161117f0152611eef0152600081816104570152818161170c01528181612aaa01528181612bfc0152612d1401526000818161093f01528181612362015261240b0152615a3c6000f3fe6080604052600436106102e75760003560e01c8063715018a611610184578063c07f2f9b116100d6578063e8a3d4851161008a578063f3c5788111610064578063f3c578811461091a578063f434c9141461092d578063fef508481461096157600080fd5b8063e8a3d4851461089c578063e985e9c5146108b1578063f2fde38b146108fa57600080fd5b8063c87b56dd116100bb578063c87b56dd1461082f578063d4a1b4b11461084f578063d95c9ae21461086f57600080fd5b8063c07f2f9b146107ef578063c0fb5e851461080f57600080fd5b8063a220d69611610138578063ade032ff11610112578063ade032ff1461073a578063b88d4fde1461075a578063ba23c36e1461077a57600080fd5b8063a220d696146106ca578063a22cb465146106ea578063aaf320d71461070a57600080fd5b806388bc2ef31161016957806388bc2ef31461066c5780638da5cb5b146106a057806395d89b41146106b557600080fd5b8063715018a6146106235780637bf94ac51461063857600080fd5b80634c4ffc711161023d57806366ec4cb4116101f15780636ac6d941116101cb5780636ac6d941146105c15780636c0360eb146105ee57806370a082311461060357600080fd5b806366ec4cb41461056b578063677ce0881461057e57806368f9c6bc146105a157600080fd5b806354c6d1f51161022257806354c6d1f51461050b578063613b856d1461052b5780636352211e1461054b57600080fd5b80634c4ffc71146104bd578063507f1465146104eb57600080fd5b80631435aad51161029f578063293c499911610279578063293c4999146104455780633fafa1271461047957806342842e0e1461049d57600080fd5b80631435aad5146103e55780631c52730b1461040557806323b872dd1461042557600080fd5b8063081812fc116102d0578063081812fc1461034357806308786b1a1461037b578063095ea7b3146103c357600080fd5b806301ffc9a7146102ec57806306fdde0314610321575b600080fd5b3480156102f857600080fd5b5061030c610307366004613f98565b610981565b60405190151581526020015b60405180910390f35b34801561032d57600080fd5b506103366109c5565b6040516103189190614005565b34801561034f57600080fd5b5061036361035e366004614018565b610a57565b6040516001600160a01b039091168152602001610318565b34801561038757600080fd5b5060095463ffffffff811690602081901c60ff169060281c6040805193845260208401929092526001600160a01b031690820152606001610318565b3480156103cf57600080fd5b506103e36103de366004614056565b610a80565b005b3480156103f157600080fd5b506103e36104003660046140c4565b610a8f565b34801561041157600080fd5b506103e361042036600461415a565b610ce5565b34801561043157600080fd5b506103e36104403660046141cf565b610d3e565b34801561045157600080fd5b506103637f000000000000000000000000000000000000000000000000000000000000000081565b34801561048557600080fd5b5061048f60075481565b604051908152602001610318565b3480156104a957600080fd5b506103e36104b83660046141cf565b610de1565b3480156104c957600080fd5b506104dd6104d8366004614210565b610e01565b60405161031892919061424c565b3480156104f757600080fd5b50600a54610363906001600160a01b031681565b34801561051757600080fd5b50610363610526366004614018565b610ea8565b34801561053757600080fd5b506103e36105463660046142dd565b610eec565b34801561055757600080fd5b50610363610566366004614018565b61114b565b6103e3610579366004614318565b611156565b34801561058a57600080fd5b5061030c61059936600461434d565b600092915050565b3480156105ad57600080fd5b5061048f6105bc366004614490565b61137e565b3480156105cd57600080fd5b506105e16105dc366004614593565b61140b565b6040516103189190614626565b3480156105fa57600080fd5b5061033661155e565b34801561060f57600080fd5b5061048f61061e366004614639565b6115ec565b34801561062f57600080fd5b506103e361167b565b34801561064457600080fd5b506103637f000000000000000000000000000000000000000000000000000000000000000081565b34801561067857600080fd5b506103637f000000000000000000000000000000000000000000000000000000000000000081565b3480156106ac57600080fd5b50610363611690565b3480156106c157600080fd5b50610336611785565b3480156106d657600080fd5b506103e36106e5366004614018565b611794565b3480156106f657600080fd5b506103e361070536600461466f565b6117df565b34801561071657600080fd5b5061072a61072536600461469d565b6117ea565b60405161031894939291906146d2565b34801561074657600080fd5b5061048f61075536600461469d565b61192b565b34801561076657600080fd5b506103e36107753660046147d3565b611975565b34801561078657600080fd5b506000546107bb906001600160a01b03811690600160a01b81046affffffffffffffffffffff1690600160f81b900460ff1683565b604080516001600160a01b0390941684526affffffffffffffffffffff909216602084015260ff1690820152606001610318565b3480156107fb57600080fd5b506103e361080a366004614ae7565b61198c565b34801561081b57600080fd5b506103e361082a366004614c08565b611c23565b34801561083b57600080fd5b5061033661084a366004614018565b611c34565b34801561085b57600080fd5b50600b54610363906001600160a01b031681565b34801561087b57600080fd5b5061048f61088a366004614639565b600c6020526000908152604090205481565b3480156108a857600080fd5b50610336611e80565b3480156108bd57600080fd5b5061030c6108cc366004614c23565b6001600160a01b03918216600090815260066020908152604080832093909416825291909152205460ff1690565b34801561090657600080fd5b506103e3610915366004614639565b611e8d565b6103e3610928366004614318565b611ec7565b34801561093957600080fd5b506103637f000000000000000000000000000000000000000000000000000000000000000081565b34801561096d57600080fd5b506103e361097c366004614c51565b611fb3565b60006001600160e01b031982167fc375dc530000000000000000000000000000000000000000000000000000000014806109bf57506109bf826121c4565b92915050565b6060600180546109d490614cec565b80601f0160208091040260200160405190810160405280929190818152602001828054610a0090614cec565b8015610a4d5780601f10610a2257610100808354040283529160200191610a4d565b820191906000526020600020905b815481529060010190602001808311610a3057829003601f168201915b5050505050905090565b6000610a62826122d2565b506000828152600560205260409020546001600160a01b03166109bf565b610a8b82823361230b565b5050565b610aa4610a9a611690565b6007546017612318565b8515610b0357600d610ab7878983614d70565b508686604051610ac8929190614e30565b604051908190038120338252907f7bc9110d5de090dd59e07912d2b93a5a27ac70a60c8d8e324db4f9ee8b8b5c139060200160405180910390a25b8315610b6257600e610b16858783614d70565b508484604051610b27929190614e30565b604051908190038120338252907fd36dc0c1a06103fdcaf15f3f6fb797d1a97997514c78de073640c8b5005454b89060200160405180910390a25b600a546001600160a01b039081169084163014610c135760405163036129cb60e61b81526001600160a01b03858116600483015282169063d84a72c090602401600060405180830381600087803b158015610bbc57600080fd5b505af1158015610bd0573d6000803e3d6000fd5b50506040513381526001600160a01b03871692507fe7784d93cfbfa4408e19577e6cc0436f4dbb51214b70e100905dfce9def88c16915060200160405180910390a25b8215801590610c2157508115155b15610cdb576040517f49bd1ac600000000000000000000000000000000000000000000000000000000815260048101849052602481018390526001600160a01b038216906349bd1ac690604401600060405180830381600087803b158015610c8857600080fd5b505af1158015610c9c573d6000803e3d6000fd5b5050604080518581523360208201528693507f677da4fed654db8e604791fa2582f342e2001aa217e27f6985eb3e0f67e5a7fc92500160405180910390a25b5050505050505050565b8060005b81811015610d38576000848483818110610d0557610d05614e40565b905060400201803603810190610d1b9190614e56565b9050610d2f81600001518260200151610eec565b50600101610ce9565b50505050565b6001600160a01b038216610d6d57604051633250574960e11b8152600060048201526024015b60405180910390fd5b6000610d7a8383336124af565b9050836001600160a01b0316816001600160a01b031614610d38576040517f64283d7b0000000000000000000000000000000000000000000000000000000081526001600160a01b0380861660048301526024820184905282166044820152606401610d64565b610dfc83838360405180602001604052806000815250611975565b505050565b6040805160018082528183019092526101208301359160609190816020015b60408051606080820183526000808352602083015291810191909152815260200190600190039081610e205790505090506040518060600160405280306001600160a01b03168152602001600081526020016040518060200160405280600081525081525081600081518110610e9857610e98614e40565b6020026020010181905250915091565b6000818152600860205260408120546001600160a01b03168015610ecc5792915050565b6000838152600360205260409020546001600160a01b03165b9392505050565b600b546007546040516321d1336160e11b815260048101919091526000916001600160a01b0316906343a266c29060240161012060405180830381865afa158015610f3b573d6000803e3d6000fd5b505050506040513d601f19601f82011682018060405250810190610f5f9190614eb0565b61010081015190915060f01c600190811603610fa7576040517f63a0ba3900000000000000000000000000000000000000000000000000000000815260040160405180910390fd5b600a546040517fbaa7e80e00000000000000000000000000000000000000000000000000000000815260048101859052602481018490526001600160a01b0390911690600090829063baa7e80e906044016000604051808303816000875af1158015611017573d6000803e3d6000fd5b505050506040513d6000823e601f3d908101601f1916820160405261103f9190810190614f9a565b6040517f03573004000000000000000000000000000000000000000000000000000000008152306004820152602481018790529091506000906001600160a01b03841690630357300490604401602060405180830381865afa1580156110a9573d6000803e3d6000fd5b505050506040513d601f19601f820116820180604052508101906110cd9190614fcf565b90506000805b86811015610cdb578381815181106110ed576110ed614e40565b602002602001015191506111018383612725565b6040513381526001600160a01b03841690899084907f80dd2efbbc431cde0164d84d638e44ba6e7a3ca5d532ceef1bb4efcc0948325d9060200160405180910390a46001016110d3565b60006109bf826122d2565b341515806111f45750600754604051636e49181f60e01b815260048101919091523360248201527f00000000000000000000000000000000000000000000000000000000000000006001600160a01b031690636e49181f90604401602060405180830381865afa1580156111ce573d6000803e3d6000fd5b505050506040513d601f19601f820116820180604052508101906111f29190614ff7565b155b806112055750600754816020013514155b1561123c576040517f835e522b00000000000000000000000000000000000000000000000000000000815260040160405180910390fd5b3060601b60008061128f836112556101e0870187615014565b8080601f0160208091040260200160405190810160405280939291908181526020018383808284376000920191909152506127a392505050565b91509150606082156112b257818060200190518101906112af9190614f9a565b90505b80516000805b8281101561136b578381815181106112d2576112d2614e40565b602002602001015191508760000160208101906112ef9190614639565b6001600160a01b0316611317836000908152600360205260409020546001600160a01b031690565b6001600160a01b03161461135a576040517f5caf197500000000000000000000000000000000000000000000000000000000815260048101839052602401610d64565b61136382612979565b6001016112b8565b50611375836129b4565b50505050505050565b600a546040517f144cc2d40000000000000000000000000000000000000000000000000000000081526000916001600160a01b03169063144cc2d4906113ca903090879060040161505b565b602060405180830381865afa1580156113e7573d6000803e3d6000fd5b505050506040513d601f19601f82011682018060405250810190610ee5919061507d565b6060611422611418611690565b6007546018612318565b600a5460405163eaa19ab360e01b81526001600160a01b039091169063eaa19ab39061145b906000199088908890600190600401615096565b6000604051808303816000875af115801561147a573d6000803e3d6000fd5b505050506040513d6000823e601f3d908101601f191682016040526114a291908101906150f5565b509050826000805b82811015611554578381815181106114c4576114c4614e40565b602002602001015191506114d88583612725565b846001600160a01b03168787838181106114f4576114f4614e40565b9050602002016020810190611509919061513c565b604080516000815233602082015261ffff929092169185917f598baf7bf150ca2f42be9e9f8f55e81d45f5715c3ff22bf46d697fabec7f31d6910160405180910390a46001016114aa565b5050509392505050565b600d805461156b90614cec565b80601f016020809104026020016040519081016040528092919081815260200182805461159790614cec565b80156115e45780601f106115b9576101008083540402835291602001916115e4565b820191906000526020600020905b8154815290600101906020018083116115c757829003601f168201915b505050505081565b600a546040517ff7888aec0000000000000000000000000000000000000000000000000000000081523060048201526001600160a01b038381166024830152600092169063f7888aec906044015b602060405180830381865afa158015611657573d6000803e3d6000fd5b505050506040513d601f19601f820116820180604052508101906109bf919061507d565b611683612a32565b61168e600080612b44565b565b60408051606081018252600080546001600160a01b0381168352600160a01b81046affffffffffffffffffffff1660208401819052600160f81b90910460ff16938301939093529182036116e45751919050565b60208101516040516331a9108f60e11b81526affffffffffffffffffffff90911660048201527f00000000000000000000000000000000000000000000000000000000000000006001600160a01b031690636352211e90602401602060405180830381865afa15801561175b573d6000803e3d6000fd5b505050506040513d601f19601f8201168201806040525081019061177f9190614fcf565b91505090565b6060600280546109d490614cec565b61179c612a32565b8015806117b357506affffffffffffffffffffff81115b156117d15760405163ecb9b1c760e01b815260040160405180910390fd5b6117dc600082612b44565b50565b610a8b338383612d92565b60008080606060808501351561182c576040517f4fc178d800000000000000000000000000000000000000000000000000000000815260040160405180910390fd5b3060601b600080611845836112556101808b018b615014565b604080516001808252818301909252929450909250816020015b6040805160608082018352600080835260208301529181019190915281526020019060019003908161185f5790505093506040518060600160405280306001600160a01b031681526020016000815260200160405180602001604052806000815250815250846000815181106118d7576118d7614e40565b60200260200101819052506060821561190157818060200190518101906118fe9190614f9a565b90505b61190b818a61137e565b96506119168961192b565b95508861016001359750505050509193509193565b600a546040517f2ae5e4920000000000000000000000000000000000000000000000000000000081523060048201526000916001600160a01b031690632ae5e4929060240161163a565b611980848484610d3e565b610d3884848484612e4a565b600a546001600160a01b0316156119a257600080fd5b6119ad8a8a8a612f6c565b600b80546001600160a01b03808a1673ffffffffffffffffffffffffffffffffffffffff1992831617909255600a8054928516929091169190911790556020808401516040850151606086015178ffffffffffffffffffffffffffffffffffffffff000000000060289190911b1664ff000000009190931b1663ffffffff90911617176009819055865115611a4a57600d611a488882615159565b505b845115611a5f57600e611a5d8682615159565b505b6001600160a01b03861615611aca5760405163036129cb60e61b81526001600160a01b03878116600483015284169063d84a72c090602401600060405180830381600087803b158015611ab157600080fd5b505af1158015611ac5573d6000803e3d6000fd5b505050505b83515115611b485783516040516349249dc160e01b81526001600160a01b038516916349249dc191611aff9190600401615219565b6000604051808303816000875af1158015611b1e573d6000803e3d6000fd5b505050506040513d6000823e601f3d908101601f19168201604052611b469190810190614f9a565b505b815180611b56575081602001515b80611b62575081604001515b80611b6e575081606001515b15611c0d57604080517fcb827e3200000000000000000000000000000000000000000000000000000000815283511515600482015260208401511515602482015290830151151560448201526060830151151560648201526001600160a01b0384169063cb827e3290608401600060405180830381600087803b158015611bf457600080fd5b505af1158015611c08573d6000803e3d6000fd5b505050505b611c1633611ebc565b5050505050505050505050565b611c2b612a32565b6117dc81612f7d565b600a546040517f0fab09470000000000000000000000000000000000000000000000000000000081523060048201526060916001600160a01b0316906000908290630fab094790602401602060405180830381865afa158015611c9b573d6000803e3d6000fd5b505050506040513d601f19601f82011682018060405250810190611cbf9190614fcf565b90506001600160a01b03811615611d64576040517f5e703e71000000000000000000000000000000000000000000000000000000008152306004820152602481018590526001600160a01b03821690635e703e7190604401600060405180830381865afa158015611d34573d6000803e3d6000fd5b505050506040513d6000823e601f3d908101601f19168201604052611d5c919081019061534b565b949350505050565b611d5c600d8054611d7490614cec565b80601f0160208091040260200160405190810160405280929190818152602001828054611da090614cec565b8015611ded5780601f10611dc257610100808354040283529160200191611ded565b820191906000526020600020905b815481529060010190602001808311611dd057829003601f168201915b50506040517fc8df1710000000000000000000000000000000000000000000000000000000008152306004820152602481018a90526001600160a01b038816935063c8df171092506044019050602060405180830381865afa158015611e57573d6000803e3d6000fd5b505050506040513d601f19601f82011682018060405250810190611e7b919061507d565b612fd3565b600e805461156b90614cec565b611e95612a32565b6001600160a01b038116611ebc5760405163ecb9b1c760e01b815260040160405180910390fd5b6117dc816000612b44565b60075434151580611f645750604051636e49181f60e01b8152600481018290523360248201527f00000000000000000000000000000000000000000000000000000000000000006001600160a01b031690636e49181f90604401602060405180830381865afa158015611f3e573d6000803e3d6000fd5b505050506040513d601f19601f82011682018060405250810190611f629190614ff7565b155b80611f73575080826020013514155b15611faa576040517f8a3ea1c800000000000000000000000000000000000000000000000000000000815260040160405180910390fd5b610a8b82613056565b611fc8611fbe611690565b6007546016612318565b600a54839082906001600160a01b031681156120bb576040517f20512ba10000000000000000000000000000000000000000000000000000000081526001600160a01b038216906320512ba1906120259088908890600401615380565b600060405180830381600087803b15801561203f57600080fd5b505af1158015612053573d6000803e3d6000fd5b5050505060005b828110156120b95785858281811061207457612074614e40565b60405133815260209182029390930135927f832d89d991be5351d793c20faf4b7dd44f8aa9ce39e3cb160c6317de6fbba72992500160405180910390a260010161205a565b505b8215611375576040516349249dc160e01b81526000906001600160a01b038316906349249dc1906120f2908b908b906004016154d8565b6000604051808303816000875af1158015612111573d6000803e3d6000fd5b505050506040513d6000823e601f3d908101601f191682016040526121399190810190614f9a565b905060005b848110156121b95781818151811061215857612158614e40565b60200260200101517f6c05e4bd067859371de8c0a303cf84af0ba782c3809f8fba14e6af4388894cf08a8a8481811061219357612193614e40565b90506101800201336040516121a992919061551b565b60405180910390a260010161213e565b505050505050505050565b60006001600160e01b031982167fb7138fd400000000000000000000000000000000000000000000000000000000148061222757506001600160e01b031982167f81c03c2e00000000000000000000000000000000000000000000000000000000145b8061225b57506001600160e01b031982167ff3c5788100000000000000000000000000000000000000000000000000000000145b8061228f57506001600160e01b031982167f66ec4cb400000000000000000000000000000000000000000000000000000000145b806122c357506001600160e01b031982167f2a55205a00000000000000000000000000000000000000000000000000000000145b806109bf57506109bf82613511565b6000818152600360205260408120546001600160a01b0316806109bf57604051637e27328960e01b815260048101849052602401610d64565b610dfc83838360016135ac565b336001600160a01b03841681148015906123cf575060405163c161c93f60e01b81526001600160a01b038281166004830152858116602483015260448201859052606482018490527f0000000000000000000000000000000000000000000000000000000000000000169063c161c93f90608401602060405180830381865afa1580156123a9573d6000803e3d6000fd5b505050506040513d601f19601f820116820180604052508101906123cd9190614ff7565b155b8015612478575060405163c161c93f60e01b81526001600160a01b038281166004830152858116602483015260006044830152606482018490527f0000000000000000000000000000000000000000000000000000000000000000169063c161c93f90608401602060405180830381865afa158015612452573d6000803e3d6000fd5b505050506040513d601f19601f820116820180604052508101906124769190614ff7565b155b15610d38576040517f075fd2b100000000000000000000000000000000000000000000000000000000815260040160405180910390fd5b600a546040517fc44a8e6d00000000000000000000000000000000000000000000000000000000815230600482015260248101849052600060448201819052916001600160a01b0316908290829063c44a8e6d90606401600060405180830381865afa158015612523573d6000803e3d6000fd5b505050506040513d6000823e601f3d908101601f1916820160405261254b9190810190615541565b90506125588686866136f7565b92506001600160a01b03831615612696578061014001511561264557600b546007546040516321d1336160e11b815260048101919091526000916001600160a01b0316906343a266c29060240161012060405180830381865afa1580156125c3573d6000803e3d6000fd5b505050506040513d601f19601f820116820180604052508101906125e79190614eb0565b90506001600160a01b0387161580159061260c575061010081015160ef1c6001908116145b15612643576040517ffa45ac2900000000000000000000000000000000000000000000000000000000815260040160405180910390fd5b505b6000858152600860205260409020546001600160a01b0316612696576000858152600860205260409020805473ffffffffffffffffffffffffffffffffffffffff19166001600160a01b0385161790555b80516040517fc2c55f9400000000000000000000000000000000000000000000000000000000815260048101919091526001600160a01b038481166024830152878116604483015283169063c2c55f9490606401600060405180830381600087803b15801561270457600080fd5b505af1158015612718573d6000803e3d6000fd5b5050505050509392505050565b6001600160a01b03821661274f57604051633250574960e11b815260006004820152602401610d64565b600061275d838360006124af565b90506001600160a01b03811615610dfc576040517f73c6ac6e00000000000000000000000000000000000000000000000000000000815260006004820152602401610d64565b6000606060258351116127c85750506040805160208101909152600080825290612972565b6000836127d760046020615662565b815181106127e7576127e7614e40565b0160209081015160f81c91505b600085612802600484615662565b8151811061281257612812614e40565b01602001517fff000000000000000000000000000000000000000000000000000000000000001614801590612850575061284d602083615675565b81105b1561296f57600085612863600484615662565b8151811061287357612873614e40565b016020908101518784019091015160f89190911c91506001600160e01b0319808916908216036129655760006128aa602086615675565b6128b5600986615662565b1015806129025750876128c9600986615662565b815181106128d9576128d9614e40565b01602001517fff0000000000000000000000000000000000000000000000000000000000000016155b61293b57602088612914600987615662565b8151811061292457612924614e40565b0160200151612936919060f81c615675565b61293e565b87515b9050600161295789612951602087615675565b846137fd565b965096505050505050612972565b50506005016127f4565b50505b9250929050565b600061298860008360006124af565b90506001600160a01b038116610a8b57604051637e27328960e01b815260048101839052602401610d64565b600a546040517f86bc2be30000000000000000000000000000000000000000000000000000000081526001600160a01b03909116906386bc2be3906129fd908490600401614626565b600060405180830381600087803b158015612a1757600080fd5b505af1158015612a2b573d6000803e3d6000fd5b5050505050565b604080516060810182526000546001600160a01b0381168252600160a01b81046affffffffffffffffffffff1660208301819052600160f81b90910460ff1692820192909252906117dc9015612b225760208201516040516331a9108f60e11b81526affffffffffffffffffffff90911660048201527f00000000000000000000000000000000000000000000000000000000000000006001600160a01b031690636352211e90602401602060405180830381865afa158015612af9573d6000803e3d6000fd5b505050506040513d601f19601f82011682018060405250810190612b1d9190614fcf565b612b25565b81515b82602001516affffffffffffffffffffff16836040015160ff16612318565b6affffffffffffffffffffff811615801590612b6857506001600160a01b03821615155b15612b865760405163ecb9b1c760e01b815260040160405180910390fd5b60408051606081018252600080546001600160a01b0381168352600160a01b81046affffffffffffffffffffff1660208401819052600160f81b90910460ff1693830193909352909115612c745760208201516040516331a9108f60e11b81526affffffffffffffffffffff90911660048201527f00000000000000000000000000000000000000000000000000000000000000006001600160a01b031690636352211e90602401602060405180830381865afa158015612c4b573d6000803e3d6000fd5b505050506040513d601f19601f82011682018060405250810190612c6f9190614fcf565b612c77565b81515b604080516060810182526001600160a01b0387168082526affffffffffffffffffffff87166020830181905260009290930182905281547fff000000000000000000000000000000000000000000000000000000000000001617600160a01b8302176001600160f81b03169055909150610d3890829015612d8c576040516331a9108f60e11b81526affffffffffffffffffffff861660048201527f00000000000000000000000000000000000000000000000000000000000000006001600160a01b031690636352211e90602401602060405180830381865afa158015612d63573d6000803e3d6000fd5b505050506040513d601f19601f82011682018060405250810190612d879190614fcf565b613839565b85613839565b6001600160a01b038216612ddd576040517f5b08ba180000000000000000000000000000000000000000000000000000000081526001600160a01b0383166004820152602401610d64565b6001600160a01b03838116600081815260066020908152604080832094871680845294825291829020805460ff191686151590811790915591519182527f17307eab39ab6107e8899845ad3d59bd9653f200f220920489ca2b5937696c31910160405180910390a3505050565b6001600160a01b0383163b15610d3857604051630a85bd0160e11b81526001600160a01b0384169063150b7a0290612e8c90339088908790879060040161568c565b6020604051808303816000875af1925050508015612ec7575060408051601f3d908101601f19168201909252612ec4918101906156c8565b60015b612f30573d808015612ef5576040519150601f19603f3d011682016040523d82523d6000602084013e612efa565b606091505b508051600003612f2857604051633250574960e11b81526001600160a01b0385166004820152602401610d64565b805181602001fd5b6001600160e01b03198116630a85bd0160e11b14612a2b57604051633250574960e11b81526001600160a01b0385166004820152602401610d64565b612f76828261387d565b5050600755565b600080546001600160f81b0316600160f81b60ff8416908102919091179091556040519081527f6f4725627084d54c46c628b050805457a1cd38c5cd20c1f00132960f8b546fed9060200160405180910390a150565b6040517f12200000000000000000000000000000000000000000000000000000000000006020820152602281018290526060906000906042016040516020818303038152906040529050600061302882613896565b9050848160405160200161303d9291906156e5565b6040516020818303038152906040529250505092915050565b60095460009063ffffffff811660c084013581900361307b5760808401359250613155565b602882901c6001600160a01b03811615612a2b5760ff602084901c1661315060808701356130aa83600a6157f8565b6007546040517f3be273fa000000000000000000000000000000000000000000000000000000008152600481019190915260c08a013560248201526044810187905260a08a013560648201526001600160a01b03861690633be273fa90608401602060405180830381865afa158015613127573d6000803e3d6000fd5b505050506040513d601f19601f8201168201806040525081019061314b919061507d565b613a2e565b945050505b5060009050600c8161316f6101c086016101a08701614639565b6001600160a01b031681526020810191909152604001600090812054915082906131a16101c086016101a08701614639565b6001600160a01b03166131b76020870187614639565b6001600160a01b0316036131ce57908201906131d1565b50815b60003060601b81806131eb836112556101e08c018c615014565b9150915081156132bf5760608180602001905181019061320b9190615804565b90955090508480156132895750600a54604051634228826f60e11b81523060048201526001600160a01b039091169063845104de90602401608060405180830381865afa158015613260573d6000803e3d6000fd5b505050506040513d601f19601f8201168201806040525081019061328491906158b5565b606001515b1561329357600094505b8051156132b9576132b687826132b16101c08e016101a08f01614639565b613b1b565b96505b50613338565b600a54604051634228826f60e11b81523060048201526001600160a01b039091169063845104de90602401608060405180830381865afa158015613307573d6000803e3d6000fd5b505050506040513d601f19601f8201168201806040525081019061332b91906158b5565b6060015161333857600193505b85156134755783613375576040517f6d5e09a400000000000000000000000000000000000000000000000000000000815260040160405180910390fd5b858501878111156133dd576133926101c08b016101a08c01614639565b6040513381526001600160a01b03919091169082908a8203907f7e71a5f6c04b0eb16949316623b9dda7bd103692f7d89678e2260afa1378a2d59060200160405180910390a461343e565b8088111561343e576133f76101c08b016101a08c01614639565b6040513381526001600160a01b0391909116908290818b03907f6276f0169fb8de712b2a6c02789f6115136c589ed491ac06f9e20f41877e41fe9060200160405180910390a45b80600c60006134556101c08e016101a08f01614639565b6001600160a01b03168152602081019190915260400160002055506121b9565b8487146121b95761348e6101c08a016101a08b01614639565b6001600160a01b0316856134a2818a61591c565b6040513381527f6276f0169fb8de712b2a6c02789f6115136c589ed491ac06f9e20f41877e41fe9060200160405180910390a484600c60006134ec6101c08d016101a08e01614639565b6001600160a01b03168152602081019190915260400160002055505050505050505050565b60006001600160e01b031982167f80ac58cd00000000000000000000000000000000000000000000000000000000148061357457506001600160e01b031982167f5b5e139f00000000000000000000000000000000000000000000000000000000145b806109bf57507f01ffc9a7000000000000000000000000000000000000000000000000000000006001600160e01b03198316146109bf565b80806135c057506001600160a01b03821615155b156136ba5760006135d0846122d2565b90506001600160a01b038316158015906135fc5750826001600160a01b0316816001600160a01b031614155b801561362e57506001600160a01b0380821660009081526006602090815260408083209387168352929052205460ff16155b15613670576040517fa9fbf51f0000000000000000000000000000000000000000000000000000000081526001600160a01b0384166004820152602401610d64565b81156136b85783856001600160a01b0316826001600160a01b03167f8c5be1e5ebec7d5bd14f71427d1e84f3dd0314c0f7b2291e5b200ac8c7c3b92560405160405180910390a45b505b50506000908152600560205260409020805473ffffffffffffffffffffffffffffffffffffffff19166001600160a01b0392909216919091179055565b6000828152600360205260408120546001600160a01b039081169083161561372457613724818486613c5d565b6001600160a01b03811615613762576137416000856000806135ac565b6001600160a01b038116600090815260046020526040902080546000190190555b6001600160a01b03851615613791576001600160a01b0385166000908152600460205260409020805460010190555b600084815260036020526040808220805473ffffffffffffffffffffffffffffffffffffffff19166001600160a01b0389811691821790925591518793918516917fddf252ad1be2c89b69c2b068fc378daa952ba7f163c4a11628f55a4df523b3ef91a4949350505050565b60608282036040519150602081830101604052808252508260208501016020820160005b84811015611554578281015182820152602001613821565b806001600160a01b0316826001600160a01b03167f8be0079c531659141344cd1fd0a4f28419497f9722a3daafe3b4186f6b6457e060405160405180910390a35050565b60016138898382615159565b506002610dfc8282615159565b606081516000036138b557505060408051600081526020810190915290565b60408051602e8082526105e08201909252600091602082016105c0803683370190505090506000816000815181106138ef576138ef614e40565b60ff90921660209283029190910190910152825160019060005b81811015613a0a57600086828151811061392557613925614e40565b016020015160f81c905060005b8460ff168110156139af57600886828151811061395157613951614e40565b602002602001015160ff16901b826139699190615662565b9150613976603a83615945565b86828151811061398857613988614e40565b60ff909216602092830291909101909101526139a5603a83615959565b9150600101613932565b505b8015613a01576139c2603a82615945565b858560ff16815181106139d7576139d7614e40565b60ff909216602092830291909101909101526001909301926139fa603a82615959565b90506139b1565b50600101613909565b50613a25613a20613a1b8585613cda565b613d82565b613e25565b95945050505050565b6000808060001985870985870292508281108382030391505080600003613a6857838281613a5e57613a5e61592f565b0492505050610ee5565b838110613ab2576040517f63a05778000000000000000000000000000000000000000000000000000000008152600481018790526024810186905260448101859052606401610d64565b60008486880960026001871981018816978890046003810283188082028403028082028403028082028403028082028403028082028403029081029092039091026000889003889004909101858311909403939093029303949094049190911702949350505050565b600a5460405163eaa19ab360e01b81526000916060916001600160a01b039091169063eaa19ab390613b559088908890879060040161596d565b6000604051808303816000875af1158015613b74573d6000803e3d6000fd5b505050506040513d6000823e601f3d908101601f19168201604052613b9c91908101906150f5565b81519093509091506000805b82811015613c5257838181518110613bc257613bc2614e40565b60200260200101519150613bd68683612725565b856001600160a01b0316878281518110613bf257613bf2614e40565b602002602001015161ffff16837f598baf7bf150ca2f42be9e9f8f55e81d45f5715c3ff22bf46d697fabec7f31d68b33604051613c429291909182526001600160a01b0316602082015260400190565b60405180910390a4600101613ba8565b505050509392505050565b613c68838383613eff565b610dfc576001600160a01b038316613c9657604051637e27328960e01b815260048101829052602401610d64565b6040517f177e802f0000000000000000000000000000000000000000000000000000000081526001600160a01b038316600482015260248101829052604401610d64565b606060008260ff1667ffffffffffffffff811115613cfa57613cfa61437d565b604051908082528060200260200182016040528015613d23578160200160208202803683370190505b50905060005b8360ff16811015613d7a57848181518110613d4657613d46614e40565b6020026020010151828281518110613d6057613d60614e40565b60ff90921660209283029190910190910152600101613d29565b509392505050565b805160609060008167ffffffffffffffff811115613da257613da261437d565b604051908082528060200260200182016040528015613dcb578160200160208202803683370190505b50905060005b82811015613d7a57848160018751030381518110613df157613df1614e40565b6020026020010151828281518110613e0b57613e0b614e40565b60ff90921660209283029190910190910152600101613dd1565b805160609060008167ffffffffffffffff811115613e4557613e4561437d565b6040519080825280601f01601f191660200182016040528015613e6f576020820181803683370190505b50905060005b82811015613d7a576040518060600160405280603a81526020016159cd603a9139858281518110613ea857613ea8614e40565b602002602001015160ff1681518110613ec357613ec3614e40565b602001015160f81c60f81b828281518110613ee057613ee0614e40565b60200101906001600160f81b031916908160001a905350600101613e75565b60006001600160a01b03831615801590611d5c5750826001600160a01b0316846001600160a01b03161480613f5957506001600160a01b0380851660009081526006602090815260408083209387168352929052205460ff165b80611d5c5750506000908152600560205260409020546001600160a01b03908116911614919050565b6001600160e01b0319811681146117dc57600080fd5b600060208284031215613faa57600080fd5b8135610ee581613f82565b60005b83811015613fd0578181015183820152602001613fb8565b50506000910152565b60008151808452613ff1816020860160208601613fb5565b601f01601f19169290920160200192915050565b602081526000610ee56020830184613fd9565b60006020828403121561402a57600080fd5b5035919050565b6001600160a01b03811681146117dc57600080fd5b803561405181614031565b919050565b6000806040838503121561406957600080fd5b823561407481614031565b946020939093013593505050565b60008083601f84011261409457600080fd5b50813567ffffffffffffffff8111156140ac57600080fd5b60208301915083602082850101111561297257600080fd5b600080600080600080600060a0888a0312156140df57600080fd5b873567ffffffffffffffff808211156140f757600080fd5b6141038b838c01614082565b909950975060208a013591508082111561411c57600080fd5b506141298a828b01614082565b909650945050604088013561413d81614031565b969995985093969295946060840135945060809093013592915050565b6000806020838503121561416d57600080fd5b823567ffffffffffffffff8082111561418557600080fd5b818501915085601f83011261419957600080fd5b8135818111156141a857600080fd5b8660208260061b85010111156141bd57600080fd5b60209290920196919550909350505050565b6000806000606084860312156141e457600080fd5b83356141ef81614031565b925060208401356141ff81614031565b929592945050506040919091013590565b60006020828403121561422257600080fd5b813567ffffffffffffffff81111561423957600080fd5b82016101808185031215610ee557600080fd5b6000604080830185845260206040818601528186518084526060935060608701915060608160051b88010183890160005b838110156142cd57898303605f19018552815180516001600160a01b0316845286810151878501528801518884018890526142ba88850182613fd9565b958701959350509085019060010161427d565b50909a9950505050505050505050565b600080604083850312156142f057600080fd5b50508035926020909101359150565b6000610200828403121561431257600080fd5b50919050565b60006020828403121561432a57600080fd5b813567ffffffffffffffff81111561434157600080fd5b611d5c848285016142ff565b6000806040838503121561436057600080fd5b82359150602083013561437281614031565b809150509250929050565b634e487b7160e01b600052604160045260246000fd5b6040516080810167ffffffffffffffff811182821017156143b6576143b661437d565b60405290565b604051610180810167ffffffffffffffff811182821017156143b6576143b661437d565b604051610120810167ffffffffffffffff811182821017156143b6576143b661437d565b6040516101a0810167ffffffffffffffff811182821017156143b6576143b661437d565b604051601f8201601f1916810167ffffffffffffffff811182821017156144515761445161437d565b604052919050565b600067ffffffffffffffff8211156144735761447361437d565b5060051b60200190565b60006101a0828403121561431257600080fd5b600080604083850312156144a357600080fd5b823567ffffffffffffffff808211156144bb57600080fd5b818501915085601f8301126144cf57600080fd5b813560206144e46144df83614459565b614428565b82815260059290921b8401810191818101908984111561450357600080fd5b948201945b8386101561452157853582529482019490820190614508565b9650508601359250508082111561453757600080fd5b506145448582860161447d565b9150509250929050565b60008083601f84011261456057600080fd5b50813567ffffffffffffffff81111561457857600080fd5b6020830191508360208260051b850101111561297257600080fd5b6000806000604084860312156145a857600080fd5b833567ffffffffffffffff8111156145bf57600080fd5b6145cb8682870161454e565b90945092505060208401356145df81614031565b809150509250925092565b60008151808452602080850194506020840160005b8381101561461b578151875295820195908201906001016145ff565b509495945050505050565b602081526000610ee560208301846145ea565b60006020828403121561464b57600080fd5b8135610ee581614031565b80151581146117dc57600080fd5b803561405181614656565b6000806040838503121561468257600080fd5b823561468d81614031565b9150602083013561437281614656565b6000602082840312156146af57600080fd5b813567ffffffffffffffff8111156146c657600080fd5b611d5c8482850161447d565b60006080820186835260208681850152604086604086015260606080606087015283875180865260a08801915060a08160051b890101955084890160005b8281101561476057898803609f19018452815180516001600160a01b0316895287810151888a015286015186890186905261474d868a0182613fd9565b9850509286019290860190600101614710565b50959c9b505050505050505050505050565b600067ffffffffffffffff82111561478c5761478c61437d565b50601f01601f191660200190565b60006147a86144df84614772565b90508281528383830111156147bc57600080fd5b828260208301376000602084830101529392505050565b600080600080608085870312156147e957600080fd5b84356147f481614031565b9350602085013561480481614031565b925060408501359150606085013567ffffffffffffffff81111561482757600080fd5b8501601f8101871361483857600080fd5b6148478782356020840161479a565b91505092959194509250565b600082601f83011261486457600080fd5b610ee58383356020850161479a565b80356cffffffffffffffffffffffffff8116811461405157600080fd5b803563ffffffff8116811461405157600080fd5b61ffff811681146117dc57600080fd5b8035614051816148a4565b803562ffffff8116811461405157600080fd5b803560ff8116811461405157600080fd5b600060808083850312156148f657600080fd5b6148fe614393565b9150823567ffffffffffffffff81111561491757600080fd5b8301601f8101851361492857600080fd5b803560206149386144df83614459565b828152610180928302840182019282820191908985111561495857600080fd5b948301945b84861015614a4b5780868b0312156149755760008081fd5b61497d6143bc565b61498687614873565b8152614993858801614890565b8582015260406149a4818901614890565b9082015260606149b58882016148b4565b908201526149c4878901614046565b8189015260a0878101359082015260c06149df8189016148bf565b9082015260e06149f0888201614664565b90820152610100614a02888201614664565b90820152610120614a14888201614664565b90820152610140614a26888201614664565b90820152610160614a38888201614664565b908201528352948501949183019161495d565b50865250614a5a868201614890565b8186015250505050614a6e604083016148d2565b6040820152614a7f60608301614046565b606082015292915050565b600060808284031215614a9c57600080fd5b614aa4614393565b90508135614ab181614656565b81526020820135614ac181614656565b60208201526040820135614ad481614656565b60408201526060820135614a7f81614656565b6000806000806000806000806000806101a08b8d031215614b0757600080fd5b8a35995060208b013567ffffffffffffffff80821115614b2657600080fd5b614b328e838f01614853565b9a5060408d0135915080821115614b4857600080fd5b614b548e838f01614853565b9950614b6260608e01614046565b985060808d0135915080821115614b7857600080fd5b614b848e838f01614853565b9750614b9260a08e01614046565b965060c08d0135915080821115614ba857600080fd5b614bb48e838f01614853565b955060e08d0135915080821115614bca57600080fd5b50614bd78d828e016148e3565b935050614be76101008c01614046565b9150614bf78c6101208d01614a8a565b90509295989b9194979a5092959850565b600060208284031215614c1a57600080fd5b610ee5826148d2565b60008060408385031215614c3657600080fd5b8235614c4181614031565b9150602083013561437281614031565b60008060008060408587031215614c6757600080fd5b843567ffffffffffffffff80821115614c7f57600080fd5b818701915087601f830112614c9357600080fd5b813581811115614ca257600080fd5b88602061018083028501011115614cb857600080fd5b602092830196509450908601359080821115614cd357600080fd5b50614ce08782880161454e565b95989497509550505050565b600181811c90821680614d0057607f821691505b60208210810361431257634e487b7160e01b600052602260045260246000fd5b601f821115610dfc576000816000526020600020601f850160051c81016020861015614d495750805b601f850160051c820191505b81811015614d6857828155600101614d55565b505050505050565b67ffffffffffffffff831115614d8857614d8861437d565b614d9c83614d968354614cec565b83614d20565b6000601f841160018114614dd05760008515614db85750838201355b600019600387901b1c1916600186901b178355612a2b565b600083815260209020601f19861690835b82811015614e015786850135825560209485019460019092019101614de1565b5086821015614e1e5760001960f88860031b161c19848701351681555b505060018560011b0183555050505050565b8183823760009101908152919050565b634e487b7160e01b600052603260045260246000fd5b600060408284031215614e6857600080fd5b6040516040810181811067ffffffffffffffff82111715614e8b57614e8b61437d565b604052823581526020928301359281019290925250919050565b805161405181614031565b60006101208284031215614ec357600080fd5b614ecb6143e0565b825181526020830151602082015260408301516040820152606083015160608201526080830151608082015260a083015160a082015260c083015160c0820152614f1760e08401614ea5565b60e0820152610100928301519281019290925250919050565b600082601f830112614f4157600080fd5b81516020614f516144df83614459565b8083825260208201915060208460051b870101935086841115614f7357600080fd5b602086015b84811015614f8f5780518352918301918301614f78565b509695505050505050565b600060208284031215614fac57600080fd5b815167ffffffffffffffff811115614fc357600080fd5b611d5c84828501614f30565b600060208284031215614fe157600080fd5b8151610ee581614031565b805161405181614656565b60006020828403121561500957600080fd5b8151610ee581614656565b6000808335601e1984360301811261502b57600080fd5b83018035915067ffffffffffffffff82111561504657600080fd5b60200191503681900382131561297257600080fd5b6001600160a01b0383168152604060208201526000611d5c60408301846145ea565b60006020828403121561508f57600080fd5b5051919050565b84815260606020808301829052908201849052600090859060808401835b878110156150dd5783356150c7816148a4565b61ffff16825292820192908201906001016150b4565b50809350505050821515604083015295945050505050565b6000806040838503121561510857600080fd5b825167ffffffffffffffff81111561511f57600080fd5b61512b85828601614f30565b925050602083015190509250929050565b60006020828403121561514e57600080fd5b8135610ee5816148a4565b815167ffffffffffffffff8111156151735761517361437d565b615187816151818454614cec565b84614d20565b602080601f8311600181146151bc57600084156151a45750858301515b600019600386901b1c1916600185901b178555614d68565b600085815260208120601f198616915b828110156151eb578886015182559484019460019091019084016151cc565b50858210156152095787850151600019600388901b60f8161c191681555b5050505050600190811b01905550565b602080825282518282018190526000919060409081850190868401855b828110156152f957815180516cffffffffffffffffffffffffff1685528681015163ffffffff9081168887015286820151168686015260608082015161ffff16908601526080808201516001600160a01b03169086015260a0808201519086015260c08082015162ffffff169086015260e080820151151590860152610100808201511515908601526101208082015115159086015261014080820151151590860152610160908101511515908501526101809093019290850190600101615236565b5091979650505050505050565b600082601f83011261531757600080fd5b81516153256144df82614772565b81815284602083860101111561533a57600080fd5b611d5c826020830160208701613fb5565b60006020828403121561535d57600080fd5b815167ffffffffffffffff81111561537457600080fd5b611d5c84828501615306565b6020815281602082015260007f07ffffffffffffffffffffffffffffffffffffffffffffffffffffffffffffff8311156153b957600080fd5b8260051b80856040850137919091016040019392505050565b6153f2826153df83614873565b6cffffffffffffffffffffffffff169052565b6153fe60208201614890565b63ffffffff16602083015261541560408201614890565b63ffffffff16604083015261542c606082016148b4565b61ffff16606083015261544160808201614046565b6001600160a01b0316608083015260a0818101359083015261546560c082016148bf565b62ffffff1660c083015261547b60e08201614664565b151560e0830152610100615490828201614664565b1515908301526101206154a4828201614664565b1515908301526101406154b8828201614664565b1515908301526101606154cc828201614664565b80151584830152610d38565b6020808252810182905260008360408301825b85811015615511576154fd82846153d2565b6101809283019291909101906001016154eb565b5095945050505050565b6101a0810161552a82856153d2565b6001600160a01b0383166101808301529392505050565b60006020828403121561555357600080fd5b815167ffffffffffffffff8082111561556b57600080fd5b908301906101a0828603121561558057600080fd5b615588614404565b825181526020830151602082015260408301516040820152606083015160608201526080830151608082015260a083015160a08201526155ca60c08401614ea5565b60c082015260e083015160e08201526101008084015181830152506101206155f3818501614fec565b90820152610140615605848201614fec565b90820152610160615617848201614fec565b90820152610180838101518381111561562f57600080fd5b61563b88828701615306565b918301919091525095945050505050565b634e487b7160e01b600052601160045260246000fd5b808201808211156109bf576109bf61564c565b80820281158282048414176109bf576109bf61564c565b60006001600160a01b038087168352808616602084015250836040830152608060608301526156be6080830184613fd9565b9695505050505050565b6000602082840312156156da57600080fd5b8151610ee581613f82565b600083516156f7818460208801613fb5565b83519083019061570b818360208801613fb5565b01949350505050565b600181815b8085111561574f5781600019048211156157355761573561564c565b8085161561574257918102915b93841c9390800290615719565b509250929050565b600082615766575060016109bf565b81615773575060006109bf565b81600181146157895760028114615793576157af565b60019150506109bf565b60ff8411156157a4576157a461564c565b50506001821b6109bf565b5060208310610133831016604e8410600b84101617156157d2575081810a6109bf565b6157dc8383615714565b80600019048211156157f0576157f061564c565b029392505050565b6000610ee58383615757565b6000806040838503121561581757600080fd5b825161582281614656565b8092505060208084015167ffffffffffffffff81111561584157600080fd5b8401601f8101861361585257600080fd5b80516158606144df82614459565b81815260059190911b8201830190838101908883111561587f57600080fd5b928401925b828410156158a6578351615897816148a4565b82529284019290840190615884565b80955050505050509250929050565b6000608082840312156158c757600080fd5b6158cf614393565b82516158da81614656565b815260208301516158ea81614656565b602082015260408301516158fd81614656565b6040820152606083015161591081614656565b60608201529392505050565b818103818111156109bf576109bf61564c565b634e487b7160e01b600052601260045260246000fd5b6000826159545761595461592f565b500690565b6000826159685761596861592f565b500490565b60006060820185835260206060602085015281865180845260808601915060208801935060005b818110156159b457845161ffff1683529383019391830191600101615994565b5050809350505050821515604083015294935050505056fe31323334353637383941424344454647484a4b4c4d4e505152535455565758595a6162636465666768696a6b6d6e6f707172737475767778797aa264697066735822122096bf9f27a7d191f62021e1cc275272e5fdf9a0df1d64cdc7f23cab7988f3a04e64736f6c63430008170033",
			"deployedBytecode": "0x6080604052600436106102e75760003560e01c8063715018a611610184578063c07f2f9b116100d6578063e8a3d4851161008a578063f3c5788111610064578063f3c578811461091a578063f434c9141461092d578063fef508481461096157600080fd5b8063e8a3d4851461089c578063e985e9c5146108b1578063f2fde38b146108fa57600080fd5b8063c87b56dd116100bb578063c87b56dd1461082f578063d4a1b4b11461084f578063d95c9ae21461086f57600080fd5b8063c07f2f9b146107ef578063c0fb5e851461080f57600080fd5b8063a220d69611610138578063ade032ff11610112578063ade032ff1461073a578063b88d4fde1461075a578063ba23c36e1461077a57600080fd5b8063a220d696146106ca578063a22cb465146106ea578063aaf320d71461070a57600080fd5b806388bc2ef31161016957806388bc2ef31461066c5780638da5cb5b146106a057806395d89b41146106b557600080fd5b8063715018a6146106235780637bf94ac51461063857600080fd5b80634c4ffc711161023d57806366ec4cb4116101f15780636ac6d941116101cb5780636ac6d941146105c15780636c0360eb146105ee57806370a082311461060357600080fd5b806366ec4cb41461056b578063677ce0881461057e57806368f9c6bc146105a157600080fd5b806354c6d1f51161022257806354c6d1f51461050b578063613b856d1461052b5780636352211e1461054b57600080fd5b80634c4ffc71146104bd578063507f1465146104eb57600080fd5b80631435aad51161029f578063293c499911610279578063293c4999146104455780633fafa1271461047957806342842e0e1461049d57600080fd5b80631435aad5146103e55780631c52730b1461040557806323b872dd1461042557600080fd5b8063081812fc116102d0578063081812fc1461034357806308786b1a1461037b578063095ea7b3146103c357600080fd5b806301ffc9a7146102ec57806306fdde0314610321575b600080fd5b3480156102f857600080fd5b5061030c610307366004613f98565b610981565b60405190151581526020015b60405180910390f35b34801561032d57600080fd5b506103366109c5565b6040516103189190614005565b34801561034f57600080fd5b5061036361035e366004614018565b610a57565b6040516001600160a01b039091168152602001610318565b34801561038757600080fd5b5060095463ffffffff811690602081901c60ff169060281c6040805193845260208401929092526001600160a01b031690820152606001610318565b3480156103cf57600080fd5b506103e36103de366004614056565b610a80565b005b3480156103f157600080fd5b506103e36104003660046140c4565b610a8f565b34801561041157600080fd5b506103e361042036600461415a565b610ce5565b34801561043157600080fd5b506103e36104403660046141cf565b610d3e565b34801561045157600080fd5b506103637f0000000000000000000000004d9207abeca883161a1eaee9dabedc0001c198d781565b34801561048557600080fd5b5061048f60075481565b604051908152602001610318565b3480156104a957600080fd5b506103e36104b83660046141cf565b610de1565b3480156104c957600080fd5b506104dd6104d8366004614210565b610e01565b60405161031892919061424c565b3480156104f757600080fd5b50600a54610363906001600160a01b031681565b34801561051757600080fd5b50610363610526366004614018565b610ea8565b34801561053757600080fd5b506103e36105463660046142dd565b610eec565b34801561055757600080fd5b50610363610566366004614018565b61114b565b6103e3610579366004614318565b611156565b34801561058a57600080fd5b5061030c61059936600461434d565b600092915050565b3480156105ad57600080fd5b5061048f6105bc366004614490565b61137e565b3480156105cd57600080fd5b506105e16105dc366004614593565b61140b565b6040516103189190614626565b3480156105fa57600080fd5b5061033661155e565b34801561060f57600080fd5b5061048f61061e366004614639565b6115ec565b34801561062f57600080fd5b506103e361167b565b34801561064457600080fd5b506103637f000000000000000000000000323dd5a5ed60468401528f220cb8adbb9f85592081565b34801561067857600080fd5b506103637f00000000000000000000000018017cfed48e1dc0adc445cef8a9e6affcb330da81565b3480156106ac57600080fd5b50610363611690565b3480156106c157600080fd5b50610336611785565b3480156106d657600080fd5b506103e36106e5366004614018565b611794565b3480156106f657600080fd5b506103e361070536600461466f565b6117df565b34801561071657600080fd5b5061072a61072536600461469d565b6117ea565b60405161031894939291906146d2565b34801561074657600080fd5b5061048f61075536600461469d565b61192b565b34801561076657600080fd5b506103e36107753660046147d3565b611975565b34801561078657600080fd5b506000546107bb906001600160a01b03811690600160a01b81046affffffffffffffffffffff1690600160f81b900460ff1683565b604080516001600160a01b0390941684526affffffffffffffffffffff909216602084015260ff1690820152606001610318565b3480156107fb57600080fd5b506103e361080a366004614ae7565b61198c565b34801561081b57600080fd5b506103e361082a366004614c08565b611c23565b34801561083b57600080fd5b5061033661084a366004614018565b611c34565b34801561085b57600080fd5b50600b54610363906001600160a01b031681565b34801561087b57600080fd5b5061048f61088a366004614639565b600c6020526000908152604090205481565b3480156108a857600080fd5b50610336611e80565b3480156108bd57600080fd5b5061030c6108cc366004614c23565b6001600160a01b03918216600090815260066020908152604080832093909416825291909152205460ff1690565b34801561090657600080fd5b506103e3610915366004614639565b611e8d565b6103e3610928366004614318565b611ec7565b34801561093957600080fd5b506103637f000000000000000000000000ba24624ae5dc821866e9e71ed050412ef01e2fe681565b34801561096d57600080fd5b506103e361097c366004614c51565b611fb3565b60006001600160e01b031982167fc375dc530000000000000000000000000000000000000000000000000000000014806109bf57506109bf826121c4565b92915050565b6060600180546109d490614cec565b80601f0160208091040260200160405190810160405280929190818152602001828054610a0090614cec565b8015610a4d5780601f10610a2257610100808354040283529160200191610a4d565b820191906000526020600020905b815481529060010190602001808311610a3057829003601f168201915b5050505050905090565b6000610a62826122d2565b506000828152600560205260409020546001600160a01b03166109bf565b610a8b82823361230b565b5050565b610aa4610a9a611690565b6007546017612318565b8515610b0357600d610ab7878983614d70565b508686604051610ac8929190614e30565b604051908190038120338252907f7bc9110d5de090dd59e07912d2b93a5a27ac70a60c8d8e324db4f9ee8b8b5c139060200160405180910390a25b8315610b6257600e610b16858783614d70565b508484604051610b27929190614e30565b604051908190038120338252907fd36dc0c1a06103fdcaf15f3f6fb797d1a97997514c78de073640c8b5005454b89060200160405180910390a25b600a546001600160a01b039081169084163014610c135760405163036129cb60e61b81526001600160a01b03858116600483015282169063d84a72c090602401600060405180830381600087803b158015610bbc57600080fd5b505af1158015610bd0573d6000803e3d6000fd5b50506040513381526001600160a01b03871692507fe7784d93cfbfa4408e19577e6cc0436f4dbb51214b70e100905dfce9def88c16915060200160405180910390a25b8215801590610c2157508115155b15610cdb576040517f49bd1ac600000000000000000000000000000000000000000000000000000000815260048101849052602481018390526001600160a01b038216906349bd1ac690604401600060405180830381600087803b158015610c8857600080fd5b505af1158015610c9c573d6000803e3d6000fd5b5050604080518581523360208201528693507f677da4fed654db8e604791fa2582f342e2001aa217e27f6985eb3e0f67e5a7fc92500160405180910390a25b5050505050505050565b8060005b81811015610d38576000848483818110610d0557610d05614e40565b905060400201803603810190610d1b9190614e56565b9050610d2f81600001518260200151610eec565b50600101610ce9565b50505050565b6001600160a01b038216610d6d57604051633250574960e11b8152600060048201526024015b60405180910390fd5b6000610d7a8383336124af565b9050836001600160a01b0316816001600160a01b031614610d38576040517f64283d7b0000000000000000000000000000000000000000000000000000000081526001600160a01b0380861660048301526024820184905282166044820152606401610d64565b610dfc83838360405180602001604052806000815250611975565b505050565b6040805160018082528183019092526101208301359160609190816020015b60408051606080820183526000808352602083015291810191909152815260200190600190039081610e205790505090506040518060600160405280306001600160a01b03168152602001600081526020016040518060200160405280600081525081525081600081518110610e9857610e98614e40565b6020026020010181905250915091565b6000818152600860205260408120546001600160a01b03168015610ecc5792915050565b6000838152600360205260409020546001600160a01b03165b9392505050565b600b546007546040516321d1336160e11b815260048101919091526000916001600160a01b0316906343a266c29060240161012060405180830381865afa158015610f3b573d6000803e3d6000fd5b505050506040513d601f19601f82011682018060405250810190610f5f9190614eb0565b61010081015190915060f01c600190811603610fa7576040517f63a0ba3900000000000000000000000000000000000000000000000000000000815260040160405180910390fd5b600a546040517fbaa7e80e00000000000000000000000000000000000000000000000000000000815260048101859052602481018490526001600160a01b0390911690600090829063baa7e80e906044016000604051808303816000875af1158015611017573d6000803e3d6000fd5b505050506040513d6000823e601f3d908101601f1916820160405261103f9190810190614f9a565b6040517f03573004000000000000000000000000000000000000000000000000000000008152306004820152602481018790529091506000906001600160a01b03841690630357300490604401602060405180830381865afa1580156110a9573d6000803e3d6000fd5b505050506040513d601f19601f820116820180604052508101906110cd9190614fcf565b90506000805b86811015610cdb578381815181106110ed576110ed614e40565b602002602001015191506111018383612725565b6040513381526001600160a01b03841690899084907f80dd2efbbc431cde0164d84d638e44ba6e7a3ca5d532ceef1bb4efcc0948325d9060200160405180910390a46001016110d3565b60006109bf826122d2565b341515806111f45750600754604051636e49181f60e01b815260048101919091523360248201527f00000000000000000000000018017cfed48e1dc0adc445cef8a9e6affcb330da6001600160a01b031690636e49181f90604401602060405180830381865afa1580156111ce573d6000803e3d6000fd5b505050506040513d601f19601f820116820180604052508101906111f29190614ff7565b155b806112055750600754816020013514155b1561123c576040517f835e522b00000000000000000000000000000000000000000000000000000000815260040160405180910390fd5b3060601b60008061128f836112556101e0870187615014565b8080601f0160208091040260200160405190810160405280939291908181526020018383808284376000920191909152506127a392505050565b91509150606082156112b257818060200190518101906112af9190614f9a565b90505b80516000805b8281101561136b578381815181106112d2576112d2614e40565b602002602001015191508760000160208101906112ef9190614639565b6001600160a01b0316611317836000908152600360205260409020546001600160a01b031690565b6001600160a01b03161461135a576040517f5caf197500000000000000000000000000000000000000000000000000000000815260048101839052602401610d64565b61136382612979565b6001016112b8565b50611375836129b4565b50505050505050565b600a546040517f144cc2d40000000000000000000000000000000000000000000000000000000081526000916001600160a01b03169063144cc2d4906113ca903090879060040161505b565b602060405180830381865afa1580156113e7573d6000803e3d6000fd5b505050506040513d601f19601f82011682018060405250810190610ee5919061507d565b6060611422611418611690565b6007546018612318565b600a5460405163eaa19ab360e01b81526001600160a01b039091169063eaa19ab39061145b906000199088908890600190600401615096565b6000604051808303816000875af115801561147a573d6000803e3d6000fd5b505050506040513d6000823e601f3d908101601f191682016040526114a291908101906150f5565b509050826000805b82811015611554578381815181106114c4576114c4614e40565b602002602001015191506114d88583612725565b846001600160a01b03168787838181106114f4576114f4614e40565b9050602002016020810190611509919061513c565b604080516000815233602082015261ffff929092169185917f598baf7bf150ca2f42be9e9f8f55e81d45f5715c3ff22bf46d697fabec7f31d6910160405180910390a46001016114aa565b5050509392505050565b600d805461156b90614cec565b80601f016020809104026020016040519081016040528092919081815260200182805461159790614cec565b80156115e45780601f106115b9576101008083540402835291602001916115e4565b820191906000526020600020905b8154815290600101906020018083116115c757829003601f168201915b505050505081565b600a546040517ff7888aec0000000000000000000000000000000000000000000000000000000081523060048201526001600160a01b038381166024830152600092169063f7888aec906044015b602060405180830381865afa158015611657573d6000803e3d6000fd5b505050506040513d601f19601f820116820180604052508101906109bf919061507d565b611683612a32565b61168e600080612b44565b565b60408051606081018252600080546001600160a01b0381168352600160a01b81046affffffffffffffffffffff1660208401819052600160f81b90910460ff16938301939093529182036116e45751919050565b60208101516040516331a9108f60e11b81526affffffffffffffffffffff90911660048201527f0000000000000000000000004d9207abeca883161a1eaee9dabedc0001c198d76001600160a01b031690636352211e90602401602060405180830381865afa15801561175b573d6000803e3d6000fd5b505050506040513d601f19601f8201168201806040525081019061177f9190614fcf565b91505090565b6060600280546109d490614cec565b61179c612a32565b8015806117b357506affffffffffffffffffffff81115b156117d15760405163ecb9b1c760e01b815260040160405180910390fd5b6117dc600082612b44565b50565b610a8b338383612d92565b60008080606060808501351561182c576040517f4fc178d800000000000000000000000000000000000000000000000000000000815260040160405180910390fd5b3060601b600080611845836112556101808b018b615014565b604080516001808252818301909252929450909250816020015b6040805160608082018352600080835260208301529181019190915281526020019060019003908161185f5790505093506040518060600160405280306001600160a01b031681526020016000815260200160405180602001604052806000815250815250846000815181106118d7576118d7614e40565b60200260200101819052506060821561190157818060200190518101906118fe9190614f9a565b90505b61190b818a61137e565b96506119168961192b565b95508861016001359750505050509193509193565b600a546040517f2ae5e4920000000000000000000000000000000000000000000000000000000081523060048201526000916001600160a01b031690632ae5e4929060240161163a565b611980848484610d3e565b610d3884848484612e4a565b600a546001600160a01b0316156119a257600080fd5b6119ad8a8a8a612f6c565b600b80546001600160a01b03808a1673ffffffffffffffffffffffffffffffffffffffff1992831617909255600a8054928516929091169190911790556020808401516040850151606086015178ffffffffffffffffffffffffffffffffffffffff000000000060289190911b1664ff000000009190931b1663ffffffff90911617176009819055865115611a4a57600d611a488882615159565b505b845115611a5f57600e611a5d8682615159565b505b6001600160a01b03861615611aca5760405163036129cb60e61b81526001600160a01b03878116600483015284169063d84a72c090602401600060405180830381600087803b158015611ab157600080fd5b505af1158015611ac5573d6000803e3d6000fd5b505050505b83515115611b485783516040516349249dc160e01b81526001600160a01b038516916349249dc191611aff9190600401615219565b6000604051808303816000875af1158015611b1e573d6000803e3d6000fd5b505050506040513d6000823e601f3d908101601f19168201604052611b469190810190614f9a565b505b815180611b56575081602001515b80611b62575081604001515b80611b6e575081606001515b15611c0d57604080517fcb827e3200000000000000000000000000000000000000000000000000000000815283511515600482015260208401511515602482015290830151151560448201526060830151151560648201526001600160a01b0384169063cb827e3290608401600060405180830381600087803b158015611bf457600080fd5b505af1158015611c08573d6000803e3d6000fd5b505050505b611c1633611ebc565b5050505050505050505050565b611c2b612a32565b6117dc81612f7d565b600a546040517f0fab09470000000000000000000000000000000000000000000000000000000081523060048201526060916001600160a01b0316906000908290630fab094790602401602060405180830381865afa158015611c9b573d6000803e3d6000fd5b505050506040513d601f19601f82011682018060405250810190611cbf9190614fcf565b90506001600160a01b03811615611d64576040517f5e703e71000000000000000000000000000000000000000000000000000000008152306004820152602481018590526001600160a01b03821690635e703e7190604401600060405180830381865afa158015611d34573d6000803e3d6000fd5b505050506040513d6000823e601f3d908101601f19168201604052611d5c919081019061534b565b949350505050565b611d5c600d8054611d7490614cec565b80601f0160208091040260200160405190810160405280929190818152602001828054611da090614cec565b8015611ded5780601f10611dc257610100808354040283529160200191611ded565b820191906000526020600020905b815481529060010190602001808311611dd057829003601f168201915b50506040517fc8df1710000000000000000000000000000000000000000000000000000000008152306004820152602481018a90526001600160a01b038816935063c8df171092506044019050602060405180830381865afa158015611e57573d6000803e3d6000fd5b505050506040513d601f19601f82011682018060405250810190611e7b919061507d565b612fd3565b600e805461156b90614cec565b611e95612a32565b6001600160a01b038116611ebc5760405163ecb9b1c760e01b815260040160405180910390fd5b6117dc816000612b44565b60075434151580611f645750604051636e49181f60e01b8152600481018290523360248201527f00000000000000000000000018017cfed48e1dc0adc445cef8a9e6affcb330da6001600160a01b031690636e49181f90604401602060405180830381865afa158015611f3e573d6000803e3d6000fd5b505050506040513d601f19601f82011682018060405250810190611f629190614ff7565b155b80611f73575080826020013514155b15611faa576040517f8a3ea1c800000000000000000000000000000000000000000000000000000000815260040160405180910390fd5b610a8b82613056565b611fc8611fbe611690565b6007546016612318565b600a54839082906001600160a01b031681156120bb576040517f20512ba10000000000000000000000000000000000000000000000000000000081526001600160a01b038216906320512ba1906120259088908890600401615380565b600060405180830381600087803b15801561203f57600080fd5b505af1158015612053573d6000803e3d6000fd5b5050505060005b828110156120b95785858281811061207457612074614e40565b60405133815260209182029390930135927f832d89d991be5351d793c20faf4b7dd44f8aa9ce39e3cb160c6317de6fbba72992500160405180910390a260010161205a565b505b8215611375576040516349249dc160e01b81526000906001600160a01b038316906349249dc1906120f2908b908b906004016154d8565b6000604051808303816000875af1158015612111573d6000803e3d6000fd5b505050506040513d6000823e601f3d908101601f191682016040526121399190810190614f9a565b905060005b848110156121b95781818151811061215857612158614e40565b60200260200101517f6c05e4bd067859371de8c0a303cf84af0ba782c3809f8fba14e6af4388894cf08a8a8481811061219357612193614e40565b90506101800201336040516121a992919061551b565b60405180910390a260010161213e565b505050505050505050565b60006001600160e01b031982167fb7138fd400000000000000000000000000000000000000000000000000000000148061222757506001600160e01b031982167f81c03c2e00000000000000000000000000000000000000000000000000000000145b8061225b57506001600160e01b031982167ff3c5788100000000000000000000000000000000000000000000000000000000145b8061228f57506001600160e01b031982167f66ec4cb400000000000000000000000000000000000000000000000000000000145b806122c357506001600160e01b031982167f2a55205a00000000000000000000000000000000000000000000000000000000145b806109bf57506109bf82613511565b6000818152600360205260408120546001600160a01b0316806109bf57604051637e27328960e01b815260048101849052602401610d64565b610dfc83838360016135ac565b336001600160a01b03841681148015906123cf575060405163c161c93f60e01b81526001600160a01b038281166004830152858116602483015260448201859052606482018490527f000000000000000000000000ba24624ae5dc821866e9e71ed050412ef01e2fe6169063c161c93f90608401602060405180830381865afa1580156123a9573d6000803e3d6000fd5b505050506040513d601f19601f820116820180604052508101906123cd9190614ff7565b155b8015612478575060405163c161c93f60e01b81526001600160a01b038281166004830152858116602483015260006044830152606482018490527f000000000000000000000000ba24624ae5dc821866e9e71ed050412ef01e2fe6169063c161c93f90608401602060405180830381865afa158015612452573d6000803e3d6000fd5b505050506040513d601f19601f820116820180604052508101906124769190614ff7565b155b15610d38576040517f075fd2b100000000000000000000000000000000000000000000000000000000815260040160405180910390fd5b600a546040517fc44a8e6d00000000000000000000000000000000000000000000000000000000815230600482015260248101849052600060448201819052916001600160a01b0316908290829063c44a8e6d90606401600060405180830381865afa158015612523573d6000803e3d6000fd5b505050506040513d6000823e601f3d908101601f1916820160405261254b9190810190615541565b90506125588686866136f7565b92506001600160a01b03831615612696578061014001511561264557600b546007546040516321d1336160e11b815260048101919091526000916001600160a01b0316906343a266c29060240161012060405180830381865afa1580156125c3573d6000803e3d6000fd5b505050506040513d601f19601f820116820180604052508101906125e79190614eb0565b90506001600160a01b0387161580159061260c575061010081015160ef1c6001908116145b15612643576040517ffa45ac2900000000000000000000000000000000000000000000000000000000815260040160405180910390fd5b505b6000858152600860205260409020546001600160a01b0316612696576000858152600860205260409020805473ffffffffffffffffffffffffffffffffffffffff19166001600160a01b0385161790555b80516040517fc2c55f9400000000000000000000000000000000000000000000000000000000815260048101919091526001600160a01b038481166024830152878116604483015283169063c2c55f9490606401600060405180830381600087803b15801561270457600080fd5b505af1158015612718573d6000803e3d6000fd5b5050505050509392505050565b6001600160a01b03821661274f57604051633250574960e11b815260006004820152602401610d64565b600061275d838360006124af565b90506001600160a01b03811615610dfc576040517f73c6ac6e00000000000000000000000000000000000000000000000000000000815260006004820152602401610d64565b6000606060258351116127c85750506040805160208101909152600080825290612972565b6000836127d760046020615662565b815181106127e7576127e7614e40565b0160209081015160f81c91505b600085612802600484615662565b8151811061281257612812614e40565b01602001517fff000000000000000000000000000000000000000000000000000000000000001614801590612850575061284d602083615675565b81105b1561296f57600085612863600484615662565b8151811061287357612873614e40565b016020908101518784019091015160f89190911c91506001600160e01b0319808916908216036129655760006128aa602086615675565b6128b5600986615662565b1015806129025750876128c9600986615662565b815181106128d9576128d9614e40565b01602001517fff0000000000000000000000000000000000000000000000000000000000000016155b61293b57602088612914600987615662565b8151811061292457612924614e40565b0160200151612936919060f81c615675565b61293e565b87515b9050600161295789612951602087615675565b846137fd565b965096505050505050612972565b50506005016127f4565b50505b9250929050565b600061298860008360006124af565b90506001600160a01b038116610a8b57604051637e27328960e01b815260048101839052602401610d64565b600a546040517f86bc2be30000000000000000000000000000000000000000000000000000000081526001600160a01b03909116906386bc2be3906129fd908490600401614626565b600060405180830381600087803b158015612a1757600080fd5b505af1158015612a2b573d6000803e3d6000fd5b5050505050565b604080516060810182526000546001600160a01b0381168252600160a01b81046affffffffffffffffffffff1660208301819052600160f81b90910460ff1692820192909252906117dc9015612b225760208201516040516331a9108f60e11b81526affffffffffffffffffffff90911660048201527f0000000000000000000000004d9207abeca883161a1eaee9dabedc0001c198d76001600160a01b031690636352211e90602401602060405180830381865afa158015612af9573d6000803e3d6000fd5b505050506040513d601f19601f82011682018060405250810190612b1d9190614fcf565b612b25565b81515b82602001516affffffffffffffffffffff16836040015160ff16612318565b6affffffffffffffffffffff811615801590612b6857506001600160a01b03821615155b15612b865760405163ecb9b1c760e01b815260040160405180910390fd5b60408051606081018252600080546001600160a01b0381168352600160a01b81046affffffffffffffffffffff1660208401819052600160f81b90910460ff1693830193909352909115612c745760208201516040516331a9108f60e11b81526affffffffffffffffffffff90911660048201527f0000000000000000000000004d9207abeca883161a1eaee9dabedc0001c198d76001600160a01b031690636352211e90602401602060405180830381865afa158015612c4b573d6000803e3d6000fd5b505050506040513d601f19601f82011682018060405250810190612c6f9190614fcf565b612c77565b81515b604080516060810182526001600160a01b0387168082526affffffffffffffffffffff87166020830181905260009290930182905281547fff000000000000000000000000000000000000000000000000000000000000001617600160a01b8302176001600160f81b03169055909150610d3890829015612d8c576040516331a9108f60e11b81526affffffffffffffffffffff861660048201527f0000000000000000000000004d9207abeca883161a1eaee9dabedc0001c198d76001600160a01b031690636352211e90602401602060405180830381865afa158015612d63573d6000803e3d6000fd5b505050506040513d601f19601f82011682018060405250810190612d879190614fcf565b613839565b85613839565b6001600160a01b038216612ddd576040517f5b08ba180000000000000000000000000000000000000000000000000000000081526001600160a01b0383166004820152602401610d64565b6001600160a01b03838116600081815260066020908152604080832094871680845294825291829020805460ff191686151590811790915591519182527f17307eab39ab6107e8899845ad3d59bd9653f200f220920489ca2b5937696c31910160405180910390a3505050565b6001600160a01b0383163b15610d3857604051630a85bd0160e11b81526001600160a01b0384169063150b7a0290612e8c90339088908790879060040161568c565b6020604051808303816000875af1925050508015612ec7575060408051601f3d908101601f19168201909252612ec4918101906156c8565b60015b612f30573d808015612ef5576040519150601f19603f3d011682016040523d82523d6000602084013e612efa565b606091505b508051600003612f2857604051633250574960e11b81526001600160a01b0385166004820152602401610d64565b805181602001fd5b6001600160e01b03198116630a85bd0160e11b14612a2b57604051633250574960e11b81526001600160a01b0385166004820152602401610d64565b612f76828261387d565b5050600755565b600080546001600160f81b0316600160f81b60ff8416908102919091179091556040519081527f6f4725627084d54c46c628b050805457a1cd38c5cd20c1f00132960f8b546fed9060200160405180910390a150565b6040517f12200000000000000000000000000000000000000000000000000000000000006020820152602281018290526060906000906042016040516020818303038152906040529050600061302882613896565b9050848160405160200161303d9291906156e5565b6040516020818303038152906040529250505092915050565b60095460009063ffffffff811660c084013581900361307b5760808401359250613155565b602882901c6001600160a01b03811615612a2b5760ff602084901c1661315060808701356130aa83600a6157f8565b6007546040517f3be273fa000000000000000000000000000000000000000000000000000000008152600481019190915260c08a013560248201526044810187905260a08a013560648201526001600160a01b03861690633be273fa90608401602060405180830381865afa158015613127573d6000803e3d6000fd5b505050506040513d601f19601f8201168201806040525081019061314b919061507d565b613a2e565b945050505b5060009050600c8161316f6101c086016101a08701614639565b6001600160a01b031681526020810191909152604001600090812054915082906131a16101c086016101a08701614639565b6001600160a01b03166131b76020870187614639565b6001600160a01b0316036131ce57908201906131d1565b50815b60003060601b81806131eb836112556101e08c018c615014565b9150915081156132bf5760608180602001905181019061320b9190615804565b90955090508480156132895750600a54604051634228826f60e11b81523060048201526001600160a01b039091169063845104de90602401608060405180830381865afa158015613260573d6000803e3d6000fd5b505050506040513d601f19601f8201168201806040525081019061328491906158b5565b606001515b1561329357600094505b8051156132b9576132b687826132b16101c08e016101a08f01614639565b613b1b565b96505b50613338565b600a54604051634228826f60e11b81523060048201526001600160a01b039091169063845104de90602401608060405180830381865afa158015613307573d6000803e3d6000fd5b505050506040513d601f19601f8201168201806040525081019061332b91906158b5565b6060015161333857600193505b85156134755783613375576040517f6d5e09a400000000000000000000000000000000000000000000000000000000815260040160405180910390fd5b858501878111156133dd576133926101c08b016101a08c01614639565b6040513381526001600160a01b03919091169082908a8203907f7e71a5f6c04b0eb16949316623b9dda7bd103692f7d89678e2260afa1378a2d59060200160405180910390a461343e565b8088111561343e576133f76101c08b016101a08c01614639565b6040513381526001600160a01b0391909116908290818b03907f6276f0169fb8de712b2a6c02789f6115136c589ed491ac06f9e20f41877e41fe9060200160405180910390a45b80600c60006134556101c08e016101a08f01614639565b6001600160a01b03168152602081019190915260400160002055506121b9565b8487146121b95761348e6101c08a016101a08b01614639565b6001600160a01b0316856134a2818a61591c565b6040513381527f6276f0169fb8de712b2a6c02789f6115136c589ed491ac06f9e20f41877e41fe9060200160405180910390a484600c60006134ec6101c08d016101a08e01614639565b6001600160a01b03168152602081019190915260400160002055505050505050505050565b60006001600160e01b031982167f80ac58cd00000000000000000000000000000000000000000000000000000000148061357457506001600160e01b031982167f5b5e139f00000000000000000000000000000000000000000000000000000000145b806109bf57507f01ffc9a7000000000000000000000000000000000000000000000000000000006001600160e01b03198316146109bf565b80806135c057506001600160a01b03821615155b156136ba5760006135d0846122d2565b90506001600160a01b038316158015906135fc5750826001600160a01b0316816001600160a01b031614155b801561362e57506001600160a01b0380821660009081526006602090815260408083209387168352929052205460ff16155b15613670576040517fa9fbf51f0000000000000000000000000000000000000000000000000000000081526001600160a01b0384166004820152602401610d64565b81156136b85783856001600160a01b0316826001600160a01b03167f8c5be1e5ebec7d5bd14f71427d1e84f3dd0314c0f7b2291e5b200ac8c7c3b92560405160405180910390a45b505b50506000908152600560205260409020805473ffffffffffffffffffffffffffffffffffffffff19166001600160a01b0392909216919091179055565b6000828152600360205260408120546001600160a01b039081169083161561372457613724818486613c5d565b6001600160a01b03811615613762576137416000856000806135ac565b6001600160a01b038116600090815260046020526040902080546000190190555b6001600160a01b03851615613791576001600160a01b0385166000908152600460205260409020805460010190555b600084815260036020526040808220805473ffffffffffffffffffffffffffffffffffffffff19166001600160a01b0389811691821790925591518793918516917fddf252ad1be2c89b69c2b068fc378daa952ba7f163c4a11628f55a4df523b3ef91a4949350505050565b60608282036040519150602081830101604052808252508260208501016020820160005b84811015611554578281015182820152602001613821565b806001600160a01b0316826001600160a01b03167f8be0079c531659141344cd1fd0a4f28419497f9722a3daafe3b4186f6b6457e060405160405180910390a35050565b60016138898382615159565b506002610dfc8282615159565b606081516000036138b557505060408051600081526020810190915290565b60408051602e8082526105e08201909252600091602082016105c0803683370190505090506000816000815181106138ef576138ef614e40565b60ff90921660209283029190910190910152825160019060005b81811015613a0a57600086828151811061392557613925614e40565b016020015160f81c905060005b8460ff168110156139af57600886828151811061395157613951614e40565b602002602001015160ff16901b826139699190615662565b9150613976603a83615945565b86828151811061398857613988614e40565b60ff909216602092830291909101909101526139a5603a83615959565b9150600101613932565b505b8015613a01576139c2603a82615945565b858560ff16815181106139d7576139d7614e40565b60ff909216602092830291909101909101526001909301926139fa603a82615959565b90506139b1565b50600101613909565b50613a25613a20613a1b8585613cda565b613d82565b613e25565b95945050505050565b6000808060001985870985870292508281108382030391505080600003613a6857838281613a5e57613a5e61592f565b0492505050610ee5565b838110613ab2576040517f63a05778000000000000000000000000000000000000000000000000000000008152600481018790526024810186905260448101859052606401610d64565b60008486880960026001871981018816978890046003810283188082028403028082028403028082028403028082028403028082028403029081029092039091026000889003889004909101858311909403939093029303949094049190911702949350505050565b600a5460405163eaa19ab360e01b81526000916060916001600160a01b039091169063eaa19ab390613b559088908890879060040161596d565b6000604051808303816000875af1158015613b74573d6000803e3d6000fd5b505050506040513d6000823e601f3d908101601f19168201604052613b9c91908101906150f5565b81519093509091506000805b82811015613c5257838181518110613bc257613bc2614e40565b60200260200101519150613bd68683612725565b856001600160a01b0316878281518110613bf257613bf2614e40565b602002602001015161ffff16837f598baf7bf150ca2f42be9e9f8f55e81d45f5715c3ff22bf46d697fabec7f31d68b33604051613c429291909182526001600160a01b0316602082015260400190565b60405180910390a4600101613ba8565b505050509392505050565b613c68838383613eff565b610dfc576001600160a01b038316613c9657604051637e27328960e01b815260048101829052602401610d64565b6040517f177e802f0000000000000000000000000000000000000000000000000000000081526001600160a01b038316600482015260248101829052604401610d64565b606060008260ff1667ffffffffffffffff811115613cfa57613cfa61437d565b604051908082528060200260200182016040528015613d23578160200160208202803683370190505b50905060005b8360ff16811015613d7a57848181518110613d4657613d46614e40565b6020026020010151828281518110613d6057613d60614e40565b60ff90921660209283029190910190910152600101613d29565b509392505050565b805160609060008167ffffffffffffffff811115613da257613da261437d565b604051908082528060200260200182016040528015613dcb578160200160208202803683370190505b50905060005b82811015613d7a57848160018751030381518110613df157613df1614e40565b6020026020010151828281518110613e0b57613e0b614e40565b60ff90921660209283029190910190910152600101613dd1565b805160609060008167ffffffffffffffff811115613e4557613e4561437d565b6040519080825280601f01601f191660200182016040528015613e6f576020820181803683370190505b50905060005b82811015613d7a576040518060600160405280603a81526020016159cd603a9139858281518110613ea857613ea8614e40565b602002602001015160ff1681518110613ec357613ec3614e40565b602001015160f81c60f81b828281518110613ee057613ee0614e40565b60200101906001600160f81b031916908160001a905350600101613e75565b60006001600160a01b03831615801590611d5c5750826001600160a01b0316846001600160a01b03161480613f5957506001600160a01b0380851660009081526006602090815260408083209387168352929052205460ff165b80611d5c5750506000908152600560205260409020546001600160a01b03908116911614919050565b6001600160e01b0319811681146117dc57600080fd5b600060208284031215613faa57600080fd5b8135610ee581613f82565b60005b83811015613fd0578181015183820152602001613fb8565b50506000910152565b60008151808452613ff1816020860160208601613fb5565b601f01601f19169290920160200192915050565b602081526000610ee56020830184613fd9565b60006020828403121561402a57600080fd5b5035919050565b6001600160a01b03811681146117dc57600080fd5b803561405181614031565b919050565b6000806040838503121561406957600080fd5b823561407481614031565b946020939093013593505050565b60008083601f84011261409457600080fd5b50813567ffffffffffffffff8111156140ac57600080fd5b60208301915083602082850101111561297257600080fd5b600080600080600080600060a0888a0312156140df57600080fd5b873567ffffffffffffffff808211156140f757600080fd5b6141038b838c01614082565b909950975060208a013591508082111561411c57600080fd5b506141298a828b01614082565b909650945050604088013561413d81614031565b969995985093969295946060840135945060809093013592915050565b6000806020838503121561416d57600080fd5b823567ffffffffffffffff8082111561418557600080fd5b818501915085601f83011261419957600080fd5b8135818111156141a857600080fd5b8660208260061b85010111156141bd57600080fd5b60209290920196919550909350505050565b6000806000606084860312156141e457600080fd5b83356141ef81614031565b925060208401356141ff81614031565b929592945050506040919091013590565b60006020828403121561422257600080fd5b813567ffffffffffffffff81111561423957600080fd5b82016101808185031215610ee557600080fd5b6000604080830185845260206040818601528186518084526060935060608701915060608160051b88010183890160005b838110156142cd57898303605f19018552815180516001600160a01b0316845286810151878501528801518884018890526142ba88850182613fd9565b958701959350509085019060010161427d565b50909a9950505050505050505050565b600080604083850312156142f057600080fd5b50508035926020909101359150565b6000610200828403121561431257600080fd5b50919050565b60006020828403121561432a57600080fd5b813567ffffffffffffffff81111561434157600080fd5b611d5c848285016142ff565b6000806040838503121561436057600080fd5b82359150602083013561437281614031565b809150509250929050565b634e487b7160e01b600052604160045260246000fd5b6040516080810167ffffffffffffffff811182821017156143b6576143b661437d565b60405290565b604051610180810167ffffffffffffffff811182821017156143b6576143b661437d565b604051610120810167ffffffffffffffff811182821017156143b6576143b661437d565b6040516101a0810167ffffffffffffffff811182821017156143b6576143b661437d565b604051601f8201601f1916810167ffffffffffffffff811182821017156144515761445161437d565b604052919050565b600067ffffffffffffffff8211156144735761447361437d565b5060051b60200190565b60006101a0828403121561431257600080fd5b600080604083850312156144a357600080fd5b823567ffffffffffffffff808211156144bb57600080fd5b818501915085601f8301126144cf57600080fd5b813560206144e46144df83614459565b614428565b82815260059290921b8401810191818101908984111561450357600080fd5b948201945b8386101561452157853582529482019490820190614508565b9650508601359250508082111561453757600080fd5b506145448582860161447d565b9150509250929050565b60008083601f84011261456057600080fd5b50813567ffffffffffffffff81111561457857600080fd5b6020830191508360208260051b850101111561297257600080fd5b6000806000604084860312156145a857600080fd5b833567ffffffffffffffff8111156145bf57600080fd5b6145cb8682870161454e565b90945092505060208401356145df81614031565b809150509250925092565b60008151808452602080850194506020840160005b8381101561461b578151875295820195908201906001016145ff565b509495945050505050565b602081526000610ee560208301846145ea565b60006020828403121561464b57600080fd5b8135610ee581614031565b80151581146117dc57600080fd5b803561405181614656565b6000806040838503121561468257600080fd5b823561468d81614031565b9150602083013561437281614656565b6000602082840312156146af57600080fd5b813567ffffffffffffffff8111156146c657600080fd5b611d5c8482850161447d565b60006080820186835260208681850152604086604086015260606080606087015283875180865260a08801915060a08160051b890101955084890160005b8281101561476057898803609f19018452815180516001600160a01b0316895287810151888a015286015186890186905261474d868a0182613fd9565b9850509286019290860190600101614710565b50959c9b505050505050505050505050565b600067ffffffffffffffff82111561478c5761478c61437d565b50601f01601f191660200190565b60006147a86144df84614772565b90508281528383830111156147bc57600080fd5b828260208301376000602084830101529392505050565b600080600080608085870312156147e957600080fd5b84356147f481614031565b9350602085013561480481614031565b925060408501359150606085013567ffffffffffffffff81111561482757600080fd5b8501601f8101871361483857600080fd5b6148478782356020840161479a565b91505092959194509250565b600082601f83011261486457600080fd5b610ee58383356020850161479a565b80356cffffffffffffffffffffffffff8116811461405157600080fd5b803563ffffffff8116811461405157600080fd5b61ffff811681146117dc57600080fd5b8035614051816148a4565b803562ffffff8116811461405157600080fd5b803560ff8116811461405157600080fd5b600060808083850312156148f657600080fd5b6148fe614393565b9150823567ffffffffffffffff81111561491757600080fd5b8301601f8101851361492857600080fd5b803560206149386144df83614459565b828152610180928302840182019282820191908985111561495857600080fd5b948301945b84861015614a4b5780868b0312156149755760008081fd5b61497d6143bc565b61498687614873565b8152614993858801614890565b8582015260406149a4818901614890565b9082015260606149b58882016148b4565b908201526149c4878901614046565b8189015260a0878101359082015260c06149df8189016148bf565b9082015260e06149f0888201614664565b90820152610100614a02888201614664565b90820152610120614a14888201614664565b90820152610140614a26888201614664565b90820152610160614a38888201614664565b908201528352948501949183019161495d565b50865250614a5a868201614890565b8186015250505050614a6e604083016148d2565b6040820152614a7f60608301614046565b606082015292915050565b600060808284031215614a9c57600080fd5b614aa4614393565b90508135614ab181614656565b81526020820135614ac181614656565b60208201526040820135614ad481614656565b60408201526060820135614a7f81614656565b6000806000806000806000806000806101a08b8d031215614b0757600080fd5b8a35995060208b013567ffffffffffffffff80821115614b2657600080fd5b614b328e838f01614853565b9a5060408d0135915080821115614b4857600080fd5b614b548e838f01614853565b9950614b6260608e01614046565b985060808d0135915080821115614b7857600080fd5b614b848e838f01614853565b9750614b9260a08e01614046565b965060c08d0135915080821115614ba857600080fd5b614bb48e838f01614853565b955060e08d0135915080821115614bca57600080fd5b50614bd78d828e016148e3565b935050614be76101008c01614046565b9150614bf78c6101208d01614a8a565b90509295989b9194979a5092959850565b600060208284031215614c1a57600080fd5b610ee5826148d2565b60008060408385031215614c3657600080fd5b8235614c4181614031565b9150602083013561437281614031565b60008060008060408587031215614c6757600080fd5b843567ffffffffffffffff80821115614c7f57600080fd5b818701915087601f830112614c9357600080fd5b813581811115614ca257600080fd5b88602061018083028501011115614cb857600080fd5b602092830196509450908601359080821115614cd357600080fd5b50614ce08782880161454e565b95989497509550505050565b600181811c90821680614d0057607f821691505b60208210810361431257634e487b7160e01b600052602260045260246000fd5b601f821115610dfc576000816000526020600020601f850160051c81016020861015614d495750805b601f850160051c820191505b81811015614d6857828155600101614d55565b505050505050565b67ffffffffffffffff831115614d8857614d8861437d565b614d9c83614d968354614cec565b83614d20565b6000601f841160018114614dd05760008515614db85750838201355b600019600387901b1c1916600186901b178355612a2b565b600083815260209020601f19861690835b82811015614e015786850135825560209485019460019092019101614de1565b5086821015614e1e5760001960f88860031b161c19848701351681555b505060018560011b0183555050505050565b8183823760009101908152919050565b634e487b7160e01b600052603260045260246000fd5b600060408284031215614e6857600080fd5b6040516040810181811067ffffffffffffffff82111715614e8b57614e8b61437d565b604052823581526020928301359281019290925250919050565b805161405181614031565b60006101208284031215614ec357600080fd5b614ecb6143e0565b825181526020830151602082015260408301516040820152606083015160608201526080830151608082015260a083015160a082015260c083015160c0820152614f1760e08401614ea5565b60e0820152610100928301519281019290925250919050565b600082601f830112614f4157600080fd5b81516020614f516144df83614459565b8083825260208201915060208460051b870101935086841115614f7357600080fd5b602086015b84811015614f8f5780518352918301918301614f78565b509695505050505050565b600060208284031215614fac57600080fd5b815167ffffffffffffffff811115614fc357600080fd5b611d5c84828501614f30565b600060208284031215614fe157600080fd5b8151610ee581614031565b805161405181614656565b60006020828403121561500957600080fd5b8151610ee581614656565b6000808335601e1984360301811261502b57600080fd5b83018035915067ffffffffffffffff82111561504657600080fd5b60200191503681900382131561297257600080fd5b6001600160a01b0383168152604060208201526000611d5c60408301846145ea565b60006020828403121561508f57600080fd5b5051919050565b84815260606020808301829052908201849052600090859060808401835b878110156150dd5783356150c7816148a4565b61ffff16825292820192908201906001016150b4565b50809350505050821515604083015295945050505050565b6000806040838503121561510857600080fd5b825167ffffffffffffffff81111561511f57600080fd5b61512b85828601614f30565b925050602083015190509250929050565b60006020828403121561514e57600080fd5b8135610ee5816148a4565b815167ffffffffffffffff8111156151735761517361437d565b615187816151818454614cec565b84614d20565b602080601f8311600181146151bc57600084156151a45750858301515b600019600386901b1c1916600185901b178555614d68565b600085815260208120601f198616915b828110156151eb578886015182559484019460019091019084016151cc565b50858210156152095787850151600019600388901b60f8161c191681555b5050505050600190811b01905550565b602080825282518282018190526000919060409081850190868401855b828110156152f957815180516cffffffffffffffffffffffffff1685528681015163ffffffff9081168887015286820151168686015260608082015161ffff16908601526080808201516001600160a01b03169086015260a0808201519086015260c08082015162ffffff169086015260e080820151151590860152610100808201511515908601526101208082015115159086015261014080820151151590860152610160908101511515908501526101809093019290850190600101615236565b5091979650505050505050565b600082601f83011261531757600080fd5b81516153256144df82614772565b81815284602083860101111561533a57600080fd5b611d5c826020830160208701613fb5565b60006020828403121561535d57600080fd5b815167ffffffffffffffff81111561537457600080fd5b611d5c84828501615306565b6020815281602082015260007f07ffffffffffffffffffffffffffffffffffffffffffffffffffffffffffffff8311156153b957600080fd5b8260051b80856040850137919091016040019392505050565b6153f2826153df83614873565b6cffffffffffffffffffffffffff169052565b6153fe60208201614890565b63ffffffff16602083015261541560408201614890565b63ffffffff16604083015261542c606082016148b4565b61ffff16606083015261544160808201614046565b6001600160a01b0316608083015260a0818101359083015261546560c082016148bf565b62ffffff1660c083015261547b60e08201614664565b151560e0830152610100615490828201614664565b1515908301526101206154a4828201614664565b1515908301526101406154b8828201614664565b1515908301526101606154cc828201614664565b80151584830152610d38565b6020808252810182905260008360408301825b85811015615511576154fd82846153d2565b6101809283019291909101906001016154eb565b5095945050505050565b6101a0810161552a82856153d2565b6001600160a01b0383166101808301529392505050565b60006020828403121561555357600080fd5b815167ffffffffffffffff8082111561556b57600080fd5b908301906101a0828603121561558057600080fd5b615588614404565b825181526020830151602082015260408301516040820152606083015160608201526080830151608082015260a083015160a08201526155ca60c08401614ea5565b60c082015260e083015160e08201526101008084015181830152506101206155f3818501614fec565b90820152610140615605848201614fec565b90820152610160615617848201614fec565b90820152610180838101518381111561562f57600080fd5b61563b88828701615306565b918301919091525095945050505050565b634e487b7160e01b600052601160045260246000fd5b808201808211156109bf576109bf61564c565b80820281158282048414176109bf576109bf61564c565b60006001600160a01b038087168352808616602084015250836040830152608060608301526156be6080830184613fd9565b9695505050505050565b6000602082840312156156da57600080fd5b8151610ee581613f82565b600083516156f7818460208801613fb5565b83519083019061570b818360208801613fb5565b01949350505050565b600181815b8085111561574f5781600019048211156157355761573561564c565b8085161561574257918102915b93841c9390800290615719565b509250929050565b600082615766575060016109bf565b81615773575060006109bf565b81600181146157895760028114615793576157af565b60019150506109bf565b60ff8411156157a4576157a461564c565b50506001821b6109bf565b5060208310610133831016604e8410600b84101617156157d2575081810a6109bf565b6157dc8383615714565b80600019048211156157f0576157f061564c565b029392505050565b6000610ee58383615757565b6000806040838503121561581757600080fd5b825161582281614656565b8092505060208084015167ffffffffffffffff81111561584157600080fd5b8401601f8101861361585257600080fd5b80516158606144df82614459565b81815260059190911b8201830190838101908883111561587f57600080fd5b928401925b828410156158a6578351615897816148a4565b82529284019290840190615884565b80955050505050509250929050565b6000608082840312156158c757600080fd5b6158cf614393565b82516158da81614656565b815260208301516158ea81614656565b602082015260408301516158fd81614656565b6040820152606083015161591081614656565b60608201529392505050565b818103818111156109bf576109bf61564c565b634e487b7160e01b600052601260045260246000fd5b6000826159545761595461592f565b500690565b6000826159685761596861592f565b500490565b60006060820185835260206060602085015281865180845260808601915060208801935060005b818110156159b457845161ffff1683529383019391830191600101615994565b5050809350505050821515604083015294935050505056fe31323334353637383941424344454647484a4b4c4d4e505152535455565758595a6162636465666768696a6b6d6e6f707172737475767778797aa264697066735822122096bf9f27a7d191f62021e1cc275272e5fdf9a0df1d64cdc7f23cab7988f3a04e64736f6c63430008170033",
			"devdoc": {
				"kind": "dev",
				"methods": {
					"adjustTiers((uint104,uint32,uint32,uint16,address,bytes32,uint24,bool,bool,bool,bool,bool)[],uint256[])": {
						"details": "Only the contract's owner or an operator with the `ADJUST_TIERS` permission from the owner can adjust the tiers.Any added tiers must adhere to this hook's `JB721TiersHookFlags`.",
						"params": {
							"tierIdsToRemove": "The tiers to remove, as an array of tier IDs.",
							"tiersToAdd": "The tiers to add, as an array of `JB721TierConfig` structs`."
						}
					},
					"afterPayRecordedWith((address,uint256,uint256,(address,uint256,uint256,uint256),(address,uint256,uint256,uint256),uint256,uint256,address,bytes,bytes))": {
						"details": "Reverts if the calling contract is not one of the project's terminals.",
						"params": {
							"context": "The payment context passed in by the terminal."
						}
					},
					"afterRedeemRecordedWith((address,uint256,uint256,uint256,(address,uint256,uint256,uint256),(address,uint256,uint256,uint256),uint256,address,bytes,bytes))": {
						"details": "Reverts if the calling contract is not one of the project's terminals.",
						"params": {
							"context": "The redemption context passed in by the terminal."
						}
					},
					"approve(address,uint256)": {
						"details": "See {IERC721-approve}."
					},
					"balanceOf(address)": {
						"params": {
							"owner": "The address to check the balance of."
						},
						"returns": {
							"balance": "The number of NFTs the address owns across this hook's tiers."
						}
					},
					"beforePayRecordedWith((address,address,(address,uint256,uint256,uint256),uint256,uint256,address,uint256,uint256,bytes))": {
						"details": "Sets this contract as the pay hook. Part of `IJBRulesetDataHook`.",
						"params": {
							"context": "The payment context passed to this contract by the `pay(...)` function."
						},
						"returns": {
							"hookSpecifications": "The amount and data to send to pay hooks (this contract) instead of adding to the terminal's balance.",
							"weight": "The new `weight` to use, overriding the ruleset's `weight`."
						}
					},
					"beforeRedeemRecordedWith((address,address,uint256,uint256,uint256,uint256,(address,uint256,uint256,uint256),bool,uint256,bytes))": {
						"details": "Sets this contract as the redeem hook. Part of `IJBRulesetDataHook`.This function is used for NFT redemptions, and will only be called if the project's ruleset has `useDataHookForRedeem` set to `true`.",
						"params": {
							"context": "The redemption context passed to this contract by the `redeemTokensOf(...)` function."
						},
						"returns": {
							"hookSpecifications": "The amount and data to send to redeem hooks (this contract) instead of returning to the beneficiary.",
							"redeemCount": "The amount of tokens that should be considered redeemed.",
							"redemptionRate": "The redemption rate influencing the reclaim amount.",
							"totalSupply": "The total amount of tokens that are considered to be existing."
						}
					},
					"constructor": {
						"params": {
							"directory": "A directory of terminals and controllers for projects.",
							"permissions": "A contract storing permissions."
						}
					},
					"firstOwnerOf(uint256)": {
						"details": "This is generally the address which paid for the NFT.",
						"params": {
							"tokenId": "The token ID of the NFT to get the first owner of."
						},
						"returns": {
							"_0": "The address of the NFT's first owner."
						}
					},
					"getApproved(uint256)": {
						"details": "See {IERC721-getApproved}."
					},
					"initialize(uint256,string,string,address,string,address,string,((uint104,uint32,uint32,uint16,address,bytes32,uint24,bool,bool,bool,bool,bool)[],uint32,uint8,address),address,(bool,bool,bool,bool))": {
						"params": {
							"baseUri": "The URI to use as a base for full NFT `tokenUri`s.",
							"contractUri": "A URI where this contract's metadata can be found.",
							"flags": "A set of additional options which dictate how the hook behaves.",
							"name": "The name of the NFT collection.",
							"projectId": "The ID of the project this this hook is associated with.",
							"rulesets": "A contract storing and managing project rulesets.",
							"store": "The contract which stores the NFT's data.",
							"symbol": "The symbol representing the NFT collection.",
							"tiersConfig": "The NFT tiers and pricing context to initialize the hook with. The tiers must be sorted by price (from least to greatest).",
							"tokenUriResolver": "An optional contract responsible for resolving the token URI for each NFT's token ID."
						}
					},
					"isApprovedForAll(address,address)": {
						"details": "See {IERC721-isApprovedForAll}."
					},
					"mintFor(uint16[],address)": {
						"params": {
							"beneficiary": "The address to mint to.",
							"tierIds": "The IDs of the tiers to mint from."
						},
						"returns": {
							"tokenIds": "The IDs of the newly minted tokens."
						}
					},
					"mintPendingReservesFor((uint256,uint256)[])": {
						"details": "\"Pending\" means that the NFTs have been reserved, but have not been minted yet.",
						"params": {
							"reserveMintConfigs": "Contains information about how many reserved tokens to mint for each tier."
						}
					},
					"mintPendingReservesFor(uint256,uint256)": {
						"details": "\"Pending\" means that the NFTs have been reserved, but have not been minted yet.",
						"params": {
							"count": "The number of reserved NFTs to mint.",
							"tierId": "The ID of the tier to mint reserved NFTs from."
						}
					},
					"name()": {
						"details": "See {IERC721Metadata-name}."
					},
					"ownerOf(uint256)": {
						"details": "See {IERC721-ownerOf}."
					},
					"pricingContext()": {
						"details": "If the `prices` contract is the zero address, this contract only accepts payments in the `currency` token.",
						"returns": {
							"currency": "The currency used for tier prices.",
							"decimals": "The amount of decimals being used in tier prices.",
							"prices": "The prices contract used to resolve the value of payments in currencies other than `currency`."
						}
					},
					"redemptionWeightOf(uint256[],(address,address,uint256,uint256,uint256,uint256,(address,uint256,uint256,uint256),bool,uint256,bytes))": {
						"details": "An NFT's redemption weight is its price.To get their relative redemption weight, divide the result by the `totalRedemptionWeight(...)`.",
						"params": {
							"tokenIds": "The token IDs of the NFTs to get the cumulative redemption weight of."
						},
						"returns": {
							"_0": "weight The redemption weight of the tokenIds."
						}
					},
					"safeTransferFrom(address,address,uint256)": {
						"details": "See {IERC721-safeTransferFrom}."
					},
					"safeTransferFrom(address,address,uint256,bytes)": {
						"details": "See {IERC721-safeTransferFrom}."
					},
					"setApprovalForAll(address,bool)": {
						"details": "See {IERC721-setApprovalForAll}."
					},
					"setMetadata(string,string,address,uint256,bytes32)": {
						"details": "Only this contract's owner can set the metadata.",
						"params": {
							"baseUri": "The new base URI.",
							"contractUri": "The new contract URI.",
							"encodedIPFSTUriTierId": "The ID of the tier to set the encoded IPFS URI of.",
							"encodedIPFSUri": "The encoded IPFS URI to set.",
							"tokenUriResolver": "The new URI resolver."
						}
					},
					"setPermissionId(uint8)": {
						"params": {
							"permissionId": "The ID of the permission to use for `onlyOwner`."
						}
					},
					"supportsInterface(bytes4)": {
						"details": "See {IERC165-supportsInterface}.",
						"params": {
							"interfaceId": "The ID of the interface to check for adherence to."
						}
					},
					"symbol()": {
						"details": "See {IERC721Metadata-symbol}."
					},
					"tokenURI(uint256)": {
						"details": "Defers to the `tokenUriResolver` if it is set. Otherwise, use the `tokenUri` corresponding with the NFT's tier.",
						"params": {
							"tokenId": "The token ID of the NFT to get the metadata URI of."
						},
						"returns": {
							"_0": "The token URI from the `tokenUriResolver` if it is set. If it isn't set, the token URI for the NFT's tier."
						}
					},
					"totalRedemptionWeight((address,address,uint256,uint256,uint256,uint256,(address,uint256,uint256,uint256),bool,uint256,bytes))": {
						"details": "An NFT's redemption weight is its price.",
						"returns": {
							"_0": "weight The total redemption weight."
						}
					},
					"transferFrom(address,address,uint256)": {
						"details": "See {IERC721-transferFrom}."
					},
					"transferOwnership(address)": {
						"params": {
							"newOwner": "The address that should receive ownership of this contract."
						}
					},
					"transferOwnershipToProject(uint256)": {
						"details": "The `projectId` must fit within a `uint88`.",
						"params": {
							"projectId": "The ID of the project that should receive ownership of this contract."
						}
					}
				},
				"version": 1
			},
			"userdoc": {
				"kind": "user",
				"methods": {
					"CODE_ORIGIN()": {
						"notice": "The address of the original `JB721TiersHook`."
					},
					"DIRECTORY()": {
						"notice": "The directory of terminals and controllers for projects."
					},
					"PERMISSIONS()": {
						"notice": "A contract storing permissions."
					},
					"PROJECTS()": {
						"notice": "Mints ERC-721s that represent project ownership and transfers."
					},
					"RULESETS()": {
						"notice": "The contract storing and managing project rulesets."
					},
					"STORE()": {
						"notice": "The contract that stores and manages data for this contract's NFTs."
					},
					"adjustTiers((uint104,uint32,uint32,uint16,address,bytes32,uint24,bool,bool,bool,bool,bool)[],uint256[])": {
						"notice": "Add or delete tiers."
					},
					"afterPayRecordedWith((address,uint256,uint256,(address,uint256,uint256,uint256),(address,uint256,uint256,uint256),uint256,uint256,address,bytes,bytes))": {
						"notice": "Mints one or more NFTs to the `context.benficiary` upon payment if conditions are met. Part of `IJBPayHook`."
					},
					"afterRedeemRecordedWith((address,uint256,uint256,uint256,(address,uint256,uint256,uint256),(address,uint256,uint256,uint256),uint256,address,bytes,bytes))": {
						"notice": "Burns the specified NFTs upon token holder redemption, reclaiming funds from the project's balance for `context.beneficiary`. Part of `IJBRedeemHook`."
					},
					"balanceOf(address)": {
						"notice": "The total number of this hook's NFTs that an address holds (from all tiers)."
					},
					"baseURI()": {
						"notice": "The base URI for the NFT `tokenUris`."
					},
					"beforePayRecordedWith((address,address,(address,uint256,uint256,uint256),uint256,uint256,address,uint256,uint256,bytes))": {
						"notice": "The data calculated before a payment is recorded in the terminal store. This data is provided to the terminal's `pay(...)` transaction."
					},
					"beforeRedeemRecordedWith((address,address,uint256,uint256,uint256,uint256,(address,uint256,uint256,uint256),bool,uint256,bytes))": {
						"notice": "The data calculated before a redemption is recorded in the terminal store. This data is provided to the terminal's `redeemTokensOf(...)` transaction."
					},
					"contractURI()": {
						"notice": "This contract's metadata URI."
					},
					"firstOwnerOf(uint256)": {
						"notice": "The first owner of an NFT."
					},
					"hasMintPermissionFor(uint256,address)": {
						"notice": "Required by the IJBRulesetDataHook interfaces. Return false to not leak any permissions."
					},
					"initialize(uint256,string,string,address,string,address,string,((uint104,uint32,uint32,uint16,address,bytes32,uint24,bool,bool,bool,bool,bool)[],uint32,uint8,address),address,(bool,bool,bool,bool))": {
						"notice": "Initializes a cloned copy of the original `JB721Hook` contract."
					},
					"jbOwner()": {
						"notice": "This contract's owner information."
					},
					"mintFor(uint16[],address)": {
						"notice": "Manually mint NFTs from the provided tiers ."
					},
					"mintPendingReservesFor((uint256,uint256)[])": {
						"notice": "Mint pending reserved NFTs based on the provided information."
					},
					"mintPendingReservesFor(uint256,uint256)": {
						"notice": "Mint reserved pending reserved NFTs within the provided tier."
					},
					"owner()": {
						"notice": "Returns the owner's address based on this contract's `JBOwner` owner information."
					},
					"payCreditsOf(address)": {
						"notice": "If an address pays more than the price of the NFT they received, the extra amount is stored as credits which can be redeemed to mint NFTs."
					},
					"pricingContext()": {
						"notice": "Context for the pricing of this hook's tiers."
					},
					"projectId()": {
						"notice": "The ID of the project that this contract is associated with."
					},
					"redemptionWeightOf(uint256[],(address,address,uint256,uint256,uint256,uint256,(address,uint256,uint256,uint256),bool,uint256,bytes))": {
						"notice": "The combined redemption weight of the NFTs with the specified token IDs."
					},
					"renounceOwnership()": {
						"notice": "Gives up ownership of this contract, making it impossible to call `onlyOwner`/`_checkOwner` functions. Can only be called by the current owner."
					},
					"setMetadata(string,string,address,uint256,bytes32)": {
						"notice": "Update this hook's URI metadata properties."
					},
					"setPermissionId(uint8)": {
						"notice": "Sets the permission ID which, when granted from the owner, allows other addresses to perform operations on their behalf."
					},
					"supportsInterface(bytes4)": {
						"notice": "Indicates if this contract adheres to the specified interface."
					},
					"tokenURI(uint256)": {
						"notice": "The metadata URI of the NFT with the specified token ID."
					},
					"totalRedemptionWeight((address,address,uint256,uint256,uint256,uint256,(address,uint256,uint256,uint256),bool,uint256,bytes))": {
						"notice": "The combined redemption weight of all outstanding NFTs."
					},
					"transferOwnership(address)": {
						"notice": "Transfers ownership of this contract to a new account (the `newOwner`). Can only be called by the current owner."
					},
					"transferOwnershipToProject(uint256)": {
						"notice": "Transfer ownership of this contract to a new Juicebox project."
					}
				},
				"version": 1
			},
			"gitCommit": "0ffcece295a2a9ff3878fbb9496ab6688eab8049",
			"sourceName": "src/JB721TiersHook.sol",
			"chainId": "11155111",
			"linkReferences": {},
			"deployedLinkReferences": {}
		},
		{
			"_format": "sphinx-sol-ct-artifact-1",
			"merkleRoot": "0xf29a925ad7595b534a7334af3cff0f2715becdc9b501f846c233331b92b7a47a",
			"contractName": "JB721TiersHook",
			"address": "0x7c8Ef86687a0Bfa1882D2f25866Cd4EA354EeA3C",
			"abi": [
				{
					"type": "constructor",
					"inputs": [
						{
							"name": "directory",
							"type": "address",
							"internalType": "contract IJBDirectory"
						},
						{
							"name": "permissions",
							"type": "address",
							"internalType": "contract IJBPermissions"
						},
						{
							"name": "trustedForwarder",
							"type": "address",
							"internalType": "address"
						}
					],
					"stateMutability": "nonpayable"
				},
				{
					"type": "function",
					"name": "DIRECTORY",
					"inputs": [],
					"outputs": [
						{
							"name": "",
							"type": "address",
							"internalType": "contract IJBDirectory"
						}
					],
					"stateMutability": "view"
				},
				{
					"type": "function",
					"name": "METADATA_ID_TARGET",
					"inputs": [],
					"outputs": [
						{
							"name": "",
							"type": "address",
							"internalType": "address"
						}
					],
					"stateMutability": "view"
				},
				{
					"type": "function",
					"name": "PERMISSIONS",
					"inputs": [],
					"outputs": [
						{
							"name": "",
							"type": "address",
							"internalType": "contract IJBPermissions"
						}
					],
					"stateMutability": "view"
				},
				{
					"type": "function",
					"name": "PROJECTS",
					"inputs": [],
					"outputs": [
						{
							"name": "",
							"type": "address",
							"internalType": "contract IJBProjects"
						}
					],
					"stateMutability": "view"
				},
				{
					"type": "function",
					"name": "PROJECT_ID",
					"inputs": [],
					"outputs": [
						{
							"name": "",
							"type": "uint256",
							"internalType": "uint256"
						}
					],
					"stateMutability": "view"
				},
				{
					"type": "function",
					"name": "RULESETS",
					"inputs": [],
					"outputs": [
						{
							"name": "",
							"type": "address",
							"internalType": "contract IJBRulesets"
						}
					],
					"stateMutability": "view"
				},
				{
					"type": "function",
					"name": "STORE",
					"inputs": [],
					"outputs": [
						{
							"name": "",
							"type": "address",
							"internalType": "contract IJB721TiersHookStore"
						}
					],
					"stateMutability": "view"
				},
				{
					"type": "function",
					"name": "adjustTiers",
					"inputs": [
						{
							"name": "tiersToAdd",
							"type": "tuple[]",
							"internalType": "struct JB721TierConfig[]",
							"components": [
								{
									"name": "price",
									"type": "uint104",
									"internalType": "uint104"
								},
								{
									"name": "initialSupply",
									"type": "uint32",
									"internalType": "uint32"
								},
								{
									"name": "votingUnits",
									"type": "uint32",
									"internalType": "uint32"
								},
								{
									"name": "reserveFrequency",
									"type": "uint16",
									"internalType": "uint16"
								},
								{
									"name": "reserveBeneficiary",
									"type": "address",
									"internalType": "address"
								},
								{
									"name": "encodedIPFSUri",
									"type": "bytes32",
									"internalType": "bytes32"
								},
								{
									"name": "category",
									"type": "uint24",
									"internalType": "uint24"
								},
								{
									"name": "allowOwnerMint",
									"type": "bool",
									"internalType": "bool"
								},
								{
									"name": "useReserveBeneficiaryAsDefault",
									"type": "bool",
									"internalType": "bool"
								},
								{
									"name": "transfersPausable",
									"type": "bool",
									"internalType": "bool"
								},
								{
									"name": "useVotingUnits",
									"type": "bool",
									"internalType": "bool"
								},
								{
									"name": "cannotBeRemoved",
									"type": "bool",
									"internalType": "bool"
								}
							]
						},
						{
							"name": "tierIdsToRemove",
							"type": "uint256[]",
							"internalType": "uint256[]"
						}
					],
					"outputs": [],
					"stateMutability": "nonpayable"
				},
				{
					"type": "function",
					"name": "afterPayRecordedWith",
					"inputs": [
						{
							"name": "context",
							"type": "tuple",
							"internalType": "struct JBAfterPayRecordedContext",
							"components": [
								{
									"name": "payer",
									"type": "address",
									"internalType": "address"
								},
								{
									"name": "projectId",
									"type": "uint256",
									"internalType": "uint256"
								},
								{
									"name": "rulesetId",
									"type": "uint256",
									"internalType": "uint256"
								},
								{
									"name": "amount",
									"type": "tuple",
									"internalType": "struct JBTokenAmount",
									"components": [
										{
											"name": "token",
											"type": "address",
											"internalType": "address"
										},
										{
											"name": "value",
											"type": "uint256",
											"internalType": "uint256"
										},
										{
											"name": "decimals",
											"type": "uint256",
											"internalType": "uint256"
										},
										{
											"name": "currency",
											"type": "uint256",
											"internalType": "uint256"
										}
									]
								},
								{
									"name": "forwardedAmount",
									"type": "tuple",
									"internalType": "struct JBTokenAmount",
									"components": [
										{
											"name": "token",
											"type": "address",
											"internalType": "address"
										},
										{
											"name": "value",
											"type": "uint256",
											"internalType": "uint256"
										},
										{
											"name": "decimals",
											"type": "uint256",
											"internalType": "uint256"
										},
										{
											"name": "currency",
											"type": "uint256",
											"internalType": "uint256"
										}
									]
								},
								{
									"name": "weight",
									"type": "uint256",
									"internalType": "uint256"
								},
								{
									"name": "projectTokenCount",
									"type": "uint256",
									"internalType": "uint256"
								},
								{
									"name": "beneficiary",
									"type": "address",
									"internalType": "address"
								},
								{
									"name": "hookMetadata",
									"type": "bytes",
									"internalType": "bytes"
								},
								{
									"name": "payerMetadata",
									"type": "bytes",
									"internalType": "bytes"
								}
							]
						}
					],
					"outputs": [],
					"stateMutability": "payable"
				},
				{
					"type": "function",
					"name": "afterRedeemRecordedWith",
					"inputs": [
						{
							"name": "context",
							"type": "tuple",
							"internalType": "struct JBAfterRedeemRecordedContext",
							"components": [
								{
									"name": "holder",
									"type": "address",
									"internalType": "address"
								},
								{
									"name": "projectId",
									"type": "uint256",
									"internalType": "uint256"
								},
								{
									"name": "rulesetId",
									"type": "uint256",
									"internalType": "uint256"
								},
								{
									"name": "redeemCount",
									"type": "uint256",
									"internalType": "uint256"
								},
								{
									"name": "reclaimedAmount",
									"type": "tuple",
									"internalType": "struct JBTokenAmount",
									"components": [
										{
											"name": "token",
											"type": "address",
											"internalType": "address"
										},
										{
											"name": "value",
											"type": "uint256",
											"internalType": "uint256"
										},
										{
											"name": "decimals",
											"type": "uint256",
											"internalType": "uint256"
										},
										{
											"name": "currency",
											"type": "uint256",
											"internalType": "uint256"
										}
									]
								},
								{
									"name": "forwardedAmount",
									"type": "tuple",
									"internalType": "struct JBTokenAmount",
									"components": [
										{
											"name": "token",
											"type": "address",
											"internalType": "address"
										},
										{
											"name": "value",
											"type": "uint256",
											"internalType": "uint256"
										},
										{
											"name": "decimals",
											"type": "uint256",
											"internalType": "uint256"
										},
										{
											"name": "currency",
											"type": "uint256",
											"internalType": "uint256"
										}
									]
								},
								{
									"name": "redemptionRate",
									"type": "uint256",
									"internalType": "uint256"
								},
								{
									"name": "beneficiary",
									"type": "address",
									"internalType": "address payable"
								},
								{
									"name": "hookMetadata",
									"type": "bytes",
									"internalType": "bytes"
								},
								{
									"name": "redeemerMetadata",
									"type": "bytes",
									"internalType": "bytes"
								}
							]
						}
					],
					"outputs": [],
					"stateMutability": "payable"
				},
				{
					"type": "function",
					"name": "approve",
					"inputs": [
						{
							"name": "to",
							"type": "address",
							"internalType": "address"
						},
						{
							"name": "tokenId",
							"type": "uint256",
							"internalType": "uint256"
						}
					],
					"outputs": [],
					"stateMutability": "nonpayable"
				},
				{
					"type": "function",
					"name": "balanceOf",
					"inputs": [
						{
							"name": "owner",
							"type": "address",
							"internalType": "address"
						}
					],
					"outputs": [
						{
							"name": "balance",
							"type": "uint256",
							"internalType": "uint256"
						}
					],
					"stateMutability": "view"
				},
				{
					"type": "function",
					"name": "baseURI",
					"inputs": [],
					"outputs": [
						{
							"name": "",
							"type": "string",
							"internalType": "string"
						}
					],
					"stateMutability": "view"
				},
				{
					"type": "function",
					"name": "beforePayRecordedWith",
					"inputs": [
						{
							"name": "context",
							"type": "tuple",
							"internalType": "struct JBBeforePayRecordedContext",
							"components": [
								{
									"name": "terminal",
									"type": "address",
									"internalType": "address"
								},
								{
									"name": "payer",
									"type": "address",
									"internalType": "address"
								},
								{
									"name": "amount",
									"type": "tuple",
									"internalType": "struct JBTokenAmount",
									"components": [
										{
											"name": "token",
											"type": "address",
											"internalType": "address"
										},
										{
											"name": "value",
											"type": "uint256",
											"internalType": "uint256"
										},
										{
											"name": "decimals",
											"type": "uint256",
											"internalType": "uint256"
										},
										{
											"name": "currency",
											"type": "uint256",
											"internalType": "uint256"
										}
									]
								},
								{
									"name": "projectId",
									"type": "uint256",
									"internalType": "uint256"
								},
								{
									"name": "rulesetId",
									"type": "uint256",
									"internalType": "uint256"
								},
								{
									"name": "beneficiary",
									"type": "address",
									"internalType": "address"
								},
								{
									"name": "weight",
									"type": "uint256",
									"internalType": "uint256"
								},
								{
									"name": "reservedRate",
									"type": "uint256",
									"internalType": "uint256"
								},
								{
									"name": "metadata",
									"type": "bytes",
									"internalType": "bytes"
								}
							]
						}
					],
					"outputs": [
						{
							"name": "weight",
							"type": "uint256",
							"internalType": "uint256"
						},
						{
							"name": "hookSpecifications",
							"type": "tuple[]",
							"internalType": "struct JBPayHookSpecification[]",
							"components": [
								{
									"name": "hook",
									"type": "address",
									"internalType": "contract IJBPayHook"
								},
								{
									"name": "amount",
									"type": "uint256",
									"internalType": "uint256"
								},
								{
									"name": "metadata",
									"type": "bytes",
									"internalType": "bytes"
								}
							]
						}
					],
					"stateMutability": "view"
				},
				{
					"type": "function",
					"name": "beforeRedeemRecordedWith",
					"inputs": [
						{
							"name": "context",
							"type": "tuple",
							"internalType": "struct JBBeforeRedeemRecordedContext",
							"components": [
								{
									"name": "terminal",
									"type": "address",
									"internalType": "address"
								},
								{
									"name": "holder",
									"type": "address",
									"internalType": "address"
								},
								{
									"name": "projectId",
									"type": "uint256",
									"internalType": "uint256"
								},
								{
									"name": "rulesetId",
									"type": "uint256",
									"internalType": "uint256"
								},
								{
									"name": "redeemCount",
									"type": "uint256",
									"internalType": "uint256"
								},
								{
									"name": "totalSupply",
									"type": "uint256",
									"internalType": "uint256"
								},
								{
									"name": "surplus",
									"type": "tuple",
									"internalType": "struct JBTokenAmount",
									"components": [
										{
											"name": "token",
											"type": "address",
											"internalType": "address"
										},
										{
											"name": "value",
											"type": "uint256",
											"internalType": "uint256"
										},
										{
											"name": "decimals",
											"type": "uint256",
											"internalType": "uint256"
										},
										{
											"name": "currency",
											"type": "uint256",
											"internalType": "uint256"
										}
									]
								},
								{
									"name": "useTotalSurplus",
									"type": "bool",
									"internalType": "bool"
								},
								{
									"name": "redemptionRate",
									"type": "uint256",
									"internalType": "uint256"
								},
								{
									"name": "metadata",
									"type": "bytes",
									"internalType": "bytes"
								}
							]
						}
					],
					"outputs": [
						{
							"name": "redemptionRate",
							"type": "uint256",
							"internalType": "uint256"
						},
						{
							"name": "redeemCount",
							"type": "uint256",
							"internalType": "uint256"
						},
						{
							"name": "totalSupply",
							"type": "uint256",
							"internalType": "uint256"
						},
						{
							"name": "hookSpecifications",
							"type": "tuple[]",
							"internalType": "struct JBRedeemHookSpecification[]",
							"components": [
								{
									"name": "hook",
									"type": "address",
									"internalType": "contract IJBRedeemHook"
								},
								{
									"name": "amount",
									"type": "uint256",
									"internalType": "uint256"
								},
								{
									"name": "metadata",
									"type": "bytes",
									"internalType": "bytes"
								}
							]
						}
					],
					"stateMutability": "view"
				},
				{
					"type": "function",
					"name": "contractURI",
					"inputs": [],
					"outputs": [
						{
							"name": "",
							"type": "string",
							"internalType": "string"
						}
					],
					"stateMutability": "view"
				},
				{
					"type": "function",
					"name": "firstOwnerOf",
					"inputs": [
						{
							"name": "tokenId",
							"type": "uint256",
							"internalType": "uint256"
						}
					],
					"outputs": [
						{
							"name": "",
							"type": "address",
							"internalType": "address"
						}
					],
					"stateMutability": "view"
				},
				{
					"type": "function",
					"name": "getApproved",
					"inputs": [
						{
							"name": "tokenId",
							"type": "uint256",
							"internalType": "uint256"
						}
					],
					"outputs": [
						{
							"name": "",
							"type": "address",
							"internalType": "address"
						}
					],
					"stateMutability": "view"
				},
				{
					"type": "function",
					"name": "hasMintPermissionFor",
					"inputs": [
						{
							"name": "",
							"type": "uint256",
							"internalType": "uint256"
						},
						{
							"name": "",
							"type": "address",
							"internalType": "address"
						}
					],
					"outputs": [
						{
							"name": "",
							"type": "bool",
							"internalType": "bool"
						}
					],
					"stateMutability": "pure"
				},
				{
					"type": "function",
					"name": "initialize",
					"inputs": [
						{
							"name": "projectId",
							"type": "uint256",
							"internalType": "uint256"
						},
						{
							"name": "name",
							"type": "string",
							"internalType": "string"
						},
						{
							"name": "symbol",
							"type": "string",
							"internalType": "string"
						},
						{
							"name": "rulesets",
							"type": "address",
							"internalType": "contract IJBRulesets"
						},
						{
							"name": "baseUri",
							"type": "string",
							"internalType": "string"
						},
						{
							"name": "tokenUriResolver",
							"type": "address",
							"internalType": "contract IJB721TokenUriResolver"
						},
						{
							"name": "contractUri",
							"type": "string",
							"internalType": "string"
						},
						{
							"name": "tiersConfig",
							"type": "tuple",
							"internalType": "struct JB721InitTiersConfig",
							"components": [
								{
									"name": "tiers",
									"type": "tuple[]",
									"internalType": "struct JB721TierConfig[]",
									"components": [
										{
											"name": "price",
											"type": "uint104",
											"internalType": "uint104"
										},
										{
											"name": "initialSupply",
											"type": "uint32",
											"internalType": "uint32"
										},
										{
											"name": "votingUnits",
											"type": "uint32",
											"internalType": "uint32"
										},
										{
											"name": "reserveFrequency",
											"type": "uint16",
											"internalType": "uint16"
										},
										{
											"name": "reserveBeneficiary",
											"type": "address",
											"internalType": "address"
										},
										{
											"name": "encodedIPFSUri",
											"type": "bytes32",
											"internalType": "bytes32"
										},
										{
											"name": "category",
											"type": "uint24",
											"internalType": "uint24"
										},
										{
											"name": "allowOwnerMint",
											"type": "bool",
											"internalType": "bool"
										},
										{
											"name": "useReserveBeneficiaryAsDefault",
											"type": "bool",
											"internalType": "bool"
										},
										{
											"name": "transfersPausable",
											"type": "bool",
											"internalType": "bool"
										},
										{
											"name": "useVotingUnits",
											"type": "bool",
											"internalType": "bool"
										},
										{
											"name": "cannotBeRemoved",
											"type": "bool",
											"internalType": "bool"
										}
									]
								},
								{
									"name": "currency",
									"type": "uint32",
									"internalType": "uint32"
								},
								{
									"name": "decimals",
									"type": "uint8",
									"internalType": "uint8"
								},
								{
									"name": "prices",
									"type": "address",
									"internalType": "contract IJBPrices"
								}
							]
						},
						{
							"name": "store",
							"type": "address",
							"internalType": "contract IJB721TiersHookStore"
						},
						{
							"name": "flags",
							"type": "tuple",
							"internalType": "struct JB721TiersHookFlags",
							"components": [
								{
									"name": "noNewTiersWithReserves",
									"type": "bool",
									"internalType": "bool"
								},
								{
									"name": "noNewTiersWithVotes",
									"type": "bool",
									"internalType": "bool"
								},
								{
									"name": "noNewTiersWithOwnerMinting",
									"type": "bool",
									"internalType": "bool"
								},
								{
									"name": "preventOverspending",
									"type": "bool",
									"internalType": "bool"
								}
							]
						}
					],
					"outputs": [],
					"stateMutability": "nonpayable"
				},
				{
					"type": "function",
					"name": "isApprovedForAll",
					"inputs": [
						{
							"name": "owner",
							"type": "address",
							"internalType": "address"
						},
						{
							"name": "operator",
							"type": "address",
							"internalType": "address"
						}
					],
					"outputs": [
						{
							"name": "",
							"type": "bool",
							"internalType": "bool"
						}
					],
					"stateMutability": "view"
				},
				{
					"type": "function",
					"name": "isTrustedForwarder",
					"inputs": [
						{
							"name": "forwarder",
							"type": "address",
							"internalType": "address"
						}
					],
					"outputs": [
						{
							"name": "",
							"type": "bool",
							"internalType": "bool"
						}
					],
					"stateMutability": "view"
				},
				{
					"type": "function",
					"name": "jbOwner",
					"inputs": [],
					"outputs": [
						{
							"name": "owner",
							"type": "address",
							"internalType": "address"
						},
						{
							"name": "projectId",
							"type": "uint88",
							"internalType": "uint88"
						},
						{
							"name": "permissionId",
							"type": "uint8",
							"internalType": "uint8"
						}
					],
					"stateMutability": "view"
				},
				{
					"type": "function",
					"name": "mintFor",
					"inputs": [
						{
							"name": "tierIds",
							"type": "uint16[]",
							"internalType": "uint16[]"
						},
						{
							"name": "beneficiary",
							"type": "address",
							"internalType": "address"
						}
					],
					"outputs": [
						{
							"name": "tokenIds",
							"type": "uint256[]",
							"internalType": "uint256[]"
						}
					],
					"stateMutability": "nonpayable"
				},
				{
					"type": "function",
					"name": "mintPendingReservesFor",
					"inputs": [
						{
							"name": "reserveMintConfigs",
							"type": "tuple[]",
							"internalType": "struct JB721TiersMintReservesConfig[]",
							"components": [
								{
									"name": "tierId",
									"type": "uint256",
									"internalType": "uint256"
								},
								{
									"name": "count",
									"type": "uint256",
									"internalType": "uint256"
								}
							]
						}
					],
					"outputs": [],
					"stateMutability": "nonpayable"
				},
				{
					"type": "function",
					"name": "mintPendingReservesFor",
					"inputs": [
						{
							"name": "tierId",
							"type": "uint256",
							"internalType": "uint256"
						},
						{
							"name": "count",
							"type": "uint256",
							"internalType": "uint256"
						}
					],
					"outputs": [],
					"stateMutability": "nonpayable"
				},
				{
					"type": "function",
					"name": "name",
					"inputs": [],
					"outputs": [
						{
							"name": "",
							"type": "string",
							"internalType": "string"
						}
					],
					"stateMutability": "view"
				},
				{
					"type": "function",
					"name": "owner",
					"inputs": [],
					"outputs": [
						{
							"name": "",
							"type": "address",
							"internalType": "address"
						}
					],
					"stateMutability": "view"
				},
				{
					"type": "function",
					"name": "ownerOf",
					"inputs": [
						{
							"name": "tokenId",
							"type": "uint256",
							"internalType": "uint256"
						}
					],
					"outputs": [
						{
							"name": "",
							"type": "address",
							"internalType": "address"
						}
					],
					"stateMutability": "view"
				},
				{
					"type": "function",
					"name": "payCreditsOf",
					"inputs": [
						{
							"name": "addr",
							"type": "address",
							"internalType": "address"
						}
					],
					"outputs": [
						{
							"name": "",
							"type": "uint256",
							"internalType": "uint256"
						}
					],
					"stateMutability": "view"
				},
				{
					"type": "function",
					"name": "pricingContext",
					"inputs": [],
					"outputs": [
						{
							"name": "currency",
							"type": "uint256",
							"internalType": "uint256"
						},
						{
							"name": "decimals",
							"type": "uint256",
							"internalType": "uint256"
						},
						{
							"name": "prices",
							"type": "address",
							"internalType": "contract IJBPrices"
						}
					],
					"stateMutability": "view"
				},
				{
					"type": "function",
					"name": "redemptionWeightOf",
					"inputs": [
						{
							"name": "tokenIds",
							"type": "uint256[]",
							"internalType": "uint256[]"
						},
						{
							"name": "",
							"type": "tuple",
							"internalType": "struct JBBeforeRedeemRecordedContext",
							"components": [
								{
									"name": "terminal",
									"type": "address",
									"internalType": "address"
								},
								{
									"name": "holder",
									"type": "address",
									"internalType": "address"
								},
								{
									"name": "projectId",
									"type": "uint256",
									"internalType": "uint256"
								},
								{
									"name": "rulesetId",
									"type": "uint256",
									"internalType": "uint256"
								},
								{
									"name": "redeemCount",
									"type": "uint256",
									"internalType": "uint256"
								},
								{
									"name": "totalSupply",
									"type": "uint256",
									"internalType": "uint256"
								},
								{
									"name": "surplus",
									"type": "tuple",
									"internalType": "struct JBTokenAmount",
									"components": [
										{
											"name": "token",
											"type": "address",
											"internalType": "address"
										},
										{
											"name": "value",
											"type": "uint256",
											"internalType": "uint256"
										},
										{
											"name": "decimals",
											"type": "uint256",
											"internalType": "uint256"
										},
										{
											"name": "currency",
											"type": "uint256",
											"internalType": "uint256"
										}
									]
								},
								{
									"name": "useTotalSurplus",
									"type": "bool",
									"internalType": "bool"
								},
								{
									"name": "redemptionRate",
									"type": "uint256",
									"internalType": "uint256"
								},
								{
									"name": "metadata",
									"type": "bytes",
									"internalType": "bytes"
								}
							]
						}
					],
					"outputs": [
						{
							"name": "",
							"type": "uint256",
							"internalType": "uint256"
						}
					],
					"stateMutability": "view"
				},
				{
					"type": "function",
					"name": "renounceOwnership",
					"inputs": [],
					"outputs": [],
					"stateMutability": "nonpayable"
				},
				{
					"type": "function",
					"name": "safeTransferFrom",
					"inputs": [
						{
							"name": "from",
							"type": "address",
							"internalType": "address"
						},
						{
							"name": "to",
							"type": "address",
							"internalType": "address"
						},
						{
							"name": "tokenId",
							"type": "uint256",
							"internalType": "uint256"
						}
					],
					"outputs": [],
					"stateMutability": "nonpayable"
				},
				{
					"type": "function",
					"name": "safeTransferFrom",
					"inputs": [
						{
							"name": "from",
							"type": "address",
							"internalType": "address"
						},
						{
							"name": "to",
							"type": "address",
							"internalType": "address"
						},
						{
							"name": "tokenId",
							"type": "uint256",
							"internalType": "uint256"
						},
						{
							"name": "data",
							"type": "bytes",
							"internalType": "bytes"
						}
					],
					"outputs": [],
					"stateMutability": "nonpayable"
				},
				{
					"type": "function",
					"name": "setApprovalForAll",
					"inputs": [
						{
							"name": "operator",
							"type": "address",
							"internalType": "address"
						},
						{
							"name": "approved",
							"type": "bool",
							"internalType": "bool"
						}
					],
					"outputs": [],
					"stateMutability": "nonpayable"
				},
				{
					"type": "function",
					"name": "setMetadata",
					"inputs": [
						{
							"name": "baseUri",
							"type": "string",
							"internalType": "string"
						},
						{
							"name": "contractUri",
							"type": "string",
							"internalType": "string"
						},
						{
							"name": "tokenUriResolver",
							"type": "address",
							"internalType": "contract IJB721TokenUriResolver"
						},
						{
							"name": "encodedIPFSTUriTierId",
							"type": "uint256",
							"internalType": "uint256"
						},
						{
							"name": "encodedIPFSUri",
							"type": "bytes32",
							"internalType": "bytes32"
						}
					],
					"outputs": [],
					"stateMutability": "nonpayable"
				},
				{
					"type": "function",
					"name": "setPermissionId",
					"inputs": [
						{
							"name": "permissionId",
							"type": "uint8",
							"internalType": "uint8"
						}
					],
					"outputs": [],
					"stateMutability": "nonpayable"
				},
				{
					"type": "function",
					"name": "supportsInterface",
					"inputs": [
						{
							"name": "interfaceId",
							"type": "bytes4",
							"internalType": "bytes4"
						}
					],
					"outputs": [
						{
							"name": "",
							"type": "bool",
							"internalType": "bool"
						}
					],
					"stateMutability": "view"
				},
				{
					"type": "function",
					"name": "symbol",
					"inputs": [],
					"outputs": [
						{
							"name": "",
							"type": "string",
							"internalType": "string"
						}
					],
					"stateMutability": "view"
				},
				{
					"type": "function",
					"name": "tokenURI",
					"inputs": [
						{
							"name": "tokenId",
							"type": "uint256",
							"internalType": "uint256"
						}
					],
					"outputs": [
						{
							"name": "",
							"type": "string",
							"internalType": "string"
						}
					],
					"stateMutability": "view"
				},
				{
					"type": "function",
					"name": "totalRedemptionWeight",
					"inputs": [
						{
							"name": "",
							"type": "tuple",
							"internalType": "struct JBBeforeRedeemRecordedContext",
							"components": [
								{
									"name": "terminal",
									"type": "address",
									"internalType": "address"
								},
								{
									"name": "holder",
									"type": "address",
									"internalType": "address"
								},
								{
									"name": "projectId",
									"type": "uint256",
									"internalType": "uint256"
								},
								{
									"name": "rulesetId",
									"type": "uint256",
									"internalType": "uint256"
								},
								{
									"name": "redeemCount",
									"type": "uint256",
									"internalType": "uint256"
								},
								{
									"name": "totalSupply",
									"type": "uint256",
									"internalType": "uint256"
								},
								{
									"name": "surplus",
									"type": "tuple",
									"internalType": "struct JBTokenAmount",
									"components": [
										{
											"name": "token",
											"type": "address",
											"internalType": "address"
										},
										{
											"name": "value",
											"type": "uint256",
											"internalType": "uint256"
										},
										{
											"name": "decimals",
											"type": "uint256",
											"internalType": "uint256"
										},
										{
											"name": "currency",
											"type": "uint256",
											"internalType": "uint256"
										}
									]
								},
								{
									"name": "useTotalSurplus",
									"type": "bool",
									"internalType": "bool"
								},
								{
									"name": "redemptionRate",
									"type": "uint256",
									"internalType": "uint256"
								},
								{
									"name": "metadata",
									"type": "bytes",
									"internalType": "bytes"
								}
							]
						}
					],
					"outputs": [
						{
							"name": "",
							"type": "uint256",
							"internalType": "uint256"
						}
					],
					"stateMutability": "view"
				},
				{
					"type": "function",
					"name": "transferFrom",
					"inputs": [
						{
							"name": "from",
							"type": "address",
							"internalType": "address"
						},
						{
							"name": "to",
							"type": "address",
							"internalType": "address"
						},
						{
							"name": "tokenId",
							"type": "uint256",
							"internalType": "uint256"
						}
					],
					"outputs": [],
					"stateMutability": "nonpayable"
				},
				{
					"type": "function",
					"name": "transferOwnership",
					"inputs": [
						{
							"name": "newOwner",
							"type": "address",
							"internalType": "address"
						}
					],
					"outputs": [],
					"stateMutability": "nonpayable"
				},
				{
					"type": "function",
					"name": "transferOwnershipToProject",
					"inputs": [
						{
							"name": "projectId",
							"type": "uint256",
							"internalType": "uint256"
						}
					],
					"outputs": [],
					"stateMutability": "nonpayable"
				},
				{
					"type": "function",
					"name": "trustedForwarder",
					"inputs": [],
					"outputs": [
						{
							"name": "",
							"type": "address",
							"internalType": "address"
						}
					],
					"stateMutability": "view"
				},
				{
					"type": "event",
					"name": "AddPayCredits",
					"inputs": [
						{
							"name": "amount",
							"type": "uint256",
							"indexed": true,
							"internalType": "uint256"
						},
						{
							"name": "newTotalCredits",
							"type": "uint256",
							"indexed": true,
							"internalType": "uint256"
						},
						{
							"name": "account",
							"type": "address",
							"indexed": true,
							"internalType": "address"
						},
						{
							"name": "caller",
							"type": "address",
							"indexed": false,
							"internalType": "address"
						}
					],
					"anonymous": false
				},
				{
					"type": "event",
					"name": "AddTier",
					"inputs": [
						{
							"name": "tierId",
							"type": "uint256",
							"indexed": true,
							"internalType": "uint256"
						},
						{
							"name": "tier",
							"type": "tuple",
							"indexed": false,
							"internalType": "struct JB721TierConfig",
							"components": [
								{
									"name": "price",
									"type": "uint104",
									"internalType": "uint104"
								},
								{
									"name": "initialSupply",
									"type": "uint32",
									"internalType": "uint32"
								},
								{
									"name": "votingUnits",
									"type": "uint32",
									"internalType": "uint32"
								},
								{
									"name": "reserveFrequency",
									"type": "uint16",
									"internalType": "uint16"
								},
								{
									"name": "reserveBeneficiary",
									"type": "address",
									"internalType": "address"
								},
								{
									"name": "encodedIPFSUri",
									"type": "bytes32",
									"internalType": "bytes32"
								},
								{
									"name": "category",
									"type": "uint24",
									"internalType": "uint24"
								},
								{
									"name": "allowOwnerMint",
									"type": "bool",
									"internalType": "bool"
								},
								{
									"name": "useReserveBeneficiaryAsDefault",
									"type": "bool",
									"internalType": "bool"
								},
								{
									"name": "transfersPausable",
									"type": "bool",
									"internalType": "bool"
								},
								{
									"name": "useVotingUnits",
									"type": "bool",
									"internalType": "bool"
								},
								{
									"name": "cannotBeRemoved",
									"type": "bool",
									"internalType": "bool"
								}
							]
						},
						{
							"name": "caller",
							"type": "address",
							"indexed": false,
							"internalType": "address"
						}
					],
					"anonymous": false
				},
				{
					"type": "event",
					"name": "Approval",
					"inputs": [
						{
							"name": "owner",
							"type": "address",
							"indexed": true,
							"internalType": "address"
						},
						{
							"name": "approved",
							"type": "address",
							"indexed": true,
							"internalType": "address"
						},
						{
							"name": "tokenId",
							"type": "uint256",
							"indexed": true,
							"internalType": "uint256"
						}
					],
					"anonymous": false
				},
				{
					"type": "event",
					"name": "ApprovalForAll",
					"inputs": [
						{
							"name": "owner",
							"type": "address",
							"indexed": true,
							"internalType": "address"
						},
						{
							"name": "operator",
							"type": "address",
							"indexed": true,
							"internalType": "address"
						},
						{
							"name": "approved",
							"type": "bool",
							"indexed": false,
							"internalType": "bool"
						}
					],
					"anonymous": false
				},
				{
					"type": "event",
					"name": "Mint",
					"inputs": [
						{
							"name": "tokenId",
							"type": "uint256",
							"indexed": true,
							"internalType": "uint256"
						},
						{
							"name": "tierId",
							"type": "uint256",
							"indexed": true,
							"internalType": "uint256"
						},
						{
							"name": "beneficiary",
							"type": "address",
							"indexed": true,
							"internalType": "address"
						},
						{
							"name": "totalAmountPaid",
							"type": "uint256",
							"indexed": false,
							"internalType": "uint256"
						},
						{
							"name": "caller",
							"type": "address",
							"indexed": false,
							"internalType": "address"
						}
					],
					"anonymous": false
				},
				{
					"type": "event",
					"name": "MintReservedNft",
					"inputs": [
						{
							"name": "tokenId",
							"type": "uint256",
							"indexed": true,
							"internalType": "uint256"
						},
						{
							"name": "tierId",
							"type": "uint256",
							"indexed": true,
							"internalType": "uint256"
						},
						{
							"name": "beneficiary",
							"type": "address",
							"indexed": true,
							"internalType": "address"
						},
						{
							"name": "caller",
							"type": "address",
							"indexed": false,
							"internalType": "address"
						}
					],
					"anonymous": false
				},
				{
					"type": "event",
					"name": "OwnershipTransferred",
					"inputs": [
						{
							"name": "previousOwner",
							"type": "address",
							"indexed": true,
							"internalType": "address"
						},
						{
							"name": "newOwner",
							"type": "address",
							"indexed": true,
							"internalType": "address"
						}
					],
					"anonymous": false
				},
				{
					"type": "event",
					"name": "PermissionIdChanged",
					"inputs": [
						{
							"name": "newIndex",
							"type": "uint8",
							"indexed": false,
							"internalType": "uint8"
						}
					],
					"anonymous": false
				},
				{
					"type": "event",
					"name": "RemoveTier",
					"inputs": [
						{
							"name": "tierId",
							"type": "uint256",
							"indexed": true,
							"internalType": "uint256"
						},
						{
							"name": "caller",
							"type": "address",
							"indexed": false,
							"internalType": "address"
						}
					],
					"anonymous": false
				},
				{
					"type": "event",
					"name": "SetBaseUri",
					"inputs": [
						{
							"name": "baseUri",
							"type": "string",
							"indexed": true,
							"internalType": "string"
						},
						{
							"name": "caller",
							"type": "address",
							"indexed": false,
							"internalType": "address"
						}
					],
					"anonymous": false
				},
				{
					"type": "event",
					"name": "SetContractUri",
					"inputs": [
						{
							"name": "contractUri",
							"type": "string",
							"indexed": true,
							"internalType": "string"
						},
						{
							"name": "caller",
							"type": "address",
							"indexed": false,
							"internalType": "address"
						}
					],
					"anonymous": false
				},
				{
					"type": "event",
					"name": "SetEncodedIPFSUri",
					"inputs": [
						{
							"name": "tierId",
							"type": "uint256",
							"indexed": true,
							"internalType": "uint256"
						},
						{
							"name": "encodedIPFSUri",
							"type": "bytes32",
							"indexed": false,
							"internalType": "bytes32"
						},
						{
							"name": "caller",
							"type": "address",
							"indexed": false,
							"internalType": "address"
						}
					],
					"anonymous": false
				},
				{
					"type": "event",
					"name": "SetTokenUriResolver",
					"inputs": [
						{
							"name": "newResolver",
							"type": "address",
							"indexed": true,
							"internalType": "contract IJB721TokenUriResolver"
						},
						{
							"name": "caller",
							"type": "address",
							"indexed": false,
							"internalType": "address"
						}
					],
					"anonymous": false
				},
				{
					"type": "event",
					"name": "Transfer",
					"inputs": [
						{
							"name": "from",
							"type": "address",
							"indexed": true,
							"internalType": "address"
						},
						{
							"name": "to",
							"type": "address",
							"indexed": true,
							"internalType": "address"
						},
						{
							"name": "tokenId",
							"type": "uint256",
							"indexed": true,
							"internalType": "uint256"
						}
					],
					"anonymous": false
				},
				{
					"type": "event",
					"name": "UsePayCredits",
					"inputs": [
						{
							"name": "amount",
							"type": "uint256",
							"indexed": true,
							"internalType": "uint256"
						},
						{
							"name": "newTotalCredits",
							"type": "uint256",
							"indexed": true,
							"internalType": "uint256"
						},
						{
							"name": "account",
							"type": "address",
							"indexed": true,
							"internalType": "address"
						},
						{
							"name": "caller",
							"type": "address",
							"indexed": false,
							"internalType": "address"
						}
					],
					"anonymous": false
				},
				{
					"type": "error",
					"name": "ERC721IncorrectOwner",
					"inputs": [
						{
							"name": "sender",
							"type": "address",
							"internalType": "address"
						},
						{
							"name": "tokenId",
							"type": "uint256",
							"internalType": "uint256"
						},
						{
							"name": "owner",
							"type": "address",
							"internalType": "address"
						}
					]
				},
				{
					"type": "error",
					"name": "ERC721InsufficientApproval",
					"inputs": [
						{
							"name": "operator",
							"type": "address",
							"internalType": "address"
						},
						{
							"name": "tokenId",
							"type": "uint256",
							"internalType": "uint256"
						}
					]
				},
				{
					"type": "error",
					"name": "ERC721InvalidApprover",
					"inputs": [
						{
							"name": "approver",
							"type": "address",
							"internalType": "address"
						}
					]
				},
				{
					"type": "error",
					"name": "ERC721InvalidOperator",
					"inputs": [
						{
							"name": "operator",
							"type": "address",
							"internalType": "address"
						}
					]
				},
				{
					"type": "error",
					"name": "ERC721InvalidOwner",
					"inputs": [
						{
							"name": "owner",
							"type": "address",
							"internalType": "address"
						}
					]
				},
				{
					"type": "error",
					"name": "ERC721InvalidReceiver",
					"inputs": [
						{
							"name": "receiver",
							"type": "address",
							"internalType": "address"
						}
					]
				},
				{
					"type": "error",
					"name": "ERC721InvalidSender",
					"inputs": [
						{
							"name": "sender",
							"type": "address",
							"internalType": "address"
						}
					]
				},
				{
					"type": "error",
					"name": "ERC721NonexistentToken",
					"inputs": [
						{
							"name": "tokenId",
							"type": "uint256",
							"internalType": "uint256"
						}
					]
				},
				{
					"type": "error",
					"name": "INVALID_NEW_OWNER",
					"inputs": []
				},
				{
					"type": "error",
					"name": "INVALID_PAY",
					"inputs": []
				},
				{
					"type": "error",
					"name": "INVALID_REDEEM",
					"inputs": []
				},
				{
					"type": "error",
					"name": "MINT_RESERVE_NFTS_PAUSED",
					"inputs": []
				},
				{
					"type": "error",
					"name": "OVERSPENDING",
					"inputs": []
				},
				{
					"type": "error",
					"name": "PRBMath_MulDiv_Overflow",
					"inputs": [
						{
							"name": "x",
							"type": "uint256",
							"internalType": "uint256"
						},
						{
							"name": "y",
							"type": "uint256",
							"internalType": "uint256"
						},
						{
							"name": "denominator",
							"type": "uint256",
							"internalType": "uint256"
						}
					]
				},
				{
					"type": "error",
					"name": "TIER_TRANSFERS_PAUSED",
					"inputs": []
				},
				{
					"type": "error",
					"name": "UNAUTHORIZED",
					"inputs": []
				},
				{
					"type": "error",
					"name": "UNAUTHORIZED_TOKEN",
					"inputs": [
						{
							"name": "tokenId",
							"type": "uint256",
							"internalType": "uint256"
						}
					]
				},
				{
					"type": "error",
					"name": "UNEXPECTED_TOKEN_REDEEMED",
					"inputs": []
				}
			],
			"solcInputHash": "9c26761b33f63d5cdb4c2cc0c065558a",
			"receipt": {
				"blockHash": "0xd0a062887ff1ed6c7998e3a391725e559a30381e50e814d33965a6c7eb767c87",
				"blockNumber": 5675629,
				"contractAddress": null,
				"cumulativeGasUsed": "8836485",
				"from": "0xC034550B542b83BA1De312b21d1C94a9a52B1595",
				"gasPrice": "1499755573",
				"gasUsed": "8836485",
				"hash": "0x8f19e676f9cd6306f22f6abe09dd72d6e43c8733d36b8372ee2b934550f4e2ee",
				"index": 0,
				"logs": [
					{
						"address": "0xB5E96127D417b1B3ef8438496a38A143167209c7",
						"blockHash": "0xd0a062887ff1ed6c7998e3a391725e559a30381e50e814d33965a6c7eb767c87",
						"blockNumber": 5675629,
						"data": "0x0000000000000000000000000000000000000000000000000000000000000000",
						"index": 0,
						"topics": [
							"0x572f161235911da04685a68c06adf558fc7e4a36909dca394650e0adc19cc93d",
							"0x000000000000000000000000c034550b542b83ba1de312b21d1c94a9a52b1595",
							"0x000000000000000000000000582b73e9f9ec9fa3ff32b83cfd7e2810a63bbcdb",
							"0x38846483c4b0c9c843fb13f5fa2bf5943e6c857a53903e539c3d20373b3651f6"
						],
						"transactionHash": "0x8f19e676f9cd6306f22f6abe09dd72d6e43c8733d36b8372ee2b934550f4e2ee",
						"transactionIndex": 0
					},
					{
						"address": "0x7c8Ef86687a0Bfa1882D2f25866Cd4EA354EeA3C",
						"blockHash": "0xd0a062887ff1ed6c7998e3a391725e559a30381e50e814d33965a6c7eb767c87",
						"blockNumber": 5675629,
						"data": "0x",
						"index": 1,
						"topics": [
							"0x8be0079c531659141344cd1fd0a4f28419497f9722a3daafe3b4186f6b6457e0",
							"0x0000000000000000000000000000000000000000000000000000000000000000",
							"0x0000000000000000000000004e59b44847b379578588920ca78fbf26c0b4956c"
						],
						"transactionHash": "0x8f19e676f9cd6306f22f6abe09dd72d6e43c8733d36b8372ee2b934550f4e2ee",
						"transactionIndex": 0
					},
					{
						"address": "0x89BeB14760384C532b587eE00bB42EE307f17e47",
						"blockHash": "0xd0a062887ff1ed6c7998e3a391725e559a30381e50e814d33965a6c7eb767c87",
						"blockNumber": 5675629,
						"data": "0x",
						"index": 2,
						"topics": [
							"0x6895c13664aa4f67288b25d7a21d7aaa34916e355fb9b6fae0a139a9085becb8",
							"0x000000000000000000000000582b73e9f9ec9fa3ff32b83cfd7e2810a63bbcdb"
						],
						"transactionHash": "0x8f19e676f9cd6306f22f6abe09dd72d6e43c8733d36b8372ee2b934550f4e2ee",
						"transactionIndex": 0
					},
					{
						"address": "0x582b73e9F9EC9fa3fF32b83CFD7E2810a63BBCdB",
						"blockHash": "0xd0a062887ff1ed6c7998e3a391725e559a30381e50e814d33965a6c7eb767c87",
						"blockNumber": 5675629,
						"data": "0x0000000000000000000000000000000000000000000000000000000000000001",
						"index": 3,
						"topics": [
							"0xa65fb05c5808f5f389d72edeaf719ce38f4cc55c1f69ca3cbfb31c21501caa07",
							"0xf29a925ad7595b534a7334af3cff0f2715becdc9b501f846c233331b92b7a47a"
						],
						"transactionHash": "0x8f19e676f9cd6306f22f6abe09dd72d6e43c8733d36b8372ee2b934550f4e2ee",
						"transactionIndex": 0
					},
					{
						"address": "0x89BeB14760384C532b587eE00bB42EE307f17e47",
						"blockHash": "0xd0a062887ff1ed6c7998e3a391725e559a30381e50e814d33965a6c7eb767c87",
						"blockNumber": 5675629,
						"data": "0x",
						"index": 4,
						"topics": [
							"0x6895c13664aa4f67288b25d7a21d7aaa34916e355fb9b6fae0a139a9085becb8",
							"0x000000000000000000000000582b73e9f9ec9fa3ff32b83cfd7e2810a63bbcdb"
						],
						"transactionHash": "0x8f19e676f9cd6306f22f6abe09dd72d6e43c8733d36b8372ee2b934550f4e2ee",
						"transactionIndex": 0
					},
					{
						"address": "0x582b73e9F9EC9fa3fF32b83CFD7E2810a63BBCdB",
						"blockHash": "0xd0a062887ff1ed6c7998e3a391725e559a30381e50e814d33965a6c7eb767c87",
						"blockNumber": 5675629,
						"data": "0x0000000000000000000000000000000000000000000000000000000000000002",
						"index": 5,
						"topics": [
							"0xa65fb05c5808f5f389d72edeaf719ce38f4cc55c1f69ca3cbfb31c21501caa07",
							"0xf29a925ad7595b534a7334af3cff0f2715becdc9b501f846c233331b92b7a47a"
						],
						"transactionHash": "0x8f19e676f9cd6306f22f6abe09dd72d6e43c8733d36b8372ee2b934550f4e2ee",
						"transactionIndex": 0
					},
					{
						"address": "0x89BeB14760384C532b587eE00bB42EE307f17e47",
						"blockHash": "0xd0a062887ff1ed6c7998e3a391725e559a30381e50e814d33965a6c7eb767c87",
						"blockNumber": 5675629,
						"data": "0x",
						"index": 6,
						"topics": [
							"0x6895c13664aa4f67288b25d7a21d7aaa34916e355fb9b6fae0a139a9085becb8",
							"0x000000000000000000000000582b73e9f9ec9fa3ff32b83cfd7e2810a63bbcdb"
						],
						"transactionHash": "0x8f19e676f9cd6306f22f6abe09dd72d6e43c8733d36b8372ee2b934550f4e2ee",
						"transactionIndex": 0
					},
					{
						"address": "0x582b73e9F9EC9fa3fF32b83CFD7E2810a63BBCdB",
						"blockHash": "0xd0a062887ff1ed6c7998e3a391725e559a30381e50e814d33965a6c7eb767c87",
						"blockNumber": 5675629,
						"data": "0x0000000000000000000000000000000000000000000000000000000000000003",
						"index": 7,
						"topics": [
							"0xa65fb05c5808f5f389d72edeaf719ce38f4cc55c1f69ca3cbfb31c21501caa07",
							"0xf29a925ad7595b534a7334af3cff0f2715becdc9b501f846c233331b92b7a47a"
						],
						"transactionHash": "0x8f19e676f9cd6306f22f6abe09dd72d6e43c8733d36b8372ee2b934550f4e2ee",
						"transactionIndex": 0
					},
					{
						"address": "0x582b73e9F9EC9fa3fF32b83CFD7E2810a63BBCdB",
						"blockHash": "0xd0a062887ff1ed6c7998e3a391725e559a30381e50e814d33965a6c7eb767c87",
						"blockNumber": 5675629,
						"data": "0x",
						"index": 8,
						"topics": [
							"0x4383d976757d67ca920616be0b6430a681ea9d3dcce8d6d61d4603ca4a9bff63",
							"0xf29a925ad7595b534a7334af3cff0f2715becdc9b501f846c233331b92b7a47a"
						],
						"transactionHash": "0x8f19e676f9cd6306f22f6abe09dd72d6e43c8733d36b8372ee2b934550f4e2ee",
						"transactionIndex": 0
					}
				],
				"logsBloom": "0x00000000080010000040000000080000000000000008000000800000004000000000000000000000000000000040000100000000400000000000001000000002000000000000200000000000000000000001000000000000000000000000000000000000020000040000000000000800000000000000100008000000000000400000000000000000000100000000000000000000001400400000000000000000004000800011000000000000000000020200000008020000000000000004000000000000000000000008000008000800000000000000000008000000000020800000000000000008000000008000000280000100000000000000000008000000",
				"status": 1,
				"to": "0xB5E96127D417b1B3ef8438496a38A143167209c7"
			},
			"metadata": "{\"compiler\":{\"version\":\"0.8.23+commit.f704f362\"},\"language\":\"Solidity\",\"output\":{\"abi\":[{\"inputs\":[{\"internalType\":\"contract IJBDirectory\",\"name\":\"directory\",\"type\":\"address\"},{\"internalType\":\"contract IJBPermissions\",\"name\":\"permissions\",\"type\":\"address\"},{\"internalType\":\"address\",\"name\":\"trustedForwarder\",\"type\":\"address\"}],\"stateMutability\":\"nonpayable\",\"type\":\"constructor\"},{\"inputs\":[{\"internalType\":\"address\",\"name\":\"sender\",\"type\":\"address\"},{\"internalType\":\"uint256\",\"name\":\"tokenId\",\"type\":\"uint256\"},{\"internalType\":\"address\",\"name\":\"owner\",\"type\":\"address\"}],\"type\":\"error\",\"name\":\"ERC721IncorrectOwner\"},{\"inputs\":[{\"internalType\":\"address\",\"name\":\"operator\",\"type\":\"address\"},{\"internalType\":\"uint256\",\"name\":\"tokenId\",\"type\":\"uint256\"}],\"type\":\"error\",\"name\":\"ERC721InsufficientApproval\"},{\"inputs\":[{\"internalType\":\"address\",\"name\":\"approver\",\"type\":\"address\"}],\"type\":\"error\",\"name\":\"ERC721InvalidApprover\"},{\"inputs\":[{\"internalType\":\"address\",\"name\":\"operator\",\"type\":\"address\"}],\"type\":\"error\",\"name\":\"ERC721InvalidOperator\"},{\"inputs\":[{\"internalType\":\"address\",\"name\":\"owner\",\"type\":\"address\"}],\"type\":\"error\",\"name\":\"ERC721InvalidOwner\"},{\"inputs\":[{\"internalType\":\"address\",\"name\":\"receiver\",\"type\":\"address\"}],\"type\":\"error\",\"name\":\"ERC721InvalidReceiver\"},{\"inputs\":[{\"internalType\":\"address\",\"name\":\"sender\",\"type\":\"address\"}],\"type\":\"error\",\"name\":\"ERC721InvalidSender\"},{\"inputs\":[{\"internalType\":\"uint256\",\"name\":\"tokenId\",\"type\":\"uint256\"}],\"type\":\"error\",\"name\":\"ERC721NonexistentToken\"},{\"inputs\":[],\"type\":\"error\",\"name\":\"INVALID_NEW_OWNER\"},{\"inputs\":[],\"type\":\"error\",\"name\":\"INVALID_PAY\"},{\"inputs\":[],\"type\":\"error\",\"name\":\"INVALID_REDEEM\"},{\"inputs\":[],\"type\":\"error\",\"name\":\"MINT_RESERVE_NFTS_PAUSED\"},{\"inputs\":[],\"type\":\"error\",\"name\":\"OVERSPENDING\"},{\"inputs\":[{\"internalType\":\"uint256\",\"name\":\"x\",\"type\":\"uint256\"},{\"internalType\":\"uint256\",\"name\":\"y\",\"type\":\"uint256\"},{\"internalType\":\"uint256\",\"name\":\"denominator\",\"type\":\"uint256\"}],\"type\":\"error\",\"name\":\"PRBMath_MulDiv_Overflow\"},{\"inputs\":[],\"type\":\"error\",\"name\":\"TIER_TRANSFERS_PAUSED\"},{\"inputs\":[],\"type\":\"error\",\"name\":\"UNAUTHORIZED\"},{\"inputs\":[{\"internalType\":\"uint256\",\"name\":\"tokenId\",\"type\":\"uint256\"}],\"type\":\"error\",\"name\":\"UNAUTHORIZED_TOKEN\"},{\"inputs\":[],\"type\":\"error\",\"name\":\"UNEXPECTED_TOKEN_REDEEMED\"},{\"inputs\":[{\"internalType\":\"uint256\",\"name\":\"amount\",\"type\":\"uint256\",\"indexed\":true},{\"internalType\":\"uint256\",\"name\":\"newTotalCredits\",\"type\":\"uint256\",\"indexed\":true},{\"internalType\":\"address\",\"name\":\"account\",\"type\":\"address\",\"indexed\":true},{\"internalType\":\"address\",\"name\":\"caller\",\"type\":\"address\",\"indexed\":false}],\"type\":\"event\",\"name\":\"AddPayCredits\",\"anonymous\":false},{\"inputs\":[{\"internalType\":\"uint256\",\"name\":\"tierId\",\"type\":\"uint256\",\"indexed\":true},{\"internalType\":\"struct JB721TierConfig\",\"name\":\"tier\",\"type\":\"tuple\",\"components\":[{\"internalType\":\"uint104\",\"name\":\"price\",\"type\":\"uint104\"},{\"internalType\":\"uint32\",\"name\":\"initialSupply\",\"type\":\"uint32\"},{\"internalType\":\"uint32\",\"name\":\"votingUnits\",\"type\":\"uint32\"},{\"internalType\":\"uint16\",\"name\":\"reserveFrequency\",\"type\":\"uint16\"},{\"internalType\":\"address\",\"name\":\"reserveBeneficiary\",\"type\":\"address\"},{\"internalType\":\"bytes32\",\"name\":\"encodedIPFSUri\",\"type\":\"bytes32\"},{\"internalType\":\"uint24\",\"name\":\"category\",\"type\":\"uint24\"},{\"internalType\":\"bool\",\"name\":\"allowOwnerMint\",\"type\":\"bool\"},{\"internalType\":\"bool\",\"name\":\"useReserveBeneficiaryAsDefault\",\"type\":\"bool\"},{\"internalType\":\"bool\",\"name\":\"transfersPausable\",\"type\":\"bool\"},{\"internalType\":\"bool\",\"name\":\"useVotingUnits\",\"type\":\"bool\"},{\"internalType\":\"bool\",\"name\":\"cannotBeRemoved\",\"type\":\"bool\"}],\"indexed\":false},{\"internalType\":\"address\",\"name\":\"caller\",\"type\":\"address\",\"indexed\":false}],\"type\":\"event\",\"name\":\"AddTier\",\"anonymous\":false},{\"inputs\":[{\"internalType\":\"address\",\"name\":\"owner\",\"type\":\"address\",\"indexed\":true},{\"internalType\":\"address\",\"name\":\"approved\",\"type\":\"address\",\"indexed\":true},{\"internalType\":\"uint256\",\"name\":\"tokenId\",\"type\":\"uint256\",\"indexed\":true}],\"type\":\"event\",\"name\":\"Approval\",\"anonymous\":false},{\"inputs\":[{\"internalType\":\"address\",\"name\":\"owner\",\"type\":\"address\",\"indexed\":true},{\"internalType\":\"address\",\"name\":\"operator\",\"type\":\"address\",\"indexed\":true},{\"internalType\":\"bool\",\"name\":\"approved\",\"type\":\"bool\",\"indexed\":false}],\"type\":\"event\",\"name\":\"ApprovalForAll\",\"anonymous\":false},{\"inputs\":[{\"internalType\":\"uint256\",\"name\":\"tokenId\",\"type\":\"uint256\",\"indexed\":true},{\"internalType\":\"uint256\",\"name\":\"tierId\",\"type\":\"uint256\",\"indexed\":true},{\"internalType\":\"address\",\"name\":\"beneficiary\",\"type\":\"address\",\"indexed\":true},{\"internalType\":\"uint256\",\"name\":\"totalAmountPaid\",\"type\":\"uint256\",\"indexed\":false},{\"internalType\":\"address\",\"name\":\"caller\",\"type\":\"address\",\"indexed\":false}],\"type\":\"event\",\"name\":\"Mint\",\"anonymous\":false},{\"inputs\":[{\"internalType\":\"uint256\",\"name\":\"tokenId\",\"type\":\"uint256\",\"indexed\":true},{\"internalType\":\"uint256\",\"name\":\"tierId\",\"type\":\"uint256\",\"indexed\":true},{\"internalType\":\"address\",\"name\":\"beneficiary\",\"type\":\"address\",\"indexed\":true},{\"internalType\":\"address\",\"name\":\"caller\",\"type\":\"address\",\"indexed\":false}],\"type\":\"event\",\"name\":\"MintReservedNft\",\"anonymous\":false},{\"inputs\":[{\"internalType\":\"address\",\"name\":\"previousOwner\",\"type\":\"address\",\"indexed\":true},{\"internalType\":\"address\",\"name\":\"newOwner\",\"type\":\"address\",\"indexed\":true}],\"type\":\"event\",\"name\":\"OwnershipTransferred\",\"anonymous\":false},{\"inputs\":[{\"internalType\":\"uint8\",\"name\":\"newIndex\",\"type\":\"uint8\",\"indexed\":false}],\"type\":\"event\",\"name\":\"PermissionIdChanged\",\"anonymous\":false},{\"inputs\":[{\"internalType\":\"uint256\",\"name\":\"tierId\",\"type\":\"uint256\",\"indexed\":true},{\"internalType\":\"address\",\"name\":\"caller\",\"type\":\"address\",\"indexed\":false}],\"type\":\"event\",\"name\":\"RemoveTier\",\"anonymous\":false},{\"inputs\":[{\"internalType\":\"string\",\"name\":\"baseUri\",\"type\":\"string\",\"indexed\":true},{\"internalType\":\"address\",\"name\":\"caller\",\"type\":\"address\",\"indexed\":false}],\"type\":\"event\",\"name\":\"SetBaseUri\",\"anonymous\":false},{\"inputs\":[{\"internalType\":\"string\",\"name\":\"contractUri\",\"type\":\"string\",\"indexed\":true},{\"internalType\":\"address\",\"name\":\"caller\",\"type\":\"address\",\"indexed\":false}],\"type\":\"event\",\"name\":\"SetContractUri\",\"anonymous\":false},{\"inputs\":[{\"internalType\":\"uint256\",\"name\":\"tierId\",\"type\":\"uint256\",\"indexed\":true},{\"internalType\":\"bytes32\",\"name\":\"encodedIPFSUri\",\"type\":\"bytes32\",\"indexed\":false},{\"internalType\":\"address\",\"name\":\"caller\",\"type\":\"address\",\"indexed\":false}],\"type\":\"event\",\"name\":\"SetEncodedIPFSUri\",\"anonymous\":false},{\"inputs\":[{\"internalType\":\"contract IJB721TokenUriResolver\",\"name\":\"newResolver\",\"type\":\"address\",\"indexed\":true},{\"internalType\":\"address\",\"name\":\"caller\",\"type\":\"address\",\"indexed\":false}],\"type\":\"event\",\"name\":\"SetTokenUriResolver\",\"anonymous\":false},{\"inputs\":[{\"internalType\":\"address\",\"name\":\"from\",\"type\":\"address\",\"indexed\":true},{\"internalType\":\"address\",\"name\":\"to\",\"type\":\"address\",\"indexed\":true},{\"internalType\":\"uint256\",\"name\":\"tokenId\",\"type\":\"uint256\",\"indexed\":true}],\"type\":\"event\",\"name\":\"Transfer\",\"anonymous\":false},{\"inputs\":[{\"internalType\":\"uint256\",\"name\":\"amount\",\"type\":\"uint256\",\"indexed\":true},{\"internalType\":\"uint256\",\"name\":\"newTotalCredits\",\"type\":\"uint256\",\"indexed\":true},{\"internalType\":\"address\",\"name\":\"account\",\"type\":\"address\",\"indexed\":true},{\"internalType\":\"address\",\"name\":\"caller\",\"type\":\"address\",\"indexed\":false}],\"type\":\"event\",\"name\":\"UsePayCredits\",\"anonymous\":false},{\"inputs\":[],\"stateMutability\":\"view\",\"type\":\"function\",\"name\":\"DIRECTORY\",\"outputs\":[{\"internalType\":\"contract IJBDirectory\",\"name\":\"\",\"type\":\"address\"}]},{\"inputs\":[],\"stateMutability\":\"view\",\"type\":\"function\",\"name\":\"METADATA_ID_TARGET\",\"outputs\":[{\"internalType\":\"address\",\"name\":\"\",\"type\":\"address\"}]},{\"inputs\":[],\"stateMutability\":\"view\",\"type\":\"function\",\"name\":\"PERMISSIONS\",\"outputs\":[{\"internalType\":\"contract IJBPermissions\",\"name\":\"\",\"type\":\"address\"}]},{\"inputs\":[],\"stateMutability\":\"view\",\"type\":\"function\",\"name\":\"PROJECTS\",\"outputs\":[{\"internalType\":\"contract IJBProjects\",\"name\":\"\",\"type\":\"address\"}]},{\"inputs\":[],\"stateMutability\":\"view\",\"type\":\"function\",\"name\":\"PROJECT_ID\",\"outputs\":[{\"internalType\":\"uint256\",\"name\":\"\",\"type\":\"uint256\"}]},{\"inputs\":[],\"stateMutability\":\"view\",\"type\":\"function\",\"name\":\"RULESETS\",\"outputs\":[{\"internalType\":\"contract IJBRulesets\",\"name\":\"\",\"type\":\"address\"}]},{\"inputs\":[],\"stateMutability\":\"view\",\"type\":\"function\",\"name\":\"STORE\",\"outputs\":[{\"internalType\":\"contract IJB721TiersHookStore\",\"name\":\"\",\"type\":\"address\"}]},{\"inputs\":[{\"internalType\":\"struct JB721TierConfig[]\",\"name\":\"tiersToAdd\",\"type\":\"tuple[]\",\"components\":[{\"internalType\":\"uint104\",\"name\":\"price\",\"type\":\"uint104\"},{\"internalType\":\"uint32\",\"name\":\"initialSupply\",\"type\":\"uint32\"},{\"internalType\":\"uint32\",\"name\":\"votingUnits\",\"type\":\"uint32\"},{\"internalType\":\"uint16\",\"name\":\"reserveFrequency\",\"type\":\"uint16\"},{\"internalType\":\"address\",\"name\":\"reserveBeneficiary\",\"type\":\"address\"},{\"internalType\":\"bytes32\",\"name\":\"encodedIPFSUri\",\"type\":\"bytes32\"},{\"internalType\":\"uint24\",\"name\":\"category\",\"type\":\"uint24\"},{\"internalType\":\"bool\",\"name\":\"allowOwnerMint\",\"type\":\"bool\"},{\"internalType\":\"bool\",\"name\":\"useReserveBeneficiaryAsDefault\",\"type\":\"bool\"},{\"internalType\":\"bool\",\"name\":\"transfersPausable\",\"type\":\"bool\"},{\"internalType\":\"bool\",\"name\":\"useVotingUnits\",\"type\":\"bool\"},{\"internalType\":\"bool\",\"name\":\"cannotBeRemoved\",\"type\":\"bool\"}]},{\"internalType\":\"uint256[]\",\"name\":\"tierIdsToRemove\",\"type\":\"uint256[]\"}],\"stateMutability\":\"nonpayable\",\"type\":\"function\",\"name\":\"adjustTiers\"},{\"inputs\":[{\"internalType\":\"struct JBAfterPayRecordedContext\",\"name\":\"context\",\"type\":\"tuple\",\"components\":[{\"internalType\":\"address\",\"name\":\"payer\",\"type\":\"address\"},{\"internalType\":\"uint256\",\"name\":\"projectId\",\"type\":\"uint256\"},{\"internalType\":\"uint256\",\"name\":\"rulesetId\",\"type\":\"uint256\"},{\"internalType\":\"struct JBTokenAmount\",\"name\":\"amount\",\"type\":\"tuple\",\"components\":[{\"internalType\":\"address\",\"name\":\"token\",\"type\":\"address\"},{\"internalType\":\"uint256\",\"name\":\"value\",\"type\":\"uint256\"},{\"internalType\":\"uint256\",\"name\":\"decimals\",\"type\":\"uint256\"},{\"internalType\":\"uint256\",\"name\":\"currency\",\"type\":\"uint256\"}]},{\"internalType\":\"struct JBTokenAmount\",\"name\":\"forwardedAmount\",\"type\":\"tuple\",\"components\":[{\"internalType\":\"address\",\"name\":\"token\",\"type\":\"address\"},{\"internalType\":\"uint256\",\"name\":\"value\",\"type\":\"uint256\"},{\"internalType\":\"uint256\",\"name\":\"decimals\",\"type\":\"uint256\"},{\"internalType\":\"uint256\",\"name\":\"currency\",\"type\":\"uint256\"}]},{\"internalType\":\"uint256\",\"name\":\"weight\",\"type\":\"uint256\"},{\"internalType\":\"uint256\",\"name\":\"projectTokenCount\",\"type\":\"uint256\"},{\"internalType\":\"address\",\"name\":\"beneficiary\",\"type\":\"address\"},{\"internalType\":\"bytes\",\"name\":\"hookMetadata\",\"type\":\"bytes\"},{\"internalType\":\"bytes\",\"name\":\"payerMetadata\",\"type\":\"bytes\"}]}],\"stateMutability\":\"payable\",\"type\":\"function\",\"name\":\"afterPayRecordedWith\"},{\"inputs\":[{\"internalType\":\"struct JBAfterRedeemRecordedContext\",\"name\":\"context\",\"type\":\"tuple\",\"components\":[{\"internalType\":\"address\",\"name\":\"holder\",\"type\":\"address\"},{\"internalType\":\"uint256\",\"name\":\"projectId\",\"type\":\"uint256\"},{\"internalType\":\"uint256\",\"name\":\"rulesetId\",\"type\":\"uint256\"},{\"internalType\":\"uint256\",\"name\":\"redeemCount\",\"type\":\"uint256\"},{\"internalType\":\"struct JBTokenAmount\",\"name\":\"reclaimedAmount\",\"type\":\"tuple\",\"components\":[{\"internalType\":\"address\",\"name\":\"token\",\"type\":\"address\"},{\"internalType\":\"uint256\",\"name\":\"value\",\"type\":\"uint256\"},{\"internalType\":\"uint256\",\"name\":\"decimals\",\"type\":\"uint256\"},{\"internalType\":\"uint256\",\"name\":\"currency\",\"type\":\"uint256\"}]},{\"internalType\":\"struct JBTokenAmount\",\"name\":\"forwardedAmount\",\"type\":\"tuple\",\"components\":[{\"internalType\":\"address\",\"name\":\"token\",\"type\":\"address\"},{\"internalType\":\"uint256\",\"name\":\"value\",\"type\":\"uint256\"},{\"internalType\":\"uint256\",\"name\":\"decimals\",\"type\":\"uint256\"},{\"internalType\":\"uint256\",\"name\":\"currency\",\"type\":\"uint256\"}]},{\"internalType\":\"uint256\",\"name\":\"redemptionRate\",\"type\":\"uint256\"},{\"internalType\":\"address payable\",\"name\":\"beneficiary\",\"type\":\"address\"},{\"internalType\":\"bytes\",\"name\":\"hookMetadata\",\"type\":\"bytes\"},{\"internalType\":\"bytes\",\"name\":\"redeemerMetadata\",\"type\":\"bytes\"}]}],\"stateMutability\":\"payable\",\"type\":\"function\",\"name\":\"afterRedeemRecordedWith\"},{\"inputs\":[{\"internalType\":\"address\",\"name\":\"to\",\"type\":\"address\"},{\"internalType\":\"uint256\",\"name\":\"tokenId\",\"type\":\"uint256\"}],\"stateMutability\":\"nonpayable\",\"type\":\"function\",\"name\":\"approve\"},{\"inputs\":[{\"internalType\":\"address\",\"name\":\"owner\",\"type\":\"address\"}],\"stateMutability\":\"view\",\"type\":\"function\",\"name\":\"balanceOf\",\"outputs\":[{\"internalType\":\"uint256\",\"name\":\"balance\",\"type\":\"uint256\"}]},{\"inputs\":[],\"stateMutability\":\"view\",\"type\":\"function\",\"name\":\"baseURI\",\"outputs\":[{\"internalType\":\"string\",\"name\":\"\",\"type\":\"string\"}]},{\"inputs\":[{\"internalType\":\"struct JBBeforePayRecordedContext\",\"name\":\"context\",\"type\":\"tuple\",\"components\":[{\"internalType\":\"address\",\"name\":\"terminal\",\"type\":\"address\"},{\"internalType\":\"address\",\"name\":\"payer\",\"type\":\"address\"},{\"internalType\":\"struct JBTokenAmount\",\"name\":\"amount\",\"type\":\"tuple\",\"components\":[{\"internalType\":\"address\",\"name\":\"token\",\"type\":\"address\"},{\"internalType\":\"uint256\",\"name\":\"value\",\"type\":\"uint256\"},{\"internalType\":\"uint256\",\"name\":\"decimals\",\"type\":\"uint256\"},{\"internalType\":\"uint256\",\"name\":\"currency\",\"type\":\"uint256\"}]},{\"internalType\":\"uint256\",\"name\":\"projectId\",\"type\":\"uint256\"},{\"internalType\":\"uint256\",\"name\":\"rulesetId\",\"type\":\"uint256\"},{\"internalType\":\"address\",\"name\":\"beneficiary\",\"type\":\"address\"},{\"internalType\":\"uint256\",\"name\":\"weight\",\"type\":\"uint256\"},{\"internalType\":\"uint256\",\"name\":\"reservedRate\",\"type\":\"uint256\"},{\"internalType\":\"bytes\",\"name\":\"metadata\",\"type\":\"bytes\"}]}],\"stateMutability\":\"view\",\"type\":\"function\",\"name\":\"beforePayRecordedWith\",\"outputs\":[{\"internalType\":\"uint256\",\"name\":\"weight\",\"type\":\"uint256\"},{\"internalType\":\"struct JBPayHookSpecification[]\",\"name\":\"hookSpecifications\",\"type\":\"tuple[]\",\"components\":[{\"internalType\":\"contract IJBPayHook\",\"name\":\"hook\",\"type\":\"address\"},{\"internalType\":\"uint256\",\"name\":\"amount\",\"type\":\"uint256\"},{\"internalType\":\"bytes\",\"name\":\"metadata\",\"type\":\"bytes\"}]}]},{\"inputs\":[{\"internalType\":\"struct JBBeforeRedeemRecordedContext\",\"name\":\"context\",\"type\":\"tuple\",\"components\":[{\"internalType\":\"address\",\"name\":\"terminal\",\"type\":\"address\"},{\"internalType\":\"address\",\"name\":\"holder\",\"type\":\"address\"},{\"internalType\":\"uint256\",\"name\":\"projectId\",\"type\":\"uint256\"},{\"internalType\":\"uint256\",\"name\":\"rulesetId\",\"type\":\"uint256\"},{\"internalType\":\"uint256\",\"name\":\"redeemCount\",\"type\":\"uint256\"},{\"internalType\":\"uint256\",\"name\":\"totalSupply\",\"type\":\"uint256\"},{\"internalType\":\"struct JBTokenAmount\",\"name\":\"surplus\",\"type\":\"tuple\",\"components\":[{\"internalType\":\"address\",\"name\":\"token\",\"type\":\"address\"},{\"internalType\":\"uint256\",\"name\":\"value\",\"type\":\"uint256\"},{\"internalType\":\"uint256\",\"name\":\"decimals\",\"type\":\"uint256\"},{\"internalType\":\"uint256\",\"name\":\"currency\",\"type\":\"uint256\"}]},{\"internalType\":\"bool\",\"name\":\"useTotalSurplus\",\"type\":\"bool\"},{\"internalType\":\"uint256\",\"name\":\"redemptionRate\",\"type\":\"uint256\"},{\"internalType\":\"bytes\",\"name\":\"metadata\",\"type\":\"bytes\"}]}],\"stateMutability\":\"view\",\"type\":\"function\",\"name\":\"beforeRedeemRecordedWith\",\"outputs\":[{\"internalType\":\"uint256\",\"name\":\"redemptionRate\",\"type\":\"uint256\"},{\"internalType\":\"uint256\",\"name\":\"redeemCount\",\"type\":\"uint256\"},{\"internalType\":\"uint256\",\"name\":\"totalSupply\",\"type\":\"uint256\"},{\"internalType\":\"struct JBRedeemHookSpecification[]\",\"name\":\"hookSpecifications\",\"type\":\"tuple[]\",\"components\":[{\"internalType\":\"contract IJBRedeemHook\",\"name\":\"hook\",\"type\":\"address\"},{\"internalType\":\"uint256\",\"name\":\"amount\",\"type\":\"uint256\"},{\"internalType\":\"bytes\",\"name\":\"metadata\",\"type\":\"bytes\"}]}]},{\"inputs\":[],\"stateMutability\":\"view\",\"type\":\"function\",\"name\":\"contractURI\",\"outputs\":[{\"internalType\":\"string\",\"name\":\"\",\"type\":\"string\"}]},{\"inputs\":[{\"internalType\":\"uint256\",\"name\":\"tokenId\",\"type\":\"uint256\"}],\"stateMutability\":\"view\",\"type\":\"function\",\"name\":\"firstOwnerOf\",\"outputs\":[{\"internalType\":\"address\",\"name\":\"\",\"type\":\"address\"}]},{\"inputs\":[{\"internalType\":\"uint256\",\"name\":\"tokenId\",\"type\":\"uint256\"}],\"stateMutability\":\"view\",\"type\":\"function\",\"name\":\"getApproved\",\"outputs\":[{\"internalType\":\"address\",\"name\":\"\",\"type\":\"address\"}]},{\"inputs\":[{\"internalType\":\"uint256\",\"name\":\"\",\"type\":\"uint256\"},{\"internalType\":\"address\",\"name\":\"\",\"type\":\"address\"}],\"stateMutability\":\"pure\",\"type\":\"function\",\"name\":\"hasMintPermissionFor\",\"outputs\":[{\"internalType\":\"bool\",\"name\":\"\",\"type\":\"bool\"}]},{\"inputs\":[{\"internalType\":\"uint256\",\"name\":\"projectId\",\"type\":\"uint256\"},{\"internalType\":\"string\",\"name\":\"name\",\"type\":\"string\"},{\"internalType\":\"string\",\"name\":\"symbol\",\"type\":\"string\"},{\"internalType\":\"contract IJBRulesets\",\"name\":\"rulesets\",\"type\":\"address\"},{\"internalType\":\"string\",\"name\":\"baseUri\",\"type\":\"string\"},{\"internalType\":\"contract IJB721TokenUriResolver\",\"name\":\"tokenUriResolver\",\"type\":\"address\"},{\"internalType\":\"string\",\"name\":\"contractUri\",\"type\":\"string\"},{\"internalType\":\"struct JB721InitTiersConfig\",\"name\":\"tiersConfig\",\"type\":\"tuple\",\"components\":[{\"internalType\":\"struct JB721TierConfig[]\",\"name\":\"tiers\",\"type\":\"tuple[]\",\"components\":[{\"internalType\":\"uint104\",\"name\":\"price\",\"type\":\"uint104\"},{\"internalType\":\"uint32\",\"name\":\"initialSupply\",\"type\":\"uint32\"},{\"internalType\":\"uint32\",\"name\":\"votingUnits\",\"type\":\"uint32\"},{\"internalType\":\"uint16\",\"name\":\"reserveFrequency\",\"type\":\"uint16\"},{\"internalType\":\"address\",\"name\":\"reserveBeneficiary\",\"type\":\"address\"},{\"internalType\":\"bytes32\",\"name\":\"encodedIPFSUri\",\"type\":\"bytes32\"},{\"internalType\":\"uint24\",\"name\":\"category\",\"type\":\"uint24\"},{\"internalType\":\"bool\",\"name\":\"allowOwnerMint\",\"type\":\"bool\"},{\"internalType\":\"bool\",\"name\":\"useReserveBeneficiaryAsDefault\",\"type\":\"bool\"},{\"internalType\":\"bool\",\"name\":\"transfersPausable\",\"type\":\"bool\"},{\"internalType\":\"bool\",\"name\":\"useVotingUnits\",\"type\":\"bool\"},{\"internalType\":\"bool\",\"name\":\"cannotBeRemoved\",\"type\":\"bool\"}]},{\"internalType\":\"uint32\",\"name\":\"currency\",\"type\":\"uint32\"},{\"internalType\":\"uint8\",\"name\":\"decimals\",\"type\":\"uint8\"},{\"internalType\":\"contract IJBPrices\",\"name\":\"prices\",\"type\":\"address\"}]},{\"internalType\":\"contract IJB721TiersHookStore\",\"name\":\"store\",\"type\":\"address\"},{\"internalType\":\"struct JB721TiersHookFlags\",\"name\":\"flags\",\"type\":\"tuple\",\"components\":[{\"internalType\":\"bool\",\"name\":\"noNewTiersWithReserves\",\"type\":\"bool\"},{\"internalType\":\"bool\",\"name\":\"noNewTiersWithVotes\",\"type\":\"bool\"},{\"internalType\":\"bool\",\"name\":\"noNewTiersWithOwnerMinting\",\"type\":\"bool\"},{\"internalType\":\"bool\",\"name\":\"preventOverspending\",\"type\":\"bool\"}]}],\"stateMutability\":\"nonpayable\",\"type\":\"function\",\"name\":\"initialize\"},{\"inputs\":[{\"internalType\":\"address\",\"name\":\"owner\",\"type\":\"address\"},{\"internalType\":\"address\",\"name\":\"operator\",\"type\":\"address\"}],\"stateMutability\":\"view\",\"type\":\"function\",\"name\":\"isApprovedForAll\",\"outputs\":[{\"internalType\":\"bool\",\"name\":\"\",\"type\":\"bool\"}]},{\"inputs\":[{\"internalType\":\"address\",\"name\":\"forwarder\",\"type\":\"address\"}],\"stateMutability\":\"view\",\"type\":\"function\",\"name\":\"isTrustedForwarder\",\"outputs\":[{\"internalType\":\"bool\",\"name\":\"\",\"type\":\"bool\"}]},{\"inputs\":[],\"stateMutability\":\"view\",\"type\":\"function\",\"name\":\"jbOwner\",\"outputs\":[{\"internalType\":\"address\",\"name\":\"owner\",\"type\":\"address\"},{\"internalType\":\"uint88\",\"name\":\"projectId\",\"type\":\"uint88\"},{\"internalType\":\"uint8\",\"name\":\"permissionId\",\"type\":\"uint8\"}]},{\"inputs\":[{\"internalType\":\"uint16[]\",\"name\":\"tierIds\",\"type\":\"uint16[]\"},{\"internalType\":\"address\",\"name\":\"beneficiary\",\"type\":\"address\"}],\"stateMutability\":\"nonpayable\",\"type\":\"function\",\"name\":\"mintFor\",\"outputs\":[{\"internalType\":\"uint256[]\",\"name\":\"tokenIds\",\"type\":\"uint256[]\"}]},{\"inputs\":[{\"internalType\":\"struct JB721TiersMintReservesConfig[]\",\"name\":\"reserveMintConfigs\",\"type\":\"tuple[]\",\"components\":[{\"internalType\":\"uint256\",\"name\":\"tierId\",\"type\":\"uint256\"},{\"internalType\":\"uint256\",\"name\":\"count\",\"type\":\"uint256\"}]}],\"stateMutability\":\"nonpayable\",\"type\":\"function\",\"name\":\"mintPendingReservesFor\"},{\"inputs\":[{\"internalType\":\"uint256\",\"name\":\"tierId\",\"type\":\"uint256\"},{\"internalType\":\"uint256\",\"name\":\"count\",\"type\":\"uint256\"}],\"stateMutability\":\"nonpayable\",\"type\":\"function\",\"name\":\"mintPendingReservesFor\"},{\"inputs\":[],\"stateMutability\":\"view\",\"type\":\"function\",\"name\":\"name\",\"outputs\":[{\"internalType\":\"string\",\"name\":\"\",\"type\":\"string\"}]},{\"inputs\":[],\"stateMutability\":\"view\",\"type\":\"function\",\"name\":\"owner\",\"outputs\":[{\"internalType\":\"address\",\"name\":\"\",\"type\":\"address\"}]},{\"inputs\":[{\"internalType\":\"uint256\",\"name\":\"tokenId\",\"type\":\"uint256\"}],\"stateMutability\":\"view\",\"type\":\"function\",\"name\":\"ownerOf\",\"outputs\":[{\"internalType\":\"address\",\"name\":\"\",\"type\":\"address\"}]},{\"inputs\":[{\"internalType\":\"address\",\"name\":\"addr\",\"type\":\"address\"}],\"stateMutability\":\"view\",\"type\":\"function\",\"name\":\"payCreditsOf\",\"outputs\":[{\"internalType\":\"uint256\",\"name\":\"\",\"type\":\"uint256\"}]},{\"inputs\":[],\"stateMutability\":\"view\",\"type\":\"function\",\"name\":\"pricingContext\",\"outputs\":[{\"internalType\":\"uint256\",\"name\":\"currency\",\"type\":\"uint256\"},{\"internalType\":\"uint256\",\"name\":\"decimals\",\"type\":\"uint256\"},{\"internalType\":\"contract IJBPrices\",\"name\":\"prices\",\"type\":\"address\"}]},{\"inputs\":[{\"internalType\":\"uint256[]\",\"name\":\"tokenIds\",\"type\":\"uint256[]\"},{\"internalType\":\"struct JBBeforeRedeemRecordedContext\",\"name\":\"\",\"type\":\"tuple\",\"components\":[{\"internalType\":\"address\",\"name\":\"terminal\",\"type\":\"address\"},{\"internalType\":\"address\",\"name\":\"holder\",\"type\":\"address\"},{\"internalType\":\"uint256\",\"name\":\"projectId\",\"type\":\"uint256\"},{\"internalType\":\"uint256\",\"name\":\"rulesetId\",\"type\":\"uint256\"},{\"internalType\":\"uint256\",\"name\":\"redeemCount\",\"type\":\"uint256\"},{\"internalType\":\"uint256\",\"name\":\"totalSupply\",\"type\":\"uint256\"},{\"internalType\":\"struct JBTokenAmount\",\"name\":\"surplus\",\"type\":\"tuple\",\"components\":[{\"internalType\":\"address\",\"name\":\"token\",\"type\":\"address\"},{\"internalType\":\"uint256\",\"name\":\"value\",\"type\":\"uint256\"},{\"internalType\":\"uint256\",\"name\":\"decimals\",\"type\":\"uint256\"},{\"internalType\":\"uint256\",\"name\":\"currency\",\"type\":\"uint256\"}]},{\"internalType\":\"bool\",\"name\":\"useTotalSurplus\",\"type\":\"bool\"},{\"internalType\":\"uint256\",\"name\":\"redemptionRate\",\"type\":\"uint256\"},{\"internalType\":\"bytes\",\"name\":\"metadata\",\"type\":\"bytes\"}]}],\"stateMutability\":\"view\",\"type\":\"function\",\"name\":\"redemptionWeightOf\",\"outputs\":[{\"internalType\":\"uint256\",\"name\":\"\",\"type\":\"uint256\"}]},{\"inputs\":[],\"stateMutability\":\"nonpayable\",\"type\":\"function\",\"name\":\"renounceOwnership\"},{\"inputs\":[{\"internalType\":\"address\",\"name\":\"from\",\"type\":\"address\"},{\"internalType\":\"address\",\"name\":\"to\",\"type\":\"address\"},{\"internalType\":\"uint256\",\"name\":\"tokenId\",\"type\":\"uint256\"}],\"stateMutability\":\"nonpayable\",\"type\":\"function\",\"name\":\"safeTransferFrom\"},{\"inputs\":[{\"internalType\":\"address\",\"name\":\"from\",\"type\":\"address\"},{\"internalType\":\"address\",\"name\":\"to\",\"type\":\"address\"},{\"internalType\":\"uint256\",\"name\":\"tokenId\",\"type\":\"uint256\"},{\"internalType\":\"bytes\",\"name\":\"data\",\"type\":\"bytes\"}],\"stateMutability\":\"nonpayable\",\"type\":\"function\",\"name\":\"safeTransferFrom\"},{\"inputs\":[{\"internalType\":\"address\",\"name\":\"operator\",\"type\":\"address\"},{\"internalType\":\"bool\",\"name\":\"approved\",\"type\":\"bool\"}],\"stateMutability\":\"nonpayable\",\"type\":\"function\",\"name\":\"setApprovalForAll\"},{\"inputs\":[{\"internalType\":\"string\",\"name\":\"baseUri\",\"type\":\"string\"},{\"internalType\":\"string\",\"name\":\"contractUri\",\"type\":\"string\"},{\"internalType\":\"contract IJB721TokenUriResolver\",\"name\":\"tokenUriResolver\",\"type\":\"address\"},{\"internalType\":\"uint256\",\"name\":\"encodedIPFSTUriTierId\",\"type\":\"uint256\"},{\"internalType\":\"bytes32\",\"name\":\"encodedIPFSUri\",\"type\":\"bytes32\"}],\"stateMutability\":\"nonpayable\",\"type\":\"function\",\"name\":\"setMetadata\"},{\"inputs\":[{\"internalType\":\"uint8\",\"name\":\"permissionId\",\"type\":\"uint8\"}],\"stateMutability\":\"nonpayable\",\"type\":\"function\",\"name\":\"setPermissionId\"},{\"inputs\":[{\"internalType\":\"bytes4\",\"name\":\"interfaceId\",\"type\":\"bytes4\"}],\"stateMutability\":\"view\",\"type\":\"function\",\"name\":\"supportsInterface\",\"outputs\":[{\"internalType\":\"bool\",\"name\":\"\",\"type\":\"bool\"}]},{\"inputs\":[],\"stateMutability\":\"view\",\"type\":\"function\",\"name\":\"symbol\",\"outputs\":[{\"internalType\":\"string\",\"name\":\"\",\"type\":\"string\"}]},{\"inputs\":[{\"internalType\":\"uint256\",\"name\":\"tokenId\",\"type\":\"uint256\"}],\"stateMutability\":\"view\",\"type\":\"function\",\"name\":\"tokenURI\",\"outputs\":[{\"internalType\":\"string\",\"name\":\"\",\"type\":\"string\"}]},{\"inputs\":[{\"internalType\":\"struct JBBeforeRedeemRecordedContext\",\"name\":\"\",\"type\":\"tuple\",\"components\":[{\"internalType\":\"address\",\"name\":\"terminal\",\"type\":\"address\"},{\"internalType\":\"address\",\"name\":\"holder\",\"type\":\"address\"},{\"internalType\":\"uint256\",\"name\":\"projectId\",\"type\":\"uint256\"},{\"internalType\":\"uint256\",\"name\":\"rulesetId\",\"type\":\"uint256\"},{\"internalType\":\"uint256\",\"name\":\"redeemCount\",\"type\":\"uint256\"},{\"internalType\":\"uint256\",\"name\":\"totalSupply\",\"type\":\"uint256\"},{\"internalType\":\"struct JBTokenAmount\",\"name\":\"surplus\",\"type\":\"tuple\",\"components\":[{\"internalType\":\"address\",\"name\":\"token\",\"type\":\"address\"},{\"internalType\":\"uint256\",\"name\":\"value\",\"type\":\"uint256\"},{\"internalType\":\"uint256\",\"name\":\"decimals\",\"type\":\"uint256\"},{\"internalType\":\"uint256\",\"name\":\"currency\",\"type\":\"uint256\"}]},{\"internalType\":\"bool\",\"name\":\"useTotalSurplus\",\"type\":\"bool\"},{\"internalType\":\"uint256\",\"name\":\"redemptionRate\",\"type\":\"uint256\"},{\"internalType\":\"bytes\",\"name\":\"metadata\",\"type\":\"bytes\"}]}],\"stateMutability\":\"view\",\"type\":\"function\",\"name\":\"totalRedemptionWeight\",\"outputs\":[{\"internalType\":\"uint256\",\"name\":\"\",\"type\":\"uint256\"}]},{\"inputs\":[{\"internalType\":\"address\",\"name\":\"from\",\"type\":\"address\"},{\"internalType\":\"address\",\"name\":\"to\",\"type\":\"address\"},{\"internalType\":\"uint256\",\"name\":\"tokenId\",\"type\":\"uint256\"}],\"stateMutability\":\"nonpayable\",\"type\":\"function\",\"name\":\"transferFrom\"},{\"inputs\":[{\"internalType\":\"address\",\"name\":\"newOwner\",\"type\":\"address\"}],\"stateMutability\":\"nonpayable\",\"type\":\"function\",\"name\":\"transferOwnership\"},{\"inputs\":[{\"internalType\":\"uint256\",\"name\":\"projectId\",\"type\":\"uint256\"}],\"stateMutability\":\"nonpayable\",\"type\":\"function\",\"name\":\"transferOwnershipToProject\"},{\"inputs\":[],\"stateMutability\":\"view\",\"type\":\"function\",\"name\":\"trustedForwarder\",\"outputs\":[{\"internalType\":\"address\",\"name\":\"\",\"type\":\"address\"}]}],\"devdoc\":{\"kind\":\"dev\",\"methods\":{\"adjustTiers((uint104,uint32,uint32,uint16,address,bytes32,uint24,bool,bool,bool,bool,bool)[],uint256[])\":{\"details\":\"Only the contract's owner or an operator with the `ADJUST_TIERS` permission from the owner can adjust the tiers.Any added tiers must adhere to this hook's `JB721TiersHookFlags`.\",\"params\":{\"tierIdsToRemove\":\"The tiers to remove, as an array of tier IDs.\",\"tiersToAdd\":\"The tiers to add, as an array of `JB721TierConfig` structs`.\"}},\"afterPayRecordedWith((address,uint256,uint256,(address,uint256,uint256,uint256),(address,uint256,uint256,uint256),uint256,uint256,address,bytes,bytes))\":{\"details\":\"Reverts if the calling contract is not one of the project's terminals.\",\"params\":{\"context\":\"The payment context passed in by the terminal.\"}},\"afterRedeemRecordedWith((address,uint256,uint256,uint256,(address,uint256,uint256,uint256),(address,uint256,uint256,uint256),uint256,address,bytes,bytes))\":{\"details\":\"Reverts if the calling contract is not one of the project's terminals.\",\"params\":{\"context\":\"The redemption context passed in by the terminal.\"}},\"approve(address,uint256)\":{\"details\":\"See {IERC721-approve}.\"},\"balanceOf(address)\":{\"params\":{\"owner\":\"The address to check the balance of.\"},\"returns\":{\"balance\":\"The number of NFTs the address owns across this hook's tiers.\"}},\"beforePayRecordedWith((address,address,(address,uint256,uint256,uint256),uint256,uint256,address,uint256,uint256,bytes))\":{\"details\":\"Sets this contract as the pay hook. Part of `IJBRulesetDataHook`.\",\"params\":{\"context\":\"The payment context passed to this contract by the `pay(...)` function.\"},\"returns\":{\"hookSpecifications\":\"The amount and data to send to pay hooks (this contract) instead of adding to the terminal's balance.\",\"weight\":\"The new `weight` to use, overriding the ruleset's `weight`.\"}},\"beforeRedeemRecordedWith((address,address,uint256,uint256,uint256,uint256,(address,uint256,uint256,uint256),bool,uint256,bytes))\":{\"details\":\"Sets this contract as the redeem hook. Part of `IJBRulesetDataHook`.This function is used for NFT redemptions, and will only be called if the project's ruleset has `useDataHookForRedeem` set to `true`.\",\"params\":{\"context\":\"The redemption context passed to this contract by the `redeemTokensOf(...)` function.\"},\"returns\":{\"hookSpecifications\":\"The amount and data to send to redeem hooks (this contract) instead of returning to the beneficiary.\",\"redeemCount\":\"The amount of tokens that should be considered redeemed.\",\"redemptionRate\":\"The redemption rate influencing the reclaim amount.\",\"totalSupply\":\"The total amount of tokens that are considered to be existing.\"}},\"constructor\":{\"params\":{\"directory\":\"A directory of terminals and controllers for projects.\",\"permissions\":\"A contract storing permissions.\",\"trustedForwarder\":\"The trusted forwarder for the ERC2771Context.\"}},\"firstOwnerOf(uint256)\":{\"details\":\"This is generally the address which paid for the NFT.\",\"params\":{\"tokenId\":\"The token ID of the NFT to get the first owner of.\"},\"returns\":{\"_0\":\"The address of the NFT's first owner.\"}},\"getApproved(uint256)\":{\"details\":\"See {IERC721-getApproved}.\"},\"initialize(uint256,string,string,address,string,address,string,((uint104,uint32,uint32,uint16,address,bytes32,uint24,bool,bool,bool,bool,bool)[],uint32,uint8,address),address,(bool,bool,bool,bool))\":{\"params\":{\"baseUri\":\"The URI to use as a base for full NFT `tokenUri`s.\",\"contractUri\":\"A URI where this contract's metadata can be found.\",\"flags\":\"A set of additional options which dictate how the hook behaves.\",\"name\":\"The name of the NFT collection.\",\"projectId\":\"The ID of the project this this hook is associated with.\",\"rulesets\":\"A contract storing and managing project rulesets.\",\"store\":\"The contract which stores the NFT's data.\",\"symbol\":\"The symbol representing the NFT collection.\",\"tiersConfig\":\"The NFT tiers and pricing context to initialize the hook with. The tiers must be sorted by price (from least to greatest).\",\"tokenUriResolver\":\"An optional contract responsible for resolving the token URI for each NFT's token ID.\"}},\"isApprovedForAll(address,address)\":{\"details\":\"See {IERC721-isApprovedForAll}.\"},\"isTrustedForwarder(address)\":{\"details\":\"Indicates whether any particular address is the trusted forwarder.\"},\"mintFor(uint16[],address)\":{\"params\":{\"beneficiary\":\"The address to mint to.\",\"tierIds\":\"The IDs of the tiers to mint from.\"},\"returns\":{\"tokenIds\":\"The IDs of the newly minted tokens.\"}},\"mintPendingReservesFor((uint256,uint256)[])\":{\"details\":\"\\\"Pending\\\" means that the NFTs have been reserved, but have not been minted yet.\",\"params\":{\"reserveMintConfigs\":\"Contains information about how many reserved tokens to mint for each tier.\"}},\"mintPendingReservesFor(uint256,uint256)\":{\"details\":\"\\\"Pending\\\" means that the NFTs have been reserved, but have not been minted yet.\",\"params\":{\"count\":\"The number of reserved NFTs to mint.\",\"tierId\":\"The ID of the tier to mint reserved NFTs from.\"}},\"name()\":{\"details\":\"See {IERC721Metadata-name}.\"},\"ownerOf(uint256)\":{\"details\":\"See {IERC721-ownerOf}.\"},\"pricingContext()\":{\"details\":\"If the `prices` contract is the zero address, this contract only accepts payments in the `currency` token.\",\"returns\":{\"currency\":\"The currency used for tier prices.\",\"decimals\":\"The amount of decimals being used in tier prices.\",\"prices\":\"The prices contract used to resolve the value of payments in currencies other than `currency`.\"}},\"redemptionWeightOf(uint256[],(address,address,uint256,uint256,uint256,uint256,(address,uint256,uint256,uint256),bool,uint256,bytes))\":{\"details\":\"An NFT's redemption weight is its price.To get their relative redemption weight, divide the result by the `totalRedemptionWeight(...)`.\",\"params\":{\"tokenIds\":\"The token IDs of the NFTs to get the cumulative redemption weight of.\"},\"returns\":{\"_0\":\"weight The redemption weight of the tokenIds.\"}},\"safeTransferFrom(address,address,uint256)\":{\"details\":\"See {IERC721-safeTransferFrom}.\"},\"safeTransferFrom(address,address,uint256,bytes)\":{\"details\":\"See {IERC721-safeTransferFrom}.\"},\"setApprovalForAll(address,bool)\":{\"details\":\"See {IERC721-setApprovalForAll}.\"},\"setMetadata(string,string,address,uint256,bytes32)\":{\"details\":\"Only this contract's owner can set the metadata.\",\"params\":{\"baseUri\":\"The new base URI.\",\"contractUri\":\"The new contract URI.\",\"encodedIPFSTUriTierId\":\"The ID of the tier to set the encoded IPFS URI of.\",\"encodedIPFSUri\":\"The encoded IPFS URI to set.\",\"tokenUriResolver\":\"The new URI resolver.\"}},\"setPermissionId(uint8)\":{\"params\":{\"permissionId\":\"The ID of the permission to use for `onlyOwner`.\"}},\"supportsInterface(bytes4)\":{\"details\":\"See {IERC165-supportsInterface}.\",\"params\":{\"interfaceId\":\"The ID of the interface to check for adherence to.\"}},\"symbol()\":{\"details\":\"See {IERC721Metadata-symbol}.\"},\"tokenURI(uint256)\":{\"details\":\"Defers to the `tokenUriResolver` if it is set. Otherwise, use the `tokenUri` corresponding with the NFT's tier.\",\"params\":{\"tokenId\":\"The token ID of the NFT to get the metadata URI of.\"},\"returns\":{\"_0\":\"The token URI from the `tokenUriResolver` if it is set. If it isn't set, the token URI for the NFT's tier.\"}},\"totalRedemptionWeight((address,address,uint256,uint256,uint256,uint256,(address,uint256,uint256,uint256),bool,uint256,bytes))\":{\"details\":\"An NFT's redemption weight is its price.\",\"returns\":{\"_0\":\"weight The total redemption weight.\"}},\"transferFrom(address,address,uint256)\":{\"details\":\"See {IERC721-transferFrom}.\"},\"transferOwnership(address)\":{\"params\":{\"newOwner\":\"The address that should receive ownership of this contract.\"}},\"transferOwnershipToProject(uint256)\":{\"details\":\"The `projectId` must fit within a `uint88`.\",\"params\":{\"projectId\":\"The ID of the project that should receive ownership of this contract.\"}},\"trustedForwarder()\":{\"details\":\"Returns the address of the trusted forwarder.\"}},\"version\":1},\"userdoc\":{\"kind\":\"user\",\"methods\":{\"DIRECTORY()\":{\"notice\":\"The directory of terminals and controllers for projects.\"},\"METADATA_ID_TARGET()\":{\"notice\":\"The ID used when parsing metadata.\"},\"PERMISSIONS()\":{\"notice\":\"A contract storing permissions.\"},\"PROJECTS()\":{\"notice\":\"Mints ERC-721s that represent project ownership and transfers.\"},\"PROJECT_ID()\":{\"notice\":\"The ID of the project that this contract is associated with.\"},\"RULESETS()\":{\"notice\":\"The contract storing and managing project rulesets.\"},\"STORE()\":{\"notice\":\"The contract that stores and manages data for this contract's NFTs.\"},\"adjustTiers((uint104,uint32,uint32,uint16,address,bytes32,uint24,bool,bool,bool,bool,bool)[],uint256[])\":{\"notice\":\"Add or delete tiers.\"},\"afterPayRecordedWith((address,uint256,uint256,(address,uint256,uint256,uint256),(address,uint256,uint256,uint256),uint256,uint256,address,bytes,bytes))\":{\"notice\":\"Mints one or more NFTs to the `context.benficiary` upon payment if conditions are met. Part of `IJBPayHook`.\"},\"afterRedeemRecordedWith((address,uint256,uint256,uint256,(address,uint256,uint256,uint256),(address,uint256,uint256,uint256),uint256,address,bytes,bytes))\":{\"notice\":\"Burns the specified NFTs upon token holder redemption, reclaiming funds from the project's balance for `context.beneficiary`. Part of `IJBRedeemHook`.\"},\"balanceOf(address)\":{\"notice\":\"The total number of this hook's NFTs that an address holds (from all tiers).\"},\"baseURI()\":{\"notice\":\"The base URI for the NFT `tokenUris`.\"},\"beforePayRecordedWith((address,address,(address,uint256,uint256,uint256),uint256,uint256,address,uint256,uint256,bytes))\":{\"notice\":\"The data calculated before a payment is recorded in the terminal store. This data is provided to the terminal's `pay(...)` transaction.\"},\"beforeRedeemRecordedWith((address,address,uint256,uint256,uint256,uint256,(address,uint256,uint256,uint256),bool,uint256,bytes))\":{\"notice\":\"The data calculated before a redemption is recorded in the terminal store. This data is provided to the terminal's `redeemTokensOf(...)` transaction.\"},\"contractURI()\":{\"notice\":\"This contract's metadata URI.\"},\"firstOwnerOf(uint256)\":{\"notice\":\"The first owner of an NFT.\"},\"hasMintPermissionFor(uint256,address)\":{\"notice\":\"Required by the IJBRulesetDataHook interfaces. Return false to not leak any permissions.\"},\"initialize(uint256,string,string,address,string,address,string,((uint104,uint32,uint32,uint16,address,bytes32,uint24,bool,bool,bool,bool,bool)[],uint32,uint8,address),address,(bool,bool,bool,bool))\":{\"notice\":\"Initializes a cloned copy of the original `JB721Hook` contract.\"},\"jbOwner()\":{\"notice\":\"This contract's owner information.\"},\"mintFor(uint16[],address)\":{\"notice\":\"Manually mint NFTs from the provided tiers .\"},\"mintPendingReservesFor((uint256,uint256)[])\":{\"notice\":\"Mint pending reserved NFTs based on the provided information.\"},\"mintPendingReservesFor(uint256,uint256)\":{\"notice\":\"Mint reserved pending reserved NFTs within the provided tier.\"},\"owner()\":{\"notice\":\"Returns the owner's address based on this contract's `JBOwner` owner information.\"},\"payCreditsOf(address)\":{\"notice\":\"If an address pays more than the price of the NFT they received, the extra amount is stored as credits which can be redeemed to mint NFTs.\"},\"pricingContext()\":{\"notice\":\"Context for the pricing of this hook's tiers.\"},\"redemptionWeightOf(uint256[],(address,address,uint256,uint256,uint256,uint256,(address,uint256,uint256,uint256),bool,uint256,bytes))\":{\"notice\":\"The combined redemption weight of the NFTs with the specified token IDs.\"},\"renounceOwnership()\":{\"notice\":\"Gives up ownership of this contract, making it impossible to call `onlyOwner`/`_checkOwner` functions. Can only be called by the current owner.\"},\"setMetadata(string,string,address,uint256,bytes32)\":{\"notice\":\"Update this hook's URI metadata properties.\"},\"setPermissionId(uint8)\":{\"notice\":\"Sets the permission ID which, when granted from the owner, allows other addresses to perform operations on their behalf.\"},\"supportsInterface(bytes4)\":{\"notice\":\"Indicates if this contract adheres to the specified interface.\"},\"tokenURI(uint256)\":{\"notice\":\"The metadata URI of the NFT with the specified token ID.\"},\"totalRedemptionWeight((address,address,uint256,uint256,uint256,uint256,(address,uint256,uint256,uint256),bool,uint256,bytes))\":{\"notice\":\"The combined redemption weight of all outstanding NFTs.\"},\"transferOwnership(address)\":{\"notice\":\"Transfers ownership of this contract to a new account (the `newOwner`). Can only be called by the current owner.\"},\"transferOwnershipToProject(uint256)\":{\"notice\":\"Transfer ownership of this contract to a new Juicebox project.\"}},\"version\":1}},\"settings\":{\"remappings\":[\"@bananapus/=node_modules/@bananapus/\",\"@chainlink/=node_modules/@chainlink/\",\"@eth-optimism/=node_modules/@eth-optimism/\",\"@openzeppelin/=node_modules/@openzeppelin/\",\"@prb/=node_modules/@prb/\",\"@scroll-tech/=node_modules/@scroll-tech/\",\"@sphinx-labs/contracts/=node_modules/@sphinx-labs/contracts/contracts/foundry/\",\"@uniswap/=node_modules/@uniswap/\",\"ds-test/=lib/forge-std/lib/ds-test/src/\",\"forge-std/=lib/forge-std/src/\",\"hardhat/=node_modules/hardhat/\",\"solmate/=node_modules/solmate/\",\"sphinx/=lib/sphinx/packages/contracts/contracts/forge-std/src/\"],\"optimizer\":{\"enabled\":true,\"runs\":1000},\"metadata\":{\"bytecodeHash\":\"ipfs\"},\"compilationTarget\":{\"src/JB721TiersHook.sol\":\"JB721TiersHook\"},\"evmVersion\":\"paris\",\"libraries\":{}},\"sources\":{\"node_modules/@bananapus/core/src/abstract/JBPermissioned.sol\":{\"keccak256\":\"0xe08c8a7eeac9d1c7c2e0db6d5b98d1af09889300835a3d47d9f29319fecce703\",\"urls\":[\"bzz-raw://42645cf52bcc45053ef650790916faed5d0a74cecef336b217433fdd2c5c4166\",\"dweb:/ipfs/QmdMmxG1tSGucQwz4LYbVnuj7HU23YvqLH6xfrNWv5Bmus\"],\"license\":\"MIT\"},\"node_modules/@bananapus/core/src/enums/JBApprovalStatus.sol\":{\"keccak256\":\"0x61c69b6bac7d24b566d87cda23a77e4ca9cdb87200b106aba8534cb9a0973e33\",\"urls\":[\"bzz-raw://6a9ca7249de76f77a8252eefe6bd1b63d47952f25a2acfa2c8db967cdff4470c\",\"dweb:/ipfs/QmaxSxptRQNj8bNy96EreENmrnRWdKmhyihBcxyWzBX5BN\"],\"license\":\"MIT\"},\"node_modules/@bananapus/core/src/interfaces/IJBDirectory.sol\":{\"keccak256\":\"0x9cc380844aef60078ee47a61861e55a29c4a8c947efd556ebd36e6909f7b9d62\",\"urls\":[\"bzz-raw://9f5190ec8b6683d9781ee6e9eedcc91294753242748875d4a06349077e4cbaaf\",\"dweb:/ipfs/QmTQrPuXT9TCA4txwrperMeXSGvGxP8iokUK47f62F388i\"],\"license\":\"MIT\"},\"node_modules/@bananapus/core/src/interfaces/IJBPayHook.sol\":{\"keccak256\":\"0x9438866782c652c2942f4d114e35f393cd3c8b0334abce8387eed90bca35e8b2\",\"urls\":[\"bzz-raw://cfd99daf57213f92325aad7d7d16e98476d38e870470e95ba01e3ae3cdecc95d\",\"dweb:/ipfs/QmUKKAVGf7ki8BHksr99tFcRW8APveeB5tNH63ctTbbCW8\"],\"license\":\"MIT\"},\"node_modules/@bananapus/core/src/interfaces/IJBPermissioned.sol\":{\"keccak256\":\"0x5b038d4dee116584e88b230920e56d48e135053e3f7e5642eaea14a775c1dad7\",\"urls\":[\"bzz-raw://19e43102f349fd4a1da1c0943ffb8f2950007fe4bb4bb7e8f74fc142575d091b\",\"dweb:/ipfs/QmXHAt4KzDTdDZgDDefEXH2WKi7NcfkJb9R7nxW5uDqsNp\"],\"license\":\"MIT\"},\"node_modules/@bananapus/core/src/interfaces/IJBPermissions.sol\":{\"keccak256\":\"0x18870e500edf0fbadc353e273a5574701fb80466376b908c65e7cc3f11044d4d\",\"urls\":[\"bzz-raw://352a47c45853aec80e7acf0d286ade3106eb4cb456776b28a3c2f3f1091bed90\",\"dweb:/ipfs/QmQeYd3YbudYZy2hfbfht9kwhxhw4tuuLKMEYy9UY6dcSy\"],\"license\":\"MIT\"},\"node_modules/@bananapus/core/src/interfaces/IJBPriceFeed.sol\":{\"keccak256\":\"0x4bd84c0f1a5d4729ed709bcddd43f4c50ec4a165ece79780af8dce482ed07d4a\",\"urls\":[\"bzz-raw://62bac4bfb6982fb002f620c77e5c445e62d50241a5aa64a07e51d929f5a42180\",\"dweb:/ipfs/QmWgJUDreVY2BuMX38a1iUUR5kNbMwGnKG3VvurB7oZtuM\"],\"license\":\"MIT\"},\"node_modules/@bananapus/core/src/interfaces/IJBPrices.sol\":{\"keccak256\":\"0x99525f31440b955742dce84ba57de9fc1221139b5367c1f834723bef9e13e6e1\",\"urls\":[\"bzz-raw://6fa03f0cd4ad87dd7cbae7bf7f54463450874291773c8f70f2c31ef2cae62bb0\",\"dweb:/ipfs/QmSPajPV5ismteJuB6Spzm9VmhTj2iS3eVrfpJC1Zuzg8n\"],\"license\":\"MIT\"},\"node_modules/@bananapus/core/src/interfaces/IJBProjects.sol\":{\"keccak256\":\"0x735c2fb8f1fa827f054ee77f7a0ae4b312656217acb75b624d2c8fd9dc40151b\",\"urls\":[\"bzz-raw://ee7fc92299a8633a80693ae63ab494dcd125f1789487a54a39dc0e5696e5996f\",\"dweb:/ipfs/QmX7YJD4pS2XhgQb7p3JbBAXynT7YGPXcZe92BiWWRrsCL\"],\"license\":\"MIT\"},\"node_modules/@bananapus/core/src/interfaces/IJBRedeemHook.sol\":{\"keccak256\":\"0x8ab46fcd7d0e739661eb76056ad93ff99106f38420ef0b4eb97fa9f4bb71a68a\",\"urls\":[\"bzz-raw://0ef96fcb7ad26281d444d8e0c677b25114fdd63b1c172d477e030dce8ba53b62\",\"dweb:/ipfs/Qmcx1jRQuwU4pZFuLxsSsx4oMbRaDfktHrPnXextgbWc5m\"],\"license\":\"MIT\"},\"node_modules/@bananapus/core/src/interfaces/IJBRulesetApprovalHook.sol\":{\"keccak256\":\"0x592e95d159494421c6b1bcb362d0cee1df0132921697351304e9cd7af4fbd386\",\"urls\":[\"bzz-raw://5bebfd5fa67c1b6ea16fa2e76e9520e9dfe52a579f48dd94d0c2ec45f78ad178\",\"dweb:/ipfs/QmRUawEGtfYoYSHmHELGhvJoWuMsxLPKtqAXgsrb7fJboP\"],\"license\":\"MIT\"},\"node_modules/@bananapus/core/src/interfaces/IJBRulesetDataHook.sol\":{\"keccak256\":\"0x13b4b9f4b847f62442da1c1a59b399f8f201b31a28edb96aa5a8a78ad57c24d0\",\"urls\":[\"bzz-raw://4fcd00b77d0f40cf6d5ee6590b6ef4ee1f606e89ae4c4faed3710fb462108f8e\",\"dweb:/ipfs/QmeoE54DQ3eGw9EDXfN7aTMmEjubAtirahmytDijo6GSeE\"],\"license\":\"MIT\"},\"node_modules/@bananapus/core/src/interfaces/IJBRulesets.sol\":{\"keccak256\":\"0xd3f817d22ecbe24da63c552c069bf0c4fbbf3bcd5c3b5633002afd24aacf6882\",\"urls\":[\"bzz-raw://c1185aec0f6b6f0f4d93ffeeed0972ccf38420b00fe570b5e1838ed2b1f5db49\",\"dweb:/ipfs/QmWz36azGTFnjFXpFSh6BHt4nactgjtF64L3PeTqs4ZqSR\"],\"license\":\"MIT\"},\"node_modules/@bananapus/core/src/interfaces/IJBTerminal.sol\":{\"keccak256\":\"0x19dc9bf8cbdc8f13ee5da9dc3a87047eacb94a3fc19740a286c1f0bad2cc39ca\",\"urls\":[\"bzz-raw://0b05ae6fda9a85672508232fd992b8a5f5ffd8096622eeb12c8a7b3317eb3867\",\"dweb:/ipfs/QmNh9Quj37BXYGdTdcCD1Q58PchRsE5TLbEZep56qS3MpV\"],\"license\":\"MIT\"},\"node_modules/@bananapus/core/src/interfaces/IJBTokenUriResolver.sol\":{\"keccak256\":\"0xfa5cb00dcd6085d1ef912d071fe73c63f9478a2cd0f9d8bddaf659b6af2d0967\",\"urls\":[\"bzz-raw://282e4e7c342d65f77cde0e9a08fcaf20ef5cf379c7a48b639842c0ffd0b2afb8\",\"dweb:/ipfs/QmbnN3PEQeZaXdPLT75V1J79kMg7KqSMru37RHrL3z8Yf2\"],\"license\":\"MIT\"},\"node_modules/@bananapus/core/src/libraries/JBConstants.sol\":{\"keccak256\":\"0x9d3a9a953f859d8ec79a599577f8972de6da7199cc1bfa7fdad017d4d722bcb4\",\"urls\":[\"bzz-raw://f151fcb53a8d2684eff8b9e56ac790bcbcadd8199a4fd4d17c5b224b22936722\",\"dweb:/ipfs/QmdAz1ZtCE8nTiC4AxQNLfJhnY3ndGum2Lbef7seKdvTdR\"],\"license\":\"MIT\"},\"node_modules/@bananapus/core/src/libraries/JBMetadataResolver.sol\":{\"keccak256\":\"0x900731084917f812806a35dab2c7ae65a6f07506d6c953ae0cd6d993fe85560f\",\"urls\":[\"bzz-raw://2002892aef205b5192fa5c2d1cf1698ba0836bed7eaba839444cd0f93b4fb050\",\"dweb:/ipfs/QmPRGSNRdpST1xt2brhGWSDsEYD29j5QwaJ3SA518UUXWs\"],\"license\":\"MIT\"},\"node_modules/@bananapus/core/src/libraries/JBRulesetMetadataResolver.sol\":{\"keccak256\":\"0x83f25c531d9e212379b4326fd93bf658a0f6d0e839bbd67bff7b66b9b55fb670\",\"urls\":[\"bzz-raw://3eb4a41ececec705febac7b799d7224e67f12761ae3975d49dd8bddaac608ecd\",\"dweb:/ipfs/QmNgL5VccDhP5xofEcGWNKk3v4KG23wGF9vc3d4YJ5MLnv\"],\"license\":\"MIT\"},\"node_modules/@bananapus/core/src/structs/JBAccountingContext.sol\":{\"keccak256\":\"0x2907ff54d1e903cc7e0390dd88c3975884702dc2673642aacbe22b66560b56de\",\"urls\":[\"bzz-raw://a66a5381ce877b32f0e0058ceeaf843e9b6b2bc8af666c0c9f4a9d01091da004\",\"dweb:/ipfs/QmQynCetUr37dBkS1YwDS8evxuXGiqanW6THmeUxXtim8w\"],\"license\":\"MIT\"},\"node_modules/@bananapus/core/src/structs/JBAfterPayRecordedContext.sol\":{\"keccak256\":\"0xd26c3a774ff38be79064085970454fe2603a23a638c76270d5b1b3829206c3e8\",\"urls\":[\"bzz-raw://3b55dbe3bf1ef625b7ca04efab3de35406e6041d5b3d82c7265469c500e2b702\",\"dweb:/ipfs/QmUdBDo4Lt3mcsFcsXT2mqq3czFwZjQJFPLM89YA2VtD7k\"],\"license\":\"MIT\"},\"node_modules/@bananapus/core/src/structs/JBAfterRedeemRecordedContext.sol\":{\"keccak256\":\"0x521f5d23a36f0da72362cd84890cc867bd83baa8dc836ba6c5066d51dba2f163\",\"urls\":[\"bzz-raw://6cc461313286dde62d045d6288e87bae5032e035796326f5b1ed6218e58aa9da\",\"dweb:/ipfs/QmQS2AkQwf2ANQieDuaUnpJEdXChoLv4CCbZqHkfywYPSR\"],\"license\":\"MIT\"},\"node_modules/@bananapus/core/src/structs/JBBeforePayRecordedContext.sol\":{\"keccak256\":\"0x5b04e814da83c7e83ff892ab07eaad6abce6f7b85a75f8da9380e9fc3470bc81\",\"urls\":[\"bzz-raw://11c889aab993fce3e3cc2dedc15fc30dd367e7fef9b7b1bfd6a6a9f248781731\",\"dweb:/ipfs/QmVVtydCD1azeWhGLxA1hthxfLyKzMHZ1eVzCz3a3R5dLy\"],\"license\":\"MIT\"},\"node_modules/@bananapus/core/src/structs/JBBeforeRedeemRecordedContext.sol\":{\"keccak256\":\"0x73eadaf6827e82f6ccbe3a1e2b2b7fc6c59cef471f73335041b30ddcc000989d\",\"urls\":[\"bzz-raw://2f3ee84662eed565dbdaed406ef836fffaf55cccd417575578152e5085d0b1f2\",\"dweb:/ipfs/QmaJGFS7hxJsiUdKvbv5BKhSwceDEzKBnt7t5YeNWvYgMK\"],\"license\":\"MIT\"},\"node_modules/@bananapus/core/src/structs/JBPayHookSpecification.sol\":{\"keccak256\":\"0x955f0bfca97300b9e5927dc181753830ee362f83fa9ca32a90daade32aa0cfd5\",\"urls\":[\"bzz-raw://f517af1597c7c40f8d3da53f7a6684a3e162950a16559d6bf6ea3b727bb11546\",\"dweb:/ipfs/QmRWo2ZTYXmVZTzNJDYhsJNsEaHphjpUfx9eNz2cciyz86\"],\"license\":\"MIT\"},\"node_modules/@bananapus/core/src/structs/JBPermissionsData.sol\":{\"keccak256\":\"0x8f0f69a6ebf5f3704e3dfcb3712fb9d3f94ae7c1ab89bf3e37bad42a3e7a0487\",\"urls\":[\"bzz-raw://57b0c5e52843e2217082889ed47b4da3943e0da4590d5768dcebfe3edad4a6b8\",\"dweb:/ipfs/QmRz48vuWLw81kUP836rh1qzqWiJFGbksgRUA9xGEDNKTY\"],\"license\":\"MIT\"},\"node_modules/@bananapus/core/src/structs/JBRedeemHookSpecification.sol\":{\"keccak256\":\"0x673d16ee1a91bf8de3b37e57284e60451b70a9c2d748c9cdc7a151f5624af18f\",\"urls\":[\"bzz-raw://ceeb5e81effa0f076c5630c756dfcf1548d09f822b255a0a6ee01e54de8c8ae2\",\"dweb:/ipfs/QmSMoMNPRhPMnuJNvWa6S59XRfycGz9o2ApNp63bUW6TdX\"],\"license\":\"MIT\"},\"node_modules/@bananapus/core/src/structs/JBRuleset.sol\":{\"keccak256\":\"0x15b2bf3174d84846a91ccbf5a344dfb125b55ed9cf50102db8d6868844225189\",\"urls\":[\"bzz-raw://647416b025dbd941094db89cbc69f755c155bd6c87be3f322394ccc4a8e0442d\",\"dweb:/ipfs/QmTCL9xcHnxQ4t5AmCPoZvXDUPW5xhzhyyXYbkMdyg44au\"],\"license\":\"MIT\"},\"node_modules/@bananapus/core/src/structs/JBRulesetMetadata.sol\":{\"keccak256\":\"0xfea54c9f98416d2aa05309e7ff76967d6968a614850a1e33e48fde793ea8b514\",\"urls\":[\"bzz-raw://bf55386cbab90dbc1296b2b0cbfdc217a4500d67702e4a093a4c78bd127ecd5c\",\"dweb:/ipfs/QmTRq9mZrNSXu7oCZwti4JbBFrbY6A5msRqi9RbtL49NAj\"],\"license\":\"MIT\"},\"node_modules/@bananapus/core/src/structs/JBTokenAmount.sol\":{\"keccak256\":\"0x5cf0626b73a596c1e2da17c89ae039a7c0374310b060d48568d3b6c11fbe6180\",\"urls\":[\"bzz-raw://63348b50be95e2995409394a17caffc563a646f0972650a1230bf864fbd3219b\",\"dweb:/ipfs/QmZXZpS3SbFD5nWaCauf6AqbEhLURv5qsKHpThBvQgDU6u\"],\"license\":\"MIT\"},\"node_modules/@bananapus/ownable/src/JBOwnable.sol\":{\"keccak256\":\"0x5b0aec2bc7164bdb972bfb9f71660c887308cf3a72738c7469d03bf264cf0d54\",\"urls\":[\"bzz-raw://bf4f60cebc0a707004371425aa3c8751b6a84dfb4fc9bf788160ae9ac1e906f6\",\"dweb:/ipfs/QmegUfWLhKuByQTkfMkmwkEs2Tk5ZEuR56DqQw5kxFzP3d\"],\"license\":\"MIT\"},\"node_modules/@bananapus/ownable/src/JBOwnableOverrides.sol\":{\"keccak256\":\"0x70a7c55f2a0f4324b63afe61e9d0de6e54396073e431844a19936d2aaaf6d7dd\",\"urls\":[\"bzz-raw://94c55139a8e974e2a88c6f0fc7594be3044742cfc499c989051eaf6664ec7dab\",\"dweb:/ipfs/QmQPnLAootqEGzpHRdhsYGBU3cqicRYLAe6bTti2UCBHyS\"],\"license\":\"MIT\"},\"node_modules/@bananapus/ownable/src/interfaces/IJBOwnable.sol\":{\"keccak256\":\"0x2c513558439d763df03e8a68c1aef698618182fd44c285405c35597d52c65ad1\",\"urls\":[\"bzz-raw://11cc25c41fccc20cca29f93dd120e67760188fd2040ef0330a093d37fbfa2f8f\",\"dweb:/ipfs/QmWpxcv41eYmsNYT3ph1nts5pC7sp3EzwJxKDGebMqEbsH\"],\"license\":\"MIT\"},\"node_modules/@bananapus/ownable/src/struct/JBOwner.sol\":{\"keccak256\":\"0x5624ba356f01f722984c1b857a106f413b12e57bae1f762a81c16ee511e3325a\",\"urls\":[\"bzz-raw://3120b5649ac8b55158df138dcac03f6850fc988cc5a24a7cb06e6581265ca284\",\"dweb:/ipfs/QmQBSLxRT9j1MEERUt8dWbSsAjianbHpM2CFwciLK7MwaP\"],\"license\":\"MIT\"},\"node_modules/@bananapus/permission-ids/src/JBPermissionIds.sol\":{\"keccak256\":\"0xf61109f6b217a80d5e5391f548fb6f2e451f7dbee3fabfc04cf17e88722203bc\",\"urls\":[\"bzz-raw://ac776ab1cd621c22bd7973471acdfa187f3abc659ad9a3ef6ed10b6447dfcf9c\",\"dweb:/ipfs/QmYLbaHt68qcuMzkiKpe96jMjiWUq1F3u8yMhxmZ3pnnWu\"],\"license\":\"MIT\"},\"node_modules/@openzeppelin/contracts/interfaces/IERC2981.sol\":{\"keccak256\":\"0x89b84f7b1b2d6c294cd6b9a9f661c1cfb1b9b10ca7bac5b3445850a8ce96dcf1\",\"urls\":[\"bzz-raw://44f961aefa43a50c94d8b68e749235b2cf3bd1de18bf6f2e5e1c0fd9a59e06ea\",\"dweb:/ipfs/QmNzd2bnJidavPtt2hQ1em387T6W37n3kDx8WrneCZozxV\"],\"license\":\"MIT\"},\"node_modules/@openzeppelin/contracts/interfaces/draft-IERC6093.sol\":{\"keccak256\":\"0x60c65f701957fdd6faea1acb0bb45825791d473693ed9ecb34726fdfaa849dd7\",\"urls\":[\"bzz-raw://ea290300e0efc4d901244949dc4d877fd46e6c5e43dc2b26620e8efab3ab803f\",\"dweb:/ipfs/QmcLLJppxKeJWqHxE2CUkcfhuRTgHSn8J4kijcLa5MYhSt\"],\"license\":\"MIT\"},\"node_modules/@openzeppelin/contracts/metatx/ERC2771Context.sol\":{\"keccak256\":\"0x98256cf37b71a69b2f5a8a6fe975ea03590dff703102bd141a830f94e8adebf6\",\"urls\":[\"bzz-raw://6251fe1f6a1e45e6d619d150c123afc88b8646b38ee26a136efa9a6988a31d3f\",\"dweb:/ipfs/QmeXDT85wSZdP31wkz3ah3KhponCiksJLP5o2LR5e1JxcK\"],\"license\":\"MIT\"},\"node_modules/@openzeppelin/contracts/token/ERC721/IERC721.sol\":{\"keccak256\":\"0x5ef46daa3b58ef2702279d514780316efaa952915ee1aa3396f041ee2982b0b4\",\"urls\":[\"bzz-raw://2f8f2a76e23b02fc69e8cd24c3cb47da6c7af3a2d6c3a382f8ac25c6e094ade7\",\"dweb:/ipfs/QmPV4ZS4tPVv4mTCf9ejyZ1ai57EEibDRj7mN2ARDCLV5n\"],\"license\":\"MIT\"},\"node_modules/@openzeppelin/contracts/token/ERC721/IERC721Receiver.sol\":{\"keccak256\":\"0x7f7a26306c79a65fb8b3b6c757cd74660c532cd8a02e165488e30027dd34ca49\",\"urls\":[\"bzz-raw://d01e0b2b837ee2f628545e54d8715b49c7ef2befd08356c2e7f6c50dde8a1c22\",\"dweb:/ipfs/QmWBAn6y2D1xgftci97Z3qR9tQnkvwQpYwFwkTvDMvqU4i\"],\"license\":\"MIT\"},\"node_modules/@openzeppelin/contracts/token/ERC721/extensions/IERC721Metadata.sol\":{\"keccak256\":\"0x37d1aaaa5a2908a09e9dcf56a26ddf762ecf295afb5964695937344fc6802ce1\",\"urls\":[\"bzz-raw://ed0bfc1b92153c5000e50f4021367b931bbe96372ac6facec3c4961b72053d02\",\"dweb:/ipfs/Qmbwp8VDerjS5SV1quwHH1oMXxPQ93fzfLVqJ2RCqbowGE\"],\"license\":\"MIT\"},\"node_modules/@openzeppelin/contracts/utils/Context.sol\":{\"keccak256\":\"0x493033a8d1b176a037b2cc6a04dad01a5c157722049bbecf632ca876224dd4b2\",\"urls\":[\"bzz-raw://6a708e8a5bdb1011c2c381c9a5cfd8a9a956d7d0a9dc1bd8bcdaf52f76ef2f12\",\"dweb:/ipfs/Qmax9WHBnVsZP46ZxEMNRQpLQnrdE4dK8LehML1Py8FowF\"],\"license\":\"MIT\"},\"node_modules/@openzeppelin/contracts/utils/Strings.sol\":{\"keccak256\":\"0x55f102ea785d8399c0e58d1108e2d289506dde18abc6db1b7f68c1f9f9bc5792\",\"urls\":[\"bzz-raw://6e52e0a7765c943ef14e5bcf11e46e6139fa044be564881378349236bf2e3453\",\"dweb:/ipfs/QmZEeeXoFPW47amyP35gfzomF9DixqqTEPwzBakv6cZw6i\"],\"license\":\"MIT\"},\"node_modules/@openzeppelin/contracts/utils/introspection/ERC165.sol\":{\"keccak256\":\"0x9e8778b14317ba9e256c30a76fd6c32b960af621987f56069e1e819c77c6a133\",\"urls\":[\"bzz-raw://1777404f1dcd0fac188e55a288724ec3c67b45288e49cc64723e95e702b49ab8\",\"dweb:/ipfs/QmZFdC626GButBApwDUvvTnUzdinevC3B24d7yyh57XkiA\"],\"license\":\"MIT\"},\"node_modules/@openzeppelin/contracts/utils/introspection/IERC165.sol\":{\"keccak256\":\"0x4296879f55019b23e135000eb36896057e7101fb7fb859c5ef690cf14643757b\",\"urls\":[\"bzz-raw://87b3541437c8c443ccd36795e56a338ed12855eec17f8da624511b8d1a7e14df\",\"dweb:/ipfs/QmeJQCtZrQjtJLr6u7ZHWeH3pBnjtLWzvRrKViAi7UZqxL\"],\"license\":\"MIT\"},\"node_modules/@openzeppelin/contracts/utils/math/Math.sol\":{\"keccak256\":\"0x005ec64c6313f0555d59e278f9a7a5ab2db5bdc72a027f255a37c327af1ec02d\",\"urls\":[\"bzz-raw://4ece9f0b9c8daca08c76b6b5405a6446b6f73b3a15fab7ff56e296cbd4a2c875\",\"dweb:/ipfs/QmQyRpyPRL5SQuAgj6SHmbir3foX65FJjbVTTQrA2EFg6L\"],\"license\":\"MIT\"},\"node_modules/@openzeppelin/contracts/utils/math/SignedMath.sol\":{\"keccak256\":\"0x5f7e4076e175393767754387c962926577f1660dd9b810187b9002407656be72\",\"urls\":[\"bzz-raw://7d533a1c97cd43a57cd9c465f7ee8dd0e39ae93a8fb8ff8e5303a356b081cdcc\",\"dweb:/ipfs/QmVBEei6aTnvYNZp2CHYVNKyZS4q1KkjANfY39WVXZXVoT\"],\"license\":\"MIT\"},\"node_modules/@prb/math/src/Common.sol\":{\"keccak256\":\"0xaa374e2c26cc93e8c22a6953804ee05f811597ef5fa82f76824378b22944778b\",\"urls\":[\"bzz-raw://279c732e161d623cf4d8a9519ca4c42c0c2db99842d0eb2a20c10fde3fa722c9\",\"dweb:/ipfs/QmVViuUXbinQGqtG5M21SgVzKihiCbFUChd4tDhtvwRmxH\"],\"license\":\"MIT\"},\"src/JB721TiersHook.sol\":{\"keccak256\":\"0x67a1a8abc1f6a05bf0398555acb87e81d5bd1d6db06f2289149b68cdbbbd5da4\",\"urls\":[\"bzz-raw://7222228ca731a0673ddfe2ed946c4c2880975e6ec6f5a022b6e8586d21055acc\",\"dweb:/ipfs/QmeqL2WQegBWPomLjpP5EvhuwRNKqy8C39gaZyvogrY1Jy\"],\"license\":\"MIT\"},\"src/abstract/ERC721.sol\":{\"keccak256\":\"0xc25c7c60c88684adc3f7a49621d27866866a44a3f3796e63c9fcaba75fbb2e84\",\"urls\":[\"bzz-raw://713103b7a05402264493430cfcd7d85f1a241a2eb4756af53a370fa529ea07bf\",\"dweb:/ipfs/QmSXZfxCG1N9XheS1kLCNJZ9k6ZRq4GnAMY7MKFfbKLXmz\"],\"license\":\"MIT\"},\"src/abstract/JB721Hook.sol\":{\"keccak256\":\"0x36d2a9fa61299fda4bee81002ab4751d877765b38801270eb72aed5f47e48591\",\"urls\":[\"bzz-raw://6460d03a6d0103c21f3178883cb14d2b5b48dac8d90b415af4a6b30c192af5ac\",\"dweb:/ipfs/QmNi9akp3SZYZd87Mrvozff4ccN4KSLmWzyhAupJd4chPt\"],\"license\":\"MIT\"},\"src/interfaces/IJB721Hook.sol\":{\"keccak256\":\"0x24935445bc4c5b0fe2a10aabe549122588940842a68e79a8c39b1df9458dd7fd\",\"urls\":[\"bzz-raw://1dee273fa76d9abae116de911fdda5e3113db2a58939e62e24fba98c63fd037a\",\"dweb:/ipfs/QmT6Lih7DeRAfrLc8uC7ecaw2EAKwhaP2BZHeY5DxeeVLM\"],\"license\":\"MIT\"},\"src/interfaces/IJB721TiersHook.sol\":{\"keccak256\":\"0xbd9a8dae00a4b1a02c628bd172fe4ae496e49f7651426cef08774ffdb6125c23\",\"urls\":[\"bzz-raw://9ce4fd77d5af1f570dad6b70758f09f9599768e1ab32f6b473f6181197daa0c8\",\"dweb:/ipfs/QmWj6sCTvZ2CbfSyRuhaXADxYbwwPcR42pZokcgfjpsabg\"],\"license\":\"MIT\"},\"src/interfaces/IJB721TiersHookStore.sol\":{\"keccak256\":\"0x8550e216c12c9cda865c1b1b0eb3f244aeaa8d465b197d4bd0dd8d4df265682e\",\"urls\":[\"bzz-raw://674a312f1eaffd7c6b21f58f8d4a628104e71220daf48a22237fa3bd035ddf21\",\"dweb:/ipfs/QmSRSW6cSwdpoGjVxDqiwJmJyCxfHWhCxZ2iaqeJcN2Ccy\"],\"license\":\"MIT\"},\"src/interfaces/IJB721TokenUriResolver.sol\":{\"keccak256\":\"0xfa599167098f4459320ec4141a98a17b2dfffbce422baa27d8b4e4530f61ece1\",\"urls\":[\"bzz-raw://8b758b161f4c7b520b2c34b4d91e585e961b8f4ca278eebb91d791f7f2f45140\",\"dweb:/ipfs/QmcD9DF7NJ9QykQpT4KPzm4bs3fkjzukdAUWwdU6Atfw85\"],\"license\":\"MIT\"},\"src/libraries/JB721TiersRulesetMetadataResolver.sol\":{\"keccak256\":\"0xe1e224860fce816c0566c4b22044eb2f5a767a09764d00482b954733bf18e51e\",\"urls\":[\"bzz-raw://043663de2a9c7e822e947e0b68833e77985d493bebcb48f86bf1b67f937417fc\",\"dweb:/ipfs/QmXVXPdpLfmT2a97gUQ5d2XSsHXhgpiTfs7w2ZtoD55uAd\"],\"license\":\"MIT\"},\"src/libraries/JBIpfsDecoder.sol\":{\"keccak256\":\"0xb93ba562ac1fc9d3829be00e61f3a90f51df5661cf0f2c819a7f1d8ba19ec171\",\"urls\":[\"bzz-raw://fc9bc948fac8897d9720ef25b13d63c60b40a18aa1897dd1c657fc278c416b4f\",\"dweb:/ipfs/QmNtiJTALZW5zfyKVy7XG5GkqGgMrfkVvU4Auu4bb9cGQc\"],\"license\":\"MIT\"},\"src/structs/JB721InitTiersConfig.sol\":{\"keccak256\":\"0xfb78486cec94189d0ecf2050dc9cfc11245b426c73a0711a85bff1359d774307\",\"urls\":[\"bzz-raw://a8fa01f6e64dd204dbde07a60851e9a5a74e439e1411139ae16b7cf67d2a2692\",\"dweb:/ipfs/QmZAnHyfpKr3xr7NWHj5sGaCEEtG8RtmHhkRUJJvNauym5\"],\"license\":\"MIT\"},\"src/structs/JB721Tier.sol\":{\"keccak256\":\"0x2e267a8af02f125465cdda9308477346ae4a94b024c3b2c2a6af0c00027944dd\",\"urls\":[\"bzz-raw://367ccea2c8fa815d498d771d4367ef1ded718a76e89644102034bfe4a3636b82\",\"dweb:/ipfs/QmYiFFa6ei9wZBSSVUHfY2Cb35zCDVXvbmLcgLj2BTiC1u\"],\"license\":\"MIT\"},\"src/structs/JB721TierConfig.sol\":{\"keccak256\":\"0x2fa9c5c8cec182b854a656d3b284e9d5306be35ad3dc4da79d65dca12b804af0\",\"urls\":[\"bzz-raw://b443a5f70195a66145ea1dade04454ce9a3ff1209e1aaecf53c8a9909b294d79\",\"dweb:/ipfs/QmUDPFZ4L6XpV3zLQUNVchUvecD4XfddKz2S46BKek5XL1\"],\"license\":\"MIT\"},\"src/structs/JB721TiersHookFlags.sol\":{\"keccak256\":\"0x283d8429f31bd58875c056515aa42abd09c95362bd929e85cfc44a0d92585766\",\"urls\":[\"bzz-raw://9a580b89fe99d9f8e930c58a4d0d63a5ff7c01c79d210af01373d066c9e72ed6\",\"dweb:/ipfs/QmdY1eSGSoTjv4KSdsG4Tm5CzJN6iqk3qTRga5ZWNbejRz\"],\"license\":\"MIT\"},\"src/structs/JB721TiersMintReservesConfig.sol\":{\"keccak256\":\"0xab3b319dc4e736586ae595de194d93dcdfeba365bc7a54cf6c37e697f6074ad9\",\"urls\":[\"bzz-raw://a84ae2cf2e8c3e39e831dbb39a67a8eb43c78a6de6bb78b1be2e1f1e80c69efe\",\"dweb:/ipfs/QmboGXEMqsYTxc4a7oft9rggNU7ShWSa9yB4HFMVmzXCHz\"],\"license\":\"MIT\"},\"src/structs/JB721TiersRulesetMetadata.sol\":{\"keccak256\":\"0x6720a6ada2a882f99afa050e40b6c925439da4339240565a0e706521b3aadc6b\",\"urls\":[\"bzz-raw://ede4a3165276d9d89eeea2dfd56f68d77dbfaedb738b30c8a0faa81c3a153b1b\",\"dweb:/ipfs/QmXa4QCb6K9MXxwNKed17VWeX9crKeMjkQnVk2xMARzh76\"],\"license\":\"MIT\"}},\"version\":1}",
			"args": [
				"0x44d360C8c4105f180e07668bd3374c7A6F812FAF",
				"0x711eda44F3D42F3d255846b5EE36Cf70Fd912E50",
				"0xB2b5841DBeF766d4b521221732F9B618fCf34A87"
			],
			"bytecode": "0x6101206040523480156200001257600080fd5b50604051620062873803806200628783398101604081905262000035916200038b565b8281846001600160a01b031663293c49996040518163ffffffff1660e01b8152600401602060405180830381865afa15801562000076573d6000803e3d6000fd5b505050506040513d601f19601f820116820180604052508101906200009c9190620003df565b6001600160a01b03858116608052811660a052843360008383838381620000d65760405163ecb9b1c760e01b815260040160405180910390fd5b620000e282826200010a565b505050506001600160a01b0394851660c052505050501660e052505030610100525062000406565b6001600160581b038116158015906200012b57506001600160a01b03821615155b156200014a5760405163ecb9b1c760e01b815260040160405180910390fd5b60408051606081018252600080546001600160a01b0381168352600160a01b81046001600160581b031660208401819052600160f81b90910460ff1693830193909352909115620002195760a05160208301516040516331a9108f60e11b81526001600160581b0390911660048201526001600160a01b0390911690636352211e90602401602060405180830381865afa158015620001ed573d6000803e3d6000fd5b505050506040513d601f19601f82011682018060405250810190620002139190620003df565b6200021c565b81515b604080516060810182526001600160a01b0387168082526001600160581b0387166020830181905260009290930182905281547fff000000000000000000000000000000000000000000000000000000000000001617600160a01b909202919091176001600160f81b031690559050620002988185856200029e565b50505050565b6001600160581b038116156200032c5760a0516040516331a9108f60e11b81526001600160581b03831660048201526001600160a01b0390911690636352211e90602401602060405180830381865afa15801562000300573d6000803e3d6000fd5b505050506040513d601f19601f82011682018060405250810190620003269190620003df565b6200032e565b815b6001600160a01b0316836001600160a01b03167f8be0079c531659141344cd1fd0a4f28419497f9722a3daafe3b4186f6b6457e060405160405180910390a3505050565b6001600160a01b03811681146200038857600080fd5b50565b600080600060608486031215620003a157600080fd5b8351620003ae8162000372565b6020850151909350620003c18162000372565b6040850151909250620003d48162000372565b809150509250925092565b600060208284031215620003f257600080fd5b8151620003ff8162000372565b9392505050565b60805160a05160c05160e05161010051615de1620004a66000396000818161096e01528181611356015281816119b901526133960152600081816106e00152818161127501526120bb01526000818161055e015281816106aa01526137df01526000818161046d0152818161186c01528181612cae01528181612e000152613b060152600081816109d501528181612566015261260f0152615de16000f3fe6080604052600436106102fd5760003560e01c8063715018a61161018f578063c07f2f9b116100e1578063e985e9c51161008a578063f3c5788111610064578063f3c57881146109b0578063f434c914146109c3578063fef50848146109f757600080fd5b8063e985e9c514610913578063edab09b91461095c578063f2fde38b1461099057600080fd5b8063d4a1b4b1116100bb578063d4a1b4b1146108b1578063d95c9ae2146108d1578063e8a3d485146108fe57600080fd5b8063c07f2f9b14610851578063c0fb5e8514610871578063c87b56dd1461089157600080fd5b8063a220d69611610143578063ade032ff1161011d578063ade032ff1461079c578063b88d4fde146107bc578063ba23c36e146107dc57600080fd5b8063a220d6961461072c578063a22cb4651461074c578063aaf320d71461076c57600080fd5b806388bc2ef31161017457806388bc2ef3146106ce5780638da5cb5b1461070257806395d89b411461071757600080fd5b8063715018a6146106865780637da0a8771461069b57600080fd5b8063507f14651161025357806366ec4cb4116101fc5780636ac6d941116101d65780636ac6d941146106245780636c0360eb1461065157806370a082311461066657600080fd5b806366ec4cb4146105ce578063677ce088146105e157806368f9c6bc1461060457600080fd5b8063572b6c051161022d578063572b6c0514610541578063613b856d1461058e5780636352211e146105ae57600080fd5b8063507f1465146104dd57806354c6d1f5146104fd57806356539f391461051d57600080fd5b80631435aad5116102b5578063293c49991161028f578063293c49991461045b57806342842e0e1461048f5780634c4ffc71146104af57600080fd5b80631435aad5146103fb5780631c52730b1461041b57806323b872dd1461043b57600080fd5b8063081812fc116102e6578063081812fc1461035957806308786b1a14610391578063095ea7b3146103d957600080fd5b806301ffc9a71461030257806306fdde0314610337575b600080fd5b34801561030e57600080fd5b5061032261031d3660046142de565b610a17565b60405190151581526020015b60405180910390f35b34801561034357600080fd5b5061034c610a5b565b60405161032e919061434b565b34801561036557600080fd5b5061037961037436600461435e565b610aed565b6040516001600160a01b03909116815260200161032e565b34801561039d57600080fd5b5060095463ffffffff811690602081901c60ff169060281c6040805193845260208401929092526001600160a01b03169082015260600161032e565b3480156103e557600080fd5b506103f96103f436600461439c565b610b16565b005b34801561040757600080fd5b506103f961041636600461440a565b610b2c565b34801561042757600080fd5b506103f96104363660046144a0565b610dc7565b34801561044757600080fd5b506103f9610456366004614515565b610e20565b34801561046757600080fd5b506103797f000000000000000000000000000000000000000000000000000000000000000081565b34801561049b57600080fd5b506103f96104aa366004614515565b610eca565b3480156104bb57600080fd5b506104cf6104ca366004614556565b610eea565b60405161032e929190614592565b3480156104e957600080fd5b50600a54610379906001600160a01b031681565b34801561050957600080fd5b5061037961051836600461435e565b610f91565b34801561052957600080fd5b5061053360075481565b60405190815260200161032e565b34801561054d57600080fd5b5061032261055c366004614623565b7f00000000000000000000000000000000000000000000000000000000000000006001600160a01b0390811691161490565b34801561059a57600080fd5b506103f96105a9366004614640565b610fd5565b3480156105ba57600080fd5b506103796105c936600461435e565b611242565b6103f96105dc36600461467b565b61124d565b3480156105ed57600080fd5b506103226105fc3660046146b0565b600092915050565b34801561061057600080fd5b5061053361061f3660046147f3565b6114d1565b34801561063057600080fd5b5061064461063f3660046148f6565b61155e565b60405161032e9190614989565b34801561065d57600080fd5b5061034c6116be565b34801561067257600080fd5b50610533610681366004614623565b61174c565b34801561069257600080fd5b506103f96117db565b3480156106a757600080fd5b507f0000000000000000000000000000000000000000000000000000000000000000610379565b3480156106da57600080fd5b506103797f000000000000000000000000000000000000000000000000000000000000000081565b34801561070e57600080fd5b506103796117f0565b34801561072357600080fd5b5061034c6118e5565b34801561073857600080fd5b506103f961074736600461435e565b6118f4565b34801561075857600080fd5b506103f96107673660046149b5565b61193f565b34801561077857600080fd5b5061078c6107873660046149e3565b611951565b60405161032e9493929190614a18565b3480156107a857600080fd5b506105336107b73660046149e3565b611af0565b3480156107c857600080fd5b506103f96107d7366004614b19565b611b3a565b3480156107e857600080fd5b5060005461081d906001600160a01b03811690600160a01b81046affffffffffffffffffffff1690600160f81b900460ff1683565b604080516001600160a01b0390941684526affffffffffffffffffffff909216602084015260ff169082015260600161032e565b34801561085d57600080fd5b506103f961086c366004614e2d565b611b51565b34801561087d57600080fd5b506103f961088c366004614f4e565b611def565b34801561089d57600080fd5b5061034c6108ac36600461435e565b611e00565b3480156108bd57600080fd5b50600b54610379906001600160a01b031681565b3480156108dd57600080fd5b506105336108ec366004614623565b600c6020526000908152604090205481565b34801561090a57600080fd5b5061034c61204c565b34801561091f57600080fd5b5061032261092e366004614f69565b6001600160a01b03918216600090815260066020908152604080832093909416825291909152205460ff1690565b34801561096857600080fd5b506103797f000000000000000000000000000000000000000000000000000000000000000081565b34801561099c57600080fd5b506103f96109ab366004614623565b612059565b6103f96109be36600461467b565b612093565b3480156109cf57600080fd5b506103797f000000000000000000000000000000000000000000000000000000000000000081565b348015610a0357600080fd5b506103f9610a12366004614f97565b61217f565b60006001600160e01b031982167fb88c9696000000000000000000000000000000000000000000000000000000001480610a555750610a55826123a5565b92915050565b606060018054610a6a90615032565b80601f0160208091040260200160405190810160405280929190818152602001828054610a9690615032565b8015610ae35780601f10610ab857610100808354040283529160200191610ae3565b820191906000526020600020905b815481529060010190602001808311610ac657829003601f168201915b5050505050905090565b6000610af8826124b3565b506000828152600560205260409020546001600160a01b0316610a55565b610b288282610b236124ec565b6124fb565b5050565b610b41610b376117f0565b6007546016612508565b8515610bb257600d610b548789836150b6565b508686604051610b65929190615176565b60405180910390207f7bc9110d5de090dd59e07912d2b93a5a27ac70a60c8d8e324db4f9ee8b8b5c13610b966124ec565b6040516001600160a01b03909116815260200160405180910390a25b8315610c2357600e610bc58587836150b6565b508484604051610bd6929190615176565b60405180910390207fd36dc0c1a06103fdcaf15f3f6fb797d1a97997514c78de073640c8b5005454b8610c076124ec565b6040516001600160a01b03909116815260200160405180910390a25b600a546001600160a01b039081169084163014610ce45760405163036129cb60e61b81526001600160a01b03858116600483015282169063d84a72c090602401600060405180830381600087803b158015610c7d57600080fd5b505af1158015610c91573d6000803e3d6000fd5b50505050836001600160a01b03167fe7784d93cfbfa4408e19577e6cc0436f4dbb51214b70e100905dfce9def88c16610cc86124ec565b6040516001600160a01b03909116815260200160405180910390a25b8215801590610cf257508115155b15610dbd576040517f49bd1ac600000000000000000000000000000000000000000000000000000000815260048101849052602481018390526001600160a01b038216906349bd1ac690604401600060405180830381600087803b158015610d5957600080fd5b505af1158015610d6d573d6000803e3d6000fd5b50505050827f677da4fed654db8e604791fa2582f342e2001aa217e27f6985eb3e0f67e5a7fc83610d9c6124ec565b604080519283526001600160a01b0390911660208301520160405180910390a25b5050505050505050565b8060005b81811015610e1a576000848483818110610de757610de7615186565b905060400201803603810190610dfd919061519c565b9050610e1181600001518260200151610fd5565b50600101610dcb565b50505050565b6001600160a01b038216610e4f57604051633250574960e11b8152600060048201526024015b60405180910390fd5b6000610e638383610e5e6124ec565b6126b3565b9050836001600160a01b0316816001600160a01b031614610e1a576040517f64283d7b0000000000000000000000000000000000000000000000000000000081526001600160a01b0380861660048301526024820184905282166044820152606401610e46565b610ee583838360405180602001604052806000815250611b3a565b505050565b6040805160018082528183019092526101208301359160609190816020015b60408051606080820183526000808352602083015291810191909152815260200190600190039081610f095790505090506040518060600160405280306001600160a01b03168152602001600081526020016040518060200160405280600081525081525081600081518110610f8157610f81615186565b6020026020010181905250915091565b6000818152600860205260408120546001600160a01b03168015610fb55792915050565b6000838152600360205260409020546001600160a01b03165b9392505050565b600b546007546040516321d1336160e11b815260048101919091526000916001600160a01b0316906343a266c29060240161012060405180830381865afa158015611024573d6000803e3d6000fd5b505050506040513d601f19601f8201168201806040525081019061104891906151f6565b61010081015190915060f01c600190811603611090576040517f63a0ba3900000000000000000000000000000000000000000000000000000000815260040160405180910390fd5b600a546040517fbaa7e80e00000000000000000000000000000000000000000000000000000000815260048101859052602481018490526001600160a01b0390911690600090829063baa7e80e906044016000604051808303816000875af1158015611100573d6000803e3d6000fd5b505050506040513d6000823e601f3d908101601f1916820160405261112891908101906152e0565b6040517f03573004000000000000000000000000000000000000000000000000000000008152306004820152602481018790529091506000906001600160a01b03841690630357300490604401602060405180830381865afa158015611192573d6000803e3d6000fd5b505050506040513d601f19601f820116820180604052508101906111b69190615315565b90506000805b86811015610dbd578381815181106111d6576111d6615186565b602002602001015191506111ea8383612929565b826001600160a01b031688837f80dd2efbbc431cde0164d84d638e44ba6e7a3ca5d532ceef1bb4efcc0948325d61121f6124ec565b6040516001600160a01b03909116815260200160405180910390a46001016111bc565b6000610a55826124b3565b600754341515806112ea5750604051636e49181f60e01b8152600481018290523360248201527f00000000000000000000000000000000000000000000000000000000000000006001600160a01b031690636e49181f90604401602060405180830381865afa1580156112c4573d6000803e3d6000fd5b505050506040513d601f19601f820116820180604052508101906112e8919061533d565b155b806112f9575080826020013514155b15611330576040517f835e522b00000000000000000000000000000000000000000000000000000000815260040160405180910390fd5b60408051808201909152600681526572656465656d60d01b6020909101526000806113e27f000000000000000000000000000000000000000000000000000000000000000060601b7f26ef0a97332ad048ac544d8dfacdd43e128b9816d599fdd0310960904fa18609186113a86101e087018761535a565b8080601f0160208091040260200160405190810160405280939291908181526020018383808284376000920191909152506129a792505050565b9150915060608215611405578180602001905181019061140291906152e0565b90505b80516000805b828110156114be5783818151811061142557611425615186565b602002602001015191508760000160208101906114429190614623565b6001600160a01b031661146a836000908152600360205260409020546001600160a01b031690565b6001600160a01b0316146114ad576040517f5caf197500000000000000000000000000000000000000000000000000000000815260048101839052602401610e46565b6114b682612b7d565b60010161140b565b506114c883612bb8565b50505050505050565b600a546040517f144cc2d40000000000000000000000000000000000000000000000000000000081526000916001600160a01b03169063144cc2d49061151d90309087906004016153a1565b602060405180830381865afa15801561153a573d6000803e3d6000fd5b505050506040513d601f19601f82011682018060405250810190610fce91906153c3565b606061157561156b6117f0565b6007546017612508565b600a5460405163eaa19ab360e01b81526001600160a01b039091169063eaa19ab3906115ae9060001990889088906001906004016153dc565b6000604051808303816000875af11580156115cd573d6000803e3d6000fd5b505050506040513d6000823e601f3d908101601f191682016040526115f5919081019061543b565b509050826000805b828110156116b45783818151811061161757611617615186565b6020026020010151915061162b8583612929565b846001600160a01b031687878381811061164757611647615186565b905060200201602081019061165c9190615482565b61ffff16837f598baf7bf150ca2f42be9e9f8f55e81d45f5715c3ff22bf46d697fabec7f31d6600061168c6124ec565b604080519283526001600160a01b0390911660208301520160405180910390a46001016115fd565b5050509392505050565b600d80546116cb90615032565b80601f01602080910402602001604051908101604052809291908181526020018280546116f790615032565b80156117445780601f1061171957610100808354040283529160200191611744565b820191906000526020600020905b81548152906001019060200180831161172757829003601f168201915b505050505081565b600a546040517ff7888aec0000000000000000000000000000000000000000000000000000000081523060048201526001600160a01b038381166024830152600092169063f7888aec906044015b602060405180830381865afa1580156117b7573d6000803e3d6000fd5b505050506040513d601f19601f82011682018060405250810190610a5591906153c3565b6117e3612c36565b6117ee600080612d48565b565b60408051606081018252600080546001600160a01b0381168352600160a01b81046affffffffffffffffffffff1660208401819052600160f81b90910460ff16938301939093529182036118445751919050565b60208101516040516331a9108f60e11b81526affffffffffffffffffffff90911660048201527f00000000000000000000000000000000000000000000000000000000000000006001600160a01b031690636352211e90602401602060405180830381865afa1580156118bb573d6000803e3d6000fd5b505050506040513d601f19601f820116820180604052508101906118df9190615315565b91505090565b606060028054610a6a90615032565b6118fc612c36565b80158061191357506affffffffffffffffffffff81115b156119315760405163ecb9b1c760e01b815260040160405180910390fd5b61193c600082612d48565b50565b610b2861194a6124ec565b8383612ef9565b600080806060608085013515611993576040517f4fc178d800000000000000000000000000000000000000000000000000000000815260040160405180910390fd5b60408051808201909152600681526572656465656d60d01b602090910152600080611a0b7f000000000000000000000000000000000000000000000000000000000000000060601b7f26ef0a97332ad048ac544d8dfacdd43e128b9816d599fdd0310960904fa18609186113a86101808a018a61535a565b604080516001808252818301909252929450909250816020015b60408051606080820183526000808352602083015291810191909152815260200190600190039081611a255790505092506040518060600160405280306001600160a01b03168152602001600081526020016040518060200160405280600081525081525083600081518110611a9d57611a9d615186565b602002602001018190525060608215611ac75781806020019051810190611ac491906152e0565b90505b611ad181896114d1565b9550611adc88611af0565b945087610160013596505050509193509193565b600a546040517f2ae5e4920000000000000000000000000000000000000000000000000000000081523060048201526000916001600160a01b031690632ae5e4929060240161179a565b611b45848484610e20565b610e1a84848484612fb1565b600a546001600160a01b031615611b6757600080fd5b611b728a8a8a6130f3565b600b80546001600160a01b03808a1673ffffffffffffffffffffffffffffffffffffffff1992831617909255600a8054928516929091169190911790556020808401516040850151606086015178ffffffffffffffffffffffffffffffffffffffff000000000060289190911b1664ff000000009190931b1663ffffffff90911617176009819055865115611c0f57600d611c0d888261549f565b505b845115611c2457600e611c22868261549f565b505b6001600160a01b03861615611c8f5760405163036129cb60e61b81526001600160a01b03878116600483015284169063d84a72c090602401600060405180830381600087803b158015611c7657600080fd5b505af1158015611c8a573d6000803e3d6000fd5b505050505b83515115611d0d5783516040516349249dc160e01b81526001600160a01b038516916349249dc191611cc4919060040161555f565b6000604051808303816000875af1158015611ce3573d6000803e3d6000fd5b505050506040513d6000823e601f3d908101601f19168201604052611d0b91908101906152e0565b505b815180611d1b575081602001515b80611d27575081604001515b80611d33575081606001515b15611dd257604080517fcb827e3200000000000000000000000000000000000000000000000000000000815283511515600482015260208401511515602482015290830151151560448201526060830151151560648201526001600160a01b0384169063cb827e3290608401600060405180830381600087803b158015611db957600080fd5b505af1158015611dcd573d6000803e3d6000fd5b505050505b611de2611ddd6124ec565b612088565b5050505050505050505050565b611df7612c36565b61193c81613104565b600a546040517f0fab09470000000000000000000000000000000000000000000000000000000081523060048201526060916001600160a01b0316906000908290630fab094790602401602060405180830381865afa158015611e67573d6000803e3d6000fd5b505050506040513d601f19601f82011682018060405250810190611e8b9190615315565b90506001600160a01b03811615611f30576040517f5e703e71000000000000000000000000000000000000000000000000000000008152306004820152602481018590526001600160a01b03821690635e703e7190604401600060405180830381865afa158015611f00573d6000803e3d6000fd5b505050506040513d6000823e601f3d908101601f19168201604052611f289190810190615691565b949350505050565b611f28600d8054611f4090615032565b80601f0160208091040260200160405190810160405280929190818152602001828054611f6c90615032565b8015611fb95780601f10611f8e57610100808354040283529160200191611fb9565b820191906000526020600020905b815481529060010190602001808311611f9c57829003601f168201915b50506040517fc8df1710000000000000000000000000000000000000000000000000000000008152306004820152602481018a90526001600160a01b038816935063c8df171092506044019050602060405180830381865afa158015612023573d6000803e3d6000fd5b505050506040513d601f19601f8201168201806040525081019061204791906153c3565b61315a565b600e80546116cb90615032565b612061612c36565b6001600160a01b0381166120885760405163ecb9b1c760e01b815260040160405180910390fd5b61193c816000612d48565b600754341515806121305750604051636e49181f60e01b8152600481018290523360248201527f00000000000000000000000000000000000000000000000000000000000000006001600160a01b031690636e49181f90604401602060405180830381865afa15801561210a573d6000803e3d6000fd5b505050506040513d601f19601f8201168201806040525081019061212e919061533d565b155b8061213f575080826020013514155b15612176576040517f8a3ea1c800000000000000000000000000000000000000000000000000000000815260040160405180910390fd5b610b28826131dd565b61219461218a6117f0565b6007546015612508565b600a54839082906001600160a01b03168115612295576040517f20512ba10000000000000000000000000000000000000000000000000000000081526001600160a01b038216906320512ba1906121f190889088906004016156c6565b600060405180830381600087803b15801561220b57600080fd5b505af115801561221f573d6000803e3d6000fd5b5050505060005b828110156122935785858281811061224057612240615186565b905060200201357f832d89d991be5351d793c20faf4b7dd44f8aa9ce39e3cb160c6317de6fbba7296122706124ec565b6040516001600160a01b03909116815260200160405180910390a2600101612226565b505b82156114c8576040516349249dc160e01b81526000906001600160a01b038316906349249dc1906122cc908b908b9060040161581e565b6000604051808303816000875af11580156122eb573d6000803e3d6000fd5b505050506040513d6000823e601f3d908101601f1916820160405261231391908101906152e0565b905060005b8481101561239a5781818151811061233257612332615186565b60200260200101517f6c05e4bd067859371de8c0a303cf84af0ba782c3809f8fba14e6af4388894cf08a8a8481811061236d5761236d615186565b9050610180020161237c6124ec565b60405161238a929190615861565b60405180910390a2600101612318565b505050505050505050565b60006001600160e01b031982167f3344b87300000000000000000000000000000000000000000000000000000000148061240857506001600160e01b031982167f81c03c2e00000000000000000000000000000000000000000000000000000000145b8061243c57506001600160e01b031982167ff3c5788100000000000000000000000000000000000000000000000000000000145b8061247057506001600160e01b031982167f66ec4cb400000000000000000000000000000000000000000000000000000000145b806124a457506001600160e01b031982167f2a55205a00000000000000000000000000000000000000000000000000000000145b80610a555750610a5582613734565b6000818152600360205260408120546001600160a01b031680610a5557604051637e27328960e01b815260048101849052602401610e46565b60006124f66137cf565b905090565b610ee58383836001613844565b60006125126124ec565b9050836001600160a01b0316816001600160a01b0316141580156125d3575060405163c161c93f60e01b81526001600160a01b038281166004830152858116602483015260448201859052606482018490527f0000000000000000000000000000000000000000000000000000000000000000169063c161c93f90608401602060405180830381865afa1580156125ad573d6000803e3d6000fd5b505050506040513d601f19601f820116820180604052508101906125d1919061533d565b155b801561267c575060405163c161c93f60e01b81526001600160a01b038281166004830152858116602483015260006044830152606482018490527f0000000000000000000000000000000000000000000000000000000000000000169063c161c93f90608401602060405180830381865afa158015612656573d6000803e3d6000fd5b505050506040513d601f19601f8201168201806040525081019061267a919061533d565b155b15610e1a576040517f075fd2b100000000000000000000000000000000000000000000000000000000815260040160405180910390fd5b600a546040517fc44a8e6d00000000000000000000000000000000000000000000000000000000815230600482015260248101849052600060448201819052916001600160a01b0316908290829063c44a8e6d90606401600060405180830381865afa158015612727573d6000803e3d6000fd5b505050506040513d6000823e601f3d908101601f1916820160405261274f9190810190615887565b905061275c86868661398f565b92506001600160a01b0383161561289a578061014001511561284957600b546007546040516321d1336160e11b815260048101919091526000916001600160a01b0316906343a266c29060240161012060405180830381865afa1580156127c7573d6000803e3d6000fd5b505050506040513d601f19601f820116820180604052508101906127eb91906151f6565b90506001600160a01b03871615801590612810575061010081015160ef1c6001908116145b15612847576040517ffa45ac2900000000000000000000000000000000000000000000000000000000815260040160405180910390fd5b505b6000858152600860205260409020546001600160a01b031661289a576000858152600860205260409020805473ffffffffffffffffffffffffffffffffffffffff19166001600160a01b0385161790555b80516040517fc2c55f9400000000000000000000000000000000000000000000000000000000815260048101919091526001600160a01b038481166024830152878116604483015283169063c2c55f9490606401600060405180830381600087803b15801561290857600080fd5b505af115801561291c573d6000803e3d6000fd5b5050505050509392505050565b6001600160a01b03821661295357604051633250574960e11b815260006004820152602401610e46565b6000612961838360006126b3565b90506001600160a01b03811615610ee5576040517f73c6ac6e00000000000000000000000000000000000000000000000000000000815260006004820152602401610e46565b6000606060258351116129cc5750506040805160208101909152600080825290612b76565b6000836129db600460206159a8565b815181106129eb576129eb615186565b0160209081015160f81c91505b600085612a066004846159a8565b81518110612a1657612a16615186565b01602001517fff000000000000000000000000000000000000000000000000000000000000001614801590612a545750612a516020836159bb565b81105b15612b7357600085612a676004846159a8565b81518110612a7757612a77615186565b016020908101518784019091015160f89190911c91506001600160e01b031980891690821603612b69576000612aae6020866159bb565b612ab96009866159a8565b101580612b06575087612acd6009866159a8565b81518110612add57612add615186565b01602001517fff0000000000000000000000000000000000000000000000000000000000000016155b612b3f57602088612b186009876159a8565b81518110612b2857612b28615186565b0160200151612b3a919060f81c6159bb565b612b42565b87515b90506001612b5b89612b556020876159bb565b84613a95565b965096505050505050612b76565b50506005016129f8565b50505b9250929050565b6000612b8c60008360006126b3565b90506001600160a01b038116610b2857604051637e27328960e01b815260048101839052602401610e46565b600a546040517f86bc2be30000000000000000000000000000000000000000000000000000000081526001600160a01b03909116906386bc2be390612c01908490600401614989565b600060405180830381600087803b158015612c1b57600080fd5b505af1158015612c2f573d6000803e3d6000fd5b5050505050565b604080516060810182526000546001600160a01b0381168252600160a01b81046affffffffffffffffffffff1660208301819052600160f81b90910460ff16928201929092529061193c9015612d265760208201516040516331a9108f60e11b81526affffffffffffffffffffff90911660048201527f00000000000000000000000000000000000000000000000000000000000000006001600160a01b031690636352211e90602401602060405180830381865afa158015612cfd573d6000803e3d6000fd5b505050506040513d601f19601f82011682018060405250810190612d219190615315565b612d29565b81515b82602001516affffffffffffffffffffff16836040015160ff16612508565b6affffffffffffffffffffff811615801590612d6c57506001600160a01b03821615155b15612d8a5760405163ecb9b1c760e01b815260040160405180910390fd5b60408051606081018252600080546001600160a01b0381168352600160a01b81046affffffffffffffffffffff1660208401819052600160f81b90910460ff1693830193909352909115612e785760208201516040516331a9108f60e11b81526affffffffffffffffffffff90911660048201527f00000000000000000000000000000000000000000000000000000000000000006001600160a01b031690636352211e90602401602060405180830381865afa158015612e4f573d6000803e3d6000fd5b505050506040513d601f19601f82011682018060405250810190612e739190615315565b612e7b565b81515b604080516060810182526001600160a01b0387168082526affffffffffffffffffffff87166020830181905260009290930182905281547fff000000000000000000000000000000000000000000000000000000000000001617600160a01b909202919091176001600160f81b031690559050610e1a818585613ad1565b6001600160a01b038216612f44576040517f5b08ba180000000000000000000000000000000000000000000000000000000081526001600160a01b0383166004820152602401610e46565b6001600160a01b03838116600081815260066020908152604080832094871680845294825291829020805460ff191686151590811790915591519182527f17307eab39ab6107e8899845ad3d59bd9653f200f220920489ca2b5937696c31910160405180910390a3505050565b6001600160a01b0383163b15610e1a57826001600160a01b031663150b7a02612fd86124ec565b8685856040518563ffffffff1660e01b8152600401612ffa94939291906159d2565b6020604051808303816000875af1925050508015613035575060408051601f3d908101601f1916820190925261303291810190615a0e565b60015b61309e573d808015613063576040519150601f19603f3d011682016040523d82523d6000602084013e613068565b606091505b50805160000361309657604051633250574960e11b81526001600160a01b0385166004820152602401610e46565b805181602001fd5b6001600160e01b031981167f150b7a020000000000000000000000000000000000000000000000000000000014612c2f57604051633250574960e11b81526001600160a01b0385166004820152602401610e46565b6130fd8282613bc4565b5050600755565b600080546001600160f81b0316600160f81b60ff8416908102919091179091556040519081527f6f4725627084d54c46c628b050805457a1cd38c5cd20c1f00132960f8b546fed9060200160405180910390a150565b6040517f1220000000000000000000000000000000000000000000000000000000000000602082015260228101829052606090600090604201604051602081830303815290604052905060006131af82613bdd565b905084816040516020016131c4929190615a2b565b6040516020818303038152906040529250505092915050565b60095460009063ffffffff811660c084013581900361320257608084013592506132dc565b602882901c6001600160a01b03811615612c2f5760ff602084901c166132d7608087013561323183600a615b3e565b6007546040517f3be273fa000000000000000000000000000000000000000000000000000000008152600481019190915260c08a013560248201526044810187905260a08a013560648201526001600160a01b03861690633be273fa90608401602060405180830381865afa1580156132ae573d6000803e3d6000fd5b505050506040513d601f19601f820116820180604052508101906132d291906153c3565b613d75565b945050505b5060009050600c816132f66101c086016101a08701614623565b6001600160a01b031681526020810191909152604001600090812054915082906133286101c086016101a08701614623565b6001600160a01b031661333e6020870187614623565b6001600160a01b0316036133555790820190613358565b50815b60408051808201909152600381527f7061790000000000000000000000000000000000000000000000000000000000602090910152600080806133e87f000000000000000000000000000000000000000000000000000000000000000060601b7fadc756803e4eb4ccfb136b73d5f72e3dc0d452d30ae1f4bc82af394c73ce7115186113a86101e08b018b61535a565b9150915081156134bc576060818060200190518101906134089190615b4a565b90945090508380156134865750600a54604051634228826f60e11b81523060048201526001600160a01b039091169063845104de90602401608060405180830381865afa15801561345d573d6000803e3d6000fd5b505050506040513d601f19601f820116820180604052508101906134819190615bfb565b606001515b1561349057600093505b8051156134b6576134b386826134ae6101c08d016101a08e01614623565b613e62565b95505b50613535565b600a54604051634228826f60e11b81523060048201526001600160a01b039091169063845104de90602401608060405180830381865afa158015613504573d6000803e3d6000fd5b505050506040513d601f19601f820116820180604052508101906135289190615bfb565b6060015161353557600192505b84156136885782613572576040517f6d5e09a400000000000000000000000000000000000000000000000000000000815260040160405180910390fd5b848401868111156135e55761358f6101c08a016101a08b01614623565b6001600160a01b0316818883037f7e71a5f6c04b0eb16949316623b9dda7bd103692f7d89678e2260afa1378a2d56135c56124ec565b6040516001600160a01b03909116815260200160405180910390a4613651565b80871115613651576135ff6101c08a016101a08b01614623565b6001600160a01b0316818289037f6276f0169fb8de712b2a6c02789f6115136c589ed491ac06f9e20f41877e41fe6136356124ec565b6040516001600160a01b03909116815260200160405180910390a45b80600c60006136686101c08d016101a08e01614623565b6001600160a01b0316815260208101919091526040016000205550610dbd565b838614610dbd576136a16101c089016101a08a01614623565b6001600160a01b0316846136b58189615c62565b7f6276f0169fb8de712b2a6c02789f6115136c589ed491ac06f9e20f41877e41fe6136de6124ec565b6040516001600160a01b03909116815260200160405180910390a483600c60006137106101c08c016101a08d01614623565b6001600160a01b031681526020810191909152604001600020555050505050505050565b60006001600160e01b031982167f80ac58cd00000000000000000000000000000000000000000000000000000000148061379757506001600160e01b031982167f5b5e139f00000000000000000000000000000000000000000000000000000000145b80610a5557507f01ffc9a7000000000000000000000000000000000000000000000000000000006001600160e01b0319831614610a55565b6000366014336001600160a01b037f00000000000000000000000000000000000000000000000000000000000000001614801561380c5750808210155b1561383c5760003661381e8385615c62565b613829928290615c75565b61383291615c9f565b60601c9250505090565b339250505090565b808061385857506001600160a01b03821615155b15613952576000613868846124b3565b90506001600160a01b038316158015906138945750826001600160a01b0316816001600160a01b031614155b80156138c657506001600160a01b0380821660009081526006602090815260408083209387168352929052205460ff16155b15613908576040517fa9fbf51f0000000000000000000000000000000000000000000000000000000081526001600160a01b0384166004820152602401610e46565b81156139505783856001600160a01b0316826001600160a01b03167f8c5be1e5ebec7d5bd14f71427d1e84f3dd0314c0f7b2291e5b200ac8c7c3b92560405160405180910390a45b505b50506000908152600560205260409020805473ffffffffffffffffffffffffffffffffffffffff19166001600160a01b0392909216919091179055565b6000828152600360205260408120546001600160a01b03908116908316156139bc576139bc818486613fa3565b6001600160a01b038116156139fa576139d9600085600080613844565b6001600160a01b038116600090815260046020526040902080546000190190555b6001600160a01b03851615613a29576001600160a01b0385166000908152600460205260409020805460010190555b600084815260036020526040808220805473ffffffffffffffffffffffffffffffffffffffff19166001600160a01b0389811691821790925591518793918516917fddf252ad1be2c89b69c2b068fc378daa952ba7f163c4a11628f55a4df523b3ef91a4949350505050565b60608282036040519150602081830101604052808252508260208501016020820160005b848110156116b4578281015182820152602001613ab9565b6affffffffffffffffffffff811615613b7e576040516331a9108f60e11b81526affffffffffffffffffffff821660048201527f00000000000000000000000000000000000000000000000000000000000000006001600160a01b031690636352211e90602401602060405180830381865afa158015613b55573d6000803e3d6000fd5b505050506040513d601f19601f82011682018060405250810190613b799190615315565b613b80565b815b6001600160a01b0316836001600160a01b03167f8be0079c531659141344cd1fd0a4f28419497f9722a3daafe3b4186f6b6457e060405160405180910390a3505050565b6001613bd0838261549f565b506002610ee5828261549f565b60608151600003613bfc57505060408051600081526020810190915290565b60408051602e8082526105e08201909252600091602082016105c080368337019050509050600081600081518110613c3657613c36615186565b60ff90921660209283029190910190910152825160019060005b81811015613d51576000868281518110613c6c57613c6c615186565b016020015160f81c905060005b8460ff16811015613cf6576008868281518110613c9857613c98615186565b602002602001015160ff16901b82613cb091906159a8565b9150613cbd603a83615cea565b868281518110613ccf57613ccf615186565b60ff90921660209283029190910190910152613cec603a83615cfe565b9150600101613c79565b505b8015613d4857613d09603a82615cea565b858560ff1681518110613d1e57613d1e615186565b60ff90921660209283029190910190910152600190930192613d41603a82615cfe565b9050613cf8565b50600101613c50565b50613d6c613d67613d628585614020565b6140c8565b61416b565b95945050505050565b6000808060001985870985870292508281108382030391505080600003613daf57838281613da557613da5615cd4565b0492505050610fce565b838110613df9576040517f63a05778000000000000000000000000000000000000000000000000000000008152600481018790526024810186905260448101859052606401610e46565b60008486880960026001871981018816978890046003810283188082028403028082028403028082028403028082028403028082028403029081029092039091026000889003889004909101858311909403939093029303949094049190911702949350505050565b600a5460405163eaa19ab360e01b81526000916060916001600160a01b039091169063eaa19ab390613e9c90889088908790600401615d12565b6000604051808303816000875af1158015613ebb573d6000803e3d6000fd5b505050506040513d6000823e601f3d908101601f19168201604052613ee3919081019061543b565b81519093509091506000805b82811015613f9857838181518110613f0957613f09615186565b60200260200101519150613f1d8683612929565b856001600160a01b0316878281518110613f3957613f39615186565b602002602001015161ffff16837f598baf7bf150ca2f42be9e9f8f55e81d45f5715c3ff22bf46d697fabec7f31d68b613f706124ec565b604080519283526001600160a01b0390911660208301520160405180910390a4600101613eef565b505050509392505050565b613fae838383614245565b610ee5576001600160a01b038316613fdc57604051637e27328960e01b815260048101829052602401610e46565b6040517f177e802f0000000000000000000000000000000000000000000000000000000081526001600160a01b038316600482015260248101829052604401610e46565b606060008260ff1667ffffffffffffffff811115614040576140406146e0565b604051908082528060200260200182016040528015614069578160200160208202803683370190505b50905060005b8360ff168110156140c05784818151811061408c5761408c615186565b60200260200101518282815181106140a6576140a6615186565b60ff9092166020928302919091019091015260010161406f565b509392505050565b805160609060008167ffffffffffffffff8111156140e8576140e86146e0565b604051908082528060200260200182016040528015614111578160200160208202803683370190505b50905060005b828110156140c05784816001875103038151811061413757614137615186565b602002602001015182828151811061415157614151615186565b60ff90921660209283029190910190910152600101614117565b805160609060008167ffffffffffffffff81111561418b5761418b6146e0565b6040519080825280601f01601f1916602001820160405280156141b5576020820181803683370190505b50905060005b828110156140c0576040518060600160405280603a8152602001615d72603a91398582815181106141ee576141ee615186565b602002602001015160ff168151811061420957614209615186565b602001015160f81c60f81b82828151811061422657614226615186565b60200101906001600160f81b031916908160001a9053506001016141bb565b60006001600160a01b03831615801590611f285750826001600160a01b0316846001600160a01b0316148061429f57506001600160a01b0380851660009081526006602090815260408083209387168352929052205460ff165b80611f285750506000908152600560205260409020546001600160a01b03908116911614919050565b6001600160e01b03198116811461193c57600080fd5b6000602082840312156142f057600080fd5b8135610fce816142c8565b60005b838110156143165781810151838201526020016142fe565b50506000910152565b600081518084526143378160208601602086016142fb565b601f01601f19169290920160200192915050565b602081526000610fce602083018461431f565b60006020828403121561437057600080fd5b5035919050565b6001600160a01b038116811461193c57600080fd5b803561439781614377565b919050565b600080604083850312156143af57600080fd5b82356143ba81614377565b946020939093013593505050565b60008083601f8401126143da57600080fd5b50813567ffffffffffffffff8111156143f257600080fd5b602083019150836020828501011115612b7657600080fd5b600080600080600080600060a0888a03121561442557600080fd5b873567ffffffffffffffff8082111561443d57600080fd5b6144498b838c016143c8565b909950975060208a013591508082111561446257600080fd5b5061446f8a828b016143c8565b909650945050604088013561448381614377565b969995985093969295946060840135945060809093013592915050565b600080602083850312156144b357600080fd5b823567ffffffffffffffff808211156144cb57600080fd5b818501915085601f8301126144df57600080fd5b8135818111156144ee57600080fd5b8660208260061b850101111561450357600080fd5b60209290920196919550909350505050565b60008060006060848603121561452a57600080fd5b833561453581614377565b9250602084013561454581614377565b929592945050506040919091013590565b60006020828403121561456857600080fd5b813567ffffffffffffffff81111561457f57600080fd5b82016101808185031215610fce57600080fd5b6000604080830185845260206040818601528186518084526060935060608701915060608160051b88010183890160005b8381101561461357898303605f19018552815180516001600160a01b0316845286810151878501528801518884018890526146008885018261431f565b95870195935050908501906001016145c3565b50909a9950505050505050505050565b60006020828403121561463557600080fd5b8135610fce81614377565b6000806040838503121561465357600080fd5b50508035926020909101359150565b6000610200828403121561467557600080fd5b50919050565b60006020828403121561468d57600080fd5b813567ffffffffffffffff8111156146a457600080fd5b611f2884828501614662565b600080604083850312156146c357600080fd5b8235915060208301356146d581614377565b809150509250929050565b634e487b7160e01b600052604160045260246000fd5b6040516080810167ffffffffffffffff81118282101715614719576147196146e0565b60405290565b604051610180810167ffffffffffffffff81118282101715614719576147196146e0565b604051610120810167ffffffffffffffff81118282101715614719576147196146e0565b6040516101a0810167ffffffffffffffff81118282101715614719576147196146e0565b604051601f8201601f1916810167ffffffffffffffff811182821017156147b4576147b46146e0565b604052919050565b600067ffffffffffffffff8211156147d6576147d66146e0565b5060051b60200190565b60006101a0828403121561467557600080fd5b6000806040838503121561480657600080fd5b823567ffffffffffffffff8082111561481e57600080fd5b818501915085601f83011261483257600080fd5b81356020614847614842836147bc565b61478b565b82815260059290921b8401810191818101908984111561486657600080fd5b948201945b838610156148845785358252948201949082019061486b565b9650508601359250508082111561489a57600080fd5b506148a7858286016147e0565b9150509250929050565b60008083601f8401126148c357600080fd5b50813567ffffffffffffffff8111156148db57600080fd5b6020830191508360208260051b8501011115612b7657600080fd5b60008060006040848603121561490b57600080fd5b833567ffffffffffffffff81111561492257600080fd5b61492e868287016148b1565b909450925050602084013561494281614377565b809150509250925092565b60008151808452602080850194506020840160005b8381101561497e57815187529582019590820190600101614962565b509495945050505050565b602081526000610fce602083018461494d565b801515811461193c57600080fd5b80356143978161499c565b600080604083850312156149c857600080fd5b82356149d381614377565b915060208301356146d58161499c565b6000602082840312156149f557600080fd5b813567ffffffffffffffff811115614a0c57600080fd5b611f28848285016147e0565b60006080820186835260208681850152604086604086015260606080606087015283875180865260a08801915060a08160051b890101955084890160005b82811015614aa657898803609f19018452815180516001600160a01b0316895287810151888a0152860151868901869052614a93868a018261431f565b9850509286019290860190600101614a56565b50959c9b505050505050505050505050565b600067ffffffffffffffff821115614ad257614ad26146e0565b50601f01601f191660200190565b6000614aee61484284614ab8565b9050828152838383011115614b0257600080fd5b828260208301376000602084830101529392505050565b60008060008060808587031215614b2f57600080fd5b8435614b3a81614377565b93506020850135614b4a81614377565b925060408501359150606085013567ffffffffffffffff811115614b6d57600080fd5b8501601f81018713614b7e57600080fd5b614b8d87823560208401614ae0565b91505092959194509250565b600082601f830112614baa57600080fd5b610fce83833560208501614ae0565b80356cffffffffffffffffffffffffff8116811461439757600080fd5b803563ffffffff8116811461439757600080fd5b61ffff8116811461193c57600080fd5b803561439781614bea565b803562ffffff8116811461439757600080fd5b803560ff8116811461439757600080fd5b60006080808385031215614c3c57600080fd5b614c446146f6565b9150823567ffffffffffffffff811115614c5d57600080fd5b8301601f81018513614c6e57600080fd5b80356020614c7e614842836147bc565b8281526101809283028401820192828201919089851115614c9e57600080fd5b948301945b84861015614d915780868b031215614cbb5760008081fd5b614cc361471f565b614ccc87614bb9565b8152614cd9858801614bd6565b858201526040614cea818901614bd6565b908201526060614cfb888201614bfa565b90820152614d0a87890161438c565b8189015260a0878101359082015260c0614d25818901614c05565b9082015260e0614d368882016149aa565b90820152610100614d488882016149aa565b90820152610120614d5a8882016149aa565b90820152610140614d6c8882016149aa565b90820152610160614d7e8882016149aa565b9082015283529485019491830191614ca3565b50865250614da0868201614bd6565b8186015250505050614db460408301614c18565b6040820152614dc56060830161438c565b606082015292915050565b600060808284031215614de257600080fd5b614dea6146f6565b90508135614df78161499c565b81526020820135614e078161499c565b60208201526040820135614e1a8161499c565b60408201526060820135614dc58161499c565b6000806000806000806000806000806101a08b8d031215614e4d57600080fd5b8a35995060208b013567ffffffffffffffff80821115614e6c57600080fd5b614e788e838f01614b99565b9a5060408d0135915080821115614e8e57600080fd5b614e9a8e838f01614b99565b9950614ea860608e0161438c565b985060808d0135915080821115614ebe57600080fd5b614eca8e838f01614b99565b9750614ed860a08e0161438c565b965060c08d0135915080821115614eee57600080fd5b614efa8e838f01614b99565b955060e08d0135915080821115614f1057600080fd5b50614f1d8d828e01614c29565b935050614f2d6101008c0161438c565b9150614f3d8c6101208d01614dd0565b90509295989b9194979a5092959850565b600060208284031215614f6057600080fd5b610fce82614c18565b60008060408385031215614f7c57600080fd5b8235614f8781614377565b915060208301356146d581614377565b60008060008060408587031215614fad57600080fd5b843567ffffffffffffffff80821115614fc557600080fd5b818701915087601f830112614fd957600080fd5b813581811115614fe857600080fd5b88602061018083028501011115614ffe57600080fd5b60209283019650945090860135908082111561501957600080fd5b50615026878288016148b1565b95989497509550505050565b600181811c9082168061504657607f821691505b60208210810361467557634e487b7160e01b600052602260045260246000fd5b601f821115610ee5576000816000526020600020601f850160051c8101602086101561508f5750805b601f850160051c820191505b818110156150ae5782815560010161509b565b505050505050565b67ffffffffffffffff8311156150ce576150ce6146e0565b6150e2836150dc8354615032565b83615066565b6000601f84116001811461511657600085156150fe5750838201355b600019600387901b1c1916600186901b178355612c2f565b600083815260209020601f19861690835b828110156151475786850135825560209485019460019092019101615127565b50868210156151645760001960f88860031b161c19848701351681555b505060018560011b0183555050505050565b8183823760009101908152919050565b634e487b7160e01b600052603260045260246000fd5b6000604082840312156151ae57600080fd5b6040516040810181811067ffffffffffffffff821117156151d1576151d16146e0565b604052823581526020928301359281019290925250919050565b805161439781614377565b6000610120828403121561520957600080fd5b615211614743565b825181526020830151602082015260408301516040820152606083015160608201526080830151608082015260a083015160a082015260c083015160c082015261525d60e084016151eb565b60e0820152610100928301519281019290925250919050565b600082601f83011261528757600080fd5b81516020615297614842836147bc565b8083825260208201915060208460051b8701019350868411156152b957600080fd5b602086015b848110156152d557805183529183019183016152be565b509695505050505050565b6000602082840312156152f257600080fd5b815167ffffffffffffffff81111561530957600080fd5b611f2884828501615276565b60006020828403121561532757600080fd5b8151610fce81614377565b80516143978161499c565b60006020828403121561534f57600080fd5b8151610fce8161499c565b6000808335601e1984360301811261537157600080fd5b83018035915067ffffffffffffffff82111561538c57600080fd5b602001915036819003821315612b7657600080fd5b6001600160a01b0383168152604060208201526000611f28604083018461494d565b6000602082840312156153d557600080fd5b5051919050565b84815260606020808301829052908201849052600090859060808401835b8781101561542357833561540d81614bea565b61ffff16825292820192908201906001016153fa565b50809350505050821515604083015295945050505050565b6000806040838503121561544e57600080fd5b825167ffffffffffffffff81111561546557600080fd5b61547185828601615276565b925050602083015190509250929050565b60006020828403121561549457600080fd5b8135610fce81614bea565b815167ffffffffffffffff8111156154b9576154b96146e0565b6154cd816154c78454615032565b84615066565b602080601f83116001811461550257600084156154ea5750858301515b600019600386901b1c1916600185901b1785556150ae565b600085815260208120601f198616915b8281101561553157888601518255948401946001909101908401615512565b508582101561554f5787850151600019600388901b60f8161c191681555b5050505050600190811b01905550565b602080825282518282018190526000919060409081850190868401855b8281101561563f57815180516cffffffffffffffffffffffffff1685528681015163ffffffff9081168887015286820151168686015260608082015161ffff16908601526080808201516001600160a01b03169086015260a0808201519086015260c08082015162ffffff169086015260e08082015115159086015261010080820151151590860152610120808201511515908601526101408082015115159086015261016090810151151590850152610180909301929085019060010161557c565b5091979650505050505050565b600082601f83011261565d57600080fd5b815161566b61484282614ab8565b81815284602083860101111561568057600080fd5b611f288260208301602087016142fb565b6000602082840312156156a357600080fd5b815167ffffffffffffffff8111156156ba57600080fd5b611f288482850161564c565b6020815281602082015260007f07ffffffffffffffffffffffffffffffffffffffffffffffffffffffffffffff8311156156ff57600080fd5b8260051b80856040850137919091016040019392505050565b6157388261572583614bb9565b6cffffffffffffffffffffffffff169052565b61574460208201614bd6565b63ffffffff16602083015261575b60408201614bd6565b63ffffffff16604083015261577260608201614bfa565b61ffff1660608301526157876080820161438c565b6001600160a01b0316608083015260a081810135908301526157ab60c08201614c05565b62ffffff1660c08301526157c160e082016149aa565b151560e08301526101006157d68282016149aa565b1515908301526101206157ea8282016149aa565b1515908301526101406157fe8282016149aa565b1515908301526101606158128282016149aa565b80151584830152610e1a565b6020808252810182905260008360408301825b85811015615857576158438284615718565b610180928301929190910190600101615831565b5095945050505050565b6101a081016158708285615718565b6001600160a01b0383166101808301529392505050565b60006020828403121561589957600080fd5b815167ffffffffffffffff808211156158b157600080fd5b908301906101a082860312156158c657600080fd5b6158ce614767565b825181526020830151602082015260408301516040820152606083015160608201526080830151608082015260a083015160a082015261591060c084016151eb565b60c082015260e083015160e0820152610100808401518183015250610120615939818501615332565b9082015261014061594b848201615332565b9082015261016061595d848201615332565b90820152610180838101518381111561597557600080fd5b6159818882870161564c565b918301919091525095945050505050565b634e487b7160e01b600052601160045260246000fd5b80820180821115610a5557610a55615992565b8082028115828204841417610a5557610a55615992565b60006001600160a01b03808716835280861660208401525083604083015260806060830152615a04608083018461431f565b9695505050505050565b600060208284031215615a2057600080fd5b8151610fce816142c8565b60008351615a3d8184602088016142fb565b835190830190615a518183602088016142fb565b01949350505050565b600181815b80851115615a95578160001904821115615a7b57615a7b615992565b80851615615a8857918102915b93841c9390800290615a5f565b509250929050565b600082615aac57506001610a55565b81615ab957506000610a55565b8160018114615acf5760028114615ad957615af5565b6001915050610a55565b60ff841115615aea57615aea615992565b50506001821b610a55565b5060208310610133831016604e8410600b8410161715615b18575081810a610a55565b615b228383615a5a565b8060001904821115615b3657615b36615992565b029392505050565b6000610fce8383615a9d565b60008060408385031215615b5d57600080fd5b8251615b688161499c565b8092505060208084015167ffffffffffffffff811115615b8757600080fd5b8401601f81018613615b9857600080fd5b8051615ba6614842826147bc565b81815260059190911b82018301908381019088831115615bc557600080fd5b928401925b82841015615bec578351615bdd81614bea565b82529284019290840190615bca565b80955050505050509250929050565b600060808284031215615c0d57600080fd5b615c156146f6565b8251615c208161499c565b81526020830151615c308161499c565b60208201526040830151615c438161499c565b60408201526060830151615c568161499c565b60608201529392505050565b81810381811115610a5557610a55615992565b60008085851115615c8557600080fd5b83861115615c9257600080fd5b5050820193919092039150565b6bffffffffffffffffffffffff198135818116916014851015615ccc5780818660140360031b1b83161692505b505092915050565b634e487b7160e01b600052601260045260246000fd5b600082615cf957615cf9615cd4565b500690565b600082615d0d57615d0d615cd4565b500490565b60006060820185835260206060602085015281865180845260808601915060208801935060005b81811015615d5957845161ffff1683529383019391830191600101615d39565b5050809350505050821515604083015294935050505056fe31323334353637383941424344454647484a4b4c4d4e505152535455565758595a6162636465666768696a6b6d6e6f707172737475767778797aa26469706673582212202500f1d3fcf8a0be51cffd6343cd30af7b3f1344a9159cc3f8044fc176fd2fec64736f6c63430008170033",
			"deployedBytecode": "0x6080604052600436106102fd5760003560e01c8063715018a61161018f578063c07f2f9b116100e1578063e985e9c51161008a578063f3c5788111610064578063f3c57881146109b0578063f434c914146109c3578063fef50848146109f757600080fd5b8063e985e9c514610913578063edab09b91461095c578063f2fde38b1461099057600080fd5b8063d4a1b4b1116100bb578063d4a1b4b1146108b1578063d95c9ae2146108d1578063e8a3d485146108fe57600080fd5b8063c07f2f9b14610851578063c0fb5e8514610871578063c87b56dd1461089157600080fd5b8063a220d69611610143578063ade032ff1161011d578063ade032ff1461079c578063b88d4fde146107bc578063ba23c36e146107dc57600080fd5b8063a220d6961461072c578063a22cb4651461074c578063aaf320d71461076c57600080fd5b806388bc2ef31161017457806388bc2ef3146106ce5780638da5cb5b1461070257806395d89b411461071757600080fd5b8063715018a6146106865780637da0a8771461069b57600080fd5b8063507f14651161025357806366ec4cb4116101fc5780636ac6d941116101d65780636ac6d941146106245780636c0360eb1461065157806370a082311461066657600080fd5b806366ec4cb4146105ce578063677ce088146105e157806368f9c6bc1461060457600080fd5b8063572b6c051161022d578063572b6c0514610541578063613b856d1461058e5780636352211e146105ae57600080fd5b8063507f1465146104dd57806354c6d1f5146104fd57806356539f391461051d57600080fd5b80631435aad5116102b5578063293c49991161028f578063293c49991461045b57806342842e0e1461048f5780634c4ffc71146104af57600080fd5b80631435aad5146103fb5780631c52730b1461041b57806323b872dd1461043b57600080fd5b8063081812fc116102e6578063081812fc1461035957806308786b1a14610391578063095ea7b3146103d957600080fd5b806301ffc9a71461030257806306fdde0314610337575b600080fd5b34801561030e57600080fd5b5061032261031d3660046142de565b610a17565b60405190151581526020015b60405180910390f35b34801561034357600080fd5b5061034c610a5b565b60405161032e919061434b565b34801561036557600080fd5b5061037961037436600461435e565b610aed565b6040516001600160a01b03909116815260200161032e565b34801561039d57600080fd5b5060095463ffffffff811690602081901c60ff169060281c6040805193845260208401929092526001600160a01b03169082015260600161032e565b3480156103e557600080fd5b506103f96103f436600461439c565b610b16565b005b34801561040757600080fd5b506103f961041636600461440a565b610b2c565b34801561042757600080fd5b506103f96104363660046144a0565b610dc7565b34801561044757600080fd5b506103f9610456366004614515565b610e20565b34801561046757600080fd5b506103797f000000000000000000000000fa679f5ecdd8be404c1fbaa7f29aeb2b12f5b66281565b34801561049b57600080fd5b506103f96104aa366004614515565b610eca565b3480156104bb57600080fd5b506104cf6104ca366004614556565b610eea565b60405161032e929190614592565b3480156104e957600080fd5b50600a54610379906001600160a01b031681565b34801561050957600080fd5b5061037961051836600461435e565b610f91565b34801561052957600080fd5b5061053360075481565b60405190815260200161032e565b34801561054d57600080fd5b5061032261055c366004614623565b7f000000000000000000000000b2b5841dbef766d4b521221732f9b618fcf34a876001600160a01b0390811691161490565b34801561059a57600080fd5b506103f96105a9366004614640565b610fd5565b3480156105ba57600080fd5b506103796105c936600461435e565b611242565b6103f96105dc36600461467b565b61124d565b3480156105ed57600080fd5b506103226105fc3660046146b0565b600092915050565b34801561061057600080fd5b5061053361061f3660046147f3565b6114d1565b34801561063057600080fd5b5061064461063f3660046148f6565b61155e565b60405161032e9190614989565b34801561065d57600080fd5b5061034c6116be565b34801561067257600080fd5b50610533610681366004614623565b61174c565b34801561069257600080fd5b506103f96117db565b3480156106a757600080fd5b507f000000000000000000000000b2b5841dbef766d4b521221732f9b618fcf34a87610379565b3480156106da57600080fd5b506103797f00000000000000000000000044d360c8c4105f180e07668bd3374c7a6f812faf81565b34801561070e57600080fd5b506103796117f0565b34801561072357600080fd5b5061034c6118e5565b34801561073857600080fd5b506103f961074736600461435e565b6118f4565b34801561075857600080fd5b506103f96107673660046149b5565b61193f565b34801561077857600080fd5b5061078c6107873660046149e3565b611951565b60405161032e9493929190614a18565b3480156107a857600080fd5b506105336107b73660046149e3565b611af0565b3480156107c857600080fd5b506103f96107d7366004614b19565b611b3a565b3480156107e857600080fd5b5060005461081d906001600160a01b03811690600160a01b81046affffffffffffffffffffff1690600160f81b900460ff1683565b604080516001600160a01b0390941684526affffffffffffffffffffff909216602084015260ff169082015260600161032e565b34801561085d57600080fd5b506103f961086c366004614e2d565b611b51565b34801561087d57600080fd5b506103f961088c366004614f4e565b611def565b34801561089d57600080fd5b5061034c6108ac36600461435e565b611e00565b3480156108bd57600080fd5b50600b54610379906001600160a01b031681565b3480156108dd57600080fd5b506105336108ec366004614623565b600c6020526000908152604090205481565b34801561090a57600080fd5b5061034c61204c565b34801561091f57600080fd5b5061032261092e366004614f69565b6001600160a01b03918216600090815260066020908152604080832093909416825291909152205460ff1690565b34801561096857600080fd5b506103797f0000000000000000000000007c8ef86687a0bfa1882d2f25866cd4ea354eea3c81565b34801561099c57600080fd5b506103f96109ab366004614623565b612059565b6103f96109be36600461467b565b612093565b3480156109cf57600080fd5b506103797f000000000000000000000000711eda44f3d42f3d255846b5ee36cf70fd912e5081565b348015610a0357600080fd5b506103f9610a12366004614f97565b61217f565b60006001600160e01b031982167fb88c9696000000000000000000000000000000000000000000000000000000001480610a555750610a55826123a5565b92915050565b606060018054610a6a90615032565b80601f0160208091040260200160405190810160405280929190818152602001828054610a9690615032565b8015610ae35780601f10610ab857610100808354040283529160200191610ae3565b820191906000526020600020905b815481529060010190602001808311610ac657829003601f168201915b5050505050905090565b6000610af8826124b3565b506000828152600560205260409020546001600160a01b0316610a55565b610b288282610b236124ec565b6124fb565b5050565b610b41610b376117f0565b6007546016612508565b8515610bb257600d610b548789836150b6565b508686604051610b65929190615176565b60405180910390207f7bc9110d5de090dd59e07912d2b93a5a27ac70a60c8d8e324db4f9ee8b8b5c13610b966124ec565b6040516001600160a01b03909116815260200160405180910390a25b8315610c2357600e610bc58587836150b6565b508484604051610bd6929190615176565b60405180910390207fd36dc0c1a06103fdcaf15f3f6fb797d1a97997514c78de073640c8b5005454b8610c076124ec565b6040516001600160a01b03909116815260200160405180910390a25b600a546001600160a01b039081169084163014610ce45760405163036129cb60e61b81526001600160a01b03858116600483015282169063d84a72c090602401600060405180830381600087803b158015610c7d57600080fd5b505af1158015610c91573d6000803e3d6000fd5b50505050836001600160a01b03167fe7784d93cfbfa4408e19577e6cc0436f4dbb51214b70e100905dfce9def88c16610cc86124ec565b6040516001600160a01b03909116815260200160405180910390a25b8215801590610cf257508115155b15610dbd576040517f49bd1ac600000000000000000000000000000000000000000000000000000000815260048101849052602481018390526001600160a01b038216906349bd1ac690604401600060405180830381600087803b158015610d5957600080fd5b505af1158015610d6d573d6000803e3d6000fd5b50505050827f677da4fed654db8e604791fa2582f342e2001aa217e27f6985eb3e0f67e5a7fc83610d9c6124ec565b604080519283526001600160a01b0390911660208301520160405180910390a25b5050505050505050565b8060005b81811015610e1a576000848483818110610de757610de7615186565b905060400201803603810190610dfd919061519c565b9050610e1181600001518260200151610fd5565b50600101610dcb565b50505050565b6001600160a01b038216610e4f57604051633250574960e11b8152600060048201526024015b60405180910390fd5b6000610e638383610e5e6124ec565b6126b3565b9050836001600160a01b0316816001600160a01b031614610e1a576040517f64283d7b0000000000000000000000000000000000000000000000000000000081526001600160a01b0380861660048301526024820184905282166044820152606401610e46565b610ee583838360405180602001604052806000815250611b3a565b505050565b6040805160018082528183019092526101208301359160609190816020015b60408051606080820183526000808352602083015291810191909152815260200190600190039081610f095790505090506040518060600160405280306001600160a01b03168152602001600081526020016040518060200160405280600081525081525081600081518110610f8157610f81615186565b6020026020010181905250915091565b6000818152600860205260408120546001600160a01b03168015610fb55792915050565b6000838152600360205260409020546001600160a01b03165b9392505050565b600b546007546040516321d1336160e11b815260048101919091526000916001600160a01b0316906343a266c29060240161012060405180830381865afa158015611024573d6000803e3d6000fd5b505050506040513d601f19601f8201168201806040525081019061104891906151f6565b61010081015190915060f01c600190811603611090576040517f63a0ba3900000000000000000000000000000000000000000000000000000000815260040160405180910390fd5b600a546040517fbaa7e80e00000000000000000000000000000000000000000000000000000000815260048101859052602481018490526001600160a01b0390911690600090829063baa7e80e906044016000604051808303816000875af1158015611100573d6000803e3d6000fd5b505050506040513d6000823e601f3d908101601f1916820160405261112891908101906152e0565b6040517f03573004000000000000000000000000000000000000000000000000000000008152306004820152602481018790529091506000906001600160a01b03841690630357300490604401602060405180830381865afa158015611192573d6000803e3d6000fd5b505050506040513d601f19601f820116820180604052508101906111b69190615315565b90506000805b86811015610dbd578381815181106111d6576111d6615186565b602002602001015191506111ea8383612929565b826001600160a01b031688837f80dd2efbbc431cde0164d84d638e44ba6e7a3ca5d532ceef1bb4efcc0948325d61121f6124ec565b6040516001600160a01b03909116815260200160405180910390a46001016111bc565b6000610a55826124b3565b600754341515806112ea5750604051636e49181f60e01b8152600481018290523360248201527f00000000000000000000000044d360c8c4105f180e07668bd3374c7a6f812faf6001600160a01b031690636e49181f90604401602060405180830381865afa1580156112c4573d6000803e3d6000fd5b505050506040513d601f19601f820116820180604052508101906112e8919061533d565b155b806112f9575080826020013514155b15611330576040517f835e522b00000000000000000000000000000000000000000000000000000000815260040160405180910390fd5b60408051808201909152600681526572656465656d60d01b6020909101526000806113e27f0000000000000000000000007c8ef86687a0bfa1882d2f25866cd4ea354eea3c60601b7f26ef0a97332ad048ac544d8dfacdd43e128b9816d599fdd0310960904fa18609186113a86101e087018761535a565b8080601f0160208091040260200160405190810160405280939291908181526020018383808284376000920191909152506129a792505050565b9150915060608215611405578180602001905181019061140291906152e0565b90505b80516000805b828110156114be5783818151811061142557611425615186565b602002602001015191508760000160208101906114429190614623565b6001600160a01b031661146a836000908152600360205260409020546001600160a01b031690565b6001600160a01b0316146114ad576040517f5caf197500000000000000000000000000000000000000000000000000000000815260048101839052602401610e46565b6114b682612b7d565b60010161140b565b506114c883612bb8565b50505050505050565b600a546040517f144cc2d40000000000000000000000000000000000000000000000000000000081526000916001600160a01b03169063144cc2d49061151d90309087906004016153a1565b602060405180830381865afa15801561153a573d6000803e3d6000fd5b505050506040513d601f19601f82011682018060405250810190610fce91906153c3565b606061157561156b6117f0565b6007546017612508565b600a5460405163eaa19ab360e01b81526001600160a01b039091169063eaa19ab3906115ae9060001990889088906001906004016153dc565b6000604051808303816000875af11580156115cd573d6000803e3d6000fd5b505050506040513d6000823e601f3d908101601f191682016040526115f5919081019061543b565b509050826000805b828110156116b45783818151811061161757611617615186565b6020026020010151915061162b8583612929565b846001600160a01b031687878381811061164757611647615186565b905060200201602081019061165c9190615482565b61ffff16837f598baf7bf150ca2f42be9e9f8f55e81d45f5715c3ff22bf46d697fabec7f31d6600061168c6124ec565b604080519283526001600160a01b0390911660208301520160405180910390a46001016115fd565b5050509392505050565b600d80546116cb90615032565b80601f01602080910402602001604051908101604052809291908181526020018280546116f790615032565b80156117445780601f1061171957610100808354040283529160200191611744565b820191906000526020600020905b81548152906001019060200180831161172757829003601f168201915b505050505081565b600a546040517ff7888aec0000000000000000000000000000000000000000000000000000000081523060048201526001600160a01b038381166024830152600092169063f7888aec906044015b602060405180830381865afa1580156117b7573d6000803e3d6000fd5b505050506040513d601f19601f82011682018060405250810190610a5591906153c3565b6117e3612c36565b6117ee600080612d48565b565b60408051606081018252600080546001600160a01b0381168352600160a01b81046affffffffffffffffffffff1660208401819052600160f81b90910460ff16938301939093529182036118445751919050565b60208101516040516331a9108f60e11b81526affffffffffffffffffffff90911660048201527f000000000000000000000000fa679f5ecdd8be404c1fbaa7f29aeb2b12f5b6626001600160a01b031690636352211e90602401602060405180830381865afa1580156118bb573d6000803e3d6000fd5b505050506040513d601f19601f820116820180604052508101906118df9190615315565b91505090565b606060028054610a6a90615032565b6118fc612c36565b80158061191357506affffffffffffffffffffff81115b156119315760405163ecb9b1c760e01b815260040160405180910390fd5b61193c600082612d48565b50565b610b2861194a6124ec565b8383612ef9565b600080806060608085013515611993576040517f4fc178d800000000000000000000000000000000000000000000000000000000815260040160405180910390fd5b60408051808201909152600681526572656465656d60d01b602090910152600080611a0b7f0000000000000000000000007c8ef86687a0bfa1882d2f25866cd4ea354eea3c60601b7f26ef0a97332ad048ac544d8dfacdd43e128b9816d599fdd0310960904fa18609186113a86101808a018a61535a565b604080516001808252818301909252929450909250816020015b60408051606080820183526000808352602083015291810191909152815260200190600190039081611a255790505092506040518060600160405280306001600160a01b03168152602001600081526020016040518060200160405280600081525081525083600081518110611a9d57611a9d615186565b602002602001018190525060608215611ac75781806020019051810190611ac491906152e0565b90505b611ad181896114d1565b9550611adc88611af0565b945087610160013596505050509193509193565b600a546040517f2ae5e4920000000000000000000000000000000000000000000000000000000081523060048201526000916001600160a01b031690632ae5e4929060240161179a565b611b45848484610e20565b610e1a84848484612fb1565b600a546001600160a01b031615611b6757600080fd5b611b728a8a8a6130f3565b600b80546001600160a01b03808a1673ffffffffffffffffffffffffffffffffffffffff1992831617909255600a8054928516929091169190911790556020808401516040850151606086015178ffffffffffffffffffffffffffffffffffffffff000000000060289190911b1664ff000000009190931b1663ffffffff90911617176009819055865115611c0f57600d611c0d888261549f565b505b845115611c2457600e611c22868261549f565b505b6001600160a01b03861615611c8f5760405163036129cb60e61b81526001600160a01b03878116600483015284169063d84a72c090602401600060405180830381600087803b158015611c7657600080fd5b505af1158015611c8a573d6000803e3d6000fd5b505050505b83515115611d0d5783516040516349249dc160e01b81526001600160a01b038516916349249dc191611cc4919060040161555f565b6000604051808303816000875af1158015611ce3573d6000803e3d6000fd5b505050506040513d6000823e601f3d908101601f19168201604052611d0b91908101906152e0565b505b815180611d1b575081602001515b80611d27575081604001515b80611d33575081606001515b15611dd257604080517fcb827e3200000000000000000000000000000000000000000000000000000000815283511515600482015260208401511515602482015290830151151560448201526060830151151560648201526001600160a01b0384169063cb827e3290608401600060405180830381600087803b158015611db957600080fd5b505af1158015611dcd573d6000803e3d6000fd5b505050505b611de2611ddd6124ec565b612088565b5050505050505050505050565b611df7612c36565b61193c81613104565b600a546040517f0fab09470000000000000000000000000000000000000000000000000000000081523060048201526060916001600160a01b0316906000908290630fab094790602401602060405180830381865afa158015611e67573d6000803e3d6000fd5b505050506040513d601f19601f82011682018060405250810190611e8b9190615315565b90506001600160a01b03811615611f30576040517f5e703e71000000000000000000000000000000000000000000000000000000008152306004820152602481018590526001600160a01b03821690635e703e7190604401600060405180830381865afa158015611f00573d6000803e3d6000fd5b505050506040513d6000823e601f3d908101601f19168201604052611f289190810190615691565b949350505050565b611f28600d8054611f4090615032565b80601f0160208091040260200160405190810160405280929190818152602001828054611f6c90615032565b8015611fb95780601f10611f8e57610100808354040283529160200191611fb9565b820191906000526020600020905b815481529060010190602001808311611f9c57829003601f168201915b50506040517fc8df1710000000000000000000000000000000000000000000000000000000008152306004820152602481018a90526001600160a01b038816935063c8df171092506044019050602060405180830381865afa158015612023573d6000803e3d6000fd5b505050506040513d601f19601f8201168201806040525081019061204791906153c3565b61315a565b600e80546116cb90615032565b612061612c36565b6001600160a01b0381166120885760405163ecb9b1c760e01b815260040160405180910390fd5b61193c816000612d48565b600754341515806121305750604051636e49181f60e01b8152600481018290523360248201527f00000000000000000000000044d360c8c4105f180e07668bd3374c7a6f812faf6001600160a01b031690636e49181f90604401602060405180830381865afa15801561210a573d6000803e3d6000fd5b505050506040513d601f19601f8201168201806040525081019061212e919061533d565b155b8061213f575080826020013514155b15612176576040517f8a3ea1c800000000000000000000000000000000000000000000000000000000815260040160405180910390fd5b610b28826131dd565b61219461218a6117f0565b6007546015612508565b600a54839082906001600160a01b03168115612295576040517f20512ba10000000000000000000000000000000000000000000000000000000081526001600160a01b038216906320512ba1906121f190889088906004016156c6565b600060405180830381600087803b15801561220b57600080fd5b505af115801561221f573d6000803e3d6000fd5b5050505060005b828110156122935785858281811061224057612240615186565b905060200201357f832d89d991be5351d793c20faf4b7dd44f8aa9ce39e3cb160c6317de6fbba7296122706124ec565b6040516001600160a01b03909116815260200160405180910390a2600101612226565b505b82156114c8576040516349249dc160e01b81526000906001600160a01b038316906349249dc1906122cc908b908b9060040161581e565b6000604051808303816000875af11580156122eb573d6000803e3d6000fd5b505050506040513d6000823e601f3d908101601f1916820160405261231391908101906152e0565b905060005b8481101561239a5781818151811061233257612332615186565b60200260200101517f6c05e4bd067859371de8c0a303cf84af0ba782c3809f8fba14e6af4388894cf08a8a8481811061236d5761236d615186565b9050610180020161237c6124ec565b60405161238a929190615861565b60405180910390a2600101612318565b505050505050505050565b60006001600160e01b031982167f3344b87300000000000000000000000000000000000000000000000000000000148061240857506001600160e01b031982167f81c03c2e00000000000000000000000000000000000000000000000000000000145b8061243c57506001600160e01b031982167ff3c5788100000000000000000000000000000000000000000000000000000000145b8061247057506001600160e01b031982167f66ec4cb400000000000000000000000000000000000000000000000000000000145b806124a457506001600160e01b031982167f2a55205a00000000000000000000000000000000000000000000000000000000145b80610a555750610a5582613734565b6000818152600360205260408120546001600160a01b031680610a5557604051637e27328960e01b815260048101849052602401610e46565b60006124f66137cf565b905090565b610ee58383836001613844565b60006125126124ec565b9050836001600160a01b0316816001600160a01b0316141580156125d3575060405163c161c93f60e01b81526001600160a01b038281166004830152858116602483015260448201859052606482018490527f000000000000000000000000711eda44f3d42f3d255846b5ee36cf70fd912e50169063c161c93f90608401602060405180830381865afa1580156125ad573d6000803e3d6000fd5b505050506040513d601f19601f820116820180604052508101906125d1919061533d565b155b801561267c575060405163c161c93f60e01b81526001600160a01b038281166004830152858116602483015260006044830152606482018490527f000000000000000000000000711eda44f3d42f3d255846b5ee36cf70fd912e50169063c161c93f90608401602060405180830381865afa158015612656573d6000803e3d6000fd5b505050506040513d601f19601f8201168201806040525081019061267a919061533d565b155b15610e1a576040517f075fd2b100000000000000000000000000000000000000000000000000000000815260040160405180910390fd5b600a546040517fc44a8e6d00000000000000000000000000000000000000000000000000000000815230600482015260248101849052600060448201819052916001600160a01b0316908290829063c44a8e6d90606401600060405180830381865afa158015612727573d6000803e3d6000fd5b505050506040513d6000823e601f3d908101601f1916820160405261274f9190810190615887565b905061275c86868661398f565b92506001600160a01b0383161561289a578061014001511561284957600b546007546040516321d1336160e11b815260048101919091526000916001600160a01b0316906343a266c29060240161012060405180830381865afa1580156127c7573d6000803e3d6000fd5b505050506040513d601f19601f820116820180604052508101906127eb91906151f6565b90506001600160a01b03871615801590612810575061010081015160ef1c6001908116145b15612847576040517ffa45ac2900000000000000000000000000000000000000000000000000000000815260040160405180910390fd5b505b6000858152600860205260409020546001600160a01b031661289a576000858152600860205260409020805473ffffffffffffffffffffffffffffffffffffffff19166001600160a01b0385161790555b80516040517fc2c55f9400000000000000000000000000000000000000000000000000000000815260048101919091526001600160a01b038481166024830152878116604483015283169063c2c55f9490606401600060405180830381600087803b15801561290857600080fd5b505af115801561291c573d6000803e3d6000fd5b5050505050509392505050565b6001600160a01b03821661295357604051633250574960e11b815260006004820152602401610e46565b6000612961838360006126b3565b90506001600160a01b03811615610ee5576040517f73c6ac6e00000000000000000000000000000000000000000000000000000000815260006004820152602401610e46565b6000606060258351116129cc5750506040805160208101909152600080825290612b76565b6000836129db600460206159a8565b815181106129eb576129eb615186565b0160209081015160f81c91505b600085612a066004846159a8565b81518110612a1657612a16615186565b01602001517fff000000000000000000000000000000000000000000000000000000000000001614801590612a545750612a516020836159bb565b81105b15612b7357600085612a676004846159a8565b81518110612a7757612a77615186565b016020908101518784019091015160f89190911c91506001600160e01b031980891690821603612b69576000612aae6020866159bb565b612ab96009866159a8565b101580612b06575087612acd6009866159a8565b81518110612add57612add615186565b01602001517fff0000000000000000000000000000000000000000000000000000000000000016155b612b3f57602088612b186009876159a8565b81518110612b2857612b28615186565b0160200151612b3a919060f81c6159bb565b612b42565b87515b90506001612b5b89612b556020876159bb565b84613a95565b965096505050505050612b76565b50506005016129f8565b50505b9250929050565b6000612b8c60008360006126b3565b90506001600160a01b038116610b2857604051637e27328960e01b815260048101839052602401610e46565b600a546040517f86bc2be30000000000000000000000000000000000000000000000000000000081526001600160a01b03909116906386bc2be390612c01908490600401614989565b600060405180830381600087803b158015612c1b57600080fd5b505af1158015612c2f573d6000803e3d6000fd5b5050505050565b604080516060810182526000546001600160a01b0381168252600160a01b81046affffffffffffffffffffff1660208301819052600160f81b90910460ff16928201929092529061193c9015612d265760208201516040516331a9108f60e11b81526affffffffffffffffffffff90911660048201527f000000000000000000000000fa679f5ecdd8be404c1fbaa7f29aeb2b12f5b6626001600160a01b031690636352211e90602401602060405180830381865afa158015612cfd573d6000803e3d6000fd5b505050506040513d601f19601f82011682018060405250810190612d219190615315565b612d29565b81515b82602001516affffffffffffffffffffff16836040015160ff16612508565b6affffffffffffffffffffff811615801590612d6c57506001600160a01b03821615155b15612d8a5760405163ecb9b1c760e01b815260040160405180910390fd5b60408051606081018252600080546001600160a01b0381168352600160a01b81046affffffffffffffffffffff1660208401819052600160f81b90910460ff1693830193909352909115612e785760208201516040516331a9108f60e11b81526affffffffffffffffffffff90911660048201527f000000000000000000000000fa679f5ecdd8be404c1fbaa7f29aeb2b12f5b6626001600160a01b031690636352211e90602401602060405180830381865afa158015612e4f573d6000803e3d6000fd5b505050506040513d601f19601f82011682018060405250810190612e739190615315565b612e7b565b81515b604080516060810182526001600160a01b0387168082526affffffffffffffffffffff87166020830181905260009290930182905281547fff000000000000000000000000000000000000000000000000000000000000001617600160a01b909202919091176001600160f81b031690559050610e1a818585613ad1565b6001600160a01b038216612f44576040517f5b08ba180000000000000000000000000000000000000000000000000000000081526001600160a01b0383166004820152602401610e46565b6001600160a01b03838116600081815260066020908152604080832094871680845294825291829020805460ff191686151590811790915591519182527f17307eab39ab6107e8899845ad3d59bd9653f200f220920489ca2b5937696c31910160405180910390a3505050565b6001600160a01b0383163b15610e1a57826001600160a01b031663150b7a02612fd86124ec565b8685856040518563ffffffff1660e01b8152600401612ffa94939291906159d2565b6020604051808303816000875af1925050508015613035575060408051601f3d908101601f1916820190925261303291810190615a0e565b60015b61309e573d808015613063576040519150601f19603f3d011682016040523d82523d6000602084013e613068565b606091505b50805160000361309657604051633250574960e11b81526001600160a01b0385166004820152602401610e46565b805181602001fd5b6001600160e01b031981167f150b7a020000000000000000000000000000000000000000000000000000000014612c2f57604051633250574960e11b81526001600160a01b0385166004820152602401610e46565b6130fd8282613bc4565b5050600755565b600080546001600160f81b0316600160f81b60ff8416908102919091179091556040519081527f6f4725627084d54c46c628b050805457a1cd38c5cd20c1f00132960f8b546fed9060200160405180910390a150565b6040517f1220000000000000000000000000000000000000000000000000000000000000602082015260228101829052606090600090604201604051602081830303815290604052905060006131af82613bdd565b905084816040516020016131c4929190615a2b565b6040516020818303038152906040529250505092915050565b60095460009063ffffffff811660c084013581900361320257608084013592506132dc565b602882901c6001600160a01b03811615612c2f5760ff602084901c166132d7608087013561323183600a615b3e565b6007546040517f3be273fa000000000000000000000000000000000000000000000000000000008152600481019190915260c08a013560248201526044810187905260a08a013560648201526001600160a01b03861690633be273fa90608401602060405180830381865afa1580156132ae573d6000803e3d6000fd5b505050506040513d601f19601f820116820180604052508101906132d291906153c3565b613d75565b945050505b5060009050600c816132f66101c086016101a08701614623565b6001600160a01b031681526020810191909152604001600090812054915082906133286101c086016101a08701614623565b6001600160a01b031661333e6020870187614623565b6001600160a01b0316036133555790820190613358565b50815b60408051808201909152600381527f7061790000000000000000000000000000000000000000000000000000000000602090910152600080806133e87f0000000000000000000000007c8ef86687a0bfa1882d2f25866cd4ea354eea3c60601b7fadc756803e4eb4ccfb136b73d5f72e3dc0d452d30ae1f4bc82af394c73ce7115186113a86101e08b018b61535a565b9150915081156134bc576060818060200190518101906134089190615b4a565b90945090508380156134865750600a54604051634228826f60e11b81523060048201526001600160a01b039091169063845104de90602401608060405180830381865afa15801561345d573d6000803e3d6000fd5b505050506040513d601f19601f820116820180604052508101906134819190615bfb565b606001515b1561349057600093505b8051156134b6576134b386826134ae6101c08d016101a08e01614623565b613e62565b95505b50613535565b600a54604051634228826f60e11b81523060048201526001600160a01b039091169063845104de90602401608060405180830381865afa158015613504573d6000803e3d6000fd5b505050506040513d601f19601f820116820180604052508101906135289190615bfb565b6060015161353557600192505b84156136885782613572576040517f6d5e09a400000000000000000000000000000000000000000000000000000000815260040160405180910390fd5b848401868111156135e55761358f6101c08a016101a08b01614623565b6001600160a01b0316818883037f7e71a5f6c04b0eb16949316623b9dda7bd103692f7d89678e2260afa1378a2d56135c56124ec565b6040516001600160a01b03909116815260200160405180910390a4613651565b80871115613651576135ff6101c08a016101a08b01614623565b6001600160a01b0316818289037f6276f0169fb8de712b2a6c02789f6115136c589ed491ac06f9e20f41877e41fe6136356124ec565b6040516001600160a01b03909116815260200160405180910390a45b80600c60006136686101c08d016101a08e01614623565b6001600160a01b0316815260208101919091526040016000205550610dbd565b838614610dbd576136a16101c089016101a08a01614623565b6001600160a01b0316846136b58189615c62565b7f6276f0169fb8de712b2a6c02789f6115136c589ed491ac06f9e20f41877e41fe6136de6124ec565b6040516001600160a01b03909116815260200160405180910390a483600c60006137106101c08c016101a08d01614623565b6001600160a01b031681526020810191909152604001600020555050505050505050565b60006001600160e01b031982167f80ac58cd00000000000000000000000000000000000000000000000000000000148061379757506001600160e01b031982167f5b5e139f00000000000000000000000000000000000000000000000000000000145b80610a5557507f01ffc9a7000000000000000000000000000000000000000000000000000000006001600160e01b0319831614610a55565b6000366014336001600160a01b037f000000000000000000000000b2b5841dbef766d4b521221732f9b618fcf34a871614801561380c5750808210155b1561383c5760003661381e8385615c62565b613829928290615c75565b61383291615c9f565b60601c9250505090565b339250505090565b808061385857506001600160a01b03821615155b15613952576000613868846124b3565b90506001600160a01b038316158015906138945750826001600160a01b0316816001600160a01b031614155b80156138c657506001600160a01b0380821660009081526006602090815260408083209387168352929052205460ff16155b15613908576040517fa9fbf51f0000000000000000000000000000000000000000000000000000000081526001600160a01b0384166004820152602401610e46565b81156139505783856001600160a01b0316826001600160a01b03167f8c5be1e5ebec7d5bd14f71427d1e84f3dd0314c0f7b2291e5b200ac8c7c3b92560405160405180910390a45b505b50506000908152600560205260409020805473ffffffffffffffffffffffffffffffffffffffff19166001600160a01b0392909216919091179055565b6000828152600360205260408120546001600160a01b03908116908316156139bc576139bc818486613fa3565b6001600160a01b038116156139fa576139d9600085600080613844565b6001600160a01b038116600090815260046020526040902080546000190190555b6001600160a01b03851615613a29576001600160a01b0385166000908152600460205260409020805460010190555b600084815260036020526040808220805473ffffffffffffffffffffffffffffffffffffffff19166001600160a01b0389811691821790925591518793918516917fddf252ad1be2c89b69c2b068fc378daa952ba7f163c4a11628f55a4df523b3ef91a4949350505050565b60608282036040519150602081830101604052808252508260208501016020820160005b848110156116b4578281015182820152602001613ab9565b6affffffffffffffffffffff811615613b7e576040516331a9108f60e11b81526affffffffffffffffffffff821660048201527f000000000000000000000000fa679f5ecdd8be404c1fbaa7f29aeb2b12f5b6626001600160a01b031690636352211e90602401602060405180830381865afa158015613b55573d6000803e3d6000fd5b505050506040513d601f19601f82011682018060405250810190613b799190615315565b613b80565b815b6001600160a01b0316836001600160a01b03167f8be0079c531659141344cd1fd0a4f28419497f9722a3daafe3b4186f6b6457e060405160405180910390a3505050565b6001613bd0838261549f565b506002610ee5828261549f565b60608151600003613bfc57505060408051600081526020810190915290565b60408051602e8082526105e08201909252600091602082016105c080368337019050509050600081600081518110613c3657613c36615186565b60ff90921660209283029190910190910152825160019060005b81811015613d51576000868281518110613c6c57613c6c615186565b016020015160f81c905060005b8460ff16811015613cf6576008868281518110613c9857613c98615186565b602002602001015160ff16901b82613cb091906159a8565b9150613cbd603a83615cea565b868281518110613ccf57613ccf615186565b60ff90921660209283029190910190910152613cec603a83615cfe565b9150600101613c79565b505b8015613d4857613d09603a82615cea565b858560ff1681518110613d1e57613d1e615186565b60ff90921660209283029190910190910152600190930192613d41603a82615cfe565b9050613cf8565b50600101613c50565b50613d6c613d67613d628585614020565b6140c8565b61416b565b95945050505050565b6000808060001985870985870292508281108382030391505080600003613daf57838281613da557613da5615cd4565b0492505050610fce565b838110613df9576040517f63a05778000000000000000000000000000000000000000000000000000000008152600481018790526024810186905260448101859052606401610e46565b60008486880960026001871981018816978890046003810283188082028403028082028403028082028403028082028403028082028403029081029092039091026000889003889004909101858311909403939093029303949094049190911702949350505050565b600a5460405163eaa19ab360e01b81526000916060916001600160a01b039091169063eaa19ab390613e9c90889088908790600401615d12565b6000604051808303816000875af1158015613ebb573d6000803e3d6000fd5b505050506040513d6000823e601f3d908101601f19168201604052613ee3919081019061543b565b81519093509091506000805b82811015613f9857838181518110613f0957613f09615186565b60200260200101519150613f1d8683612929565b856001600160a01b0316878281518110613f3957613f39615186565b602002602001015161ffff16837f598baf7bf150ca2f42be9e9f8f55e81d45f5715c3ff22bf46d697fabec7f31d68b613f706124ec565b604080519283526001600160a01b0390911660208301520160405180910390a4600101613eef565b505050509392505050565b613fae838383614245565b610ee5576001600160a01b038316613fdc57604051637e27328960e01b815260048101829052602401610e46565b6040517f177e802f0000000000000000000000000000000000000000000000000000000081526001600160a01b038316600482015260248101829052604401610e46565b606060008260ff1667ffffffffffffffff811115614040576140406146e0565b604051908082528060200260200182016040528015614069578160200160208202803683370190505b50905060005b8360ff168110156140c05784818151811061408c5761408c615186565b60200260200101518282815181106140a6576140a6615186565b60ff9092166020928302919091019091015260010161406f565b509392505050565b805160609060008167ffffffffffffffff8111156140e8576140e86146e0565b604051908082528060200260200182016040528015614111578160200160208202803683370190505b50905060005b828110156140c05784816001875103038151811061413757614137615186565b602002602001015182828151811061415157614151615186565b60ff90921660209283029190910190910152600101614117565b805160609060008167ffffffffffffffff81111561418b5761418b6146e0565b6040519080825280601f01601f1916602001820160405280156141b5576020820181803683370190505b50905060005b828110156140c0576040518060600160405280603a8152602001615d72603a91398582815181106141ee576141ee615186565b602002602001015160ff168151811061420957614209615186565b602001015160f81c60f81b82828151811061422657614226615186565b60200101906001600160f81b031916908160001a9053506001016141bb565b60006001600160a01b03831615801590611f285750826001600160a01b0316846001600160a01b0316148061429f57506001600160a01b0380851660009081526006602090815260408083209387168352929052205460ff165b80611f285750506000908152600560205260409020546001600160a01b03908116911614919050565b6001600160e01b03198116811461193c57600080fd5b6000602082840312156142f057600080fd5b8135610fce816142c8565b60005b838110156143165781810151838201526020016142fe565b50506000910152565b600081518084526143378160208601602086016142fb565b601f01601f19169290920160200192915050565b602081526000610fce602083018461431f565b60006020828403121561437057600080fd5b5035919050565b6001600160a01b038116811461193c57600080fd5b803561439781614377565b919050565b600080604083850312156143af57600080fd5b82356143ba81614377565b946020939093013593505050565b60008083601f8401126143da57600080fd5b50813567ffffffffffffffff8111156143f257600080fd5b602083019150836020828501011115612b7657600080fd5b600080600080600080600060a0888a03121561442557600080fd5b873567ffffffffffffffff8082111561443d57600080fd5b6144498b838c016143c8565b909950975060208a013591508082111561446257600080fd5b5061446f8a828b016143c8565b909650945050604088013561448381614377565b969995985093969295946060840135945060809093013592915050565b600080602083850312156144b357600080fd5b823567ffffffffffffffff808211156144cb57600080fd5b818501915085601f8301126144df57600080fd5b8135818111156144ee57600080fd5b8660208260061b850101111561450357600080fd5b60209290920196919550909350505050565b60008060006060848603121561452a57600080fd5b833561453581614377565b9250602084013561454581614377565b929592945050506040919091013590565b60006020828403121561456857600080fd5b813567ffffffffffffffff81111561457f57600080fd5b82016101808185031215610fce57600080fd5b6000604080830185845260206040818601528186518084526060935060608701915060608160051b88010183890160005b8381101561461357898303605f19018552815180516001600160a01b0316845286810151878501528801518884018890526146008885018261431f565b95870195935050908501906001016145c3565b50909a9950505050505050505050565b60006020828403121561463557600080fd5b8135610fce81614377565b6000806040838503121561465357600080fd5b50508035926020909101359150565b6000610200828403121561467557600080fd5b50919050565b60006020828403121561468d57600080fd5b813567ffffffffffffffff8111156146a457600080fd5b611f2884828501614662565b600080604083850312156146c357600080fd5b8235915060208301356146d581614377565b809150509250929050565b634e487b7160e01b600052604160045260246000fd5b6040516080810167ffffffffffffffff81118282101715614719576147196146e0565b60405290565b604051610180810167ffffffffffffffff81118282101715614719576147196146e0565b604051610120810167ffffffffffffffff81118282101715614719576147196146e0565b6040516101a0810167ffffffffffffffff81118282101715614719576147196146e0565b604051601f8201601f1916810167ffffffffffffffff811182821017156147b4576147b46146e0565b604052919050565b600067ffffffffffffffff8211156147d6576147d66146e0565b5060051b60200190565b60006101a0828403121561467557600080fd5b6000806040838503121561480657600080fd5b823567ffffffffffffffff8082111561481e57600080fd5b818501915085601f83011261483257600080fd5b81356020614847614842836147bc565b61478b565b82815260059290921b8401810191818101908984111561486657600080fd5b948201945b838610156148845785358252948201949082019061486b565b9650508601359250508082111561489a57600080fd5b506148a7858286016147e0565b9150509250929050565b60008083601f8401126148c357600080fd5b50813567ffffffffffffffff8111156148db57600080fd5b6020830191508360208260051b8501011115612b7657600080fd5b60008060006040848603121561490b57600080fd5b833567ffffffffffffffff81111561492257600080fd5b61492e868287016148b1565b909450925050602084013561494281614377565b809150509250925092565b60008151808452602080850194506020840160005b8381101561497e57815187529582019590820190600101614962565b509495945050505050565b602081526000610fce602083018461494d565b801515811461193c57600080fd5b80356143978161499c565b600080604083850312156149c857600080fd5b82356149d381614377565b915060208301356146d58161499c565b6000602082840312156149f557600080fd5b813567ffffffffffffffff811115614a0c57600080fd5b611f28848285016147e0565b60006080820186835260208681850152604086604086015260606080606087015283875180865260a08801915060a08160051b890101955084890160005b82811015614aa657898803609f19018452815180516001600160a01b0316895287810151888a0152860151868901869052614a93868a018261431f565b9850509286019290860190600101614a56565b50959c9b505050505050505050505050565b600067ffffffffffffffff821115614ad257614ad26146e0565b50601f01601f191660200190565b6000614aee61484284614ab8565b9050828152838383011115614b0257600080fd5b828260208301376000602084830101529392505050565b60008060008060808587031215614b2f57600080fd5b8435614b3a81614377565b93506020850135614b4a81614377565b925060408501359150606085013567ffffffffffffffff811115614b6d57600080fd5b8501601f81018713614b7e57600080fd5b614b8d87823560208401614ae0565b91505092959194509250565b600082601f830112614baa57600080fd5b610fce83833560208501614ae0565b80356cffffffffffffffffffffffffff8116811461439757600080fd5b803563ffffffff8116811461439757600080fd5b61ffff8116811461193c57600080fd5b803561439781614bea565b803562ffffff8116811461439757600080fd5b803560ff8116811461439757600080fd5b60006080808385031215614c3c57600080fd5b614c446146f6565b9150823567ffffffffffffffff811115614c5d57600080fd5b8301601f81018513614c6e57600080fd5b80356020614c7e614842836147bc565b8281526101809283028401820192828201919089851115614c9e57600080fd5b948301945b84861015614d915780868b031215614cbb5760008081fd5b614cc361471f565b614ccc87614bb9565b8152614cd9858801614bd6565b858201526040614cea818901614bd6565b908201526060614cfb888201614bfa565b90820152614d0a87890161438c565b8189015260a0878101359082015260c0614d25818901614c05565b9082015260e0614d368882016149aa565b90820152610100614d488882016149aa565b90820152610120614d5a8882016149aa565b90820152610140614d6c8882016149aa565b90820152610160614d7e8882016149aa565b9082015283529485019491830191614ca3565b50865250614da0868201614bd6565b8186015250505050614db460408301614c18565b6040820152614dc56060830161438c565b606082015292915050565b600060808284031215614de257600080fd5b614dea6146f6565b90508135614df78161499c565b81526020820135614e078161499c565b60208201526040820135614e1a8161499c565b60408201526060820135614dc58161499c565b6000806000806000806000806000806101a08b8d031215614e4d57600080fd5b8a35995060208b013567ffffffffffffffff80821115614e6c57600080fd5b614e788e838f01614b99565b9a5060408d0135915080821115614e8e57600080fd5b614e9a8e838f01614b99565b9950614ea860608e0161438c565b985060808d0135915080821115614ebe57600080fd5b614eca8e838f01614b99565b9750614ed860a08e0161438c565b965060c08d0135915080821115614eee57600080fd5b614efa8e838f01614b99565b955060e08d0135915080821115614f1057600080fd5b50614f1d8d828e01614c29565b935050614f2d6101008c0161438c565b9150614f3d8c6101208d01614dd0565b90509295989b9194979a5092959850565b600060208284031215614f6057600080fd5b610fce82614c18565b60008060408385031215614f7c57600080fd5b8235614f8781614377565b915060208301356146d581614377565b60008060008060408587031215614fad57600080fd5b843567ffffffffffffffff80821115614fc557600080fd5b818701915087601f830112614fd957600080fd5b813581811115614fe857600080fd5b88602061018083028501011115614ffe57600080fd5b60209283019650945090860135908082111561501957600080fd5b50615026878288016148b1565b95989497509550505050565b600181811c9082168061504657607f821691505b60208210810361467557634e487b7160e01b600052602260045260246000fd5b601f821115610ee5576000816000526020600020601f850160051c8101602086101561508f5750805b601f850160051c820191505b818110156150ae5782815560010161509b565b505050505050565b67ffffffffffffffff8311156150ce576150ce6146e0565b6150e2836150dc8354615032565b83615066565b6000601f84116001811461511657600085156150fe5750838201355b600019600387901b1c1916600186901b178355612c2f565b600083815260209020601f19861690835b828110156151475786850135825560209485019460019092019101615127565b50868210156151645760001960f88860031b161c19848701351681555b505060018560011b0183555050505050565b8183823760009101908152919050565b634e487b7160e01b600052603260045260246000fd5b6000604082840312156151ae57600080fd5b6040516040810181811067ffffffffffffffff821117156151d1576151d16146e0565b604052823581526020928301359281019290925250919050565b805161439781614377565b6000610120828403121561520957600080fd5b615211614743565b825181526020830151602082015260408301516040820152606083015160608201526080830151608082015260a083015160a082015260c083015160c082015261525d60e084016151eb565b60e0820152610100928301519281019290925250919050565b600082601f83011261528757600080fd5b81516020615297614842836147bc565b8083825260208201915060208460051b8701019350868411156152b957600080fd5b602086015b848110156152d557805183529183019183016152be565b509695505050505050565b6000602082840312156152f257600080fd5b815167ffffffffffffffff81111561530957600080fd5b611f2884828501615276565b60006020828403121561532757600080fd5b8151610fce81614377565b80516143978161499c565b60006020828403121561534f57600080fd5b8151610fce8161499c565b6000808335601e1984360301811261537157600080fd5b83018035915067ffffffffffffffff82111561538c57600080fd5b602001915036819003821315612b7657600080fd5b6001600160a01b0383168152604060208201526000611f28604083018461494d565b6000602082840312156153d557600080fd5b5051919050565b84815260606020808301829052908201849052600090859060808401835b8781101561542357833561540d81614bea565b61ffff16825292820192908201906001016153fa565b50809350505050821515604083015295945050505050565b6000806040838503121561544e57600080fd5b825167ffffffffffffffff81111561546557600080fd5b61547185828601615276565b925050602083015190509250929050565b60006020828403121561549457600080fd5b8135610fce81614bea565b815167ffffffffffffffff8111156154b9576154b96146e0565b6154cd816154c78454615032565b84615066565b602080601f83116001811461550257600084156154ea5750858301515b600019600386901b1c1916600185901b1785556150ae565b600085815260208120601f198616915b8281101561553157888601518255948401946001909101908401615512565b508582101561554f5787850151600019600388901b60f8161c191681555b5050505050600190811b01905550565b602080825282518282018190526000919060409081850190868401855b8281101561563f57815180516cffffffffffffffffffffffffff1685528681015163ffffffff9081168887015286820151168686015260608082015161ffff16908601526080808201516001600160a01b03169086015260a0808201519086015260c08082015162ffffff169086015260e08082015115159086015261010080820151151590860152610120808201511515908601526101408082015115159086015261016090810151151590850152610180909301929085019060010161557c565b5091979650505050505050565b600082601f83011261565d57600080fd5b815161566b61484282614ab8565b81815284602083860101111561568057600080fd5b611f288260208301602087016142fb565b6000602082840312156156a357600080fd5b815167ffffffffffffffff8111156156ba57600080fd5b611f288482850161564c565b6020815281602082015260007f07ffffffffffffffffffffffffffffffffffffffffffffffffffffffffffffff8311156156ff57600080fd5b8260051b80856040850137919091016040019392505050565b6157388261572583614bb9565b6cffffffffffffffffffffffffff169052565b61574460208201614bd6565b63ffffffff16602083015261575b60408201614bd6565b63ffffffff16604083015261577260608201614bfa565b61ffff1660608301526157876080820161438c565b6001600160a01b0316608083015260a081810135908301526157ab60c08201614c05565b62ffffff1660c08301526157c160e082016149aa565b151560e08301526101006157d68282016149aa565b1515908301526101206157ea8282016149aa565b1515908301526101406157fe8282016149aa565b1515908301526101606158128282016149aa565b80151584830152610e1a565b6020808252810182905260008360408301825b85811015615857576158438284615718565b610180928301929190910190600101615831565b5095945050505050565b6101a081016158708285615718565b6001600160a01b0383166101808301529392505050565b60006020828403121561589957600080fd5b815167ffffffffffffffff808211156158b157600080fd5b908301906101a082860312156158c657600080fd5b6158ce614767565b825181526020830151602082015260408301516040820152606083015160608201526080830151608082015260a083015160a082015261591060c084016151eb565b60c082015260e083015160e0820152610100808401518183015250610120615939818501615332565b9082015261014061594b848201615332565b9082015261016061595d848201615332565b90820152610180838101518381111561597557600080fd5b6159818882870161564c565b918301919091525095945050505050565b634e487b7160e01b600052601160045260246000fd5b80820180821115610a5557610a55615992565b8082028115828204841417610a5557610a55615992565b60006001600160a01b03808716835280861660208401525083604083015260806060830152615a04608083018461431f565b9695505050505050565b600060208284031215615a2057600080fd5b8151610fce816142c8565b60008351615a3d8184602088016142fb565b835190830190615a518183602088016142fb565b01949350505050565b600181815b80851115615a95578160001904821115615a7b57615a7b615992565b80851615615a8857918102915b93841c9390800290615a5f565b509250929050565b600082615aac57506001610a55565b81615ab957506000610a55565b8160018114615acf5760028114615ad957615af5565b6001915050610a55565b60ff841115615aea57615aea615992565b50506001821b610a55565b5060208310610133831016604e8410600b8410161715615b18575081810a610a55565b615b228383615a5a565b8060001904821115615b3657615b36615992565b029392505050565b6000610fce8383615a9d565b60008060408385031215615b5d57600080fd5b8251615b688161499c565b8092505060208084015167ffffffffffffffff811115615b8757600080fd5b8401601f81018613615b9857600080fd5b8051615ba6614842826147bc565b81815260059190911b82018301908381019088831115615bc557600080fd5b928401925b82841015615bec578351615bdd81614bea565b82529284019290840190615bca565b80955050505050509250929050565b600060808284031215615c0d57600080fd5b615c156146f6565b8251615c208161499c565b81526020830151615c308161499c565b60208201526040830151615c438161499c565b60408201526060830151615c568161499c565b60608201529392505050565b81810381811115610a5557610a55615992565b60008085851115615c8557600080fd5b83861115615c9257600080fd5b5050820193919092039150565b6bffffffffffffffffffffffff198135818116916014851015615ccc5780818660140360031b1b83161692505b505092915050565b634e487b7160e01b600052601260045260246000fd5b600082615cf957615cf9615cd4565b500690565b600082615d0d57615d0d615cd4565b500490565b60006060820185835260206060602085015281865180845260808601915060208801935060005b81811015615d5957845161ffff1683529383019391830191600101615d39565b5050809350505050821515604083015294935050505056fe31323334353637383941424344454647484a4b4c4d4e505152535455565758595a6162636465666768696a6b6d6e6f707172737475767778797aa26469706673582212202500f1d3fcf8a0be51cffd6343cd30af7b3f1344a9159cc3f8044fc176fd2fec64736f6c63430008170033",
			"devdoc": {
				"kind": "dev",
				"methods": {
					"adjustTiers((uint104,uint32,uint32,uint16,address,bytes32,uint24,bool,bool,bool,bool,bool)[],uint256[])": {
						"details": "Only the contract's owner or an operator with the `ADJUST_TIERS` permission from the owner can adjust the tiers.Any added tiers must adhere to this hook's `JB721TiersHookFlags`.",
						"params": {
							"tierIdsToRemove": "The tiers to remove, as an array of tier IDs.",
							"tiersToAdd": "The tiers to add, as an array of `JB721TierConfig` structs`."
						}
					},
					"afterPayRecordedWith((address,uint256,uint256,(address,uint256,uint256,uint256),(address,uint256,uint256,uint256),uint256,uint256,address,bytes,bytes))": {
						"details": "Reverts if the calling contract is not one of the project's terminals.",
						"params": {
							"context": "The payment context passed in by the terminal."
						}
					},
					"afterRedeemRecordedWith((address,uint256,uint256,uint256,(address,uint256,uint256,uint256),(address,uint256,uint256,uint256),uint256,address,bytes,bytes))": {
						"details": "Reverts if the calling contract is not one of the project's terminals.",
						"params": {
							"context": "The redemption context passed in by the terminal."
						}
					},
					"approve(address,uint256)": {
						"details": "See {IERC721-approve}."
					},
					"balanceOf(address)": {
						"params": {
							"owner": "The address to check the balance of."
						},
						"returns": {
							"balance": "The number of NFTs the address owns across this hook's tiers."
						}
					},
					"beforePayRecordedWith((address,address,(address,uint256,uint256,uint256),uint256,uint256,address,uint256,uint256,bytes))": {
						"details": "Sets this contract as the pay hook. Part of `IJBRulesetDataHook`.",
						"params": {
							"context": "The payment context passed to this contract by the `pay(...)` function."
						},
						"returns": {
							"hookSpecifications": "The amount and data to send to pay hooks (this contract) instead of adding to the terminal's balance.",
							"weight": "The new `weight` to use, overriding the ruleset's `weight`."
						}
					},
					"beforeRedeemRecordedWith((address,address,uint256,uint256,uint256,uint256,(address,uint256,uint256,uint256),bool,uint256,bytes))": {
						"details": "Sets this contract as the redeem hook. Part of `IJBRulesetDataHook`.This function is used for NFT redemptions, and will only be called if the project's ruleset has `useDataHookForRedeem` set to `true`.",
						"params": {
							"context": "The redemption context passed to this contract by the `redeemTokensOf(...)` function."
						},
						"returns": {
							"hookSpecifications": "The amount and data to send to redeem hooks (this contract) instead of returning to the beneficiary.",
							"redeemCount": "The amount of tokens that should be considered redeemed.",
							"redemptionRate": "The redemption rate influencing the reclaim amount.",
							"totalSupply": "The total amount of tokens that are considered to be existing."
						}
					},
					"constructor": {
						"params": {
							"directory": "A directory of terminals and controllers for projects.",
							"permissions": "A contract storing permissions.",
							"trustedForwarder": "The trusted forwarder for the ERC2771Context."
						}
					},
					"firstOwnerOf(uint256)": {
						"details": "This is generally the address which paid for the NFT.",
						"params": {
							"tokenId": "The token ID of the NFT to get the first owner of."
						},
						"returns": {
							"_0": "The address of the NFT's first owner."
						}
					},
					"getApproved(uint256)": {
						"details": "See {IERC721-getApproved}."
					},
					"initialize(uint256,string,string,address,string,address,string,((uint104,uint32,uint32,uint16,address,bytes32,uint24,bool,bool,bool,bool,bool)[],uint32,uint8,address),address,(bool,bool,bool,bool))": {
						"params": {
							"baseUri": "The URI to use as a base for full NFT `tokenUri`s.",
							"contractUri": "A URI where this contract's metadata can be found.",
							"flags": "A set of additional options which dictate how the hook behaves.",
							"name": "The name of the NFT collection.",
							"projectId": "The ID of the project this this hook is associated with.",
							"rulesets": "A contract storing and managing project rulesets.",
							"store": "The contract which stores the NFT's data.",
							"symbol": "The symbol representing the NFT collection.",
							"tiersConfig": "The NFT tiers and pricing context to initialize the hook with. The tiers must be sorted by price (from least to greatest).",
							"tokenUriResolver": "An optional contract responsible for resolving the token URI for each NFT's token ID."
						}
					},
					"isApprovedForAll(address,address)": {
						"details": "See {IERC721-isApprovedForAll}."
					},
					"isTrustedForwarder(address)": {
						"details": "Indicates whether any particular address is the trusted forwarder."
					},
					"mintFor(uint16[],address)": {
						"params": {
							"beneficiary": "The address to mint to.",
							"tierIds": "The IDs of the tiers to mint from."
						},
						"returns": {
							"tokenIds": "The IDs of the newly minted tokens."
						}
					},
					"mintPendingReservesFor((uint256,uint256)[])": {
						"details": "\"Pending\" means that the NFTs have been reserved, but have not been minted yet.",
						"params": {
							"reserveMintConfigs": "Contains information about how many reserved tokens to mint for each tier."
						}
					},
					"mintPendingReservesFor(uint256,uint256)": {
						"details": "\"Pending\" means that the NFTs have been reserved, but have not been minted yet.",
						"params": {
							"count": "The number of reserved NFTs to mint.",
							"tierId": "The ID of the tier to mint reserved NFTs from."
						}
					},
					"name()": {
						"details": "See {IERC721Metadata-name}."
					},
					"ownerOf(uint256)": {
						"details": "See {IERC721-ownerOf}."
					},
					"pricingContext()": {
						"details": "If the `prices` contract is the zero address, this contract only accepts payments in the `currency` token.",
						"returns": {
							"currency": "The currency used for tier prices.",
							"decimals": "The amount of decimals being used in tier prices.",
							"prices": "The prices contract used to resolve the value of payments in currencies other than `currency`."
						}
					},
					"redemptionWeightOf(uint256[],(address,address,uint256,uint256,uint256,uint256,(address,uint256,uint256,uint256),bool,uint256,bytes))": {
						"details": "An NFT's redemption weight is its price.To get their relative redemption weight, divide the result by the `totalRedemptionWeight(...)`.",
						"params": {
							"tokenIds": "The token IDs of the NFTs to get the cumulative redemption weight of."
						},
						"returns": {
							"_0": "weight The redemption weight of the tokenIds."
						}
					},
					"safeTransferFrom(address,address,uint256)": {
						"details": "See {IERC721-safeTransferFrom}."
					},
					"safeTransferFrom(address,address,uint256,bytes)": {
						"details": "See {IERC721-safeTransferFrom}."
					},
					"setApprovalForAll(address,bool)": {
						"details": "See {IERC721-setApprovalForAll}."
					},
					"setMetadata(string,string,address,uint256,bytes32)": {
						"details": "Only this contract's owner can set the metadata.",
						"params": {
							"baseUri": "The new base URI.",
							"contractUri": "The new contract URI.",
							"encodedIPFSTUriTierId": "The ID of the tier to set the encoded IPFS URI of.",
							"encodedIPFSUri": "The encoded IPFS URI to set.",
							"tokenUriResolver": "The new URI resolver."
						}
					},
					"setPermissionId(uint8)": {
						"params": {
							"permissionId": "The ID of the permission to use for `onlyOwner`."
						}
					},
					"supportsInterface(bytes4)": {
						"details": "See {IERC165-supportsInterface}.",
						"params": {
							"interfaceId": "The ID of the interface to check for adherence to."
						}
					},
					"symbol()": {
						"details": "See {IERC721Metadata-symbol}."
					},
					"tokenURI(uint256)": {
						"details": "Defers to the `tokenUriResolver` if it is set. Otherwise, use the `tokenUri` corresponding with the NFT's tier.",
						"params": {
							"tokenId": "The token ID of the NFT to get the metadata URI of."
						},
						"returns": {
							"_0": "The token URI from the `tokenUriResolver` if it is set. If it isn't set, the token URI for the NFT's tier."
						}
					},
					"totalRedemptionWeight((address,address,uint256,uint256,uint256,uint256,(address,uint256,uint256,uint256),bool,uint256,bytes))": {
						"details": "An NFT's redemption weight is its price.",
						"returns": {
							"_0": "weight The total redemption weight."
						}
					},
					"transferFrom(address,address,uint256)": {
						"details": "See {IERC721-transferFrom}."
					},
					"transferOwnership(address)": {
						"params": {
							"newOwner": "The address that should receive ownership of this contract."
						}
					},
					"transferOwnershipToProject(uint256)": {
						"details": "The `projectId` must fit within a `uint88`.",
						"params": {
							"projectId": "The ID of the project that should receive ownership of this contract."
						}
					},
					"trustedForwarder()": {
						"details": "Returns the address of the trusted forwarder."
					}
				},
				"version": 1
			},
			"userdoc": {
				"kind": "user",
				"methods": {
					"DIRECTORY()": {
						"notice": "The directory of terminals and controllers for projects."
					},
					"METADATA_ID_TARGET()": {
						"notice": "The ID used when parsing metadata."
					},
					"PERMISSIONS()": {
						"notice": "A contract storing permissions."
					},
					"PROJECTS()": {
						"notice": "Mints ERC-721s that represent project ownership and transfers."
					},
					"PROJECT_ID()": {
						"notice": "The ID of the project that this contract is associated with."
					},
					"RULESETS()": {
						"notice": "The contract storing and managing project rulesets."
					},
					"STORE()": {
						"notice": "The contract that stores and manages data for this contract's NFTs."
					},
					"adjustTiers((uint104,uint32,uint32,uint16,address,bytes32,uint24,bool,bool,bool,bool,bool)[],uint256[])": {
						"notice": "Add or delete tiers."
					},
					"afterPayRecordedWith((address,uint256,uint256,(address,uint256,uint256,uint256),(address,uint256,uint256,uint256),uint256,uint256,address,bytes,bytes))": {
						"notice": "Mints one or more NFTs to the `context.benficiary` upon payment if conditions are met. Part of `IJBPayHook`."
					},
					"afterRedeemRecordedWith((address,uint256,uint256,uint256,(address,uint256,uint256,uint256),(address,uint256,uint256,uint256),uint256,address,bytes,bytes))": {
						"notice": "Burns the specified NFTs upon token holder redemption, reclaiming funds from the project's balance for `context.beneficiary`. Part of `IJBRedeemHook`."
					},
					"balanceOf(address)": {
						"notice": "The total number of this hook's NFTs that an address holds (from all tiers)."
					},
					"baseURI()": {
						"notice": "The base URI for the NFT `tokenUris`."
					},
					"beforePayRecordedWith((address,address,(address,uint256,uint256,uint256),uint256,uint256,address,uint256,uint256,bytes))": {
						"notice": "The data calculated before a payment is recorded in the terminal store. This data is provided to the terminal's `pay(...)` transaction."
					},
					"beforeRedeemRecordedWith((address,address,uint256,uint256,uint256,uint256,(address,uint256,uint256,uint256),bool,uint256,bytes))": {
						"notice": "The data calculated before a redemption is recorded in the terminal store. This data is provided to the terminal's `redeemTokensOf(...)` transaction."
					},
					"contractURI()": {
						"notice": "This contract's metadata URI."
					},
					"firstOwnerOf(uint256)": {
						"notice": "The first owner of an NFT."
					},
					"hasMintPermissionFor(uint256,address)": {
						"notice": "Required by the IJBRulesetDataHook interfaces. Return false to not leak any permissions."
					},
					"initialize(uint256,string,string,address,string,address,string,((uint104,uint32,uint32,uint16,address,bytes32,uint24,bool,bool,bool,bool,bool)[],uint32,uint8,address),address,(bool,bool,bool,bool))": {
						"notice": "Initializes a cloned copy of the original `JB721Hook` contract."
					},
					"jbOwner()": {
						"notice": "This contract's owner information."
					},
					"mintFor(uint16[],address)": {
						"notice": "Manually mint NFTs from the provided tiers ."
					},
					"mintPendingReservesFor((uint256,uint256)[])": {
						"notice": "Mint pending reserved NFTs based on the provided information."
					},
					"mintPendingReservesFor(uint256,uint256)": {
						"notice": "Mint reserved pending reserved NFTs within the provided tier."
					},
					"owner()": {
						"notice": "Returns the owner's address based on this contract's `JBOwner` owner information."
					},
					"payCreditsOf(address)": {
						"notice": "If an address pays more than the price of the NFT they received, the extra amount is stored as credits which can be redeemed to mint NFTs."
					},
					"pricingContext()": {
						"notice": "Context for the pricing of this hook's tiers."
					},
					"redemptionWeightOf(uint256[],(address,address,uint256,uint256,uint256,uint256,(address,uint256,uint256,uint256),bool,uint256,bytes))": {
						"notice": "The combined redemption weight of the NFTs with the specified token IDs."
					},
					"renounceOwnership()": {
						"notice": "Gives up ownership of this contract, making it impossible to call `onlyOwner`/`_checkOwner` functions. Can only be called by the current owner."
					},
					"setMetadata(string,string,address,uint256,bytes32)": {
						"notice": "Update this hook's URI metadata properties."
					},
					"setPermissionId(uint8)": {
						"notice": "Sets the permission ID which, when granted from the owner, allows other addresses to perform operations on their behalf."
					},
					"supportsInterface(bytes4)": {
						"notice": "Indicates if this contract adheres to the specified interface."
					},
					"tokenURI(uint256)": {
						"notice": "The metadata URI of the NFT with the specified token ID."
					},
					"totalRedemptionWeight((address,address,uint256,uint256,uint256,uint256,(address,uint256,uint256,uint256),bool,uint256,bytes))": {
						"notice": "The combined redemption weight of all outstanding NFTs."
					},
					"transferOwnership(address)": {
						"notice": "Transfers ownership of this contract to a new account (the `newOwner`). Can only be called by the current owner."
					},
					"transferOwnershipToProject(uint256)": {
						"notice": "Transfer ownership of this contract to a new Juicebox project."
					}
				},
				"version": 1
			},
			"gitCommit": "7cd9386d18054eea5868b73e2020f354d1964621",
			"sourceName": "src/JB721TiersHook.sol",
			"chainId": "11155111",
			"linkReferences": {},
			"deployedLinkReferences": {}
		},
		{
			"_format": "sphinx-sol-ct-artifact-1",
			"merkleRoot": "0xb0a2f35b7b91c0300e1a2ec6d4a6168edf36825dd79df224704252849165ffd5",
			"contractName": "JB721TiersHook",
			"address": "0xF6897B40515AE4E66aCD58aabB76ac143E833C6d",
			"abi": [
				{
					"type": "constructor",
					"inputs": [
						{
							"name": "directory",
							"type": "address",
							"internalType": "contract IJBDirectory"
						},
						{
							"name": "permissions",
							"type": "address",
							"internalType": "contract IJBPermissions"
						},
						{
							"name": "trustedForwarder",
							"type": "address",
							"internalType": "address"
						}
					],
					"stateMutability": "nonpayable"
				},
				{
					"type": "function",
					"name": "DIRECTORY",
					"inputs": [],
					"outputs": [
						{
							"name": "",
							"type": "address",
							"internalType": "contract IJBDirectory"
						}
					],
					"stateMutability": "view"
				},
				{
					"type": "function",
					"name": "METADATA_ID_TARGET",
					"inputs": [],
					"outputs": [
						{
							"name": "",
							"type": "address",
							"internalType": "address"
						}
					],
					"stateMutability": "view"
				},
				{
					"type": "function",
					"name": "PERMISSIONS",
					"inputs": [],
					"outputs": [
						{
							"name": "",
							"type": "address",
							"internalType": "contract IJBPermissions"
						}
					],
					"stateMutability": "view"
				},
				{
					"type": "function",
					"name": "PROJECTS",
					"inputs": [],
					"outputs": [
						{
							"name": "",
							"type": "address",
							"internalType": "contract IJBProjects"
						}
					],
					"stateMutability": "view"
				},
				{
					"type": "function",
					"name": "RULESETS",
					"inputs": [],
					"outputs": [
						{
							"name": "",
							"type": "address",
							"internalType": "contract IJBRulesets"
						}
					],
					"stateMutability": "view"
				},
				{
					"type": "function",
					"name": "STORE",
					"inputs": [],
					"outputs": [
						{
							"name": "",
							"type": "address",
							"internalType": "contract IJB721TiersHookStore"
						}
					],
					"stateMutability": "view"
				},
				{
					"type": "function",
					"name": "adjustTiers",
					"inputs": [
						{
							"name": "tiersToAdd",
							"type": "tuple[]",
							"internalType": "struct JB721TierConfig[]",
							"components": [
								{
									"name": "price",
									"type": "uint104",
									"internalType": "uint104"
								},
								{
									"name": "initialSupply",
									"type": "uint32",
									"internalType": "uint32"
								},
								{
									"name": "votingUnits",
									"type": "uint32",
									"internalType": "uint32"
								},
								{
									"name": "reserveFrequency",
									"type": "uint16",
									"internalType": "uint16"
								},
								{
									"name": "reserveBeneficiary",
									"type": "address",
									"internalType": "address"
								},
								{
									"name": "encodedIPFSUri",
									"type": "bytes32",
									"internalType": "bytes32"
								},
								{
									"name": "category",
									"type": "uint24",
									"internalType": "uint24"
								},
								{
									"name": "allowOwnerMint",
									"type": "bool",
									"internalType": "bool"
								},
								{
									"name": "useReserveBeneficiaryAsDefault",
									"type": "bool",
									"internalType": "bool"
								},
								{
									"name": "transfersPausable",
									"type": "bool",
									"internalType": "bool"
								},
								{
									"name": "useVotingUnits",
									"type": "bool",
									"internalType": "bool"
								},
								{
									"name": "cannotBeRemoved",
									"type": "bool",
									"internalType": "bool"
								}
							]
						},
						{
							"name": "tierIdsToRemove",
							"type": "uint256[]",
							"internalType": "uint256[]"
						}
					],
					"outputs": [],
					"stateMutability": "nonpayable"
				},
				{
					"type": "function",
					"name": "afterPayRecordedWith",
					"inputs": [
						{
							"name": "context",
							"type": "tuple",
							"internalType": "struct JBAfterPayRecordedContext",
							"components": [
								{
									"name": "payer",
									"type": "address",
									"internalType": "address"
								},
								{
									"name": "projectId",
									"type": "uint256",
									"internalType": "uint256"
								},
								{
									"name": "rulesetId",
									"type": "uint256",
									"internalType": "uint256"
								},
								{
									"name": "amount",
									"type": "tuple",
									"internalType": "struct JBTokenAmount",
									"components": [
										{
											"name": "token",
											"type": "address",
											"internalType": "address"
										},
										{
											"name": "value",
											"type": "uint256",
											"internalType": "uint256"
										},
										{
											"name": "decimals",
											"type": "uint256",
											"internalType": "uint256"
										},
										{
											"name": "currency",
											"type": "uint256",
											"internalType": "uint256"
										}
									]
								},
								{
									"name": "forwardedAmount",
									"type": "tuple",
									"internalType": "struct JBTokenAmount",
									"components": [
										{
											"name": "token",
											"type": "address",
											"internalType": "address"
										},
										{
											"name": "value",
											"type": "uint256",
											"internalType": "uint256"
										},
										{
											"name": "decimals",
											"type": "uint256",
											"internalType": "uint256"
										},
										{
											"name": "currency",
											"type": "uint256",
											"internalType": "uint256"
										}
									]
								},
								{
									"name": "weight",
									"type": "uint256",
									"internalType": "uint256"
								},
								{
									"name": "projectTokenCount",
									"type": "uint256",
									"internalType": "uint256"
								},
								{
									"name": "beneficiary",
									"type": "address",
									"internalType": "address"
								},
								{
									"name": "hookMetadata",
									"type": "bytes",
									"internalType": "bytes"
								},
								{
									"name": "payerMetadata",
									"type": "bytes",
									"internalType": "bytes"
								}
							]
						}
					],
					"outputs": [],
					"stateMutability": "payable"
				},
				{
					"type": "function",
					"name": "afterRedeemRecordedWith",
					"inputs": [
						{
							"name": "context",
							"type": "tuple",
							"internalType": "struct JBAfterRedeemRecordedContext",
							"components": [
								{
									"name": "holder",
									"type": "address",
									"internalType": "address"
								},
								{
									"name": "projectId",
									"type": "uint256",
									"internalType": "uint256"
								},
								{
									"name": "rulesetId",
									"type": "uint256",
									"internalType": "uint256"
								},
								{
									"name": "redeemCount",
									"type": "uint256",
									"internalType": "uint256"
								},
								{
									"name": "reclaimedAmount",
									"type": "tuple",
									"internalType": "struct JBTokenAmount",
									"components": [
										{
											"name": "token",
											"type": "address",
											"internalType": "address"
										},
										{
											"name": "value",
											"type": "uint256",
											"internalType": "uint256"
										},
										{
											"name": "decimals",
											"type": "uint256",
											"internalType": "uint256"
										},
										{
											"name": "currency",
											"type": "uint256",
											"internalType": "uint256"
										}
									]
								},
								{
									"name": "forwardedAmount",
									"type": "tuple",
									"internalType": "struct JBTokenAmount",
									"components": [
										{
											"name": "token",
											"type": "address",
											"internalType": "address"
										},
										{
											"name": "value",
											"type": "uint256",
											"internalType": "uint256"
										},
										{
											"name": "decimals",
											"type": "uint256",
											"internalType": "uint256"
										},
										{
											"name": "currency",
											"type": "uint256",
											"internalType": "uint256"
										}
									]
								},
								{
									"name": "redemptionRate",
									"type": "uint256",
									"internalType": "uint256"
								},
								{
									"name": "beneficiary",
									"type": "address",
									"internalType": "address payable"
								},
								{
									"name": "hookMetadata",
									"type": "bytes",
									"internalType": "bytes"
								},
								{
									"name": "redeemerMetadata",
									"type": "bytes",
									"internalType": "bytes"
								}
							]
						}
					],
					"outputs": [],
					"stateMutability": "payable"
				},
				{
					"type": "function",
					"name": "approve",
					"inputs": [
						{
							"name": "to",
							"type": "address",
							"internalType": "address"
						},
						{
							"name": "tokenId",
							"type": "uint256",
							"internalType": "uint256"
						}
					],
					"outputs": [],
					"stateMutability": "nonpayable"
				},
				{
					"type": "function",
					"name": "balanceOf",
					"inputs": [
						{
							"name": "owner",
							"type": "address",
							"internalType": "address"
						}
					],
					"outputs": [
						{
							"name": "balance",
							"type": "uint256",
							"internalType": "uint256"
						}
					],
					"stateMutability": "view"
				},
				{
					"type": "function",
					"name": "baseURI",
					"inputs": [],
					"outputs": [
						{
							"name": "",
							"type": "string",
							"internalType": "string"
						}
					],
					"stateMutability": "view"
				},
				{
					"type": "function",
					"name": "beforePayRecordedWith",
					"inputs": [
						{
							"name": "context",
							"type": "tuple",
							"internalType": "struct JBBeforePayRecordedContext",
							"components": [
								{
									"name": "terminal",
									"type": "address",
									"internalType": "address"
								},
								{
									"name": "payer",
									"type": "address",
									"internalType": "address"
								},
								{
									"name": "amount",
									"type": "tuple",
									"internalType": "struct JBTokenAmount",
									"components": [
										{
											"name": "token",
											"type": "address",
											"internalType": "address"
										},
										{
											"name": "value",
											"type": "uint256",
											"internalType": "uint256"
										},
										{
											"name": "decimals",
											"type": "uint256",
											"internalType": "uint256"
										},
										{
											"name": "currency",
											"type": "uint256",
											"internalType": "uint256"
										}
									]
								},
								{
									"name": "projectId",
									"type": "uint256",
									"internalType": "uint256"
								},
								{
									"name": "rulesetId",
									"type": "uint256",
									"internalType": "uint256"
								},
								{
									"name": "beneficiary",
									"type": "address",
									"internalType": "address"
								},
								{
									"name": "weight",
									"type": "uint256",
									"internalType": "uint256"
								},
								{
									"name": "reservedRate",
									"type": "uint256",
									"internalType": "uint256"
								},
								{
									"name": "metadata",
									"type": "bytes",
									"internalType": "bytes"
								}
							]
						}
					],
					"outputs": [
						{
							"name": "weight",
							"type": "uint256",
							"internalType": "uint256"
						},
						{
							"name": "hookSpecifications",
							"type": "tuple[]",
							"internalType": "struct JBPayHookSpecification[]",
							"components": [
								{
									"name": "hook",
									"type": "address",
									"internalType": "contract IJBPayHook"
								},
								{
									"name": "amount",
									"type": "uint256",
									"internalType": "uint256"
								},
								{
									"name": "metadata",
									"type": "bytes",
									"internalType": "bytes"
								}
							]
						}
					],
					"stateMutability": "view"
				},
				{
					"type": "function",
					"name": "beforeRedeemRecordedWith",
					"inputs": [
						{
							"name": "context",
							"type": "tuple",
							"internalType": "struct JBBeforeRedeemRecordedContext",
							"components": [
								{
									"name": "terminal",
									"type": "address",
									"internalType": "address"
								},
								{
									"name": "holder",
									"type": "address",
									"internalType": "address"
								},
								{
									"name": "projectId",
									"type": "uint256",
									"internalType": "uint256"
								},
								{
									"name": "rulesetId",
									"type": "uint256",
									"internalType": "uint256"
								},
								{
									"name": "redeemCount",
									"type": "uint256",
									"internalType": "uint256"
								},
								{
									"name": "totalSupply",
									"type": "uint256",
									"internalType": "uint256"
								},
								{
									"name": "surplus",
									"type": "tuple",
									"internalType": "struct JBTokenAmount",
									"components": [
										{
											"name": "token",
											"type": "address",
											"internalType": "address"
										},
										{
											"name": "value",
											"type": "uint256",
											"internalType": "uint256"
										},
										{
											"name": "decimals",
											"type": "uint256",
											"internalType": "uint256"
										},
										{
											"name": "currency",
											"type": "uint256",
											"internalType": "uint256"
										}
									]
								},
								{
									"name": "useTotalSurplus",
									"type": "bool",
									"internalType": "bool"
								},
								{
									"name": "redemptionRate",
									"type": "uint256",
									"internalType": "uint256"
								},
								{
									"name": "metadata",
									"type": "bytes",
									"internalType": "bytes"
								}
							]
						}
					],
					"outputs": [
						{
							"name": "redemptionRate",
							"type": "uint256",
							"internalType": "uint256"
						},
						{
							"name": "redeemCount",
							"type": "uint256",
							"internalType": "uint256"
						},
						{
							"name": "totalSupply",
							"type": "uint256",
							"internalType": "uint256"
						},
						{
							"name": "hookSpecifications",
							"type": "tuple[]",
							"internalType": "struct JBRedeemHookSpecification[]",
							"components": [
								{
									"name": "hook",
									"type": "address",
									"internalType": "contract IJBRedeemHook"
								},
								{
									"name": "amount",
									"type": "uint256",
									"internalType": "uint256"
								},
								{
									"name": "metadata",
									"type": "bytes",
									"internalType": "bytes"
								}
							]
						}
					],
					"stateMutability": "view"
				},
				{
					"type": "function",
					"name": "contractURI",
					"inputs": [],
					"outputs": [
						{
							"name": "",
							"type": "string",
							"internalType": "string"
						}
					],
					"stateMutability": "view"
				},
				{
					"type": "function",
					"name": "firstOwnerOf",
					"inputs": [
						{
							"name": "tokenId",
							"type": "uint256",
							"internalType": "uint256"
						}
					],
					"outputs": [
						{
							"name": "",
							"type": "address",
							"internalType": "address"
						}
					],
					"stateMutability": "view"
				},
				{
					"type": "function",
					"name": "getApproved",
					"inputs": [
						{
							"name": "tokenId",
							"type": "uint256",
							"internalType": "uint256"
						}
					],
					"outputs": [
						{
							"name": "",
							"type": "address",
							"internalType": "address"
						}
					],
					"stateMutability": "view"
				},
				{
					"type": "function",
					"name": "hasMintPermissionFor",
					"inputs": [
						{
							"name": "",
							"type": "uint256",
							"internalType": "uint256"
						},
						{
							"name": "",
							"type": "address",
							"internalType": "address"
						}
					],
					"outputs": [
						{
							"name": "",
							"type": "bool",
							"internalType": "bool"
						}
					],
					"stateMutability": "pure"
				},
				{
					"type": "function",
					"name": "initialize",
					"inputs": [
						{
							"name": "projectId",
							"type": "uint256",
							"internalType": "uint256"
						},
						{
							"name": "name",
							"type": "string",
							"internalType": "string"
						},
						{
							"name": "symbol",
							"type": "string",
							"internalType": "string"
						},
						{
							"name": "rulesets",
							"type": "address",
							"internalType": "contract IJBRulesets"
						},
						{
							"name": "baseUri",
							"type": "string",
							"internalType": "string"
						},
						{
							"name": "tokenUriResolver",
							"type": "address",
							"internalType": "contract IJB721TokenUriResolver"
						},
						{
							"name": "contractUri",
							"type": "string",
							"internalType": "string"
						},
						{
							"name": "tiersConfig",
							"type": "tuple",
							"internalType": "struct JB721InitTiersConfig",
							"components": [
								{
									"name": "tiers",
									"type": "tuple[]",
									"internalType": "struct JB721TierConfig[]",
									"components": [
										{
											"name": "price",
											"type": "uint104",
											"internalType": "uint104"
										},
										{
											"name": "initialSupply",
											"type": "uint32",
											"internalType": "uint32"
										},
										{
											"name": "votingUnits",
											"type": "uint32",
											"internalType": "uint32"
										},
										{
											"name": "reserveFrequency",
											"type": "uint16",
											"internalType": "uint16"
										},
										{
											"name": "reserveBeneficiary",
											"type": "address",
											"internalType": "address"
										},
										{
											"name": "encodedIPFSUri",
											"type": "bytes32",
											"internalType": "bytes32"
										},
										{
											"name": "category",
											"type": "uint24",
											"internalType": "uint24"
										},
										{
											"name": "allowOwnerMint",
											"type": "bool",
											"internalType": "bool"
										},
										{
											"name": "useReserveBeneficiaryAsDefault",
											"type": "bool",
											"internalType": "bool"
										},
										{
											"name": "transfersPausable",
											"type": "bool",
											"internalType": "bool"
										},
										{
											"name": "useVotingUnits",
											"type": "bool",
											"internalType": "bool"
										},
										{
											"name": "cannotBeRemoved",
											"type": "bool",
											"internalType": "bool"
										}
									]
								},
								{
									"name": "currency",
									"type": "uint32",
									"internalType": "uint32"
								},
								{
									"name": "decimals",
									"type": "uint8",
									"internalType": "uint8"
								},
								{
									"name": "prices",
									"type": "address",
									"internalType": "contract IJBPrices"
								}
							]
						},
						{
							"name": "store",
							"type": "address",
							"internalType": "contract IJB721TiersHookStore"
						},
						{
							"name": "flags",
							"type": "tuple",
							"internalType": "struct JB721TiersHookFlags",
							"components": [
								{
									"name": "noNewTiersWithReserves",
									"type": "bool",
									"internalType": "bool"
								},
								{
									"name": "noNewTiersWithVotes",
									"type": "bool",
									"internalType": "bool"
								},
								{
									"name": "noNewTiersWithOwnerMinting",
									"type": "bool",
									"internalType": "bool"
								},
								{
									"name": "preventOverspending",
									"type": "bool",
									"internalType": "bool"
								}
							]
						}
					],
					"outputs": [],
					"stateMutability": "nonpayable"
				},
				{
					"type": "function",
					"name": "isApprovedForAll",
					"inputs": [
						{
							"name": "owner",
							"type": "address",
							"internalType": "address"
						},
						{
							"name": "operator",
							"type": "address",
							"internalType": "address"
						}
					],
					"outputs": [
						{
							"name": "",
							"type": "bool",
							"internalType": "bool"
						}
					],
					"stateMutability": "view"
				},
				{
					"type": "function",
					"name": "isTrustedForwarder",
					"inputs": [
						{
							"name": "forwarder",
							"type": "address",
							"internalType": "address"
						}
					],
					"outputs": [
						{
							"name": "",
							"type": "bool",
							"internalType": "bool"
						}
					],
					"stateMutability": "view"
				},
				{
					"type": "function",
					"name": "jbOwner",
					"inputs": [],
					"outputs": [
						{
							"name": "owner",
							"type": "address",
							"internalType": "address"
						},
						{
							"name": "projectId",
							"type": "uint88",
							"internalType": "uint88"
						},
						{
							"name": "permissionId",
							"type": "uint8",
							"internalType": "uint8"
						}
					],
					"stateMutability": "view"
				},
				{
					"type": "function",
					"name": "mintFor",
					"inputs": [
						{
							"name": "tierIds",
							"type": "uint16[]",
							"internalType": "uint16[]"
						},
						{
							"name": "beneficiary",
							"type": "address",
							"internalType": "address"
						}
					],
					"outputs": [
						{
							"name": "tokenIds",
							"type": "uint256[]",
							"internalType": "uint256[]"
						}
					],
					"stateMutability": "nonpayable"
				},
				{
					"type": "function",
					"name": "mintPendingReservesFor",
					"inputs": [
						{
							"name": "reserveMintConfigs",
							"type": "tuple[]",
							"internalType": "struct JB721TiersMintReservesConfig[]",
							"components": [
								{
									"name": "tierId",
									"type": "uint256",
									"internalType": "uint256"
								},
								{
									"name": "count",
									"type": "uint256",
									"internalType": "uint256"
								}
							]
						}
					],
					"outputs": [],
					"stateMutability": "nonpayable"
				},
				{
					"type": "function",
					"name": "mintPendingReservesFor",
					"inputs": [
						{
							"name": "tierId",
							"type": "uint256",
							"internalType": "uint256"
						},
						{
							"name": "count",
							"type": "uint256",
							"internalType": "uint256"
						}
					],
					"outputs": [],
					"stateMutability": "nonpayable"
				},
				{
					"type": "function",
					"name": "name",
					"inputs": [],
					"outputs": [
						{
							"name": "",
							"type": "string",
							"internalType": "string"
						}
					],
					"stateMutability": "view"
				},
				{
					"type": "function",
					"name": "owner",
					"inputs": [],
					"outputs": [
						{
							"name": "",
							"type": "address",
							"internalType": "address"
						}
					],
					"stateMutability": "view"
				},
				{
					"type": "function",
					"name": "ownerOf",
					"inputs": [
						{
							"name": "tokenId",
							"type": "uint256",
							"internalType": "uint256"
						}
					],
					"outputs": [
						{
							"name": "",
							"type": "address",
							"internalType": "address"
						}
					],
					"stateMutability": "view"
				},
				{
					"type": "function",
					"name": "payCreditsOf",
					"inputs": [
						{
							"name": "addr",
							"type": "address",
							"internalType": "address"
						}
					],
					"outputs": [
						{
							"name": "",
							"type": "uint256",
							"internalType": "uint256"
						}
					],
					"stateMutability": "view"
				},
				{
					"type": "function",
					"name": "pricingContext",
					"inputs": [],
					"outputs": [
						{
							"name": "currency",
							"type": "uint256",
							"internalType": "uint256"
						},
						{
							"name": "decimals",
							"type": "uint256",
							"internalType": "uint256"
						},
						{
							"name": "prices",
							"type": "address",
							"internalType": "contract IJBPrices"
						}
					],
					"stateMutability": "view"
				},
				{
					"type": "function",
					"name": "projectId",
					"inputs": [],
					"outputs": [
						{
							"name": "",
							"type": "uint256",
							"internalType": "uint256"
						}
					],
					"stateMutability": "view"
				},
				{
					"type": "function",
					"name": "redemptionWeightOf",
					"inputs": [
						{
							"name": "tokenIds",
							"type": "uint256[]",
							"internalType": "uint256[]"
						},
						{
							"name": "",
							"type": "tuple",
							"internalType": "struct JBBeforeRedeemRecordedContext",
							"components": [
								{
									"name": "terminal",
									"type": "address",
									"internalType": "address"
								},
								{
									"name": "holder",
									"type": "address",
									"internalType": "address"
								},
								{
									"name": "projectId",
									"type": "uint256",
									"internalType": "uint256"
								},
								{
									"name": "rulesetId",
									"type": "uint256",
									"internalType": "uint256"
								},
								{
									"name": "redeemCount",
									"type": "uint256",
									"internalType": "uint256"
								},
								{
									"name": "totalSupply",
									"type": "uint256",
									"internalType": "uint256"
								},
								{
									"name": "surplus",
									"type": "tuple",
									"internalType": "struct JBTokenAmount",
									"components": [
										{
											"name": "token",
											"type": "address",
											"internalType": "address"
										},
										{
											"name": "value",
											"type": "uint256",
											"internalType": "uint256"
										},
										{
											"name": "decimals",
											"type": "uint256",
											"internalType": "uint256"
										},
										{
											"name": "currency",
											"type": "uint256",
											"internalType": "uint256"
										}
									]
								},
								{
									"name": "useTotalSurplus",
									"type": "bool",
									"internalType": "bool"
								},
								{
									"name": "redemptionRate",
									"type": "uint256",
									"internalType": "uint256"
								},
								{
									"name": "metadata",
									"type": "bytes",
									"internalType": "bytes"
								}
							]
						}
					],
					"outputs": [
						{
							"name": "",
							"type": "uint256",
							"internalType": "uint256"
						}
					],
					"stateMutability": "view"
				},
				{
					"type": "function",
					"name": "renounceOwnership",
					"inputs": [],
					"outputs": [],
					"stateMutability": "nonpayable"
				},
				{
					"type": "function",
					"name": "safeTransferFrom",
					"inputs": [
						{
							"name": "from",
							"type": "address",
							"internalType": "address"
						},
						{
							"name": "to",
							"type": "address",
							"internalType": "address"
						},
						{
							"name": "tokenId",
							"type": "uint256",
							"internalType": "uint256"
						}
					],
					"outputs": [],
					"stateMutability": "nonpayable"
				},
				{
					"type": "function",
					"name": "safeTransferFrom",
					"inputs": [
						{
							"name": "from",
							"type": "address",
							"internalType": "address"
						},
						{
							"name": "to",
							"type": "address",
							"internalType": "address"
						},
						{
							"name": "tokenId",
							"type": "uint256",
							"internalType": "uint256"
						},
						{
							"name": "data",
							"type": "bytes",
							"internalType": "bytes"
						}
					],
					"outputs": [],
					"stateMutability": "nonpayable"
				},
				{
					"type": "function",
					"name": "setApprovalForAll",
					"inputs": [
						{
							"name": "operator",
							"type": "address",
							"internalType": "address"
						},
						{
							"name": "approved",
							"type": "bool",
							"internalType": "bool"
						}
					],
					"outputs": [],
					"stateMutability": "nonpayable"
				},
				{
					"type": "function",
					"name": "setMetadata",
					"inputs": [
						{
							"name": "baseUri",
							"type": "string",
							"internalType": "string"
						},
						{
							"name": "contractUri",
							"type": "string",
							"internalType": "string"
						},
						{
							"name": "tokenUriResolver",
							"type": "address",
							"internalType": "contract IJB721TokenUriResolver"
						},
						{
							"name": "encodedIPFSTUriTierId",
							"type": "uint256",
							"internalType": "uint256"
						},
						{
							"name": "encodedIPFSUri",
							"type": "bytes32",
							"internalType": "bytes32"
						}
					],
					"outputs": [],
					"stateMutability": "nonpayable"
				},
				{
					"type": "function",
					"name": "setPermissionId",
					"inputs": [
						{
							"name": "permissionId",
							"type": "uint8",
							"internalType": "uint8"
						}
					],
					"outputs": [],
					"stateMutability": "nonpayable"
				},
				{
					"type": "function",
					"name": "supportsInterface",
					"inputs": [
						{
							"name": "interfaceId",
							"type": "bytes4",
							"internalType": "bytes4"
						}
					],
					"outputs": [
						{
							"name": "",
							"type": "bool",
							"internalType": "bool"
						}
					],
					"stateMutability": "view"
				},
				{
					"type": "function",
					"name": "symbol",
					"inputs": [],
					"outputs": [
						{
							"name": "",
							"type": "string",
							"internalType": "string"
						}
					],
					"stateMutability": "view"
				},
				{
					"type": "function",
					"name": "tokenURI",
					"inputs": [
						{
							"name": "tokenId",
							"type": "uint256",
							"internalType": "uint256"
						}
					],
					"outputs": [
						{
							"name": "",
							"type": "string",
							"internalType": "string"
						}
					],
					"stateMutability": "view"
				},
				{
					"type": "function",
					"name": "totalRedemptionWeight",
					"inputs": [
						{
							"name": "",
							"type": "tuple",
							"internalType": "struct JBBeforeRedeemRecordedContext",
							"components": [
								{
									"name": "terminal",
									"type": "address",
									"internalType": "address"
								},
								{
									"name": "holder",
									"type": "address",
									"internalType": "address"
								},
								{
									"name": "projectId",
									"type": "uint256",
									"internalType": "uint256"
								},
								{
									"name": "rulesetId",
									"type": "uint256",
									"internalType": "uint256"
								},
								{
									"name": "redeemCount",
									"type": "uint256",
									"internalType": "uint256"
								},
								{
									"name": "totalSupply",
									"type": "uint256",
									"internalType": "uint256"
								},
								{
									"name": "surplus",
									"type": "tuple",
									"internalType": "struct JBTokenAmount",
									"components": [
										{
											"name": "token",
											"type": "address",
											"internalType": "address"
										},
										{
											"name": "value",
											"type": "uint256",
											"internalType": "uint256"
										},
										{
											"name": "decimals",
											"type": "uint256",
											"internalType": "uint256"
										},
										{
											"name": "currency",
											"type": "uint256",
											"internalType": "uint256"
										}
									]
								},
								{
									"name": "useTotalSurplus",
									"type": "bool",
									"internalType": "bool"
								},
								{
									"name": "redemptionRate",
									"type": "uint256",
									"internalType": "uint256"
								},
								{
									"name": "metadata",
									"type": "bytes",
									"internalType": "bytes"
								}
							]
						}
					],
					"outputs": [
						{
							"name": "",
							"type": "uint256",
							"internalType": "uint256"
						}
					],
					"stateMutability": "view"
				},
				{
					"type": "function",
					"name": "transferFrom",
					"inputs": [
						{
							"name": "from",
							"type": "address",
							"internalType": "address"
						},
						{
							"name": "to",
							"type": "address",
							"internalType": "address"
						},
						{
							"name": "tokenId",
							"type": "uint256",
							"internalType": "uint256"
						}
					],
					"outputs": [],
					"stateMutability": "nonpayable"
				},
				{
					"type": "function",
					"name": "transferOwnership",
					"inputs": [
						{
							"name": "newOwner",
							"type": "address",
							"internalType": "address"
						}
					],
					"outputs": [],
					"stateMutability": "nonpayable"
				},
				{
					"type": "function",
					"name": "transferOwnershipToProject",
					"inputs": [
						{
							"name": "projectId",
							"type": "uint256",
							"internalType": "uint256"
						}
					],
					"outputs": [],
					"stateMutability": "nonpayable"
				},
				{
					"type": "function",
					"name": "trustedForwarder",
					"inputs": [],
					"outputs": [
						{
							"name": "",
							"type": "address",
							"internalType": "address"
						}
					],
					"stateMutability": "view"
				},
				{
					"type": "event",
					"name": "AddPayCredits",
					"inputs": [
						{
							"name": "amount",
							"type": "uint256",
							"indexed": true,
							"internalType": "uint256"
						},
						{
							"name": "newTotalCredits",
							"type": "uint256",
							"indexed": true,
							"internalType": "uint256"
						},
						{
							"name": "account",
							"type": "address",
							"indexed": true,
							"internalType": "address"
						},
						{
							"name": "caller",
							"type": "address",
							"indexed": false,
							"internalType": "address"
						}
					],
					"anonymous": false
				},
				{
					"type": "event",
					"name": "AddTier",
					"inputs": [
						{
							"name": "tierId",
							"type": "uint256",
							"indexed": true,
							"internalType": "uint256"
						},
						{
							"name": "tier",
							"type": "tuple",
							"indexed": false,
							"internalType": "struct JB721TierConfig",
							"components": [
								{
									"name": "price",
									"type": "uint104",
									"internalType": "uint104"
								},
								{
									"name": "initialSupply",
									"type": "uint32",
									"internalType": "uint32"
								},
								{
									"name": "votingUnits",
									"type": "uint32",
									"internalType": "uint32"
								},
								{
									"name": "reserveFrequency",
									"type": "uint16",
									"internalType": "uint16"
								},
								{
									"name": "reserveBeneficiary",
									"type": "address",
									"internalType": "address"
								},
								{
									"name": "encodedIPFSUri",
									"type": "bytes32",
									"internalType": "bytes32"
								},
								{
									"name": "category",
									"type": "uint24",
									"internalType": "uint24"
								},
								{
									"name": "allowOwnerMint",
									"type": "bool",
									"internalType": "bool"
								},
								{
									"name": "useReserveBeneficiaryAsDefault",
									"type": "bool",
									"internalType": "bool"
								},
								{
									"name": "transfersPausable",
									"type": "bool",
									"internalType": "bool"
								},
								{
									"name": "useVotingUnits",
									"type": "bool",
									"internalType": "bool"
								},
								{
									"name": "cannotBeRemoved",
									"type": "bool",
									"internalType": "bool"
								}
							]
						},
						{
							"name": "caller",
							"type": "address",
							"indexed": false,
							"internalType": "address"
						}
					],
					"anonymous": false
				},
				{
					"type": "event",
					"name": "Approval",
					"inputs": [
						{
							"name": "owner",
							"type": "address",
							"indexed": true,
							"internalType": "address"
						},
						{
							"name": "approved",
							"type": "address",
							"indexed": true,
							"internalType": "address"
						},
						{
							"name": "tokenId",
							"type": "uint256",
							"indexed": true,
							"internalType": "uint256"
						}
					],
					"anonymous": false
				},
				{
					"type": "event",
					"name": "ApprovalForAll",
					"inputs": [
						{
							"name": "owner",
							"type": "address",
							"indexed": true,
							"internalType": "address"
						},
						{
							"name": "operator",
							"type": "address",
							"indexed": true,
							"internalType": "address"
						},
						{
							"name": "approved",
							"type": "bool",
							"indexed": false,
							"internalType": "bool"
						}
					],
					"anonymous": false
				},
				{
					"type": "event",
					"name": "Mint",
					"inputs": [
						{
							"name": "tokenId",
							"type": "uint256",
							"indexed": true,
							"internalType": "uint256"
						},
						{
							"name": "tierId",
							"type": "uint256",
							"indexed": true,
							"internalType": "uint256"
						},
						{
							"name": "beneficiary",
							"type": "address",
							"indexed": true,
							"internalType": "address"
						},
						{
							"name": "totalAmountPaid",
							"type": "uint256",
							"indexed": false,
							"internalType": "uint256"
						},
						{
							"name": "caller",
							"type": "address",
							"indexed": false,
							"internalType": "address"
						}
					],
					"anonymous": false
				},
				{
					"type": "event",
					"name": "MintReservedNft",
					"inputs": [
						{
							"name": "tokenId",
							"type": "uint256",
							"indexed": true,
							"internalType": "uint256"
						},
						{
							"name": "tierId",
							"type": "uint256",
							"indexed": true,
							"internalType": "uint256"
						},
						{
							"name": "beneficiary",
							"type": "address",
							"indexed": true,
							"internalType": "address"
						},
						{
							"name": "caller",
							"type": "address",
							"indexed": false,
							"internalType": "address"
						}
					],
					"anonymous": false
				},
				{
					"type": "event",
					"name": "OwnershipTransferred",
					"inputs": [
						{
							"name": "previousOwner",
							"type": "address",
							"indexed": true,
							"internalType": "address"
						},
						{
							"name": "newOwner",
							"type": "address",
							"indexed": true,
							"internalType": "address"
						}
					],
					"anonymous": false
				},
				{
					"type": "event",
					"name": "PermissionIdChanged",
					"inputs": [
						{
							"name": "newIndex",
							"type": "uint8",
							"indexed": false,
							"internalType": "uint8"
						}
					],
					"anonymous": false
				},
				{
					"type": "event",
					"name": "RemoveTier",
					"inputs": [
						{
							"name": "tierId",
							"type": "uint256",
							"indexed": true,
							"internalType": "uint256"
						},
						{
							"name": "caller",
							"type": "address",
							"indexed": false,
							"internalType": "address"
						}
					],
					"anonymous": false
				},
				{
					"type": "event",
					"name": "SetBaseUri",
					"inputs": [
						{
							"name": "baseUri",
							"type": "string",
							"indexed": true,
							"internalType": "string"
						},
						{
							"name": "caller",
							"type": "address",
							"indexed": false,
							"internalType": "address"
						}
					],
					"anonymous": false
				},
				{
					"type": "event",
					"name": "SetContractUri",
					"inputs": [
						{
							"name": "contractUri",
							"type": "string",
							"indexed": true,
							"internalType": "string"
						},
						{
							"name": "caller",
							"type": "address",
							"indexed": false,
							"internalType": "address"
						}
					],
					"anonymous": false
				},
				{
					"type": "event",
					"name": "SetEncodedIPFSUri",
					"inputs": [
						{
							"name": "tierId",
							"type": "uint256",
							"indexed": true,
							"internalType": "uint256"
						},
						{
							"name": "encodedIPFSUri",
							"type": "bytes32",
							"indexed": false,
							"internalType": "bytes32"
						},
						{
							"name": "caller",
							"type": "address",
							"indexed": false,
							"internalType": "address"
						}
					],
					"anonymous": false
				},
				{
					"type": "event",
					"name": "SetTokenUriResolver",
					"inputs": [
						{
							"name": "newResolver",
							"type": "address",
							"indexed": true,
							"internalType": "contract IJB721TokenUriResolver"
						},
						{
							"name": "caller",
							"type": "address",
							"indexed": false,
							"internalType": "address"
						}
					],
					"anonymous": false
				},
				{
					"type": "event",
					"name": "Transfer",
					"inputs": [
						{
							"name": "from",
							"type": "address",
							"indexed": true,
							"internalType": "address"
						},
						{
							"name": "to",
							"type": "address",
							"indexed": true,
							"internalType": "address"
						},
						{
							"name": "tokenId",
							"type": "uint256",
							"indexed": true,
							"internalType": "uint256"
						}
					],
					"anonymous": false
				},
				{
					"type": "event",
					"name": "UsePayCredits",
					"inputs": [
						{
							"name": "amount",
							"type": "uint256",
							"indexed": true,
							"internalType": "uint256"
						},
						{
							"name": "newTotalCredits",
							"type": "uint256",
							"indexed": true,
							"internalType": "uint256"
						},
						{
							"name": "account",
							"type": "address",
							"indexed": true,
							"internalType": "address"
						},
						{
							"name": "caller",
							"type": "address",
							"indexed": false,
							"internalType": "address"
						}
					],
					"anonymous": false
				},
				{
					"type": "error",
					"name": "ERC721IncorrectOwner",
					"inputs": [
						{
							"name": "sender",
							"type": "address",
							"internalType": "address"
						},
						{
							"name": "tokenId",
							"type": "uint256",
							"internalType": "uint256"
						},
						{
							"name": "owner",
							"type": "address",
							"internalType": "address"
						}
					]
				},
				{
					"type": "error",
					"name": "ERC721InsufficientApproval",
					"inputs": [
						{
							"name": "operator",
							"type": "address",
							"internalType": "address"
						},
						{
							"name": "tokenId",
							"type": "uint256",
							"internalType": "uint256"
						}
					]
				},
				{
					"type": "error",
					"name": "ERC721InvalidApprover",
					"inputs": [
						{
							"name": "approver",
							"type": "address",
							"internalType": "address"
						}
					]
				},
				{
					"type": "error",
					"name": "ERC721InvalidOperator",
					"inputs": [
						{
							"name": "operator",
							"type": "address",
							"internalType": "address"
						}
					]
				},
				{
					"type": "error",
					"name": "ERC721InvalidOwner",
					"inputs": [
						{
							"name": "owner",
							"type": "address",
							"internalType": "address"
						}
					]
				},
				{
					"type": "error",
					"name": "ERC721InvalidReceiver",
					"inputs": [
						{
							"name": "receiver",
							"type": "address",
							"internalType": "address"
						}
					]
				},
				{
					"type": "error",
					"name": "ERC721InvalidSender",
					"inputs": [
						{
							"name": "sender",
							"type": "address",
							"internalType": "address"
						}
					]
				},
				{
					"type": "error",
					"name": "ERC721NonexistentToken",
					"inputs": [
						{
							"name": "tokenId",
							"type": "uint256",
							"internalType": "uint256"
						}
					]
				},
				{
					"type": "error",
					"name": "INVALID_NEW_OWNER",
					"inputs": []
				},
				{
					"type": "error",
					"name": "INVALID_PAY",
					"inputs": []
				},
				{
					"type": "error",
					"name": "INVALID_REDEEM",
					"inputs": []
				},
				{
					"type": "error",
					"name": "MINT_RESERVE_NFTS_PAUSED",
					"inputs": []
				},
				{
					"type": "error",
					"name": "OVERSPENDING",
					"inputs": []
				},
				{
					"type": "error",
					"name": "PRBMath_MulDiv_Overflow",
					"inputs": [
						{
							"name": "x",
							"type": "uint256",
							"internalType": "uint256"
						},
						{
							"name": "y",
							"type": "uint256",
							"internalType": "uint256"
						},
						{
							"name": "denominator",
							"type": "uint256",
							"internalType": "uint256"
						}
					]
				},
				{
					"type": "error",
					"name": "TIER_TRANSFERS_PAUSED",
					"inputs": []
				},
				{
					"type": "error",
					"name": "UNAUTHORIZED",
					"inputs": []
				},
				{
					"type": "error",
					"name": "UNAUTHORIZED_TOKEN",
					"inputs": [
						{
							"name": "tokenId",
							"type": "uint256",
							"internalType": "uint256"
						}
					]
				},
				{
					"type": "error",
					"name": "UNEXPECTED_TOKEN_REDEEMED",
					"inputs": []
				}
			],
			"solcInputHash": "b46b22692365eb6ea854b34070bdd22b",
			"receipt": {
				"blockHash": "0x76dad84f35dba1ac3a614a793a5649f61a8a060051731175cf6935cff76fdc8d",
				"blockNumber": 5671527,
				"contractAddress": null,
				"cumulativeGasUsed": "12575709",
				"from": "0xC034550B542b83BA1De312b21d1C94a9a52B1595",
				"gasPrice": "1000502999",
				"gasUsed": "12575709",
				"hash": "0x7be9fb30d95e9aea23a99fc4688939e5c3421b4b5d5e1f9db348b7b22fb5fc4d",
				"index": 0,
				"logs": [
					{
						"address": "0xB5E96127D417b1B3ef8438496a38A143167209c7",
						"blockHash": "0x76dad84f35dba1ac3a614a793a5649f61a8a060051731175cf6935cff76fdc8d",
						"blockNumber": 5671527,
						"data": "0x0000000000000000000000000000000000000000000000000000000000000000",
						"index": 0,
						"topics": [
							"0x572f161235911da04685a68c06adf558fc7e4a36909dca394650e0adc19cc93d",
							"0x000000000000000000000000c034550b542b83ba1de312b21d1c94a9a52b1595",
							"0x000000000000000000000000582b73e9f9ec9fa3ff32b83cfd7e2810a63bbcdb",
							"0x6d274149d62a43da55c8300769700421f32014f9aab2dae0a99c3a9206018975"
						],
						"transactionHash": "0x7be9fb30d95e9aea23a99fc4688939e5c3421b4b5d5e1f9db348b7b22fb5fc4d",
						"transactionIndex": 0
					},
					{
						"address": "0x89BeB14760384C532b587eE00bB42EE307f17e47",
						"blockHash": "0x76dad84f35dba1ac3a614a793a5649f61a8a060051731175cf6935cff76fdc8d",
						"blockNumber": 5671527,
						"data": "0x",
						"index": 1,
						"topics": [
							"0x6895c13664aa4f67288b25d7a21d7aaa34916e355fb9b6fae0a139a9085becb8",
							"0x000000000000000000000000582b73e9f9ec9fa3ff32b83cfd7e2810a63bbcdb"
						],
						"transactionHash": "0x7be9fb30d95e9aea23a99fc4688939e5c3421b4b5d5e1f9db348b7b22fb5fc4d",
						"transactionIndex": 0
					},
					{
						"address": "0x582b73e9F9EC9fa3fF32b83CFD7E2810a63BBCdB",
						"blockHash": "0x76dad84f35dba1ac3a614a793a5649f61a8a060051731175cf6935cff76fdc8d",
						"blockNumber": 5671527,
						"data": "0x0000000000000000000000000000000000000000000000000000000000000001",
						"index": 2,
						"topics": [
							"0xa65fb05c5808f5f389d72edeaf719ce38f4cc55c1f69ca3cbfb31c21501caa07",
							"0xb0a2f35b7b91c0300e1a2ec6d4a6168edf36825dd79df224704252849165ffd5"
						],
						"transactionHash": "0x7be9fb30d95e9aea23a99fc4688939e5c3421b4b5d5e1f9db348b7b22fb5fc4d",
						"transactionIndex": 0
					},
					{
						"address": "0xF6897B40515AE4E66aCD58aabB76ac143E833C6d",
						"blockHash": "0x76dad84f35dba1ac3a614a793a5649f61a8a060051731175cf6935cff76fdc8d",
						"blockNumber": 5671527,
						"data": "0x",
						"index": 3,
						"topics": [
							"0x8be0079c531659141344cd1fd0a4f28419497f9722a3daafe3b4186f6b6457e0",
							"0x0000000000000000000000000000000000000000000000000000000000000000",
							"0x0000000000000000000000004e59b44847b379578588920ca78fbf26c0b4956c"
						],
						"transactionHash": "0x7be9fb30d95e9aea23a99fc4688939e5c3421b4b5d5e1f9db348b7b22fb5fc4d",
						"transactionIndex": 0
					},
					{
						"address": "0x89BeB14760384C532b587eE00bB42EE307f17e47",
						"blockHash": "0x76dad84f35dba1ac3a614a793a5649f61a8a060051731175cf6935cff76fdc8d",
						"blockNumber": 5671527,
						"data": "0x",
						"index": 4,
						"topics": [
							"0x6895c13664aa4f67288b25d7a21d7aaa34916e355fb9b6fae0a139a9085becb8",
							"0x000000000000000000000000582b73e9f9ec9fa3ff32b83cfd7e2810a63bbcdb"
						],
						"transactionHash": "0x7be9fb30d95e9aea23a99fc4688939e5c3421b4b5d5e1f9db348b7b22fb5fc4d",
						"transactionIndex": 0
					},
					{
						"address": "0x582b73e9F9EC9fa3fF32b83CFD7E2810a63BBCdB",
						"blockHash": "0x76dad84f35dba1ac3a614a793a5649f61a8a060051731175cf6935cff76fdc8d",
						"blockNumber": 5671527,
						"data": "0x0000000000000000000000000000000000000000000000000000000000000002",
						"index": 5,
						"topics": [
							"0xa65fb05c5808f5f389d72edeaf719ce38f4cc55c1f69ca3cbfb31c21501caa07",
							"0xb0a2f35b7b91c0300e1a2ec6d4a6168edf36825dd79df224704252849165ffd5"
						],
						"transactionHash": "0x7be9fb30d95e9aea23a99fc4688939e5c3421b4b5d5e1f9db348b7b22fb5fc4d",
						"transactionIndex": 0
					},
					{
						"address": "0x89BeB14760384C532b587eE00bB42EE307f17e47",
						"blockHash": "0x76dad84f35dba1ac3a614a793a5649f61a8a060051731175cf6935cff76fdc8d",
						"blockNumber": 5671527,
						"data": "0x",
						"index": 6,
						"topics": [
							"0x6895c13664aa4f67288b25d7a21d7aaa34916e355fb9b6fae0a139a9085becb8",
							"0x000000000000000000000000582b73e9f9ec9fa3ff32b83cfd7e2810a63bbcdb"
						],
						"transactionHash": "0x7be9fb30d95e9aea23a99fc4688939e5c3421b4b5d5e1f9db348b7b22fb5fc4d",
						"transactionIndex": 0
					},
					{
						"address": "0x582b73e9F9EC9fa3fF32b83CFD7E2810a63BBCdB",
						"blockHash": "0x76dad84f35dba1ac3a614a793a5649f61a8a060051731175cf6935cff76fdc8d",
						"blockNumber": 5671527,
						"data": "0x0000000000000000000000000000000000000000000000000000000000000003",
						"index": 7,
						"topics": [
							"0xa65fb05c5808f5f389d72edeaf719ce38f4cc55c1f69ca3cbfb31c21501caa07",
							"0xb0a2f35b7b91c0300e1a2ec6d4a6168edf36825dd79df224704252849165ffd5"
						],
						"transactionHash": "0x7be9fb30d95e9aea23a99fc4688939e5c3421b4b5d5e1f9db348b7b22fb5fc4d",
						"transactionIndex": 0
					},
					{
						"address": "0x89BeB14760384C532b587eE00bB42EE307f17e47",
						"blockHash": "0x76dad84f35dba1ac3a614a793a5649f61a8a060051731175cf6935cff76fdc8d",
						"blockNumber": 5671527,
						"data": "0x",
						"index": 8,
						"topics": [
							"0x6895c13664aa4f67288b25d7a21d7aaa34916e355fb9b6fae0a139a9085becb8",
							"0x000000000000000000000000582b73e9f9ec9fa3ff32b83cfd7e2810a63bbcdb"
						],
						"transactionHash": "0x7be9fb30d95e9aea23a99fc4688939e5c3421b4b5d5e1f9db348b7b22fb5fc4d",
						"transactionIndex": 0
					},
					{
						"address": "0x582b73e9F9EC9fa3fF32b83CFD7E2810a63BBCdB",
						"blockHash": "0x76dad84f35dba1ac3a614a793a5649f61a8a060051731175cf6935cff76fdc8d",
						"blockNumber": 5671527,
						"data": "0x0000000000000000000000000000000000000000000000000000000000000004",
						"index": 9,
						"topics": [
							"0xa65fb05c5808f5f389d72edeaf719ce38f4cc55c1f69ca3cbfb31c21501caa07",
							"0xb0a2f35b7b91c0300e1a2ec6d4a6168edf36825dd79df224704252849165ffd5"
						],
						"transactionHash": "0x7be9fb30d95e9aea23a99fc4688939e5c3421b4b5d5e1f9db348b7b22fb5fc4d",
						"transactionIndex": 0
					},
					{
						"address": "0x89BeB14760384C532b587eE00bB42EE307f17e47",
						"blockHash": "0x76dad84f35dba1ac3a614a793a5649f61a8a060051731175cf6935cff76fdc8d",
						"blockNumber": 5671527,
						"data": "0x",
						"index": 10,
						"topics": [
							"0x6895c13664aa4f67288b25d7a21d7aaa34916e355fb9b6fae0a139a9085becb8",
							"0x000000000000000000000000582b73e9f9ec9fa3ff32b83cfd7e2810a63bbcdb"
						],
						"transactionHash": "0x7be9fb30d95e9aea23a99fc4688939e5c3421b4b5d5e1f9db348b7b22fb5fc4d",
						"transactionIndex": 0
					},
					{
						"address": "0x582b73e9F9EC9fa3fF32b83CFD7E2810a63BBCdB",
						"blockHash": "0x76dad84f35dba1ac3a614a793a5649f61a8a060051731175cf6935cff76fdc8d",
						"blockNumber": 5671527,
						"data": "0x0000000000000000000000000000000000000000000000000000000000000005",
						"index": 11,
						"topics": [
							"0xa65fb05c5808f5f389d72edeaf719ce38f4cc55c1f69ca3cbfb31c21501caa07",
							"0xb0a2f35b7b91c0300e1a2ec6d4a6168edf36825dd79df224704252849165ffd5"
						],
						"transactionHash": "0x7be9fb30d95e9aea23a99fc4688939e5c3421b4b5d5e1f9db348b7b22fb5fc4d",
						"transactionIndex": 0
					},
					{
						"address": "0x582b73e9F9EC9fa3fF32b83CFD7E2810a63BBCdB",
						"blockHash": "0x76dad84f35dba1ac3a614a793a5649f61a8a060051731175cf6935cff76fdc8d",
						"blockNumber": 5671527,
						"data": "0x",
						"index": 12,
						"topics": [
							"0x4383d976757d67ca920616be0b6430a681ea9d3dcce8d6d61d4603ca4a9bff63",
							"0xb0a2f35b7b91c0300e1a2ec6d4a6168edf36825dd79df224704252849165ffd5"
						],
						"transactionHash": "0x7be9fb30d95e9aea23a99fc4688939e5c3421b4b5d5e1f9db348b7b22fb5fc4d",
						"transactionIndex": 0
					}
				],
				"logsBloom": "0x00000000080010000040000000080000000000000008000000800000004000000000000000000000000000000040000100000000000000000000001000100000000000000000200000000000000000000001000000000000000000000000000000000000020000000000000000000800000000001000000008000000000000400000000000000000000100000000000000000000001400400000000000000000004000800011000000000000000000020200008008020000000400000004000000004000000000000000000008000000000000000000000000020000000020800000000000400008000200008000000280000000000000000000000008000000",
				"status": 1,
				"to": "0xB5E96127D417b1B3ef8438496a38A143167209c7"
			},
			"metadata": "{\"compiler\":{\"version\":\"0.8.23+commit.f704f362\"},\"language\":\"Solidity\",\"output\":{\"abi\":[{\"inputs\":[{\"internalType\":\"contract IJBDirectory\",\"name\":\"directory\",\"type\":\"address\"},{\"internalType\":\"contract IJBPermissions\",\"name\":\"permissions\",\"type\":\"address\"},{\"internalType\":\"address\",\"name\":\"trustedForwarder\",\"type\":\"address\"}],\"stateMutability\":\"nonpayable\",\"type\":\"constructor\"},{\"inputs\":[{\"internalType\":\"address\",\"name\":\"sender\",\"type\":\"address\"},{\"internalType\":\"uint256\",\"name\":\"tokenId\",\"type\":\"uint256\"},{\"internalType\":\"address\",\"name\":\"owner\",\"type\":\"address\"}],\"type\":\"error\",\"name\":\"ERC721IncorrectOwner\"},{\"inputs\":[{\"internalType\":\"address\",\"name\":\"operator\",\"type\":\"address\"},{\"internalType\":\"uint256\",\"name\":\"tokenId\",\"type\":\"uint256\"}],\"type\":\"error\",\"name\":\"ERC721InsufficientApproval\"},{\"inputs\":[{\"internalType\":\"address\",\"name\":\"approver\",\"type\":\"address\"}],\"type\":\"error\",\"name\":\"ERC721InvalidApprover\"},{\"inputs\":[{\"internalType\":\"address\",\"name\":\"operator\",\"type\":\"address\"}],\"type\":\"error\",\"name\":\"ERC721InvalidOperator\"},{\"inputs\":[{\"internalType\":\"address\",\"name\":\"owner\",\"type\":\"address\"}],\"type\":\"error\",\"name\":\"ERC721InvalidOwner\"},{\"inputs\":[{\"internalType\":\"address\",\"name\":\"receiver\",\"type\":\"address\"}],\"type\":\"error\",\"name\":\"ERC721InvalidReceiver\"},{\"inputs\":[{\"internalType\":\"address\",\"name\":\"sender\",\"type\":\"address\"}],\"type\":\"error\",\"name\":\"ERC721InvalidSender\"},{\"inputs\":[{\"internalType\":\"uint256\",\"name\":\"tokenId\",\"type\":\"uint256\"}],\"type\":\"error\",\"name\":\"ERC721NonexistentToken\"},{\"inputs\":[],\"type\":\"error\",\"name\":\"INVALID_NEW_OWNER\"},{\"inputs\":[],\"type\":\"error\",\"name\":\"INVALID_PAY\"},{\"inputs\":[],\"type\":\"error\",\"name\":\"INVALID_REDEEM\"},{\"inputs\":[],\"type\":\"error\",\"name\":\"MINT_RESERVE_NFTS_PAUSED\"},{\"inputs\":[],\"type\":\"error\",\"name\":\"OVERSPENDING\"},{\"inputs\":[{\"internalType\":\"uint256\",\"name\":\"x\",\"type\":\"uint256\"},{\"internalType\":\"uint256\",\"name\":\"y\",\"type\":\"uint256\"},{\"internalType\":\"uint256\",\"name\":\"denominator\",\"type\":\"uint256\"}],\"type\":\"error\",\"name\":\"PRBMath_MulDiv_Overflow\"},{\"inputs\":[],\"type\":\"error\",\"name\":\"TIER_TRANSFERS_PAUSED\"},{\"inputs\":[],\"type\":\"error\",\"name\":\"UNAUTHORIZED\"},{\"inputs\":[{\"internalType\":\"uint256\",\"name\":\"tokenId\",\"type\":\"uint256\"}],\"type\":\"error\",\"name\":\"UNAUTHORIZED_TOKEN\"},{\"inputs\":[],\"type\":\"error\",\"name\":\"UNEXPECTED_TOKEN_REDEEMED\"},{\"inputs\":[{\"internalType\":\"uint256\",\"name\":\"amount\",\"type\":\"uint256\",\"indexed\":true},{\"internalType\":\"uint256\",\"name\":\"newTotalCredits\",\"type\":\"uint256\",\"indexed\":true},{\"internalType\":\"address\",\"name\":\"account\",\"type\":\"address\",\"indexed\":true},{\"internalType\":\"address\",\"name\":\"caller\",\"type\":\"address\",\"indexed\":false}],\"type\":\"event\",\"name\":\"AddPayCredits\",\"anonymous\":false},{\"inputs\":[{\"internalType\":\"uint256\",\"name\":\"tierId\",\"type\":\"uint256\",\"indexed\":true},{\"internalType\":\"struct JB721TierConfig\",\"name\":\"tier\",\"type\":\"tuple\",\"components\":[{\"internalType\":\"uint104\",\"name\":\"price\",\"type\":\"uint104\"},{\"internalType\":\"uint32\",\"name\":\"initialSupply\",\"type\":\"uint32\"},{\"internalType\":\"uint32\",\"name\":\"votingUnits\",\"type\":\"uint32\"},{\"internalType\":\"uint16\",\"name\":\"reserveFrequency\",\"type\":\"uint16\"},{\"internalType\":\"address\",\"name\":\"reserveBeneficiary\",\"type\":\"address\"},{\"internalType\":\"bytes32\",\"name\":\"encodedIPFSUri\",\"type\":\"bytes32\"},{\"internalType\":\"uint24\",\"name\":\"category\",\"type\":\"uint24\"},{\"internalType\":\"bool\",\"name\":\"allowOwnerMint\",\"type\":\"bool\"},{\"internalType\":\"bool\",\"name\":\"useReserveBeneficiaryAsDefault\",\"type\":\"bool\"},{\"internalType\":\"bool\",\"name\":\"transfersPausable\",\"type\":\"bool\"},{\"internalType\":\"bool\",\"name\":\"useVotingUnits\",\"type\":\"bool\"},{\"internalType\":\"bool\",\"name\":\"cannotBeRemoved\",\"type\":\"bool\"}],\"indexed\":false},{\"internalType\":\"address\",\"name\":\"caller\",\"type\":\"address\",\"indexed\":false}],\"type\":\"event\",\"name\":\"AddTier\",\"anonymous\":false},{\"inputs\":[{\"internalType\":\"address\",\"name\":\"owner\",\"type\":\"address\",\"indexed\":true},{\"internalType\":\"address\",\"name\":\"approved\",\"type\":\"address\",\"indexed\":true},{\"internalType\":\"uint256\",\"name\":\"tokenId\",\"type\":\"uint256\",\"indexed\":true}],\"type\":\"event\",\"name\":\"Approval\",\"anonymous\":false},{\"inputs\":[{\"internalType\":\"address\",\"name\":\"owner\",\"type\":\"address\",\"indexed\":true},{\"internalType\":\"address\",\"name\":\"operator\",\"type\":\"address\",\"indexed\":true},{\"internalType\":\"bool\",\"name\":\"approved\",\"type\":\"bool\",\"indexed\":false}],\"type\":\"event\",\"name\":\"ApprovalForAll\",\"anonymous\":false},{\"inputs\":[{\"internalType\":\"uint256\",\"name\":\"tokenId\",\"type\":\"uint256\",\"indexed\":true},{\"internalType\":\"uint256\",\"name\":\"tierId\",\"type\":\"uint256\",\"indexed\":true},{\"internalType\":\"address\",\"name\":\"beneficiary\",\"type\":\"address\",\"indexed\":true},{\"internalType\":\"uint256\",\"name\":\"totalAmountPaid\",\"type\":\"uint256\",\"indexed\":false},{\"internalType\":\"address\",\"name\":\"caller\",\"type\":\"address\",\"indexed\":false}],\"type\":\"event\",\"name\":\"Mint\",\"anonymous\":false},{\"inputs\":[{\"internalType\":\"uint256\",\"name\":\"tokenId\",\"type\":\"uint256\",\"indexed\":true},{\"internalType\":\"uint256\",\"name\":\"tierId\",\"type\":\"uint256\",\"indexed\":true},{\"internalType\":\"address\",\"name\":\"beneficiary\",\"type\":\"address\",\"indexed\":true},{\"internalType\":\"address\",\"name\":\"caller\",\"type\":\"address\",\"indexed\":false}],\"type\":\"event\",\"name\":\"MintReservedNft\",\"anonymous\":false},{\"inputs\":[{\"internalType\":\"address\",\"name\":\"previousOwner\",\"type\":\"address\",\"indexed\":true},{\"internalType\":\"address\",\"name\":\"newOwner\",\"type\":\"address\",\"indexed\":true}],\"type\":\"event\",\"name\":\"OwnershipTransferred\",\"anonymous\":false},{\"inputs\":[{\"internalType\":\"uint8\",\"name\":\"newIndex\",\"type\":\"uint8\",\"indexed\":false}],\"type\":\"event\",\"name\":\"PermissionIdChanged\",\"anonymous\":false},{\"inputs\":[{\"internalType\":\"uint256\",\"name\":\"tierId\",\"type\":\"uint256\",\"indexed\":true},{\"internalType\":\"address\",\"name\":\"caller\",\"type\":\"address\",\"indexed\":false}],\"type\":\"event\",\"name\":\"RemoveTier\",\"anonymous\":false},{\"inputs\":[{\"internalType\":\"string\",\"name\":\"baseUri\",\"type\":\"string\",\"indexed\":true},{\"internalType\":\"address\",\"name\":\"caller\",\"type\":\"address\",\"indexed\":false}],\"type\":\"event\",\"name\":\"SetBaseUri\",\"anonymous\":false},{\"inputs\":[{\"internalType\":\"string\",\"name\":\"contractUri\",\"type\":\"string\",\"indexed\":true},{\"internalType\":\"address\",\"name\":\"caller\",\"type\":\"address\",\"indexed\":false}],\"type\":\"event\",\"name\":\"SetContractUri\",\"anonymous\":false},{\"inputs\":[{\"internalType\":\"uint256\",\"name\":\"tierId\",\"type\":\"uint256\",\"indexed\":true},{\"internalType\":\"bytes32\",\"name\":\"encodedIPFSUri\",\"type\":\"bytes32\",\"indexed\":false},{\"internalType\":\"address\",\"name\":\"caller\",\"type\":\"address\",\"indexed\":false}],\"type\":\"event\",\"name\":\"SetEncodedIPFSUri\",\"anonymous\":false},{\"inputs\":[{\"internalType\":\"contract IJB721TokenUriResolver\",\"name\":\"newResolver\",\"type\":\"address\",\"indexed\":true},{\"internalType\":\"address\",\"name\":\"caller\",\"type\":\"address\",\"indexed\":false}],\"type\":\"event\",\"name\":\"SetTokenUriResolver\",\"anonymous\":false},{\"inputs\":[{\"internalType\":\"address\",\"name\":\"from\",\"type\":\"address\",\"indexed\":true},{\"internalType\":\"address\",\"name\":\"to\",\"type\":\"address\",\"indexed\":true},{\"internalType\":\"uint256\",\"name\":\"tokenId\",\"type\":\"uint256\",\"indexed\":true}],\"type\":\"event\",\"name\":\"Transfer\",\"anonymous\":false},{\"inputs\":[{\"internalType\":\"uint256\",\"name\":\"amount\",\"type\":\"uint256\",\"indexed\":true},{\"internalType\":\"uint256\",\"name\":\"newTotalCredits\",\"type\":\"uint256\",\"indexed\":true},{\"internalType\":\"address\",\"name\":\"account\",\"type\":\"address\",\"indexed\":true},{\"internalType\":\"address\",\"name\":\"caller\",\"type\":\"address\",\"indexed\":false}],\"type\":\"event\",\"name\":\"UsePayCredits\",\"anonymous\":false},{\"inputs\":[],\"stateMutability\":\"view\",\"type\":\"function\",\"name\":\"DIRECTORY\",\"outputs\":[{\"internalType\":\"contract IJBDirectory\",\"name\":\"\",\"type\":\"address\"}]},{\"inputs\":[],\"stateMutability\":\"view\",\"type\":\"function\",\"name\":\"METADATA_ID_TARGET\",\"outputs\":[{\"internalType\":\"address\",\"name\":\"\",\"type\":\"address\"}]},{\"inputs\":[],\"stateMutability\":\"view\",\"type\":\"function\",\"name\":\"PERMISSIONS\",\"outputs\":[{\"internalType\":\"contract IJBPermissions\",\"name\":\"\",\"type\":\"address\"}]},{\"inputs\":[],\"stateMutability\":\"view\",\"type\":\"function\",\"name\":\"PROJECTS\",\"outputs\":[{\"internalType\":\"contract IJBProjects\",\"name\":\"\",\"type\":\"address\"}]},{\"inputs\":[],\"stateMutability\":\"view\",\"type\":\"function\",\"name\":\"RULESETS\",\"outputs\":[{\"internalType\":\"contract IJBRulesets\",\"name\":\"\",\"type\":\"address\"}]},{\"inputs\":[],\"stateMutability\":\"view\",\"type\":\"function\",\"name\":\"STORE\",\"outputs\":[{\"internalType\":\"contract IJB721TiersHookStore\",\"name\":\"\",\"type\":\"address\"}]},{\"inputs\":[{\"internalType\":\"struct JB721TierConfig[]\",\"name\":\"tiersToAdd\",\"type\":\"tuple[]\",\"components\":[{\"internalType\":\"uint104\",\"name\":\"price\",\"type\":\"uint104\"},{\"internalType\":\"uint32\",\"name\":\"initialSupply\",\"type\":\"uint32\"},{\"internalType\":\"uint32\",\"name\":\"votingUnits\",\"type\":\"uint32\"},{\"internalType\":\"uint16\",\"name\":\"reserveFrequency\",\"type\":\"uint16\"},{\"internalType\":\"address\",\"name\":\"reserveBeneficiary\",\"type\":\"address\"},{\"internalType\":\"bytes32\",\"name\":\"encodedIPFSUri\",\"type\":\"bytes32\"},{\"internalType\":\"uint24\",\"name\":\"category\",\"type\":\"uint24\"},{\"internalType\":\"bool\",\"name\":\"allowOwnerMint\",\"type\":\"bool\"},{\"internalType\":\"bool\",\"name\":\"useReserveBeneficiaryAsDefault\",\"type\":\"bool\"},{\"internalType\":\"bool\",\"name\":\"transfersPausable\",\"type\":\"bool\"},{\"internalType\":\"bool\",\"name\":\"useVotingUnits\",\"type\":\"bool\"},{\"internalType\":\"bool\",\"name\":\"cannotBeRemoved\",\"type\":\"bool\"}]},{\"internalType\":\"uint256[]\",\"name\":\"tierIdsToRemove\",\"type\":\"uint256[]\"}],\"stateMutability\":\"nonpayable\",\"type\":\"function\",\"name\":\"adjustTiers\"},{\"inputs\":[{\"internalType\":\"struct JBAfterPayRecordedContext\",\"name\":\"context\",\"type\":\"tuple\",\"components\":[{\"internalType\":\"address\",\"name\":\"payer\",\"type\":\"address\"},{\"internalType\":\"uint256\",\"name\":\"projectId\",\"type\":\"uint256\"},{\"internalType\":\"uint256\",\"name\":\"rulesetId\",\"type\":\"uint256\"},{\"internalType\":\"struct JBTokenAmount\",\"name\":\"amount\",\"type\":\"tuple\",\"components\":[{\"internalType\":\"address\",\"name\":\"token\",\"type\":\"address\"},{\"internalType\":\"uint256\",\"name\":\"value\",\"type\":\"uint256\"},{\"internalType\":\"uint256\",\"name\":\"decimals\",\"type\":\"uint256\"},{\"internalType\":\"uint256\",\"name\":\"currency\",\"type\":\"uint256\"}]},{\"internalType\":\"struct JBTokenAmount\",\"name\":\"forwardedAmount\",\"type\":\"tuple\",\"components\":[{\"internalType\":\"address\",\"name\":\"token\",\"type\":\"address\"},{\"internalType\":\"uint256\",\"name\":\"value\",\"type\":\"uint256\"},{\"internalType\":\"uint256\",\"name\":\"decimals\",\"type\":\"uint256\"},{\"internalType\":\"uint256\",\"name\":\"currency\",\"type\":\"uint256\"}]},{\"internalType\":\"uint256\",\"name\":\"weight\",\"type\":\"uint256\"},{\"internalType\":\"uint256\",\"name\":\"projectTokenCount\",\"type\":\"uint256\"},{\"internalType\":\"address\",\"name\":\"beneficiary\",\"type\":\"address\"},{\"internalType\":\"bytes\",\"name\":\"hookMetadata\",\"type\":\"bytes\"},{\"internalType\":\"bytes\",\"name\":\"payerMetadata\",\"type\":\"bytes\"}]}],\"stateMutability\":\"payable\",\"type\":\"function\",\"name\":\"afterPayRecordedWith\"},{\"inputs\":[{\"internalType\":\"struct JBAfterRedeemRecordedContext\",\"name\":\"context\",\"type\":\"tuple\",\"components\":[{\"internalType\":\"address\",\"name\":\"holder\",\"type\":\"address\"},{\"internalType\":\"uint256\",\"name\":\"projectId\",\"type\":\"uint256\"},{\"internalType\":\"uint256\",\"name\":\"rulesetId\",\"type\":\"uint256\"},{\"internalType\":\"uint256\",\"name\":\"redeemCount\",\"type\":\"uint256\"},{\"internalType\":\"struct JBTokenAmount\",\"name\":\"reclaimedAmount\",\"type\":\"tuple\",\"components\":[{\"internalType\":\"address\",\"name\":\"token\",\"type\":\"address\"},{\"internalType\":\"uint256\",\"name\":\"value\",\"type\":\"uint256\"},{\"internalType\":\"uint256\",\"name\":\"decimals\",\"type\":\"uint256\"},{\"internalType\":\"uint256\",\"name\":\"currency\",\"type\":\"uint256\"}]},{\"internalType\":\"struct JBTokenAmount\",\"name\":\"forwardedAmount\",\"type\":\"tuple\",\"components\":[{\"internalType\":\"address\",\"name\":\"token\",\"type\":\"address\"},{\"internalType\":\"uint256\",\"name\":\"value\",\"type\":\"uint256\"},{\"internalType\":\"uint256\",\"name\":\"decimals\",\"type\":\"uint256\"},{\"internalType\":\"uint256\",\"name\":\"currency\",\"type\":\"uint256\"}]},{\"internalType\":\"uint256\",\"name\":\"redemptionRate\",\"type\":\"uint256\"},{\"internalType\":\"address payable\",\"name\":\"beneficiary\",\"type\":\"address\"},{\"internalType\":\"bytes\",\"name\":\"hookMetadata\",\"type\":\"bytes\"},{\"internalType\":\"bytes\",\"name\":\"redeemerMetadata\",\"type\":\"bytes\"}]}],\"stateMutability\":\"payable\",\"type\":\"function\",\"name\":\"afterRedeemRecordedWith\"},{\"inputs\":[{\"internalType\":\"address\",\"name\":\"to\",\"type\":\"address\"},{\"internalType\":\"uint256\",\"name\":\"tokenId\",\"type\":\"uint256\"}],\"stateMutability\":\"nonpayable\",\"type\":\"function\",\"name\":\"approve\"},{\"inputs\":[{\"internalType\":\"address\",\"name\":\"owner\",\"type\":\"address\"}],\"stateMutability\":\"view\",\"type\":\"function\",\"name\":\"balanceOf\",\"outputs\":[{\"internalType\":\"uint256\",\"name\":\"balance\",\"type\":\"uint256\"}]},{\"inputs\":[],\"stateMutability\":\"view\",\"type\":\"function\",\"name\":\"baseURI\",\"outputs\":[{\"internalType\":\"string\",\"name\":\"\",\"type\":\"string\"}]},{\"inputs\":[{\"internalType\":\"struct JBBeforePayRecordedContext\",\"name\":\"context\",\"type\":\"tuple\",\"components\":[{\"internalType\":\"address\",\"name\":\"terminal\",\"type\":\"address\"},{\"internalType\":\"address\",\"name\":\"payer\",\"type\":\"address\"},{\"internalType\":\"struct JBTokenAmount\",\"name\":\"amount\",\"type\":\"tuple\",\"components\":[{\"internalType\":\"address\",\"name\":\"token\",\"type\":\"address\"},{\"internalType\":\"uint256\",\"name\":\"value\",\"type\":\"uint256\"},{\"internalType\":\"uint256\",\"name\":\"decimals\",\"type\":\"uint256\"},{\"internalType\":\"uint256\",\"name\":\"currency\",\"type\":\"uint256\"}]},{\"internalType\":\"uint256\",\"name\":\"projectId\",\"type\":\"uint256\"},{\"internalType\":\"uint256\",\"name\":\"rulesetId\",\"type\":\"uint256\"},{\"internalType\":\"address\",\"name\":\"beneficiary\",\"type\":\"address\"},{\"internalType\":\"uint256\",\"name\":\"weight\",\"type\":\"uint256\"},{\"internalType\":\"uint256\",\"name\":\"reservedRate\",\"type\":\"uint256\"},{\"internalType\":\"bytes\",\"name\":\"metadata\",\"type\":\"bytes\"}]}],\"stateMutability\":\"view\",\"type\":\"function\",\"name\":\"beforePayRecordedWith\",\"outputs\":[{\"internalType\":\"uint256\",\"name\":\"weight\",\"type\":\"uint256\"},{\"internalType\":\"struct JBPayHookSpecification[]\",\"name\":\"hookSpecifications\",\"type\":\"tuple[]\",\"components\":[{\"internalType\":\"contract IJBPayHook\",\"name\":\"hook\",\"type\":\"address\"},{\"internalType\":\"uint256\",\"name\":\"amount\",\"type\":\"uint256\"},{\"internalType\":\"bytes\",\"name\":\"metadata\",\"type\":\"bytes\"}]}]},{\"inputs\":[{\"internalType\":\"struct JBBeforeRedeemRecordedContext\",\"name\":\"context\",\"type\":\"tuple\",\"components\":[{\"internalType\":\"address\",\"name\":\"terminal\",\"type\":\"address\"},{\"internalType\":\"address\",\"name\":\"holder\",\"type\":\"address\"},{\"internalType\":\"uint256\",\"name\":\"projectId\",\"type\":\"uint256\"},{\"internalType\":\"uint256\",\"name\":\"rulesetId\",\"type\":\"uint256\"},{\"internalType\":\"uint256\",\"name\":\"redeemCount\",\"type\":\"uint256\"},{\"internalType\":\"uint256\",\"name\":\"totalSupply\",\"type\":\"uint256\"},{\"internalType\":\"struct JBTokenAmount\",\"name\":\"surplus\",\"type\":\"tuple\",\"components\":[{\"internalType\":\"address\",\"name\":\"token\",\"type\":\"address\"},{\"internalType\":\"uint256\",\"name\":\"value\",\"type\":\"uint256\"},{\"internalType\":\"uint256\",\"name\":\"decimals\",\"type\":\"uint256\"},{\"internalType\":\"uint256\",\"name\":\"currency\",\"type\":\"uint256\"}]},{\"internalType\":\"bool\",\"name\":\"useTotalSurplus\",\"type\":\"bool\"},{\"internalType\":\"uint256\",\"name\":\"redemptionRate\",\"type\":\"uint256\"},{\"internalType\":\"bytes\",\"name\":\"metadata\",\"type\":\"bytes\"}]}],\"stateMutability\":\"view\",\"type\":\"function\",\"name\":\"beforeRedeemRecordedWith\",\"outputs\":[{\"internalType\":\"uint256\",\"name\":\"redemptionRate\",\"type\":\"uint256\"},{\"internalType\":\"uint256\",\"name\":\"redeemCount\",\"type\":\"uint256\"},{\"internalType\":\"uint256\",\"name\":\"totalSupply\",\"type\":\"uint256\"},{\"internalType\":\"struct JBRedeemHookSpecification[]\",\"name\":\"hookSpecifications\",\"type\":\"tuple[]\",\"components\":[{\"internalType\":\"contract IJBRedeemHook\",\"name\":\"hook\",\"type\":\"address\"},{\"internalType\":\"uint256\",\"name\":\"amount\",\"type\":\"uint256\"},{\"internalType\":\"bytes\",\"name\":\"metadata\",\"type\":\"bytes\"}]}]},{\"inputs\":[],\"stateMutability\":\"view\",\"type\":\"function\",\"name\":\"contractURI\",\"outputs\":[{\"internalType\":\"string\",\"name\":\"\",\"type\":\"string\"}]},{\"inputs\":[{\"internalType\":\"uint256\",\"name\":\"tokenId\",\"type\":\"uint256\"}],\"stateMutability\":\"view\",\"type\":\"function\",\"name\":\"firstOwnerOf\",\"outputs\":[{\"internalType\":\"address\",\"name\":\"\",\"type\":\"address\"}]},{\"inputs\":[{\"internalType\":\"uint256\",\"name\":\"tokenId\",\"type\":\"uint256\"}],\"stateMutability\":\"view\",\"type\":\"function\",\"name\":\"getApproved\",\"outputs\":[{\"internalType\":\"address\",\"name\":\"\",\"type\":\"address\"}]},{\"inputs\":[{\"internalType\":\"uint256\",\"name\":\"\",\"type\":\"uint256\"},{\"internalType\":\"address\",\"name\":\"\",\"type\":\"address\"}],\"stateMutability\":\"pure\",\"type\":\"function\",\"name\":\"hasMintPermissionFor\",\"outputs\":[{\"internalType\":\"bool\",\"name\":\"\",\"type\":\"bool\"}]},{\"inputs\":[{\"internalType\":\"uint256\",\"name\":\"projectId\",\"type\":\"uint256\"},{\"internalType\":\"string\",\"name\":\"name\",\"type\":\"string\"},{\"internalType\":\"string\",\"name\":\"symbol\",\"type\":\"string\"},{\"internalType\":\"contract IJBRulesets\",\"name\":\"rulesets\",\"type\":\"address\"},{\"internalType\":\"string\",\"name\":\"baseUri\",\"type\":\"string\"},{\"internalType\":\"contract IJB721TokenUriResolver\",\"name\":\"tokenUriResolver\",\"type\":\"address\"},{\"internalType\":\"string\",\"name\":\"contractUri\",\"type\":\"string\"},{\"internalType\":\"struct JB721InitTiersConfig\",\"name\":\"tiersConfig\",\"type\":\"tuple\",\"components\":[{\"internalType\":\"struct JB721TierConfig[]\",\"name\":\"tiers\",\"type\":\"tuple[]\",\"components\":[{\"internalType\":\"uint104\",\"name\":\"price\",\"type\":\"uint104\"},{\"internalType\":\"uint32\",\"name\":\"initialSupply\",\"type\":\"uint32\"},{\"internalType\":\"uint32\",\"name\":\"votingUnits\",\"type\":\"uint32\"},{\"internalType\":\"uint16\",\"name\":\"reserveFrequency\",\"type\":\"uint16\"},{\"internalType\":\"address\",\"name\":\"reserveBeneficiary\",\"type\":\"address\"},{\"internalType\":\"bytes32\",\"name\":\"encodedIPFSUri\",\"type\":\"bytes32\"},{\"internalType\":\"uint24\",\"name\":\"category\",\"type\":\"uint24\"},{\"internalType\":\"bool\",\"name\":\"allowOwnerMint\",\"type\":\"bool\"},{\"internalType\":\"bool\",\"name\":\"useReserveBeneficiaryAsDefault\",\"type\":\"bool\"},{\"internalType\":\"bool\",\"name\":\"transfersPausable\",\"type\":\"bool\"},{\"internalType\":\"bool\",\"name\":\"useVotingUnits\",\"type\":\"bool\"},{\"internalType\":\"bool\",\"name\":\"cannotBeRemoved\",\"type\":\"bool\"}]},{\"internalType\":\"uint32\",\"name\":\"currency\",\"type\":\"uint32\"},{\"internalType\":\"uint8\",\"name\":\"decimals\",\"type\":\"uint8\"},{\"internalType\":\"contract IJBPrices\",\"name\":\"prices\",\"type\":\"address\"}]},{\"internalType\":\"contract IJB721TiersHookStore\",\"name\":\"store\",\"type\":\"address\"},{\"internalType\":\"struct JB721TiersHookFlags\",\"name\":\"flags\",\"type\":\"tuple\",\"components\":[{\"internalType\":\"bool\",\"name\":\"noNewTiersWithReserves\",\"type\":\"bool\"},{\"internalType\":\"bool\",\"name\":\"noNewTiersWithVotes\",\"type\":\"bool\"},{\"internalType\":\"bool\",\"name\":\"noNewTiersWithOwnerMinting\",\"type\":\"bool\"},{\"internalType\":\"bool\",\"name\":\"preventOverspending\",\"type\":\"bool\"}]}],\"stateMutability\":\"nonpayable\",\"type\":\"function\",\"name\":\"initialize\"},{\"inputs\":[{\"internalType\":\"address\",\"name\":\"owner\",\"type\":\"address\"},{\"internalType\":\"address\",\"name\":\"operator\",\"type\":\"address\"}],\"stateMutability\":\"view\",\"type\":\"function\",\"name\":\"isApprovedForAll\",\"outputs\":[{\"internalType\":\"bool\",\"name\":\"\",\"type\":\"bool\"}]},{\"inputs\":[{\"internalType\":\"address\",\"name\":\"forwarder\",\"type\":\"address\"}],\"stateMutability\":\"view\",\"type\":\"function\",\"name\":\"isTrustedForwarder\",\"outputs\":[{\"internalType\":\"bool\",\"name\":\"\",\"type\":\"bool\"}]},{\"inputs\":[],\"stateMutability\":\"view\",\"type\":\"function\",\"name\":\"jbOwner\",\"outputs\":[{\"internalType\":\"address\",\"name\":\"owner\",\"type\":\"address\"},{\"internalType\":\"uint88\",\"name\":\"projectId\",\"type\":\"uint88\"},{\"internalType\":\"uint8\",\"name\":\"permissionId\",\"type\":\"uint8\"}]},{\"inputs\":[{\"internalType\":\"uint16[]\",\"name\":\"tierIds\",\"type\":\"uint16[]\"},{\"internalType\":\"address\",\"name\":\"beneficiary\",\"type\":\"address\"}],\"stateMutability\":\"nonpayable\",\"type\":\"function\",\"name\":\"mintFor\",\"outputs\":[{\"internalType\":\"uint256[]\",\"name\":\"tokenIds\",\"type\":\"uint256[]\"}]},{\"inputs\":[{\"internalType\":\"struct JB721TiersMintReservesConfig[]\",\"name\":\"reserveMintConfigs\",\"type\":\"tuple[]\",\"components\":[{\"internalType\":\"uint256\",\"name\":\"tierId\",\"type\":\"uint256\"},{\"internalType\":\"uint256\",\"name\":\"count\",\"type\":\"uint256\"}]}],\"stateMutability\":\"nonpayable\",\"type\":\"function\",\"name\":\"mintPendingReservesFor\"},{\"inputs\":[{\"internalType\":\"uint256\",\"name\":\"tierId\",\"type\":\"uint256\"},{\"internalType\":\"uint256\",\"name\":\"count\",\"type\":\"uint256\"}],\"stateMutability\":\"nonpayable\",\"type\":\"function\",\"name\":\"mintPendingReservesFor\"},{\"inputs\":[],\"stateMutability\":\"view\",\"type\":\"function\",\"name\":\"name\",\"outputs\":[{\"internalType\":\"string\",\"name\":\"\",\"type\":\"string\"}]},{\"inputs\":[],\"stateMutability\":\"view\",\"type\":\"function\",\"name\":\"owner\",\"outputs\":[{\"internalType\":\"address\",\"name\":\"\",\"type\":\"address\"}]},{\"inputs\":[{\"internalType\":\"uint256\",\"name\":\"tokenId\",\"type\":\"uint256\"}],\"stateMutability\":\"view\",\"type\":\"function\",\"name\":\"ownerOf\",\"outputs\":[{\"internalType\":\"address\",\"name\":\"\",\"type\":\"address\"}]},{\"inputs\":[{\"internalType\":\"address\",\"name\":\"addr\",\"type\":\"address\"}],\"stateMutability\":\"view\",\"type\":\"function\",\"name\":\"payCreditsOf\",\"outputs\":[{\"internalType\":\"uint256\",\"name\":\"\",\"type\":\"uint256\"}]},{\"inputs\":[],\"stateMutability\":\"view\",\"type\":\"function\",\"name\":\"pricingContext\",\"outputs\":[{\"internalType\":\"uint256\",\"name\":\"currency\",\"type\":\"uint256\"},{\"internalType\":\"uint256\",\"name\":\"decimals\",\"type\":\"uint256\"},{\"internalType\":\"contract IJBPrices\",\"name\":\"prices\",\"type\":\"address\"}]},{\"inputs\":[],\"stateMutability\":\"view\",\"type\":\"function\",\"name\":\"projectId\",\"outputs\":[{\"internalType\":\"uint256\",\"name\":\"\",\"type\":\"uint256\"}]},{\"inputs\":[{\"internalType\":\"uint256[]\",\"name\":\"tokenIds\",\"type\":\"uint256[]\"},{\"internalType\":\"struct JBBeforeRedeemRecordedContext\",\"name\":\"\",\"type\":\"tuple\",\"components\":[{\"internalType\":\"address\",\"name\":\"terminal\",\"type\":\"address\"},{\"internalType\":\"address\",\"name\":\"holder\",\"type\":\"address\"},{\"internalType\":\"uint256\",\"name\":\"projectId\",\"type\":\"uint256\"},{\"internalType\":\"uint256\",\"name\":\"rulesetId\",\"type\":\"uint256\"},{\"internalType\":\"uint256\",\"name\":\"redeemCount\",\"type\":\"uint256\"},{\"internalType\":\"uint256\",\"name\":\"totalSupply\",\"type\":\"uint256\"},{\"internalType\":\"struct JBTokenAmount\",\"name\":\"surplus\",\"type\":\"tuple\",\"components\":[{\"internalType\":\"address\",\"name\":\"token\",\"type\":\"address\"},{\"internalType\":\"uint256\",\"name\":\"value\",\"type\":\"uint256\"},{\"internalType\":\"uint256\",\"name\":\"decimals\",\"type\":\"uint256\"},{\"internalType\":\"uint256\",\"name\":\"currency\",\"type\":\"uint256\"}]},{\"internalType\":\"bool\",\"name\":\"useTotalSurplus\",\"type\":\"bool\"},{\"internalType\":\"uint256\",\"name\":\"redemptionRate\",\"type\":\"uint256\"},{\"internalType\":\"bytes\",\"name\":\"metadata\",\"type\":\"bytes\"}]}],\"stateMutability\":\"view\",\"type\":\"function\",\"name\":\"redemptionWeightOf\",\"outputs\":[{\"internalType\":\"uint256\",\"name\":\"\",\"type\":\"uint256\"}]},{\"inputs\":[],\"stateMutability\":\"nonpayable\",\"type\":\"function\",\"name\":\"renounceOwnership\"},{\"inputs\":[{\"internalType\":\"address\",\"name\":\"from\",\"type\":\"address\"},{\"internalType\":\"address\",\"name\":\"to\",\"type\":\"address\"},{\"internalType\":\"uint256\",\"name\":\"tokenId\",\"type\":\"uint256\"}],\"stateMutability\":\"nonpayable\",\"type\":\"function\",\"name\":\"safeTransferFrom\"},{\"inputs\":[{\"internalType\":\"address\",\"name\":\"from\",\"type\":\"address\"},{\"internalType\":\"address\",\"name\":\"to\",\"type\":\"address\"},{\"internalType\":\"uint256\",\"name\":\"tokenId\",\"type\":\"uint256\"},{\"internalType\":\"bytes\",\"name\":\"data\",\"type\":\"bytes\"}],\"stateMutability\":\"nonpayable\",\"type\":\"function\",\"name\":\"safeTransferFrom\"},{\"inputs\":[{\"internalType\":\"address\",\"name\":\"operator\",\"type\":\"address\"},{\"internalType\":\"bool\",\"name\":\"approved\",\"type\":\"bool\"}],\"stateMutability\":\"nonpayable\",\"type\":\"function\",\"name\":\"setApprovalForAll\"},{\"inputs\":[{\"internalType\":\"string\",\"name\":\"baseUri\",\"type\":\"string\"},{\"internalType\":\"string\",\"name\":\"contractUri\",\"type\":\"string\"},{\"internalType\":\"contract IJB721TokenUriResolver\",\"name\":\"tokenUriResolver\",\"type\":\"address\"},{\"internalType\":\"uint256\",\"name\":\"encodedIPFSTUriTierId\",\"type\":\"uint256\"},{\"internalType\":\"bytes32\",\"name\":\"encodedIPFSUri\",\"type\":\"bytes32\"}],\"stateMutability\":\"nonpayable\",\"type\":\"function\",\"name\":\"setMetadata\"},{\"inputs\":[{\"internalType\":\"uint8\",\"name\":\"permissionId\",\"type\":\"uint8\"}],\"stateMutability\":\"nonpayable\",\"type\":\"function\",\"name\":\"setPermissionId\"},{\"inputs\":[{\"internalType\":\"bytes4\",\"name\":\"interfaceId\",\"type\":\"bytes4\"}],\"stateMutability\":\"view\",\"type\":\"function\",\"name\":\"supportsInterface\",\"outputs\":[{\"internalType\":\"bool\",\"name\":\"\",\"type\":\"bool\"}]},{\"inputs\":[],\"stateMutability\":\"view\",\"type\":\"function\",\"name\":\"symbol\",\"outputs\":[{\"internalType\":\"string\",\"name\":\"\",\"type\":\"string\"}]},{\"inputs\":[{\"internalType\":\"uint256\",\"name\":\"tokenId\",\"type\":\"uint256\"}],\"stateMutability\":\"view\",\"type\":\"function\",\"name\":\"tokenURI\",\"outputs\":[{\"internalType\":\"string\",\"name\":\"\",\"type\":\"string\"}]},{\"inputs\":[{\"internalType\":\"struct JBBeforeRedeemRecordedContext\",\"name\":\"\",\"type\":\"tuple\",\"components\":[{\"internalType\":\"address\",\"name\":\"terminal\",\"type\":\"address\"},{\"internalType\":\"address\",\"name\":\"holder\",\"type\":\"address\"},{\"internalType\":\"uint256\",\"name\":\"projectId\",\"type\":\"uint256\"},{\"internalType\":\"uint256\",\"name\":\"rulesetId\",\"type\":\"uint256\"},{\"internalType\":\"uint256\",\"name\":\"redeemCount\",\"type\":\"uint256\"},{\"internalType\":\"uint256\",\"name\":\"totalSupply\",\"type\":\"uint256\"},{\"internalType\":\"struct JBTokenAmount\",\"name\":\"surplus\",\"type\":\"tuple\",\"components\":[{\"internalType\":\"address\",\"name\":\"token\",\"type\":\"address\"},{\"internalType\":\"uint256\",\"name\":\"value\",\"type\":\"uint256\"},{\"internalType\":\"uint256\",\"name\":\"decimals\",\"type\":\"uint256\"},{\"internalType\":\"uint256\",\"name\":\"currency\",\"type\":\"uint256\"}]},{\"internalType\":\"bool\",\"name\":\"useTotalSurplus\",\"type\":\"bool\"},{\"internalType\":\"uint256\",\"name\":\"redemptionRate\",\"type\":\"uint256\"},{\"internalType\":\"bytes\",\"name\":\"metadata\",\"type\":\"bytes\"}]}],\"stateMutability\":\"view\",\"type\":\"function\",\"name\":\"totalRedemptionWeight\",\"outputs\":[{\"internalType\":\"uint256\",\"name\":\"\",\"type\":\"uint256\"}]},{\"inputs\":[{\"internalType\":\"address\",\"name\":\"from\",\"type\":\"address\"},{\"internalType\":\"address\",\"name\":\"to\",\"type\":\"address\"},{\"internalType\":\"uint256\",\"name\":\"tokenId\",\"type\":\"uint256\"}],\"stateMutability\":\"nonpayable\",\"type\":\"function\",\"name\":\"transferFrom\"},{\"inputs\":[{\"internalType\":\"address\",\"name\":\"newOwner\",\"type\":\"address\"}],\"stateMutability\":\"nonpayable\",\"type\":\"function\",\"name\":\"transferOwnership\"},{\"inputs\":[{\"internalType\":\"uint256\",\"name\":\"projectId\",\"type\":\"uint256\"}],\"stateMutability\":\"nonpayable\",\"type\":\"function\",\"name\":\"transferOwnershipToProject\"},{\"inputs\":[],\"stateMutability\":\"view\",\"type\":\"function\",\"name\":\"trustedForwarder\",\"outputs\":[{\"internalType\":\"address\",\"name\":\"\",\"type\":\"address\"}]}],\"devdoc\":{\"kind\":\"dev\",\"methods\":{\"adjustTiers((uint104,uint32,uint32,uint16,address,bytes32,uint24,bool,bool,bool,bool,bool)[],uint256[])\":{\"details\":\"Only the contract's owner or an operator with the `ADJUST_TIERS` permission from the owner can adjust the tiers.Any added tiers must adhere to this hook's `JB721TiersHookFlags`.\",\"params\":{\"tierIdsToRemove\":\"The tiers to remove, as an array of tier IDs.\",\"tiersToAdd\":\"The tiers to add, as an array of `JB721TierConfig` structs`.\"}},\"afterPayRecordedWith((address,uint256,uint256,(address,uint256,uint256,uint256),(address,uint256,uint256,uint256),uint256,uint256,address,bytes,bytes))\":{\"details\":\"Reverts if the calling contract is not one of the project's terminals.\",\"params\":{\"context\":\"The payment context passed in by the terminal.\"}},\"afterRedeemRecordedWith((address,uint256,uint256,uint256,(address,uint256,uint256,uint256),(address,uint256,uint256,uint256),uint256,address,bytes,bytes))\":{\"details\":\"Reverts if the calling contract is not one of the project's terminals.\",\"params\":{\"context\":\"The redemption context passed in by the terminal.\"}},\"approve(address,uint256)\":{\"details\":\"See {IERC721-approve}.\"},\"balanceOf(address)\":{\"params\":{\"owner\":\"The address to check the balance of.\"},\"returns\":{\"balance\":\"The number of NFTs the address owns across this hook's tiers.\"}},\"beforePayRecordedWith((address,address,(address,uint256,uint256,uint256),uint256,uint256,address,uint256,uint256,bytes))\":{\"details\":\"Sets this contract as the pay hook. Part of `IJBRulesetDataHook`.\",\"params\":{\"context\":\"The payment context passed to this contract by the `pay(...)` function.\"},\"returns\":{\"hookSpecifications\":\"The amount and data to send to pay hooks (this contract) instead of adding to the terminal's balance.\",\"weight\":\"The new `weight` to use, overriding the ruleset's `weight`.\"}},\"beforeRedeemRecordedWith((address,address,uint256,uint256,uint256,uint256,(address,uint256,uint256,uint256),bool,uint256,bytes))\":{\"details\":\"Sets this contract as the redeem hook. Part of `IJBRulesetDataHook`.This function is used for NFT redemptions, and will only be called if the project's ruleset has `useDataHookForRedeem` set to `true`.\",\"params\":{\"context\":\"The redemption context passed to this contract by the `redeemTokensOf(...)` function.\"},\"returns\":{\"hookSpecifications\":\"The amount and data to send to redeem hooks (this contract) instead of returning to the beneficiary.\",\"redeemCount\":\"The amount of tokens that should be considered redeemed.\",\"redemptionRate\":\"The redemption rate influencing the reclaim amount.\",\"totalSupply\":\"The total amount of tokens that are considered to be existing.\"}},\"constructor\":{\"params\":{\"directory\":\"A directory of terminals and controllers for projects.\",\"permissions\":\"A contract storing permissions.\",\"trustedForwarder\":\"The trusted forwarder for the ERC2771Context.\"}},\"firstOwnerOf(uint256)\":{\"details\":\"This is generally the address which paid for the NFT.\",\"params\":{\"tokenId\":\"The token ID of the NFT to get the first owner of.\"},\"returns\":{\"_0\":\"The address of the NFT's first owner.\"}},\"getApproved(uint256)\":{\"details\":\"See {IERC721-getApproved}.\"},\"initialize(uint256,string,string,address,string,address,string,((uint104,uint32,uint32,uint16,address,bytes32,uint24,bool,bool,bool,bool,bool)[],uint32,uint8,address),address,(bool,bool,bool,bool))\":{\"params\":{\"baseUri\":\"The URI to use as a base for full NFT `tokenUri`s.\",\"contractUri\":\"A URI where this contract's metadata can be found.\",\"flags\":\"A set of additional options which dictate how the hook behaves.\",\"name\":\"The name of the NFT collection.\",\"projectId\":\"The ID of the project this this hook is associated with.\",\"rulesets\":\"A contract storing and managing project rulesets.\",\"store\":\"The contract which stores the NFT's data.\",\"symbol\":\"The symbol representing the NFT collection.\",\"tiersConfig\":\"The NFT tiers and pricing context to initialize the hook with. The tiers must be sorted by price (from least to greatest).\",\"tokenUriResolver\":\"An optional contract responsible for resolving the token URI for each NFT's token ID.\"}},\"isApprovedForAll(address,address)\":{\"details\":\"See {IERC721-isApprovedForAll}.\"},\"isTrustedForwarder(address)\":{\"details\":\"Indicates whether any particular address is the trusted forwarder.\"},\"mintFor(uint16[],address)\":{\"params\":{\"beneficiary\":\"The address to mint to.\",\"tierIds\":\"The IDs of the tiers to mint from.\"},\"returns\":{\"tokenIds\":\"The IDs of the newly minted tokens.\"}},\"mintPendingReservesFor((uint256,uint256)[])\":{\"details\":\"\\\"Pending\\\" means that the NFTs have been reserved, but have not been minted yet.\",\"params\":{\"reserveMintConfigs\":\"Contains information about how many reserved tokens to mint for each tier.\"}},\"mintPendingReservesFor(uint256,uint256)\":{\"details\":\"\\\"Pending\\\" means that the NFTs have been reserved, but have not been minted yet.\",\"params\":{\"count\":\"The number of reserved NFTs to mint.\",\"tierId\":\"The ID of the tier to mint reserved NFTs from.\"}},\"name()\":{\"details\":\"See {IERC721Metadata-name}.\"},\"ownerOf(uint256)\":{\"details\":\"See {IERC721-ownerOf}.\"},\"pricingContext()\":{\"details\":\"If the `prices` contract is the zero address, this contract only accepts payments in the `currency` token.\",\"returns\":{\"currency\":\"The currency used for tier prices.\",\"decimals\":\"The amount of decimals being used in tier prices.\",\"prices\":\"The prices contract used to resolve the value of payments in currencies other than `currency`.\"}},\"redemptionWeightOf(uint256[],(address,address,uint256,uint256,uint256,uint256,(address,uint256,uint256,uint256),bool,uint256,bytes))\":{\"details\":\"An NFT's redemption weight is its price.To get their relative redemption weight, divide the result by the `totalRedemptionWeight(...)`.\",\"params\":{\"tokenIds\":\"The token IDs of the NFTs to get the cumulative redemption weight of.\"},\"returns\":{\"_0\":\"weight The redemption weight of the tokenIds.\"}},\"safeTransferFrom(address,address,uint256)\":{\"details\":\"See {IERC721-safeTransferFrom}.\"},\"safeTransferFrom(address,address,uint256,bytes)\":{\"details\":\"See {IERC721-safeTransferFrom}.\"},\"setApprovalForAll(address,bool)\":{\"details\":\"See {IERC721-setApprovalForAll}.\"},\"setMetadata(string,string,address,uint256,bytes32)\":{\"details\":\"Only this contract's owner can set the metadata.\",\"params\":{\"baseUri\":\"The new base URI.\",\"contractUri\":\"The new contract URI.\",\"encodedIPFSTUriTierId\":\"The ID of the tier to set the encoded IPFS URI of.\",\"encodedIPFSUri\":\"The encoded IPFS URI to set.\",\"tokenUriResolver\":\"The new URI resolver.\"}},\"setPermissionId(uint8)\":{\"params\":{\"permissionId\":\"The ID of the permission to use for `onlyOwner`.\"}},\"supportsInterface(bytes4)\":{\"details\":\"See {IERC165-supportsInterface}.\",\"params\":{\"interfaceId\":\"The ID of the interface to check for adherence to.\"}},\"symbol()\":{\"details\":\"See {IERC721Metadata-symbol}.\"},\"tokenURI(uint256)\":{\"details\":\"Defers to the `tokenUriResolver` if it is set. Otherwise, use the `tokenUri` corresponding with the NFT's tier.\",\"params\":{\"tokenId\":\"The token ID of the NFT to get the metadata URI of.\"},\"returns\":{\"_0\":\"The token URI from the `tokenUriResolver` if it is set. If it isn't set, the token URI for the NFT's tier.\"}},\"totalRedemptionWeight((address,address,uint256,uint256,uint256,uint256,(address,uint256,uint256,uint256),bool,uint256,bytes))\":{\"details\":\"An NFT's redemption weight is its price.\",\"returns\":{\"_0\":\"weight The total redemption weight.\"}},\"transferFrom(address,address,uint256)\":{\"details\":\"See {IERC721-transferFrom}.\"},\"transferOwnership(address)\":{\"params\":{\"newOwner\":\"The address that should receive ownership of this contract.\"}},\"transferOwnershipToProject(uint256)\":{\"details\":\"The `projectId` must fit within a `uint88`.\",\"params\":{\"projectId\":\"The ID of the project that should receive ownership of this contract.\"}},\"trustedForwarder()\":{\"details\":\"Returns the address of the trusted forwarder.\"}},\"version\":1},\"userdoc\":{\"kind\":\"user\",\"methods\":{\"DIRECTORY()\":{\"notice\":\"The directory of terminals and controllers for projects.\"},\"METADATA_ID_TARGET()\":{\"notice\":\"The ID used when parsing metadata.\"},\"PERMISSIONS()\":{\"notice\":\"A contract storing permissions.\"},\"PROJECTS()\":{\"notice\":\"Mints ERC-721s that represent project ownership and transfers.\"},\"RULESETS()\":{\"notice\":\"The contract storing and managing project rulesets.\"},\"STORE()\":{\"notice\":\"The contract that stores and manages data for this contract's NFTs.\"},\"adjustTiers((uint104,uint32,uint32,uint16,address,bytes32,uint24,bool,bool,bool,bool,bool)[],uint256[])\":{\"notice\":\"Add or delete tiers.\"},\"afterPayRecordedWith((address,uint256,uint256,(address,uint256,uint256,uint256),(address,uint256,uint256,uint256),uint256,uint256,address,bytes,bytes))\":{\"notice\":\"Mints one or more NFTs to the `context.benficiary` upon payment if conditions are met. Part of `IJBPayHook`.\"},\"afterRedeemRecordedWith((address,uint256,uint256,uint256,(address,uint256,uint256,uint256),(address,uint256,uint256,uint256),uint256,address,bytes,bytes))\":{\"notice\":\"Burns the specified NFTs upon token holder redemption, reclaiming funds from the project's balance for `context.beneficiary`. Part of `IJBRedeemHook`.\"},\"balanceOf(address)\":{\"notice\":\"The total number of this hook's NFTs that an address holds (from all tiers).\"},\"baseURI()\":{\"notice\":\"The base URI for the NFT `tokenUris`.\"},\"beforePayRecordedWith((address,address,(address,uint256,uint256,uint256),uint256,uint256,address,uint256,uint256,bytes))\":{\"notice\":\"The data calculated before a payment is recorded in the terminal store. This data is provided to the terminal's `pay(...)` transaction.\"},\"beforeRedeemRecordedWith((address,address,uint256,uint256,uint256,uint256,(address,uint256,uint256,uint256),bool,uint256,bytes))\":{\"notice\":\"The data calculated before a redemption is recorded in the terminal store. This data is provided to the terminal's `redeemTokensOf(...)` transaction.\"},\"contractURI()\":{\"notice\":\"This contract's metadata URI.\"},\"firstOwnerOf(uint256)\":{\"notice\":\"The first owner of an NFT.\"},\"hasMintPermissionFor(uint256,address)\":{\"notice\":\"Required by the IJBRulesetDataHook interfaces. Return false to not leak any permissions.\"},\"initialize(uint256,string,string,address,string,address,string,((uint104,uint32,uint32,uint16,address,bytes32,uint24,bool,bool,bool,bool,bool)[],uint32,uint8,address),address,(bool,bool,bool,bool))\":{\"notice\":\"Initializes a cloned copy of the original `JB721Hook` contract.\"},\"jbOwner()\":{\"notice\":\"This contract's owner information.\"},\"mintFor(uint16[],address)\":{\"notice\":\"Manually mint NFTs from the provided tiers .\"},\"mintPendingReservesFor((uint256,uint256)[])\":{\"notice\":\"Mint pending reserved NFTs based on the provided information.\"},\"mintPendingReservesFor(uint256,uint256)\":{\"notice\":\"Mint reserved pending reserved NFTs within the provided tier.\"},\"owner()\":{\"notice\":\"Returns the owner's address based on this contract's `JBOwner` owner information.\"},\"payCreditsOf(address)\":{\"notice\":\"If an address pays more than the price of the NFT they received, the extra amount is stored as credits which can be redeemed to mint NFTs.\"},\"pricingContext()\":{\"notice\":\"Context for the pricing of this hook's tiers.\"},\"projectId()\":{\"notice\":\"The ID of the project that this contract is associated with.\"},\"redemptionWeightOf(uint256[],(address,address,uint256,uint256,uint256,uint256,(address,uint256,uint256,uint256),bool,uint256,bytes))\":{\"notice\":\"The combined redemption weight of the NFTs with the specified token IDs.\"},\"renounceOwnership()\":{\"notice\":\"Gives up ownership of this contract, making it impossible to call `onlyOwner`/`_checkOwner` functions. Can only be called by the current owner.\"},\"setMetadata(string,string,address,uint256,bytes32)\":{\"notice\":\"Update this hook's URI metadata properties.\"},\"setPermissionId(uint8)\":{\"notice\":\"Sets the permission ID which, when granted from the owner, allows other addresses to perform operations on their behalf.\"},\"supportsInterface(bytes4)\":{\"notice\":\"Indicates if this contract adheres to the specified interface.\"},\"tokenURI(uint256)\":{\"notice\":\"The metadata URI of the NFT with the specified token ID.\"},\"totalRedemptionWeight((address,address,uint256,uint256,uint256,uint256,(address,uint256,uint256,uint256),bool,uint256,bytes))\":{\"notice\":\"The combined redemption weight of all outstanding NFTs.\"},\"transferOwnership(address)\":{\"notice\":\"Transfers ownership of this contract to a new account (the `newOwner`). Can only be called by the current owner.\"},\"transferOwnershipToProject(uint256)\":{\"notice\":\"Transfer ownership of this contract to a new Juicebox project.\"}},\"version\":1}},\"settings\":{\"remappings\":[\"@bananapus/=node_modules/@bananapus/\",\"@chainlink/=node_modules/@chainlink/\",\"@eth-optimism/=node_modules/@eth-optimism/\",\"@openzeppelin/=node_modules/@openzeppelin/\",\"@prb/=node_modules/@prb/\",\"@scroll-tech/=node_modules/@scroll-tech/\",\"@sphinx-labs/contracts/=node_modules/@sphinx-labs/contracts/contracts/foundry/\",\"@uniswap/=node_modules/@uniswap/\",\"ds-test/=lib/forge-std/lib/ds-test/src/\",\"forge-std/=lib/forge-std/src/\",\"hardhat/=node_modules/hardhat/\",\"solmate/=node_modules/solmate/\",\"sphinx/=lib/sphinx/packages/contracts/contracts/forge-std/src/\"],\"optimizer\":{\"enabled\":true,\"runs\":1000},\"metadata\":{\"bytecodeHash\":\"ipfs\"},\"compilationTarget\":{\"src/JB721TiersHook.sol\":\"JB721TiersHook\"},\"evmVersion\":\"paris\",\"libraries\":{}},\"sources\":{\"node_modules/@bananapus/core/src/abstract/JBPermissioned.sol\":{\"keccak256\":\"0xe08c8a7eeac9d1c7c2e0db6d5b98d1af09889300835a3d47d9f29319fecce703\",\"urls\":[\"bzz-raw://42645cf52bcc45053ef650790916faed5d0a74cecef336b217433fdd2c5c4166\",\"dweb:/ipfs/QmdMmxG1tSGucQwz4LYbVnuj7HU23YvqLH6xfrNWv5Bmus\"],\"license\":\"MIT\"},\"node_modules/@bananapus/core/src/enums/JBApprovalStatus.sol\":{\"keccak256\":\"0x61c69b6bac7d24b566d87cda23a77e4ca9cdb87200b106aba8534cb9a0973e33\",\"urls\":[\"bzz-raw://6a9ca7249de76f77a8252eefe6bd1b63d47952f25a2acfa2c8db967cdff4470c\",\"dweb:/ipfs/QmaxSxptRQNj8bNy96EreENmrnRWdKmhyihBcxyWzBX5BN\"],\"license\":\"MIT\"},\"node_modules/@bananapus/core/src/interfaces/IJBDirectory.sol\":{\"keccak256\":\"0x9cc380844aef60078ee47a61861e55a29c4a8c947efd556ebd36e6909f7b9d62\",\"urls\":[\"bzz-raw://9f5190ec8b6683d9781ee6e9eedcc91294753242748875d4a06349077e4cbaaf\",\"dweb:/ipfs/QmTQrPuXT9TCA4txwrperMeXSGvGxP8iokUK47f62F388i\"],\"license\":\"MIT\"},\"node_modules/@bananapus/core/src/interfaces/IJBPayHook.sol\":{\"keccak256\":\"0x9438866782c652c2942f4d114e35f393cd3c8b0334abce8387eed90bca35e8b2\",\"urls\":[\"bzz-raw://cfd99daf57213f92325aad7d7d16e98476d38e870470e95ba01e3ae3cdecc95d\",\"dweb:/ipfs/QmUKKAVGf7ki8BHksr99tFcRW8APveeB5tNH63ctTbbCW8\"],\"license\":\"MIT\"},\"node_modules/@bananapus/core/src/interfaces/IJBPermissioned.sol\":{\"keccak256\":\"0x5b038d4dee116584e88b230920e56d48e135053e3f7e5642eaea14a775c1dad7\",\"urls\":[\"bzz-raw://19e43102f349fd4a1da1c0943ffb8f2950007fe4bb4bb7e8f74fc142575d091b\",\"dweb:/ipfs/QmXHAt4KzDTdDZgDDefEXH2WKi7NcfkJb9R7nxW5uDqsNp\"],\"license\":\"MIT\"},\"node_modules/@bananapus/core/src/interfaces/IJBPermissions.sol\":{\"keccak256\":\"0x18870e500edf0fbadc353e273a5574701fb80466376b908c65e7cc3f11044d4d\",\"urls\":[\"bzz-raw://352a47c45853aec80e7acf0d286ade3106eb4cb456776b28a3c2f3f1091bed90\",\"dweb:/ipfs/QmQeYd3YbudYZy2hfbfht9kwhxhw4tuuLKMEYy9UY6dcSy\"],\"license\":\"MIT\"},\"node_modules/@bananapus/core/src/interfaces/IJBPriceFeed.sol\":{\"keccak256\":\"0x4bd84c0f1a5d4729ed709bcddd43f4c50ec4a165ece79780af8dce482ed07d4a\",\"urls\":[\"bzz-raw://62bac4bfb6982fb002f620c77e5c445e62d50241a5aa64a07e51d929f5a42180\",\"dweb:/ipfs/QmWgJUDreVY2BuMX38a1iUUR5kNbMwGnKG3VvurB7oZtuM\"],\"license\":\"MIT\"},\"node_modules/@bananapus/core/src/interfaces/IJBPrices.sol\":{\"keccak256\":\"0x99525f31440b955742dce84ba57de9fc1221139b5367c1f834723bef9e13e6e1\",\"urls\":[\"bzz-raw://6fa03f0cd4ad87dd7cbae7bf7f54463450874291773c8f70f2c31ef2cae62bb0\",\"dweb:/ipfs/QmSPajPV5ismteJuB6Spzm9VmhTj2iS3eVrfpJC1Zuzg8n\"],\"license\":\"MIT\"},\"node_modules/@bananapus/core/src/interfaces/IJBProjects.sol\":{\"keccak256\":\"0x735c2fb8f1fa827f054ee77f7a0ae4b312656217acb75b624d2c8fd9dc40151b\",\"urls\":[\"bzz-raw://ee7fc92299a8633a80693ae63ab494dcd125f1789487a54a39dc0e5696e5996f\",\"dweb:/ipfs/QmX7YJD4pS2XhgQb7p3JbBAXynT7YGPXcZe92BiWWRrsCL\"],\"license\":\"MIT\"},\"node_modules/@bananapus/core/src/interfaces/IJBRedeemHook.sol\":{\"keccak256\":\"0x8ab46fcd7d0e739661eb76056ad93ff99106f38420ef0b4eb97fa9f4bb71a68a\",\"urls\":[\"bzz-raw://0ef96fcb7ad26281d444d8e0c677b25114fdd63b1c172d477e030dce8ba53b62\",\"dweb:/ipfs/Qmcx1jRQuwU4pZFuLxsSsx4oMbRaDfktHrPnXextgbWc5m\"],\"license\":\"MIT\"},\"node_modules/@bananapus/core/src/interfaces/IJBRulesetApprovalHook.sol\":{\"keccak256\":\"0x592e95d159494421c6b1bcb362d0cee1df0132921697351304e9cd7af4fbd386\",\"urls\":[\"bzz-raw://5bebfd5fa67c1b6ea16fa2e76e9520e9dfe52a579f48dd94d0c2ec45f78ad178\",\"dweb:/ipfs/QmRUawEGtfYoYSHmHELGhvJoWuMsxLPKtqAXgsrb7fJboP\"],\"license\":\"MIT\"},\"node_modules/@bananapus/core/src/interfaces/IJBRulesetDataHook.sol\":{\"keccak256\":\"0x13b4b9f4b847f62442da1c1a59b399f8f201b31a28edb96aa5a8a78ad57c24d0\",\"urls\":[\"bzz-raw://4fcd00b77d0f40cf6d5ee6590b6ef4ee1f606e89ae4c4faed3710fb462108f8e\",\"dweb:/ipfs/QmeoE54DQ3eGw9EDXfN7aTMmEjubAtirahmytDijo6GSeE\"],\"license\":\"MIT\"},\"node_modules/@bananapus/core/src/interfaces/IJBRulesets.sol\":{\"keccak256\":\"0xd3f817d22ecbe24da63c552c069bf0c4fbbf3bcd5c3b5633002afd24aacf6882\",\"urls\":[\"bzz-raw://c1185aec0f6b6f0f4d93ffeeed0972ccf38420b00fe570b5e1838ed2b1f5db49\",\"dweb:/ipfs/QmWz36azGTFnjFXpFSh6BHt4nactgjtF64L3PeTqs4ZqSR\"],\"license\":\"MIT\"},\"node_modules/@bananapus/core/src/interfaces/IJBTerminal.sol\":{\"keccak256\":\"0x19dc9bf8cbdc8f13ee5da9dc3a87047eacb94a3fc19740a286c1f0bad2cc39ca\",\"urls\":[\"bzz-raw://0b05ae6fda9a85672508232fd992b8a5f5ffd8096622eeb12c8a7b3317eb3867\",\"dweb:/ipfs/QmNh9Quj37BXYGdTdcCD1Q58PchRsE5TLbEZep56qS3MpV\"],\"license\":\"MIT\"},\"node_modules/@bananapus/core/src/interfaces/IJBTokenUriResolver.sol\":{\"keccak256\":\"0xfa5cb00dcd6085d1ef912d071fe73c63f9478a2cd0f9d8bddaf659b6af2d0967\",\"urls\":[\"bzz-raw://282e4e7c342d65f77cde0e9a08fcaf20ef5cf379c7a48b639842c0ffd0b2afb8\",\"dweb:/ipfs/QmbnN3PEQeZaXdPLT75V1J79kMg7KqSMru37RHrL3z8Yf2\"],\"license\":\"MIT\"},\"node_modules/@bananapus/core/src/libraries/JBConstants.sol\":{\"keccak256\":\"0x9d3a9a953f859d8ec79a599577f8972de6da7199cc1bfa7fdad017d4d722bcb4\",\"urls\":[\"bzz-raw://f151fcb53a8d2684eff8b9e56ac790bcbcadd8199a4fd4d17c5b224b22936722\",\"dweb:/ipfs/QmdAz1ZtCE8nTiC4AxQNLfJhnY3ndGum2Lbef7seKdvTdR\"],\"license\":\"MIT\"},\"node_modules/@bananapus/core/src/libraries/JBMetadataResolver.sol\":{\"keccak256\":\"0x900731084917f812806a35dab2c7ae65a6f07506d6c953ae0cd6d993fe85560f\",\"urls\":[\"bzz-raw://2002892aef205b5192fa5c2d1cf1698ba0836bed7eaba839444cd0f93b4fb050\",\"dweb:/ipfs/QmPRGSNRdpST1xt2brhGWSDsEYD29j5QwaJ3SA518UUXWs\"],\"license\":\"MIT\"},\"node_modules/@bananapus/core/src/libraries/JBRulesetMetadataResolver.sol\":{\"keccak256\":\"0x83f25c531d9e212379b4326fd93bf658a0f6d0e839bbd67bff7b66b9b55fb670\",\"urls\":[\"bzz-raw://3eb4a41ececec705febac7b799d7224e67f12761ae3975d49dd8bddaac608ecd\",\"dweb:/ipfs/QmNgL5VccDhP5xofEcGWNKk3v4KG23wGF9vc3d4YJ5MLnv\"],\"license\":\"MIT\"},\"node_modules/@bananapus/core/src/structs/JBAccountingContext.sol\":{\"keccak256\":\"0x2907ff54d1e903cc7e0390dd88c3975884702dc2673642aacbe22b66560b56de\",\"urls\":[\"bzz-raw://a66a5381ce877b32f0e0058ceeaf843e9b6b2bc8af666c0c9f4a9d01091da004\",\"dweb:/ipfs/QmQynCetUr37dBkS1YwDS8evxuXGiqanW6THmeUxXtim8w\"],\"license\":\"MIT\"},\"node_modules/@bananapus/core/src/structs/JBAfterPayRecordedContext.sol\":{\"keccak256\":\"0xd26c3a774ff38be79064085970454fe2603a23a638c76270d5b1b3829206c3e8\",\"urls\":[\"bzz-raw://3b55dbe3bf1ef625b7ca04efab3de35406e6041d5b3d82c7265469c500e2b702\",\"dweb:/ipfs/QmUdBDo4Lt3mcsFcsXT2mqq3czFwZjQJFPLM89YA2VtD7k\"],\"license\":\"MIT\"},\"node_modules/@bananapus/core/src/structs/JBAfterRedeemRecordedContext.sol\":{\"keccak256\":\"0x521f5d23a36f0da72362cd84890cc867bd83baa8dc836ba6c5066d51dba2f163\",\"urls\":[\"bzz-raw://6cc461313286dde62d045d6288e87bae5032e035796326f5b1ed6218e58aa9da\",\"dweb:/ipfs/QmQS2AkQwf2ANQieDuaUnpJEdXChoLv4CCbZqHkfywYPSR\"],\"license\":\"MIT\"},\"node_modules/@bananapus/core/src/structs/JBBeforePayRecordedContext.sol\":{\"keccak256\":\"0x5b04e814da83c7e83ff892ab07eaad6abce6f7b85a75f8da9380e9fc3470bc81\",\"urls\":[\"bzz-raw://11c889aab993fce3e3cc2dedc15fc30dd367e7fef9b7b1bfd6a6a9f248781731\",\"dweb:/ipfs/QmVVtydCD1azeWhGLxA1hthxfLyKzMHZ1eVzCz3a3R5dLy\"],\"license\":\"MIT\"},\"node_modules/@bananapus/core/src/structs/JBBeforeRedeemRecordedContext.sol\":{\"keccak256\":\"0x73eadaf6827e82f6ccbe3a1e2b2b7fc6c59cef471f73335041b30ddcc000989d\",\"urls\":[\"bzz-raw://2f3ee84662eed565dbdaed406ef836fffaf55cccd417575578152e5085d0b1f2\",\"dweb:/ipfs/QmaJGFS7hxJsiUdKvbv5BKhSwceDEzKBnt7t5YeNWvYgMK\"],\"license\":\"MIT\"},\"node_modules/@bananapus/core/src/structs/JBPayHookSpecification.sol\":{\"keccak256\":\"0x955f0bfca97300b9e5927dc181753830ee362f83fa9ca32a90daade32aa0cfd5\",\"urls\":[\"bzz-raw://f517af1597c7c40f8d3da53f7a6684a3e162950a16559d6bf6ea3b727bb11546\",\"dweb:/ipfs/QmRWo2ZTYXmVZTzNJDYhsJNsEaHphjpUfx9eNz2cciyz86\"],\"license\":\"MIT\"},\"node_modules/@bananapus/core/src/structs/JBPermissionsData.sol\":{\"keccak256\":\"0x8f0f69a6ebf5f3704e3dfcb3712fb9d3f94ae7c1ab89bf3e37bad42a3e7a0487\",\"urls\":[\"bzz-raw://57b0c5e52843e2217082889ed47b4da3943e0da4590d5768dcebfe3edad4a6b8\",\"dweb:/ipfs/QmRz48vuWLw81kUP836rh1qzqWiJFGbksgRUA9xGEDNKTY\"],\"license\":\"MIT\"},\"node_modules/@bananapus/core/src/structs/JBRedeemHookSpecification.sol\":{\"keccak256\":\"0x673d16ee1a91bf8de3b37e57284e60451b70a9c2d748c9cdc7a151f5624af18f\",\"urls\":[\"bzz-raw://ceeb5e81effa0f076c5630c756dfcf1548d09f822b255a0a6ee01e54de8c8ae2\",\"dweb:/ipfs/QmSMoMNPRhPMnuJNvWa6S59XRfycGz9o2ApNp63bUW6TdX\"],\"license\":\"MIT\"},\"node_modules/@bananapus/core/src/structs/JBRuleset.sol\":{\"keccak256\":\"0x15b2bf3174d84846a91ccbf5a344dfb125b55ed9cf50102db8d6868844225189\",\"urls\":[\"bzz-raw://647416b025dbd941094db89cbc69f755c155bd6c87be3f322394ccc4a8e0442d\",\"dweb:/ipfs/QmTCL9xcHnxQ4t5AmCPoZvXDUPW5xhzhyyXYbkMdyg44au\"],\"license\":\"MIT\"},\"node_modules/@bananapus/core/src/structs/JBRulesetMetadata.sol\":{\"keccak256\":\"0xfea54c9f98416d2aa05309e7ff76967d6968a614850a1e33e48fde793ea8b514\",\"urls\":[\"bzz-raw://bf55386cbab90dbc1296b2b0cbfdc217a4500d67702e4a093a4c78bd127ecd5c\",\"dweb:/ipfs/QmTRq9mZrNSXu7oCZwti4JbBFrbY6A5msRqi9RbtL49NAj\"],\"license\":\"MIT\"},\"node_modules/@bananapus/core/src/structs/JBTokenAmount.sol\":{\"keccak256\":\"0x5cf0626b73a596c1e2da17c89ae039a7c0374310b060d48568d3b6c11fbe6180\",\"urls\":[\"bzz-raw://63348b50be95e2995409394a17caffc563a646f0972650a1230bf864fbd3219b\",\"dweb:/ipfs/QmZXZpS3SbFD5nWaCauf6AqbEhLURv5qsKHpThBvQgDU6u\"],\"license\":\"MIT\"},\"node_modules/@bananapus/ownable/src/JBOwnable.sol\":{\"keccak256\":\"0x5b0aec2bc7164bdb972bfb9f71660c887308cf3a72738c7469d03bf264cf0d54\",\"urls\":[\"bzz-raw://bf4f60cebc0a707004371425aa3c8751b6a84dfb4fc9bf788160ae9ac1e906f6\",\"dweb:/ipfs/QmegUfWLhKuByQTkfMkmwkEs2Tk5ZEuR56DqQw5kxFzP3d\"],\"license\":\"MIT\"},\"node_modules/@bananapus/ownable/src/JBOwnableOverrides.sol\":{\"keccak256\":\"0x70a7c55f2a0f4324b63afe61e9d0de6e54396073e431844a19936d2aaaf6d7dd\",\"urls\":[\"bzz-raw://94c55139a8e974e2a88c6f0fc7594be3044742cfc499c989051eaf6664ec7dab\",\"dweb:/ipfs/QmQPnLAootqEGzpHRdhsYGBU3cqicRYLAe6bTti2UCBHyS\"],\"license\":\"MIT\"},\"node_modules/@bananapus/ownable/src/interfaces/IJBOwnable.sol\":{\"keccak256\":\"0x2c513558439d763df03e8a68c1aef698618182fd44c285405c35597d52c65ad1\",\"urls\":[\"bzz-raw://11cc25c41fccc20cca29f93dd120e67760188fd2040ef0330a093d37fbfa2f8f\",\"dweb:/ipfs/QmWpxcv41eYmsNYT3ph1nts5pC7sp3EzwJxKDGebMqEbsH\"],\"license\":\"MIT\"},\"node_modules/@bananapus/ownable/src/struct/JBOwner.sol\":{\"keccak256\":\"0x5624ba356f01f722984c1b857a106f413b12e57bae1f762a81c16ee511e3325a\",\"urls\":[\"bzz-raw://3120b5649ac8b55158df138dcac03f6850fc988cc5a24a7cb06e6581265ca284\",\"dweb:/ipfs/QmQBSLxRT9j1MEERUt8dWbSsAjianbHpM2CFwciLK7MwaP\"],\"license\":\"MIT\"},\"node_modules/@bananapus/permission-ids/src/JBPermissionIds.sol\":{\"keccak256\":\"0xf61109f6b217a80d5e5391f548fb6f2e451f7dbee3fabfc04cf17e88722203bc\",\"urls\":[\"bzz-raw://ac776ab1cd621c22bd7973471acdfa187f3abc659ad9a3ef6ed10b6447dfcf9c\",\"dweb:/ipfs/QmYLbaHt68qcuMzkiKpe96jMjiWUq1F3u8yMhxmZ3pnnWu\"],\"license\":\"MIT\"},\"node_modules/@openzeppelin/contracts/interfaces/IERC2981.sol\":{\"keccak256\":\"0x89b84f7b1b2d6c294cd6b9a9f661c1cfb1b9b10ca7bac5b3445850a8ce96dcf1\",\"urls\":[\"bzz-raw://44f961aefa43a50c94d8b68e749235b2cf3bd1de18bf6f2e5e1c0fd9a59e06ea\",\"dweb:/ipfs/QmNzd2bnJidavPtt2hQ1em387T6W37n3kDx8WrneCZozxV\"],\"license\":\"MIT\"},\"node_modules/@openzeppelin/contracts/interfaces/draft-IERC6093.sol\":{\"keccak256\":\"0x60c65f701957fdd6faea1acb0bb45825791d473693ed9ecb34726fdfaa849dd7\",\"urls\":[\"bzz-raw://ea290300e0efc4d901244949dc4d877fd46e6c5e43dc2b26620e8efab3ab803f\",\"dweb:/ipfs/QmcLLJppxKeJWqHxE2CUkcfhuRTgHSn8J4kijcLa5MYhSt\"],\"license\":\"MIT\"},\"node_modules/@openzeppelin/contracts/metatx/ERC2771Context.sol\":{\"keccak256\":\"0x98256cf37b71a69b2f5a8a6fe975ea03590dff703102bd141a830f94e8adebf6\",\"urls\":[\"bzz-raw://6251fe1f6a1e45e6d619d150c123afc88b8646b38ee26a136efa9a6988a31d3f\",\"dweb:/ipfs/QmeXDT85wSZdP31wkz3ah3KhponCiksJLP5o2LR5e1JxcK\"],\"license\":\"MIT\"},\"node_modules/@openzeppelin/contracts/token/ERC721/IERC721.sol\":{\"keccak256\":\"0x5ef46daa3b58ef2702279d514780316efaa952915ee1aa3396f041ee2982b0b4\",\"urls\":[\"bzz-raw://2f8f2a76e23b02fc69e8cd24c3cb47da6c7af3a2d6c3a382f8ac25c6e094ade7\",\"dweb:/ipfs/QmPV4ZS4tPVv4mTCf9ejyZ1ai57EEibDRj7mN2ARDCLV5n\"],\"license\":\"MIT\"},\"node_modules/@openzeppelin/contracts/token/ERC721/IERC721Receiver.sol\":{\"keccak256\":\"0x7f7a26306c79a65fb8b3b6c757cd74660c532cd8a02e165488e30027dd34ca49\",\"urls\":[\"bzz-raw://d01e0b2b837ee2f628545e54d8715b49c7ef2befd08356c2e7f6c50dde8a1c22\",\"dweb:/ipfs/QmWBAn6y2D1xgftci97Z3qR9tQnkvwQpYwFwkTvDMvqU4i\"],\"license\":\"MIT\"},\"node_modules/@openzeppelin/contracts/token/ERC721/extensions/IERC721Metadata.sol\":{\"keccak256\":\"0x37d1aaaa5a2908a09e9dcf56a26ddf762ecf295afb5964695937344fc6802ce1\",\"urls\":[\"bzz-raw://ed0bfc1b92153c5000e50f4021367b931bbe96372ac6facec3c4961b72053d02\",\"dweb:/ipfs/Qmbwp8VDerjS5SV1quwHH1oMXxPQ93fzfLVqJ2RCqbowGE\"],\"license\":\"MIT\"},\"node_modules/@openzeppelin/contracts/utils/Context.sol\":{\"keccak256\":\"0x493033a8d1b176a037b2cc6a04dad01a5c157722049bbecf632ca876224dd4b2\",\"urls\":[\"bzz-raw://6a708e8a5bdb1011c2c381c9a5cfd8a9a956d7d0a9dc1bd8bcdaf52f76ef2f12\",\"dweb:/ipfs/Qmax9WHBnVsZP46ZxEMNRQpLQnrdE4dK8LehML1Py8FowF\"],\"license\":\"MIT\"},\"node_modules/@openzeppelin/contracts/utils/Strings.sol\":{\"keccak256\":\"0x55f102ea785d8399c0e58d1108e2d289506dde18abc6db1b7f68c1f9f9bc5792\",\"urls\":[\"bzz-raw://6e52e0a7765c943ef14e5bcf11e46e6139fa044be564881378349236bf2e3453\",\"dweb:/ipfs/QmZEeeXoFPW47amyP35gfzomF9DixqqTEPwzBakv6cZw6i\"],\"license\":\"MIT\"},\"node_modules/@openzeppelin/contracts/utils/introspection/ERC165.sol\":{\"keccak256\":\"0x9e8778b14317ba9e256c30a76fd6c32b960af621987f56069e1e819c77c6a133\",\"urls\":[\"bzz-raw://1777404f1dcd0fac188e55a288724ec3c67b45288e49cc64723e95e702b49ab8\",\"dweb:/ipfs/QmZFdC626GButBApwDUvvTnUzdinevC3B24d7yyh57XkiA\"],\"license\":\"MIT\"},\"node_modules/@openzeppelin/contracts/utils/introspection/IERC165.sol\":{\"keccak256\":\"0x4296879f55019b23e135000eb36896057e7101fb7fb859c5ef690cf14643757b\",\"urls\":[\"bzz-raw://87b3541437c8c443ccd36795e56a338ed12855eec17f8da624511b8d1a7e14df\",\"dweb:/ipfs/QmeJQCtZrQjtJLr6u7ZHWeH3pBnjtLWzvRrKViAi7UZqxL\"],\"license\":\"MIT\"},\"node_modules/@openzeppelin/contracts/utils/math/Math.sol\":{\"keccak256\":\"0x005ec64c6313f0555d59e278f9a7a5ab2db5bdc72a027f255a37c327af1ec02d\",\"urls\":[\"bzz-raw://4ece9f0b9c8daca08c76b6b5405a6446b6f73b3a15fab7ff56e296cbd4a2c875\",\"dweb:/ipfs/QmQyRpyPRL5SQuAgj6SHmbir3foX65FJjbVTTQrA2EFg6L\"],\"license\":\"MIT\"},\"node_modules/@openzeppelin/contracts/utils/math/SignedMath.sol\":{\"keccak256\":\"0x5f7e4076e175393767754387c962926577f1660dd9b810187b9002407656be72\",\"urls\":[\"bzz-raw://7d533a1c97cd43a57cd9c465f7ee8dd0e39ae93a8fb8ff8e5303a356b081cdcc\",\"dweb:/ipfs/QmVBEei6aTnvYNZp2CHYVNKyZS4q1KkjANfY39WVXZXVoT\"],\"license\":\"MIT\"},\"node_modules/@prb/math/src/Common.sol\":{\"keccak256\":\"0xaa374e2c26cc93e8c22a6953804ee05f811597ef5fa82f76824378b22944778b\",\"urls\":[\"bzz-raw://279c732e161d623cf4d8a9519ca4c42c0c2db99842d0eb2a20c10fde3fa722c9\",\"dweb:/ipfs/QmVViuUXbinQGqtG5M21SgVzKihiCbFUChd4tDhtvwRmxH\"],\"license\":\"MIT\"},\"src/JB721TiersHook.sol\":{\"keccak256\":\"0x192829d2a185a3fd7367a00bd0eab81588024494ac0e9207567ef75e614af474\",\"urls\":[\"bzz-raw://ca09b9988fd650be0ea113d809fc2845665383ed3115dd8f60d6f640371f77a3\",\"dweb:/ipfs/QmNW2EuBU72mrf1TvDqPLc6Hz41Hv3v4PmFbRAJtkDFKx8\"],\"license\":\"MIT\"},\"src/abstract/ERC721.sol\":{\"keccak256\":\"0xc25c7c60c88684adc3f7a49621d27866866a44a3f3796e63c9fcaba75fbb2e84\",\"urls\":[\"bzz-raw://713103b7a05402264493430cfcd7d85f1a241a2eb4756af53a370fa529ea07bf\",\"dweb:/ipfs/QmSXZfxCG1N9XheS1kLCNJZ9k6ZRq4GnAMY7MKFfbKLXmz\"],\"license\":\"MIT\"},\"src/abstract/JB721Hook.sol\":{\"keccak256\":\"0x1b31d00bcea54b155ace08389c7c6339b84586e6e573306eb61f0e174d74e276\",\"urls\":[\"bzz-raw://61f592eec4c5845ffee791b3669985ecf6d309f36f41ddc446e794da5f237c5e\",\"dweb:/ipfs/QmcPftyc6SNczmH4CicQkZFt6drMs98Bx2ewGvcbggCV2M\"],\"license\":\"MIT\"},\"src/interfaces/IJB721Hook.sol\":{\"keccak256\":\"0xb8b6f9ec718baa9792197c8a835a57e990707be6c6420c567f9f1633218a7889\",\"urls\":[\"bzz-raw://50b2f9ce98be831380abd18dc5fbece6212da14f7a113eb96640f23d5e956545\",\"dweb:/ipfs/QmfV4sawmWR2hrqvaAPUyYEYeX92V1gy5uwU1N7YX9TcWG\"],\"license\":\"MIT\"},\"src/interfaces/IJB721TiersHook.sol\":{\"keccak256\":\"0xbd9a8dae00a4b1a02c628bd172fe4ae496e49f7651426cef08774ffdb6125c23\",\"urls\":[\"bzz-raw://9ce4fd77d5af1f570dad6b70758f09f9599768e1ab32f6b473f6181197daa0c8\",\"dweb:/ipfs/QmWj6sCTvZ2CbfSyRuhaXADxYbwwPcR42pZokcgfjpsabg\"],\"license\":\"MIT\"},\"src/interfaces/IJB721TiersHookStore.sol\":{\"keccak256\":\"0x8550e216c12c9cda865c1b1b0eb3f244aeaa8d465b197d4bd0dd8d4df265682e\",\"urls\":[\"bzz-raw://674a312f1eaffd7c6b21f58f8d4a628104e71220daf48a22237fa3bd035ddf21\",\"dweb:/ipfs/QmSRSW6cSwdpoGjVxDqiwJmJyCxfHWhCxZ2iaqeJcN2Ccy\"],\"license\":\"MIT\"},\"src/interfaces/IJB721TokenUriResolver.sol\":{\"keccak256\":\"0xfa599167098f4459320ec4141a98a17b2dfffbce422baa27d8b4e4530f61ece1\",\"urls\":[\"bzz-raw://8b758b161f4c7b520b2c34b4d91e585e961b8f4ca278eebb91d791f7f2f45140\",\"dweb:/ipfs/QmcD9DF7NJ9QykQpT4KPzm4bs3fkjzukdAUWwdU6Atfw85\"],\"license\":\"MIT\"},\"src/libraries/JB721TiersRulesetMetadataResolver.sol\":{\"keccak256\":\"0xe1e224860fce816c0566c4b22044eb2f5a767a09764d00482b954733bf18e51e\",\"urls\":[\"bzz-raw://043663de2a9c7e822e947e0b68833e77985d493bebcb48f86bf1b67f937417fc\",\"dweb:/ipfs/QmXVXPdpLfmT2a97gUQ5d2XSsHXhgpiTfs7w2ZtoD55uAd\"],\"license\":\"MIT\"},\"src/libraries/JBIpfsDecoder.sol\":{\"keccak256\":\"0xb93ba562ac1fc9d3829be00e61f3a90f51df5661cf0f2c819a7f1d8ba19ec171\",\"urls\":[\"bzz-raw://fc9bc948fac8897d9720ef25b13d63c60b40a18aa1897dd1c657fc278c416b4f\",\"dweb:/ipfs/QmNtiJTALZW5zfyKVy7XG5GkqGgMrfkVvU4Auu4bb9cGQc\"],\"license\":\"MIT\"},\"src/structs/JB721InitTiersConfig.sol\":{\"keccak256\":\"0xfb78486cec94189d0ecf2050dc9cfc11245b426c73a0711a85bff1359d774307\",\"urls\":[\"bzz-raw://a8fa01f6e64dd204dbde07a60851e9a5a74e439e1411139ae16b7cf67d2a2692\",\"dweb:/ipfs/QmZAnHyfpKr3xr7NWHj5sGaCEEtG8RtmHhkRUJJvNauym5\"],\"license\":\"MIT\"},\"src/structs/JB721Tier.sol\":{\"keccak256\":\"0x2e267a8af02f125465cdda9308477346ae4a94b024c3b2c2a6af0c00027944dd\",\"urls\":[\"bzz-raw://367ccea2c8fa815d498d771d4367ef1ded718a76e89644102034bfe4a3636b82\",\"dweb:/ipfs/QmYiFFa6ei9wZBSSVUHfY2Cb35zCDVXvbmLcgLj2BTiC1u\"],\"license\":\"MIT\"},\"src/structs/JB721TierConfig.sol\":{\"keccak256\":\"0x2fa9c5c8cec182b854a656d3b284e9d5306be35ad3dc4da79d65dca12b804af0\",\"urls\":[\"bzz-raw://b443a5f70195a66145ea1dade04454ce9a3ff1209e1aaecf53c8a9909b294d79\",\"dweb:/ipfs/QmUDPFZ4L6XpV3zLQUNVchUvecD4XfddKz2S46BKek5XL1\"],\"license\":\"MIT\"},\"src/structs/JB721TiersHookFlags.sol\":{\"keccak256\":\"0x283d8429f31bd58875c056515aa42abd09c95362bd929e85cfc44a0d92585766\",\"urls\":[\"bzz-raw://9a580b89fe99d9f8e930c58a4d0d63a5ff7c01c79d210af01373d066c9e72ed6\",\"dweb:/ipfs/QmdY1eSGSoTjv4KSdsG4Tm5CzJN6iqk3qTRga5ZWNbejRz\"],\"license\":\"MIT\"},\"src/structs/JB721TiersMintReservesConfig.sol\":{\"keccak256\":\"0xab3b319dc4e736586ae595de194d93dcdfeba365bc7a54cf6c37e697f6074ad9\",\"urls\":[\"bzz-raw://a84ae2cf2e8c3e39e831dbb39a67a8eb43c78a6de6bb78b1be2e1f1e80c69efe\",\"dweb:/ipfs/QmboGXEMqsYTxc4a7oft9rggNU7ShWSa9yB4HFMVmzXCHz\"],\"license\":\"MIT\"},\"src/structs/JB721TiersRulesetMetadata.sol\":{\"keccak256\":\"0x6720a6ada2a882f99afa050e40b6c925439da4339240565a0e706521b3aadc6b\",\"urls\":[\"bzz-raw://ede4a3165276d9d89eeea2dfd56f68d77dbfaedb738b30c8a0faa81c3a153b1b\",\"dweb:/ipfs/QmXa4QCb6K9MXxwNKed17VWeX9crKeMjkQnVk2xMARzh76\"],\"license\":\"MIT\"}},\"version\":1}",
			"args": [
				"0x44d360C8c4105f180e07668bd3374c7A6F812FAF",
				"0x711eda44F3D42F3d255846b5EE36Cf70Fd912E50",
				"0xB2b5841DBeF766d4b521221732F9B618fCf34A87"
			],
			"bytecode": "0x6101206040523480156200001257600080fd5b50604051620062823803806200628283398101604081905262000035916200038b565b8281846001600160a01b031663293c49996040518163ffffffff1660e01b8152600401602060405180830381865afa15801562000076573d6000803e3d6000fd5b505050506040513d601f19601f820116820180604052508101906200009c9190620003df565b6001600160a01b03858116608052811660a052843360008383838381620000d65760405163ecb9b1c760e01b815260040160405180910390fd5b620000e282826200010a565b505050506001600160a01b0394851660c052505050501660e052505030610100525062000406565b6001600160581b038116158015906200012b57506001600160a01b03821615155b156200014a5760405163ecb9b1c760e01b815260040160405180910390fd5b60408051606081018252600080546001600160a01b0381168352600160a01b81046001600160581b031660208401819052600160f81b90910460ff1693830193909352909115620002195760a05160208301516040516331a9108f60e11b81526001600160581b0390911660048201526001600160a01b0390911690636352211e90602401602060405180830381865afa158015620001ed573d6000803e3d6000fd5b505050506040513d601f19601f82011682018060405250810190620002139190620003df565b6200021c565b81515b604080516060810182526001600160a01b0387168082526001600160581b0387166020830181905260009290930182905281547fff000000000000000000000000000000000000000000000000000000000000001617600160a01b909202919091176001600160f81b031690559050620002988185856200029e565b50505050565b6001600160581b038116156200032c5760a0516040516331a9108f60e11b81526001600160581b03831660048201526001600160a01b0390911690636352211e90602401602060405180830381865afa15801562000300573d6000803e3d6000fd5b505050506040513d601f19601f82011682018060405250810190620003269190620003df565b6200032e565b815b6001600160a01b0316836001600160a01b03167f8be0079c531659141344cd1fd0a4f28419497f9722a3daafe3b4186f6b6457e060405160405180910390a3505050565b6001600160a01b03811681146200038857600080fd5b50565b600080600060608486031215620003a157600080fd5b8351620003ae8162000372565b6020850151909350620003c18162000372565b6040850151909250620003d48162000372565b809150509250925092565b600060208284031215620003f257600080fd5b8151620003ff8162000372565b9392505050565b60805160a05160c05160e05161010051615ddc620004a66000396000818161096e01528181611359015281816119bb01526133990152600081816106e00152818161127601526120bd01526000818161055e015281816106aa01526137e201526000818161046d0152818161186e01528181612cb101528181612e030152613b090152600081816109d50152818161256901526126120152615ddc6000f3fe6080604052600436106102fd5760003560e01c8063715018a61161018f578063c07f2f9b116100e1578063e985e9c51161008a578063f3c5788111610064578063f3c57881146109b0578063f434c914146109c3578063fef50848146109f757600080fd5b8063e985e9c514610913578063edab09b91461095c578063f2fde38b1461099057600080fd5b8063d4a1b4b1116100bb578063d4a1b4b1146108b1578063d95c9ae2146108d1578063e8a3d485146108fe57600080fd5b8063c07f2f9b14610851578063c0fb5e8514610871578063c87b56dd1461089157600080fd5b8063a220d69611610143578063ade032ff1161011d578063ade032ff1461079c578063b88d4fde146107bc578063ba23c36e146107dc57600080fd5b8063a220d6961461072c578063a22cb4651461074c578063aaf320d71461076c57600080fd5b806388bc2ef31161017457806388bc2ef3146106ce5780638da5cb5b1461070257806395d89b411461071757600080fd5b8063715018a6146106865780637da0a8771461069b57600080fd5b80634c4ffc711161025357806366ec4cb4116101fc5780636ac6d941116101d65780636ac6d941146106245780636c0360eb1461065157806370a082311461066657600080fd5b806366ec4cb4146105ce578063677ce088146105e157806368f9c6bc1461060457600080fd5b8063572b6c051161022d578063572b6c0514610541578063613b856d1461058e5780636352211e146105ae57600080fd5b80634c4ffc71146104d3578063507f14651461050157806354c6d1f51461052157600080fd5b80631435aad5116102b5578063293c49991161028f578063293c49991461045b5780633fafa1271461048f57806342842e0e146104b357600080fd5b80631435aad5146103fb5780631c52730b1461041b57806323b872dd1461043b57600080fd5b8063081812fc116102e6578063081812fc1461035957806308786b1a14610391578063095ea7b3146103d957600080fd5b806301ffc9a71461030257806306fdde0314610337575b600080fd5b34801561030e57600080fd5b5061032261031d3660046142e1565b610a17565b60405190151581526020015b60405180910390f35b34801561034357600080fd5b5061034c610a5b565b60405161032e919061434e565b34801561036557600080fd5b50610379610374366004614361565b610aed565b6040516001600160a01b03909116815260200161032e565b34801561039d57600080fd5b5060095463ffffffff811690602081901c60ff169060281c6040805193845260208401929092526001600160a01b03169082015260600161032e565b3480156103e557600080fd5b506103f96103f436600461439f565b610b16565b005b34801561040757600080fd5b506103f961041636600461440d565b610b2c565b34801561042757600080fd5b506103f96104363660046144a3565b610dc7565b34801561044757600080fd5b506103f9610456366004614518565b610e20565b34801561046757600080fd5b506103797f000000000000000000000000000000000000000000000000000000000000000081565b34801561049b57600080fd5b506104a560075481565b60405190815260200161032e565b3480156104bf57600080fd5b506103f96104ce366004614518565b610eca565b3480156104df57600080fd5b506104f36104ee366004614559565b610eea565b60405161032e929190614595565b34801561050d57600080fd5b50600a54610379906001600160a01b031681565b34801561052d57600080fd5b5061037961053c366004614361565b610f91565b34801561054d57600080fd5b5061032261055c366004614626565b7f00000000000000000000000000000000000000000000000000000000000000006001600160a01b0390811691161490565b34801561059a57600080fd5b506103f96105a9366004614643565b610fd5565b3480156105ba57600080fd5b506103796105c9366004614361565b611242565b6103f96105dc36600461467e565b61124d565b3480156105ed57600080fd5b506103226105fc3660046146b3565b600092915050565b34801561061057600080fd5b506104a561061f3660046147f6565b6114d3565b34801561063057600080fd5b5061064461063f3660046148f9565b611560565b60405161032e919061498c565b34801561065d57600080fd5b5061034c6116c0565b34801561067257600080fd5b506104a5610681366004614626565b61174e565b34801561069257600080fd5b506103f96117dd565b3480156106a757600080fd5b507f0000000000000000000000000000000000000000000000000000000000000000610379565b3480156106da57600080fd5b506103797f000000000000000000000000000000000000000000000000000000000000000081565b34801561070e57600080fd5b506103796117f2565b34801561072357600080fd5b5061034c6118e7565b34801561073857600080fd5b506103f9610747366004614361565b6118f6565b34801561075857600080fd5b506103f96107673660046149b8565b611941565b34801561077857600080fd5b5061078c6107873660046149e6565b611953565b60405161032e9493929190614a1b565b3480156107a857600080fd5b506104a56107b73660046149e6565b611af2565b3480156107c857600080fd5b506103f96107d7366004614b1c565b611b3c565b3480156107e857600080fd5b5060005461081d906001600160a01b03811690600160a01b81046affffffffffffffffffffff1690600160f81b900460ff1683565b604080516001600160a01b0390941684526affffffffffffffffffffff909216602084015260ff169082015260600161032e565b34801561085d57600080fd5b506103f961086c366004614e30565b611b53565b34801561087d57600080fd5b506103f961088c366004614f51565b611df1565b34801561089d57600080fd5b5061034c6108ac366004614361565b611e02565b3480156108bd57600080fd5b50600b54610379906001600160a01b031681565b3480156108dd57600080fd5b506104a56108ec366004614626565b600c6020526000908152604090205481565b34801561090a57600080fd5b5061034c61204e565b34801561091f57600080fd5b5061032261092e366004614f6c565b6001600160a01b03918216600090815260066020908152604080832093909416825291909152205460ff1690565b34801561096857600080fd5b506103797f000000000000000000000000000000000000000000000000000000000000000081565b34801561099c57600080fd5b506103f96109ab366004614626565b61205b565b6103f96109be36600461467e565b612095565b3480156109cf57600080fd5b506103797f000000000000000000000000000000000000000000000000000000000000000081565b348015610a0357600080fd5b506103f9610a12366004614f9a565b612181565b60006001600160e01b031982167fb88c9696000000000000000000000000000000000000000000000000000000001480610a555750610a55826123a8565b92915050565b606060018054610a6a90615035565b80601f0160208091040260200160405190810160405280929190818152602001828054610a9690615035565b8015610ae35780601f10610ab857610100808354040283529160200191610ae3565b820191906000526020600020905b815481529060010190602001808311610ac657829003601f168201915b5050505050905090565b6000610af8826124b6565b506000828152600560205260409020546001600160a01b0316610a55565b610b288282610b236124ef565b6124fe565b5050565b610b41610b376117f2565b600754601661250b565b8515610bb257600d610b548789836150b1565b508686604051610b65929190615171565b60405180910390207f7bc9110d5de090dd59e07912d2b93a5a27ac70a60c8d8e324db4f9ee8b8b5c13610b966124ef565b6040516001600160a01b03909116815260200160405180910390a25b8315610c2357600e610bc58587836150b1565b508484604051610bd6929190615171565b60405180910390207fd36dc0c1a06103fdcaf15f3f6fb797d1a97997514c78de073640c8b5005454b8610c076124ef565b6040516001600160a01b03909116815260200160405180910390a25b600a546001600160a01b039081169084163014610ce45760405163036129cb60e61b81526001600160a01b03858116600483015282169063d84a72c090602401600060405180830381600087803b158015610c7d57600080fd5b505af1158015610c91573d6000803e3d6000fd5b50505050836001600160a01b03167fe7784d93cfbfa4408e19577e6cc0436f4dbb51214b70e100905dfce9def88c16610cc86124ef565b6040516001600160a01b03909116815260200160405180910390a25b8215801590610cf257508115155b15610dbd576040517f49bd1ac600000000000000000000000000000000000000000000000000000000815260048101849052602481018390526001600160a01b038216906349bd1ac690604401600060405180830381600087803b158015610d5957600080fd5b505af1158015610d6d573d6000803e3d6000fd5b50505050827f677da4fed654db8e604791fa2582f342e2001aa217e27f6985eb3e0f67e5a7fc83610d9c6124ef565b604080519283526001600160a01b0390911660208301520160405180910390a25b5050505050505050565b8060005b81811015610e1a576000848483818110610de757610de7615181565b905060400201803603810190610dfd9190615197565b9050610e1181600001518260200151610fd5565b50600101610dcb565b50505050565b6001600160a01b038216610e4f57604051633250574960e11b8152600060048201526024015b60405180910390fd5b6000610e638383610e5e6124ef565b6126b6565b9050836001600160a01b0316816001600160a01b031614610e1a576040517f64283d7b0000000000000000000000000000000000000000000000000000000081526001600160a01b0380861660048301526024820184905282166044820152606401610e46565b610ee583838360405180602001604052806000815250611b3c565b505050565b6040805160018082528183019092526101208301359160609190816020015b60408051606080820183526000808352602083015291810191909152815260200190600190039081610f095790505090506040518060600160405280306001600160a01b03168152602001600081526020016040518060200160405280600081525081525081600081518110610f8157610f81615181565b6020026020010181905250915091565b6000818152600860205260408120546001600160a01b03168015610fb55792915050565b6000838152600360205260409020546001600160a01b03165b9392505050565b600b546007546040516321d1336160e11b815260048101919091526000916001600160a01b0316906343a266c29060240161012060405180830381865afa158015611024573d6000803e3d6000fd5b505050506040513d601f19601f8201168201806040525081019061104891906151f1565b61010081015190915060f01c600190811603611090576040517f63a0ba3900000000000000000000000000000000000000000000000000000000815260040160405180910390fd5b600a546040517fbaa7e80e00000000000000000000000000000000000000000000000000000000815260048101859052602481018490526001600160a01b0390911690600090829063baa7e80e906044016000604051808303816000875af1158015611100573d6000803e3d6000fd5b505050506040513d6000823e601f3d908101601f1916820160405261112891908101906152db565b6040517f03573004000000000000000000000000000000000000000000000000000000008152306004820152602481018790529091506000906001600160a01b03841690630357300490604401602060405180830381865afa158015611192573d6000803e3d6000fd5b505050506040513d601f19601f820116820180604052508101906111b69190615310565b90506000805b86811015610dbd578381815181106111d6576111d6615181565b602002602001015191506111ea838361292c565b826001600160a01b031688837f80dd2efbbc431cde0164d84d638e44ba6e7a3ca5d532ceef1bb4efcc0948325d61121f6124ef565b6040516001600160a01b03909116815260200160405180910390a46001016111bc565b6000610a55826124b6565b341515806112eb5750600754604051636e49181f60e01b815260048101919091523360248201527f00000000000000000000000000000000000000000000000000000000000000006001600160a01b031690636e49181f90604401602060405180830381865afa1580156112c5573d6000803e3d6000fd5b505050506040513d601f19601f820116820180604052508101906112e99190615338565b155b806112fc5750600754816020013514155b15611333576040517f835e522b00000000000000000000000000000000000000000000000000000000815260040160405180910390fd5b60408051808201909152600681526572656465656d60d01b6020909101526000806113e57f000000000000000000000000000000000000000000000000000000000000000060601b7f26ef0a97332ad048ac544d8dfacdd43e128b9816d599fdd0310960904fa18609186113ab6101e0860186615355565b8080601f0160208091040260200160405190810160405280939291908181526020018383808284376000920191909152506129aa92505050565b9150915060608215611408578180602001905181019061140591906152db565b90505b80516000805b828110156114c15783818151811061142857611428615181565b602002602001015191508660000160208101906114459190614626565b6001600160a01b031661146d836000908152600360205260409020546001600160a01b031690565b6001600160a01b0316146114b0576040517f5caf197500000000000000000000000000000000000000000000000000000000815260048101839052602401610e46565b6114b982612b80565b60010161140e565b506114cb83612bbb565b505050505050565b600a546040517f144cc2d40000000000000000000000000000000000000000000000000000000081526000916001600160a01b03169063144cc2d49061151f903090879060040161539c565b602060405180830381865afa15801561153c573d6000803e3d6000fd5b505050506040513d601f19601f82011682018060405250810190610fce91906153be565b606061157761156d6117f2565b600754601761250b565b600a5460405163eaa19ab360e01b81526001600160a01b039091169063eaa19ab3906115b09060001990889088906001906004016153d7565b6000604051808303816000875af11580156115cf573d6000803e3d6000fd5b505050506040513d6000823e601f3d908101601f191682016040526115f79190810190615436565b509050826000805b828110156116b65783818151811061161957611619615181565b6020026020010151915061162d858361292c565b846001600160a01b031687878381811061164957611649615181565b905060200201602081019061165e919061547d565b61ffff16837f598baf7bf150ca2f42be9e9f8f55e81d45f5715c3ff22bf46d697fabec7f31d6600061168e6124ef565b604080519283526001600160a01b0390911660208301520160405180910390a46001016115ff565b5050509392505050565b600d80546116cd90615035565b80601f01602080910402602001604051908101604052809291908181526020018280546116f990615035565b80156117465780601f1061171b57610100808354040283529160200191611746565b820191906000526020600020905b81548152906001019060200180831161172957829003601f168201915b505050505081565b600a546040517ff7888aec0000000000000000000000000000000000000000000000000000000081523060048201526001600160a01b038381166024830152600092169063f7888aec906044015b602060405180830381865afa1580156117b9573d6000803e3d6000fd5b505050506040513d601f19601f82011682018060405250810190610a5591906153be565b6117e5612c39565b6117f0600080612d4b565b565b60408051606081018252600080546001600160a01b0381168352600160a01b81046affffffffffffffffffffff1660208401819052600160f81b90910460ff16938301939093529182036118465751919050565b60208101516040516331a9108f60e11b81526affffffffffffffffffffff90911660048201527f00000000000000000000000000000000000000000000000000000000000000006001600160a01b031690636352211e90602401602060405180830381865afa1580156118bd573d6000803e3d6000fd5b505050506040513d601f19601f820116820180604052508101906118e19190615310565b91505090565b606060028054610a6a90615035565b6118fe612c39565b80158061191557506affffffffffffffffffffff81115b156119335760405163ecb9b1c760e01b815260040160405180910390fd5b61193e600082612d4b565b50565b610b2861194c6124ef565b8383612efc565b600080806060608085013515611995576040517f4fc178d800000000000000000000000000000000000000000000000000000000815260040160405180910390fd5b60408051808201909152600681526572656465656d60d01b602090910152600080611a0d7f000000000000000000000000000000000000000000000000000000000000000060601b7f26ef0a97332ad048ac544d8dfacdd43e128b9816d599fdd0310960904fa18609186113ab6101808a018a615355565b604080516001808252818301909252929450909250816020015b60408051606080820183526000808352602083015291810191909152815260200190600190039081611a275790505092506040518060600160405280306001600160a01b03168152602001600081526020016040518060200160405280600081525081525083600081518110611a9f57611a9f615181565b602002602001018190525060608215611ac95781806020019051810190611ac691906152db565b90505b611ad381896114d3565b9550611ade88611af2565b945087610160013596505050509193509193565b600a546040517f2ae5e4920000000000000000000000000000000000000000000000000000000081523060048201526000916001600160a01b031690632ae5e4929060240161179c565b611b47848484610e20565b610e1a84848484612fb4565b600a546001600160a01b031615611b6957600080fd5b611b748a8a8a6130f6565b600b80546001600160a01b03808a1673ffffffffffffffffffffffffffffffffffffffff1992831617909255600a8054928516929091169190911790556020808401516040850151606086015178ffffffffffffffffffffffffffffffffffffffff000000000060289190911b1664ff000000009190931b1663ffffffff90911617176009819055865115611c1157600d611c0f888261549a565b505b845115611c2657600e611c24868261549a565b505b6001600160a01b03861615611c915760405163036129cb60e61b81526001600160a01b03878116600483015284169063d84a72c090602401600060405180830381600087803b158015611c7857600080fd5b505af1158015611c8c573d6000803e3d6000fd5b505050505b83515115611d0f5783516040516349249dc160e01b81526001600160a01b038516916349249dc191611cc6919060040161555a565b6000604051808303816000875af1158015611ce5573d6000803e3d6000fd5b505050506040513d6000823e601f3d908101601f19168201604052611d0d91908101906152db565b505b815180611d1d575081602001515b80611d29575081604001515b80611d35575081606001515b15611dd457604080517fcb827e3200000000000000000000000000000000000000000000000000000000815283511515600482015260208401511515602482015290830151151560448201526060830151151560648201526001600160a01b0384169063cb827e3290608401600060405180830381600087803b158015611dbb57600080fd5b505af1158015611dcf573d6000803e3d6000fd5b505050505b611de4611ddf6124ef565b61208a565b5050505050505050505050565b611df9612c39565b61193e81613107565b600a546040517f0fab09470000000000000000000000000000000000000000000000000000000081523060048201526060916001600160a01b0316906000908290630fab094790602401602060405180830381865afa158015611e69573d6000803e3d6000fd5b505050506040513d601f19601f82011682018060405250810190611e8d9190615310565b90506001600160a01b03811615611f32576040517f5e703e71000000000000000000000000000000000000000000000000000000008152306004820152602481018590526001600160a01b03821690635e703e7190604401600060405180830381865afa158015611f02573d6000803e3d6000fd5b505050506040513d6000823e601f3d908101601f19168201604052611f2a919081019061568c565b949350505050565b611f2a600d8054611f4290615035565b80601f0160208091040260200160405190810160405280929190818152602001828054611f6e90615035565b8015611fbb5780601f10611f9057610100808354040283529160200191611fbb565b820191906000526020600020905b815481529060010190602001808311611f9e57829003601f168201915b50506040517fc8df1710000000000000000000000000000000000000000000000000000000008152306004820152602481018a90526001600160a01b038816935063c8df171092506044019050602060405180830381865afa158015612025573d6000803e3d6000fd5b505050506040513d601f19601f8201168201806040525081019061204991906153be565b61315d565b600e80546116cd90615035565b612063612c39565b6001600160a01b03811661208a5760405163ecb9b1c760e01b815260040160405180910390fd5b61193e816000612d4b565b600754341515806121325750604051636e49181f60e01b8152600481018290523360248201527f00000000000000000000000000000000000000000000000000000000000000006001600160a01b031690636e49181f90604401602060405180830381865afa15801561210c573d6000803e3d6000fd5b505050506040513d601f19601f820116820180604052508101906121309190615338565b155b80612141575080826020013514155b15612178576040517f8a3ea1c800000000000000000000000000000000000000000000000000000000815260040160405180910390fd5b610b28826131e0565b61219661218c6117f2565b600754601561250b565b600a54839082906001600160a01b03168115612297576040517f20512ba10000000000000000000000000000000000000000000000000000000081526001600160a01b038216906320512ba1906121f390889088906004016156c1565b600060405180830381600087803b15801561220d57600080fd5b505af1158015612221573d6000803e3d6000fd5b5050505060005b828110156122955785858281811061224257612242615181565b905060200201357f832d89d991be5351d793c20faf4b7dd44f8aa9ce39e3cb160c6317de6fbba7296122726124ef565b6040516001600160a01b03909116815260200160405180910390a2600101612228565b505b821561239f576040516349249dc160e01b81526000906001600160a01b038316906349249dc1906122ce908b908b90600401615819565b6000604051808303816000875af11580156122ed573d6000803e3d6000fd5b505050506040513d6000823e601f3d908101601f1916820160405261231591908101906152db565b905060005b8481101561239c5781818151811061233457612334615181565b60200260200101517f6c05e4bd067859371de8c0a303cf84af0ba782c3809f8fba14e6af4388894cf08a8a8481811061236f5761236f615181565b9050610180020161237e6124ef565b60405161238c92919061585c565b60405180910390a260010161231a565b50505b50505050505050565b60006001600160e01b031982167f5ab8866d00000000000000000000000000000000000000000000000000000000148061240b57506001600160e01b031982167f81c03c2e00000000000000000000000000000000000000000000000000000000145b8061243f57506001600160e01b031982167ff3c5788100000000000000000000000000000000000000000000000000000000145b8061247357506001600160e01b031982167f66ec4cb400000000000000000000000000000000000000000000000000000000145b806124a757506001600160e01b031982167f2a55205a00000000000000000000000000000000000000000000000000000000145b80610a555750610a5582613737565b6000818152600360205260408120546001600160a01b031680610a5557604051637e27328960e01b815260048101849052602401610e46565b60006124f96137d2565b905090565b610ee58383836001613847565b60006125156124ef565b9050836001600160a01b0316816001600160a01b0316141580156125d6575060405163c161c93f60e01b81526001600160a01b038281166004830152858116602483015260448201859052606482018490527f0000000000000000000000000000000000000000000000000000000000000000169063c161c93f90608401602060405180830381865afa1580156125b0573d6000803e3d6000fd5b505050506040513d601f19601f820116820180604052508101906125d49190615338565b155b801561267f575060405163c161c93f60e01b81526001600160a01b038281166004830152858116602483015260006044830152606482018490527f0000000000000000000000000000000000000000000000000000000000000000169063c161c93f90608401602060405180830381865afa158015612659573d6000803e3d6000fd5b505050506040513d601f19601f8201168201806040525081019061267d9190615338565b155b15610e1a576040517f075fd2b100000000000000000000000000000000000000000000000000000000815260040160405180910390fd5b600a546040517fc44a8e6d00000000000000000000000000000000000000000000000000000000815230600482015260248101849052600060448201819052916001600160a01b0316908290829063c44a8e6d90606401600060405180830381865afa15801561272a573d6000803e3d6000fd5b505050506040513d6000823e601f3d908101601f191682016040526127529190810190615882565b905061275f868686613992565b92506001600160a01b0383161561289d578061014001511561284c57600b546007546040516321d1336160e11b815260048101919091526000916001600160a01b0316906343a266c29060240161012060405180830381865afa1580156127ca573d6000803e3d6000fd5b505050506040513d601f19601f820116820180604052508101906127ee91906151f1565b90506001600160a01b03871615801590612813575061010081015160ef1c6001908116145b1561284a576040517ffa45ac2900000000000000000000000000000000000000000000000000000000815260040160405180910390fd5b505b6000858152600860205260409020546001600160a01b031661289d576000858152600860205260409020805473ffffffffffffffffffffffffffffffffffffffff19166001600160a01b0385161790555b80516040517fc2c55f9400000000000000000000000000000000000000000000000000000000815260048101919091526001600160a01b038481166024830152878116604483015283169063c2c55f9490606401600060405180830381600087803b15801561290b57600080fd5b505af115801561291f573d6000803e3d6000fd5b5050505050509392505050565b6001600160a01b03821661295657604051633250574960e11b815260006004820152602401610e46565b6000612964838360006126b6565b90506001600160a01b03811615610ee5576040517f73c6ac6e00000000000000000000000000000000000000000000000000000000815260006004820152602401610e46565b6000606060258351116129cf5750506040805160208101909152600080825290612b79565b6000836129de600460206159a3565b815181106129ee576129ee615181565b0160209081015160f81c91505b600085612a096004846159a3565b81518110612a1957612a19615181565b01602001517fff000000000000000000000000000000000000000000000000000000000000001614801590612a575750612a546020836159b6565b81105b15612b7657600085612a6a6004846159a3565b81518110612a7a57612a7a615181565b016020908101518784019091015160f89190911c91506001600160e01b031980891690821603612b6c576000612ab16020866159b6565b612abc6009866159a3565b101580612b09575087612ad06009866159a3565b81518110612ae057612ae0615181565b01602001517fff0000000000000000000000000000000000000000000000000000000000000016155b612b4257602088612b1b6009876159a3565b81518110612b2b57612b2b615181565b0160200151612b3d919060f81c6159b6565b612b45565b87515b90506001612b5e89612b586020876159b6565b84613a98565b965096505050505050612b79565b50506005016129fb565b50505b9250929050565b6000612b8f60008360006126b6565b90506001600160a01b038116610b2857604051637e27328960e01b815260048101839052602401610e46565b600a546040517f86bc2be30000000000000000000000000000000000000000000000000000000081526001600160a01b03909116906386bc2be390612c0490849060040161498c565b600060405180830381600087803b158015612c1e57600080fd5b505af1158015612c32573d6000803e3d6000fd5b5050505050565b604080516060810182526000546001600160a01b0381168252600160a01b81046affffffffffffffffffffff1660208301819052600160f81b90910460ff16928201929092529061193e9015612d295760208201516040516331a9108f60e11b81526affffffffffffffffffffff90911660048201527f00000000000000000000000000000000000000000000000000000000000000006001600160a01b031690636352211e90602401602060405180830381865afa158015612d00573d6000803e3d6000fd5b505050506040513d601f19601f82011682018060405250810190612d249190615310565b612d2c565b81515b82602001516affffffffffffffffffffff16836040015160ff1661250b565b6affffffffffffffffffffff811615801590612d6f57506001600160a01b03821615155b15612d8d5760405163ecb9b1c760e01b815260040160405180910390fd5b60408051606081018252600080546001600160a01b0381168352600160a01b81046affffffffffffffffffffff1660208401819052600160f81b90910460ff1693830193909352909115612e7b5760208201516040516331a9108f60e11b81526affffffffffffffffffffff90911660048201527f00000000000000000000000000000000000000000000000000000000000000006001600160a01b031690636352211e90602401602060405180830381865afa158015612e52573d6000803e3d6000fd5b505050506040513d601f19601f82011682018060405250810190612e769190615310565b612e7e565b81515b604080516060810182526001600160a01b0387168082526affffffffffffffffffffff87166020830181905260009290930182905281547fff000000000000000000000000000000000000000000000000000000000000001617600160a01b909202919091176001600160f81b031690559050610e1a818585613ad4565b6001600160a01b038216612f47576040517f5b08ba180000000000000000000000000000000000000000000000000000000081526001600160a01b0383166004820152602401610e46565b6001600160a01b03838116600081815260066020908152604080832094871680845294825291829020805460ff191686151590811790915591519182527f17307eab39ab6107e8899845ad3d59bd9653f200f220920489ca2b5937696c31910160405180910390a3505050565b6001600160a01b0383163b15610e1a57826001600160a01b031663150b7a02612fdb6124ef565b8685856040518563ffffffff1660e01b8152600401612ffd94939291906159cd565b6020604051808303816000875af1925050508015613038575060408051601f3d908101601f1916820190925261303591810190615a09565b60015b6130a1573d808015613066576040519150601f19603f3d011682016040523d82523d6000602084013e61306b565b606091505b50805160000361309957604051633250574960e11b81526001600160a01b0385166004820152602401610e46565b805181602001fd5b6001600160e01b031981167f150b7a020000000000000000000000000000000000000000000000000000000014612c3257604051633250574960e11b81526001600160a01b0385166004820152602401610e46565b6131008282613bc7565b5050600755565b600080546001600160f81b0316600160f81b60ff8416908102919091179091556040519081527f6f4725627084d54c46c628b050805457a1cd38c5cd20c1f00132960f8b546fed9060200160405180910390a150565b6040517f1220000000000000000000000000000000000000000000000000000000000000602082015260228101829052606090600090604201604051602081830303815290604052905060006131b282613be0565b905084816040516020016131c7929190615a26565b6040516020818303038152906040529250505092915050565b60095460009063ffffffff811660c084013581900361320557608084013592506132df565b602882901c6001600160a01b03811615612c325760ff602084901c166132da608087013561323483600a615b39565b6007546040517f3be273fa000000000000000000000000000000000000000000000000000000008152600481019190915260c08a013560248201526044810187905260a08a013560648201526001600160a01b03861690633be273fa90608401602060405180830381865afa1580156132b1573d6000803e3d6000fd5b505050506040513d601f19601f820116820180604052508101906132d591906153be565b613d78565b945050505b5060009050600c816132f96101c086016101a08701614626565b6001600160a01b0316815260208101919091526040016000908120549150829061332b6101c086016101a08701614626565b6001600160a01b03166133416020870187614626565b6001600160a01b031603613358579082019061335b565b50815b60408051808201909152600381527f7061790000000000000000000000000000000000000000000000000000000000602090910152600080806133eb7f000000000000000000000000000000000000000000000000000000000000000060601b7fadc756803e4eb4ccfb136b73d5f72e3dc0d452d30ae1f4bc82af394c73ce7115186113ab6101e08b018b615355565b9150915081156134bf5760608180602001905181019061340b9190615b45565b90945090508380156134895750600a54604051634228826f60e11b81523060048201526001600160a01b039091169063845104de90602401608060405180830381865afa158015613460573d6000803e3d6000fd5b505050506040513d601f19601f820116820180604052508101906134849190615bf6565b606001515b1561349357600093505b8051156134b9576134b686826134b16101c08d016101a08e01614626565b613e65565b95505b50613538565b600a54604051634228826f60e11b81523060048201526001600160a01b039091169063845104de90602401608060405180830381865afa158015613507573d6000803e3d6000fd5b505050506040513d601f19601f8201168201806040525081019061352b9190615bf6565b6060015161353857600192505b841561368b5782613575576040517f6d5e09a400000000000000000000000000000000000000000000000000000000815260040160405180910390fd5b848401868111156135e8576135926101c08a016101a08b01614626565b6001600160a01b0316818883037f7e71a5f6c04b0eb16949316623b9dda7bd103692f7d89678e2260afa1378a2d56135c86124ef565b6040516001600160a01b03909116815260200160405180910390a4613654565b80871115613654576136026101c08a016101a08b01614626565b6001600160a01b0316818289037f6276f0169fb8de712b2a6c02789f6115136c589ed491ac06f9e20f41877e41fe6136386124ef565b6040516001600160a01b03909116815260200160405180910390a45b80600c600061366b6101c08d016101a08e01614626565b6001600160a01b0316815260208101919091526040016000205550610dbd565b838614610dbd576136a46101c089016101a08a01614626565b6001600160a01b0316846136b88189615c5d565b7f6276f0169fb8de712b2a6c02789f6115136c589ed491ac06f9e20f41877e41fe6136e16124ef565b6040516001600160a01b03909116815260200160405180910390a483600c60006137136101c08c016101a08d01614626565b6001600160a01b031681526020810191909152604001600020555050505050505050565b60006001600160e01b031982167f80ac58cd00000000000000000000000000000000000000000000000000000000148061379a57506001600160e01b031982167f5b5e139f00000000000000000000000000000000000000000000000000000000145b80610a5557507f01ffc9a7000000000000000000000000000000000000000000000000000000006001600160e01b0319831614610a55565b6000366014336001600160a01b037f00000000000000000000000000000000000000000000000000000000000000001614801561380f5750808210155b1561383f576000366138218385615c5d565b61382c928290615c70565b61383591615c9a565b60601c9250505090565b339250505090565b808061385b57506001600160a01b03821615155b1561395557600061386b846124b6565b90506001600160a01b038316158015906138975750826001600160a01b0316816001600160a01b031614155b80156138c957506001600160a01b0380821660009081526006602090815260408083209387168352929052205460ff16155b1561390b576040517fa9fbf51f0000000000000000000000000000000000000000000000000000000081526001600160a01b0384166004820152602401610e46565b81156139535783856001600160a01b0316826001600160a01b03167f8c5be1e5ebec7d5bd14f71427d1e84f3dd0314c0f7b2291e5b200ac8c7c3b92560405160405180910390a45b505b50506000908152600560205260409020805473ffffffffffffffffffffffffffffffffffffffff19166001600160a01b0392909216919091179055565b6000828152600360205260408120546001600160a01b03908116908316156139bf576139bf818486613fa6565b6001600160a01b038116156139fd576139dc600085600080613847565b6001600160a01b038116600090815260046020526040902080546000190190555b6001600160a01b03851615613a2c576001600160a01b0385166000908152600460205260409020805460010190555b600084815260036020526040808220805473ffffffffffffffffffffffffffffffffffffffff19166001600160a01b0389811691821790925591518793918516917fddf252ad1be2c89b69c2b068fc378daa952ba7f163c4a11628f55a4df523b3ef91a4949350505050565b60608282036040519150602081830101604052808252508260208501016020820160005b848110156116b6578281015182820152602001613abc565b6affffffffffffffffffffff811615613b81576040516331a9108f60e11b81526affffffffffffffffffffff821660048201527f00000000000000000000000000000000000000000000000000000000000000006001600160a01b031690636352211e90602401602060405180830381865afa158015613b58573d6000803e3d6000fd5b505050506040513d601f19601f82011682018060405250810190613b7c9190615310565b613b83565b815b6001600160a01b0316836001600160a01b03167f8be0079c531659141344cd1fd0a4f28419497f9722a3daafe3b4186f6b6457e060405160405180910390a3505050565b6001613bd3838261549a565b506002610ee5828261549a565b60608151600003613bff57505060408051600081526020810190915290565b60408051602e8082526105e08201909252600091602082016105c080368337019050509050600081600081518110613c3957613c39615181565b60ff90921660209283029190910190910152825160019060005b81811015613d54576000868281518110613c6f57613c6f615181565b016020015160f81c905060005b8460ff16811015613cf9576008868281518110613c9b57613c9b615181565b602002602001015160ff16901b82613cb391906159a3565b9150613cc0603a83615ce5565b868281518110613cd257613cd2615181565b60ff90921660209283029190910190910152613cef603a83615cf9565b9150600101613c7c565b505b8015613d4b57613d0c603a82615ce5565b858560ff1681518110613d2157613d21615181565b60ff90921660209283029190910190910152600190930192613d44603a82615cf9565b9050613cfb565b50600101613c53565b50613d6f613d6a613d658585614023565b6140cb565b61416e565b95945050505050565b6000808060001985870985870292508281108382030391505080600003613db257838281613da857613da8615ccf565b0492505050610fce565b838110613dfc576040517f63a05778000000000000000000000000000000000000000000000000000000008152600481018790526024810186905260448101859052606401610e46565b60008486880960026001871981018816978890046003810283188082028403028082028403028082028403028082028403028082028403029081029092039091026000889003889004909101858311909403939093029303949094049190911702949350505050565b600a5460405163eaa19ab360e01b81526000916060916001600160a01b039091169063eaa19ab390613e9f90889088908790600401615d0d565b6000604051808303816000875af1158015613ebe573d6000803e3d6000fd5b505050506040513d6000823e601f3d908101601f19168201604052613ee69190810190615436565b81519093509091506000805b82811015613f9b57838181518110613f0c57613f0c615181565b60200260200101519150613f20868361292c565b856001600160a01b0316878281518110613f3c57613f3c615181565b602002602001015161ffff16837f598baf7bf150ca2f42be9e9f8f55e81d45f5715c3ff22bf46d697fabec7f31d68b613f736124ef565b604080519283526001600160a01b0390911660208301520160405180910390a4600101613ef2565b505050509392505050565b613fb1838383614248565b610ee5576001600160a01b038316613fdf57604051637e27328960e01b815260048101829052602401610e46565b6040517f177e802f0000000000000000000000000000000000000000000000000000000081526001600160a01b038316600482015260248101829052604401610e46565b606060008260ff1667ffffffffffffffff811115614043576140436146e3565b60405190808252806020026020018201604052801561406c578160200160208202803683370190505b50905060005b8360ff168110156140c35784818151811061408f5761408f615181565b60200260200101518282815181106140a9576140a9615181565b60ff90921660209283029190910190910152600101614072565b509392505050565b805160609060008167ffffffffffffffff8111156140eb576140eb6146e3565b604051908082528060200260200182016040528015614114578160200160208202803683370190505b50905060005b828110156140c35784816001875103038151811061413a5761413a615181565b602002602001015182828151811061415457614154615181565b60ff9092166020928302919091019091015260010161411a565b805160609060008167ffffffffffffffff81111561418e5761418e6146e3565b6040519080825280601f01601f1916602001820160405280156141b8576020820181803683370190505b50905060005b828110156140c3576040518060600160405280603a8152602001615d6d603a91398582815181106141f1576141f1615181565b602002602001015160ff168151811061420c5761420c615181565b602001015160f81c60f81b82828151811061422957614229615181565b60200101906001600160f81b031916908160001a9053506001016141be565b60006001600160a01b03831615801590611f2a5750826001600160a01b0316846001600160a01b031614806142a257506001600160a01b0380851660009081526006602090815260408083209387168352929052205460ff165b80611f2a5750506000908152600560205260409020546001600160a01b03908116911614919050565b6001600160e01b03198116811461193e57600080fd5b6000602082840312156142f357600080fd5b8135610fce816142cb565b60005b83811015614319578181015183820152602001614301565b50506000910152565b6000815180845261433a8160208601602086016142fe565b601f01601f19169290920160200192915050565b602081526000610fce6020830184614322565b60006020828403121561437357600080fd5b5035919050565b6001600160a01b038116811461193e57600080fd5b803561439a8161437a565b919050565b600080604083850312156143b257600080fd5b82356143bd8161437a565b946020939093013593505050565b60008083601f8401126143dd57600080fd5b50813567ffffffffffffffff8111156143f557600080fd5b602083019150836020828501011115612b7957600080fd5b600080600080600080600060a0888a03121561442857600080fd5b873567ffffffffffffffff8082111561444057600080fd5b61444c8b838c016143cb565b909950975060208a013591508082111561446557600080fd5b506144728a828b016143cb565b90965094505060408801356144868161437a565b969995985093969295946060840135945060809093013592915050565b600080602083850312156144b657600080fd5b823567ffffffffffffffff808211156144ce57600080fd5b818501915085601f8301126144e257600080fd5b8135818111156144f157600080fd5b8660208260061b850101111561450657600080fd5b60209290920196919550909350505050565b60008060006060848603121561452d57600080fd5b83356145388161437a565b925060208401356145488161437a565b929592945050506040919091013590565b60006020828403121561456b57600080fd5b813567ffffffffffffffff81111561458257600080fd5b82016101808185031215610fce57600080fd5b6000604080830185845260206040818601528186518084526060935060608701915060608160051b88010183890160005b8381101561461657898303605f19018552815180516001600160a01b03168452868101518785015288015188840188905261460388850182614322565b95870195935050908501906001016145c6565b50909a9950505050505050505050565b60006020828403121561463857600080fd5b8135610fce8161437a565b6000806040838503121561465657600080fd5b50508035926020909101359150565b6000610200828403121561467857600080fd5b50919050565b60006020828403121561469057600080fd5b813567ffffffffffffffff8111156146a757600080fd5b611f2a84828501614665565b600080604083850312156146c657600080fd5b8235915060208301356146d88161437a565b809150509250929050565b634e487b7160e01b600052604160045260246000fd5b6040516080810167ffffffffffffffff8111828210171561471c5761471c6146e3565b60405290565b604051610180810167ffffffffffffffff8111828210171561471c5761471c6146e3565b604051610120810167ffffffffffffffff8111828210171561471c5761471c6146e3565b6040516101a0810167ffffffffffffffff8111828210171561471c5761471c6146e3565b604051601f8201601f1916810167ffffffffffffffff811182821017156147b7576147b76146e3565b604052919050565b600067ffffffffffffffff8211156147d9576147d96146e3565b5060051b60200190565b60006101a0828403121561467857600080fd5b6000806040838503121561480957600080fd5b823567ffffffffffffffff8082111561482157600080fd5b818501915085601f83011261483557600080fd5b8135602061484a614845836147bf565b61478e565b82815260059290921b8401810191818101908984111561486957600080fd5b948201945b838610156148875785358252948201949082019061486e565b9650508601359250508082111561489d57600080fd5b506148aa858286016147e3565b9150509250929050565b60008083601f8401126148c657600080fd5b50813567ffffffffffffffff8111156148de57600080fd5b6020830191508360208260051b8501011115612b7957600080fd5b60008060006040848603121561490e57600080fd5b833567ffffffffffffffff81111561492557600080fd5b614931868287016148b4565b90945092505060208401356149458161437a565b809150509250925092565b60008151808452602080850194506020840160005b8381101561498157815187529582019590820190600101614965565b509495945050505050565b602081526000610fce6020830184614950565b801515811461193e57600080fd5b803561439a8161499f565b600080604083850312156149cb57600080fd5b82356149d68161437a565b915060208301356146d88161499f565b6000602082840312156149f857600080fd5b813567ffffffffffffffff811115614a0f57600080fd5b611f2a848285016147e3565b60006080820186835260208681850152604086604086015260606080606087015283875180865260a08801915060a08160051b890101955084890160005b82811015614aa957898803609f19018452815180516001600160a01b0316895287810151888a0152860151868901869052614a96868a0182614322565b9850509286019290860190600101614a59565b50959c9b505050505050505050505050565b600067ffffffffffffffff821115614ad557614ad56146e3565b50601f01601f191660200190565b6000614af161484584614abb565b9050828152838383011115614b0557600080fd5b828260208301376000602084830101529392505050565b60008060008060808587031215614b3257600080fd5b8435614b3d8161437a565b93506020850135614b4d8161437a565b925060408501359150606085013567ffffffffffffffff811115614b7057600080fd5b8501601f81018713614b8157600080fd5b614b9087823560208401614ae3565b91505092959194509250565b600082601f830112614bad57600080fd5b610fce83833560208501614ae3565b80356cffffffffffffffffffffffffff8116811461439a57600080fd5b803563ffffffff8116811461439a57600080fd5b61ffff8116811461193e57600080fd5b803561439a81614bed565b803562ffffff8116811461439a57600080fd5b803560ff8116811461439a57600080fd5b60006080808385031215614c3f57600080fd5b614c476146f9565b9150823567ffffffffffffffff811115614c6057600080fd5b8301601f81018513614c7157600080fd5b80356020614c81614845836147bf565b8281526101809283028401820192828201919089851115614ca157600080fd5b948301945b84861015614d945780868b031215614cbe5760008081fd5b614cc6614722565b614ccf87614bbc565b8152614cdc858801614bd9565b858201526040614ced818901614bd9565b908201526060614cfe888201614bfd565b90820152614d0d87890161438f565b8189015260a0878101359082015260c0614d28818901614c08565b9082015260e0614d398882016149ad565b90820152610100614d4b8882016149ad565b90820152610120614d5d8882016149ad565b90820152610140614d6f8882016149ad565b90820152610160614d818882016149ad565b9082015283529485019491830191614ca6565b50865250614da3868201614bd9565b8186015250505050614db760408301614c1b565b6040820152614dc86060830161438f565b606082015292915050565b600060808284031215614de557600080fd5b614ded6146f9565b90508135614dfa8161499f565b81526020820135614e0a8161499f565b60208201526040820135614e1d8161499f565b60408201526060820135614dc88161499f565b6000806000806000806000806000806101a08b8d031215614e5057600080fd5b8a35995060208b013567ffffffffffffffff80821115614e6f57600080fd5b614e7b8e838f01614b9c565b9a5060408d0135915080821115614e9157600080fd5b614e9d8e838f01614b9c565b9950614eab60608e0161438f565b985060808d0135915080821115614ec157600080fd5b614ecd8e838f01614b9c565b9750614edb60a08e0161438f565b965060c08d0135915080821115614ef157600080fd5b614efd8e838f01614b9c565b955060e08d0135915080821115614f1357600080fd5b50614f208d828e01614c2c565b935050614f306101008c0161438f565b9150614f408c6101208d01614dd3565b90509295989b9194979a5092959850565b600060208284031215614f6357600080fd5b610fce82614c1b565b60008060408385031215614f7f57600080fd5b8235614f8a8161437a565b915060208301356146d88161437a565b60008060008060408587031215614fb057600080fd5b843567ffffffffffffffff80821115614fc857600080fd5b818701915087601f830112614fdc57600080fd5b813581811115614feb57600080fd5b8860206101808302850101111561500157600080fd5b60209283019650945090860135908082111561501c57600080fd5b50615029878288016148b4565b95989497509550505050565b600181811c9082168061504957607f821691505b60208210810361467857634e487b7160e01b600052602260045260246000fd5b601f821115610ee5576000816000526020600020601f850160051c810160208610156150925750805b601f850160051c820191505b818110156114cb5782815560010161509e565b67ffffffffffffffff8311156150c9576150c96146e3565b6150dd836150d78354615035565b83615069565b6000601f84116001811461511157600085156150f95750838201355b600019600387901b1c1916600186901b178355612c32565b600083815260209020601f19861690835b828110156151425786850135825560209485019460019092019101615122565b508682101561515f5760001960f88860031b161c19848701351681555b505060018560011b0183555050505050565b8183823760009101908152919050565b634e487b7160e01b600052603260045260246000fd5b6000604082840312156151a957600080fd5b6040516040810181811067ffffffffffffffff821117156151cc576151cc6146e3565b604052823581526020928301359281019290925250919050565b805161439a8161437a565b6000610120828403121561520457600080fd5b61520c614746565b825181526020830151602082015260408301516040820152606083015160608201526080830151608082015260a083015160a082015260c083015160c082015261525860e084016151e6565b60e0820152610100928301519281019290925250919050565b600082601f83011261528257600080fd5b81516020615292614845836147bf565b8083825260208201915060208460051b8701019350868411156152b457600080fd5b602086015b848110156152d057805183529183019183016152b9565b509695505050505050565b6000602082840312156152ed57600080fd5b815167ffffffffffffffff81111561530457600080fd5b611f2a84828501615271565b60006020828403121561532257600080fd5b8151610fce8161437a565b805161439a8161499f565b60006020828403121561534a57600080fd5b8151610fce8161499f565b6000808335601e1984360301811261536c57600080fd5b83018035915067ffffffffffffffff82111561538757600080fd5b602001915036819003821315612b7957600080fd5b6001600160a01b0383168152604060208201526000611f2a6040830184614950565b6000602082840312156153d057600080fd5b5051919050565b84815260606020808301829052908201849052600090859060808401835b8781101561541e57833561540881614bed565b61ffff16825292820192908201906001016153f5565b50809350505050821515604083015295945050505050565b6000806040838503121561544957600080fd5b825167ffffffffffffffff81111561546057600080fd5b61546c85828601615271565b925050602083015190509250929050565b60006020828403121561548f57600080fd5b8135610fce81614bed565b815167ffffffffffffffff8111156154b4576154b46146e3565b6154c8816154c28454615035565b84615069565b602080601f8311600181146154fd57600084156154e55750858301515b600019600386901b1c1916600185901b1785556114cb565b600085815260208120601f198616915b8281101561552c5788860151825594840194600190910190840161550d565b508582101561554a5787850151600019600388901b60f8161c191681555b5050505050600190811b01905550565b602080825282518282018190526000919060409081850190868401855b8281101561563a57815180516cffffffffffffffffffffffffff1685528681015163ffffffff9081168887015286820151168686015260608082015161ffff16908601526080808201516001600160a01b03169086015260a0808201519086015260c08082015162ffffff169086015260e080820151151590860152610100808201511515908601526101208082015115159086015261014080820151151590860152610160908101511515908501526101809093019290850190600101615577565b5091979650505050505050565b600082601f83011261565857600080fd5b815161566661484582614abb565b81815284602083860101111561567b57600080fd5b611f2a8260208301602087016142fe565b60006020828403121561569e57600080fd5b815167ffffffffffffffff8111156156b557600080fd5b611f2a84828501615647565b6020815281602082015260007f07ffffffffffffffffffffffffffffffffffffffffffffffffffffffffffffff8311156156fa57600080fd5b8260051b80856040850137919091016040019392505050565b6157338261572083614bbc565b6cffffffffffffffffffffffffff169052565b61573f60208201614bd9565b63ffffffff16602083015261575660408201614bd9565b63ffffffff16604083015261576d60608201614bfd565b61ffff1660608301526157826080820161438f565b6001600160a01b0316608083015260a081810135908301526157a660c08201614c08565b62ffffff1660c08301526157bc60e082016149ad565b151560e08301526101006157d18282016149ad565b1515908301526101206157e58282016149ad565b1515908301526101406157f98282016149ad565b15159083015261016061580d8282016149ad565b80151584830152610e1a565b6020808252810182905260008360408301825b858110156158525761583e8284615713565b61018092830192919091019060010161582c565b5095945050505050565b6101a0810161586b8285615713565b6001600160a01b0383166101808301529392505050565b60006020828403121561589457600080fd5b815167ffffffffffffffff808211156158ac57600080fd5b908301906101a082860312156158c157600080fd5b6158c961476a565b825181526020830151602082015260408301516040820152606083015160608201526080830151608082015260a083015160a082015261590b60c084016151e6565b60c082015260e083015160e082015261010080840151818301525061012061593481850161532d565b9082015261014061594684820161532d565b9082015261016061595884820161532d565b90820152610180838101518381111561597057600080fd5b61597c88828701615647565b918301919091525095945050505050565b634e487b7160e01b600052601160045260246000fd5b80820180821115610a5557610a5561598d565b8082028115828204841417610a5557610a5561598d565b60006001600160a01b038087168352808616602084015250836040830152608060608301526159ff6080830184614322565b9695505050505050565b600060208284031215615a1b57600080fd5b8151610fce816142cb565b60008351615a388184602088016142fe565b835190830190615a4c8183602088016142fe565b01949350505050565b600181815b80851115615a90578160001904821115615a7657615a7661598d565b80851615615a8357918102915b93841c9390800290615a5a565b509250929050565b600082615aa757506001610a55565b81615ab457506000610a55565b8160018114615aca5760028114615ad457615af0565b6001915050610a55565b60ff841115615ae557615ae561598d565b50506001821b610a55565b5060208310610133831016604e8410600b8410161715615b13575081810a610a55565b615b1d8383615a55565b8060001904821115615b3157615b3161598d565b029392505050565b6000610fce8383615a98565b60008060408385031215615b5857600080fd5b8251615b638161499f565b8092505060208084015167ffffffffffffffff811115615b8257600080fd5b8401601f81018613615b9357600080fd5b8051615ba1614845826147bf565b81815260059190911b82018301908381019088831115615bc057600080fd5b928401925b82841015615be7578351615bd881614bed565b82529284019290840190615bc5565b80955050505050509250929050565b600060808284031215615c0857600080fd5b615c106146f9565b8251615c1b8161499f565b81526020830151615c2b8161499f565b60208201526040830151615c3e8161499f565b60408201526060830151615c518161499f565b60608201529392505050565b81810381811115610a5557610a5561598d565b60008085851115615c8057600080fd5b83861115615c8d57600080fd5b5050820193919092039150565b6bffffffffffffffffffffffff198135818116916014851015615cc75780818660140360031b1b83161692505b505092915050565b634e487b7160e01b600052601260045260246000fd5b600082615cf457615cf4615ccf565b500690565b600082615d0857615d08615ccf565b500490565b60006060820185835260206060602085015281865180845260808601915060208801935060005b81811015615d5457845161ffff1683529383019391830191600101615d34565b5050809350505050821515604083015294935050505056fe31323334353637383941424344454647484a4b4c4d4e505152535455565758595a6162636465666768696a6b6d6e6f707172737475767778797aa264697066735822122008c5a9a9176a42798d27c787fcbc8450838feff9f96cde2cb4d14b3095b2849764736f6c63430008170033",
			"deployedBytecode": "0x6080604052600436106102fd5760003560e01c8063715018a61161018f578063c07f2f9b116100e1578063e985e9c51161008a578063f3c5788111610064578063f3c57881146109b0578063f434c914146109c3578063fef50848146109f757600080fd5b8063e985e9c514610913578063edab09b91461095c578063f2fde38b1461099057600080fd5b8063d4a1b4b1116100bb578063d4a1b4b1146108b1578063d95c9ae2146108d1578063e8a3d485146108fe57600080fd5b8063c07f2f9b14610851578063c0fb5e8514610871578063c87b56dd1461089157600080fd5b8063a220d69611610143578063ade032ff1161011d578063ade032ff1461079c578063b88d4fde146107bc578063ba23c36e146107dc57600080fd5b8063a220d6961461072c578063a22cb4651461074c578063aaf320d71461076c57600080fd5b806388bc2ef31161017457806388bc2ef3146106ce5780638da5cb5b1461070257806395d89b411461071757600080fd5b8063715018a6146106865780637da0a8771461069b57600080fd5b80634c4ffc711161025357806366ec4cb4116101fc5780636ac6d941116101d65780636ac6d941146106245780636c0360eb1461065157806370a082311461066657600080fd5b806366ec4cb4146105ce578063677ce088146105e157806368f9c6bc1461060457600080fd5b8063572b6c051161022d578063572b6c0514610541578063613b856d1461058e5780636352211e146105ae57600080fd5b80634c4ffc71146104d3578063507f14651461050157806354c6d1f51461052157600080fd5b80631435aad5116102b5578063293c49991161028f578063293c49991461045b5780633fafa1271461048f57806342842e0e146104b357600080fd5b80631435aad5146103fb5780631c52730b1461041b57806323b872dd1461043b57600080fd5b8063081812fc116102e6578063081812fc1461035957806308786b1a14610391578063095ea7b3146103d957600080fd5b806301ffc9a71461030257806306fdde0314610337575b600080fd5b34801561030e57600080fd5b5061032261031d3660046142e1565b610a17565b60405190151581526020015b60405180910390f35b34801561034357600080fd5b5061034c610a5b565b60405161032e919061434e565b34801561036557600080fd5b50610379610374366004614361565b610aed565b6040516001600160a01b03909116815260200161032e565b34801561039d57600080fd5b5060095463ffffffff811690602081901c60ff169060281c6040805193845260208401929092526001600160a01b03169082015260600161032e565b3480156103e557600080fd5b506103f96103f436600461439f565b610b16565b005b34801561040757600080fd5b506103f961041636600461440d565b610b2c565b34801561042757600080fd5b506103f96104363660046144a3565b610dc7565b34801561044757600080fd5b506103f9610456366004614518565b610e20565b34801561046757600080fd5b506103797f000000000000000000000000fa679f5ecdd8be404c1fbaa7f29aeb2b12f5b66281565b34801561049b57600080fd5b506104a560075481565b60405190815260200161032e565b3480156104bf57600080fd5b506103f96104ce366004614518565b610eca565b3480156104df57600080fd5b506104f36104ee366004614559565b610eea565b60405161032e929190614595565b34801561050d57600080fd5b50600a54610379906001600160a01b031681565b34801561052d57600080fd5b5061037961053c366004614361565b610f91565b34801561054d57600080fd5b5061032261055c366004614626565b7f000000000000000000000000b2b5841dbef766d4b521221732f9b618fcf34a876001600160a01b0390811691161490565b34801561059a57600080fd5b506103f96105a9366004614643565b610fd5565b3480156105ba57600080fd5b506103796105c9366004614361565b611242565b6103f96105dc36600461467e565b61124d565b3480156105ed57600080fd5b506103226105fc3660046146b3565b600092915050565b34801561061057600080fd5b506104a561061f3660046147f6565b6114d3565b34801561063057600080fd5b5061064461063f3660046148f9565b611560565b60405161032e919061498c565b34801561065d57600080fd5b5061034c6116c0565b34801561067257600080fd5b506104a5610681366004614626565b61174e565b34801561069257600080fd5b506103f96117dd565b3480156106a757600080fd5b507f000000000000000000000000b2b5841dbef766d4b521221732f9b618fcf34a87610379565b3480156106da57600080fd5b506103797f00000000000000000000000044d360c8c4105f180e07668bd3374c7a6f812faf81565b34801561070e57600080fd5b506103796117f2565b34801561072357600080fd5b5061034c6118e7565b34801561073857600080fd5b506103f9610747366004614361565b6118f6565b34801561075857600080fd5b506103f96107673660046149b8565b611941565b34801561077857600080fd5b5061078c6107873660046149e6565b611953565b60405161032e9493929190614a1b565b3480156107a857600080fd5b506104a56107b73660046149e6565b611af2565b3480156107c857600080fd5b506103f96107d7366004614b1c565b611b3c565b3480156107e857600080fd5b5060005461081d906001600160a01b03811690600160a01b81046affffffffffffffffffffff1690600160f81b900460ff1683565b604080516001600160a01b0390941684526affffffffffffffffffffff909216602084015260ff169082015260600161032e565b34801561085d57600080fd5b506103f961086c366004614e30565b611b53565b34801561087d57600080fd5b506103f961088c366004614f51565b611df1565b34801561089d57600080fd5b5061034c6108ac366004614361565b611e02565b3480156108bd57600080fd5b50600b54610379906001600160a01b031681565b3480156108dd57600080fd5b506104a56108ec366004614626565b600c6020526000908152604090205481565b34801561090a57600080fd5b5061034c61204e565b34801561091f57600080fd5b5061032261092e366004614f6c565b6001600160a01b03918216600090815260066020908152604080832093909416825291909152205460ff1690565b34801561096857600080fd5b506103797f000000000000000000000000f6897b40515ae4e66acd58aabb76ac143e833c6d81565b34801561099c57600080fd5b506103f96109ab366004614626565b61205b565b6103f96109be36600461467e565b612095565b3480156109cf57600080fd5b506103797f000000000000000000000000711eda44f3d42f3d255846b5ee36cf70fd912e5081565b348015610a0357600080fd5b506103f9610a12366004614f9a565b612181565b60006001600160e01b031982167fb88c9696000000000000000000000000000000000000000000000000000000001480610a555750610a55826123a8565b92915050565b606060018054610a6a90615035565b80601f0160208091040260200160405190810160405280929190818152602001828054610a9690615035565b8015610ae35780601f10610ab857610100808354040283529160200191610ae3565b820191906000526020600020905b815481529060010190602001808311610ac657829003601f168201915b5050505050905090565b6000610af8826124b6565b506000828152600560205260409020546001600160a01b0316610a55565b610b288282610b236124ef565b6124fe565b5050565b610b41610b376117f2565b600754601661250b565b8515610bb257600d610b548789836150b1565b508686604051610b65929190615171565b60405180910390207f7bc9110d5de090dd59e07912d2b93a5a27ac70a60c8d8e324db4f9ee8b8b5c13610b966124ef565b6040516001600160a01b03909116815260200160405180910390a25b8315610c2357600e610bc58587836150b1565b508484604051610bd6929190615171565b60405180910390207fd36dc0c1a06103fdcaf15f3f6fb797d1a97997514c78de073640c8b5005454b8610c076124ef565b6040516001600160a01b03909116815260200160405180910390a25b600a546001600160a01b039081169084163014610ce45760405163036129cb60e61b81526001600160a01b03858116600483015282169063d84a72c090602401600060405180830381600087803b158015610c7d57600080fd5b505af1158015610c91573d6000803e3d6000fd5b50505050836001600160a01b03167fe7784d93cfbfa4408e19577e6cc0436f4dbb51214b70e100905dfce9def88c16610cc86124ef565b6040516001600160a01b03909116815260200160405180910390a25b8215801590610cf257508115155b15610dbd576040517f49bd1ac600000000000000000000000000000000000000000000000000000000815260048101849052602481018390526001600160a01b038216906349bd1ac690604401600060405180830381600087803b158015610d5957600080fd5b505af1158015610d6d573d6000803e3d6000fd5b50505050827f677da4fed654db8e604791fa2582f342e2001aa217e27f6985eb3e0f67e5a7fc83610d9c6124ef565b604080519283526001600160a01b0390911660208301520160405180910390a25b5050505050505050565b8060005b81811015610e1a576000848483818110610de757610de7615181565b905060400201803603810190610dfd9190615197565b9050610e1181600001518260200151610fd5565b50600101610dcb565b50505050565b6001600160a01b038216610e4f57604051633250574960e11b8152600060048201526024015b60405180910390fd5b6000610e638383610e5e6124ef565b6126b6565b9050836001600160a01b0316816001600160a01b031614610e1a576040517f64283d7b0000000000000000000000000000000000000000000000000000000081526001600160a01b0380861660048301526024820184905282166044820152606401610e46565b610ee583838360405180602001604052806000815250611b3c565b505050565b6040805160018082528183019092526101208301359160609190816020015b60408051606080820183526000808352602083015291810191909152815260200190600190039081610f095790505090506040518060600160405280306001600160a01b03168152602001600081526020016040518060200160405280600081525081525081600081518110610f8157610f81615181565b6020026020010181905250915091565b6000818152600860205260408120546001600160a01b03168015610fb55792915050565b6000838152600360205260409020546001600160a01b03165b9392505050565b600b546007546040516321d1336160e11b815260048101919091526000916001600160a01b0316906343a266c29060240161012060405180830381865afa158015611024573d6000803e3d6000fd5b505050506040513d601f19601f8201168201806040525081019061104891906151f1565b61010081015190915060f01c600190811603611090576040517f63a0ba3900000000000000000000000000000000000000000000000000000000815260040160405180910390fd5b600a546040517fbaa7e80e00000000000000000000000000000000000000000000000000000000815260048101859052602481018490526001600160a01b0390911690600090829063baa7e80e906044016000604051808303816000875af1158015611100573d6000803e3d6000fd5b505050506040513d6000823e601f3d908101601f1916820160405261112891908101906152db565b6040517f03573004000000000000000000000000000000000000000000000000000000008152306004820152602481018790529091506000906001600160a01b03841690630357300490604401602060405180830381865afa158015611192573d6000803e3d6000fd5b505050506040513d601f19601f820116820180604052508101906111b69190615310565b90506000805b86811015610dbd578381815181106111d6576111d6615181565b602002602001015191506111ea838361292c565b826001600160a01b031688837f80dd2efbbc431cde0164d84d638e44ba6e7a3ca5d532ceef1bb4efcc0948325d61121f6124ef565b6040516001600160a01b03909116815260200160405180910390a46001016111bc565b6000610a55826124b6565b341515806112eb5750600754604051636e49181f60e01b815260048101919091523360248201527f00000000000000000000000044d360c8c4105f180e07668bd3374c7a6f812faf6001600160a01b031690636e49181f90604401602060405180830381865afa1580156112c5573d6000803e3d6000fd5b505050506040513d601f19601f820116820180604052508101906112e99190615338565b155b806112fc5750600754816020013514155b15611333576040517f835e522b00000000000000000000000000000000000000000000000000000000815260040160405180910390fd5b60408051808201909152600681526572656465656d60d01b6020909101526000806113e57f000000000000000000000000f6897b40515ae4e66acd58aabb76ac143e833c6d60601b7f26ef0a97332ad048ac544d8dfacdd43e128b9816d599fdd0310960904fa18609186113ab6101e0860186615355565b8080601f0160208091040260200160405190810160405280939291908181526020018383808284376000920191909152506129aa92505050565b9150915060608215611408578180602001905181019061140591906152db565b90505b80516000805b828110156114c15783818151811061142857611428615181565b602002602001015191508660000160208101906114459190614626565b6001600160a01b031661146d836000908152600360205260409020546001600160a01b031690565b6001600160a01b0316146114b0576040517f5caf197500000000000000000000000000000000000000000000000000000000815260048101839052602401610e46565b6114b982612b80565b60010161140e565b506114cb83612bbb565b505050505050565b600a546040517f144cc2d40000000000000000000000000000000000000000000000000000000081526000916001600160a01b03169063144cc2d49061151f903090879060040161539c565b602060405180830381865afa15801561153c573d6000803e3d6000fd5b505050506040513d601f19601f82011682018060405250810190610fce91906153be565b606061157761156d6117f2565b600754601761250b565b600a5460405163eaa19ab360e01b81526001600160a01b039091169063eaa19ab3906115b09060001990889088906001906004016153d7565b6000604051808303816000875af11580156115cf573d6000803e3d6000fd5b505050506040513d6000823e601f3d908101601f191682016040526115f79190810190615436565b509050826000805b828110156116b65783818151811061161957611619615181565b6020026020010151915061162d858361292c565b846001600160a01b031687878381811061164957611649615181565b905060200201602081019061165e919061547d565b61ffff16837f598baf7bf150ca2f42be9e9f8f55e81d45f5715c3ff22bf46d697fabec7f31d6600061168e6124ef565b604080519283526001600160a01b0390911660208301520160405180910390a46001016115ff565b5050509392505050565b600d80546116cd90615035565b80601f01602080910402602001604051908101604052809291908181526020018280546116f990615035565b80156117465780601f1061171b57610100808354040283529160200191611746565b820191906000526020600020905b81548152906001019060200180831161172957829003601f168201915b505050505081565b600a546040517ff7888aec0000000000000000000000000000000000000000000000000000000081523060048201526001600160a01b038381166024830152600092169063f7888aec906044015b602060405180830381865afa1580156117b9573d6000803e3d6000fd5b505050506040513d601f19601f82011682018060405250810190610a5591906153be565b6117e5612c39565b6117f0600080612d4b565b565b60408051606081018252600080546001600160a01b0381168352600160a01b81046affffffffffffffffffffff1660208401819052600160f81b90910460ff16938301939093529182036118465751919050565b60208101516040516331a9108f60e11b81526affffffffffffffffffffff90911660048201527f000000000000000000000000fa679f5ecdd8be404c1fbaa7f29aeb2b12f5b6626001600160a01b031690636352211e90602401602060405180830381865afa1580156118bd573d6000803e3d6000fd5b505050506040513d601f19601f820116820180604052508101906118e19190615310565b91505090565b606060028054610a6a90615035565b6118fe612c39565b80158061191557506affffffffffffffffffffff81115b156119335760405163ecb9b1c760e01b815260040160405180910390fd5b61193e600082612d4b565b50565b610b2861194c6124ef565b8383612efc565b600080806060608085013515611995576040517f4fc178d800000000000000000000000000000000000000000000000000000000815260040160405180910390fd5b60408051808201909152600681526572656465656d60d01b602090910152600080611a0d7f000000000000000000000000f6897b40515ae4e66acd58aabb76ac143e833c6d60601b7f26ef0a97332ad048ac544d8dfacdd43e128b9816d599fdd0310960904fa18609186113ab6101808a018a615355565b604080516001808252818301909252929450909250816020015b60408051606080820183526000808352602083015291810191909152815260200190600190039081611a275790505092506040518060600160405280306001600160a01b03168152602001600081526020016040518060200160405280600081525081525083600081518110611a9f57611a9f615181565b602002602001018190525060608215611ac95781806020019051810190611ac691906152db565b90505b611ad381896114d3565b9550611ade88611af2565b945087610160013596505050509193509193565b600a546040517f2ae5e4920000000000000000000000000000000000000000000000000000000081523060048201526000916001600160a01b031690632ae5e4929060240161179c565b611b47848484610e20565b610e1a84848484612fb4565b600a546001600160a01b031615611b6957600080fd5b611b748a8a8a6130f6565b600b80546001600160a01b03808a1673ffffffffffffffffffffffffffffffffffffffff1992831617909255600a8054928516929091169190911790556020808401516040850151606086015178ffffffffffffffffffffffffffffffffffffffff000000000060289190911b1664ff000000009190931b1663ffffffff90911617176009819055865115611c1157600d611c0f888261549a565b505b845115611c2657600e611c24868261549a565b505b6001600160a01b03861615611c915760405163036129cb60e61b81526001600160a01b03878116600483015284169063d84a72c090602401600060405180830381600087803b158015611c7857600080fd5b505af1158015611c8c573d6000803e3d6000fd5b505050505b83515115611d0f5783516040516349249dc160e01b81526001600160a01b038516916349249dc191611cc6919060040161555a565b6000604051808303816000875af1158015611ce5573d6000803e3d6000fd5b505050506040513d6000823e601f3d908101601f19168201604052611d0d91908101906152db565b505b815180611d1d575081602001515b80611d29575081604001515b80611d35575081606001515b15611dd457604080517fcb827e3200000000000000000000000000000000000000000000000000000000815283511515600482015260208401511515602482015290830151151560448201526060830151151560648201526001600160a01b0384169063cb827e3290608401600060405180830381600087803b158015611dbb57600080fd5b505af1158015611dcf573d6000803e3d6000fd5b505050505b611de4611ddf6124ef565b61208a565b5050505050505050505050565b611df9612c39565b61193e81613107565b600a546040517f0fab09470000000000000000000000000000000000000000000000000000000081523060048201526060916001600160a01b0316906000908290630fab094790602401602060405180830381865afa158015611e69573d6000803e3d6000fd5b505050506040513d601f19601f82011682018060405250810190611e8d9190615310565b90506001600160a01b03811615611f32576040517f5e703e71000000000000000000000000000000000000000000000000000000008152306004820152602481018590526001600160a01b03821690635e703e7190604401600060405180830381865afa158015611f02573d6000803e3d6000fd5b505050506040513d6000823e601f3d908101601f19168201604052611f2a919081019061568c565b949350505050565b611f2a600d8054611f4290615035565b80601f0160208091040260200160405190810160405280929190818152602001828054611f6e90615035565b8015611fbb5780601f10611f9057610100808354040283529160200191611fbb565b820191906000526020600020905b815481529060010190602001808311611f9e57829003601f168201915b50506040517fc8df1710000000000000000000000000000000000000000000000000000000008152306004820152602481018a90526001600160a01b038816935063c8df171092506044019050602060405180830381865afa158015612025573d6000803e3d6000fd5b505050506040513d601f19601f8201168201806040525081019061204991906153be565b61315d565b600e80546116cd90615035565b612063612c39565b6001600160a01b03811661208a5760405163ecb9b1c760e01b815260040160405180910390fd5b61193e816000612d4b565b600754341515806121325750604051636e49181f60e01b8152600481018290523360248201527f00000000000000000000000044d360c8c4105f180e07668bd3374c7a6f812faf6001600160a01b031690636e49181f90604401602060405180830381865afa15801561210c573d6000803e3d6000fd5b505050506040513d601f19601f820116820180604052508101906121309190615338565b155b80612141575080826020013514155b15612178576040517f8a3ea1c800000000000000000000000000000000000000000000000000000000815260040160405180910390fd5b610b28826131e0565b61219661218c6117f2565b600754601561250b565b600a54839082906001600160a01b03168115612297576040517f20512ba10000000000000000000000000000000000000000000000000000000081526001600160a01b038216906320512ba1906121f390889088906004016156c1565b600060405180830381600087803b15801561220d57600080fd5b505af1158015612221573d6000803e3d6000fd5b5050505060005b828110156122955785858281811061224257612242615181565b905060200201357f832d89d991be5351d793c20faf4b7dd44f8aa9ce39e3cb160c6317de6fbba7296122726124ef565b6040516001600160a01b03909116815260200160405180910390a2600101612228565b505b821561239f576040516349249dc160e01b81526000906001600160a01b038316906349249dc1906122ce908b908b90600401615819565b6000604051808303816000875af11580156122ed573d6000803e3d6000fd5b505050506040513d6000823e601f3d908101601f1916820160405261231591908101906152db565b905060005b8481101561239c5781818151811061233457612334615181565b60200260200101517f6c05e4bd067859371de8c0a303cf84af0ba782c3809f8fba14e6af4388894cf08a8a8481811061236f5761236f615181565b9050610180020161237e6124ef565b60405161238c92919061585c565b60405180910390a260010161231a565b50505b50505050505050565b60006001600160e01b031982167f5ab8866d00000000000000000000000000000000000000000000000000000000148061240b57506001600160e01b031982167f81c03c2e00000000000000000000000000000000000000000000000000000000145b8061243f57506001600160e01b031982167ff3c5788100000000000000000000000000000000000000000000000000000000145b8061247357506001600160e01b031982167f66ec4cb400000000000000000000000000000000000000000000000000000000145b806124a757506001600160e01b031982167f2a55205a00000000000000000000000000000000000000000000000000000000145b80610a555750610a5582613737565b6000818152600360205260408120546001600160a01b031680610a5557604051637e27328960e01b815260048101849052602401610e46565b60006124f96137d2565b905090565b610ee58383836001613847565b60006125156124ef565b9050836001600160a01b0316816001600160a01b0316141580156125d6575060405163c161c93f60e01b81526001600160a01b038281166004830152858116602483015260448201859052606482018490527f000000000000000000000000711eda44f3d42f3d255846b5ee36cf70fd912e50169063c161c93f90608401602060405180830381865afa1580156125b0573d6000803e3d6000fd5b505050506040513d601f19601f820116820180604052508101906125d49190615338565b155b801561267f575060405163c161c93f60e01b81526001600160a01b038281166004830152858116602483015260006044830152606482018490527f000000000000000000000000711eda44f3d42f3d255846b5ee36cf70fd912e50169063c161c93f90608401602060405180830381865afa158015612659573d6000803e3d6000fd5b505050506040513d601f19601f8201168201806040525081019061267d9190615338565b155b15610e1a576040517f075fd2b100000000000000000000000000000000000000000000000000000000815260040160405180910390fd5b600a546040517fc44a8e6d00000000000000000000000000000000000000000000000000000000815230600482015260248101849052600060448201819052916001600160a01b0316908290829063c44a8e6d90606401600060405180830381865afa15801561272a573d6000803e3d6000fd5b505050506040513d6000823e601f3d908101601f191682016040526127529190810190615882565b905061275f868686613992565b92506001600160a01b0383161561289d578061014001511561284c57600b546007546040516321d1336160e11b815260048101919091526000916001600160a01b0316906343a266c29060240161012060405180830381865afa1580156127ca573d6000803e3d6000fd5b505050506040513d601f19601f820116820180604052508101906127ee91906151f1565b90506001600160a01b03871615801590612813575061010081015160ef1c6001908116145b1561284a576040517ffa45ac2900000000000000000000000000000000000000000000000000000000815260040160405180910390fd5b505b6000858152600860205260409020546001600160a01b031661289d576000858152600860205260409020805473ffffffffffffffffffffffffffffffffffffffff19166001600160a01b0385161790555b80516040517fc2c55f9400000000000000000000000000000000000000000000000000000000815260048101919091526001600160a01b038481166024830152878116604483015283169063c2c55f9490606401600060405180830381600087803b15801561290b57600080fd5b505af115801561291f573d6000803e3d6000fd5b5050505050509392505050565b6001600160a01b03821661295657604051633250574960e11b815260006004820152602401610e46565b6000612964838360006126b6565b90506001600160a01b03811615610ee5576040517f73c6ac6e00000000000000000000000000000000000000000000000000000000815260006004820152602401610e46565b6000606060258351116129cf5750506040805160208101909152600080825290612b79565b6000836129de600460206159a3565b815181106129ee576129ee615181565b0160209081015160f81c91505b600085612a096004846159a3565b81518110612a1957612a19615181565b01602001517fff000000000000000000000000000000000000000000000000000000000000001614801590612a575750612a546020836159b6565b81105b15612b7657600085612a6a6004846159a3565b81518110612a7a57612a7a615181565b016020908101518784019091015160f89190911c91506001600160e01b031980891690821603612b6c576000612ab16020866159b6565b612abc6009866159a3565b101580612b09575087612ad06009866159a3565b81518110612ae057612ae0615181565b01602001517fff0000000000000000000000000000000000000000000000000000000000000016155b612b4257602088612b1b6009876159a3565b81518110612b2b57612b2b615181565b0160200151612b3d919060f81c6159b6565b612b45565b87515b90506001612b5e89612b586020876159b6565b84613a98565b965096505050505050612b79565b50506005016129fb565b50505b9250929050565b6000612b8f60008360006126b6565b90506001600160a01b038116610b2857604051637e27328960e01b815260048101839052602401610e46565b600a546040517f86bc2be30000000000000000000000000000000000000000000000000000000081526001600160a01b03909116906386bc2be390612c0490849060040161498c565b600060405180830381600087803b158015612c1e57600080fd5b505af1158015612c32573d6000803e3d6000fd5b5050505050565b604080516060810182526000546001600160a01b0381168252600160a01b81046affffffffffffffffffffff1660208301819052600160f81b90910460ff16928201929092529061193e9015612d295760208201516040516331a9108f60e11b81526affffffffffffffffffffff90911660048201527f000000000000000000000000fa679f5ecdd8be404c1fbaa7f29aeb2b12f5b6626001600160a01b031690636352211e90602401602060405180830381865afa158015612d00573d6000803e3d6000fd5b505050506040513d601f19601f82011682018060405250810190612d249190615310565b612d2c565b81515b82602001516affffffffffffffffffffff16836040015160ff1661250b565b6affffffffffffffffffffff811615801590612d6f57506001600160a01b03821615155b15612d8d5760405163ecb9b1c760e01b815260040160405180910390fd5b60408051606081018252600080546001600160a01b0381168352600160a01b81046affffffffffffffffffffff1660208401819052600160f81b90910460ff1693830193909352909115612e7b5760208201516040516331a9108f60e11b81526affffffffffffffffffffff90911660048201527f000000000000000000000000fa679f5ecdd8be404c1fbaa7f29aeb2b12f5b6626001600160a01b031690636352211e90602401602060405180830381865afa158015612e52573d6000803e3d6000fd5b505050506040513d601f19601f82011682018060405250810190612e769190615310565b612e7e565b81515b604080516060810182526001600160a01b0387168082526affffffffffffffffffffff87166020830181905260009290930182905281547fff000000000000000000000000000000000000000000000000000000000000001617600160a01b909202919091176001600160f81b031690559050610e1a818585613ad4565b6001600160a01b038216612f47576040517f5b08ba180000000000000000000000000000000000000000000000000000000081526001600160a01b0383166004820152602401610e46565b6001600160a01b03838116600081815260066020908152604080832094871680845294825291829020805460ff191686151590811790915591519182527f17307eab39ab6107e8899845ad3d59bd9653f200f220920489ca2b5937696c31910160405180910390a3505050565b6001600160a01b0383163b15610e1a57826001600160a01b031663150b7a02612fdb6124ef565b8685856040518563ffffffff1660e01b8152600401612ffd94939291906159cd565b6020604051808303816000875af1925050508015613038575060408051601f3d908101601f1916820190925261303591810190615a09565b60015b6130a1573d808015613066576040519150601f19603f3d011682016040523d82523d6000602084013e61306b565b606091505b50805160000361309957604051633250574960e11b81526001600160a01b0385166004820152602401610e46565b805181602001fd5b6001600160e01b031981167f150b7a020000000000000000000000000000000000000000000000000000000014612c3257604051633250574960e11b81526001600160a01b0385166004820152602401610e46565b6131008282613bc7565b5050600755565b600080546001600160f81b0316600160f81b60ff8416908102919091179091556040519081527f6f4725627084d54c46c628b050805457a1cd38c5cd20c1f00132960f8b546fed9060200160405180910390a150565b6040517f1220000000000000000000000000000000000000000000000000000000000000602082015260228101829052606090600090604201604051602081830303815290604052905060006131b282613be0565b905084816040516020016131c7929190615a26565b6040516020818303038152906040529250505092915050565b60095460009063ffffffff811660c084013581900361320557608084013592506132df565b602882901c6001600160a01b03811615612c325760ff602084901c166132da608087013561323483600a615b39565b6007546040517f3be273fa000000000000000000000000000000000000000000000000000000008152600481019190915260c08a013560248201526044810187905260a08a013560648201526001600160a01b03861690633be273fa90608401602060405180830381865afa1580156132b1573d6000803e3d6000fd5b505050506040513d601f19601f820116820180604052508101906132d591906153be565b613d78565b945050505b5060009050600c816132f96101c086016101a08701614626565b6001600160a01b0316815260208101919091526040016000908120549150829061332b6101c086016101a08701614626565b6001600160a01b03166133416020870187614626565b6001600160a01b031603613358579082019061335b565b50815b60408051808201909152600381527f7061790000000000000000000000000000000000000000000000000000000000602090910152600080806133eb7f000000000000000000000000f6897b40515ae4e66acd58aabb76ac143e833c6d60601b7fadc756803e4eb4ccfb136b73d5f72e3dc0d452d30ae1f4bc82af394c73ce7115186113ab6101e08b018b615355565b9150915081156134bf5760608180602001905181019061340b9190615b45565b90945090508380156134895750600a54604051634228826f60e11b81523060048201526001600160a01b039091169063845104de90602401608060405180830381865afa158015613460573d6000803e3d6000fd5b505050506040513d601f19601f820116820180604052508101906134849190615bf6565b606001515b1561349357600093505b8051156134b9576134b686826134b16101c08d016101a08e01614626565b613e65565b95505b50613538565b600a54604051634228826f60e11b81523060048201526001600160a01b039091169063845104de90602401608060405180830381865afa158015613507573d6000803e3d6000fd5b505050506040513d601f19601f8201168201806040525081019061352b9190615bf6565b6060015161353857600192505b841561368b5782613575576040517f6d5e09a400000000000000000000000000000000000000000000000000000000815260040160405180910390fd5b848401868111156135e8576135926101c08a016101a08b01614626565b6001600160a01b0316818883037f7e71a5f6c04b0eb16949316623b9dda7bd103692f7d89678e2260afa1378a2d56135c86124ef565b6040516001600160a01b03909116815260200160405180910390a4613654565b80871115613654576136026101c08a016101a08b01614626565b6001600160a01b0316818289037f6276f0169fb8de712b2a6c02789f6115136c589ed491ac06f9e20f41877e41fe6136386124ef565b6040516001600160a01b03909116815260200160405180910390a45b80600c600061366b6101c08d016101a08e01614626565b6001600160a01b0316815260208101919091526040016000205550610dbd565b838614610dbd576136a46101c089016101a08a01614626565b6001600160a01b0316846136b88189615c5d565b7f6276f0169fb8de712b2a6c02789f6115136c589ed491ac06f9e20f41877e41fe6136e16124ef565b6040516001600160a01b03909116815260200160405180910390a483600c60006137136101c08c016101a08d01614626565b6001600160a01b031681526020810191909152604001600020555050505050505050565b60006001600160e01b031982167f80ac58cd00000000000000000000000000000000000000000000000000000000148061379a57506001600160e01b031982167f5b5e139f00000000000000000000000000000000000000000000000000000000145b80610a5557507f01ffc9a7000000000000000000000000000000000000000000000000000000006001600160e01b0319831614610a55565b6000366014336001600160a01b037f000000000000000000000000b2b5841dbef766d4b521221732f9b618fcf34a871614801561380f5750808210155b1561383f576000366138218385615c5d565b61382c928290615c70565b61383591615c9a565b60601c9250505090565b339250505090565b808061385b57506001600160a01b03821615155b1561395557600061386b846124b6565b90506001600160a01b038316158015906138975750826001600160a01b0316816001600160a01b031614155b80156138c957506001600160a01b0380821660009081526006602090815260408083209387168352929052205460ff16155b1561390b576040517fa9fbf51f0000000000000000000000000000000000000000000000000000000081526001600160a01b0384166004820152602401610e46565b81156139535783856001600160a01b0316826001600160a01b03167f8c5be1e5ebec7d5bd14f71427d1e84f3dd0314c0f7b2291e5b200ac8c7c3b92560405160405180910390a45b505b50506000908152600560205260409020805473ffffffffffffffffffffffffffffffffffffffff19166001600160a01b0392909216919091179055565b6000828152600360205260408120546001600160a01b03908116908316156139bf576139bf818486613fa6565b6001600160a01b038116156139fd576139dc600085600080613847565b6001600160a01b038116600090815260046020526040902080546000190190555b6001600160a01b03851615613a2c576001600160a01b0385166000908152600460205260409020805460010190555b600084815260036020526040808220805473ffffffffffffffffffffffffffffffffffffffff19166001600160a01b0389811691821790925591518793918516917fddf252ad1be2c89b69c2b068fc378daa952ba7f163c4a11628f55a4df523b3ef91a4949350505050565b60608282036040519150602081830101604052808252508260208501016020820160005b848110156116b6578281015182820152602001613abc565b6affffffffffffffffffffff811615613b81576040516331a9108f60e11b81526affffffffffffffffffffff821660048201527f000000000000000000000000fa679f5ecdd8be404c1fbaa7f29aeb2b12f5b6626001600160a01b031690636352211e90602401602060405180830381865afa158015613b58573d6000803e3d6000fd5b505050506040513d601f19601f82011682018060405250810190613b7c9190615310565b613b83565b815b6001600160a01b0316836001600160a01b03167f8be0079c531659141344cd1fd0a4f28419497f9722a3daafe3b4186f6b6457e060405160405180910390a3505050565b6001613bd3838261549a565b506002610ee5828261549a565b60608151600003613bff57505060408051600081526020810190915290565b60408051602e8082526105e08201909252600091602082016105c080368337019050509050600081600081518110613c3957613c39615181565b60ff90921660209283029190910190910152825160019060005b81811015613d54576000868281518110613c6f57613c6f615181565b016020015160f81c905060005b8460ff16811015613cf9576008868281518110613c9b57613c9b615181565b602002602001015160ff16901b82613cb391906159a3565b9150613cc0603a83615ce5565b868281518110613cd257613cd2615181565b60ff90921660209283029190910190910152613cef603a83615cf9565b9150600101613c7c565b505b8015613d4b57613d0c603a82615ce5565b858560ff1681518110613d2157613d21615181565b60ff90921660209283029190910190910152600190930192613d44603a82615cf9565b9050613cfb565b50600101613c53565b50613d6f613d6a613d658585614023565b6140cb565b61416e565b95945050505050565b6000808060001985870985870292508281108382030391505080600003613db257838281613da857613da8615ccf565b0492505050610fce565b838110613dfc576040517f63a05778000000000000000000000000000000000000000000000000000000008152600481018790526024810186905260448101859052606401610e46565b60008486880960026001871981018816978890046003810283188082028403028082028403028082028403028082028403028082028403029081029092039091026000889003889004909101858311909403939093029303949094049190911702949350505050565b600a5460405163eaa19ab360e01b81526000916060916001600160a01b039091169063eaa19ab390613e9f90889088908790600401615d0d565b6000604051808303816000875af1158015613ebe573d6000803e3d6000fd5b505050506040513d6000823e601f3d908101601f19168201604052613ee69190810190615436565b81519093509091506000805b82811015613f9b57838181518110613f0c57613f0c615181565b60200260200101519150613f20868361292c565b856001600160a01b0316878281518110613f3c57613f3c615181565b602002602001015161ffff16837f598baf7bf150ca2f42be9e9f8f55e81d45f5715c3ff22bf46d697fabec7f31d68b613f736124ef565b604080519283526001600160a01b0390911660208301520160405180910390a4600101613ef2565b505050509392505050565b613fb1838383614248565b610ee5576001600160a01b038316613fdf57604051637e27328960e01b815260048101829052602401610e46565b6040517f177e802f0000000000000000000000000000000000000000000000000000000081526001600160a01b038316600482015260248101829052604401610e46565b606060008260ff1667ffffffffffffffff811115614043576140436146e3565b60405190808252806020026020018201604052801561406c578160200160208202803683370190505b50905060005b8360ff168110156140c35784818151811061408f5761408f615181565b60200260200101518282815181106140a9576140a9615181565b60ff90921660209283029190910190910152600101614072565b509392505050565b805160609060008167ffffffffffffffff8111156140eb576140eb6146e3565b604051908082528060200260200182016040528015614114578160200160208202803683370190505b50905060005b828110156140c35784816001875103038151811061413a5761413a615181565b602002602001015182828151811061415457614154615181565b60ff9092166020928302919091019091015260010161411a565b805160609060008167ffffffffffffffff81111561418e5761418e6146e3565b6040519080825280601f01601f1916602001820160405280156141b8576020820181803683370190505b50905060005b828110156140c3576040518060600160405280603a8152602001615d6d603a91398582815181106141f1576141f1615181565b602002602001015160ff168151811061420c5761420c615181565b602001015160f81c60f81b82828151811061422957614229615181565b60200101906001600160f81b031916908160001a9053506001016141be565b60006001600160a01b03831615801590611f2a5750826001600160a01b0316846001600160a01b031614806142a257506001600160a01b0380851660009081526006602090815260408083209387168352929052205460ff165b80611f2a5750506000908152600560205260409020546001600160a01b03908116911614919050565b6001600160e01b03198116811461193e57600080fd5b6000602082840312156142f357600080fd5b8135610fce816142cb565b60005b83811015614319578181015183820152602001614301565b50506000910152565b6000815180845261433a8160208601602086016142fe565b601f01601f19169290920160200192915050565b602081526000610fce6020830184614322565b60006020828403121561437357600080fd5b5035919050565b6001600160a01b038116811461193e57600080fd5b803561439a8161437a565b919050565b600080604083850312156143b257600080fd5b82356143bd8161437a565b946020939093013593505050565b60008083601f8401126143dd57600080fd5b50813567ffffffffffffffff8111156143f557600080fd5b602083019150836020828501011115612b7957600080fd5b600080600080600080600060a0888a03121561442857600080fd5b873567ffffffffffffffff8082111561444057600080fd5b61444c8b838c016143cb565b909950975060208a013591508082111561446557600080fd5b506144728a828b016143cb565b90965094505060408801356144868161437a565b969995985093969295946060840135945060809093013592915050565b600080602083850312156144b657600080fd5b823567ffffffffffffffff808211156144ce57600080fd5b818501915085601f8301126144e257600080fd5b8135818111156144f157600080fd5b8660208260061b850101111561450657600080fd5b60209290920196919550909350505050565b60008060006060848603121561452d57600080fd5b83356145388161437a565b925060208401356145488161437a565b929592945050506040919091013590565b60006020828403121561456b57600080fd5b813567ffffffffffffffff81111561458257600080fd5b82016101808185031215610fce57600080fd5b6000604080830185845260206040818601528186518084526060935060608701915060608160051b88010183890160005b8381101561461657898303605f19018552815180516001600160a01b03168452868101518785015288015188840188905261460388850182614322565b95870195935050908501906001016145c6565b50909a9950505050505050505050565b60006020828403121561463857600080fd5b8135610fce8161437a565b6000806040838503121561465657600080fd5b50508035926020909101359150565b6000610200828403121561467857600080fd5b50919050565b60006020828403121561469057600080fd5b813567ffffffffffffffff8111156146a757600080fd5b611f2a84828501614665565b600080604083850312156146c657600080fd5b8235915060208301356146d88161437a565b809150509250929050565b634e487b7160e01b600052604160045260246000fd5b6040516080810167ffffffffffffffff8111828210171561471c5761471c6146e3565b60405290565b604051610180810167ffffffffffffffff8111828210171561471c5761471c6146e3565b604051610120810167ffffffffffffffff8111828210171561471c5761471c6146e3565b6040516101a0810167ffffffffffffffff8111828210171561471c5761471c6146e3565b604051601f8201601f1916810167ffffffffffffffff811182821017156147b7576147b76146e3565b604052919050565b600067ffffffffffffffff8211156147d9576147d96146e3565b5060051b60200190565b60006101a0828403121561467857600080fd5b6000806040838503121561480957600080fd5b823567ffffffffffffffff8082111561482157600080fd5b818501915085601f83011261483557600080fd5b8135602061484a614845836147bf565b61478e565b82815260059290921b8401810191818101908984111561486957600080fd5b948201945b838610156148875785358252948201949082019061486e565b9650508601359250508082111561489d57600080fd5b506148aa858286016147e3565b9150509250929050565b60008083601f8401126148c657600080fd5b50813567ffffffffffffffff8111156148de57600080fd5b6020830191508360208260051b8501011115612b7957600080fd5b60008060006040848603121561490e57600080fd5b833567ffffffffffffffff81111561492557600080fd5b614931868287016148b4565b90945092505060208401356149458161437a565b809150509250925092565b60008151808452602080850194506020840160005b8381101561498157815187529582019590820190600101614965565b509495945050505050565b602081526000610fce6020830184614950565b801515811461193e57600080fd5b803561439a8161499f565b600080604083850312156149cb57600080fd5b82356149d68161437a565b915060208301356146d88161499f565b6000602082840312156149f857600080fd5b813567ffffffffffffffff811115614a0f57600080fd5b611f2a848285016147e3565b60006080820186835260208681850152604086604086015260606080606087015283875180865260a08801915060a08160051b890101955084890160005b82811015614aa957898803609f19018452815180516001600160a01b0316895287810151888a0152860151868901869052614a96868a0182614322565b9850509286019290860190600101614a59565b50959c9b505050505050505050505050565b600067ffffffffffffffff821115614ad557614ad56146e3565b50601f01601f191660200190565b6000614af161484584614abb565b9050828152838383011115614b0557600080fd5b828260208301376000602084830101529392505050565b60008060008060808587031215614b3257600080fd5b8435614b3d8161437a565b93506020850135614b4d8161437a565b925060408501359150606085013567ffffffffffffffff811115614b7057600080fd5b8501601f81018713614b8157600080fd5b614b9087823560208401614ae3565b91505092959194509250565b600082601f830112614bad57600080fd5b610fce83833560208501614ae3565b80356cffffffffffffffffffffffffff8116811461439a57600080fd5b803563ffffffff8116811461439a57600080fd5b61ffff8116811461193e57600080fd5b803561439a81614bed565b803562ffffff8116811461439a57600080fd5b803560ff8116811461439a57600080fd5b60006080808385031215614c3f57600080fd5b614c476146f9565b9150823567ffffffffffffffff811115614c6057600080fd5b8301601f81018513614c7157600080fd5b80356020614c81614845836147bf565b8281526101809283028401820192828201919089851115614ca157600080fd5b948301945b84861015614d945780868b031215614cbe5760008081fd5b614cc6614722565b614ccf87614bbc565b8152614cdc858801614bd9565b858201526040614ced818901614bd9565b908201526060614cfe888201614bfd565b90820152614d0d87890161438f565b8189015260a0878101359082015260c0614d28818901614c08565b9082015260e0614d398882016149ad565b90820152610100614d4b8882016149ad565b90820152610120614d5d8882016149ad565b90820152610140614d6f8882016149ad565b90820152610160614d818882016149ad565b9082015283529485019491830191614ca6565b50865250614da3868201614bd9565b8186015250505050614db760408301614c1b565b6040820152614dc86060830161438f565b606082015292915050565b600060808284031215614de557600080fd5b614ded6146f9565b90508135614dfa8161499f565b81526020820135614e0a8161499f565b60208201526040820135614e1d8161499f565b60408201526060820135614dc88161499f565b6000806000806000806000806000806101a08b8d031215614e5057600080fd5b8a35995060208b013567ffffffffffffffff80821115614e6f57600080fd5b614e7b8e838f01614b9c565b9a5060408d0135915080821115614e9157600080fd5b614e9d8e838f01614b9c565b9950614eab60608e0161438f565b985060808d0135915080821115614ec157600080fd5b614ecd8e838f01614b9c565b9750614edb60a08e0161438f565b965060c08d0135915080821115614ef157600080fd5b614efd8e838f01614b9c565b955060e08d0135915080821115614f1357600080fd5b50614f208d828e01614c2c565b935050614f306101008c0161438f565b9150614f408c6101208d01614dd3565b90509295989b9194979a5092959850565b600060208284031215614f6357600080fd5b610fce82614c1b565b60008060408385031215614f7f57600080fd5b8235614f8a8161437a565b915060208301356146d88161437a565b60008060008060408587031215614fb057600080fd5b843567ffffffffffffffff80821115614fc857600080fd5b818701915087601f830112614fdc57600080fd5b813581811115614feb57600080fd5b8860206101808302850101111561500157600080fd5b60209283019650945090860135908082111561501c57600080fd5b50615029878288016148b4565b95989497509550505050565b600181811c9082168061504957607f821691505b60208210810361467857634e487b7160e01b600052602260045260246000fd5b601f821115610ee5576000816000526020600020601f850160051c810160208610156150925750805b601f850160051c820191505b818110156114cb5782815560010161509e565b67ffffffffffffffff8311156150c9576150c96146e3565b6150dd836150d78354615035565b83615069565b6000601f84116001811461511157600085156150f95750838201355b600019600387901b1c1916600186901b178355612c32565b600083815260209020601f19861690835b828110156151425786850135825560209485019460019092019101615122565b508682101561515f5760001960f88860031b161c19848701351681555b505060018560011b0183555050505050565b8183823760009101908152919050565b634e487b7160e01b600052603260045260246000fd5b6000604082840312156151a957600080fd5b6040516040810181811067ffffffffffffffff821117156151cc576151cc6146e3565b604052823581526020928301359281019290925250919050565b805161439a8161437a565b6000610120828403121561520457600080fd5b61520c614746565b825181526020830151602082015260408301516040820152606083015160608201526080830151608082015260a083015160a082015260c083015160c082015261525860e084016151e6565b60e0820152610100928301519281019290925250919050565b600082601f83011261528257600080fd5b81516020615292614845836147bf565b8083825260208201915060208460051b8701019350868411156152b457600080fd5b602086015b848110156152d057805183529183019183016152b9565b509695505050505050565b6000602082840312156152ed57600080fd5b815167ffffffffffffffff81111561530457600080fd5b611f2a84828501615271565b60006020828403121561532257600080fd5b8151610fce8161437a565b805161439a8161499f565b60006020828403121561534a57600080fd5b8151610fce8161499f565b6000808335601e1984360301811261536c57600080fd5b83018035915067ffffffffffffffff82111561538757600080fd5b602001915036819003821315612b7957600080fd5b6001600160a01b0383168152604060208201526000611f2a6040830184614950565b6000602082840312156153d057600080fd5b5051919050565b84815260606020808301829052908201849052600090859060808401835b8781101561541e57833561540881614bed565b61ffff16825292820192908201906001016153f5565b50809350505050821515604083015295945050505050565b6000806040838503121561544957600080fd5b825167ffffffffffffffff81111561546057600080fd5b61546c85828601615271565b925050602083015190509250929050565b60006020828403121561548f57600080fd5b8135610fce81614bed565b815167ffffffffffffffff8111156154b4576154b46146e3565b6154c8816154c28454615035565b84615069565b602080601f8311600181146154fd57600084156154e55750858301515b600019600386901b1c1916600185901b1785556114cb565b600085815260208120601f198616915b8281101561552c5788860151825594840194600190910190840161550d565b508582101561554a5787850151600019600388901b60f8161c191681555b5050505050600190811b01905550565b602080825282518282018190526000919060409081850190868401855b8281101561563a57815180516cffffffffffffffffffffffffff1685528681015163ffffffff9081168887015286820151168686015260608082015161ffff16908601526080808201516001600160a01b03169086015260a0808201519086015260c08082015162ffffff169086015260e080820151151590860152610100808201511515908601526101208082015115159086015261014080820151151590860152610160908101511515908501526101809093019290850190600101615577565b5091979650505050505050565b600082601f83011261565857600080fd5b815161566661484582614abb565b81815284602083860101111561567b57600080fd5b611f2a8260208301602087016142fe565b60006020828403121561569e57600080fd5b815167ffffffffffffffff8111156156b557600080fd5b611f2a84828501615647565b6020815281602082015260007f07ffffffffffffffffffffffffffffffffffffffffffffffffffffffffffffff8311156156fa57600080fd5b8260051b80856040850137919091016040019392505050565b6157338261572083614bbc565b6cffffffffffffffffffffffffff169052565b61573f60208201614bd9565b63ffffffff16602083015261575660408201614bd9565b63ffffffff16604083015261576d60608201614bfd565b61ffff1660608301526157826080820161438f565b6001600160a01b0316608083015260a081810135908301526157a660c08201614c08565b62ffffff1660c08301526157bc60e082016149ad565b151560e08301526101006157d18282016149ad565b1515908301526101206157e58282016149ad565b1515908301526101406157f98282016149ad565b15159083015261016061580d8282016149ad565b80151584830152610e1a565b6020808252810182905260008360408301825b858110156158525761583e8284615713565b61018092830192919091019060010161582c565b5095945050505050565b6101a0810161586b8285615713565b6001600160a01b0383166101808301529392505050565b60006020828403121561589457600080fd5b815167ffffffffffffffff808211156158ac57600080fd5b908301906101a082860312156158c157600080fd5b6158c961476a565b825181526020830151602082015260408301516040820152606083015160608201526080830151608082015260a083015160a082015261590b60c084016151e6565b60c082015260e083015160e082015261010080840151818301525061012061593481850161532d565b9082015261014061594684820161532d565b9082015261016061595884820161532d565b90820152610180838101518381111561597057600080fd5b61597c88828701615647565b918301919091525095945050505050565b634e487b7160e01b600052601160045260246000fd5b80820180821115610a5557610a5561598d565b8082028115828204841417610a5557610a5561598d565b60006001600160a01b038087168352808616602084015250836040830152608060608301526159ff6080830184614322565b9695505050505050565b600060208284031215615a1b57600080fd5b8151610fce816142cb565b60008351615a388184602088016142fe565b835190830190615a4c8183602088016142fe565b01949350505050565b600181815b80851115615a90578160001904821115615a7657615a7661598d565b80851615615a8357918102915b93841c9390800290615a5a565b509250929050565b600082615aa757506001610a55565b81615ab457506000610a55565b8160018114615aca5760028114615ad457615af0565b6001915050610a55565b60ff841115615ae557615ae561598d565b50506001821b610a55565b5060208310610133831016604e8410600b8410161715615b13575081810a610a55565b615b1d8383615a55565b8060001904821115615b3157615b3161598d565b029392505050565b6000610fce8383615a98565b60008060408385031215615b5857600080fd5b8251615b638161499f565b8092505060208084015167ffffffffffffffff811115615b8257600080fd5b8401601f81018613615b9357600080fd5b8051615ba1614845826147bf565b81815260059190911b82018301908381019088831115615bc057600080fd5b928401925b82841015615be7578351615bd881614bed565b82529284019290840190615bc5565b80955050505050509250929050565b600060808284031215615c0857600080fd5b615c106146f9565b8251615c1b8161499f565b81526020830151615c2b8161499f565b60208201526040830151615c3e8161499f565b60408201526060830151615c518161499f565b60608201529392505050565b81810381811115610a5557610a5561598d565b60008085851115615c8057600080fd5b83861115615c8d57600080fd5b5050820193919092039150565b6bffffffffffffffffffffffff198135818116916014851015615cc75780818660140360031b1b83161692505b505092915050565b634e487b7160e01b600052601260045260246000fd5b600082615cf457615cf4615ccf565b500690565b600082615d0857615d08615ccf565b500490565b60006060820185835260206060602085015281865180845260808601915060208801935060005b81811015615d5457845161ffff1683529383019391830191600101615d34565b5050809350505050821515604083015294935050505056fe31323334353637383941424344454647484a4b4c4d4e505152535455565758595a6162636465666768696a6b6d6e6f707172737475767778797aa264697066735822122008c5a9a9176a42798d27c787fcbc8450838feff9f96cde2cb4d14b3095b2849764736f6c63430008170033",
			"devdoc": {
				"kind": "dev",
				"methods": {
					"adjustTiers((uint104,uint32,uint32,uint16,address,bytes32,uint24,bool,bool,bool,bool,bool)[],uint256[])": {
						"details": "Only the contract's owner or an operator with the `ADJUST_TIERS` permission from the owner can adjust the tiers.Any added tiers must adhere to this hook's `JB721TiersHookFlags`.",
						"params": {
							"tierIdsToRemove": "The tiers to remove, as an array of tier IDs.",
							"tiersToAdd": "The tiers to add, as an array of `JB721TierConfig` structs`."
						}
					},
					"afterPayRecordedWith((address,uint256,uint256,(address,uint256,uint256,uint256),(address,uint256,uint256,uint256),uint256,uint256,address,bytes,bytes))": {
						"details": "Reverts if the calling contract is not one of the project's terminals.",
						"params": {
							"context": "The payment context passed in by the terminal."
						}
					},
					"afterRedeemRecordedWith((address,uint256,uint256,uint256,(address,uint256,uint256,uint256),(address,uint256,uint256,uint256),uint256,address,bytes,bytes))": {
						"details": "Reverts if the calling contract is not one of the project's terminals.",
						"params": {
							"context": "The redemption context passed in by the terminal."
						}
					},
					"approve(address,uint256)": {
						"details": "See {IERC721-approve}."
					},
					"balanceOf(address)": {
						"params": {
							"owner": "The address to check the balance of."
						},
						"returns": {
							"balance": "The number of NFTs the address owns across this hook's tiers."
						}
					},
					"beforePayRecordedWith((address,address,(address,uint256,uint256,uint256),uint256,uint256,address,uint256,uint256,bytes))": {
						"details": "Sets this contract as the pay hook. Part of `IJBRulesetDataHook`.",
						"params": {
							"context": "The payment context passed to this contract by the `pay(...)` function."
						},
						"returns": {
							"hookSpecifications": "The amount and data to send to pay hooks (this contract) instead of adding to the terminal's balance.",
							"weight": "The new `weight` to use, overriding the ruleset's `weight`."
						}
					},
					"beforeRedeemRecordedWith((address,address,uint256,uint256,uint256,uint256,(address,uint256,uint256,uint256),bool,uint256,bytes))": {
						"details": "Sets this contract as the redeem hook. Part of `IJBRulesetDataHook`.This function is used for NFT redemptions, and will only be called if the project's ruleset has `useDataHookForRedeem` set to `true`.",
						"params": {
							"context": "The redemption context passed to this contract by the `redeemTokensOf(...)` function."
						},
						"returns": {
							"hookSpecifications": "The amount and data to send to redeem hooks (this contract) instead of returning to the beneficiary.",
							"redeemCount": "The amount of tokens that should be considered redeemed.",
							"redemptionRate": "The redemption rate influencing the reclaim amount.",
							"totalSupply": "The total amount of tokens that are considered to be existing."
						}
					},
					"constructor": {
						"params": {
							"directory": "A directory of terminals and controllers for projects.",
							"permissions": "A contract storing permissions.",
							"trustedForwarder": "The trusted forwarder for the ERC2771Context."
						}
					},
					"firstOwnerOf(uint256)": {
						"details": "This is generally the address which paid for the NFT.",
						"params": {
							"tokenId": "The token ID of the NFT to get the first owner of."
						},
						"returns": {
							"_0": "The address of the NFT's first owner."
						}
					},
					"getApproved(uint256)": {
						"details": "See {IERC721-getApproved}."
					},
					"initialize(uint256,string,string,address,string,address,string,((uint104,uint32,uint32,uint16,address,bytes32,uint24,bool,bool,bool,bool,bool)[],uint32,uint8,address),address,(bool,bool,bool,bool))": {
						"params": {
							"baseUri": "The URI to use as a base for full NFT `tokenUri`s.",
							"contractUri": "A URI where this contract's metadata can be found.",
							"flags": "A set of additional options which dictate how the hook behaves.",
							"name": "The name of the NFT collection.",
							"projectId": "The ID of the project this this hook is associated with.",
							"rulesets": "A contract storing and managing project rulesets.",
							"store": "The contract which stores the NFT's data.",
							"symbol": "The symbol representing the NFT collection.",
							"tiersConfig": "The NFT tiers and pricing context to initialize the hook with. The tiers must be sorted by price (from least to greatest).",
							"tokenUriResolver": "An optional contract responsible for resolving the token URI for each NFT's token ID."
						}
					},
					"isApprovedForAll(address,address)": {
						"details": "See {IERC721-isApprovedForAll}."
					},
					"isTrustedForwarder(address)": {
						"details": "Indicates whether any particular address is the trusted forwarder."
					},
					"mintFor(uint16[],address)": {
						"params": {
							"beneficiary": "The address to mint to.",
							"tierIds": "The IDs of the tiers to mint from."
						},
						"returns": {
							"tokenIds": "The IDs of the newly minted tokens."
						}
					},
					"mintPendingReservesFor((uint256,uint256)[])": {
						"details": "\"Pending\" means that the NFTs have been reserved, but have not been minted yet.",
						"params": {
							"reserveMintConfigs": "Contains information about how many reserved tokens to mint for each tier."
						}
					},
					"mintPendingReservesFor(uint256,uint256)": {
						"details": "\"Pending\" means that the NFTs have been reserved, but have not been minted yet.",
						"params": {
							"count": "The number of reserved NFTs to mint.",
							"tierId": "The ID of the tier to mint reserved NFTs from."
						}
					},
					"name()": {
						"details": "See {IERC721Metadata-name}."
					},
					"ownerOf(uint256)": {
						"details": "See {IERC721-ownerOf}."
					},
					"pricingContext()": {
						"details": "If the `prices` contract is the zero address, this contract only accepts payments in the `currency` token.",
						"returns": {
							"currency": "The currency used for tier prices.",
							"decimals": "The amount of decimals being used in tier prices.",
							"prices": "The prices contract used to resolve the value of payments in currencies other than `currency`."
						}
					},
					"redemptionWeightOf(uint256[],(address,address,uint256,uint256,uint256,uint256,(address,uint256,uint256,uint256),bool,uint256,bytes))": {
						"details": "An NFT's redemption weight is its price.To get their relative redemption weight, divide the result by the `totalRedemptionWeight(...)`.",
						"params": {
							"tokenIds": "The token IDs of the NFTs to get the cumulative redemption weight of."
						},
						"returns": {
							"_0": "weight The redemption weight of the tokenIds."
						}
					},
					"safeTransferFrom(address,address,uint256)": {
						"details": "See {IERC721-safeTransferFrom}."
					},
					"safeTransferFrom(address,address,uint256,bytes)": {
						"details": "See {IERC721-safeTransferFrom}."
					},
					"setApprovalForAll(address,bool)": {
						"details": "See {IERC721-setApprovalForAll}."
					},
					"setMetadata(string,string,address,uint256,bytes32)": {
						"details": "Only this contract's owner can set the metadata.",
						"params": {
							"baseUri": "The new base URI.",
							"contractUri": "The new contract URI.",
							"encodedIPFSTUriTierId": "The ID of the tier to set the encoded IPFS URI of.",
							"encodedIPFSUri": "The encoded IPFS URI to set.",
							"tokenUriResolver": "The new URI resolver."
						}
					},
					"setPermissionId(uint8)": {
						"params": {
							"permissionId": "The ID of the permission to use for `onlyOwner`."
						}
					},
					"supportsInterface(bytes4)": {
						"details": "See {IERC165-supportsInterface}.",
						"params": {
							"interfaceId": "The ID of the interface to check for adherence to."
						}
					},
					"symbol()": {
						"details": "See {IERC721Metadata-symbol}."
					},
					"tokenURI(uint256)": {
						"details": "Defers to the `tokenUriResolver` if it is set. Otherwise, use the `tokenUri` corresponding with the NFT's tier.",
						"params": {
							"tokenId": "The token ID of the NFT to get the metadata URI of."
						},
						"returns": {
							"_0": "The token URI from the `tokenUriResolver` if it is set. If it isn't set, the token URI for the NFT's tier."
						}
					},
					"totalRedemptionWeight((address,address,uint256,uint256,uint256,uint256,(address,uint256,uint256,uint256),bool,uint256,bytes))": {
						"details": "An NFT's redemption weight is its price.",
						"returns": {
							"_0": "weight The total redemption weight."
						}
					},
					"transferFrom(address,address,uint256)": {
						"details": "See {IERC721-transferFrom}."
					},
					"transferOwnership(address)": {
						"params": {
							"newOwner": "The address that should receive ownership of this contract."
						}
					},
					"transferOwnershipToProject(uint256)": {
						"details": "The `projectId` must fit within a `uint88`.",
						"params": {
							"projectId": "The ID of the project that should receive ownership of this contract."
						}
					},
					"trustedForwarder()": {
						"details": "Returns the address of the trusted forwarder."
					}
				},
				"version": 1
			},
			"userdoc": {
				"kind": "user",
				"methods": {
					"DIRECTORY()": {
						"notice": "The directory of terminals and controllers for projects."
					},
					"METADATA_ID_TARGET()": {
						"notice": "The ID used when parsing metadata."
					},
					"PERMISSIONS()": {
						"notice": "A contract storing permissions."
					},
					"PROJECTS()": {
						"notice": "Mints ERC-721s that represent project ownership and transfers."
					},
					"RULESETS()": {
						"notice": "The contract storing and managing project rulesets."
					},
					"STORE()": {
						"notice": "The contract that stores and manages data for this contract's NFTs."
					},
					"adjustTiers((uint104,uint32,uint32,uint16,address,bytes32,uint24,bool,bool,bool,bool,bool)[],uint256[])": {
						"notice": "Add or delete tiers."
					},
					"afterPayRecordedWith((address,uint256,uint256,(address,uint256,uint256,uint256),(address,uint256,uint256,uint256),uint256,uint256,address,bytes,bytes))": {
						"notice": "Mints one or more NFTs to the `context.benficiary` upon payment if conditions are met. Part of `IJBPayHook`."
					},
					"afterRedeemRecordedWith((address,uint256,uint256,uint256,(address,uint256,uint256,uint256),(address,uint256,uint256,uint256),uint256,address,bytes,bytes))": {
						"notice": "Burns the specified NFTs upon token holder redemption, reclaiming funds from the project's balance for `context.beneficiary`. Part of `IJBRedeemHook`."
					},
					"balanceOf(address)": {
						"notice": "The total number of this hook's NFTs that an address holds (from all tiers)."
					},
					"baseURI()": {
						"notice": "The base URI for the NFT `tokenUris`."
					},
					"beforePayRecordedWith((address,address,(address,uint256,uint256,uint256),uint256,uint256,address,uint256,uint256,bytes))": {
						"notice": "The data calculated before a payment is recorded in the terminal store. This data is provided to the terminal's `pay(...)` transaction."
					},
					"beforeRedeemRecordedWith((address,address,uint256,uint256,uint256,uint256,(address,uint256,uint256,uint256),bool,uint256,bytes))": {
						"notice": "The data calculated before a redemption is recorded in the terminal store. This data is provided to the terminal's `redeemTokensOf(...)` transaction."
					},
					"contractURI()": {
						"notice": "This contract's metadata URI."
					},
					"firstOwnerOf(uint256)": {
						"notice": "The first owner of an NFT."
					},
					"hasMintPermissionFor(uint256,address)": {
						"notice": "Required by the IJBRulesetDataHook interfaces. Return false to not leak any permissions."
					},
					"initialize(uint256,string,string,address,string,address,string,((uint104,uint32,uint32,uint16,address,bytes32,uint24,bool,bool,bool,bool,bool)[],uint32,uint8,address),address,(bool,bool,bool,bool))": {
						"notice": "Initializes a cloned copy of the original `JB721Hook` contract."
					},
					"jbOwner()": {
						"notice": "This contract's owner information."
					},
					"mintFor(uint16[],address)": {
						"notice": "Manually mint NFTs from the provided tiers ."
					},
					"mintPendingReservesFor((uint256,uint256)[])": {
						"notice": "Mint pending reserved NFTs based on the provided information."
					},
					"mintPendingReservesFor(uint256,uint256)": {
						"notice": "Mint reserved pending reserved NFTs within the provided tier."
					},
					"owner()": {
						"notice": "Returns the owner's address based on this contract's `JBOwner` owner information."
					},
					"payCreditsOf(address)": {
						"notice": "If an address pays more than the price of the NFT they received, the extra amount is stored as credits which can be redeemed to mint NFTs."
					},
					"pricingContext()": {
						"notice": "Context for the pricing of this hook's tiers."
					},
					"projectId()": {
						"notice": "The ID of the project that this contract is associated with."
					},
					"redemptionWeightOf(uint256[],(address,address,uint256,uint256,uint256,uint256,(address,uint256,uint256,uint256),bool,uint256,bytes))": {
						"notice": "The combined redemption weight of the NFTs with the specified token IDs."
					},
					"renounceOwnership()": {
						"notice": "Gives up ownership of this contract, making it impossible to call `onlyOwner`/`_checkOwner` functions. Can only be called by the current owner."
					},
					"setMetadata(string,string,address,uint256,bytes32)": {
						"notice": "Update this hook's URI metadata properties."
					},
					"setPermissionId(uint8)": {
						"notice": "Sets the permission ID which, when granted from the owner, allows other addresses to perform operations on their behalf."
					},
					"supportsInterface(bytes4)": {
						"notice": "Indicates if this contract adheres to the specified interface."
					},
					"tokenURI(uint256)": {
						"notice": "The metadata URI of the NFT with the specified token ID."
					},
					"totalRedemptionWeight((address,address,uint256,uint256,uint256,uint256,(address,uint256,uint256,uint256),bool,uint256,bytes))": {
						"notice": "The combined redemption weight of all outstanding NFTs."
					},
					"transferOwnership(address)": {
						"notice": "Transfers ownership of this contract to a new account (the `newOwner`). Can only be called by the current owner."
					},
					"transferOwnershipToProject(uint256)": {
						"notice": "Transfer ownership of this contract to a new Juicebox project."
					}
				},
				"version": 1
			},
			"gitCommit": "b0414d6aafe0003deef69de3f798c251a92b5b1f",
			"sourceName": "src/JB721TiersHook.sol",
			"chainId": "11155111",
			"linkReferences": {},
			"deployedLinkReferences": {}
		}
	]
}