{
	"_format": "sphinx-sol-ct-artifact-1",
	"merkleRoot": "0x4b695c91d82e3855e155ff4f3d0f3a3486af85b33be7b121e4ac41df8a3dd111",
	"contractName": "JB721TiersHookProjectDeployer",
	"address": "0x36811bD693492afCd56188A1e967145C2eC30231",
	"abi": [
		{
			"type": "constructor",
			"inputs": [
				{
					"name": "directory",
					"type": "address",
					"internalType": "contract IJBDirectory"
				},
				{
					"name": "permissions",
					"type": "address",
					"internalType": "contract IJBPermissions"
				},
				{
					"name": "hookDeployer",
					"type": "address",
					"internalType": "contract IJB721TiersHookDeployer"
				}
			],
			"stateMutability": "nonpayable"
		},
		{
			"type": "function",
			"name": "DIRECTORY",
			"inputs": [],
			"outputs": [
				{
					"name": "",
					"type": "address",
					"internalType": "contract IJBDirectory"
				}
			],
			"stateMutability": "view"
		},
		{
			"type": "function",
			"name": "HOOK_DEPLOYER",
			"inputs": [],
			"outputs": [
				{
					"name": "",
					"type": "address",
					"internalType": "contract IJB721TiersHookDeployer"
				}
			],
			"stateMutability": "view"
		},
		{
			"type": "function",
			"name": "PERMISSIONS",
			"inputs": [],
			"outputs": [
				{
					"name": "",
					"type": "address",
					"internalType": "contract IJBPermissions"
				}
			],
			"stateMutability": "view"
		},
		{
			"type": "function",
			"name": "launchProjectFor",
			"inputs": [
				{
					"name": "owner",
					"type": "address",
					"internalType": "address"
				},
				{
					"name": "deployTiersHookConfig",
					"type": "tuple",
					"internalType": "struct JBDeploy721TiersHookConfig",
					"components": [
						{
							"name": "name",
							"type": "string",
							"internalType": "string"
						},
						{
							"name": "symbol",
							"type": "string",
							"internalType": "string"
						},
						{
							"name": "rulesets",
							"type": "address",
							"internalType": "contract IJBRulesets"
						},
						{
							"name": "baseUri",
							"type": "string",
							"internalType": "string"
						},
						{
							"name": "tokenUriResolver",
							"type": "address",
							"internalType": "contract IJB721TokenUriResolver"
						},
						{
							"name": "contractUri",
							"type": "string",
							"internalType": "string"
						},
						{
							"name": "tiersConfig",
							"type": "tuple",
							"internalType": "struct JB721InitTiersConfig",
							"components": [
								{
									"name": "tiers",
									"type": "tuple[]",
									"internalType": "struct JB721TierConfig[]",
									"components": [
										{
											"name": "price",
											"type": "uint104",
											"internalType": "uint104"
										},
										{
											"name": "initialSupply",
											"type": "uint32",
											"internalType": "uint32"
										},
										{
											"name": "votingUnits",
											"type": "uint32",
											"internalType": "uint32"
										},
										{
											"name": "reserveFrequency",
											"type": "uint16",
											"internalType": "uint16"
										},
										{
											"name": "reserveBeneficiary",
											"type": "address",
											"internalType": "address"
										},
										{
											"name": "encodedIPFSUri",
											"type": "bytes32",
											"internalType": "bytes32"
										},
										{
											"name": "category",
											"type": "uint24",
											"internalType": "uint24"
										},
										{
											"name": "allowOwnerMint",
											"type": "bool",
											"internalType": "bool"
										},
										{
											"name": "useReserveBeneficiaryAsDefault",
											"type": "bool",
											"internalType": "bool"
										},
										{
											"name": "transfersPausable",
											"type": "bool",
											"internalType": "bool"
										},
										{
											"name": "useVotingUnits",
											"type": "bool",
											"internalType": "bool"
										},
										{
											"name": "cannotBeRemoved",
											"type": "bool",
											"internalType": "bool"
										}
									]
								},
								{
									"name": "currency",
									"type": "uint32",
									"internalType": "uint32"
								},
								{
									"name": "decimals",
									"type": "uint8",
									"internalType": "uint8"
								},
								{
									"name": "prices",
									"type": "address",
									"internalType": "contract IJBPrices"
								}
							]
						},
						{
							"name": "reserveBeneficiary",
							"type": "address",
							"internalType": "address"
						},
						{
							"name": "flags",
							"type": "tuple",
							"internalType": "struct JB721TiersHookFlags",
							"components": [
								{
									"name": "noNewTiersWithReserves",
									"type": "bool",
									"internalType": "bool"
								},
								{
									"name": "noNewTiersWithVotes",
									"type": "bool",
									"internalType": "bool"
								},
								{
									"name": "noNewTiersWithOwnerMinting",
									"type": "bool",
									"internalType": "bool"
								},
								{
									"name": "preventOverspending",
									"type": "bool",
									"internalType": "bool"
								}
							]
						}
					]
				},
				{
					"name": "launchProjectConfig",
					"type": "tuple",
					"internalType": "struct JBLaunchProjectConfig",
					"components": [
						{
							"name": "projectUri",
							"type": "string",
							"internalType": "string"
						},
						{
							"name": "rulesetConfigurations",
							"type": "tuple[]",
							"internalType": "struct JBPayDataHookRulesetConfig[]",
							"components": [
								{
									"name": "mustStartAtOrAfter",
									"type": "uint256",
									"internalType": "uint256"
								},
								{
									"name": "duration",
									"type": "uint256",
									"internalType": "uint256"
								},
								{
									"name": "weight",
									"type": "uint256",
									"internalType": "uint256"
								},
								{
									"name": "decayRate",
									"type": "uint256",
									"internalType": "uint256"
								},
								{
									"name": "approvalHook",
									"type": "address",
									"internalType": "contract IJBRulesetApprovalHook"
								},
								{
									"name": "metadata",
									"type": "tuple",
									"internalType": "struct JBPayDataHookRulesetMetadata",
									"components": [
										{
											"name": "reservedRate",
											"type": "uint256",
											"internalType": "uint256"
										},
										{
											"name": "redemptionRate",
											"type": "uint256",
											"internalType": "uint256"
										},
										{
											"name": "baseCurrency",
											"type": "uint256",
											"internalType": "uint256"
										},
										{
											"name": "pausePay",
											"type": "bool",
											"internalType": "bool"
										},
										{
											"name": "pauseCreditTransfers",
											"type": "bool",
											"internalType": "bool"
										},
										{
											"name": "allowOwnerMinting",
											"type": "bool",
											"internalType": "bool"
										},
										{
											"name": "allowTerminalMigration",
											"type": "bool",
											"internalType": "bool"
										},
										{
											"name": "allowSetTerminals",
											"type": "bool",
											"internalType": "bool"
										},
										{
											"name": "allowControllerMigration",
											"type": "bool",
											"internalType": "bool"
										},
										{
											"name": "allowSetController",
											"type": "bool",
											"internalType": "bool"
										},
										{
											"name": "holdFees",
											"type": "bool",
											"internalType": "bool"
										},
										{
											"name": "useTotalSurplusForRedemptions",
											"type": "bool",
											"internalType": "bool"
										},
										{
											"name": "useDataHookForRedeem",
											"type": "bool",
											"internalType": "bool"
										},
										{
											"name": "metadata",
											"type": "uint256",
											"internalType": "uint256"
										}
									]
								},
								{
									"name": "splitGroups",
									"type": "tuple[]",
									"internalType": "struct JBSplitGroup[]",
									"components": [
										{
											"name": "groupId",
											"type": "uint256",
											"internalType": "uint256"
										},
										{
											"name": "splits",
											"type": "tuple[]",
											"internalType": "struct JBSplit[]",
											"components": [
												{
													"name": "preferAddToBalance",
													"type": "bool",
													"internalType": "bool"
												},
												{
													"name": "percent",
													"type": "uint256",
													"internalType": "uint256"
												},
												{
													"name": "projectId",
													"type": "uint256",
													"internalType": "uint256"
												},
												{
													"name": "beneficiary",
													"type": "address",
													"internalType": "address payable"
												},
												{
													"name": "lockedUntil",
													"type": "uint256",
													"internalType": "uint256"
												},
												{
													"name": "hook",
													"type": "address",
													"internalType": "contract IJBSplitHook"
												}
											]
										}
									]
								},
								{
									"name": "fundAccessLimitGroups",
									"type": "tuple[]",
									"internalType": "struct JBFundAccessLimitGroup[]",
									"components": [
										{
											"name": "terminal",
											"type": "address",
											"internalType": "address"
										},
										{
											"name": "token",
											"type": "address",
											"internalType": "address"
										},
										{
											"name": "payoutLimits",
											"type": "tuple[]",
											"internalType": "struct JBCurrencyAmount[]",
											"components": [
												{
													"name": "amount",
													"type": "uint256",
													"internalType": "uint256"
												},
												{
													"name": "currency",
													"type": "uint256",
													"internalType": "uint256"
												}
											]
										},
										{
											"name": "surplusAllowances",
											"type": "tuple[]",
											"internalType": "struct JBCurrencyAmount[]",
											"components": [
												{
													"name": "amount",
													"type": "uint256",
													"internalType": "uint256"
												},
												{
													"name": "currency",
													"type": "uint256",
													"internalType": "uint256"
												}
											]
										}
									]
								}
							]
						},
						{
							"name": "terminalConfigurations",
							"type": "tuple[]",
							"internalType": "struct JBTerminalConfig[]",
							"components": [
								{
									"name": "terminal",
									"type": "address",
									"internalType": "contract IJBTerminal"
								},
								{
									"name": "tokensToAccept",
									"type": "address[]",
									"internalType": "address[]"
								}
							]
						},
						{
							"name": "memo",
							"type": "string",
							"internalType": "string"
						}
					]
				},
				{
					"name": "controller",
					"type": "address",
					"internalType": "contract IJBController"
				}
			],
			"outputs": [
				{
					"name": "projectId",
					"type": "uint256",
					"internalType": "uint256"
				}
			],
			"stateMutability": "nonpayable"
		},
		{
			"type": "function",
			"name": "launchRulesetsFor",
			"inputs": [
				{
					"name": "projectId",
					"type": "uint256",
					"internalType": "uint256"
				},
				{
					"name": "deployTiersHookConfig",
					"type": "tuple",
					"internalType": "struct JBDeploy721TiersHookConfig",
					"components": [
						{
							"name": "name",
							"type": "string",
							"internalType": "string"
						},
						{
							"name": "symbol",
							"type": "string",
							"internalType": "string"
						},
						{
							"name": "rulesets",
							"type": "address",
							"internalType": "contract IJBRulesets"
						},
						{
							"name": "baseUri",
							"type": "string",
							"internalType": "string"
						},
						{
							"name": "tokenUriResolver",
							"type": "address",
							"internalType": "contract IJB721TokenUriResolver"
						},
						{
							"name": "contractUri",
							"type": "string",
							"internalType": "string"
						},
						{
							"name": "tiersConfig",
							"type": "tuple",
							"internalType": "struct JB721InitTiersConfig",
							"components": [
								{
									"name": "tiers",
									"type": "tuple[]",
									"internalType": "struct JB721TierConfig[]",
									"components": [
										{
											"name": "price",
											"type": "uint104",
											"internalType": "uint104"
										},
										{
											"name": "initialSupply",
											"type": "uint32",
											"internalType": "uint32"
										},
										{
											"name": "votingUnits",
											"type": "uint32",
											"internalType": "uint32"
										},
										{
											"name": "reserveFrequency",
											"type": "uint16",
											"internalType": "uint16"
										},
										{
											"name": "reserveBeneficiary",
											"type": "address",
											"internalType": "address"
										},
										{
											"name": "encodedIPFSUri",
											"type": "bytes32",
											"internalType": "bytes32"
										},
										{
											"name": "category",
											"type": "uint24",
											"internalType": "uint24"
										},
										{
											"name": "allowOwnerMint",
											"type": "bool",
											"internalType": "bool"
										},
										{
											"name": "useReserveBeneficiaryAsDefault",
											"type": "bool",
											"internalType": "bool"
										},
										{
											"name": "transfersPausable",
											"type": "bool",
											"internalType": "bool"
										},
										{
											"name": "useVotingUnits",
											"type": "bool",
											"internalType": "bool"
										},
										{
											"name": "cannotBeRemoved",
											"type": "bool",
											"internalType": "bool"
										}
									]
								},
								{
									"name": "currency",
									"type": "uint32",
									"internalType": "uint32"
								},
								{
									"name": "decimals",
									"type": "uint8",
									"internalType": "uint8"
								},
								{
									"name": "prices",
									"type": "address",
									"internalType": "contract IJBPrices"
								}
							]
						},
						{
							"name": "reserveBeneficiary",
							"type": "address",
							"internalType": "address"
						},
						{
							"name": "flags",
							"type": "tuple",
							"internalType": "struct JB721TiersHookFlags",
							"components": [
								{
									"name": "noNewTiersWithReserves",
									"type": "bool",
									"internalType": "bool"
								},
								{
									"name": "noNewTiersWithVotes",
									"type": "bool",
									"internalType": "bool"
								},
								{
									"name": "noNewTiersWithOwnerMinting",
									"type": "bool",
									"internalType": "bool"
								},
								{
									"name": "preventOverspending",
									"type": "bool",
									"internalType": "bool"
								}
							]
						}
					]
				},
				{
					"name": "launchRulesetsConfig",
					"type": "tuple",
					"internalType": "struct JBLaunchRulesetsConfig",
					"components": [
						{
							"name": "projectId",
							"type": "uint256",
							"internalType": "uint256"
						},
						{
							"name": "rulesetConfigurations",
							"type": "tuple[]",
							"internalType": "struct JBPayDataHookRulesetConfig[]",
							"components": [
								{
									"name": "mustStartAtOrAfter",
									"type": "uint256",
									"internalType": "uint256"
								},
								{
									"name": "duration",
									"type": "uint256",
									"internalType": "uint256"
								},
								{
									"name": "weight",
									"type": "uint256",
									"internalType": "uint256"
								},
								{
									"name": "decayRate",
									"type": "uint256",
									"internalType": "uint256"
								},
								{
									"name": "approvalHook",
									"type": "address",
									"internalType": "contract IJBRulesetApprovalHook"
								},
								{
									"name": "metadata",
									"type": "tuple",
									"internalType": "struct JBPayDataHookRulesetMetadata",
									"components": [
										{
											"name": "reservedRate",
											"type": "uint256",
											"internalType": "uint256"
										},
										{
											"name": "redemptionRate",
											"type": "uint256",
											"internalType": "uint256"
										},
										{
											"name": "baseCurrency",
											"type": "uint256",
											"internalType": "uint256"
										},
										{
											"name": "pausePay",
											"type": "bool",
											"internalType": "bool"
										},
										{
											"name": "pauseCreditTransfers",
											"type": "bool",
											"internalType": "bool"
										},
										{
											"name": "allowOwnerMinting",
											"type": "bool",
											"internalType": "bool"
										},
										{
											"name": "allowTerminalMigration",
											"type": "bool",
											"internalType": "bool"
										},
										{
											"name": "allowSetTerminals",
											"type": "bool",
											"internalType": "bool"
										},
										{
											"name": "allowControllerMigration",
											"type": "bool",
											"internalType": "bool"
										},
										{
											"name": "allowSetController",
											"type": "bool",
											"internalType": "bool"
										},
										{
											"name": "holdFees",
											"type": "bool",
											"internalType": "bool"
										},
										{
											"name": "useTotalSurplusForRedemptions",
											"type": "bool",
											"internalType": "bool"
										},
										{
											"name": "useDataHookForRedeem",
											"type": "bool",
											"internalType": "bool"
										},
										{
											"name": "metadata",
											"type": "uint256",
											"internalType": "uint256"
										}
									]
								},
								{
									"name": "splitGroups",
									"type": "tuple[]",
									"internalType": "struct JBSplitGroup[]",
									"components": [
										{
											"name": "groupId",
											"type": "uint256",
											"internalType": "uint256"
										},
										{
											"name": "splits",
											"type": "tuple[]",
											"internalType": "struct JBSplit[]",
											"components": [
												{
													"name": "preferAddToBalance",
													"type": "bool",
													"internalType": "bool"
												},
												{
													"name": "percent",
													"type": "uint256",
													"internalType": "uint256"
												},
												{
													"name": "projectId",
													"type": "uint256",
													"internalType": "uint256"
												},
												{
													"name": "beneficiary",
													"type": "address",
													"internalType": "address payable"
												},
												{
													"name": "lockedUntil",
													"type": "uint256",
													"internalType": "uint256"
												},
												{
													"name": "hook",
													"type": "address",
													"internalType": "contract IJBSplitHook"
												}
											]
										}
									]
								},
								{
									"name": "fundAccessLimitGroups",
									"type": "tuple[]",
									"internalType": "struct JBFundAccessLimitGroup[]",
									"components": [
										{
											"name": "terminal",
											"type": "address",
											"internalType": "address"
										},
										{
											"name": "token",
											"type": "address",
											"internalType": "address"
										},
										{
											"name": "payoutLimits",
											"type": "tuple[]",
											"internalType": "struct JBCurrencyAmount[]",
											"components": [
												{
													"name": "amount",
													"type": "uint256",
													"internalType": "uint256"
												},
												{
													"name": "currency",
													"type": "uint256",
													"internalType": "uint256"
												}
											]
										},
										{
											"name": "surplusAllowances",
											"type": "tuple[]",
											"internalType": "struct JBCurrencyAmount[]",
											"components": [
												{
													"name": "amount",
													"type": "uint256",
													"internalType": "uint256"
												},
												{
													"name": "currency",
													"type": "uint256",
													"internalType": "uint256"
												}
											]
										}
									]
								}
							]
						},
						{
							"name": "terminalConfigurations",
							"type": "tuple[]",
							"internalType": "struct JBTerminalConfig[]",
							"components": [
								{
									"name": "terminal",
									"type": "address",
									"internalType": "contract IJBTerminal"
								},
								{
									"name": "tokensToAccept",
									"type": "address[]",
									"internalType": "address[]"
								}
							]
						},
						{
							"name": "memo",
							"type": "string",
							"internalType": "string"
						}
					]
				},
				{
					"name": "controller",
					"type": "address",
					"internalType": "contract IJBController"
				}
			],
			"outputs": [
				{
					"name": "rulesetId",
					"type": "uint256",
					"internalType": "uint256"
				}
			],
			"stateMutability": "nonpayable"
		},
		{
			"type": "function",
			"name": "queueRulesetsOf",
			"inputs": [
				{
					"name": "projectId",
					"type": "uint256",
					"internalType": "uint256"
				},
				{
					"name": "deployTiersHookConfig",
					"type": "tuple",
					"internalType": "struct JBDeploy721TiersHookConfig",
					"components": [
						{
							"name": "name",
							"type": "string",
							"internalType": "string"
						},
						{
							"name": "symbol",
							"type": "string",
							"internalType": "string"
						},
						{
							"name": "rulesets",
							"type": "address",
							"internalType": "contract IJBRulesets"
						},
						{
							"name": "baseUri",
							"type": "string",
							"internalType": "string"
						},
						{
							"name": "tokenUriResolver",
							"type": "address",
							"internalType": "contract IJB721TokenUriResolver"
						},
						{
							"name": "contractUri",
							"type": "string",
							"internalType": "string"
						},
						{
							"name": "tiersConfig",
							"type": "tuple",
							"internalType": "struct JB721InitTiersConfig",
							"components": [
								{
									"name": "tiers",
									"type": "tuple[]",
									"internalType": "struct JB721TierConfig[]",
									"components": [
										{
											"name": "price",
											"type": "uint104",
											"internalType": "uint104"
										},
										{
											"name": "initialSupply",
											"type": "uint32",
											"internalType": "uint32"
										},
										{
											"name": "votingUnits",
											"type": "uint32",
											"internalType": "uint32"
										},
										{
											"name": "reserveFrequency",
											"type": "uint16",
											"internalType": "uint16"
										},
										{
											"name": "reserveBeneficiary",
											"type": "address",
											"internalType": "address"
										},
										{
											"name": "encodedIPFSUri",
											"type": "bytes32",
											"internalType": "bytes32"
										},
										{
											"name": "category",
											"type": "uint24",
											"internalType": "uint24"
										},
										{
											"name": "allowOwnerMint",
											"type": "bool",
											"internalType": "bool"
										},
										{
											"name": "useReserveBeneficiaryAsDefault",
											"type": "bool",
											"internalType": "bool"
										},
										{
											"name": "transfersPausable",
											"type": "bool",
											"internalType": "bool"
										},
										{
											"name": "useVotingUnits",
											"type": "bool",
											"internalType": "bool"
										},
										{
											"name": "cannotBeRemoved",
											"type": "bool",
											"internalType": "bool"
										}
									]
								},
								{
									"name": "currency",
									"type": "uint32",
									"internalType": "uint32"
								},
								{
									"name": "decimals",
									"type": "uint8",
									"internalType": "uint8"
								},
								{
									"name": "prices",
									"type": "address",
									"internalType": "contract IJBPrices"
								}
							]
						},
						{
							"name": "reserveBeneficiary",
							"type": "address",
							"internalType": "address"
						},
						{
							"name": "flags",
							"type": "tuple",
							"internalType": "struct JB721TiersHookFlags",
							"components": [
								{
									"name": "noNewTiersWithReserves",
									"type": "bool",
									"internalType": "bool"
								},
								{
									"name": "noNewTiersWithVotes",
									"type": "bool",
									"internalType": "bool"
								},
								{
									"name": "noNewTiersWithOwnerMinting",
									"type": "bool",
									"internalType": "bool"
								},
								{
									"name": "preventOverspending",
									"type": "bool",
									"internalType": "bool"
								}
							]
						}
					]
				},
				{
					"name": "queueRulesetsConfig",
					"type": "tuple",
					"internalType": "struct JBQueueRulesetsConfig",
					"components": [
						{
							"name": "projectId",
							"type": "uint256",
							"internalType": "uint256"
						},
						{
							"name": "rulesetConfigurations",
							"type": "tuple[]",
							"internalType": "struct JBPayDataHookRulesetConfig[]",
							"components": [
								{
									"name": "mustStartAtOrAfter",
									"type": "uint256",
									"internalType": "uint256"
								},
								{
									"name": "duration",
									"type": "uint256",
									"internalType": "uint256"
								},
								{
									"name": "weight",
									"type": "uint256",
									"internalType": "uint256"
								},
								{
									"name": "decayRate",
									"type": "uint256",
									"internalType": "uint256"
								},
								{
									"name": "approvalHook",
									"type": "address",
									"internalType": "contract IJBRulesetApprovalHook"
								},
								{
									"name": "metadata",
									"type": "tuple",
									"internalType": "struct JBPayDataHookRulesetMetadata",
									"components": [
										{
											"name": "reservedRate",
											"type": "uint256",
											"internalType": "uint256"
										},
										{
											"name": "redemptionRate",
											"type": "uint256",
											"internalType": "uint256"
										},
										{
											"name": "baseCurrency",
											"type": "uint256",
											"internalType": "uint256"
										},
										{
											"name": "pausePay",
											"type": "bool",
											"internalType": "bool"
										},
										{
											"name": "pauseCreditTransfers",
											"type": "bool",
											"internalType": "bool"
										},
										{
											"name": "allowOwnerMinting",
											"type": "bool",
											"internalType": "bool"
										},
										{
											"name": "allowTerminalMigration",
											"type": "bool",
											"internalType": "bool"
										},
										{
											"name": "allowSetTerminals",
											"type": "bool",
											"internalType": "bool"
										},
										{
											"name": "allowControllerMigration",
											"type": "bool",
											"internalType": "bool"
										},
										{
											"name": "allowSetController",
											"type": "bool",
											"internalType": "bool"
										},
										{
											"name": "holdFees",
											"type": "bool",
											"internalType": "bool"
										},
										{
											"name": "useTotalSurplusForRedemptions",
											"type": "bool",
											"internalType": "bool"
										},
										{
											"name": "useDataHookForRedeem",
											"type": "bool",
											"internalType": "bool"
										},
										{
											"name": "metadata",
											"type": "uint256",
											"internalType": "uint256"
										}
									]
								},
								{
									"name": "splitGroups",
									"type": "tuple[]",
									"internalType": "struct JBSplitGroup[]",
									"components": [
										{
											"name": "groupId",
											"type": "uint256",
											"internalType": "uint256"
										},
										{
											"name": "splits",
											"type": "tuple[]",
											"internalType": "struct JBSplit[]",
											"components": [
												{
													"name": "preferAddToBalance",
													"type": "bool",
													"internalType": "bool"
												},
												{
													"name": "percent",
													"type": "uint256",
													"internalType": "uint256"
												},
												{
													"name": "projectId",
													"type": "uint256",
													"internalType": "uint256"
												},
												{
													"name": "beneficiary",
													"type": "address",
													"internalType": "address payable"
												},
												{
													"name": "lockedUntil",
													"type": "uint256",
													"internalType": "uint256"
												},
												{
													"name": "hook",
													"type": "address",
													"internalType": "contract IJBSplitHook"
												}
											]
										}
									]
								},
								{
									"name": "fundAccessLimitGroups",
									"type": "tuple[]",
									"internalType": "struct JBFundAccessLimitGroup[]",
									"components": [
										{
											"name": "terminal",
											"type": "address",
											"internalType": "address"
										},
										{
											"name": "token",
											"type": "address",
											"internalType": "address"
										},
										{
											"name": "payoutLimits",
											"type": "tuple[]",
											"internalType": "struct JBCurrencyAmount[]",
											"components": [
												{
													"name": "amount",
													"type": "uint256",
													"internalType": "uint256"
												},
												{
													"name": "currency",
													"type": "uint256",
													"internalType": "uint256"
												}
											]
										},
										{
											"name": "surplusAllowances",
											"type": "tuple[]",
											"internalType": "struct JBCurrencyAmount[]",
											"components": [
												{
													"name": "amount",
													"type": "uint256",
													"internalType": "uint256"
												},
												{
													"name": "currency",
													"type": "uint256",
													"internalType": "uint256"
												}
											]
										}
									]
								}
							]
						},
						{
							"name": "memo",
							"type": "string",
							"internalType": "string"
						}
					]
				},
				{
					"name": "controller",
					"type": "address",
					"internalType": "contract IJBController"
				}
			],
			"outputs": [
				{
					"name": "rulesetId",
					"type": "uint256",
					"internalType": "uint256"
				}
			],
			"stateMutability": "nonpayable"
		},
		{
			"type": "error",
			"name": "UNAUTHORIZED",
			"inputs": []
		}
	],
	"solcInputHash": "768efbfbe22ac68c3991114711630fa8",
	"args": [
		"0xc9cb7a0BAB7569b5B6De26A679D107D4D412B349",
		"0xaDa1E1EE4576Da063EAD17d1ACf49254FA881F0E",
		"0xF97086E4CeA8D11FCD64cb2E5dDE0Ab7588f5F01"
	],
	"bytecode": "0x60e06040523480156200001157600080fd5b50604051620029333803806200293383398101604081905262000034916200006b565b6001600160a01b0391821660805291811660a0521660c052620000bf565b6001600160a01b03811681146200006857600080fd5b50565b6000806000606084860312156200008157600080fd5b83516200008e8162000052565b6020850151909350620000a18162000052565b6040850151909250620000b48162000052565b809150509250925092565b60805160a05160c0516128156200011e6000396000818160f4015281816102460152818161045d01526105c701526000818160a2015281816101540152818161034d015261055101526000818161012e01526109d901526128156000f3fe608060405234801561001057600080fd5b50600436106100725760003560e01c8063abf8c5c811610050578063abf8c5c8146100ef578063adcafa2f14610116578063f434c9141461012957600080fd5b80633f839bc61461007757806388bc2ef31461009d5780638eb69a9e146100dc575b600080fd5b61008a610085366004611d59565b610150565b6040519081526020015b60405180910390f35b6100c47f000000000000000000000000000000000000000000000000000000000000000081565b6040516001600160a01b039091168152602001610094565b61008a6100ea366004611e7c565b610346565b6100c47f000000000000000000000000000000000000000000000000000000000000000081565b61008a610124366004611f05565b61054a565b6100c47f000000000000000000000000000000000000000000000000000000000000000081565b60007f00000000000000000000000000000000000000000000000000000000000000006001600160a01b031663293c49996040518163ffffffff1660e01b8152600401602060405180830381865afa1580156101b0573d6000803e3d6000fd5b505050506040513d601f19601f820116820180604052508101906101d49190611fd5565b6001600160a01b03166306661abd6040518163ffffffff1660e01b8152600401602060405180830381865afa158015610211573d6000803e3d6000fd5b505050506040513d601f19601f820116820180604052508101906102359190611ff9565b610240906001612012565b905060007f00000000000000000000000000000000000000000000000000000000000000006001600160a01b0316632230819f83876040518363ffffffff1660e01b815260040161029292919061219f565b6020604051808303816000875af11580156102b1573d6000803e3d6000fd5b505050506040513d601f19601f820116820180604052508101906102d59190611fd5565b90506102e3868583866106aa565b6040516351106b4b60e11b8152600481018390526001600160a01b0382169063a220d69690602401600060405180830381600087803b15801561032557600080fd5b505af1158015610339573d6000803e3d6000fd5b5050505050949350505050565b60006104437f00000000000000000000000000000000000000000000000000000000000000006001600160a01b031663293c49996040518163ffffffff1660e01b8152600401602060405180830381865afa1580156103a9573d6000803e3d6000fd5b505050506040513d601f19601f820116820180604052508101906103cd9190611fd5565b6001600160a01b0316636352211e876040518263ffffffff1660e01b81526004016103fa91815260200190565b602060405180830381865afa158015610417573d6000803e3d6000fd5b505050506040513d601f19601f8201168201806040525081019061043b9190611fd5565b866002610968565b604051632230819f60e01b81526000906001600160a01b037f00000000000000000000000000000000000000000000000000000000000000001690632230819f90610494908990899060040161219f565b6020604051808303816000875af11580156104b3573d6000803e3d6000fd5b505050506040513d601f19601f820116820180604052508101906104d79190611fd5565b6040516351106b4b60e11b8152600481018890529091506001600160a01b0382169063a220d69690602401600060405180830381600087803b15801561051c57600080fd5b505af1158015610530573d6000803e3d6000fd5b5050505061054086858386610a83565b9695505050505050565b60006105ad7f00000000000000000000000000000000000000000000000000000000000000006001600160a01b031663293c49996040518163ffffffff1660e01b8152600401602060405180830381865afa1580156103a9573d6000803e3d6000fd5b604051632230819f60e01b81526000906001600160a01b037f00000000000000000000000000000000000000000000000000000000000000001690632230819f906105fe908990899060040161219f565b6020604051808303816000875af115801561061d573d6000803e3d6000fd5b505050506040513d601f19601f820116820180604052508101906106419190611fd5565b6040516351106b4b60e11b8152600481018890529091506001600160a01b0382169063a220d69690602401600060405180830381600087803b15801561068657600080fd5b505af115801561069a573d6000803e3d6000fd5b5050505061054086858386610d43565b60208301515160008167ffffffffffffffff8111156106cb576106cb61113d565b60405190808252806020026020018201604052801561070457816020015b6106f1610faf565b8152602001906001900390816106e95790505b50905061070f611076565b60005b838110156108c65786602001518181518110610730576107306122d7565b602002602001015191506040518061010001604052808360000151815260200183602001518152602001836040015181526020018360600151815260200183608001516001600160a01b031681526020016040518061022001604052808560a001516000015181526020018560a001516020015181526020018560a001516040015181526020018560a0015160600151151581526020018560a0015160800151151581526020018560a0015160a00151151581526020016000151581526020018560a0015160c00151151581526020018560a0015160e00151151581526020018560a001516101000151151581526020018560a001516101200151151581526020018560a001516101400151151581526020018560a001516101600151151581526020016001151581526020018560a00151610180015115158152602001896001600160a01b031681526020018560a001516101a0015181525081526020018360c0015181526020018360e001518152508382815181106108b3576108b36122d7565b6020908102919091010152600101610712565b508551604080880151606089015191517f9e14fb800000000000000000000000000000000000000000000000000000000081526001600160a01b03881693639e14fb809361091b938d938992906004016126f1565b6020604051808303816000875af115801561093a573d6000803e3d6000fd5b505050506040513d601f19601f8201168201806040525081019061095e9190611ff9565b5050505050505050565b336001600160a01b0384168114801590610a4657506040517f348b684e0000000000000000000000000000000000000000000000000000000081526001600160a01b0382811660048301528581166024830152604482018590526064820184905260016084830181905260a48301527f0000000000000000000000000000000000000000000000000000000000000000169063348b684e9060c401602060405180830381865afa158015610a20573d6000803e3d6000fd5b505050506040513d601f19601f82011682018060405250810190610a44919061274d565b155b15610a7d576040517f075fd2b100000000000000000000000000000000000000000000000000000000815260040160405180910390fd5b50505050565b602083015151600090818167ffffffffffffffff811115610aa657610aa661113d565b604051908082528060200260200182016040528015610adf57816020015b610acc610faf565b815260200190600190039081610ac45790505b509050610aea611076565b60005b83811015610ca15787602001518181518110610b0b57610b0b6122d7565b602002602001015191506040518061010001604052808360000151815260200183602001518152602001836040015181526020018360600151815260200183608001516001600160a01b031681526020016040518061022001604052808560a001516000015181526020018560a001516020015181526020018560a001516040015181526020018560a0015160600151151581526020018560a0015160800151151581526020018560a0015160a00151151581526020016000151581526020018560a0015160c00151151581526020018560a0015160e00151151581526020018560a001516101000151151581526020018560a001516101200151151581526020018560a001516101400151151581526020018560a001516101600151151581526020016001151581526020018560a001516101800151151581526020018a6001600160a01b031681526020018560a001516101a0015181525081526020018360c0015181526020018360e00151815250838281518110610c8e57610c8e6122d7565b6020908102919091010152600101610aed565b50604080880151606089015191517f21df42e80000000000000000000000000000000000000000000000000000000081526001600160a01b038816926321df42e892610cf4928d9288929160040161276a565b6020604051808303816000875af1158015610d13573d6000803e3d6000fd5b505050506040513d601f19601f82011682018060405250810190610d379190611ff9565b98975050505050505050565b602083015151600090818167ffffffffffffffff811115610d6657610d6661113d565b604051908082528060200260200182016040528015610d9f57816020015b610d8c610faf565b815260200190600190039081610d845790505b509050610daa611076565b60005b83811015610f615787602001518181518110610dcb57610dcb6122d7565b602002602001015191506040518061010001604052808360000151815260200183602001518152602001836040015181526020018360600151815260200183608001516001600160a01b031681526020016040518061022001604052808560a001516000015181526020018560a001516020015181526020018560a001516040015181526020018560a0015160600151151581526020018560a0015160800151151581526020018560a0015160a00151151581526020016000151581526020018560a0015160c00151151581526020018560a0015160e00151151581526020018560a001516101000151151581526020018560a001516101200151151581526020018560a001516101400151151581526020018560a001516101600151151581526020016001151581526020018560a001516101800151151581526020018a6001600160a01b031681526020018560a001516101a0015181525081526020018360c0015181526020018360e00151815250838281518110610f4e57610f4e6122d7565b6020908102919091010152600101610dad565b5060408088015190517fc05120310000000000000000000000000000000000000000000000000000000081526001600160a01b0387169163c051203191610cf4918c918791906004016127b4565b6040805161010080820183526000808352602080840182905283850182905260608085018390526080808601849052865161022081018852848152928301849052958201839052810182905293840181905260a084810182905260c0850182905260e0850182905291840181905261012084018190526101408401819052610160840181905261018084018190526101a084018190526101c084018190526101e084018190526102008401529091908201905b815260200160608152602001606081525090565b604080516101008082018352600080835260208084018290528385018290526060808501839052608080860184905286516101c081018852848152928301849052958201839052810182905293840181905260a084810182905260c0850182905260e0850182905291840181905261012084018190526101408401819052610160840181905261018084018190526101a0840152909190820190611062565b6001600160a01b038116811461112a57600080fd5b50565b803561113881611115565b919050565b634e487b7160e01b600052604160045260246000fd5b6040516080810167ffffffffffffffff811182821017156111765761117661113d565b60405290565b604051610180810167ffffffffffffffff811182821017156111765761117661113d565b604051610120810167ffffffffffffffff811182821017156111765761117661113d565b6040516101c0810167ffffffffffffffff811182821017156111765761117661113d565b6040805190810167ffffffffffffffff811182821017156111765761117661113d565b60405160c0810167ffffffffffffffff811182821017156111765761117661113d565b604051610100810167ffffffffffffffff811182821017156111765761117661113d565b6040516060810167ffffffffffffffff811182821017156111765761117661113d565b604051601f8201601f1916810167ffffffffffffffff8111828210171561129e5761129e61113d565b604052919050565b600082601f8301126112b757600080fd5b813567ffffffffffffffff8111156112d1576112d161113d565b6112e4601f8201601f1916602001611275565b8181528460208386010111156112f957600080fd5b816020850160208301376000918101602001919091529392505050565b600067ffffffffffffffff8211156113305761133061113d565b5060051b60200190565b80356cffffffffffffffffffffffffff8116811461113857600080fd5b803563ffffffff8116811461113857600080fd5b803561ffff8116811461113857600080fd5b803562ffffff8116811461113857600080fd5b801515811461112a57600080fd5b803561113881611390565b803560ff8116811461113857600080fd5b600060808083850312156113cd57600080fd5b6113d5611153565b9150823567ffffffffffffffff8111156113ee57600080fd5b8301601f810185136113ff57600080fd5b8035602061141461140f83611316565b611275565b828152610180928302840182019282820191908985111561143457600080fd5b948301945b848610156115275780868b0312156114515760008081fd5b61145961117c565b6114628761133a565b815261146f858801611357565b858201526040611480818901611357565b90820152606061149188820161136b565b908201526114a087890161112d565b8189015260a0878101359082015260c06114bb81890161137d565b9082015260e06114cc88820161139e565b908201526101006114de88820161139e565b908201526101206114f088820161139e565b9082015261014061150288820161139e565b9082015261016061151488820161139e565b9082015283529485019491830191611439565b50865250611536868201611357565b818601525050505061154a604083016113a9565b604082015261155b6060830161112d565b606082015292915050565b60006080828403121561157857600080fd5b611580611153565b9050813561158d81611390565b8152602082013561159d81611390565b602082015260408201356115b081611390565b6040820152606082013561155b81611390565b600061018082840312156115d657600080fd5b6115de6111a0565b9050813567ffffffffffffffff808211156115f857600080fd5b611604858386016112a6565b8352602084013591508082111561161a57600080fd5b611626858386016112a6565b60208401526116376040850161112d565b6040840152606084013591508082111561165057600080fd5b61165c858386016112a6565b606084015261166d6080850161112d565b608084015260a084013591508082111561168657600080fd5b611692858386016112a6565b60a084015260c08401359150808211156116ab57600080fd5b506116b8848285016113ba565b60c0830152506116ca60e0830161112d565b60e08201526101006116de84828501611566565b9082015292915050565b60006101c082840312156116fb57600080fd5b6117036111c4565b90508135815260208201356020820152604082013560408201526117296060830161139e565b606082015261173a6080830161139e565b608082015261174b60a0830161139e565b60a082015261175c60c0830161139e565b60c082015261176d60e0830161139e565b60e082015261010061178081840161139e565b9082015261012061179283820161139e565b908201526101406117a483820161139e565b908201526101606117b683820161139e565b908201526101806117c883820161139e565b81830152506101a080830135818301525092915050565b600082601f8301126117f057600080fd5b8135602061180061140f83611316565b82815260059290921b8401810191818101908684111561181f57600080fd5b8286015b8481101561195957803567ffffffffffffffff8082111561184357600080fd5b908801906040828b03601f190181131561185c57600080fd5b6118646111e8565b878401358152818401358381111561187b57600080fd5b8085019450508b603f85011261189057600080fd5b8784013592506118a261140f84611316565b83815260c09093028401820192888101908d8511156118c057600080fd5b948301945b848610156119445760c0868f0312156118dd57600080fd5b6118e561120b565b86356118f081611390565b8152868b01358b8201528487013585820152606087013561191081611115565b60608201526080878101359082015260a087013561192d81611115565b60a0820152825260c09590950194908901906118c5565b828a0152508652505050918301918301611823565b509695505050505050565b600082601f83011261197557600080fd5b8135602061198561140f83611316565b82815260069290921b840181019181810190868411156119a457600080fd5b8286015b8481101561195957604081890312156119c15760008081fd5b6119c96111e8565b8135815284820135858201528352918301916040016119a8565b600082601f8301126119f457600080fd5b81356020611a0461140f83611316565b82815260059290921b84018101918181019086841115611a2357600080fd5b8286015b8481101561195957803567ffffffffffffffff80821115611a485760008081fd5b908801906080828b03601f1901811315611a625760008081fd5b611a6a611153565b87840135611a7781611115565b8152604084810135611a8881611115565b828a015260608581013585811115611aa05760008081fd5b611aae8f8c838a0101611964565b8484015250928501359284841115611ac857600091508182fd5b611ad68e8b86890101611964565b90830152508652505050918301918301611a27565b600082601f830112611afc57600080fd5b81356020611b0c61140f83611316565b82815260059290921b84018101918181019086841115611b2b57600080fd5b8286015b8481101561195957803567ffffffffffffffff80821115611b505760008081fd5b908801906102a0828b03601f1901811315611b6b5760008081fd5b611b7361122e565b87840135815260408085013589830152606080860135828401526080915081860135818401525060a0611ba781870161112d565b8284015260c09150611bbb8e8388016116e8565b9083015261028085013584811115611bd35760008081fd5b611be18e8b838901016117df565b82840152505081840135915082821115611bfb5760008081fd5b611c098c89848701016119e3565b60e08201528652505050918301918301611b2f565b600082601f830112611c2f57600080fd5b81356020611c3f61140f83611316565b828152600592831b8501820192828201919087851115611c5e57600080fd5b8387015b85811015611d4c57803567ffffffffffffffff80821115611c835760008081fd5b908901906040828c03601f1901811315611c9d5760008081fd5b611ca56111e8565b88840135611cb281611115565b81528382013583811115611cc65760008081fd5b8085019450508c603f850112611cde57600092508283fd5b888401359250611cf061140f84611316565b83815292861b8401820192898101908e851115611d0d5760008081fd5b948301945b84861015611d375785359350611d2784611115565b838252948a0194908a0190611d12565b828b0152508752505050928401928401611c62565b5090979650505050505050565b60008060008060808587031215611d6f57600080fd5b8435611d7a81611115565b9350602085013567ffffffffffffffff80821115611d9757600080fd5b611da3888389016115c3565b94506040870135915080821115611db957600080fd5b9086019060808289031215611dcd57600080fd5b611dd5611153565b823582811115611de457600080fd5b611df08a8286016112a6565b825250602083013582811115611e0557600080fd5b611e118a828601611aeb565b602083015250604083013582811115611e2957600080fd5b611e358a828601611c1e565b604083015250606083013582811115611e4d57600080fd5b611e598a8286016112a6565b606083015250809450505050611e716060860161112d565b905092959194509250565b60008060008060808587031215611e9257600080fd5b84359350602085013567ffffffffffffffff80821115611eb157600080fd5b611ebd888389016115c3565b94506040870135915080821115611ed357600080fd5b9086019060808289031215611ee757600080fd5b611eef611153565b82358152602083013582811115611e0557600080fd5b60008060008060808587031215611f1b57600080fd5b84359350602085013567ffffffffffffffff80821115611f3a57600080fd5b611f46888389016115c3565b94506040870135915080821115611f5c57600080fd5b9086019060608289031215611f7057600080fd5b611f78611252565b82358152602083013582811115611f8e57600080fd5b611f9a8a828601611aeb565b602083015250604083013582811115611fb257600080fd5b611fbe8a8286016112a6565b6040830152509350611e719150506060860161112d565b600060208284031215611fe757600080fd5b8151611ff281611115565b9392505050565b60006020828403121561200b57600080fd5b5051919050565b8082018082111561203357634e487b7160e01b600052601160045260246000fd5b92915050565b6000815180845260005b8181101561205f57602081850181015186830182015201612043565b506000602082860101526020601f19601f83011685010191505092915050565b80516080808452815184820181905260009260a0916020918201918388019190865b8281101561216457845180516cffffffffffffffffffffffffff1685528281015163ffffffff908116848701526040808301519091169086015260608082015161ffff1690860152878101516001600160a01b031688860152868101518786015260c08082015162ffffff169086015260e0808201511515908601526101008082015115159086015261012080820151151590860152610140808201511515908601526101609081015115159085015293810193610180909301926001016120a1565b508781015163ffffffff16908901525060408087015160ff16908801526060808701516001600160a01b038116918901919091529350610540565b828152604060208201526000825161018060408401526121c36101c0840182612039565b90506020840151603f19808584030160608601526121e18383612039565b9250604086015191506121ff60808601836001600160a01b03169052565b60608601519150808584030160a086015261221a8383612039565b92506080860151915061223860c08601836001600160a01b03169052565b60a08601519150808584030160e08601526122538383612039565b925060c08601519150610100818685030181870152612272848461207f565b935060e087015192506122916101208701846001600160a01b03169052565b860151805115156101408701526020810151151561016087015260408101511515610180870152606081015115156101a087015291506122ce9050565b50949350505050565b634e487b7160e01b600052603260045260246000fd5b8051825260208101516020830152604081015160408301526060810151612318606084018215159052565b50608081015161232c608084018215159052565b5060a081015161234060a084018215159052565b5060c081015161235460c084018215159052565b5060e081015161236860e084018215159052565b5061010081810151151590830152610120808201511515908301526101408082015115159083015261016080820151151590830152610180808201511515908301526101a0808201511515908301526101c0808201511515908301526101e0808201516001600160a01b03169083015261020090810151910152565b600082825180855260208086019550808260051b8401018186016000805b858110156124aa57868403601f19018a52825180518552850151604086860181905281518187018190529187019160609081880190865b818110156124935785518051151584528b8101518c8501528581015186850152848101516001600160a01b03908116868601526080808301519086015260a0918201511690840152948a019460c090920191600101612439565b50509c88019c965050509285019250600101612402565b509198975050505050505050565b60008151808452602080850194506020840160005b838110156124f45781518051885283015183880152604090960195908201906001016124cd565b509495945050505050565b600082825180855260208086019550808260051b84010181860160005b84811015611d4c57601f19868403018952815160806001600160a01b0380835116865280878401511687870152506040808301518282880152612561838801826124b8565b925050506060808301519250858203818701525061257f81836124b8565b9a86019a945050509083019060010161251c565b600082825180855260208086019550808260051b84010181860160005b84811015611d4c57858303601f19018952815180518452848101518585015260408082015190850152606080820151908501526080808201516001600160a01b03169085015260a080820151610300919061260d828801826122ed565b505060c0820151816102c0870152612627828701826123e4565b91505060e082015191508481036102e086015261264481836124ff565b9a86019a94505050908301906001016125b0565b600082825180855260208086019550808260051b8401018186016000805b858110156124aa57868403601f19018a52825180516001600160a01b03908116865290860151604087870181905281519087018190529087019160608701918591905b808310156126db578451821684529389019392890192600192909201916126b9565b5050509a86019a94505091840191600101612676565b6001600160a01b038616815260a06020820152600061271360a0830187612039565b82810360408401526127258187612593565b905082810360608401526127398186612658565b90508281036080840152610d378185612039565b60006020828403121561275f57600080fd5b8151611ff281611390565b8481526080602082015260006127836080830186612593565b82810360408401526127958186612658565b905082810360608401526127a98185612039565b979650505050505050565b8381526060602082015260006127cd6060830185612593565b8281036040840152610540818561203956fea2646970667358221220a9920c588e284010b5cca5871cb6fe9ba80efc549d5400f6defab74b646b3d2264736f6c63430008170033",
	"deployedBytecode": "0x608060405234801561001057600080fd5b50600436106100725760003560e01c8063abf8c5c811610050578063abf8c5c8146100ef578063adcafa2f14610116578063f434c9141461012957600080fd5b80633f839bc61461007757806388bc2ef31461009d5780638eb69a9e146100dc575b600080fd5b61008a610085366004611d59565b610150565b6040519081526020015b60405180910390f35b6100c47f000000000000000000000000c9cb7a0bab7569b5b6de26a679d107d4d412b34981565b6040516001600160a01b039091168152602001610094565b61008a6100ea366004611e7c565b610346565b6100c47f000000000000000000000000f97086e4cea8d11fcd64cb2e5dde0ab7588f5f0181565b61008a610124366004611f05565b61054a565b6100c47f000000000000000000000000ada1e1ee4576da063ead17d1acf49254fa881f0e81565b60007f000000000000000000000000c9cb7a0bab7569b5b6de26a679d107d4d412b3496001600160a01b031663293c49996040518163ffffffff1660e01b8152600401602060405180830381865afa1580156101b0573d6000803e3d6000fd5b505050506040513d601f19601f820116820180604052508101906101d49190611fd5565b6001600160a01b03166306661abd6040518163ffffffff1660e01b8152600401602060405180830381865afa158015610211573d6000803e3d6000fd5b505050506040513d601f19601f820116820180604052508101906102359190611ff9565b610240906001612012565b905060007f000000000000000000000000f97086e4cea8d11fcd64cb2e5dde0ab7588f5f016001600160a01b0316632230819f83876040518363ffffffff1660e01b815260040161029292919061219f565b6020604051808303816000875af11580156102b1573d6000803e3d6000fd5b505050506040513d601f19601f820116820180604052508101906102d59190611fd5565b90506102e3868583866106aa565b6040516351106b4b60e11b8152600481018390526001600160a01b0382169063a220d69690602401600060405180830381600087803b15801561032557600080fd5b505af1158015610339573d6000803e3d6000fd5b5050505050949350505050565b60006104437f000000000000000000000000c9cb7a0bab7569b5b6de26a679d107d4d412b3496001600160a01b031663293c49996040518163ffffffff1660e01b8152600401602060405180830381865afa1580156103a9573d6000803e3d6000fd5b505050506040513d601f19601f820116820180604052508101906103cd9190611fd5565b6001600160a01b0316636352211e876040518263ffffffff1660e01b81526004016103fa91815260200190565b602060405180830381865afa158015610417573d6000803e3d6000fd5b505050506040513d601f19601f8201168201806040525081019061043b9190611fd5565b866002610968565b604051632230819f60e01b81526000906001600160a01b037f000000000000000000000000f97086e4cea8d11fcd64cb2e5dde0ab7588f5f011690632230819f90610494908990899060040161219f565b6020604051808303816000875af11580156104b3573d6000803e3d6000fd5b505050506040513d601f19601f820116820180604052508101906104d79190611fd5565b6040516351106b4b60e11b8152600481018890529091506001600160a01b0382169063a220d69690602401600060405180830381600087803b15801561051c57600080fd5b505af1158015610530573d6000803e3d6000fd5b5050505061054086858386610a83565b9695505050505050565b60006105ad7f000000000000000000000000c9cb7a0bab7569b5b6de26a679d107d4d412b3496001600160a01b031663293c49996040518163ffffffff1660e01b8152600401602060405180830381865afa1580156103a9573d6000803e3d6000fd5b604051632230819f60e01b81526000906001600160a01b037f000000000000000000000000f97086e4cea8d11fcd64cb2e5dde0ab7588f5f011690632230819f906105fe908990899060040161219f565b6020604051808303816000875af115801561061d573d6000803e3d6000fd5b505050506040513d601f19601f820116820180604052508101906106419190611fd5565b6040516351106b4b60e11b8152600481018890529091506001600160a01b0382169063a220d69690602401600060405180830381600087803b15801561068657600080fd5b505af115801561069a573d6000803e3d6000fd5b5050505061054086858386610d43565b60208301515160008167ffffffffffffffff8111156106cb576106cb61113d565b60405190808252806020026020018201604052801561070457816020015b6106f1610faf565b8152602001906001900390816106e95790505b50905061070f611076565b60005b838110156108c65786602001518181518110610730576107306122d7565b602002602001015191506040518061010001604052808360000151815260200183602001518152602001836040015181526020018360600151815260200183608001516001600160a01b031681526020016040518061022001604052808560a001516000015181526020018560a001516020015181526020018560a001516040015181526020018560a0015160600151151581526020018560a0015160800151151581526020018560a0015160a00151151581526020016000151581526020018560a0015160c00151151581526020018560a0015160e00151151581526020018560a001516101000151151581526020018560a001516101200151151581526020018560a001516101400151151581526020018560a001516101600151151581526020016001151581526020018560a00151610180015115158152602001896001600160a01b031681526020018560a001516101a0015181525081526020018360c0015181526020018360e001518152508382815181106108b3576108b36122d7565b6020908102919091010152600101610712565b508551604080880151606089015191517f9e14fb800000000000000000000000000000000000000000000000000000000081526001600160a01b03881693639e14fb809361091b938d938992906004016126f1565b6020604051808303816000875af115801561093a573d6000803e3d6000fd5b505050506040513d601f19601f8201168201806040525081019061095e9190611ff9565b5050505050505050565b336001600160a01b0384168114801590610a4657506040517f348b684e0000000000000000000000000000000000000000000000000000000081526001600160a01b0382811660048301528581166024830152604482018590526064820184905260016084830181905260a48301527f000000000000000000000000ada1e1ee4576da063ead17d1acf49254fa881f0e169063348b684e9060c401602060405180830381865afa158015610a20573d6000803e3d6000fd5b505050506040513d601f19601f82011682018060405250810190610a44919061274d565b155b15610a7d576040517f075fd2b100000000000000000000000000000000000000000000000000000000815260040160405180910390fd5b50505050565b602083015151600090818167ffffffffffffffff811115610aa657610aa661113d565b604051908082528060200260200182016040528015610adf57816020015b610acc610faf565b815260200190600190039081610ac45790505b509050610aea611076565b60005b83811015610ca15787602001518181518110610b0b57610b0b6122d7565b602002602001015191506040518061010001604052808360000151815260200183602001518152602001836040015181526020018360600151815260200183608001516001600160a01b031681526020016040518061022001604052808560a001516000015181526020018560a001516020015181526020018560a001516040015181526020018560a0015160600151151581526020018560a0015160800151151581526020018560a0015160a00151151581526020016000151581526020018560a0015160c00151151581526020018560a0015160e00151151581526020018560a001516101000151151581526020018560a001516101200151151581526020018560a001516101400151151581526020018560a001516101600151151581526020016001151581526020018560a001516101800151151581526020018a6001600160a01b031681526020018560a001516101a0015181525081526020018360c0015181526020018360e00151815250838281518110610c8e57610c8e6122d7565b6020908102919091010152600101610aed565b50604080880151606089015191517f21df42e80000000000000000000000000000000000000000000000000000000081526001600160a01b038816926321df42e892610cf4928d9288929160040161276a565b6020604051808303816000875af1158015610d13573d6000803e3d6000fd5b505050506040513d601f19601f82011682018060405250810190610d379190611ff9565b98975050505050505050565b602083015151600090818167ffffffffffffffff811115610d6657610d6661113d565b604051908082528060200260200182016040528015610d9f57816020015b610d8c610faf565b815260200190600190039081610d845790505b509050610daa611076565b60005b83811015610f615787602001518181518110610dcb57610dcb6122d7565b602002602001015191506040518061010001604052808360000151815260200183602001518152602001836040015181526020018360600151815260200183608001516001600160a01b031681526020016040518061022001604052808560a001516000015181526020018560a001516020015181526020018560a001516040015181526020018560a0015160600151151581526020018560a0015160800151151581526020018560a0015160a00151151581526020016000151581526020018560a0015160c00151151581526020018560a0015160e00151151581526020018560a001516101000151151581526020018560a001516101200151151581526020018560a001516101400151151581526020018560a001516101600151151581526020016001151581526020018560a001516101800151151581526020018a6001600160a01b031681526020018560a001516101a0015181525081526020018360c0015181526020018360e00151815250838281518110610f4e57610f4e6122d7565b6020908102919091010152600101610dad565b5060408088015190517fc05120310000000000000000000000000000000000000000000000000000000081526001600160a01b0387169163c051203191610cf4918c918791906004016127b4565b6040805161010080820183526000808352602080840182905283850182905260608085018390526080808601849052865161022081018852848152928301849052958201839052810182905293840181905260a084810182905260c0850182905260e0850182905291840181905261012084018190526101408401819052610160840181905261018084018190526101a084018190526101c084018190526101e084018190526102008401529091908201905b815260200160608152602001606081525090565b604080516101008082018352600080835260208084018290528385018290526060808501839052608080860184905286516101c081018852848152928301849052958201839052810182905293840181905260a084810182905260c0850182905260e0850182905291840181905261012084018190526101408401819052610160840181905261018084018190526101a0840152909190820190611062565b6001600160a01b038116811461112a57600080fd5b50565b803561113881611115565b919050565b634e487b7160e01b600052604160045260246000fd5b6040516080810167ffffffffffffffff811182821017156111765761117661113d565b60405290565b604051610180810167ffffffffffffffff811182821017156111765761117661113d565b604051610120810167ffffffffffffffff811182821017156111765761117661113d565b6040516101c0810167ffffffffffffffff811182821017156111765761117661113d565b6040805190810167ffffffffffffffff811182821017156111765761117661113d565b60405160c0810167ffffffffffffffff811182821017156111765761117661113d565b604051610100810167ffffffffffffffff811182821017156111765761117661113d565b6040516060810167ffffffffffffffff811182821017156111765761117661113d565b604051601f8201601f1916810167ffffffffffffffff8111828210171561129e5761129e61113d565b604052919050565b600082601f8301126112b757600080fd5b813567ffffffffffffffff8111156112d1576112d161113d565b6112e4601f8201601f1916602001611275565b8181528460208386010111156112f957600080fd5b816020850160208301376000918101602001919091529392505050565b600067ffffffffffffffff8211156113305761133061113d565b5060051b60200190565b80356cffffffffffffffffffffffffff8116811461113857600080fd5b803563ffffffff8116811461113857600080fd5b803561ffff8116811461113857600080fd5b803562ffffff8116811461113857600080fd5b801515811461112a57600080fd5b803561113881611390565b803560ff8116811461113857600080fd5b600060808083850312156113cd57600080fd5b6113d5611153565b9150823567ffffffffffffffff8111156113ee57600080fd5b8301601f810185136113ff57600080fd5b8035602061141461140f83611316565b611275565b828152610180928302840182019282820191908985111561143457600080fd5b948301945b848610156115275780868b0312156114515760008081fd5b61145961117c565b6114628761133a565b815261146f858801611357565b858201526040611480818901611357565b90820152606061149188820161136b565b908201526114a087890161112d565b8189015260a0878101359082015260c06114bb81890161137d565b9082015260e06114cc88820161139e565b908201526101006114de88820161139e565b908201526101206114f088820161139e565b9082015261014061150288820161139e565b9082015261016061151488820161139e565b9082015283529485019491830191611439565b50865250611536868201611357565b818601525050505061154a604083016113a9565b604082015261155b6060830161112d565b606082015292915050565b60006080828403121561157857600080fd5b611580611153565b9050813561158d81611390565b8152602082013561159d81611390565b602082015260408201356115b081611390565b6040820152606082013561155b81611390565b600061018082840312156115d657600080fd5b6115de6111a0565b9050813567ffffffffffffffff808211156115f857600080fd5b611604858386016112a6565b8352602084013591508082111561161a57600080fd5b611626858386016112a6565b60208401526116376040850161112d565b6040840152606084013591508082111561165057600080fd5b61165c858386016112a6565b606084015261166d6080850161112d565b608084015260a084013591508082111561168657600080fd5b611692858386016112a6565b60a084015260c08401359150808211156116ab57600080fd5b506116b8848285016113ba565b60c0830152506116ca60e0830161112d565b60e08201526101006116de84828501611566565b9082015292915050565b60006101c082840312156116fb57600080fd5b6117036111c4565b90508135815260208201356020820152604082013560408201526117296060830161139e565b606082015261173a6080830161139e565b608082015261174b60a0830161139e565b60a082015261175c60c0830161139e565b60c082015261176d60e0830161139e565b60e082015261010061178081840161139e565b9082015261012061179283820161139e565b908201526101406117a483820161139e565b908201526101606117b683820161139e565b908201526101806117c883820161139e565b81830152506101a080830135818301525092915050565b600082601f8301126117f057600080fd5b8135602061180061140f83611316565b82815260059290921b8401810191818101908684111561181f57600080fd5b8286015b8481101561195957803567ffffffffffffffff8082111561184357600080fd5b908801906040828b03601f190181131561185c57600080fd5b6118646111e8565b878401358152818401358381111561187b57600080fd5b8085019450508b603f85011261189057600080fd5b8784013592506118a261140f84611316565b83815260c09093028401820192888101908d8511156118c057600080fd5b948301945b848610156119445760c0868f0312156118dd57600080fd5b6118e561120b565b86356118f081611390565b8152868b01358b8201528487013585820152606087013561191081611115565b60608201526080878101359082015260a087013561192d81611115565b60a0820152825260c09590950194908901906118c5565b828a0152508652505050918301918301611823565b509695505050505050565b600082601f83011261197557600080fd5b8135602061198561140f83611316565b82815260069290921b840181019181810190868411156119a457600080fd5b8286015b8481101561195957604081890312156119c15760008081fd5b6119c96111e8565b8135815284820135858201528352918301916040016119a8565b600082601f8301126119f457600080fd5b81356020611a0461140f83611316565b82815260059290921b84018101918181019086841115611a2357600080fd5b8286015b8481101561195957803567ffffffffffffffff80821115611a485760008081fd5b908801906080828b03601f1901811315611a625760008081fd5b611a6a611153565b87840135611a7781611115565b8152604084810135611a8881611115565b828a015260608581013585811115611aa05760008081fd5b611aae8f8c838a0101611964565b8484015250928501359284841115611ac857600091508182fd5b611ad68e8b86890101611964565b90830152508652505050918301918301611a27565b600082601f830112611afc57600080fd5b81356020611b0c61140f83611316565b82815260059290921b84018101918181019086841115611b2b57600080fd5b8286015b8481101561195957803567ffffffffffffffff80821115611b505760008081fd5b908801906102a0828b03601f1901811315611b6b5760008081fd5b611b7361122e565b87840135815260408085013589830152606080860135828401526080915081860135818401525060a0611ba781870161112d565b8284015260c09150611bbb8e8388016116e8565b9083015261028085013584811115611bd35760008081fd5b611be18e8b838901016117df565b82840152505081840135915082821115611bfb5760008081fd5b611c098c89848701016119e3565b60e08201528652505050918301918301611b2f565b600082601f830112611c2f57600080fd5b81356020611c3f61140f83611316565b828152600592831b8501820192828201919087851115611c5e57600080fd5b8387015b85811015611d4c57803567ffffffffffffffff80821115611c835760008081fd5b908901906040828c03601f1901811315611c9d5760008081fd5b611ca56111e8565b88840135611cb281611115565b81528382013583811115611cc65760008081fd5b8085019450508c603f850112611cde57600092508283fd5b888401359250611cf061140f84611316565b83815292861b8401820192898101908e851115611d0d5760008081fd5b948301945b84861015611d375785359350611d2784611115565b838252948a0194908a0190611d12565b828b0152508752505050928401928401611c62565b5090979650505050505050565b60008060008060808587031215611d6f57600080fd5b8435611d7a81611115565b9350602085013567ffffffffffffffff80821115611d9757600080fd5b611da3888389016115c3565b94506040870135915080821115611db957600080fd5b9086019060808289031215611dcd57600080fd5b611dd5611153565b823582811115611de457600080fd5b611df08a8286016112a6565b825250602083013582811115611e0557600080fd5b611e118a828601611aeb565b602083015250604083013582811115611e2957600080fd5b611e358a828601611c1e565b604083015250606083013582811115611e4d57600080fd5b611e598a8286016112a6565b606083015250809450505050611e716060860161112d565b905092959194509250565b60008060008060808587031215611e9257600080fd5b84359350602085013567ffffffffffffffff80821115611eb157600080fd5b611ebd888389016115c3565b94506040870135915080821115611ed357600080fd5b9086019060808289031215611ee757600080fd5b611eef611153565b82358152602083013582811115611e0557600080fd5b60008060008060808587031215611f1b57600080fd5b84359350602085013567ffffffffffffffff80821115611f3a57600080fd5b611f46888389016115c3565b94506040870135915080821115611f5c57600080fd5b9086019060608289031215611f7057600080fd5b611f78611252565b82358152602083013582811115611f8e57600080fd5b611f9a8a828601611aeb565b602083015250604083013582811115611fb257600080fd5b611fbe8a8286016112a6565b6040830152509350611e719150506060860161112d565b600060208284031215611fe757600080fd5b8151611ff281611115565b9392505050565b60006020828403121561200b57600080fd5b5051919050565b8082018082111561203357634e487b7160e01b600052601160045260246000fd5b92915050565b6000815180845260005b8181101561205f57602081850181015186830182015201612043565b506000602082860101526020601f19601f83011685010191505092915050565b80516080808452815184820181905260009260a0916020918201918388019190865b8281101561216457845180516cffffffffffffffffffffffffff1685528281015163ffffffff908116848701526040808301519091169086015260608082015161ffff1690860152878101516001600160a01b031688860152868101518786015260c08082015162ffffff169086015260e0808201511515908601526101008082015115159086015261012080820151151590860152610140808201511515908601526101609081015115159085015293810193610180909301926001016120a1565b508781015163ffffffff16908901525060408087015160ff16908801526060808701516001600160a01b038116918901919091529350610540565b828152604060208201526000825161018060408401526121c36101c0840182612039565b90506020840151603f19808584030160608601526121e18383612039565b9250604086015191506121ff60808601836001600160a01b03169052565b60608601519150808584030160a086015261221a8383612039565b92506080860151915061223860c08601836001600160a01b03169052565b60a08601519150808584030160e08601526122538383612039565b925060c08601519150610100818685030181870152612272848461207f565b935060e087015192506122916101208701846001600160a01b03169052565b860151805115156101408701526020810151151561016087015260408101511515610180870152606081015115156101a087015291506122ce9050565b50949350505050565b634e487b7160e01b600052603260045260246000fd5b8051825260208101516020830152604081015160408301526060810151612318606084018215159052565b50608081015161232c608084018215159052565b5060a081015161234060a084018215159052565b5060c081015161235460c084018215159052565b5060e081015161236860e084018215159052565b5061010081810151151590830152610120808201511515908301526101408082015115159083015261016080820151151590830152610180808201511515908301526101a0808201511515908301526101c0808201511515908301526101e0808201516001600160a01b03169083015261020090810151910152565b600082825180855260208086019550808260051b8401018186016000805b858110156124aa57868403601f19018a52825180518552850151604086860181905281518187018190529187019160609081880190865b818110156124935785518051151584528b8101518c8501528581015186850152848101516001600160a01b03908116868601526080808301519086015260a0918201511690840152948a019460c090920191600101612439565b50509c88019c965050509285019250600101612402565b509198975050505050505050565b60008151808452602080850194506020840160005b838110156124f45781518051885283015183880152604090960195908201906001016124cd565b509495945050505050565b600082825180855260208086019550808260051b84010181860160005b84811015611d4c57601f19868403018952815160806001600160a01b0380835116865280878401511687870152506040808301518282880152612561838801826124b8565b925050506060808301519250858203818701525061257f81836124b8565b9a86019a945050509083019060010161251c565b600082825180855260208086019550808260051b84010181860160005b84811015611d4c57858303601f19018952815180518452848101518585015260408082015190850152606080820151908501526080808201516001600160a01b03169085015260a080820151610300919061260d828801826122ed565b505060c0820151816102c0870152612627828701826123e4565b91505060e082015191508481036102e086015261264481836124ff565b9a86019a94505050908301906001016125b0565b600082825180855260208086019550808260051b8401018186016000805b858110156124aa57868403601f19018a52825180516001600160a01b03908116865290860151604087870181905281519087018190529087019160608701918591905b808310156126db578451821684529389019392890192600192909201916126b9565b5050509a86019a94505091840191600101612676565b6001600160a01b038616815260a06020820152600061271360a0830187612039565b82810360408401526127258187612593565b905082810360608401526127398186612658565b90508281036080840152610d378185612039565b60006020828403121561275f57600080fd5b8151611ff281611390565b8481526080602082015260006127836080830186612593565b82810360408401526127958186612658565b905082810360608401526127a98185612039565b979650505050505050565b8381526060602082015260006127cd6060830185612593565b8281036040840152610540818561203956fea2646970667358221220a9920c588e284010b5cca5871cb6fe9ba80efc549d5400f6defab74b646b3d2264736f6c63430008170033",
	"devdoc": {
		"kind": "dev",
		"methods": {
			"constructor": {
				"params": {
					"directory": "The directory of terminals and controllers for projects.",
					"hookDeployer": "The 721 tiers hook deployer.",
					"permissions": "A contract storing permissions."
				}
			},
			"launchProjectFor(address,(string,string,address,string,address,string,((uint104,uint32,uint32,uint16,address,bytes32,uint24,bool,bool,bool,bool,bool)[],uint32,uint8,address),address,(bool,bool,bool,bool)),(string,(uint256,uint256,uint256,uint256,address,(uint256,uint256,uint256,bool,bool,bool,bool,bool,bool,bool,bool,bool,bool,uint256),(uint256,(bool,uint256,uint256,address,uint256,address)[])[],(address,address,(uint256,uint256)[],(uint256,uint256)[])[])[],(address,address[])[],string),address)": {
				"params": {
					"controller": "The controller that the project's rulesets will be queued with.",
					"deployTiersHookConfig": "Configuration which dictates the behavior of the 721 tiers hook which is being deployed.",
					"launchProjectConfig": "Configuration which dictates the behavior of the project which is being launched.",
					"owner": "The address to set as the owner of the project. The ERC-721 which confers this project's ownership will be sent to this address."
				},
				"returns": {
					"projectId": "The ID of the newly launched project."
				}
			},
			"launchRulesetsFor(uint256,(string,string,address,string,address,string,((uint104,uint32,uint32,uint16,address,bytes32,uint24,bool,bool,bool,bool,bool)[],uint32,uint8,address),address,(bool,bool,bool,bool)),(uint256,(uint256,uint256,uint256,uint256,address,(uint256,uint256,uint256,bool,bool,bool,bool,bool,bool,bool,bool,bool,bool,uint256),(uint256,(bool,uint256,uint256,address,uint256,address)[])[],(address,address,(uint256,uint256)[],(uint256,uint256)[])[])[],(address,address[])[],string),address)": {
				"details": "Only a project's owner or an operator with the `QUEUE_RULESETS` permission can launch its rulesets.",
				"params": {
					"controller": "The controller that the project's rulesets will be queued with.",
					"deployTiersHookConfig": "Configuration which dictates the behavior of the 721 tiers hook which is being deployed.",
					"launchRulesetsConfig": "Configuration which dictates the project's new rulesets.",
					"projectId": "The ID of the project that rulesets are being launched for."
				},
				"returns": {
					"rulesetId": "The ID of the successfully created ruleset."
				}
			},
			"queueRulesetsOf(uint256,(string,string,address,string,address,string,((uint104,uint32,uint32,uint16,address,bytes32,uint24,bool,bool,bool,bool,bool)[],uint32,uint8,address),address,(bool,bool,bool,bool)),(uint256,(uint256,uint256,uint256,uint256,address,(uint256,uint256,uint256,bool,bool,bool,bool,bool,bool,bool,bool,bool,bool,uint256),(uint256,(bool,uint256,uint256,address,uint256,address)[])[],(address,address,(uint256,uint256)[],(uint256,uint256)[])[])[],string),address)": {
				"details": "Only a project's owner or an operator with the `QUEUE_RULESETS` permission can queue its rulesets.",
				"params": {
					"controller": "The controller that the project's rulesets will be queued with.",
					"deployTiersHookConfig": "Configuration which dictates the behavior of the 721 tiers hook which is being deployed.",
					"projectId": "The ID of the project that rulesets are being queued for.",
					"queueRulesetsConfig": "Configuration which dictates the project's newly queued rulesets."
				},
				"returns": {
					"rulesetId": "The ID of the successfully created ruleset."
				}
			}
		},
		"version": 1
	},
	"userdoc": {
		"kind": "user",
		"methods": {
			"DIRECTORY()": {
				"notice": "The directory of terminals and controllers for projects."
			},
			"HOOK_DEPLOYER()": {
				"notice": "The 721 tiers hook deployer."
			},
			"PERMISSIONS()": {
				"notice": "A contract storing permissions."
			},
			"launchProjectFor(address,(string,string,address,string,address,string,((uint104,uint32,uint32,uint16,address,bytes32,uint24,bool,bool,bool,bool,bool)[],uint32,uint8,address),address,(bool,bool,bool,bool)),(string,(uint256,uint256,uint256,uint256,address,(uint256,uint256,uint256,bool,bool,bool,bool,bool,bool,bool,bool,bool,bool,uint256),(uint256,(bool,uint256,uint256,address,uint256,address)[])[],(address,address,(uint256,uint256)[],(uint256,uint256)[])[])[],(address,address[])[],string),address)": {
				"notice": "Launches a new project with a 721 tiers hook attached."
			},
			"launchRulesetsFor(uint256,(string,string,address,string,address,string,((uint104,uint32,uint32,uint16,address,bytes32,uint24,bool,bool,bool,bool,bool)[],uint32,uint8,address),address,(bool,bool,bool,bool)),(uint256,(uint256,uint256,uint256,uint256,address,(uint256,uint256,uint256,bool,bool,bool,bool,bool,bool,bool,bool,bool,bool,uint256),(uint256,(bool,uint256,uint256,address,uint256,address)[])[],(address,address,(uint256,uint256)[],(uint256,uint256)[])[])[],(address,address[])[],string),address)": {
				"notice": "Launches rulesets for a project with an attached 721 tiers hook."
			},
			"queueRulesetsOf(uint256,(string,string,address,string,address,string,((uint104,uint32,uint32,uint16,address,bytes32,uint24,bool,bool,bool,bool,bool)[],uint32,uint8,address),address,(bool,bool,bool,bool)),(uint256,(uint256,uint256,uint256,uint256,address,(uint256,uint256,uint256,bool,bool,bool,bool,bool,bool,bool,bool,bool,bool,uint256),(uint256,(bool,uint256,uint256,address,uint256,address)[])[],(address,address,(uint256,uint256)[],(uint256,uint256)[])[])[],string),address)": {
				"notice": "Queues rulesets for a project with an attached 721 tiers hook."
			}
		},
		"version": 1
	},
	"gitCommit": "6b5b4b1b7992ce9da04af35b1fbdf1901d80bda5",
	"sourceName": "src/JB721TiersHookProjectDeployer.sol",
	"chainId": "421614",
	"linkReferences": {},
	"deployedLinkReferences": {},
	"history": [
		{
			"_format": "sphinx-sol-ct-artifact-1",
			"merkleRoot": "0x4e729de0820df73ab4e21fd6be94272162dd7081f65565002decdd5bdf706b8e",
			"contractName": "JB721TiersHookProjectDeployer",
			"address": "0x8c64234046D6146b731D1a0141d8aF0A51E4d61C",
			"abi": [
				{
					"type": "constructor",
					"inputs": [
						{
							"name": "directory",
							"type": "address",
							"internalType": "contract IJBDirectory"
						},
						{
							"name": "permissions",
							"type": "address",
							"internalType": "contract IJBPermissions"
						},
						{
							"name": "hookDeployer",
							"type": "address",
							"internalType": "contract IJB721TiersHookDeployer"
						}
					],
					"stateMutability": "nonpayable"
				},
				{
					"type": "function",
					"name": "DIRECTORY",
					"inputs": [],
					"outputs": [
						{
							"name": "",
							"type": "address",
							"internalType": "contract IJBDirectory"
						}
					],
					"stateMutability": "view"
				},
				{
					"type": "function",
					"name": "HOOK_DEPLOYER",
					"inputs": [],
					"outputs": [
						{
							"name": "",
							"type": "address",
							"internalType": "contract IJB721TiersHookDeployer"
						}
					],
					"stateMutability": "view"
				},
				{
					"type": "function",
					"name": "PERMISSIONS",
					"inputs": [],
					"outputs": [
						{
							"name": "",
							"type": "address",
							"internalType": "contract IJBPermissions"
						}
					],
					"stateMutability": "view"
				},
				{
					"type": "function",
					"name": "launchProjectFor",
					"inputs": [
						{
							"name": "owner",
							"type": "address",
							"internalType": "address"
						},
						{
							"name": "deployTiersHookConfig",
							"type": "tuple",
							"internalType": "struct JBDeploy721TiersHookConfig",
							"components": [
								{
									"name": "name",
									"type": "string",
									"internalType": "string"
								},
								{
									"name": "symbol",
									"type": "string",
									"internalType": "string"
								},
								{
									"name": "rulesets",
									"type": "address",
									"internalType": "contract IJBRulesets"
								},
								{
									"name": "baseUri",
									"type": "string",
									"internalType": "string"
								},
								{
									"name": "tokenUriResolver",
									"type": "address",
									"internalType": "contract IJB721TokenUriResolver"
								},
								{
									"name": "contractUri",
									"type": "string",
									"internalType": "string"
								},
								{
									"name": "tiersConfig",
									"type": "tuple",
									"internalType": "struct JB721InitTiersConfig",
									"components": [
										{
											"name": "tiers",
											"type": "tuple[]",
											"internalType": "struct JB721TierConfig[]",
											"components": [
												{
													"name": "price",
													"type": "uint104",
													"internalType": "uint104"
												},
												{
													"name": "initialSupply",
													"type": "uint32",
													"internalType": "uint32"
												},
												{
													"name": "votingUnits",
													"type": "uint32",
													"internalType": "uint32"
												},
												{
													"name": "reserveFrequency",
													"type": "uint16",
													"internalType": "uint16"
												},
												{
													"name": "reserveBeneficiary",
													"type": "address",
													"internalType": "address"
												},
												{
													"name": "encodedIPFSUri",
													"type": "bytes32",
													"internalType": "bytes32"
												},
												{
													"name": "category",
													"type": "uint24",
													"internalType": "uint24"
												},
												{
													"name": "allowOwnerMint",
													"type": "bool",
													"internalType": "bool"
												},
												{
													"name": "useReserveBeneficiaryAsDefault",
													"type": "bool",
													"internalType": "bool"
												},
												{
													"name": "transfersPausable",
													"type": "bool",
													"internalType": "bool"
												},
												{
													"name": "useVotingUnits",
													"type": "bool",
													"internalType": "bool"
												},
												{
													"name": "cannotBeRemoved",
													"type": "bool",
													"internalType": "bool"
												}
											]
										},
										{
											"name": "currency",
											"type": "uint32",
											"internalType": "uint32"
										},
										{
											"name": "decimals",
											"type": "uint8",
											"internalType": "uint8"
										},
										{
											"name": "prices",
											"type": "address",
											"internalType": "contract IJBPrices"
										}
									]
								},
								{
									"name": "reserveBeneficiary",
									"type": "address",
									"internalType": "address"
								},
								{
									"name": "flags",
									"type": "tuple",
									"internalType": "struct JB721TiersHookFlags",
									"components": [
										{
											"name": "noNewTiersWithReserves",
											"type": "bool",
											"internalType": "bool"
										},
										{
											"name": "noNewTiersWithVotes",
											"type": "bool",
											"internalType": "bool"
										},
										{
											"name": "noNewTiersWithOwnerMinting",
											"type": "bool",
											"internalType": "bool"
										},
										{
											"name": "preventOverspending",
											"type": "bool",
											"internalType": "bool"
										}
									]
								}
							]
						},
						{
							"name": "launchProjectConfig",
							"type": "tuple",
							"internalType": "struct JBLaunchProjectConfig",
							"components": [
								{
									"name": "projectUri",
									"type": "string",
									"internalType": "string"
								},
								{
									"name": "rulesetConfigurations",
									"type": "tuple[]",
									"internalType": "struct JBPayDataHookRulesetConfig[]",
									"components": [
										{
											"name": "mustStartAtOrAfter",
											"type": "uint256",
											"internalType": "uint256"
										},
										{
											"name": "duration",
											"type": "uint256",
											"internalType": "uint256"
										},
										{
											"name": "weight",
											"type": "uint256",
											"internalType": "uint256"
										},
										{
											"name": "decayRate",
											"type": "uint256",
											"internalType": "uint256"
										},
										{
											"name": "approvalHook",
											"type": "address",
											"internalType": "contract IJBRulesetApprovalHook"
										},
										{
											"name": "metadata",
											"type": "tuple",
											"internalType": "struct JBPayDataHookRulesetMetadata",
											"components": [
												{
													"name": "reservedRate",
													"type": "uint256",
													"internalType": "uint256"
												},
												{
													"name": "redemptionRate",
													"type": "uint256",
													"internalType": "uint256"
												},
												{
													"name": "baseCurrency",
													"type": "uint256",
													"internalType": "uint256"
												},
												{
													"name": "pausePay",
													"type": "bool",
													"internalType": "bool"
												},
												{
													"name": "pauseCreditTransfers",
													"type": "bool",
													"internalType": "bool"
												},
												{
													"name": "allowOwnerMinting",
													"type": "bool",
													"internalType": "bool"
												},
												{
													"name": "allowTerminalMigration",
													"type": "bool",
													"internalType": "bool"
												},
												{
													"name": "allowSetTerminals",
													"type": "bool",
													"internalType": "bool"
												},
												{
													"name": "allowControllerMigration",
													"type": "bool",
													"internalType": "bool"
												},
												{
													"name": "allowSetController",
													"type": "bool",
													"internalType": "bool"
												},
												{
													"name": "holdFees",
													"type": "bool",
													"internalType": "bool"
												},
												{
													"name": "useTotalSurplusForRedemptions",
													"type": "bool",
													"internalType": "bool"
												},
												{
													"name": "useDataHookForRedeem",
													"type": "bool",
													"internalType": "bool"
												},
												{
													"name": "metadata",
													"type": "uint256",
													"internalType": "uint256"
												}
											]
										},
										{
											"name": "splitGroups",
											"type": "tuple[]",
											"internalType": "struct JBSplitGroup[]",
											"components": [
												{
													"name": "groupId",
													"type": "uint256",
													"internalType": "uint256"
												},
												{
													"name": "splits",
													"type": "tuple[]",
													"internalType": "struct JBSplit[]",
													"components": [
														{
															"name": "preferAddToBalance",
															"type": "bool",
															"internalType": "bool"
														},
														{
															"name": "percent",
															"type": "uint256",
															"internalType": "uint256"
														},
														{
															"name": "projectId",
															"type": "uint256",
															"internalType": "uint256"
														},
														{
															"name": "beneficiary",
															"type": "address",
															"internalType": "address payable"
														},
														{
															"name": "lockedUntil",
															"type": "uint256",
															"internalType": "uint256"
														},
														{
															"name": "hook",
															"type": "address",
															"internalType": "contract IJBSplitHook"
														}
													]
												}
											]
										},
										{
											"name": "fundAccessLimitGroups",
											"type": "tuple[]",
											"internalType": "struct JBFundAccessLimitGroup[]",
											"components": [
												{
													"name": "terminal",
													"type": "address",
													"internalType": "address"
												},
												{
													"name": "token",
													"type": "address",
													"internalType": "address"
												},
												{
													"name": "payoutLimits",
													"type": "tuple[]",
													"internalType": "struct JBCurrencyAmount[]",
													"components": [
														{
															"name": "amount",
															"type": "uint256",
															"internalType": "uint256"
														},
														{
															"name": "currency",
															"type": "uint256",
															"internalType": "uint256"
														}
													]
												},
												{
													"name": "surplusAllowances",
													"type": "tuple[]",
													"internalType": "struct JBCurrencyAmount[]",
													"components": [
														{
															"name": "amount",
															"type": "uint256",
															"internalType": "uint256"
														},
														{
															"name": "currency",
															"type": "uint256",
															"internalType": "uint256"
														}
													]
												}
											]
										}
									]
								},
								{
									"name": "terminalConfigurations",
									"type": "tuple[]",
									"internalType": "struct JBTerminalConfig[]",
									"components": [
										{
											"name": "terminal",
											"type": "address",
											"internalType": "contract IJBTerminal"
										},
										{
											"name": "tokensToAccept",
											"type": "address[]",
											"internalType": "address[]"
										}
									]
								},
								{
									"name": "memo",
									"type": "string",
									"internalType": "string"
								}
							]
						},
						{
							"name": "controller",
							"type": "address",
							"internalType": "contract IJBController"
						}
					],
					"outputs": [
						{
							"name": "projectId",
							"type": "uint256",
							"internalType": "uint256"
						}
					],
					"stateMutability": "nonpayable"
				},
				{
					"type": "function",
					"name": "launchRulesetsFor",
					"inputs": [
						{
							"name": "projectId",
							"type": "uint256",
							"internalType": "uint256"
						},
						{
							"name": "deployTiersHookConfig",
							"type": "tuple",
							"internalType": "struct JBDeploy721TiersHookConfig",
							"components": [
								{
									"name": "name",
									"type": "string",
									"internalType": "string"
								},
								{
									"name": "symbol",
									"type": "string",
									"internalType": "string"
								},
								{
									"name": "rulesets",
									"type": "address",
									"internalType": "contract IJBRulesets"
								},
								{
									"name": "baseUri",
									"type": "string",
									"internalType": "string"
								},
								{
									"name": "tokenUriResolver",
									"type": "address",
									"internalType": "contract IJB721TokenUriResolver"
								},
								{
									"name": "contractUri",
									"type": "string",
									"internalType": "string"
								},
								{
									"name": "tiersConfig",
									"type": "tuple",
									"internalType": "struct JB721InitTiersConfig",
									"components": [
										{
											"name": "tiers",
											"type": "tuple[]",
											"internalType": "struct JB721TierConfig[]",
											"components": [
												{
													"name": "price",
													"type": "uint104",
													"internalType": "uint104"
												},
												{
													"name": "initialSupply",
													"type": "uint32",
													"internalType": "uint32"
												},
												{
													"name": "votingUnits",
													"type": "uint32",
													"internalType": "uint32"
												},
												{
													"name": "reserveFrequency",
													"type": "uint16",
													"internalType": "uint16"
												},
												{
													"name": "reserveBeneficiary",
													"type": "address",
													"internalType": "address"
												},
												{
													"name": "encodedIPFSUri",
													"type": "bytes32",
													"internalType": "bytes32"
												},
												{
													"name": "category",
													"type": "uint24",
													"internalType": "uint24"
												},
												{
													"name": "allowOwnerMint",
													"type": "bool",
													"internalType": "bool"
												},
												{
													"name": "useReserveBeneficiaryAsDefault",
													"type": "bool",
													"internalType": "bool"
												},
												{
													"name": "transfersPausable",
													"type": "bool",
													"internalType": "bool"
												},
												{
													"name": "useVotingUnits",
													"type": "bool",
													"internalType": "bool"
												},
												{
													"name": "cannotBeRemoved",
													"type": "bool",
													"internalType": "bool"
												}
											]
										},
										{
											"name": "currency",
											"type": "uint32",
											"internalType": "uint32"
										},
										{
											"name": "decimals",
											"type": "uint8",
											"internalType": "uint8"
										},
										{
											"name": "prices",
											"type": "address",
											"internalType": "contract IJBPrices"
										}
									]
								},
								{
									"name": "reserveBeneficiary",
									"type": "address",
									"internalType": "address"
								},
								{
									"name": "flags",
									"type": "tuple",
									"internalType": "struct JB721TiersHookFlags",
									"components": [
										{
											"name": "noNewTiersWithReserves",
											"type": "bool",
											"internalType": "bool"
										},
										{
											"name": "noNewTiersWithVotes",
											"type": "bool",
											"internalType": "bool"
										},
										{
											"name": "noNewTiersWithOwnerMinting",
											"type": "bool",
											"internalType": "bool"
										},
										{
											"name": "preventOverspending",
											"type": "bool",
											"internalType": "bool"
										}
									]
								}
							]
						},
						{
							"name": "launchRulesetsConfig",
							"type": "tuple",
							"internalType": "struct JBLaunchRulesetsConfig",
							"components": [
								{
									"name": "projectId",
									"type": "uint256",
									"internalType": "uint256"
								},
								{
									"name": "rulesetConfigurations",
									"type": "tuple[]",
									"internalType": "struct JBPayDataHookRulesetConfig[]",
									"components": [
										{
											"name": "mustStartAtOrAfter",
											"type": "uint256",
											"internalType": "uint256"
										},
										{
											"name": "duration",
											"type": "uint256",
											"internalType": "uint256"
										},
										{
											"name": "weight",
											"type": "uint256",
											"internalType": "uint256"
										},
										{
											"name": "decayRate",
											"type": "uint256",
											"internalType": "uint256"
										},
										{
											"name": "approvalHook",
											"type": "address",
											"internalType": "contract IJBRulesetApprovalHook"
										},
										{
											"name": "metadata",
											"type": "tuple",
											"internalType": "struct JBPayDataHookRulesetMetadata",
											"components": [
												{
													"name": "reservedRate",
													"type": "uint256",
													"internalType": "uint256"
												},
												{
													"name": "redemptionRate",
													"type": "uint256",
													"internalType": "uint256"
												},
												{
													"name": "baseCurrency",
													"type": "uint256",
													"internalType": "uint256"
												},
												{
													"name": "pausePay",
													"type": "bool",
													"internalType": "bool"
												},
												{
													"name": "pauseCreditTransfers",
													"type": "bool",
													"internalType": "bool"
												},
												{
													"name": "allowOwnerMinting",
													"type": "bool",
													"internalType": "bool"
												},
												{
													"name": "allowTerminalMigration",
													"type": "bool",
													"internalType": "bool"
												},
												{
													"name": "allowSetTerminals",
													"type": "bool",
													"internalType": "bool"
												},
												{
													"name": "allowControllerMigration",
													"type": "bool",
													"internalType": "bool"
												},
												{
													"name": "allowSetController",
													"type": "bool",
													"internalType": "bool"
												},
												{
													"name": "holdFees",
													"type": "bool",
													"internalType": "bool"
												},
												{
													"name": "useTotalSurplusForRedemptions",
													"type": "bool",
													"internalType": "bool"
												},
												{
													"name": "useDataHookForRedeem",
													"type": "bool",
													"internalType": "bool"
												},
												{
													"name": "metadata",
													"type": "uint256",
													"internalType": "uint256"
												}
											]
										},
										{
											"name": "splitGroups",
											"type": "tuple[]",
											"internalType": "struct JBSplitGroup[]",
											"components": [
												{
													"name": "groupId",
													"type": "uint256",
													"internalType": "uint256"
												},
												{
													"name": "splits",
													"type": "tuple[]",
													"internalType": "struct JBSplit[]",
													"components": [
														{
															"name": "preferAddToBalance",
															"type": "bool",
															"internalType": "bool"
														},
														{
															"name": "percent",
															"type": "uint256",
															"internalType": "uint256"
														},
														{
															"name": "projectId",
															"type": "uint256",
															"internalType": "uint256"
														},
														{
															"name": "beneficiary",
															"type": "address",
															"internalType": "address payable"
														},
														{
															"name": "lockedUntil",
															"type": "uint256",
															"internalType": "uint256"
														},
														{
															"name": "hook",
															"type": "address",
															"internalType": "contract IJBSplitHook"
														}
													]
												}
											]
										},
										{
											"name": "fundAccessLimitGroups",
											"type": "tuple[]",
											"internalType": "struct JBFundAccessLimitGroup[]",
											"components": [
												{
													"name": "terminal",
													"type": "address",
													"internalType": "address"
												},
												{
													"name": "token",
													"type": "address",
													"internalType": "address"
												},
												{
													"name": "payoutLimits",
													"type": "tuple[]",
													"internalType": "struct JBCurrencyAmount[]",
													"components": [
														{
															"name": "amount",
															"type": "uint256",
															"internalType": "uint256"
														},
														{
															"name": "currency",
															"type": "uint256",
															"internalType": "uint256"
														}
													]
												},
												{
													"name": "surplusAllowances",
													"type": "tuple[]",
													"internalType": "struct JBCurrencyAmount[]",
													"components": [
														{
															"name": "amount",
															"type": "uint256",
															"internalType": "uint256"
														},
														{
															"name": "currency",
															"type": "uint256",
															"internalType": "uint256"
														}
													]
												}
											]
										}
									]
								},
								{
									"name": "terminalConfigurations",
									"type": "tuple[]",
									"internalType": "struct JBTerminalConfig[]",
									"components": [
										{
											"name": "terminal",
											"type": "address",
											"internalType": "contract IJBTerminal"
										},
										{
											"name": "tokensToAccept",
											"type": "address[]",
											"internalType": "address[]"
										}
									]
								},
								{
									"name": "memo",
									"type": "string",
									"internalType": "string"
								}
							]
						},
						{
							"name": "controller",
							"type": "address",
							"internalType": "contract IJBController"
						}
					],
					"outputs": [
						{
							"name": "rulesetId",
							"type": "uint256",
							"internalType": "uint256"
						}
					],
					"stateMutability": "nonpayable"
				},
				{
					"type": "function",
					"name": "queueRulesetsOf",
					"inputs": [
						{
							"name": "projectId",
							"type": "uint256",
							"internalType": "uint256"
						},
						{
							"name": "deployTiersHookConfig",
							"type": "tuple",
							"internalType": "struct JBDeploy721TiersHookConfig",
							"components": [
								{
									"name": "name",
									"type": "string",
									"internalType": "string"
								},
								{
									"name": "symbol",
									"type": "string",
									"internalType": "string"
								},
								{
									"name": "rulesets",
									"type": "address",
									"internalType": "contract IJBRulesets"
								},
								{
									"name": "baseUri",
									"type": "string",
									"internalType": "string"
								},
								{
									"name": "tokenUriResolver",
									"type": "address",
									"internalType": "contract IJB721TokenUriResolver"
								},
								{
									"name": "contractUri",
									"type": "string",
									"internalType": "string"
								},
								{
									"name": "tiersConfig",
									"type": "tuple",
									"internalType": "struct JB721InitTiersConfig",
									"components": [
										{
											"name": "tiers",
											"type": "tuple[]",
											"internalType": "struct JB721TierConfig[]",
											"components": [
												{
													"name": "price",
													"type": "uint104",
													"internalType": "uint104"
												},
												{
													"name": "initialSupply",
													"type": "uint32",
													"internalType": "uint32"
												},
												{
													"name": "votingUnits",
													"type": "uint32",
													"internalType": "uint32"
												},
												{
													"name": "reserveFrequency",
													"type": "uint16",
													"internalType": "uint16"
												},
												{
													"name": "reserveBeneficiary",
													"type": "address",
													"internalType": "address"
												},
												{
													"name": "encodedIPFSUri",
													"type": "bytes32",
													"internalType": "bytes32"
												},
												{
													"name": "category",
													"type": "uint24",
													"internalType": "uint24"
												},
												{
													"name": "allowOwnerMint",
													"type": "bool",
													"internalType": "bool"
												},
												{
													"name": "useReserveBeneficiaryAsDefault",
													"type": "bool",
													"internalType": "bool"
												},
												{
													"name": "transfersPausable",
													"type": "bool",
													"internalType": "bool"
												},
												{
													"name": "useVotingUnits",
													"type": "bool",
													"internalType": "bool"
												},
												{
													"name": "cannotBeRemoved",
													"type": "bool",
													"internalType": "bool"
												}
											]
										},
										{
											"name": "currency",
											"type": "uint32",
											"internalType": "uint32"
										},
										{
											"name": "decimals",
											"type": "uint8",
											"internalType": "uint8"
										},
										{
											"name": "prices",
											"type": "address",
											"internalType": "contract IJBPrices"
										}
									]
								},
								{
									"name": "reserveBeneficiary",
									"type": "address",
									"internalType": "address"
								},
								{
									"name": "flags",
									"type": "tuple",
									"internalType": "struct JB721TiersHookFlags",
									"components": [
										{
											"name": "noNewTiersWithReserves",
											"type": "bool",
											"internalType": "bool"
										},
										{
											"name": "noNewTiersWithVotes",
											"type": "bool",
											"internalType": "bool"
										},
										{
											"name": "noNewTiersWithOwnerMinting",
											"type": "bool",
											"internalType": "bool"
										},
										{
											"name": "preventOverspending",
											"type": "bool",
											"internalType": "bool"
										}
									]
								}
							]
						},
						{
							"name": "queueRulesetsConfig",
							"type": "tuple",
							"internalType": "struct JBQueueRulesetsConfig",
							"components": [
								{
									"name": "projectId",
									"type": "uint256",
									"internalType": "uint256"
								},
								{
									"name": "rulesetConfigurations",
									"type": "tuple[]",
									"internalType": "struct JBPayDataHookRulesetConfig[]",
									"components": [
										{
											"name": "mustStartAtOrAfter",
											"type": "uint256",
											"internalType": "uint256"
										},
										{
											"name": "duration",
											"type": "uint256",
											"internalType": "uint256"
										},
										{
											"name": "weight",
											"type": "uint256",
											"internalType": "uint256"
										},
										{
											"name": "decayRate",
											"type": "uint256",
											"internalType": "uint256"
										},
										{
											"name": "approvalHook",
											"type": "address",
											"internalType": "contract IJBRulesetApprovalHook"
										},
										{
											"name": "metadata",
											"type": "tuple",
											"internalType": "struct JBPayDataHookRulesetMetadata",
											"components": [
												{
													"name": "reservedRate",
													"type": "uint256",
													"internalType": "uint256"
												},
												{
													"name": "redemptionRate",
													"type": "uint256",
													"internalType": "uint256"
												},
												{
													"name": "baseCurrency",
													"type": "uint256",
													"internalType": "uint256"
												},
												{
													"name": "pausePay",
													"type": "bool",
													"internalType": "bool"
												},
												{
													"name": "pauseCreditTransfers",
													"type": "bool",
													"internalType": "bool"
												},
												{
													"name": "allowOwnerMinting",
													"type": "bool",
													"internalType": "bool"
												},
												{
													"name": "allowTerminalMigration",
													"type": "bool",
													"internalType": "bool"
												},
												{
													"name": "allowSetTerminals",
													"type": "bool",
													"internalType": "bool"
												},
												{
													"name": "allowControllerMigration",
													"type": "bool",
													"internalType": "bool"
												},
												{
													"name": "allowSetController",
													"type": "bool",
													"internalType": "bool"
												},
												{
													"name": "holdFees",
													"type": "bool",
													"internalType": "bool"
												},
												{
													"name": "useTotalSurplusForRedemptions",
													"type": "bool",
													"internalType": "bool"
												},
												{
													"name": "useDataHookForRedeem",
													"type": "bool",
													"internalType": "bool"
												},
												{
													"name": "metadata",
													"type": "uint256",
													"internalType": "uint256"
												}
											]
										},
										{
											"name": "splitGroups",
											"type": "tuple[]",
											"internalType": "struct JBSplitGroup[]",
											"components": [
												{
													"name": "groupId",
													"type": "uint256",
													"internalType": "uint256"
												},
												{
													"name": "splits",
													"type": "tuple[]",
													"internalType": "struct JBSplit[]",
													"components": [
														{
															"name": "preferAddToBalance",
															"type": "bool",
															"internalType": "bool"
														},
														{
															"name": "percent",
															"type": "uint256",
															"internalType": "uint256"
														},
														{
															"name": "projectId",
															"type": "uint256",
															"internalType": "uint256"
														},
														{
															"name": "beneficiary",
															"type": "address",
															"internalType": "address payable"
														},
														{
															"name": "lockedUntil",
															"type": "uint256",
															"internalType": "uint256"
														},
														{
															"name": "hook",
															"type": "address",
															"internalType": "contract IJBSplitHook"
														}
													]
												}
											]
										},
										{
											"name": "fundAccessLimitGroups",
											"type": "tuple[]",
											"internalType": "struct JBFundAccessLimitGroup[]",
											"components": [
												{
													"name": "terminal",
													"type": "address",
													"internalType": "address"
												},
												{
													"name": "token",
													"type": "address",
													"internalType": "address"
												},
												{
													"name": "payoutLimits",
													"type": "tuple[]",
													"internalType": "struct JBCurrencyAmount[]",
													"components": [
														{
															"name": "amount",
															"type": "uint256",
															"internalType": "uint256"
														},
														{
															"name": "currency",
															"type": "uint256",
															"internalType": "uint256"
														}
													]
												},
												{
													"name": "surplusAllowances",
													"type": "tuple[]",
													"internalType": "struct JBCurrencyAmount[]",
													"components": [
														{
															"name": "amount",
															"type": "uint256",
															"internalType": "uint256"
														},
														{
															"name": "currency",
															"type": "uint256",
															"internalType": "uint256"
														}
													]
												}
											]
										}
									]
								},
								{
									"name": "memo",
									"type": "string",
									"internalType": "string"
								}
							]
						},
						{
							"name": "controller",
							"type": "address",
							"internalType": "contract IJBController"
						}
					],
					"outputs": [
						{
							"name": "rulesetId",
							"type": "uint256",
							"internalType": "uint256"
						}
					],
					"stateMutability": "nonpayable"
				},
				{
					"type": "error",
					"name": "UNAUTHORIZED",
					"inputs": []
				}
			],
			"solcInputHash": "3b832b35596f091503c2f3699465baed",
			"receipt": {
				"blockHash": "0x7ed6672fc2682929c7a2f0139871e952eb9daa454682991458527cbfca7ef7a5",
				"blockNumber": 36135550,
				"contractAddress": null,
				"cumulativeGasUsed": "4007660",
				"from": "0xC034550B542b83BA1De312b21d1C94a9a52B1595",
				"gasPrice": "561760000",
				"gasUsed": "2460552",
				"hash": "0x722ad3b5d9c1edc7aeaf890d5d1cf14c94098a41af910af0dbf8366099d0a62a",
				"index": 3,
				"logs": [
					{
						"address": "0xB5E96127D417b1B3ef8438496a38A143167209c7",
						"blockHash": "0x7ed6672fc2682929c7a2f0139871e952eb9daa454682991458527cbfca7ef7a5",
						"blockNumber": 36135550,
						"data": "0x0000000000000000000000000000000000000000000000000000000000000000",
						"index": 6,
						"topics": [
							"0x572f161235911da04685a68c06adf558fc7e4a36909dca394650e0adc19cc93d",
							"0x000000000000000000000000c034550b542b83ba1de312b21d1c94a9a52b1595",
							"0x000000000000000000000000582b73e9f9ec9fa3ff32b83cfd7e2810a63bbcdb",
							"0xd93b37b39859c740becc9c910fdec1688b2aaa9c34dd4011f7f2060d95f87f49"
						],
						"transactionHash": "0x722ad3b5d9c1edc7aeaf890d5d1cf14c94098a41af910af0dbf8366099d0a62a",
						"transactionIndex": 3
					},
					{
						"address": "0x89BeB14760384C532b587eE00bB42EE307f17e47",
						"blockHash": "0x7ed6672fc2682929c7a2f0139871e952eb9daa454682991458527cbfca7ef7a5",
						"blockNumber": 36135550,
						"data": "0x",
						"index": 7,
						"topics": [
							"0x6895c13664aa4f67288b25d7a21d7aaa34916e355fb9b6fae0a139a9085becb8",
							"0x000000000000000000000000582b73e9f9ec9fa3ff32b83cfd7e2810a63bbcdb"
						],
						"transactionHash": "0x722ad3b5d9c1edc7aeaf890d5d1cf14c94098a41af910af0dbf8366099d0a62a",
						"transactionIndex": 3
					},
					{
						"address": "0x582b73e9F9EC9fa3fF32b83CFD7E2810a63BBCdB",
						"blockHash": "0x7ed6672fc2682929c7a2f0139871e952eb9daa454682991458527cbfca7ef7a5",
						"blockNumber": 36135550,
						"data": "0x0000000000000000000000000000000000000000000000000000000000000005",
						"index": 8,
						"topics": [
							"0xa65fb05c5808f5f389d72edeaf719ce38f4cc55c1f69ca3cbfb31c21501caa07",
							"0x4e729de0820df73ab4e21fd6be94272162dd7081f65565002decdd5bdf706b8e"
						],
						"transactionHash": "0x722ad3b5d9c1edc7aeaf890d5d1cf14c94098a41af910af0dbf8366099d0a62a",
						"transactionIndex": 3
					},
					{
						"address": "0x582b73e9F9EC9fa3fF32b83CFD7E2810a63BBCdB",
						"blockHash": "0x7ed6672fc2682929c7a2f0139871e952eb9daa454682991458527cbfca7ef7a5",
						"blockNumber": 36135550,
						"data": "0x",
						"index": 9,
						"topics": [
							"0x4383d976757d67ca920616be0b6430a681ea9d3dcce8d6d61d4603ca4a9bff63",
							"0x4e729de0820df73ab4e21fd6be94272162dd7081f65565002decdd5bdf706b8e"
						],
						"transactionHash": "0x722ad3b5d9c1edc7aeaf890d5d1cf14c94098a41af910af0dbf8366099d0a62a",
						"transactionIndex": 3
					}
				],
				"logsBloom": "0x000000000800100000400000000a0000000000000008004000000000004000000000000000000000000000000040000100000000000000000000001000000000000000000000200000000000200000000000000000000000000000000000000000000000000000000000000000000000000000000000000008000000000000000000000000000000000100000000000000000000000400400000000000000000004000800010000000000000000000020200000008020000000000000004000000000000000000000000800008000000000004000000000000000000000000000000000000000008000000018000000200000000000000000000000008000000",
				"status": 1,
				"to": "0xB5E96127D417b1B3ef8438496a38A143167209c7"
			},
			"metadata": "{\"compiler\":{\"version\":\"0.8.23+commit.f704f362\"},\"language\":\"Solidity\",\"output\":{\"abi\":[{\"inputs\":[{\"internalType\":\"contract IJBDirectory\",\"name\":\"directory\",\"type\":\"address\"},{\"internalType\":\"contract IJBPermissions\",\"name\":\"permissions\",\"type\":\"address\"},{\"internalType\":\"contract IJB721TiersHookDeployer\",\"name\":\"hookDeployer\",\"type\":\"address\"}],\"stateMutability\":\"nonpayable\",\"type\":\"constructor\"},{\"inputs\":[],\"type\":\"error\",\"name\":\"UNAUTHORIZED\"},{\"inputs\":[],\"stateMutability\":\"view\",\"type\":\"function\",\"name\":\"DIRECTORY\",\"outputs\":[{\"internalType\":\"contract IJBDirectory\",\"name\":\"\",\"type\":\"address\"}]},{\"inputs\":[],\"stateMutability\":\"view\",\"type\":\"function\",\"name\":\"HOOK_DEPLOYER\",\"outputs\":[{\"internalType\":\"contract IJB721TiersHookDeployer\",\"name\":\"\",\"type\":\"address\"}]},{\"inputs\":[],\"stateMutability\":\"view\",\"type\":\"function\",\"name\":\"PERMISSIONS\",\"outputs\":[{\"internalType\":\"contract IJBPermissions\",\"name\":\"\",\"type\":\"address\"}]},{\"inputs\":[{\"internalType\":\"address\",\"name\":\"owner\",\"type\":\"address\"},{\"internalType\":\"struct JBDeploy721TiersHookConfig\",\"name\":\"deployTiersHookConfig\",\"type\":\"tuple\",\"components\":[{\"internalType\":\"string\",\"name\":\"name\",\"type\":\"string\"},{\"internalType\":\"string\",\"name\":\"symbol\",\"type\":\"string\"},{\"internalType\":\"contract IJBRulesets\",\"name\":\"rulesets\",\"type\":\"address\"},{\"internalType\":\"string\",\"name\":\"baseUri\",\"type\":\"string\"},{\"internalType\":\"contract IJB721TokenUriResolver\",\"name\":\"tokenUriResolver\",\"type\":\"address\"},{\"internalType\":\"string\",\"name\":\"contractUri\",\"type\":\"string\"},{\"internalType\":\"struct JB721InitTiersConfig\",\"name\":\"tiersConfig\",\"type\":\"tuple\",\"components\":[{\"internalType\":\"struct JB721TierConfig[]\",\"name\":\"tiers\",\"type\":\"tuple[]\",\"components\":[{\"internalType\":\"uint104\",\"name\":\"price\",\"type\":\"uint104\"},{\"internalType\":\"uint32\",\"name\":\"initialSupply\",\"type\":\"uint32\"},{\"internalType\":\"uint32\",\"name\":\"votingUnits\",\"type\":\"uint32\"},{\"internalType\":\"uint16\",\"name\":\"reserveFrequency\",\"type\":\"uint16\"},{\"internalType\":\"address\",\"name\":\"reserveBeneficiary\",\"type\":\"address\"},{\"internalType\":\"bytes32\",\"name\":\"encodedIPFSUri\",\"type\":\"bytes32\"},{\"internalType\":\"uint24\",\"name\":\"category\",\"type\":\"uint24\"},{\"internalType\":\"bool\",\"name\":\"allowOwnerMint\",\"type\":\"bool\"},{\"internalType\":\"bool\",\"name\":\"useReserveBeneficiaryAsDefault\",\"type\":\"bool\"},{\"internalType\":\"bool\",\"name\":\"transfersPausable\",\"type\":\"bool\"},{\"internalType\":\"bool\",\"name\":\"useVotingUnits\",\"type\":\"bool\"},{\"internalType\":\"bool\",\"name\":\"cannotBeRemoved\",\"type\":\"bool\"}]},{\"internalType\":\"uint32\",\"name\":\"currency\",\"type\":\"uint32\"},{\"internalType\":\"uint8\",\"name\":\"decimals\",\"type\":\"uint8\"},{\"internalType\":\"contract IJBPrices\",\"name\":\"prices\",\"type\":\"address\"}]},{\"internalType\":\"address\",\"name\":\"reserveBeneficiary\",\"type\":\"address\"},{\"internalType\":\"struct JB721TiersHookFlags\",\"name\":\"flags\",\"type\":\"tuple\",\"components\":[{\"internalType\":\"bool\",\"name\":\"noNewTiersWithReserves\",\"type\":\"bool\"},{\"internalType\":\"bool\",\"name\":\"noNewTiersWithVotes\",\"type\":\"bool\"},{\"internalType\":\"bool\",\"name\":\"noNewTiersWithOwnerMinting\",\"type\":\"bool\"},{\"internalType\":\"bool\",\"name\":\"preventOverspending\",\"type\":\"bool\"}]}]},{\"internalType\":\"struct JBLaunchProjectConfig\",\"name\":\"launchProjectConfig\",\"type\":\"tuple\",\"components\":[{\"internalType\":\"string\",\"name\":\"projectUri\",\"type\":\"string\"},{\"internalType\":\"struct JBPayDataHookRulesetConfig[]\",\"name\":\"rulesetConfigurations\",\"type\":\"tuple[]\",\"components\":[{\"internalType\":\"uint256\",\"name\":\"mustStartAtOrAfter\",\"type\":\"uint256\"},{\"internalType\":\"uint256\",\"name\":\"duration\",\"type\":\"uint256\"},{\"internalType\":\"uint256\",\"name\":\"weight\",\"type\":\"uint256\"},{\"internalType\":\"uint256\",\"name\":\"decayRate\",\"type\":\"uint256\"},{\"internalType\":\"contract IJBRulesetApprovalHook\",\"name\":\"approvalHook\",\"type\":\"address\"},{\"internalType\":\"struct JBPayDataHookRulesetMetadata\",\"name\":\"metadata\",\"type\":\"tuple\",\"components\":[{\"internalType\":\"uint256\",\"name\":\"reservedRate\",\"type\":\"uint256\"},{\"internalType\":\"uint256\",\"name\":\"redemptionRate\",\"type\":\"uint256\"},{\"internalType\":\"uint256\",\"name\":\"baseCurrency\",\"type\":\"uint256\"},{\"internalType\":\"bool\",\"name\":\"pausePay\",\"type\":\"bool\"},{\"internalType\":\"bool\",\"name\":\"pauseCreditTransfers\",\"type\":\"bool\"},{\"internalType\":\"bool\",\"name\":\"allowOwnerMinting\",\"type\":\"bool\"},{\"internalType\":\"bool\",\"name\":\"allowTerminalMigration\",\"type\":\"bool\"},{\"internalType\":\"bool\",\"name\":\"allowSetTerminals\",\"type\":\"bool\"},{\"internalType\":\"bool\",\"name\":\"allowControllerMigration\",\"type\":\"bool\"},{\"internalType\":\"bool\",\"name\":\"allowSetController\",\"type\":\"bool\"},{\"internalType\":\"bool\",\"name\":\"holdFees\",\"type\":\"bool\"},{\"internalType\":\"bool\",\"name\":\"useTotalSurplusForRedemptions\",\"type\":\"bool\"},{\"internalType\":\"bool\",\"name\":\"useDataHookForRedeem\",\"type\":\"bool\"},{\"internalType\":\"uint256\",\"name\":\"metadata\",\"type\":\"uint256\"}]},{\"internalType\":\"struct JBSplitGroup[]\",\"name\":\"splitGroups\",\"type\":\"tuple[]\",\"components\":[{\"internalType\":\"uint256\",\"name\":\"groupId\",\"type\":\"uint256\"},{\"internalType\":\"struct JBSplit[]\",\"name\":\"splits\",\"type\":\"tuple[]\",\"components\":[{\"internalType\":\"bool\",\"name\":\"preferAddToBalance\",\"type\":\"bool\"},{\"internalType\":\"uint256\",\"name\":\"percent\",\"type\":\"uint256\"},{\"internalType\":\"uint256\",\"name\":\"projectId\",\"type\":\"uint256\"},{\"internalType\":\"address payable\",\"name\":\"beneficiary\",\"type\":\"address\"},{\"internalType\":\"uint256\",\"name\":\"lockedUntil\",\"type\":\"uint256\"},{\"internalType\":\"contract IJBSplitHook\",\"name\":\"hook\",\"type\":\"address\"}]}]},{\"internalType\":\"struct JBFundAccessLimitGroup[]\",\"name\":\"fundAccessLimitGroups\",\"type\":\"tuple[]\",\"components\":[{\"internalType\":\"address\",\"name\":\"terminal\",\"type\":\"address\"},{\"internalType\":\"address\",\"name\":\"token\",\"type\":\"address\"},{\"internalType\":\"struct JBCurrencyAmount[]\",\"name\":\"payoutLimits\",\"type\":\"tuple[]\",\"components\":[{\"internalType\":\"uint256\",\"name\":\"amount\",\"type\":\"uint256\"},{\"internalType\":\"uint256\",\"name\":\"currency\",\"type\":\"uint256\"}]},{\"internalType\":\"struct JBCurrencyAmount[]\",\"name\":\"surplusAllowances\",\"type\":\"tuple[]\",\"components\":[{\"internalType\":\"uint256\",\"name\":\"amount\",\"type\":\"uint256\"},{\"internalType\":\"uint256\",\"name\":\"currency\",\"type\":\"uint256\"}]}]}]},{\"internalType\":\"struct JBTerminalConfig[]\",\"name\":\"terminalConfigurations\",\"type\":\"tuple[]\",\"components\":[{\"internalType\":\"contract IJBTerminal\",\"name\":\"terminal\",\"type\":\"address\"},{\"internalType\":\"address[]\",\"name\":\"tokensToAccept\",\"type\":\"address[]\"}]},{\"internalType\":\"string\",\"name\":\"memo\",\"type\":\"string\"}]},{\"internalType\":\"contract IJBController\",\"name\":\"controller\",\"type\":\"address\"}],\"stateMutability\":\"nonpayable\",\"type\":\"function\",\"name\":\"launchProjectFor\",\"outputs\":[{\"internalType\":\"uint256\",\"name\":\"projectId\",\"type\":\"uint256\"}]},{\"inputs\":[{\"internalType\":\"uint256\",\"name\":\"projectId\",\"type\":\"uint256\"},{\"internalType\":\"struct JBDeploy721TiersHookConfig\",\"name\":\"deployTiersHookConfig\",\"type\":\"tuple\",\"components\":[{\"internalType\":\"string\",\"name\":\"name\",\"type\":\"string\"},{\"internalType\":\"string\",\"name\":\"symbol\",\"type\":\"string\"},{\"internalType\":\"contract IJBRulesets\",\"name\":\"rulesets\",\"type\":\"address\"},{\"internalType\":\"string\",\"name\":\"baseUri\",\"type\":\"string\"},{\"internalType\":\"contract IJB721TokenUriResolver\",\"name\":\"tokenUriResolver\",\"type\":\"address\"},{\"internalType\":\"string\",\"name\":\"contractUri\",\"type\":\"string\"},{\"internalType\":\"struct JB721InitTiersConfig\",\"name\":\"tiersConfig\",\"type\":\"tuple\",\"components\":[{\"internalType\":\"struct JB721TierConfig[]\",\"name\":\"tiers\",\"type\":\"tuple[]\",\"components\":[{\"internalType\":\"uint104\",\"name\":\"price\",\"type\":\"uint104\"},{\"internalType\":\"uint32\",\"name\":\"initialSupply\",\"type\":\"uint32\"},{\"internalType\":\"uint32\",\"name\":\"votingUnits\",\"type\":\"uint32\"},{\"internalType\":\"uint16\",\"name\":\"reserveFrequency\",\"type\":\"uint16\"},{\"internalType\":\"address\",\"name\":\"reserveBeneficiary\",\"type\":\"address\"},{\"internalType\":\"bytes32\",\"name\":\"encodedIPFSUri\",\"type\":\"bytes32\"},{\"internalType\":\"uint24\",\"name\":\"category\",\"type\":\"uint24\"},{\"internalType\":\"bool\",\"name\":\"allowOwnerMint\",\"type\":\"bool\"},{\"internalType\":\"bool\",\"name\":\"useReserveBeneficiaryAsDefault\",\"type\":\"bool\"},{\"internalType\":\"bool\",\"name\":\"transfersPausable\",\"type\":\"bool\"},{\"internalType\":\"bool\",\"name\":\"useVotingUnits\",\"type\":\"bool\"},{\"internalType\":\"bool\",\"name\":\"cannotBeRemoved\",\"type\":\"bool\"}]},{\"internalType\":\"uint32\",\"name\":\"currency\",\"type\":\"uint32\"},{\"internalType\":\"uint8\",\"name\":\"decimals\",\"type\":\"uint8\"},{\"internalType\":\"contract IJBPrices\",\"name\":\"prices\",\"type\":\"address\"}]},{\"internalType\":\"address\",\"name\":\"reserveBeneficiary\",\"type\":\"address\"},{\"internalType\":\"struct JB721TiersHookFlags\",\"name\":\"flags\",\"type\":\"tuple\",\"components\":[{\"internalType\":\"bool\",\"name\":\"noNewTiersWithReserves\",\"type\":\"bool\"},{\"internalType\":\"bool\",\"name\":\"noNewTiersWithVotes\",\"type\":\"bool\"},{\"internalType\":\"bool\",\"name\":\"noNewTiersWithOwnerMinting\",\"type\":\"bool\"},{\"internalType\":\"bool\",\"name\":\"preventOverspending\",\"type\":\"bool\"}]}]},{\"internalType\":\"struct JBLaunchRulesetsConfig\",\"name\":\"launchRulesetsConfig\",\"type\":\"tuple\",\"components\":[{\"internalType\":\"uint256\",\"name\":\"projectId\",\"type\":\"uint256\"},{\"internalType\":\"struct JBPayDataHookRulesetConfig[]\",\"name\":\"rulesetConfigurations\",\"type\":\"tuple[]\",\"components\":[{\"internalType\":\"uint256\",\"name\":\"mustStartAtOrAfter\",\"type\":\"uint256\"},{\"internalType\":\"uint256\",\"name\":\"duration\",\"type\":\"uint256\"},{\"internalType\":\"uint256\",\"name\":\"weight\",\"type\":\"uint256\"},{\"internalType\":\"uint256\",\"name\":\"decayRate\",\"type\":\"uint256\"},{\"internalType\":\"contract IJBRulesetApprovalHook\",\"name\":\"approvalHook\",\"type\":\"address\"},{\"internalType\":\"struct JBPayDataHookRulesetMetadata\",\"name\":\"metadata\",\"type\":\"tuple\",\"components\":[{\"internalType\":\"uint256\",\"name\":\"reservedRate\",\"type\":\"uint256\"},{\"internalType\":\"uint256\",\"name\":\"redemptionRate\",\"type\":\"uint256\"},{\"internalType\":\"uint256\",\"name\":\"baseCurrency\",\"type\":\"uint256\"},{\"internalType\":\"bool\",\"name\":\"pausePay\",\"type\":\"bool\"},{\"internalType\":\"bool\",\"name\":\"pauseCreditTransfers\",\"type\":\"bool\"},{\"internalType\":\"bool\",\"name\":\"allowOwnerMinting\",\"type\":\"bool\"},{\"internalType\":\"bool\",\"name\":\"allowTerminalMigration\",\"type\":\"bool\"},{\"internalType\":\"bool\",\"name\":\"allowSetTerminals\",\"type\":\"bool\"},{\"internalType\":\"bool\",\"name\":\"allowControllerMigration\",\"type\":\"bool\"},{\"internalType\":\"bool\",\"name\":\"allowSetController\",\"type\":\"bool\"},{\"internalType\":\"bool\",\"name\":\"holdFees\",\"type\":\"bool\"},{\"internalType\":\"bool\",\"name\":\"useTotalSurplusForRedemptions\",\"type\":\"bool\"},{\"internalType\":\"bool\",\"name\":\"useDataHookForRedeem\",\"type\":\"bool\"},{\"internalType\":\"uint256\",\"name\":\"metadata\",\"type\":\"uint256\"}]},{\"internalType\":\"struct JBSplitGroup[]\",\"name\":\"splitGroups\",\"type\":\"tuple[]\",\"components\":[{\"internalType\":\"uint256\",\"name\":\"groupId\",\"type\":\"uint256\"},{\"internalType\":\"struct JBSplit[]\",\"name\":\"splits\",\"type\":\"tuple[]\",\"components\":[{\"internalType\":\"bool\",\"name\":\"preferAddToBalance\",\"type\":\"bool\"},{\"internalType\":\"uint256\",\"name\":\"percent\",\"type\":\"uint256\"},{\"internalType\":\"uint256\",\"name\":\"projectId\",\"type\":\"uint256\"},{\"internalType\":\"address payable\",\"name\":\"beneficiary\",\"type\":\"address\"},{\"internalType\":\"uint256\",\"name\":\"lockedUntil\",\"type\":\"uint256\"},{\"internalType\":\"contract IJBSplitHook\",\"name\":\"hook\",\"type\":\"address\"}]}]},{\"internalType\":\"struct JBFundAccessLimitGroup[]\",\"name\":\"fundAccessLimitGroups\",\"type\":\"tuple[]\",\"components\":[{\"internalType\":\"address\",\"name\":\"terminal\",\"type\":\"address\"},{\"internalType\":\"address\",\"name\":\"token\",\"type\":\"address\"},{\"internalType\":\"struct JBCurrencyAmount[]\",\"name\":\"payoutLimits\",\"type\":\"tuple[]\",\"components\":[{\"internalType\":\"uint256\",\"name\":\"amount\",\"type\":\"uint256\"},{\"internalType\":\"uint256\",\"name\":\"currency\",\"type\":\"uint256\"}]},{\"internalType\":\"struct JBCurrencyAmount[]\",\"name\":\"surplusAllowances\",\"type\":\"tuple[]\",\"components\":[{\"internalType\":\"uint256\",\"name\":\"amount\",\"type\":\"uint256\"},{\"internalType\":\"uint256\",\"name\":\"currency\",\"type\":\"uint256\"}]}]}]},{\"internalType\":\"struct JBTerminalConfig[]\",\"name\":\"terminalConfigurations\",\"type\":\"tuple[]\",\"components\":[{\"internalType\":\"contract IJBTerminal\",\"name\":\"terminal\",\"type\":\"address\"},{\"internalType\":\"address[]\",\"name\":\"tokensToAccept\",\"type\":\"address[]\"}]},{\"internalType\":\"string\",\"name\":\"memo\",\"type\":\"string\"}]},{\"internalType\":\"contract IJBController\",\"name\":\"controller\",\"type\":\"address\"}],\"stateMutability\":\"nonpayable\",\"type\":\"function\",\"name\":\"launchRulesetsFor\",\"outputs\":[{\"internalType\":\"uint256\",\"name\":\"rulesetId\",\"type\":\"uint256\"}]},{\"inputs\":[{\"internalType\":\"uint256\",\"name\":\"projectId\",\"type\":\"uint256\"},{\"internalType\":\"struct JBDeploy721TiersHookConfig\",\"name\":\"deployTiersHookConfig\",\"type\":\"tuple\",\"components\":[{\"internalType\":\"string\",\"name\":\"name\",\"type\":\"string\"},{\"internalType\":\"string\",\"name\":\"symbol\",\"type\":\"string\"},{\"internalType\":\"contract IJBRulesets\",\"name\":\"rulesets\",\"type\":\"address\"},{\"internalType\":\"string\",\"name\":\"baseUri\",\"type\":\"string\"},{\"internalType\":\"contract IJB721TokenUriResolver\",\"name\":\"tokenUriResolver\",\"type\":\"address\"},{\"internalType\":\"string\",\"name\":\"contractUri\",\"type\":\"string\"},{\"internalType\":\"struct JB721InitTiersConfig\",\"name\":\"tiersConfig\",\"type\":\"tuple\",\"components\":[{\"internalType\":\"struct JB721TierConfig[]\",\"name\":\"tiers\",\"type\":\"tuple[]\",\"components\":[{\"internalType\":\"uint104\",\"name\":\"price\",\"type\":\"uint104\"},{\"internalType\":\"uint32\",\"name\":\"initialSupply\",\"type\":\"uint32\"},{\"internalType\":\"uint32\",\"name\":\"votingUnits\",\"type\":\"uint32\"},{\"internalType\":\"uint16\",\"name\":\"reserveFrequency\",\"type\":\"uint16\"},{\"internalType\":\"address\",\"name\":\"reserveBeneficiary\",\"type\":\"address\"},{\"internalType\":\"bytes32\",\"name\":\"encodedIPFSUri\",\"type\":\"bytes32\"},{\"internalType\":\"uint24\",\"name\":\"category\",\"type\":\"uint24\"},{\"internalType\":\"bool\",\"name\":\"allowOwnerMint\",\"type\":\"bool\"},{\"internalType\":\"bool\",\"name\":\"useReserveBeneficiaryAsDefault\",\"type\":\"bool\"},{\"internalType\":\"bool\",\"name\":\"transfersPausable\",\"type\":\"bool\"},{\"internalType\":\"bool\",\"name\":\"useVotingUnits\",\"type\":\"bool\"},{\"internalType\":\"bool\",\"name\":\"cannotBeRemoved\",\"type\":\"bool\"}]},{\"internalType\":\"uint32\",\"name\":\"currency\",\"type\":\"uint32\"},{\"internalType\":\"uint8\",\"name\":\"decimals\",\"type\":\"uint8\"},{\"internalType\":\"contract IJBPrices\",\"name\":\"prices\",\"type\":\"address\"}]},{\"internalType\":\"address\",\"name\":\"reserveBeneficiary\",\"type\":\"address\"},{\"internalType\":\"struct JB721TiersHookFlags\",\"name\":\"flags\",\"type\":\"tuple\",\"components\":[{\"internalType\":\"bool\",\"name\":\"noNewTiersWithReserves\",\"type\":\"bool\"},{\"internalType\":\"bool\",\"name\":\"noNewTiersWithVotes\",\"type\":\"bool\"},{\"internalType\":\"bool\",\"name\":\"noNewTiersWithOwnerMinting\",\"type\":\"bool\"},{\"internalType\":\"bool\",\"name\":\"preventOverspending\",\"type\":\"bool\"}]}]},{\"internalType\":\"struct JBQueueRulesetsConfig\",\"name\":\"queueRulesetsConfig\",\"type\":\"tuple\",\"components\":[{\"internalType\":\"uint256\",\"name\":\"projectId\",\"type\":\"uint256\"},{\"internalType\":\"struct JBPayDataHookRulesetConfig[]\",\"name\":\"rulesetConfigurations\",\"type\":\"tuple[]\",\"components\":[{\"internalType\":\"uint256\",\"name\":\"mustStartAtOrAfter\",\"type\":\"uint256\"},{\"internalType\":\"uint256\",\"name\":\"duration\",\"type\":\"uint256\"},{\"internalType\":\"uint256\",\"name\":\"weight\",\"type\":\"uint256\"},{\"internalType\":\"uint256\",\"name\":\"decayRate\",\"type\":\"uint256\"},{\"internalType\":\"contract IJBRulesetApprovalHook\",\"name\":\"approvalHook\",\"type\":\"address\"},{\"internalType\":\"struct JBPayDataHookRulesetMetadata\",\"name\":\"metadata\",\"type\":\"tuple\",\"components\":[{\"internalType\":\"uint256\",\"name\":\"reservedRate\",\"type\":\"uint256\"},{\"internalType\":\"uint256\",\"name\":\"redemptionRate\",\"type\":\"uint256\"},{\"internalType\":\"uint256\",\"name\":\"baseCurrency\",\"type\":\"uint256\"},{\"internalType\":\"bool\",\"name\":\"pausePay\",\"type\":\"bool\"},{\"internalType\":\"bool\",\"name\":\"pauseCreditTransfers\",\"type\":\"bool\"},{\"internalType\":\"bool\",\"name\":\"allowOwnerMinting\",\"type\":\"bool\"},{\"internalType\":\"bool\",\"name\":\"allowTerminalMigration\",\"type\":\"bool\"},{\"internalType\":\"bool\",\"name\":\"allowSetTerminals\",\"type\":\"bool\"},{\"internalType\":\"bool\",\"name\":\"allowControllerMigration\",\"type\":\"bool\"},{\"internalType\":\"bool\",\"name\":\"allowSetController\",\"type\":\"bool\"},{\"internalType\":\"bool\",\"name\":\"holdFees\",\"type\":\"bool\"},{\"internalType\":\"bool\",\"name\":\"useTotalSurplusForRedemptions\",\"type\":\"bool\"},{\"internalType\":\"bool\",\"name\":\"useDataHookForRedeem\",\"type\":\"bool\"},{\"internalType\":\"uint256\",\"name\":\"metadata\",\"type\":\"uint256\"}]},{\"internalType\":\"struct JBSplitGroup[]\",\"name\":\"splitGroups\",\"type\":\"tuple[]\",\"components\":[{\"internalType\":\"uint256\",\"name\":\"groupId\",\"type\":\"uint256\"},{\"internalType\":\"struct JBSplit[]\",\"name\":\"splits\",\"type\":\"tuple[]\",\"components\":[{\"internalType\":\"bool\",\"name\":\"preferAddToBalance\",\"type\":\"bool\"},{\"internalType\":\"uint256\",\"name\":\"percent\",\"type\":\"uint256\"},{\"internalType\":\"uint256\",\"name\":\"projectId\",\"type\":\"uint256\"},{\"internalType\":\"address payable\",\"name\":\"beneficiary\",\"type\":\"address\"},{\"internalType\":\"uint256\",\"name\":\"lockedUntil\",\"type\":\"uint256\"},{\"internalType\":\"contract IJBSplitHook\",\"name\":\"hook\",\"type\":\"address\"}]}]},{\"internalType\":\"struct JBFundAccessLimitGroup[]\",\"name\":\"fundAccessLimitGroups\",\"type\":\"tuple[]\",\"components\":[{\"internalType\":\"address\",\"name\":\"terminal\",\"type\":\"address\"},{\"internalType\":\"address\",\"name\":\"token\",\"type\":\"address\"},{\"internalType\":\"struct JBCurrencyAmount[]\",\"name\":\"payoutLimits\",\"type\":\"tuple[]\",\"components\":[{\"internalType\":\"uint256\",\"name\":\"amount\",\"type\":\"uint256\"},{\"internalType\":\"uint256\",\"name\":\"currency\",\"type\":\"uint256\"}]},{\"internalType\":\"struct JBCurrencyAmount[]\",\"name\":\"surplusAllowances\",\"type\":\"tuple[]\",\"components\":[{\"internalType\":\"uint256\",\"name\":\"amount\",\"type\":\"uint256\"},{\"internalType\":\"uint256\",\"name\":\"currency\",\"type\":\"uint256\"}]}]}]},{\"internalType\":\"string\",\"name\":\"memo\",\"type\":\"string\"}]},{\"internalType\":\"contract IJBController\",\"name\":\"controller\",\"type\":\"address\"}],\"stateMutability\":\"nonpayable\",\"type\":\"function\",\"name\":\"queueRulesetsOf\",\"outputs\":[{\"internalType\":\"uint256\",\"name\":\"rulesetId\",\"type\":\"uint256\"}]}],\"devdoc\":{\"kind\":\"dev\",\"methods\":{\"constructor\":{\"params\":{\"directory\":\"The directory of terminals and controllers for projects.\",\"hookDeployer\":\"The 721 tiers hook deployer.\",\"permissions\":\"A contract storing permissions.\"}},\"launchProjectFor(address,(string,string,address,string,address,string,((uint104,uint32,uint32,uint16,address,bytes32,uint24,bool,bool,bool,bool,bool)[],uint32,uint8,address),address,(bool,bool,bool,bool)),(string,(uint256,uint256,uint256,uint256,address,(uint256,uint256,uint256,bool,bool,bool,bool,bool,bool,bool,bool,bool,bool,uint256),(uint256,(bool,uint256,uint256,address,uint256,address)[])[],(address,address,(uint256,uint256)[],(uint256,uint256)[])[])[],(address,address[])[],string),address)\":{\"params\":{\"controller\":\"The controller that the project's rulesets will be queued with.\",\"deployTiersHookConfig\":\"Configuration which dictates the behavior of the 721 tiers hook which is being deployed.\",\"launchProjectConfig\":\"Configuration which dictates the behavior of the project which is being launched.\",\"owner\":\"The address to set as the owner of the project. The ERC-721 which confers this project's ownership will be sent to this address.\"},\"returns\":{\"projectId\":\"The ID of the newly launched project.\"}},\"launchRulesetsFor(uint256,(string,string,address,string,address,string,((uint104,uint32,uint32,uint16,address,bytes32,uint24,bool,bool,bool,bool,bool)[],uint32,uint8,address),address,(bool,bool,bool,bool)),(uint256,(uint256,uint256,uint256,uint256,address,(uint256,uint256,uint256,bool,bool,bool,bool,bool,bool,bool,bool,bool,bool,uint256),(uint256,(bool,uint256,uint256,address,uint256,address)[])[],(address,address,(uint256,uint256)[],(uint256,uint256)[])[])[],(address,address[])[],string),address)\":{\"details\":\"Only a project's owner or an operator with the `QUEUE_RULESETS` permission can launch its rulesets.\",\"params\":{\"controller\":\"The controller that the project's rulesets will be queued with.\",\"deployTiersHookConfig\":\"Configuration which dictates the behavior of the 721 tiers hook which is being deployed.\",\"launchRulesetsConfig\":\"Configuration which dictates the project's new rulesets.\",\"projectId\":\"The ID of the project that rulesets are being launched for.\"},\"returns\":{\"rulesetId\":\"The ID of the successfully created ruleset.\"}},\"queueRulesetsOf(uint256,(string,string,address,string,address,string,((uint104,uint32,uint32,uint16,address,bytes32,uint24,bool,bool,bool,bool,bool)[],uint32,uint8,address),address,(bool,bool,bool,bool)),(uint256,(uint256,uint256,uint256,uint256,address,(uint256,uint256,uint256,bool,bool,bool,bool,bool,bool,bool,bool,bool,bool,uint256),(uint256,(bool,uint256,uint256,address,uint256,address)[])[],(address,address,(uint256,uint256)[],(uint256,uint256)[])[])[],string),address)\":{\"details\":\"Only a project's owner or an operator with the `QUEUE_RULESETS` permission can queue its rulesets.\",\"params\":{\"controller\":\"The controller that the project's rulesets will be queued with.\",\"deployTiersHookConfig\":\"Configuration which dictates the behavior of the 721 tiers hook which is being deployed.\",\"projectId\":\"The ID of the project that rulesets are being queued for.\",\"queueRulesetsConfig\":\"Configuration which dictates the project's newly queued rulesets.\"},\"returns\":{\"rulesetId\":\"The ID of the successfully created ruleset.\"}}},\"version\":1},\"userdoc\":{\"kind\":\"user\",\"methods\":{\"DIRECTORY()\":{\"notice\":\"The directory of terminals and controllers for projects.\"},\"HOOK_DEPLOYER()\":{\"notice\":\"The 721 tiers hook deployer.\"},\"PERMISSIONS()\":{\"notice\":\"A contract storing permissions.\"},\"launchProjectFor(address,(string,string,address,string,address,string,((uint104,uint32,uint32,uint16,address,bytes32,uint24,bool,bool,bool,bool,bool)[],uint32,uint8,address),address,(bool,bool,bool,bool)),(string,(uint256,uint256,uint256,uint256,address,(uint256,uint256,uint256,bool,bool,bool,bool,bool,bool,bool,bool,bool,bool,uint256),(uint256,(bool,uint256,uint256,address,uint256,address)[])[],(address,address,(uint256,uint256)[],(uint256,uint256)[])[])[],(address,address[])[],string),address)\":{\"notice\":\"Launches a new project with a 721 tiers hook attached.\"},\"launchRulesetsFor(uint256,(string,string,address,string,address,string,((uint104,uint32,uint32,uint16,address,bytes32,uint24,bool,bool,bool,bool,bool)[],uint32,uint8,address),address,(bool,bool,bool,bool)),(uint256,(uint256,uint256,uint256,uint256,address,(uint256,uint256,uint256,bool,bool,bool,bool,bool,bool,bool,bool,bool,bool,uint256),(uint256,(bool,uint256,uint256,address,uint256,address)[])[],(address,address,(uint256,uint256)[],(uint256,uint256)[])[])[],(address,address[])[],string),address)\":{\"notice\":\"Launches rulesets for a project with an attached 721 tiers hook.\"},\"queueRulesetsOf(uint256,(string,string,address,string,address,string,((uint104,uint32,uint32,uint16,address,bytes32,uint24,bool,bool,bool,bool,bool)[],uint32,uint8,address),address,(bool,bool,bool,bool)),(uint256,(uint256,uint256,uint256,uint256,address,(uint256,uint256,uint256,bool,bool,bool,bool,bool,bool,bool,bool,bool,bool,uint256),(uint256,(bool,uint256,uint256,address,uint256,address)[])[],(address,address,(uint256,uint256)[],(uint256,uint256)[])[])[],string),address)\":{\"notice\":\"Queues rulesets for a project with an attached 721 tiers hook.\"}},\"version\":1}},\"settings\":{\"remappings\":[\"@bananapus/=node_modules/@bananapus/\",\"@chainlink/=node_modules/@chainlink/\",\"@eth-optimism/=node_modules/@eth-optimism/\",\"@openzeppelin/=node_modules/@openzeppelin/\",\"@prb/=node_modules/@prb/\",\"@scroll-tech/=node_modules/@scroll-tech/\",\"@sphinx-labs/contracts/=node_modules/@sphinx-labs/contracts/contracts/foundry/\",\"@uniswap/=node_modules/@uniswap/\",\"ds-test/=lib/forge-std/lib/ds-test/src/\",\"forge-std/=lib/forge-std/src/\",\"hardhat/=node_modules/hardhat/\",\"solmate/=node_modules/solmate/\",\"sphinx/=lib/sphinx/packages/contracts/contracts/forge-std/src/\"],\"optimizer\":{\"enabled\":true,\"runs\":1000},\"metadata\":{\"bytecodeHash\":\"ipfs\"},\"compilationTarget\":{\"src/JB721TiersHookProjectDeployer.sol\":\"JB721TiersHookProjectDeployer\"},\"evmVersion\":\"paris\",\"libraries\":{}},\"sources\":{\"node_modules/@bananapus/core/src/abstract/JBPermissioned.sol\":{\"keccak256\":\"0xe08c8a7eeac9d1c7c2e0db6d5b98d1af09889300835a3d47d9f29319fecce703\",\"urls\":[\"bzz-raw://42645cf52bcc45053ef650790916faed5d0a74cecef336b217433fdd2c5c4166\",\"dweb:/ipfs/QmdMmxG1tSGucQwz4LYbVnuj7HU23YvqLH6xfrNWv5Bmus\"],\"license\":\"MIT\"},\"node_modules/@bananapus/core/src/enums/JBApprovalStatus.sol\":{\"keccak256\":\"0x61c69b6bac7d24b566d87cda23a77e4ca9cdb87200b106aba8534cb9a0973e33\",\"urls\":[\"bzz-raw://6a9ca7249de76f77a8252eefe6bd1b63d47952f25a2acfa2c8db967cdff4470c\",\"dweb:/ipfs/QmaxSxptRQNj8bNy96EreENmrnRWdKmhyihBcxyWzBX5BN\"],\"license\":\"MIT\"},\"node_modules/@bananapus/core/src/interfaces/IJBController.sol\":{\"keccak256\":\"0xe0b84058192f89e461c4b604388aa11a2f92f0f9969fb70fb3c18706d6f3e16b\",\"urls\":[\"bzz-raw://984fdcff63a17ccab65ff7723a628967e40965fcb4d47909cf8e314e8f044576\",\"dweb:/ipfs/QmaaHZWuaaH3oYxCDrip1rr4u4H1XtR3RcwwKAE73GAqkd\"],\"license\":\"MIT\"},\"node_modules/@bananapus/core/src/interfaces/IJBDirectory.sol\":{\"keccak256\":\"0x9cc380844aef60078ee47a61861e55a29c4a8c947efd556ebd36e6909f7b9d62\",\"urls\":[\"bzz-raw://9f5190ec8b6683d9781ee6e9eedcc91294753242748875d4a06349077e4cbaaf\",\"dweb:/ipfs/QmTQrPuXT9TCA4txwrperMeXSGvGxP8iokUK47f62F388i\"],\"license\":\"MIT\"},\"node_modules/@bananapus/core/src/interfaces/IJBDirectoryAccessControl.sol\":{\"keccak256\":\"0x1e67f56849320a46f834aaa9bd62b170ff8ada7b224b4a81136193740fa0be4d\",\"urls\":[\"bzz-raw://ea8fbcec44abfe49d137bcae129b67e5479d6b17879301f88534c8a7fab00be4\",\"dweb:/ipfs/QmT6wrtYX4GRpffHUzupNwYebJ1dqkkKZLEewWsoyunsqw\"],\"license\":\"MIT\"},\"node_modules/@bananapus/core/src/interfaces/IJBFundAccessLimits.sol\":{\"keccak256\":\"0xf5fd6bdd723b60d490ccbe22cdf1cfe43663d23e6ee48badcd1b71e3282cb16b\",\"urls\":[\"bzz-raw://fe692f0b843ea5fccdfcb68f4ec16e1c0add945bb74b303c9866342be0e31fbf\",\"dweb:/ipfs/QmSRmzpgp3DhNEhNDiLsSu7yEiTeywbzEFbwyGyDazjgKt\"],\"license\":\"MIT\"},\"node_modules/@bananapus/core/src/interfaces/IJBMigratable.sol\":{\"keccak256\":\"0xd69bd5aba01a68d82c303ef3adde47532abcace030a94296c3ea6988b401789c\",\"urls\":[\"bzz-raw://88f11a1c89899327746beba4fc830abf3ac2eb9c152c778e884a6eed6564971f\",\"dweb:/ipfs/QmTpKhSTVewpz7VyKcz6BJwH2LFKMwT7Qi5HNWmjEjwsdK\"],\"license\":\"MIT\"},\"node_modules/@bananapus/core/src/interfaces/IJBPayHook.sol\":{\"keccak256\":\"0x9438866782c652c2942f4d114e35f393cd3c8b0334abce8387eed90bca35e8b2\",\"urls\":[\"bzz-raw://cfd99daf57213f92325aad7d7d16e98476d38e870470e95ba01e3ae3cdecc95d\",\"dweb:/ipfs/QmUKKAVGf7ki8BHksr99tFcRW8APveeB5tNH63ctTbbCW8\"],\"license\":\"MIT\"},\"node_modules/@bananapus/core/src/interfaces/IJBPermissioned.sol\":{\"keccak256\":\"0x5b038d4dee116584e88b230920e56d48e135053e3f7e5642eaea14a775c1dad7\",\"urls\":[\"bzz-raw://19e43102f349fd4a1da1c0943ffb8f2950007fe4bb4bb7e8f74fc142575d091b\",\"dweb:/ipfs/QmXHAt4KzDTdDZgDDefEXH2WKi7NcfkJb9R7nxW5uDqsNp\"],\"license\":\"MIT\"},\"node_modules/@bananapus/core/src/interfaces/IJBPermissions.sol\":{\"keccak256\":\"0x18870e500edf0fbadc353e273a5574701fb80466376b908c65e7cc3f11044d4d\",\"urls\":[\"bzz-raw://352a47c45853aec80e7acf0d286ade3106eb4cb456776b28a3c2f3f1091bed90\",\"dweb:/ipfs/QmQeYd3YbudYZy2hfbfht9kwhxhw4tuuLKMEYy9UY6dcSy\"],\"license\":\"MIT\"},\"node_modules/@bananapus/core/src/interfaces/IJBPriceFeed.sol\":{\"keccak256\":\"0x4bd84c0f1a5d4729ed709bcddd43f4c50ec4a165ece79780af8dce482ed07d4a\",\"urls\":[\"bzz-raw://62bac4bfb6982fb002f620c77e5c445e62d50241a5aa64a07e51d929f5a42180\",\"dweb:/ipfs/QmWgJUDreVY2BuMX38a1iUUR5kNbMwGnKG3VvurB7oZtuM\"],\"license\":\"MIT\"},\"node_modules/@bananapus/core/src/interfaces/IJBPrices.sol\":{\"keccak256\":\"0x99525f31440b955742dce84ba57de9fc1221139b5367c1f834723bef9e13e6e1\",\"urls\":[\"bzz-raw://6fa03f0cd4ad87dd7cbae7bf7f54463450874291773c8f70f2c31ef2cae62bb0\",\"dweb:/ipfs/QmSPajPV5ismteJuB6Spzm9VmhTj2iS3eVrfpJC1Zuzg8n\"],\"license\":\"MIT\"},\"node_modules/@bananapus/core/src/interfaces/IJBProjectUriRegistry.sol\":{\"keccak256\":\"0x2799475228987e4f8334ac33d3935f759c9b8133db7383b4f622dde7a5dc0502\",\"urls\":[\"bzz-raw://d751731740f45df74eea48c9667e847ee2cddb2980ab4939c86bd17e6c6ed89b\",\"dweb:/ipfs/QmXW8SLTuhdUpfn7pRpdsYdcyuim8RTyagU37ULcj5UZhT\"],\"license\":\"MIT\"},\"node_modules/@bananapus/core/src/interfaces/IJBProjects.sol\":{\"keccak256\":\"0x735c2fb8f1fa827f054ee77f7a0ae4b312656217acb75b624d2c8fd9dc40151b\",\"urls\":[\"bzz-raw://ee7fc92299a8633a80693ae63ab494dcd125f1789487a54a39dc0e5696e5996f\",\"dweb:/ipfs/QmX7YJD4pS2XhgQb7p3JbBAXynT7YGPXcZe92BiWWRrsCL\"],\"license\":\"MIT\"},\"node_modules/@bananapus/core/src/interfaces/IJBRulesetApprovalHook.sol\":{\"keccak256\":\"0x592e95d159494421c6b1bcb362d0cee1df0132921697351304e9cd7af4fbd386\",\"urls\":[\"bzz-raw://5bebfd5fa67c1b6ea16fa2e76e9520e9dfe52a579f48dd94d0c2ec45f78ad178\",\"dweb:/ipfs/QmRUawEGtfYoYSHmHELGhvJoWuMsxLPKtqAXgsrb7fJboP\"],\"license\":\"MIT\"},\"node_modules/@bananapus/core/src/interfaces/IJBRulesets.sol\":{\"keccak256\":\"0xd3f817d22ecbe24da63c552c069bf0c4fbbf3bcd5c3b5633002afd24aacf6882\",\"urls\":[\"bzz-raw://c1185aec0f6b6f0f4d93ffeeed0972ccf38420b00fe570b5e1838ed2b1f5db49\",\"dweb:/ipfs/QmWz36azGTFnjFXpFSh6BHt4nactgjtF64L3PeTqs4ZqSR\"],\"license\":\"MIT\"},\"node_modules/@bananapus/core/src/interfaces/IJBSplitHook.sol\":{\"keccak256\":\"0xeb8dfac7a4b81897a1c3b5d0d853a406bcff33720fb187d5ca5bb3dcc0ba3a12\",\"urls\":[\"bzz-raw://36aaeef6107cfe5b0127e063ea215aac7200f8af02e28a48e61111abd3254688\",\"dweb:/ipfs/QmQ8yQANXnhQCAWBGKsKCDsJ3A8hnTKNg5tyo79GfWXTcV\"],\"license\":\"MIT\"},\"node_modules/@bananapus/core/src/interfaces/IJBSplits.sol\":{\"keccak256\":\"0x92deeb9e22ce2aaafc608b85e9250b8ea2deed1ebf64b7442038b157b2bfe0e6\",\"urls\":[\"bzz-raw://08bf29f0c13c2e8be46065277f67e44ecaea960cb5474f13775eece0672566c2\",\"dweb:/ipfs/QmeGu9C6tuBjfmeizmpzptxgGmch6Mbtm34NFwZxzMvqc4\"],\"license\":\"MIT\"},\"node_modules/@bananapus/core/src/interfaces/IJBTerminal.sol\":{\"keccak256\":\"0x19dc9bf8cbdc8f13ee5da9dc3a87047eacb94a3fc19740a286c1f0bad2cc39ca\",\"urls\":[\"bzz-raw://0b05ae6fda9a85672508232fd992b8a5f5ffd8096622eeb12c8a7b3317eb3867\",\"dweb:/ipfs/QmNh9Quj37BXYGdTdcCD1Q58PchRsE5TLbEZep56qS3MpV\"],\"license\":\"MIT\"},\"node_modules/@bananapus/core/src/interfaces/IJBToken.sol\":{\"keccak256\":\"0x71b1f9c3a0edd41910f77396e0be2c65596571176d53eb87e887c3c0da56c0fb\",\"urls\":[\"bzz-raw://6e956f0582f4525e83d845ee9b4a89959abc4f821414f6accbbee5b38960482d\",\"dweb:/ipfs/QmbSvjgmCgnfVmcCTGu8XwrV1Rufsf3M8hB8unFq6fTMdH\"],\"license\":\"MIT\"},\"node_modules/@bananapus/core/src/interfaces/IJBTokenUriResolver.sol\":{\"keccak256\":\"0xfa5cb00dcd6085d1ef912d071fe73c63f9478a2cd0f9d8bddaf659b6af2d0967\",\"urls\":[\"bzz-raw://282e4e7c342d65f77cde0e9a08fcaf20ef5cf379c7a48b639842c0ffd0b2afb8\",\"dweb:/ipfs/QmbnN3PEQeZaXdPLT75V1J79kMg7KqSMru37RHrL3z8Yf2\"],\"license\":\"MIT\"},\"node_modules/@bananapus/core/src/interfaces/IJBTokens.sol\":{\"keccak256\":\"0x6fd67af915dd541d9547c8297aa9ae269690e4ee23531db43f021bcacec6076f\",\"urls\":[\"bzz-raw://2e5e11954e9ab2319fffccb6563f3db400b8f7760d4ffe2165048a02c9c37fa6\",\"dweb:/ipfs/QmbDXtV83dK8EfiTjsTRf55R2XqPZzDKcjtYbW8sxQ5CFm\"],\"license\":\"MIT\"},\"node_modules/@bananapus/core/src/structs/JBAccountingContext.sol\":{\"keccak256\":\"0x2907ff54d1e903cc7e0390dd88c3975884702dc2673642aacbe22b66560b56de\",\"urls\":[\"bzz-raw://a66a5381ce877b32f0e0058ceeaf843e9b6b2bc8af666c0c9f4a9d01091da004\",\"dweb:/ipfs/QmQynCetUr37dBkS1YwDS8evxuXGiqanW6THmeUxXtim8w\"],\"license\":\"MIT\"},\"node_modules/@bananapus/core/src/structs/JBAfterPayRecordedContext.sol\":{\"keccak256\":\"0xd26c3a774ff38be79064085970454fe2603a23a638c76270d5b1b3829206c3e8\",\"urls\":[\"bzz-raw://3b55dbe3bf1ef625b7ca04efab3de35406e6041d5b3d82c7265469c500e2b702\",\"dweb:/ipfs/QmUdBDo4Lt3mcsFcsXT2mqq3czFwZjQJFPLM89YA2VtD7k\"],\"license\":\"MIT\"},\"node_modules/@bananapus/core/src/structs/JBCurrencyAmount.sol\":{\"keccak256\":\"0x12fe4b43f4824994624d4fe0abbd88c3fe7867fd637edb65c7f456dab27e2d6e\",\"urls\":[\"bzz-raw://8003a3e8f932cf891e86b827e67c9d31b0d34c2712e18c2bc333cfe5284ba6d5\",\"dweb:/ipfs/QmSoA6RsDcSnNzk6CB7KZtALkHmeSDAi2g6fg3TDmLDkWX\"],\"license\":\"MIT\"},\"node_modules/@bananapus/core/src/structs/JBFundAccessLimitGroup.sol\":{\"keccak256\":\"0x9fdaa8d017b72da25f583700a444a86849df053f7fb8eac874ec5139bcf651e5\",\"urls\":[\"bzz-raw://c8e44c49ee444a98424a0dbeb6897a76a0bf00d88a613f62ac2012afdac754ee\",\"dweb:/ipfs/QmdYkAiRi5bXM1YYNkc7BiqimHSFodMGn1cjHR5hcpm4xH\"],\"license\":\"MIT\"},\"node_modules/@bananapus/core/src/structs/JBPermissionsData.sol\":{\"keccak256\":\"0x8f0f69a6ebf5f3704e3dfcb3712fb9d3f94ae7c1ab89bf3e37bad42a3e7a0487\",\"urls\":[\"bzz-raw://57b0c5e52843e2217082889ed47b4da3943e0da4590d5768dcebfe3edad4a6b8\",\"dweb:/ipfs/QmRz48vuWLw81kUP836rh1qzqWiJFGbksgRUA9xGEDNKTY\"],\"license\":\"MIT\"},\"node_modules/@bananapus/core/src/structs/JBRuleset.sol\":{\"keccak256\":\"0x15b2bf3174d84846a91ccbf5a344dfb125b55ed9cf50102db8d6868844225189\",\"urls\":[\"bzz-raw://647416b025dbd941094db89cbc69f755c155bd6c87be3f322394ccc4a8e0442d\",\"dweb:/ipfs/QmTCL9xcHnxQ4t5AmCPoZvXDUPW5xhzhyyXYbkMdyg44au\"],\"license\":\"MIT\"},\"node_modules/@bananapus/core/src/structs/JBRulesetConfig.sol\":{\"keccak256\":\"0x0be470df286939259a6b98bc71459e661e81d56a58226d6a574ae1484f8f8e6c\",\"urls\":[\"bzz-raw://64592c279ba7518ac180c835a539897163f299a439065f2cc8aa54086a2c9ad7\",\"dweb:/ipfs/QmaEepVvFJdXcDBMMr7SQYjZSDJXPtCca95kQY5rZbra6U\"],\"license\":\"MIT\"},\"node_modules/@bananapus/core/src/structs/JBRulesetMetadata.sol\":{\"keccak256\":\"0xfea54c9f98416d2aa05309e7ff76967d6968a614850a1e33e48fde793ea8b514\",\"urls\":[\"bzz-raw://bf55386cbab90dbc1296b2b0cbfdc217a4500d67702e4a093a4c78bd127ecd5c\",\"dweb:/ipfs/QmTRq9mZrNSXu7oCZwti4JbBFrbY6A5msRqi9RbtL49NAj\"],\"license\":\"MIT\"},\"node_modules/@bananapus/core/src/structs/JBRulesetWithMetadata.sol\":{\"keccak256\":\"0x1bcfadf20488f6df65227f8d4d0fbf9b7539456a2389567f7fe3900d23289bc3\",\"urls\":[\"bzz-raw://0a15c399a71e5373f8c0484c6d6b83521eda31e063a2c53e4c5cec4e74550343\",\"dweb:/ipfs/QmQwi8zkjoTVXbK89NeETYimWCacTrNsesJdpLSvGdqMPX\"],\"license\":\"MIT\"},\"node_modules/@bananapus/core/src/structs/JBSplit.sol\":{\"keccak256\":\"0x1d40fa4f1c911a53b9139f3d44d27cb58fa5c5d2cd793c7a21ccf52b9e61f848\",\"urls\":[\"bzz-raw://9897d2c29fc65fe16e4eac0b7b8b6fd8ef0b0cc501986f7f0c3a78c4ec1dbb60\",\"dweb:/ipfs/QmXcHoVjCYWWCz4hm2KZ6JxtB4YNq7jmXa2evLkga59Xwq\"],\"license\":\"MIT\"},\"node_modules/@bananapus/core/src/structs/JBSplitGroup.sol\":{\"keccak256\":\"0xda7da6e88aac2906c7ea4027660088daf217edc632bebca4d72795aae8921564\",\"urls\":[\"bzz-raw://ae1939d17e94cb51484f31ce64cf0df990445a338fb9b38d39a7baf28275ae4a\",\"dweb:/ipfs/QmUhPnJiWnYhFdtLvZnrPopAdbYXxETpGjvxjPDignpTGY\"],\"license\":\"MIT\"},\"node_modules/@bananapus/core/src/structs/JBSplitHookContext.sol\":{\"keccak256\":\"0xfe34e6860b00ca93d71f44e72882281b2c57c31303151af05795c74cfdd2e51d\",\"urls\":[\"bzz-raw://08acab094888e9c929b6f6f972d89ddbb31e5867675e7e7c602d25fcb2c0f402\",\"dweb:/ipfs/QmPNdXM185cTyXQSodVr4JMviHx88jrWu7dipgkp9xTNgJ\"],\"license\":\"MIT\"},\"node_modules/@bananapus/core/src/structs/JBTerminalConfig.sol\":{\"keccak256\":\"0xd162f3821a1ccafbc8d7d108369e39ac3048445a8c7fe7a3fa97a6343f9eefaa\",\"urls\":[\"bzz-raw://82172ea0407b6d9edc45e408c7e8edb8e129adf49a94349fe3a5862da9bc044e\",\"dweb:/ipfs/QmWheF5Tjq2hcabnSzfYqdFHUA1YxYEdAPZaRw9N166V1d\"],\"license\":\"MIT\"},\"node_modules/@bananapus/core/src/structs/JBTokenAmount.sol\":{\"keccak256\":\"0x5cf0626b73a596c1e2da17c89ae039a7c0374310b060d48568d3b6c11fbe6180\",\"urls\":[\"bzz-raw://63348b50be95e2995409394a17caffc563a646f0972650a1230bf864fbd3219b\",\"dweb:/ipfs/QmZXZpS3SbFD5nWaCauf6AqbEhLURv5qsKHpThBvQgDU6u\"],\"license\":\"MIT\"},\"node_modules/@bananapus/ownable/src/JBOwnable.sol\":{\"keccak256\":\"0x5b0aec2bc7164bdb972bfb9f71660c887308cf3a72738c7469d03bf264cf0d54\",\"urls\":[\"bzz-raw://bf4f60cebc0a707004371425aa3c8751b6a84dfb4fc9bf788160ae9ac1e906f6\",\"dweb:/ipfs/QmegUfWLhKuByQTkfMkmwkEs2Tk5ZEuR56DqQw5kxFzP3d\"],\"license\":\"MIT\"},\"node_modules/@bananapus/ownable/src/JBOwnableOverrides.sol\":{\"keccak256\":\"0x70a7c55f2a0f4324b63afe61e9d0de6e54396073e431844a19936d2aaaf6d7dd\",\"urls\":[\"bzz-raw://94c55139a8e974e2a88c6f0fc7594be3044742cfc499c989051eaf6664ec7dab\",\"dweb:/ipfs/QmQPnLAootqEGzpHRdhsYGBU3cqicRYLAe6bTti2UCBHyS\"],\"license\":\"MIT\"},\"node_modules/@bananapus/ownable/src/interfaces/IJBOwnable.sol\":{\"keccak256\":\"0x2c513558439d763df03e8a68c1aef698618182fd44c285405c35597d52c65ad1\",\"urls\":[\"bzz-raw://11cc25c41fccc20cca29f93dd120e67760188fd2040ef0330a093d37fbfa2f8f\",\"dweb:/ipfs/QmWpxcv41eYmsNYT3ph1nts5pC7sp3EzwJxKDGebMqEbsH\"],\"license\":\"MIT\"},\"node_modules/@bananapus/ownable/src/struct/JBOwner.sol\":{\"keccak256\":\"0x5624ba356f01f722984c1b857a106f413b12e57bae1f762a81c16ee511e3325a\",\"urls\":[\"bzz-raw://3120b5649ac8b55158df138dcac03f6850fc988cc5a24a7cb06e6581265ca284\",\"dweb:/ipfs/QmQBSLxRT9j1MEERUt8dWbSsAjianbHpM2CFwciLK7MwaP\"],\"license\":\"MIT\"},\"node_modules/@bananapus/permission-ids/src/JBPermissionIds.sol\":{\"keccak256\":\"0xf61109f6b217a80d5e5391f548fb6f2e451f7dbee3fabfc04cf17e88722203bc\",\"urls\":[\"bzz-raw://ac776ab1cd621c22bd7973471acdfa187f3abc659ad9a3ef6ed10b6447dfcf9c\",\"dweb:/ipfs/QmYLbaHt68qcuMzkiKpe96jMjiWUq1F3u8yMhxmZ3pnnWu\"],\"license\":\"MIT\"},\"node_modules/@openzeppelin/contracts/token/ERC721/IERC721.sol\":{\"keccak256\":\"0x5ef46daa3b58ef2702279d514780316efaa952915ee1aa3396f041ee2982b0b4\",\"urls\":[\"bzz-raw://2f8f2a76e23b02fc69e8cd24c3cb47da6c7af3a2d6c3a382f8ac25c6e094ade7\",\"dweb:/ipfs/QmPV4ZS4tPVv4mTCf9ejyZ1ai57EEibDRj7mN2ARDCLV5n\"],\"license\":\"MIT\"},\"node_modules/@openzeppelin/contracts/utils/Context.sol\":{\"keccak256\":\"0x493033a8d1b176a037b2cc6a04dad01a5c157722049bbecf632ca876224dd4b2\",\"urls\":[\"bzz-raw://6a708e8a5bdb1011c2c381c9a5cfd8a9a956d7d0a9dc1bd8bcdaf52f76ef2f12\",\"dweb:/ipfs/Qmax9WHBnVsZP46ZxEMNRQpLQnrdE4dK8LehML1Py8FowF\"],\"license\":\"MIT\"},\"node_modules/@openzeppelin/contracts/utils/introspection/IERC165.sol\":{\"keccak256\":\"0x4296879f55019b23e135000eb36896057e7101fb7fb859c5ef690cf14643757b\",\"urls\":[\"bzz-raw://87b3541437c8c443ccd36795e56a338ed12855eec17f8da624511b8d1a7e14df\",\"dweb:/ipfs/QmeJQCtZrQjtJLr6u7ZHWeH3pBnjtLWzvRrKViAi7UZqxL\"],\"license\":\"MIT\"},\"src/JB721TiersHookProjectDeployer.sol\":{\"keccak256\":\"0xd5d6f90b9a510647be9f25fec57ff72770849625d393b93ba5f4a70eda94d3fa\",\"urls\":[\"bzz-raw://64292d5c76ab764969768430b29993d16cd4485e02f6d2838438445fd2463f95\",\"dweb:/ipfs/QmPgmhojgNAbXTC7diDntmSjgmNAytcqYZRTtRK6tbZHfc\"],\"license\":\"MIT\"},\"src/interfaces/IJB721Hook.sol\":{\"keccak256\":\"0x24935445bc4c5b0fe2a10aabe549122588940842a68e79a8c39b1df9458dd7fd\",\"urls\":[\"bzz-raw://1dee273fa76d9abae116de911fdda5e3113db2a58939e62e24fba98c63fd037a\",\"dweb:/ipfs/QmT6Lih7DeRAfrLc8uC7ecaw2EAKwhaP2BZHeY5DxeeVLM\"],\"license\":\"MIT\"},\"src/interfaces/IJB721TiersHook.sol\":{\"keccak256\":\"0xbd9a8dae00a4b1a02c628bd172fe4ae496e49f7651426cef08774ffdb6125c23\",\"urls\":[\"bzz-raw://9ce4fd77d5af1f570dad6b70758f09f9599768e1ab32f6b473f6181197daa0c8\",\"dweb:/ipfs/QmWj6sCTvZ2CbfSyRuhaXADxYbwwPcR42pZokcgfjpsabg\"],\"license\":\"MIT\"},\"src/interfaces/IJB721TiersHookDeployer.sol\":{\"keccak256\":\"0xc4c6dfd2573fe1f130bc5193da68a622959a11562010fa261ffd3a8893e08a7b\",\"urls\":[\"bzz-raw://0c34f79121f6c777bca3df6c2e87c0caa05146bec45e9ae29f41b0532d16c88e\",\"dweb:/ipfs/QmZJQVZC8uuuSssXtLnhsvisz7V2PCKs2s1Hbzo8hmZ9ZP\"],\"license\":\"MIT\"},\"src/interfaces/IJB721TiersHookProjectDeployer.sol\":{\"keccak256\":\"0x278da7c4b54838e594e3630d6d16b490138c37be01c210b9d83208cc8884e746\",\"urls\":[\"bzz-raw://10f1a3a3b8f0912cfe0c96066537196b3b02433235fed2ff704579d6d55eace5\",\"dweb:/ipfs/QmeyQNm3xaNMp6UwsFURUXq1JDq5X8bKgVzkBXNMXTPcJi\"],\"license\":\"MIT\"},\"src/interfaces/IJB721TiersHookStore.sol\":{\"keccak256\":\"0x8550e216c12c9cda865c1b1b0eb3f244aeaa8d465b197d4bd0dd8d4df265682e\",\"urls\":[\"bzz-raw://674a312f1eaffd7c6b21f58f8d4a628104e71220daf48a22237fa3bd035ddf21\",\"dweb:/ipfs/QmSRSW6cSwdpoGjVxDqiwJmJyCxfHWhCxZ2iaqeJcN2Ccy\"],\"license\":\"MIT\"},\"src/interfaces/IJB721TokenUriResolver.sol\":{\"keccak256\":\"0xfa599167098f4459320ec4141a98a17b2dfffbce422baa27d8b4e4530f61ece1\",\"urls\":[\"bzz-raw://8b758b161f4c7b520b2c34b4d91e585e961b8f4ca278eebb91d791f7f2f45140\",\"dweb:/ipfs/QmcD9DF7NJ9QykQpT4KPzm4bs3fkjzukdAUWwdU6Atfw85\"],\"license\":\"MIT\"},\"src/structs/JB721InitTiersConfig.sol\":{\"keccak256\":\"0xfb78486cec94189d0ecf2050dc9cfc11245b426c73a0711a85bff1359d774307\",\"urls\":[\"bzz-raw://a8fa01f6e64dd204dbde07a60851e9a5a74e439e1411139ae16b7cf67d2a2692\",\"dweb:/ipfs/QmZAnHyfpKr3xr7NWHj5sGaCEEtG8RtmHhkRUJJvNauym5\"],\"license\":\"MIT\"},\"src/structs/JB721Tier.sol\":{\"keccak256\":\"0x2e267a8af02f125465cdda9308477346ae4a94b024c3b2c2a6af0c00027944dd\",\"urls\":[\"bzz-raw://367ccea2c8fa815d498d771d4367ef1ded718a76e89644102034bfe4a3636b82\",\"dweb:/ipfs/QmYiFFa6ei9wZBSSVUHfY2Cb35zCDVXvbmLcgLj2BTiC1u\"],\"license\":\"MIT\"},\"src/structs/JB721TierConfig.sol\":{\"keccak256\":\"0x2fa9c5c8cec182b854a656d3b284e9d5306be35ad3dc4da79d65dca12b804af0\",\"urls\":[\"bzz-raw://b443a5f70195a66145ea1dade04454ce9a3ff1209e1aaecf53c8a9909b294d79\",\"dweb:/ipfs/QmUDPFZ4L6XpV3zLQUNVchUvecD4XfddKz2S46BKek5XL1\"],\"license\":\"MIT\"},\"src/structs/JB721TiersHookFlags.sol\":{\"keccak256\":\"0x283d8429f31bd58875c056515aa42abd09c95362bd929e85cfc44a0d92585766\",\"urls\":[\"bzz-raw://9a580b89fe99d9f8e930c58a4d0d63a5ff7c01c79d210af01373d066c9e72ed6\",\"dweb:/ipfs/QmdY1eSGSoTjv4KSdsG4Tm5CzJN6iqk3qTRga5ZWNbejRz\"],\"license\":\"MIT\"},\"src/structs/JB721TiersMintReservesConfig.sol\":{\"keccak256\":\"0xab3b319dc4e736586ae595de194d93dcdfeba365bc7a54cf6c37e697f6074ad9\",\"urls\":[\"bzz-raw://a84ae2cf2e8c3e39e831dbb39a67a8eb43c78a6de6bb78b1be2e1f1e80c69efe\",\"dweb:/ipfs/QmboGXEMqsYTxc4a7oft9rggNU7ShWSa9yB4HFMVmzXCHz\"],\"license\":\"MIT\"},\"src/structs/JBDeploy721TiersHookConfig.sol\":{\"keccak256\":\"0x4f0b8bbc19a405a096a16977fa1eedc0c56640ef777add89c050f989a62a6a35\",\"urls\":[\"bzz-raw://bd009c66aa748a2ce04720a6376683ce01ced3c0bd7f9534e145263aa49d95d3\",\"dweb:/ipfs/QmXyJCS1uQevdkw1Gc4UrRs8fZKtW9wPWFY9pxUWHKLo4e\"],\"license\":\"MIT\"},\"src/structs/JBLaunchProjectConfig.sol\":{\"keccak256\":\"0x0a8f87072dd6e5dd7c5cd5af7153172275de7e85625aa4a97da4fed65ad5b029\",\"urls\":[\"bzz-raw://b1d230835bf8fa17e8308d5d2ce4c820c4a719f451a65477f75956e100984047\",\"dweb:/ipfs/QmX6BwoYNJx1SssBLcBoPJBsg2Hv6ZP2uErXUvoMrAaQ71\"],\"license\":\"MIT\"},\"src/structs/JBLaunchRulesetsConfig.sol\":{\"keccak256\":\"0x018a47f29fa959fe7011cdf0258fc29e66072b679fc2317d51b9aef0d7d754bd\",\"urls\":[\"bzz-raw://356b2e002e7ccf5c470f2d01cf99b9be6a6f3d2b4bbc8837d574eadbefd1a8f6\",\"dweb:/ipfs/QmTV9nzHVhDRVtNqXxGKBikCFmbwhcDVcLeDZk64AcNqzH\"],\"license\":\"MIT\"},\"src/structs/JBPayDataHookRulesetConfig.sol\":{\"keccak256\":\"0x492f4b5b87f519d73e4f48eda7b101c6dede87abb6442c5e789800cca4d011d8\",\"urls\":[\"bzz-raw://a92aec5a37ea462a5e61c5ce21bf4e60a2d5c0eb9f414337a446fa4253e2a586\",\"dweb:/ipfs/QmUBCAM4zZ6GQ5ZR6HEmCynv1poZG6oRhnAZsoggrqmMGs\"],\"license\":\"MIT\"},\"src/structs/JBPayDataHookRulesetMetadata.sol\":{\"keccak256\":\"0x377d43064f3cef70bd2f475fca62616d89b4ed065dc6dccce05c6308e2dae12e\",\"urls\":[\"bzz-raw://9d2f924bdc97acd21eba05fe7504f0a29065058a7a523b11010b710864c4ddcd\",\"dweb:/ipfs/QmUnyD1PsgdDXJTi7zMqUEUCDMhwxjujchAjHeYqgFCzfB\"],\"license\":\"MIT\"},\"src/structs/JBQueueRulesetsConfig.sol\":{\"keccak256\":\"0xb73328fd7ba2b70c4f7c5fda8dc0292069015151c9119ed4a7025da497cbed28\",\"urls\":[\"bzz-raw://cb5632de9d927c8c199c4633c5ecf7bc9add8656fb5ad240494a82dc7fd89159\",\"dweb:/ipfs/QmNoAsD66ySDRmATkNWoVENYHAtp7gbWXPQE3kJutiYBQy\"],\"license\":\"MIT\"}},\"version\":1}",
			"args": [
				"0xCD8c4da77dfb15C05486D3F71Ee4C2C0dfdbc94e",
				"0x1e2E8562b635fe19978640C784e47865A83d6605",
				"0xd3838B2875a06E61bEfc3679Ee2C8d88D61067dC"
			],
			"bytecode": "0x60e06040523480156200001157600080fd5b506040516200298c3803806200298c83398101604081905262000034916200006b565b6001600160a01b0391821660805291811660a0521660c052620000bf565b6001600160a01b03811681146200006857600080fd5b50565b6000806000606084860312156200008157600080fd5b83516200008e8162000052565b6020850151909350620000a18162000052565b6040850151909250620000b48162000052565b809150509250925092565b60805160a05160c051612867620001256000396000818160f4015281816102460152818161045d01526105c701526000818160a2015281816101540152818161034d015261055101526000818161012e015281816109a90152610a5201526128676000f3fe608060405234801561001057600080fd5b50600436106100725760003560e01c8063abf8c5c811610050578063abf8c5c8146100ef578063adcafa2f14610116578063f434c9141461012957600080fd5b80633f839bc61461007757806388bc2ef31461009d5780638eb69a9e146100dc575b600080fd5b61008a610085366004611db8565b610150565b6040519081526020015b60405180910390f35b6100c47f000000000000000000000000000000000000000000000000000000000000000081565b6040516001600160a01b039091168152602001610094565b61008a6100ea366004611edb565b610346565b6100c47f000000000000000000000000000000000000000000000000000000000000000081565b61008a610124366004611f64565b61054a565b6100c47f000000000000000000000000000000000000000000000000000000000000000081565b60007f00000000000000000000000000000000000000000000000000000000000000006001600160a01b031663293c49996040518163ffffffff1660e01b8152600401602060405180830381865afa1580156101b0573d6000803e3d6000fd5b505050506040513d601f19601f820116820180604052508101906101d49190612034565b6001600160a01b03166306661abd6040518163ffffffff1660e01b8152600401602060405180830381865afa158015610211573d6000803e3d6000fd5b505050506040513d601f19601f820116820180604052508101906102359190612058565b610240906001612071565b905060007f00000000000000000000000000000000000000000000000000000000000000006001600160a01b0316632230819f83876040518363ffffffff1660e01b81526004016102929291906121fe565b6020604051808303816000875af11580156102b1573d6000803e3d6000fd5b505050506040513d601f19601f820116820180604052508101906102d59190612034565b90506102e3868583866106aa565b6040516351106b4b60e11b8152600481018390526001600160a01b0382169063a220d69690602401600060405180830381600087803b15801561032557600080fd5b505af1158015610339573d6000803e3d6000fd5b5050505050949350505050565b60006104437f00000000000000000000000000000000000000000000000000000000000000006001600160a01b031663293c49996040518163ffffffff1660e01b8152600401602060405180830381865afa1580156103a9573d6000803e3d6000fd5b505050506040513d601f19601f820116820180604052508101906103cd9190612034565b6001600160a01b0316636352211e876040518263ffffffff1660e01b81526004016103fa91815260200190565b602060405180830381865afa158015610417573d6000803e3d6000fd5b505050506040513d601f19601f8201168201806040525081019061043b9190612034565b86600261095f565b604051632230819f60e01b81526000906001600160a01b037f00000000000000000000000000000000000000000000000000000000000000001690632230819f9061049490899089906004016121fe565b6020604051808303816000875af11580156104b3573d6000803e3d6000fd5b505050506040513d601f19601f820116820180604052508101906104d79190612034565b6040516351106b4b60e11b8152600481018890529091506001600160a01b0382169063a220d69690602401600060405180830381600087803b15801561051c57600080fd5b505af1158015610530573d6000803e3d6000fd5b5050505061054086858386610afc565b9695505050505050565b60006105ad7f00000000000000000000000000000000000000000000000000000000000000006001600160a01b031663293c49996040518163ffffffff1660e01b8152600401602060405180830381865afa1580156103a9573d6000803e3d6000fd5b604051632230819f60e01b81526000906001600160a01b037f00000000000000000000000000000000000000000000000000000000000000001690632230819f906105fe90899089906004016121fe565b6020604051808303816000875af115801561061d573d6000803e3d6000fd5b505050506040513d601f19601f820116820180604052508101906106419190612034565b6040516351106b4b60e11b8152600481018890529091506001600160a01b0382169063a220d69690602401600060405180830381600087803b15801561068657600080fd5b505af115801561069a573d6000803e3d6000fd5b5050505061054086858386610db3565b60208301515160008167ffffffffffffffff8111156106cb576106cb61119c565b60405190808252806020026020018201604052801561070457816020015b6106f1611016565b8152602001906001900390816106e95790505b50905061070f6110d5565b60005b838110156108bd578660200151818151811061073057610730612336565b602002602001015191506040518061010001604052808360000151815260200183602001518152602001836040015181526020018360600151815260200183608001516001600160a01b031681526020016040518061020001604052808560a001516000015181526020018560a001516020015181526020018560a001516040015181526020018560a0015160600151151581526020018560a0015160800151151581526020018560a0015160a00151151581526020018560a0015160c00151151581526020018560a0015160e00151151581526020018560a001516101000151151581526020018560a001516101200151151581526020018560a001516101400151151581526020018560a001516101600151151581526020016001151581526020018560a00151610180015115158152602001896001600160a01b031681526020018560a001516101a0015181525081526020018360c0015181526020018360e001518152508382815181106108aa576108aa612336565b6020908102919091010152600101610712565b508551604080880151606089015191517f0634bae90000000000000000000000000000000000000000000000000000000081526001600160a01b03881693630634bae993610912938d93899290600401612743565b6020604051808303816000875af1158015610931573d6000803e3d6000fd5b505050506040513d601f19601f820116820180604052508101906109559190612058565b5050505050505050565b336001600160a01b0384168114801590610a16575060405163c161c93f60e01b81526001600160a01b038281166004830152858116602483015260448201859052606482018490527f0000000000000000000000000000000000000000000000000000000000000000169063c161c93f90608401602060405180830381865afa1580156109f0573d6000803e3d6000fd5b505050506040513d601f19601f82011682018060405250810190610a14919061279f565b155b8015610abf575060405163c161c93f60e01b81526001600160a01b038281166004830152858116602483015260006044830152606482018490527f0000000000000000000000000000000000000000000000000000000000000000169063c161c93f90608401602060405180830381865afa158015610a99573d6000803e3d6000fd5b505050506040513d601f19601f82011682018060405250810190610abd919061279f565b155b15610af6576040517f075fd2b100000000000000000000000000000000000000000000000000000000815260040160405180910390fd5b50505050565b602083015151600090818167ffffffffffffffff811115610b1f57610b1f61119c565b604051908082528060200260200182016040528015610b5857816020015b610b45611016565b815260200190600190039081610b3d5790505b509050610b636110d5565b60005b83811015610d115787602001518181518110610b8457610b84612336565b602002602001015191506040518061010001604052808360000151815260200183602001518152602001836040015181526020018360600151815260200183608001516001600160a01b031681526020016040518061020001604052808560a001516000015181526020018560a001516020015181526020018560a001516040015181526020018560a0015160600151151581526020018560a0015160800151151581526020018560a0015160a00151151581526020018560a0015160c00151151581526020018560a0015160e00151151581526020018560a001516101000151151581526020018560a001516101200151151581526020018560a001516101400151151581526020018560a001516101600151151581526020016001151581526020018560a001516101800151151581526020018a6001600160a01b031681526020018560a001516101a0015181525081526020018360c0015181526020018360e00151815250838281518110610cfe57610cfe612336565b6020908102919091010152600101610b66565b50604080880151606089015191517f1ea7bc8c0000000000000000000000000000000000000000000000000000000081526001600160a01b03881692631ea7bc8c92610d64928d928892916004016127bc565b6020604051808303816000875af1158015610d83573d6000803e3d6000fd5b505050506040513d601f19601f82011682018060405250810190610da79190612058565b98975050505050505050565b602083015151600090818167ffffffffffffffff811115610dd657610dd661119c565b604051908082528060200260200182016040528015610e0f57816020015b610dfc611016565b815260200190600190039081610df45790505b509050610e1a6110d5565b60005b83811015610fc85787602001518181518110610e3b57610e3b612336565b602002602001015191506040518061010001604052808360000151815260200183602001518152602001836040015181526020018360600151815260200183608001516001600160a01b031681526020016040518061020001604052808560a001516000015181526020018560a001516020015181526020018560a001516040015181526020018560a0015160600151151581526020018560a0015160800151151581526020018560a0015160a00151151581526020018560a0015160c00151151581526020018560a0015160e00151151581526020018560a001516101000151151581526020018560a001516101200151151581526020018560a001516101400151151581526020018560a001516101600151151581526020016001151581526020018560a001516101800151151581526020018a6001600160a01b031681526020018560a001516101a0015181525081526020018360c0015181526020018360e00151815250838281518110610fb557610fb5612336565b6020908102919091010152600101610e1d565b5060408088015190517fa0d8e2a90000000000000000000000000000000000000000000000000000000081526001600160a01b0387169163a0d8e2a991610d64918c91879190600401612806565b6040805161010080820183526000808352602080840182905283850182905260608085018390526080808601849052865161020081018852848152928301849052958201839052810182905293840181905260a084810182905260c0850182905260e0850182905291840181905261012084018190526101408401819052610160840181905261018084018190526101a084018190526101c084018190526101e08401529091908201905b815260200160608152602001606081525090565b604080516101008082018352600080835260208084018290528385018290526060808501839052608080860184905286516101c081018852848152928301849052958201839052810182905293840181905260a084810182905260c0850182905260e0850182905291840181905261012084018190526101408401819052610160840181905261018084018190526101a08401529091908201906110c1565b6001600160a01b038116811461118957600080fd5b50565b803561119781611174565b919050565b634e487b7160e01b600052604160045260246000fd5b6040516080810167ffffffffffffffff811182821017156111d5576111d561119c565b60405290565b604051610180810167ffffffffffffffff811182821017156111d5576111d561119c565b604051610120810167ffffffffffffffff811182821017156111d5576111d561119c565b6040516101c0810167ffffffffffffffff811182821017156111d5576111d561119c565b6040805190810167ffffffffffffffff811182821017156111d5576111d561119c565b60405160c0810167ffffffffffffffff811182821017156111d5576111d561119c565b604051610100810167ffffffffffffffff811182821017156111d5576111d561119c565b6040516060810167ffffffffffffffff811182821017156111d5576111d561119c565b604051601f8201601f1916810167ffffffffffffffff811182821017156112fd576112fd61119c565b604052919050565b600082601f83011261131657600080fd5b813567ffffffffffffffff8111156113305761133061119c565b611343601f8201601f19166020016112d4565b81815284602083860101111561135857600080fd5b816020850160208301376000918101602001919091529392505050565b600067ffffffffffffffff82111561138f5761138f61119c565b5060051b60200190565b80356cffffffffffffffffffffffffff8116811461119757600080fd5b803563ffffffff8116811461119757600080fd5b803561ffff8116811461119757600080fd5b803562ffffff8116811461119757600080fd5b801515811461118957600080fd5b8035611197816113ef565b803560ff8116811461119757600080fd5b6000608080838503121561142c57600080fd5b6114346111b2565b9150823567ffffffffffffffff81111561144d57600080fd5b8301601f8101851361145e57600080fd5b8035602061147361146e83611375565b6112d4565b828152610180928302840182019282820191908985111561149357600080fd5b948301945b848610156115865780868b0312156114b05760008081fd5b6114b86111db565b6114c187611399565b81526114ce8588016113b6565b8582015260406114df8189016113b6565b9082015260606114f08882016113ca565b908201526114ff87890161118c565b8189015260a0878101359082015260c061151a8189016113dc565b9082015260e061152b8882016113fd565b9082015261010061153d8882016113fd565b9082015261012061154f8882016113fd565b908201526101406115618882016113fd565b908201526101606115738882016113fd565b9082015283529485019491830191611498565b508652506115958682016113b6565b81860152505050506115a960408301611408565b60408201526115ba6060830161118c565b606082015292915050565b6000608082840312156115d757600080fd5b6115df6111b2565b905081356115ec816113ef565b815260208201356115fc816113ef565b6020820152604082013561160f816113ef565b604082015260608201356115ba816113ef565b6000610180828403121561163557600080fd5b61163d6111ff565b9050813567ffffffffffffffff8082111561165757600080fd5b61166385838601611305565b8352602084013591508082111561167957600080fd5b61168585838601611305565b60208401526116966040850161118c565b604084015260608401359150808211156116af57600080fd5b6116bb85838601611305565b60608401526116cc6080850161118c565b608084015260a08401359150808211156116e557600080fd5b6116f185838601611305565b60a084015260c084013591508082111561170a57600080fd5b5061171784828501611419565b60c08301525061172960e0830161118c565b60e082015261010061173d848285016115c5565b9082015292915050565b60006101c0828403121561175a57600080fd5b611762611223565b9050813581526020820135602082015260408201356040820152611788606083016113fd565b6060820152611799608083016113fd565b60808201526117aa60a083016113fd565b60a08201526117bb60c083016113fd565b60c08201526117cc60e083016113fd565b60e08201526101006117df8184016113fd565b908201526101206117f18382016113fd565b908201526101406118038382016113fd565b908201526101606118158382016113fd565b908201526101806118278382016113fd565b81830152506101a080830135818301525092915050565b600082601f83011261184f57600080fd5b8135602061185f61146e83611375565b82815260059290921b8401810191818101908684111561187e57600080fd5b8286015b848110156119b857803567ffffffffffffffff808211156118a257600080fd5b908801906040828b03601f19018113156118bb57600080fd5b6118c3611247565b87840135815281840135838111156118da57600080fd5b8085019450508b603f8501126118ef57600080fd5b87840135925061190161146e84611375565b83815260c09093028401820192888101908d85111561191f57600080fd5b948301945b848610156119a35760c0868f03121561193c57600080fd5b61194461126a565b863561194f816113ef565b8152868b01358b8201528487013585820152606087013561196f81611174565b60608201526080878101359082015260a087013561198c81611174565b60a0820152825260c0959095019490890190611924565b828a0152508652505050918301918301611882565b509695505050505050565b600082601f8301126119d457600080fd5b813560206119e461146e83611375565b82815260069290921b84018101918181019086841115611a0357600080fd5b8286015b848110156119b85760408189031215611a205760008081fd5b611a28611247565b813581528482013585820152835291830191604001611a07565b600082601f830112611a5357600080fd5b81356020611a6361146e83611375565b82815260059290921b84018101918181019086841115611a8257600080fd5b8286015b848110156119b857803567ffffffffffffffff80821115611aa75760008081fd5b908801906080828b03601f1901811315611ac15760008081fd5b611ac96111b2565b87840135611ad681611174565b8152604084810135611ae781611174565b828a015260608581013585811115611aff5760008081fd5b611b0d8f8c838a01016119c3565b8484015250928501359284841115611b2757600091508182fd5b611b358e8b868901016119c3565b90830152508652505050918301918301611a86565b600082601f830112611b5b57600080fd5b81356020611b6b61146e83611375565b82815260059290921b84018101918181019086841115611b8a57600080fd5b8286015b848110156119b857803567ffffffffffffffff80821115611baf5760008081fd5b908801906102a0828b03601f1901811315611bca5760008081fd5b611bd261128d565b87840135815260408085013589830152606080860135828401526080915081860135818401525060a0611c0681870161118c565b8284015260c09150611c1a8e838801611747565b9083015261028085013584811115611c325760008081fd5b611c408e8b8389010161183e565b82840152505081840135915082821115611c5a5760008081fd5b611c688c8984870101611a42565b60e08201528652505050918301918301611b8e565b600082601f830112611c8e57600080fd5b81356020611c9e61146e83611375565b828152600592831b8501820192828201919087851115611cbd57600080fd5b8387015b85811015611dab57803567ffffffffffffffff80821115611ce25760008081fd5b908901906040828c03601f1901811315611cfc5760008081fd5b611d04611247565b88840135611d1181611174565b81528382013583811115611d255760008081fd5b8085019450508c603f850112611d3d57600092508283fd5b888401359250611d4f61146e84611375565b83815292861b8401820192898101908e851115611d6c5760008081fd5b948301945b84861015611d965785359350611d8684611174565b838252948a0194908a0190611d71565b828b0152508752505050928401928401611cc1565b5090979650505050505050565b60008060008060808587031215611dce57600080fd5b8435611dd981611174565b9350602085013567ffffffffffffffff80821115611df657600080fd5b611e0288838901611622565b94506040870135915080821115611e1857600080fd5b9086019060808289031215611e2c57600080fd5b611e346111b2565b823582811115611e4357600080fd5b611e4f8a828601611305565b825250602083013582811115611e6457600080fd5b611e708a828601611b4a565b602083015250604083013582811115611e8857600080fd5b611e948a828601611c7d565b604083015250606083013582811115611eac57600080fd5b611eb88a828601611305565b606083015250809450505050611ed06060860161118c565b905092959194509250565b60008060008060808587031215611ef157600080fd5b84359350602085013567ffffffffffffffff80821115611f1057600080fd5b611f1c88838901611622565b94506040870135915080821115611f3257600080fd5b9086019060808289031215611f4657600080fd5b611f4e6111b2565b82358152602083013582811115611e6457600080fd5b60008060008060808587031215611f7a57600080fd5b84359350602085013567ffffffffffffffff80821115611f9957600080fd5b611fa588838901611622565b94506040870135915080821115611fbb57600080fd5b9086019060608289031215611fcf57600080fd5b611fd76112b1565b82358152602083013582811115611fed57600080fd5b611ff98a828601611b4a565b60208301525060408301358281111561201157600080fd5b61201d8a828601611305565b6040830152509350611ed09150506060860161118c565b60006020828403121561204657600080fd5b815161205181611174565b9392505050565b60006020828403121561206a57600080fd5b5051919050565b8082018082111561209257634e487b7160e01b600052601160045260246000fd5b92915050565b6000815180845260005b818110156120be576020818501810151868301820152016120a2565b506000602082860101526020601f19601f83011685010191505092915050565b80516080808452815184820181905260009260a0916020918201918388019190865b828110156121c357845180516cffffffffffffffffffffffffff1685528281015163ffffffff908116848701526040808301519091169086015260608082015161ffff1690860152878101516001600160a01b031688860152868101518786015260c08082015162ffffff169086015260e080820151151590860152610100808201511515908601526101208082015115159086015261014080820151151590860152610160908101511515908501529381019361018090930192600101612100565b508781015163ffffffff16908901525060408087015160ff16908801526060808701516001600160a01b038116918901919091529350610540565b828152604060208201526000825161018060408401526122226101c0840182612098565b90506020840151603f19808584030160608601526122408383612098565b92506040860151915061225e60808601836001600160a01b03169052565b60608601519150808584030160a08601526122798383612098565b92506080860151915061229760c08601836001600160a01b03169052565b60a08601519150808584030160e08601526122b28383612098565b925060c086015191506101008186850301818701526122d184846120de565b935060e087015192506122f06101208701846001600160a01b03169052565b860151805115156101408701526020810151151561016087015260408101511515610180870152606081015115156101a0870152915061232d9050565b50949350505050565b634e487b7160e01b600052603260045260246000fd5b8051825260208101516020830152604081015160408301526060810151612377606084018215159052565b50608081015161238b608084018215159052565b5060a081015161239f60a084018215159052565b5060c08101516123b360c084018215159052565b5060e08101516123c760e084018215159052565b5061010081810151151590830152610120808201511515908301526101408082015115159083015261016080820151151590830152610180808201511515908301526101a0808201511515908301526101c0808201516001600160a01b0316908301526101e090810151910152565b600082825180855260208086019550808260051b8401018186016000805b858110156124fc57868403601f19018a52825180518552850151604086860181905281518187018190529187019160609081880190865b818110156124e55785518051151584528b8101518c8501528581015186850152848101516001600160a01b03908116868601526080808301519086015260a0918201511690840152948a019460c09092019160010161248b565b50509c88019c965050509285019250600101612454565b509198975050505050505050565b60008151808452602080850194506020840160005b8381101561254657815180518852830151838801526040909601959082019060010161251f565b509495945050505050565b600082825180855260208086019550808260051b84010181860160005b84811015611dab57601f19868403018952815160806001600160a01b03808351168652808784015116878701525060408083015182828801526125b38388018261250a565b92505050606080830151925085820381870152506125d1818361250a565b9a86019a945050509083019060010161256e565b600082825180855260208086019550808260051b84010181860160005b84811015611dab57858303601f19018952815180518452848101518585015260408082015190850152606080820151908501526080808201516001600160a01b03169085015260a0808201516102e0919061265f8288018261234c565b505060c0820151816102a087015261267982870182612436565b91505060e082015191508481036102c08601526126968183612551565b9a86019a9450505090830190600101612602565b600082825180855260208086019550808260051b8401018186016000805b858110156124fc57868403601f19018a52825180516001600160a01b03908116865290860151604087870181905281519087018190529087019160608701918591905b8083101561272d5784518216845293890193928901926001929092019161270b565b5050509a86019a945050918401916001016126c8565b6001600160a01b038616815260a06020820152600061276560a0830187612098565b828103604084015261277781876125e5565b9050828103606084015261278b81866126aa565b90508281036080840152610da78185612098565b6000602082840312156127b157600080fd5b8151612051816113ef565b8481526080602082015260006127d560808301866125e5565b82810360408401526127e781866126aa565b905082810360608401526127fb8185612098565b979650505050505050565b83815260606020820152600061281f60608301856125e5565b8281036040840152610540818561209856fea26469706673582212208f1339f5250d8f0ce2ad01916930a96678e16bdb08a5f7a87136051a590ed97364736f6c63430008170033",
			"deployedBytecode": "0x608060405234801561001057600080fd5b50600436106100725760003560e01c8063abf8c5c811610050578063abf8c5c8146100ef578063adcafa2f14610116578063f434c9141461012957600080fd5b80633f839bc61461007757806388bc2ef31461009d5780638eb69a9e146100dc575b600080fd5b61008a610085366004611db8565b610150565b6040519081526020015b60405180910390f35b6100c47f000000000000000000000000cd8c4da77dfb15c05486d3f71ee4c2c0dfdbc94e81565b6040516001600160a01b039091168152602001610094565b61008a6100ea366004611edb565b610346565b6100c47f000000000000000000000000d3838b2875a06e61befc3679ee2c8d88d61067dc81565b61008a610124366004611f64565b61054a565b6100c47f0000000000000000000000001e2e8562b635fe19978640c784e47865a83d660581565b60007f000000000000000000000000cd8c4da77dfb15c05486d3f71ee4c2c0dfdbc94e6001600160a01b031663293c49996040518163ffffffff1660e01b8152600401602060405180830381865afa1580156101b0573d6000803e3d6000fd5b505050506040513d601f19601f820116820180604052508101906101d49190612034565b6001600160a01b03166306661abd6040518163ffffffff1660e01b8152600401602060405180830381865afa158015610211573d6000803e3d6000fd5b505050506040513d601f19601f820116820180604052508101906102359190612058565b610240906001612071565b905060007f000000000000000000000000d3838b2875a06e61befc3679ee2c8d88d61067dc6001600160a01b0316632230819f83876040518363ffffffff1660e01b81526004016102929291906121fe565b6020604051808303816000875af11580156102b1573d6000803e3d6000fd5b505050506040513d601f19601f820116820180604052508101906102d59190612034565b90506102e3868583866106aa565b6040516351106b4b60e11b8152600481018390526001600160a01b0382169063a220d69690602401600060405180830381600087803b15801561032557600080fd5b505af1158015610339573d6000803e3d6000fd5b5050505050949350505050565b60006104437f000000000000000000000000cd8c4da77dfb15c05486d3f71ee4c2c0dfdbc94e6001600160a01b031663293c49996040518163ffffffff1660e01b8152600401602060405180830381865afa1580156103a9573d6000803e3d6000fd5b505050506040513d601f19601f820116820180604052508101906103cd9190612034565b6001600160a01b0316636352211e876040518263ffffffff1660e01b81526004016103fa91815260200190565b602060405180830381865afa158015610417573d6000803e3d6000fd5b505050506040513d601f19601f8201168201806040525081019061043b9190612034565b86600261095f565b604051632230819f60e01b81526000906001600160a01b037f000000000000000000000000d3838b2875a06e61befc3679ee2c8d88d61067dc1690632230819f9061049490899089906004016121fe565b6020604051808303816000875af11580156104b3573d6000803e3d6000fd5b505050506040513d601f19601f820116820180604052508101906104d79190612034565b6040516351106b4b60e11b8152600481018890529091506001600160a01b0382169063a220d69690602401600060405180830381600087803b15801561051c57600080fd5b505af1158015610530573d6000803e3d6000fd5b5050505061054086858386610afc565b9695505050505050565b60006105ad7f000000000000000000000000cd8c4da77dfb15c05486d3f71ee4c2c0dfdbc94e6001600160a01b031663293c49996040518163ffffffff1660e01b8152600401602060405180830381865afa1580156103a9573d6000803e3d6000fd5b604051632230819f60e01b81526000906001600160a01b037f000000000000000000000000d3838b2875a06e61befc3679ee2c8d88d61067dc1690632230819f906105fe90899089906004016121fe565b6020604051808303816000875af115801561061d573d6000803e3d6000fd5b505050506040513d601f19601f820116820180604052508101906106419190612034565b6040516351106b4b60e11b8152600481018890529091506001600160a01b0382169063a220d69690602401600060405180830381600087803b15801561068657600080fd5b505af115801561069a573d6000803e3d6000fd5b5050505061054086858386610db3565b60208301515160008167ffffffffffffffff8111156106cb576106cb61119c565b60405190808252806020026020018201604052801561070457816020015b6106f1611016565b8152602001906001900390816106e95790505b50905061070f6110d5565b60005b838110156108bd578660200151818151811061073057610730612336565b602002602001015191506040518061010001604052808360000151815260200183602001518152602001836040015181526020018360600151815260200183608001516001600160a01b031681526020016040518061020001604052808560a001516000015181526020018560a001516020015181526020018560a001516040015181526020018560a0015160600151151581526020018560a0015160800151151581526020018560a0015160a00151151581526020018560a0015160c00151151581526020018560a0015160e00151151581526020018560a001516101000151151581526020018560a001516101200151151581526020018560a001516101400151151581526020018560a001516101600151151581526020016001151581526020018560a00151610180015115158152602001896001600160a01b031681526020018560a001516101a0015181525081526020018360c0015181526020018360e001518152508382815181106108aa576108aa612336565b6020908102919091010152600101610712565b508551604080880151606089015191517f0634bae90000000000000000000000000000000000000000000000000000000081526001600160a01b03881693630634bae993610912938d93899290600401612743565b6020604051808303816000875af1158015610931573d6000803e3d6000fd5b505050506040513d601f19601f820116820180604052508101906109559190612058565b5050505050505050565b336001600160a01b0384168114801590610a16575060405163c161c93f60e01b81526001600160a01b038281166004830152858116602483015260448201859052606482018490527f0000000000000000000000001e2e8562b635fe19978640c784e47865a83d6605169063c161c93f90608401602060405180830381865afa1580156109f0573d6000803e3d6000fd5b505050506040513d601f19601f82011682018060405250810190610a14919061279f565b155b8015610abf575060405163c161c93f60e01b81526001600160a01b038281166004830152858116602483015260006044830152606482018490527f0000000000000000000000001e2e8562b635fe19978640c784e47865a83d6605169063c161c93f90608401602060405180830381865afa158015610a99573d6000803e3d6000fd5b505050506040513d601f19601f82011682018060405250810190610abd919061279f565b155b15610af6576040517f075fd2b100000000000000000000000000000000000000000000000000000000815260040160405180910390fd5b50505050565b602083015151600090818167ffffffffffffffff811115610b1f57610b1f61119c565b604051908082528060200260200182016040528015610b5857816020015b610b45611016565b815260200190600190039081610b3d5790505b509050610b636110d5565b60005b83811015610d115787602001518181518110610b8457610b84612336565b602002602001015191506040518061010001604052808360000151815260200183602001518152602001836040015181526020018360600151815260200183608001516001600160a01b031681526020016040518061020001604052808560a001516000015181526020018560a001516020015181526020018560a001516040015181526020018560a0015160600151151581526020018560a0015160800151151581526020018560a0015160a00151151581526020018560a0015160c00151151581526020018560a0015160e00151151581526020018560a001516101000151151581526020018560a001516101200151151581526020018560a001516101400151151581526020018560a001516101600151151581526020016001151581526020018560a001516101800151151581526020018a6001600160a01b031681526020018560a001516101a0015181525081526020018360c0015181526020018360e00151815250838281518110610cfe57610cfe612336565b6020908102919091010152600101610b66565b50604080880151606089015191517f1ea7bc8c0000000000000000000000000000000000000000000000000000000081526001600160a01b03881692631ea7bc8c92610d64928d928892916004016127bc565b6020604051808303816000875af1158015610d83573d6000803e3d6000fd5b505050506040513d601f19601f82011682018060405250810190610da79190612058565b98975050505050505050565b602083015151600090818167ffffffffffffffff811115610dd657610dd661119c565b604051908082528060200260200182016040528015610e0f57816020015b610dfc611016565b815260200190600190039081610df45790505b509050610e1a6110d5565b60005b83811015610fc85787602001518181518110610e3b57610e3b612336565b602002602001015191506040518061010001604052808360000151815260200183602001518152602001836040015181526020018360600151815260200183608001516001600160a01b031681526020016040518061020001604052808560a001516000015181526020018560a001516020015181526020018560a001516040015181526020018560a0015160600151151581526020018560a0015160800151151581526020018560a0015160a00151151581526020018560a0015160c00151151581526020018560a0015160e00151151581526020018560a001516101000151151581526020018560a001516101200151151581526020018560a001516101400151151581526020018560a001516101600151151581526020016001151581526020018560a001516101800151151581526020018a6001600160a01b031681526020018560a001516101a0015181525081526020018360c0015181526020018360e00151815250838281518110610fb557610fb5612336565b6020908102919091010152600101610e1d565b5060408088015190517fa0d8e2a90000000000000000000000000000000000000000000000000000000081526001600160a01b0387169163a0d8e2a991610d64918c91879190600401612806565b6040805161010080820183526000808352602080840182905283850182905260608085018390526080808601849052865161020081018852848152928301849052958201839052810182905293840181905260a084810182905260c0850182905260e0850182905291840181905261012084018190526101408401819052610160840181905261018084018190526101a084018190526101c084018190526101e08401529091908201905b815260200160608152602001606081525090565b604080516101008082018352600080835260208084018290528385018290526060808501839052608080860184905286516101c081018852848152928301849052958201839052810182905293840181905260a084810182905260c0850182905260e0850182905291840181905261012084018190526101408401819052610160840181905261018084018190526101a08401529091908201906110c1565b6001600160a01b038116811461118957600080fd5b50565b803561119781611174565b919050565b634e487b7160e01b600052604160045260246000fd5b6040516080810167ffffffffffffffff811182821017156111d5576111d561119c565b60405290565b604051610180810167ffffffffffffffff811182821017156111d5576111d561119c565b604051610120810167ffffffffffffffff811182821017156111d5576111d561119c565b6040516101c0810167ffffffffffffffff811182821017156111d5576111d561119c565b6040805190810167ffffffffffffffff811182821017156111d5576111d561119c565b60405160c0810167ffffffffffffffff811182821017156111d5576111d561119c565b604051610100810167ffffffffffffffff811182821017156111d5576111d561119c565b6040516060810167ffffffffffffffff811182821017156111d5576111d561119c565b604051601f8201601f1916810167ffffffffffffffff811182821017156112fd576112fd61119c565b604052919050565b600082601f83011261131657600080fd5b813567ffffffffffffffff8111156113305761133061119c565b611343601f8201601f19166020016112d4565b81815284602083860101111561135857600080fd5b816020850160208301376000918101602001919091529392505050565b600067ffffffffffffffff82111561138f5761138f61119c565b5060051b60200190565b80356cffffffffffffffffffffffffff8116811461119757600080fd5b803563ffffffff8116811461119757600080fd5b803561ffff8116811461119757600080fd5b803562ffffff8116811461119757600080fd5b801515811461118957600080fd5b8035611197816113ef565b803560ff8116811461119757600080fd5b6000608080838503121561142c57600080fd5b6114346111b2565b9150823567ffffffffffffffff81111561144d57600080fd5b8301601f8101851361145e57600080fd5b8035602061147361146e83611375565b6112d4565b828152610180928302840182019282820191908985111561149357600080fd5b948301945b848610156115865780868b0312156114b05760008081fd5b6114b86111db565b6114c187611399565b81526114ce8588016113b6565b8582015260406114df8189016113b6565b9082015260606114f08882016113ca565b908201526114ff87890161118c565b8189015260a0878101359082015260c061151a8189016113dc565b9082015260e061152b8882016113fd565b9082015261010061153d8882016113fd565b9082015261012061154f8882016113fd565b908201526101406115618882016113fd565b908201526101606115738882016113fd565b9082015283529485019491830191611498565b508652506115958682016113b6565b81860152505050506115a960408301611408565b60408201526115ba6060830161118c565b606082015292915050565b6000608082840312156115d757600080fd5b6115df6111b2565b905081356115ec816113ef565b815260208201356115fc816113ef565b6020820152604082013561160f816113ef565b604082015260608201356115ba816113ef565b6000610180828403121561163557600080fd5b61163d6111ff565b9050813567ffffffffffffffff8082111561165757600080fd5b61166385838601611305565b8352602084013591508082111561167957600080fd5b61168585838601611305565b60208401526116966040850161118c565b604084015260608401359150808211156116af57600080fd5b6116bb85838601611305565b60608401526116cc6080850161118c565b608084015260a08401359150808211156116e557600080fd5b6116f185838601611305565b60a084015260c084013591508082111561170a57600080fd5b5061171784828501611419565b60c08301525061172960e0830161118c565b60e082015261010061173d848285016115c5565b9082015292915050565b60006101c0828403121561175a57600080fd5b611762611223565b9050813581526020820135602082015260408201356040820152611788606083016113fd565b6060820152611799608083016113fd565b60808201526117aa60a083016113fd565b60a08201526117bb60c083016113fd565b60c08201526117cc60e083016113fd565b60e08201526101006117df8184016113fd565b908201526101206117f18382016113fd565b908201526101406118038382016113fd565b908201526101606118158382016113fd565b908201526101806118278382016113fd565b81830152506101a080830135818301525092915050565b600082601f83011261184f57600080fd5b8135602061185f61146e83611375565b82815260059290921b8401810191818101908684111561187e57600080fd5b8286015b848110156119b857803567ffffffffffffffff808211156118a257600080fd5b908801906040828b03601f19018113156118bb57600080fd5b6118c3611247565b87840135815281840135838111156118da57600080fd5b8085019450508b603f8501126118ef57600080fd5b87840135925061190161146e84611375565b83815260c09093028401820192888101908d85111561191f57600080fd5b948301945b848610156119a35760c0868f03121561193c57600080fd5b61194461126a565b863561194f816113ef565b8152868b01358b8201528487013585820152606087013561196f81611174565b60608201526080878101359082015260a087013561198c81611174565b60a0820152825260c0959095019490890190611924565b828a0152508652505050918301918301611882565b509695505050505050565b600082601f8301126119d457600080fd5b813560206119e461146e83611375565b82815260069290921b84018101918181019086841115611a0357600080fd5b8286015b848110156119b85760408189031215611a205760008081fd5b611a28611247565b813581528482013585820152835291830191604001611a07565b600082601f830112611a5357600080fd5b81356020611a6361146e83611375565b82815260059290921b84018101918181019086841115611a8257600080fd5b8286015b848110156119b857803567ffffffffffffffff80821115611aa75760008081fd5b908801906080828b03601f1901811315611ac15760008081fd5b611ac96111b2565b87840135611ad681611174565b8152604084810135611ae781611174565b828a015260608581013585811115611aff5760008081fd5b611b0d8f8c838a01016119c3565b8484015250928501359284841115611b2757600091508182fd5b611b358e8b868901016119c3565b90830152508652505050918301918301611a86565b600082601f830112611b5b57600080fd5b81356020611b6b61146e83611375565b82815260059290921b84018101918181019086841115611b8a57600080fd5b8286015b848110156119b857803567ffffffffffffffff80821115611baf5760008081fd5b908801906102a0828b03601f1901811315611bca5760008081fd5b611bd261128d565b87840135815260408085013589830152606080860135828401526080915081860135818401525060a0611c0681870161118c565b8284015260c09150611c1a8e838801611747565b9083015261028085013584811115611c325760008081fd5b611c408e8b8389010161183e565b82840152505081840135915082821115611c5a5760008081fd5b611c688c8984870101611a42565b60e08201528652505050918301918301611b8e565b600082601f830112611c8e57600080fd5b81356020611c9e61146e83611375565b828152600592831b8501820192828201919087851115611cbd57600080fd5b8387015b85811015611dab57803567ffffffffffffffff80821115611ce25760008081fd5b908901906040828c03601f1901811315611cfc5760008081fd5b611d04611247565b88840135611d1181611174565b81528382013583811115611d255760008081fd5b8085019450508c603f850112611d3d57600092508283fd5b888401359250611d4f61146e84611375565b83815292861b8401820192898101908e851115611d6c5760008081fd5b948301945b84861015611d965785359350611d8684611174565b838252948a0194908a0190611d71565b828b0152508752505050928401928401611cc1565b5090979650505050505050565b60008060008060808587031215611dce57600080fd5b8435611dd981611174565b9350602085013567ffffffffffffffff80821115611df657600080fd5b611e0288838901611622565b94506040870135915080821115611e1857600080fd5b9086019060808289031215611e2c57600080fd5b611e346111b2565b823582811115611e4357600080fd5b611e4f8a828601611305565b825250602083013582811115611e6457600080fd5b611e708a828601611b4a565b602083015250604083013582811115611e8857600080fd5b611e948a828601611c7d565b604083015250606083013582811115611eac57600080fd5b611eb88a828601611305565b606083015250809450505050611ed06060860161118c565b905092959194509250565b60008060008060808587031215611ef157600080fd5b84359350602085013567ffffffffffffffff80821115611f1057600080fd5b611f1c88838901611622565b94506040870135915080821115611f3257600080fd5b9086019060808289031215611f4657600080fd5b611f4e6111b2565b82358152602083013582811115611e6457600080fd5b60008060008060808587031215611f7a57600080fd5b84359350602085013567ffffffffffffffff80821115611f9957600080fd5b611fa588838901611622565b94506040870135915080821115611fbb57600080fd5b9086019060608289031215611fcf57600080fd5b611fd76112b1565b82358152602083013582811115611fed57600080fd5b611ff98a828601611b4a565b60208301525060408301358281111561201157600080fd5b61201d8a828601611305565b6040830152509350611ed09150506060860161118c565b60006020828403121561204657600080fd5b815161205181611174565b9392505050565b60006020828403121561206a57600080fd5b5051919050565b8082018082111561209257634e487b7160e01b600052601160045260246000fd5b92915050565b6000815180845260005b818110156120be576020818501810151868301820152016120a2565b506000602082860101526020601f19601f83011685010191505092915050565b80516080808452815184820181905260009260a0916020918201918388019190865b828110156121c357845180516cffffffffffffffffffffffffff1685528281015163ffffffff908116848701526040808301519091169086015260608082015161ffff1690860152878101516001600160a01b031688860152868101518786015260c08082015162ffffff169086015260e080820151151590860152610100808201511515908601526101208082015115159086015261014080820151151590860152610160908101511515908501529381019361018090930192600101612100565b508781015163ffffffff16908901525060408087015160ff16908801526060808701516001600160a01b038116918901919091529350610540565b828152604060208201526000825161018060408401526122226101c0840182612098565b90506020840151603f19808584030160608601526122408383612098565b92506040860151915061225e60808601836001600160a01b03169052565b60608601519150808584030160a08601526122798383612098565b92506080860151915061229760c08601836001600160a01b03169052565b60a08601519150808584030160e08601526122b28383612098565b925060c086015191506101008186850301818701526122d184846120de565b935060e087015192506122f06101208701846001600160a01b03169052565b860151805115156101408701526020810151151561016087015260408101511515610180870152606081015115156101a0870152915061232d9050565b50949350505050565b634e487b7160e01b600052603260045260246000fd5b8051825260208101516020830152604081015160408301526060810151612377606084018215159052565b50608081015161238b608084018215159052565b5060a081015161239f60a084018215159052565b5060c08101516123b360c084018215159052565b5060e08101516123c760e084018215159052565b5061010081810151151590830152610120808201511515908301526101408082015115159083015261016080820151151590830152610180808201511515908301526101a0808201511515908301526101c0808201516001600160a01b0316908301526101e090810151910152565b600082825180855260208086019550808260051b8401018186016000805b858110156124fc57868403601f19018a52825180518552850151604086860181905281518187018190529187019160609081880190865b818110156124e55785518051151584528b8101518c8501528581015186850152848101516001600160a01b03908116868601526080808301519086015260a0918201511690840152948a019460c09092019160010161248b565b50509c88019c965050509285019250600101612454565b509198975050505050505050565b60008151808452602080850194506020840160005b8381101561254657815180518852830151838801526040909601959082019060010161251f565b509495945050505050565b600082825180855260208086019550808260051b84010181860160005b84811015611dab57601f19868403018952815160806001600160a01b03808351168652808784015116878701525060408083015182828801526125b38388018261250a565b92505050606080830151925085820381870152506125d1818361250a565b9a86019a945050509083019060010161256e565b600082825180855260208086019550808260051b84010181860160005b84811015611dab57858303601f19018952815180518452848101518585015260408082015190850152606080820151908501526080808201516001600160a01b03169085015260a0808201516102e0919061265f8288018261234c565b505060c0820151816102a087015261267982870182612436565b91505060e082015191508481036102c08601526126968183612551565b9a86019a9450505090830190600101612602565b600082825180855260208086019550808260051b8401018186016000805b858110156124fc57868403601f19018a52825180516001600160a01b03908116865290860151604087870181905281519087018190529087019160608701918591905b8083101561272d5784518216845293890193928901926001929092019161270b565b5050509a86019a945050918401916001016126c8565b6001600160a01b038616815260a06020820152600061276560a0830187612098565b828103604084015261277781876125e5565b9050828103606084015261278b81866126aa565b90508281036080840152610da78185612098565b6000602082840312156127b157600080fd5b8151612051816113ef565b8481526080602082015260006127d560808301866125e5565b82810360408401526127e781866126aa565b905082810360608401526127fb8185612098565b979650505050505050565b83815260606020820152600061281f60608301856125e5565b8281036040840152610540818561209856fea26469706673582212208f1339f5250d8f0ce2ad01916930a96678e16bdb08a5f7a87136051a590ed97364736f6c63430008170033",
			"devdoc": {
				"kind": "dev",
				"methods": {
					"constructor": {
						"params": {
							"directory": "The directory of terminals and controllers for projects.",
							"hookDeployer": "The 721 tiers hook deployer.",
							"permissions": "A contract storing permissions."
						}
					},
					"launchProjectFor(address,(string,string,address,string,address,string,((uint104,uint32,uint32,uint16,address,bytes32,uint24,bool,bool,bool,bool,bool)[],uint32,uint8,address),address,(bool,bool,bool,bool)),(string,(uint256,uint256,uint256,uint256,address,(uint256,uint256,uint256,bool,bool,bool,bool,bool,bool,bool,bool,bool,bool,uint256),(uint256,(bool,uint256,uint256,address,uint256,address)[])[],(address,address,(uint256,uint256)[],(uint256,uint256)[])[])[],(address,address[])[],string),address)": {
						"params": {
							"controller": "The controller that the project's rulesets will be queued with.",
							"deployTiersHookConfig": "Configuration which dictates the behavior of the 721 tiers hook which is being deployed.",
							"launchProjectConfig": "Configuration which dictates the behavior of the project which is being launched.",
							"owner": "The address to set as the owner of the project. The ERC-721 which confers this project's ownership will be sent to this address."
						},
						"returns": {
							"projectId": "The ID of the newly launched project."
						}
					},
					"launchRulesetsFor(uint256,(string,string,address,string,address,string,((uint104,uint32,uint32,uint16,address,bytes32,uint24,bool,bool,bool,bool,bool)[],uint32,uint8,address),address,(bool,bool,bool,bool)),(uint256,(uint256,uint256,uint256,uint256,address,(uint256,uint256,uint256,bool,bool,bool,bool,bool,bool,bool,bool,bool,bool,uint256),(uint256,(bool,uint256,uint256,address,uint256,address)[])[],(address,address,(uint256,uint256)[],(uint256,uint256)[])[])[],(address,address[])[],string),address)": {
						"details": "Only a project's owner or an operator with the `QUEUE_RULESETS` permission can launch its rulesets.",
						"params": {
							"controller": "The controller that the project's rulesets will be queued with.",
							"deployTiersHookConfig": "Configuration which dictates the behavior of the 721 tiers hook which is being deployed.",
							"launchRulesetsConfig": "Configuration which dictates the project's new rulesets.",
							"projectId": "The ID of the project that rulesets are being launched for."
						},
						"returns": {
							"rulesetId": "The ID of the successfully created ruleset."
						}
					},
					"queueRulesetsOf(uint256,(string,string,address,string,address,string,((uint104,uint32,uint32,uint16,address,bytes32,uint24,bool,bool,bool,bool,bool)[],uint32,uint8,address),address,(bool,bool,bool,bool)),(uint256,(uint256,uint256,uint256,uint256,address,(uint256,uint256,uint256,bool,bool,bool,bool,bool,bool,bool,bool,bool,bool,uint256),(uint256,(bool,uint256,uint256,address,uint256,address)[])[],(address,address,(uint256,uint256)[],(uint256,uint256)[])[])[],string),address)": {
						"details": "Only a project's owner or an operator with the `QUEUE_RULESETS` permission can queue its rulesets.",
						"params": {
							"controller": "The controller that the project's rulesets will be queued with.",
							"deployTiersHookConfig": "Configuration which dictates the behavior of the 721 tiers hook which is being deployed.",
							"projectId": "The ID of the project that rulesets are being queued for.",
							"queueRulesetsConfig": "Configuration which dictates the project's newly queued rulesets."
						},
						"returns": {
							"rulesetId": "The ID of the successfully created ruleset."
						}
					}
				},
				"version": 1
			},
			"userdoc": {
				"kind": "user",
				"methods": {
					"DIRECTORY()": {
						"notice": "The directory of terminals and controllers for projects."
					},
					"HOOK_DEPLOYER()": {
						"notice": "The 721 tiers hook deployer."
					},
					"PERMISSIONS()": {
						"notice": "A contract storing permissions."
					},
					"launchProjectFor(address,(string,string,address,string,address,string,((uint104,uint32,uint32,uint16,address,bytes32,uint24,bool,bool,bool,bool,bool)[],uint32,uint8,address),address,(bool,bool,bool,bool)),(string,(uint256,uint256,uint256,uint256,address,(uint256,uint256,uint256,bool,bool,bool,bool,bool,bool,bool,bool,bool,bool,uint256),(uint256,(bool,uint256,uint256,address,uint256,address)[])[],(address,address,(uint256,uint256)[],(uint256,uint256)[])[])[],(address,address[])[],string),address)": {
						"notice": "Launches a new project with a 721 tiers hook attached."
					},
					"launchRulesetsFor(uint256,(string,string,address,string,address,string,((uint104,uint32,uint32,uint16,address,bytes32,uint24,bool,bool,bool,bool,bool)[],uint32,uint8,address),address,(bool,bool,bool,bool)),(uint256,(uint256,uint256,uint256,uint256,address,(uint256,uint256,uint256,bool,bool,bool,bool,bool,bool,bool,bool,bool,bool,uint256),(uint256,(bool,uint256,uint256,address,uint256,address)[])[],(address,address,(uint256,uint256)[],(uint256,uint256)[])[])[],(address,address[])[],string),address)": {
						"notice": "Launches rulesets for a project with an attached 721 tiers hook."
					},
					"queueRulesetsOf(uint256,(string,string,address,string,address,string,((uint104,uint32,uint32,uint16,address,bytes32,uint24,bool,bool,bool,bool,bool)[],uint32,uint8,address),address,(bool,bool,bool,bool)),(uint256,(uint256,uint256,uint256,uint256,address,(uint256,uint256,uint256,bool,bool,bool,bool,bool,bool,bool,bool,bool,bool,uint256),(uint256,(bool,uint256,uint256,address,uint256,address)[])[],(address,address,(uint256,uint256)[],(uint256,uint256)[])[])[],string),address)": {
						"notice": "Queues rulesets for a project with an attached 721 tiers hook."
					}
				},
				"version": 1
			},
			"gitCommit": "bbe3e586edd7f6ffc20748bc04e03363a779a864",
			"sourceName": "src/JB721TiersHookProjectDeployer.sol",
			"chainId": "421614",
			"linkReferences": {},
			"deployedLinkReferences": {}
		},
		{
			"_format": "sphinx-sol-ct-artifact-1",
			"merkleRoot": "0xc247d32a31720a2fd823bfaf786aac2d07f99ef9eaca44a0eb7e413dc6f4d276",
			"contractName": "JB721TiersHookProjectDeployer",
			"address": "0xd0c639c05eDc4a570dFcd69eF9B7c505faEa2203",
			"abi": [
				{
					"type": "constructor",
					"inputs": [
						{
							"name": "directory",
							"type": "address",
							"internalType": "contract IJBDirectory"
						},
						{
							"name": "permissions",
							"type": "address",
							"internalType": "contract IJBPermissions"
						},
						{
							"name": "hookDeployer",
							"type": "address",
							"internalType": "contract IJB721TiersHookDeployer"
						}
					],
					"stateMutability": "nonpayable"
				},
				{
					"type": "function",
					"name": "DIRECTORY",
					"inputs": [],
					"outputs": [
						{
							"name": "",
							"type": "address",
							"internalType": "contract IJBDirectory"
						}
					],
					"stateMutability": "view"
				},
				{
					"type": "function",
					"name": "HOOK_DEPLOYER",
					"inputs": [],
					"outputs": [
						{
							"name": "",
							"type": "address",
							"internalType": "contract IJB721TiersHookDeployer"
						}
					],
					"stateMutability": "view"
				},
				{
					"type": "function",
					"name": "PERMISSIONS",
					"inputs": [],
					"outputs": [
						{
							"name": "",
							"type": "address",
							"internalType": "contract IJBPermissions"
						}
					],
					"stateMutability": "view"
				},
				{
					"type": "function",
					"name": "launchProjectFor",
					"inputs": [
						{
							"name": "owner",
							"type": "address",
							"internalType": "address"
						},
						{
							"name": "deployTiersHookConfig",
							"type": "tuple",
							"internalType": "struct JBDeploy721TiersHookConfig",
							"components": [
								{
									"name": "name",
									"type": "string",
									"internalType": "string"
								},
								{
									"name": "symbol",
									"type": "string",
									"internalType": "string"
								},
								{
									"name": "rulesets",
									"type": "address",
									"internalType": "contract IJBRulesets"
								},
								{
									"name": "baseUri",
									"type": "string",
									"internalType": "string"
								},
								{
									"name": "tokenUriResolver",
									"type": "address",
									"internalType": "contract IJB721TokenUriResolver"
								},
								{
									"name": "contractUri",
									"type": "string",
									"internalType": "string"
								},
								{
									"name": "tiersConfig",
									"type": "tuple",
									"internalType": "struct JB721InitTiersConfig",
									"components": [
										{
											"name": "tiers",
											"type": "tuple[]",
											"internalType": "struct JB721TierConfig[]",
											"components": [
												{
													"name": "price",
													"type": "uint104",
													"internalType": "uint104"
												},
												{
													"name": "initialSupply",
													"type": "uint32",
													"internalType": "uint32"
												},
												{
													"name": "votingUnits",
													"type": "uint32",
													"internalType": "uint32"
												},
												{
													"name": "reserveFrequency",
													"type": "uint16",
													"internalType": "uint16"
												},
												{
													"name": "reserveBeneficiary",
													"type": "address",
													"internalType": "address"
												},
												{
													"name": "encodedIPFSUri",
													"type": "bytes32",
													"internalType": "bytes32"
												},
												{
													"name": "category",
													"type": "uint24",
													"internalType": "uint24"
												},
												{
													"name": "allowOwnerMint",
													"type": "bool",
													"internalType": "bool"
												},
												{
													"name": "useReserveBeneficiaryAsDefault",
													"type": "bool",
													"internalType": "bool"
												},
												{
													"name": "transfersPausable",
													"type": "bool",
													"internalType": "bool"
												},
												{
													"name": "useVotingUnits",
													"type": "bool",
													"internalType": "bool"
												},
												{
													"name": "cannotBeRemoved",
													"type": "bool",
													"internalType": "bool"
												}
											]
										},
										{
											"name": "currency",
											"type": "uint32",
											"internalType": "uint32"
										},
										{
											"name": "decimals",
											"type": "uint8",
											"internalType": "uint8"
										},
										{
											"name": "prices",
											"type": "address",
											"internalType": "contract IJBPrices"
										}
									]
								},
								{
									"name": "reserveBeneficiary",
									"type": "address",
									"internalType": "address"
								},
								{
									"name": "flags",
									"type": "tuple",
									"internalType": "struct JB721TiersHookFlags",
									"components": [
										{
											"name": "noNewTiersWithReserves",
											"type": "bool",
											"internalType": "bool"
										},
										{
											"name": "noNewTiersWithVotes",
											"type": "bool",
											"internalType": "bool"
										},
										{
											"name": "noNewTiersWithOwnerMinting",
											"type": "bool",
											"internalType": "bool"
										},
										{
											"name": "preventOverspending",
											"type": "bool",
											"internalType": "bool"
										}
									]
								}
							]
						},
						{
							"name": "launchProjectConfig",
							"type": "tuple",
							"internalType": "struct JBLaunchProjectConfig",
							"components": [
								{
									"name": "projectUri",
									"type": "string",
									"internalType": "string"
								},
								{
									"name": "rulesetConfigurations",
									"type": "tuple[]",
									"internalType": "struct JBPayDataHookRulesetConfig[]",
									"components": [
										{
											"name": "mustStartAtOrAfter",
											"type": "uint256",
											"internalType": "uint256"
										},
										{
											"name": "duration",
											"type": "uint256",
											"internalType": "uint256"
										},
										{
											"name": "weight",
											"type": "uint256",
											"internalType": "uint256"
										},
										{
											"name": "decayRate",
											"type": "uint256",
											"internalType": "uint256"
										},
										{
											"name": "approvalHook",
											"type": "address",
											"internalType": "contract IJBRulesetApprovalHook"
										},
										{
											"name": "metadata",
											"type": "tuple",
											"internalType": "struct JBPayDataHookRulesetMetadata",
											"components": [
												{
													"name": "reservedRate",
													"type": "uint256",
													"internalType": "uint256"
												},
												{
													"name": "redemptionRate",
													"type": "uint256",
													"internalType": "uint256"
												},
												{
													"name": "baseCurrency",
													"type": "uint256",
													"internalType": "uint256"
												},
												{
													"name": "pausePay",
													"type": "bool",
													"internalType": "bool"
												},
												{
													"name": "pauseCreditTransfers",
													"type": "bool",
													"internalType": "bool"
												},
												{
													"name": "allowOwnerMinting",
													"type": "bool",
													"internalType": "bool"
												},
												{
													"name": "allowTerminalMigration",
													"type": "bool",
													"internalType": "bool"
												},
												{
													"name": "allowSetTerminals",
													"type": "bool",
													"internalType": "bool"
												},
												{
													"name": "allowControllerMigration",
													"type": "bool",
													"internalType": "bool"
												},
												{
													"name": "allowSetController",
													"type": "bool",
													"internalType": "bool"
												},
												{
													"name": "holdFees",
													"type": "bool",
													"internalType": "bool"
												},
												{
													"name": "useTotalSurplusForRedemptions",
													"type": "bool",
													"internalType": "bool"
												},
												{
													"name": "useDataHookForRedeem",
													"type": "bool",
													"internalType": "bool"
												},
												{
													"name": "metadata",
													"type": "uint256",
													"internalType": "uint256"
												}
											]
										},
										{
											"name": "splitGroups",
											"type": "tuple[]",
											"internalType": "struct JBSplitGroup[]",
											"components": [
												{
													"name": "groupId",
													"type": "uint256",
													"internalType": "uint256"
												},
												{
													"name": "splits",
													"type": "tuple[]",
													"internalType": "struct JBSplit[]",
													"components": [
														{
															"name": "preferAddToBalance",
															"type": "bool",
															"internalType": "bool"
														},
														{
															"name": "percent",
															"type": "uint256",
															"internalType": "uint256"
														},
														{
															"name": "projectId",
															"type": "uint256",
															"internalType": "uint256"
														},
														{
															"name": "beneficiary",
															"type": "address",
															"internalType": "address payable"
														},
														{
															"name": "lockedUntil",
															"type": "uint256",
															"internalType": "uint256"
														},
														{
															"name": "hook",
															"type": "address",
															"internalType": "contract IJBSplitHook"
														}
													]
												}
											]
										},
										{
											"name": "fundAccessLimitGroups",
											"type": "tuple[]",
											"internalType": "struct JBFundAccessLimitGroup[]",
											"components": [
												{
													"name": "terminal",
													"type": "address",
													"internalType": "address"
												},
												{
													"name": "token",
													"type": "address",
													"internalType": "address"
												},
												{
													"name": "payoutLimits",
													"type": "tuple[]",
													"internalType": "struct JBCurrencyAmount[]",
													"components": [
														{
															"name": "amount",
															"type": "uint256",
															"internalType": "uint256"
														},
														{
															"name": "currency",
															"type": "uint256",
															"internalType": "uint256"
														}
													]
												},
												{
													"name": "surplusAllowances",
													"type": "tuple[]",
													"internalType": "struct JBCurrencyAmount[]",
													"components": [
														{
															"name": "amount",
															"type": "uint256",
															"internalType": "uint256"
														},
														{
															"name": "currency",
															"type": "uint256",
															"internalType": "uint256"
														}
													]
												}
											]
										}
									]
								},
								{
									"name": "terminalConfigurations",
									"type": "tuple[]",
									"internalType": "struct JBTerminalConfig[]",
									"components": [
										{
											"name": "terminal",
											"type": "address",
											"internalType": "contract IJBTerminal"
										},
										{
											"name": "tokensToAccept",
											"type": "address[]",
											"internalType": "address[]"
										}
									]
								},
								{
									"name": "memo",
									"type": "string",
									"internalType": "string"
								}
							]
						},
						{
							"name": "controller",
							"type": "address",
							"internalType": "contract IJBController"
						}
					],
					"outputs": [
						{
							"name": "projectId",
							"type": "uint256",
							"internalType": "uint256"
						}
					],
					"stateMutability": "nonpayable"
				},
				{
					"type": "function",
					"name": "launchRulesetsFor",
					"inputs": [
						{
							"name": "projectId",
							"type": "uint256",
							"internalType": "uint256"
						},
						{
							"name": "deployTiersHookConfig",
							"type": "tuple",
							"internalType": "struct JBDeploy721TiersHookConfig",
							"components": [
								{
									"name": "name",
									"type": "string",
									"internalType": "string"
								},
								{
									"name": "symbol",
									"type": "string",
									"internalType": "string"
								},
								{
									"name": "rulesets",
									"type": "address",
									"internalType": "contract IJBRulesets"
								},
								{
									"name": "baseUri",
									"type": "string",
									"internalType": "string"
								},
								{
									"name": "tokenUriResolver",
									"type": "address",
									"internalType": "contract IJB721TokenUriResolver"
								},
								{
									"name": "contractUri",
									"type": "string",
									"internalType": "string"
								},
								{
									"name": "tiersConfig",
									"type": "tuple",
									"internalType": "struct JB721InitTiersConfig",
									"components": [
										{
											"name": "tiers",
											"type": "tuple[]",
											"internalType": "struct JB721TierConfig[]",
											"components": [
												{
													"name": "price",
													"type": "uint104",
													"internalType": "uint104"
												},
												{
													"name": "initialSupply",
													"type": "uint32",
													"internalType": "uint32"
												},
												{
													"name": "votingUnits",
													"type": "uint32",
													"internalType": "uint32"
												},
												{
													"name": "reserveFrequency",
													"type": "uint16",
													"internalType": "uint16"
												},
												{
													"name": "reserveBeneficiary",
													"type": "address",
													"internalType": "address"
												},
												{
													"name": "encodedIPFSUri",
													"type": "bytes32",
													"internalType": "bytes32"
												},
												{
													"name": "category",
													"type": "uint24",
													"internalType": "uint24"
												},
												{
													"name": "allowOwnerMint",
													"type": "bool",
													"internalType": "bool"
												},
												{
													"name": "useReserveBeneficiaryAsDefault",
													"type": "bool",
													"internalType": "bool"
												},
												{
													"name": "transfersPausable",
													"type": "bool",
													"internalType": "bool"
												},
												{
													"name": "useVotingUnits",
													"type": "bool",
													"internalType": "bool"
												},
												{
													"name": "cannotBeRemoved",
													"type": "bool",
													"internalType": "bool"
												}
											]
										},
										{
											"name": "currency",
											"type": "uint32",
											"internalType": "uint32"
										},
										{
											"name": "decimals",
											"type": "uint8",
											"internalType": "uint8"
										},
										{
											"name": "prices",
											"type": "address",
											"internalType": "contract IJBPrices"
										}
									]
								},
								{
									"name": "reserveBeneficiary",
									"type": "address",
									"internalType": "address"
								},
								{
									"name": "flags",
									"type": "tuple",
									"internalType": "struct JB721TiersHookFlags",
									"components": [
										{
											"name": "noNewTiersWithReserves",
											"type": "bool",
											"internalType": "bool"
										},
										{
											"name": "noNewTiersWithVotes",
											"type": "bool",
											"internalType": "bool"
										},
										{
											"name": "noNewTiersWithOwnerMinting",
											"type": "bool",
											"internalType": "bool"
										},
										{
											"name": "preventOverspending",
											"type": "bool",
											"internalType": "bool"
										}
									]
								}
							]
						},
						{
							"name": "launchRulesetsConfig",
							"type": "tuple",
							"internalType": "struct JBLaunchRulesetsConfig",
							"components": [
								{
									"name": "projectId",
									"type": "uint256",
									"internalType": "uint256"
								},
								{
									"name": "rulesetConfigurations",
									"type": "tuple[]",
									"internalType": "struct JBPayDataHookRulesetConfig[]",
									"components": [
										{
											"name": "mustStartAtOrAfter",
											"type": "uint256",
											"internalType": "uint256"
										},
										{
											"name": "duration",
											"type": "uint256",
											"internalType": "uint256"
										},
										{
											"name": "weight",
											"type": "uint256",
											"internalType": "uint256"
										},
										{
											"name": "decayRate",
											"type": "uint256",
											"internalType": "uint256"
										},
										{
											"name": "approvalHook",
											"type": "address",
											"internalType": "contract IJBRulesetApprovalHook"
										},
										{
											"name": "metadata",
											"type": "tuple",
											"internalType": "struct JBPayDataHookRulesetMetadata",
											"components": [
												{
													"name": "reservedRate",
													"type": "uint256",
													"internalType": "uint256"
												},
												{
													"name": "redemptionRate",
													"type": "uint256",
													"internalType": "uint256"
												},
												{
													"name": "baseCurrency",
													"type": "uint256",
													"internalType": "uint256"
												},
												{
													"name": "pausePay",
													"type": "bool",
													"internalType": "bool"
												},
												{
													"name": "pauseCreditTransfers",
													"type": "bool",
													"internalType": "bool"
												},
												{
													"name": "allowOwnerMinting",
													"type": "bool",
													"internalType": "bool"
												},
												{
													"name": "allowTerminalMigration",
													"type": "bool",
													"internalType": "bool"
												},
												{
													"name": "allowSetTerminals",
													"type": "bool",
													"internalType": "bool"
												},
												{
													"name": "allowControllerMigration",
													"type": "bool",
													"internalType": "bool"
												},
												{
													"name": "allowSetController",
													"type": "bool",
													"internalType": "bool"
												},
												{
													"name": "holdFees",
													"type": "bool",
													"internalType": "bool"
												},
												{
													"name": "useTotalSurplusForRedemptions",
													"type": "bool",
													"internalType": "bool"
												},
												{
													"name": "useDataHookForRedeem",
													"type": "bool",
													"internalType": "bool"
												},
												{
													"name": "metadata",
													"type": "uint256",
													"internalType": "uint256"
												}
											]
										},
										{
											"name": "splitGroups",
											"type": "tuple[]",
											"internalType": "struct JBSplitGroup[]",
											"components": [
												{
													"name": "groupId",
													"type": "uint256",
													"internalType": "uint256"
												},
												{
													"name": "splits",
													"type": "tuple[]",
													"internalType": "struct JBSplit[]",
													"components": [
														{
															"name": "preferAddToBalance",
															"type": "bool",
															"internalType": "bool"
														},
														{
															"name": "percent",
															"type": "uint256",
															"internalType": "uint256"
														},
														{
															"name": "projectId",
															"type": "uint256",
															"internalType": "uint256"
														},
														{
															"name": "beneficiary",
															"type": "address",
															"internalType": "address payable"
														},
														{
															"name": "lockedUntil",
															"type": "uint256",
															"internalType": "uint256"
														},
														{
															"name": "hook",
															"type": "address",
															"internalType": "contract IJBSplitHook"
														}
													]
												}
											]
										},
										{
											"name": "fundAccessLimitGroups",
											"type": "tuple[]",
											"internalType": "struct JBFundAccessLimitGroup[]",
											"components": [
												{
													"name": "terminal",
													"type": "address",
													"internalType": "address"
												},
												{
													"name": "token",
													"type": "address",
													"internalType": "address"
												},
												{
													"name": "payoutLimits",
													"type": "tuple[]",
													"internalType": "struct JBCurrencyAmount[]",
													"components": [
														{
															"name": "amount",
															"type": "uint256",
															"internalType": "uint256"
														},
														{
															"name": "currency",
															"type": "uint256",
															"internalType": "uint256"
														}
													]
												},
												{
													"name": "surplusAllowances",
													"type": "tuple[]",
													"internalType": "struct JBCurrencyAmount[]",
													"components": [
														{
															"name": "amount",
															"type": "uint256",
															"internalType": "uint256"
														},
														{
															"name": "currency",
															"type": "uint256",
															"internalType": "uint256"
														}
													]
												}
											]
										}
									]
								},
								{
									"name": "terminalConfigurations",
									"type": "tuple[]",
									"internalType": "struct JBTerminalConfig[]",
									"components": [
										{
											"name": "terminal",
											"type": "address",
											"internalType": "contract IJBTerminal"
										},
										{
											"name": "tokensToAccept",
											"type": "address[]",
											"internalType": "address[]"
										}
									]
								},
								{
									"name": "memo",
									"type": "string",
									"internalType": "string"
								}
							]
						},
						{
							"name": "controller",
							"type": "address",
							"internalType": "contract IJBController"
						}
					],
					"outputs": [
						{
							"name": "rulesetId",
							"type": "uint256",
							"internalType": "uint256"
						}
					],
					"stateMutability": "nonpayable"
				},
				{
					"type": "function",
					"name": "queueRulesetsOf",
					"inputs": [
						{
							"name": "projectId",
							"type": "uint256",
							"internalType": "uint256"
						},
						{
							"name": "deployTiersHookConfig",
							"type": "tuple",
							"internalType": "struct JBDeploy721TiersHookConfig",
							"components": [
								{
									"name": "name",
									"type": "string",
									"internalType": "string"
								},
								{
									"name": "symbol",
									"type": "string",
									"internalType": "string"
								},
								{
									"name": "rulesets",
									"type": "address",
									"internalType": "contract IJBRulesets"
								},
								{
									"name": "baseUri",
									"type": "string",
									"internalType": "string"
								},
								{
									"name": "tokenUriResolver",
									"type": "address",
									"internalType": "contract IJB721TokenUriResolver"
								},
								{
									"name": "contractUri",
									"type": "string",
									"internalType": "string"
								},
								{
									"name": "tiersConfig",
									"type": "tuple",
									"internalType": "struct JB721InitTiersConfig",
									"components": [
										{
											"name": "tiers",
											"type": "tuple[]",
											"internalType": "struct JB721TierConfig[]",
											"components": [
												{
													"name": "price",
													"type": "uint104",
													"internalType": "uint104"
												},
												{
													"name": "initialSupply",
													"type": "uint32",
													"internalType": "uint32"
												},
												{
													"name": "votingUnits",
													"type": "uint32",
													"internalType": "uint32"
												},
												{
													"name": "reserveFrequency",
													"type": "uint16",
													"internalType": "uint16"
												},
												{
													"name": "reserveBeneficiary",
													"type": "address",
													"internalType": "address"
												},
												{
													"name": "encodedIPFSUri",
													"type": "bytes32",
													"internalType": "bytes32"
												},
												{
													"name": "category",
													"type": "uint24",
													"internalType": "uint24"
												},
												{
													"name": "allowOwnerMint",
													"type": "bool",
													"internalType": "bool"
												},
												{
													"name": "useReserveBeneficiaryAsDefault",
													"type": "bool",
													"internalType": "bool"
												},
												{
													"name": "transfersPausable",
													"type": "bool",
													"internalType": "bool"
												},
												{
													"name": "useVotingUnits",
													"type": "bool",
													"internalType": "bool"
												},
												{
													"name": "cannotBeRemoved",
													"type": "bool",
													"internalType": "bool"
												}
											]
										},
										{
											"name": "currency",
											"type": "uint32",
											"internalType": "uint32"
										},
										{
											"name": "decimals",
											"type": "uint8",
											"internalType": "uint8"
										},
										{
											"name": "prices",
											"type": "address",
											"internalType": "contract IJBPrices"
										}
									]
								},
								{
									"name": "reserveBeneficiary",
									"type": "address",
									"internalType": "address"
								},
								{
									"name": "flags",
									"type": "tuple",
									"internalType": "struct JB721TiersHookFlags",
									"components": [
										{
											"name": "noNewTiersWithReserves",
											"type": "bool",
											"internalType": "bool"
										},
										{
											"name": "noNewTiersWithVotes",
											"type": "bool",
											"internalType": "bool"
										},
										{
											"name": "noNewTiersWithOwnerMinting",
											"type": "bool",
											"internalType": "bool"
										},
										{
											"name": "preventOverspending",
											"type": "bool",
											"internalType": "bool"
										}
									]
								}
							]
						},
						{
							"name": "queueRulesetsConfig",
							"type": "tuple",
							"internalType": "struct JBQueueRulesetsConfig",
							"components": [
								{
									"name": "projectId",
									"type": "uint256",
									"internalType": "uint256"
								},
								{
									"name": "rulesetConfigurations",
									"type": "tuple[]",
									"internalType": "struct JBPayDataHookRulesetConfig[]",
									"components": [
										{
											"name": "mustStartAtOrAfter",
											"type": "uint256",
											"internalType": "uint256"
										},
										{
											"name": "duration",
											"type": "uint256",
											"internalType": "uint256"
										},
										{
											"name": "weight",
											"type": "uint256",
											"internalType": "uint256"
										},
										{
											"name": "decayRate",
											"type": "uint256",
											"internalType": "uint256"
										},
										{
											"name": "approvalHook",
											"type": "address",
											"internalType": "contract IJBRulesetApprovalHook"
										},
										{
											"name": "metadata",
											"type": "tuple",
											"internalType": "struct JBPayDataHookRulesetMetadata",
											"components": [
												{
													"name": "reservedRate",
													"type": "uint256",
													"internalType": "uint256"
												},
												{
													"name": "redemptionRate",
													"type": "uint256",
													"internalType": "uint256"
												},
												{
													"name": "baseCurrency",
													"type": "uint256",
													"internalType": "uint256"
												},
												{
													"name": "pausePay",
													"type": "bool",
													"internalType": "bool"
												},
												{
													"name": "pauseCreditTransfers",
													"type": "bool",
													"internalType": "bool"
												},
												{
													"name": "allowOwnerMinting",
													"type": "bool",
													"internalType": "bool"
												},
												{
													"name": "allowTerminalMigration",
													"type": "bool",
													"internalType": "bool"
												},
												{
													"name": "allowSetTerminals",
													"type": "bool",
													"internalType": "bool"
												},
												{
													"name": "allowControllerMigration",
													"type": "bool",
													"internalType": "bool"
												},
												{
													"name": "allowSetController",
													"type": "bool",
													"internalType": "bool"
												},
												{
													"name": "holdFees",
													"type": "bool",
													"internalType": "bool"
												},
												{
													"name": "useTotalSurplusForRedemptions",
													"type": "bool",
													"internalType": "bool"
												},
												{
													"name": "useDataHookForRedeem",
													"type": "bool",
													"internalType": "bool"
												},
												{
													"name": "metadata",
													"type": "uint256",
													"internalType": "uint256"
												}
											]
										},
										{
											"name": "splitGroups",
											"type": "tuple[]",
											"internalType": "struct JBSplitGroup[]",
											"components": [
												{
													"name": "groupId",
													"type": "uint256",
													"internalType": "uint256"
												},
												{
													"name": "splits",
													"type": "tuple[]",
													"internalType": "struct JBSplit[]",
													"components": [
														{
															"name": "preferAddToBalance",
															"type": "bool",
															"internalType": "bool"
														},
														{
															"name": "percent",
															"type": "uint256",
															"internalType": "uint256"
														},
														{
															"name": "projectId",
															"type": "uint256",
															"internalType": "uint256"
														},
														{
															"name": "beneficiary",
															"type": "address",
															"internalType": "address payable"
														},
														{
															"name": "lockedUntil",
															"type": "uint256",
															"internalType": "uint256"
														},
														{
															"name": "hook",
															"type": "address",
															"internalType": "contract IJBSplitHook"
														}
													]
												}
											]
										},
										{
											"name": "fundAccessLimitGroups",
											"type": "tuple[]",
											"internalType": "struct JBFundAccessLimitGroup[]",
											"components": [
												{
													"name": "terminal",
													"type": "address",
													"internalType": "address"
												},
												{
													"name": "token",
													"type": "address",
													"internalType": "address"
												},
												{
													"name": "payoutLimits",
													"type": "tuple[]",
													"internalType": "struct JBCurrencyAmount[]",
													"components": [
														{
															"name": "amount",
															"type": "uint256",
															"internalType": "uint256"
														},
														{
															"name": "currency",
															"type": "uint256",
															"internalType": "uint256"
														}
													]
												},
												{
													"name": "surplusAllowances",
													"type": "tuple[]",
													"internalType": "struct JBCurrencyAmount[]",
													"components": [
														{
															"name": "amount",
															"type": "uint256",
															"internalType": "uint256"
														},
														{
															"name": "currency",
															"type": "uint256",
															"internalType": "uint256"
														}
													]
												}
											]
										}
									]
								},
								{
									"name": "memo",
									"type": "string",
									"internalType": "string"
								}
							]
						},
						{
							"name": "controller",
							"type": "address",
							"internalType": "contract IJBController"
						}
					],
					"outputs": [
						{
							"name": "rulesetId",
							"type": "uint256",
							"internalType": "uint256"
						}
					],
					"stateMutability": "nonpayable"
				},
				{
					"type": "error",
					"name": "UNAUTHORIZED",
					"inputs": []
				}
			],
			"solcInputHash": "3a3e66177785115bee0841c9ac6b1ab2",
			"receipt": {
				"blockHash": "0x3115e9066af108ed9dd9ade13656b8d5b5ca4d249e5e14c84cdabc225c467ea0",
				"blockNumber": 39861714,
				"contractAddress": null,
				"cumulativeGasUsed": "2878582",
				"from": "0xC034550B542b83BA1De312b21d1C94a9a52B1595",
				"gasPrice": "783140000",
				"gasUsed": "2705563",
				"hash": "0x6c23078f9695753e23dffa4fac937df38d2e7d6d0e2b0623f6283e4743e9ab04",
				"index": 2,
				"logs": [
					{
						"address": "0xB5E96127D417b1B3ef8438496a38A143167209c7",
						"blockHash": "0x3115e9066af108ed9dd9ade13656b8d5b5ca4d249e5e14c84cdabc225c467ea0",
						"blockNumber": 39861714,
						"data": "0x0000000000000000000000000000000000000000000000000000000000000000",
						"index": 3,
						"topics": [
							"0x572f161235911da04685a68c06adf558fc7e4a36909dca394650e0adc19cc93d",
							"0x000000000000000000000000c034550b542b83ba1de312b21d1c94a9a52b1595",
							"0x000000000000000000000000582b73e9f9ec9fa3ff32b83cfd7e2810a63bbcdb",
							"0x89e129f5971c1bce286860f277ed05b9e7854f32303863eebb98fdc660e917f3"
						],
						"transactionHash": "0x6c23078f9695753e23dffa4fac937df38d2e7d6d0e2b0623f6283e4743e9ab04",
						"transactionIndex": 2
					},
					{
						"address": "0x89BeB14760384C532b587eE00bB42EE307f17e47",
						"blockHash": "0x3115e9066af108ed9dd9ade13656b8d5b5ca4d249e5e14c84cdabc225c467ea0",
						"blockNumber": 39861714,
						"data": "0x",
						"index": 4,
						"topics": [
							"0x6895c13664aa4f67288b25d7a21d7aaa34916e355fb9b6fae0a139a9085becb8",
							"0x000000000000000000000000582b73e9f9ec9fa3ff32b83cfd7e2810a63bbcdb"
						],
						"transactionHash": "0x6c23078f9695753e23dffa4fac937df38d2e7d6d0e2b0623f6283e4743e9ab04",
						"transactionIndex": 2
					},
					{
						"address": "0x582b73e9F9EC9fa3fF32b83CFD7E2810a63BBCdB",
						"blockHash": "0x3115e9066af108ed9dd9ade13656b8d5b5ca4d249e5e14c84cdabc225c467ea0",
						"blockNumber": 39861714,
						"data": "0x0000000000000000000000000000000000000000000000000000000000000003",
						"index": 5,
						"topics": [
							"0xa65fb05c5808f5f389d72edeaf719ce38f4cc55c1f69ca3cbfb31c21501caa07",
							"0xc247d32a31720a2fd823bfaf786aac2d07f99ef9eaca44a0eb7e413dc6f4d276"
						],
						"transactionHash": "0x6c23078f9695753e23dffa4fac937df38d2e7d6d0e2b0623f6283e4743e9ab04",
						"transactionIndex": 2
					},
					{
						"address": "0x582b73e9F9EC9fa3fF32b83CFD7E2810a63BBCdB",
						"blockHash": "0x3115e9066af108ed9dd9ade13656b8d5b5ca4d249e5e14c84cdabc225c467ea0",
						"blockNumber": 39861714,
						"data": "0x",
						"index": 6,
						"topics": [
							"0x4383d976757d67ca920616be0b6430a681ea9d3dcce8d6d61d4603ca4a9bff63",
							"0xc247d32a31720a2fd823bfaf786aac2d07f99ef9eaca44a0eb7e413dc6f4d276"
						],
						"transactionHash": "0x6c23078f9695753e23dffa4fac937df38d2e7d6d0e2b0623f6283e4743e9ab04",
						"transactionIndex": 2
					}
				],
				"logsBloom": "0x00000000080010000040000000090000000000000008000000000000004000000000000000000000000000000040000100000000000000000000001000000000000000000000200000000000000000000000000000000000000000000000000002000000000000000000000000000000000000000000000008000000000080000000000000000000000100000000000000000000000400400000000000000000004000800010000000000000000000020200000008020000000000000004000000000000000000000000000008000000000000000000800000000000000800000000000000000008000200008000000200000000000000000000000008000000",
				"status": 1,
				"to": "0xB5E96127D417b1B3ef8438496a38A143167209c7"
			},
			"metadata": "{\"compiler\":{\"version\":\"0.8.23+commit.f704f362\"},\"language\":\"Solidity\",\"output\":{\"abi\":[{\"inputs\":[{\"internalType\":\"contract IJBDirectory\",\"name\":\"directory\",\"type\":\"address\"},{\"internalType\":\"contract IJBPermissions\",\"name\":\"permissions\",\"type\":\"address\"},{\"internalType\":\"contract IJB721TiersHookDeployer\",\"name\":\"hookDeployer\",\"type\":\"address\"}],\"stateMutability\":\"nonpayable\",\"type\":\"constructor\"},{\"inputs\":[],\"type\":\"error\",\"name\":\"UNAUTHORIZED\"},{\"inputs\":[],\"stateMutability\":\"view\",\"type\":\"function\",\"name\":\"DIRECTORY\",\"outputs\":[{\"internalType\":\"contract IJBDirectory\",\"name\":\"\",\"type\":\"address\"}]},{\"inputs\":[],\"stateMutability\":\"view\",\"type\":\"function\",\"name\":\"HOOK_DEPLOYER\",\"outputs\":[{\"internalType\":\"contract IJB721TiersHookDeployer\",\"name\":\"\",\"type\":\"address\"}]},{\"inputs\":[],\"stateMutability\":\"view\",\"type\":\"function\",\"name\":\"PERMISSIONS\",\"outputs\":[{\"internalType\":\"contract IJBPermissions\",\"name\":\"\",\"type\":\"address\"}]},{\"inputs\":[{\"internalType\":\"address\",\"name\":\"owner\",\"type\":\"address\"},{\"internalType\":\"struct JBDeploy721TiersHookConfig\",\"name\":\"deployTiersHookConfig\",\"type\":\"tuple\",\"components\":[{\"internalType\":\"string\",\"name\":\"name\",\"type\":\"string\"},{\"internalType\":\"string\",\"name\":\"symbol\",\"type\":\"string\"},{\"internalType\":\"contract IJBRulesets\",\"name\":\"rulesets\",\"type\":\"address\"},{\"internalType\":\"string\",\"name\":\"baseUri\",\"type\":\"string\"},{\"internalType\":\"contract IJB721TokenUriResolver\",\"name\":\"tokenUriResolver\",\"type\":\"address\"},{\"internalType\":\"string\",\"name\":\"contractUri\",\"type\":\"string\"},{\"internalType\":\"struct JB721InitTiersConfig\",\"name\":\"tiersConfig\",\"type\":\"tuple\",\"components\":[{\"internalType\":\"struct JB721TierConfig[]\",\"name\":\"tiers\",\"type\":\"tuple[]\",\"components\":[{\"internalType\":\"uint104\",\"name\":\"price\",\"type\":\"uint104\"},{\"internalType\":\"uint32\",\"name\":\"initialSupply\",\"type\":\"uint32\"},{\"internalType\":\"uint32\",\"name\":\"votingUnits\",\"type\":\"uint32\"},{\"internalType\":\"uint16\",\"name\":\"reserveFrequency\",\"type\":\"uint16\"},{\"internalType\":\"address\",\"name\":\"reserveBeneficiary\",\"type\":\"address\"},{\"internalType\":\"bytes32\",\"name\":\"encodedIPFSUri\",\"type\":\"bytes32\"},{\"internalType\":\"uint24\",\"name\":\"category\",\"type\":\"uint24\"},{\"internalType\":\"bool\",\"name\":\"allowOwnerMint\",\"type\":\"bool\"},{\"internalType\":\"bool\",\"name\":\"useReserveBeneficiaryAsDefault\",\"type\":\"bool\"},{\"internalType\":\"bool\",\"name\":\"transfersPausable\",\"type\":\"bool\"},{\"internalType\":\"bool\",\"name\":\"useVotingUnits\",\"type\":\"bool\"},{\"internalType\":\"bool\",\"name\":\"cannotBeRemoved\",\"type\":\"bool\"}]},{\"internalType\":\"uint32\",\"name\":\"currency\",\"type\":\"uint32\"},{\"internalType\":\"uint8\",\"name\":\"decimals\",\"type\":\"uint8\"},{\"internalType\":\"contract IJBPrices\",\"name\":\"prices\",\"type\":\"address\"}]},{\"internalType\":\"address\",\"name\":\"reserveBeneficiary\",\"type\":\"address\"},{\"internalType\":\"struct JB721TiersHookFlags\",\"name\":\"flags\",\"type\":\"tuple\",\"components\":[{\"internalType\":\"bool\",\"name\":\"noNewTiersWithReserves\",\"type\":\"bool\"},{\"internalType\":\"bool\",\"name\":\"noNewTiersWithVotes\",\"type\":\"bool\"},{\"internalType\":\"bool\",\"name\":\"noNewTiersWithOwnerMinting\",\"type\":\"bool\"},{\"internalType\":\"bool\",\"name\":\"preventOverspending\",\"type\":\"bool\"}]}]},{\"internalType\":\"struct JBLaunchProjectConfig\",\"name\":\"launchProjectConfig\",\"type\":\"tuple\",\"components\":[{\"internalType\":\"string\",\"name\":\"projectUri\",\"type\":\"string\"},{\"internalType\":\"struct JBPayDataHookRulesetConfig[]\",\"name\":\"rulesetConfigurations\",\"type\":\"tuple[]\",\"components\":[{\"internalType\":\"uint256\",\"name\":\"mustStartAtOrAfter\",\"type\":\"uint256\"},{\"internalType\":\"uint256\",\"name\":\"duration\",\"type\":\"uint256\"},{\"internalType\":\"uint256\",\"name\":\"weight\",\"type\":\"uint256\"},{\"internalType\":\"uint256\",\"name\":\"decayRate\",\"type\":\"uint256\"},{\"internalType\":\"contract IJBRulesetApprovalHook\",\"name\":\"approvalHook\",\"type\":\"address\"},{\"internalType\":\"struct JBPayDataHookRulesetMetadata\",\"name\":\"metadata\",\"type\":\"tuple\",\"components\":[{\"internalType\":\"uint256\",\"name\":\"reservedRate\",\"type\":\"uint256\"},{\"internalType\":\"uint256\",\"name\":\"redemptionRate\",\"type\":\"uint256\"},{\"internalType\":\"uint256\",\"name\":\"baseCurrency\",\"type\":\"uint256\"},{\"internalType\":\"bool\",\"name\":\"pausePay\",\"type\":\"bool\"},{\"internalType\":\"bool\",\"name\":\"pauseCreditTransfers\",\"type\":\"bool\"},{\"internalType\":\"bool\",\"name\":\"allowOwnerMinting\",\"type\":\"bool\"},{\"internalType\":\"bool\",\"name\":\"allowTerminalMigration\",\"type\":\"bool\"},{\"internalType\":\"bool\",\"name\":\"allowSetTerminals\",\"type\":\"bool\"},{\"internalType\":\"bool\",\"name\":\"allowControllerMigration\",\"type\":\"bool\"},{\"internalType\":\"bool\",\"name\":\"allowSetController\",\"type\":\"bool\"},{\"internalType\":\"bool\",\"name\":\"holdFees\",\"type\":\"bool\"},{\"internalType\":\"bool\",\"name\":\"useTotalSurplusForRedemptions\",\"type\":\"bool\"},{\"internalType\":\"bool\",\"name\":\"useDataHookForRedeem\",\"type\":\"bool\"},{\"internalType\":\"uint256\",\"name\":\"metadata\",\"type\":\"uint256\"}]},{\"internalType\":\"struct JBSplitGroup[]\",\"name\":\"splitGroups\",\"type\":\"tuple[]\",\"components\":[{\"internalType\":\"uint256\",\"name\":\"groupId\",\"type\":\"uint256\"},{\"internalType\":\"struct JBSplit[]\",\"name\":\"splits\",\"type\":\"tuple[]\",\"components\":[{\"internalType\":\"bool\",\"name\":\"preferAddToBalance\",\"type\":\"bool\"},{\"internalType\":\"uint256\",\"name\":\"percent\",\"type\":\"uint256\"},{\"internalType\":\"uint256\",\"name\":\"projectId\",\"type\":\"uint256\"},{\"internalType\":\"address payable\",\"name\":\"beneficiary\",\"type\":\"address\"},{\"internalType\":\"uint256\",\"name\":\"lockedUntil\",\"type\":\"uint256\"},{\"internalType\":\"contract IJBSplitHook\",\"name\":\"hook\",\"type\":\"address\"}]}]},{\"internalType\":\"struct JBFundAccessLimitGroup[]\",\"name\":\"fundAccessLimitGroups\",\"type\":\"tuple[]\",\"components\":[{\"internalType\":\"address\",\"name\":\"terminal\",\"type\":\"address\"},{\"internalType\":\"address\",\"name\":\"token\",\"type\":\"address\"},{\"internalType\":\"struct JBCurrencyAmount[]\",\"name\":\"payoutLimits\",\"type\":\"tuple[]\",\"components\":[{\"internalType\":\"uint256\",\"name\":\"amount\",\"type\":\"uint256\"},{\"internalType\":\"uint256\",\"name\":\"currency\",\"type\":\"uint256\"}]},{\"internalType\":\"struct JBCurrencyAmount[]\",\"name\":\"surplusAllowances\",\"type\":\"tuple[]\",\"components\":[{\"internalType\":\"uint256\",\"name\":\"amount\",\"type\":\"uint256\"},{\"internalType\":\"uint256\",\"name\":\"currency\",\"type\":\"uint256\"}]}]}]},{\"internalType\":\"struct JBTerminalConfig[]\",\"name\":\"terminalConfigurations\",\"type\":\"tuple[]\",\"components\":[{\"internalType\":\"contract IJBTerminal\",\"name\":\"terminal\",\"type\":\"address\"},{\"internalType\":\"address[]\",\"name\":\"tokensToAccept\",\"type\":\"address[]\"}]},{\"internalType\":\"string\",\"name\":\"memo\",\"type\":\"string\"}]},{\"internalType\":\"contract IJBController\",\"name\":\"controller\",\"type\":\"address\"}],\"stateMutability\":\"nonpayable\",\"type\":\"function\",\"name\":\"launchProjectFor\",\"outputs\":[{\"internalType\":\"uint256\",\"name\":\"projectId\",\"type\":\"uint256\"}]},{\"inputs\":[{\"internalType\":\"uint256\",\"name\":\"projectId\",\"type\":\"uint256\"},{\"internalType\":\"struct JBDeploy721TiersHookConfig\",\"name\":\"deployTiersHookConfig\",\"type\":\"tuple\",\"components\":[{\"internalType\":\"string\",\"name\":\"name\",\"type\":\"string\"},{\"internalType\":\"string\",\"name\":\"symbol\",\"type\":\"string\"},{\"internalType\":\"contract IJBRulesets\",\"name\":\"rulesets\",\"type\":\"address\"},{\"internalType\":\"string\",\"name\":\"baseUri\",\"type\":\"string\"},{\"internalType\":\"contract IJB721TokenUriResolver\",\"name\":\"tokenUriResolver\",\"type\":\"address\"},{\"internalType\":\"string\",\"name\":\"contractUri\",\"type\":\"string\"},{\"internalType\":\"struct JB721InitTiersConfig\",\"name\":\"tiersConfig\",\"type\":\"tuple\",\"components\":[{\"internalType\":\"struct JB721TierConfig[]\",\"name\":\"tiers\",\"type\":\"tuple[]\",\"components\":[{\"internalType\":\"uint104\",\"name\":\"price\",\"type\":\"uint104\"},{\"internalType\":\"uint32\",\"name\":\"initialSupply\",\"type\":\"uint32\"},{\"internalType\":\"uint32\",\"name\":\"votingUnits\",\"type\":\"uint32\"},{\"internalType\":\"uint16\",\"name\":\"reserveFrequency\",\"type\":\"uint16\"},{\"internalType\":\"address\",\"name\":\"reserveBeneficiary\",\"type\":\"address\"},{\"internalType\":\"bytes32\",\"name\":\"encodedIPFSUri\",\"type\":\"bytes32\"},{\"internalType\":\"uint24\",\"name\":\"category\",\"type\":\"uint24\"},{\"internalType\":\"bool\",\"name\":\"allowOwnerMint\",\"type\":\"bool\"},{\"internalType\":\"bool\",\"name\":\"useReserveBeneficiaryAsDefault\",\"type\":\"bool\"},{\"internalType\":\"bool\",\"name\":\"transfersPausable\",\"type\":\"bool\"},{\"internalType\":\"bool\",\"name\":\"useVotingUnits\",\"type\":\"bool\"},{\"internalType\":\"bool\",\"name\":\"cannotBeRemoved\",\"type\":\"bool\"}]},{\"internalType\":\"uint32\",\"name\":\"currency\",\"type\":\"uint32\"},{\"internalType\":\"uint8\",\"name\":\"decimals\",\"type\":\"uint8\"},{\"internalType\":\"contract IJBPrices\",\"name\":\"prices\",\"type\":\"address\"}]},{\"internalType\":\"address\",\"name\":\"reserveBeneficiary\",\"type\":\"address\"},{\"internalType\":\"struct JB721TiersHookFlags\",\"name\":\"flags\",\"type\":\"tuple\",\"components\":[{\"internalType\":\"bool\",\"name\":\"noNewTiersWithReserves\",\"type\":\"bool\"},{\"internalType\":\"bool\",\"name\":\"noNewTiersWithVotes\",\"type\":\"bool\"},{\"internalType\":\"bool\",\"name\":\"noNewTiersWithOwnerMinting\",\"type\":\"bool\"},{\"internalType\":\"bool\",\"name\":\"preventOverspending\",\"type\":\"bool\"}]}]},{\"internalType\":\"struct JBLaunchRulesetsConfig\",\"name\":\"launchRulesetsConfig\",\"type\":\"tuple\",\"components\":[{\"internalType\":\"uint256\",\"name\":\"projectId\",\"type\":\"uint256\"},{\"internalType\":\"struct JBPayDataHookRulesetConfig[]\",\"name\":\"rulesetConfigurations\",\"type\":\"tuple[]\",\"components\":[{\"internalType\":\"uint256\",\"name\":\"mustStartAtOrAfter\",\"type\":\"uint256\"},{\"internalType\":\"uint256\",\"name\":\"duration\",\"type\":\"uint256\"},{\"internalType\":\"uint256\",\"name\":\"weight\",\"type\":\"uint256\"},{\"internalType\":\"uint256\",\"name\":\"decayRate\",\"type\":\"uint256\"},{\"internalType\":\"contract IJBRulesetApprovalHook\",\"name\":\"approvalHook\",\"type\":\"address\"},{\"internalType\":\"struct JBPayDataHookRulesetMetadata\",\"name\":\"metadata\",\"type\":\"tuple\",\"components\":[{\"internalType\":\"uint256\",\"name\":\"reservedRate\",\"type\":\"uint256\"},{\"internalType\":\"uint256\",\"name\":\"redemptionRate\",\"type\":\"uint256\"},{\"internalType\":\"uint256\",\"name\":\"baseCurrency\",\"type\":\"uint256\"},{\"internalType\":\"bool\",\"name\":\"pausePay\",\"type\":\"bool\"},{\"internalType\":\"bool\",\"name\":\"pauseCreditTransfers\",\"type\":\"bool\"},{\"internalType\":\"bool\",\"name\":\"allowOwnerMinting\",\"type\":\"bool\"},{\"internalType\":\"bool\",\"name\":\"allowTerminalMigration\",\"type\":\"bool\"},{\"internalType\":\"bool\",\"name\":\"allowSetTerminals\",\"type\":\"bool\"},{\"internalType\":\"bool\",\"name\":\"allowControllerMigration\",\"type\":\"bool\"},{\"internalType\":\"bool\",\"name\":\"allowSetController\",\"type\":\"bool\"},{\"internalType\":\"bool\",\"name\":\"holdFees\",\"type\":\"bool\"},{\"internalType\":\"bool\",\"name\":\"useTotalSurplusForRedemptions\",\"type\":\"bool\"},{\"internalType\":\"bool\",\"name\":\"useDataHookForRedeem\",\"type\":\"bool\"},{\"internalType\":\"uint256\",\"name\":\"metadata\",\"type\":\"uint256\"}]},{\"internalType\":\"struct JBSplitGroup[]\",\"name\":\"splitGroups\",\"type\":\"tuple[]\",\"components\":[{\"internalType\":\"uint256\",\"name\":\"groupId\",\"type\":\"uint256\"},{\"internalType\":\"struct JBSplit[]\",\"name\":\"splits\",\"type\":\"tuple[]\",\"components\":[{\"internalType\":\"bool\",\"name\":\"preferAddToBalance\",\"type\":\"bool\"},{\"internalType\":\"uint256\",\"name\":\"percent\",\"type\":\"uint256\"},{\"internalType\":\"uint256\",\"name\":\"projectId\",\"type\":\"uint256\"},{\"internalType\":\"address payable\",\"name\":\"beneficiary\",\"type\":\"address\"},{\"internalType\":\"uint256\",\"name\":\"lockedUntil\",\"type\":\"uint256\"},{\"internalType\":\"contract IJBSplitHook\",\"name\":\"hook\",\"type\":\"address\"}]}]},{\"internalType\":\"struct JBFundAccessLimitGroup[]\",\"name\":\"fundAccessLimitGroups\",\"type\":\"tuple[]\",\"components\":[{\"internalType\":\"address\",\"name\":\"terminal\",\"type\":\"address\"},{\"internalType\":\"address\",\"name\":\"token\",\"type\":\"address\"},{\"internalType\":\"struct JBCurrencyAmount[]\",\"name\":\"payoutLimits\",\"type\":\"tuple[]\",\"components\":[{\"internalType\":\"uint256\",\"name\":\"amount\",\"type\":\"uint256\"},{\"internalType\":\"uint256\",\"name\":\"currency\",\"type\":\"uint256\"}]},{\"internalType\":\"struct JBCurrencyAmount[]\",\"name\":\"surplusAllowances\",\"type\":\"tuple[]\",\"components\":[{\"internalType\":\"uint256\",\"name\":\"amount\",\"type\":\"uint256\"},{\"internalType\":\"uint256\",\"name\":\"currency\",\"type\":\"uint256\"}]}]}]},{\"internalType\":\"struct JBTerminalConfig[]\",\"name\":\"terminalConfigurations\",\"type\":\"tuple[]\",\"components\":[{\"internalType\":\"contract IJBTerminal\",\"name\":\"terminal\",\"type\":\"address\"},{\"internalType\":\"address[]\",\"name\":\"tokensToAccept\",\"type\":\"address[]\"}]},{\"internalType\":\"string\",\"name\":\"memo\",\"type\":\"string\"}]},{\"internalType\":\"contract IJBController\",\"name\":\"controller\",\"type\":\"address\"}],\"stateMutability\":\"nonpayable\",\"type\":\"function\",\"name\":\"launchRulesetsFor\",\"outputs\":[{\"internalType\":\"uint256\",\"name\":\"rulesetId\",\"type\":\"uint256\"}]},{\"inputs\":[{\"internalType\":\"uint256\",\"name\":\"projectId\",\"type\":\"uint256\"},{\"internalType\":\"struct JBDeploy721TiersHookConfig\",\"name\":\"deployTiersHookConfig\",\"type\":\"tuple\",\"components\":[{\"internalType\":\"string\",\"name\":\"name\",\"type\":\"string\"},{\"internalType\":\"string\",\"name\":\"symbol\",\"type\":\"string\"},{\"internalType\":\"contract IJBRulesets\",\"name\":\"rulesets\",\"type\":\"address\"},{\"internalType\":\"string\",\"name\":\"baseUri\",\"type\":\"string\"},{\"internalType\":\"contract IJB721TokenUriResolver\",\"name\":\"tokenUriResolver\",\"type\":\"address\"},{\"internalType\":\"string\",\"name\":\"contractUri\",\"type\":\"string\"},{\"internalType\":\"struct JB721InitTiersConfig\",\"name\":\"tiersConfig\",\"type\":\"tuple\",\"components\":[{\"internalType\":\"struct JB721TierConfig[]\",\"name\":\"tiers\",\"type\":\"tuple[]\",\"components\":[{\"internalType\":\"uint104\",\"name\":\"price\",\"type\":\"uint104\"},{\"internalType\":\"uint32\",\"name\":\"initialSupply\",\"type\":\"uint32\"},{\"internalType\":\"uint32\",\"name\":\"votingUnits\",\"type\":\"uint32\"},{\"internalType\":\"uint16\",\"name\":\"reserveFrequency\",\"type\":\"uint16\"},{\"internalType\":\"address\",\"name\":\"reserveBeneficiary\",\"type\":\"address\"},{\"internalType\":\"bytes32\",\"name\":\"encodedIPFSUri\",\"type\":\"bytes32\"},{\"internalType\":\"uint24\",\"name\":\"category\",\"type\":\"uint24\"},{\"internalType\":\"bool\",\"name\":\"allowOwnerMint\",\"type\":\"bool\"},{\"internalType\":\"bool\",\"name\":\"useReserveBeneficiaryAsDefault\",\"type\":\"bool\"},{\"internalType\":\"bool\",\"name\":\"transfersPausable\",\"type\":\"bool\"},{\"internalType\":\"bool\",\"name\":\"useVotingUnits\",\"type\":\"bool\"},{\"internalType\":\"bool\",\"name\":\"cannotBeRemoved\",\"type\":\"bool\"}]},{\"internalType\":\"uint32\",\"name\":\"currency\",\"type\":\"uint32\"},{\"internalType\":\"uint8\",\"name\":\"decimals\",\"type\":\"uint8\"},{\"internalType\":\"contract IJBPrices\",\"name\":\"prices\",\"type\":\"address\"}]},{\"internalType\":\"address\",\"name\":\"reserveBeneficiary\",\"type\":\"address\"},{\"internalType\":\"struct JB721TiersHookFlags\",\"name\":\"flags\",\"type\":\"tuple\",\"components\":[{\"internalType\":\"bool\",\"name\":\"noNewTiersWithReserves\",\"type\":\"bool\"},{\"internalType\":\"bool\",\"name\":\"noNewTiersWithVotes\",\"type\":\"bool\"},{\"internalType\":\"bool\",\"name\":\"noNewTiersWithOwnerMinting\",\"type\":\"bool\"},{\"internalType\":\"bool\",\"name\":\"preventOverspending\",\"type\":\"bool\"}]}]},{\"internalType\":\"struct JBQueueRulesetsConfig\",\"name\":\"queueRulesetsConfig\",\"type\":\"tuple\",\"components\":[{\"internalType\":\"uint256\",\"name\":\"projectId\",\"type\":\"uint256\"},{\"internalType\":\"struct JBPayDataHookRulesetConfig[]\",\"name\":\"rulesetConfigurations\",\"type\":\"tuple[]\",\"components\":[{\"internalType\":\"uint256\",\"name\":\"mustStartAtOrAfter\",\"type\":\"uint256\"},{\"internalType\":\"uint256\",\"name\":\"duration\",\"type\":\"uint256\"},{\"internalType\":\"uint256\",\"name\":\"weight\",\"type\":\"uint256\"},{\"internalType\":\"uint256\",\"name\":\"decayRate\",\"type\":\"uint256\"},{\"internalType\":\"contract IJBRulesetApprovalHook\",\"name\":\"approvalHook\",\"type\":\"address\"},{\"internalType\":\"struct JBPayDataHookRulesetMetadata\",\"name\":\"metadata\",\"type\":\"tuple\",\"components\":[{\"internalType\":\"uint256\",\"name\":\"reservedRate\",\"type\":\"uint256\"},{\"internalType\":\"uint256\",\"name\":\"redemptionRate\",\"type\":\"uint256\"},{\"internalType\":\"uint256\",\"name\":\"baseCurrency\",\"type\":\"uint256\"},{\"internalType\":\"bool\",\"name\":\"pausePay\",\"type\":\"bool\"},{\"internalType\":\"bool\",\"name\":\"pauseCreditTransfers\",\"type\":\"bool\"},{\"internalType\":\"bool\",\"name\":\"allowOwnerMinting\",\"type\":\"bool\"},{\"internalType\":\"bool\",\"name\":\"allowTerminalMigration\",\"type\":\"bool\"},{\"internalType\":\"bool\",\"name\":\"allowSetTerminals\",\"type\":\"bool\"},{\"internalType\":\"bool\",\"name\":\"allowControllerMigration\",\"type\":\"bool\"},{\"internalType\":\"bool\",\"name\":\"allowSetController\",\"type\":\"bool\"},{\"internalType\":\"bool\",\"name\":\"holdFees\",\"type\":\"bool\"},{\"internalType\":\"bool\",\"name\":\"useTotalSurplusForRedemptions\",\"type\":\"bool\"},{\"internalType\":\"bool\",\"name\":\"useDataHookForRedeem\",\"type\":\"bool\"},{\"internalType\":\"uint256\",\"name\":\"metadata\",\"type\":\"uint256\"}]},{\"internalType\":\"struct JBSplitGroup[]\",\"name\":\"splitGroups\",\"type\":\"tuple[]\",\"components\":[{\"internalType\":\"uint256\",\"name\":\"groupId\",\"type\":\"uint256\"},{\"internalType\":\"struct JBSplit[]\",\"name\":\"splits\",\"type\":\"tuple[]\",\"components\":[{\"internalType\":\"bool\",\"name\":\"preferAddToBalance\",\"type\":\"bool\"},{\"internalType\":\"uint256\",\"name\":\"percent\",\"type\":\"uint256\"},{\"internalType\":\"uint256\",\"name\":\"projectId\",\"type\":\"uint256\"},{\"internalType\":\"address payable\",\"name\":\"beneficiary\",\"type\":\"address\"},{\"internalType\":\"uint256\",\"name\":\"lockedUntil\",\"type\":\"uint256\"},{\"internalType\":\"contract IJBSplitHook\",\"name\":\"hook\",\"type\":\"address\"}]}]},{\"internalType\":\"struct JBFundAccessLimitGroup[]\",\"name\":\"fundAccessLimitGroups\",\"type\":\"tuple[]\",\"components\":[{\"internalType\":\"address\",\"name\":\"terminal\",\"type\":\"address\"},{\"internalType\":\"address\",\"name\":\"token\",\"type\":\"address\"},{\"internalType\":\"struct JBCurrencyAmount[]\",\"name\":\"payoutLimits\",\"type\":\"tuple[]\",\"components\":[{\"internalType\":\"uint256\",\"name\":\"amount\",\"type\":\"uint256\"},{\"internalType\":\"uint256\",\"name\":\"currency\",\"type\":\"uint256\"}]},{\"internalType\":\"struct JBCurrencyAmount[]\",\"name\":\"surplusAllowances\",\"type\":\"tuple[]\",\"components\":[{\"internalType\":\"uint256\",\"name\":\"amount\",\"type\":\"uint256\"},{\"internalType\":\"uint256\",\"name\":\"currency\",\"type\":\"uint256\"}]}]}]},{\"internalType\":\"string\",\"name\":\"memo\",\"type\":\"string\"}]},{\"internalType\":\"contract IJBController\",\"name\":\"controller\",\"type\":\"address\"}],\"stateMutability\":\"nonpayable\",\"type\":\"function\",\"name\":\"queueRulesetsOf\",\"outputs\":[{\"internalType\":\"uint256\",\"name\":\"rulesetId\",\"type\":\"uint256\"}]}],\"devdoc\":{\"kind\":\"dev\",\"methods\":{\"constructor\":{\"params\":{\"directory\":\"The directory of terminals and controllers for projects.\",\"hookDeployer\":\"The 721 tiers hook deployer.\",\"permissions\":\"A contract storing permissions.\"}},\"launchProjectFor(address,(string,string,address,string,address,string,((uint104,uint32,uint32,uint16,address,bytes32,uint24,bool,bool,bool,bool,bool)[],uint32,uint8,address),address,(bool,bool,bool,bool)),(string,(uint256,uint256,uint256,uint256,address,(uint256,uint256,uint256,bool,bool,bool,bool,bool,bool,bool,bool,bool,bool,uint256),(uint256,(bool,uint256,uint256,address,uint256,address)[])[],(address,address,(uint256,uint256)[],(uint256,uint256)[])[])[],(address,address[])[],string),address)\":{\"params\":{\"controller\":\"The controller that the project's rulesets will be queued with.\",\"deployTiersHookConfig\":\"Configuration which dictates the behavior of the 721 tiers hook which is being deployed.\",\"launchProjectConfig\":\"Configuration which dictates the behavior of the project which is being launched.\",\"owner\":\"The address to set as the owner of the project. The ERC-721 which confers this project's ownership will be sent to this address.\"},\"returns\":{\"projectId\":\"The ID of the newly launched project.\"}},\"launchRulesetsFor(uint256,(string,string,address,string,address,string,((uint104,uint32,uint32,uint16,address,bytes32,uint24,bool,bool,bool,bool,bool)[],uint32,uint8,address),address,(bool,bool,bool,bool)),(uint256,(uint256,uint256,uint256,uint256,address,(uint256,uint256,uint256,bool,bool,bool,bool,bool,bool,bool,bool,bool,bool,uint256),(uint256,(bool,uint256,uint256,address,uint256,address)[])[],(address,address,(uint256,uint256)[],(uint256,uint256)[])[])[],(address,address[])[],string),address)\":{\"details\":\"Only a project's owner or an operator with the `QUEUE_RULESETS` permission can launch its rulesets.\",\"params\":{\"controller\":\"The controller that the project's rulesets will be queued with.\",\"deployTiersHookConfig\":\"Configuration which dictates the behavior of the 721 tiers hook which is being deployed.\",\"launchRulesetsConfig\":\"Configuration which dictates the project's new rulesets.\",\"projectId\":\"The ID of the project that rulesets are being launched for.\"},\"returns\":{\"rulesetId\":\"The ID of the successfully created ruleset.\"}},\"queueRulesetsOf(uint256,(string,string,address,string,address,string,((uint104,uint32,uint32,uint16,address,bytes32,uint24,bool,bool,bool,bool,bool)[],uint32,uint8,address),address,(bool,bool,bool,bool)),(uint256,(uint256,uint256,uint256,uint256,address,(uint256,uint256,uint256,bool,bool,bool,bool,bool,bool,bool,bool,bool,bool,uint256),(uint256,(bool,uint256,uint256,address,uint256,address)[])[],(address,address,(uint256,uint256)[],(uint256,uint256)[])[])[],string),address)\":{\"details\":\"Only a project's owner or an operator with the `QUEUE_RULESETS` permission can queue its rulesets.\",\"params\":{\"controller\":\"The controller that the project's rulesets will be queued with.\",\"deployTiersHookConfig\":\"Configuration which dictates the behavior of the 721 tiers hook which is being deployed.\",\"projectId\":\"The ID of the project that rulesets are being queued for.\",\"queueRulesetsConfig\":\"Configuration which dictates the project's newly queued rulesets.\"},\"returns\":{\"rulesetId\":\"The ID of the successfully created ruleset.\"}}},\"version\":1},\"userdoc\":{\"kind\":\"user\",\"methods\":{\"DIRECTORY()\":{\"notice\":\"The directory of terminals and controllers for projects.\"},\"HOOK_DEPLOYER()\":{\"notice\":\"The 721 tiers hook deployer.\"},\"PERMISSIONS()\":{\"notice\":\"A contract storing permissions.\"},\"launchProjectFor(address,(string,string,address,string,address,string,((uint104,uint32,uint32,uint16,address,bytes32,uint24,bool,bool,bool,bool,bool)[],uint32,uint8,address),address,(bool,bool,bool,bool)),(string,(uint256,uint256,uint256,uint256,address,(uint256,uint256,uint256,bool,bool,bool,bool,bool,bool,bool,bool,bool,bool,uint256),(uint256,(bool,uint256,uint256,address,uint256,address)[])[],(address,address,(uint256,uint256)[],(uint256,uint256)[])[])[],(address,address[])[],string),address)\":{\"notice\":\"Launches a new project with a 721 tiers hook attached.\"},\"launchRulesetsFor(uint256,(string,string,address,string,address,string,((uint104,uint32,uint32,uint16,address,bytes32,uint24,bool,bool,bool,bool,bool)[],uint32,uint8,address),address,(bool,bool,bool,bool)),(uint256,(uint256,uint256,uint256,uint256,address,(uint256,uint256,uint256,bool,bool,bool,bool,bool,bool,bool,bool,bool,bool,uint256),(uint256,(bool,uint256,uint256,address,uint256,address)[])[],(address,address,(uint256,uint256)[],(uint256,uint256)[])[])[],(address,address[])[],string),address)\":{\"notice\":\"Launches rulesets for a project with an attached 721 tiers hook.\"},\"queueRulesetsOf(uint256,(string,string,address,string,address,string,((uint104,uint32,uint32,uint16,address,bytes32,uint24,bool,bool,bool,bool,bool)[],uint32,uint8,address),address,(bool,bool,bool,bool)),(uint256,(uint256,uint256,uint256,uint256,address,(uint256,uint256,uint256,bool,bool,bool,bool,bool,bool,bool,bool,bool,bool,uint256),(uint256,(bool,uint256,uint256,address,uint256,address)[])[],(address,address,(uint256,uint256)[],(uint256,uint256)[])[])[],string),address)\":{\"notice\":\"Queues rulesets for a project with an attached 721 tiers hook.\"}},\"version\":1}},\"settings\":{\"remappings\":[\"@bananapus/=node_modules/@bananapus/\",\"@chainlink/=node_modules/@chainlink/\",\"@eth-optimism/=node_modules/@eth-optimism/\",\"@openzeppelin/=node_modules/@openzeppelin/\",\"@prb/=node_modules/@prb/\",\"@scroll-tech/=node_modules/@scroll-tech/\",\"@sphinx-labs/contracts/=node_modules/@sphinx-labs/contracts/contracts/foundry/\",\"@uniswap/=node_modules/@uniswap/\",\"ds-test/=lib/forge-std/lib/ds-test/src/\",\"forge-std/=lib/forge-std/src/\",\"hardhat/=node_modules/hardhat/\",\"solmate/=node_modules/solmate/\",\"sphinx/=lib/sphinx/packages/contracts/contracts/forge-std/src/\"],\"optimizer\":{\"enabled\":true,\"runs\":1000},\"metadata\":{\"bytecodeHash\":\"ipfs\"},\"compilationTarget\":{\"src/JB721TiersHookProjectDeployer.sol\":\"JB721TiersHookProjectDeployer\"},\"evmVersion\":\"paris\",\"libraries\":{}},\"sources\":{\"node_modules/@bananapus/core/src/abstract/JBPermissioned.sol\":{\"keccak256\":\"0xe08c8a7eeac9d1c7c2e0db6d5b98d1af09889300835a3d47d9f29319fecce703\",\"urls\":[\"bzz-raw://42645cf52bcc45053ef650790916faed5d0a74cecef336b217433fdd2c5c4166\",\"dweb:/ipfs/QmdMmxG1tSGucQwz4LYbVnuj7HU23YvqLH6xfrNWv5Bmus\"],\"license\":\"MIT\"},\"node_modules/@bananapus/core/src/enums/JBApprovalStatus.sol\":{\"keccak256\":\"0x61c69b6bac7d24b566d87cda23a77e4ca9cdb87200b106aba8534cb9a0973e33\",\"urls\":[\"bzz-raw://6a9ca7249de76f77a8252eefe6bd1b63d47952f25a2acfa2c8db967cdff4470c\",\"dweb:/ipfs/QmaxSxptRQNj8bNy96EreENmrnRWdKmhyihBcxyWzBX5BN\"],\"license\":\"MIT\"},\"node_modules/@bananapus/core/src/interfaces/IJBController.sol\":{\"keccak256\":\"0xe0b84058192f89e461c4b604388aa11a2f92f0f9969fb70fb3c18706d6f3e16b\",\"urls\":[\"bzz-raw://984fdcff63a17ccab65ff7723a628967e40965fcb4d47909cf8e314e8f044576\",\"dweb:/ipfs/QmaaHZWuaaH3oYxCDrip1rr4u4H1XtR3RcwwKAE73GAqkd\"],\"license\":\"MIT\"},\"node_modules/@bananapus/core/src/interfaces/IJBDirectory.sol\":{\"keccak256\":\"0x9cc380844aef60078ee47a61861e55a29c4a8c947efd556ebd36e6909f7b9d62\",\"urls\":[\"bzz-raw://9f5190ec8b6683d9781ee6e9eedcc91294753242748875d4a06349077e4cbaaf\",\"dweb:/ipfs/QmTQrPuXT9TCA4txwrperMeXSGvGxP8iokUK47f62F388i\"],\"license\":\"MIT\"},\"node_modules/@bananapus/core/src/interfaces/IJBDirectoryAccessControl.sol\":{\"keccak256\":\"0x1e67f56849320a46f834aaa9bd62b170ff8ada7b224b4a81136193740fa0be4d\",\"urls\":[\"bzz-raw://ea8fbcec44abfe49d137bcae129b67e5479d6b17879301f88534c8a7fab00be4\",\"dweb:/ipfs/QmT6wrtYX4GRpffHUzupNwYebJ1dqkkKZLEewWsoyunsqw\"],\"license\":\"MIT\"},\"node_modules/@bananapus/core/src/interfaces/IJBFundAccessLimits.sol\":{\"keccak256\":\"0xf5fd6bdd723b60d490ccbe22cdf1cfe43663d23e6ee48badcd1b71e3282cb16b\",\"urls\":[\"bzz-raw://fe692f0b843ea5fccdfcb68f4ec16e1c0add945bb74b303c9866342be0e31fbf\",\"dweb:/ipfs/QmSRmzpgp3DhNEhNDiLsSu7yEiTeywbzEFbwyGyDazjgKt\"],\"license\":\"MIT\"},\"node_modules/@bananapus/core/src/interfaces/IJBMigratable.sol\":{\"keccak256\":\"0xd69bd5aba01a68d82c303ef3adde47532abcace030a94296c3ea6988b401789c\",\"urls\":[\"bzz-raw://88f11a1c89899327746beba4fc830abf3ac2eb9c152c778e884a6eed6564971f\",\"dweb:/ipfs/QmTpKhSTVewpz7VyKcz6BJwH2LFKMwT7Qi5HNWmjEjwsdK\"],\"license\":\"MIT\"},\"node_modules/@bananapus/core/src/interfaces/IJBPayHook.sol\":{\"keccak256\":\"0x9438866782c652c2942f4d114e35f393cd3c8b0334abce8387eed90bca35e8b2\",\"urls\":[\"bzz-raw://cfd99daf57213f92325aad7d7d16e98476d38e870470e95ba01e3ae3cdecc95d\",\"dweb:/ipfs/QmUKKAVGf7ki8BHksr99tFcRW8APveeB5tNH63ctTbbCW8\"],\"license\":\"MIT\"},\"node_modules/@bananapus/core/src/interfaces/IJBPermissioned.sol\":{\"keccak256\":\"0x5b038d4dee116584e88b230920e56d48e135053e3f7e5642eaea14a775c1dad7\",\"urls\":[\"bzz-raw://19e43102f349fd4a1da1c0943ffb8f2950007fe4bb4bb7e8f74fc142575d091b\",\"dweb:/ipfs/QmXHAt4KzDTdDZgDDefEXH2WKi7NcfkJb9R7nxW5uDqsNp\"],\"license\":\"MIT\"},\"node_modules/@bananapus/core/src/interfaces/IJBPermissions.sol\":{\"keccak256\":\"0x18870e500edf0fbadc353e273a5574701fb80466376b908c65e7cc3f11044d4d\",\"urls\":[\"bzz-raw://352a47c45853aec80e7acf0d286ade3106eb4cb456776b28a3c2f3f1091bed90\",\"dweb:/ipfs/QmQeYd3YbudYZy2hfbfht9kwhxhw4tuuLKMEYy9UY6dcSy\"],\"license\":\"MIT\"},\"node_modules/@bananapus/core/src/interfaces/IJBPriceFeed.sol\":{\"keccak256\":\"0x4bd84c0f1a5d4729ed709bcddd43f4c50ec4a165ece79780af8dce482ed07d4a\",\"urls\":[\"bzz-raw://62bac4bfb6982fb002f620c77e5c445e62d50241a5aa64a07e51d929f5a42180\",\"dweb:/ipfs/QmWgJUDreVY2BuMX38a1iUUR5kNbMwGnKG3VvurB7oZtuM\"],\"license\":\"MIT\"},\"node_modules/@bananapus/core/src/interfaces/IJBPrices.sol\":{\"keccak256\":\"0x99525f31440b955742dce84ba57de9fc1221139b5367c1f834723bef9e13e6e1\",\"urls\":[\"bzz-raw://6fa03f0cd4ad87dd7cbae7bf7f54463450874291773c8f70f2c31ef2cae62bb0\",\"dweb:/ipfs/QmSPajPV5ismteJuB6Spzm9VmhTj2iS3eVrfpJC1Zuzg8n\"],\"license\":\"MIT\"},\"node_modules/@bananapus/core/src/interfaces/IJBProjectUriRegistry.sol\":{\"keccak256\":\"0x2799475228987e4f8334ac33d3935f759c9b8133db7383b4f622dde7a5dc0502\",\"urls\":[\"bzz-raw://d751731740f45df74eea48c9667e847ee2cddb2980ab4939c86bd17e6c6ed89b\",\"dweb:/ipfs/QmXW8SLTuhdUpfn7pRpdsYdcyuim8RTyagU37ULcj5UZhT\"],\"license\":\"MIT\"},\"node_modules/@bananapus/core/src/interfaces/IJBProjects.sol\":{\"keccak256\":\"0x735c2fb8f1fa827f054ee77f7a0ae4b312656217acb75b624d2c8fd9dc40151b\",\"urls\":[\"bzz-raw://ee7fc92299a8633a80693ae63ab494dcd125f1789487a54a39dc0e5696e5996f\",\"dweb:/ipfs/QmX7YJD4pS2XhgQb7p3JbBAXynT7YGPXcZe92BiWWRrsCL\"],\"license\":\"MIT\"},\"node_modules/@bananapus/core/src/interfaces/IJBRulesetApprovalHook.sol\":{\"keccak256\":\"0x592e95d159494421c6b1bcb362d0cee1df0132921697351304e9cd7af4fbd386\",\"urls\":[\"bzz-raw://5bebfd5fa67c1b6ea16fa2e76e9520e9dfe52a579f48dd94d0c2ec45f78ad178\",\"dweb:/ipfs/QmRUawEGtfYoYSHmHELGhvJoWuMsxLPKtqAXgsrb7fJboP\"],\"license\":\"MIT\"},\"node_modules/@bananapus/core/src/interfaces/IJBRulesets.sol\":{\"keccak256\":\"0xd3f817d22ecbe24da63c552c069bf0c4fbbf3bcd5c3b5633002afd24aacf6882\",\"urls\":[\"bzz-raw://c1185aec0f6b6f0f4d93ffeeed0972ccf38420b00fe570b5e1838ed2b1f5db49\",\"dweb:/ipfs/QmWz36azGTFnjFXpFSh6BHt4nactgjtF64L3PeTqs4ZqSR\"],\"license\":\"MIT\"},\"node_modules/@bananapus/core/src/interfaces/IJBSplitHook.sol\":{\"keccak256\":\"0xeb8dfac7a4b81897a1c3b5d0d853a406bcff33720fb187d5ca5bb3dcc0ba3a12\",\"urls\":[\"bzz-raw://36aaeef6107cfe5b0127e063ea215aac7200f8af02e28a48e61111abd3254688\",\"dweb:/ipfs/QmQ8yQANXnhQCAWBGKsKCDsJ3A8hnTKNg5tyo79GfWXTcV\"],\"license\":\"MIT\"},\"node_modules/@bananapus/core/src/interfaces/IJBSplits.sol\":{\"keccak256\":\"0x92deeb9e22ce2aaafc608b85e9250b8ea2deed1ebf64b7442038b157b2bfe0e6\",\"urls\":[\"bzz-raw://08bf29f0c13c2e8be46065277f67e44ecaea960cb5474f13775eece0672566c2\",\"dweb:/ipfs/QmeGu9C6tuBjfmeizmpzptxgGmch6Mbtm34NFwZxzMvqc4\"],\"license\":\"MIT\"},\"node_modules/@bananapus/core/src/interfaces/IJBTerminal.sol\":{\"keccak256\":\"0x19dc9bf8cbdc8f13ee5da9dc3a87047eacb94a3fc19740a286c1f0bad2cc39ca\",\"urls\":[\"bzz-raw://0b05ae6fda9a85672508232fd992b8a5f5ffd8096622eeb12c8a7b3317eb3867\",\"dweb:/ipfs/QmNh9Quj37BXYGdTdcCD1Q58PchRsE5TLbEZep56qS3MpV\"],\"license\":\"MIT\"},\"node_modules/@bananapus/core/src/interfaces/IJBToken.sol\":{\"keccak256\":\"0x71b1f9c3a0edd41910f77396e0be2c65596571176d53eb87e887c3c0da56c0fb\",\"urls\":[\"bzz-raw://6e956f0582f4525e83d845ee9b4a89959abc4f821414f6accbbee5b38960482d\",\"dweb:/ipfs/QmbSvjgmCgnfVmcCTGu8XwrV1Rufsf3M8hB8unFq6fTMdH\"],\"license\":\"MIT\"},\"node_modules/@bananapus/core/src/interfaces/IJBTokenUriResolver.sol\":{\"keccak256\":\"0xfa5cb00dcd6085d1ef912d071fe73c63f9478a2cd0f9d8bddaf659b6af2d0967\",\"urls\":[\"bzz-raw://282e4e7c342d65f77cde0e9a08fcaf20ef5cf379c7a48b639842c0ffd0b2afb8\",\"dweb:/ipfs/QmbnN3PEQeZaXdPLT75V1J79kMg7KqSMru37RHrL3z8Yf2\"],\"license\":\"MIT\"},\"node_modules/@bananapus/core/src/interfaces/IJBTokens.sol\":{\"keccak256\":\"0x6fd67af915dd541d9547c8297aa9ae269690e4ee23531db43f021bcacec6076f\",\"urls\":[\"bzz-raw://2e5e11954e9ab2319fffccb6563f3db400b8f7760d4ffe2165048a02c9c37fa6\",\"dweb:/ipfs/QmbDXtV83dK8EfiTjsTRf55R2XqPZzDKcjtYbW8sxQ5CFm\"],\"license\":\"MIT\"},\"node_modules/@bananapus/core/src/structs/JBAccountingContext.sol\":{\"keccak256\":\"0x2907ff54d1e903cc7e0390dd88c3975884702dc2673642aacbe22b66560b56de\",\"urls\":[\"bzz-raw://a66a5381ce877b32f0e0058ceeaf843e9b6b2bc8af666c0c9f4a9d01091da004\",\"dweb:/ipfs/QmQynCetUr37dBkS1YwDS8evxuXGiqanW6THmeUxXtim8w\"],\"license\":\"MIT\"},\"node_modules/@bananapus/core/src/structs/JBAfterPayRecordedContext.sol\":{\"keccak256\":\"0xd26c3a774ff38be79064085970454fe2603a23a638c76270d5b1b3829206c3e8\",\"urls\":[\"bzz-raw://3b55dbe3bf1ef625b7ca04efab3de35406e6041d5b3d82c7265469c500e2b702\",\"dweb:/ipfs/QmUdBDo4Lt3mcsFcsXT2mqq3czFwZjQJFPLM89YA2VtD7k\"],\"license\":\"MIT\"},\"node_modules/@bananapus/core/src/structs/JBCurrencyAmount.sol\":{\"keccak256\":\"0x12fe4b43f4824994624d4fe0abbd88c3fe7867fd637edb65c7f456dab27e2d6e\",\"urls\":[\"bzz-raw://8003a3e8f932cf891e86b827e67c9d31b0d34c2712e18c2bc333cfe5284ba6d5\",\"dweb:/ipfs/QmSoA6RsDcSnNzk6CB7KZtALkHmeSDAi2g6fg3TDmLDkWX\"],\"license\":\"MIT\"},\"node_modules/@bananapus/core/src/structs/JBFundAccessLimitGroup.sol\":{\"keccak256\":\"0x9fdaa8d017b72da25f583700a444a86849df053f7fb8eac874ec5139bcf651e5\",\"urls\":[\"bzz-raw://c8e44c49ee444a98424a0dbeb6897a76a0bf00d88a613f62ac2012afdac754ee\",\"dweb:/ipfs/QmdYkAiRi5bXM1YYNkc7BiqimHSFodMGn1cjHR5hcpm4xH\"],\"license\":\"MIT\"},\"node_modules/@bananapus/core/src/structs/JBPermissionsData.sol\":{\"keccak256\":\"0x8f0f69a6ebf5f3704e3dfcb3712fb9d3f94ae7c1ab89bf3e37bad42a3e7a0487\",\"urls\":[\"bzz-raw://57b0c5e52843e2217082889ed47b4da3943e0da4590d5768dcebfe3edad4a6b8\",\"dweb:/ipfs/QmRz48vuWLw81kUP836rh1qzqWiJFGbksgRUA9xGEDNKTY\"],\"license\":\"MIT\"},\"node_modules/@bananapus/core/src/structs/JBRuleset.sol\":{\"keccak256\":\"0x15b2bf3174d84846a91ccbf5a344dfb125b55ed9cf50102db8d6868844225189\",\"urls\":[\"bzz-raw://647416b025dbd941094db89cbc69f755c155bd6c87be3f322394ccc4a8e0442d\",\"dweb:/ipfs/QmTCL9xcHnxQ4t5AmCPoZvXDUPW5xhzhyyXYbkMdyg44au\"],\"license\":\"MIT\"},\"node_modules/@bananapus/core/src/structs/JBRulesetConfig.sol\":{\"keccak256\":\"0x0be470df286939259a6b98bc71459e661e81d56a58226d6a574ae1484f8f8e6c\",\"urls\":[\"bzz-raw://64592c279ba7518ac180c835a539897163f299a439065f2cc8aa54086a2c9ad7\",\"dweb:/ipfs/QmaEepVvFJdXcDBMMr7SQYjZSDJXPtCca95kQY5rZbra6U\"],\"license\":\"MIT\"},\"node_modules/@bananapus/core/src/structs/JBRulesetMetadata.sol\":{\"keccak256\":\"0xfea54c9f98416d2aa05309e7ff76967d6968a614850a1e33e48fde793ea8b514\",\"urls\":[\"bzz-raw://bf55386cbab90dbc1296b2b0cbfdc217a4500d67702e4a093a4c78bd127ecd5c\",\"dweb:/ipfs/QmTRq9mZrNSXu7oCZwti4JbBFrbY6A5msRqi9RbtL49NAj\"],\"license\":\"MIT\"},\"node_modules/@bananapus/core/src/structs/JBRulesetWithMetadata.sol\":{\"keccak256\":\"0x1bcfadf20488f6df65227f8d4d0fbf9b7539456a2389567f7fe3900d23289bc3\",\"urls\":[\"bzz-raw://0a15c399a71e5373f8c0484c6d6b83521eda31e063a2c53e4c5cec4e74550343\",\"dweb:/ipfs/QmQwi8zkjoTVXbK89NeETYimWCacTrNsesJdpLSvGdqMPX\"],\"license\":\"MIT\"},\"node_modules/@bananapus/core/src/structs/JBSplit.sol\":{\"keccak256\":\"0x1d40fa4f1c911a53b9139f3d44d27cb58fa5c5d2cd793c7a21ccf52b9e61f848\",\"urls\":[\"bzz-raw://9897d2c29fc65fe16e4eac0b7b8b6fd8ef0b0cc501986f7f0c3a78c4ec1dbb60\",\"dweb:/ipfs/QmXcHoVjCYWWCz4hm2KZ6JxtB4YNq7jmXa2evLkga59Xwq\"],\"license\":\"MIT\"},\"node_modules/@bananapus/core/src/structs/JBSplitGroup.sol\":{\"keccak256\":\"0xda7da6e88aac2906c7ea4027660088daf217edc632bebca4d72795aae8921564\",\"urls\":[\"bzz-raw://ae1939d17e94cb51484f31ce64cf0df990445a338fb9b38d39a7baf28275ae4a\",\"dweb:/ipfs/QmUhPnJiWnYhFdtLvZnrPopAdbYXxETpGjvxjPDignpTGY\"],\"license\":\"MIT\"},\"node_modules/@bananapus/core/src/structs/JBSplitHookContext.sol\":{\"keccak256\":\"0xfe34e6860b00ca93d71f44e72882281b2c57c31303151af05795c74cfdd2e51d\",\"urls\":[\"bzz-raw://08acab094888e9c929b6f6f972d89ddbb31e5867675e7e7c602d25fcb2c0f402\",\"dweb:/ipfs/QmPNdXM185cTyXQSodVr4JMviHx88jrWu7dipgkp9xTNgJ\"],\"license\":\"MIT\"},\"node_modules/@bananapus/core/src/structs/JBTerminalConfig.sol\":{\"keccak256\":\"0xd162f3821a1ccafbc8d7d108369e39ac3048445a8c7fe7a3fa97a6343f9eefaa\",\"urls\":[\"bzz-raw://82172ea0407b6d9edc45e408c7e8edb8e129adf49a94349fe3a5862da9bc044e\",\"dweb:/ipfs/QmWheF5Tjq2hcabnSzfYqdFHUA1YxYEdAPZaRw9N166V1d\"],\"license\":\"MIT\"},\"node_modules/@bananapus/core/src/structs/JBTokenAmount.sol\":{\"keccak256\":\"0x5cf0626b73a596c1e2da17c89ae039a7c0374310b060d48568d3b6c11fbe6180\",\"urls\":[\"bzz-raw://63348b50be95e2995409394a17caffc563a646f0972650a1230bf864fbd3219b\",\"dweb:/ipfs/QmZXZpS3SbFD5nWaCauf6AqbEhLURv5qsKHpThBvQgDU6u\"],\"license\":\"MIT\"},\"node_modules/@bananapus/ownable/src/JBOwnable.sol\":{\"keccak256\":\"0x5b0aec2bc7164bdb972bfb9f71660c887308cf3a72738c7469d03bf264cf0d54\",\"urls\":[\"bzz-raw://bf4f60cebc0a707004371425aa3c8751b6a84dfb4fc9bf788160ae9ac1e906f6\",\"dweb:/ipfs/QmegUfWLhKuByQTkfMkmwkEs2Tk5ZEuR56DqQw5kxFzP3d\"],\"license\":\"MIT\"},\"node_modules/@bananapus/ownable/src/JBOwnableOverrides.sol\":{\"keccak256\":\"0x70a7c55f2a0f4324b63afe61e9d0de6e54396073e431844a19936d2aaaf6d7dd\",\"urls\":[\"bzz-raw://94c55139a8e974e2a88c6f0fc7594be3044742cfc499c989051eaf6664ec7dab\",\"dweb:/ipfs/QmQPnLAootqEGzpHRdhsYGBU3cqicRYLAe6bTti2UCBHyS\"],\"license\":\"MIT\"},\"node_modules/@bananapus/ownable/src/interfaces/IJBOwnable.sol\":{\"keccak256\":\"0x2c513558439d763df03e8a68c1aef698618182fd44c285405c35597d52c65ad1\",\"urls\":[\"bzz-raw://11cc25c41fccc20cca29f93dd120e67760188fd2040ef0330a093d37fbfa2f8f\",\"dweb:/ipfs/QmWpxcv41eYmsNYT3ph1nts5pC7sp3EzwJxKDGebMqEbsH\"],\"license\":\"MIT\"},\"node_modules/@bananapus/ownable/src/struct/JBOwner.sol\":{\"keccak256\":\"0x5624ba356f01f722984c1b857a106f413b12e57bae1f762a81c16ee511e3325a\",\"urls\":[\"bzz-raw://3120b5649ac8b55158df138dcac03f6850fc988cc5a24a7cb06e6581265ca284\",\"dweb:/ipfs/QmQBSLxRT9j1MEERUt8dWbSsAjianbHpM2CFwciLK7MwaP\"],\"license\":\"MIT\"},\"node_modules/@bananapus/permission-ids/src/JBPermissionIds.sol\":{\"keccak256\":\"0xf61109f6b217a80d5e5391f548fb6f2e451f7dbee3fabfc04cf17e88722203bc\",\"urls\":[\"bzz-raw://ac776ab1cd621c22bd7973471acdfa187f3abc659ad9a3ef6ed10b6447dfcf9c\",\"dweb:/ipfs/QmYLbaHt68qcuMzkiKpe96jMjiWUq1F3u8yMhxmZ3pnnWu\"],\"license\":\"MIT\"},\"node_modules/@openzeppelin/contracts/token/ERC721/IERC721.sol\":{\"keccak256\":\"0x5ef46daa3b58ef2702279d514780316efaa952915ee1aa3396f041ee2982b0b4\",\"urls\":[\"bzz-raw://2f8f2a76e23b02fc69e8cd24c3cb47da6c7af3a2d6c3a382f8ac25c6e094ade7\",\"dweb:/ipfs/QmPV4ZS4tPVv4mTCf9ejyZ1ai57EEibDRj7mN2ARDCLV5n\"],\"license\":\"MIT\"},\"node_modules/@openzeppelin/contracts/utils/Context.sol\":{\"keccak256\":\"0x493033a8d1b176a037b2cc6a04dad01a5c157722049bbecf632ca876224dd4b2\",\"urls\":[\"bzz-raw://6a708e8a5bdb1011c2c381c9a5cfd8a9a956d7d0a9dc1bd8bcdaf52f76ef2f12\",\"dweb:/ipfs/Qmax9WHBnVsZP46ZxEMNRQpLQnrdE4dK8LehML1Py8FowF\"],\"license\":\"MIT\"},\"node_modules/@openzeppelin/contracts/utils/introspection/IERC165.sol\":{\"keccak256\":\"0x4296879f55019b23e135000eb36896057e7101fb7fb859c5ef690cf14643757b\",\"urls\":[\"bzz-raw://87b3541437c8c443ccd36795e56a338ed12855eec17f8da624511b8d1a7e14df\",\"dweb:/ipfs/QmeJQCtZrQjtJLr6u7ZHWeH3pBnjtLWzvRrKViAi7UZqxL\"],\"license\":\"MIT\"},\"src/JB721TiersHookProjectDeployer.sol\":{\"keccak256\":\"0xd5d6f90b9a510647be9f25fec57ff72770849625d393b93ba5f4a70eda94d3fa\",\"urls\":[\"bzz-raw://64292d5c76ab764969768430b29993d16cd4485e02f6d2838438445fd2463f95\",\"dweb:/ipfs/QmPgmhojgNAbXTC7diDntmSjgmNAytcqYZRTtRK6tbZHfc\"],\"license\":\"MIT\"},\"src/interfaces/IJB721Hook.sol\":{\"keccak256\":\"0x24935445bc4c5b0fe2a10aabe549122588940842a68e79a8c39b1df9458dd7fd\",\"urls\":[\"bzz-raw://1dee273fa76d9abae116de911fdda5e3113db2a58939e62e24fba98c63fd037a\",\"dweb:/ipfs/QmT6Lih7DeRAfrLc8uC7ecaw2EAKwhaP2BZHeY5DxeeVLM\"],\"license\":\"MIT\"},\"src/interfaces/IJB721TiersHook.sol\":{\"keccak256\":\"0xbd9a8dae00a4b1a02c628bd172fe4ae496e49f7651426cef08774ffdb6125c23\",\"urls\":[\"bzz-raw://9ce4fd77d5af1f570dad6b70758f09f9599768e1ab32f6b473f6181197daa0c8\",\"dweb:/ipfs/QmWj6sCTvZ2CbfSyRuhaXADxYbwwPcR42pZokcgfjpsabg\"],\"license\":\"MIT\"},\"src/interfaces/IJB721TiersHookDeployer.sol\":{\"keccak256\":\"0xc4c6dfd2573fe1f130bc5193da68a622959a11562010fa261ffd3a8893e08a7b\",\"urls\":[\"bzz-raw://0c34f79121f6c777bca3df6c2e87c0caa05146bec45e9ae29f41b0532d16c88e\",\"dweb:/ipfs/QmZJQVZC8uuuSssXtLnhsvisz7V2PCKs2s1Hbzo8hmZ9ZP\"],\"license\":\"MIT\"},\"src/interfaces/IJB721TiersHookProjectDeployer.sol\":{\"keccak256\":\"0x278da7c4b54838e594e3630d6d16b490138c37be01c210b9d83208cc8884e746\",\"urls\":[\"bzz-raw://10f1a3a3b8f0912cfe0c96066537196b3b02433235fed2ff704579d6d55eace5\",\"dweb:/ipfs/QmeyQNm3xaNMp6UwsFURUXq1JDq5X8bKgVzkBXNMXTPcJi\"],\"license\":\"MIT\"},\"src/interfaces/IJB721TiersHookStore.sol\":{\"keccak256\":\"0x8550e216c12c9cda865c1b1b0eb3f244aeaa8d465b197d4bd0dd8d4df265682e\",\"urls\":[\"bzz-raw://674a312f1eaffd7c6b21f58f8d4a628104e71220daf48a22237fa3bd035ddf21\",\"dweb:/ipfs/QmSRSW6cSwdpoGjVxDqiwJmJyCxfHWhCxZ2iaqeJcN2Ccy\"],\"license\":\"MIT\"},\"src/interfaces/IJB721TokenUriResolver.sol\":{\"keccak256\":\"0xfa599167098f4459320ec4141a98a17b2dfffbce422baa27d8b4e4530f61ece1\",\"urls\":[\"bzz-raw://8b758b161f4c7b520b2c34b4d91e585e961b8f4ca278eebb91d791f7f2f45140\",\"dweb:/ipfs/QmcD9DF7NJ9QykQpT4KPzm4bs3fkjzukdAUWwdU6Atfw85\"],\"license\":\"MIT\"},\"src/structs/JB721InitTiersConfig.sol\":{\"keccak256\":\"0xfb78486cec94189d0ecf2050dc9cfc11245b426c73a0711a85bff1359d774307\",\"urls\":[\"bzz-raw://a8fa01f6e64dd204dbde07a60851e9a5a74e439e1411139ae16b7cf67d2a2692\",\"dweb:/ipfs/QmZAnHyfpKr3xr7NWHj5sGaCEEtG8RtmHhkRUJJvNauym5\"],\"license\":\"MIT\"},\"src/structs/JB721Tier.sol\":{\"keccak256\":\"0x2e267a8af02f125465cdda9308477346ae4a94b024c3b2c2a6af0c00027944dd\",\"urls\":[\"bzz-raw://367ccea2c8fa815d498d771d4367ef1ded718a76e89644102034bfe4a3636b82\",\"dweb:/ipfs/QmYiFFa6ei9wZBSSVUHfY2Cb35zCDVXvbmLcgLj2BTiC1u\"],\"license\":\"MIT\"},\"src/structs/JB721TierConfig.sol\":{\"keccak256\":\"0x2fa9c5c8cec182b854a656d3b284e9d5306be35ad3dc4da79d65dca12b804af0\",\"urls\":[\"bzz-raw://b443a5f70195a66145ea1dade04454ce9a3ff1209e1aaecf53c8a9909b294d79\",\"dweb:/ipfs/QmUDPFZ4L6XpV3zLQUNVchUvecD4XfddKz2S46BKek5XL1\"],\"license\":\"MIT\"},\"src/structs/JB721TiersHookFlags.sol\":{\"keccak256\":\"0x283d8429f31bd58875c056515aa42abd09c95362bd929e85cfc44a0d92585766\",\"urls\":[\"bzz-raw://9a580b89fe99d9f8e930c58a4d0d63a5ff7c01c79d210af01373d066c9e72ed6\",\"dweb:/ipfs/QmdY1eSGSoTjv4KSdsG4Tm5CzJN6iqk3qTRga5ZWNbejRz\"],\"license\":\"MIT\"},\"src/structs/JB721TiersMintReservesConfig.sol\":{\"keccak256\":\"0xab3b319dc4e736586ae595de194d93dcdfeba365bc7a54cf6c37e697f6074ad9\",\"urls\":[\"bzz-raw://a84ae2cf2e8c3e39e831dbb39a67a8eb43c78a6de6bb78b1be2e1f1e80c69efe\",\"dweb:/ipfs/QmboGXEMqsYTxc4a7oft9rggNU7ShWSa9yB4HFMVmzXCHz\"],\"license\":\"MIT\"},\"src/structs/JBDeploy721TiersHookConfig.sol\":{\"keccak256\":\"0x4f0b8bbc19a405a096a16977fa1eedc0c56640ef777add89c050f989a62a6a35\",\"urls\":[\"bzz-raw://bd009c66aa748a2ce04720a6376683ce01ced3c0bd7f9534e145263aa49d95d3\",\"dweb:/ipfs/QmXyJCS1uQevdkw1Gc4UrRs8fZKtW9wPWFY9pxUWHKLo4e\"],\"license\":\"MIT\"},\"src/structs/JBLaunchProjectConfig.sol\":{\"keccak256\":\"0x0a8f87072dd6e5dd7c5cd5af7153172275de7e85625aa4a97da4fed65ad5b029\",\"urls\":[\"bzz-raw://b1d230835bf8fa17e8308d5d2ce4c820c4a719f451a65477f75956e100984047\",\"dweb:/ipfs/QmX6BwoYNJx1SssBLcBoPJBsg2Hv6ZP2uErXUvoMrAaQ71\"],\"license\":\"MIT\"},\"src/structs/JBLaunchRulesetsConfig.sol\":{\"keccak256\":\"0x018a47f29fa959fe7011cdf0258fc29e66072b679fc2317d51b9aef0d7d754bd\",\"urls\":[\"bzz-raw://356b2e002e7ccf5c470f2d01cf99b9be6a6f3d2b4bbc8837d574eadbefd1a8f6\",\"dweb:/ipfs/QmTV9nzHVhDRVtNqXxGKBikCFmbwhcDVcLeDZk64AcNqzH\"],\"license\":\"MIT\"},\"src/structs/JBPayDataHookRulesetConfig.sol\":{\"keccak256\":\"0x492f4b5b87f519d73e4f48eda7b101c6dede87abb6442c5e789800cca4d011d8\",\"urls\":[\"bzz-raw://a92aec5a37ea462a5e61c5ce21bf4e60a2d5c0eb9f414337a446fa4253e2a586\",\"dweb:/ipfs/QmUBCAM4zZ6GQ5ZR6HEmCynv1poZG6oRhnAZsoggrqmMGs\"],\"license\":\"MIT\"},\"src/structs/JBPayDataHookRulesetMetadata.sol\":{\"keccak256\":\"0x377d43064f3cef70bd2f475fca62616d89b4ed065dc6dccce05c6308e2dae12e\",\"urls\":[\"bzz-raw://9d2f924bdc97acd21eba05fe7504f0a29065058a7a523b11010b710864c4ddcd\",\"dweb:/ipfs/QmUnyD1PsgdDXJTi7zMqUEUCDMhwxjujchAjHeYqgFCzfB\"],\"license\":\"MIT\"},\"src/structs/JBQueueRulesetsConfig.sol\":{\"keccak256\":\"0xb73328fd7ba2b70c4f7c5fda8dc0292069015151c9119ed4a7025da497cbed28\",\"urls\":[\"bzz-raw://cb5632de9d927c8c199c4633c5ecf7bc9add8656fb5ad240494a82dc7fd89159\",\"dweb:/ipfs/QmNoAsD66ySDRmATkNWoVENYHAtp7gbWXPQE3kJutiYBQy\"],\"license\":\"MIT\"}},\"version\":1}",
			"args": [
				"0xCd7112aE7c3b2505F0795c1ba965e5694c25d696",
				"0x6B8340b759d72E08b3fb674B48547E80631007cb",
				"0xf2dEE65acD9ccA20692C19E9635274b9c9e3309A"
			],
			"bytecode": "0x60e06040523480156200001157600080fd5b506040516200298c3803806200298c83398101604081905262000034916200006b565b6001600160a01b0391821660805291811660a0521660c052620000bf565b6001600160a01b03811681146200006857600080fd5b50565b6000806000606084860312156200008157600080fd5b83516200008e8162000052565b6020850151909350620000a18162000052565b6040850151909250620000b48162000052565b809150509250925092565b60805160a05160c051612867620001256000396000818160f4015281816102460152818161045d01526105c701526000818160a2015281816101540152818161034d015261055101526000818161012e015281816109a90152610a5201526128676000f3fe608060405234801561001057600080fd5b50600436106100725760003560e01c8063abf8c5c811610050578063abf8c5c8146100ef578063adcafa2f14610116578063f434c9141461012957600080fd5b80633f839bc61461007757806388bc2ef31461009d5780638eb69a9e146100dc575b600080fd5b61008a610085366004611db8565b610150565b6040519081526020015b60405180910390f35b6100c47f000000000000000000000000000000000000000000000000000000000000000081565b6040516001600160a01b039091168152602001610094565b61008a6100ea366004611edb565b610346565b6100c47f000000000000000000000000000000000000000000000000000000000000000081565b61008a610124366004611f64565b61054a565b6100c47f000000000000000000000000000000000000000000000000000000000000000081565b60007f00000000000000000000000000000000000000000000000000000000000000006001600160a01b031663293c49996040518163ffffffff1660e01b8152600401602060405180830381865afa1580156101b0573d6000803e3d6000fd5b505050506040513d601f19601f820116820180604052508101906101d49190612034565b6001600160a01b03166306661abd6040518163ffffffff1660e01b8152600401602060405180830381865afa158015610211573d6000803e3d6000fd5b505050506040513d601f19601f820116820180604052508101906102359190612058565b610240906001612071565b905060007f00000000000000000000000000000000000000000000000000000000000000006001600160a01b0316632230819f83876040518363ffffffff1660e01b81526004016102929291906121fe565b6020604051808303816000875af11580156102b1573d6000803e3d6000fd5b505050506040513d601f19601f820116820180604052508101906102d59190612034565b90506102e3868583866106aa565b6040516351106b4b60e11b8152600481018390526001600160a01b0382169063a220d69690602401600060405180830381600087803b15801561032557600080fd5b505af1158015610339573d6000803e3d6000fd5b5050505050949350505050565b60006104437f00000000000000000000000000000000000000000000000000000000000000006001600160a01b031663293c49996040518163ffffffff1660e01b8152600401602060405180830381865afa1580156103a9573d6000803e3d6000fd5b505050506040513d601f19601f820116820180604052508101906103cd9190612034565b6001600160a01b0316636352211e876040518263ffffffff1660e01b81526004016103fa91815260200190565b602060405180830381865afa158015610417573d6000803e3d6000fd5b505050506040513d601f19601f8201168201806040525081019061043b9190612034565b86600261095f565b604051632230819f60e01b81526000906001600160a01b037f00000000000000000000000000000000000000000000000000000000000000001690632230819f9061049490899089906004016121fe565b6020604051808303816000875af11580156104b3573d6000803e3d6000fd5b505050506040513d601f19601f820116820180604052508101906104d79190612034565b6040516351106b4b60e11b8152600481018890529091506001600160a01b0382169063a220d69690602401600060405180830381600087803b15801561051c57600080fd5b505af1158015610530573d6000803e3d6000fd5b5050505061054086858386610afc565b9695505050505050565b60006105ad7f00000000000000000000000000000000000000000000000000000000000000006001600160a01b031663293c49996040518163ffffffff1660e01b8152600401602060405180830381865afa1580156103a9573d6000803e3d6000fd5b604051632230819f60e01b81526000906001600160a01b037f00000000000000000000000000000000000000000000000000000000000000001690632230819f906105fe90899089906004016121fe565b6020604051808303816000875af115801561061d573d6000803e3d6000fd5b505050506040513d601f19601f820116820180604052508101906106419190612034565b6040516351106b4b60e11b8152600481018890529091506001600160a01b0382169063a220d69690602401600060405180830381600087803b15801561068657600080fd5b505af115801561069a573d6000803e3d6000fd5b5050505061054086858386610db3565b60208301515160008167ffffffffffffffff8111156106cb576106cb61119c565b60405190808252806020026020018201604052801561070457816020015b6106f1611016565b8152602001906001900390816106e95790505b50905061070f6110d5565b60005b838110156108bd578660200151818151811061073057610730612336565b602002602001015191506040518061010001604052808360000151815260200183602001518152602001836040015181526020018360600151815260200183608001516001600160a01b031681526020016040518061020001604052808560a001516000015181526020018560a001516020015181526020018560a001516040015181526020018560a0015160600151151581526020018560a0015160800151151581526020018560a0015160a00151151581526020018560a0015160c00151151581526020018560a0015160e00151151581526020018560a001516101000151151581526020018560a001516101200151151581526020018560a001516101400151151581526020018560a001516101600151151581526020016001151581526020018560a00151610180015115158152602001896001600160a01b031681526020018560a001516101a0015181525081526020018360c0015181526020018360e001518152508382815181106108aa576108aa612336565b6020908102919091010152600101610712565b508551604080880151606089015191517f0634bae90000000000000000000000000000000000000000000000000000000081526001600160a01b03881693630634bae993610912938d93899290600401612743565b6020604051808303816000875af1158015610931573d6000803e3d6000fd5b505050506040513d601f19601f820116820180604052508101906109559190612058565b5050505050505050565b336001600160a01b0384168114801590610a16575060405163c161c93f60e01b81526001600160a01b038281166004830152858116602483015260448201859052606482018490527f0000000000000000000000000000000000000000000000000000000000000000169063c161c93f90608401602060405180830381865afa1580156109f0573d6000803e3d6000fd5b505050506040513d601f19601f82011682018060405250810190610a14919061279f565b155b8015610abf575060405163c161c93f60e01b81526001600160a01b038281166004830152858116602483015260006044830152606482018490527f0000000000000000000000000000000000000000000000000000000000000000169063c161c93f90608401602060405180830381865afa158015610a99573d6000803e3d6000fd5b505050506040513d601f19601f82011682018060405250810190610abd919061279f565b155b15610af6576040517f075fd2b100000000000000000000000000000000000000000000000000000000815260040160405180910390fd5b50505050565b602083015151600090818167ffffffffffffffff811115610b1f57610b1f61119c565b604051908082528060200260200182016040528015610b5857816020015b610b45611016565b815260200190600190039081610b3d5790505b509050610b636110d5565b60005b83811015610d115787602001518181518110610b8457610b84612336565b602002602001015191506040518061010001604052808360000151815260200183602001518152602001836040015181526020018360600151815260200183608001516001600160a01b031681526020016040518061020001604052808560a001516000015181526020018560a001516020015181526020018560a001516040015181526020018560a0015160600151151581526020018560a0015160800151151581526020018560a0015160a00151151581526020018560a0015160c00151151581526020018560a0015160e00151151581526020018560a001516101000151151581526020018560a001516101200151151581526020018560a001516101400151151581526020018560a001516101600151151581526020016001151581526020018560a001516101800151151581526020018a6001600160a01b031681526020018560a001516101a0015181525081526020018360c0015181526020018360e00151815250838281518110610cfe57610cfe612336565b6020908102919091010152600101610b66565b50604080880151606089015191517f1ea7bc8c0000000000000000000000000000000000000000000000000000000081526001600160a01b03881692631ea7bc8c92610d64928d928892916004016127bc565b6020604051808303816000875af1158015610d83573d6000803e3d6000fd5b505050506040513d601f19601f82011682018060405250810190610da79190612058565b98975050505050505050565b602083015151600090818167ffffffffffffffff811115610dd657610dd661119c565b604051908082528060200260200182016040528015610e0f57816020015b610dfc611016565b815260200190600190039081610df45790505b509050610e1a6110d5565b60005b83811015610fc85787602001518181518110610e3b57610e3b612336565b602002602001015191506040518061010001604052808360000151815260200183602001518152602001836040015181526020018360600151815260200183608001516001600160a01b031681526020016040518061020001604052808560a001516000015181526020018560a001516020015181526020018560a001516040015181526020018560a0015160600151151581526020018560a0015160800151151581526020018560a0015160a00151151581526020018560a0015160c00151151581526020018560a0015160e00151151581526020018560a001516101000151151581526020018560a001516101200151151581526020018560a001516101400151151581526020018560a001516101600151151581526020016001151581526020018560a001516101800151151581526020018a6001600160a01b031681526020018560a001516101a0015181525081526020018360c0015181526020018360e00151815250838281518110610fb557610fb5612336565b6020908102919091010152600101610e1d565b5060408088015190517fa0d8e2a90000000000000000000000000000000000000000000000000000000081526001600160a01b0387169163a0d8e2a991610d64918c91879190600401612806565b6040805161010080820183526000808352602080840182905283850182905260608085018390526080808601849052865161020081018852848152928301849052958201839052810182905293840181905260a084810182905260c0850182905260e0850182905291840181905261012084018190526101408401819052610160840181905261018084018190526101a084018190526101c084018190526101e08401529091908201905b815260200160608152602001606081525090565b604080516101008082018352600080835260208084018290528385018290526060808501839052608080860184905286516101c081018852848152928301849052958201839052810182905293840181905260a084810182905260c0850182905260e0850182905291840181905261012084018190526101408401819052610160840181905261018084018190526101a08401529091908201906110c1565b6001600160a01b038116811461118957600080fd5b50565b803561119781611174565b919050565b634e487b7160e01b600052604160045260246000fd5b6040516080810167ffffffffffffffff811182821017156111d5576111d561119c565b60405290565b604051610180810167ffffffffffffffff811182821017156111d5576111d561119c565b604051610120810167ffffffffffffffff811182821017156111d5576111d561119c565b6040516101c0810167ffffffffffffffff811182821017156111d5576111d561119c565b6040805190810167ffffffffffffffff811182821017156111d5576111d561119c565b60405160c0810167ffffffffffffffff811182821017156111d5576111d561119c565b604051610100810167ffffffffffffffff811182821017156111d5576111d561119c565b6040516060810167ffffffffffffffff811182821017156111d5576111d561119c565b604051601f8201601f1916810167ffffffffffffffff811182821017156112fd576112fd61119c565b604052919050565b600082601f83011261131657600080fd5b813567ffffffffffffffff8111156113305761133061119c565b611343601f8201601f19166020016112d4565b81815284602083860101111561135857600080fd5b816020850160208301376000918101602001919091529392505050565b600067ffffffffffffffff82111561138f5761138f61119c565b5060051b60200190565b80356cffffffffffffffffffffffffff8116811461119757600080fd5b803563ffffffff8116811461119757600080fd5b803561ffff8116811461119757600080fd5b803562ffffff8116811461119757600080fd5b801515811461118957600080fd5b8035611197816113ef565b803560ff8116811461119757600080fd5b6000608080838503121561142c57600080fd5b6114346111b2565b9150823567ffffffffffffffff81111561144d57600080fd5b8301601f8101851361145e57600080fd5b8035602061147361146e83611375565b6112d4565b828152610180928302840182019282820191908985111561149357600080fd5b948301945b848610156115865780868b0312156114b05760008081fd5b6114b86111db565b6114c187611399565b81526114ce8588016113b6565b8582015260406114df8189016113b6565b9082015260606114f08882016113ca565b908201526114ff87890161118c565b8189015260a0878101359082015260c061151a8189016113dc565b9082015260e061152b8882016113fd565b9082015261010061153d8882016113fd565b9082015261012061154f8882016113fd565b908201526101406115618882016113fd565b908201526101606115738882016113fd565b9082015283529485019491830191611498565b508652506115958682016113b6565b81860152505050506115a960408301611408565b60408201526115ba6060830161118c565b606082015292915050565b6000608082840312156115d757600080fd5b6115df6111b2565b905081356115ec816113ef565b815260208201356115fc816113ef565b6020820152604082013561160f816113ef565b604082015260608201356115ba816113ef565b6000610180828403121561163557600080fd5b61163d6111ff565b9050813567ffffffffffffffff8082111561165757600080fd5b61166385838601611305565b8352602084013591508082111561167957600080fd5b61168585838601611305565b60208401526116966040850161118c565b604084015260608401359150808211156116af57600080fd5b6116bb85838601611305565b60608401526116cc6080850161118c565b608084015260a08401359150808211156116e557600080fd5b6116f185838601611305565b60a084015260c084013591508082111561170a57600080fd5b5061171784828501611419565b60c08301525061172960e0830161118c565b60e082015261010061173d848285016115c5565b9082015292915050565b60006101c0828403121561175a57600080fd5b611762611223565b9050813581526020820135602082015260408201356040820152611788606083016113fd565b6060820152611799608083016113fd565b60808201526117aa60a083016113fd565b60a08201526117bb60c083016113fd565b60c08201526117cc60e083016113fd565b60e08201526101006117df8184016113fd565b908201526101206117f18382016113fd565b908201526101406118038382016113fd565b908201526101606118158382016113fd565b908201526101806118278382016113fd565b81830152506101a080830135818301525092915050565b600082601f83011261184f57600080fd5b8135602061185f61146e83611375565b82815260059290921b8401810191818101908684111561187e57600080fd5b8286015b848110156119b857803567ffffffffffffffff808211156118a257600080fd5b908801906040828b03601f19018113156118bb57600080fd5b6118c3611247565b87840135815281840135838111156118da57600080fd5b8085019450508b603f8501126118ef57600080fd5b87840135925061190161146e84611375565b83815260c09093028401820192888101908d85111561191f57600080fd5b948301945b848610156119a35760c0868f03121561193c57600080fd5b61194461126a565b863561194f816113ef565b8152868b01358b8201528487013585820152606087013561196f81611174565b60608201526080878101359082015260a087013561198c81611174565b60a0820152825260c0959095019490890190611924565b828a0152508652505050918301918301611882565b509695505050505050565b600082601f8301126119d457600080fd5b813560206119e461146e83611375565b82815260069290921b84018101918181019086841115611a0357600080fd5b8286015b848110156119b85760408189031215611a205760008081fd5b611a28611247565b813581528482013585820152835291830191604001611a07565b600082601f830112611a5357600080fd5b81356020611a6361146e83611375565b82815260059290921b84018101918181019086841115611a8257600080fd5b8286015b848110156119b857803567ffffffffffffffff80821115611aa75760008081fd5b908801906080828b03601f1901811315611ac15760008081fd5b611ac96111b2565b87840135611ad681611174565b8152604084810135611ae781611174565b828a015260608581013585811115611aff5760008081fd5b611b0d8f8c838a01016119c3565b8484015250928501359284841115611b2757600091508182fd5b611b358e8b868901016119c3565b90830152508652505050918301918301611a86565b600082601f830112611b5b57600080fd5b81356020611b6b61146e83611375565b82815260059290921b84018101918181019086841115611b8a57600080fd5b8286015b848110156119b857803567ffffffffffffffff80821115611baf5760008081fd5b908801906102a0828b03601f1901811315611bca5760008081fd5b611bd261128d565b87840135815260408085013589830152606080860135828401526080915081860135818401525060a0611c0681870161118c565b8284015260c09150611c1a8e838801611747565b9083015261028085013584811115611c325760008081fd5b611c408e8b8389010161183e565b82840152505081840135915082821115611c5a5760008081fd5b611c688c8984870101611a42565b60e08201528652505050918301918301611b8e565b600082601f830112611c8e57600080fd5b81356020611c9e61146e83611375565b828152600592831b8501820192828201919087851115611cbd57600080fd5b8387015b85811015611dab57803567ffffffffffffffff80821115611ce25760008081fd5b908901906040828c03601f1901811315611cfc5760008081fd5b611d04611247565b88840135611d1181611174565b81528382013583811115611d255760008081fd5b8085019450508c603f850112611d3d57600092508283fd5b888401359250611d4f61146e84611375565b83815292861b8401820192898101908e851115611d6c5760008081fd5b948301945b84861015611d965785359350611d8684611174565b838252948a0194908a0190611d71565b828b0152508752505050928401928401611cc1565b5090979650505050505050565b60008060008060808587031215611dce57600080fd5b8435611dd981611174565b9350602085013567ffffffffffffffff80821115611df657600080fd5b611e0288838901611622565b94506040870135915080821115611e1857600080fd5b9086019060808289031215611e2c57600080fd5b611e346111b2565b823582811115611e4357600080fd5b611e4f8a828601611305565b825250602083013582811115611e6457600080fd5b611e708a828601611b4a565b602083015250604083013582811115611e8857600080fd5b611e948a828601611c7d565b604083015250606083013582811115611eac57600080fd5b611eb88a828601611305565b606083015250809450505050611ed06060860161118c565b905092959194509250565b60008060008060808587031215611ef157600080fd5b84359350602085013567ffffffffffffffff80821115611f1057600080fd5b611f1c88838901611622565b94506040870135915080821115611f3257600080fd5b9086019060808289031215611f4657600080fd5b611f4e6111b2565b82358152602083013582811115611e6457600080fd5b60008060008060808587031215611f7a57600080fd5b84359350602085013567ffffffffffffffff80821115611f9957600080fd5b611fa588838901611622565b94506040870135915080821115611fbb57600080fd5b9086019060608289031215611fcf57600080fd5b611fd76112b1565b82358152602083013582811115611fed57600080fd5b611ff98a828601611b4a565b60208301525060408301358281111561201157600080fd5b61201d8a828601611305565b6040830152509350611ed09150506060860161118c565b60006020828403121561204657600080fd5b815161205181611174565b9392505050565b60006020828403121561206a57600080fd5b5051919050565b8082018082111561209257634e487b7160e01b600052601160045260246000fd5b92915050565b6000815180845260005b818110156120be576020818501810151868301820152016120a2565b506000602082860101526020601f19601f83011685010191505092915050565b80516080808452815184820181905260009260a0916020918201918388019190865b828110156121c357845180516cffffffffffffffffffffffffff1685528281015163ffffffff908116848701526040808301519091169086015260608082015161ffff1690860152878101516001600160a01b031688860152868101518786015260c08082015162ffffff169086015260e080820151151590860152610100808201511515908601526101208082015115159086015261014080820151151590860152610160908101511515908501529381019361018090930192600101612100565b508781015163ffffffff16908901525060408087015160ff16908801526060808701516001600160a01b038116918901919091529350610540565b828152604060208201526000825161018060408401526122226101c0840182612098565b90506020840151603f19808584030160608601526122408383612098565b92506040860151915061225e60808601836001600160a01b03169052565b60608601519150808584030160a08601526122798383612098565b92506080860151915061229760c08601836001600160a01b03169052565b60a08601519150808584030160e08601526122b28383612098565b925060c086015191506101008186850301818701526122d184846120de565b935060e087015192506122f06101208701846001600160a01b03169052565b860151805115156101408701526020810151151561016087015260408101511515610180870152606081015115156101a0870152915061232d9050565b50949350505050565b634e487b7160e01b600052603260045260246000fd5b8051825260208101516020830152604081015160408301526060810151612377606084018215159052565b50608081015161238b608084018215159052565b5060a081015161239f60a084018215159052565b5060c08101516123b360c084018215159052565b5060e08101516123c760e084018215159052565b5061010081810151151590830152610120808201511515908301526101408082015115159083015261016080820151151590830152610180808201511515908301526101a0808201511515908301526101c0808201516001600160a01b0316908301526101e090810151910152565b600082825180855260208086019550808260051b8401018186016000805b858110156124fc57868403601f19018a52825180518552850151604086860181905281518187018190529187019160609081880190865b818110156124e55785518051151584528b8101518c8501528581015186850152848101516001600160a01b03908116868601526080808301519086015260a0918201511690840152948a019460c09092019160010161248b565b50509c88019c965050509285019250600101612454565b509198975050505050505050565b60008151808452602080850194506020840160005b8381101561254657815180518852830151838801526040909601959082019060010161251f565b509495945050505050565b600082825180855260208086019550808260051b84010181860160005b84811015611dab57601f19868403018952815160806001600160a01b03808351168652808784015116878701525060408083015182828801526125b38388018261250a565b92505050606080830151925085820381870152506125d1818361250a565b9a86019a945050509083019060010161256e565b600082825180855260208086019550808260051b84010181860160005b84811015611dab57858303601f19018952815180518452848101518585015260408082015190850152606080820151908501526080808201516001600160a01b03169085015260a0808201516102e0919061265f8288018261234c565b505060c0820151816102a087015261267982870182612436565b91505060e082015191508481036102c08601526126968183612551565b9a86019a9450505090830190600101612602565b600082825180855260208086019550808260051b8401018186016000805b858110156124fc57868403601f19018a52825180516001600160a01b03908116865290860151604087870181905281519087018190529087019160608701918591905b8083101561272d5784518216845293890193928901926001929092019161270b565b5050509a86019a945050918401916001016126c8565b6001600160a01b038616815260a06020820152600061276560a0830187612098565b828103604084015261277781876125e5565b9050828103606084015261278b81866126aa565b90508281036080840152610da78185612098565b6000602082840312156127b157600080fd5b8151612051816113ef565b8481526080602082015260006127d560808301866125e5565b82810360408401526127e781866126aa565b905082810360608401526127fb8185612098565b979650505050505050565b83815260606020820152600061281f60608301856125e5565b8281036040840152610540818561209856fea26469706673582212208f1339f5250d8f0ce2ad01916930a96678e16bdb08a5f7a87136051a590ed97364736f6c63430008170033",
			"deployedBytecode": "0x608060405234801561001057600080fd5b50600436106100725760003560e01c8063abf8c5c811610050578063abf8c5c8146100ef578063adcafa2f14610116578063f434c9141461012957600080fd5b80633f839bc61461007757806388bc2ef31461009d5780638eb69a9e146100dc575b600080fd5b61008a610085366004611db8565b610150565b6040519081526020015b60405180910390f35b6100c47f000000000000000000000000cd7112ae7c3b2505f0795c1ba965e5694c25d69681565b6040516001600160a01b039091168152602001610094565b61008a6100ea366004611edb565b610346565b6100c47f000000000000000000000000f2dee65acd9cca20692c19e9635274b9c9e3309a81565b61008a610124366004611f64565b61054a565b6100c47f0000000000000000000000006b8340b759d72e08b3fb674b48547e80631007cb81565b60007f000000000000000000000000cd7112ae7c3b2505f0795c1ba965e5694c25d6966001600160a01b031663293c49996040518163ffffffff1660e01b8152600401602060405180830381865afa1580156101b0573d6000803e3d6000fd5b505050506040513d601f19601f820116820180604052508101906101d49190612034565b6001600160a01b03166306661abd6040518163ffffffff1660e01b8152600401602060405180830381865afa158015610211573d6000803e3d6000fd5b505050506040513d601f19601f820116820180604052508101906102359190612058565b610240906001612071565b905060007f000000000000000000000000f2dee65acd9cca20692c19e9635274b9c9e3309a6001600160a01b0316632230819f83876040518363ffffffff1660e01b81526004016102929291906121fe565b6020604051808303816000875af11580156102b1573d6000803e3d6000fd5b505050506040513d601f19601f820116820180604052508101906102d59190612034565b90506102e3868583866106aa565b6040516351106b4b60e11b8152600481018390526001600160a01b0382169063a220d69690602401600060405180830381600087803b15801561032557600080fd5b505af1158015610339573d6000803e3d6000fd5b5050505050949350505050565b60006104437f000000000000000000000000cd7112ae7c3b2505f0795c1ba965e5694c25d6966001600160a01b031663293c49996040518163ffffffff1660e01b8152600401602060405180830381865afa1580156103a9573d6000803e3d6000fd5b505050506040513d601f19601f820116820180604052508101906103cd9190612034565b6001600160a01b0316636352211e876040518263ffffffff1660e01b81526004016103fa91815260200190565b602060405180830381865afa158015610417573d6000803e3d6000fd5b505050506040513d601f19601f8201168201806040525081019061043b9190612034565b86600261095f565b604051632230819f60e01b81526000906001600160a01b037f000000000000000000000000f2dee65acd9cca20692c19e9635274b9c9e3309a1690632230819f9061049490899089906004016121fe565b6020604051808303816000875af11580156104b3573d6000803e3d6000fd5b505050506040513d601f19601f820116820180604052508101906104d79190612034565b6040516351106b4b60e11b8152600481018890529091506001600160a01b0382169063a220d69690602401600060405180830381600087803b15801561051c57600080fd5b505af1158015610530573d6000803e3d6000fd5b5050505061054086858386610afc565b9695505050505050565b60006105ad7f000000000000000000000000cd7112ae7c3b2505f0795c1ba965e5694c25d6966001600160a01b031663293c49996040518163ffffffff1660e01b8152600401602060405180830381865afa1580156103a9573d6000803e3d6000fd5b604051632230819f60e01b81526000906001600160a01b037f000000000000000000000000f2dee65acd9cca20692c19e9635274b9c9e3309a1690632230819f906105fe90899089906004016121fe565b6020604051808303816000875af115801561061d573d6000803e3d6000fd5b505050506040513d601f19601f820116820180604052508101906106419190612034565b6040516351106b4b60e11b8152600481018890529091506001600160a01b0382169063a220d69690602401600060405180830381600087803b15801561068657600080fd5b505af115801561069a573d6000803e3d6000fd5b5050505061054086858386610db3565b60208301515160008167ffffffffffffffff8111156106cb576106cb61119c565b60405190808252806020026020018201604052801561070457816020015b6106f1611016565b8152602001906001900390816106e95790505b50905061070f6110d5565b60005b838110156108bd578660200151818151811061073057610730612336565b602002602001015191506040518061010001604052808360000151815260200183602001518152602001836040015181526020018360600151815260200183608001516001600160a01b031681526020016040518061020001604052808560a001516000015181526020018560a001516020015181526020018560a001516040015181526020018560a0015160600151151581526020018560a0015160800151151581526020018560a0015160a00151151581526020018560a0015160c00151151581526020018560a0015160e00151151581526020018560a001516101000151151581526020018560a001516101200151151581526020018560a001516101400151151581526020018560a001516101600151151581526020016001151581526020018560a00151610180015115158152602001896001600160a01b031681526020018560a001516101a0015181525081526020018360c0015181526020018360e001518152508382815181106108aa576108aa612336565b6020908102919091010152600101610712565b508551604080880151606089015191517f0634bae90000000000000000000000000000000000000000000000000000000081526001600160a01b03881693630634bae993610912938d93899290600401612743565b6020604051808303816000875af1158015610931573d6000803e3d6000fd5b505050506040513d601f19601f820116820180604052508101906109559190612058565b5050505050505050565b336001600160a01b0384168114801590610a16575060405163c161c93f60e01b81526001600160a01b038281166004830152858116602483015260448201859052606482018490527f0000000000000000000000006b8340b759d72e08b3fb674b48547e80631007cb169063c161c93f90608401602060405180830381865afa1580156109f0573d6000803e3d6000fd5b505050506040513d601f19601f82011682018060405250810190610a14919061279f565b155b8015610abf575060405163c161c93f60e01b81526001600160a01b038281166004830152858116602483015260006044830152606482018490527f0000000000000000000000006b8340b759d72e08b3fb674b48547e80631007cb169063c161c93f90608401602060405180830381865afa158015610a99573d6000803e3d6000fd5b505050506040513d601f19601f82011682018060405250810190610abd919061279f565b155b15610af6576040517f075fd2b100000000000000000000000000000000000000000000000000000000815260040160405180910390fd5b50505050565b602083015151600090818167ffffffffffffffff811115610b1f57610b1f61119c565b604051908082528060200260200182016040528015610b5857816020015b610b45611016565b815260200190600190039081610b3d5790505b509050610b636110d5565b60005b83811015610d115787602001518181518110610b8457610b84612336565b602002602001015191506040518061010001604052808360000151815260200183602001518152602001836040015181526020018360600151815260200183608001516001600160a01b031681526020016040518061020001604052808560a001516000015181526020018560a001516020015181526020018560a001516040015181526020018560a0015160600151151581526020018560a0015160800151151581526020018560a0015160a00151151581526020018560a0015160c00151151581526020018560a0015160e00151151581526020018560a001516101000151151581526020018560a001516101200151151581526020018560a001516101400151151581526020018560a001516101600151151581526020016001151581526020018560a001516101800151151581526020018a6001600160a01b031681526020018560a001516101a0015181525081526020018360c0015181526020018360e00151815250838281518110610cfe57610cfe612336565b6020908102919091010152600101610b66565b50604080880151606089015191517f1ea7bc8c0000000000000000000000000000000000000000000000000000000081526001600160a01b03881692631ea7bc8c92610d64928d928892916004016127bc565b6020604051808303816000875af1158015610d83573d6000803e3d6000fd5b505050506040513d601f19601f82011682018060405250810190610da79190612058565b98975050505050505050565b602083015151600090818167ffffffffffffffff811115610dd657610dd661119c565b604051908082528060200260200182016040528015610e0f57816020015b610dfc611016565b815260200190600190039081610df45790505b509050610e1a6110d5565b60005b83811015610fc85787602001518181518110610e3b57610e3b612336565b602002602001015191506040518061010001604052808360000151815260200183602001518152602001836040015181526020018360600151815260200183608001516001600160a01b031681526020016040518061020001604052808560a001516000015181526020018560a001516020015181526020018560a001516040015181526020018560a0015160600151151581526020018560a0015160800151151581526020018560a0015160a00151151581526020018560a0015160c00151151581526020018560a0015160e00151151581526020018560a001516101000151151581526020018560a001516101200151151581526020018560a001516101400151151581526020018560a001516101600151151581526020016001151581526020018560a001516101800151151581526020018a6001600160a01b031681526020018560a001516101a0015181525081526020018360c0015181526020018360e00151815250838281518110610fb557610fb5612336565b6020908102919091010152600101610e1d565b5060408088015190517fa0d8e2a90000000000000000000000000000000000000000000000000000000081526001600160a01b0387169163a0d8e2a991610d64918c91879190600401612806565b6040805161010080820183526000808352602080840182905283850182905260608085018390526080808601849052865161020081018852848152928301849052958201839052810182905293840181905260a084810182905260c0850182905260e0850182905291840181905261012084018190526101408401819052610160840181905261018084018190526101a084018190526101c084018190526101e08401529091908201905b815260200160608152602001606081525090565b604080516101008082018352600080835260208084018290528385018290526060808501839052608080860184905286516101c081018852848152928301849052958201839052810182905293840181905260a084810182905260c0850182905260e0850182905291840181905261012084018190526101408401819052610160840181905261018084018190526101a08401529091908201906110c1565b6001600160a01b038116811461118957600080fd5b50565b803561119781611174565b919050565b634e487b7160e01b600052604160045260246000fd5b6040516080810167ffffffffffffffff811182821017156111d5576111d561119c565b60405290565b604051610180810167ffffffffffffffff811182821017156111d5576111d561119c565b604051610120810167ffffffffffffffff811182821017156111d5576111d561119c565b6040516101c0810167ffffffffffffffff811182821017156111d5576111d561119c565b6040805190810167ffffffffffffffff811182821017156111d5576111d561119c565b60405160c0810167ffffffffffffffff811182821017156111d5576111d561119c565b604051610100810167ffffffffffffffff811182821017156111d5576111d561119c565b6040516060810167ffffffffffffffff811182821017156111d5576111d561119c565b604051601f8201601f1916810167ffffffffffffffff811182821017156112fd576112fd61119c565b604052919050565b600082601f83011261131657600080fd5b813567ffffffffffffffff8111156113305761133061119c565b611343601f8201601f19166020016112d4565b81815284602083860101111561135857600080fd5b816020850160208301376000918101602001919091529392505050565b600067ffffffffffffffff82111561138f5761138f61119c565b5060051b60200190565b80356cffffffffffffffffffffffffff8116811461119757600080fd5b803563ffffffff8116811461119757600080fd5b803561ffff8116811461119757600080fd5b803562ffffff8116811461119757600080fd5b801515811461118957600080fd5b8035611197816113ef565b803560ff8116811461119757600080fd5b6000608080838503121561142c57600080fd5b6114346111b2565b9150823567ffffffffffffffff81111561144d57600080fd5b8301601f8101851361145e57600080fd5b8035602061147361146e83611375565b6112d4565b828152610180928302840182019282820191908985111561149357600080fd5b948301945b848610156115865780868b0312156114b05760008081fd5b6114b86111db565b6114c187611399565b81526114ce8588016113b6565b8582015260406114df8189016113b6565b9082015260606114f08882016113ca565b908201526114ff87890161118c565b8189015260a0878101359082015260c061151a8189016113dc565b9082015260e061152b8882016113fd565b9082015261010061153d8882016113fd565b9082015261012061154f8882016113fd565b908201526101406115618882016113fd565b908201526101606115738882016113fd565b9082015283529485019491830191611498565b508652506115958682016113b6565b81860152505050506115a960408301611408565b60408201526115ba6060830161118c565b606082015292915050565b6000608082840312156115d757600080fd5b6115df6111b2565b905081356115ec816113ef565b815260208201356115fc816113ef565b6020820152604082013561160f816113ef565b604082015260608201356115ba816113ef565b6000610180828403121561163557600080fd5b61163d6111ff565b9050813567ffffffffffffffff8082111561165757600080fd5b61166385838601611305565b8352602084013591508082111561167957600080fd5b61168585838601611305565b60208401526116966040850161118c565b604084015260608401359150808211156116af57600080fd5b6116bb85838601611305565b60608401526116cc6080850161118c565b608084015260a08401359150808211156116e557600080fd5b6116f185838601611305565b60a084015260c084013591508082111561170a57600080fd5b5061171784828501611419565b60c08301525061172960e0830161118c565b60e082015261010061173d848285016115c5565b9082015292915050565b60006101c0828403121561175a57600080fd5b611762611223565b9050813581526020820135602082015260408201356040820152611788606083016113fd565b6060820152611799608083016113fd565b60808201526117aa60a083016113fd565b60a08201526117bb60c083016113fd565b60c08201526117cc60e083016113fd565b60e08201526101006117df8184016113fd565b908201526101206117f18382016113fd565b908201526101406118038382016113fd565b908201526101606118158382016113fd565b908201526101806118278382016113fd565b81830152506101a080830135818301525092915050565b600082601f83011261184f57600080fd5b8135602061185f61146e83611375565b82815260059290921b8401810191818101908684111561187e57600080fd5b8286015b848110156119b857803567ffffffffffffffff808211156118a257600080fd5b908801906040828b03601f19018113156118bb57600080fd5b6118c3611247565b87840135815281840135838111156118da57600080fd5b8085019450508b603f8501126118ef57600080fd5b87840135925061190161146e84611375565b83815260c09093028401820192888101908d85111561191f57600080fd5b948301945b848610156119a35760c0868f03121561193c57600080fd5b61194461126a565b863561194f816113ef565b8152868b01358b8201528487013585820152606087013561196f81611174565b60608201526080878101359082015260a087013561198c81611174565b60a0820152825260c0959095019490890190611924565b828a0152508652505050918301918301611882565b509695505050505050565b600082601f8301126119d457600080fd5b813560206119e461146e83611375565b82815260069290921b84018101918181019086841115611a0357600080fd5b8286015b848110156119b85760408189031215611a205760008081fd5b611a28611247565b813581528482013585820152835291830191604001611a07565b600082601f830112611a5357600080fd5b81356020611a6361146e83611375565b82815260059290921b84018101918181019086841115611a8257600080fd5b8286015b848110156119b857803567ffffffffffffffff80821115611aa75760008081fd5b908801906080828b03601f1901811315611ac15760008081fd5b611ac96111b2565b87840135611ad681611174565b8152604084810135611ae781611174565b828a015260608581013585811115611aff5760008081fd5b611b0d8f8c838a01016119c3565b8484015250928501359284841115611b2757600091508182fd5b611b358e8b868901016119c3565b90830152508652505050918301918301611a86565b600082601f830112611b5b57600080fd5b81356020611b6b61146e83611375565b82815260059290921b84018101918181019086841115611b8a57600080fd5b8286015b848110156119b857803567ffffffffffffffff80821115611baf5760008081fd5b908801906102a0828b03601f1901811315611bca5760008081fd5b611bd261128d565b87840135815260408085013589830152606080860135828401526080915081860135818401525060a0611c0681870161118c565b8284015260c09150611c1a8e838801611747565b9083015261028085013584811115611c325760008081fd5b611c408e8b8389010161183e565b82840152505081840135915082821115611c5a5760008081fd5b611c688c8984870101611a42565b60e08201528652505050918301918301611b8e565b600082601f830112611c8e57600080fd5b81356020611c9e61146e83611375565b828152600592831b8501820192828201919087851115611cbd57600080fd5b8387015b85811015611dab57803567ffffffffffffffff80821115611ce25760008081fd5b908901906040828c03601f1901811315611cfc5760008081fd5b611d04611247565b88840135611d1181611174565b81528382013583811115611d255760008081fd5b8085019450508c603f850112611d3d57600092508283fd5b888401359250611d4f61146e84611375565b83815292861b8401820192898101908e851115611d6c5760008081fd5b948301945b84861015611d965785359350611d8684611174565b838252948a0194908a0190611d71565b828b0152508752505050928401928401611cc1565b5090979650505050505050565b60008060008060808587031215611dce57600080fd5b8435611dd981611174565b9350602085013567ffffffffffffffff80821115611df657600080fd5b611e0288838901611622565b94506040870135915080821115611e1857600080fd5b9086019060808289031215611e2c57600080fd5b611e346111b2565b823582811115611e4357600080fd5b611e4f8a828601611305565b825250602083013582811115611e6457600080fd5b611e708a828601611b4a565b602083015250604083013582811115611e8857600080fd5b611e948a828601611c7d565b604083015250606083013582811115611eac57600080fd5b611eb88a828601611305565b606083015250809450505050611ed06060860161118c565b905092959194509250565b60008060008060808587031215611ef157600080fd5b84359350602085013567ffffffffffffffff80821115611f1057600080fd5b611f1c88838901611622565b94506040870135915080821115611f3257600080fd5b9086019060808289031215611f4657600080fd5b611f4e6111b2565b82358152602083013582811115611e6457600080fd5b60008060008060808587031215611f7a57600080fd5b84359350602085013567ffffffffffffffff80821115611f9957600080fd5b611fa588838901611622565b94506040870135915080821115611fbb57600080fd5b9086019060608289031215611fcf57600080fd5b611fd76112b1565b82358152602083013582811115611fed57600080fd5b611ff98a828601611b4a565b60208301525060408301358281111561201157600080fd5b61201d8a828601611305565b6040830152509350611ed09150506060860161118c565b60006020828403121561204657600080fd5b815161205181611174565b9392505050565b60006020828403121561206a57600080fd5b5051919050565b8082018082111561209257634e487b7160e01b600052601160045260246000fd5b92915050565b6000815180845260005b818110156120be576020818501810151868301820152016120a2565b506000602082860101526020601f19601f83011685010191505092915050565b80516080808452815184820181905260009260a0916020918201918388019190865b828110156121c357845180516cffffffffffffffffffffffffff1685528281015163ffffffff908116848701526040808301519091169086015260608082015161ffff1690860152878101516001600160a01b031688860152868101518786015260c08082015162ffffff169086015260e080820151151590860152610100808201511515908601526101208082015115159086015261014080820151151590860152610160908101511515908501529381019361018090930192600101612100565b508781015163ffffffff16908901525060408087015160ff16908801526060808701516001600160a01b038116918901919091529350610540565b828152604060208201526000825161018060408401526122226101c0840182612098565b90506020840151603f19808584030160608601526122408383612098565b92506040860151915061225e60808601836001600160a01b03169052565b60608601519150808584030160a08601526122798383612098565b92506080860151915061229760c08601836001600160a01b03169052565b60a08601519150808584030160e08601526122b28383612098565b925060c086015191506101008186850301818701526122d184846120de565b935060e087015192506122f06101208701846001600160a01b03169052565b860151805115156101408701526020810151151561016087015260408101511515610180870152606081015115156101a0870152915061232d9050565b50949350505050565b634e487b7160e01b600052603260045260246000fd5b8051825260208101516020830152604081015160408301526060810151612377606084018215159052565b50608081015161238b608084018215159052565b5060a081015161239f60a084018215159052565b5060c08101516123b360c084018215159052565b5060e08101516123c760e084018215159052565b5061010081810151151590830152610120808201511515908301526101408082015115159083015261016080820151151590830152610180808201511515908301526101a0808201511515908301526101c0808201516001600160a01b0316908301526101e090810151910152565b600082825180855260208086019550808260051b8401018186016000805b858110156124fc57868403601f19018a52825180518552850151604086860181905281518187018190529187019160609081880190865b818110156124e55785518051151584528b8101518c8501528581015186850152848101516001600160a01b03908116868601526080808301519086015260a0918201511690840152948a019460c09092019160010161248b565b50509c88019c965050509285019250600101612454565b509198975050505050505050565b60008151808452602080850194506020840160005b8381101561254657815180518852830151838801526040909601959082019060010161251f565b509495945050505050565b600082825180855260208086019550808260051b84010181860160005b84811015611dab57601f19868403018952815160806001600160a01b03808351168652808784015116878701525060408083015182828801526125b38388018261250a565b92505050606080830151925085820381870152506125d1818361250a565b9a86019a945050509083019060010161256e565b600082825180855260208086019550808260051b84010181860160005b84811015611dab57858303601f19018952815180518452848101518585015260408082015190850152606080820151908501526080808201516001600160a01b03169085015260a0808201516102e0919061265f8288018261234c565b505060c0820151816102a087015261267982870182612436565b91505060e082015191508481036102c08601526126968183612551565b9a86019a9450505090830190600101612602565b600082825180855260208086019550808260051b8401018186016000805b858110156124fc57868403601f19018a52825180516001600160a01b03908116865290860151604087870181905281519087018190529087019160608701918591905b8083101561272d5784518216845293890193928901926001929092019161270b565b5050509a86019a945050918401916001016126c8565b6001600160a01b038616815260a06020820152600061276560a0830187612098565b828103604084015261277781876125e5565b9050828103606084015261278b81866126aa565b90508281036080840152610da78185612098565b6000602082840312156127b157600080fd5b8151612051816113ef565b8481526080602082015260006127d560808301866125e5565b82810360408401526127e781866126aa565b905082810360608401526127fb8185612098565b979650505050505050565b83815260606020820152600061281f60608301856125e5565b8281036040840152610540818561209856fea26469706673582212208f1339f5250d8f0ce2ad01916930a96678e16bdb08a5f7a87136051a590ed97364736f6c63430008170033",
			"devdoc": {
				"kind": "dev",
				"methods": {
					"constructor": {
						"params": {
							"directory": "The directory of terminals and controllers for projects.",
							"hookDeployer": "The 721 tiers hook deployer.",
							"permissions": "A contract storing permissions."
						}
					},
					"launchProjectFor(address,(string,string,address,string,address,string,((uint104,uint32,uint32,uint16,address,bytes32,uint24,bool,bool,bool,bool,bool)[],uint32,uint8,address),address,(bool,bool,bool,bool)),(string,(uint256,uint256,uint256,uint256,address,(uint256,uint256,uint256,bool,bool,bool,bool,bool,bool,bool,bool,bool,bool,uint256),(uint256,(bool,uint256,uint256,address,uint256,address)[])[],(address,address,(uint256,uint256)[],(uint256,uint256)[])[])[],(address,address[])[],string),address)": {
						"params": {
							"controller": "The controller that the project's rulesets will be queued with.",
							"deployTiersHookConfig": "Configuration which dictates the behavior of the 721 tiers hook which is being deployed.",
							"launchProjectConfig": "Configuration which dictates the behavior of the project which is being launched.",
							"owner": "The address to set as the owner of the project. The ERC-721 which confers this project's ownership will be sent to this address."
						},
						"returns": {
							"projectId": "The ID of the newly launched project."
						}
					},
					"launchRulesetsFor(uint256,(string,string,address,string,address,string,((uint104,uint32,uint32,uint16,address,bytes32,uint24,bool,bool,bool,bool,bool)[],uint32,uint8,address),address,(bool,bool,bool,bool)),(uint256,(uint256,uint256,uint256,uint256,address,(uint256,uint256,uint256,bool,bool,bool,bool,bool,bool,bool,bool,bool,bool,uint256),(uint256,(bool,uint256,uint256,address,uint256,address)[])[],(address,address,(uint256,uint256)[],(uint256,uint256)[])[])[],(address,address[])[],string),address)": {
						"details": "Only a project's owner or an operator with the `QUEUE_RULESETS` permission can launch its rulesets.",
						"params": {
							"controller": "The controller that the project's rulesets will be queued with.",
							"deployTiersHookConfig": "Configuration which dictates the behavior of the 721 tiers hook which is being deployed.",
							"launchRulesetsConfig": "Configuration which dictates the project's new rulesets.",
							"projectId": "The ID of the project that rulesets are being launched for."
						},
						"returns": {
							"rulesetId": "The ID of the successfully created ruleset."
						}
					},
					"queueRulesetsOf(uint256,(string,string,address,string,address,string,((uint104,uint32,uint32,uint16,address,bytes32,uint24,bool,bool,bool,bool,bool)[],uint32,uint8,address),address,(bool,bool,bool,bool)),(uint256,(uint256,uint256,uint256,uint256,address,(uint256,uint256,uint256,bool,bool,bool,bool,bool,bool,bool,bool,bool,bool,uint256),(uint256,(bool,uint256,uint256,address,uint256,address)[])[],(address,address,(uint256,uint256)[],(uint256,uint256)[])[])[],string),address)": {
						"details": "Only a project's owner or an operator with the `QUEUE_RULESETS` permission can queue its rulesets.",
						"params": {
							"controller": "The controller that the project's rulesets will be queued with.",
							"deployTiersHookConfig": "Configuration which dictates the behavior of the 721 tiers hook which is being deployed.",
							"projectId": "The ID of the project that rulesets are being queued for.",
							"queueRulesetsConfig": "Configuration which dictates the project's newly queued rulesets."
						},
						"returns": {
							"rulesetId": "The ID of the successfully created ruleset."
						}
					}
				},
				"version": 1
			},
			"userdoc": {
				"kind": "user",
				"methods": {
					"DIRECTORY()": {
						"notice": "The directory of terminals and controllers for projects."
					},
					"HOOK_DEPLOYER()": {
						"notice": "The 721 tiers hook deployer."
					},
					"PERMISSIONS()": {
						"notice": "A contract storing permissions."
					},
					"launchProjectFor(address,(string,string,address,string,address,string,((uint104,uint32,uint32,uint16,address,bytes32,uint24,bool,bool,bool,bool,bool)[],uint32,uint8,address),address,(bool,bool,bool,bool)),(string,(uint256,uint256,uint256,uint256,address,(uint256,uint256,uint256,bool,bool,bool,bool,bool,bool,bool,bool,bool,bool,uint256),(uint256,(bool,uint256,uint256,address,uint256,address)[])[],(address,address,(uint256,uint256)[],(uint256,uint256)[])[])[],(address,address[])[],string),address)": {
						"notice": "Launches a new project with a 721 tiers hook attached."
					},
					"launchRulesetsFor(uint256,(string,string,address,string,address,string,((uint104,uint32,uint32,uint16,address,bytes32,uint24,bool,bool,bool,bool,bool)[],uint32,uint8,address),address,(bool,bool,bool,bool)),(uint256,(uint256,uint256,uint256,uint256,address,(uint256,uint256,uint256,bool,bool,bool,bool,bool,bool,bool,bool,bool,bool,uint256),(uint256,(bool,uint256,uint256,address,uint256,address)[])[],(address,address,(uint256,uint256)[],(uint256,uint256)[])[])[],(address,address[])[],string),address)": {
						"notice": "Launches rulesets for a project with an attached 721 tiers hook."
					},
					"queueRulesetsOf(uint256,(string,string,address,string,address,string,((uint104,uint32,uint32,uint16,address,bytes32,uint24,bool,bool,bool,bool,bool)[],uint32,uint8,address),address,(bool,bool,bool,bool)),(uint256,(uint256,uint256,uint256,uint256,address,(uint256,uint256,uint256,bool,bool,bool,bool,bool,bool,bool,bool,bool,bool,uint256),(uint256,(bool,uint256,uint256,address,uint256,address)[])[],(address,address,(uint256,uint256)[],(uint256,uint256)[])[])[],string),address)": {
						"notice": "Queues rulesets for a project with an attached 721 tiers hook."
					}
				},
				"version": 1
			},
			"gitCommit": "ff49b92d58f7750fa99683f1f53451eea89ea09e",
			"sourceName": "src/JB721TiersHookProjectDeployer.sol",
			"chainId": "421614",
			"linkReferences": {},
			"deployedLinkReferences": {}
		}
	]
}