{
	"_format": "sphinx-sol-ct-artifact-1",
	"merkleRoot": "0x4e729de0820df73ab4e21fd6be94272162dd7081f65565002decdd5bdf706b8e",
	"contractName": "JB721TiersHook",
	"address": "0x5978E282a25349A1ad1C7156d29CadD236921246",
	"abi": [
		{
			"type": "constructor",
			"inputs": [
				{
					"name": "directory",
					"type": "address",
					"internalType": "contract IJBDirectory"
				},
				{
					"name": "permissions",
					"type": "address",
					"internalType": "contract IJBPermissions"
				},
				{
					"name": "trustedForwarder",
					"type": "address",
					"internalType": "address"
				}
			],
			"stateMutability": "nonpayable"
		},
		{
			"type": "function",
			"name": "DIRECTORY",
			"inputs": [],
			"outputs": [
				{
					"name": "",
					"type": "address",
					"internalType": "contract IJBDirectory"
				}
			],
			"stateMutability": "view"
		},
		{
			"type": "function",
			"name": "METADATA_ID_TARGET",
			"inputs": [],
			"outputs": [
				{
					"name": "",
					"type": "address",
					"internalType": "address"
				}
			],
			"stateMutability": "view"
		},
		{
			"type": "function",
			"name": "PERMISSIONS",
			"inputs": [],
			"outputs": [
				{
					"name": "",
					"type": "address",
					"internalType": "contract IJBPermissions"
				}
			],
			"stateMutability": "view"
		},
		{
			"type": "function",
			"name": "PROJECTS",
			"inputs": [],
			"outputs": [
				{
					"name": "",
					"type": "address",
					"internalType": "contract IJBProjects"
				}
			],
			"stateMutability": "view"
		},
		{
			"type": "function",
			"name": "PROJECT_ID",
			"inputs": [],
			"outputs": [
				{
					"name": "",
					"type": "uint256",
					"internalType": "uint256"
				}
			],
			"stateMutability": "view"
		},
		{
			"type": "function",
			"name": "RULESETS",
			"inputs": [],
			"outputs": [
				{
					"name": "",
					"type": "address",
					"internalType": "contract IJBRulesets"
				}
			],
			"stateMutability": "view"
		},
		{
			"type": "function",
			"name": "STORE",
			"inputs": [],
			"outputs": [
				{
					"name": "",
					"type": "address",
					"internalType": "contract IJB721TiersHookStore"
				}
			],
			"stateMutability": "view"
		},
		{
			"type": "function",
			"name": "adjustTiers",
			"inputs": [
				{
					"name": "tiersToAdd",
					"type": "tuple[]",
					"internalType": "struct JB721TierConfig[]",
					"components": [
						{
							"name": "price",
							"type": "uint104",
							"internalType": "uint104"
						},
						{
							"name": "initialSupply",
							"type": "uint32",
							"internalType": "uint32"
						},
						{
							"name": "votingUnits",
							"type": "uint32",
							"internalType": "uint32"
						},
						{
							"name": "reserveFrequency",
							"type": "uint16",
							"internalType": "uint16"
						},
						{
							"name": "reserveBeneficiary",
							"type": "address",
							"internalType": "address"
						},
						{
							"name": "encodedIPFSUri",
							"type": "bytes32",
							"internalType": "bytes32"
						},
						{
							"name": "category",
							"type": "uint24",
							"internalType": "uint24"
						},
						{
							"name": "allowOwnerMint",
							"type": "bool",
							"internalType": "bool"
						},
						{
							"name": "useReserveBeneficiaryAsDefault",
							"type": "bool",
							"internalType": "bool"
						},
						{
							"name": "transfersPausable",
							"type": "bool",
							"internalType": "bool"
						},
						{
							"name": "useVotingUnits",
							"type": "bool",
							"internalType": "bool"
						},
						{
							"name": "cannotBeRemoved",
							"type": "bool",
							"internalType": "bool"
						}
					]
				},
				{
					"name": "tierIdsToRemove",
					"type": "uint256[]",
					"internalType": "uint256[]"
				}
			],
			"outputs": [],
			"stateMutability": "nonpayable"
		},
		{
			"type": "function",
			"name": "afterPayRecordedWith",
			"inputs": [
				{
					"name": "context",
					"type": "tuple",
					"internalType": "struct JBAfterPayRecordedContext",
					"components": [
						{
							"name": "payer",
							"type": "address",
							"internalType": "address"
						},
						{
							"name": "projectId",
							"type": "uint256",
							"internalType": "uint256"
						},
						{
							"name": "rulesetId",
							"type": "uint256",
							"internalType": "uint256"
						},
						{
							"name": "amount",
							"type": "tuple",
							"internalType": "struct JBTokenAmount",
							"components": [
								{
									"name": "token",
									"type": "address",
									"internalType": "address"
								},
								{
									"name": "value",
									"type": "uint256",
									"internalType": "uint256"
								},
								{
									"name": "decimals",
									"type": "uint256",
									"internalType": "uint256"
								},
								{
									"name": "currency",
									"type": "uint256",
									"internalType": "uint256"
								}
							]
						},
						{
							"name": "forwardedAmount",
							"type": "tuple",
							"internalType": "struct JBTokenAmount",
							"components": [
								{
									"name": "token",
									"type": "address",
									"internalType": "address"
								},
								{
									"name": "value",
									"type": "uint256",
									"internalType": "uint256"
								},
								{
									"name": "decimals",
									"type": "uint256",
									"internalType": "uint256"
								},
								{
									"name": "currency",
									"type": "uint256",
									"internalType": "uint256"
								}
							]
						},
						{
							"name": "weight",
							"type": "uint256",
							"internalType": "uint256"
						},
						{
							"name": "projectTokenCount",
							"type": "uint256",
							"internalType": "uint256"
						},
						{
							"name": "beneficiary",
							"type": "address",
							"internalType": "address"
						},
						{
							"name": "hookMetadata",
							"type": "bytes",
							"internalType": "bytes"
						},
						{
							"name": "payerMetadata",
							"type": "bytes",
							"internalType": "bytes"
						}
					]
				}
			],
			"outputs": [],
			"stateMutability": "payable"
		},
		{
			"type": "function",
			"name": "afterRedeemRecordedWith",
			"inputs": [
				{
					"name": "context",
					"type": "tuple",
					"internalType": "struct JBAfterRedeemRecordedContext",
					"components": [
						{
							"name": "holder",
							"type": "address",
							"internalType": "address"
						},
						{
							"name": "projectId",
							"type": "uint256",
							"internalType": "uint256"
						},
						{
							"name": "rulesetId",
							"type": "uint256",
							"internalType": "uint256"
						},
						{
							"name": "redeemCount",
							"type": "uint256",
							"internalType": "uint256"
						},
						{
							"name": "reclaimedAmount",
							"type": "tuple",
							"internalType": "struct JBTokenAmount",
							"components": [
								{
									"name": "token",
									"type": "address",
									"internalType": "address"
								},
								{
									"name": "value",
									"type": "uint256",
									"internalType": "uint256"
								},
								{
									"name": "decimals",
									"type": "uint256",
									"internalType": "uint256"
								},
								{
									"name": "currency",
									"type": "uint256",
									"internalType": "uint256"
								}
							]
						},
						{
							"name": "forwardedAmount",
							"type": "tuple",
							"internalType": "struct JBTokenAmount",
							"components": [
								{
									"name": "token",
									"type": "address",
									"internalType": "address"
								},
								{
									"name": "value",
									"type": "uint256",
									"internalType": "uint256"
								},
								{
									"name": "decimals",
									"type": "uint256",
									"internalType": "uint256"
								},
								{
									"name": "currency",
									"type": "uint256",
									"internalType": "uint256"
								}
							]
						},
						{
							"name": "redemptionRate",
							"type": "uint256",
							"internalType": "uint256"
						},
						{
							"name": "beneficiary",
							"type": "address",
							"internalType": "address payable"
						},
						{
							"name": "hookMetadata",
							"type": "bytes",
							"internalType": "bytes"
						},
						{
							"name": "redeemerMetadata",
							"type": "bytes",
							"internalType": "bytes"
						}
					]
				}
			],
			"outputs": [],
			"stateMutability": "payable"
		},
		{
			"type": "function",
			"name": "approve",
			"inputs": [
				{
					"name": "to",
					"type": "address",
					"internalType": "address"
				},
				{
					"name": "tokenId",
					"type": "uint256",
					"internalType": "uint256"
				}
			],
			"outputs": [],
			"stateMutability": "nonpayable"
		},
		{
			"type": "function",
			"name": "balanceOf",
			"inputs": [
				{
					"name": "owner",
					"type": "address",
					"internalType": "address"
				}
			],
			"outputs": [
				{
					"name": "balance",
					"type": "uint256",
					"internalType": "uint256"
				}
			],
			"stateMutability": "view"
		},
		{
			"type": "function",
			"name": "baseURI",
			"inputs": [],
			"outputs": [
				{
					"name": "",
					"type": "string",
					"internalType": "string"
				}
			],
			"stateMutability": "view"
		},
		{
			"type": "function",
			"name": "beforePayRecordedWith",
			"inputs": [
				{
					"name": "context",
					"type": "tuple",
					"internalType": "struct JBBeforePayRecordedContext",
					"components": [
						{
							"name": "terminal",
							"type": "address",
							"internalType": "address"
						},
						{
							"name": "payer",
							"type": "address",
							"internalType": "address"
						},
						{
							"name": "amount",
							"type": "tuple",
							"internalType": "struct JBTokenAmount",
							"components": [
								{
									"name": "token",
									"type": "address",
									"internalType": "address"
								},
								{
									"name": "value",
									"type": "uint256",
									"internalType": "uint256"
								},
								{
									"name": "decimals",
									"type": "uint256",
									"internalType": "uint256"
								},
								{
									"name": "currency",
									"type": "uint256",
									"internalType": "uint256"
								}
							]
						},
						{
							"name": "projectId",
							"type": "uint256",
							"internalType": "uint256"
						},
						{
							"name": "rulesetId",
							"type": "uint256",
							"internalType": "uint256"
						},
						{
							"name": "beneficiary",
							"type": "address",
							"internalType": "address"
						},
						{
							"name": "weight",
							"type": "uint256",
							"internalType": "uint256"
						},
						{
							"name": "reservedRate",
							"type": "uint256",
							"internalType": "uint256"
						},
						{
							"name": "metadata",
							"type": "bytes",
							"internalType": "bytes"
						}
					]
				}
			],
			"outputs": [
				{
					"name": "weight",
					"type": "uint256",
					"internalType": "uint256"
				},
				{
					"name": "hookSpecifications",
					"type": "tuple[]",
					"internalType": "struct JBPayHookSpecification[]",
					"components": [
						{
							"name": "hook",
							"type": "address",
							"internalType": "contract IJBPayHook"
						},
						{
							"name": "amount",
							"type": "uint256",
							"internalType": "uint256"
						},
						{
							"name": "metadata",
							"type": "bytes",
							"internalType": "bytes"
						}
					]
				}
			],
			"stateMutability": "view"
		},
		{
			"type": "function",
			"name": "beforeRedeemRecordedWith",
			"inputs": [
				{
					"name": "context",
					"type": "tuple",
					"internalType": "struct JBBeforeRedeemRecordedContext",
					"components": [
						{
							"name": "terminal",
							"type": "address",
							"internalType": "address"
						},
						{
							"name": "holder",
							"type": "address",
							"internalType": "address"
						},
						{
							"name": "projectId",
							"type": "uint256",
							"internalType": "uint256"
						},
						{
							"name": "rulesetId",
							"type": "uint256",
							"internalType": "uint256"
						},
						{
							"name": "redeemCount",
							"type": "uint256",
							"internalType": "uint256"
						},
						{
							"name": "totalSupply",
							"type": "uint256",
							"internalType": "uint256"
						},
						{
							"name": "surplus",
							"type": "tuple",
							"internalType": "struct JBTokenAmount",
							"components": [
								{
									"name": "token",
									"type": "address",
									"internalType": "address"
								},
								{
									"name": "value",
									"type": "uint256",
									"internalType": "uint256"
								},
								{
									"name": "decimals",
									"type": "uint256",
									"internalType": "uint256"
								},
								{
									"name": "currency",
									"type": "uint256",
									"internalType": "uint256"
								}
							]
						},
						{
							"name": "useTotalSurplus",
							"type": "bool",
							"internalType": "bool"
						},
						{
							"name": "redemptionRate",
							"type": "uint256",
							"internalType": "uint256"
						},
						{
							"name": "metadata",
							"type": "bytes",
							"internalType": "bytes"
						}
					]
				}
			],
			"outputs": [
				{
					"name": "redemptionRate",
					"type": "uint256",
					"internalType": "uint256"
				},
				{
					"name": "redeemCount",
					"type": "uint256",
					"internalType": "uint256"
				},
				{
					"name": "totalSupply",
					"type": "uint256",
					"internalType": "uint256"
				},
				{
					"name": "hookSpecifications",
					"type": "tuple[]",
					"internalType": "struct JBRedeemHookSpecification[]",
					"components": [
						{
							"name": "hook",
							"type": "address",
							"internalType": "contract IJBRedeemHook"
						},
						{
							"name": "amount",
							"type": "uint256",
							"internalType": "uint256"
						},
						{
							"name": "metadata",
							"type": "bytes",
							"internalType": "bytes"
						}
					]
				}
			],
			"stateMutability": "view"
		},
		{
			"type": "function",
			"name": "contractURI",
			"inputs": [],
			"outputs": [
				{
					"name": "",
					"type": "string",
					"internalType": "string"
				}
			],
			"stateMutability": "view"
		},
		{
			"type": "function",
			"name": "firstOwnerOf",
			"inputs": [
				{
					"name": "tokenId",
					"type": "uint256",
					"internalType": "uint256"
				}
			],
			"outputs": [
				{
					"name": "",
					"type": "address",
					"internalType": "address"
				}
			],
			"stateMutability": "view"
		},
		{
			"type": "function",
			"name": "getApproved",
			"inputs": [
				{
					"name": "tokenId",
					"type": "uint256",
					"internalType": "uint256"
				}
			],
			"outputs": [
				{
					"name": "",
					"type": "address",
					"internalType": "address"
				}
			],
			"stateMutability": "view"
		},
		{
			"type": "function",
			"name": "hasMintPermissionFor",
			"inputs": [
				{
					"name": "",
					"type": "uint256",
					"internalType": "uint256"
				},
				{
					"name": "",
					"type": "address",
					"internalType": "address"
				}
			],
			"outputs": [
				{
					"name": "",
					"type": "bool",
					"internalType": "bool"
				}
			],
			"stateMutability": "pure"
		},
		{
			"type": "function",
			"name": "initialize",
			"inputs": [
				{
					"name": "projectId",
					"type": "uint256",
					"internalType": "uint256"
				},
				{
					"name": "name",
					"type": "string",
					"internalType": "string"
				},
				{
					"name": "symbol",
					"type": "string",
					"internalType": "string"
				},
				{
					"name": "rulesets",
					"type": "address",
					"internalType": "contract IJBRulesets"
				},
				{
					"name": "baseUri",
					"type": "string",
					"internalType": "string"
				},
				{
					"name": "tokenUriResolver",
					"type": "address",
					"internalType": "contract IJB721TokenUriResolver"
				},
				{
					"name": "contractUri",
					"type": "string",
					"internalType": "string"
				},
				{
					"name": "tiersConfig",
					"type": "tuple",
					"internalType": "struct JB721InitTiersConfig",
					"components": [
						{
							"name": "tiers",
							"type": "tuple[]",
							"internalType": "struct JB721TierConfig[]",
							"components": [
								{
									"name": "price",
									"type": "uint104",
									"internalType": "uint104"
								},
								{
									"name": "initialSupply",
									"type": "uint32",
									"internalType": "uint32"
								},
								{
									"name": "votingUnits",
									"type": "uint32",
									"internalType": "uint32"
								},
								{
									"name": "reserveFrequency",
									"type": "uint16",
									"internalType": "uint16"
								},
								{
									"name": "reserveBeneficiary",
									"type": "address",
									"internalType": "address"
								},
								{
									"name": "encodedIPFSUri",
									"type": "bytes32",
									"internalType": "bytes32"
								},
								{
									"name": "category",
									"type": "uint24",
									"internalType": "uint24"
								},
								{
									"name": "allowOwnerMint",
									"type": "bool",
									"internalType": "bool"
								},
								{
									"name": "useReserveBeneficiaryAsDefault",
									"type": "bool",
									"internalType": "bool"
								},
								{
									"name": "transfersPausable",
									"type": "bool",
									"internalType": "bool"
								},
								{
									"name": "useVotingUnits",
									"type": "bool",
									"internalType": "bool"
								},
								{
									"name": "cannotBeRemoved",
									"type": "bool",
									"internalType": "bool"
								}
							]
						},
						{
							"name": "currency",
							"type": "uint32",
							"internalType": "uint32"
						},
						{
							"name": "decimals",
							"type": "uint8",
							"internalType": "uint8"
						},
						{
							"name": "prices",
							"type": "address",
							"internalType": "contract IJBPrices"
						}
					]
				},
				{
					"name": "store",
					"type": "address",
					"internalType": "contract IJB721TiersHookStore"
				},
				{
					"name": "flags",
					"type": "tuple",
					"internalType": "struct JB721TiersHookFlags",
					"components": [
						{
							"name": "noNewTiersWithReserves",
							"type": "bool",
							"internalType": "bool"
						},
						{
							"name": "noNewTiersWithVotes",
							"type": "bool",
							"internalType": "bool"
						},
						{
							"name": "noNewTiersWithOwnerMinting",
							"type": "bool",
							"internalType": "bool"
						},
						{
							"name": "preventOverspending",
							"type": "bool",
							"internalType": "bool"
						}
					]
				}
			],
			"outputs": [],
			"stateMutability": "nonpayable"
		},
		{
			"type": "function",
			"name": "isApprovedForAll",
			"inputs": [
				{
					"name": "owner",
					"type": "address",
					"internalType": "address"
				},
				{
					"name": "operator",
					"type": "address",
					"internalType": "address"
				}
			],
			"outputs": [
				{
					"name": "",
					"type": "bool",
					"internalType": "bool"
				}
			],
			"stateMutability": "view"
		},
		{
			"type": "function",
			"name": "isTrustedForwarder",
			"inputs": [
				{
					"name": "forwarder",
					"type": "address",
					"internalType": "address"
				}
			],
			"outputs": [
				{
					"name": "",
					"type": "bool",
					"internalType": "bool"
				}
			],
			"stateMutability": "view"
		},
		{
			"type": "function",
			"name": "jbOwner",
			"inputs": [],
			"outputs": [
				{
					"name": "owner",
					"type": "address",
					"internalType": "address"
				},
				{
					"name": "projectId",
					"type": "uint88",
					"internalType": "uint88"
				},
				{
					"name": "permissionId",
					"type": "uint8",
					"internalType": "uint8"
				}
			],
			"stateMutability": "view"
		},
		{
			"type": "function",
			"name": "mintFor",
			"inputs": [
				{
					"name": "tierIds",
					"type": "uint16[]",
					"internalType": "uint16[]"
				},
				{
					"name": "beneficiary",
					"type": "address",
					"internalType": "address"
				}
			],
			"outputs": [
				{
					"name": "tokenIds",
					"type": "uint256[]",
					"internalType": "uint256[]"
				}
			],
			"stateMutability": "nonpayable"
		},
		{
			"type": "function",
			"name": "mintPendingReservesFor",
			"inputs": [
				{
					"name": "reserveMintConfigs",
					"type": "tuple[]",
					"internalType": "struct JB721TiersMintReservesConfig[]",
					"components": [
						{
							"name": "tierId",
							"type": "uint256",
							"internalType": "uint256"
						},
						{
							"name": "count",
							"type": "uint256",
							"internalType": "uint256"
						}
					]
				}
			],
			"outputs": [],
			"stateMutability": "nonpayable"
		},
		{
			"type": "function",
			"name": "mintPendingReservesFor",
			"inputs": [
				{
					"name": "tierId",
					"type": "uint256",
					"internalType": "uint256"
				},
				{
					"name": "count",
					"type": "uint256",
					"internalType": "uint256"
				}
			],
			"outputs": [],
			"stateMutability": "nonpayable"
		},
		{
			"type": "function",
			"name": "name",
			"inputs": [],
			"outputs": [
				{
					"name": "",
					"type": "string",
					"internalType": "string"
				}
			],
			"stateMutability": "view"
		},
		{
			"type": "function",
			"name": "owner",
			"inputs": [],
			"outputs": [
				{
					"name": "",
					"type": "address",
					"internalType": "address"
				}
			],
			"stateMutability": "view"
		},
		{
			"type": "function",
			"name": "ownerOf",
			"inputs": [
				{
					"name": "tokenId",
					"type": "uint256",
					"internalType": "uint256"
				}
			],
			"outputs": [
				{
					"name": "",
					"type": "address",
					"internalType": "address"
				}
			],
			"stateMutability": "view"
		},
		{
			"type": "function",
			"name": "payCreditsOf",
			"inputs": [
				{
					"name": "addr",
					"type": "address",
					"internalType": "address"
				}
			],
			"outputs": [
				{
					"name": "",
					"type": "uint256",
					"internalType": "uint256"
				}
			],
			"stateMutability": "view"
		},
		{
			"type": "function",
			"name": "pricingContext",
			"inputs": [],
			"outputs": [
				{
					"name": "currency",
					"type": "uint256",
					"internalType": "uint256"
				},
				{
					"name": "decimals",
					"type": "uint256",
					"internalType": "uint256"
				},
				{
					"name": "prices",
					"type": "address",
					"internalType": "contract IJBPrices"
				}
			],
			"stateMutability": "view"
		},
		{
			"type": "function",
			"name": "redemptionWeightOf",
			"inputs": [
				{
					"name": "tokenIds",
					"type": "uint256[]",
					"internalType": "uint256[]"
				},
				{
					"name": "",
					"type": "tuple",
					"internalType": "struct JBBeforeRedeemRecordedContext",
					"components": [
						{
							"name": "terminal",
							"type": "address",
							"internalType": "address"
						},
						{
							"name": "holder",
							"type": "address",
							"internalType": "address"
						},
						{
							"name": "projectId",
							"type": "uint256",
							"internalType": "uint256"
						},
						{
							"name": "rulesetId",
							"type": "uint256",
							"internalType": "uint256"
						},
						{
							"name": "redeemCount",
							"type": "uint256",
							"internalType": "uint256"
						},
						{
							"name": "totalSupply",
							"type": "uint256",
							"internalType": "uint256"
						},
						{
							"name": "surplus",
							"type": "tuple",
							"internalType": "struct JBTokenAmount",
							"components": [
								{
									"name": "token",
									"type": "address",
									"internalType": "address"
								},
								{
									"name": "value",
									"type": "uint256",
									"internalType": "uint256"
								},
								{
									"name": "decimals",
									"type": "uint256",
									"internalType": "uint256"
								},
								{
									"name": "currency",
									"type": "uint256",
									"internalType": "uint256"
								}
							]
						},
						{
							"name": "useTotalSurplus",
							"type": "bool",
							"internalType": "bool"
						},
						{
							"name": "redemptionRate",
							"type": "uint256",
							"internalType": "uint256"
						},
						{
							"name": "metadata",
							"type": "bytes",
							"internalType": "bytes"
						}
					]
				}
			],
			"outputs": [
				{
					"name": "",
					"type": "uint256",
					"internalType": "uint256"
				}
			],
			"stateMutability": "view"
		},
		{
			"type": "function",
			"name": "renounceOwnership",
			"inputs": [],
			"outputs": [],
			"stateMutability": "nonpayable"
		},
		{
			"type": "function",
			"name": "safeTransferFrom",
			"inputs": [
				{
					"name": "from",
					"type": "address",
					"internalType": "address"
				},
				{
					"name": "to",
					"type": "address",
					"internalType": "address"
				},
				{
					"name": "tokenId",
					"type": "uint256",
					"internalType": "uint256"
				}
			],
			"outputs": [],
			"stateMutability": "nonpayable"
		},
		{
			"type": "function",
			"name": "safeTransferFrom",
			"inputs": [
				{
					"name": "from",
					"type": "address",
					"internalType": "address"
				},
				{
					"name": "to",
					"type": "address",
					"internalType": "address"
				},
				{
					"name": "tokenId",
					"type": "uint256",
					"internalType": "uint256"
				},
				{
					"name": "data",
					"type": "bytes",
					"internalType": "bytes"
				}
			],
			"outputs": [],
			"stateMutability": "nonpayable"
		},
		{
			"type": "function",
			"name": "setApprovalForAll",
			"inputs": [
				{
					"name": "operator",
					"type": "address",
					"internalType": "address"
				},
				{
					"name": "approved",
					"type": "bool",
					"internalType": "bool"
				}
			],
			"outputs": [],
			"stateMutability": "nonpayable"
		},
		{
			"type": "function",
			"name": "setMetadata",
			"inputs": [
				{
					"name": "baseUri",
					"type": "string",
					"internalType": "string"
				},
				{
					"name": "contractUri",
					"type": "string",
					"internalType": "string"
				},
				{
					"name": "tokenUriResolver",
					"type": "address",
					"internalType": "contract IJB721TokenUriResolver"
				},
				{
					"name": "encodedIPFSTUriTierId",
					"type": "uint256",
					"internalType": "uint256"
				},
				{
					"name": "encodedIPFSUri",
					"type": "bytes32",
					"internalType": "bytes32"
				}
			],
			"outputs": [],
			"stateMutability": "nonpayable"
		},
		{
			"type": "function",
			"name": "setPermissionId",
			"inputs": [
				{
					"name": "permissionId",
					"type": "uint8",
					"internalType": "uint8"
				}
			],
			"outputs": [],
			"stateMutability": "nonpayable"
		},
		{
			"type": "function",
			"name": "supportsInterface",
			"inputs": [
				{
					"name": "interfaceId",
					"type": "bytes4",
					"internalType": "bytes4"
				}
			],
			"outputs": [
				{
					"name": "",
					"type": "bool",
					"internalType": "bool"
				}
			],
			"stateMutability": "view"
		},
		{
			"type": "function",
			"name": "symbol",
			"inputs": [],
			"outputs": [
				{
					"name": "",
					"type": "string",
					"internalType": "string"
				}
			],
			"stateMutability": "view"
		},
		{
			"type": "function",
			"name": "tokenURI",
			"inputs": [
				{
					"name": "tokenId",
					"type": "uint256",
					"internalType": "uint256"
				}
			],
			"outputs": [
				{
					"name": "",
					"type": "string",
					"internalType": "string"
				}
			],
			"stateMutability": "view"
		},
		{
			"type": "function",
			"name": "totalRedemptionWeight",
			"inputs": [
				{
					"name": "",
					"type": "tuple",
					"internalType": "struct JBBeforeRedeemRecordedContext",
					"components": [
						{
							"name": "terminal",
							"type": "address",
							"internalType": "address"
						},
						{
							"name": "holder",
							"type": "address",
							"internalType": "address"
						},
						{
							"name": "projectId",
							"type": "uint256",
							"internalType": "uint256"
						},
						{
							"name": "rulesetId",
							"type": "uint256",
							"internalType": "uint256"
						},
						{
							"name": "redeemCount",
							"type": "uint256",
							"internalType": "uint256"
						},
						{
							"name": "totalSupply",
							"type": "uint256",
							"internalType": "uint256"
						},
						{
							"name": "surplus",
							"type": "tuple",
							"internalType": "struct JBTokenAmount",
							"components": [
								{
									"name": "token",
									"type": "address",
									"internalType": "address"
								},
								{
									"name": "value",
									"type": "uint256",
									"internalType": "uint256"
								},
								{
									"name": "decimals",
									"type": "uint256",
									"internalType": "uint256"
								},
								{
									"name": "currency",
									"type": "uint256",
									"internalType": "uint256"
								}
							]
						},
						{
							"name": "useTotalSurplus",
							"type": "bool",
							"internalType": "bool"
						},
						{
							"name": "redemptionRate",
							"type": "uint256",
							"internalType": "uint256"
						},
						{
							"name": "metadata",
							"type": "bytes",
							"internalType": "bytes"
						}
					]
				}
			],
			"outputs": [
				{
					"name": "",
					"type": "uint256",
					"internalType": "uint256"
				}
			],
			"stateMutability": "view"
		},
		{
			"type": "function",
			"name": "transferFrom",
			"inputs": [
				{
					"name": "from",
					"type": "address",
					"internalType": "address"
				},
				{
					"name": "to",
					"type": "address",
					"internalType": "address"
				},
				{
					"name": "tokenId",
					"type": "uint256",
					"internalType": "uint256"
				}
			],
			"outputs": [],
			"stateMutability": "nonpayable"
		},
		{
			"type": "function",
			"name": "transferOwnership",
			"inputs": [
				{
					"name": "newOwner",
					"type": "address",
					"internalType": "address"
				}
			],
			"outputs": [],
			"stateMutability": "nonpayable"
		},
		{
			"type": "function",
			"name": "transferOwnershipToProject",
			"inputs": [
				{
					"name": "projectId",
					"type": "uint256",
					"internalType": "uint256"
				}
			],
			"outputs": [],
			"stateMutability": "nonpayable"
		},
		{
			"type": "function",
			"name": "trustedForwarder",
			"inputs": [],
			"outputs": [
				{
					"name": "",
					"type": "address",
					"internalType": "address"
				}
			],
			"stateMutability": "view"
		},
		{
			"type": "event",
			"name": "AddPayCredits",
			"inputs": [
				{
					"name": "amount",
					"type": "uint256",
					"indexed": true,
					"internalType": "uint256"
				},
				{
					"name": "newTotalCredits",
					"type": "uint256",
					"indexed": true,
					"internalType": "uint256"
				},
				{
					"name": "account",
					"type": "address",
					"indexed": true,
					"internalType": "address"
				},
				{
					"name": "caller",
					"type": "address",
					"indexed": false,
					"internalType": "address"
				}
			],
			"anonymous": false
		},
		{
			"type": "event",
			"name": "AddTier",
			"inputs": [
				{
					"name": "tierId",
					"type": "uint256",
					"indexed": true,
					"internalType": "uint256"
				},
				{
					"name": "tier",
					"type": "tuple",
					"indexed": false,
					"internalType": "struct JB721TierConfig",
					"components": [
						{
							"name": "price",
							"type": "uint104",
							"internalType": "uint104"
						},
						{
							"name": "initialSupply",
							"type": "uint32",
							"internalType": "uint32"
						},
						{
							"name": "votingUnits",
							"type": "uint32",
							"internalType": "uint32"
						},
						{
							"name": "reserveFrequency",
							"type": "uint16",
							"internalType": "uint16"
						},
						{
							"name": "reserveBeneficiary",
							"type": "address",
							"internalType": "address"
						},
						{
							"name": "encodedIPFSUri",
							"type": "bytes32",
							"internalType": "bytes32"
						},
						{
							"name": "category",
							"type": "uint24",
							"internalType": "uint24"
						},
						{
							"name": "allowOwnerMint",
							"type": "bool",
							"internalType": "bool"
						},
						{
							"name": "useReserveBeneficiaryAsDefault",
							"type": "bool",
							"internalType": "bool"
						},
						{
							"name": "transfersPausable",
							"type": "bool",
							"internalType": "bool"
						},
						{
							"name": "useVotingUnits",
							"type": "bool",
							"internalType": "bool"
						},
						{
							"name": "cannotBeRemoved",
							"type": "bool",
							"internalType": "bool"
						}
					]
				},
				{
					"name": "caller",
					"type": "address",
					"indexed": false,
					"internalType": "address"
				}
			],
			"anonymous": false
		},
		{
			"type": "event",
			"name": "Approval",
			"inputs": [
				{
					"name": "owner",
					"type": "address",
					"indexed": true,
					"internalType": "address"
				},
				{
					"name": "approved",
					"type": "address",
					"indexed": true,
					"internalType": "address"
				},
				{
					"name": "tokenId",
					"type": "uint256",
					"indexed": true,
					"internalType": "uint256"
				}
			],
			"anonymous": false
		},
		{
			"type": "event",
			"name": "ApprovalForAll",
			"inputs": [
				{
					"name": "owner",
					"type": "address",
					"indexed": true,
					"internalType": "address"
				},
				{
					"name": "operator",
					"type": "address",
					"indexed": true,
					"internalType": "address"
				},
				{
					"name": "approved",
					"type": "bool",
					"indexed": false,
					"internalType": "bool"
				}
			],
			"anonymous": false
		},
		{
			"type": "event",
			"name": "Mint",
			"inputs": [
				{
					"name": "tokenId",
					"type": "uint256",
					"indexed": true,
					"internalType": "uint256"
				},
				{
					"name": "tierId",
					"type": "uint256",
					"indexed": true,
					"internalType": "uint256"
				},
				{
					"name": "beneficiary",
					"type": "address",
					"indexed": true,
					"internalType": "address"
				},
				{
					"name": "totalAmountPaid",
					"type": "uint256",
					"indexed": false,
					"internalType": "uint256"
				},
				{
					"name": "caller",
					"type": "address",
					"indexed": false,
					"internalType": "address"
				}
			],
			"anonymous": false
		},
		{
			"type": "event",
			"name": "MintReservedNft",
			"inputs": [
				{
					"name": "tokenId",
					"type": "uint256",
					"indexed": true,
					"internalType": "uint256"
				},
				{
					"name": "tierId",
					"type": "uint256",
					"indexed": true,
					"internalType": "uint256"
				},
				{
					"name": "beneficiary",
					"type": "address",
					"indexed": true,
					"internalType": "address"
				},
				{
					"name": "caller",
					"type": "address",
					"indexed": false,
					"internalType": "address"
				}
			],
			"anonymous": false
		},
		{
			"type": "event",
			"name": "OwnershipTransferred",
			"inputs": [
				{
					"name": "previousOwner",
					"type": "address",
					"indexed": true,
					"internalType": "address"
				},
				{
					"name": "newOwner",
					"type": "address",
					"indexed": true,
					"internalType": "address"
				}
			],
			"anonymous": false
		},
		{
			"type": "event",
			"name": "PermissionIdChanged",
			"inputs": [
				{
					"name": "newIndex",
					"type": "uint8",
					"indexed": false,
					"internalType": "uint8"
				}
			],
			"anonymous": false
		},
		{
			"type": "event",
			"name": "RemoveTier",
			"inputs": [
				{
					"name": "tierId",
					"type": "uint256",
					"indexed": true,
					"internalType": "uint256"
				},
				{
					"name": "caller",
					"type": "address",
					"indexed": false,
					"internalType": "address"
				}
			],
			"anonymous": false
		},
		{
			"type": "event",
			"name": "SetBaseUri",
			"inputs": [
				{
					"name": "baseUri",
					"type": "string",
					"indexed": true,
					"internalType": "string"
				},
				{
					"name": "caller",
					"type": "address",
					"indexed": false,
					"internalType": "address"
				}
			],
			"anonymous": false
		},
		{
			"type": "event",
			"name": "SetContractUri",
			"inputs": [
				{
					"name": "contractUri",
					"type": "string",
					"indexed": true,
					"internalType": "string"
				},
				{
					"name": "caller",
					"type": "address",
					"indexed": false,
					"internalType": "address"
				}
			],
			"anonymous": false
		},
		{
			"type": "event",
			"name": "SetEncodedIPFSUri",
			"inputs": [
				{
					"name": "tierId",
					"type": "uint256",
					"indexed": true,
					"internalType": "uint256"
				},
				{
					"name": "encodedIPFSUri",
					"type": "bytes32",
					"indexed": false,
					"internalType": "bytes32"
				},
				{
					"name": "caller",
					"type": "address",
					"indexed": false,
					"internalType": "address"
				}
			],
			"anonymous": false
		},
		{
			"type": "event",
			"name": "SetTokenUriResolver",
			"inputs": [
				{
					"name": "newResolver",
					"type": "address",
					"indexed": true,
					"internalType": "contract IJB721TokenUriResolver"
				},
				{
					"name": "caller",
					"type": "address",
					"indexed": false,
					"internalType": "address"
				}
			],
			"anonymous": false
		},
		{
			"type": "event",
			"name": "Transfer",
			"inputs": [
				{
					"name": "from",
					"type": "address",
					"indexed": true,
					"internalType": "address"
				},
				{
					"name": "to",
					"type": "address",
					"indexed": true,
					"internalType": "address"
				},
				{
					"name": "tokenId",
					"type": "uint256",
					"indexed": true,
					"internalType": "uint256"
				}
			],
			"anonymous": false
		},
		{
			"type": "event",
			"name": "UsePayCredits",
			"inputs": [
				{
					"name": "amount",
					"type": "uint256",
					"indexed": true,
					"internalType": "uint256"
				},
				{
					"name": "newTotalCredits",
					"type": "uint256",
					"indexed": true,
					"internalType": "uint256"
				},
				{
					"name": "account",
					"type": "address",
					"indexed": true,
					"internalType": "address"
				},
				{
					"name": "caller",
					"type": "address",
					"indexed": false,
					"internalType": "address"
				}
			],
			"anonymous": false
		},
		{
			"type": "error",
			"name": "ERC721IncorrectOwner",
			"inputs": [
				{
					"name": "sender",
					"type": "address",
					"internalType": "address"
				},
				{
					"name": "tokenId",
					"type": "uint256",
					"internalType": "uint256"
				},
				{
					"name": "owner",
					"type": "address",
					"internalType": "address"
				}
			]
		},
		{
			"type": "error",
			"name": "ERC721InsufficientApproval",
			"inputs": [
				{
					"name": "operator",
					"type": "address",
					"internalType": "address"
				},
				{
					"name": "tokenId",
					"type": "uint256",
					"internalType": "uint256"
				}
			]
		},
		{
			"type": "error",
			"name": "ERC721InvalidApprover",
			"inputs": [
				{
					"name": "approver",
					"type": "address",
					"internalType": "address"
				}
			]
		},
		{
			"type": "error",
			"name": "ERC721InvalidOperator",
			"inputs": [
				{
					"name": "operator",
					"type": "address",
					"internalType": "address"
				}
			]
		},
		{
			"type": "error",
			"name": "ERC721InvalidOwner",
			"inputs": [
				{
					"name": "owner",
					"type": "address",
					"internalType": "address"
				}
			]
		},
		{
			"type": "error",
			"name": "ERC721InvalidReceiver",
			"inputs": [
				{
					"name": "receiver",
					"type": "address",
					"internalType": "address"
				}
			]
		},
		{
			"type": "error",
			"name": "ERC721InvalidSender",
			"inputs": [
				{
					"name": "sender",
					"type": "address",
					"internalType": "address"
				}
			]
		},
		{
			"type": "error",
			"name": "ERC721NonexistentToken",
			"inputs": [
				{
					"name": "tokenId",
					"type": "uint256",
					"internalType": "uint256"
				}
			]
		},
		{
			"type": "error",
			"name": "INVALID_NEW_OWNER",
			"inputs": []
		},
		{
			"type": "error",
			"name": "INVALID_PAY",
			"inputs": []
		},
		{
			"type": "error",
			"name": "INVALID_REDEEM",
			"inputs": []
		},
		{
			"type": "error",
			"name": "MINT_RESERVE_NFTS_PAUSED",
			"inputs": []
		},
		{
			"type": "error",
			"name": "OVERSPENDING",
			"inputs": []
		},
		{
			"type": "error",
			"name": "PRBMath_MulDiv_Overflow",
			"inputs": [
				{
					"name": "x",
					"type": "uint256",
					"internalType": "uint256"
				},
				{
					"name": "y",
					"type": "uint256",
					"internalType": "uint256"
				},
				{
					"name": "denominator",
					"type": "uint256",
					"internalType": "uint256"
				}
			]
		},
		{
			"type": "error",
			"name": "TIER_TRANSFERS_PAUSED",
			"inputs": []
		},
		{
			"type": "error",
			"name": "UNAUTHORIZED",
			"inputs": []
		},
		{
			"type": "error",
			"name": "UNAUTHORIZED_TOKEN",
			"inputs": [
				{
					"name": "tokenId",
					"type": "uint256",
					"internalType": "uint256"
				}
			]
		},
		{
			"type": "error",
			"name": "UNEXPECTED_TOKEN_REDEEMED",
			"inputs": []
		}
	],
	"solcInputHash": "3b832b35596f091503c2f3699465baed",
	"args": [
		"0xCD8c4da77dfb15C05486D3F71Ee4C2C0dfdbc94e",
		"0x1e2E8562b635fe19978640C784e47865A83d6605",
		"0xB2b5841DBeF766d4b521221732F9B618fCf34A87"
	],
	"bytecode": "0x6101206040523480156200001257600080fd5b50604051620062873803806200628783398101604081905262000035916200038b565b8281846001600160a01b031663293c49996040518163ffffffff1660e01b8152600401602060405180830381865afa15801562000076573d6000803e3d6000fd5b505050506040513d601f19601f820116820180604052508101906200009c9190620003df565b6001600160a01b03858116608052811660a052843360008383838381620000d65760405163ecb9b1c760e01b815260040160405180910390fd5b620000e282826200010a565b505050506001600160a01b0394851660c052505050501660e052505030610100525062000406565b6001600160581b038116158015906200012b57506001600160a01b03821615155b156200014a5760405163ecb9b1c760e01b815260040160405180910390fd5b60408051606081018252600080546001600160a01b0381168352600160a01b81046001600160581b031660208401819052600160f81b90910460ff1693830193909352909115620002195760a05160208301516040516331a9108f60e11b81526001600160581b0390911660048201526001600160a01b0390911690636352211e90602401602060405180830381865afa158015620001ed573d6000803e3d6000fd5b505050506040513d601f19601f82011682018060405250810190620002139190620003df565b6200021c565b81515b604080516060810182526001600160a01b0387168082526001600160581b0387166020830181905260009290930182905281547fff000000000000000000000000000000000000000000000000000000000000001617600160a01b909202919091176001600160f81b031690559050620002988185856200029e565b50505050565b6001600160581b038116156200032c5760a0516040516331a9108f60e11b81526001600160581b03831660048201526001600160a01b0390911690636352211e90602401602060405180830381865afa15801562000300573d6000803e3d6000fd5b505050506040513d601f19601f82011682018060405250810190620003269190620003df565b6200032e565b815b6001600160a01b0316836001600160a01b03167f8be0079c531659141344cd1fd0a4f28419497f9722a3daafe3b4186f6b6457e060405160405180910390a3505050565b6001600160a01b03811681146200038857600080fd5b50565b600080600060608486031215620003a157600080fd5b8351620003ae8162000372565b6020850151909350620003c18162000372565b6040850151909250620003d48162000372565b809150509250925092565b600060208284031215620003f257600080fd5b8151620003ff8162000372565b9392505050565b60805160a05160c05160e05161010051615de1620004a66000396000818161096e01528181611356015281816119b901526133960152600081816106e00152818161127501526120bb01526000818161055e015281816106aa01526137df01526000818161046d0152818161186c01528181612cae01528181612e000152613b060152600081816109d501528181612566015261260f0152615de16000f3fe6080604052600436106102fd5760003560e01c8063715018a61161018f578063c07f2f9b116100e1578063e985e9c51161008a578063f3c5788111610064578063f3c57881146109b0578063f434c914146109c3578063fef50848146109f757600080fd5b8063e985e9c514610913578063edab09b91461095c578063f2fde38b1461099057600080fd5b8063d4a1b4b1116100bb578063d4a1b4b1146108b1578063d95c9ae2146108d1578063e8a3d485146108fe57600080fd5b8063c07f2f9b14610851578063c0fb5e8514610871578063c87b56dd1461089157600080fd5b8063a220d69611610143578063ade032ff1161011d578063ade032ff1461079c578063b88d4fde146107bc578063ba23c36e146107dc57600080fd5b8063a220d6961461072c578063a22cb4651461074c578063aaf320d71461076c57600080fd5b806388bc2ef31161017457806388bc2ef3146106ce5780638da5cb5b1461070257806395d89b411461071757600080fd5b8063715018a6146106865780637da0a8771461069b57600080fd5b8063507f14651161025357806366ec4cb4116101fc5780636ac6d941116101d65780636ac6d941146106245780636c0360eb1461065157806370a082311461066657600080fd5b806366ec4cb4146105ce578063677ce088146105e157806368f9c6bc1461060457600080fd5b8063572b6c051161022d578063572b6c0514610541578063613b856d1461058e5780636352211e146105ae57600080fd5b8063507f1465146104dd57806354c6d1f5146104fd57806356539f391461051d57600080fd5b80631435aad5116102b5578063293c49991161028f578063293c49991461045b57806342842e0e1461048f5780634c4ffc71146104af57600080fd5b80631435aad5146103fb5780631c52730b1461041b57806323b872dd1461043b57600080fd5b8063081812fc116102e6578063081812fc1461035957806308786b1a14610391578063095ea7b3146103d957600080fd5b806301ffc9a71461030257806306fdde0314610337575b600080fd5b34801561030e57600080fd5b5061032261031d3660046142de565b610a17565b60405190151581526020015b60405180910390f35b34801561034357600080fd5b5061034c610a5b565b60405161032e919061434b565b34801561036557600080fd5b5061037961037436600461435e565b610aed565b6040516001600160a01b03909116815260200161032e565b34801561039d57600080fd5b5060095463ffffffff811690602081901c60ff169060281c6040805193845260208401929092526001600160a01b03169082015260600161032e565b3480156103e557600080fd5b506103f96103f436600461439c565b610b16565b005b34801561040757600080fd5b506103f961041636600461440a565b610b2c565b34801561042757600080fd5b506103f96104363660046144a0565b610dc7565b34801561044757600080fd5b506103f9610456366004614515565b610e20565b34801561046757600080fd5b506103797f000000000000000000000000000000000000000000000000000000000000000081565b34801561049b57600080fd5b506103f96104aa366004614515565b610eca565b3480156104bb57600080fd5b506104cf6104ca366004614556565b610eea565b60405161032e929190614592565b3480156104e957600080fd5b50600a54610379906001600160a01b031681565b34801561050957600080fd5b5061037961051836600461435e565b610f91565b34801561052957600080fd5b5061053360075481565b60405190815260200161032e565b34801561054d57600080fd5b5061032261055c366004614623565b7f00000000000000000000000000000000000000000000000000000000000000006001600160a01b0390811691161490565b34801561059a57600080fd5b506103f96105a9366004614640565b610fd5565b3480156105ba57600080fd5b506103796105c936600461435e565b611242565b6103f96105dc36600461467b565b61124d565b3480156105ed57600080fd5b506103226105fc3660046146b0565b600092915050565b34801561061057600080fd5b5061053361061f3660046147f3565b6114d1565b34801561063057600080fd5b5061064461063f3660046148f6565b61155e565b60405161032e9190614989565b34801561065d57600080fd5b5061034c6116be565b34801561067257600080fd5b50610533610681366004614623565b61174c565b34801561069257600080fd5b506103f96117db565b3480156106a757600080fd5b507f0000000000000000000000000000000000000000000000000000000000000000610379565b3480156106da57600080fd5b506103797f000000000000000000000000000000000000000000000000000000000000000081565b34801561070e57600080fd5b506103796117f0565b34801561072357600080fd5b5061034c6118e5565b34801561073857600080fd5b506103f961074736600461435e565b6118f4565b34801561075857600080fd5b506103f96107673660046149b5565b61193f565b34801561077857600080fd5b5061078c6107873660046149e3565b611951565b60405161032e9493929190614a18565b3480156107a857600080fd5b506105336107b73660046149e3565b611af0565b3480156107c857600080fd5b506103f96107d7366004614b19565b611b3a565b3480156107e857600080fd5b5060005461081d906001600160a01b03811690600160a01b81046affffffffffffffffffffff1690600160f81b900460ff1683565b604080516001600160a01b0390941684526affffffffffffffffffffff909216602084015260ff169082015260600161032e565b34801561085d57600080fd5b506103f961086c366004614e2d565b611b51565b34801561087d57600080fd5b506103f961088c366004614f4e565b611def565b34801561089d57600080fd5b5061034c6108ac36600461435e565b611e00565b3480156108bd57600080fd5b50600b54610379906001600160a01b031681565b3480156108dd57600080fd5b506105336108ec366004614623565b600c6020526000908152604090205481565b34801561090a57600080fd5b5061034c61204c565b34801561091f57600080fd5b5061032261092e366004614f69565b6001600160a01b03918216600090815260066020908152604080832093909416825291909152205460ff1690565b34801561096857600080fd5b506103797f000000000000000000000000000000000000000000000000000000000000000081565b34801561099c57600080fd5b506103f96109ab366004614623565b612059565b6103f96109be36600461467b565b612093565b3480156109cf57600080fd5b506103797f000000000000000000000000000000000000000000000000000000000000000081565b348015610a0357600080fd5b506103f9610a12366004614f97565b61217f565b60006001600160e01b031982167fb88c9696000000000000000000000000000000000000000000000000000000001480610a555750610a55826123a5565b92915050565b606060018054610a6a90615032565b80601f0160208091040260200160405190810160405280929190818152602001828054610a9690615032565b8015610ae35780601f10610ab857610100808354040283529160200191610ae3565b820191906000526020600020905b815481529060010190602001808311610ac657829003601f168201915b5050505050905090565b6000610af8826124b3565b506000828152600560205260409020546001600160a01b0316610a55565b610b288282610b236124ec565b6124fb565b5050565b610b41610b376117f0565b6007546016612508565b8515610bb257600d610b548789836150b6565b508686604051610b65929190615176565b60405180910390207f7bc9110d5de090dd59e07912d2b93a5a27ac70a60c8d8e324db4f9ee8b8b5c13610b966124ec565b6040516001600160a01b03909116815260200160405180910390a25b8315610c2357600e610bc58587836150b6565b508484604051610bd6929190615176565b60405180910390207fd36dc0c1a06103fdcaf15f3f6fb797d1a97997514c78de073640c8b5005454b8610c076124ec565b6040516001600160a01b03909116815260200160405180910390a25b600a546001600160a01b039081169084163014610ce45760405163036129cb60e61b81526001600160a01b03858116600483015282169063d84a72c090602401600060405180830381600087803b158015610c7d57600080fd5b505af1158015610c91573d6000803e3d6000fd5b50505050836001600160a01b03167fe7784d93cfbfa4408e19577e6cc0436f4dbb51214b70e100905dfce9def88c16610cc86124ec565b6040516001600160a01b03909116815260200160405180910390a25b8215801590610cf257508115155b15610dbd576040517f49bd1ac600000000000000000000000000000000000000000000000000000000815260048101849052602481018390526001600160a01b038216906349bd1ac690604401600060405180830381600087803b158015610d5957600080fd5b505af1158015610d6d573d6000803e3d6000fd5b50505050827f677da4fed654db8e604791fa2582f342e2001aa217e27f6985eb3e0f67e5a7fc83610d9c6124ec565b604080519283526001600160a01b0390911660208301520160405180910390a25b5050505050505050565b8060005b81811015610e1a576000848483818110610de757610de7615186565b905060400201803603810190610dfd919061519c565b9050610e1181600001518260200151610fd5565b50600101610dcb565b50505050565b6001600160a01b038216610e4f57604051633250574960e11b8152600060048201526024015b60405180910390fd5b6000610e638383610e5e6124ec565b6126b3565b9050836001600160a01b0316816001600160a01b031614610e1a576040517f64283d7b0000000000000000000000000000000000000000000000000000000081526001600160a01b0380861660048301526024820184905282166044820152606401610e46565b610ee583838360405180602001604052806000815250611b3a565b505050565b6040805160018082528183019092526101208301359160609190816020015b60408051606080820183526000808352602083015291810191909152815260200190600190039081610f095790505090506040518060600160405280306001600160a01b03168152602001600081526020016040518060200160405280600081525081525081600081518110610f8157610f81615186565b6020026020010181905250915091565b6000818152600860205260408120546001600160a01b03168015610fb55792915050565b6000838152600360205260409020546001600160a01b03165b9392505050565b600b546007546040516321d1336160e11b815260048101919091526000916001600160a01b0316906343a266c29060240161012060405180830381865afa158015611024573d6000803e3d6000fd5b505050506040513d601f19601f8201168201806040525081019061104891906151f6565b61010081015190915060f01c600190811603611090576040517f63a0ba3900000000000000000000000000000000000000000000000000000000815260040160405180910390fd5b600a546040517fbaa7e80e00000000000000000000000000000000000000000000000000000000815260048101859052602481018490526001600160a01b0390911690600090829063baa7e80e906044016000604051808303816000875af1158015611100573d6000803e3d6000fd5b505050506040513d6000823e601f3d908101601f1916820160405261112891908101906152e0565b6040517f03573004000000000000000000000000000000000000000000000000000000008152306004820152602481018790529091506000906001600160a01b03841690630357300490604401602060405180830381865afa158015611192573d6000803e3d6000fd5b505050506040513d601f19601f820116820180604052508101906111b69190615315565b90506000805b86811015610dbd578381815181106111d6576111d6615186565b602002602001015191506111ea8383612929565b826001600160a01b031688837f80dd2efbbc431cde0164d84d638e44ba6e7a3ca5d532ceef1bb4efcc0948325d61121f6124ec565b6040516001600160a01b03909116815260200160405180910390a46001016111bc565b6000610a55826124b3565b600754341515806112ea5750604051636e49181f60e01b8152600481018290523360248201527f00000000000000000000000000000000000000000000000000000000000000006001600160a01b031690636e49181f90604401602060405180830381865afa1580156112c4573d6000803e3d6000fd5b505050506040513d601f19601f820116820180604052508101906112e8919061533d565b155b806112f9575080826020013514155b15611330576040517f835e522b00000000000000000000000000000000000000000000000000000000815260040160405180910390fd5b60408051808201909152600681526572656465656d60d01b6020909101526000806113e27f000000000000000000000000000000000000000000000000000000000000000060601b7f26ef0a97332ad048ac544d8dfacdd43e128b9816d599fdd0310960904fa18609186113a86101e087018761535a565b8080601f0160208091040260200160405190810160405280939291908181526020018383808284376000920191909152506129a792505050565b9150915060608215611405578180602001905181019061140291906152e0565b90505b80516000805b828110156114be5783818151811061142557611425615186565b602002602001015191508760000160208101906114429190614623565b6001600160a01b031661146a836000908152600360205260409020546001600160a01b031690565b6001600160a01b0316146114ad576040517f5caf197500000000000000000000000000000000000000000000000000000000815260048101839052602401610e46565b6114b682612b7d565b60010161140b565b506114c883612bb8565b50505050505050565b600a546040517f144cc2d40000000000000000000000000000000000000000000000000000000081526000916001600160a01b03169063144cc2d49061151d90309087906004016153a1565b602060405180830381865afa15801561153a573d6000803e3d6000fd5b505050506040513d601f19601f82011682018060405250810190610fce91906153c3565b606061157561156b6117f0565b6007546017612508565b600a5460405163eaa19ab360e01b81526001600160a01b039091169063eaa19ab3906115ae9060001990889088906001906004016153dc565b6000604051808303816000875af11580156115cd573d6000803e3d6000fd5b505050506040513d6000823e601f3d908101601f191682016040526115f5919081019061543b565b509050826000805b828110156116b45783818151811061161757611617615186565b6020026020010151915061162b8583612929565b846001600160a01b031687878381811061164757611647615186565b905060200201602081019061165c9190615482565b61ffff16837f598baf7bf150ca2f42be9e9f8f55e81d45f5715c3ff22bf46d697fabec7f31d6600061168c6124ec565b604080519283526001600160a01b0390911660208301520160405180910390a46001016115fd565b5050509392505050565b600d80546116cb90615032565b80601f01602080910402602001604051908101604052809291908181526020018280546116f790615032565b80156117445780601f1061171957610100808354040283529160200191611744565b820191906000526020600020905b81548152906001019060200180831161172757829003601f168201915b505050505081565b600a546040517ff7888aec0000000000000000000000000000000000000000000000000000000081523060048201526001600160a01b038381166024830152600092169063f7888aec906044015b602060405180830381865afa1580156117b7573d6000803e3d6000fd5b505050506040513d601f19601f82011682018060405250810190610a5591906153c3565b6117e3612c36565b6117ee600080612d48565b565b60408051606081018252600080546001600160a01b0381168352600160a01b81046affffffffffffffffffffff1660208401819052600160f81b90910460ff16938301939093529182036118445751919050565b60208101516040516331a9108f60e11b81526affffffffffffffffffffff90911660048201527f00000000000000000000000000000000000000000000000000000000000000006001600160a01b031690636352211e90602401602060405180830381865afa1580156118bb573d6000803e3d6000fd5b505050506040513d601f19601f820116820180604052508101906118df9190615315565b91505090565b606060028054610a6a90615032565b6118fc612c36565b80158061191357506affffffffffffffffffffff81115b156119315760405163ecb9b1c760e01b815260040160405180910390fd5b61193c600082612d48565b50565b610b2861194a6124ec565b8383612ef9565b600080806060608085013515611993576040517f4fc178d800000000000000000000000000000000000000000000000000000000815260040160405180910390fd5b60408051808201909152600681526572656465656d60d01b602090910152600080611a0b7f000000000000000000000000000000000000000000000000000000000000000060601b7f26ef0a97332ad048ac544d8dfacdd43e128b9816d599fdd0310960904fa18609186113a86101808a018a61535a565b604080516001808252818301909252929450909250816020015b60408051606080820183526000808352602083015291810191909152815260200190600190039081611a255790505092506040518060600160405280306001600160a01b03168152602001600081526020016040518060200160405280600081525081525083600081518110611a9d57611a9d615186565b602002602001018190525060608215611ac75781806020019051810190611ac491906152e0565b90505b611ad181896114d1565b9550611adc88611af0565b945087610160013596505050509193509193565b600a546040517f2ae5e4920000000000000000000000000000000000000000000000000000000081523060048201526000916001600160a01b031690632ae5e4929060240161179a565b611b45848484610e20565b610e1a84848484612fb1565b600a546001600160a01b031615611b6757600080fd5b611b728a8a8a6130f3565b600b80546001600160a01b03808a1673ffffffffffffffffffffffffffffffffffffffff1992831617909255600a8054928516929091169190911790556020808401516040850151606086015178ffffffffffffffffffffffffffffffffffffffff000000000060289190911b1664ff000000009190931b1663ffffffff90911617176009819055865115611c0f57600d611c0d888261549f565b505b845115611c2457600e611c22868261549f565b505b6001600160a01b03861615611c8f5760405163036129cb60e61b81526001600160a01b03878116600483015284169063d84a72c090602401600060405180830381600087803b158015611c7657600080fd5b505af1158015611c8a573d6000803e3d6000fd5b505050505b83515115611d0d5783516040516349249dc160e01b81526001600160a01b038516916349249dc191611cc4919060040161555f565b6000604051808303816000875af1158015611ce3573d6000803e3d6000fd5b505050506040513d6000823e601f3d908101601f19168201604052611d0b91908101906152e0565b505b815180611d1b575081602001515b80611d27575081604001515b80611d33575081606001515b15611dd257604080517fcb827e3200000000000000000000000000000000000000000000000000000000815283511515600482015260208401511515602482015290830151151560448201526060830151151560648201526001600160a01b0384169063cb827e3290608401600060405180830381600087803b158015611db957600080fd5b505af1158015611dcd573d6000803e3d6000fd5b505050505b611de2611ddd6124ec565b612088565b5050505050505050505050565b611df7612c36565b61193c81613104565b600a546040517f0fab09470000000000000000000000000000000000000000000000000000000081523060048201526060916001600160a01b0316906000908290630fab094790602401602060405180830381865afa158015611e67573d6000803e3d6000fd5b505050506040513d601f19601f82011682018060405250810190611e8b9190615315565b90506001600160a01b03811615611f30576040517f5e703e71000000000000000000000000000000000000000000000000000000008152306004820152602481018590526001600160a01b03821690635e703e7190604401600060405180830381865afa158015611f00573d6000803e3d6000fd5b505050506040513d6000823e601f3d908101601f19168201604052611f289190810190615691565b949350505050565b611f28600d8054611f4090615032565b80601f0160208091040260200160405190810160405280929190818152602001828054611f6c90615032565b8015611fb95780601f10611f8e57610100808354040283529160200191611fb9565b820191906000526020600020905b815481529060010190602001808311611f9c57829003601f168201915b50506040517fc8df1710000000000000000000000000000000000000000000000000000000008152306004820152602481018a90526001600160a01b038816935063c8df171092506044019050602060405180830381865afa158015612023573d6000803e3d6000fd5b505050506040513d601f19601f8201168201806040525081019061204791906153c3565b61315a565b600e80546116cb90615032565b612061612c36565b6001600160a01b0381166120885760405163ecb9b1c760e01b815260040160405180910390fd5b61193c816000612d48565b600754341515806121305750604051636e49181f60e01b8152600481018290523360248201527f00000000000000000000000000000000000000000000000000000000000000006001600160a01b031690636e49181f90604401602060405180830381865afa15801561210a573d6000803e3d6000fd5b505050506040513d601f19601f8201168201806040525081019061212e919061533d565b155b8061213f575080826020013514155b15612176576040517f8a3ea1c800000000000000000000000000000000000000000000000000000000815260040160405180910390fd5b610b28826131dd565b61219461218a6117f0565b6007546015612508565b600a54839082906001600160a01b03168115612295576040517f20512ba10000000000000000000000000000000000000000000000000000000081526001600160a01b038216906320512ba1906121f190889088906004016156c6565b600060405180830381600087803b15801561220b57600080fd5b505af115801561221f573d6000803e3d6000fd5b5050505060005b828110156122935785858281811061224057612240615186565b905060200201357f832d89d991be5351d793c20faf4b7dd44f8aa9ce39e3cb160c6317de6fbba7296122706124ec565b6040516001600160a01b03909116815260200160405180910390a2600101612226565b505b82156114c8576040516349249dc160e01b81526000906001600160a01b038316906349249dc1906122cc908b908b9060040161581e565b6000604051808303816000875af11580156122eb573d6000803e3d6000fd5b505050506040513d6000823e601f3d908101601f1916820160405261231391908101906152e0565b905060005b8481101561239a5781818151811061233257612332615186565b60200260200101517f6c05e4bd067859371de8c0a303cf84af0ba782c3809f8fba14e6af4388894cf08a8a8481811061236d5761236d615186565b9050610180020161237c6124ec565b60405161238a929190615861565b60405180910390a2600101612318565b505050505050505050565b60006001600160e01b031982167f3344b87300000000000000000000000000000000000000000000000000000000148061240857506001600160e01b031982167f81c03c2e00000000000000000000000000000000000000000000000000000000145b8061243c57506001600160e01b031982167ff3c5788100000000000000000000000000000000000000000000000000000000145b8061247057506001600160e01b031982167f66ec4cb400000000000000000000000000000000000000000000000000000000145b806124a457506001600160e01b031982167f2a55205a00000000000000000000000000000000000000000000000000000000145b80610a555750610a5582613734565b6000818152600360205260408120546001600160a01b031680610a5557604051637e27328960e01b815260048101849052602401610e46565b60006124f66137cf565b905090565b610ee58383836001613844565b60006125126124ec565b9050836001600160a01b0316816001600160a01b0316141580156125d3575060405163c161c93f60e01b81526001600160a01b038281166004830152858116602483015260448201859052606482018490527f0000000000000000000000000000000000000000000000000000000000000000169063c161c93f90608401602060405180830381865afa1580156125ad573d6000803e3d6000fd5b505050506040513d601f19601f820116820180604052508101906125d1919061533d565b155b801561267c575060405163c161c93f60e01b81526001600160a01b038281166004830152858116602483015260006044830152606482018490527f0000000000000000000000000000000000000000000000000000000000000000169063c161c93f90608401602060405180830381865afa158015612656573d6000803e3d6000fd5b505050506040513d601f19601f8201168201806040525081019061267a919061533d565b155b15610e1a576040517f075fd2b100000000000000000000000000000000000000000000000000000000815260040160405180910390fd5b600a546040517fc44a8e6d00000000000000000000000000000000000000000000000000000000815230600482015260248101849052600060448201819052916001600160a01b0316908290829063c44a8e6d90606401600060405180830381865afa158015612727573d6000803e3d6000fd5b505050506040513d6000823e601f3d908101601f1916820160405261274f9190810190615887565b905061275c86868661398f565b92506001600160a01b0383161561289a578061014001511561284957600b546007546040516321d1336160e11b815260048101919091526000916001600160a01b0316906343a266c29060240161012060405180830381865afa1580156127c7573d6000803e3d6000fd5b505050506040513d601f19601f820116820180604052508101906127eb91906151f6565b90506001600160a01b03871615801590612810575061010081015160ef1c6001908116145b15612847576040517ffa45ac2900000000000000000000000000000000000000000000000000000000815260040160405180910390fd5b505b6000858152600860205260409020546001600160a01b031661289a576000858152600860205260409020805473ffffffffffffffffffffffffffffffffffffffff19166001600160a01b0385161790555b80516040517fc2c55f9400000000000000000000000000000000000000000000000000000000815260048101919091526001600160a01b038481166024830152878116604483015283169063c2c55f9490606401600060405180830381600087803b15801561290857600080fd5b505af115801561291c573d6000803e3d6000fd5b5050505050509392505050565b6001600160a01b03821661295357604051633250574960e11b815260006004820152602401610e46565b6000612961838360006126b3565b90506001600160a01b03811615610ee5576040517f73c6ac6e00000000000000000000000000000000000000000000000000000000815260006004820152602401610e46565b6000606060258351116129cc5750506040805160208101909152600080825290612b76565b6000836129db600460206159a8565b815181106129eb576129eb615186565b0160209081015160f81c91505b600085612a066004846159a8565b81518110612a1657612a16615186565b01602001517fff000000000000000000000000000000000000000000000000000000000000001614801590612a545750612a516020836159bb565b81105b15612b7357600085612a676004846159a8565b81518110612a7757612a77615186565b016020908101518784019091015160f89190911c91506001600160e01b031980891690821603612b69576000612aae6020866159bb565b612ab96009866159a8565b101580612b06575087612acd6009866159a8565b81518110612add57612add615186565b01602001517fff0000000000000000000000000000000000000000000000000000000000000016155b612b3f57602088612b186009876159a8565b81518110612b2857612b28615186565b0160200151612b3a919060f81c6159bb565b612b42565b87515b90506001612b5b89612b556020876159bb565b84613a95565b965096505050505050612b76565b50506005016129f8565b50505b9250929050565b6000612b8c60008360006126b3565b90506001600160a01b038116610b2857604051637e27328960e01b815260048101839052602401610e46565b600a546040517f86bc2be30000000000000000000000000000000000000000000000000000000081526001600160a01b03909116906386bc2be390612c01908490600401614989565b600060405180830381600087803b158015612c1b57600080fd5b505af1158015612c2f573d6000803e3d6000fd5b5050505050565b604080516060810182526000546001600160a01b0381168252600160a01b81046affffffffffffffffffffff1660208301819052600160f81b90910460ff16928201929092529061193c9015612d265760208201516040516331a9108f60e11b81526affffffffffffffffffffff90911660048201527f00000000000000000000000000000000000000000000000000000000000000006001600160a01b031690636352211e90602401602060405180830381865afa158015612cfd573d6000803e3d6000fd5b505050506040513d601f19601f82011682018060405250810190612d219190615315565b612d29565b81515b82602001516affffffffffffffffffffff16836040015160ff16612508565b6affffffffffffffffffffff811615801590612d6c57506001600160a01b03821615155b15612d8a5760405163ecb9b1c760e01b815260040160405180910390fd5b60408051606081018252600080546001600160a01b0381168352600160a01b81046affffffffffffffffffffff1660208401819052600160f81b90910460ff1693830193909352909115612e785760208201516040516331a9108f60e11b81526affffffffffffffffffffff90911660048201527f00000000000000000000000000000000000000000000000000000000000000006001600160a01b031690636352211e90602401602060405180830381865afa158015612e4f573d6000803e3d6000fd5b505050506040513d601f19601f82011682018060405250810190612e739190615315565b612e7b565b81515b604080516060810182526001600160a01b0387168082526affffffffffffffffffffff87166020830181905260009290930182905281547fff000000000000000000000000000000000000000000000000000000000000001617600160a01b909202919091176001600160f81b031690559050610e1a818585613ad1565b6001600160a01b038216612f44576040517f5b08ba180000000000000000000000000000000000000000000000000000000081526001600160a01b0383166004820152602401610e46565b6001600160a01b03838116600081815260066020908152604080832094871680845294825291829020805460ff191686151590811790915591519182527f17307eab39ab6107e8899845ad3d59bd9653f200f220920489ca2b5937696c31910160405180910390a3505050565b6001600160a01b0383163b15610e1a57826001600160a01b031663150b7a02612fd86124ec565b8685856040518563ffffffff1660e01b8152600401612ffa94939291906159d2565b6020604051808303816000875af1925050508015613035575060408051601f3d908101601f1916820190925261303291810190615a0e565b60015b61309e573d808015613063576040519150601f19603f3d011682016040523d82523d6000602084013e613068565b606091505b50805160000361309657604051633250574960e11b81526001600160a01b0385166004820152602401610e46565b805181602001fd5b6001600160e01b031981167f150b7a020000000000000000000000000000000000000000000000000000000014612c2f57604051633250574960e11b81526001600160a01b0385166004820152602401610e46565b6130fd8282613bc4565b5050600755565b600080546001600160f81b0316600160f81b60ff8416908102919091179091556040519081527f6f4725627084d54c46c628b050805457a1cd38c5cd20c1f00132960f8b546fed9060200160405180910390a150565b6040517f1220000000000000000000000000000000000000000000000000000000000000602082015260228101829052606090600090604201604051602081830303815290604052905060006131af82613bdd565b905084816040516020016131c4929190615a2b565b6040516020818303038152906040529250505092915050565b60095460009063ffffffff811660c084013581900361320257608084013592506132dc565b602882901c6001600160a01b03811615612c2f5760ff602084901c166132d7608087013561323183600a615b3e565b6007546040517f3be273fa000000000000000000000000000000000000000000000000000000008152600481019190915260c08a013560248201526044810187905260a08a013560648201526001600160a01b03861690633be273fa90608401602060405180830381865afa1580156132ae573d6000803e3d6000fd5b505050506040513d601f19601f820116820180604052508101906132d291906153c3565b613d75565b945050505b5060009050600c816132f66101c086016101a08701614623565b6001600160a01b031681526020810191909152604001600090812054915082906133286101c086016101a08701614623565b6001600160a01b031661333e6020870187614623565b6001600160a01b0316036133555790820190613358565b50815b60408051808201909152600381527f7061790000000000000000000000000000000000000000000000000000000000602090910152600080806133e87f000000000000000000000000000000000000000000000000000000000000000060601b7fadc756803e4eb4ccfb136b73d5f72e3dc0d452d30ae1f4bc82af394c73ce7115186113a86101e08b018b61535a565b9150915081156134bc576060818060200190518101906134089190615b4a565b90945090508380156134865750600a54604051634228826f60e11b81523060048201526001600160a01b039091169063845104de90602401608060405180830381865afa15801561345d573d6000803e3d6000fd5b505050506040513d601f19601f820116820180604052508101906134819190615bfb565b606001515b1561349057600093505b8051156134b6576134b386826134ae6101c08d016101a08e01614623565b613e62565b95505b50613535565b600a54604051634228826f60e11b81523060048201526001600160a01b039091169063845104de90602401608060405180830381865afa158015613504573d6000803e3d6000fd5b505050506040513d601f19601f820116820180604052508101906135289190615bfb565b6060015161353557600192505b84156136885782613572576040517f6d5e09a400000000000000000000000000000000000000000000000000000000815260040160405180910390fd5b848401868111156135e55761358f6101c08a016101a08b01614623565b6001600160a01b0316818883037f7e71a5f6c04b0eb16949316623b9dda7bd103692f7d89678e2260afa1378a2d56135c56124ec565b6040516001600160a01b03909116815260200160405180910390a4613651565b80871115613651576135ff6101c08a016101a08b01614623565b6001600160a01b0316818289037f6276f0169fb8de712b2a6c02789f6115136c589ed491ac06f9e20f41877e41fe6136356124ec565b6040516001600160a01b03909116815260200160405180910390a45b80600c60006136686101c08d016101a08e01614623565b6001600160a01b0316815260208101919091526040016000205550610dbd565b838614610dbd576136a16101c089016101a08a01614623565b6001600160a01b0316846136b58189615c62565b7f6276f0169fb8de712b2a6c02789f6115136c589ed491ac06f9e20f41877e41fe6136de6124ec565b6040516001600160a01b03909116815260200160405180910390a483600c60006137106101c08c016101a08d01614623565b6001600160a01b031681526020810191909152604001600020555050505050505050565b60006001600160e01b031982167f80ac58cd00000000000000000000000000000000000000000000000000000000148061379757506001600160e01b031982167f5b5e139f00000000000000000000000000000000000000000000000000000000145b80610a5557507f01ffc9a7000000000000000000000000000000000000000000000000000000006001600160e01b0319831614610a55565b6000366014336001600160a01b037f00000000000000000000000000000000000000000000000000000000000000001614801561380c5750808210155b1561383c5760003661381e8385615c62565b613829928290615c75565b61383291615c9f565b60601c9250505090565b339250505090565b808061385857506001600160a01b03821615155b15613952576000613868846124b3565b90506001600160a01b038316158015906138945750826001600160a01b0316816001600160a01b031614155b80156138c657506001600160a01b0380821660009081526006602090815260408083209387168352929052205460ff16155b15613908576040517fa9fbf51f0000000000000000000000000000000000000000000000000000000081526001600160a01b0384166004820152602401610e46565b81156139505783856001600160a01b0316826001600160a01b03167f8c5be1e5ebec7d5bd14f71427d1e84f3dd0314c0f7b2291e5b200ac8c7c3b92560405160405180910390a45b505b50506000908152600560205260409020805473ffffffffffffffffffffffffffffffffffffffff19166001600160a01b0392909216919091179055565b6000828152600360205260408120546001600160a01b03908116908316156139bc576139bc818486613fa3565b6001600160a01b038116156139fa576139d9600085600080613844565b6001600160a01b038116600090815260046020526040902080546000190190555b6001600160a01b03851615613a29576001600160a01b0385166000908152600460205260409020805460010190555b600084815260036020526040808220805473ffffffffffffffffffffffffffffffffffffffff19166001600160a01b0389811691821790925591518793918516917fddf252ad1be2c89b69c2b068fc378daa952ba7f163c4a11628f55a4df523b3ef91a4949350505050565b60608282036040519150602081830101604052808252508260208501016020820160005b848110156116b4578281015182820152602001613ab9565b6affffffffffffffffffffff811615613b7e576040516331a9108f60e11b81526affffffffffffffffffffff821660048201527f00000000000000000000000000000000000000000000000000000000000000006001600160a01b031690636352211e90602401602060405180830381865afa158015613b55573d6000803e3d6000fd5b505050506040513d601f19601f82011682018060405250810190613b799190615315565b613b80565b815b6001600160a01b0316836001600160a01b03167f8be0079c531659141344cd1fd0a4f28419497f9722a3daafe3b4186f6b6457e060405160405180910390a3505050565b6001613bd0838261549f565b506002610ee5828261549f565b60608151600003613bfc57505060408051600081526020810190915290565b60408051602e8082526105e08201909252600091602082016105c080368337019050509050600081600081518110613c3657613c36615186565b60ff90921660209283029190910190910152825160019060005b81811015613d51576000868281518110613c6c57613c6c615186565b016020015160f81c905060005b8460ff16811015613cf6576008868281518110613c9857613c98615186565b602002602001015160ff16901b82613cb091906159a8565b9150613cbd603a83615cea565b868281518110613ccf57613ccf615186565b60ff90921660209283029190910190910152613cec603a83615cfe565b9150600101613c79565b505b8015613d4857613d09603a82615cea565b858560ff1681518110613d1e57613d1e615186565b60ff90921660209283029190910190910152600190930192613d41603a82615cfe565b9050613cf8565b50600101613c50565b50613d6c613d67613d628585614020565b6140c8565b61416b565b95945050505050565b6000808060001985870985870292508281108382030391505080600003613daf57838281613da557613da5615cd4565b0492505050610fce565b838110613df9576040517f63a05778000000000000000000000000000000000000000000000000000000008152600481018790526024810186905260448101859052606401610e46565b60008486880960026001871981018816978890046003810283188082028403028082028403028082028403028082028403028082028403029081029092039091026000889003889004909101858311909403939093029303949094049190911702949350505050565b600a5460405163eaa19ab360e01b81526000916060916001600160a01b039091169063eaa19ab390613e9c90889088908790600401615d12565b6000604051808303816000875af1158015613ebb573d6000803e3d6000fd5b505050506040513d6000823e601f3d908101601f19168201604052613ee3919081019061543b565b81519093509091506000805b82811015613f9857838181518110613f0957613f09615186565b60200260200101519150613f1d8683612929565b856001600160a01b0316878281518110613f3957613f39615186565b602002602001015161ffff16837f598baf7bf150ca2f42be9e9f8f55e81d45f5715c3ff22bf46d697fabec7f31d68b613f706124ec565b604080519283526001600160a01b0390911660208301520160405180910390a4600101613eef565b505050509392505050565b613fae838383614245565b610ee5576001600160a01b038316613fdc57604051637e27328960e01b815260048101829052602401610e46565b6040517f177e802f0000000000000000000000000000000000000000000000000000000081526001600160a01b038316600482015260248101829052604401610e46565b606060008260ff1667ffffffffffffffff811115614040576140406146e0565b604051908082528060200260200182016040528015614069578160200160208202803683370190505b50905060005b8360ff168110156140c05784818151811061408c5761408c615186565b60200260200101518282815181106140a6576140a6615186565b60ff9092166020928302919091019091015260010161406f565b509392505050565b805160609060008167ffffffffffffffff8111156140e8576140e86146e0565b604051908082528060200260200182016040528015614111578160200160208202803683370190505b50905060005b828110156140c05784816001875103038151811061413757614137615186565b602002602001015182828151811061415157614151615186565b60ff90921660209283029190910190910152600101614117565b805160609060008167ffffffffffffffff81111561418b5761418b6146e0565b6040519080825280601f01601f1916602001820160405280156141b5576020820181803683370190505b50905060005b828110156140c0576040518060600160405280603a8152602001615d72603a91398582815181106141ee576141ee615186565b602002602001015160ff168151811061420957614209615186565b602001015160f81c60f81b82828151811061422657614226615186565b60200101906001600160f81b031916908160001a9053506001016141bb565b60006001600160a01b03831615801590611f285750826001600160a01b0316846001600160a01b0316148061429f57506001600160a01b0380851660009081526006602090815260408083209387168352929052205460ff165b80611f285750506000908152600560205260409020546001600160a01b03908116911614919050565b6001600160e01b03198116811461193c57600080fd5b6000602082840312156142f057600080fd5b8135610fce816142c8565b60005b838110156143165781810151838201526020016142fe565b50506000910152565b600081518084526143378160208601602086016142fb565b601f01601f19169290920160200192915050565b602081526000610fce602083018461431f565b60006020828403121561437057600080fd5b5035919050565b6001600160a01b038116811461193c57600080fd5b803561439781614377565b919050565b600080604083850312156143af57600080fd5b82356143ba81614377565b946020939093013593505050565b60008083601f8401126143da57600080fd5b50813567ffffffffffffffff8111156143f257600080fd5b602083019150836020828501011115612b7657600080fd5b600080600080600080600060a0888a03121561442557600080fd5b873567ffffffffffffffff8082111561443d57600080fd5b6144498b838c016143c8565b909950975060208a013591508082111561446257600080fd5b5061446f8a828b016143c8565b909650945050604088013561448381614377565b969995985093969295946060840135945060809093013592915050565b600080602083850312156144b357600080fd5b823567ffffffffffffffff808211156144cb57600080fd5b818501915085601f8301126144df57600080fd5b8135818111156144ee57600080fd5b8660208260061b850101111561450357600080fd5b60209290920196919550909350505050565b60008060006060848603121561452a57600080fd5b833561453581614377565b9250602084013561454581614377565b929592945050506040919091013590565b60006020828403121561456857600080fd5b813567ffffffffffffffff81111561457f57600080fd5b82016101808185031215610fce57600080fd5b6000604080830185845260206040818601528186518084526060935060608701915060608160051b88010183890160005b8381101561461357898303605f19018552815180516001600160a01b0316845286810151878501528801518884018890526146008885018261431f565b95870195935050908501906001016145c3565b50909a9950505050505050505050565b60006020828403121561463557600080fd5b8135610fce81614377565b6000806040838503121561465357600080fd5b50508035926020909101359150565b6000610200828403121561467557600080fd5b50919050565b60006020828403121561468d57600080fd5b813567ffffffffffffffff8111156146a457600080fd5b611f2884828501614662565b600080604083850312156146c357600080fd5b8235915060208301356146d581614377565b809150509250929050565b634e487b7160e01b600052604160045260246000fd5b6040516080810167ffffffffffffffff81118282101715614719576147196146e0565b60405290565b604051610180810167ffffffffffffffff81118282101715614719576147196146e0565b604051610120810167ffffffffffffffff81118282101715614719576147196146e0565b6040516101a0810167ffffffffffffffff81118282101715614719576147196146e0565b604051601f8201601f1916810167ffffffffffffffff811182821017156147b4576147b46146e0565b604052919050565b600067ffffffffffffffff8211156147d6576147d66146e0565b5060051b60200190565b60006101a0828403121561467557600080fd5b6000806040838503121561480657600080fd5b823567ffffffffffffffff8082111561481e57600080fd5b818501915085601f83011261483257600080fd5b81356020614847614842836147bc565b61478b565b82815260059290921b8401810191818101908984111561486657600080fd5b948201945b838610156148845785358252948201949082019061486b565b9650508601359250508082111561489a57600080fd5b506148a7858286016147e0565b9150509250929050565b60008083601f8401126148c357600080fd5b50813567ffffffffffffffff8111156148db57600080fd5b6020830191508360208260051b8501011115612b7657600080fd5b60008060006040848603121561490b57600080fd5b833567ffffffffffffffff81111561492257600080fd5b61492e868287016148b1565b909450925050602084013561494281614377565b809150509250925092565b60008151808452602080850194506020840160005b8381101561497e57815187529582019590820190600101614962565b509495945050505050565b602081526000610fce602083018461494d565b801515811461193c57600080fd5b80356143978161499c565b600080604083850312156149c857600080fd5b82356149d381614377565b915060208301356146d58161499c565b6000602082840312156149f557600080fd5b813567ffffffffffffffff811115614a0c57600080fd5b611f28848285016147e0565b60006080820186835260208681850152604086604086015260606080606087015283875180865260a08801915060a08160051b890101955084890160005b82811015614aa657898803609f19018452815180516001600160a01b0316895287810151888a0152860151868901869052614a93868a018261431f565b9850509286019290860190600101614a56565b50959c9b505050505050505050505050565b600067ffffffffffffffff821115614ad257614ad26146e0565b50601f01601f191660200190565b6000614aee61484284614ab8565b9050828152838383011115614b0257600080fd5b828260208301376000602084830101529392505050565b60008060008060808587031215614b2f57600080fd5b8435614b3a81614377565b93506020850135614b4a81614377565b925060408501359150606085013567ffffffffffffffff811115614b6d57600080fd5b8501601f81018713614b7e57600080fd5b614b8d87823560208401614ae0565b91505092959194509250565b600082601f830112614baa57600080fd5b610fce83833560208501614ae0565b80356cffffffffffffffffffffffffff8116811461439757600080fd5b803563ffffffff8116811461439757600080fd5b61ffff8116811461193c57600080fd5b803561439781614bea565b803562ffffff8116811461439757600080fd5b803560ff8116811461439757600080fd5b60006080808385031215614c3c57600080fd5b614c446146f6565b9150823567ffffffffffffffff811115614c5d57600080fd5b8301601f81018513614c6e57600080fd5b80356020614c7e614842836147bc565b8281526101809283028401820192828201919089851115614c9e57600080fd5b948301945b84861015614d915780868b031215614cbb5760008081fd5b614cc361471f565b614ccc87614bb9565b8152614cd9858801614bd6565b858201526040614cea818901614bd6565b908201526060614cfb888201614bfa565b90820152614d0a87890161438c565b8189015260a0878101359082015260c0614d25818901614c05565b9082015260e0614d368882016149aa565b90820152610100614d488882016149aa565b90820152610120614d5a8882016149aa565b90820152610140614d6c8882016149aa565b90820152610160614d7e8882016149aa565b9082015283529485019491830191614ca3565b50865250614da0868201614bd6565b8186015250505050614db460408301614c18565b6040820152614dc56060830161438c565b606082015292915050565b600060808284031215614de257600080fd5b614dea6146f6565b90508135614df78161499c565b81526020820135614e078161499c565b60208201526040820135614e1a8161499c565b60408201526060820135614dc58161499c565b6000806000806000806000806000806101a08b8d031215614e4d57600080fd5b8a35995060208b013567ffffffffffffffff80821115614e6c57600080fd5b614e788e838f01614b99565b9a5060408d0135915080821115614e8e57600080fd5b614e9a8e838f01614b99565b9950614ea860608e0161438c565b985060808d0135915080821115614ebe57600080fd5b614eca8e838f01614b99565b9750614ed860a08e0161438c565b965060c08d0135915080821115614eee57600080fd5b614efa8e838f01614b99565b955060e08d0135915080821115614f1057600080fd5b50614f1d8d828e01614c29565b935050614f2d6101008c0161438c565b9150614f3d8c6101208d01614dd0565b90509295989b9194979a5092959850565b600060208284031215614f6057600080fd5b610fce82614c18565b60008060408385031215614f7c57600080fd5b8235614f8781614377565b915060208301356146d581614377565b60008060008060408587031215614fad57600080fd5b843567ffffffffffffffff80821115614fc557600080fd5b818701915087601f830112614fd957600080fd5b813581811115614fe857600080fd5b88602061018083028501011115614ffe57600080fd5b60209283019650945090860135908082111561501957600080fd5b50615026878288016148b1565b95989497509550505050565b600181811c9082168061504657607f821691505b60208210810361467557634e487b7160e01b600052602260045260246000fd5b601f821115610ee5576000816000526020600020601f850160051c8101602086101561508f5750805b601f850160051c820191505b818110156150ae5782815560010161509b565b505050505050565b67ffffffffffffffff8311156150ce576150ce6146e0565b6150e2836150dc8354615032565b83615066565b6000601f84116001811461511657600085156150fe5750838201355b600019600387901b1c1916600186901b178355612c2f565b600083815260209020601f19861690835b828110156151475786850135825560209485019460019092019101615127565b50868210156151645760001960f88860031b161c19848701351681555b505060018560011b0183555050505050565b8183823760009101908152919050565b634e487b7160e01b600052603260045260246000fd5b6000604082840312156151ae57600080fd5b6040516040810181811067ffffffffffffffff821117156151d1576151d16146e0565b604052823581526020928301359281019290925250919050565b805161439781614377565b6000610120828403121561520957600080fd5b615211614743565b825181526020830151602082015260408301516040820152606083015160608201526080830151608082015260a083015160a082015260c083015160c082015261525d60e084016151eb565b60e0820152610100928301519281019290925250919050565b600082601f83011261528757600080fd5b81516020615297614842836147bc565b8083825260208201915060208460051b8701019350868411156152b957600080fd5b602086015b848110156152d557805183529183019183016152be565b509695505050505050565b6000602082840312156152f257600080fd5b815167ffffffffffffffff81111561530957600080fd5b611f2884828501615276565b60006020828403121561532757600080fd5b8151610fce81614377565b80516143978161499c565b60006020828403121561534f57600080fd5b8151610fce8161499c565b6000808335601e1984360301811261537157600080fd5b83018035915067ffffffffffffffff82111561538c57600080fd5b602001915036819003821315612b7657600080fd5b6001600160a01b0383168152604060208201526000611f28604083018461494d565b6000602082840312156153d557600080fd5b5051919050565b84815260606020808301829052908201849052600090859060808401835b8781101561542357833561540d81614bea565b61ffff16825292820192908201906001016153fa565b50809350505050821515604083015295945050505050565b6000806040838503121561544e57600080fd5b825167ffffffffffffffff81111561546557600080fd5b61547185828601615276565b925050602083015190509250929050565b60006020828403121561549457600080fd5b8135610fce81614bea565b815167ffffffffffffffff8111156154b9576154b96146e0565b6154cd816154c78454615032565b84615066565b602080601f83116001811461550257600084156154ea5750858301515b600019600386901b1c1916600185901b1785556150ae565b600085815260208120601f198616915b8281101561553157888601518255948401946001909101908401615512565b508582101561554f5787850151600019600388901b60f8161c191681555b5050505050600190811b01905550565b602080825282518282018190526000919060409081850190868401855b8281101561563f57815180516cffffffffffffffffffffffffff1685528681015163ffffffff9081168887015286820151168686015260608082015161ffff16908601526080808201516001600160a01b03169086015260a0808201519086015260c08082015162ffffff169086015260e08082015115159086015261010080820151151590860152610120808201511515908601526101408082015115159086015261016090810151151590850152610180909301929085019060010161557c565b5091979650505050505050565b600082601f83011261565d57600080fd5b815161566b61484282614ab8565b81815284602083860101111561568057600080fd5b611f288260208301602087016142fb565b6000602082840312156156a357600080fd5b815167ffffffffffffffff8111156156ba57600080fd5b611f288482850161564c565b6020815281602082015260007f07ffffffffffffffffffffffffffffffffffffffffffffffffffffffffffffff8311156156ff57600080fd5b8260051b80856040850137919091016040019392505050565b6157388261572583614bb9565b6cffffffffffffffffffffffffff169052565b61574460208201614bd6565b63ffffffff16602083015261575b60408201614bd6565b63ffffffff16604083015261577260608201614bfa565b61ffff1660608301526157876080820161438c565b6001600160a01b0316608083015260a081810135908301526157ab60c08201614c05565b62ffffff1660c08301526157c160e082016149aa565b151560e08301526101006157d68282016149aa565b1515908301526101206157ea8282016149aa565b1515908301526101406157fe8282016149aa565b1515908301526101606158128282016149aa565b80151584830152610e1a565b6020808252810182905260008360408301825b85811015615857576158438284615718565b610180928301929190910190600101615831565b5095945050505050565b6101a081016158708285615718565b6001600160a01b0383166101808301529392505050565b60006020828403121561589957600080fd5b815167ffffffffffffffff808211156158b157600080fd5b908301906101a082860312156158c657600080fd5b6158ce614767565b825181526020830151602082015260408301516040820152606083015160608201526080830151608082015260a083015160a082015261591060c084016151eb565b60c082015260e083015160e0820152610100808401518183015250610120615939818501615332565b9082015261014061594b848201615332565b9082015261016061595d848201615332565b90820152610180838101518381111561597557600080fd5b6159818882870161564c565b918301919091525095945050505050565b634e487b7160e01b600052601160045260246000fd5b80820180821115610a5557610a55615992565b8082028115828204841417610a5557610a55615992565b60006001600160a01b03808716835280861660208401525083604083015260806060830152615a04608083018461431f565b9695505050505050565b600060208284031215615a2057600080fd5b8151610fce816142c8565b60008351615a3d8184602088016142fb565b835190830190615a518183602088016142fb565b01949350505050565b600181815b80851115615a95578160001904821115615a7b57615a7b615992565b80851615615a8857918102915b93841c9390800290615a5f565b509250929050565b600082615aac57506001610a55565b81615ab957506000610a55565b8160018114615acf5760028114615ad957615af5565b6001915050610a55565b60ff841115615aea57615aea615992565b50506001821b610a55565b5060208310610133831016604e8410600b8410161715615b18575081810a610a55565b615b228383615a5a565b8060001904821115615b3657615b36615992565b029392505050565b6000610fce8383615a9d565b60008060408385031215615b5d57600080fd5b8251615b688161499c565b8092505060208084015167ffffffffffffffff811115615b8757600080fd5b8401601f81018613615b9857600080fd5b8051615ba6614842826147bc565b81815260059190911b82018301908381019088831115615bc557600080fd5b928401925b82841015615bec578351615bdd81614bea565b82529284019290840190615bca565b80955050505050509250929050565b600060808284031215615c0d57600080fd5b615c156146f6565b8251615c208161499c565b81526020830151615c308161499c565b60208201526040830151615c438161499c565b60408201526060830151615c568161499c565b60608201529392505050565b81810381811115610a5557610a55615992565b60008085851115615c8557600080fd5b83861115615c9257600080fd5b5050820193919092039150565b6bffffffffffffffffffffffff198135818116916014851015615ccc5780818660140360031b1b83161692505b505092915050565b634e487b7160e01b600052601260045260246000fd5b600082615cf957615cf9615cd4565b500690565b600082615d0d57615d0d615cd4565b500490565b60006060820185835260206060602085015281865180845260808601915060208801935060005b81811015615d5957845161ffff1683529383019391830191600101615d39565b5050809350505050821515604083015294935050505056fe31323334353637383941424344454647484a4b4c4d4e505152535455565758595a6162636465666768696a6b6d6e6f707172737475767778797aa26469706673582212202500f1d3fcf8a0be51cffd6343cd30af7b3f1344a9159cc3f8044fc176fd2fec64736f6c63430008170033",
	"deployedBytecode": "0x6080604052600436106102fd5760003560e01c8063715018a61161018f578063c07f2f9b116100e1578063e985e9c51161008a578063f3c5788111610064578063f3c57881146109b0578063f434c914146109c3578063fef50848146109f757600080fd5b8063e985e9c514610913578063edab09b91461095c578063f2fde38b1461099057600080fd5b8063d4a1b4b1116100bb578063d4a1b4b1146108b1578063d95c9ae2146108d1578063e8a3d485146108fe57600080fd5b8063c07f2f9b14610851578063c0fb5e8514610871578063c87b56dd1461089157600080fd5b8063a220d69611610143578063ade032ff1161011d578063ade032ff1461079c578063b88d4fde146107bc578063ba23c36e146107dc57600080fd5b8063a220d6961461072c578063a22cb4651461074c578063aaf320d71461076c57600080fd5b806388bc2ef31161017457806388bc2ef3146106ce5780638da5cb5b1461070257806395d89b411461071757600080fd5b8063715018a6146106865780637da0a8771461069b57600080fd5b8063507f14651161025357806366ec4cb4116101fc5780636ac6d941116101d65780636ac6d941146106245780636c0360eb1461065157806370a082311461066657600080fd5b806366ec4cb4146105ce578063677ce088146105e157806368f9c6bc1461060457600080fd5b8063572b6c051161022d578063572b6c0514610541578063613b856d1461058e5780636352211e146105ae57600080fd5b8063507f1465146104dd57806354c6d1f5146104fd57806356539f391461051d57600080fd5b80631435aad5116102b5578063293c49991161028f578063293c49991461045b57806342842e0e1461048f5780634c4ffc71146104af57600080fd5b80631435aad5146103fb5780631c52730b1461041b57806323b872dd1461043b57600080fd5b8063081812fc116102e6578063081812fc1461035957806308786b1a14610391578063095ea7b3146103d957600080fd5b806301ffc9a71461030257806306fdde0314610337575b600080fd5b34801561030e57600080fd5b5061032261031d3660046142de565b610a17565b60405190151581526020015b60405180910390f35b34801561034357600080fd5b5061034c610a5b565b60405161032e919061434b565b34801561036557600080fd5b5061037961037436600461435e565b610aed565b6040516001600160a01b03909116815260200161032e565b34801561039d57600080fd5b5060095463ffffffff811690602081901c60ff169060281c6040805193845260208401929092526001600160a01b03169082015260600161032e565b3480156103e557600080fd5b506103f96103f436600461439c565b610b16565b005b34801561040757600080fd5b506103f961041636600461440a565b610b2c565b34801561042757600080fd5b506103f96104363660046144a0565b610dc7565b34801561044757600080fd5b506103f9610456366004614515565b610e20565b34801561046757600080fd5b506103797f000000000000000000000000f9dada4628eb3992202cf253625d4ecebbc1592f81565b34801561049b57600080fd5b506103f96104aa366004614515565b610eca565b3480156104bb57600080fd5b506104cf6104ca366004614556565b610eea565b60405161032e929190614592565b3480156104e957600080fd5b50600a54610379906001600160a01b031681565b34801561050957600080fd5b5061037961051836600461435e565b610f91565b34801561052957600080fd5b5061053360075481565b60405190815260200161032e565b34801561054d57600080fd5b5061032261055c366004614623565b7f000000000000000000000000b2b5841dbef766d4b521221732f9b618fcf34a876001600160a01b0390811691161490565b34801561059a57600080fd5b506103f96105a9366004614640565b610fd5565b3480156105ba57600080fd5b506103796105c936600461435e565b611242565b6103f96105dc36600461467b565b61124d565b3480156105ed57600080fd5b506103226105fc3660046146b0565b600092915050565b34801561061057600080fd5b5061053361061f3660046147f3565b6114d1565b34801561063057600080fd5b5061064461063f3660046148f6565b61155e565b60405161032e9190614989565b34801561065d57600080fd5b5061034c6116be565b34801561067257600080fd5b50610533610681366004614623565b61174c565b34801561069257600080fd5b506103f96117db565b3480156106a757600080fd5b507f000000000000000000000000b2b5841dbef766d4b521221732f9b618fcf34a87610379565b3480156106da57600080fd5b506103797f000000000000000000000000cd8c4da77dfb15c05486d3f71ee4c2c0dfdbc94e81565b34801561070e57600080fd5b506103796117f0565b34801561072357600080fd5b5061034c6118e5565b34801561073857600080fd5b506103f961074736600461435e565b6118f4565b34801561075857600080fd5b506103f96107673660046149b5565b61193f565b34801561077857600080fd5b5061078c6107873660046149e3565b611951565b60405161032e9493929190614a18565b3480156107a857600080fd5b506105336107b73660046149e3565b611af0565b3480156107c857600080fd5b506103f96107d7366004614b19565b611b3a565b3480156107e857600080fd5b5060005461081d906001600160a01b03811690600160a01b81046affffffffffffffffffffff1690600160f81b900460ff1683565b604080516001600160a01b0390941684526affffffffffffffffffffff909216602084015260ff169082015260600161032e565b34801561085d57600080fd5b506103f961086c366004614e2d565b611b51565b34801561087d57600080fd5b506103f961088c366004614f4e565b611def565b34801561089d57600080fd5b5061034c6108ac36600461435e565b611e00565b3480156108bd57600080fd5b50600b54610379906001600160a01b031681565b3480156108dd57600080fd5b506105336108ec366004614623565b600c6020526000908152604090205481565b34801561090a57600080fd5b5061034c61204c565b34801561091f57600080fd5b5061032261092e366004614f69565b6001600160a01b03918216600090815260066020908152604080832093909416825291909152205460ff1690565b34801561096857600080fd5b506103797f0000000000000000000000005978e282a25349a1ad1c7156d29cadd23692124681565b34801561099c57600080fd5b506103f96109ab366004614623565b612059565b6103f96109be36600461467b565b612093565b3480156109cf57600080fd5b506103797f0000000000000000000000001e2e8562b635fe19978640c784e47865a83d660581565b348015610a0357600080fd5b506103f9610a12366004614f97565b61217f565b60006001600160e01b031982167fb88c9696000000000000000000000000000000000000000000000000000000001480610a555750610a55826123a5565b92915050565b606060018054610a6a90615032565b80601f0160208091040260200160405190810160405280929190818152602001828054610a9690615032565b8015610ae35780601f10610ab857610100808354040283529160200191610ae3565b820191906000526020600020905b815481529060010190602001808311610ac657829003601f168201915b5050505050905090565b6000610af8826124b3565b506000828152600560205260409020546001600160a01b0316610a55565b610b288282610b236124ec565b6124fb565b5050565b610b41610b376117f0565b6007546016612508565b8515610bb257600d610b548789836150b6565b508686604051610b65929190615176565b60405180910390207f7bc9110d5de090dd59e07912d2b93a5a27ac70a60c8d8e324db4f9ee8b8b5c13610b966124ec565b6040516001600160a01b03909116815260200160405180910390a25b8315610c2357600e610bc58587836150b6565b508484604051610bd6929190615176565b60405180910390207fd36dc0c1a06103fdcaf15f3f6fb797d1a97997514c78de073640c8b5005454b8610c076124ec565b6040516001600160a01b03909116815260200160405180910390a25b600a546001600160a01b039081169084163014610ce45760405163036129cb60e61b81526001600160a01b03858116600483015282169063d84a72c090602401600060405180830381600087803b158015610c7d57600080fd5b505af1158015610c91573d6000803e3d6000fd5b50505050836001600160a01b03167fe7784d93cfbfa4408e19577e6cc0436f4dbb51214b70e100905dfce9def88c16610cc86124ec565b6040516001600160a01b03909116815260200160405180910390a25b8215801590610cf257508115155b15610dbd576040517f49bd1ac600000000000000000000000000000000000000000000000000000000815260048101849052602481018390526001600160a01b038216906349bd1ac690604401600060405180830381600087803b158015610d5957600080fd5b505af1158015610d6d573d6000803e3d6000fd5b50505050827f677da4fed654db8e604791fa2582f342e2001aa217e27f6985eb3e0f67e5a7fc83610d9c6124ec565b604080519283526001600160a01b0390911660208301520160405180910390a25b5050505050505050565b8060005b81811015610e1a576000848483818110610de757610de7615186565b905060400201803603810190610dfd919061519c565b9050610e1181600001518260200151610fd5565b50600101610dcb565b50505050565b6001600160a01b038216610e4f57604051633250574960e11b8152600060048201526024015b60405180910390fd5b6000610e638383610e5e6124ec565b6126b3565b9050836001600160a01b0316816001600160a01b031614610e1a576040517f64283d7b0000000000000000000000000000000000000000000000000000000081526001600160a01b0380861660048301526024820184905282166044820152606401610e46565b610ee583838360405180602001604052806000815250611b3a565b505050565b6040805160018082528183019092526101208301359160609190816020015b60408051606080820183526000808352602083015291810191909152815260200190600190039081610f095790505090506040518060600160405280306001600160a01b03168152602001600081526020016040518060200160405280600081525081525081600081518110610f8157610f81615186565b6020026020010181905250915091565b6000818152600860205260408120546001600160a01b03168015610fb55792915050565b6000838152600360205260409020546001600160a01b03165b9392505050565b600b546007546040516321d1336160e11b815260048101919091526000916001600160a01b0316906343a266c29060240161012060405180830381865afa158015611024573d6000803e3d6000fd5b505050506040513d601f19601f8201168201806040525081019061104891906151f6565b61010081015190915060f01c600190811603611090576040517f63a0ba3900000000000000000000000000000000000000000000000000000000815260040160405180910390fd5b600a546040517fbaa7e80e00000000000000000000000000000000000000000000000000000000815260048101859052602481018490526001600160a01b0390911690600090829063baa7e80e906044016000604051808303816000875af1158015611100573d6000803e3d6000fd5b505050506040513d6000823e601f3d908101601f1916820160405261112891908101906152e0565b6040517f03573004000000000000000000000000000000000000000000000000000000008152306004820152602481018790529091506000906001600160a01b03841690630357300490604401602060405180830381865afa158015611192573d6000803e3d6000fd5b505050506040513d601f19601f820116820180604052508101906111b69190615315565b90506000805b86811015610dbd578381815181106111d6576111d6615186565b602002602001015191506111ea8383612929565b826001600160a01b031688837f80dd2efbbc431cde0164d84d638e44ba6e7a3ca5d532ceef1bb4efcc0948325d61121f6124ec565b6040516001600160a01b03909116815260200160405180910390a46001016111bc565b6000610a55826124b3565b600754341515806112ea5750604051636e49181f60e01b8152600481018290523360248201527f000000000000000000000000cd8c4da77dfb15c05486d3f71ee4c2c0dfdbc94e6001600160a01b031690636e49181f90604401602060405180830381865afa1580156112c4573d6000803e3d6000fd5b505050506040513d601f19601f820116820180604052508101906112e8919061533d565b155b806112f9575080826020013514155b15611330576040517f835e522b00000000000000000000000000000000000000000000000000000000815260040160405180910390fd5b60408051808201909152600681526572656465656d60d01b6020909101526000806113e27f0000000000000000000000005978e282a25349a1ad1c7156d29cadd23692124660601b7f26ef0a97332ad048ac544d8dfacdd43e128b9816d599fdd0310960904fa18609186113a86101e087018761535a565b8080601f0160208091040260200160405190810160405280939291908181526020018383808284376000920191909152506129a792505050565b9150915060608215611405578180602001905181019061140291906152e0565b90505b80516000805b828110156114be5783818151811061142557611425615186565b602002602001015191508760000160208101906114429190614623565b6001600160a01b031661146a836000908152600360205260409020546001600160a01b031690565b6001600160a01b0316146114ad576040517f5caf197500000000000000000000000000000000000000000000000000000000815260048101839052602401610e46565b6114b682612b7d565b60010161140b565b506114c883612bb8565b50505050505050565b600a546040517f144cc2d40000000000000000000000000000000000000000000000000000000081526000916001600160a01b03169063144cc2d49061151d90309087906004016153a1565b602060405180830381865afa15801561153a573d6000803e3d6000fd5b505050506040513d601f19601f82011682018060405250810190610fce91906153c3565b606061157561156b6117f0565b6007546017612508565b600a5460405163eaa19ab360e01b81526001600160a01b039091169063eaa19ab3906115ae9060001990889088906001906004016153dc565b6000604051808303816000875af11580156115cd573d6000803e3d6000fd5b505050506040513d6000823e601f3d908101601f191682016040526115f5919081019061543b565b509050826000805b828110156116b45783818151811061161757611617615186565b6020026020010151915061162b8583612929565b846001600160a01b031687878381811061164757611647615186565b905060200201602081019061165c9190615482565b61ffff16837f598baf7bf150ca2f42be9e9f8f55e81d45f5715c3ff22bf46d697fabec7f31d6600061168c6124ec565b604080519283526001600160a01b0390911660208301520160405180910390a46001016115fd565b5050509392505050565b600d80546116cb90615032565b80601f01602080910402602001604051908101604052809291908181526020018280546116f790615032565b80156117445780601f1061171957610100808354040283529160200191611744565b820191906000526020600020905b81548152906001019060200180831161172757829003601f168201915b505050505081565b600a546040517ff7888aec0000000000000000000000000000000000000000000000000000000081523060048201526001600160a01b038381166024830152600092169063f7888aec906044015b602060405180830381865afa1580156117b7573d6000803e3d6000fd5b505050506040513d601f19601f82011682018060405250810190610a5591906153c3565b6117e3612c36565b6117ee600080612d48565b565b60408051606081018252600080546001600160a01b0381168352600160a01b81046affffffffffffffffffffff1660208401819052600160f81b90910460ff16938301939093529182036118445751919050565b60208101516040516331a9108f60e11b81526affffffffffffffffffffff90911660048201527f000000000000000000000000f9dada4628eb3992202cf253625d4ecebbc1592f6001600160a01b031690636352211e90602401602060405180830381865afa1580156118bb573d6000803e3d6000fd5b505050506040513d601f19601f820116820180604052508101906118df9190615315565b91505090565b606060028054610a6a90615032565b6118fc612c36565b80158061191357506affffffffffffffffffffff81115b156119315760405163ecb9b1c760e01b815260040160405180910390fd5b61193c600082612d48565b50565b610b2861194a6124ec565b8383612ef9565b600080806060608085013515611993576040517f4fc178d800000000000000000000000000000000000000000000000000000000815260040160405180910390fd5b60408051808201909152600681526572656465656d60d01b602090910152600080611a0b7f0000000000000000000000005978e282a25349a1ad1c7156d29cadd23692124660601b7f26ef0a97332ad048ac544d8dfacdd43e128b9816d599fdd0310960904fa18609186113a86101808a018a61535a565b604080516001808252818301909252929450909250816020015b60408051606080820183526000808352602083015291810191909152815260200190600190039081611a255790505092506040518060600160405280306001600160a01b03168152602001600081526020016040518060200160405280600081525081525083600081518110611a9d57611a9d615186565b602002602001018190525060608215611ac75781806020019051810190611ac491906152e0565b90505b611ad181896114d1565b9550611adc88611af0565b945087610160013596505050509193509193565b600a546040517f2ae5e4920000000000000000000000000000000000000000000000000000000081523060048201526000916001600160a01b031690632ae5e4929060240161179a565b611b45848484610e20565b610e1a84848484612fb1565b600a546001600160a01b031615611b6757600080fd5b611b728a8a8a6130f3565b600b80546001600160a01b03808a1673ffffffffffffffffffffffffffffffffffffffff1992831617909255600a8054928516929091169190911790556020808401516040850151606086015178ffffffffffffffffffffffffffffffffffffffff000000000060289190911b1664ff000000009190931b1663ffffffff90911617176009819055865115611c0f57600d611c0d888261549f565b505b845115611c2457600e611c22868261549f565b505b6001600160a01b03861615611c8f5760405163036129cb60e61b81526001600160a01b03878116600483015284169063d84a72c090602401600060405180830381600087803b158015611c7657600080fd5b505af1158015611c8a573d6000803e3d6000fd5b505050505b83515115611d0d5783516040516349249dc160e01b81526001600160a01b038516916349249dc191611cc4919060040161555f565b6000604051808303816000875af1158015611ce3573d6000803e3d6000fd5b505050506040513d6000823e601f3d908101601f19168201604052611d0b91908101906152e0565b505b815180611d1b575081602001515b80611d27575081604001515b80611d33575081606001515b15611dd257604080517fcb827e3200000000000000000000000000000000000000000000000000000000815283511515600482015260208401511515602482015290830151151560448201526060830151151560648201526001600160a01b0384169063cb827e3290608401600060405180830381600087803b158015611db957600080fd5b505af1158015611dcd573d6000803e3d6000fd5b505050505b611de2611ddd6124ec565b612088565b5050505050505050505050565b611df7612c36565b61193c81613104565b600a546040517f0fab09470000000000000000000000000000000000000000000000000000000081523060048201526060916001600160a01b0316906000908290630fab094790602401602060405180830381865afa158015611e67573d6000803e3d6000fd5b505050506040513d601f19601f82011682018060405250810190611e8b9190615315565b90506001600160a01b03811615611f30576040517f5e703e71000000000000000000000000000000000000000000000000000000008152306004820152602481018590526001600160a01b03821690635e703e7190604401600060405180830381865afa158015611f00573d6000803e3d6000fd5b505050506040513d6000823e601f3d908101601f19168201604052611f289190810190615691565b949350505050565b611f28600d8054611f4090615032565b80601f0160208091040260200160405190810160405280929190818152602001828054611f6c90615032565b8015611fb95780601f10611f8e57610100808354040283529160200191611fb9565b820191906000526020600020905b815481529060010190602001808311611f9c57829003601f168201915b50506040517fc8df1710000000000000000000000000000000000000000000000000000000008152306004820152602481018a90526001600160a01b038816935063c8df171092506044019050602060405180830381865afa158015612023573d6000803e3d6000fd5b505050506040513d601f19601f8201168201806040525081019061204791906153c3565b61315a565b600e80546116cb90615032565b612061612c36565b6001600160a01b0381166120885760405163ecb9b1c760e01b815260040160405180910390fd5b61193c816000612d48565b600754341515806121305750604051636e49181f60e01b8152600481018290523360248201527f000000000000000000000000cd8c4da77dfb15c05486d3f71ee4c2c0dfdbc94e6001600160a01b031690636e49181f90604401602060405180830381865afa15801561210a573d6000803e3d6000fd5b505050506040513d601f19601f8201168201806040525081019061212e919061533d565b155b8061213f575080826020013514155b15612176576040517f8a3ea1c800000000000000000000000000000000000000000000000000000000815260040160405180910390fd5b610b28826131dd565b61219461218a6117f0565b6007546015612508565b600a54839082906001600160a01b03168115612295576040517f20512ba10000000000000000000000000000000000000000000000000000000081526001600160a01b038216906320512ba1906121f190889088906004016156c6565b600060405180830381600087803b15801561220b57600080fd5b505af115801561221f573d6000803e3d6000fd5b5050505060005b828110156122935785858281811061224057612240615186565b905060200201357f832d89d991be5351d793c20faf4b7dd44f8aa9ce39e3cb160c6317de6fbba7296122706124ec565b6040516001600160a01b03909116815260200160405180910390a2600101612226565b505b82156114c8576040516349249dc160e01b81526000906001600160a01b038316906349249dc1906122cc908b908b9060040161581e565b6000604051808303816000875af11580156122eb573d6000803e3d6000fd5b505050506040513d6000823e601f3d908101601f1916820160405261231391908101906152e0565b905060005b8481101561239a5781818151811061233257612332615186565b60200260200101517f6c05e4bd067859371de8c0a303cf84af0ba782c3809f8fba14e6af4388894cf08a8a8481811061236d5761236d615186565b9050610180020161237c6124ec565b60405161238a929190615861565b60405180910390a2600101612318565b505050505050505050565b60006001600160e01b031982167f3344b87300000000000000000000000000000000000000000000000000000000148061240857506001600160e01b031982167f81c03c2e00000000000000000000000000000000000000000000000000000000145b8061243c57506001600160e01b031982167ff3c5788100000000000000000000000000000000000000000000000000000000145b8061247057506001600160e01b031982167f66ec4cb400000000000000000000000000000000000000000000000000000000145b806124a457506001600160e01b031982167f2a55205a00000000000000000000000000000000000000000000000000000000145b80610a555750610a5582613734565b6000818152600360205260408120546001600160a01b031680610a5557604051637e27328960e01b815260048101849052602401610e46565b60006124f66137cf565b905090565b610ee58383836001613844565b60006125126124ec565b9050836001600160a01b0316816001600160a01b0316141580156125d3575060405163c161c93f60e01b81526001600160a01b038281166004830152858116602483015260448201859052606482018490527f0000000000000000000000001e2e8562b635fe19978640c784e47865a83d6605169063c161c93f90608401602060405180830381865afa1580156125ad573d6000803e3d6000fd5b505050506040513d601f19601f820116820180604052508101906125d1919061533d565b155b801561267c575060405163c161c93f60e01b81526001600160a01b038281166004830152858116602483015260006044830152606482018490527f0000000000000000000000001e2e8562b635fe19978640c784e47865a83d6605169063c161c93f90608401602060405180830381865afa158015612656573d6000803e3d6000fd5b505050506040513d601f19601f8201168201806040525081019061267a919061533d565b155b15610e1a576040517f075fd2b100000000000000000000000000000000000000000000000000000000815260040160405180910390fd5b600a546040517fc44a8e6d00000000000000000000000000000000000000000000000000000000815230600482015260248101849052600060448201819052916001600160a01b0316908290829063c44a8e6d90606401600060405180830381865afa158015612727573d6000803e3d6000fd5b505050506040513d6000823e601f3d908101601f1916820160405261274f9190810190615887565b905061275c86868661398f565b92506001600160a01b0383161561289a578061014001511561284957600b546007546040516321d1336160e11b815260048101919091526000916001600160a01b0316906343a266c29060240161012060405180830381865afa1580156127c7573d6000803e3d6000fd5b505050506040513d601f19601f820116820180604052508101906127eb91906151f6565b90506001600160a01b03871615801590612810575061010081015160ef1c6001908116145b15612847576040517ffa45ac2900000000000000000000000000000000000000000000000000000000815260040160405180910390fd5b505b6000858152600860205260409020546001600160a01b031661289a576000858152600860205260409020805473ffffffffffffffffffffffffffffffffffffffff19166001600160a01b0385161790555b80516040517fc2c55f9400000000000000000000000000000000000000000000000000000000815260048101919091526001600160a01b038481166024830152878116604483015283169063c2c55f9490606401600060405180830381600087803b15801561290857600080fd5b505af115801561291c573d6000803e3d6000fd5b5050505050509392505050565b6001600160a01b03821661295357604051633250574960e11b815260006004820152602401610e46565b6000612961838360006126b3565b90506001600160a01b03811615610ee5576040517f73c6ac6e00000000000000000000000000000000000000000000000000000000815260006004820152602401610e46565b6000606060258351116129cc5750506040805160208101909152600080825290612b76565b6000836129db600460206159a8565b815181106129eb576129eb615186565b0160209081015160f81c91505b600085612a066004846159a8565b81518110612a1657612a16615186565b01602001517fff000000000000000000000000000000000000000000000000000000000000001614801590612a545750612a516020836159bb565b81105b15612b7357600085612a676004846159a8565b81518110612a7757612a77615186565b016020908101518784019091015160f89190911c91506001600160e01b031980891690821603612b69576000612aae6020866159bb565b612ab96009866159a8565b101580612b06575087612acd6009866159a8565b81518110612add57612add615186565b01602001517fff0000000000000000000000000000000000000000000000000000000000000016155b612b3f57602088612b186009876159a8565b81518110612b2857612b28615186565b0160200151612b3a919060f81c6159bb565b612b42565b87515b90506001612b5b89612b556020876159bb565b84613a95565b965096505050505050612b76565b50506005016129f8565b50505b9250929050565b6000612b8c60008360006126b3565b90506001600160a01b038116610b2857604051637e27328960e01b815260048101839052602401610e46565b600a546040517f86bc2be30000000000000000000000000000000000000000000000000000000081526001600160a01b03909116906386bc2be390612c01908490600401614989565b600060405180830381600087803b158015612c1b57600080fd5b505af1158015612c2f573d6000803e3d6000fd5b5050505050565b604080516060810182526000546001600160a01b0381168252600160a01b81046affffffffffffffffffffff1660208301819052600160f81b90910460ff16928201929092529061193c9015612d265760208201516040516331a9108f60e11b81526affffffffffffffffffffff90911660048201527f000000000000000000000000f9dada4628eb3992202cf253625d4ecebbc1592f6001600160a01b031690636352211e90602401602060405180830381865afa158015612cfd573d6000803e3d6000fd5b505050506040513d601f19601f82011682018060405250810190612d219190615315565b612d29565b81515b82602001516affffffffffffffffffffff16836040015160ff16612508565b6affffffffffffffffffffff811615801590612d6c57506001600160a01b03821615155b15612d8a5760405163ecb9b1c760e01b815260040160405180910390fd5b60408051606081018252600080546001600160a01b0381168352600160a01b81046affffffffffffffffffffff1660208401819052600160f81b90910460ff1693830193909352909115612e785760208201516040516331a9108f60e11b81526affffffffffffffffffffff90911660048201527f000000000000000000000000f9dada4628eb3992202cf253625d4ecebbc1592f6001600160a01b031690636352211e90602401602060405180830381865afa158015612e4f573d6000803e3d6000fd5b505050506040513d601f19601f82011682018060405250810190612e739190615315565b612e7b565b81515b604080516060810182526001600160a01b0387168082526affffffffffffffffffffff87166020830181905260009290930182905281547fff000000000000000000000000000000000000000000000000000000000000001617600160a01b909202919091176001600160f81b031690559050610e1a818585613ad1565b6001600160a01b038216612f44576040517f5b08ba180000000000000000000000000000000000000000000000000000000081526001600160a01b0383166004820152602401610e46565b6001600160a01b03838116600081815260066020908152604080832094871680845294825291829020805460ff191686151590811790915591519182527f17307eab39ab6107e8899845ad3d59bd9653f200f220920489ca2b5937696c31910160405180910390a3505050565b6001600160a01b0383163b15610e1a57826001600160a01b031663150b7a02612fd86124ec565b8685856040518563ffffffff1660e01b8152600401612ffa94939291906159d2565b6020604051808303816000875af1925050508015613035575060408051601f3d908101601f1916820190925261303291810190615a0e565b60015b61309e573d808015613063576040519150601f19603f3d011682016040523d82523d6000602084013e613068565b606091505b50805160000361309657604051633250574960e11b81526001600160a01b0385166004820152602401610e46565b805181602001fd5b6001600160e01b031981167f150b7a020000000000000000000000000000000000000000000000000000000014612c2f57604051633250574960e11b81526001600160a01b0385166004820152602401610e46565b6130fd8282613bc4565b5050600755565b600080546001600160f81b0316600160f81b60ff8416908102919091179091556040519081527f6f4725627084d54c46c628b050805457a1cd38c5cd20c1f00132960f8b546fed9060200160405180910390a150565b6040517f1220000000000000000000000000000000000000000000000000000000000000602082015260228101829052606090600090604201604051602081830303815290604052905060006131af82613bdd565b905084816040516020016131c4929190615a2b565b6040516020818303038152906040529250505092915050565b60095460009063ffffffff811660c084013581900361320257608084013592506132dc565b602882901c6001600160a01b03811615612c2f5760ff602084901c166132d7608087013561323183600a615b3e565b6007546040517f3be273fa000000000000000000000000000000000000000000000000000000008152600481019190915260c08a013560248201526044810187905260a08a013560648201526001600160a01b03861690633be273fa90608401602060405180830381865afa1580156132ae573d6000803e3d6000fd5b505050506040513d601f19601f820116820180604052508101906132d291906153c3565b613d75565b945050505b5060009050600c816132f66101c086016101a08701614623565b6001600160a01b031681526020810191909152604001600090812054915082906133286101c086016101a08701614623565b6001600160a01b031661333e6020870187614623565b6001600160a01b0316036133555790820190613358565b50815b60408051808201909152600381527f7061790000000000000000000000000000000000000000000000000000000000602090910152600080806133e87f0000000000000000000000005978e282a25349a1ad1c7156d29cadd23692124660601b7fadc756803e4eb4ccfb136b73d5f72e3dc0d452d30ae1f4bc82af394c73ce7115186113a86101e08b018b61535a565b9150915081156134bc576060818060200190518101906134089190615b4a565b90945090508380156134865750600a54604051634228826f60e11b81523060048201526001600160a01b039091169063845104de90602401608060405180830381865afa15801561345d573d6000803e3d6000fd5b505050506040513d601f19601f820116820180604052508101906134819190615bfb565b606001515b1561349057600093505b8051156134b6576134b386826134ae6101c08d016101a08e01614623565b613e62565b95505b50613535565b600a54604051634228826f60e11b81523060048201526001600160a01b039091169063845104de90602401608060405180830381865afa158015613504573d6000803e3d6000fd5b505050506040513d601f19601f820116820180604052508101906135289190615bfb565b6060015161353557600192505b84156136885782613572576040517f6d5e09a400000000000000000000000000000000000000000000000000000000815260040160405180910390fd5b848401868111156135e55761358f6101c08a016101a08b01614623565b6001600160a01b0316818883037f7e71a5f6c04b0eb16949316623b9dda7bd103692f7d89678e2260afa1378a2d56135c56124ec565b6040516001600160a01b03909116815260200160405180910390a4613651565b80871115613651576135ff6101c08a016101a08b01614623565b6001600160a01b0316818289037f6276f0169fb8de712b2a6c02789f6115136c589ed491ac06f9e20f41877e41fe6136356124ec565b6040516001600160a01b03909116815260200160405180910390a45b80600c60006136686101c08d016101a08e01614623565b6001600160a01b0316815260208101919091526040016000205550610dbd565b838614610dbd576136a16101c089016101a08a01614623565b6001600160a01b0316846136b58189615c62565b7f6276f0169fb8de712b2a6c02789f6115136c589ed491ac06f9e20f41877e41fe6136de6124ec565b6040516001600160a01b03909116815260200160405180910390a483600c60006137106101c08c016101a08d01614623565b6001600160a01b031681526020810191909152604001600020555050505050505050565b60006001600160e01b031982167f80ac58cd00000000000000000000000000000000000000000000000000000000148061379757506001600160e01b031982167f5b5e139f00000000000000000000000000000000000000000000000000000000145b80610a5557507f01ffc9a7000000000000000000000000000000000000000000000000000000006001600160e01b0319831614610a55565b6000366014336001600160a01b037f000000000000000000000000b2b5841dbef766d4b521221732f9b618fcf34a871614801561380c5750808210155b1561383c5760003661381e8385615c62565b613829928290615c75565b61383291615c9f565b60601c9250505090565b339250505090565b808061385857506001600160a01b03821615155b15613952576000613868846124b3565b90506001600160a01b038316158015906138945750826001600160a01b0316816001600160a01b031614155b80156138c657506001600160a01b0380821660009081526006602090815260408083209387168352929052205460ff16155b15613908576040517fa9fbf51f0000000000000000000000000000000000000000000000000000000081526001600160a01b0384166004820152602401610e46565b81156139505783856001600160a01b0316826001600160a01b03167f8c5be1e5ebec7d5bd14f71427d1e84f3dd0314c0f7b2291e5b200ac8c7c3b92560405160405180910390a45b505b50506000908152600560205260409020805473ffffffffffffffffffffffffffffffffffffffff19166001600160a01b0392909216919091179055565b6000828152600360205260408120546001600160a01b03908116908316156139bc576139bc818486613fa3565b6001600160a01b038116156139fa576139d9600085600080613844565b6001600160a01b038116600090815260046020526040902080546000190190555b6001600160a01b03851615613a29576001600160a01b0385166000908152600460205260409020805460010190555b600084815260036020526040808220805473ffffffffffffffffffffffffffffffffffffffff19166001600160a01b0389811691821790925591518793918516917fddf252ad1be2c89b69c2b068fc378daa952ba7f163c4a11628f55a4df523b3ef91a4949350505050565b60608282036040519150602081830101604052808252508260208501016020820160005b848110156116b4578281015182820152602001613ab9565b6affffffffffffffffffffff811615613b7e576040516331a9108f60e11b81526affffffffffffffffffffff821660048201527f000000000000000000000000f9dada4628eb3992202cf253625d4ecebbc1592f6001600160a01b031690636352211e90602401602060405180830381865afa158015613b55573d6000803e3d6000fd5b505050506040513d601f19601f82011682018060405250810190613b799190615315565b613b80565b815b6001600160a01b0316836001600160a01b03167f8be0079c531659141344cd1fd0a4f28419497f9722a3daafe3b4186f6b6457e060405160405180910390a3505050565b6001613bd0838261549f565b506002610ee5828261549f565b60608151600003613bfc57505060408051600081526020810190915290565b60408051602e8082526105e08201909252600091602082016105c080368337019050509050600081600081518110613c3657613c36615186565b60ff90921660209283029190910190910152825160019060005b81811015613d51576000868281518110613c6c57613c6c615186565b016020015160f81c905060005b8460ff16811015613cf6576008868281518110613c9857613c98615186565b602002602001015160ff16901b82613cb091906159a8565b9150613cbd603a83615cea565b868281518110613ccf57613ccf615186565b60ff90921660209283029190910190910152613cec603a83615cfe565b9150600101613c79565b505b8015613d4857613d09603a82615cea565b858560ff1681518110613d1e57613d1e615186565b60ff90921660209283029190910190910152600190930192613d41603a82615cfe565b9050613cf8565b50600101613c50565b50613d6c613d67613d628585614020565b6140c8565b61416b565b95945050505050565b6000808060001985870985870292508281108382030391505080600003613daf57838281613da557613da5615cd4565b0492505050610fce565b838110613df9576040517f63a05778000000000000000000000000000000000000000000000000000000008152600481018790526024810186905260448101859052606401610e46565b60008486880960026001871981018816978890046003810283188082028403028082028403028082028403028082028403028082028403029081029092039091026000889003889004909101858311909403939093029303949094049190911702949350505050565b600a5460405163eaa19ab360e01b81526000916060916001600160a01b039091169063eaa19ab390613e9c90889088908790600401615d12565b6000604051808303816000875af1158015613ebb573d6000803e3d6000fd5b505050506040513d6000823e601f3d908101601f19168201604052613ee3919081019061543b565b81519093509091506000805b82811015613f9857838181518110613f0957613f09615186565b60200260200101519150613f1d8683612929565b856001600160a01b0316878281518110613f3957613f39615186565b602002602001015161ffff16837f598baf7bf150ca2f42be9e9f8f55e81d45f5715c3ff22bf46d697fabec7f31d68b613f706124ec565b604080519283526001600160a01b0390911660208301520160405180910390a4600101613eef565b505050509392505050565b613fae838383614245565b610ee5576001600160a01b038316613fdc57604051637e27328960e01b815260048101829052602401610e46565b6040517f177e802f0000000000000000000000000000000000000000000000000000000081526001600160a01b038316600482015260248101829052604401610e46565b606060008260ff1667ffffffffffffffff811115614040576140406146e0565b604051908082528060200260200182016040528015614069578160200160208202803683370190505b50905060005b8360ff168110156140c05784818151811061408c5761408c615186565b60200260200101518282815181106140a6576140a6615186565b60ff9092166020928302919091019091015260010161406f565b509392505050565b805160609060008167ffffffffffffffff8111156140e8576140e86146e0565b604051908082528060200260200182016040528015614111578160200160208202803683370190505b50905060005b828110156140c05784816001875103038151811061413757614137615186565b602002602001015182828151811061415157614151615186565b60ff90921660209283029190910190910152600101614117565b805160609060008167ffffffffffffffff81111561418b5761418b6146e0565b6040519080825280601f01601f1916602001820160405280156141b5576020820181803683370190505b50905060005b828110156140c0576040518060600160405280603a8152602001615d72603a91398582815181106141ee576141ee615186565b602002602001015160ff168151811061420957614209615186565b602001015160f81c60f81b82828151811061422657614226615186565b60200101906001600160f81b031916908160001a9053506001016141bb565b60006001600160a01b03831615801590611f285750826001600160a01b0316846001600160a01b0316148061429f57506001600160a01b0380851660009081526006602090815260408083209387168352929052205460ff165b80611f285750506000908152600560205260409020546001600160a01b03908116911614919050565b6001600160e01b03198116811461193c57600080fd5b6000602082840312156142f057600080fd5b8135610fce816142c8565b60005b838110156143165781810151838201526020016142fe565b50506000910152565b600081518084526143378160208601602086016142fb565b601f01601f19169290920160200192915050565b602081526000610fce602083018461431f565b60006020828403121561437057600080fd5b5035919050565b6001600160a01b038116811461193c57600080fd5b803561439781614377565b919050565b600080604083850312156143af57600080fd5b82356143ba81614377565b946020939093013593505050565b60008083601f8401126143da57600080fd5b50813567ffffffffffffffff8111156143f257600080fd5b602083019150836020828501011115612b7657600080fd5b600080600080600080600060a0888a03121561442557600080fd5b873567ffffffffffffffff8082111561443d57600080fd5b6144498b838c016143c8565b909950975060208a013591508082111561446257600080fd5b5061446f8a828b016143c8565b909650945050604088013561448381614377565b969995985093969295946060840135945060809093013592915050565b600080602083850312156144b357600080fd5b823567ffffffffffffffff808211156144cb57600080fd5b818501915085601f8301126144df57600080fd5b8135818111156144ee57600080fd5b8660208260061b850101111561450357600080fd5b60209290920196919550909350505050565b60008060006060848603121561452a57600080fd5b833561453581614377565b9250602084013561454581614377565b929592945050506040919091013590565b60006020828403121561456857600080fd5b813567ffffffffffffffff81111561457f57600080fd5b82016101808185031215610fce57600080fd5b6000604080830185845260206040818601528186518084526060935060608701915060608160051b88010183890160005b8381101561461357898303605f19018552815180516001600160a01b0316845286810151878501528801518884018890526146008885018261431f565b95870195935050908501906001016145c3565b50909a9950505050505050505050565b60006020828403121561463557600080fd5b8135610fce81614377565b6000806040838503121561465357600080fd5b50508035926020909101359150565b6000610200828403121561467557600080fd5b50919050565b60006020828403121561468d57600080fd5b813567ffffffffffffffff8111156146a457600080fd5b611f2884828501614662565b600080604083850312156146c357600080fd5b8235915060208301356146d581614377565b809150509250929050565b634e487b7160e01b600052604160045260246000fd5b6040516080810167ffffffffffffffff81118282101715614719576147196146e0565b60405290565b604051610180810167ffffffffffffffff81118282101715614719576147196146e0565b604051610120810167ffffffffffffffff81118282101715614719576147196146e0565b6040516101a0810167ffffffffffffffff81118282101715614719576147196146e0565b604051601f8201601f1916810167ffffffffffffffff811182821017156147b4576147b46146e0565b604052919050565b600067ffffffffffffffff8211156147d6576147d66146e0565b5060051b60200190565b60006101a0828403121561467557600080fd5b6000806040838503121561480657600080fd5b823567ffffffffffffffff8082111561481e57600080fd5b818501915085601f83011261483257600080fd5b81356020614847614842836147bc565b61478b565b82815260059290921b8401810191818101908984111561486657600080fd5b948201945b838610156148845785358252948201949082019061486b565b9650508601359250508082111561489a57600080fd5b506148a7858286016147e0565b9150509250929050565b60008083601f8401126148c357600080fd5b50813567ffffffffffffffff8111156148db57600080fd5b6020830191508360208260051b8501011115612b7657600080fd5b60008060006040848603121561490b57600080fd5b833567ffffffffffffffff81111561492257600080fd5b61492e868287016148b1565b909450925050602084013561494281614377565b809150509250925092565b60008151808452602080850194506020840160005b8381101561497e57815187529582019590820190600101614962565b509495945050505050565b602081526000610fce602083018461494d565b801515811461193c57600080fd5b80356143978161499c565b600080604083850312156149c857600080fd5b82356149d381614377565b915060208301356146d58161499c565b6000602082840312156149f557600080fd5b813567ffffffffffffffff811115614a0c57600080fd5b611f28848285016147e0565b60006080820186835260208681850152604086604086015260606080606087015283875180865260a08801915060a08160051b890101955084890160005b82811015614aa657898803609f19018452815180516001600160a01b0316895287810151888a0152860151868901869052614a93868a018261431f565b9850509286019290860190600101614a56565b50959c9b505050505050505050505050565b600067ffffffffffffffff821115614ad257614ad26146e0565b50601f01601f191660200190565b6000614aee61484284614ab8565b9050828152838383011115614b0257600080fd5b828260208301376000602084830101529392505050565b60008060008060808587031215614b2f57600080fd5b8435614b3a81614377565b93506020850135614b4a81614377565b925060408501359150606085013567ffffffffffffffff811115614b6d57600080fd5b8501601f81018713614b7e57600080fd5b614b8d87823560208401614ae0565b91505092959194509250565b600082601f830112614baa57600080fd5b610fce83833560208501614ae0565b80356cffffffffffffffffffffffffff8116811461439757600080fd5b803563ffffffff8116811461439757600080fd5b61ffff8116811461193c57600080fd5b803561439781614bea565b803562ffffff8116811461439757600080fd5b803560ff8116811461439757600080fd5b60006080808385031215614c3c57600080fd5b614c446146f6565b9150823567ffffffffffffffff811115614c5d57600080fd5b8301601f81018513614c6e57600080fd5b80356020614c7e614842836147bc565b8281526101809283028401820192828201919089851115614c9e57600080fd5b948301945b84861015614d915780868b031215614cbb5760008081fd5b614cc361471f565b614ccc87614bb9565b8152614cd9858801614bd6565b858201526040614cea818901614bd6565b908201526060614cfb888201614bfa565b90820152614d0a87890161438c565b8189015260a0878101359082015260c0614d25818901614c05565b9082015260e0614d368882016149aa565b90820152610100614d488882016149aa565b90820152610120614d5a8882016149aa565b90820152610140614d6c8882016149aa565b90820152610160614d7e8882016149aa565b9082015283529485019491830191614ca3565b50865250614da0868201614bd6565b8186015250505050614db460408301614c18565b6040820152614dc56060830161438c565b606082015292915050565b600060808284031215614de257600080fd5b614dea6146f6565b90508135614df78161499c565b81526020820135614e078161499c565b60208201526040820135614e1a8161499c565b60408201526060820135614dc58161499c565b6000806000806000806000806000806101a08b8d031215614e4d57600080fd5b8a35995060208b013567ffffffffffffffff80821115614e6c57600080fd5b614e788e838f01614b99565b9a5060408d0135915080821115614e8e57600080fd5b614e9a8e838f01614b99565b9950614ea860608e0161438c565b985060808d0135915080821115614ebe57600080fd5b614eca8e838f01614b99565b9750614ed860a08e0161438c565b965060c08d0135915080821115614eee57600080fd5b614efa8e838f01614b99565b955060e08d0135915080821115614f1057600080fd5b50614f1d8d828e01614c29565b935050614f2d6101008c0161438c565b9150614f3d8c6101208d01614dd0565b90509295989b9194979a5092959850565b600060208284031215614f6057600080fd5b610fce82614c18565b60008060408385031215614f7c57600080fd5b8235614f8781614377565b915060208301356146d581614377565b60008060008060408587031215614fad57600080fd5b843567ffffffffffffffff80821115614fc557600080fd5b818701915087601f830112614fd957600080fd5b813581811115614fe857600080fd5b88602061018083028501011115614ffe57600080fd5b60209283019650945090860135908082111561501957600080fd5b50615026878288016148b1565b95989497509550505050565b600181811c9082168061504657607f821691505b60208210810361467557634e487b7160e01b600052602260045260246000fd5b601f821115610ee5576000816000526020600020601f850160051c8101602086101561508f5750805b601f850160051c820191505b818110156150ae5782815560010161509b565b505050505050565b67ffffffffffffffff8311156150ce576150ce6146e0565b6150e2836150dc8354615032565b83615066565b6000601f84116001811461511657600085156150fe5750838201355b600019600387901b1c1916600186901b178355612c2f565b600083815260209020601f19861690835b828110156151475786850135825560209485019460019092019101615127565b50868210156151645760001960f88860031b161c19848701351681555b505060018560011b0183555050505050565b8183823760009101908152919050565b634e487b7160e01b600052603260045260246000fd5b6000604082840312156151ae57600080fd5b6040516040810181811067ffffffffffffffff821117156151d1576151d16146e0565b604052823581526020928301359281019290925250919050565b805161439781614377565b6000610120828403121561520957600080fd5b615211614743565b825181526020830151602082015260408301516040820152606083015160608201526080830151608082015260a083015160a082015260c083015160c082015261525d60e084016151eb565b60e0820152610100928301519281019290925250919050565b600082601f83011261528757600080fd5b81516020615297614842836147bc565b8083825260208201915060208460051b8701019350868411156152b957600080fd5b602086015b848110156152d557805183529183019183016152be565b509695505050505050565b6000602082840312156152f257600080fd5b815167ffffffffffffffff81111561530957600080fd5b611f2884828501615276565b60006020828403121561532757600080fd5b8151610fce81614377565b80516143978161499c565b60006020828403121561534f57600080fd5b8151610fce8161499c565b6000808335601e1984360301811261537157600080fd5b83018035915067ffffffffffffffff82111561538c57600080fd5b602001915036819003821315612b7657600080fd5b6001600160a01b0383168152604060208201526000611f28604083018461494d565b6000602082840312156153d557600080fd5b5051919050565b84815260606020808301829052908201849052600090859060808401835b8781101561542357833561540d81614bea565b61ffff16825292820192908201906001016153fa565b50809350505050821515604083015295945050505050565b6000806040838503121561544e57600080fd5b825167ffffffffffffffff81111561546557600080fd5b61547185828601615276565b925050602083015190509250929050565b60006020828403121561549457600080fd5b8135610fce81614bea565b815167ffffffffffffffff8111156154b9576154b96146e0565b6154cd816154c78454615032565b84615066565b602080601f83116001811461550257600084156154ea5750858301515b600019600386901b1c1916600185901b1785556150ae565b600085815260208120601f198616915b8281101561553157888601518255948401946001909101908401615512565b508582101561554f5787850151600019600388901b60f8161c191681555b5050505050600190811b01905550565b602080825282518282018190526000919060409081850190868401855b8281101561563f57815180516cffffffffffffffffffffffffff1685528681015163ffffffff9081168887015286820151168686015260608082015161ffff16908601526080808201516001600160a01b03169086015260a0808201519086015260c08082015162ffffff169086015260e08082015115159086015261010080820151151590860152610120808201511515908601526101408082015115159086015261016090810151151590850152610180909301929085019060010161557c565b5091979650505050505050565b600082601f83011261565d57600080fd5b815161566b61484282614ab8565b81815284602083860101111561568057600080fd5b611f288260208301602087016142fb565b6000602082840312156156a357600080fd5b815167ffffffffffffffff8111156156ba57600080fd5b611f288482850161564c565b6020815281602082015260007f07ffffffffffffffffffffffffffffffffffffffffffffffffffffffffffffff8311156156ff57600080fd5b8260051b80856040850137919091016040019392505050565b6157388261572583614bb9565b6cffffffffffffffffffffffffff169052565b61574460208201614bd6565b63ffffffff16602083015261575b60408201614bd6565b63ffffffff16604083015261577260608201614bfa565b61ffff1660608301526157876080820161438c565b6001600160a01b0316608083015260a081810135908301526157ab60c08201614c05565b62ffffff1660c08301526157c160e082016149aa565b151560e08301526101006157d68282016149aa565b1515908301526101206157ea8282016149aa565b1515908301526101406157fe8282016149aa565b1515908301526101606158128282016149aa565b80151584830152610e1a565b6020808252810182905260008360408301825b85811015615857576158438284615718565b610180928301929190910190600101615831565b5095945050505050565b6101a081016158708285615718565b6001600160a01b0383166101808301529392505050565b60006020828403121561589957600080fd5b815167ffffffffffffffff808211156158b157600080fd5b908301906101a082860312156158c657600080fd5b6158ce614767565b825181526020830151602082015260408301516040820152606083015160608201526080830151608082015260a083015160a082015261591060c084016151eb565b60c082015260e083015160e0820152610100808401518183015250610120615939818501615332565b9082015261014061594b848201615332565b9082015261016061595d848201615332565b90820152610180838101518381111561597557600080fd5b6159818882870161564c565b918301919091525095945050505050565b634e487b7160e01b600052601160045260246000fd5b80820180821115610a5557610a55615992565b8082028115828204841417610a5557610a55615992565b60006001600160a01b03808716835280861660208401525083604083015260806060830152615a04608083018461431f565b9695505050505050565b600060208284031215615a2057600080fd5b8151610fce816142c8565b60008351615a3d8184602088016142fb565b835190830190615a518183602088016142fb565b01949350505050565b600181815b80851115615a95578160001904821115615a7b57615a7b615992565b80851615615a8857918102915b93841c9390800290615a5f565b509250929050565b600082615aac57506001610a55565b81615ab957506000610a55565b8160018114615acf5760028114615ad957615af5565b6001915050610a55565b60ff841115615aea57615aea615992565b50506001821b610a55565b5060208310610133831016604e8410600b8410161715615b18575081810a610a55565b615b228383615a5a565b8060001904821115615b3657615b36615992565b029392505050565b6000610fce8383615a9d565b60008060408385031215615b5d57600080fd5b8251615b688161499c565b8092505060208084015167ffffffffffffffff811115615b8757600080fd5b8401601f81018613615b9857600080fd5b8051615ba6614842826147bc565b81815260059190911b82018301908381019088831115615bc557600080fd5b928401925b82841015615bec578351615bdd81614bea565b82529284019290840190615bca565b80955050505050509250929050565b600060808284031215615c0d57600080fd5b615c156146f6565b8251615c208161499c565b81526020830151615c308161499c565b60208201526040830151615c438161499c565b60408201526060830151615c568161499c565b60608201529392505050565b81810381811115610a5557610a55615992565b60008085851115615c8557600080fd5b83861115615c9257600080fd5b5050820193919092039150565b6bffffffffffffffffffffffff198135818116916014851015615ccc5780818660140360031b1b83161692505b505092915050565b634e487b7160e01b600052601260045260246000fd5b600082615cf957615cf9615cd4565b500690565b600082615d0d57615d0d615cd4565b500490565b60006060820185835260206060602085015281865180845260808601915060208801935060005b81811015615d5957845161ffff1683529383019391830191600101615d39565b5050809350505050821515604083015294935050505056fe31323334353637383941424344454647484a4b4c4d4e505152535455565758595a6162636465666768696a6b6d6e6f707172737475767778797aa26469706673582212202500f1d3fcf8a0be51cffd6343cd30af7b3f1344a9159cc3f8044fc176fd2fec64736f6c63430008170033",
	"devdoc": {
		"kind": "dev",
		"methods": {
			"adjustTiers((uint104,uint32,uint32,uint16,address,bytes32,uint24,bool,bool,bool,bool,bool)[],uint256[])": {
				"details": "Only the contract's owner or an operator with the `ADJUST_TIERS` permission from the owner can adjust the tiers.Any added tiers must adhere to this hook's `JB721TiersHookFlags`.",
				"params": {
					"tierIdsToRemove": "The tiers to remove, as an array of tier IDs.",
					"tiersToAdd": "The tiers to add, as an array of `JB721TierConfig` structs`."
				}
			},
			"afterPayRecordedWith((address,uint256,uint256,(address,uint256,uint256,uint256),(address,uint256,uint256,uint256),uint256,uint256,address,bytes,bytes))": {
				"details": "Reverts if the calling contract is not one of the project's terminals.",
				"params": {
					"context": "The payment context passed in by the terminal."
				}
			},
			"afterRedeemRecordedWith((address,uint256,uint256,uint256,(address,uint256,uint256,uint256),(address,uint256,uint256,uint256),uint256,address,bytes,bytes))": {
				"details": "Reverts if the calling contract is not one of the project's terminals.",
				"params": {
					"context": "The redemption context passed in by the terminal."
				}
			},
			"approve(address,uint256)": {
				"details": "See {IERC721-approve}."
			},
			"balanceOf(address)": {
				"params": {
					"owner": "The address to check the balance of."
				},
				"returns": {
					"balance": "The number of NFTs the address owns across this hook's tiers."
				}
			},
			"beforePayRecordedWith((address,address,(address,uint256,uint256,uint256),uint256,uint256,address,uint256,uint256,bytes))": {
				"details": "Sets this contract as the pay hook. Part of `IJBRulesetDataHook`.",
				"params": {
					"context": "The payment context passed to this contract by the `pay(...)` function."
				},
				"returns": {
					"hookSpecifications": "The amount and data to send to pay hooks (this contract) instead of adding to the terminal's balance.",
					"weight": "The new `weight` to use, overriding the ruleset's `weight`."
				}
			},
			"beforeRedeemRecordedWith((address,address,uint256,uint256,uint256,uint256,(address,uint256,uint256,uint256),bool,uint256,bytes))": {
				"details": "Sets this contract as the redeem hook. Part of `IJBRulesetDataHook`.This function is used for NFT redemptions, and will only be called if the project's ruleset has `useDataHookForRedeem` set to `true`.",
				"params": {
					"context": "The redemption context passed to this contract by the `redeemTokensOf(...)` function."
				},
				"returns": {
					"hookSpecifications": "The amount and data to send to redeem hooks (this contract) instead of returning to the beneficiary.",
					"redeemCount": "The amount of tokens that should be considered redeemed.",
					"redemptionRate": "The redemption rate influencing the reclaim amount.",
					"totalSupply": "The total amount of tokens that are considered to be existing."
				}
			},
			"constructor": {
				"params": {
					"directory": "A directory of terminals and controllers for projects.",
					"permissions": "A contract storing permissions.",
					"trustedForwarder": "The trusted forwarder for the ERC2771Context."
				}
			},
			"firstOwnerOf(uint256)": {
				"details": "This is generally the address which paid for the NFT.",
				"params": {
					"tokenId": "The token ID of the NFT to get the first owner of."
				},
				"returns": {
					"_0": "The address of the NFT's first owner."
				}
			},
			"getApproved(uint256)": {
				"details": "See {IERC721-getApproved}."
			},
			"initialize(uint256,string,string,address,string,address,string,((uint104,uint32,uint32,uint16,address,bytes32,uint24,bool,bool,bool,bool,bool)[],uint32,uint8,address),address,(bool,bool,bool,bool))": {
				"params": {
					"baseUri": "The URI to use as a base for full NFT `tokenUri`s.",
					"contractUri": "A URI where this contract's metadata can be found.",
					"flags": "A set of additional options which dictate how the hook behaves.",
					"name": "The name of the NFT collection.",
					"projectId": "The ID of the project this this hook is associated with.",
					"rulesets": "A contract storing and managing project rulesets.",
					"store": "The contract which stores the NFT's data.",
					"symbol": "The symbol representing the NFT collection.",
					"tiersConfig": "The NFT tiers and pricing context to initialize the hook with. The tiers must be sorted by price (from least to greatest).",
					"tokenUriResolver": "An optional contract responsible for resolving the token URI for each NFT's token ID."
				}
			},
			"isApprovedForAll(address,address)": {
				"details": "See {IERC721-isApprovedForAll}."
			},
			"isTrustedForwarder(address)": {
				"details": "Indicates whether any particular address is the trusted forwarder."
			},
			"mintFor(uint16[],address)": {
				"params": {
					"beneficiary": "The address to mint to.",
					"tierIds": "The IDs of the tiers to mint from."
				},
				"returns": {
					"tokenIds": "The IDs of the newly minted tokens."
				}
			},
			"mintPendingReservesFor((uint256,uint256)[])": {
				"details": "\"Pending\" means that the NFTs have been reserved, but have not been minted yet.",
				"params": {
					"reserveMintConfigs": "Contains information about how many reserved tokens to mint for each tier."
				}
			},
			"mintPendingReservesFor(uint256,uint256)": {
				"details": "\"Pending\" means that the NFTs have been reserved, but have not been minted yet.",
				"params": {
					"count": "The number of reserved NFTs to mint.",
					"tierId": "The ID of the tier to mint reserved NFTs from."
				}
			},
			"name()": {
				"details": "See {IERC721Metadata-name}."
			},
			"ownerOf(uint256)": {
				"details": "See {IERC721-ownerOf}."
			},
			"pricingContext()": {
				"details": "If the `prices` contract is the zero address, this contract only accepts payments in the `currency` token.",
				"returns": {
					"currency": "The currency used for tier prices.",
					"decimals": "The amount of decimals being used in tier prices.",
					"prices": "The prices contract used to resolve the value of payments in currencies other than `currency`."
				}
			},
			"redemptionWeightOf(uint256[],(address,address,uint256,uint256,uint256,uint256,(address,uint256,uint256,uint256),bool,uint256,bytes))": {
				"details": "An NFT's redemption weight is its price.To get their relative redemption weight, divide the result by the `totalRedemptionWeight(...)`.",
				"params": {
					"tokenIds": "The token IDs of the NFTs to get the cumulative redemption weight of."
				},
				"returns": {
					"_0": "weight The redemption weight of the tokenIds."
				}
			},
			"safeTransferFrom(address,address,uint256)": {
				"details": "See {IERC721-safeTransferFrom}."
			},
			"safeTransferFrom(address,address,uint256,bytes)": {
				"details": "See {IERC721-safeTransferFrom}."
			},
			"setApprovalForAll(address,bool)": {
				"details": "See {IERC721-setApprovalForAll}."
			},
			"setMetadata(string,string,address,uint256,bytes32)": {
				"details": "Only this contract's owner can set the metadata.",
				"params": {
					"baseUri": "The new base URI.",
					"contractUri": "The new contract URI.",
					"encodedIPFSTUriTierId": "The ID of the tier to set the encoded IPFS URI of.",
					"encodedIPFSUri": "The encoded IPFS URI to set.",
					"tokenUriResolver": "The new URI resolver."
				}
			},
			"setPermissionId(uint8)": {
				"params": {
					"permissionId": "The ID of the permission to use for `onlyOwner`."
				}
			},
			"supportsInterface(bytes4)": {
				"details": "See {IERC165-supportsInterface}.",
				"params": {
					"interfaceId": "The ID of the interface to check for adherence to."
				}
			},
			"symbol()": {
				"details": "See {IERC721Metadata-symbol}."
			},
			"tokenURI(uint256)": {
				"details": "Defers to the `tokenUriResolver` if it is set. Otherwise, use the `tokenUri` corresponding with the NFT's tier.",
				"params": {
					"tokenId": "The token ID of the NFT to get the metadata URI of."
				},
				"returns": {
					"_0": "The token URI from the `tokenUriResolver` if it is set. If it isn't set, the token URI for the NFT's tier."
				}
			},
			"totalRedemptionWeight((address,address,uint256,uint256,uint256,uint256,(address,uint256,uint256,uint256),bool,uint256,bytes))": {
				"details": "An NFT's redemption weight is its price.",
				"returns": {
					"_0": "weight The total redemption weight."
				}
			},
			"transferFrom(address,address,uint256)": {
				"details": "See {IERC721-transferFrom}."
			},
			"transferOwnership(address)": {
				"params": {
					"newOwner": "The address that should receive ownership of this contract."
				}
			},
			"transferOwnershipToProject(uint256)": {
				"details": "The `projectId` must fit within a `uint88`.",
				"params": {
					"projectId": "The ID of the project that should receive ownership of this contract."
				}
			},
			"trustedForwarder()": {
				"details": "Returns the address of the trusted forwarder."
			}
		},
		"version": 1
	},
	"userdoc": {
		"kind": "user",
		"methods": {
			"DIRECTORY()": {
				"notice": "The directory of terminals and controllers for projects."
			},
			"METADATA_ID_TARGET()": {
				"notice": "The ID used when parsing metadata."
			},
			"PERMISSIONS()": {
				"notice": "A contract storing permissions."
			},
			"PROJECTS()": {
				"notice": "Mints ERC-721s that represent project ownership and transfers."
			},
			"PROJECT_ID()": {
				"notice": "The ID of the project that this contract is associated with."
			},
			"RULESETS()": {
				"notice": "The contract storing and managing project rulesets."
			},
			"STORE()": {
				"notice": "The contract that stores and manages data for this contract's NFTs."
			},
			"adjustTiers((uint104,uint32,uint32,uint16,address,bytes32,uint24,bool,bool,bool,bool,bool)[],uint256[])": {
				"notice": "Add or delete tiers."
			},
			"afterPayRecordedWith((address,uint256,uint256,(address,uint256,uint256,uint256),(address,uint256,uint256,uint256),uint256,uint256,address,bytes,bytes))": {
				"notice": "Mints one or more NFTs to the `context.benficiary` upon payment if conditions are met. Part of `IJBPayHook`."
			},
			"afterRedeemRecordedWith((address,uint256,uint256,uint256,(address,uint256,uint256,uint256),(address,uint256,uint256,uint256),uint256,address,bytes,bytes))": {
				"notice": "Burns the specified NFTs upon token holder redemption, reclaiming funds from the project's balance for `context.beneficiary`. Part of `IJBRedeemHook`."
			},
			"balanceOf(address)": {
				"notice": "The total number of this hook's NFTs that an address holds (from all tiers)."
			},
			"baseURI()": {
				"notice": "The base URI for the NFT `tokenUris`."
			},
			"beforePayRecordedWith((address,address,(address,uint256,uint256,uint256),uint256,uint256,address,uint256,uint256,bytes))": {
				"notice": "The data calculated before a payment is recorded in the terminal store. This data is provided to the terminal's `pay(...)` transaction."
			},
			"beforeRedeemRecordedWith((address,address,uint256,uint256,uint256,uint256,(address,uint256,uint256,uint256),bool,uint256,bytes))": {
				"notice": "The data calculated before a redemption is recorded in the terminal store. This data is provided to the terminal's `redeemTokensOf(...)` transaction."
			},
			"contractURI()": {
				"notice": "This contract's metadata URI."
			},
			"firstOwnerOf(uint256)": {
				"notice": "The first owner of an NFT."
			},
			"hasMintPermissionFor(uint256,address)": {
				"notice": "Required by the IJBRulesetDataHook interfaces. Return false to not leak any permissions."
			},
			"initialize(uint256,string,string,address,string,address,string,((uint104,uint32,uint32,uint16,address,bytes32,uint24,bool,bool,bool,bool,bool)[],uint32,uint8,address),address,(bool,bool,bool,bool))": {
				"notice": "Initializes a cloned copy of the original `JB721Hook` contract."
			},
			"jbOwner()": {
				"notice": "This contract's owner information."
			},
			"mintFor(uint16[],address)": {
				"notice": "Manually mint NFTs from the provided tiers ."
			},
			"mintPendingReservesFor((uint256,uint256)[])": {
				"notice": "Mint pending reserved NFTs based on the provided information."
			},
			"mintPendingReservesFor(uint256,uint256)": {
				"notice": "Mint reserved pending reserved NFTs within the provided tier."
			},
			"owner()": {
				"notice": "Returns the owner's address based on this contract's `JBOwner` owner information."
			},
			"payCreditsOf(address)": {
				"notice": "If an address pays more than the price of the NFT they received, the extra amount is stored as credits which can be redeemed to mint NFTs."
			},
			"pricingContext()": {
				"notice": "Context for the pricing of this hook's tiers."
			},
			"redemptionWeightOf(uint256[],(address,address,uint256,uint256,uint256,uint256,(address,uint256,uint256,uint256),bool,uint256,bytes))": {
				"notice": "The combined redemption weight of the NFTs with the specified token IDs."
			},
			"renounceOwnership()": {
				"notice": "Gives up ownership of this contract, making it impossible to call `onlyOwner`/`_checkOwner` functions. Can only be called by the current owner."
			},
			"setMetadata(string,string,address,uint256,bytes32)": {
				"notice": "Update this hook's URI metadata properties."
			},
			"setPermissionId(uint8)": {
				"notice": "Sets the permission ID which, when granted from the owner, allows other addresses to perform operations on their behalf."
			},
			"supportsInterface(bytes4)": {
				"notice": "Indicates if this contract adheres to the specified interface."
			},
			"tokenURI(uint256)": {
				"notice": "The metadata URI of the NFT with the specified token ID."
			},
			"totalRedemptionWeight((address,address,uint256,uint256,uint256,uint256,(address,uint256,uint256,uint256),bool,uint256,bytes))": {
				"notice": "The combined redemption weight of all outstanding NFTs."
			},
			"transferOwnership(address)": {
				"notice": "Transfers ownership of this contract to a new account (the `newOwner`). Can only be called by the current owner."
			},
			"transferOwnershipToProject(uint256)": {
				"notice": "Transfer ownership of this contract to a new Juicebox project."
			}
		},
		"version": 1
	},
	"gitCommit": "bbe3e586edd7f6ffc20748bc04e03363a779a864",
	"sourceName": "src/JB721TiersHook.sol",
	"chainId": "84532",
	"linkReferences": {},
	"deployedLinkReferences": {},
	"history": []
}