{
	"_format": "sphinx-sol-ct-artifact-1",
	"merkleRoot": "0xd1a372b6f6d97825c4e0e2fc3f1c123ffe14a5aee61b42f5b132199ab75734cf",
	"contractName": "JB721TiersHookDeployer",
	"address": "0x554CE80D78f5438c73a9759D8BBb52a382138A59",
	"abi": [
		{
			"type": "constructor",
			"inputs": [
				{
					"name": "hook",
					"type": "address",
					"internalType": "contract JB721TiersHook"
				},
				{
					"name": "store",
					"type": "address",
					"internalType": "contract IJB721TiersHookStore"
				},
				{
					"name": "addressRegistry",
					"type": "address",
					"internalType": "contract IJBAddressRegistry"
				},
				{
					"name": "trustedForwarder",
					"type": "address",
					"internalType": "address"
				}
			],
			"stateMutability": "nonpayable"
		},
		{
			"type": "function",
			"name": "ADDRESS_REGISTRY",
			"inputs": [],
			"outputs": [
				{
					"name": "",
					"type": "address",
					"internalType": "contract IJBAddressRegistry"
				}
			],
			"stateMutability": "view"
		},
		{
			"type": "function",
			"name": "HOOK",
			"inputs": [],
			"outputs": [
				{
					"name": "",
					"type": "address",
					"internalType": "contract JB721TiersHook"
				}
			],
			"stateMutability": "view"
		},
		{
			"type": "function",
			"name": "STORE",
			"inputs": [],
			"outputs": [
				{
					"name": "",
					"type": "address",
					"internalType": "contract IJB721TiersHookStore"
				}
			],
			"stateMutability": "view"
		},
		{
			"type": "function",
			"name": "deployHookFor",
			"inputs": [
				{
					"name": "projectId",
					"type": "uint256",
					"internalType": "uint256"
				},
				{
					"name": "deployTiersHookConfig",
					"type": "tuple",
					"internalType": "struct JBDeploy721TiersHookConfig",
					"components": [
						{
							"name": "name",
							"type": "string",
							"internalType": "string"
						},
						{
							"name": "symbol",
							"type": "string",
							"internalType": "string"
						},
						{
							"name": "rulesets",
							"type": "address",
							"internalType": "contract IJBRulesets"
						},
						{
							"name": "baseUri",
							"type": "string",
							"internalType": "string"
						},
						{
							"name": "tokenUriResolver",
							"type": "address",
							"internalType": "contract IJB721TokenUriResolver"
						},
						{
							"name": "contractUri",
							"type": "string",
							"internalType": "string"
						},
						{
							"name": "tiersConfig",
							"type": "tuple",
							"internalType": "struct JB721InitTiersConfig",
							"components": [
								{
									"name": "tiers",
									"type": "tuple[]",
									"internalType": "struct JB721TierConfig[]",
									"components": [
										{
											"name": "price",
											"type": "uint104",
											"internalType": "uint104"
										},
										{
											"name": "initialSupply",
											"type": "uint32",
											"internalType": "uint32"
										},
										{
											"name": "votingUnits",
											"type": "uint32",
											"internalType": "uint32"
										},
										{
											"name": "reserveFrequency",
											"type": "uint16",
											"internalType": "uint16"
										},
										{
											"name": "reserveBeneficiary",
											"type": "address",
											"internalType": "address"
										},
										{
											"name": "encodedIPFSUri",
											"type": "bytes32",
											"internalType": "bytes32"
										},
										{
											"name": "category",
											"type": "uint24",
											"internalType": "uint24"
										},
										{
											"name": "allowOwnerMint",
											"type": "bool",
											"internalType": "bool"
										},
										{
											"name": "useReserveBeneficiaryAsDefault",
											"type": "bool",
											"internalType": "bool"
										},
										{
											"name": "transfersPausable",
											"type": "bool",
											"internalType": "bool"
										},
										{
											"name": "useVotingUnits",
											"type": "bool",
											"internalType": "bool"
										},
										{
											"name": "cannotBeRemoved",
											"type": "bool",
											"internalType": "bool"
										}
									]
								},
								{
									"name": "currency",
									"type": "uint32",
									"internalType": "uint32"
								},
								{
									"name": "decimals",
									"type": "uint8",
									"internalType": "uint8"
								},
								{
									"name": "prices",
									"type": "address",
									"internalType": "contract IJBPrices"
								}
							]
						},
						{
							"name": "reserveBeneficiary",
							"type": "address",
							"internalType": "address"
						},
						{
							"name": "flags",
							"type": "tuple",
							"internalType": "struct JB721TiersHookFlags",
							"components": [
								{
									"name": "noNewTiersWithReserves",
									"type": "bool",
									"internalType": "bool"
								},
								{
									"name": "noNewTiersWithVotes",
									"type": "bool",
									"internalType": "bool"
								},
								{
									"name": "noNewTiersWithOwnerMinting",
									"type": "bool",
									"internalType": "bool"
								},
								{
									"name": "preventOverspending",
									"type": "bool",
									"internalType": "bool"
								}
							]
						}
					]
				}
			],
			"outputs": [
				{
					"name": "newHook",
					"type": "address",
					"internalType": "contract IJB721TiersHook"
				}
			],
			"stateMutability": "nonpayable"
		},
		{
			"type": "function",
			"name": "isTrustedForwarder",
			"inputs": [
				{
					"name": "forwarder",
					"type": "address",
					"internalType": "address"
				}
			],
			"outputs": [
				{
					"name": "",
					"type": "bool",
					"internalType": "bool"
				}
			],
			"stateMutability": "view"
		},
		{
			"type": "function",
			"name": "trustedForwarder",
			"inputs": [],
			"outputs": [
				{
					"name": "",
					"type": "address",
					"internalType": "address"
				}
			],
			"stateMutability": "view"
		},
		{
			"type": "event",
			"name": "HookDeployed",
			"inputs": [
				{
					"name": "projectId",
					"type": "uint256",
					"indexed": true,
					"internalType": "uint256"
				},
				{
					"name": "newHook",
					"type": "address",
					"indexed": false,
					"internalType": "contract IJB721TiersHook"
				}
			],
			"anonymous": false
		},
		{
			"type": "error",
			"name": "ERC1167FailedCreateClone",
			"inputs": []
		}
	],
	"solcInputHash": "dd1347b6bdfffb0c4296571a452787bf",
	"args": [
		"0x1D208f757458507b66F0420e56Ad4a103DcA95BC",
		"0xac41D62aDD150C0f7F9f5bFC3B544cf333a1f988",
		"0x989566Bf9fF4CffA55a98ADa7dc3E58b2a0a19c6",
		"0xB2b5841DBeF766d4b521221732F9B618fCf34A87"
	],
	"bytecode": "0x61010060405234801561001157600080fd5b50604051610e9c380380610e9c8339810160408190526100309161006b565b6001600160a01b0390811660805292831660a05290821660c0521660e0526100ca565b6001600160a01b038116811461006857600080fd5b50565b6000806000806080858703121561008157600080fd5b845161008c81610053565b602086015190945061009d81610053565b60408601519093506100ae81610053565b60608601519092506100bf81610053565b939692955090935050565b60805160a05160c05160e051610d786101246000396000818161014901526102fa01526000818160ac01526101f4015260008181610170015261019901526000818160de0152818161012001526104870152610d786000f3fe608060405234801561001057600080fd5b50600436106100725760003560e01c80637da0a877116100505780637da0a8771461011e57806389a56bbc14610144578063a54eb2421461016b57600080fd5b80632230819f14610077578063507f1465146100a7578063572b6c05146100ce575b600080fd5b61008a6100853660046108c9565b610192565b6040516001600160a01b0390911681526020015b60405180910390f35b61008a7f000000000000000000000000000000000000000000000000000000000000000081565b61010e6100dc366004610a1b565b7f00000000000000000000000000000000000000000000000000000000000000006001600160a01b0390811691161490565b604051901515815260200161009e565b7f000000000000000000000000000000000000000000000000000000000000000061008a565b61008a7f000000000000000000000000000000000000000000000000000000000000000081565b61008a7f000000000000000000000000000000000000000000000000000000000000000081565b60006101bd7f00000000000000000000000000000000000000000000000000000000000000006103f5565b9050806001600160a01b031663c07f2f9b84846000015185602001518660400151876060015188608001518960a001518a60c001517f00000000000000000000000000000000000000000000000000000000000000008c61010001516040518b63ffffffff1660e01b815260040161023e9a99989796959493929190610a85565b600060405180830381600087803b15801561025857600080fd5b505af115801561026c573d6000803e3d6000fd5b50505050806001600160a01b031663f2fde38b610287610480565b6040517fffffffff0000000000000000000000000000000000000000000000000000000060e084901b1681526001600160a01b039091166004820152602401600060405180830381600087803b1580156102e057600080fd5b505af11580156102f4573d6000803e3d6000fd5b505050507f00000000000000000000000000000000000000000000000000000000000000006001600160a01b031663b94417ab30600080815461033690610cb1565b91829055506040517fffffffff0000000000000000000000000000000000000000000000000000000060e085901b1681526001600160a01b0390921660048301526024820152604401600060405180830381600087803b15801561039957600080fd5b505af11580156103ad573d6000803e3d6000fd5b50506040516001600160a01b03841681528592507fa42f6bb68e81f4650a7966f109d861f6c3d2a477e608e30807f568bed1cebdb9915060200160405180910390a292915050565b6000763d602d80600a3d3981f3363d3d373d3d3d363d730000008260601b60e81c176000526e5af43d82803e903d91602b57fd5bf38260781b17602052603760096000f090506001600160a01b03811661047b576040517fc2f868f400000000000000000000000000000000000000000000000000000000815260040160405180910390fd5b919050565b60003660147f00000000000000000000000000000000000000000000000000000000000000006001600160a01b0316331480156104bd5750808210155b156104ed576000366104cf8385610cca565b6104da928290610ce3565b6104e391610d0d565b60601c9250505090565b339250505090565b634e487b7160e01b600052604160045260246000fd5b6040516080810167ffffffffffffffff8111828210171561052e5761052e6104f5565b60405290565b604051610180810167ffffffffffffffff8111828210171561052e5761052e6104f5565b604051610120810167ffffffffffffffff8111828210171561052e5761052e6104f5565b604051601f8201601f1916810167ffffffffffffffff811182821017156105a5576105a56104f5565b604052919050565b600082601f8301126105be57600080fd5b813567ffffffffffffffff8111156105d8576105d86104f5565b6105eb601f8201601f191660200161057c565b81815284602083860101111561060057600080fd5b816020850160208301376000918101602001919091529392505050565b6001600160a01b038116811461063257600080fd5b50565b803561047b8161061d565b80356cffffffffffffffffffffffffff8116811461047b57600080fd5b803563ffffffff8116811461047b57600080fd5b803561ffff8116811461047b57600080fd5b803562ffffff8116811461047b57600080fd5b8035801515811461047b57600080fd5b803560ff8116811461047b57600080fd5b600060808083850312156106ca57600080fd5b6106d261050b565b9150823567ffffffffffffffff808211156106ec57600080fd5b818501915085601f83011261070057600080fd5b8135602082821115610714576107146104f5565b610722818360051b0161057c565b828152818101935061018092830285018201928984111561074257600080fd5b948201945b838610156108355780868b03121561075f5760008081fd5b610767610534565b61077087610640565b815261077d84880161065d565b84820152604061078e81890161065d565b90820152606061079f888201610671565b908201526107ae878901610635565b8189015260a0878101359082015260c06107c9818901610683565b9082015260e06107da888201610696565b908201526101006107ec888201610696565b908201526101206107fe888201610696565b90820152610140610810888201610696565b90820152610160610822888201610696565b9082015285529485019493820193610747565b50865261084387820161065d565b818701525050505050610858604083016106a6565b604082015261086960608301610635565b606082015292915050565b60006080828403121561088657600080fd5b61088e61050b565b905061089982610696565b81526108a760208301610696565b60208201526108b860408301610696565b604082015261086960608301610696565b600080604083850312156108dc57600080fd5b82359150602083013567ffffffffffffffff808211156108fb57600080fd5b90840190610180828703121561091057600080fd5b610918610558565b82358281111561092757600080fd5b610933888286016105ad565b82525060208301358281111561094857600080fd5b610954888286016105ad565b60208301525061096660408401610635565b604082015260608301358281111561097d57600080fd5b610989888286016105ad565b60608301525061099b60808401610635565b608082015260a0830135828111156109b257600080fd5b6109be888286016105ad565b60a08301525060c0830135828111156109d657600080fd5b6109e2888286016106b7565b60c0830152506109f460e08401610635565b60e08201526101009150610a0a87838501610874565b828201528093505050509250929050565b600060208284031215610a2d57600080fd5b8135610a388161061d565b9392505050565b6000815180845260005b81811015610a6557602081850181015186830182015201610a49565b506000602082860101526020601f19601f83011685010191505092915050565b60006101a08c835260208181850152610aa08285018e610a3f565b91508382036040850152610ab4828d610a3f565b915060606001600160a01b03808d16606087015260808685036080880152610adc858e610a3f565b945060a0828d1660a089015260c0925087860360c0890152610afe868d610a3f565b955060e088870360e08a0152608087018c516080895281815180845260a08b0191508983019350600092505b80831015610bf657835180516cffffffffffffffffffffffffff168352808b015163ffffffff8116848d0152506040810151610b6e604085018263ffffffff169052565b508981015161ffff16838b0152878101516001600160a01b03168884015286810151878401528881015162ffffff16898401528581015115158684015261010080820151151590840152610120808201511515908401526101408082015115159084015261016090810151151590830152928901926001929092019161018090910190610b2a565b508e89015163ffffffff81168b8b0152975060408f01519850610c1e60408b018a60ff169052565b60608f01519850610c3a60608b018a6001600160a01b03169052565b6001600160a01b038e166101008d01529950610c5b98505050505050505050565b825115156101208301526020830151151561014083015260408301511515610160830152606083015115156101808301529b9a5050505050505050505050565b634e487b7160e01b600052601160045260246000fd5b600060018201610cc357610cc3610c9b565b5060010190565b81810381811115610cdd57610cdd610c9b565b92915050565b60008085851115610cf357600080fd5b83861115610d0057600080fd5b5050820193919092039150565b6bffffffffffffffffffffffff198135818116916014851015610d3a5780818660140360031b1b83161692505b50509291505056fea2646970667358221220f028749a05c3ad6b832cdcbbdcc01f067f227640cd3e6413b41b74165ef56cd264736f6c63430008170033",
	"deployedBytecode": "0x608060405234801561001057600080fd5b50600436106100725760003560e01c80637da0a877116100505780637da0a8771461011e57806389a56bbc14610144578063a54eb2421461016b57600080fd5b80632230819f14610077578063507f1465146100a7578063572b6c05146100ce575b600080fd5b61008a6100853660046108c9565b610192565b6040516001600160a01b0390911681526020015b60405180910390f35b61008a7f000000000000000000000000ac41d62add150c0f7f9f5bfc3b544cf333a1f98881565b61010e6100dc366004610a1b565b7f000000000000000000000000b2b5841dbef766d4b521221732f9b618fcf34a876001600160a01b0390811691161490565b604051901515815260200161009e565b7f000000000000000000000000b2b5841dbef766d4b521221732f9b618fcf34a8761008a565b61008a7f000000000000000000000000989566bf9ff4cffa55a98ada7dc3e58b2a0a19c681565b61008a7f0000000000000000000000001d208f757458507b66f0420e56ad4a103dca95bc81565b60006101bd7f0000000000000000000000001d208f757458507b66f0420e56ad4a103dca95bc6103f5565b9050806001600160a01b031663c07f2f9b84846000015185602001518660400151876060015188608001518960a001518a60c001517f000000000000000000000000ac41d62add150c0f7f9f5bfc3b544cf333a1f9888c61010001516040518b63ffffffff1660e01b815260040161023e9a99989796959493929190610a85565b600060405180830381600087803b15801561025857600080fd5b505af115801561026c573d6000803e3d6000fd5b50505050806001600160a01b031663f2fde38b610287610480565b6040517fffffffff0000000000000000000000000000000000000000000000000000000060e084901b1681526001600160a01b039091166004820152602401600060405180830381600087803b1580156102e057600080fd5b505af11580156102f4573d6000803e3d6000fd5b505050507f000000000000000000000000989566bf9ff4cffa55a98ada7dc3e58b2a0a19c66001600160a01b031663b94417ab30600080815461033690610cb1565b91829055506040517fffffffff0000000000000000000000000000000000000000000000000000000060e085901b1681526001600160a01b0390921660048301526024820152604401600060405180830381600087803b15801561039957600080fd5b505af11580156103ad573d6000803e3d6000fd5b50506040516001600160a01b03841681528592507fa42f6bb68e81f4650a7966f109d861f6c3d2a477e608e30807f568bed1cebdb9915060200160405180910390a292915050565b6000763d602d80600a3d3981f3363d3d373d3d3d363d730000008260601b60e81c176000526e5af43d82803e903d91602b57fd5bf38260781b17602052603760096000f090506001600160a01b03811661047b576040517fc2f868f400000000000000000000000000000000000000000000000000000000815260040160405180910390fd5b919050565b60003660147f000000000000000000000000b2b5841dbef766d4b521221732f9b618fcf34a876001600160a01b0316331480156104bd5750808210155b156104ed576000366104cf8385610cca565b6104da928290610ce3565b6104e391610d0d565b60601c9250505090565b339250505090565b634e487b7160e01b600052604160045260246000fd5b6040516080810167ffffffffffffffff8111828210171561052e5761052e6104f5565b60405290565b604051610180810167ffffffffffffffff8111828210171561052e5761052e6104f5565b604051610120810167ffffffffffffffff8111828210171561052e5761052e6104f5565b604051601f8201601f1916810167ffffffffffffffff811182821017156105a5576105a56104f5565b604052919050565b600082601f8301126105be57600080fd5b813567ffffffffffffffff8111156105d8576105d86104f5565b6105eb601f8201601f191660200161057c565b81815284602083860101111561060057600080fd5b816020850160208301376000918101602001919091529392505050565b6001600160a01b038116811461063257600080fd5b50565b803561047b8161061d565b80356cffffffffffffffffffffffffff8116811461047b57600080fd5b803563ffffffff8116811461047b57600080fd5b803561ffff8116811461047b57600080fd5b803562ffffff8116811461047b57600080fd5b8035801515811461047b57600080fd5b803560ff8116811461047b57600080fd5b600060808083850312156106ca57600080fd5b6106d261050b565b9150823567ffffffffffffffff808211156106ec57600080fd5b818501915085601f83011261070057600080fd5b8135602082821115610714576107146104f5565b610722818360051b0161057c565b828152818101935061018092830285018201928984111561074257600080fd5b948201945b838610156108355780868b03121561075f5760008081fd5b610767610534565b61077087610640565b815261077d84880161065d565b84820152604061078e81890161065d565b90820152606061079f888201610671565b908201526107ae878901610635565b8189015260a0878101359082015260c06107c9818901610683565b9082015260e06107da888201610696565b908201526101006107ec888201610696565b908201526101206107fe888201610696565b90820152610140610810888201610696565b90820152610160610822888201610696565b9082015285529485019493820193610747565b50865261084387820161065d565b818701525050505050610858604083016106a6565b604082015261086960608301610635565b606082015292915050565b60006080828403121561088657600080fd5b61088e61050b565b905061089982610696565b81526108a760208301610696565b60208201526108b860408301610696565b604082015261086960608301610696565b600080604083850312156108dc57600080fd5b82359150602083013567ffffffffffffffff808211156108fb57600080fd5b90840190610180828703121561091057600080fd5b610918610558565b82358281111561092757600080fd5b610933888286016105ad565b82525060208301358281111561094857600080fd5b610954888286016105ad565b60208301525061096660408401610635565b604082015260608301358281111561097d57600080fd5b610989888286016105ad565b60608301525061099b60808401610635565b608082015260a0830135828111156109b257600080fd5b6109be888286016105ad565b60a08301525060c0830135828111156109d657600080fd5b6109e2888286016106b7565b60c0830152506109f460e08401610635565b60e08201526101009150610a0a87838501610874565b828201528093505050509250929050565b600060208284031215610a2d57600080fd5b8135610a388161061d565b9392505050565b6000815180845260005b81811015610a6557602081850181015186830182015201610a49565b506000602082860101526020601f19601f83011685010191505092915050565b60006101a08c835260208181850152610aa08285018e610a3f565b91508382036040850152610ab4828d610a3f565b915060606001600160a01b03808d16606087015260808685036080880152610adc858e610a3f565b945060a0828d1660a089015260c0925087860360c0890152610afe868d610a3f565b955060e088870360e08a0152608087018c516080895281815180845260a08b0191508983019350600092505b80831015610bf657835180516cffffffffffffffffffffffffff168352808b015163ffffffff8116848d0152506040810151610b6e604085018263ffffffff169052565b508981015161ffff16838b0152878101516001600160a01b03168884015286810151878401528881015162ffffff16898401528581015115158684015261010080820151151590840152610120808201511515908401526101408082015115159084015261016090810151151590830152928901926001929092019161018090910190610b2a565b508e89015163ffffffff81168b8b0152975060408f01519850610c1e60408b018a60ff169052565b60608f01519850610c3a60608b018a6001600160a01b03169052565b6001600160a01b038e166101008d01529950610c5b98505050505050505050565b825115156101208301526020830151151561014083015260408301511515610160830152606083015115156101808301529b9a5050505050505050505050565b634e487b7160e01b600052601160045260246000fd5b600060018201610cc357610cc3610c9b565b5060010190565b81810381811115610cdd57610cdd610c9b565b92915050565b60008085851115610cf357600080fd5b83861115610d0057600080fd5b5050820193919092039150565b6bffffffffffffffffffffffff198135818116916014851015610d3a5780818660140360031b1b83161692505b50509291505056fea2646970667358221220f028749a05c3ad6b832cdcbbdcc01f067f227640cd3e6413b41b74165ef56cd264736f6c63430008170033",
	"devdoc": {
		"kind": "dev",
		"methods": {
			"constructor": {
				"params": {
					"addressRegistry": "A registry which stores references to contracts and their deployers.",
					"hook": "Reference copy of a hook."
				}
			},
			"deployHookFor(uint256,(string,string,address,string,address,string,((uint104,uint32,uint32,uint16,address,bytes32,uint24,bool,bool,bool,bool,bool)[],uint32,uint8,address),address,(bool,bool,bool,bool)))": {
				"params": {
					"deployTiersHookConfig": "The config to deploy the hook with, which determines its behavior.",
					"projectId": "The ID of the project to deploy the hook for."
				},
				"returns": {
					"newHook": "The address of the newly deployed hook."
				}
			},
			"isTrustedForwarder(address)": {
				"details": "Indicates whether any particular address is the trusted forwarder."
			},
			"trustedForwarder()": {
				"details": "Returns the address of the trusted forwarder."
			}
		},
		"version": 1
	},
	"userdoc": {
		"kind": "user",
		"methods": {
			"ADDRESS_REGISTRY()": {
				"notice": "A registry which stores references to contracts and their deployers."
			},
			"HOOK()": {
				"notice": "A 721 tiers hook."
			},
			"STORE()": {
				"notice": "The contract that stores and manages data for this contract's NFTs."
			},
			"deployHookFor(uint256,(string,string,address,string,address,string,((uint104,uint32,uint32,uint16,address,bytes32,uint24,bool,bool,bool,bool,bool)[],uint32,uint8,address),address,(bool,bool,bool,bool)))": {
				"notice": "Deploys a 721 tiers hook for the specified project."
			}
		},
		"version": 1
	},
	"gitCommit": "25d492e2002e347aa6573f5a389be455a787aa4c",
	"sourceName": "src/JB721TiersHookDeployer.sol",
	"chainId": "84532",
	"linkReferences": {},
	"deployedLinkReferences": {},
	"history": []
}